:020000040800F2
:10000000C00600207D0400085102000853020008C9
:10001000570200085B0200085F02000800000000B1
:100020000000000000000000000000006302000863
:10003000650200080000000067020008690200086D
:100040009704000897040008970400089704000824
:100050009704000897040008970400089704000814
:100060009704000897040008970400089704000804
:1000700097040008970400089704000897040008F4
:1000800097040008970400089704000897040008E4
:1000900097040008970400089704000897040008D4
:1000A00097040008970400089704000897040008C4
:1000B00097040008970400089704000897040008B4
:1000C00097040008970400089704000897040008A4
:1000D000970400085F18000897040008B719000883
:1000E0009704000897040008970400089704000884
:1000F0009704000897040008970400089704000874
:100100009704000897040008970400089704000863
:100110009704000897040008970400089704000853
:100120009704000897040008970400089704000843
:100130009704000897040008970400089704000833
:100140009704000897040008970400089704000823
:100150009704000897040008970400089704000813
:100160009704000897040008970400089704000803
:1001700097040008970400089704000897040008F3
:10018000970400089704000800F002F800F03CF81B
:100190000AA090E8000C82448344AAF10107DA45E2
:1001A00001D100F031F8AFF2090EBAE80F0013F0F8
:1001B000010F18BFFB1A43F001031847C8220000C3
:1001C000E8220000103A24BF78C878C1FAD8520754
:1001D00024BF30C830C144BF04680C6070470000C1
:1001E0000023002400250026103A28BF78C1FBD840
:1001F000520728BF30C148BF0B6070471FB502F0DF
:100200003BF91FBD10B510BD02F004F91146FFF710
:10021000F5FF00F009F802F022F903B4FFF7F2FF4E
:1002200003BC01F0B3FA00004FF4A06000F046F9FF
:10023000A82001F029FA054801F0B5FA034801F0B9
:100240001DFB01F06EFB00BFFEE7000020A10700D0
:10025000704700BFFEE700BFFEE700BFFEE700BF3C
:10026000FEE7704770477047704700000CB50020EC
:10027000019000907648006840F48030744908602E
:1002800000BF7348006800F4003000900198401CE3
:100290000190009818B90198B0F5A04FF1D16C48C1
:1002A000006800F4003010B10120009001E000204F
:1002B00000900098012846D165484030006840F021
:1002C00080506349403108606248006840F4404013
:1002D000604908605E48083000685D490831086080
:1002E0000846006840F4004008600846006840F492
:1002F000A05008605848091F0860081F006840F0B7
:100300008070091F086000BF5148006800F000704D
:100310000028F9D040F20570504908604C48083078
:10032000006820F003004A49083108600846006868
:1003300040F00200086000BF45480830006800F047
:100340000C000828F8D10CBD10B54548006840F4F1
:100350007000434908603E48006840F001003C4995
:10036000086000203A4908310860394800683D4972
:100370000840374908603C48091D0860081F0068AC
:1003800020F48020091F0860002031490C310860EA
:10039000FFF76CFF4FF0006031498039086010BDF5
:1003A00070B500200022022300240221284D0835C8
:1003B0002D6805F00C0020B1042806D0082834D19F
:1003C00007E02A4D2A4E356033E02A4D284E35602D
:1003D0002FE01F4D2D1D2D68C5F380541C4D2D1D84
:1003E0002D6805F03F0154B1224DB5FBF1F5184ED3
:1003F000361D3668C6F3881605FB06F209E01B4D6C
:10040000B5FBF1F5124E361D3668C6F3881605FBAE
:1004100006F20F4D2D1D2D68C5F301456D1C6B00B7
:10042000B2FBF3F5124E356003E0104D104E35600F
:1004300000BF00BF064D08352D68C5F303150E4EED
:10044000705D0B4D2D68C540094E356070BD0000D4
:10045000003802400070004008544007003C024051
:1004600088ED00E0FFFFF6FE103000240024F400C9
:100470000000002000127A00040000200948804794
:1004800009480047FEE7FEE7FEE7FEE7FEE7FEE776
:10049000FEE7FEE7FEE7FEE704480549054A064B8E
:1004A000704700004903000889010008C0000020CF
:1004B000C0060020C0020020C002002032490143D3
:1004C000324A1160704770B5002100230F22C478B2
:1004D0001CB32E4C246804F4E064C4F5E064C4F357
:1004E0000721C1F10404E3B20A4144789C40E1B21F
:1004F0008478144021430C07210E254C0578615562
:10050000047804F01F050124AC4005786D11AD009E
:1005100005F1E025C5F8004109E0047804F01F0565
:100520000124AC401B4D0678761145F8264070BD7D
:10053000194A0A400243154B1B1F1A60704739B114
:10054000124A121D12680243104B1B1D1A6006E06E
:100550000E4A121D126882430C4B1B1D1A60704715
:10056000042808D14FF0E021096941F004014FF05F
:10057000E022116107E04FF0E021096921F0040158
:100580004FF0E022116170470000FA050CED00E029
:1005900000E400E080E100E080FFFF1F016821F03F
:1005A000010101600021016041608160C160016161
:1005B00021214161DB49884204D13D21D94A103AC9
:1005C00091608CE0D7491831884205D14FF47461AD
:1005D000D44A103A916082E0D2493031884205D144
:1005E0004FF47411CF4A103A916078E0CD49483108
:1005F000884205D14FF07461CA4A103A91606EE0AA
:10060000C8496031884204D1C749C64A103AD1600E
:1006100065E0C4497831884204D1C449C14A103ADE
:10062000D1605CE0BF499031884204D1C049BD4AE5
:10063000103AD16053E0BB49A831884205D14FF050
:100640003D51B84A103AD16049E0BA49884204D1D4
:100650003D21B84A083A116041E0B6491831884254
:1006600005D14FF47461B34A083A116037E0B149DB
:100670003031884205D14FF47411AE4A083A116006
:100680002DE0AC494831884205D14FF07461A94A48
:10069000083A116023E0A7496031884204D1A24999
:1006A000A44A121F11601AE0A2497831884204D18D
:1006B0009E49A04A121F116011E09E499031884264
:1006C00004D19B499B4A121F116008E09949A83147
:1006D000884204D14FF03D51964A121F1160704775
:1006E00010B500220268944B1A40CC680B68234373
:1006F0004C6923438C692343CC6923430C6A23430D
:100700004C6A23438C6A23434C6B23438C6B2343F7
:100710001A430260426922F00702D1E90B342343F5
:100720001A4342610B6943604B6883608B68C36006
:1007300010BD0021016041608160C16001614161C3
:100740008161C161016241628162C1620163416391
:100750008163704721B1026842F00102026003E048
:10076000026822F001020260704721B1026842F47F
:100770000042026003E0026822F400420260704717
:1007800021B1026842F02002026003E0026822F018
:10079000200202607047416070470146486880B29D
:1007A000704722B1036843F40023036003E0036849
:1007B00023F4002303600161704721B1026842F411
:1007C0008022026003E0026822F480220260704707
:1007D0000AB1016100E0C1607047014600200A686B
:1007E00002F400220AB1012000E000207047014617
:1007F00000200A6802F001020AB1012000E0002096
:100800007047014600204A6902F03800704730B551
:1008100003460A4600200024464DAB4202D241491D
:10082000103901E04349103902F000550DB14C6810
:1008300000E00C68414D2C4004EA02050DB1012096
:1008400000E0002030BD02463A4B9A4202D23548C1
:10085000103801E03748103801F000531BB1374B16
:100860000B40C36002E0354B0B408360704710B50E
:1008700001F080034BB122B1436943F0800343612F
:1008800003E0436923F08003436180290BD02AB140
:10089000036801F01E042343036004E0036801F0D1
:1008A0001E04A343036010BD70B50246002000245F
:1008B0000025204EB24202D21A4B103B01E01D4BE4
:1008C000103B1F4E0E4036B11E2606EAD124166894
:1008D00006EA040502E0566906F0800501F00056BC
:1008E0000EB15C6800E01C68144E344004EA010656
:1008F00016B10DB1012000E0002070BD02460D4B85
:100900009A4202D20748103801E00A48103801F034
:1009100000531BB1094B0B40C36002E0074B0B4077
:1009200083607047106002403D000020400F0020AF
:1009300000003D20106402403F801CF07D0F7D0FC1
:100940003C0F3C0F10B504469848844208D1012161
:10095000084600F086FB0021012000F082FB76E0D3
:100960009348844208D10121022000F07AFB002143
:10097000022000F076FB6AE08E48844208D1012113
:10098000042000F06EFB0021042000F06AFB5EE012
:100990008948844208D10121082000F062FB00212F
:1009A000082000F05EFB52E08448844208D1012117
:1009B000102000F056FB0021102000F052FB46E012
:1009C0007F48844208D10121202000F04AFB002109
:1009D000202000F046FB3AE07A48844208D1012109
:1009E000402000F03EFB0021402000F03AFB2EE0CA
:1009F0007548844208D10121802000F032FB00219B
:100A0000802000F02EFB22E07048844208D10121B2
:100A1000801500F026FB0021A01500F022FB16E057
:100A20006B48844208D10121401500F01AFB0021D7
:100A3000601500F016FB0AE06648844207D10121E8
:100A4000001500F00EFB0021201500F00AFB10BD80
:100A5000F0B50A4600210023002400BF3DE0012537
:100A600005FA01F3156805EA03049C4234D10568D0
:100A70004F000326BE40B543056015794E00B540D2
:100A80000668354305601579012D02D01579022DD0
:100A900016D185684F000326BE40B5438560557961
:100AA0004E00B540866835438560456801268E4016
:100AB000B5434560456896798E40B6B2354345608A
:100AC000C5684F000326BE40B543C560D5794E00CA
:100AD000B540C6683543C560491C1029BFD3F0BD79
:100AE0004FF6FF7101600021017141718171C17187
:100AF000704708B54FF480320092009A0A43009282
:100B0000009AC261C161009AC261C2690092C26961
:100B1000009208BD0246002013690B400BB1012072
:100B200000E0002070470146086980B27047024625
:100B3000002053690B400BB1012000E000207047FA
:100B40000146486980B2704701837047418370470E
:100B50000AB1018300E041837047416170474269F7
:100B60004A4042617047F0B5002300244D07ED0E66
:100B700002FA05F3CE1000F1200555F826504E0775
:100B8000F70E0F26BE40B543CF1000F1200646F801
:100B90002750CE1000F1200555F8265045EA0304F1
:100BA000CE1000F1200545F82640F0BD00000240BF
:100BB0000004024000080240000C02400010024005
:100BC0000014024000180240001C024000200240B5
:100BD0000024024000280240F948006840F001006B
:100BE000F74908600020F64908310860F4480068B9
:100BF000F4490840F2490860F348091D0860F348C9
:100C0000EF4984310860F0481038091D0860EC484D
:100C1000006820F48020EA4908600020E8490C318F
:100C20000860E7498C31086070470021E44A921C53
:100C3000117011460870704710B50146002200235C
:100C400000204A11012A02D1DD4C236808E0022A63
:100C500003D1DB4C7034236802E0D94C7434236830
:100C600001F01F02012494401C400CB1012000E05F
:100C7000002010BD38B5002000900024002500BFE2
:100C80003120FFF7D9FF05460098401C00900098DE
:100C9000B0F5A04F01D0002DF2D03120FFF7CCFFEE
:100CA00008B1012400E00024204638BD01460020A0
:100CB000C34A106820F0F80040EAC1001060704795
:100CC000C349086070470021BD4A7032117011702D
:100CD000012802D004280AD104E00121B84A703268
:100CE000117005E00521B64A7032117000E000BFB6
:100CF00000BF7047B7490860704770B5049C41EA6F
:100D000082150126C6EB530645EA0645054345EA2A
:100D10000465AB4E361D356070BDAD490866704741
:100D2000820142EA0172A64B84331A607047A849D7
:100D30008866704710B5830143EA016343EA027392
:100D40009F4C8834236010BDA14908677047A049B3
:100D5000C864704702460020994B0833186820F099
:100D6000EC6042EA01031843954B08331860704762
:100D700002460020924B0833186820F0784042EA7F
:100D8000010318438E4B083318607047014600205A
:100D90008B4A0832106820F0030008431060704747
:100DA00087480830006800F00C00704701460020BA
:100DB000834A0832106820F0F00008431060704742
:100DC000014600207E4A0832106820F4E0500843B3
:100DD0001060704701460020794A0832106820F4FC
:100DE000604040EAC10010607047F0B50021002269
:100DF0000024022500260223714F08373F6807F0C0
:100E00000C0121B1042905D0082937D105E0724F22
:100E1000076036E0714F076033E0694F3F1D3F6860
:100E2000C7F38056664F3F1D3F6807F03F036EB122
:100E30006A4FB7FBF3F7DFF888C10CF1040CDCF85C
:100E400000C0CCF3881C07FB0CF40CE0624FB7FB2E
:100E5000F3F7DFF86CC10CF1040CDCF800C0CCF344
:100E6000881C07FB0CF4564F3F1D3F68C7F3014732
:100E70007F1C7D00B4FBF5F7076002E0564F07606A
:100E800000BF00BF4E4F08373F6807F0F001090967
:100E9000534F7A5C0768D7404760494F08373F682F
:100EA00007F4E051890A4E4F7A5C4768D740876063
:100EB000434F08373F6807F46041490B484F7A5C5D
:100EC0004768D740C760F0BD002100F44072B2F51A
:100ED000407F0AD13A4A0832116821F4F811414A98
:100EE00002401143364A08321160354A70321268A6
:100EF000C0F30B031A43324B70331A607047354905
:100F000044390860704733494039086070473649B2
:100F10000860704701460020294A8C32106820F092
:100F20001F004A1E1043264A8C321060704701464B
:100F30000020234A8C32106820F4F8504A1E40EA00
:100F400002201F4A8C3210607047014600201C4A64
:100F50008C32106820F4401008431060704701463E
:100F60000020174A8C32106820F4400008431060BB
:100F7000704701460020124A8C32106820F440303D
:100F800008431060704719490860704739B10C4A2E
:100F90003032126802430A4B30331A6006E0084AC6
:100FA000303212688243064B30331A607047F9B111
:100FB000034A343212680243014B34331A601CE096
:100FC00000380240FFFFF6EA103000240030002015
:100FD00000004742800E47420024F40000127A00CD
:100FE00014000020FFFCFF0F5C014742E011474264
:100FF0008F4A126882438E4B1A60704739B18C4A0F
:10100000121D126802438A4B1B1D1A6006E0884AB3
:10101000121D12688243864B1B1D1A60704739B13E
:10102000834A0C3212680243814B0C331A6006E08B
:101030007F4A0C32126882437D4B0C331A60704732
:1010400039B17B4A103212680243794B10331A606F
:1010500006E0774A103212688243754B10331A60EB
:10106000704739B1724A243A12680243704B243BEC
:101070001A6006E06E4A243A126882436C4B243BA5
:101080001A60704739B16A4A203A12680243684BC5
:10109000203B1A6006E0664A203A12688243644B9D
:1010A000203B1A60704739B1614A1C3A126802430A
:1010B0005F4B1C3B1A6006E05D4A1C3A1268824393
:1010C0005B4B1C3B1A60704739B1594A143A12689D
:1010D0000243574B143B1A6006E0554A143A126813
:1010E0008243534B143B1A60704739B1504A103A4F
:1010F000126802434E4B103B1A6006E04C4A103A0D
:10110000126882434A4B103B1A60704739B1484A13
:101110001C3212680243464B1C331A6006E0444AF4
:101120001C3212688243424B1C331A60704739B13B
:101130003F4A2032126802433D4B20331A6006E0DA
:101140003B4A203212688243394B20331A60704781
:1011500039B1374A243212680243354B24331A60BE
:1011600006E0334A243212688243314B24331A603A
:10117000704739B12E4A2C32126802432C4B2C3363
:101180001A6006E02A4A2C3212688243284B2C331C
:101190001A60704739B1264A303212680243244B34
:1011A00030331A6006E0224A303212688243204B04
:1011B00030331A607047012808D11D493C31096855
:1011C00041F008011A4A3C32116007E018493C31ED
:1011D000096821F00801164A3C321160704739B1A4
:1011E000134A273A12780243114B273B1A7006E044
:1011F0000F4A273A127882430D4B273B1A707047EB
:101200000B484030006840F0807009494031086068
:10121000704701460020064A283A12680A400AB17F
:10122000012000E00020704701492639087070470E
:101230003438024010B50446FA48844208D10121EE
:101240001020FFF752FF00211020FFF74EFF57E05C
:10125000F548844209D101214804FFF735FF0021F8
:101260004FF40030FFF730FF4AE0F048844209D1E4
:1012700001218804FFF728FF00214FF48020FFF7A9
:1012800023FF3DE0EA48844209D10121C804FFF769
:101290001BFF00214FF40020FFF716FF30E0E54868
:1012A000844209D101210805FFF70EFF00214FF408
:1012B0008010FFF709FF23E0DF48844208D10121B5
:1012C0002020FFF712FF00212020FFF70EFF17E07C
:1012D000DA48844209D101218807FFF7F5FE002191
:1012E0004FF08040FFF7F0FE0AE0D548844207D176
:1012F00001214005FFF7E8FE00216005FFF7E4FE4D
:1013000010BD2DE9FF4705460E460024A14600BF4B
:10131000A046B08900B100BF2C8A24F44054F08864
:1013200004432C82AC8941F20C608443B08831893B
:101330000843718908430443AC81AC8A24F44074A7
:10134000B0890443AC826846FFF74FFDB54885423B
:1013500002D0B948854202D1DDF80C9001E0DDF8F9
:101360000890A88900F4004040B109EBC90000EBE7
:10137000091031684900B0FBF1F707E009EBC9003B
:1013800000EB091031688900B0FBF1F76420B7FB6E
:10139000F0F004012009642101FB1078A88900F411
:1013A000004040B1322000EBC800B0FBF1F000F08B
:1013B0000700044308E0322000EB08106421B0FB72
:1013C000F1F000F00F0004432C81BDE8FF874FF4DB
:1013D0001651016000218180C18001810C21418171
:1013E00000218181704710B502460020108A20F448
:1013F00070600B884C8823438C882343CC8823431C
:101400001843108210BD0021018041808180C1807D
:10141000704721B1828942F40052828104E08289BE
:101420004DF6FF731A4082817047028B02F47F42AF
:101430000283028B0A430283704721B1828942F4FE
:101440000042828103E08289C2F30E0282817047EA
:1014500021B1828A42F40062828204E0828A4FF2E1
:10146000FF731A4082827047C1F30802828070477E
:1014700001468888C0F308007047028A4FF6F0736F
:101480001A400282028A0A430282704721B182898D
:1014900042F00202828104E082894FF6FD731A4015
:1014A0008281704782894FF2FF731A40828182895C
:1014B0000A4382817047028A4FF6DF731A40028224
:1014C000028A0A430282704721B1028A42F48042B2
:1014D000028204E0028A4BF6FF731A4002827047D0
:1014E000818941F001018181704721B1828A42F0F6
:1014F0000802828204E0828A4FF6F7731A408282E1
:101500007047028BD2B20283028B42EA012202832D
:10151000704721B1828A42F02002828204E0828AEE
:101520004FF6DF731A408282704721B1828A42F0FF
:101530001002828204E0828A4FF6EF731A408282A0
:101540007047828A4FF6FB731A408282828A0A436E
:101550008282704721B1828A42F00202828204E0D4
:10156000828A4FF6FD731A40828270471AB1838ACD
:101570000B43838202E0838A8B4383827047F0B5FA
:101580000346002400260025002040F66A17B942D1
:1015900000D100BF1846C1F3421401F01F06012715
:1015A00007FA06F5012C01D10C3004E0022C01D120
:1015B000103000E014301AB107682F43076002E0D2
:1015C0000768AF430760F0BD02460020B1F5007F19
:1015D00000D100BF13880B400BB1012000E00020B8
:1015E000704701F40072B2F5007F00D100BFCA431A
:1015F0000280704770B502460024002300250020B9
:1016000040F66A16B14200D100BFC1F3421501F0A5
:101610001F03012606FA03F3012D13D196893340E7
:1016200017E0000000100140004400400048004066
:10163000004C004000500040001401400078004081
:10164000007C0040022D02D1168A334001E0968AC8
:1016500033400C12012606FA04F41688344013B104
:101660000CB1012000E0002070BD10B50022002365
:1016700040F66A14A14200D100BF0A12012494402E
:10168000A3B2DC43048010BD10B504466FF0040023
:10169000FEF766FFE11704EB5171C1F3C701394A48
:1016A00011701046007800EB4001C1EBC0104FF6FE
:1016B000FF7101EAC0003449088010BD0146314A7B
:1016C00012784A434FF0E0235A6100229A611A4689
:1016D000126942F001021A6100BF4FF0E022106966
:1016E00000F001021AB100F48032002AF5D04FF068
:1016F000E022126922F001024FF0E0231A61002279
:101700009A6170470146204A12884A434FF0E0230D
:101710005A6100229A611A46126942F001021A6166
:1017200000BF4FF0E022106900F001021AB100F48E
:101730008032002AF5D04FF0E022126922F0010237
:101740004FF0E0231A6100229A61704770B5044699
:101750004FF4077094FBF0F0C6B24FF4077094FB9F
:10176000F0F100FB114085B205E04FF40770FFF780
:10177000C9FF701EC6B2002EF7D115B12846FFF77B
:10178000C1FF70BD240000202600002000BF70476C
:1017900000BFE04A128802F04002002AF9D0C2B22B
:1017A000DC4B9A80704710B588B00446012108468A
:1017B000FFF7ECFB01211020FFF742FC0722092173
:1017C000D548FFF7D0F907220A21D348FFF7CBF914
:1017D0004FF4C060069002208DF81C008DF81D00AB
:1017E00000208DF81E0001208DF81F0006A9CA48B0
:1017F000FFF72EF902940020ADF80C00ADF80E00B2
:10180000ADF81000ADF814000C20ADF8120002A9DC
:10181000C048FFF776FD0121BE48FFF7FAFD01221F
:1018200040F22551BB48FFF7AAFE25208DF80400A1
:1018300003208DF805008DF8060001208DF80700C3
:1018400001A8FEF740FE08B010BDB249888000BF75
:10185000B049098801F040010029F9D0704710B55E
:1018600040F22551AB48FFF7C5FE30B1A949898840
:10187000C8B2A8490988C8B200BF10BD10B588B069
:10188000044601210420FFF781FB01218804FFF7B2
:10189000C6FB07220B21A148FFF765F907220A21A1
:1018A0009E48FFF760F94FF44060069002208DF8E3
:1018B0001C008DF81D0000208DF81E0001208DF801
:1018C0001F0006A99548FFF7C3F802940020ADF861
:1018D0000C00ADF80E00ADF81000ADF814000C20AF
:1018E000ADF8120002A98E48FFF70BFD01218C48CC
:1018F000FFF78FFD012240F224418948FFF73FFEA8
:1019000027208DF8040002208DF8050003208DF8B3
:10191000060001208DF8070001A8FEF7D4FD08B0ED
:1019200010BD00B591B001214805FFF72FFB7D48A0
:10193000FEF734FE00BF7B48FEF759FF0028FAD1BE
:101940004FF0006001907648001D029076480390A9
:101950000020049014200590002006904FF4806031
:1019600007900020089009904FF480700A900002C0
:101970000B9000200C900D900E900F9001A96948DB
:10198000FEF7AEFE0C208DF8400000208DF84100DF
:1019900001208DF842008DF8430010A8FEF793FD5A
:1019A00001216048FEF7D6FE012240215C48FFF786
:1019B000DDFD11B000BD70B540F224415848FFF77D
:1019C00019FE002872D000215648FEF7C3FE544885
:1019D000001D00885549087051480088087051481A
:1019E000FEF7DBFEC0F1140050490870002582E0CC
:1019F0004D48445D4E48007840B9DF2C06D1DF20C9
:101A00004C49087001204A49087072E04848007843
:101A1000012805D14748447002204549087068E014
:101A200043480078022805D1424884700320404989
:101A300008705EE03E480078032805D13D48C47038
:101A400004203B49087054E03948007804281DD12F
:101A50003948007838490978491C374A1170001D07
:101A600034490C540846C07811460978884203D19D
:101A700005202F4908703CE02F480078062838DB05
:101A800000202B4908702C49087032E02848007863
:101A900005280CD1FD2C0AD1062025490870FD210E
:101AA000244A25480078001D115422E030E02048E7
:101AB0000078062818D10026002005E01D49095CA1
:101AC0003144CEB2411CC8B21B490978091D884275
:101AD000F4DDA64202D1174800F015FC002014499D
:101AE00008701549087004E0002011490870124977
:101AF0000870681CC5B20D4800788542FFF678AFC3
:101B00001421094800F039FC01210648FEF722FEA5
:101B100070BD0000001001400000024000080240BB
:101B20000048004028600240380000202C000020BF
:101B30002D0000204C0000202E000020F7B584B0BE
:101B400016460024DF222146641C01A842540322C9
:101B50002146641C425401222146641C4254052241
:101B60002146641C42549DF810202146641C4254B6
:101B70009DF811202146641C42549DF814202146F2
:101B8000641C42549DF815202046611CCCB201A96A
:101B90000A542046611CCCB201A90E54FD222046F5
:101BA000611CCCB201A90A540027002005E001A95C
:101BB000095C3944CFB2411CC8B2A042F7DB2046D1
:101BC000611CCCB201A90F5400250DE001A8415DB4
:101BD000FE48FFF749FC00BF8021FC48FFF7F4FCFA
:101BE0000028F9D0681CC5B2A542EFDB07B0F0BDF4
:101BF000F7B584B016460024DF222146641C01A8F4
:101C0000425403222146641C425402222146641C91
:101C1000425405222146641C42549DF8102021465E
:101C2000641C42549DF811202146641C42549DF8C6
:101C300014202146641C42549DF815202046611C46
:101C4000CCB201A90A542046611CCCB201A90E54A1
:101C5000FD222046611CCCB201A90A5400270020B5
:101C600005E001A9095C3944CFB2411CC8B2A042C9
:101C7000F7DB2046611CCCB201A90F5400250DE012
:101C800001A8415DD148FFF7EFFB00BF8021CF489D
:101C9000FFF79AFC0028F9D0681CC5B2A542EFDB1B
:101CA00007B0F0BDFFB585B016460024DF222146FF
:101CB000641C01A8425403222146641C425421465C
:101CC000641C425407222146641C42549DF814208F
:101CD0002146641C42549DF815202146641C425440
:101CE0009DF818202146641C42549DF81920214675
:101CF000601CC4B201A842542046611CCCB201A9A8
:101D00000E549DF820202046611CCCB201A90A5433
:101D10009DF821202046611CCCB201A90A54FD2265
:101D20002046611CCCB201A90A540027002005E01E
:101D300001A9095C3944CFB2411CC8B2A042F7DB0B
:101D40002046611CCCB201A90F5400250DE001A86A
:101D5000415D9E48FFF788FB00BF80219B48FFF74D
:101D600033FC0028F9D0681CC5B2A542EFDB09B0EE
:101D7000F0BDFFB585B016460024DF222146641C65
:101D800001A8425403222146641C425404222146E5
:101D9000641C425407222146641C42549DF81420BE
:101DA0002146641C42549DF815202146641C42546F
:101DB0009DF818202146641C42549DF819202146A4
:101DC000601CC4B201A842542046611CCCB201A9D7
:101DD0000E549DF820202046611CCCB201A90A5463
:101DE0009DF821202046611CCCB201A90A54FD2295
:101DF0002046611CCCB201A90A540027002005E04E
:101E000001A9095C3944CFB2411CC8B2A042F7DB3A
:101E10002046611CCCB201A90F5400250DE001A899
:101E2000415D6A48FFF720FB00BF80216748FFF74C
:101E3000CBFB0028F9D0681CC5B2A542EFDB09B086
:101E4000F0BDF7B584B00E460024DF222146641CA5
:101E500001A8425403222146641C42540522214613
:101E6000641C42542146641C42549DF810202146B3
:101E7000641C42549DF811202146641C42542146A2
:101E8000641C46549DF818202046611CCCB201A960
:101E90000A549DF819202146601CC4B201A842547E
:101EA000FD222046611CCCB201A90A540027002063
:101EB00005E001A9095C3944CFB2411CC8B2A04277
:101EC000F7DB2046611CCCB201A90F5400250DE0C0
:101ED00001A8415D3D48FFF7C7FA00BF80213B489C
:101EE000FFF772FB0028F9D0681CC5B2A542EFDBF2
:101EF00007B0F0BD2DE9FE4306460F460024DF2261
:101F00002146641C0DF8012003222146641C0DF8B3
:101F1000012006222146641C0DF8012002222146E0
:101F2000641C0DF801202146641C0DF80160214657
:101F3000641C0DF80170FD222146641C0DF801207F
:101F40004FF00008002006E01DF80010414401F0A9
:101F5000FF08411CC8B2A042F6DB2046611CCCB28F
:101F60000DF8008000250DE01DF805101748FFF75B
:101F70007BFA00BF80211548FFF726FB0028F9D027
:101F8000681CC5B2A542EFDBBDE8FE8371B583B026
:101F90000024DF222146641C0DF801200322214683
:101FA000641C0DF8012007222146641C0DF8012055
:101FB00002222146641C0DF801209DF80C202146C8
:101FC000641C0DF801209DF80D2001E00048004040
:101FD0002146641C0DF80120FD222146641C0DF8E9
:101FE00001200026002005E01DF800103144CEB28B
:101FF000411CC8B2A042F7DB2046611CCCB20DF8F0
:10200000006000250DE01DF80510D648FFF72CFAFA
:1020100000BF8021D348FFF7D7FA0028F9D0681C09
:10202000C5B2A542EFDB7FBD2DE9FE4306460F4654
:102030000024DF222146641C0DF8012003222146E2
:10204000641C0DF8012008222146641C0DF80120B3
:1020500002222146641C0DF801202146641C0DF863
:1020600001602146641C0DF80170FD222146641CAC
:102070000DF801204FF00008002006E01DF80010C8
:10208000414401F0FF08411CC8B2A042F6DB2046E3
:10209000611CCCB20DF8008000250DE01DF8051084
:1020A000B048FFF7E1F900BF8021AE48FFF78CFA96
:1020B0000028F9D0681CC5B2A542EFDBBDE8FE835D
:1020C00073B584B00024DF222146641C01A8425469
:1020D00003222146641C425409222146641C4254B6
:1020E00004222146641C42549DF810202146641CA1
:1020F00042549DF811202146641C42549DF814203E
:102100002146641C42549DF815202046611CCCB227
:1021100001A90A54FD222046611CCCB201A90A542F
:102120000026002005E001A9095C3144CEB2411C23
:10213000C8B2A042F7DB2046611CCCB201A90E5404
:1021400000250DE001A8415D8648FFF78DF900BF2D
:1021500080218448FFF738FA0028F9D0681CC5B2FE
:10216000A542EFDB06B070BDFEB50024DF2221469C
:10217000641C0DF8012003222146641C0DF8012087
:1021800010222146641C0DF8012002222146641C05
:102190000DF8012001222146641C0DF80120214682
:1021A000641C0DF80120FD222146641C0DF801205D
:1021B0000026002005E01DF800103144CEB2411C7D
:1021C000C8B2A042F7DB2046611CCCB20DF800601B
:1021D00000250DE01DF805106248FFF745F900BF26
:1021E00080216048FFF7F0F90028F9D0681CC5B2DB
:1021F000A542EFDBFEBDFEB50024DF222146641CB4
:102200000DF8012003222146641C0DF80120112243
:102210002146641C0DF8012001222146641C0DF8A2
:1022200001202146641C0DF80120FD222146641C7A
:102230000DF801200026002005E01DF800103144B3
:10224000CEB2411CC8B2A042F7DB2046611CCCB222
:102250000DF8006000250DE01DF805104148FFF75E
:1022600003F900BF80213F48FFF7AEF90028F9D0FD
:10227000681CC5B2A542EFDBFEBDFEB50024DF221F
:102280002146641C0DF8012003222146641C0DF830
:10229000012012222146641C0DF801200122214652
:1022A000641C0DF801202146641C0DF80120FD225C
:1022B0002146641C0DF801200026002005E01DF8D1
:1022C00000103144CEB2411CC8B2A042F7DB204618
:1022D000611CCCB20DF8006000250DE01DF8051062
:1022E0002048FFF7C1F800BF80211E48FFF76CF9B6
:1022F0000028F9D0681CC5B2A542EFDBFEBD01463F
:10230000B1F90000704708B503469878072825D230
:10231000DFE800F02404101D2122230018798DF835
:10232000000058798DF801006846FFF7E8FF0E4974
:10233000088014E0187900EE100AB8EE400ADFEDCC
:102340000B0A20EE200A0A4880ED000A07E01879FF
:102350000849087003E002E001E000E000BF00BFB0
:1023600008BD00000048004030000020CDCCCC3D2E
:10237000340000203200002070474FF00002042992
:10238000C0F0128010F0030C00F01F80CCF1040CA0
:10239000BCF1020F18BF00F8012BA8BF20F8022BD8
:1023A000A1EB0C0100F011B85FEAC17C24BF00F87A
:1023B000012B00F8012B48BF00F8012B7047704734
:1023C0007047704770474FF0000200B513469446BF
:1023D0009646203922BFA0E80C50A0E80C50B1F17D
:1023E0002001BFF4F7AF090728BFA0E80C5048BF91
:1023F0000CC05DF804EB890028BF40F8042B08BF2F
:10240000704748BF20F8022B11F0804F18BF00F82A
:10241000012B7047754600F02BF8AE460500694663
:10242000534620F00700854618B020B5FEF734F873
:10243000BDE820404FF000064FF000074FF00008C5
:102440004FF0000B21F00701AC46ACE8C009ACE846
:10245000C009ACE8C009ACE8C0098D46704710B5AA
:102460000446AFF300802046BDE81040FDF7D5BE1E
:1024700000487047600000204FF04070E1EE100A05
:1024800070470000A424000800000020380000006D
:10249000C4010008DC240008380000208806000081
:1024A000E0010008007A030A0000000000000000BC
:1024B00001020304060708090000000001020304EA
:1024C00001020304060708090000000000000000E4
:0C24D00000000000000000000000000000
:040000050800018965
:00000001FF
