Component: ARM Compiler 5.05 update 1 (build 106) Tool: armlink [4d0efa]

==============================================================================

Section Cross References

    main.o(i.DATA_Report) refers to _printf_percent.o(.ARM.Collect$$_printf_percent$$00000000) for _printf_percent
    main.o(i.DATA_Report) refers to _printf_d.o(.ARM.Collect$$_printf_percent$$00000009) for _printf_d
    main.o(i.DATA_Report) refers to _printf_dec.o(.text) for _printf_int_dec
    main.o(i.DATA_Report) refers to noretval__2printf.o(.text) for __2printf
    main.o(i.DATA_Report) refers to fmul.o(x$fpl$fmul) for __aeabi_fmul
    main.o(i.DATA_Report) refers to ffix.o(x$fpl$ffix) for __aeabi_f2iz
    main.o(i.DATA_Report) refers to noretval__2sprintf.o(.text) for __2sprintf
    main.o(i.DATA_Report) refers to oled.o(i.OLED_ShowString) for OLED_ShowString
    main.o(i.DATA_Report) refers to oled.o(i.OLED_Refresh) for OLED_Refresh
    main.o(i.DATA_Report) refers to main.o(.data) for mpu6050
    main.o(i.DATA_Report) refers to main.o(.bss) for tmp_buf
    main.o(i.MPU_Read) refers to inv_mpu.o(i.mpu_dmp_get_data) for mpu_dmp_get_data
    main.o(i.MPU_Read) refers to mpu6050.o(i.MPU_Get_Temperature) for MPU_Get_Temperature
    main.o(i.MPU_Read) refers to mpu6050.o(i.MPU_Get_Accelerometer) for MPU_Get_Accelerometer
    main.o(i.MPU_Read) refers to mpu6050.o(i.MPU_Get_Gyroscope) for MPU_Get_Gyroscope
    main.o(i.MPU_Read) refers to main.o(.data) for yaw
    main.o(i.SYS_Init) refers to misc.o(i.NVIC_PriorityGroupConfig) for NVIC_PriorityGroupConfig
    main.o(i.SYS_Init) refers to delay.o(i.delay_init) for delay_init
==============================================================================

Removing Unused input sections from the image.

    Removing system_stm32f10x.o(i.SystemCoreClockUpdate), (164 bytes).
    Removing inv_mpu.o(i.mpu_get_accel_reg), (116 bytes).
    Removing inv_mpu.o(i.mpu_get_compass_fsr), (8 bytes).
    Removing inv_mpu.o(i.mpu_get_compass_reg), (8 bytes).
    Removing inv_mpu.o(i.mpu_get_compass_sample_rate), (10 bytes).
    Removing inv_mpu.o(i.mpu_get_dmp_state), (20 bytes).
    Removing inv_mpu.o(i.mpu_get_gyro_reg), (116 bytes).
    Removing inv_mpu.o(i.mpu_get_int_status), (68 bytes).
    Removing inv_mpu.o(i.mpu_get_power_state), (28 bytes).
    Removing inv_mpu.o(i.mpu_get_temperature), (160 bytes).
    Removing inv_mpu.o(i.mpu_lp_motion_interrupt), (516 bytes).
    Removing inv_mpu.o(i.mpu_read_fifo), (504 bytes).
    Removing inv_mpu.o(i.mpu_read_reg), (72 bytes).
    Removing inv_mpu.o(i.mpu_reg_dump), (104 bytes).
    Removing inv_mpu.o(i.mpu_set_accel_bias), (384 bytes).
    Removing inv_mpu.o(i.mpu_set_compass_sample_rate), (8 bytes).
    Removing inv_mpu.o(i.mpu_set_int_level), (16 bytes).
    Removing inv_mpu.o(i.setup_compass), (6 bytes).
==============================================================================

Image Symbol Table

    Local Symbols

    Symbol Name                              Value     Ov Type        Size  Object(Section)

    ../clib/angel/boardlib.s                 0x00000000   Number         0  boardshut.o ABSOLUTE
    ../clib/angel/boardlib.s                 0x00000000   Number         0  boardinit1.o ABSOLUTE
    ../clib/angel/boardlib.s                 0x00000000   Number         0  boardinit2.o ABSOLUTE
    ../clib/angel/boardlib.s                 0x00000000   Number         0  boardinit3.o ABSOLUTE
    ../clib/angel/handlers.s                 0x00000000   Number         0  __scatter_copy.o ABSOLUTE
    ../clib/angel/handlers.s                 0x00000000   Number         0  __scatter_zi.o ABSOLUTE
    ../clib/angel/kernel.s                   0x00000000   Number         0  rtexit.o ABSOLUTE
    ../clib/angel/kernel.s                   0x00000000   Number         0  rtexit2.o ABSOLUTE
    ../clib/angel/kernel.s                   0x00000000   Number         0  __rtentry2.o ABSOLUTE
    ../clib/angel/kernel.s                   0x00000000   Number         0  __rtentry4.o ABSOLUTE
    ../clib/angel/kernel.s                   0x00000000   Number         0  __rtentry.o ABSOLUTE
    ../clib/angel/rt.s                       0x00000000   Number         0  rt_errno_addr.o ABSOLUTE
    ../clib/angel/rt.s                       0x00000000   Number         0  rt_errno_addr_intlibspace.o ABSOLUTE
    ../clib/angel/rt.s                       0x00000000   Number         0  aeabi_ldiv0_sigfpe.o ABSOLUTE
    ../clib/angel/rt.s                       0x00000000   Number         0  aeabi_ldiv0.o ABSOLUTE
    ../clib/angel/rt.s                       0x00000000   Number         0  rt_div0.o ABSOLUTE
    ../clib/angel/rt.s                       0x00000000   Number         0  rt_raise.o ABSOLUTE
    ../clib/angel/scatter.s                  0x00000000   Number         0  __scatter.o ABSOLUTE
    ../clib/angel/startup.s                  0x00000000   Number         0  __main.o ABSOLUTE
    ../clib/angel/sys.s                      0x00000000   Number         0  libspace.o ABSOLUTE
    ../clib/angel/sys.s                      0x00000000   Number         0  sys_stackheap_outer.o ABSOLUTE
    ../clib/angel/sys.s                      0x00000000   Number         0  use_no_semi.o ABSOLUTE
    ../clib/angel/sys.s                      0x00000000   Number         0  use_no_semi_2.o ABSOLUTE
    ../clib/angel/sys.s                      0x00000000   Number         0  indicate_semi.o ABSOLUTE
    ../clib/angel/sysapp.c                   0x00000000   Number         0  sys_command.o ABSOLUTE
    ../clib/angel/sysapp.c                   0x00000000   Number         0  sys_wrch.o ABSOLUTE
    ../clib/armsys.c                         0x00000000   Number         0  argv_veneer.o ABSOLUTE
    ../clib/armsys.c                         0x00000000   Number         0  argv_veneer.o ABSOLUTE
    ../clib/armsys.c                         0x00000000   Number         0  no_argv.o ABSOLUTE
    ../clib/armsys.c                         0x00000000   Number         0  _get_argv_nomalloc.o ABSOLUTE
    ../clib/fenv.c                           0x00000000   Number         0  _rserrno.o ABSOLUTE
    ../clib/heapalloc.c                      0x00000000   Number         0  hrguard.o ABSOLUTE
    ../clib/heapaux.c                        0x00000000   Number         0  heapauxi.o ABSOLUTE
    ../clib/libinit.s                        0x00000000   Number         0  libinit.o ABSOLUTE
    ../clib/libinit.s                        0x00000000   Number         0  libshutdown2.o ABSOLUTE
    ../clib/libinit.s                        0x00000000   Number         0  libinit2.o ABSOLUTE
    ../clib/libinit.s                        0x00000000   Number         0  libshutdown.o ABSOLUTE
    ../clib/longlong.s                       0x00000000   Number         0  lludivv7m.o ABSOLUTE
    ../clib/longlong.s                       0x00000000   Number         0  llsdiv.o ABSOLUTE
    ../clib/memcpset.s                       0x00000000   Number         0  rt_memclr_w.o ABSOLUTE
    ../clib/memcpset.s                       0x00000000   Number         0  aeabi_memset.o ABSOLUTE
    ../clib/memcpset.s                       0x00000000   Number         0  rt_memclr.o ABSOLUTE
    ../clib/misc.s                           0x00000000   Number         0  printf_stubs.o ABSOLUTE
    ../clib/printf.c                         0x00000000   Number         0  noretval__2sprintf.o ABSOLUTE
    ../clib/printf.c                         0x00000000   Number         0  __printf.o ABSOLUTE
    ../clib/printf.c                         0x00000000   Number         0  _printf_pad.o ABSOLUTE
    ../clib/printf.c                         0x00000000   Number         0  _printf_hex_ll.o ABSOLUTE
    ../clib/printf.c                         0x00000000   Number         0  _printf_hex_int_ll.o ABSOLUTE
    ../clib/printf.c                         0x00000000   Number         0  _printf_hex_ptr.o ABSOLUTE
    ../clib/printf.c                         0x00000000   Number         0  _printf_hex_int_ptr.o ABSOLUTE
    ../clib/printf.c                         0x00000000   Number         0  _printf_hex_ll_ptr.o ABSOLUTE
    ../clib/printf.c                         0x00000000   Number         0  _printf_hex_int_ll_ptr.o ABSOLUTE
    ../clib/printf.c                         0x00000000   Number         0  __printf_flags.o ABSOLUTE
    ../clib/printf.c                         0x00000000   Number         0  __printf_ss.o ABSOLUTE
    ../clib/printf.c                         0x00000000   Number         0  __printf_flags_ss.o ABSOLUTE
    ../clib/printf.c                         0x00000000   Number         0  __printf_wp.o ABSOLUTE
    ../clib/printf.c                         0x00000000   Number         0  __printf_flags_wp.o ABSOLUTE
    ../clib/printf.c                         0x00000000   Number         0  _printf_dec.o ABSOLUTE
    ../clib/printf.c                         0x00000000   Number         0  __printf_flags_ss_wp.o ABSOLUTE
    ../clib/printf.c                         0x00000000   Number         0  _printf_char_file.o ABSOLUTE
    ../clib/printf.c                         0x00000000   Number         0  _printf_hex_int.o ABSOLUTE
    ../clib/printf.c                         0x00000000   Number         0  __printf_nopercent.o ABSOLUTE
    ../clib/printf.c                         0x00000000   Number         0  _sputc.o ABSOLUTE
    ../clib/printf.c                         0x00000000   Number         0  _printf_char_common.o ABSOLUTE
    ../clib/printf.c                         0x00000000   Number         0  _printf_intcommon.o ABSOLUTE
    ../clib/printf.c                         0x00000000   Number         0  __printf_ss_wp.o ABSOLUTE
    ../clib/printf.c                         0x00000000   Number         0  __2printf.o ABSOLUTE
    ../clib/printf.c                         0x00000000   Number         0  __2sprintf.o ABSOLUTE
    ../clib/printf.c                         0x00000000   Number         0  noretval__2printf.o ABSOLUTE
    ../clib/printf_percent.s                 0x00000000   Number         0  _printf_percent.o ABSOLUTE
    ../clib/printf_percent.s                 0x00000000   Number         0  _printf_percent_end.o ABSOLUTE
    ../clib/printf_percent.s                 0x00000000   Number         0  _printf_d.o ABSOLUTE
    ../clib/printf_percent.s                 0x00000000   Number         0  _printf_x.o ABSOLUTE
    ../clib/signal.c                         0x00000000   Number         0  defsig_rtmem_inner.o ABSOLUTE
    ../clib/signal.c                         0x00000000   Number         0  defsig_general.o ABSOLUTE
    ../clib/signal.c                         0x00000000   Number         0  __raise.o ABSOLUTE
    ../clib/signal.c                         0x00000000   Number         0  defsig_rtred_inner.o ABSOLUTE
    ../clib/signal.c                         0x00000000   Number         0  defsig_pvfn_inner.o ABSOLUTE
    ../clib/signal.c                         0x00000000   Number         0  defsig_stak_inner.o ABSOLUTE
    ../clib/signal.c                         0x00000000   Number         0  defsig_other.o ABSOLUTE
    ../clib/signal.c                         0x00000000   Number         0  defsig_segv_inner.o ABSOLUTE
    ../clib/signal.c                         0x00000000   Number         0  defsig_cppl_inner.o ABSOLUTE
    ../clib/signal.c                         0x00000000   Number         0  defsig_fpe_inner.o ABSOLUTE
    ../clib/signal.c                         0x00000000   Number         0  defsig_exit.o ABSOLUTE
    ../clib/signal.c                         0x00000000   Number         0  defsig_rtmem_formal.o ABSOLUTE
    ../clib/signal.c                         0x00000000   Number         0  defsig_rtmem_outer.o ABSOLUTE
    ../clib/signal.c                         0x00000000   Number         0  defsig_fpe_formal.o ABSOLUTE
    ../clib/signal.c                         0x00000000   Number         0  defsig_fpe_outer.o ABSOLUTE
    ../clib/signal.c                         0x00000000   Number         0  defsig_abrt_inner.o ABSOLUTE
    ../clib/signal.s                         0x00000000   Number         0  defsig.o ABSOLUTE
    ../clib/stdio.c                          0x00000000   Number         0  ferror_locked.o ABSOLUTE
    ../clib/stdio.c                          0x00000000   Number         0  ferror.o ABSOLUTE
    ../clib/stdlib.c                         0x00000000   Number         0  exit.o ABSOLUTE
    ../clib/string.c                         0x00000000   Number         0  memcmp.o ABSOLUTE
    ../fplib/d2f.s                           0x00000000   Number         0  d2f.o ABSOLUTE
    ../fplib/daddsub.s                       0x00000000   Number         0  daddsub_clz.o ABSOLUTE
    ../fplib/dcheck1.s                       0x00000000   Number         0  dcheck1.o ABSOLUTE
    ../fplib/dcmpi.s                         0x00000000   Number         0  dcmpi.o ABSOLUTE
    ../fplib/ddiv.s                          0x00000000   Number         0  ddiv.o ABSOLUTE
    ../fplib/dflt.s                          0x00000000   Number         0  dflt_clz.o ABSOLUTE
    ../fplib/dleqf.s                         0x00000000   Number         0  dleqf.o ABSOLUTE
    ../fplib/dmul.s                          0x00000000   Number         0  dmul.o ABSOLUTE
    ../fplib/dnaninf.s                       0x00000000   Number         0  dnaninf.o ABSOLUTE
    ../fplib/dretinf.s                       0x00000000   Number         0  dretinf.o ABSOLUTE
    ../fplib/dsqrt.s                         0x00000000   Number         0  dsqrt_noumaal.o ABSOLUTE
    ../fplib/f2d.s                           0x00000000   Number         0  f2d.o ABSOLUTE
    ../fplib/faddsub.s                       0x00000000   Number         0  faddsub_clz.o ABSOLUTE
    ../fplib/fcmpi.s                         0x00000000   Number         0  fcmpi.o ABSOLUTE
    ../fplib/fdiv.s                          0x00000000   Number         0  fdiv.o ABSOLUTE
    ../fplib/feqf.s                          0x00000000   Number         0  feqf.o ABSOLUTE
    ../fplib/ffix.s                          0x00000000   Number         0  ffix.o ABSOLUTE
    ../fplib/ffixu.s                         0x00000000   Number         0  ffixu.o ABSOLUTE
    ../fplib/fflt.s                          0x00000000   Number         0  fflt_clz.o ABSOLUTE
    ../fplib/fleqf.s                         0x00000000   Number         0  fleqf.o ABSOLUTE
    ../fplib/fmul.s                          0x00000000   Number         0  fmul.o ABSOLUTE
    ../fplib/fnaninf.s                       0x00000000   Number         0  fnaninf.o ABSOLUTE
    ../fplib/fpinit.s                        0x00000000   Number         0  fpinit.o ABSOLUTE
    ../fplib/fretinf.s                       0x00000000   Number         0  fretinf.o ABSOLUTE
    ../fplib/frleqf.s                        0x00000000   Number         0  frleqf.o ABSOLUTE
    ../fplib/retnan.s                        0x00000000   Number         0  retnan.o ABSOLUTE
    ../fplib/scalbn.s                        0x00000000   Number         0  scalbn.o ABSOLUTE
    ../fplib/trapv.s                         0x00000000   Number         0  trapv.o ABSOLUTE
    ../fplib/usenofp.s                       0x00000000   Number         0  usenofp.o ABSOLUTE
    ../mathlib/asin.c                        0x00000000   Number         0  asin.o ABSOLUTE
    ../mathlib/asin.c                        0x00000000   Number         0  asin_x.o ABSOLUTE
    ../mathlib/atan.c                        0x00000000   Number         0  atan.o ABSOLUTE
    ../mathlib/atan.c                        0x00000000   Number         0  atan_x.o ABSOLUTE
    ../mathlib/atan2.c                       0x00000000   Number         0  atan2.o ABSOLUTE
    ../mathlib/atan2.c                       0x00000000   Number         0  atan2_x.o ABSOLUTE
    ../mathlib/dunder.c                      0x00000000   Number         0  dunder.o ABSOLUTE
    ../mathlib/fpclassify.c                  0x00000000   Number         0  fpclassify.o ABSOLUTE
    ../mathlib/poly.c                        0x00000000   Number         0  poly.o ABSOLUTE
    ../mathlib/qnan.c                        0x00000000   Number         0  qnan.o ABSOLUTE
    ../mathlib/sqrt.c                        0x00000000   Number         0  sqrt_x.o ABSOLUTE
    ../mathlib/sqrt.c                        0x00000000   Number         0  sqrt.o ABSOLUTE
    ..\CORE\core_cm3.c                       0x00000000   Number         0  core_cm3.o ABSOLUTE
    ..\CORE\startup_stm32f10x_md.s           0x00000000   Number         0  startup_stm32f10x_md.o ABSOLUTE
    ..\HARDWARE\LED\led.c                    0x00000000   Number         0  led.o ABSOLUTE
    ..\HARDWARE\MPU6050\eMPL\inv_mpu.c       0x00000000   Number         0  inv_mpu.o ABSOLUTE
    ..\HARDWARE\MPU6050\eMPL\inv_mpu_dmp_motion_driver.c 0x00000000   Number         0  inv_mpu_dmp_motion_driver.o ABSOLUTE
    ..\HARDWARE\MPU6050\mpu6050.c            0x00000000   Number         0  mpu6050.o ABSOLUTE
    ..\HARDWARE\MPU6050\mpuiic.c             0x00000000   Number         0  mpuiic.o ABSOLUTE
    ..\HARDWARE\OLED\oled.c                  0x00000000   Number         0  oled.o ABSOLUTE
    ..\STM32F10x_FWLib\src\misc.c            0x00000000   Number         0  misc.o ABSOLUTE
    ..\STM32F10x_FWLib\src\stm32f10x_dbgmcu.c 0x00000000   Number         0  stm32f10x_dbgmcu.o ABSOLUTE
    ..\STM32F10x_FWLib\src\stm32f10x_gpio.c  0x00000000   Number         0  stm32f10x_gpio.o ABSOLUTE
    ..\STM32F10x_FWLib\src\stm32f10x_rcc.c   0x00000000   Number         0  stm32f10x_rcc.o ABSOLUTE
    ..\STM32F10x_FWLib\src\stm32f10x_usart.c 0x00000000   Number         0  stm32f10x_usart.o ABSOLUTE
    ..\SYSTEM\delay\delay.c                  0x00000000   Number         0  delay.o ABSOLUTE
    ..\SYSTEM\sys\sys.c                      0x00000000   Number         0  sys.o ABSOLUTE
    ..\SYSTEM\usart\usart.c                  0x00000000   Number         0  usart.o ABSOLUTE
    ..\\CORE\\core_cm3.c                     0x00000000   Number         0  core_cm3.o ABSOLUTE
    ..\\SYSTEM\\sys\\sys.c                   0x00000000   Number         0  sys.o ABSOLUTE
    dc.s                                     0x00000000   Number         0  dc.o ABSOLUTE
    main.c                                   0x00000000   Number         0  main.o ABSOLUTE
    stm32f10x_it.c                           0x00000000   Number         0  stm32f10x_it.o ABSOLUTE
    system_stm32f10x.c                       0x00000000   Number         0  system_stm32f10x.o ABSOLUTE
    RESET                                    0x08000000   Section      236  startup_stm32f10x_md.o(RESET)
    !!!main                                  0x080000ec   Section        8  __main.o(!!!main)
    !!!scatter                               0x080000f4   Section       52  __scatter.o(!!!scatter)
    !!handler_copy                           0x08000128   Section       26  __scatter_copy.o(!!handler_copy)
    !!handler_zi                             0x08000144   Section       28  __scatter_zi.o(!!handler_zi)
    .ARM.Collect$$_printf_percent$$00000000  0x08000160   Section        0  _printf_percent.o(.ARM.Collect$$_printf_percent$$00000000)
    .ARM.Collect$$_printf_percent$$00000009  0x08000160   Section        6  _printf_d.o(.ARM.Collect$$_printf_percent$$00000009)
    .ARM.Collect$$_printf_percent$$00000017  0x08000166   Section        4  _printf_percent_end.o(.ARM.Collect$$_printf_percent$$00000017)
    .ARM.Collect$$libinit$$00000000          0x0800016a   Section        2  libinit.o(.ARM.Collect$$libinit$$00000000)
    .ARM.Collect$$libinit$$00000002          0x0800016c   Section        0  libinit2.o(.ARM.Collect$$libinit$$00000002)
    .ARM.Collect$$libinit$$00000004          0x0800016c   Section        0  libinit2.o(.ARM.Collect$$libinit$$00000004)
    .ARM.Collect$$libinit$$0000000A          0x0800016c   Section        0  libinit2.o(.ARM.Collect$$libinit$$0000000A)
    .ARM.Collect$$libinit$$0000000C          0x0800016c   Section        0  libinit2.o(.ARM.Collect$$libinit$$0000000C)
    .ARM.Collect$$libinit$$0000000E          0x0800016c   Section        0  libinit2.o(.ARM.Collect$$libinit$$0000000E)
    .ARM.Collect$$libinit$$00000011          0x0800016c   Section        0  libinit2.o(.ARM.Collect$$libinit$$00000011)
    .ARM.Collect$$libinit$$00000013          0x0800016c   Section        0  libinit2.o(.ARM.Collect$$libinit$$00000013)
    .ARM.Collect$$libinit$$00000015          0x0800016c   Section        0  libinit2.o(.ARM.Collect$$libinit$$00000015)
    .ARM.Collect$$libinit$$00000017          0x0800016c   Section        0  libinit2.o(.ARM.Collect$$libinit$$00000017)
    .ARM.Collect$$libinit$$00000019          0x0800016c   Section        0  libinit2.o(.ARM.Collect$$libinit$$00000019)
    .ARM.Collect$$libinit$$0000001B          0x0800016c   Section        0  libinit2.o(.ARM.Collect$$libinit$$0000001B)
    .ARM.Collect$$libinit$$0000001D          0x0800016c   Section        0  libinit2.o(.ARM.Collect$$libinit$$0000001D)
    .ARM.Collect$$libinit$$0000001F          0x0800016c   Section        0  libinit2.o(.ARM.Collect$$libinit$$0000001F)
    .ARM.Collect$$libinit$$00000021          0x0800016c   Section        0  libinit2.o(.ARM.Collect$$libinit$$00000021)
    .ARM.Collect$$libinit$$00000023          0x0800016c   Section        0  libinit2.o(.ARM.Collect$$libinit$$00000023)
    .ARM.Collect$$libinit$$00000025          0x0800016c   Section        0  libinit2.o(.ARM.Collect$$libinit$$00000025)
    .ARM.Collect$$libinit$$0000002C          0x0800016c   Section        0  libinit2.o(.ARM.Collect$$libinit$$0000002C)
    .ARM.Collect$$libinit$$0000002E          0x0800016c   Section        0  libinit2.o(.ARM.Collect$$libinit$$0000002E)
    .ARM.Collect$$libinit$$00000030          0x0800016c   Section        0  libinit2.o(.ARM.Collect$$libinit$$00000030)
    .ARM.Collect$$libinit$$00000032          0x0800016c   Section        0  libinit2.o(.ARM.Collect$$libinit$$00000032)
    .ARM.Collect$$libinit$$00000033          0x0800016c   Section        2  libinit2.o(.ARM.Collect$$libinit$$00000033)
    .ARM.Collect$$libshutdown$$00000000      0x0800016e   Section        2  libshutdown.o(.ARM.Collect$$libshutdown$$00000000)
    .ARM.Collect$$libshutdown$$00000003      0x08000170   Section        0  libshutdown2.o(.ARM.Collect$$libshutdown$$00000003)
    .ARM.Collect$$libshutdown$$00000006      0x08000170   Section        0  libshutdown2.o(.ARM.Collect$$libshutdown$$00000006)
    .ARM.Collect$$libshutdown$$00000009      0x08000170   Section        0  libshutdown2.o(.ARM.Collect$$libshutdown$$00000009)
    .ARM.Collect$$libshutdown$$0000000B      0x08000170   Section        0  libshutdown2.o(.ARM.Collect$$libshutdown$$0000000B)
    .ARM.Collect$$libshutdown$$0000000E      0x08000170   Section        0  libshutdown2.o(.ARM.Collect$$libshutdown$$0000000E)
    .ARM.Collect$$libshutdown$$0000000F      0x08000170   Section        2  libshutdown2.o(.ARM.Collect$$libshutdown$$0000000F)
    .ARM.Collect$$rtentry$$00000000          0x08000172   Section        0  __rtentry.o(.ARM.Collect$$rtentry$$00000000)
    .ARM.Collect$$rtentry$$00000002          0x08000172   Section        0  __rtentry2.o(.ARM.Collect$$rtentry$$00000002)
    .ARM.Collect$$rtentry$$00000004          0x08000172   Section        6  __rtentry4.o(.ARM.Collect$$rtentry$$00000004)
    .ARM.Collect$$rtentry$$00000009          0x08000178   Section        0  __rtentry2.o(.ARM.Collect$$rtentry$$00000009)
    .ARM.Collect$$rtentry$$0000000A          0x08000178   Section        4  __rtentry2.o(.ARM.Collect$$rtentry$$0000000A)
    .ARM.Collect$$rtentry$$0000000C          0x0800017c   Section        0  __rtentry2.o(.ARM.Collect$$rtentry$$0000000C)
    .ARM.Collect$$rtentry$$0000000D          0x0800017c   Section        8  __rtentry2.o(.ARM.Collect$$rtentry$$0000000D)
    .ARM.Collect$$rtexit$$00000000           0x08000184   Section        2  rtexit.o(.ARM.Collect$$rtexit$$00000000)
    .ARM.Collect$$rtexit$$00000002           0x08000186   Section        0  rtexit2.o(.ARM.Collect$$rtexit$$00000002)
    .ARM.Collect$$rtexit$$00000003           0x08000186   Section        4  rtexit2.o(.ARM.Collect$$rtexit$$00000003)
    .ARM.Collect$$rtexit$$00000004           0x0800018a   Section        6  rtexit2.o(.ARM.Collect$$rtexit$$00000004)
    .text                                    0x08000190   Section       64  startup_stm32f10x_md.o(.text)
    .text                                    0x080001d0   Section        2  use_no_semi_2.o(.text)
    .text                                    0x080001d2   Section       72  llsdiv.o(.text)
    .text                                    0x0800021c   Section        0  noretval__2printf.o(.text)
    .text                                    0x08000234   Section        0  noretval__2sprintf.o(.text)
    .text                                    0x0800025c   Section        0  _printf_dec.o(.text)
    .text                                    0x080002d4   Section        0  __printf_flags_wp.o(.text)
    .text                                    0x0800040c   Section        0  memcmp.o(.text)
    .text                                    0x08000464   Section       16  aeabi_memset.o(.text)
    .text                                    0x08000474   Section        0  heapauxi.o(.text)
    .text                                    0x0800047a   Section        2  use_no_semi.o(.text)
    .text                                    0x0800047c   Section      238  lludivv7m.o(.text)
    .text                                    0x0800056a   Section        0  _rserrno.o(.text)
    .text                                    0x08000580   Section        0  _printf_intcommon.o(.text)
    .text                                    0x08000634   Section        0  _printf_char_common.o(.text)
    _printf_input_char                       0x08000635   Thumb Code    10  _printf_char_common.o(.text)
    .text                                    0x08000664   Section        0  _sputc.o(.text)
    .text                                    0x08000670   Section        0  _printf_char_file.o(.text)
    .text                                    0x08000694   Section       68  rt_memclr.o(.text)
    .text                                    0x080006d8   Section        8  rt_errno_addr_intlibspace.o(.text)
    .text                                    0x080006e0   Section        0  ferror.o(.text)
    .text                                    0x080006e8   Section       78  rt_memclr_w.o(.text)
    .text                                    0x08000738   Section        8  libspace.o(.text)
    .text                                    0x08000740   Section       74  sys_stackheap_outer.o(.text)
    .text                                    0x0800078a   Section        0  exit.o(.text)
    i.BusFault_Handler                       0x08000796   Section        0  stm32f10x_it.o(i.BusFault_Handler)
    i.DATA_Report                            0x0800079c   Section        0  main.o(i.DATA_Report)
    i.DebugMon_Handler                       0x08000a7c   Section        0  stm32f10x_it.o(i.DebugMon_Handler)
    i.GPIO_Init                              0x08000a7e   Section        0  stm32f10x_gpio.o(i.GPIO_Init)
    i.GPIO_ResetBits                         0x08000b94   Section        0  stm32f10x_gpio.o(i.GPIO_ResetBits)
    i.GPIO_SetBits                           0x08000b98   Section        0  stm32f10x_gpio.o(i.GPIO_SetBits)
    i.HardFault_Handler                      0x08000b9c   Section        0  stm32f10x_it.o(i.HardFault_Handler)
    i.I2C_Start                              0x08000ba0   Section        0  oled.o(i.I2C_Start)
    i.I2C_Stop                               0x08000bc8   Section        0  oled.o(i.I2C_Stop)
    i.I2C_WaitAck                            0x08000be8   Section        0  oled.o(i.I2C_WaitAck)
    i.LED_Init                               0x08000c00   Section        0  led.o(i.LED_Init)
    i.MPU_Get_Accelerometer                  0x08000c38   Section        0  mpu6050.o(i.MPU_Get_Accelerometer)
    i.MPU_Get_Gyroscope                      0x08000c88   Section        0  mpu6050.o(i.MPU_Get_Gyroscope)
    i.MPU_Get_Temperature                    0x08000cd8   Section        0  mpu6050.o(i.MPU_Get_Temperature)
    i.MPU_IIC_Ack                            0x08000d40   Section        0  mpuiic.o(i.MPU_IIC_Ack)
    i.MPU_IIC_Delay                          0x08000d8c   Section        0  mpuiic.o(i.MPU_IIC_Delay)
    i.MPU_IIC_Init                           0x08000d98   Section        0  mpuiic.o(i.MPU_IIC_Init)
    i.MPU_IIC_NAck                           0x08000dcc   Section        0  mpuiic.o(i.MPU_IIC_NAck)
    i.MPU_IIC_Read_Byte                      0x08000e18   Section        0  mpuiic.o(i.MPU_IIC_Read_Byte)
    i.MPU_IIC_Send_Byte                      0x08000e84   Section        0  mpuiic.o(i.MPU_IIC_Send_Byte)
    i.MPU_IIC_Start                          0x08000ee0   Section        0  mpuiic.o(i.MPU_IIC_Start)
    i.MPU_IIC_Stop                           0x08000f28   Section        0  mpuiic.o(i.MPU_IIC_Stop)
    i.MPU_IIC_Wait_Ack                       0x08000f70   Section        0  mpuiic.o(i.MPU_IIC_Wait_Ack)
    i.MPU_Init                               0x08000fd4   Section        0  mpu6050.o(i.MPU_Init)
    i.MPU_Read                               0x08001050   Section        0  main.o(i.MPU_Read)
    i.MPU_Read_Byte                          0x080010cc   Section        0  mpu6050.o(i.MPU_Read_Byte)
    i.MPU_Read_Len                           0x08001106   Section        0  mpu6050.o(i.MPU_Read_Len)
    i.MPU_Set_Accel_Fsr                      0x0800117a   Section        0  mpu6050.o(i.MPU_Set_Accel_Fsr)
    i.MPU_Set_Gyro_Fsr                       0x0800118a   Section        0  mpu6050.o(i.MPU_Set_Gyro_Fsr)
    i.MPU_Set_LPF                            0x0800119a   Section        0  mpu6050.o(i.MPU_Set_LPF)
    i.MPU_Set_Rate                           0x080011d4   Section        0  mpu6050.o(i.MPU_Set_Rate)
    i.MPU_Write_Byte                         0x0800120e   Section        0  mpu6050.o(i.MPU_Write_Byte)
    i.MPU_Write_Len                          0x08001252   Section        0  mpu6050.o(i.MPU_Write_Len)
    i.MemManage_Handler                      0x080012b2   Section        0  stm32f10x_it.o(i.MemManage_Handler)
    i.NMI_Handler                            0x080012b6   Section        0  stm32f10x_it.o(i.NMI_Handler)
    i.NVIC_Init                              0x080012b8   Section        0  misc.o(i.NVIC_Init)
    i.NVIC_PriorityGroupConfig               0x08001328   Section        0  misc.o(i.NVIC_PriorityGroupConfig)
    i.OLED_Clear                             0x0800133c   Section        0  oled.o(i.OLED_Clear)
    i.OLED_ClearPoint                        0x0800136c   Section        0  oled.o(i.OLED_ClearPoint)
    i.OLED_DrawPoint                         0x080013cc   Section        0  oled.o(i.OLED_DrawPoint)
    i.OLED_Init                              0x08001408   Section        0  oled.o(i.OLED_Init)
    i.OLED_Refresh                           0x08001524   Section        0  oled.o(i.OLED_Refresh)
    i.OLED_ShowChar                          0x08001570   Section        0  oled.o(i.OLED_ShowChar)
    i.OLED_ShowString                        0x0800166c   Section        0  oled.o(i.OLED_ShowString)
    i.OLED_WR_Byte                           0x080016ae   Section        0  oled.o(i.OLED_WR_Byte)
    i.PendSV_Handler                         0x080016e6   Section        0  stm32f10x_it.o(i.PendSV_Handler)
    i.RCC_APB2PeriphClockCmd                 0x080016e8   Section        0  stm32f10x_rcc.o(i.RCC_APB2PeriphClockCmd)
    i.RCC_GetClocksFreq                      0x08001708   Section        0  stm32f10x_rcc.o(i.RCC_GetClocksFreq)
    i.SVC_Handler                            0x080017dc   Section        0  stm32f10x_it.o(i.SVC_Handler)
    i.SYS_Init                               0x080017e0   Section        0  main.o(i.SYS_Init)
    i.Send_Byte                              0x080018e4   Section        0  oled.o(i.Send_Byte)
    i.SetSysClock                            0x08001930   Section        0  system_stm32f10x.o(i.SetSysClock)
    SetSysClock                              0x08001931   Thumb Code     8  system_stm32f10x.o(i.SetSysClock)
    i.SetSysClockTo72                        0x08001938   Section        0  system_stm32f10x.o(i.SetSysClockTo72)
    SetSysClockTo72                          0x08001939   Thumb Code   214  system_stm32f10x.o(i.SetSysClockTo72)
    i.SysTick_CLKSourceConfig                0x08001a18   Section        0  misc.o(i.SysTick_CLKSourceConfig)
    i.SysTick_Handler                        0x08001a40   Section        0  stm32f10x_it.o(i.SysTick_Handler)
    i.SystemInit                             0x08001a44   Section        0  system_stm32f10x.o(i.SystemInit)
    i.USART1_IRQHandler                      0x08001aa4   Section        0  usart.o(i.USART1_IRQHandler)
    i.USART_Cmd                              0x08001b2c   Section        0  stm32f10x_usart.o(i.USART_Cmd)
    i.USART_GetITStatus                      0x08001b44   Section        0  stm32f10x_usart.o(i.USART_GetITStatus)
    i.USART_ITConfig                         0x08001b98   Section        0  stm32f10x_usart.o(i.USART_ITConfig)
    i.USART_Init                             0x08001be4   Section        0  stm32f10x_usart.o(i.USART_Init)
    i.USART_ReceiveData                      0x08001cbc   Section        0  stm32f10x_usart.o(i.USART_ReceiveData)
    i.UsageFault_Handler                     0x08001cc6   Section        0  stm32f10x_it.o(i.UsageFault_Handler)
    i.__ARM_fpclassify                       0x08001cca   Section        0  fpclassify.o(i.__ARM_fpclassify)
    i.__kernel_poly                          0x08001cf2   Section        0  poly.o(i.__kernel_poly)
    i.__mathlib_dbl_infnan                   0x08001d9c   Section        0  dunder.o(i.__mathlib_dbl_infnan)
    i.__mathlib_dbl_infnan2                  0x08001da2   Section        0  dunder.o(i.__mathlib_dbl_infnan2)
    i.__mathlib_dbl_invalid                  0x08001da6   Section        0  dunder.o(i.__mathlib_dbl_invalid)
    i.__mathlib_dbl_underflow                0x08001db4   Section        0  dunder.o(i.__mathlib_dbl_underflow)
    i._is_digit                              0x08001dc4   Section        0  __printf_wp.o(i._is_digit)
    i._sys_exit                              0x08001dd2   Section        0  usart.o(i._sys_exit)
    i.accel_self_test                        0x08001dd8   Section        0  inv_mpu.o(i.accel_self_test)
    accel_self_test                          0x08001dd9   Thumb Code   164  inv_mpu.o(i.accel_self_test)
    i.asin                                   0x08001e80   Section        0  asin.o(i.asin)
    i.atan                                   0x080020f0   Section        0  atan.o(i.atan)
    i.atan2                                  0x08002310   Section        0  atan2.o(i.atan2)
    i.decode_gesture                         0x08002490   Section        0  inv_mpu_dmp_motion_driver.o(i.decode_gesture)
    decode_gesture                           0x08002491   Thumb Code    94  inv_mpu_dmp_motion_driver.o(i.decode_gesture)
    i.delay_init                             0x080024f4   Section        0  delay.o(i.delay_init)
    i.delay_ms                               0x08002538   Section        0  delay.o(i.delay_ms)
    i.delay_us                               0x08002584   Section        0  delay.o(i.delay_us)
    i.dmp_enable_6x_lp_quat                  0x080025d0   Section        0  inv_mpu_dmp_motion_driver.o(i.dmp_enable_6x_lp_quat)
    i.dmp_enable_feature                     0x0800260c   Section        0  inv_mpu_dmp_motion_driver.o(i.dmp_enable_feature)
    i.dmp_enable_gyro_cal                    0x08002828   Section        0  inv_mpu_dmp_motion_driver.o(i.dmp_enable_gyro_cal)
    i.dmp_enable_lp_quat                     0x08002880   Section        0  inv_mpu_dmp_motion_driver.o(i.dmp_enable_lp_quat)
    i.dmp_load_motion_driver_firmware        0x080028bc   Section        0  inv_mpu_dmp_motion_driver.o(i.dmp_load_motion_driver_firmware)
    i.dmp_read_fifo                          0x080028d4   Section        0  inv_mpu_dmp_motion_driver.o(i.dmp_read_fifo)
    i.dmp_set_accel_bias                     0x08002aa0   Section        0  inv_mpu_dmp_motion_driver.o(i.dmp_set_accel_bias)
    i.dmp_set_fifo_rate                      0x08002bd0   Section        0  inv_mpu_dmp_motion_driver.o(i.dmp_set_fifo_rate)
    i.dmp_set_gyro_bias                      0x08002c40   Section        0  inv_mpu_dmp_motion_driver.o(i.dmp_set_gyro_bias)
    i.dmp_set_orientation                    0x08002d70   Section        0  inv_mpu_dmp_motion_driver.o(i.dmp_set_orientation)
    i.dmp_set_shake_reject_thresh            0x08002ea8   Section        0  inv_mpu_dmp_motion_driver.o(i.dmp_set_shake_reject_thresh)
    i.dmp_set_shake_reject_time              0x08002ee0   Section        0  inv_mpu_dmp_motion_driver.o(i.dmp_set_shake_reject_time)
    i.dmp_set_shake_reject_timeout           0x08002f06   Section        0  inv_mpu_dmp_motion_driver.o(i.dmp_set_shake_reject_timeout)
    i.dmp_set_tap_axes                       0x08002f2c   Section        0  inv_mpu_dmp_motion_driver.o(i.dmp_set_tap_axes)
    i.dmp_set_tap_count                      0x08002f72   Section        0  inv_mpu_dmp_motion_driver.o(i.dmp_set_tap_count)
    i.dmp_set_tap_thresh                     0x08002f98   Section        0  inv_mpu_dmp_motion_driver.o(i.dmp_set_tap_thresh)
    i.dmp_set_tap_time                       0x08003138   Section        0  inv_mpu_dmp_motion_driver.o(i.dmp_set_tap_time)
    i.dmp_set_tap_time_multi                 0x0800315e   Section        0  inv_mpu_dmp_motion_driver.o(i.dmp_set_tap_time_multi)
    i.fputc                                  0x08003184   Section        0  usart.o(i.fputc)
    i.get_accel_prod_shift                   0x080031a0   Section        0  inv_mpu.o(i.get_accel_prod_shift)
    get_accel_prod_shift                     0x080031a1   Thumb Code   168  inv_mpu.o(i.get_accel_prod_shift)
    i.get_st_biases                          0x08003254   Section        0  inv_mpu.o(i.get_st_biases)
    get_st_biases                            0x08003255   Thumb Code  1132  inv_mpu.o(i.get_st_biases)
    i.gyro_self_test                         0x080036c4   Section        0  inv_mpu.o(i.gyro_self_test)
    gyro_self_test                           0x080036c5   Thumb Code   256  inv_mpu.o(i.gyro_self_test)
    i.inv_orientation_matrix_to_scalar       0x080037d4   Section        0  inv_mpu.o(i.inv_orientation_matrix_to_scalar)
    i.inv_row_2_scale                        0x080037fc   Section        0  inv_mpu.o(i.inv_row_2_scale)
    i.main                                   0x0800384a   Section        0  main.o(i.main)
    i.mget_ms                                0x0800385a   Section        0  inv_mpu.o(i.mget_ms)
    i.mpu_configure_fifo                     0x0800385c   Section        0  inv_mpu.o(i.mpu_configure_fifo)
    i.mpu_dmp_get_data                       0x080038cc   Section        0  inv_mpu.o(i.mpu_dmp_get_data)
    i.mpu_dmp_init                           0x08003af0   Section        0  inv_mpu.o(i.mpu_dmp_init)
    i.mpu_get_accel_fsr                      0x08003b90   Section        0  inv_mpu.o(i.mpu_get_accel_fsr)
    i.mpu_get_accel_sens                     0x08003bdc   Section        0  inv_mpu.o(i.mpu_get_accel_sens)
    i.mpu_get_fifo_config                    0x08003c30   Section        0  inv_mpu.o(i.mpu_get_fifo_config)
    i.mpu_get_gyro_fsr                       0x08003c40   Section        0  inv_mpu.o(i.mpu_get_gyro_fsr)
    i.mpu_get_gyro_sens                      0x08003c84   Section        0  inv_mpu.o(i.mpu_get_gyro_sens)
    i.mpu_get_lpf                            0x08003cd4   Section        0  inv_mpu.o(i.mpu_get_lpf)
    i.mpu_get_sample_rate                    0x08003d24   Section        0  inv_mpu.o(i.mpu_get_sample_rate)
    i.mpu_init                               0x08003d44   Section        0  inv_mpu.o(i.mpu_init)
    i.mpu_load_firmware                      0x08003f34   Section        0  inv_mpu.o(i.mpu_load_firmware)
    i.mpu_lp_accel_mode                      0x08003fec   Section        0  inv_mpu.o(i.mpu_lp_accel_mode)
    i.mpu_read_fifo_stream                   0x080040cc   Section        0  inv_mpu.o(i.mpu_read_fifo_stream)
    i.mpu_read_mem                           0x0800418c   Section        0  inv_mpu.o(i.mpu_read_mem)
    i.mpu_reset_fifo                         0x0800420c   Section        0  inv_mpu.o(i.mpu_reset_fifo)
    i.mpu_run_self_test                      0x080043d4   Section        0  inv_mpu.o(i.mpu_run_self_test)
    i.mpu_set_accel_fsr                      0x080044f0   Section        0  inv_mpu.o(i.mpu_set_accel_fsr)
    i.mpu_set_bypass                         0x08004574   Section        0  inv_mpu.o(i.mpu_set_bypass)
    i.mpu_set_dmp_state                      0x080046c0   Section        0  inv_mpu.o(i.mpu_set_dmp_state)
    i.mpu_set_gyro_fsr                       0x08004750   Section        0  inv_mpu.o(i.mpu_set_gyro_fsr)
    i.mpu_set_int_latched                    0x080047d8   Section        0  inv_mpu.o(i.mpu_set_int_latched)
    i.mpu_set_lpf                            0x08004844   Section        0  inv_mpu.o(i.mpu_set_lpf)
    i.mpu_set_sample_rate                    0x080048c8   Section        0  inv_mpu.o(i.mpu_set_sample_rate)
    i.mpu_set_sensors                        0x08004964   Section        0  inv_mpu.o(i.mpu_set_sensors)
    i.mpu_write_mem                          0x08004a34   Section        0  inv_mpu.o(i.mpu_write_mem)
    i.run_self_test                          0x08004ab4   Section        0  inv_mpu.o(i.run_self_test)
    i.set_int_enable                         0x08004b48   Section        0  inv_mpu.o(i.set_int_enable)
    set_int_enable                           0x08004b49   Thumb Code   138  inv_mpu.o(i.set_int_enable)
    i.sqrt                                   0x08004bd8   Section        0  sqrt.o(i.sqrt)
    i.uart_init                              0x08004c24   Section        0  usart.o(i.uart_init)
    x$fpl$d2f                                0x08004cc4   Section       98  d2f.o(x$fpl$d2f)
    x$fpl$dadd                               0x08004d28   Section      336  daddsub_clz.o(x$fpl$dadd)
    _dadd1                                   0x08004d39   Thumb Code     0  daddsub_clz.o(x$fpl$dadd)
    x$fpl$dcheck1                            0x08004e78   Section       16  dcheck1.o(x$fpl$dcheck1)
    x$fpl$ddiv                               0x08004e88   Section      688  ddiv.o(x$fpl$ddiv)
    ddiv_entry                               0x08004e8f   Thumb Code     0  ddiv.o(x$fpl$ddiv)
    x$fpl$dflt                               0x08005138   Section       46  dflt_clz.o(x$fpl$dflt)
    x$fpl$dmul                               0x08005168   Section      340  dmul.o(x$fpl$dmul)
    x$fpl$dnaninf                            0x080052bc   Section      156  dnaninf.o(x$fpl$dnaninf)
    x$fpl$dretinf                            0x08005358   Section       12  dretinf.o(x$fpl$dretinf)
    x$fpl$drsb                               0x08005364   Section       22  daddsub_clz.o(x$fpl$drsb)
    x$fpl$dsqrt                              0x0800537c   Section      460  dsqrt_noumaal.o(x$fpl$dsqrt)
    x$fpl$dsub                               0x08005548   Section      468  daddsub_clz.o(x$fpl$dsub)
    _dsub1                                   0x08005559   Thumb Code     0  daddsub_clz.o(x$fpl$dsub)
    x$fpl$f2d                                0x0800571c   Section       86  f2d.o(x$fpl$f2d)
    x$fpl$fadd                               0x08005774   Section      196  faddsub_clz.o(x$fpl$fadd)
    _fadd1                                   0x08005783   Thumb Code     0  faddsub_clz.o(x$fpl$fadd)
    x$fpl$fcmpinf                            0x08005838   Section       24  fcmpi.o(x$fpl$fcmpinf)
    x$fpl$fdiv                               0x08005850   Section      388  fdiv.o(x$fpl$fdiv)
    _fdiv1                                   0x08005851   Thumb Code     0  fdiv.o(x$fpl$fdiv)
    x$fpl$feqf                               0x080059d4   Section      104  feqf.o(x$fpl$feqf)
    x$fpl$ffix                               0x08005a3c   Section       54  ffix.o(x$fpl$ffix)
    x$fpl$ffixu                              0x08005a74   Section       62  ffixu.o(x$fpl$ffixu)
    x$fpl$fflt                               0x08005ab4   Section       48  fflt_clz.o(x$fpl$fflt)
    x$fpl$ffltu                              0x08005ae4   Section       38  fflt_clz.o(x$fpl$ffltu)
    x$fpl$fleqf                              0x08005b0c   Section      104  fleqf.o(x$fpl$fleqf)
    x$fpl$fmul                               0x08005b74   Section      258  fmul.o(x$fpl$fmul)
    x$fpl$fnaninf                            0x08005c76   Section      140  fnaninf.o(x$fpl$fnaninf)
    x$fpl$fretinf                            0x08005d02   Section       10  fretinf.o(x$fpl$fretinf)
    x$fpl$frleqf                             0x08005d0c   Section       98  frleqf.o(x$fpl$frleqf)
    x$fpl$fsub                               0x08005d70   Section      234  faddsub_clz.o(x$fpl$fsub)
    _fsub1                                   0x08005d7f   Thumb Code     0  faddsub_clz.o(x$fpl$fsub)
    x$fpl$retnan                             0x08005e5a   Section      100  retnan.o(x$fpl$retnan)
    x$fpl$scalbn                             0x08005ebe   Section       92  scalbn.o(x$fpl$scalbn)
    x$fpl$trapveneer                         0x08005f1a   Section       48  trapv.o(x$fpl$trapveneer)
    x$fpl$usenofp                            0x08005f4a   Section        0  usenofp.o(x$fpl$usenofp)
    .constdata                               0x08005f4c   Section       80  inv_mpu.o(.constdata)
    .constdata                               0x08005f9c   Section     3062  inv_mpu_dmp_motion_driver.o(.constdata)
    dmp_memory                               0x08005f9c   Data        3062  inv_mpu_dmp_motion_driver.o(.constdata)
    .constdata                               0x08006b92   Section     6624  oled.o(.constdata)
    .constdata                               0x08008572   Section       17  __printf_flags_wp.o(.constdata)
    maptable                                 0x08008572   Data          17  __printf_flags_wp.o(.constdata)
    .constdata                               0x08008588   Section       80  asin.o(.constdata)
    pS                                       0x08008588   Data          48  asin.o(.constdata)
    qS                                       0x080085b8   Data          32  asin.o(.constdata)
    .constdata                               0x080085d8   Section      152  atan.o(.constdata)
    atanhi                                   0x080085d8   Data          32  atan.o(.constdata)
    atanlo                                   0x080085f8   Data          32  atan.o(.constdata)
    aTodd                                    0x08008618   Data          40  atan.o(.constdata)
    aTeven                                   0x08008640   Data          48  atan.o(.constdata)
    .constdata                               0x08008670   Section        8  qnan.o(.constdata)
    .conststring                             0x08008678   Section       77  inv_mpu.o(.conststring)
    .data                                    0x20000000   Section       28  main.o(.data)
    .data                                    0x2000001c   Section       20  system_stm32f10x.o(.data)
    .data                                    0x20000030   Section       53  inv_mpu.o(.data)
    st                                       0x20000030   Data          44  inv_mpu.o(.data)
    gyro_orientation                         0x2000005c   Data           9  inv_mpu.o(.data)
    .data                                    0x20000066   Section        4  delay.o(.data)
    fac_us                                   0x20000066   Data           1  delay.o(.data)
    fac_ms                                   0x20000068   Data           2  delay.o(.data)
    .data                                    0x2000006c   Section        6  usart.o(.data)
    .data                                    0x20000072   Section       20  stm32f10x_rcc.o(.data)
    APBAHBPrescTable                         0x20000072   Data          16  stm32f10x_rcc.o(.data)
    ADCPrescTable                            0x20000082   Data           4  stm32f10x_rcc.o(.data)
    .bss                                     0x20000088   Section       33  main.o(.bss)
    .bss                                     0x200000ac   Section       16  inv_mpu_dmp_motion_driver.o(.bss)
    dmp                                      0x200000ac   Data          16  inv_mpu_dmp_motion_driver.o(.bss)
    .bss                                     0x200000bc   Section     1152  oled.o(.bss)
    .bss                                     0x2000053c   Section      200  usart.o(.bss)
    .bss                                     0x20000604   Section       96  libspace.o(.bss)
    HEAP                                     0x20000668   Section      512  startup_stm32f10x_md.o(HEAP)
    Heap_Mem                                 0x20000668   Data         512  startup_stm32f10x_md.o(HEAP)
    STACK                                    0x20000868   Section     1024  startup_stm32f10x_md.o(STACK)
    Stack_Mem                                0x20000868   Data        1024  startup_stm32f10x_md.o(STACK)
    __initial_sp                             0x20000c68   Data           0  startup_stm32f10x_md.o(STACK)

    Global Symbols

    Symbol Name                              Value     Ov Type        Size  Object(Section)

    BuildAttributes$$THM_ISAv4$P$D$K$B$S$PE$A:L22UL41UL21$X:L11$S22US41US21$IEEE1$IW$USESV6$~STKCKD$USESV7$~SHL$OTIME$ROPI$IEEEX$EBA8$UX$STANDARDLIB$REQ8$PRES8$EABIv2 0x00000000   Number         0  anon$$obj.o ABSOLUTE
    __ARM_use_no_argv                        0x00000000   Number         0  main.o ABSOLUTE
    _printf_flags                            0x00000000   Number         0  printf_stubs.o ABSOLUTE
    _printf_return_value                     0x00000000   Number         0  printf_stubs.o ABSOLUTE
    _printf_sizespec                         0x00000000   Number         0  printf_stubs.o ABSOLUTE
    _printf_widthprec                        0x00000000   Number         0  printf_stubs.o ABSOLUTE
    __ARM_exceptions_init                     - Undefined Weak Reference
    __alloca_initialize                       - Undefined Weak Reference
    __arm_preinit_                            - Undefined Weak Reference
    __cpp_initialize__aeabi_                  - Undefined Weak Reference
    __cxa_finalize                            - Undefined Weak Reference
    __rt_locale                               - Undefined Weak Reference
    __sigvec_lookup                           - Undefined Weak Reference
    _atexit_init                              - Undefined Weak Reference
    _call_atexit_fns                          - Undefined Weak Reference
    _clock_init                               - Undefined Weak Reference
    _fp_trap_init                             - Undefined Weak Reference
    _fp_trap_shutdown                         - Undefined Weak Reference
    _get_lc_collate                           - Undefined Weak Reference
    _get_lc_ctype                             - Undefined Weak Reference
    _get_lc_monetary                          - Undefined Weak Reference
    _get_lc_numeric                           - Undefined Weak Reference
    _get_lc_time                              - Undefined Weak Reference
    _getenv_init                              - Undefined Weak Reference
    _handle_redirection                       - Undefined Weak Reference
    _init_alloc                               - Undefined Weak Reference
    _init_user_alloc                          - Undefined Weak Reference
    _initio                                   - Undefined Weak Reference
    _mutex_acquire                            - Undefined Weak Reference
    _mutex_release                            - Undefined Weak Reference
    _printf_truncate_signed                   - Undefined Weak Reference
    _printf_truncate_unsigned                 - Undefined Weak Reference
    _rand_init                                - Undefined Weak Reference
    _signal_finish                            - Undefined Weak Reference
    _signal_init                              - Undefined Weak Reference
    _terminate_alloc                          - Undefined Weak Reference
    _terminate_user_alloc                     - Undefined Weak Reference
    _terminateio                              - Undefined Weak Reference
    __Vectors_Size                           0x000000ec   Number         0  startup_stm32f10x_md.o ABSOLUTE
    __Vectors                                0x08000000   Data           4  startup_stm32f10x_md.o(RESET)
    __Vectors_End                            0x080000ec   Data           0  startup_stm32f10x_md.o(RESET)
    __main                                   0x080000ed   Thumb Code     8  __main.o(!!!main)
    __scatterload                            0x080000f5   Thumb Code     0  __scatter.o(!!!scatter)
    __scatterload_rt2                        0x080000f5   Thumb Code    44  __scatter.o(!!!scatter)
    __scatterload_rt2_thumb_only             0x080000f5   Thumb Code     0  __scatter.o(!!!scatter)
    __scatterload_null                       0x08000103   Thumb Code     0  __scatter.o(!!!scatter)
    __scatterload_copy                       0x08000129   Thumb Code    26  __scatter_copy.o(!!handler_copy)
    __scatterload_zeroinit                   0x08000145   Thumb Code    28  __scatter_zi.o(!!handler_zi)
    _printf_d                                0x08000161   Thumb Code     0  _printf_d.o(.ARM.Collect$$_printf_percent$$00000009)
    _printf_percent                          0x08000161   Thumb Code     0  _printf_percent.o(.ARM.Collect$$_printf_percent$$00000000)
    _printf_percent_end                      0x08000167   Thumb Code     0  _printf_percent_end.o(.ARM.Collect$$_printf_percent$$00000017)
    __rt_lib_init                            0x0800016b   Thumb Code     0  libinit.o(.ARM.Collect$$libinit$$00000000)
    __rt_lib_init_alloca_1                   0x0800016d   Thumb Code     0  libinit2.o(.ARM.Collect$$libinit$$0000002E)
    __rt_lib_init_argv_1                     0x0800016d   Thumb Code     0  libinit2.o(.ARM.Collect$$libinit$$0000002C)
    __rt_lib_init_atexit_1                   0x0800016d   Thumb Code     0  libinit2.o(.ARM.Collect$$libinit$$0000001B)
    __rt_lib_init_clock_1                    0x0800016d   Thumb Code     0  libinit2.o(.ARM.Collect$$libinit$$00000021)
    __rt_lib_init_cpp_1                      0x0800016d   Thumb Code     0  libinit2.o(.ARM.Collect$$libinit$$00000032)
    __rt_lib_init_exceptions_1               0x0800016d   Thumb Code     0  libinit2.o(.ARM.Collect$$libinit$$00000030)
    __rt_lib_init_fp_1                       0x0800016d   Thumb Code     0  libinit2.o(.ARM.Collect$$libinit$$00000002)
    __rt_lib_init_fp_trap_1                  0x0800016d   Thumb Code     0  libinit2.o(.ARM.Collect$$libinit$$0000001F)
    __rt_lib_init_getenv_1                   0x0800016d   Thumb Code     0  libinit2.o(.ARM.Collect$$libinit$$00000023)
    __rt_lib_init_heap_1                     0x0800016d   Thumb Code     0  libinit2.o(.ARM.Collect$$libinit$$0000000A)
    __rt_lib_init_lc_collate_1               0x0800016d   Thumb Code     0  libinit2.o(.ARM.Collect$$libinit$$00000011)
    __rt_lib_init_lc_ctype_1                 0x0800016d   Thumb Code     0  libinit2.o(.ARM.Collect$$libinit$$00000013)
    __rt_lib_init_lc_monetary_1              0x0800016d   Thumb Code     0  libinit2.o(.ARM.Collect$$libinit$$00000015)
    __rt_lib_init_lc_numeric_1               0x0800016d   Thumb Code     0  libinit2.o(.ARM.Collect$$libinit$$00000017)
    __rt_lib_init_lc_time_1                  0x0800016d   Thumb Code     0  libinit2.o(.ARM.Collect$$libinit$$00000019)
    __rt_lib_init_preinit_1                  0x0800016d   Thumb Code     0  libinit2.o(.ARM.Collect$$libinit$$00000004)
    __rt_lib_init_rand_1                     0x0800016d   Thumb Code     0  libinit2.o(.ARM.Collect$$libinit$$0000000E)
    __rt_lib_init_return                     0x0800016d   Thumb Code     0  libinit2.o(.ARM.Collect$$libinit$$00000033)
    __rt_lib_init_signal_1                   0x0800016d   Thumb Code     0  libinit2.o(.ARM.Collect$$libinit$$0000001D)
    __rt_lib_init_stdio_1                    0x0800016d   Thumb Code     0  libinit2.o(.ARM.Collect$$libinit$$00000025)
    __rt_lib_init_user_alloc_1               0x0800016d   Thumb Code     0  libinit2.o(.ARM.Collect$$libinit$$0000000C)
    __rt_lib_shutdown                        0x0800016f   Thumb Code     0  libshutdown.o(.ARM.Collect$$libshutdown$$00000000)
    __rt_lib_shutdown_fp_trap_1              0x08000171   Thumb Code     0  libshutdown2.o(.ARM.Collect$$libshutdown$$00000006)
    __rt_lib_shutdown_heap_1                 0x08000171   Thumb Code     0  libshutdown2.o(.ARM.Collect$$libshutdown$$0000000E)
    __rt_lib_shutdown_return                 0x08000171   Thumb Code     0  libshutdown2.o(.ARM.Collect$$libshutdown$$0000000F)
    __rt_lib_shutdown_signal_1               0x08000171   Thumb Code     0  libshutdown2.o(.ARM.Collect$$libshutdown$$00000009)
    __rt_lib_shutdown_stdio_1                0x08000171   Thumb Code     0  libshutdown2.o(.ARM.Collect$$libshutdown$$00000003)
    __rt_lib_shutdown_user_alloc_1           0x08000171   Thumb Code     0  libshutdown2.o(.ARM.Collect$$libshutdown$$0000000B)
    __rt_entry                               0x08000173   Thumb Code     0  __rtentry.o(.ARM.Collect$$rtentry$$00000000)
    __rt_entry_presh_1                       0x08000173   Thumb Code     0  __rtentry2.o(.ARM.Collect$$rtentry$$00000002)
    __rt_entry_sh                            0x08000173   Thumb Code     0  __rtentry4.o(.ARM.Collect$$rtentry$$00000004)
    __rt_entry_li                            0x08000179   Thumb Code     0  __rtentry2.o(.ARM.Collect$$rtentry$$0000000A)
    __rt_entry_postsh_1                      0x08000179   Thumb Code     0  __rtentry2.o(.ARM.Collect$$rtentry$$00000009)
    __rt_entry_main                          0x0800017d   Thumb Code     0  __rtentry2.o(.ARM.Collect$$rtentry$$0000000D)
    __rt_entry_postli_1                      0x0800017d   Thumb Code     0  __rtentry2.o(.ARM.Collect$$rtentry$$0000000C)
    __rt_exit                                0x08000185   Thumb Code     0  rtexit.o(.ARM.Collect$$rtexit$$00000000)
    __rt_exit_ls                             0x08000187   Thumb Code     0  rtexit2.o(.ARM.Collect$$rtexit$$00000003)
    __rt_exit_prels_1                        0x08000187   Thumb Code     0  rtexit2.o(.ARM.Collect$$rtexit$$00000002)
    __rt_exit_exit                           0x0800018b   Thumb Code     0  rtexit2.o(.ARM.Collect$$rtexit$$00000004)
    Reset_Handler                            0x08000191   Thumb Code     8  startup_stm32f10x_md.o(.text)
    ADC1_2_IRQHandler                        0x080001ab   Thumb Code     0  startup_stm32f10x_md.o(.text)
    CAN1_RX1_IRQHandler                      0x080001ab   Thumb Code     0  startup_stm32f10x_md.o(.text)
    CAN1_SCE_IRQHandler                      0x080001ab   Thumb Code     0  startup_stm32f10x_md.o(.text)
    DMA1_Channel1_IRQHandler                 0x080001ab   Thumb Code     0  startup_stm32f10x_md.o(.text)
    DMA1_Channel2_IRQHandler                 0x080001ab   Thumb Code     0  startup_stm32f10x_md.o(.text)
    DMA1_Channel3_IRQHandler                 0x080001ab   Thumb Code     0  startup_stm32f10x_md.o(.text)
    DMA1_Channel4_IRQHandler                 0x080001ab   Thumb Code     0  startup_stm32f10x_md.o(.text)
    DMA1_Channel5_IRQHandler                 0x080001ab   Thumb Code     0  startup_stm32f10x_md.o(.text)
    DMA1_Channel6_IRQHandler                 0x080001ab   Thumb Code     0  startup_stm32f10x_md.o(.text)
    DMA1_Channel7_IRQHandler                 0x080001ab   Thumb Code     0  startup_stm32f10x_md.o(.text)
    EXTI0_IRQHandler                         0x080001ab   Thumb Code     0  startup_stm32f10x_md.o(.text)
    EXTI15_10_IRQHandler                     0x080001ab   Thumb Code     0  startup_stm32f10x_md.o(.text)
    EXTI1_IRQHandler                         0x080001ab   Thumb Code     0  startup_stm32f10x_md.o(.text)
    EXTI2_IRQHandler                         0x080001ab   Thumb Code     0  startup_stm32f10x_md.o(.text)
    EXTI3_IRQHandler                         0x080001ab   Thumb Code     0  startup_stm32f10x_md.o(.text)
    EXTI4_IRQHandler                         0x080001ab   Thumb Code     0  startup_stm32f10x_md.o(.text)
    EXTI9_5_IRQHandler                       0x080001ab   Thumb Code     0  startup_stm32f10x_md.o(.text)
    FLASH_IRQHandler                         0x080001ab   Thumb Code     0  startup_stm32f10x_md.o(.text)
    I2C1_ER_IRQHandler                       0x080001ab   Thumb Code     0  startup_stm32f10x_md.o(.text)
    I2C1_EV_IRQHandler                       0x080001ab   Thumb Code     0  startup_stm32f10x_md.o(.text)
    I2C2_ER_IRQHandler                       0x080001ab   Thumb Code     0  startup_stm32f10x_md.o(.text)
    I2C2_EV_IRQHandler                       0x080001ab   Thumb Code     0  startup_stm32f10x_md.o(.text)
    PVD_IRQHandler                           0x080001ab   Thumb Code     0  startup_stm32f10x_md.o(.text)
    RCC_IRQHandler                           0x080001ab   Thumb Code     0  startup_stm32f10x_md.o(.text)
    RTCAlarm_IRQHandler                      0x080001ab   Thumb Code     0  startup_stm32f10x_md.o(.text)
    RTC_IRQHandler                           0x080001ab   Thumb Code     0  startup_stm32f10x_md.o(.text)
    SPI1_IRQHandler                          0x080001ab   Thumb Code     0  startup_stm32f10x_md.o(.text)
    SPI2_IRQHandler                          0x080001ab   Thumb Code     0  startup_stm32f10x_md.o(.text)
    TAMPER_IRQHandler                        0x080001ab   Thumb Code     0  startup_stm32f10x_md.o(.text)
    TIM1_BRK_IRQHandler                      0x080001ab   Thumb Code     0  startup_stm32f10x_md.o(.text)
    TIM1_CC_IRQHandler                       0x080001ab   Thumb Code     0  startup_stm32f10x_md.o(.text)
    TIM1_TRG_COM_IRQHandler                  0x080001ab   Thumb Code     0  startup_stm32f10x_md.o(.text)
    TIM1_UP_IRQHandler                       0x080001ab   Thumb Code     0  startup_stm32f10x_md.o(.text)
    TIM2_IRQHandler                          0x080001ab   Thumb Code     0  startup_stm32f10x_md.o(.text)
    TIM3_IRQHandler                          0x080001ab   Thumb Code     0  startup_stm32f10x_md.o(.text)
    TIM4_IRQHandler                          0x080001ab   Thumb Code     0  startup_stm32f10x_md.o(.text)
    USART2_IRQHandler                        0x080001ab   Thumb Code     0  startup_stm32f10x_md.o(.text)
    USART3_IRQHandler                        0x080001ab   Thumb Code     0  startup_stm32f10x_md.o(.text)
    USBWakeUp_IRQHandler                     0x080001ab   Thumb Code     0  startup_stm32f10x_md.o(.text)
    USB_HP_CAN1_TX_IRQHandler                0x080001ab   Thumb Code     0  startup_stm32f10x_md.o(.text)
    USB_LP_CAN1_RX0_IRQHandler               0x080001ab   Thumb Code     0  startup_stm32f10x_md.o(.text)
    WWDG_IRQHandler                          0x080001ab   Thumb Code     0  startup_stm32f10x_md.o(.text)
    __user_initial_stackheap                 0x080001ad   Thumb Code     0  startup_stm32f10x_md.o(.text)
    __use_no_semihosting                     0x080001d1   Thumb Code     2  use_no_semi_2.o(.text)
    __aeabi_ldivmod                          0x080001d3   Thumb Code     0  llsdiv.o(.text)
    _ll_sdiv                                 0x080001d3   Thumb Code    72  llsdiv.o(.text)
    __2printf                                0x0800021d   Thumb Code    20  noretval__2printf.o(.text)
    __2sprintf                               0x08000235   Thumb Code    34  noretval__2sprintf.o(.text)
    _printf_int_dec                          0x0800025d   Thumb Code   104  _printf_dec.o(.text)
    __printf                                 0x080002d5   Thumb Code   308  __printf_flags_wp.o(.text)
    memcmp                                   0x0800040d   Thumb Code    88  memcmp.o(.text)
    __aeabi_memset                           0x08000465   Thumb Code    16  aeabi_memset.o(.text)
    __use_two_region_memory                  0x08000475   Thumb Code     2  heapauxi.o(.text)
    __rt_heap_escrow$2region                 0x08000477   Thumb Code     2  heapauxi.o(.text)
    __rt_heap_expand$2region                 0x08000479   Thumb Code     2  heapauxi.o(.text)
    __I$use$semihosting                      0x0800047b   Thumb Code     0  use_no_semi.o(.text)
    __use_no_semihosting_swi                 0x0800047b   Thumb Code     2  use_no_semi.o(.text)
    __aeabi_uldivmod                         0x0800047d   Thumb Code     0  lludivv7m.o(.text)
    _ll_udiv                                 0x0800047d   Thumb Code   238  lludivv7m.o(.text)
    __read_errno                             0x0800056b   Thumb Code    10  _rserrno.o(.text)
    __set_errno                              0x08000575   Thumb Code    12  _rserrno.o(.text)
    _printf_int_common                       0x08000581   Thumb Code   178  _printf_intcommon.o(.text)
    _printf_char_common                      0x0800063f   Thumb Code    32  _printf_char_common.o(.text)
    _sputc                                   0x08000665   Thumb Code    10  _sputc.o(.text)
    _printf_char_file                        0x08000671   Thumb Code    32  _printf_char_file.o(.text)
    __aeabi_memclr                           0x08000695   Thumb Code     0  rt_memclr.o(.text)
    __rt_memclr                              0x08000695   Thumb Code    68  rt_memclr.o(.text)
    _memset                                  0x08000699   Thumb Code     0  rt_memclr.o(.text)
    __aeabi_errno_addr                       0x080006d9   Thumb Code     8  rt_errno_addr_intlibspace.o(.text)
    __errno$intlibspace                      0x080006d9   Thumb Code     0  rt_errno_addr_intlibspace.o(.text)
    __rt_errno_addr$intlibspace              0x080006d9   Thumb Code     0  rt_errno_addr_intlibspace.o(.text)
    ferror                                   0x080006e1   Thumb Code     8  ferror.o(.text)
    __aeabi_memclr4                          0x080006e9   Thumb Code     0  rt_memclr_w.o(.text)
    __aeabi_memclr8                          0x080006e9   Thumb Code     0  rt_memclr_w.o(.text)
    __rt_memclr_w                            0x080006e9   Thumb Code    78  rt_memclr_w.o(.text)
    _memset_w                                0x080006ed   Thumb Code     0  rt_memclr_w.o(.text)
    __user_libspace                          0x08000739   Thumb Code     8  libspace.o(.text)
    __user_perproc_libspace                  0x08000739   Thumb Code     0  libspace.o(.text)
    __user_perthread_libspace                0x08000739   Thumb Code     0  libspace.o(.text)
    __user_setup_stackheap                   0x08000741   Thumb Code    74  sys_stackheap_outer.o(.text)
    exit                                     0x0800078b   Thumb Code    12  exit.o(.text)
    BusFault_Handler                         0x08000797   Thumb Code     4  stm32f10x_it.o(i.BusFault_Handler)
    DATA_Report                              0x0800079d   Thumb Code   534  main.o(i.DATA_Report)
    DebugMon_Handler                         0x08000a7d   Thumb Code     2  stm32f10x_it.o(i.DebugMon_Handler)
    GPIO_Init                                0x08000a7f   Thumb Code   278  stm32f10x_gpio.o(i.GPIO_Init)
    GPIO_ResetBits                           0x08000b95   Thumb Code     4  stm32f10x_gpio.o(i.GPIO_ResetBits)
    GPIO_SetBits                             0x08000b99   Thumb Code     4  stm32f10x_gpio.o(i.GPIO_SetBits)
    HardFault_Handler                        0x08000b9d   Thumb Code     4  stm32f10x_it.o(i.HardFault_Handler)
    I2C_Start                                0x08000ba1   Thumb Code    36  oled.o(i.I2C_Start)
    I2C_Stop                                 0x08000bc9   Thumb Code    28  oled.o(i.I2C_Stop)
    I2C_WaitAck                              0x08000be9   Thumb Code    20  oled.o(i.I2C_WaitAck)
    LED_Init                                 0x08000c01   Thumb Code    50  led.o(i.LED_Init)
    MPU_Get_Accelerometer                    0x08000c39   Thumb Code    80  mpu6050.o(i.MPU_Get_Accelerometer)
    MPU_Get_Gyroscope                        0x08000c89   Thumb Code    80  mpu6050.o(i.MPU_Get_Gyroscope)
    MPU_Get_Temperature                      0x08000cd9   Thumb Code    86  mpu6050.o(i.MPU_Get_Temperature)
    MPU_IIC_Ack                              0x08000d41   Thumb Code    62  mpuiic.o(i.MPU_IIC_Ack)
    MPU_IIC_Delay                            0x08000d8d   Thumb Code    10  mpuiic.o(i.MPU_IIC_Delay)
    MPU_IIC_Init                             0x08000d99   Thumb Code    46  mpuiic.o(i.MPU_IIC_Init)
    MPU_IIC_NAck                             0x08000dcd   Thumb Code    62  mpuiic.o(i.MPU_IIC_NAck)
    MPU_IIC_Read_Byte                        0x08000e19   Thumb Code    94  mpuiic.o(i.MPU_IIC_Read_Byte)
    MPU_IIC_Send_Byte                        0x08000e85   Thumb Code    80  mpuiic.o(i.MPU_IIC_Send_Byte)
    MPU_IIC_Start                            0x08000ee1   Thumb Code    60  mpuiic.o(i.MPU_IIC_Start)
    MPU_IIC_Stop                             0x08000f29   Thumb Code    58  mpuiic.o(i.MPU_IIC_Stop)
    MPU_IIC_Wait_Ack                         0x08000f71   Thumb Code    86  mpuiic.o(i.MPU_IIC_Wait_Ack)
    MPU_Init                                 0x08000fd5   Thumb Code   122  mpu6050.o(i.MPU_Init)
    MPU_Read                                 0x08001051   Thumb Code    78  main.o(i.MPU_Read)
    MPU_Read_Byte                            0x080010cd   Thumb Code    58  mpu6050.o(i.MPU_Read_Byte)
    MPU_Read_Len                             0x08001107   Thumb Code   116  mpu6050.o(i.MPU_Read_Len)
    MPU_Set_Accel_Fsr                        0x0800117b   Thumb Code    16  mpu6050.o(i.MPU_Set_Accel_Fsr)
    MPU_Set_Gyro_Fsr                         0x0800118b   Thumb Code    16  mpu6050.o(i.MPU_Set_Gyro_Fsr)
    MPU_Set_LPF                              0x0800119b   Thumb Code    58  mpu6050.o(i.MPU_Set_LPF)
    MPU_Set_Rate                             0x080011d5   Thumb Code    58  mpu6050.o(i.MPU_Set_Rate)
    MPU_Write_Byte                           0x0800120f   Thumb Code    68  mpu6050.o(i.MPU_Write_Byte)
    MPU_Write_Len                            0x08001253   Thumb Code    96  mpu6050.o(i.MPU_Write_Len)
    MemManage_Handler                        0x080012b3   Thumb Code     4  stm32f10x_it.o(i.MemManage_Handler)
    NMI_Handler                              0x080012b7   Thumb Code     2  stm32f10x_it.o(i.NMI_Handler)
    NVIC_Init                                0x080012b9   Thumb Code   100  misc.o(i.NVIC_Init)
    NVIC_PriorityGroupConfig                 0x08001329   Thumb Code    10  misc.o(i.NVIC_PriorityGroupConfig)
    OLED_Clear                               0x0800133d   Thumb Code    42  oled.o(i.OLED_Clear)
    OLED_ClearPoint                          0x0800136d   Thumb Code    90  oled.o(i.OLED_ClearPoint)
    OLED_DrawPoint                           0x080013cd   Thumb Code    54  oled.o(i.OLED_DrawPoint)
    OLED_Init                                0x08001409   Thumb Code   280  oled.o(i.OLED_Init)
    OLED_Refresh                             0x08001525   Thumb Code    70  oled.o(i.OLED_Refresh)
    OLED_ShowChar                            0x08001571   Thumb Code   240  oled.o(i.OLED_ShowChar)
    OLED_ShowString                          0x0800166d   Thumb Code    66  oled.o(i.OLED_ShowString)
    OLED_WR_Byte                             0x080016af   Thumb Code    56  oled.o(i.OLED_WR_Byte)
    PendSV_Handler                           0x080016e7   Thumb Code     2  stm32f10x_it.o(i.PendSV_Handler)
    RCC_APB2PeriphClockCmd                   0x080016e9   Thumb Code    26  stm32f10x_rcc.o(i.RCC_APB2PeriphClockCmd)
    RCC_GetClocksFreq                        0x08001709   Thumb Code   192  stm32f10x_rcc.o(i.RCC_GetClocksFreq)
    SVC_Handler                              0x080017dd   Thumb Code     2  stm32f10x_it.o(i.SVC_Handler)
    SYS_Init                                 0x080017e1   Thumb Code   162  main.o(i.SYS_Init)
    Send_Byte                                0x080018e5   Thumb Code    70  oled.o(i.Send_Byte)
    SysTick_CLKSourceConfig                  0x08001a19   Thumb Code    40  misc.o(i.SysTick_CLKSourceConfig)
    SysTick_Handler                          0x08001a41   Thumb Code     2  stm32f10x_it.o(i.SysTick_Handler)
    SystemInit                               0x08001a45   Thumb Code    78  system_stm32f10x.o(i.SystemInit)
    USART1_IRQHandler                        0x08001aa5   Thumb Code   122  usart.o(i.USART1_IRQHandler)
    USART_Cmd                                0x08001b2d   Thumb Code    24  stm32f10x_usart.o(i.USART_Cmd)
    USART_GetITStatus                        0x08001b45   Thumb Code    84  stm32f10x_usart.o(i.USART_GetITStatus)
    USART_ITConfig                           0x08001b99   Thumb Code    74  stm32f10x_usart.o(i.USART_ITConfig)
    USART_Init                               0x08001be5   Thumb Code   210  stm32f10x_usart.o(i.USART_Init)
    USART_ReceiveData                        0x08001cbd   Thumb Code    10  stm32f10x_usart.o(i.USART_ReceiveData)
    UsageFault_Handler                       0x08001cc7   Thumb Code     4  stm32f10x_it.o(i.UsageFault_Handler)
    __ARM_fpclassify                         0x08001ccb   Thumb Code    40  fpclassify.o(i.__ARM_fpclassify)
    __kernel_poly                            0x08001cf3   Thumb Code   170  poly.o(i.__kernel_poly)
    __mathlib_dbl_infnan                     0x08001d9d   Thumb Code     6  dunder.o(i.__mathlib_dbl_infnan)
    __mathlib_dbl_infnan2                    0x08001da3   Thumb Code     4  dunder.o(i.__mathlib_dbl_infnan2)
    __mathlib_dbl_invalid                    0x08001da7   Thumb Code    12  dunder.o(i.__mathlib_dbl_invalid)
    __mathlib_dbl_underflow                  0x08001db5   Thumb Code    10  dunder.o(i.__mathlib_dbl_underflow)
    _is_digit                                0x08001dc5   Thumb Code    14  __printf_wp.o(i._is_digit)
    _sys_exit                                0x08001dd3   Thumb Code     4  usart.o(i._sys_exit)
    asin                                     0x08001e81   Thumb Code   572  asin.o(i.asin)
    atan                                     0x080020f1   Thumb Code   474  atan.o(i.atan)
    atan2                                    0x08002311   Thumb Code   346  atan2.o(i.atan2)
    delay_init                               0x080024f5   Thumb Code    50  delay.o(i.delay_init)
    delay_ms                                 0x08002539   Thumb Code    72  delay.o(i.delay_ms)
    delay_us                                 0x08002585   Thumb Code    72  delay.o(i.delay_us)
    dmp_enable_6x_lp_quat                    0x080025d1   Thumb Code    60  inv_mpu_dmp_motion_driver.o(i.dmp_enable_6x_lp_quat)
    dmp_enable_feature                       0x0800260d   Thumb Code   530  inv_mpu_dmp_motion_driver.o(i.dmp_enable_feature)
    dmp_enable_gyro_cal                      0x08002829   Thumb Code    62  inv_mpu_dmp_motion_driver.o(i.dmp_enable_gyro_cal)
    dmp_enable_lp_quat                       0x08002881   Thumb Code    60  inv_mpu_dmp_motion_driver.o(i.dmp_enable_lp_quat)
    dmp_load_motion_driver_firmware          0x080028bd   Thumb Code    20  inv_mpu_dmp_motion_driver.o(i.dmp_load_motion_driver_firmware)
    dmp_read_fifo                            0x080028d5   Thumb Code   456  inv_mpu_dmp_motion_driver.o(i.dmp_read_fifo)
    dmp_set_accel_bias                       0x08002aa1   Thumb Code   300  inv_mpu_dmp_motion_driver.o(i.dmp_set_accel_bias)
    dmp_set_fifo_rate                        0x08002bd1   Thumb Code    96  inv_mpu_dmp_motion_driver.o(i.dmp_set_fifo_rate)
    dmp_set_gyro_bias                        0x08002c41   Thumb Code   294  inv_mpu_dmp_motion_driver.o(i.dmp_set_gyro_bias)
    dmp_set_orientation                      0x08002d71   Thumb Code   290  inv_mpu_dmp_motion_driver.o(i.dmp_set_orientation)
    dmp_set_shake_reject_thresh              0x08002ea9   Thumb Code    56  inv_mpu_dmp_motion_driver.o(i.dmp_set_shake_reject_thresh)
    dmp_set_shake_reject_time                0x08002ee1   Thumb Code    38  inv_mpu_dmp_motion_driver.o(i.dmp_set_shake_reject_time)
    dmp_set_shake_reject_timeout             0x08002f07   Thumb Code    38  inv_mpu_dmp_motion_driver.o(i.dmp_set_shake_reject_timeout)
    dmp_set_tap_axes                         0x08002f2d   Thumb Code    70  inv_mpu_dmp_motion_driver.o(i.dmp_set_tap_axes)
    dmp_set_tap_count                        0x08002f73   Thumb Code    38  inv_mpu_dmp_motion_driver.o(i.dmp_set_tap_count)
    dmp_set_tap_thresh                       0x08002f99   Thumb Code   396  inv_mpu_dmp_motion_driver.o(i.dmp_set_tap_thresh)
    dmp_set_tap_time                         0x08003139   Thumb Code    38  inv_mpu_dmp_motion_driver.o(i.dmp_set_tap_time)
    dmp_set_tap_time_multi                   0x0800315f   Thumb Code    38  inv_mpu_dmp_motion_driver.o(i.dmp_set_tap_time_multi)
    fputc                                    0x08003185   Thumb Code    24  usart.o(i.fputc)
    inv_orientation_matrix_to_scalar         0x080037d5   Thumb Code    40  inv_mpu.o(i.inv_orientation_matrix_to_scalar)
    inv_row_2_scale                          0x080037fd   Thumb Code    78  inv_mpu.o(i.inv_row_2_scale)
    main                                     0x0800384b   Thumb Code    16  main.o(i.main)
    mget_ms                                  0x0800385b   Thumb Code     2  inv_mpu.o(i.mget_ms)
    mpu_configure_fifo                       0x0800385d   Thumb Code   106  inv_mpu.o(i.mpu_configure_fifo)
    mpu_dmp_get_data                         0x080038cd   Thumb Code   544  inv_mpu.o(i.mpu_dmp_get_data)
    mpu_dmp_init                             0x08003af1   Thumb Code   154  inv_mpu.o(i.mpu_dmp_init)
    mpu_get_accel_fsr                        0x08003b91   Thumb Code    72  inv_mpu.o(i.mpu_get_accel_fsr)
    mpu_get_accel_sens                       0x08003bdd   Thumb Code    78  inv_mpu.o(i.mpu_get_accel_sens)
    mpu_get_fifo_config                      0x08003c31   Thumb Code    12  inv_mpu.o(i.mpu_get_fifo_config)
    mpu_get_gyro_fsr                         0x08003c41   Thumb Code    64  inv_mpu.o(i.mpu_get_gyro_fsr)
    mpu_get_gyro_sens                        0x08003c85   Thumb Code    58  inv_mpu.o(i.mpu_get_gyro_sens)
    mpu_get_lpf                              0x08003cd5   Thumb Code    74  inv_mpu.o(i.mpu_get_lpf)
    mpu_get_sample_rate                      0x08003d25   Thumb Code    26  inv_mpu.o(i.mpu_get_sample_rate)
    mpu_init                                 0x08003d45   Thumb Code   416  inv_mpu.o(i.mpu_init)
    mpu_load_firmware                        0x08003f35   Thumb Code   180  inv_mpu.o(i.mpu_load_firmware)
    mpu_lp_accel_mode                        0x08003fed   Thumb Code   218  inv_mpu.o(i.mpu_lp_accel_mode)
    mpu_read_fifo_stream                     0x080040cd   Thumb Code   186  inv_mpu.o(i.mpu_read_fifo_stream)
    mpu_read_mem                             0x0800418d   Thumb Code   122  inv_mpu.o(i.mpu_read_mem)
    mpu_reset_fifo                           0x0800420d   Thumb Code   450  inv_mpu.o(i.mpu_reset_fifo)
    mpu_run_self_test                        0x080043d5   Thumb Code   278  inv_mpu.o(i.mpu_run_self_test)
    mpu_set_accel_fsr                        0x080044f1   Thumb Code   126  inv_mpu.o(i.mpu_set_accel_fsr)
    mpu_set_bypass                           0x08004575   Thumb Code   328  inv_mpu.o(i.mpu_set_bypass)
    mpu_set_dmp_state                        0x080046c1   Thumb Code   138  inv_mpu.o(i.mpu_set_dmp_state)
    mpu_set_gyro_fsr                         0x08004751   Thumb Code   132  inv_mpu.o(i.mpu_set_gyro_fsr)
    mpu_set_int_latched                      0x080047d9   Thumb Code   102  inv_mpu.o(i.mpu_set_int_latched)
    mpu_set_lpf                              0x08004845   Thumb Code   126  inv_mpu.o(i.mpu_set_lpf)
    mpu_set_sample_rate                      0x080048c9   Thumb Code   152  inv_mpu.o(i.mpu_set_sample_rate)
    mpu_set_sensors                          0x08004965   Thumb Code   202  inv_mpu.o(i.mpu_set_sensors)
    mpu_write_mem                            0x08004a35   Thumb Code   122  inv_mpu.o(i.mpu_write_mem)
    run_self_test                            0x08004ab5   Thumb Code   148  inv_mpu.o(i.run_self_test)
    sqrt                                     0x08004bd9   Thumb Code    76  sqrt.o(i.sqrt)
    uart_init                                0x08004c25   Thumb Code   152  usart.o(i.uart_init)
    __aeabi_d2f                              0x08004cc5   Thumb Code     0  d2f.o(x$fpl$d2f)
    _d2f                                     0x08004cc5   Thumb Code    98  d2f.o(x$fpl$d2f)
    __aeabi_dadd                             0x08004d29   Thumb Code     0  daddsub_clz.o(x$fpl$dadd)
    _dadd                                    0x08004d29   Thumb Code   332  daddsub_clz.o(x$fpl$dadd)
    __fpl_dcheck_NaN1                        0x08004e79   Thumb Code    10  dcheck1.o(x$fpl$dcheck1)
    __aeabi_ddiv                             0x08004e89   Thumb Code     0  ddiv.o(x$fpl$ddiv)
    _ddiv                                    0x08004e89   Thumb Code   552  ddiv.o(x$fpl$ddiv)
    __aeabi_i2d                              0x08005139   Thumb Code     0  dflt_clz.o(x$fpl$dflt)
    _dflt                                    0x08005139   Thumb Code    46  dflt_clz.o(x$fpl$dflt)
    __aeabi_dmul                             0x08005169   Thumb Code     0  dmul.o(x$fpl$dmul)
    _dmul                                    0x08005169   Thumb Code   332  dmul.o(x$fpl$dmul)
    __fpl_dnaninf                            0x080052bd   Thumb Code   156  dnaninf.o(x$fpl$dnaninf)
    __fpl_dretinf                            0x08005359   Thumb Code    12  dretinf.o(x$fpl$dretinf)
    __aeabi_drsub                            0x08005365   Thumb Code     0  daddsub_clz.o(x$fpl$drsb)
    _drsb                                    0x08005365   Thumb Code    22  daddsub_clz.o(x$fpl$drsb)
    _dsqrt                                   0x0800537d   Thumb Code   456  dsqrt_noumaal.o(x$fpl$dsqrt)
    __aeabi_dsub                             0x08005549   Thumb Code     0  daddsub_clz.o(x$fpl$dsub)
    _dsub                                    0x08005549   Thumb Code   464  daddsub_clz.o(x$fpl$dsub)
    __aeabi_f2d                              0x0800571d   Thumb Code     0  f2d.o(x$fpl$f2d)
    _f2d                                     0x0800571d   Thumb Code    86  f2d.o(x$fpl$f2d)
    __aeabi_fadd                             0x08005775   Thumb Code     0  faddsub_clz.o(x$fpl$fadd)
    _fadd                                    0x08005775   Thumb Code   196  faddsub_clz.o(x$fpl$fadd)
    __fpl_fcmp_Inf                           0x08005839   Thumb Code    24  fcmpi.o(x$fpl$fcmpinf)
    __aeabi_fdiv                             0x08005851   Thumb Code     0  fdiv.o(x$fpl$fdiv)
    _fdiv                                    0x08005851   Thumb Code   384  fdiv.o(x$fpl$fdiv)
    __aeabi_cfcmpeq                          0x080059d5   Thumb Code     0  feqf.o(x$fpl$feqf)
    _fcmpeq                                  0x080059d5   Thumb Code   104  feqf.o(x$fpl$feqf)
    __aeabi_f2iz                             0x08005a3d   Thumb Code     0  ffix.o(x$fpl$ffix)
    _ffix                                    0x08005a3d   Thumb Code    54  ffix.o(x$fpl$ffix)
    __aeabi_f2uiz                            0x08005a75   Thumb Code     0  ffixu.o(x$fpl$ffixu)
    _ffixu                                   0x08005a75   Thumb Code    62  ffixu.o(x$fpl$ffixu)
    __aeabi_i2f                              0x08005ab5   Thumb Code     0  fflt_clz.o(x$fpl$fflt)
    _fflt                                    0x08005ab5   Thumb Code    48  fflt_clz.o(x$fpl$fflt)
    __aeabi_ui2f                             0x08005ae5   Thumb Code     0  fflt_clz.o(x$fpl$ffltu)
    _ffltu                                   0x08005ae5   Thumb Code    38  fflt_clz.o(x$fpl$ffltu)
    __aeabi_cfcmple                          0x08005b0d   Thumb Code     0  fleqf.o(x$fpl$fleqf)
    _fcmple                                  0x08005b0d   Thumb Code   104  fleqf.o(x$fpl$fleqf)
    __fpl_fcmple_InfNaN                      0x08005b5f   Thumb Code     0  fleqf.o(x$fpl$fleqf)
    __aeabi_fmul                             0x08005b75   Thumb Code     0  fmul.o(x$fpl$fmul)
    _fmul                                    0x08005b75   Thumb Code   258  fmul.o(x$fpl$fmul)
    __fpl_fnaninf                            0x08005c77   Thumb Code   140  fnaninf.o(x$fpl$fnaninf)
    __fpl_fretinf                            0x08005d03   Thumb Code    10  fretinf.o(x$fpl$fretinf)
    __aeabi_cfrcmple                         0x08005d0d   Thumb Code     0  frleqf.o(x$fpl$frleqf)
    _frcmple                                 0x08005d0d   Thumb Code    98  frleqf.o(x$fpl$frleqf)
    __aeabi_fsub                             0x08005d71   Thumb Code     0  faddsub_clz.o(x$fpl$fsub)
    _fsub                                    0x08005d71   Thumb Code   234  faddsub_clz.o(x$fpl$fsub)
    __fpl_return_NaN                         0x08005e5b   Thumb Code   100  retnan.o(x$fpl$retnan)
    __ARM_scalbn                             0x08005ebf   Thumb Code    92  scalbn.o(x$fpl$scalbn)
    __fpl_cmpreturn                          0x08005f1b   Thumb Code    48  trapv.o(x$fpl$trapveneer)
    __I$use$fp                               0x08005f4a   Number         0  usenofp.o(x$fpl$usenofp)
    reg                                      0x08005f4c   Data          27  inv_mpu.o(.constdata)
    hw                                       0x08005f68   Data          12  inv_mpu.o(.constdata)
    test                                     0x08005f74   Data          40  inv_mpu.o(.constdata)
    asc2_1206                                0x08006b92   Data        1140  oled.o(.constdata)
    asc2_1608                                0x08007006   Data        1520  oled.o(.constdata)
    asc2_2412                                0x080075f6   Data        3420  oled.o(.constdata)
    Hzk1                                     0x08008352   Data         544  oled.o(.constdata)
    __mathlib_zero                           0x08008670   Data           8  qnan.o(.constdata)
    Region$$Table$$Base                      0x080086c8   Number         0  anon$$obj.o(Region$$Table)
    Region$$Table$$Limit                     0x080086e8   Number         0  anon$$obj.o(Region$$Table)
    pitch                                    0x20000000   Data           4  main.o(.data)
    roll                                     0x20000004   Data           4  main.o(.data)
    yaw                                      0x20000008   Data           4  main.o(.data)
    aacx                                     0x2000000c   Data           2  main.o(.data)
    aacy                                     0x2000000e   Data           2  main.o(.data)
    aacz                                     0x20000010   Data           2  main.o(.data)
    gyrox                                    0x20000012   Data           2  main.o(.data)
    gyroy                                    0x20000014   Data           2  main.o(.data)
    gyroz                                    0x20000016   Data           2  main.o(.data)
    temp                                     0x20000018   Data           2  main.o(.data)
    mpu6050                                  0x2000001a   Data           2  main.o(.data)
    SystemCoreClock                          0x2000001c   Data           4  system_stm32f10x.o(.data)
    AHBPrescTable                            0x20000020   Data          16  system_stm32f10x.o(.data)
    __stdout                                 0x2000006c   Data           4  usart.o(.data)
    USART_RX_STA                             0x20000070   Data           2  usart.o(.data)
    tmp_buf                                  0x20000088   Data          33  main.o(.bss)
    OLED_GRAM                                0x200000bc   Data        1152  oled.o(.bss)
    USART_RX_BUF                             0x2000053c   Data         200  usart.o(.bss)
    __libspace_start                         0x20000604   Data          96  libspace.o(.bss)
    __temporary_stack_top$libspace           0x20000664   Data           0  libspace.o(.bss)



==============================================================================

Memory Map of the image

  Image Entry point : 0x08000191

  Load Region LR_1 (Base: 0x08000000, Size: 0x00008770, Max: 0xffffffff, ABSOLUTE)

    Execution Region ER_RO (Base: 0x08000000, Size: 0x000086e8, Max: 0xffffffff, ABSOLUTE)

    Base Addr    Size         Type   Attr      Idx    E Section Name        Object

    0x08000000   0x000000ec   Data   RO         1220    RESET               startup_stm32f10x_md.o
    0x080000ec   0x00000008   Code   RO         1849  * !!!main             c_w.l(__main.o)
    0x080000f4   0x00000034   Code   RO         2175    !!!scatter          c_w.l(__scatter.o)
    0x08000128   0x0000001a   Code   RO         2177    !!handler_copy      c_w.l(__scatter_copy.o)
    0x08000142   0x00000002   PAD
    0x08000144   0x0000001c   Code   RO         2179    !!handler_zi        c_w.l(__scatter_zi.o)
    0x08000160   0x00000000   Code   RO         1842    .ARM.Collect$$_printf_percent$$00000000  c_w.l(_printf_percent.o)
    0x08000160   0x00000006   Code   RO         1841    .ARM.Collect$$_printf_percent$$00000009  c_w.l(_printf_d.o)
    0x08000166   0x00000004   Code   RO         1938    .ARM.Collect$$_printf_percent$$00000017  c_w.l(_printf_percent_end.o)
    0x0800016a   0x00000002   Code   RO         2043    .ARM.Collect$$libinit$$00000000  c_w.l(libinit.o)
    0x0800016c   0x00000000   Code   RO         2055    .ARM.Collect$$libinit$$00000002  c_w.l(libinit2.o)
    0x0800016c   0x00000000   Code   RO         2057    .ARM.Collect$$libinit$$00000004  c_w.l(libinit2.o)
    0x0800016c   0x00000000   Code   RO         2060    .ARM.Collect$$libinit$$0000000A  c_w.l(libinit2.o)
    0x0800016c   0x00000000   Code   RO         2062    .ARM.Collect$$libinit$$0000000C  c_w.l(libinit2.o)
    0x0800016c   0x00000000   Code   RO         2064    .ARM.Collect$$libinit$$0000000E  c_w.l(libinit2.o)
    0x0800016c   0x00000000   Code   RO         2067    .ARM.Collect$$libinit$$00000011  c_w.l(libinit2.o)
    0x0800016c   0x00000000   Code   RO         2069    .ARM.Collect$$libinit$$00000013  c_w.l(libinit2.o)
    0x0800016c   0x00000000   Code   RO         2071    .ARM.Collect$$libinit$$00000015  c_w.l(libinit2.o)
    0x0800016c   0x00000000   Code   RO         2073    .ARM.Collect$$libinit$$00000017  c_w.l(libinit2.o)
    0x0800016c   0x00000000   Code   RO         2075    .ARM.Collect$$libinit$$00000019  c_w.l(libinit2.o)
    0x0800016c   0x00000000   Code   RO         2077    .ARM.Collect$$libinit$$0000001B  c_w.l(libinit2.o)
    0x0800016c   0x00000000   Code   RO         2079    .ARM.Collect$$libinit$$0000001D  c_w.l(libinit2.o)
    0x0800016c   0x00000000   Code   RO         2081    .ARM.Collect$$libinit$$0000001F  c_w.l(libinit2.o)
    0x0800016c   0x00000000   Code   RO         2083    .ARM.Collect$$libinit$$00000021  c_w.l(libinit2.o)
    0x0800016c   0x00000000   Code   RO         2085    .ARM.Collect$$libinit$$00000023  c_w.l(libinit2.o)
    0x0800016c   0x00000000   Code   RO         2087    .ARM.Collect$$libinit$$00000025  c_w.l(libinit2.o)
    0x0800016c   0x00000000   Code   RO         2091    .ARM.Collect$$libinit$$0000002C  c_w.l(libinit2.o)
    0x0800016c   0x00000000   Code   RO         2093    .ARM.Collect$$libinit$$0000002E  c_w.l(libinit2.o)
    0x0800016c   0x00000000   Code   RO         2095    .ARM.Collect$$libinit$$00000030  c_w.l(libinit2.o)
    0x0800016c   0x00000000   Code   RO         2097    .ARM.Collect$$libinit$$00000032  c_w.l(libinit2.o)
    0x0800016c   0x00000002   Code   RO         2098    .ARM.Collect$$libinit$$00000033  c_w.l(libinit2.o)
    0x0800016e   0x00000002   Code   RO         2128    .ARM.Collect$$libshutdown$$00000000  c_w.l(libshutdown.o)
    0x08000170   0x00000000   Code   RO         2143    .ARM.Collect$$libshutdown$$00000003  c_w.l(libshutdown2.o)
    0x08000170   0x00000000   Code   RO         2146    .ARM.Collect$$libshutdown$$00000006  c_w.l(libshutdown2.o)
    0x08000170   0x00000000   Code   RO         2149    .ARM.Collect$$libshutdown$$00000009  c_w.l(libshutdown2.o)
    0x08000170   0x00000000   Code   RO         2151    .ARM.Collect$$libshutdown$$0000000B  c_w.l(libshutdown2.o)
    0x08000170   0x00000000   Code   RO         2154    .ARM.Collect$$libshutdown$$0000000E  c_w.l(libshutdown2.o)
    0x08000170   0x00000002   Code   RO         2155    .ARM.Collect$$libshutdown$$0000000F  c_w.l(libshutdown2.o)
    0x08000172   0x00000000   Code   RO         1925    .ARM.Collect$$rtentry$$00000000  c_w.l(__rtentry.o)
    0x08000172   0x00000000   Code   RO         1992    .ARM.Collect$$rtentry$$00000002  c_w.l(__rtentry2.o)
    0x08000172   0x00000006   Code   RO         2004    .ARM.Collect$$rtentry$$00000004  c_w.l(__rtentry4.o)
    0x08000178   0x00000000   Code   RO         1994    .ARM.Collect$$rtentry$$00000009  c_w.l(__rtentry2.o)
    0x08000178   0x00000004   Code   RO         1995    .ARM.Collect$$rtentry$$0000000A  c_w.l(__rtentry2.o)
    0x0800017c   0x00000000   Code   RO         1997    .ARM.Collect$$rtentry$$0000000C  c_w.l(__rtentry2.o)
    0x0800017c   0x00000008   Code   RO         1998    .ARM.Collect$$rtentry$$0000000D  c_w.l(__rtentry2.o)
    0x08000184   0x00000002   Code   RO         2048    .ARM.Collect$$rtexit$$00000000  c_w.l(rtexit.o)
    0x08000186   0x00000000   Code   RO         2102    .ARM.Collect$$rtexit$$00000002  c_w.l(rtexit2.o)
    0x08000186   0x00000004   Code   RO         2103    .ARM.Collect$$rtexit$$00000003  c_w.l(rtexit2.o)
    0x0800018a   0x00000006   Code   RO         2104    .ARM.Collect$$rtexit$$00000004  c_w.l(rtexit2.o)
    0x08000190   0x00000040   Code   RO         1221  * .text               startup_stm32f10x_md.o
    0x080001d0   0x00000002   Code   RO         1781    .text               c_w.l(use_no_semi_2.o)
    0x080001d2   0x00000048   Code   RO         1783    .text               c_w.l(llsdiv.o)
    0x0800021a   0x00000002   PAD
    0x0800021c   0x00000018   Code   RO         1789    .text               c_w.l(noretval__2printf.o)
    0x08000234   0x00000028   Code   RO         1791    .text               c_w.l(noretval__2sprintf.o)
    0x0800025c   0x00000078   Code   RO         1797    .text               c_w.l(_printf_dec.o)
    0x080002d4   0x00000138   Code   RO         1832    .text               c_w.l(__printf_flags_wp.o)
    0x0800040c   0x00000058   Code   RO         1843    .text               c_w.l(memcmp.o)
    0x08000464   0x00000010   Code   RO         1845    .text               c_w.l(aeabi_memset.o)
    0x08000474   0x00000006   Code   RO         1847    .text               c_w.l(heapauxi.o)
    0x0800047a   0x00000002   Code   RO         1923    .text               c_w.l(use_no_semi.o)
    0x0800047c   0x000000ee   Code   RO         1926    .text               c_w.l(lludivv7m.o)
    0x0800056a   0x00000016   Code   RO         1928    .text               c_w.l(_rserrno.o)
    0x08000580   0x000000b2   Code   RO         1930    .text               c_w.l(_printf_intcommon.o)
    0x08000632   0x00000002   PAD
    0x08000634   0x00000030   Code   RO         1932    .text               c_w.l(_printf_char_common.o)
    0x08000664   0x0000000a   Code   RO         1934    .text               c_w.l(_sputc.o)
    0x0800066e   0x00000002   PAD
    0x08000670   0x00000024   Code   RO         1936    .text               c_w.l(_printf_char_file.o)
    0x08000694   0x00000044   Code   RO         1939    .text               c_w.l(rt_memclr.o)
    0x080006d8   0x00000008   Code   RO         2013    .text               c_w.l(rt_errno_addr_intlibspace.o)
    0x080006e0   0x00000008   Code   RO         2017    .text               c_w.l(ferror.o)
    0x080006e8   0x0000004e   Code   RO         2021    .text               c_w.l(rt_memclr_w.o)
    0x08000736   0x00000002   PAD
    0x08000738   0x00000008   Code   RO         2029    .text               c_w.l(libspace.o)
    0x08000740   0x0000004a   Code   RO         2032    .text               c_w.l(sys_stackheap_outer.o)
    0x0800078a   0x0000000c   Code   RO         2036    .text               c_w.l(exit.o)
    0x08000796   0x00000004   Code   RO          164    i.BusFault_Handler  stm32f10x_it.o
    0x0800079a   0x00000002   PAD
    0x0800079c   0x000002e0   Code   RO            1    i.DATA_Report       main.o
    0x08000a7c   0x00000002   Code   RO          165    i.DebugMon_Handler  stm32f10x_it.o
    0x08000a7e   0x00000116   Code   RO         1267    i.GPIO_Init         stm32f10x_gpio.o
    0x08000b94   0x00000004   Code   RO         1274    i.GPIO_ResetBits    stm32f10x_gpio.o
    0x08000b98   0x00000004   Code   RO         1275    i.GPIO_SetBits      stm32f10x_gpio.o
    0x08000b9c   0x00000004   Code   RO          166    i.HardFault_Handler  stm32f10x_it.o
    0x08000ba0   0x00000028   Code   RO          948    i.I2C_Start         oled.o
    0x08000bc8   0x00000020   Code   RO          949    i.I2C_Stop          oled.o
    0x08000be8   0x00000018   Code   RO          950    i.I2C_WaitAck       oled.o
    0x08000c00   0x00000038   Code   RO          287    i.LED_Init          led.o
    0x08000c38   0x00000050   Code   RO          299    i.MPU_Get_Accelerometer  mpu6050.o
    0x08000c88   0x00000050   Code   RO          300    i.MPU_Get_Gyroscope  mpu6050.o
    0x08000cd8   0x00000068   Code   RO          301    i.MPU_Get_Temperature  mpu6050.o
    0x08000d40   0x0000004c   Code   RO          377    i.MPU_IIC_Ack       mpuiic.o
    0x08000d8c   0x0000000a   Code   RO          378    i.MPU_IIC_Delay     mpuiic.o
    0x08000d96   0x00000002   PAD
    0x08000d98   0x00000034   Code   RO          379    i.MPU_IIC_Init      mpuiic.o
    0x08000dcc   0x0000004c   Code   RO          380    i.MPU_IIC_NAck      mpuiic.o
    0x08000e18   0x0000006c   Code   RO          381    i.MPU_IIC_Read_Byte  mpuiic.o
    0x08000e84   0x0000005c   Code   RO          382    i.MPU_IIC_Send_Byte  mpuiic.o
    0x08000ee0   0x00000048   Code   RO          383    i.MPU_IIC_Start     mpuiic.o
    0x08000f28   0x00000048   Code   RO          384    i.MPU_IIC_Stop      mpuiic.o
    0x08000f70   0x00000064   Code   RO          385    i.MPU_IIC_Wait_Ack  mpuiic.o
    0x08000fd4   0x0000007a   Code   RO          302    i.MPU_Init          mpu6050.o
    0x0800104e   0x00000002   PAD
    0x08001050   0x0000007c   Code   RO            2    i.MPU_Read          main.o
    0x080010cc   0x0000003a   Code   RO          303    i.MPU_Read_Byte     mpu6050.o
    0x08001106   0x00000074   Code   RO          304    i.MPU_Read_Len      mpu6050.o
    0x0800117a   0x00000010   Code   RO          305    i.MPU_Set_Accel_Fsr  mpu6050.o
    0x0800118a   0x00000010   Code   RO          306    i.MPU_Set_Gyro_Fsr  mpu6050.o
    0x0800119a   0x0000003a   Code   RO          307    i.MPU_Set_LPF       mpu6050.o
    0x080011d4   0x0000003a   Code   RO          308    i.MPU_Set_Rate      mpu6050.o
    0x0800120e   0x00000044   Code   RO          309    i.MPU_Write_Byte    mpu6050.o
    0x08001252   0x00000060   Code   RO          310    i.MPU_Write_Len     mpu6050.o
    0x080012b2   0x00000004   Code   RO          167    i.MemManage_Handler  stm32f10x_it.o
    0x080012b6   0x00000002   Code   RO          168    i.NMI_Handler       stm32f10x_it.o
    0x080012b8   0x00000070   Code   RO         1225    i.NVIC_Init         misc.o
    0x08001328   0x00000014   Code   RO         1226    i.NVIC_PriorityGroupConfig  misc.o
    0x0800133c   0x00000030   Code   RO          951    i.OLED_Clear        oled.o
    0x0800136c   0x00000060   Code   RO          952    i.OLED_ClearPoint   oled.o
    0x080013cc   0x0000003c   Code   RO          959    i.OLED_DrawPoint    oled.o
    0x08001408   0x0000011c   Code   RO          960    i.OLED_Init         oled.o
    0x08001524   0x0000004c   Code   RO          962    i.OLED_Refresh      oled.o
    0x08001570   0x000000fc   Code   RO          964    i.OLED_ShowChar     oled.o
    0x0800166c   0x00000042   Code   RO          968    i.OLED_ShowString   oled.o
    0x080016ae   0x00000038   Code   RO          970    i.OLED_WR_Byte      oled.o
    0x080016e6   0x00000002   Code   RO          169    i.PendSV_Handler    stm32f10x_it.o
    0x080016e8   0x00000020   Code   RO         1403    i.RCC_APB2PeriphClockCmd  stm32f10x_rcc.o
    0x08001708   0x000000d4   Code   RO         1411    i.RCC_GetClocksFreq  stm32f10x_rcc.o
    0x080017dc   0x00000002   Code   RO          170    i.SVC_Handler       stm32f10x_it.o
    0x080017de   0x00000002   PAD
    0x080017e0   0x00000104   Code   RO            3    i.SYS_Init          main.o
    0x080018e4   0x0000004c   Code   RO          971    i.Send_Byte         oled.o
    0x08001930   0x00000008   Code   RO          253    i.SetSysClock       system_stm32f10x.o
    0x08001938   0x000000e0   Code   RO          254    i.SetSysClockTo72   system_stm32f10x.o
    0x08001a18   0x00000028   Code   RO         1229    i.SysTick_CLKSourceConfig  misc.o
    0x08001a40   0x00000002   Code   RO          171    i.SysTick_Handler   stm32f10x_it.o
    0x08001a42   0x00000002   PAD
    0x08001a44   0x00000060   Code   RO          256    i.SystemInit        system_stm32f10x.o
    0x08001aa4   0x00000088   Code   RO         1167    i.USART1_IRQHandler  usart.o
    0x08001b2c   0x00000018   Code   RO         1603    i.USART_Cmd         stm32f10x_usart.o
    0x08001b44   0x00000054   Code   RO         1607    i.USART_GetITStatus  stm32f10x_usart.o
    0x08001b98   0x0000004a   Code   RO         1609    i.USART_ITConfig    stm32f10x_usart.o
    0x08001be2   0x00000002   PAD
    0x08001be4   0x000000d8   Code   RO         1610    i.USART_Init        stm32f10x_usart.o
    0x08001cbc   0x0000000a   Code   RO         1617    i.USART_ReceiveData  stm32f10x_usart.o
    0x08001cc6   0x00000004   Code   RO          172    i.UsageFault_Handler  stm32f10x_it.o
    0x08001cca   0x00000028   Code   RO         1978    i.__ARM_fpclassify  m_ws.l(fpclassify.o)
    0x08001cf2   0x000000aa   Code   RO         1980    i.__kernel_poly     m_ws.l(poly.o)
    0x08001d9c   0x00000006   Code   RO         1965    i.__mathlib_dbl_infnan  m_ws.l(dunder.o)
    0x08001da2   0x00000004   Code   RO         1966    i.__mathlib_dbl_infnan2  m_ws.l(dunder.o)
    0x08001da6   0x0000000c   Code   RO         1967    i.__mathlib_dbl_invalid  m_ws.l(dunder.o)
    0x08001db2   0x00000002   PAD
    0x08001db4   0x00000010   Code   RO         1970    i.__mathlib_dbl_underflow  m_ws.l(dunder.o)
    0x08001dc4   0x0000000e   Code   RO         1830    i._is_digit         c_w.l(__printf_wp.o)
    0x08001dd2   0x00000004   Code   RO         1168    i._sys_exit         usart.o
    0x08001dd6   0x00000002   PAD
    0x08001dd8   0x000000a8   Code   RO          437    i.accel_self_test   inv_mpu.o
    0x08001e80   0x00000270   Code   RO         1906    i.asin              m_ws.l(asin.o)
    0x080020f0   0x00000220   Code   RO         1955    i.atan              m_ws.l(atan.o)
    0x08002310   0x00000180   Code   RO         1916    i.atan2             m_ws.l(atan2.o)
    0x08002490   0x00000064   Code   RO          762    i.decode_gesture    inv_mpu_dmp_motion_driver.o
    0x080024f4   0x00000044   Code   RO         1112    i.delay_init        delay.o
    0x08002538   0x0000004c   Code   RO         1113    i.delay_ms          delay.o
    0x08002584   0x0000004c   Code   RO         1114    i.delay_us          delay.o
    0x080025d0   0x0000003c   Code   RO          763    i.dmp_enable_6x_lp_quat  inv_mpu_dmp_motion_driver.o
    0x0800260c   0x0000021c   Code   RO          764    i.dmp_enable_feature  inv_mpu_dmp_motion_driver.o
    0x08002828   0x00000058   Code   RO          765    i.dmp_enable_gyro_cal  inv_mpu_dmp_motion_driver.o
    0x08002880   0x0000003c   Code   RO          766    i.dmp_enable_lp_quat  inv_mpu_dmp_motion_driver.o
    0x080028bc   0x00000018   Code   RO          771    i.dmp_load_motion_driver_firmware  inv_mpu_dmp_motion_driver.o
    0x080028d4   0x000001cc   Code   RO          772    i.dmp_read_fifo     inv_mpu_dmp_motion_driver.o
    0x08002aa0   0x00000130   Code   RO          775    i.dmp_set_accel_bias  inv_mpu_dmp_motion_driver.o
    0x08002bd0   0x00000070   Code   RO          776    i.dmp_set_fifo_rate  inv_mpu_dmp_motion_driver.o
    0x08002c40   0x00000130   Code   RO          777    i.dmp_set_gyro_bias  inv_mpu_dmp_motion_driver.o
    0x08002d70   0x00000138   Code   RO          779    i.dmp_set_orientation  inv_mpu_dmp_motion_driver.o
    0x08002ea8   0x00000038   Code   RO          782    i.dmp_set_shake_reject_thresh  inv_mpu_dmp_motion_driver.o
    0x08002ee0   0x00000026   Code   RO          783    i.dmp_set_shake_reject_time  inv_mpu_dmp_motion_driver.o
    0x08002f06   0x00000026   Code   RO          784    i.dmp_set_shake_reject_timeout  inv_mpu_dmp_motion_driver.o
    0x08002f2c   0x00000046   Code   RO          785    i.dmp_set_tap_axes  inv_mpu_dmp_motion_driver.o
    0x08002f72   0x00000026   Code   RO          786    i.dmp_set_tap_count  inv_mpu_dmp_motion_driver.o
    0x08002f98   0x000001a0   Code   RO          787    i.dmp_set_tap_thresh  inv_mpu_dmp_motion_driver.o
    0x08003138   0x00000026   Code   RO          788    i.dmp_set_tap_time  inv_mpu_dmp_motion_driver.o
    0x0800315e   0x00000026   Code   RO          789    i.dmp_set_tap_time_multi  inv_mpu_dmp_motion_driver.o
    0x08003184   0x0000001c   Code   RO         1169    i.fputc             usart.o
    0x080031a0   0x000000b4   Code   RO          438    i.get_accel_prod_shift  inv_mpu.o
    0x08003254   0x00000470   Code   RO          439    i.get_st_biases     inv_mpu.o
    0x080036c4   0x00000110   Code   RO          440    i.gyro_self_test    inv_mpu.o
    0x080037d4   0x00000028   Code   RO          441    i.inv_orientation_matrix_to_scalar  inv_mpu.o
    0x080037fc   0x0000004e   Code   RO          442    i.inv_row_2_scale   inv_mpu.o
    0x0800384a   0x00000010   Code   RO            4    i.main              main.o
    0x0800385a   0x00000002   Code   RO          443    i.mget_ms           inv_mpu.o
    0x0800385c   0x00000070   Code   RO          444    i.mpu_configure_fifo  inv_mpu.o
    0x080038cc   0x00000224   Code   RO          445    i.mpu_dmp_get_data  inv_mpu.o
    0x08003af0   0x000000a0   Code   RO          446    i.mpu_dmp_init      inv_mpu.o
    0x08003b90   0x0000004c   Code   RO          447    i.mpu_get_accel_fsr  inv_mpu.o
    0x08003bdc   0x00000054   Code   RO          449    i.mpu_get_accel_sens  inv_mpu.o
    0x08003c30   0x00000010   Code   RO          454    i.mpu_get_fifo_config  inv_mpu.o
    0x08003c40   0x00000044   Code   RO          455    i.mpu_get_gyro_fsr  inv_mpu.o
    0x08003c84   0x00000050   Code   RO          457    i.mpu_get_gyro_sens  inv_mpu.o
    0x08003cd4   0x00000050   Code   RO          459    i.mpu_get_lpf       inv_mpu.o
    0x08003d24   0x00000020   Code   RO          461    i.mpu_get_sample_rate  inv_mpu.o
    0x08003d44   0x000001f0   Code   RO          463    i.mpu_init          inv_mpu.o
    0x08003f34   0x000000b8   Code   RO          464    i.mpu_load_firmware  inv_mpu.o
    0x08003fec   0x000000e0   Code   RO          465    i.mpu_lp_accel_mode  inv_mpu.o
    0x080040cc   0x000000c0   Code   RO          468    i.mpu_read_fifo_stream  inv_mpu.o
    0x0800418c   0x00000080   Code   RO          469    i.mpu_read_mem      inv_mpu.o
    0x0800420c   0x000001c8   Code   RO          472    i.mpu_reset_fifo    inv_mpu.o
    0x080043d4   0x0000011c   Code   RO          473    i.mpu_run_self_test  inv_mpu.o
    0x080044f0   0x00000084   Code   RO          475    i.mpu_set_accel_fsr  inv_mpu.o
    0x08004574   0x0000014c   Code   RO          476    i.mpu_set_bypass    inv_mpu.o
    0x080046c0   0x00000090   Code   RO          478    i.mpu_set_dmp_state  inv_mpu.o
    0x08004750   0x00000088   Code   RO          479    i.mpu_set_gyro_fsr  inv_mpu.o
    0x080047d8   0x0000006c   Code   RO          480    i.mpu_set_int_latched  inv_mpu.o
    0x08004844   0x00000084   Code   RO          482    i.mpu_set_lpf       inv_mpu.o
    0x080048c8   0x0000009c   Code   RO          483    i.mpu_set_sample_rate  inv_mpu.o
    0x08004964   0x000000d0   Code   RO          484    i.mpu_set_sensors   inv_mpu.o
    0x08004a34   0x00000080   Code   RO          485    i.mpu_write_mem     inv_mpu.o
    0x08004ab4   0x00000094   Code   RO          486    i.run_self_test     inv_mpu.o
    0x08004b48   0x00000090   Code   RO          487    i.set_int_enable    inv_mpu.o
    0x08004bd8   0x0000004c   Code   RO         1984    i.sqrt              m_ws.l(sqrt.o)
    0x08004c24   0x000000a0   Code   RO         1170    i.uart_init         usart.o
    0x08004cc4   0x00000062   Code   RO         1851    x$fpl$d2f           fz_ws.l(d2f.o)
    0x08004d26   0x00000002   PAD
    0x08004d28   0x00000150   Code   RO         1853    x$fpl$dadd          fz_ws.l(daddsub_clz.o)
    0x08004e78   0x00000010   Code   RO         2023    x$fpl$dcheck1       fz_ws.l(dcheck1.o)
    0x08004e88   0x000002b0   Code   RO         1860    x$fpl$ddiv          fz_ws.l(ddiv.o)
    0x08005138   0x0000002e   Code   RO         1864    x$fpl$dflt          fz_ws.l(dflt_clz.o)
    0x08005166   0x00000002   PAD
    0x08005168   0x00000154   Code   RO         1869    x$fpl$dmul          fz_ws.l(dmul.o)
    0x080052bc   0x0000009c   Code   RO         1941    x$fpl$dnaninf       fz_ws.l(dnaninf.o)
    0x08005358   0x0000000c   Code   RO         1943    x$fpl$dretinf       fz_ws.l(dretinf.o)
    0x08005364   0x00000016   Code   RO         1854    x$fpl$drsb          fz_ws.l(daddsub_clz.o)
    0x0800537a   0x00000002   PAD
    0x0800537c   0x000001cc   Code   RO         2027    x$fpl$dsqrt         fz_ws.l(dsqrt_noumaal.o)
    0x08005548   0x000001d4   Code   RO         1855    x$fpl$dsub          fz_ws.l(daddsub_clz.o)
    0x0800571c   0x00000056   Code   RO         1871    x$fpl$f2d           fz_ws.l(f2d.o)
    0x08005772   0x00000002   PAD
    0x08005774   0x000000c4   Code   RO         1873    x$fpl$fadd          fz_ws.l(faddsub_clz.o)
    0x08005838   0x00000018   Code   RO         1945    x$fpl$fcmpinf       fz_ws.l(fcmpi.o)
    0x08005850   0x00000184   Code   RO         1880    x$fpl$fdiv          fz_ws.l(fdiv.o)
    0x080059d4   0x00000068   Code   RO         1883    x$fpl$feqf          fz_ws.l(feqf.o)
    0x08005a3c   0x00000036   Code   RO         1885    x$fpl$ffix          fz_ws.l(ffix.o)
    0x08005a72   0x00000002   PAD
    0x08005a74   0x0000003e   Code   RO         1889    x$fpl$ffixu         fz_ws.l(ffixu.o)
    0x08005ab2   0x00000002   PAD
    0x08005ab4   0x00000030   Code   RO         1894    x$fpl$fflt          fz_ws.l(fflt_clz.o)
    0x08005ae4   0x00000026   Code   RO         1893    x$fpl$ffltu         fz_ws.l(fflt_clz.o)
    0x08005b0a   0x00000002   PAD
    0x08005b0c   0x00000068   Code   RO         1899    x$fpl$fleqf         fz_ws.l(fleqf.o)
    0x08005b74   0x00000102   Code   RO         1901    x$fpl$fmul          fz_ws.l(fmul.o)
    0x08005c76   0x0000008c   Code   RO         1947    x$fpl$fnaninf       fz_ws.l(fnaninf.o)
    0x08005d02   0x0000000a   Code   RO         1949    x$fpl$fretinf       fz_ws.l(fretinf.o)
    0x08005d0c   0x00000062   Code   RO         1903    x$fpl$frleqf        fz_ws.l(frleqf.o)
    0x08005d6e   0x00000002   PAD
    0x08005d70   0x000000ea   Code   RO         1875    x$fpl$fsub          fz_ws.l(faddsub_clz.o)
    0x08005e5a   0x00000064   Code   RO         2046    x$fpl$retnan        fz_ws.l(retnan.o)
    0x08005ebe   0x0000005c   Code   RO         1951    x$fpl$scalbn        fz_ws.l(scalbn.o)
    0x08005f1a   0x00000030   Code   RO         2099    x$fpl$trapveneer    fz_ws.l(trapv.o)
    0x08005f4a   0x00000000   Code   RO         1953    x$fpl$usenofp       fz_ws.l(usenofp.o)
    0x08005f4a   0x00000002   PAD
    0x08005f4c   0x00000050   Data   RO          489    .constdata          inv_mpu.o
    0x08005f9c   0x00000bf6   Data   RO          791    .constdata          inv_mpu_dmp_motion_driver.o
    0x08006b92   0x000019e0   Data   RO          973    .constdata          oled.o
    0x08008572   0x00000011   Data   RO         1833    .constdata          c_w.l(__printf_flags_wp.o)
    0x08008583   0x00000005   PAD
    0x08008588   0x00000050   Data   RO         1907    .constdata          m_ws.l(asin.o)
    0x080085d8   0x00000098   Data   RO         1956    .constdata          m_ws.l(atan.o)
    0x08008670   0x00000008   Data   RO         1982    .constdata          m_ws.l(qnan.o)
    0x08008678   0x0000004d   Data   RO          490    .conststring        inv_mpu.o
    0x080086c5   0x00000003   PAD
    0x080086c8   0x00000020   Data   RO         2173    Region$$Table       anon$$obj.o


    Execution Region ER_RW (Base: 0x20000000, Size: 0x00000088, Max: 0xffffffff, ABSOLUTE)

    Base Addr    Size         Type   Attr      Idx    E Section Name        Object

    0x20000000   0x0000001c   Data   RW            6    .data               main.o
    0x2000001c   0x00000014   Data   RW          257    .data               system_stm32f10x.o
    0x20000030   0x00000035   Data   RW          491    .data               inv_mpu.o
    0x20000065   0x00000001   PAD
    0x20000066   0x00000004   Data   RW         1115    .data               delay.o
    0x2000006a   0x00000002   PAD
    0x2000006c   0x00000006   Data   RW         1172    .data               usart.o
    0x20000072   0x00000014   Data   RW         1431    .data               stm32f10x_rcc.o


    Execution Region ER_ZI (Base: 0x20000088, Size: 0x00000be0, Max: 0xffffffff, ABSOLUTE)

    Base Addr    Size         Type   Attr      Idx    E Section Name        Object

    0x20000088   0x00000021   Zero   RW            5    .bss                main.o
    0x200000a9   0x00000003   PAD
    0x200000ac   0x00000010   Zero   RW          790    .bss                inv_mpu_dmp_motion_driver.o
    0x200000bc   0x00000480   Zero   RW          972    .bss                oled.o
    0x2000053c   0x000000c8   Zero   RW         1171    .bss                usart.o
    0x20000604   0x00000060   Zero   RW         2030    .bss                c_w.l(libspace.o)
    0x20000664   0x00000004   PAD
    0x20000668   0x00000200   Zero   RW         1219    HEAP                startup_stm32f10x_md.o
    0x20000868   0x00000400   Zero   RW         1218    STACK               startup_stm32f10x_md.o


==============================================================================

Image component sizes


      Code (inc. data)   RO Data    RW Data    ZI Data      Debug   Object Name

       220         26          0          4          0       1983   delay.o
      6864        290        157         53          0      33312   inv_mpu.o
      3096        122       3062          0         16      22010   inv_mpu_dmp_motion_driver.o
        56          6          0          0          0        559   led.o
      1136        346          0         28         33     234902   main.o
       172         22          0          0          0       2337   misc.o
       872         18          0          0          0       8913   mpu6050.o
       658        100          0          0          0       5454   mpuiic.o
      1110         58       6624          0       1152       9475   oled.o
        64         26        236          0       1536        852   startup_stm32f10x_md.o
       286          0          0          0          0       3304   stm32f10x_gpio.o
        26          0          0          0          0       4334   stm32f10x_it.o
       244         26          0         20          0       4149   stm32f10x_rcc.o
       408          6          0          0          0       5362   stm32f10x_usart.o
         0          0          0          0          0         32   sys.o
       328         28          0         20          0       2437   system_stm32f10x.o
       328         26          0          6        200       4516   usart.o

    ----------------------------------------------------------------------
     15882       1100      10114        136       2940     343931   Object Totals
         0          0         32          0          0          0   (incl. Generated)
        14          0          3          5          3          0   (incl. Padding)

    ----------------------------------------------------------------------

      Code (inc. data)   RO Data    RW Data    ZI Data      Debug   Library Member Name

         8          0          0          0          0         68   __main.o
       312          4         17          0          0         92   __printf_flags_wp.o
        14          0          0          0          0         68   __printf_wp.o
         0          0          0          0          0          0   __rtentry.o
        12          0          0          0          0          0   __rtentry2.o
         6          0          0          0          0          0   __rtentry4.o
        52          8          0          0          0          0   __scatter.o
        26          0          0          0          0          0   __scatter_copy.o
        28          0          0          0          0          0   __scatter_zi.o
        48          6          0          0          0         96   _printf_char_common.o
        36          4          0          0          0         80   _printf_char_file.o
         6          0          0          0          0          0   _printf_d.o
       120         16          0          0          0         92   _printf_dec.o
       178          0          0          0          0         88   _printf_intcommon.o
         0          0          0          0          0          0   _printf_percent.o
         4          0          0          0          0          0   _printf_percent_end.o
        22          0          0          0          0        100   _rserrno.o
        10          0          0          0          0         68   _sputc.o
        16          0          0          0          0         68   aeabi_memset.o
        12          0          0          0          0         72   exit.o
         8          0          0          0          0         68   ferror.o
         6          0          0          0          0        152   heapauxi.o
         2          0          0          0          0          0   libinit.o
         2          0          0          0          0          0   libinit2.o
         2          0          0          0          0          0   libshutdown.o
         2          0          0          0          0          0   libshutdown2.o
         8          4          0          0         96         68   libspace.o
        72          0          0          0          0         76   llsdiv.o
       238          0          0          0          0        100   lludivv7m.o
        88          0          0          0          0         76   memcmp.o
        24          4          0          0          0         84   noretval__2printf.o
        40          6          0          0          0         84   noretval__2sprintf.o
         8          4          0          0          0         68   rt_errno_addr_intlibspace.o
        68          0          0          0          0         68   rt_memclr.o
        78          0          0          0          0         80   rt_memclr_w.o
         2          0          0          0          0          0   rtexit.o
        10          0          0          0          0          0   rtexit2.o
        74          0          0          0          0         80   sys_stackheap_outer.o
         2          0          0          0          0         68   use_no_semi.o
         2          0          0          0          0         68   use_no_semi_2.o
        98          4          0          0          0         92   d2f.o
       826         16          0          0          0        348   daddsub_clz.o
        16          4          0          0          0         68   dcheck1.o
       688        140          0          0          0        208   ddiv.o
        46          0          0          0          0         68   dflt_clz.o
       340         12          0          0          0        104   dmul.o
       156          4          0          0          0         92   dnaninf.o
        12          0          0          0          0         68   dretinf.o
       460         56          0          0          0        120   dsqrt_noumaal.o
        86          4          0          0          0         84   f2d.o
       430          8          0          0          0        168   faddsub_clz.o
        24          0          0          0          0         68   fcmpi.o
       388         76          0          0          0         96   fdiv.o
       104          4          0          0          0         84   feqf.o
        54          4          0          0          0         84   ffix.o
        62          4          0          0          0         84   ffixu.o
        86          0          0          0          0        136   fflt_clz.o
       104          4          0          0          0         84   fleqf.o
       258          4          0          0          0         84   fmul.o
       140          4          0          0          0         84   fnaninf.o
        10          0          0          0          0         68   fretinf.o
        98          0          0          0          0         68   frleqf.o
       100          0          0          0          0         68   retnan.o
        92          0          0          0          0         68   scalbn.o
        48          0          0          0          0         68   trapv.o
         0          0          0          0          0          0   usenofp.o
       624         52         80          0          0        168   asin.o
       544         70        152          0          0        124   atan.o
       384         38          0          0          0        144   atan2.o
        38          6          0          0          0        272   dunder.o
        40          0          0          0          0         68   fpclassify.o
       170          0          0          0          0         96   poly.o
         0          0          8          0          0          0   qnan.o
        76          0          0          0          0         84   sqrt.o

    ----------------------------------------------------------------------
      8278        570        262          0        100       5552   Library Totals
        30          0          5          0          4          0   (incl. Padding)

    ----------------------------------------------------------------------

      Code (inc. data)   RO Data    RW Data    ZI Data      Debug   Library Name

      1646         56         17          0         96       2032   c_w.l
      4726        348          0          0          0       2564   fz_ws.l
      1876        166        240          0          0        956   m_ws.l

    ----------------------------------------------------------------------
      8278        570        262          0        100       5552   Library Totals

    ----------------------------------------------------------------------

==============================================================================


      Code (inc. data)   RO Data    RW Data    ZI Data      Debug   

     24160       1670      10376        136       3040     340171   Grand Totals
     24160       1670      10376        136       3040     340171   ELF Image Totals
     24160       1670      10376        136          0          0   ROM Totals

==============================================================================

    Total RO  Size (Code + RO Data)                34536 (  33.73kB)
    Total RW  Size (RW Data + ZI Data)              3176 (   3.10kB)
    Total ROM Size (Code + RO Data + RW Data)      34672 (  33.86kB)

==============================================================================

