:020000040800F2
:10000000C0080020E1090008890200088B020008EE
:100010008F02000893020008970200080000000009
:100020000000000000000000000000009B0200082B
:100030009D020008000000009F020008A1020008C5
:10004000FB090008FB090008FB090008FB09000880
:10005000FB090008FB090008FB090008FB09000870
:10006000FB090008FB090008FB090008FB09000860
:10007000FB090008FB090008FB090008FB09000850
:10008000FB090008FB090008FB090008FB09000840
:10009000FB090008FB090008FB090008FB09000830
:1000A000FB090008FB090008FB090008FB09000820
:1000B000FB090008FB090008FB090008FB09000810
:1000C000FB090008FB090008FB090008FB09000800
:1000D000FB0900082F080008FB080008FB090008BE
:1000E000FB090008FB090008FB090008FB090008E0
:1000F000FB090008FB090008FB090008FB090008D0
:10010000FB090008FB090008FB090008FB090008BF
:10011000FB090008FB090008FB090008FB090008AF
:10012000FB090008FB090008FB090008FB0900089F
:1001300000F002F800F047F80AA090E8000C8244B2
:100140008344AAF10107DA4501D100F03CF8AFF28F
:10015000090EBAE80F0013F0010F18BFFB1A43F0A5
:100160000103184798290000B8290000103A24BF5D
:1001700078C878C1FAD8520724BF30C830C144BF0C
:1001800004680C607047000000230024002500264E
:10019000103A28BF78C1FBD8520728BF30C148BFEA
:1001A0000B607047662902F05D84002070471FB520
:1001B00001F0E0FC04000020002102F049FAE060B8
:1001C0001FBD10B510BD01F0F1FD1146FFF7EFFFA7
:1001D00000F008F801F00FFE03B4FFF7F2FF03BCD4
:1001E00000F0D8FA08B500BF0020009000F068FACF
:1001F0004FF4A06000F014FC4FF4E13000F0D9FAA5
:100200004FF4165000F028FB00F03CF900F060F9C4
:100210001CE0002000F076F900909DF8000050B13D
:10022000642000F08AFA0AA001F0ECF900F0F4F979
:100230000CA001F0E7F900F0C9F9064602F024FA33
:10024000044622460B460CA001F0DCF9E1E7000071
:10025000BDF8D0D05AD6E1BDC7B6C8C7E5C1E30DD9
:100260000A0000005AD6E1BDC7B6C8C7E5C1E3CD54
:10027000EAB3C90D0A000000416E676C653A252E8D
:1002800033660D0A00000000704700BFFEE700BFA4
:10029000FEE700BFFEE700BFFEE77047704770470C
:1002A000704700000CB50020019000906C48006879
:1002B00040F480306A49086000BF6948006800F473
:1002C000003000900198401C0190009818B90198E6
:1002D000B0F5A06FF1D16248006800F4003010B1B1
:1002E0000120009001E0002000900098012843D1F7
:1002F0005C48006840F010005A49086008460068F1
:1003000020F0030008600846006840F00200086022
:10031000534840685249486008464068486008466B
:10032000406840F4806048600846406820F47C10D3
:1003300048600846406840F4E81048600846006895
:1003400040F08070086000BF4548006800F0007011
:100350000028F9D04248406820F003004049486036
:100360000846406840F00200486000BF3C484068D2
:1003700000F00C000828F9D10CBD10B5FFF792FF72
:1003800010BD10B53648006840F0010034490860DF
:1003900008464068344908403149486008460068CA
:1003A000324908402E4908600846006820F4802041
:1003B00008600846406820F4FE0048604FF41F00C3
:1003C0008860FFF7DAFF4FF000602949086010BD30
:1003D00010B5002100200022214B5B6803F00C01C6
:1003E00021B1042906D0082928D107E0214B224C4D
:1003F000236027E01F4B204C236023E0184B5B68F1
:1004000003F47010164B5B6803F48032022303EB95
:10041000904022B9194B4343174C23600DE0104B19
:100420005B6803F4003323B1144B4343124C236045
:1004300003E0104B4343104C236003E00D4B0E4C84
:10044000236000BF00BF064B5B68C3F303130C4C73
:10045000E15C094B1B68CB40074C236010BD0000DA
:1004600000100240002002400000FFF8FFFFF6FEEF
:1004700008ED00E000127A000000002000093D00B5
:100480000400002008B50121482000F053FE202080
:10049000ADF8000010208DF8030003208DF8020055
:1004A0006946094800F08AFB2021074800F033FC28
:1004B0002020ADF800006946044800F07FFB2021B1
:1004C000024800F028FC08BD000C01400018014063
:1004D00008B50121442000F02DFE1C20ADF80000DD
:1004E00048208DF803006946354800F067FB01207D
:1004F000ADF8000028208DF803006946314800F06F
:100500005DFB08BD10B5044614B101202E490870EA
:100510002D480078002837D01021294800F0E1FB51
:1005200078B10821264800F0DCFB50B104212448B2
:1005300000F0D7FB28B10121224800F0D2FB0128AE
:1005400022D10A2000F0F9F800201F49087010217C
:100550001B4800F0C6FB08B9012010BD082118484F
:1005600000F0BFFB08B90220F7E70421144800F0AF
:10057000B8FB08B90320F0E70121124800F0B1FBF5
:1005800001281BD10420E8E710210D4800F0A9FB49
:10059000012813D108210A4800F0A3FB01280DD13E
:1005A0000421074800F09DFB012807D101210548DF
:1005B00000F097FB10B90120034908700020CCE738
:1005C0000018014000080140140000202DE9F0410E
:1005D00000243449B1F9040002F060F907464FF0F5
:1005E0008E4102F07DF806462F4902F06FF905466C
:1005F00002F038F90446204602F050F9BDE8F081D7
:1006000070B50546002404E0285D00F0B7F9601CD1
:10061000C4B2032CF8DB70BD10B52448FFF7F0FF1F
:1006200010BD23490A780978491C214B19702149CA
:1006300088540978552903D000211A461170704753
:100640001B4909780B2900DAF9E71A494978512939
:1006500004D052290AD0532918D10FE01649154A5F
:10066000921C13680B6052684A600FE01349114AEC
:10067000921C13680B6052684A6007E009490D4AF2
:10068000921C13680B6052684A6000BF00BF0021D3
:10069000074A117000BFD2E710B50446204600F0AB
:1006A0006DF910BD36000020000034431600002014
:1006B0003E00002060000020260000202E000020C8
:1006C00010B56FF0040000F0FAF92E4800682E49CA
:1006D000B0FBF1F02D4908700846007800EB4001AE
:1006E000C1EBC0104FF6FF7101EAC0002849088035
:1006F00010BD0146254A12784A434FF0E0235A6163
:1007000000229A611A46126942F001021A6100BF82
:100710004FF0E022106900F001021AB100F48032BB
:10072000002AF5D04FF0E022126922F001024FF0CA
:10073000E0231A6100229A6170470146144A128828
:100740004A434FF0E0235A6100229A611A46126927
:1007500042F001021A6100BF4FF0E022106900F080
:1007600001021AB100F48032002AF5D04FF0E022E5
:10077000126922F001024FF0E0231A6100229A610F
:10078000704700000000002000127A0040000020A6
:1007900042000020014600BF704700BF2C4A12886B
:1007A00002F04002002AF9D0C2B2294B1B1D1A8068
:1007B000704710B586B00446012144F2050000F0F0
:1007C000B9FC4FF40070ADF8140003208DF816004A
:1007D00018208DF8170005A91E4800F0EFF94FF416
:1007E0008060ADF8140004208DF8170005A91948A1
:1007F00000F0E4F901940020ADF80800ADF80A001B
:10080000ADF80C00ADF810000C20ADF80E0001A9F9
:100810000F4800F036FD012240F225510C4800F04F
:10082000C8FD01210A4800F0B8FD06B010BD10B5A2
:1008300040F22551064800F0A1FE38B1044800F00E
:100840001DFEC4B22146024800F014FE10BD000097
:10085000003801400008014010B586B0044601216F
:10086000042000F067FC0121480400F070FC5748A8
:1008700000F0C4FC18208DF817000420ADF8140017
:1008800003208DF8160005A9514800F097F90420BF
:100890008DF817000820ADF8140005A94C4800F0A9
:1008A0008DF901940020ADF810000C20ADF80E0079
:1008B0000020ADF80C00ADF80A00ADF8080001A961
:1008C000424800F0DEFC0121404800F066FD0122B4
:1008D00040F225513D4800F06CFD26208DF80000C7
:1008E00001208DF8030003208DF801008DF802002F
:1008F000684600F09AF806B010BD10B540F22551D8
:10090000324800F03BFE08B340F227712F4800F058
:1009100035FEE0B12F4802780078401C2D4B18704E
:100920002D48815C294800F0A5FD40F22771274839
:1009300000F04EFE2748007828490978884217D1F0
:10094000002240F22771214800F033FD10E040F210
:1009500025511E4800F012FE50B11C49091D09889E
:10096000C8B2FFF75EFE40F22551184800F030FE95
:100970004FF45871154800F02BFE10BD10B5044619
:10098000164801780078401C144A107012484454EC
:10099000012240F227710D4800F00BFD10BD10B58B
:1009A00004460FE020780D2802D1FFF7E7FF08E0AA
:1009B00020780A2802D1FFF7E1FF02E02078FFF754
:1009C000DDFF641C20780028ECD110BD00440040FD
:1009D000000801404A0000205A0100204B0000207E
:1009E0000948804709480047FEE7FEE7FEE7FEE7C3
:1009F000FEE7FEE7FEE7FEE7FEE7FEE704480549FF
:100A0000054A064B704700008303000831010008C7
:100A1000C0020020C0080020C0040020C004002044
:100A200031490143314A1160704770B500210023FC
:100A30000F22C47804B32D4C246804F4E064C4F598
:100A4000E064210AC1F10403CA40447804FA03F1C6
:100A50008478144021430901254C0678A155047877
:100A600004F01F050124AC4005786D11AD0005F1BF
:100A7000E025C5F8004109E0047804F01F050124D1
:100A8000AC401C4D0678761145F8264070BD1A4AD8
:100A90000A400243154B1B1F1A60704739B1134AB5
:100AA000121D12680243114B1B1D1A6006E00F4A0B
:100AB000121D126882430D4B1B1D1A6070470428DB
:100AC00008D14FF0E021096941F004014FF0E02224
:100AD000116107E04FF0E021096921F004014FF0B6
:100AE000E0221161704700000000FA050CED00E003
:100AF00000E400E080E100E080FFFF1F10B5044645
:100B0000CC48844208D10121042000F02DFB0021B3
:100B1000042000F029FB46E0C748844208D10121A7
:100B2000082000F021FB0021082000F01DFB3AE026
:100B3000C248844208D10121102000F015FB002199
:100B4000102000F011FB2EE0BD48844208D10121A5
:100B5000202000F009FB0021202000F005FB22E00E
:100B6000B848844208D10121402000F0FDFA00215C
:100B7000402000F0F9FA16E0B348844208D1012180
:100B8000802000F0F1FA0021802000F0EDFA0AE068
:100B9000AE48844207D10121801500F0E5FA00211A
:100BA000A01500F0E1FA10BD10B50121084600F0D3
:100BB000DBFA0021012000F0D7FA10BD2DE9F04149
:100BC000024600250026002000230024002791F87B
:100BD00003C00CF00F0591F803C00CF0100CBCF131
:100BE000000F03D091F802C04CEA050591F800C04F
:100BF000BCF1000F31D0146800202BE04FF0010C45
:100C00000CFA00F3B1F800C00CEA03069E4220D1B2
:100C100083004FF00F0C0CFA03F7BC4305FA03FCFA
:100C20004CEA040491F803C0BCF1280F06D14FF040
:100C3000010C0CFA00FCC2F814C00AE091F803C0E1
:100C4000BCF1480F05D14FF0010C0CFA00FCC2F8C2
:100C500010C0401C0828D1D31460B1F800C0BCF10A
:100C6000FF0F34DD546800202EE000F1080C4FF037
:100C7000010808FA0CF3B1F800C00CEA03069E4222
:100C800021D183004FF00F0C0CFA03F7BC4305FA97
:100C900003FC4CEA040491F803C0BCF1280F05D111
:100CA00000F1080C08FA0CF8C2F8148091F803C09F
:100CB000BCF1480F07D100F1080C4FF0010808FA09
:100CC0000CF8C2F81080401C0828CED35460BDE850
:100CD000F0814FF6FF710180022181700421C17003
:100CE00070470246002093680B400BB1012000E0E2
:100CF000002070470146886880B270470246002095
:100D0000D3680B400BB1012000E000207047014682
:100D1000C86880B2704701617047416170470AB18D
:100D2000016100E041617047C16070474FF480325B
:100D30000A438261816182618269826970470246E9
:100D40000020434B18684FF68073184040EA0210A9
:100D500008433F4B186070473E49C8617047F0B583
:100D60000A46002300240021002500F00046B6F1C9
:100D7000004F02D1364EF16901E0354E7168C0F383
:100D8000034583B200F44016B6F5401F08D121F0A8
:100D900070612F4E766826F070662D4F7E6012E0EF
:100DA00000F48016B6F5801F06D1032606FA05F476
:100DB000A14341F0706106E0460D360103FA06F6E4
:100DC000B14341F0706122B1460D360103FA06F6D7
:100DD000314300F00046B6F1004F02D11C4EF161E4
:100DE00001E01B4E7160F0BD30B500228B071C0F77
:100DF0000F2303FA04F2164B08338C1053F82430F7
:100E00009343134C08348D1044F8253023468C103E
:100E100053F824308C07240F00FA04F423430C4CBD
:100E200008348D1044F8253030BD0A49DC310860A3
:100E30007047000000080140000C01400010014014
:100E40000014014000180140001C01400020014036
:100E50000000014000002042DF48006840F001002F
:100E6000DD49086008464068DC490840DA494860C6
:100E700008460068DA490840D74908600846006813
:100E800020F4802008600846406820F4FE00486096
:100E90004FF41F0088607047CF49096821F4803102
:100EA000CD4A11601146096821F480211160B0F526
:100EB000803F03D0B0F5802F0ED106E0C649096807
:100EC00041F48031C44A116007E0C349096841F424
:100ED000A021C14A116000E000BF00BF704710B5FB
:100EE00001460022002300204A11012A02D1BA4CF7
:100EF000236806E0022A02D1B74C236A01E0B64C0F
:100F0000636A01F01F02012494401C400CB10120CF
:100F100000E0002010BD38B500200090002400251E
:100F200000BF3120FFF7DBFF05460098401C009012
:100F30000098B0F5A06F01D0002DF2D03120FFF75E
:100F4000CEFF08B1012400E00024204638BD014650
:100F50000020A14A106820F0F80040EAC1001060AB
:100F60007047A04908607047024600209A4B5868B5
:100F700020F47C1042EA01031843974B58607047F5
:100F800098490866704701460020934A506820F04F
:100F900003000843506070478F48406800F00C0021
:100FA0007047014600208C4A506820F0F00008434A
:100FB0005060704701460020874A506820F4E06086
:100FC00008435060704701460020834A506820F46F
:100FD000605040EAC1005060704729B17E4A527AA1
:100FE00002437D4B5A7204E07B4A527A82437A4B29
:100FF0005A7270477B49D83108607047014600201B
:10100000754A506820F44040084350607047002102
:10101000714A20321170704A82F82010012802D0E3
:1010200004280AD104E001216B4A2032117005E046
:101030000521694A2032117000E000BF00BF7047EF
:101040006949086070476449096A0143624A11624C
:101050007047654944390860704730B50021002267
:10106000002400235C4D6D6805F00C0121B10429BA
:1010700005D0082923D105E05C4D056022E05B4DD9
:1010800005601FE0544D6D6805F47012524D6D6897
:1010900005F48034022505EB92421CB9544D5543AA
:1010A00005600BE04C4D6D6805F400351DB1504DE9
:1010B0005543056002E04D4D5543056002E04B4D40
:1010C000056000BF00BF444D6D6805F0F0010909DF
:1010D000484D6B5C0568DD4045603F4D6D6805F42B
:1010E000E061090A434D6B5C4568DD4085603A4D1F
:1010F0006D6805F46051C90A3E4D6B5C4568DD4082
:10110000C560354D6D6805F44041890B3A4D6B5C07
:10111000C568B5FBF3F5056130BD29B12E4A5269AA
:1011200002432D4B5A6104E02B4A526982432A4BF9
:101130005A61704729B1284A92690243264B9A6145
:1011400004E0254A92698243234B9A61704729B192
:10115000214AD2690243204BDA6104E01E4AD26977
:1011600082431D4BDA61704729B11B4AD2680243A2
:10117000194BDA6004E0184AD2688243164BDA60F1
:10118000704729B1144A12690243134B1A6104E0F3
:10119000114A12698243104B1A6170471249403953
:1011A000086070470F49C86470470B49C8717047A1
:1011B0000948406A40F0807007494862704701461C
:1011C0000020054A92680A400AB1012000E0002090
:1011D0007047014988727047001002400000FFF814
:1011E000FFFFF6FE000042428004424200127A00F5
:1011F00000093D004C0000205C00002010B50446B2
:10120000FB48844209D101218803FFF7ADFF00218B
:101210004FF48040FFF7A8FF32E0F648844209D13E
:1012200001214804FFF7ADFF00214FF40030FFF724
:10123000A8FF25E0F048844209D101218804FFF786
:10124000A0FF00214FF48020FFF79BFF18E0EB4840
:10125000844209D10121C804FFF793FF00214FF414
:101260000020FFF78EFF0BE0E548844208D1012102
:101270000805FFF786FF00214FF48010FFF781FF7C
:1012800010BD2DE9F04786B005460E460024A24663
:1012900000BFA1460027B08900B100BF2F462C8AAD
:1012A0004CF6FF700440F08804432C82AC894EF663
:1012B000F3100440B088318908437189084304431E
:1012C000AC81AC8A4FF6FF400440B0890443AC8245
:1012D00001A8FFF7C2FEC648874202D1DDF810A080
:1012E00001E0DDF80CA0A88900F4004040B10AEB51
:1012F000CA0000EB0A1031684900B0FBF1F807E0C2
:101300000AEBCA0000EB0A1031688900B0FBF1F863
:101310006420B8FBF0F004012009642101FB10896E
:10132000A88900F4004040B1322000EBC900B0FBB6
:10133000F1F000F00700044308E0322000EB091050
:101340006421B0FBF1F000F00F0004432C8106B0E3
:10135000BDE8F0874FF41651016000218180C18003
:1013600001810C21418100218181704710B5024625
:101370000020108A4FF2FF0318400B884C8823434B
:101380008C882343CC8823431843108210BD00214E
:10139000018041808180C180704721B1828942F4FF
:1013A0000052828104E082894DF6FF731A408281E7
:1013B0007047F0B50346002400260025002040F6C3
:1013C0006A17B94200D100BF1846C1F3421401F0B8
:1013D0001F06012707FA06F5012C01D10C3004E0A5
:1013E000022C01D1103000E014301AB107682F43ED
:1013F000076002E00768AF430760F0BD1AB1838A57
:101400000B43838202E0838A8B4383827047028A84
:101410004FF6F0731A400282028A0A430282704732
:1014200082894FF2FF731A40828182890A43828146
:10143000704721B1828942F00202828104E08289F0
:101440004FF6FD731A4082817047028A4FF6DF73B0
:101450001A400282028A0A430282704721B1028A3C
:1014600042F48042028204E0028A4BF6FF731A4083
:1014700002827047C1F30802828070470146888863
:10148000C0F308007047818941F0010181817047F4
:10149000028BD2B20283028B42EA0122028370479E
:1014A000028B02F47F420283028B0A43028370475D
:1014B00021B1828A42F02002828204E0828A4FF6C1
:1014C000DF731A408282704721B1828A42F0100293
:1014D000828204E0828A4FF6EF731A40828270475C
:1014E00021B1828A42F00802828204E0828A4FF6A9
:1014F000F7731A408282704721B1828942F4004218
:10150000828103E08289C2F30E028281704721B199
:10151000828A42F40062828204E0828A4FF2FF7380
:101520001A4082827047828A4FF6FB731A40828289
:10153000828A0A438282704721B1828A42F0020283
:10154000828204E0828A4FF6FD731A4082827047DD
:1015500002460020B1F5007F00D100BF13880B4088
:101560000BB1012000E00020704701F40072B2F5D9
:10157000007F00D100BFCA430280704770B50246A9
:10158000002400230025002040F66A16B14200D155
:1015900000BFC1F3421501F01F03012606FA03F351
:1015A000012D02D19689334006E0022D02D1168A20
:1015B000334001E0968A33400C12012606FA04F407
:1015C0001688344013B10CB1012000E0002070BD3A
:1015D00010B50022002340F66A14A14200D100BFDA
:1015E0000A1201249440A3B2DC43048010BD000021
:1015F000003801400044004000480040004C0040DA
:10160000005000400FB4044910B503AA029800F03E
:101610009FFA10BC5DF814FB440000202DE9F04750
:101620004FF0000A89460446C0F820A02046E16831
:101630008847002876D0252806D0D4E90121904794
:10164000206A401C2062F1E7E168204600258847B7
:10165000C4F81CA006460027C4F818A02A2E09D0FA
:10166000304600F0EDFF38B304EB8708303EC8F891
:10167000186019E059F8041B204604EB87029161B9
:10168000E1688847012F064618D1E069002820DA72
:1016900025F020051DE0D8F8180000EB800006EBCF
:1016A00040003038C8F818002046E16888470646F0
:1016B00000F0C6FF0028EED1012F0AD02E2E08D14F
:1016C0002046E16888477F1C0646022F45F020052A
:1016D000C4DBA069002803DA404245F00105A0619F
:1016E000E80701D025F01005B6B1A6F14100192890
:1016F00002D8203645F400654A463146204625602A
:101700004D46FEF74FFD58B1012806D0ED1D25F0DE
:10171000070000F1080989E704E005F1040985E7FD
:1017200030468AE7206ABDE8F08770477047704707
:1017300070472DE9FF4F0C461E464FF0FF378BB028
:10174000D2E90001DDF860800A908A46C1F30A55AB
:1017500005B93D46002108464FF00000BAF1000FE0
:1017600000F4400005DA00EB80004FF4400101EA8C
:1017700050004FEA9059B9F1010F00DDB9460A98BF
:1017800050EA4A000ED044F61050A5F2FF3545430A
:101790002F14B8F1000F1ED07542291E1EDDC9F1AD
:1017A00000021CE0B8F1010F4FF0000001D0302121
:1017B00003E0F24305E02154401CB042FBDB30461D
:1017C0000022002121540B99C1F80880C1E90020B2
:1017D0000FB0BDE8F08FBD1B6D1CDEE74A4600DA96
:1017E000694206A800F068FA06AB93E8070003AB6D
:1017F00083E8070050460A9900F046FB8DE8070091
:10180000A0F500501F3800900398002D0ADD42F229
:101810001F014A460844002303A90390684600F0CC
:10182000AFFD09E0A0F500504A461F38002303A988
:101830000390684600F0B9FD8DE807000004000C35
:1018400003D04FF0FF30410800E01046B8F1000F20
:1018500003D00022009215461EE0751E05D400F04C
:101860008DF9303262556D1EF9D5B3460122084319
:1018700002D000227F1C04E02078302801D1002211
:101880007F1E002A099784D01DE0112D07DA00F091
:1018900075F9303262556D1C50EA0102F5D10843EA
:1018A00002D00098C8B10EE00021681E05E0235C5C
:1018B000625C63542254401E491C8142F7DBAB46F4
:1018C000A81B401E0990002004F80B000B98099AF1
:1018D000C0F80880C0E9002B7AE711264FF0000815
:1018E00057E72DE9F04F88460446D21D22F0070144
:1018F00091B0D1E90001CDE90A0100F08DFE024668
:101900000B98C00F01D02D2007E02068810701D57A
:101910002B2002E0202101EAC000032A099001D017
:10192000072A05DB03464146204600F085F90BE116
:101930002078800601D5E06900E00620B8F1650F47
:10194000814606D0B8F1660F18D0B8F1670F70D194
:1019500031E00020B9F1110F009001DB112301E00B
:1019600009F101030AAA01A90CA8FFF7E2FEDDE9CB
:101970000C70002609F10105834647E001204B4623
:1019800000904FF000470AAA01A90CA8FFF7D1FE6A
:10199000DDE90DB00C995D46002610B909F1010092
:1019A0000D18B9EB050003D4C0F1FF3609F10105AC
:1019B000A5EB09002BE0B9F1010F01DA4FF00109A5
:1019C0000020B9F1110F0090484601DD112300E01D
:1019D00003460AAA01A90CA8FFF7ABFEDDE90C70CB
:1019E0004D4600268346207800070AD4AB4500DA2E
:1019F0005D4601A8012D04DD411911F8011C3029B3
:101A000007D04F4502DA17F1040F04DA01208246AD
:101A10000FE06D1EEEE7002F02DCED1B3E4403E0FD
:101A2000781CA84200DD7D1CB81B00F1010A4FF0B4
:101A300000472078000703D4AA4501DB4FF0FF3AA6
:101A40000021B7F1004F0DF143088DF8431024D069
:101A500002202B23002F01DA7F422D230A21021EB0
:101A6000A0F1010000DC5FB197FBF1FC97FBF1F204
:101A700001FB1C7C17460CF1300C08F801CDEEE799
:101A8000A8F1010003702188090501D5452100E076
:101A90006521A0F1010800F8011C09980FA9A1EB2C
:101AA0000807FF1D00B10120411901EBEA70A1698F
:101AB0003844081A401EA0612078C00602D420468F
:101AC000AFF30080099828B1D4E901219047206A3A
:101AD000401C20622078C00622D52046AFF300804B
:101AE0001EE0002E04DBB34502DD01A8805D00E0AE
:101AF0003020D4E901219047206A401C2062761CE6
:101B0000AAF101005FEA000A0AD100F033F8C068C8
:101B10000168405CD4E901219047206A401C2062A2
:101B2000281EA5F10105DCDC07E0D4E9012118F845
:101B3000010B9047206A401C2062381EA7F1010764
:101B4000F3DC2046AFF30080032011B041E6000033
:101B5000074B70B50D467B4400F05BF80446284601
:101B600000F01CF910B14FF0FF3070BD204670BD81
:101B700041ECFFFF004870477C02002030B5B0F117
:101B80000A024FEA900E71F100034EEA817EB0EB3B
:101B90000E0061EB91014FEA101E4EEA017E10EB40
:101BA0000E0041EB11114FEA102E4EEA016E10EBC0
:101BB0000E0041EB11214FEA104E4EEA014E10EBA0
:101BC0000E0041EB1141401841F100014FEAD000F5
:101BD00040EA41704FEAD10110EB80054FEA8104E1
:101BE00044EA907444EB01046D1944EB0404521B65
:101BF000A3414FF0000348BF0A3200D530BD401C5E
:101C000041F1000130BD000001694A1C0261087801
:101C1000704700B58FB0CDE901310021059105492C
:101C20007944CDE9031011466846FFF7F7FC0FB081
:101C300000BD0000E5FFFFFF2DE9F0411F4604460F
:101C400003260168072A01F4006004DB08B116A529
:101C500005E016A503E008B115A500E015A521F0E3
:101C600010002060A069C01EA0610FB1401EA061DD
:101C70002046AFF300804FB1D4E9012138469047A8
:101C8000206A401C2062C01C206206E0206AFAE73D
:101C9000D4E9012115F8010B9047761EF8D22046B1
:101CA000AFF30080BDE8F0814E414E006E616E00E2
:101CB000494E4600696E66002DE9F047814616469A
:101CC0008AB0354878440DC88DE80D003248784414
:101CD000801C03AC0DC884E80D0041F69B3008441D
:101CE000372190FBF1F290FBF1F5A5F1800501FBA6
:101CF00012041B3C02D56442012000E00020DFF802
:101D000098A080460027FA44AAF1BE0A0EE0E00738
:101D10000AD03246684607EB470101230AEB8101EE
:101D200000F043FB8DE8070064107F1C002CEED10F
:101D3000194F7F44AE3F19E0E80715D007EB0410B8
:101D40000DF1180A90E80E008AE80E00C068F04213
:101D500001D1981908903246012306A903A800F082
:101D600024FB03AB83E807006D10641C002DE3D156
:101D70004FF0010332466946B8F1000F03A802D0C4
:101D800000F0FEFA01E000F010FBC9E90001C9F81B
:101D900008200AB0BDE8F0871C0E0000007B00F0B0
:101DA00080007047004870475C0200207546FFF7CE
:101DB000F9FFAE4605006946534620F00700854608
:101DC00018B020B5FEF71AFEBDE820404FF000061F
:101DD0004FF000074FF000084FF0000B21F0070113
:101DE000AC46ACE8C009ACE8C009ACE8C009ACE856
:101DF000C0098D46704710B50446AFF300802046F9
:101E0000BDE81040FEF7E8B94FF0013C50F8042B54
:101E100051F8043B9A4221D1A2EB0C03934313EAFD
:101E2000CC1317D150F8042B51F8043B9A4215D12A
:101E3000A2EB0C03934313EACC130BD150F8042B01
:101E400051F8043B9A4209D1A2EB0C03934313EAE5
:101E5000CC13DBD04FF00000704700BFD01A01BA9E
:101E6000B1FA81F101F0180122FA01F0CB40C1F181
:101E70002001DBB2C0B2C01A2CFA01F3D11A91438F
:101E800011EAC311E6D170475FEA400C08BF91F038
:101E9000000F4FEA8C234FEAC12243EA51514FEA27
:101EA0001C5018BF00F5F0404FEA300018BF41F059
:101EB00000415FEA6C5C00F02980BCF1FF3F08BF85
:101EC00040F080407047130C06BF12044FF0100C16
:101ED0004FF0000C130E04BF12020CF1080C130F8C
:101EE00004BF12010CF1040C930F04BF92000CF11B
:101EF000020CD30F04BF52000CF1010C11464FF03D
:101F00000002A0F11F00A0EB0C00704711F0004F81
:101F100008BF704731F000413FF4D5AF0B0C06BF4E
:101F200009044FF0100C4FF0000C0B0E04BF090217
:101F30000CF1080C0B0F04BF09010CF1040C8B0F02
:101F400004BF89000CF1020CCB0F04BF49000CF157
:101F5000010CCCF12003A0EB0C0022FA03F302FAEF
:101F60000CF241EA030100F10100704720F07F4CC0
:101F700080EA030023F07F47ACEB070303F57C53B3
:101F800000F0004003F1FF032DE980494FEA154BB3
:101F900009B44FEA144325EA0B4E24EA03480FF232
:101FA000042606EB132749083E785FEA320203FB5A
:101FB0000667C7F5000707FB06F64FEA54374FEAF6
:101FC000D64606F1020607FB066CCCF1005C4FEA30
:101FD0001C472CEA074C07FB06F40CFB06F504EB48
:101FE00015464FEA961634BF00204FF000404FEAE6
:101FF000D13706FB07FC4FEA1C4C0CFB0BF7D21B3E
:1020000003FB0CF761EB07010CFB0EF7B0EB07408D
:1020100072EB17420CFB08F734BFA2EB0742B2EB9E
:10202000074261EB17414FEA0C444FEA910706FB68
:1020300007FC4FEA1C4C0CFB0BF7B0EBC74072EBF4
:10204000573203FB0CF734BFA2EBC742B2EBC742D7
:1020500061EB57310CFB0EF7B0EBC70072EB577218
:102060000CFB08F734BFA2EBC702B2EBC70261EB6F
:102070005771039F4FEA816141EA921104EBCC044E
:102080004FEAD1374FEA826206FB07FC42EA901220
:102090004FEA80604FEA1C4C0CFB0BF7D21B03FB92
:1020A0000CF761EB07010CFB0EF7B0EB074072EB8E
:1020B00017420CFB08F734BFA2EB0742B2EB074212
:1020C00061EB17414FEA8C554FEA910704EB9C24D2
:1020D00006FB07FC4FEA1C4C0CFB0BF7B0EBC740B0
:1020E00072EB573203FB0CF734BFA2EBC742B2EBE3
:1020F000C74261EB57310CFB0EF7B0EBC70072EB38
:1021000057720CFB08F734BFA2EBC702B2EBC70251
:1021100061EB577115EB4C254FEA816141EA921151
:102120004FEA82624FEAD13742EA901206FB07FC7F
:1021300044F100044FEA80604FEA1C4C0CFB0BF7A3
:10214000D21B03FB0CF761EB07010CFB0EF7B0EBA6
:10215000074072EB17420CFB08F734BFA2EB0742B3
:10216000B2EB074261EB174115EB1C154FEA8131C9
:1021700041EA92414FEA823242EA90424FEA80308D
:102180004FEA0C7644F1000448EA03434EEA0B4858
:102190004FF0000EB2EB080C71EB030724BF624650
:1021A00039464EEB0E0E4FF0000B001852414941DC
:1021B0004BEB0B0BB2EB080C71EB03077BF1000B45
:1021C00024BF624639464EEB0E0E4FF0000B00184E
:1021D000524149414BEB0B0BB2EB080C71EB03077F
:1021E0007BF1000B24BF624639464EEB0E0E51EADE
:1021F000020718BF46F0010616EB0E7655F10002F5
:1022000054F1000103D5BDE88901BDE80088BDE8AF
:102210008901BDE80048B619524141EB0101A3F123
:102220000103704780807F7E7D7C7B7A797877762A
:1022300076757473727171706F6E6E6D6C6C6B6AA3
:102240006A69686867666665646463636261616041
:10225000605F5F5E5E5D5D5C5C5B5B5A5A595958BE
:102260005857575656555555545453535252525128
:10227000515050504F4F4F4E4E4D4D4D4C4C4C4B7E
:102280004B4B4A4A4A4949494848484747474746C5
:102290004646454545444444444343434342424201
:1022A00042414141002B9C4630D477002BD01CB5D5
:1022B0004FEA370703B44FF010004FF01001BAF1A6
:1022C000000F06D0BCF1000FDCBF40F0080040F06A
:1022D00008014FF000000FBCBDE810400BF1010BEE
:1022E000BBF1010F08BF5FEA170722BF12F101021D
:1022F00011F101014FF0004143F1000300F00040F3
:1023000043EA00007047F9D35708D0E746EA06468B
:1023100013F1400F4FEA16461FDD13F1200FDFBF08
:1023200016430A46002120335B42BED0C3F120078A
:1023300046EA064602FA07F74FEA164646EA070655
:10234000C3F1200722FA03F201FA07F721FA03F199
:102350004FF0000342EA0702A7E746EA020646EA10
:1023600006464FEA164646EA0106BCBF46EA06465E
:10237000360C4FF000034FF000024FF0000194E7DD
:102380002DE9804C9A46934670B491E8380007C80E
:1023900031EA400C48BF34EA430C03D5FFF7E6FDB1
:1023A000FFF780FFF0BCBDE8008C2DE9804C9A4619
:1023B000934670B491E8380007C810F0804F08BF0A
:1023C00013F0804F03D100F005F8FFF76BFFF0BC6E
:1023D000BDE8008C20F07F4780EA030023F07F4CAB
:1023E00007EB0C03A3F57C5300F00040A3F1FE03C0
:1023F00092F0000F00F0B38095F0000F00F07780AE
:102400002DE901494FEA11404FEA144621EA0048FC
:1024100000FB06FC24EA064708FB06F607FB08F863
:1024200000FB07F718EB06484CEB164C4FEA124B33
:1024300018EB07484FEA15464CEB174022EA0B4EC3
:102440000BFB06FC25EA06470EFB06F607FB0EFE15
:102450000BFB07F71EEB064E4CEB164C4FF000063D
:102460001EEB074E4CEB174B18EB0B0840F100002E
:1024700018EB0E0B58EB000840F100008F1A4FF0DC
:1024800000013CBFC943661B14BFB5EB040C00211F
:102490003CBFC943F61B4FEA17444EEA8E0E27EAAB
:1024A00004454FEA1C4704FB07622CEA074C05FB76
:1024B00007F70CFB05F604FB0CFC16EB074642EB9A
:1024C000174216EB0C4642EB1C421BEB060658EB80
:1024D0000202414146EA9E0601D5BDE80189B619CE
:1024E000524141EB0101A3F10103BDE801894FEA2B
:1024F00014454FEA114724EA054621EA074C05FB3B
:1025000007F406FB07F70CFB06F105FB0CFC11EBCF
:10251000074144EB17444FEA124711EB0C4144EBDF
:102520001C4422EA074C05FB07F206FB07F70CFBED
:1025300006F605FB0CFC16EB074642EB174216EBC2
:102540000C4642EB1C456A1854F1000148BF704725
:10255000B619524141EB0101A3F10103704795F017
:10256000000F37D04FEA11424FEA144721EA0246E2
:1025700024EA074C02FB07F106FB07F70CFB06F405
:1025800002FB0CFC14EB074441EB17414FEA1547E3
:1025900014EB0C4441EB1C4125EA074C02FB07F508
:1025A00006FB07F70CFB06F602FB0CFC16EB0746D6
:1025B00045EB174516EB0C4645EB1C42121951F141
:1025C000000148BF7047B619524141EB0101A3F128
:1025D000010370474FEA14454FEA114724EA0546C4
:1025E00021EA074C05FB07F106FB07F70CFB06F297
:1025F0004FF0000605FB0CFC12EB074241EB1741C4
:1026000012EB0C4251EB1C4148BF7047921841EB52
:102610000101A3F101037047490050EAC12018BF2E
:1026200004204A0D18BF40F0010040F2FF72B2EBE7
:10263000515F08BF40F00200012808BF0520704725
:1026400030380A2801D2012070470020704700006E
:1026500010B500290AD00878002807D0054878442A
:10266000FFF7D2FB002801D0002010BD02487844BB
:1026700010BD0000BE040000B60400000808A0F56C
:1026800000114FEA3101704743004FEAD30C4FEA83
:102690003C0C43401FBF40070CF1605113F0FE4F4C
:1026A00070471CF0006F03D100200CF00041704710
:1026B0000CF0004343EA507010B540EACC0000F043
:1026C00086F900BF000000924FEA0001FFF7D6BF75
:1026D0004FF000414FF00000A1F5002170470000CD
:1026E0004FF47F0C1CEAD0121EBF1CEAD11392EAF1
:1026F0000C0F93EA0C0F00F0858090EA010F48BFA1
:1027000042F4807240F4000C41F400002CF07F4150
:1027100020F07F4000B58142A2EB03020FF2081CBB
:10272000ACEB504EC0F100009EF800E04FEA4E0EB8
:1027300000FB0EFC38BF49004FEA2C1C02F5FA02E0
:102740000CFB0EF34FEACE1E4FEA112C4FEAC121CB
:102750000EEB635E42EB22420EFB0CFC4FEA1C5375
:1027600000FB03114FEA112C4FEA01310EFB0CFC68
:102770004FEADC4C00FB0C11C14228BF09184CEB9E
:1027800003335DF804EB10EB410143EBC250B2F5AB
:102790007C0F38BF704729D512F0F00F1CBF00F135
:1027A000C04000F0004070470081828384858687A6
:1027B00088898B8C8D8E8F919293959697999A9C00
:1027C0009D9FA0A2A3A5A7A8AAACAEB0B2B3B5B76F
:1027D000B9BCBEC0C2C5C7C9CCCED1D4D7D9DCDF45
:1027E000E2E6E9ECF0F3F7FAFE0000004FEA400CF5
:1027F0000CF1807CBCF17E4F28BF7047B0F1C04027
:1028000000F02BB990EA010F0CEAD11348BF42F453
:102810008072624538BF634507D213F47F0F16D02C
:1028200080EA010000F00040704710B500F0CFF8DA
:10283000097EFC3E00F005B880EA010000F000408F
:10284000704780EA010000F0004000F006B912F481
:102850007F0F04BF0248704780EA010000F0FDB816
:102860000000C07F41000B0ED3F19E0208D950F446
:1028700000034FEA032323FA02F048BF40427047A7
:1028800010B500F0A4F800BF4992248000207047E2
:102890006FF0004282EA20007047000010F0004113
:1028A00048BF4042B0FA80F310FA03F2C3F19D032F
:1028B0000BD051EAC35101EB1220530638BF7047C9
:1028C00000F1010008BF20F0010070474FF47F0CB9
:1028D0001CEAD0121EBF1CEAD11392EA0C0F93EA35
:1028E0000C0F00F0478090EA010F48BF42F480725D
:1028F0004FF0004C4CEA00204CEA012102EB0302AD
:10290000A0FB0113A2F50002002918BF43F0010348
:102910005B0028BF4FEA330342EB22425FEA132CED
:102920004CEBC2502EBFBCEB436FB2F57C0F70472F
:102930004FEA036CBCF1004F08BF20F00100B2F574
:102940007C0F38BF70470BD582F0FF0212F5803F35
:10295000C8BF704700F1C040D8BF00F000407047CA
:1029600000F5000C5FEA4C0C48BF7047B0F1C04066
:1029700000F073B890EA010F0CEAD11348BF42F49B
:102980008072624538BF634504D280EA010000F0DE
:102990000040704710B500F01AF800BF8900013EF2
:1029A00000F007B800F009B85FEA410C5FEA1C6C60
:1029B00008D080EA010000F050B85FEA400C5FEAFE
:1029C0001C6CF6D14FF00040A0F5800070470EF16E
:1029D000020E2EF0030E5EF8044B244204D44FEA9C
:1029E0004102B2F17F4F11D84FEA4003B3F17F4F5C
:1029F0000CD80ED14FEAD07CB2F17F4F0CEB4C0CCF
:102A00000CF1020C08BF4CEBD17C04E04FF0080C39
:102A100001E04FEAD17C0CEB4C0324FA03F404F000
:102A20000704B4F1040C06D20EEB840CBDE8104090
:102A30004CF0010C6047DFE80CF0070802024FF091
:102A40000040A0F5800010BD0846420018BFD2F13A
:102A5000807288BF00F0004010BDFF2141EAD050D5
:102A6000C0057047FEF73DBF02400000000000A017
:102A70000000000005400000000000C80000000049
:102A80000C4000000000409C0000000019400000C5
:102A90000020BCBE0000000034400000BFC91B8EF7
:102AA00000000004B5400000504BCFD06607E2CFD5
:102AB000010000006C4100003E8251AADFEEA73405
:102AC00001000000D9420000DCB5A0E23A301F97B7
:102AD000FFFFFFFFB4450000FD25A0C8E9A3C14FDB
:102AE000FFFFFFFFFF3F000000000080000000002C
:102AF000FF3F00000000008000000000382B0008AD
:102B000000000020600000006C010008982B000805
:102B10006000002060080000880100081C00000020
:102B200043000000F8FFFFFF0C0000000E00000053
:102B30000F0000002E00000000A24A040000000068
:102B40000000000001020304060708090100FFAAB3
:102B500052FFAA67FFAA60FFAA61FFAA62000000F5
:102B60000000000000000000000000000000000065
:102B70000000000000000000000000000000000055
:102B80000000000000000000010203040102030431
:082B900006070809020406080B
:0400000508000131BD
:00000001FF
