Component: ARM Compiler 5.06 update 6 (build 750) Tool: armlink [4d35ed]

==============================================================================

Section Cross References

    main.o(i.DATA_Report) refers to niming.o(i.mpu6050_send_data) for mpu6050_send_data
    main.o(i.DATA_Report) refers to fmul.o(x$fpl$fmul) for __aeabi_fmul
    main.o(i.DATA_Report) refers to ffix.o(x$fpl$ffix) for __aeabi_f2iz
    main.o(i.DATA_Report) refers to niming.o(i.usart1_report_imu) for usart1_report_imu
    main.o(i.DATA_Report) refers to main.o(.data) for mpu6050
    main.o(i.MPU_Read) refers to inv_mpu.o(i.mpu_dmp_get_data) for mpu_dmp_get_data
    main.o(i.MPU_Read) refers to mpu6050.o(i.MPU_Get_Temperature) for MPU_Get_Temperature
    main.o(i.MPU_Read) refers to mpu6050.o(i.MPU_Get_Accelerometer) for MPU_Get_Accelerometer
    main.o(i.MPU_Read) refers to mpu6050.o(i.MPU_Get_Gyroscope) for MPU_Get_Gyroscope
    main.o(i.MPU_Read) refers to main.o(.data) for yaw
    main.o(i.SYS_Init) refers to misc.o(i.NVIC_PriorityGroupConfig) for NVIC_PriorityGroupConfig
    main.o(i.SYS_Init) refers to delay.o(i.delay_init) for delay_init
    main.o(i.SYS_Init) refers to usart.o(i.uart_init) for uart_init
    main.o(i.SYS_Init) refers to led.o(i.LED_Init) for LED_Init
    main.o(i.SYS_Init) refers to mpu6050.o(i.MPU_Init) for MPU_Init
    main.o(i.SYS_Init) refers to noretval__2printf.o(.text) for __2printf
    main.o(i.SYS_Init) refers to inv_mpu.o(i.mpu_dmp_init) for mpu_dmp_init
    main.o(i.SYS_Init) refers to delay.o(i.delay_ms) for delay_ms
==============================================================================

Removing Unused input sections from the image.

    Removing main.o(.bss), (33 bytes).
    Removing system_stm32f10x.o(i.SystemCoreClockUpdate), (164 bytes).
    Removing inv_mpu.o(i.mpu_get_accel_reg), (116 bytes).
    Removing inv_mpu.o(i.mpu_get_compass_fsr), (8 bytes).
    Removing inv_mpu.o(i.mpu_get_compass_reg), (8 bytes).
    Removing inv_mpu.o(i.mpu_get_compass_sample_rate), (10 bytes).
    Removing inv_mpu.o(i.mpu_get_dmp_state), (20 bytes).
    Removing inv_mpu.o(i.mpu_get_gyro_reg), (116 bytes).
    Removing inv_mpu.o(i.mpu_get_int_status), (68 bytes).
    Removing inv_mpu.o(i.mpu_get_power_state), (28 bytes).
    Removing inv_mpu.o(i.mpu_get_temperature), (160 bytes).
    Removing inv_mpu.o(i.mpu_lp_motion_interrupt), (516 bytes).
    Removing inv_mpu.o(i.mpu_read_fifo), (504 bytes).
    Removing inv_mpu.o(i.mpu_read_reg), (72 bytes).
    Removing inv_mpu.o(i.mpu_reg_dump), (104 bytes).
    Removing inv_mpu.o(i.mpu_set_accel_bias), (384 bytes).
    Removing inv_mpu.o(i.mpu_set_compass_sample_rate), (8 bytes).
    Removing inv_mpu.o(i.mpu_set_int_level), (16 bytes).
==============================================================================

Image Symbol Table

    Local Symbols

    Symbol Name                              Value     Ov Type        Size  Object(Section)

    ../clib/angel/boardlib.s                 0x00000000   Number         0  boardinit1.o ABSOLUTE
    ../clib/angel/boardlib.s                 0x00000000   Number         0  boardinit2.o ABSOLUTE
    ../clib/angel/boardlib.s                 0x00000000   Number         0  boardinit3.o ABSOLUTE
    ../clib/angel/boardlib.s                 0x00000000   Number         0  boardshut.o ABSOLUTE
    ../clib/angel/handlers.s                 0x00000000   Number         0  __scatter_zi.o ABSOLUTE
    ../clib/angel/handlers.s                 0x00000000   Number         0  __scatter_copy.o ABSOLUTE
    ../clib/angel/kernel.s                   0x00000000   Number         0  rtexit2.o ABSOLUTE
    ../clib/angel/kernel.s                   0x00000000   Number         0  __rtentry.o ABSOLUTE
    ../clib/angel/kernel.s                   0x00000000   Number         0  __rtentry2.o ABSOLUTE
    ../clib/angel/kernel.s                   0x00000000   Number         0  rtexit.o ABSOLUTE
    ../clib/angel/kernel.s                   0x00000000   Number         0  __rtentry4.o ABSOLUTE
    ../clib/angel/rt.s                       0x00000000   Number         0  aeabi_ldiv0_sigfpe.o ABSOLUTE
    ../clib/angel/rt.s                       0x00000000   Number         0  rt_div0.o ABSOLUTE
    ../clib/angel/rt.s                       0x00000000   Number         0  aeabi_ldiv0.o ABSOLUTE
    ../clib/angel/rt.s                       0x00000000   Number         0  rt_raise.o ABSOLUTE
    ../clib/angel/rt.s                       0x00000000   Number         0  rt_errno_addr_intlibspace.o ABSOLUTE
    ../clib/angel/rt.s                       0x00000000   Number         0  rt_errno_addr.o ABSOLUTE
    ../clib/angel/scatter.s                  0x00000000   Number         0  __scatter.o ABSOLUTE
    ../clib/angel/startup.s                  0x00000000   Number         0  __main.o ABSOLUTE
    ../clib/angel/sys.s                      0x00000000   Number         0  sys_stackheap_outer.o ABSOLUTE
    ../clib/angel/sys.s                      0x00000000   Number         0  use_no_semi.o ABSOLUTE
    ../clib/angel/sys.s                      0x00000000   Number         0  libspace.o ABSOLUTE
    ../clib/angel/sys.s                      0x00000000   Number         0  indicate_semi.o ABSOLUTE
    ../clib/angel/sys.s                      0x00000000   Number         0  use_no_semi_2.o ABSOLUTE
    ../clib/angel/sysapp.c                   0x00000000   Number         0  sys_command.o ABSOLUTE
    ../clib/angel/sysapp.c                   0x00000000   Number         0  sys_wrch.o ABSOLUTE
    ../clib/armsys.c                         0x00000000   Number         0  argv_veneer.o ABSOLUTE
    ../clib/armsys.c                         0x00000000   Number         0  argv_veneer.o ABSOLUTE
    ../clib/armsys.c                         0x00000000   Number         0  no_argv.o ABSOLUTE
    ../clib/armsys.c                         0x00000000   Number         0  _get_argv_nomalloc.o ABSOLUTE
    ../clib/fenv.c                           0x00000000   Number         0  _rserrno.o ABSOLUTE
    ../clib/heapalloc.c                      0x00000000   Number         0  hrguard.o ABSOLUTE
    ../clib/heapaux.c                        0x00000000   Number         0  heapauxi.o ABSOLUTE
    ../clib/libinit.s                        0x00000000   Number         0  libinit.o ABSOLUTE
    ../clib/libinit.s                        0x00000000   Number         0  libshutdown.o ABSOLUTE
    ../clib/libinit.s                        0x00000000   Number         0  libshutdown2.o ABSOLUTE
    ../clib/libinit.s                        0x00000000   Number         0  libinit2.o ABSOLUTE
    ../clib/longlong.s                       0x00000000   Number         0  lludivv7m.o ABSOLUTE
    ../clib/longlong.s                       0x00000000   Number         0  llsdiv.o ABSOLUTE
    ../clib/memcpset.s                       0x00000000   Number         0  aeabi_memset.o ABSOLUTE
    ../clib/memcpset.s                       0x00000000   Number         0  rt_memclr.o ABSOLUTE
    ../clib/memcpset.s                       0x00000000   Number         0  rt_memclr_w.o ABSOLUTE
    ../clib/misc.s                           0x00000000   Number         0  printf_stubs.o ABSOLUTE
    ../clib/printf.c                         0x00000000   Number         0  __printf_ss_wp.o ABSOLUTE
    ../clib/printf.c                         0x00000000   Number         0  __printf_flags_ss_wp.o ABSOLUTE
    ../clib/printf.c                         0x00000000   Number         0  _printf_hex_int_ll_ptr.o ABSOLUTE
    ../clib/printf.c                         0x00000000   Number         0  _printf_hex_int_ptr.o ABSOLUTE
    ../clib/printf.c                         0x00000000   Number         0  _printf_hex_int_ll.o ABSOLUTE
    ../clib/printf.c                         0x00000000   Number         0  _printf_hex_int.o ABSOLUTE
    ../clib/printf.c                         0x00000000   Number         0  _printf_hex_ll.o ABSOLUTE
    ../clib/printf.c                         0x00000000   Number         0  _printf_dec.o ABSOLUTE
    ../clib/printf.c                         0x00000000   Number         0  _printf_pad.o ABSOLUTE
    ../clib/printf.c                         0x00000000   Number         0  __printf.o ABSOLUTE
    ../clib/printf.c                         0x00000000   Number         0  noretval__2printf.o ABSOLUTE
    ../clib/printf.c                         0x00000000   Number         0  __2printf.o ABSOLUTE
    ../clib/printf.c                         0x00000000   Number         0  _printf_hex_ll_ptr.o ABSOLUTE
    ../clib/printf.c                         0x00000000   Number         0  _printf_hex_ptr.o ABSOLUTE
    ../clib/printf.c                         0x00000000   Number         0  _printf_intcommon.o ABSOLUTE
    ../clib/printf.c                         0x00000000   Number         0  _printf_char_file.o ABSOLUTE
    ../clib/printf.c                         0x00000000   Number         0  _printf_char_common.o ABSOLUTE
    ../clib/printf.c                         0x00000000   Number         0  __printf_nopercent.o ABSOLUTE
    ../clib/printf.c                         0x00000000   Number         0  __printf_flags.o ABSOLUTE
    ../clib/printf.c                         0x00000000   Number         0  __printf_ss.o ABSOLUTE
    ../clib/printf.c                         0x00000000   Number         0  __printf_flags_ss.o ABSOLUTE
    ../clib/printf.c                         0x00000000   Number         0  __printf_wp.o ABSOLUTE
    ../clib/printf.c                         0x00000000   Number         0  __printf_flags_wp.o ABSOLUTE
    ../clib/printf_percent.s                 0x00000000   Number         0  _printf_percent.o ABSOLUTE
    ../clib/printf_percent.s                 0x00000000   Number         0  _printf_x.o ABSOLUTE
    ../clib/printf_percent.s                 0x00000000   Number         0  _printf_d.o ABSOLUTE
    ../clib/printf_percent.s                 0x00000000   Number         0  _printf_percent_end.o ABSOLUTE
    ../clib/signal.c                         0x00000000   Number         0  defsig_rtmem_outer.o ABSOLUTE
    ../clib/signal.c                         0x00000000   Number         0  defsig_general.o ABSOLUTE
    ../clib/signal.c                         0x00000000   Number         0  __raise.o ABSOLUTE
    ../clib/signal.c                         0x00000000   Number         0  defsig_rtmem_inner.o ABSOLUTE
    ../clib/signal.c                         0x00000000   Number         0  defsig_exit.o ABSOLUTE
    ../clib/signal.c                         0x00000000   Number         0  defsig_fpe_inner.o ABSOLUTE
    ../clib/signal.c                         0x00000000   Number         0  defsig_rtmem_formal.o ABSOLUTE
    ../clib/signal.c                         0x00000000   Number         0  defsig_fpe_formal.o ABSOLUTE
    ../clib/signal.c                         0x00000000   Number         0  defsig_fpe_outer.o ABSOLUTE
    ../clib/signal.c                         0x00000000   Number         0  defsig_cppl_inner.o ABSOLUTE
    ../clib/signal.c                         0x00000000   Number         0  defsig_pvfn_inner.o ABSOLUTE
    ../clib/signal.c                         0x00000000   Number         0  defsig_stak_inner.o ABSOLUTE
    ../clib/signal.c                         0x00000000   Number         0  defsig_abrt_inner.o ABSOLUTE
    ../clib/signal.c                         0x00000000   Number         0  defsig_rtred_inner.o ABSOLUTE
    ../clib/signal.c                         0x00000000   Number         0  defsig_segv_inner.o ABSOLUTE
    ../clib/signal.c                         0x00000000   Number         0  defsig_other.o ABSOLUTE
    ../clib/signal.s                         0x00000000   Number         0  defsig.o ABSOLUTE
    ../clib/stdio.c                          0x00000000   Number         0  ferror.o ABSOLUTE
    ../clib/stdio.c                          0x00000000   Number         0  ferror_locked.o ABSOLUTE
    ../clib/stdlib.c                         0x00000000   Number         0  exit.o ABSOLUTE
    ../clib/string.c                         0x00000000   Number         0  memcmp.o ABSOLUTE
    ../fplib/d2f.s                           0x00000000   Number         0  d2f.o ABSOLUTE
    ../fplib/daddsub.s                       0x00000000   Number         0  daddsub_clz.o ABSOLUTE
    ../fplib/dcheck1.s                       0x00000000   Number         0  dcheck1.o ABSOLUTE
    ../fplib/dcmpi.s                         0x00000000   Number         0  dcmpi.o ABSOLUTE
    ../fplib/ddiv.s                          0x00000000   Number         0  ddiv.o ABSOLUTE
    ../fplib/dflt.s                          0x00000000   Number         0  dflt_clz.o ABSOLUTE
    ../fplib/dleqf.s                         0x00000000   Number         0  dleqf.o ABSOLUTE
    ../fplib/dmul.s                          0x00000000   Number         0  dmul.o ABSOLUTE
    ../fplib/dnaninf.s                       0x00000000   Number         0  dnaninf.o ABSOLUTE
    ../fplib/dretinf.s                       0x00000000   Number         0  dretinf.o ABSOLUTE
    ../fplib/dsqrt.s                         0x00000000   Number         0  dsqrt_noumaal.o ABSOLUTE
    ../fplib/f2d.s                           0x00000000   Number         0  f2d.o ABSOLUTE
    ../fplib/faddsub.s                       0x00000000   Number         0  faddsub_clz.o ABSOLUTE
    ../fplib/fcmpi.s                         0x00000000   Number         0  fcmpi.o ABSOLUTE
    ../fplib/fdiv.s                          0x00000000   Number         0  fdiv.o ABSOLUTE
    ../fplib/feqf.s                          0x00000000   Number         0  feqf.o ABSOLUTE
    ../fplib/ffix.s                          0x00000000   Number         0  ffix.o ABSOLUTE
    ../fplib/ffixu.s                         0x00000000   Number         0  ffixu.o ABSOLUTE
    ../fplib/fflt.s                          0x00000000   Number         0  fflt_clz.o ABSOLUTE
    ../fplib/fleqf.s                         0x00000000   Number         0  fleqf.o ABSOLUTE
    ../fplib/fmul.s                          0x00000000   Number         0  fmul.o ABSOLUTE
    ../fplib/fnaninf.s                       0x00000000   Number         0  fnaninf.o ABSOLUTE
    ../fplib/fpinit.s                        0x00000000   Number         0  fpinit.o ABSOLUTE
    ../fplib/fretinf.s                       0x00000000   Number         0  fretinf.o ABSOLUTE
    ../fplib/frleqf.s                        0x00000000   Number         0  frleqf.o ABSOLUTE
    ../fplib/retnan.s                        0x00000000   Number         0  retnan.o ABSOLUTE
    ../fplib/scalbn.s                        0x00000000   Number         0  scalbn.o ABSOLUTE
    ../fplib/trapv.s                         0x00000000   Number         0  trapv.o ABSOLUTE
    ../fplib/usenofp.s                       0x00000000   Number         0  usenofp.o ABSOLUTE
    ../mathlib/asin.c                        0x00000000   Number         0  asin.o ABSOLUTE
    ../mathlib/asin.c                        0x00000000   Number         0  asin_x.o ABSOLUTE
    ../mathlib/atan.c                        0x00000000   Number         0  atan.o ABSOLUTE
    ../mathlib/atan.c                        0x00000000   Number         0  atan_x.o ABSOLUTE
    ../mathlib/atan2.c                       0x00000000   Number         0  atan2.o ABSOLUTE
    ../mathlib/atan2.c                       0x00000000   Number         0  atan2_x.o ABSOLUTE
    ../mathlib/dunder.c                      0x00000000   Number         0  dunder.o ABSOLUTE
    ../mathlib/fpclassify.c                  0x00000000   Number         0  fpclassify.o ABSOLUTE
    ../mathlib/poly.c                        0x00000000   Number         0  poly.o ABSOLUTE
    ../mathlib/qnan.c                        0x00000000   Number         0  qnan.o ABSOLUTE
    ../mathlib/sqrt.c                        0x00000000   Number         0  sqrt.o ABSOLUTE
    ../mathlib/sqrt.c                        0x00000000   Number         0  sqrt_x.o ABSOLUTE
    ..\CORE\core_cm3.c                       0x00000000   Number         0  core_cm3.o ABSOLUTE
    ..\CORE\startup_stm32f10x_hd.s           0x00000000   Number         0  startup_stm32f10x_hd.o ABSOLUTE
    ..\HARDWARE\LED\led.c                    0x00000000   Number         0  led.o ABSOLUTE
    ..\HARDWARE\MPU6050\eMPL\inv_mpu.c       0x00000000   Number         0  inv_mpu.o ABSOLUTE
    ..\HARDWARE\MPU6050\eMPL\inv_mpu_dmp_motion_driver.c 0x00000000   Number         0  inv_mpu_dmp_motion_driver.o ABSOLUTE
    ..\HARDWARE\MPU6050\mpu6050.c            0x00000000   Number         0  mpu6050.o ABSOLUTE
    ..\HARDWARE\MPU6050\mpuiic.c             0x00000000   Number         0  mpuiic.o ABSOLUTE
    ..\HARDWARE\MPU6050\niming.c             0x00000000   Number         0  niming.o ABSOLUTE
    ..\STM32F10x_FWLib\src\misc.c            0x00000000   Number         0  misc.o ABSOLUTE
    ..\STM32F10x_FWLib\src\stm32f10x_dbgmcu.c 0x00000000   Number         0  stm32f10x_dbgmcu.o ABSOLUTE
    ..\STM32F10x_FWLib\src\stm32f10x_gpio.c  0x00000000   Number         0  stm32f10x_gpio.o ABSOLUTE
    ..\STM32F10x_FWLib\src\stm32f10x_rcc.c   0x00000000   Number         0  stm32f10x_rcc.o ABSOLUTE
    ..\STM32F10x_FWLib\src\stm32f10x_usart.c 0x00000000   Number         0  stm32f10x_usart.o ABSOLUTE
    ..\SYSTEM\delay\delay.c                  0x00000000   Number         0  delay.o ABSOLUTE
    ..\SYSTEM\sys\sys.c                      0x00000000   Number         0  sys.o ABSOLUTE
    ..\SYSTEM\usart\usart.c                  0x00000000   Number         0  usart.o ABSOLUTE
    ..\\CORE\\core_cm3.c                     0x00000000   Number         0  core_cm3.o ABSOLUTE
    ..\\SYSTEM\\sys\\sys.c                   0x00000000   Number         0  sys.o ABSOLUTE
    dc.s                                     0x00000000   Number         0  dc.o ABSOLUTE
    main.c                                   0x00000000   Number         0  main.o ABSOLUTE
    stm32f10x_it.c                           0x00000000   Number         0  stm32f10x_it.o ABSOLUTE
    system_stm32f10x.c                       0x00000000   Number         0  system_stm32f10x.o ABSOLUTE
    RESET                                    0x08000000   Section      304  startup_stm32f10x_hd.o(RESET)
    !!!main                                  0x08000130   Section        8  __main.o(!!!main)
    !!!scatter                               0x08000138   Section       52  __scatter.o(!!!scatter)
    !!handler_copy                           0x0800016c   Section       26  __scatter_copy.o(!!handler_copy)
    !!handler_zi                             0x08000188   Section       28  __scatter_zi.o(!!handler_zi)
    .ARM.Collect$$_printf_percent$$00000000  0x080001a4   Section        0  _printf_percent.o(.ARM.Collect$$_printf_percent$$00000000)
    .ARM.Collect$$_printf_percent$$00000009  0x080001a4   Section        6  _printf_d.o(.ARM.Collect$$_printf_percent$$00000009)
    .ARM.Collect$$_printf_percent$$00000017  0x080001aa   Section        4  _printf_percent_end.o(.ARM.Collect$$_printf_percent$$00000017)
    .ARM.Collect$$libinit$$00000000          0x080001ae   Section        2  libinit.o(.ARM.Collect$$libinit$$00000000)
    .ARM.Collect$$libinit$$00000002          0x080001b0   Section        0  libinit2.o(.ARM.Collect$$libinit$$00000002)
    .ARM.Collect$$libinit$$00000004          0x080001b0   Section        0  libinit2.o(.ARM.Collect$$libinit$$00000004)
    .ARM.Collect$$libinit$$0000000A          0x080001b0   Section        0  libinit2.o(.ARM.Collect$$libinit$$0000000A)
    .ARM.Collect$$libinit$$0000000C          0x080001b0   Section        0  libinit2.o(.ARM.Collect$$libinit$$0000000C)
    .ARM.Collect$$libinit$$0000000E          0x080001b0   Section        0  libinit2.o(.ARM.Collect$$libinit$$0000000E)
    .ARM.Collect$$libinit$$00000011          0x080001b0   Section        0  libinit2.o(.ARM.Collect$$libinit$$00000011)
    .ARM.Collect$$libinit$$00000013          0x080001b0   Section        0  libinit2.o(.ARM.Collect$$libinit$$00000013)
    .ARM.Collect$$libinit$$00000015          0x080001b0   Section        0  libinit2.o(.ARM.Collect$$libinit$$00000015)
    .ARM.Collect$$libinit$$00000017          0x080001b0   Section        0  libinit2.o(.ARM.Collect$$libinit$$00000017)
    .ARM.Collect$$libinit$$00000019          0x080001b0   Section        0  libinit2.o(.ARM.Collect$$libinit$$00000019)
    .ARM.Collect$$libinit$$0000001B          0x080001b0   Section        0  libinit2.o(.ARM.Collect$$libinit$$0000001B)
    .ARM.Collect$$libinit$$0000001D          0x080001b0   Section        0  libinit2.o(.ARM.Collect$$libinit$$0000001D)
    .ARM.Collect$$libinit$$0000001F          0x080001b0   Section        0  libinit2.o(.ARM.Collect$$libinit$$0000001F)
    .ARM.Collect$$libinit$$00000021          0x080001b0   Section        0  libinit2.o(.ARM.Collect$$libinit$$00000021)
    .ARM.Collect$$libinit$$00000023          0x080001b0   Section        0  libinit2.o(.ARM.Collect$$libinit$$00000023)
    .ARM.Collect$$libinit$$00000025          0x080001b0   Section        0  libinit2.o(.ARM.Collect$$libinit$$00000025)
    .ARM.Collect$$libinit$$0000002C          0x080001b0   Section        0  libinit2.o(.ARM.Collect$$libinit$$0000002C)
    .ARM.Collect$$libinit$$0000002E          0x080001b0   Section        0  libinit2.o(.ARM.Collect$$libinit$$0000002E)
    .ARM.Collect$$libinit$$00000030          0x080001b0   Section        0  libinit2.o(.ARM.Collect$$libinit$$00000030)
    .ARM.Collect$$libinit$$00000032          0x080001b0   Section        0  libinit2.o(.ARM.Collect$$libinit$$00000032)
    .ARM.Collect$$libinit$$00000033          0x080001b0   Section        2  libinit2.o(.ARM.Collect$$libinit$$00000033)
    .ARM.Collect$$libshutdown$$00000000      0x080001b2   Section        2  libshutdown.o(.ARM.Collect$$libshutdown$$00000000)
    .ARM.Collect$$libshutdown$$00000002      0x080001b4   Section        0  libshutdown2.o(.ARM.Collect$$libshutdown$$00000002)
    .ARM.Collect$$libshutdown$$00000004      0x080001b4   Section        0  libshutdown2.o(.ARM.Collect$$libshutdown$$00000004)
    .ARM.Collect$$libshutdown$$00000007      0x080001b4   Section        0  libshutdown2.o(.ARM.Collect$$libshutdown$$00000007)
    .ARM.Collect$$libshutdown$$0000000A      0x080001b4   Section        0  libshutdown2.o(.ARM.Collect$$libshutdown$$0000000A)
    .ARM.Collect$$libshutdown$$0000000C      0x080001b4   Section        0  libshutdown2.o(.ARM.Collect$$libshutdown$$0000000C)
    .ARM.Collect$$libshutdown$$0000000F      0x080001b4   Section        0  libshutdown2.o(.ARM.Collect$$libshutdown$$0000000F)
    .ARM.Collect$$libshutdown$$00000010      0x080001b4   Section        2  libshutdown2.o(.ARM.Collect$$libshutdown$$00000010)
    .ARM.Collect$$rtentry$$00000000          0x080001b6   Section        0  __rtentry.o(.ARM.Collect$$rtentry$$00000000)
    .ARM.Collect$$rtentry$$00000002          0x080001b6   Section        0  __rtentry2.o(.ARM.Collect$$rtentry$$00000002)
    .ARM.Collect$$rtentry$$00000004          0x080001b6   Section        6  __rtentry4.o(.ARM.Collect$$rtentry$$00000004)
    .ARM.Collect$$rtentry$$00000009          0x080001bc   Section        0  __rtentry2.o(.ARM.Collect$$rtentry$$00000009)
    .ARM.Collect$$rtentry$$0000000A          0x080001bc   Section        4  __rtentry2.o(.ARM.Collect$$rtentry$$0000000A)
    .ARM.Collect$$rtentry$$0000000C          0x080001c0   Section        0  __rtentry2.o(.ARM.Collect$$rtentry$$0000000C)
    .ARM.Collect$$rtentry$$0000000D          0x080001c0   Section        8  __rtentry2.o(.ARM.Collect$$rtentry$$0000000D)
    .ARM.Collect$$rtexit$$00000000           0x080001c8   Section        2  rtexit.o(.ARM.Collect$$rtexit$$00000000)
    .ARM.Collect$$rtexit$$00000002           0x080001ca   Section        0  rtexit2.o(.ARM.Collect$$rtexit$$00000002)
    .ARM.Collect$$rtexit$$00000003           0x080001ca   Section        4  rtexit2.o(.ARM.Collect$$rtexit$$00000003)
    .ARM.Collect$$rtexit$$00000004           0x080001ce   Section        6  rtexit2.o(.ARM.Collect$$rtexit$$00000004)
    .text                                    0x080001d4   Section       64  startup_stm32f10x_hd.o(.text)
    .text                                    0x08000214   Section        2  use_no_semi_2.o(.text)
    .text                                    0x08000216   Section       72  llsdiv.o(.text)
    .text                                    0x08000260   Section        0  noretval__2printf.o(.text)
    .text                                    0x08000278   Section        0  _printf_dec.o(.text)
    .text                                    0x080002f0   Section        0  __printf_flags_wp.o(.text)
    .text                                    0x08000428   Section        0  memcmp.o(.text)
    .text                                    0x08000480   Section       16  aeabi_memset.o(.text)
    .text                                    0x08000490   Section        0  heapauxi.o(.text)
    .text                                    0x08000496   Section        2  use_no_semi.o(.text)
    .text                                    0x08000498   Section      238  lludivv7m.o(.text)
    .text                                    0x08000586   Section        0  _rserrno.o(.text)
    .text                                    0x0800059c   Section        0  _printf_intcommon.o(.text)
    .text                                    0x08000650   Section        0  _printf_char_file.o(.text)
    .text                                    0x08000674   Section       68  rt_memclr.o(.text)
    .text                                    0x080006b8   Section        8  rt_errno_addr_intlibspace.o(.text)
    .text                                    0x080006c0   Section        0  _printf_char_common.o(.text)
    _printf_input_char                       0x080006c1   Thumb Code    10  _printf_char_common.o(.text)
    .text                                    0x080006f0   Section        0  ferror.o(.text)
    .text                                    0x080006f8   Section       78  rt_memclr_w.o(.text)
    .text                                    0x08000748   Section        8  libspace.o(.text)
    .text                                    0x08000750   Section       74  sys_stackheap_outer.o(.text)
    .text                                    0x0800079a   Section        0  exit.o(.text)
    i.BusFault_Handler                       0x080007ac   Section        0  stm32f10x_it.o(i.BusFault_Handler)
    i.DATA_Report                            0x080007b0   Section        0  main.o(i.DATA_Report)
    i.DebugMon_Handler                       0x0800088c   Section        0  stm32f10x_it.o(i.DebugMon_Handler)
    i.GPIO_Init                              0x0800088e   Section        0  stm32f10x_gpio.o(i.GPIO_Init)
    i.GPIO_SetBits                           0x080009a4   Section        0  stm32f10x_gpio.o(i.GPIO_SetBits)
    i.HardFault_Handler                      0x080009a8   Section        0  stm32f10x_it.o(i.HardFault_Handler)
    i.LED_Init                               0x080009ac   Section        0  led.o(i.LED_Init)
    i.MPU_Get_Accelerometer                  0x080009fc   Section        0  mpu6050.o(i.MPU_Get_Accelerometer)
    i.MPU_Get_Gyroscope                      0x08000a4c   Section        0  mpu6050.o(i.MPU_Get_Gyroscope)
    i.MPU_Get_Temperature                    0x08000a9c   Section        0  mpu6050.o(i.MPU_Get_Temperature)
    i.MPU_IIC_Ack                            0x08000b04   Section        0  mpuiic.o(i.MPU_IIC_Ack)
    i.MPU_IIC_Delay                          0x08000b50   Section        0  mpuiic.o(i.MPU_IIC_Delay)
    i.MPU_IIC_Init                           0x08000b5c   Section        0  mpuiic.o(i.MPU_IIC_Init)
    i.MPU_IIC_NAck                           0x08000b94   Section        0  mpuiic.o(i.MPU_IIC_NAck)
    i.MPU_IIC_Read_Byte                      0x08000be0   Section        0  mpuiic.o(i.MPU_IIC_Read_Byte)
    i.MPU_IIC_Send_Byte                      0x08000c4c   Section        0  mpuiic.o(i.MPU_IIC_Send_Byte)
    i.MPU_IIC_Start                          0x08000ca8   Section        0  mpuiic.o(i.MPU_IIC_Start)
    i.MPU_IIC_Stop                           0x08000cf0   Section        0  mpuiic.o(i.MPU_IIC_Stop)
    i.MPU_IIC_Wait_Ack                       0x08000d38   Section        0  mpuiic.o(i.MPU_IIC_Wait_Ack)
    i.MPU_Init                               0x08000d9c   Section        0  mpu6050.o(i.MPU_Init)
    i.MPU_Read                               0x08000e18   Section        0  main.o(i.MPU_Read)
    i.MPU_Read_Byte                          0x08000e90   Section        0  mpu6050.o(i.MPU_Read_Byte)
    i.MPU_Read_Len                           0x08000eca   Section        0  mpu6050.o(i.MPU_Read_Len)
    i.MPU_Set_Accel_Fsr                      0x08000f3e   Section        0  mpu6050.o(i.MPU_Set_Accel_Fsr)
    i.MPU_Set_Gyro_Fsr                       0x08000f4e   Section        0  mpu6050.o(i.MPU_Set_Gyro_Fsr)
    i.MPU_Set_LPF                            0x08000f5e   Section        0  mpu6050.o(i.MPU_Set_LPF)
    i.MPU_Set_Rate                           0x08000f98   Section        0  mpu6050.o(i.MPU_Set_Rate)
    i.MPU_Write_Byte                         0x08000fd2   Section        0  mpu6050.o(i.MPU_Write_Byte)
    i.MPU_Write_Len                          0x08001016   Section        0  mpu6050.o(i.MPU_Write_Len)
    i.MemManage_Handler                      0x08001076   Section        0  stm32f10x_it.o(i.MemManage_Handler)
    i.NMI_Handler                            0x0800107a   Section        0  stm32f10x_it.o(i.NMI_Handler)
    i.NVIC_Init                              0x0800107c   Section        0  misc.o(i.NVIC_Init)
    i.NVIC_PriorityGroupConfig               0x080010ec   Section        0  misc.o(i.NVIC_PriorityGroupConfig)
    i.PendSV_Handler                         0x08001100   Section        0  stm32f10x_it.o(i.PendSV_Handler)
    i.RCC_APB2PeriphClockCmd                 0x08001104   Section        0  stm32f10x_rcc.o(i.RCC_APB2PeriphClockCmd)
    i.RCC_GetClocksFreq                      0x08001124   Section        0  stm32f10x_rcc.o(i.RCC_GetClocksFreq)
    i.SVC_Handler                            0x080011f8   Section        0  stm32f10x_it.o(i.SVC_Handler)
    i.SYS_Init                               0x080011fc   Section        0  main.o(i.SYS_Init)
    i.SetSysClock                            0x080012a4   Section        0  system_stm32f10x.o(i.SetSysClock)
    SetSysClock                              0x080012a5   Thumb Code     8  system_stm32f10x.o(i.SetSysClock)
    i.SetSysClockTo72                        0x080012ac   Section        0  system_stm32f10x.o(i.SetSysClockTo72)
    SetSysClockTo72                          0x080012ad   Thumb Code   214  system_stm32f10x.o(i.SetSysClockTo72)
    i.SysTick_CLKSourceConfig                0x0800138c   Section        0  misc.o(i.SysTick_CLKSourceConfig)
    i.SysTick_Handler                        0x080013b4   Section        0  stm32f10x_it.o(i.SysTick_Handler)
    i.SystemInit                             0x080013b8   Section        0  system_stm32f10x.o(i.SystemInit)
    i.USART1_IRQHandler                      0x08001418   Section        0  usart.o(i.USART1_IRQHandler)
    i.USART_Cmd                              0x080014a0   Section        0  stm32f10x_usart.o(i.USART_Cmd)
    i.USART_GetITStatus                      0x080014b8   Section        0  stm32f10x_usart.o(i.USART_GetITStatus)
    i.USART_ITConfig                         0x0800150c   Section        0  stm32f10x_usart.o(i.USART_ITConfig)
    i.USART_Init                             0x08001558   Section        0  stm32f10x_usart.o(i.USART_Init)
    i.USART_ReceiveData                      0x08001630   Section        0  stm32f10x_usart.o(i.USART_ReceiveData)
    i.UsageFault_Handler                     0x0800163a   Section        0  stm32f10x_it.o(i.UsageFault_Handler)
    i.__ARM_fpclassify                       0x0800163e   Section        0  fpclassify.o(i.__ARM_fpclassify)
    i.__kernel_poly                          0x08001666   Section        0  poly.o(i.__kernel_poly)
    i.__mathlib_dbl_infnan                   0x08001710   Section        0  dunder.o(i.__mathlib_dbl_infnan)
    i.__mathlib_dbl_infnan2                  0x08001716   Section        0  dunder.o(i.__mathlib_dbl_infnan2)
    i.__mathlib_dbl_invalid                  0x0800171a   Section        0  dunder.o(i.__mathlib_dbl_invalid)
    i.__mathlib_dbl_underflow                0x08001728   Section        0  dunder.o(i.__mathlib_dbl_underflow)
    i._is_digit                              0x08001738   Section        0  __printf_wp.o(i._is_digit)
    i._sys_exit                              0x08001746   Section        0  usart.o(i._sys_exit)
    i.accel_self_test                        0x0800174c   Section        0  inv_mpu.o(i.accel_self_test)
    accel_self_test                          0x0800174d   Thumb Code   164  inv_mpu.o(i.accel_self_test)
    i.asin                                   0x080017f4   Section        0  asin.o(i.asin)
    i.atan                                   0x08001a64   Section        0  atan.o(i.atan)
    i.atan2                                  0x08001c84   Section        0  atan2.o(i.atan2)
    i.decode_gesture                         0x08001e04   Section        0  inv_mpu_dmp_motion_driver.o(i.decode_gesture)
    decode_gesture                           0x08001e05   Thumb Code    94  inv_mpu_dmp_motion_driver.o(i.decode_gesture)
    i.delay_init                             0x08001e68   Section        0  delay.o(i.delay_init)
    i.delay_ms                               0x08001eac   Section        0  delay.o(i.delay_ms)
    i.delay_us                               0x08001ef8   Section        0  delay.o(i.delay_us)
    i.dmp_enable_6x_lp_quat                  0x08001f44   Section        0  inv_mpu_dmp_motion_driver.o(i.dmp_enable_6x_lp_quat)
    i.dmp_enable_feature                     0x08001f80   Section        0  inv_mpu_dmp_motion_driver.o(i.dmp_enable_feature)
    i.dmp_enable_gyro_cal                    0x0800219c   Section        0  inv_mpu_dmp_motion_driver.o(i.dmp_enable_gyro_cal)
    i.dmp_enable_lp_quat                     0x080021f4   Section        0  inv_mpu_dmp_motion_driver.o(i.dmp_enable_lp_quat)
    i.dmp_load_motion_driver_firmware        0x08002230   Section        0  inv_mpu_dmp_motion_driver.o(i.dmp_load_motion_driver_firmware)
    i.dmp_read_fifo                          0x08002248   Section        0  inv_mpu_dmp_motion_driver.o(i.dmp_read_fifo)
    i.dmp_set_accel_bias                     0x08002414   Section        0  inv_mpu_dmp_motion_driver.o(i.dmp_set_accel_bias)
    i.dmp_set_fifo_rate                      0x08002544   Section        0  inv_mpu_dmp_motion_driver.o(i.dmp_set_fifo_rate)
    i.dmp_set_gyro_bias                      0x080025b4   Section        0  inv_mpu_dmp_motion_driver.o(i.dmp_set_gyro_bias)
    i.dmp_set_orientation                    0x080026e4   Section        0  inv_mpu_dmp_motion_driver.o(i.dmp_set_orientation)
    i.dmp_set_shake_reject_thresh            0x0800281c   Section        0  inv_mpu_dmp_motion_driver.o(i.dmp_set_shake_reject_thresh)
    i.dmp_set_shake_reject_time              0x08002854   Section        0  inv_mpu_dmp_motion_driver.o(i.dmp_set_shake_reject_time)
    i.dmp_set_shake_reject_timeout           0x0800287a   Section        0  inv_mpu_dmp_motion_driver.o(i.dmp_set_shake_reject_timeout)
    i.dmp_set_tap_axes                       0x080028a0   Section        0  inv_mpu_dmp_motion_driver.o(i.dmp_set_tap_axes)
    i.dmp_set_tap_count                      0x080028e6   Section        0  inv_mpu_dmp_motion_driver.o(i.dmp_set_tap_count)
    i.dmp_set_tap_thresh                     0x0800290c   Section        0  inv_mpu_dmp_motion_driver.o(i.dmp_set_tap_thresh)
    i.dmp_set_tap_time                       0x08002aac   Section        0  inv_mpu_dmp_motion_driver.o(i.dmp_set_tap_time)
    i.dmp_set_tap_time_multi                 0x08002ad2   Section        0  inv_mpu_dmp_motion_driver.o(i.dmp_set_tap_time_multi)
    i.fputc                                  0x08002af8   Section        0  usart.o(i.fputc)
    i.get_accel_prod_shift                   0x08002b14   Section        0  inv_mpu.o(i.get_accel_prod_shift)
    get_accel_prod_shift                     0x08002b15   Thumb Code   168  inv_mpu.o(i.get_accel_prod_shift)
    i.get_st_biases                          0x08002bc8   Section        0  inv_mpu.o(i.get_st_biases)
    get_st_biases                            0x08002bc9   Thumb Code  1132  inv_mpu.o(i.get_st_biases)
    i.gyro_self_test                         0x08003038   Section        0  inv_mpu.o(i.gyro_self_test)
    gyro_self_test                           0x08003039   Thumb Code   256  inv_mpu.o(i.gyro_self_test)
    i.inv_orientation_matrix_to_scalar       0x08003148   Section        0  inv_mpu.o(i.inv_orientation_matrix_to_scalar)
    i.inv_row_2_scale                        0x08003170   Section        0  inv_mpu.o(i.inv_row_2_scale)
    i.main                                   0x080031be   Section        0  main.o(i.main)
    i.mget_ms                                0x080031ce   Section        0  inv_mpu.o(i.mget_ms)
    i.mpu6050_send_data                      0x080031d0   Section        0  niming.o(i.mpu6050_send_data)
    i.mpu_configure_fifo                     0x08003240   Section        0  inv_mpu.o(i.mpu_configure_fifo)
    i.mpu_dmp_get_data                       0x080032b0   Section        0  inv_mpu.o(i.mpu_dmp_get_data)
    i.mpu_dmp_init                           0x080034d4   Section        0  inv_mpu.o(i.mpu_dmp_init)
    i.mpu_get_accel_fsr                      0x08003574   Section        0  inv_mpu.o(i.mpu_get_accel_fsr)
    i.mpu_get_accel_sens                     0x080035c0   Section        0  inv_mpu.o(i.mpu_get_accel_sens)
    i.mpu_get_fifo_config                    0x08003614   Section        0  inv_mpu.o(i.mpu_get_fifo_config)
    i.mpu_get_gyro_fsr                       0x08003624   Section        0  inv_mpu.o(i.mpu_get_gyro_fsr)
    i.mpu_get_gyro_sens                      0x08003668   Section        0  inv_mpu.o(i.mpu_get_gyro_sens)
    i.mpu_get_lpf                            0x080036b8   Section        0  inv_mpu.o(i.mpu_get_lpf)
    i.mpu_get_sample_rate                    0x08003708   Section        0  inv_mpu.o(i.mpu_get_sample_rate)
    i.mpu_init                               0x08003728   Section        0  inv_mpu.o(i.mpu_init)
    i.mpu_load_firmware                      0x08003918   Section        0  inv_mpu.o(i.mpu_load_firmware)
    i.mpu_lp_accel_mode                      0x080039d0   Section        0  inv_mpu.o(i.mpu_lp_accel_mode)
    i.mpu_read_fifo_stream                   0x08003ab0   Section        0  inv_mpu.o(i.mpu_read_fifo_stream)
    i.mpu_read_mem                           0x08003b70   Section        0  inv_mpu.o(i.mpu_read_mem)
    i.mpu_reset_fifo                         0x08003bf0   Section        0  inv_mpu.o(i.mpu_reset_fifo)
    i.mpu_run_self_test                      0x08003db8   Section        0  inv_mpu.o(i.mpu_run_self_test)
    i.mpu_set_accel_fsr                      0x08003ed4   Section        0  inv_mpu.o(i.mpu_set_accel_fsr)
    i.mpu_set_bypass                         0x08003f58   Section        0  inv_mpu.o(i.mpu_set_bypass)
    i.mpu_set_dmp_state                      0x080040a4   Section        0  inv_mpu.o(i.mpu_set_dmp_state)
    i.mpu_set_gyro_fsr                       0x08004134   Section        0  inv_mpu.o(i.mpu_set_gyro_fsr)
    i.mpu_set_int_latched                    0x080041bc   Section        0  inv_mpu.o(i.mpu_set_int_latched)
    i.mpu_set_lpf                            0x08004228   Section        0  inv_mpu.o(i.mpu_set_lpf)
    i.mpu_set_sample_rate                    0x080042ac   Section        0  inv_mpu.o(i.mpu_set_sample_rate)
    i.mpu_set_sensors                        0x08004348   Section        0  inv_mpu.o(i.mpu_set_sensors)
    i.mpu_write_mem                          0x08004418   Section        0  inv_mpu.o(i.mpu_write_mem)
    i.run_self_test                          0x08004498   Section        0  inv_mpu.o(i.run_self_test)
    i.set_int_enable                         0x0800452c   Section        0  inv_mpu.o(i.set_int_enable)
    set_int_enable                           0x0800452d   Thumb Code   138  inv_mpu.o(i.set_int_enable)
    i.sqrt                                   0x080045bc   Section        0  sqrt.o(i.sqrt)
    i.uart_init                              0x08004608   Section        0  usart.o(i.uart_init)
    i.usart1_niming_report                   0x080046a8   Section        0  niming.o(i.usart1_niming_report)
    i.usart1_report_imu                      0x08004720   Section        0  niming.o(i.usart1_report_imu)
    i.usart1_send_char                       0x080047e0   Section        0  niming.o(i.usart1_send_char)
    x$fpl$d2f                                0x080047fc   Section       98  d2f.o(x$fpl$d2f)
    x$fpl$dadd                               0x08004860   Section      336  daddsub_clz.o(x$fpl$dadd)
    _dadd1                                   0x08004871   Thumb Code     0  daddsub_clz.o(x$fpl$dadd)
    x$fpl$dcheck1                            0x080049b0   Section       16  dcheck1.o(x$fpl$dcheck1)
    x$fpl$ddiv                               0x080049c0   Section      688  ddiv.o(x$fpl$ddiv)
    ddiv_entry                               0x080049c7   Thumb Code     0  ddiv.o(x$fpl$ddiv)
    x$fpl$dflt                               0x08004c70   Section       46  dflt_clz.o(x$fpl$dflt)
    x$fpl$dmul                               0x08004ca0   Section      340  dmul.o(x$fpl$dmul)
    x$fpl$dnaninf                            0x08004df4   Section      156  dnaninf.o(x$fpl$dnaninf)
    x$fpl$dretinf                            0x08004e90   Section       12  dretinf.o(x$fpl$dretinf)
    x$fpl$drsb                               0x08004e9c   Section       22  daddsub_clz.o(x$fpl$drsb)
    x$fpl$dsqrt                              0x08004eb4   Section      460  dsqrt_noumaal.o(x$fpl$dsqrt)
    x$fpl$dsub                               0x08005080   Section      468  daddsub_clz.o(x$fpl$dsub)
    _dsub1                                   0x08005091   Thumb Code     0  daddsub_clz.o(x$fpl$dsub)
    x$fpl$f2d                                0x08005254   Section       86  f2d.o(x$fpl$f2d)
    x$fpl$fadd                               0x080052ac   Section      196  faddsub_clz.o(x$fpl$fadd)
    _fadd1                                   0x080052bb   Thumb Code     0  faddsub_clz.o(x$fpl$fadd)
    x$fpl$fcmpinf                            0x08005370   Section       24  fcmpi.o(x$fpl$fcmpinf)
    x$fpl$fdiv                               0x08005388   Section      388  fdiv.o(x$fpl$fdiv)
    _fdiv1                                   0x08005389   Thumb Code     0  fdiv.o(x$fpl$fdiv)
    x$fpl$feqf                               0x0800550c   Section      104  feqf.o(x$fpl$feqf)
    x$fpl$ffix                               0x08005574   Section       54  ffix.o(x$fpl$ffix)
    x$fpl$ffixu                              0x080055ac   Section       62  ffixu.o(x$fpl$ffixu)
    x$fpl$fflt                               0x080055ec   Section       48  fflt_clz.o(x$fpl$fflt)
    x$fpl$ffltu                              0x0800561c   Section       38  fflt_clz.o(x$fpl$ffltu)
    x$fpl$fleqf                              0x08005644   Section      104  fleqf.o(x$fpl$fleqf)
    x$fpl$fmul                               0x080056ac   Section      258  fmul.o(x$fpl$fmul)
    x$fpl$fnaninf                            0x080057ae   Section      140  fnaninf.o(x$fpl$fnaninf)
    x$fpl$fretinf                            0x0800583a   Section       10  fretinf.o(x$fpl$fretinf)
    x$fpl$frleqf                             0x08005844   Section       98  frleqf.o(x$fpl$frleqf)
    x$fpl$fsub                               0x080058a8   Section      234  faddsub_clz.o(x$fpl$fsub)
    _fsub1                                   0x080058b7   Thumb Code     0  faddsub_clz.o(x$fpl$fsub)
    x$fpl$retnan                             0x08005992   Section      100  retnan.o(x$fpl$retnan)
    x$fpl$scalbn                             0x080059f6   Section       92  scalbn.o(x$fpl$scalbn)
    x$fpl$trapveneer                         0x08005a52   Section       48  trapv.o(x$fpl$trapveneer)
    x$fpl$usenofp                            0x08005a82   Section        0  usenofp.o(x$fpl$usenofp)
    .constdata                               0x08005a84   Section       80  inv_mpu.o(.constdata)
    .constdata                               0x08005ad4   Section     3062  inv_mpu_dmp_motion_driver.o(.constdata)
    dmp_memory                               0x08005ad4   Data        3062  inv_mpu_dmp_motion_driver.o(.constdata)
    .constdata                               0x080066ca   Section       17  __printf_flags_wp.o(.constdata)
    maptable                                 0x080066ca   Data          17  __printf_flags_wp.o(.constdata)
    .constdata                               0x080066e0   Section       80  asin.o(.constdata)
    pS                                       0x080066e0   Data          48  asin.o(.constdata)
    qS                                       0x08006710   Data          32  asin.o(.constdata)
    .constdata                               0x08006730   Section      152  atan.o(.constdata)
    atanhi                                   0x08006730   Data          32  atan.o(.constdata)
    atanlo                                   0x08006750   Data          32  atan.o(.constdata)
    aTodd                                    0x08006770   Data          40  atan.o(.constdata)
    aTeven                                   0x08006798   Data          48  atan.o(.constdata)
    .constdata                               0x080067c8   Section        8  qnan.o(.constdata)
    .conststring                             0x080067d0   Section       77  inv_mpu.o(.conststring)
    .data                                    0x20000000   Section       28  main.o(.data)
    .data                                    0x2000001c   Section       20  system_stm32f10x.o(.data)
    .data                                    0x20000030   Section       53  inv_mpu.o(.data)
    st                                       0x20000030   Data          44  inv_mpu.o(.data)
    gyro_orientation                         0x2000005c   Data           9  inv_mpu.o(.data)
    .data                                    0x20000066   Section        4  delay.o(.data)
    fac_us                                   0x20000066   Data           1  delay.o(.data)
    fac_ms                                   0x20000068   Data           2  delay.o(.data)
    .data                                    0x2000006c   Section        6  usart.o(.data)
    .data                                    0x20000072   Section       20  stm32f10x_rcc.o(.data)
    APBAHBPrescTable                         0x20000072   Data          16  stm32f10x_rcc.o(.data)
    ADCPrescTable                            0x20000082   Data           4  stm32f10x_rcc.o(.data)
    .bss                                     0x20000088   Section       16  inv_mpu_dmp_motion_driver.o(.bss)
    dmp                                      0x20000088   Data          16  inv_mpu_dmp_motion_driver.o(.bss)
    .bss                                     0x20000098   Section      200  usart.o(.bss)
    .bss                                     0x20000160   Section       96  libspace.o(.bss)
    HEAP                                     0x200001c0   Section      512  startup_stm32f10x_hd.o(HEAP)
    Heap_Mem                                 0x200001c0   Data         512  startup_stm32f10x_hd.o(HEAP)
    STACK                                    0x200003c0   Section     1024  startup_stm32f10x_hd.o(STACK)
    Stack_Mem                                0x200003c0   Data        1024  startup_stm32f10x_hd.o(STACK)
    __initial_sp                             0x200007c0   Data           0  startup_stm32f10x_hd.o(STACK)

    Global Symbols

    Symbol Name                              Value     Ov Type        Size  Object(Section)

    BuildAttributes$$THM_ISAv4$P$D$K$B$S$PE$A:L22UL41UL21$X:L11$S22US41US21$IEEE1$IW$USESV6$~STKCKD$USESV7$~SHL$OTIME$ROPI$IEEEX$EBA8$UX$STANDARDLIB$REQ8$PRES8$EABIv2 0x00000000   Number         0  anon$$obj.o ABSOLUTE
    __ARM_use_no_argv                        0x00000000   Number         0  main.o ABSOLUTE
    _printf_flags                            0x00000000   Number         0  printf_stubs.o ABSOLUTE
    _printf_return_value                     0x00000000   Number         0  printf_stubs.o ABSOLUTE
    _printf_sizespec                         0x00000000   Number         0  printf_stubs.o ABSOLUTE
    _printf_widthprec                        0x00000000   Number         0  printf_stubs.o ABSOLUTE
    __ARM_exceptions_init                     - Undefined Weak Reference
    __alloca_initialize                       - Undefined Weak Reference
    __arm_preinit_                            - Undefined Weak Reference
    __cpp_initialize__aeabi_                  - Undefined Weak Reference
    __cxa_finalize                            - Undefined Weak Reference
    __rt_locale                               - Undefined Weak Reference
    __sigvec_lookup                           - Undefined Weak Reference
    _atexit_init                              - Undefined Weak Reference
    _call_atexit_fns                          - Undefined Weak Reference
    _clock_init                               - Undefined Weak Reference
    _fp_trap_init                             - Undefined Weak Reference
    _fp_trap_shutdown                         - Undefined Weak Reference
    _get_lc_collate                           - Undefined Weak Reference
    _get_lc_ctype                             - Undefined Weak Reference
    _get_lc_monetary                          - Undefined Weak Reference
    _get_lc_numeric                           - Undefined Weak Reference
    _get_lc_time                              - Undefined Weak Reference
    _getenv_init                              - Undefined Weak Reference
    _handle_redirection                       - Undefined Weak Reference
    _init_alloc                               - Undefined Weak Reference
    _init_user_alloc                          - Undefined Weak Reference
    _initio                                   - Undefined Weak Reference
    _mutex_acquire                            - Undefined Weak Reference
    _mutex_release                            - Undefined Weak Reference
    _printf_truncate_signed                   - Undefined Weak Reference
    _printf_truncate_unsigned                 - Undefined Weak Reference
    _rand_init                                - Undefined Weak Reference
    _signal_finish                            - Undefined Weak Reference
    _signal_init                              - Undefined Weak Reference
    _terminate_alloc                          - Undefined Weak Reference
    _terminate_user_alloc                     - Undefined Weak Reference
    _terminateio                              - Undefined Weak Reference
    __Vectors_Size                           0x00000130   Number         0  startup_stm32f10x_hd.o ABSOLUTE
    __Vectors                                0x08000000   Data           4  startup_stm32f10x_hd.o(RESET)
    __Vectors_End                            0x08000130   Data           0  startup_stm32f10x_hd.o(RESET)
    __main                                   0x08000131   Thumb Code     8  __main.o(!!!main)
    __scatterload                            0x08000139   Thumb Code     0  __scatter.o(!!!scatter)
    __scatterload_rt2                        0x08000139   Thumb Code    44  __scatter.o(!!!scatter)
    __scatterload_rt2_thumb_only             0x08000139   Thumb Code     0  __scatter.o(!!!scatter)
    __scatterload_null                       0x08000147   Thumb Code     0  __scatter.o(!!!scatter)
    __scatterload_copy                       0x0800016d   Thumb Code    26  __scatter_copy.o(!!handler_copy)
    __scatterload_zeroinit                   0x08000189   Thumb Code    28  __scatter_zi.o(!!handler_zi)
    _printf_d                                0x080001a5   Thumb Code     0  _printf_d.o(.ARM.Collect$$_printf_percent$$00000009)
    _printf_percent                          0x080001a5   Thumb Code     0  _printf_percent.o(.ARM.Collect$$_printf_percent$$00000000)
    _printf_percent_end                      0x080001ab   Thumb Code     0  _printf_percent_end.o(.ARM.Collect$$_printf_percent$$00000017)
    __rt_lib_init                            0x080001af   Thumb Code     0  libinit.o(.ARM.Collect$$libinit$$00000000)
    __rt_lib_init_alloca_1                   0x080001b1   Thumb Code     0  libinit2.o(.ARM.Collect$$libinit$$0000002E)
    __rt_lib_init_argv_1                     0x080001b1   Thumb Code     0  libinit2.o(.ARM.Collect$$libinit$$0000002C)
    __rt_lib_init_atexit_1                   0x080001b1   Thumb Code     0  libinit2.o(.ARM.Collect$$libinit$$0000001B)
    __rt_lib_init_clock_1                    0x080001b1   Thumb Code     0  libinit2.o(.ARM.Collect$$libinit$$00000021)
    __rt_lib_init_cpp_1                      0x080001b1   Thumb Code     0  libinit2.o(.ARM.Collect$$libinit$$00000032)
    __rt_lib_init_exceptions_1               0x080001b1   Thumb Code     0  libinit2.o(.ARM.Collect$$libinit$$00000030)
    __rt_lib_init_fp_1                       0x080001b1   Thumb Code     0  libinit2.o(.ARM.Collect$$libinit$$00000002)
    __rt_lib_init_fp_trap_1                  0x080001b1   Thumb Code     0  libinit2.o(.ARM.Collect$$libinit$$0000001F)
    __rt_lib_init_getenv_1                   0x080001b1   Thumb Code     0  libinit2.o(.ARM.Collect$$libinit$$00000023)
    __rt_lib_init_heap_1                     0x080001b1   Thumb Code     0  libinit2.o(.ARM.Collect$$libinit$$0000000A)
    __rt_lib_init_lc_collate_1               0x080001b1   Thumb Code     0  libinit2.o(.ARM.Collect$$libinit$$00000011)
    __rt_lib_init_lc_ctype_1                 0x080001b1   Thumb Code     0  libinit2.o(.ARM.Collect$$libinit$$00000013)
    __rt_lib_init_lc_monetary_1              0x080001b1   Thumb Code     0  libinit2.o(.ARM.Collect$$libinit$$00000015)
    __rt_lib_init_lc_numeric_1               0x080001b1   Thumb Code     0  libinit2.o(.ARM.Collect$$libinit$$00000017)
    __rt_lib_init_lc_time_1                  0x080001b1   Thumb Code     0  libinit2.o(.ARM.Collect$$libinit$$00000019)
    __rt_lib_init_preinit_1                  0x080001b1   Thumb Code     0  libinit2.o(.ARM.Collect$$libinit$$00000004)
    __rt_lib_init_rand_1                     0x080001b1   Thumb Code     0  libinit2.o(.ARM.Collect$$libinit$$0000000E)
    __rt_lib_init_return                     0x080001b1   Thumb Code     0  libinit2.o(.ARM.Collect$$libinit$$00000033)
    __rt_lib_init_signal_1                   0x080001b1   Thumb Code     0  libinit2.o(.ARM.Collect$$libinit$$0000001D)
    __rt_lib_init_stdio_1                    0x080001b1   Thumb Code     0  libinit2.o(.ARM.Collect$$libinit$$00000025)
    __rt_lib_init_user_alloc_1               0x080001b1   Thumb Code     0  libinit2.o(.ARM.Collect$$libinit$$0000000C)
    __rt_lib_shutdown                        0x080001b3   Thumb Code     0  libshutdown.o(.ARM.Collect$$libshutdown$$00000000)
    __rt_lib_shutdown_cpp_1                  0x080001b5   Thumb Code     0  libshutdown2.o(.ARM.Collect$$libshutdown$$00000002)
    __rt_lib_shutdown_fp_trap_1              0x080001b5   Thumb Code     0  libshutdown2.o(.ARM.Collect$$libshutdown$$00000007)
    __rt_lib_shutdown_heap_1                 0x080001b5   Thumb Code     0  libshutdown2.o(.ARM.Collect$$libshutdown$$0000000F)
    __rt_lib_shutdown_return                 0x080001b5   Thumb Code     0  libshutdown2.o(.ARM.Collect$$libshutdown$$00000010)
    __rt_lib_shutdown_signal_1               0x080001b5   Thumb Code     0  libshutdown2.o(.ARM.Collect$$libshutdown$$0000000A)
    __rt_lib_shutdown_stdio_1                0x080001b5   Thumb Code     0  libshutdown2.o(.ARM.Collect$$libshutdown$$00000004)
    __rt_lib_shutdown_user_alloc_1           0x080001b5   Thumb Code     0  libshutdown2.o(.ARM.Collect$$libshutdown$$0000000C)
    __rt_entry                               0x080001b7   Thumb Code     0  __rtentry.o(.ARM.Collect$$rtentry$$00000000)
    __rt_entry_presh_1                       0x080001b7   Thumb Code     0  __rtentry2.o(.ARM.Collect$$rtentry$$00000002)
    __rt_entry_sh                            0x080001b7   Thumb Code     0  __rtentry4.o(.ARM.Collect$$rtentry$$00000004)
    __rt_entry_li                            0x080001bd   Thumb Code     0  __rtentry2.o(.ARM.Collect$$rtentry$$0000000A)
    __rt_entry_postsh_1                      0x080001bd   Thumb Code     0  __rtentry2.o(.ARM.Collect$$rtentry$$00000009)
    __rt_entry_main                          0x080001c1   Thumb Code     0  __rtentry2.o(.ARM.Collect$$rtentry$$0000000D)
    __rt_entry_postli_1                      0x080001c1   Thumb Code     0  __rtentry2.o(.ARM.Collect$$rtentry$$0000000C)
    __rt_exit                                0x080001c9   Thumb Code     0  rtexit.o(.ARM.Collect$$rtexit$$00000000)
    __rt_exit_ls                             0x080001cb   Thumb Code     0  rtexit2.o(.ARM.Collect$$rtexit$$00000003)
    __rt_exit_prels_1                        0x080001cb   Thumb Code     0  rtexit2.o(.ARM.Collect$$rtexit$$00000002)
    __rt_exit_exit                           0x080001cf   Thumb Code     0  rtexit2.o(.ARM.Collect$$rtexit$$00000004)
    Reset_Handler                            0x080001d5   Thumb Code     8  startup_stm32f10x_hd.o(.text)
    ADC1_2_IRQHandler                        0x080001ef   Thumb Code     0  startup_stm32f10x_hd.o(.text)
    ADC3_IRQHandler                          0x080001ef   Thumb Code     0  startup_stm32f10x_hd.o(.text)
    CAN1_RX1_IRQHandler                      0x080001ef   Thumb Code     0  startup_stm32f10x_hd.o(.text)
    CAN1_SCE_IRQHandler                      0x080001ef   Thumb Code     0  startup_stm32f10x_hd.o(.text)
    DMA1_Channel1_IRQHandler                 0x080001ef   Thumb Code     0  startup_stm32f10x_hd.o(.text)
    DMA1_Channel2_IRQHandler                 0x080001ef   Thumb Code     0  startup_stm32f10x_hd.o(.text)
    DMA1_Channel3_IRQHandler                 0x080001ef   Thumb Code     0  startup_stm32f10x_hd.o(.text)
    DMA1_Channel4_IRQHandler                 0x080001ef   Thumb Code     0  startup_stm32f10x_hd.o(.text)
    DMA1_Channel5_IRQHandler                 0x080001ef   Thumb Code     0  startup_stm32f10x_hd.o(.text)
    DMA1_Channel6_IRQHandler                 0x080001ef   Thumb Code     0  startup_stm32f10x_hd.o(.text)
    DMA1_Channel7_IRQHandler                 0x080001ef   Thumb Code     0  startup_stm32f10x_hd.o(.text)
    DMA2_Channel1_IRQHandler                 0x080001ef   Thumb Code     0  startup_stm32f10x_hd.o(.text)
    DMA2_Channel2_IRQHandler                 0x080001ef   Thumb Code     0  startup_stm32f10x_hd.o(.text)
    DMA2_Channel3_IRQHandler                 0x080001ef   Thumb Code     0  startup_stm32f10x_hd.o(.text)
    DMA2_Channel4_5_IRQHandler               0x080001ef   Thumb Code     0  startup_stm32f10x_hd.o(.text)
    EXTI0_IRQHandler                         0x080001ef   Thumb Code     0  startup_stm32f10x_hd.o(.text)
    EXTI15_10_IRQHandler                     0x080001ef   Thumb Code     0  startup_stm32f10x_hd.o(.text)
    EXTI1_IRQHandler                         0x080001ef   Thumb Code     0  startup_stm32f10x_hd.o(.text)
    EXTI2_IRQHandler                         0x080001ef   Thumb Code     0  startup_stm32f10x_hd.o(.text)
    EXTI3_IRQHandler                         0x080001ef   Thumb Code     0  startup_stm32f10x_hd.o(.text)
    EXTI4_IRQHandler                         0x080001ef   Thumb Code     0  startup_stm32f10x_hd.o(.text)
    EXTI9_5_IRQHandler                       0x080001ef   Thumb Code     0  startup_stm32f10x_hd.o(.text)
    FLASH_IRQHandler                         0x080001ef   Thumb Code     0  startup_stm32f10x_hd.o(.text)
    FSMC_IRQHandler                          0x080001ef   Thumb Code     0  startup_stm32f10x_hd.o(.text)
    I2C1_ER_IRQHandler                       0x080001ef   Thumb Code     0  startup_stm32f10x_hd.o(.text)
    I2C1_EV_IRQHandler                       0x080001ef   Thumb Code     0  startup_stm32f10x_hd.o(.text)
    I2C2_ER_IRQHandler                       0x080001ef   Thumb Code     0  startup_stm32f10x_hd.o(.text)
    I2C2_EV_IRQHandler                       0x080001ef   Thumb Code     0  startup_stm32f10x_hd.o(.text)
    PVD_IRQHandler                           0x080001ef   Thumb Code     0  startup_stm32f10x_hd.o(.text)
    RCC_IRQHandler                           0x080001ef   Thumb Code     0  startup_stm32f10x_hd.o(.text)
    RTCAlarm_IRQHandler                      0x080001ef   Thumb Code     0  startup_stm32f10x_hd.o(.text)
    RTC_IRQHandler                           0x080001ef   Thumb Code     0  startup_stm32f10x_hd.o(.text)
    SDIO_IRQHandler                          0x080001ef   Thumb Code     0  startup_stm32f10x_hd.o(.text)
    SPI1_IRQHandler                          0x080001ef   Thumb Code     0  startup_stm32f10x_hd.o(.text)
    SPI2_IRQHandler                          0x080001ef   Thumb Code     0  startup_stm32f10x_hd.o(.text)
    SPI3_IRQHandler                          0x080001ef   Thumb Code     0  startup_stm32f10x_hd.o(.text)
    TAMPER_IRQHandler                        0x080001ef   Thumb Code     0  startup_stm32f10x_hd.o(.text)
    TIM1_BRK_IRQHandler                      0x080001ef   Thumb Code     0  startup_stm32f10x_hd.o(.text)
    TIM1_CC_IRQHandler                       0x080001ef   Thumb Code     0  startup_stm32f10x_hd.o(.text)
    TIM1_TRG_COM_IRQHandler                  0x080001ef   Thumb Code     0  startup_stm32f10x_hd.o(.text)
    TIM1_UP_IRQHandler                       0x080001ef   Thumb Code     0  startup_stm32f10x_hd.o(.text)
    TIM2_IRQHandler                          0x080001ef   Thumb Code     0  startup_stm32f10x_hd.o(.text)
    TIM3_IRQHandler                          0x080001ef   Thumb Code     0  startup_stm32f10x_hd.o(.text)
    TIM4_IRQHandler                          0x080001ef   Thumb Code     0  startup_stm32f10x_hd.o(.text)
    TIM5_IRQHandler                          0x080001ef   Thumb Code     0  startup_stm32f10x_hd.o(.text)
    TIM6_IRQHandler                          0x080001ef   Thumb Code     0  startup_stm32f10x_hd.o(.text)
    TIM7_IRQHandler                          0x080001ef   Thumb Code     0  startup_stm32f10x_hd.o(.text)
    TIM8_BRK_IRQHandler                      0x080001ef   Thumb Code     0  startup_stm32f10x_hd.o(.text)
    TIM8_CC_IRQHandler                       0x080001ef   Thumb Code     0  startup_stm32f10x_hd.o(.text)
    TIM8_TRG_COM_IRQHandler                  0x080001ef   Thumb Code     0  startup_stm32f10x_hd.o(.text)
    TIM8_UP_IRQHandler                       0x080001ef   Thumb Code     0  startup_stm32f10x_hd.o(.text)
    UART4_IRQHandler                         0x080001ef   Thumb Code     0  startup_stm32f10x_hd.o(.text)
    UART5_IRQHandler                         0x080001ef   Thumb Code     0  startup_stm32f10x_hd.o(.text)
    USART2_IRQHandler                        0x080001ef   Thumb Code     0  startup_stm32f10x_hd.o(.text)
    USART3_IRQHandler                        0x080001ef   Thumb Code     0  startup_stm32f10x_hd.o(.text)
    USBWakeUp_IRQHandler                     0x080001ef   Thumb Code     0  startup_stm32f10x_hd.o(.text)
    USB_HP_CAN1_TX_IRQHandler                0x080001ef   Thumb Code     0  startup_stm32f10x_hd.o(.text)
    USB_LP_CAN1_RX0_IRQHandler               0x080001ef   Thumb Code     0  startup_stm32f10x_hd.o(.text)
    WWDG_IRQHandler                          0x080001ef   Thumb Code     0  startup_stm32f10x_hd.o(.text)
    __user_initial_stackheap                 0x080001f1   Thumb Code     0  startup_stm32f10x_hd.o(.text)
    __use_no_semihosting                     0x08000215   Thumb Code     2  use_no_semi_2.o(.text)
    __aeabi_ldivmod                          0x08000217   Thumb Code     0  llsdiv.o(.text)
    _ll_sdiv                                 0x08000217   Thumb Code    72  llsdiv.o(.text)
    __2printf                                0x08000261   Thumb Code    20  noretval__2printf.o(.text)
    _printf_int_dec                          0x08000279   Thumb Code   104  _printf_dec.o(.text)
    __printf                                 0x080002f1   Thumb Code   308  __printf_flags_wp.o(.text)
    memcmp                                   0x08000429   Thumb Code    88  memcmp.o(.text)
    __aeabi_memset                           0x08000481   Thumb Code    16  aeabi_memset.o(.text)
    __use_two_region_memory                  0x08000491   Thumb Code     2  heapauxi.o(.text)
    __rt_heap_escrow$2region                 0x08000493   Thumb Code     2  heapauxi.o(.text)
    __rt_heap_expand$2region                 0x08000495   Thumb Code     2  heapauxi.o(.text)
    __I$use$semihosting                      0x08000497   Thumb Code     0  use_no_semi.o(.text)
    __use_no_semihosting_swi                 0x08000497   Thumb Code     2  use_no_semi.o(.text)
    __aeabi_uldivmod                         0x08000499   Thumb Code     0  lludivv7m.o(.text)
    _ll_udiv                                 0x08000499   Thumb Code   238  lludivv7m.o(.text)
    __read_errno                             0x08000587   Thumb Code    10  _rserrno.o(.text)
    __set_errno                              0x08000591   Thumb Code    12  _rserrno.o(.text)
    _printf_int_common                       0x0800059d   Thumb Code   178  _printf_intcommon.o(.text)
    _printf_char_file                        0x08000651   Thumb Code    32  _printf_char_file.o(.text)
    __aeabi_memclr                           0x08000675   Thumb Code     0  rt_memclr.o(.text)
    __rt_memclr                              0x08000675   Thumb Code    68  rt_memclr.o(.text)
    _memset                                  0x08000679   Thumb Code     0  rt_memclr.o(.text)
    __aeabi_errno_addr                       0x080006b9   Thumb Code     8  rt_errno_addr_intlibspace.o(.text)
    __errno$intlibspace                      0x080006b9   Thumb Code     0  rt_errno_addr_intlibspace.o(.text)
    __rt_errno_addr$intlibspace              0x080006b9   Thumb Code     0  rt_errno_addr_intlibspace.o(.text)
    _printf_char_common                      0x080006cb   Thumb Code    32  _printf_char_common.o(.text)
    ferror                                   0x080006f1   Thumb Code     8  ferror.o(.text)
    __aeabi_memclr4                          0x080006f9   Thumb Code     0  rt_memclr_w.o(.text)
    __aeabi_memclr8                          0x080006f9   Thumb Code     0  rt_memclr_w.o(.text)
    __rt_memclr_w                            0x080006f9   Thumb Code    78  rt_memclr_w.o(.text)
    _memset_w                                0x080006fd   Thumb Code     0  rt_memclr_w.o(.text)
    __user_libspace                          0x08000749   Thumb Code     8  libspace.o(.text)
    __user_perproc_libspace                  0x08000749   Thumb Code     0  libspace.o(.text)
    __user_perthread_libspace                0x08000749   Thumb Code     0  libspace.o(.text)
    __user_setup_stackheap                   0x08000751   Thumb Code    74  sys_stackheap_outer.o(.text)
    exit                                     0x0800079b   Thumb Code    18  exit.o(.text)
    BusFault_Handler                         0x080007ad   Thumb Code     4  stm32f10x_it.o(i.BusFault_Handler)
    DATA_Report                              0x080007b1   Thumb Code   170  main.o(i.DATA_Report)
    DebugMon_Handler                         0x0800088d   Thumb Code     2  stm32f10x_it.o(i.DebugMon_Handler)
    GPIO_Init                                0x0800088f   Thumb Code   278  stm32f10x_gpio.o(i.GPIO_Init)
    GPIO_SetBits                             0x080009a5   Thumb Code     4  stm32f10x_gpio.o(i.GPIO_SetBits)
    HardFault_Handler                        0x080009a9   Thumb Code     4  stm32f10x_it.o(i.HardFault_Handler)
    LED_Init                                 0x080009ad   Thumb Code    72  led.o(i.LED_Init)
    MPU_Get_Accelerometer                    0x080009fd   Thumb Code    80  mpu6050.o(i.MPU_Get_Accelerometer)
    MPU_Get_Gyroscope                        0x08000a4d   Thumb Code    80  mpu6050.o(i.MPU_Get_Gyroscope)
    MPU_Get_Temperature                      0x08000a9d   Thumb Code    86  mpu6050.o(i.MPU_Get_Temperature)
    MPU_IIC_Ack                              0x08000b05   Thumb Code    62  mpuiic.o(i.MPU_IIC_Ack)
    MPU_IIC_Delay                            0x08000b51   Thumb Code    10  mpuiic.o(i.MPU_IIC_Delay)
    MPU_IIC_Init                             0x08000b5d   Thumb Code    50  mpuiic.o(i.MPU_IIC_Init)
    MPU_IIC_NAck                             0x08000b95   Thumb Code    62  mpuiic.o(i.MPU_IIC_NAck)
    MPU_IIC_Read_Byte                        0x08000be1   Thumb Code    94  mpuiic.o(i.MPU_IIC_Read_Byte)
    MPU_IIC_Send_Byte                        0x08000c4d   Thumb Code    80  mpuiic.o(i.MPU_IIC_Send_Byte)
    MPU_IIC_Start                            0x08000ca9   Thumb Code    60  mpuiic.o(i.MPU_IIC_Start)
    MPU_IIC_Stop                             0x08000cf1   Thumb Code    58  mpuiic.o(i.MPU_IIC_Stop)
    MPU_IIC_Wait_Ack                         0x08000d39   Thumb Code    86  mpuiic.o(i.MPU_IIC_Wait_Ack)
    MPU_Init                                 0x08000d9d   Thumb Code   122  mpu6050.o(i.MPU_Init)
    MPU_Read                                 0x08000e19   Thumb Code    76  main.o(i.MPU_Read)
    MPU_Read_Byte                            0x08000e91   Thumb Code    58  mpu6050.o(i.MPU_Read_Byte)
    MPU_Read_Len                             0x08000ecb   Thumb Code   116  mpu6050.o(i.MPU_Read_Len)
    MPU_Set_Accel_Fsr                        0x08000f3f   Thumb Code    16  mpu6050.o(i.MPU_Set_Accel_Fsr)
    MPU_Set_Gyro_Fsr                         0x08000f4f   Thumb Code    16  mpu6050.o(i.MPU_Set_Gyro_Fsr)
    MPU_Set_LPF                              0x08000f5f   Thumb Code    58  mpu6050.o(i.MPU_Set_LPF)
    MPU_Set_Rate                             0x08000f99   Thumb Code    58  mpu6050.o(i.MPU_Set_Rate)
    MPU_Write_Byte                           0x08000fd3   Thumb Code    68  mpu6050.o(i.MPU_Write_Byte)
    MPU_Write_Len                            0x08001017   Thumb Code    96  mpu6050.o(i.MPU_Write_Len)
    MemManage_Handler                        0x08001077   Thumb Code     4  stm32f10x_it.o(i.MemManage_Handler)
    NMI_Handler                              0x0800107b   Thumb Code     2  stm32f10x_it.o(i.NMI_Handler)
    NVIC_Init                                0x0800107d   Thumb Code   100  misc.o(i.NVIC_Init)
    NVIC_PriorityGroupConfig                 0x080010ed   Thumb Code    10  misc.o(i.NVIC_PriorityGroupConfig)
    PendSV_Handler                           0x08001101   Thumb Code     2  stm32f10x_it.o(i.PendSV_Handler)
    RCC_APB2PeriphClockCmd                   0x08001105   Thumb Code    26  stm32f10x_rcc.o(i.RCC_APB2PeriphClockCmd)
    RCC_GetClocksFreq                        0x08001125   Thumb Code   192  stm32f10x_rcc.o(i.RCC_GetClocksFreq)
    SVC_Handler                              0x080011f9   Thumb Code     2  stm32f10x_it.o(i.SVC_Handler)
    SYS_Init                                 0x080011fd   Thumb Code   116  main.o(i.SYS_Init)
    SysTick_CLKSourceConfig                  0x0800138d   Thumb Code    40  misc.o(i.SysTick_CLKSourceConfig)
    SysTick_Handler                          0x080013b5   Thumb Code     2  stm32f10x_it.o(i.SysTick_Handler)
    SystemInit                               0x080013b9   Thumb Code    78  system_stm32f10x.o(i.SystemInit)
    USART1_IRQHandler                        0x08001419   Thumb Code   122  usart.o(i.USART1_IRQHandler)
    USART_Cmd                                0x080014a1   Thumb Code    24  stm32f10x_usart.o(i.USART_Cmd)
    USART_GetITStatus                        0x080014b9   Thumb Code    84  stm32f10x_usart.o(i.USART_GetITStatus)
    USART_ITConfig                           0x0800150d   Thumb Code    74  stm32f10x_usart.o(i.USART_ITConfig)
    USART_Init                               0x08001559   Thumb Code   210  stm32f10x_usart.o(i.USART_Init)
    USART_ReceiveData                        0x08001631   Thumb Code    10  stm32f10x_usart.o(i.USART_ReceiveData)
    UsageFault_Handler                       0x0800163b   Thumb Code     4  stm32f10x_it.o(i.UsageFault_Handler)
    __ARM_fpclassify                         0x0800163f   Thumb Code    40  fpclassify.o(i.__ARM_fpclassify)
    __kernel_poly                            0x08001667   Thumb Code   170  poly.o(i.__kernel_poly)
    __mathlib_dbl_infnan                     0x08001711   Thumb Code     6  dunder.o(i.__mathlib_dbl_infnan)
    __mathlib_dbl_infnan2                    0x08001717   Thumb Code     4  dunder.o(i.__mathlib_dbl_infnan2)
    __mathlib_dbl_invalid                    0x0800171b   Thumb Code    12  dunder.o(i.__mathlib_dbl_invalid)
    __mathlib_dbl_underflow                  0x08001729   Thumb Code    10  dunder.o(i.__mathlib_dbl_underflow)
    _is_digit                                0x08001739   Thumb Code    14  __printf_wp.o(i._is_digit)
    _sys_exit                                0x08001747   Thumb Code     4  usart.o(i._sys_exit)
    asin                                     0x080017f5   Thumb Code   572  asin.o(i.asin)
    atan                                     0x08001a65   Thumb Code   474  atan.o(i.atan)
    atan2                                    0x08001c85   Thumb Code   346  atan2.o(i.atan2)
    delay_init                               0x08001e69   Thumb Code    50  delay.o(i.delay_init)
    delay_ms                                 0x08001ead   Thumb Code    72  delay.o(i.delay_ms)
    delay_us                                 0x08001ef9   Thumb Code    72  delay.o(i.delay_us)
    dmp_enable_6x_lp_quat                    0x08001f45   Thumb Code    60  inv_mpu_dmp_motion_driver.o(i.dmp_enable_6x_lp_quat)
    dmp_enable_feature                       0x08001f81   Thumb Code   530  inv_mpu_dmp_motion_driver.o(i.dmp_enable_feature)
    dmp_enable_gyro_cal                      0x0800219d   Thumb Code    62  inv_mpu_dmp_motion_driver.o(i.dmp_enable_gyro_cal)
    dmp_enable_lp_quat                       0x080021f5   Thumb Code    60  inv_mpu_dmp_motion_driver.o(i.dmp_enable_lp_quat)
    dmp_load_motion_driver_firmware          0x08002231   Thumb Code    20  inv_mpu_dmp_motion_driver.o(i.dmp_load_motion_driver_firmware)
    dmp_read_fifo                            0x08002249   Thumb Code   456  inv_mpu_dmp_motion_driver.o(i.dmp_read_fifo)
    dmp_set_accel_bias                       0x08002415   Thumb Code   300  inv_mpu_dmp_motion_driver.o(i.dmp_set_accel_bias)
    dmp_set_fifo_rate                        0x08002545   Thumb Code    96  inv_mpu_dmp_motion_driver.o(i.dmp_set_fifo_rate)
    dmp_set_gyro_bias                        0x080025b5   Thumb Code   294  inv_mpu_dmp_motion_driver.o(i.dmp_set_gyro_bias)
    dmp_set_orientation                      0x080026e5   Thumb Code   290  inv_mpu_dmp_motion_driver.o(i.dmp_set_orientation)
    dmp_set_shake_reject_thresh              0x0800281d   Thumb Code    56  inv_mpu_dmp_motion_driver.o(i.dmp_set_shake_reject_thresh)
    dmp_set_shake_reject_time                0x08002855   Thumb Code    38  inv_mpu_dmp_motion_driver.o(i.dmp_set_shake_reject_time)
    dmp_set_shake_reject_timeout             0x0800287b   Thumb Code    38  inv_mpu_dmp_motion_driver.o(i.dmp_set_shake_reject_timeout)
    dmp_set_tap_axes                         0x080028a1   Thumb Code    70  inv_mpu_dmp_motion_driver.o(i.dmp_set_tap_axes)
    dmp_set_tap_count                        0x080028e7   Thumb Code    38  inv_mpu_dmp_motion_driver.o(i.dmp_set_tap_count)
    dmp_set_tap_thresh                       0x0800290d   Thumb Code   396  inv_mpu_dmp_motion_driver.o(i.dmp_set_tap_thresh)
    dmp_set_tap_time                         0x08002aad   Thumb Code    38  inv_mpu_dmp_motion_driver.o(i.dmp_set_tap_time)
    dmp_set_tap_time_multi                   0x08002ad3   Thumb Code    38  inv_mpu_dmp_motion_driver.o(i.dmp_set_tap_time_multi)
    fputc                                    0x08002af9   Thumb Code    24  usart.o(i.fputc)
    inv_orientation_matrix_to_scalar         0x08003149   Thumb Code    40  inv_mpu.o(i.inv_orientation_matrix_to_scalar)
    inv_row_2_scale                          0x08003171   Thumb Code    78  inv_mpu.o(i.inv_row_2_scale)
    main                                     0x080031bf   Thumb Code    16  main.o(i.main)
    mget_ms                                  0x080031cf   Thumb Code     2  inv_mpu.o(i.mget_ms)
    mpu6050_send_data                        0x080031d1   Thumb Code   110  niming.o(i.mpu6050_send_data)
    mpu_configure_fifo                       0x08003241   Thumb Code   106  inv_mpu.o(i.mpu_configure_fifo)
    mpu_dmp_get_data                         0x080032b1   Thumb Code   544  inv_mpu.o(i.mpu_dmp_get_data)
    mpu_dmp_init                             0x080034d5   Thumb Code   154  inv_mpu.o(i.mpu_dmp_init)
    mpu_get_accel_fsr                        0x08003575   Thumb Code    72  inv_mpu.o(i.mpu_get_accel_fsr)
    mpu_get_accel_sens                       0x080035c1   Thumb Code    78  inv_mpu.o(i.mpu_get_accel_sens)
    mpu_get_fifo_config                      0x08003615   Thumb Code    12  inv_mpu.o(i.mpu_get_fifo_config)
    mpu_get_gyro_fsr                         0x08003625   Thumb Code    64  inv_mpu.o(i.mpu_get_gyro_fsr)
    mpu_get_gyro_sens                        0x08003669   Thumb Code    58  inv_mpu.o(i.mpu_get_gyro_sens)
    mpu_get_lpf                              0x080036b9   Thumb Code    74  inv_mpu.o(i.mpu_get_lpf)
    mpu_get_sample_rate                      0x08003709   Thumb Code    26  inv_mpu.o(i.mpu_get_sample_rate)
    mpu_init                                 0x08003729   Thumb Code   416  inv_mpu.o(i.mpu_init)
    mpu_load_firmware                        0x08003919   Thumb Code   180  inv_mpu.o(i.mpu_load_firmware)
    mpu_lp_accel_mode                        0x080039d1   Thumb Code   218  inv_mpu.o(i.mpu_lp_accel_mode)
    mpu_read_fifo_stream                     0x08003ab1   Thumb Code   186  inv_mpu.o(i.mpu_read_fifo_stream)
    mpu_read_mem                             0x08003b71   Thumb Code   122  inv_mpu.o(i.mpu_read_mem)
    mpu_reset_fifo                           0x08003bf1   Thumb Code   450  inv_mpu.o(i.mpu_reset_fifo)
    mpu_run_self_test                        0x08003db9   Thumb Code   278  inv_mpu.o(i.mpu_run_self_test)
    mpu_set_accel_fsr                        0x08003ed5   Thumb Code   126  inv_mpu.o(i.mpu_set_accel_fsr)
    mpu_set_bypass                           0x08003f59   Thumb Code   328  inv_mpu.o(i.mpu_set_bypass)
    mpu_set_dmp_state                        0x080040a5   Thumb Code   138  inv_mpu.o(i.mpu_set_dmp_state)
    mpu_set_gyro_fsr                         0x08004135   Thumb Code   132  inv_mpu.o(i.mpu_set_gyro_fsr)
    mpu_set_int_latched                      0x080041bd   Thumb Code   102  inv_mpu.o(i.mpu_set_int_latched)
    mpu_set_lpf                              0x08004229   Thumb Code   126  inv_mpu.o(i.mpu_set_lpf)
    mpu_set_sample_rate                      0x080042ad   Thumb Code   152  inv_mpu.o(i.mpu_set_sample_rate)
    mpu_set_sensors                          0x08004349   Thumb Code   202  inv_mpu.o(i.mpu_set_sensors)
    mpu_write_mem                            0x08004419   Thumb Code   122  inv_mpu.o(i.mpu_write_mem)
    run_self_test                            0x08004499   Thumb Code   148  inv_mpu.o(i.run_self_test)
    sqrt                                     0x080045bd   Thumb Code    76  sqrt.o(i.sqrt)
    uart_init                                0x08004609   Thumb Code   152  usart.o(i.uart_init)
    usart1_niming_report                     0x080046a9   Thumb Code   120  niming.o(i.usart1_niming_report)
    usart1_report_imu                        0x08004721   Thumb Code   192  niming.o(i.usart1_report_imu)
    usart1_send_char                         0x080047e1   Thumb Code    22  niming.o(i.usart1_send_char)
    __aeabi_d2f                              0x080047fd   Thumb Code     0  d2f.o(x$fpl$d2f)
    _d2f                                     0x080047fd   Thumb Code    98  d2f.o(x$fpl$d2f)
    __aeabi_dadd                             0x08004861   Thumb Code     0  daddsub_clz.o(x$fpl$dadd)
    _dadd                                    0x08004861   Thumb Code   332  daddsub_clz.o(x$fpl$dadd)
    __fpl_dcheck_NaN1                        0x080049b1   Thumb Code    10  dcheck1.o(x$fpl$dcheck1)
    __aeabi_ddiv                             0x080049c1   Thumb Code     0  ddiv.o(x$fpl$ddiv)
    _ddiv                                    0x080049c1   Thumb Code   552  ddiv.o(x$fpl$ddiv)
    __aeabi_i2d                              0x08004c71   Thumb Code     0  dflt_clz.o(x$fpl$dflt)
    _dflt                                    0x08004c71   Thumb Code    46  dflt_clz.o(x$fpl$dflt)
    __aeabi_dmul                             0x08004ca1   Thumb Code     0  dmul.o(x$fpl$dmul)
    _dmul                                    0x08004ca1   Thumb Code   332  dmul.o(x$fpl$dmul)
    __fpl_dnaninf                            0x08004df5   Thumb Code   156  dnaninf.o(x$fpl$dnaninf)
    __fpl_dretinf                            0x08004e91   Thumb Code    12  dretinf.o(x$fpl$dretinf)
    __aeabi_drsub                            0x08004e9d   Thumb Code     0  daddsub_clz.o(x$fpl$drsb)
    _drsb                                    0x08004e9d   Thumb Code    22  daddsub_clz.o(x$fpl$drsb)
    _dsqrt                                   0x08004eb5   Thumb Code   456  dsqrt_noumaal.o(x$fpl$dsqrt)
    __aeabi_dsub                             0x08005081   Thumb Code     0  daddsub_clz.o(x$fpl$dsub)
    _dsub                                    0x08005081   Thumb Code   464  daddsub_clz.o(x$fpl$dsub)
    __aeabi_f2d                              0x08005255   Thumb Code     0  f2d.o(x$fpl$f2d)
    _f2d                                     0x08005255   Thumb Code    86  f2d.o(x$fpl$f2d)
    __aeabi_fadd                             0x080052ad   Thumb Code     0  faddsub_clz.o(x$fpl$fadd)
    _fadd                                    0x080052ad   Thumb Code   196  faddsub_clz.o(x$fpl$fadd)
    __fpl_fcmp_Inf                           0x08005371   Thumb Code    24  fcmpi.o(x$fpl$fcmpinf)
    __aeabi_fdiv                             0x08005389   Thumb Code     0  fdiv.o(x$fpl$fdiv)
    _fdiv                                    0x08005389   Thumb Code   384  fdiv.o(x$fpl$fdiv)
    __aeabi_cfcmpeq                          0x0800550d   Thumb Code     0  feqf.o(x$fpl$feqf)
    _fcmpeq                                  0x0800550d   Thumb Code   104  feqf.o(x$fpl$feqf)
    __aeabi_f2iz                             0x08005575   Thumb Code     0  ffix.o(x$fpl$ffix)
    _ffix                                    0x08005575   Thumb Code    54  ffix.o(x$fpl$ffix)
    __aeabi_f2uiz                            0x080055ad   Thumb Code     0  ffixu.o(x$fpl$ffixu)
    _ffixu                                   0x080055ad   Thumb Code    62  ffixu.o(x$fpl$ffixu)
    __aeabi_i2f                              0x080055ed   Thumb Code     0  fflt_clz.o(x$fpl$fflt)
    _fflt                                    0x080055ed   Thumb Code    48  fflt_clz.o(x$fpl$fflt)
    __aeabi_ui2f                             0x0800561d   Thumb Code     0  fflt_clz.o(x$fpl$ffltu)
    _ffltu                                   0x0800561d   Thumb Code    38  fflt_clz.o(x$fpl$ffltu)
    __aeabi_cfcmple                          0x08005645   Thumb Code     0  fleqf.o(x$fpl$fleqf)
    _fcmple                                  0x08005645   Thumb Code   104  fleqf.o(x$fpl$fleqf)
    __fpl_fcmple_InfNaN                      0x08005697   Thumb Code     0  fleqf.o(x$fpl$fleqf)
    __aeabi_fmul                             0x080056ad   Thumb Code     0  fmul.o(x$fpl$fmul)
    _fmul                                    0x080056ad   Thumb Code   258  fmul.o(x$fpl$fmul)
    __fpl_fnaninf                            0x080057af   Thumb Code   140  fnaninf.o(x$fpl$fnaninf)
    __fpl_fretinf                            0x0800583b   Thumb Code    10  fretinf.o(x$fpl$fretinf)
    __aeabi_cfrcmple                         0x08005845   Thumb Code     0  frleqf.o(x$fpl$frleqf)
    _frcmple                                 0x08005845   Thumb Code    98  frleqf.o(x$fpl$frleqf)
    __aeabi_fsub                             0x080058a9   Thumb Code     0  faddsub_clz.o(x$fpl$fsub)
    _fsub                                    0x080058a9   Thumb Code   234  faddsub_clz.o(x$fpl$fsub)
    __fpl_return_NaN                         0x08005993   Thumb Code   100  retnan.o(x$fpl$retnan)
    __ARM_scalbn                             0x080059f7   Thumb Code    92  scalbn.o(x$fpl$scalbn)
    __fpl_cmpreturn                          0x08005a53   Thumb Code    48  trapv.o(x$fpl$trapveneer)
    __I$use$fp                               0x08005a82   Number         0  usenofp.o(x$fpl$usenofp)
    reg                                      0x08005a84   Data          27  inv_mpu.o(.constdata)
    hw                                       0x08005aa0   Data          12  inv_mpu.o(.constdata)
    test                                     0x08005aac   Data          40  inv_mpu.o(.constdata)
    __mathlib_zero                           0x080067c8   Data           8  qnan.o(.constdata)
    Region$$Table$$Base                      0x08006820   Number         0  anon$$obj.o(Region$$Table)
    Region$$Table$$Limit                     0x08006840   Number         0  anon$$obj.o(Region$$Table)
    pitch                                    0x20000000   Data           4  main.o(.data)
    roll                                     0x20000004   Data           4  main.o(.data)
    yaw                                      0x20000008   Data           4  main.o(.data)
    aacx                                     0x2000000c   Data           2  main.o(.data)
    aacy                                     0x2000000e   Data           2  main.o(.data)
    aacz                                     0x20000010   Data           2  main.o(.data)
    gyrox                                    0x20000012   Data           2  main.o(.data)
    gyroy                                    0x20000014   Data           2  main.o(.data)
    gyroz                                    0x20000016   Data           2  main.o(.data)
    temp                                     0x20000018   Data           2  main.o(.data)
    mpu6050                                  0x2000001a   Data           2  main.o(.data)
    SystemCoreClock                          0x2000001c   Data           4  system_stm32f10x.o(.data)
    AHBPrescTable                            0x20000020   Data          16  system_stm32f10x.o(.data)
    __stdout                                 0x2000006c   Data           4  usart.o(.data)
    USART_RX_STA                             0x20000070   Data           2  usart.o(.data)
    USART_RX_BUF                             0x20000098   Data         200  usart.o(.bss)
    __libspace_start                         0x20000160   Data          96  libspace.o(.bss)
    __temporary_stack_top$libspace           0x200001c0   Data           0  libspace.o(.bss)



==============================================================================

Memory Map of the image

  Image Entry point : 0x080001d5

  Load Region LR_1 (Base: 0x08000000, Size: 0x000068c8, Max: 0xffffffff, ABSOLUTE)

    Execution Region ER_RO (Exec base: 0x08000000, Load base: 0x08000000, Size: 0x00006840, Max: 0xffffffff, ABSOLUTE)

    Exec Addr    Load Addr    Size         Type   Attr      Idx    E Section Name        Object

    0x08000000   0x08000000   0x00000130   Data   RO         1086    RESET               startup_stm32f10x_hd.o
    0x08000130   0x08000130   0x00000008   Code   RO         1711  * !!!main             c_w.l(__main.o)
    0x08000138   0x08000138   0x00000034   Code   RO         2036    !!!scatter          c_w.l(__scatter.o)
    0x0800016c   0x0800016c   0x0000001a   Code   RO         2038    !!handler_copy      c_w.l(__scatter_copy.o)
    0x08000186   0x08000186   0x00000002   PAD
    0x08000188   0x08000188   0x0000001c   Code   RO         2040    !!handler_zi        c_w.l(__scatter_zi.o)
    0x080001a4   0x080001a4   0x00000000   Code   RO         1704    .ARM.Collect$$_printf_percent$$00000000  c_w.l(_printf_percent.o)
    0x080001a4   0x080001a4   0x00000006   Code   RO         1703    .ARM.Collect$$_printf_percent$$00000009  c_w.l(_printf_d.o)
    0x080001aa   0x080001aa   0x00000004   Code   RO         1796    .ARM.Collect$$_printf_percent$$00000017  c_w.l(_printf_percent_end.o)
    0x080001ae   0x080001ae   0x00000002   Code   RO         1903    .ARM.Collect$$libinit$$00000000  c_w.l(libinit.o)
    0x080001b0   0x080001b0   0x00000000   Code   RO         1915    .ARM.Collect$$libinit$$00000002  c_w.l(libinit2.o)
    0x080001b0   0x080001b0   0x00000000   Code   RO         1917    .ARM.Collect$$libinit$$00000004  c_w.l(libinit2.o)
    0x080001b0   0x080001b0   0x00000000   Code   RO         1920    .ARM.Collect$$libinit$$0000000A  c_w.l(libinit2.o)
    0x080001b0   0x080001b0   0x00000000   Code   RO         1922    .ARM.Collect$$libinit$$0000000C  c_w.l(libinit2.o)
    0x080001b0   0x080001b0   0x00000000   Code   RO         1924    .ARM.Collect$$libinit$$0000000E  c_w.l(libinit2.o)
    0x080001b0   0x080001b0   0x00000000   Code   RO         1927    .ARM.Collect$$libinit$$00000011  c_w.l(libinit2.o)
    0x080001b0   0x080001b0   0x00000000   Code   RO         1929    .ARM.Collect$$libinit$$00000013  c_w.l(libinit2.o)
    0x080001b0   0x080001b0   0x00000000   Code   RO         1931    .ARM.Collect$$libinit$$00000015  c_w.l(libinit2.o)
    0x080001b0   0x080001b0   0x00000000   Code   RO         1933    .ARM.Collect$$libinit$$00000017  c_w.l(libinit2.o)
    0x080001b0   0x080001b0   0x00000000   Code   RO         1935    .ARM.Collect$$libinit$$00000019  c_w.l(libinit2.o)
    0x080001b0   0x080001b0   0x00000000   Code   RO         1937    .ARM.Collect$$libinit$$0000001B  c_w.l(libinit2.o)
    0x080001b0   0x080001b0   0x00000000   Code   RO         1939    .ARM.Collect$$libinit$$0000001D  c_w.l(libinit2.o)
    0x080001b0   0x080001b0   0x00000000   Code   RO         1941    .ARM.Collect$$libinit$$0000001F  c_w.l(libinit2.o)
    0x080001b0   0x080001b0   0x00000000   Code   RO         1943    .ARM.Collect$$libinit$$00000021  c_w.l(libinit2.o)
    0x080001b0   0x080001b0   0x00000000   Code   RO         1945    .ARM.Collect$$libinit$$00000023  c_w.l(libinit2.o)
    0x080001b0   0x080001b0   0x00000000   Code   RO         1947    .ARM.Collect$$libinit$$00000025  c_w.l(libinit2.o)
    0x080001b0   0x080001b0   0x00000000   Code   RO         1951    .ARM.Collect$$libinit$$0000002C  c_w.l(libinit2.o)
    0x080001b0   0x080001b0   0x00000000   Code   RO         1953    .ARM.Collect$$libinit$$0000002E  c_w.l(libinit2.o)
    0x080001b0   0x080001b0   0x00000000   Code   RO         1955    .ARM.Collect$$libinit$$00000030  c_w.l(libinit2.o)
    0x080001b0   0x080001b0   0x00000000   Code   RO         1957    .ARM.Collect$$libinit$$00000032  c_w.l(libinit2.o)
    0x080001b0   0x080001b0   0x00000002   Code   RO         1958    .ARM.Collect$$libinit$$00000033  c_w.l(libinit2.o)
    0x080001b2   0x080001b2   0x00000002   Code   RO         1988    .ARM.Collect$$libshutdown$$00000000  c_w.l(libshutdown.o)
    0x080001b4   0x080001b4   0x00000000   Code   RO         2002    .ARM.Collect$$libshutdown$$00000002  c_w.l(libshutdown2.o)
    0x080001b4   0x080001b4   0x00000000   Code   RO         2004    .ARM.Collect$$libshutdown$$00000004  c_w.l(libshutdown2.o)
    0x080001b4   0x080001b4   0x00000000   Code   RO         2007    .ARM.Collect$$libshutdown$$00000007  c_w.l(libshutdown2.o)
    0x080001b4   0x080001b4   0x00000000   Code   RO         2010    .ARM.Collect$$libshutdown$$0000000A  c_w.l(libshutdown2.o)
    0x080001b4   0x080001b4   0x00000000   Code   RO         2012    .ARM.Collect$$libshutdown$$0000000C  c_w.l(libshutdown2.o)
    0x080001b4   0x080001b4   0x00000000   Code   RO         2015    .ARM.Collect$$libshutdown$$0000000F  c_w.l(libshutdown2.o)
    0x080001b4   0x080001b4   0x00000002   Code   RO         2016    .ARM.Collect$$libshutdown$$00000010  c_w.l(libshutdown2.o)
    0x080001b6   0x080001b6   0x00000000   Code   RO         1787    .ARM.Collect$$rtentry$$00000000  c_w.l(__rtentry.o)
    0x080001b6   0x080001b6   0x00000000   Code   RO         1850    .ARM.Collect$$rtentry$$00000002  c_w.l(__rtentry2.o)
    0x080001b6   0x080001b6   0x00000006   Code   RO         1862    .ARM.Collect$$rtentry$$00000004  c_w.l(__rtentry4.o)
    0x080001bc   0x080001bc   0x00000000   Code   RO         1852    .ARM.Collect$$rtentry$$00000009  c_w.l(__rtentry2.o)
    0x080001bc   0x080001bc   0x00000004   Code   RO         1853    .ARM.Collect$$rtentry$$0000000A  c_w.l(__rtentry2.o)
    0x080001c0   0x080001c0   0x00000000   Code   RO         1855    .ARM.Collect$$rtentry$$0000000C  c_w.l(__rtentry2.o)
    0x080001c0   0x080001c0   0x00000008   Code   RO         1856    .ARM.Collect$$rtentry$$0000000D  c_w.l(__rtentry2.o)
    0x080001c8   0x080001c8   0x00000002   Code   RO         1908    .ARM.Collect$$rtexit$$00000000  c_w.l(rtexit.o)
    0x080001ca   0x080001ca   0x00000000   Code   RO         1962    .ARM.Collect$$rtexit$$00000002  c_w.l(rtexit2.o)
    0x080001ca   0x080001ca   0x00000004   Code   RO         1963    .ARM.Collect$$rtexit$$00000003  c_w.l(rtexit2.o)
    0x080001ce   0x080001ce   0x00000006   Code   RO         1964    .ARM.Collect$$rtexit$$00000004  c_w.l(rtexit2.o)
    0x080001d4   0x080001d4   0x00000040   Code   RO         1087  * .text               startup_stm32f10x_hd.o
    0x08000214   0x08000214   0x00000002   Code   RO         1647    .text               c_w.l(use_no_semi_2.o)
    0x08000216   0x08000216   0x00000048   Code   RO         1649    .text               c_w.l(llsdiv.o)
    0x0800025e   0x0800025e   0x00000002   PAD
    0x08000260   0x08000260   0x00000018   Code   RO         1653    .text               c_w.l(noretval__2printf.o)
    0x08000278   0x08000278   0x00000078   Code   RO         1659    .text               c_w.l(_printf_dec.o)
    0x080002f0   0x080002f0   0x00000138   Code   RO         1694    .text               c_w.l(__printf_flags_wp.o)
    0x08000428   0x08000428   0x00000058   Code   RO         1705    .text               c_w.l(memcmp.o)
    0x08000480   0x08000480   0x00000010   Code   RO         1707    .text               c_w.l(aeabi_memset.o)
    0x08000490   0x08000490   0x00000006   Code   RO         1709    .text               c_w.l(heapauxi.o)
    0x08000496   0x08000496   0x00000002   Code   RO         1785    .text               c_w.l(use_no_semi.o)
    0x08000498   0x08000498   0x000000ee   Code   RO         1788    .text               c_w.l(lludivv7m.o)
    0x08000586   0x08000586   0x00000016   Code   RO         1790    .text               c_w.l(_rserrno.o)
    0x0800059c   0x0800059c   0x000000b2   Code   RO         1792    .text               c_w.l(_printf_intcommon.o)
    0x0800064e   0x0800064e   0x00000002   PAD
    0x08000650   0x08000650   0x00000024   Code   RO         1794    .text               c_w.l(_printf_char_file.o)
    0x08000674   0x08000674   0x00000044   Code   RO         1797    .text               c_w.l(rt_memclr.o)
    0x080006b8   0x080006b8   0x00000008   Code   RO         1871    .text               c_w.l(rt_errno_addr_intlibspace.o)
    0x080006c0   0x080006c0   0x00000030   Code   RO         1873    .text               c_w.l(_printf_char_common.o)
    0x080006f0   0x080006f0   0x00000008   Code   RO         1875    .text               c_w.l(ferror.o)
    0x080006f8   0x080006f8   0x0000004e   Code   RO         1879    .text               c_w.l(rt_memclr_w.o)
    0x08000746   0x08000746   0x00000002   PAD
    0x08000748   0x08000748   0x00000008   Code   RO         1887    .text               c_w.l(libspace.o)
    0x08000750   0x08000750   0x0000004a   Code   RO         1890    .text               c_w.l(sys_stackheap_outer.o)
    0x0800079a   0x0800079a   0x00000012   Code   RO         1896    .text               c_w.l(exit.o)
    0x080007ac   0x080007ac   0x00000004   Code   RO          164    i.BusFault_Handler  stm32f10x_it.o
    0x080007b0   0x080007b0   0x000000dc   Code   RO            1    i.DATA_Report       main.o
    0x0800088c   0x0800088c   0x00000002   Code   RO          165    i.DebugMon_Handler  stm32f10x_it.o
    0x0800088e   0x0800088e   0x00000116   Code   RO         1133    i.GPIO_Init         stm32f10x_gpio.o
    0x080009a4   0x080009a4   0x00000004   Code   RO         1141    i.GPIO_SetBits      stm32f10x_gpio.o
    0x080009a8   0x080009a8   0x00000004   Code   RO          166    i.HardFault_Handler  stm32f10x_it.o
    0x080009ac   0x080009ac   0x00000050   Code   RO          287    i.LED_Init          led.o
    0x080009fc   0x080009fc   0x00000050   Code   RO          299    i.MPU_Get_Accelerometer  mpu6050.o
    0x08000a4c   0x08000a4c   0x00000050   Code   RO          300    i.MPU_Get_Gyroscope  mpu6050.o
    0x08000a9c   0x08000a9c   0x00000068   Code   RO          301    i.MPU_Get_Temperature  mpu6050.o
    0x08000b04   0x08000b04   0x0000004c   Code   RO          377    i.MPU_IIC_Ack       mpuiic.o
    0x08000b50   0x08000b50   0x0000000a   Code   RO          378    i.MPU_IIC_Delay     mpuiic.o
    0x08000b5a   0x08000b5a   0x00000002   PAD
    0x08000b5c   0x08000b5c   0x00000038   Code   RO          379    i.MPU_IIC_Init      mpuiic.o
    0x08000b94   0x08000b94   0x0000004c   Code   RO          380    i.MPU_IIC_NAck      mpuiic.o
    0x08000be0   0x08000be0   0x0000006c   Code   RO          381    i.MPU_IIC_Read_Byte  mpuiic.o
    0x08000c4c   0x08000c4c   0x0000005c   Code   RO          382    i.MPU_IIC_Send_Byte  mpuiic.o
    0x08000ca8   0x08000ca8   0x00000048   Code   RO          383    i.MPU_IIC_Start     mpuiic.o
    0x08000cf0   0x08000cf0   0x00000048   Code   RO          384    i.MPU_IIC_Stop      mpuiic.o
    0x08000d38   0x08000d38   0x00000064   Code   RO          385    i.MPU_IIC_Wait_Ack  mpuiic.o
    0x08000d9c   0x08000d9c   0x0000007a   Code   RO          302    i.MPU_Init          mpu6050.o
    0x08000e16   0x08000e16   0x00000002   PAD
    0x08000e18   0x08000e18   0x00000078   Code   RO            2    i.MPU_Read          main.o
    0x08000e90   0x08000e90   0x0000003a   Code   RO          303    i.MPU_Read_Byte     mpu6050.o
    0x08000eca   0x08000eca   0x00000074   Code   RO          304    i.MPU_Read_Len      mpu6050.o
    0x08000f3e   0x08000f3e   0x00000010   Code   RO          305    i.MPU_Set_Accel_Fsr  mpu6050.o
    0x08000f4e   0x08000f4e   0x00000010   Code   RO          306    i.MPU_Set_Gyro_Fsr  mpu6050.o
    0x08000f5e   0x08000f5e   0x0000003a   Code   RO          307    i.MPU_Set_LPF       mpu6050.o
    0x08000f98   0x08000f98   0x0000003a   Code   RO          308    i.MPU_Set_Rate      mpu6050.o
    0x08000fd2   0x08000fd2   0x00000044   Code   RO          309    i.MPU_Write_Byte    mpu6050.o
    0x08001016   0x08001016   0x00000060   Code   RO          310    i.MPU_Write_Len     mpu6050.o
    0x08001076   0x08001076   0x00000004   Code   RO          167    i.MemManage_Handler  stm32f10x_it.o
    0x0800107a   0x0800107a   0x00000002   Code   RO          168    i.NMI_Handler       stm32f10x_it.o
    0x0800107c   0x0800107c   0x00000070   Code   RO         1091    i.NVIC_Init         misc.o
    0x080010ec   0x080010ec   0x00000014   Code   RO         1092    i.NVIC_PriorityGroupConfig  misc.o
    0x08001100   0x08001100   0x00000002   Code   RO          169    i.PendSV_Handler    stm32f10x_it.o
    0x08001102   0x08001102   0x00000002   PAD
    0x08001104   0x08001104   0x00000020   Code   RO         1269    i.RCC_APB2PeriphClockCmd  stm32f10x_rcc.o
    0x08001124   0x08001124   0x000000d4   Code   RO         1277    i.RCC_GetClocksFreq  stm32f10x_rcc.o
    0x080011f8   0x080011f8   0x00000002   Code   RO          170    i.SVC_Handler       stm32f10x_it.o
    0x080011fa   0x080011fa   0x00000002   PAD
    0x080011fc   0x080011fc   0x000000a8   Code   RO            3    i.SYS_Init          main.o
    0x080012a4   0x080012a4   0x00000008   Code   RO          253    i.SetSysClock       system_stm32f10x.o
    0x080012ac   0x080012ac   0x000000e0   Code   RO          254    i.SetSysClockTo72   system_stm32f10x.o
    0x0800138c   0x0800138c   0x00000028   Code   RO         1095    i.SysTick_CLKSourceConfig  misc.o
    0x080013b4   0x080013b4   0x00000002   Code   RO          171    i.SysTick_Handler   stm32f10x_it.o
    0x080013b6   0x080013b6   0x00000002   PAD
    0x080013b8   0x080013b8   0x00000060   Code   RO          256    i.SystemInit        system_stm32f10x.o
    0x08001418   0x08001418   0x00000088   Code   RO         1033    i.USART1_IRQHandler  usart.o
    0x080014a0   0x080014a0   0x00000018   Code   RO         1469    i.USART_Cmd         stm32f10x_usart.o
    0x080014b8   0x080014b8   0x00000054   Code   RO         1473    i.USART_GetITStatus  stm32f10x_usart.o
    0x0800150c   0x0800150c   0x0000004a   Code   RO         1475    i.USART_ITConfig    stm32f10x_usart.o
    0x08001556   0x08001556   0x00000002   PAD
    0x08001558   0x08001558   0x000000d8   Code   RO         1476    i.USART_Init        stm32f10x_usart.o
    0x08001630   0x08001630   0x0000000a   Code   RO         1483    i.USART_ReceiveData  stm32f10x_usart.o
    0x0800163a   0x0800163a   0x00000004   Code   RO          172    i.UsageFault_Handler  stm32f10x_it.o
    0x0800163e   0x0800163e   0x00000028   Code   RO         1836    i.__ARM_fpclassify  m_ws.l(fpclassify.o)
    0x08001666   0x08001666   0x000000aa   Code   RO         1838    i.__kernel_poly     m_ws.l(poly.o)
    0x08001710   0x08001710   0x00000006   Code   RO         1823    i.__mathlib_dbl_infnan  m_ws.l(dunder.o)
    0x08001716   0x08001716   0x00000004   Code   RO         1824    i.__mathlib_dbl_infnan2  m_ws.l(dunder.o)
    0x0800171a   0x0800171a   0x0000000c   Code   RO         1825    i.__mathlib_dbl_invalid  m_ws.l(dunder.o)
    0x08001726   0x08001726   0x00000002   PAD
    0x08001728   0x08001728   0x00000010   Code   RO         1828    i.__mathlib_dbl_underflow  m_ws.l(dunder.o)
    0x08001738   0x08001738   0x0000000e   Code   RO         1692    i._is_digit         c_w.l(__printf_wp.o)
    0x08001746   0x08001746   0x00000004   Code   RO         1034    i._sys_exit         usart.o
    0x0800174a   0x0800174a   0x00000002   PAD
    0x0800174c   0x0800174c   0x000000a8   Code   RO          467    i.accel_self_test   inv_mpu.o
    0x080017f4   0x080017f4   0x00000270   Code   RO         1768    i.asin              m_ws.l(asin.o)
    0x08001a64   0x08001a64   0x00000220   Code   RO         1813    i.atan              m_ws.l(atan.o)
    0x08001c84   0x08001c84   0x00000180   Code   RO         1778    i.atan2             m_ws.l(atan2.o)
    0x08001e04   0x08001e04   0x00000064   Code   RO          792    i.decode_gesture    inv_mpu_dmp_motion_driver.o
    0x08001e68   0x08001e68   0x00000044   Code   RO          978    i.delay_init        delay.o
    0x08001eac   0x08001eac   0x0000004c   Code   RO          979    i.delay_ms          delay.o
    0x08001ef8   0x08001ef8   0x0000004c   Code   RO          980    i.delay_us          delay.o
    0x08001f44   0x08001f44   0x0000003c   Code   RO          793    i.dmp_enable_6x_lp_quat  inv_mpu_dmp_motion_driver.o
    0x08001f80   0x08001f80   0x0000021c   Code   RO          794    i.dmp_enable_feature  inv_mpu_dmp_motion_driver.o
    0x0800219c   0x0800219c   0x00000058   Code   RO          795    i.dmp_enable_gyro_cal  inv_mpu_dmp_motion_driver.o
    0x080021f4   0x080021f4   0x0000003c   Code   RO          796    i.dmp_enable_lp_quat  inv_mpu_dmp_motion_driver.o
    0x08002230   0x08002230   0x00000018   Code   RO          801    i.dmp_load_motion_driver_firmware  inv_mpu_dmp_motion_driver.o
    0x08002248   0x08002248   0x000001cc   Code   RO          802    i.dmp_read_fifo     inv_mpu_dmp_motion_driver.o
    0x08002414   0x08002414   0x00000130   Code   RO          805    i.dmp_set_accel_bias  inv_mpu_dmp_motion_driver.o
    0x08002544   0x08002544   0x00000070   Code   RO          806    i.dmp_set_fifo_rate  inv_mpu_dmp_motion_driver.o
    0x080025b4   0x080025b4   0x00000130   Code   RO          807    i.dmp_set_gyro_bias  inv_mpu_dmp_motion_driver.o
    0x080026e4   0x080026e4   0x00000138   Code   RO          809    i.dmp_set_orientation  inv_mpu_dmp_motion_driver.o
    0x0800281c   0x0800281c   0x00000038   Code   RO          812    i.dmp_set_shake_reject_thresh  inv_mpu_dmp_motion_driver.o
    0x08002854   0x08002854   0x00000026   Code   RO          813    i.dmp_set_shake_reject_time  inv_mpu_dmp_motion_driver.o
    0x0800287a   0x0800287a   0x00000026   Code   RO          814    i.dmp_set_shake_reject_timeout  inv_mpu_dmp_motion_driver.o
    0x080028a0   0x080028a0   0x00000046   Code   RO          815    i.dmp_set_tap_axes  inv_mpu_dmp_motion_driver.o
    0x080028e6   0x080028e6   0x00000026   Code   RO          816    i.dmp_set_tap_count  inv_mpu_dmp_motion_driver.o
    0x0800290c   0x0800290c   0x000001a0   Code   RO          817    i.dmp_set_tap_thresh  inv_mpu_dmp_motion_driver.o
    0x08002aac   0x08002aac   0x00000026   Code   RO          818    i.dmp_set_tap_time  inv_mpu_dmp_motion_driver.o
    0x08002ad2   0x08002ad2   0x00000026   Code   RO          819    i.dmp_set_tap_time_multi  inv_mpu_dmp_motion_driver.o
    0x08002af8   0x08002af8   0x0000001c   Code   RO         1035    i.fputc             usart.o
    0x08002b14   0x08002b14   0x000000b4   Code   RO          468    i.get_accel_prod_shift  inv_mpu.o
    0x08002bc8   0x08002bc8   0x00000470   Code   RO          469    i.get_st_biases     inv_mpu.o
    0x08003038   0x08003038   0x00000110   Code   RO          470    i.gyro_self_test    inv_mpu.o
    0x08003148   0x08003148   0x00000028   Code   RO          471    i.inv_orientation_matrix_to_scalar  inv_mpu.o
    0x08003170   0x08003170   0x0000004e   Code   RO          472    i.inv_row_2_scale   inv_mpu.o
    0x080031be   0x080031be   0x00000010   Code   RO            4    i.main              main.o
    0x080031ce   0x080031ce   0x00000002   Code   RO          473    i.mget_ms           inv_mpu.o
    0x080031d0   0x080031d0   0x0000006e   Code   RO          437    i.mpu6050_send_data  niming.o
    0x0800323e   0x0800323e   0x00000002   PAD
    0x08003240   0x08003240   0x00000070   Code   RO          474    i.mpu_configure_fifo  inv_mpu.o
    0x080032b0   0x080032b0   0x00000224   Code   RO          475    i.mpu_dmp_get_data  inv_mpu.o
    0x080034d4   0x080034d4   0x000000a0   Code   RO          476    i.mpu_dmp_init      inv_mpu.o
    0x08003574   0x08003574   0x0000004c   Code   RO          477    i.mpu_get_accel_fsr  inv_mpu.o
    0x080035c0   0x080035c0   0x00000054   Code   RO          479    i.mpu_get_accel_sens  inv_mpu.o
    0x08003614   0x08003614   0x00000010   Code   RO          484    i.mpu_get_fifo_config  inv_mpu.o
    0x08003624   0x08003624   0x00000044   Code   RO          485    i.mpu_get_gyro_fsr  inv_mpu.o
    0x08003668   0x08003668   0x00000050   Code   RO          487    i.mpu_get_gyro_sens  inv_mpu.o
    0x080036b8   0x080036b8   0x00000050   Code   RO          489    i.mpu_get_lpf       inv_mpu.o
    0x08003708   0x08003708   0x00000020   Code   RO          491    i.mpu_get_sample_rate  inv_mpu.o
    0x08003728   0x08003728   0x000001f0   Code   RO          493    i.mpu_init          inv_mpu.o
    0x08003918   0x08003918   0x000000b8   Code   RO          494    i.mpu_load_firmware  inv_mpu.o
    0x080039d0   0x080039d0   0x000000e0   Code   RO          495    i.mpu_lp_accel_mode  inv_mpu.o
    0x08003ab0   0x08003ab0   0x000000c0   Code   RO          498    i.mpu_read_fifo_stream  inv_mpu.o
    0x08003b70   0x08003b70   0x00000080   Code   RO          499    i.mpu_read_mem      inv_mpu.o
    0x08003bf0   0x08003bf0   0x000001c8   Code   RO          502    i.mpu_reset_fifo    inv_mpu.o
    0x08003db8   0x08003db8   0x0000011c   Code   RO          503    i.mpu_run_self_test  inv_mpu.o
    0x08003ed4   0x08003ed4   0x00000084   Code   RO          505    i.mpu_set_accel_fsr  inv_mpu.o
    0x08003f58   0x08003f58   0x0000014c   Code   RO          506    i.mpu_set_bypass    inv_mpu.o
    0x080040a4   0x080040a4   0x00000090   Code   RO          508    i.mpu_set_dmp_state  inv_mpu.o
    0x08004134   0x08004134   0x00000088   Code   RO          509    i.mpu_set_gyro_fsr  inv_mpu.o
    0x080041bc   0x080041bc   0x0000006c   Code   RO          510    i.mpu_set_int_latched  inv_mpu.o
    0x08004228   0x08004228   0x00000084   Code   RO          512    i.mpu_set_lpf       inv_mpu.o
    0x080042ac   0x080042ac   0x0000009c   Code   RO          513    i.mpu_set_sample_rate  inv_mpu.o
    0x08004348   0x08004348   0x000000d0   Code   RO          514    i.mpu_set_sensors   inv_mpu.o
    0x08004418   0x08004418   0x00000080   Code   RO          515    i.mpu_write_mem     inv_mpu.o
    0x08004498   0x08004498   0x00000094   Code   RO          516    i.run_self_test     inv_mpu.o
    0x0800452c   0x0800452c   0x00000090   Code   RO          517    i.set_int_enable    inv_mpu.o
    0x080045bc   0x080045bc   0x0000004c   Code   RO         1842    i.sqrt              m_ws.l(sqrt.o)
    0x08004608   0x08004608   0x000000a0   Code   RO         1036    i.uart_init         usart.o
    0x080046a8   0x080046a8   0x00000078   Code   RO          438    i.usart1_niming_report  niming.o
    0x08004720   0x08004720   0x000000c0   Code   RO          439    i.usart1_report_imu  niming.o
    0x080047e0   0x080047e0   0x0000001c   Code   RO          440    i.usart1_send_char  niming.o
    0x080047fc   0x080047fc   0x00000062   Code   RO         1713    x$fpl$d2f           fz_ws.l(d2f.o)
    0x0800485e   0x0800485e   0x00000002   PAD
    0x08004860   0x08004860   0x00000150   Code   RO         1715    x$fpl$dadd          fz_ws.l(daddsub_clz.o)
    0x080049b0   0x080049b0   0x00000010   Code   RO         1881    x$fpl$dcheck1       fz_ws.l(dcheck1.o)
    0x080049c0   0x080049c0   0x000002b0   Code   RO         1722    x$fpl$ddiv          fz_ws.l(ddiv.o)
    0x08004c70   0x08004c70   0x0000002e   Code   RO         1726    x$fpl$dflt          fz_ws.l(dflt_clz.o)
    0x08004c9e   0x08004c9e   0x00000002   PAD
    0x08004ca0   0x08004ca0   0x00000154   Code   RO         1731    x$fpl$dmul          fz_ws.l(dmul.o)
    0x08004df4   0x08004df4   0x0000009c   Code   RO         1799    x$fpl$dnaninf       fz_ws.l(dnaninf.o)
    0x08004e90   0x08004e90   0x0000000c   Code   RO         1801    x$fpl$dretinf       fz_ws.l(dretinf.o)
    0x08004e9c   0x08004e9c   0x00000016   Code   RO         1716    x$fpl$drsb          fz_ws.l(daddsub_clz.o)
    0x08004eb2   0x08004eb2   0x00000002   PAD
    0x08004eb4   0x08004eb4   0x000001cc   Code   RO         1885    x$fpl$dsqrt         fz_ws.l(dsqrt_noumaal.o)
    0x08005080   0x08005080   0x000001d4   Code   RO         1717    x$fpl$dsub          fz_ws.l(daddsub_clz.o)
    0x08005254   0x08005254   0x00000056   Code   RO         1733    x$fpl$f2d           fz_ws.l(f2d.o)
    0x080052aa   0x080052aa   0x00000002   PAD
    0x080052ac   0x080052ac   0x000000c4   Code   RO         1735    x$fpl$fadd          fz_ws.l(faddsub_clz.o)
    0x08005370   0x08005370   0x00000018   Code   RO         1803    x$fpl$fcmpinf       fz_ws.l(fcmpi.o)
    0x08005388   0x08005388   0x00000184   Code   RO         1742    x$fpl$fdiv          fz_ws.l(fdiv.o)
    0x0800550c   0x0800550c   0x00000068   Code   RO         1745    x$fpl$feqf          fz_ws.l(feqf.o)
    0x08005574   0x08005574   0x00000036   Code   RO         1747    x$fpl$ffix          fz_ws.l(ffix.o)
    0x080055aa   0x080055aa   0x00000002   PAD
    0x080055ac   0x080055ac   0x0000003e   Code   RO         1751    x$fpl$ffixu         fz_ws.l(ffixu.o)
    0x080055ea   0x080055ea   0x00000002   PAD
    0x080055ec   0x080055ec   0x00000030   Code   RO         1756    x$fpl$fflt          fz_ws.l(fflt_clz.o)
    0x0800561c   0x0800561c   0x00000026   Code   RO         1755    x$fpl$ffltu         fz_ws.l(fflt_clz.o)
    0x08005642   0x08005642   0x00000002   PAD
    0x08005644   0x08005644   0x00000068   Code   RO         1761    x$fpl$fleqf         fz_ws.l(fleqf.o)
    0x080056ac   0x080056ac   0x00000102   Code   RO         1763    x$fpl$fmul          fz_ws.l(fmul.o)
    0x080057ae   0x080057ae   0x0000008c   Code   RO         1805    x$fpl$fnaninf       fz_ws.l(fnaninf.o)
    0x0800583a   0x0800583a   0x0000000a   Code   RO         1807    x$fpl$fretinf       fz_ws.l(fretinf.o)
    0x08005844   0x08005844   0x00000062   Code   RO         1765    x$fpl$frleqf        fz_ws.l(frleqf.o)
    0x080058a6   0x080058a6   0x00000002   PAD
    0x080058a8   0x080058a8   0x000000ea   Code   RO         1737    x$fpl$fsub          fz_ws.l(faddsub_clz.o)
    0x08005992   0x08005992   0x00000064   Code   RO         1906    x$fpl$retnan        fz_ws.l(retnan.o)
    0x080059f6   0x080059f6   0x0000005c   Code   RO         1809    x$fpl$scalbn        fz_ws.l(scalbn.o)
    0x08005a52   0x08005a52   0x00000030   Code   RO         1959    x$fpl$trapveneer    fz_ws.l(trapv.o)
    0x08005a82   0x08005a82   0x00000000   Code   RO         1811    x$fpl$usenofp       fz_ws.l(usenofp.o)
    0x08005a82   0x08005a82   0x00000002   PAD
    0x08005a84   0x08005a84   0x00000050   Data   RO          519    .constdata          inv_mpu.o
    0x08005ad4   0x08005ad4   0x00000bf6   Data   RO          821    .constdata          inv_mpu_dmp_motion_driver.o
    0x080066ca   0x080066ca   0x00000011   Data   RO         1695    .constdata          c_w.l(__printf_flags_wp.o)
    0x080066db   0x080066db   0x00000005   PAD
    0x080066e0   0x080066e0   0x00000050   Data   RO         1769    .constdata          m_ws.l(asin.o)
    0x08006730   0x08006730   0x00000098   Data   RO         1814    .constdata          m_ws.l(atan.o)
    0x080067c8   0x080067c8   0x00000008   Data   RO         1840    .constdata          m_ws.l(qnan.o)
    0x080067d0   0x080067d0   0x0000004d   Data   RO          520    .conststring        inv_mpu.o
    0x0800681d   0x0800681d   0x00000003   PAD
    0x08006820   0x08006820   0x00000020   Data   RO         2034    Region$$Table       anon$$obj.o


    Execution Region ER_RW (Exec base: 0x20000000, Load base: 0x08006840, Size: 0x00000088, Max: 0xffffffff, ABSOLUTE)

    Exec Addr    Load Addr    Size         Type   Attr      Idx    E Section Name        Object

    0x20000000   0x08006840   0x0000001c   Data   RW            6    .data               main.o
    0x2000001c   0x0800685c   0x00000014   Data   RW          257    .data               system_stm32f10x.o
    0x20000030   0x08006870   0x00000035   Data   RW          521    .data               inv_mpu.o
    0x20000065   0x080068a5   0x00000001   PAD
    0x20000066   0x080068a6   0x00000004   Data   RW          981    .data               delay.o
    0x2000006a   0x080068aa   0x00000002   PAD
    0x2000006c   0x080068ac   0x00000006   Data   RW         1038    .data               usart.o
    0x20000072   0x080068b2   0x00000014   Data   RW         1297    .data               stm32f10x_rcc.o


    Execution Region ER_ZI (Exec base: 0x20000088, Load base: 0x080068c8, Size: 0x00000738, Max: 0xffffffff, ABSOLUTE)

    Exec Addr    Load Addr    Size         Type   Attr      Idx    E Section Name        Object

    0x20000088        -       0x00000010   Zero   RW          820    .bss                inv_mpu_dmp_motion_driver.o
    0x20000098        -       0x000000c8   Zero   RW         1037    .bss                usart.o
    0x20000160        -       0x00000060   Zero   RW         1888    .bss                c_w.l(libspace.o)
    0x200001c0        -       0x00000200   Zero   RW         1085    HEAP                startup_stm32f10x_hd.o
    0x200003c0        -       0x00000400   Zero   RW         1084    STACK               startup_stm32f10x_hd.o


==============================================================================

Image component sizes


      Code (inc. data)   RO Data    RW Data    ZI Data      Debug   Object Name

       220         26          0          4          0       1831   delay.o
      6864        290        157         53          0      32244   inv_mpu.o
      3096        122       3062          0         16      21362   inv_mpu_dmp_motion_driver.o
        80          8          0          0          0        527   led.o
       524        146          0         28          0     235706   main.o
       172         22          0          0          0       2161   misc.o
       872         18          0          0          0       8589   mpu6050.o
       662        100          0          0          0       5086   mpuiic.o
       450          6          0          0          0       3570   niming.o
        64         26        304          0       1536        816   startup_stm32f10x_hd.o
       282          0          0          0          0       2579   stm32f10x_gpio.o
        26          0          0          0          0       3946   stm32f10x_it.o
       244         26          0         20          0       3973   stm32f10x_rcc.o
       408          6          0          0          0       5166   stm32f10x_usart.o
         0          0          0          0          0         32   sys.o
       328         28          0         20          0       2217   system_stm32f10x.o
       328         26          0          6        200       4272   usart.o

    ----------------------------------------------------------------------
     14636        850       3558        136       1752     334077   Object Totals
         0          0         32          0          0          0   (incl. Generated)
        16          0          3          5          0          0   (incl. Padding)

    ----------------------------------------------------------------------

      Code (inc. data)   RO Data    RW Data    ZI Data      Debug   Library Member Name

         8          0          0          0          0         68   __main.o
       312          4         17          0          0         92   __printf_flags_wp.o
        14          0          0          0          0         68   __printf_wp.o
         0          0          0          0          0          0   __rtentry.o
        12          0          0          0          0          0   __rtentry2.o
         6          0          0          0          0          0   __rtentry4.o
        52          8          0          0          0          0   __scatter.o
        26          0          0          0          0          0   __scatter_copy.o
        28          0          0          0          0          0   __scatter_zi.o
        48          6          0          0          0         96   _printf_char_common.o
        36          4          0          0          0         80   _printf_char_file.o
         6          0          0          0          0          0   _printf_d.o
       120         16          0          0          0         92   _printf_dec.o
       178          0          0          0          0         88   _printf_intcommon.o
         0          0          0          0          0          0   _printf_percent.o
         4          0          0          0          0          0   _printf_percent_end.o
        22          0          0          0          0        100   _rserrno.o
        16          0          0          0          0         68   aeabi_memset.o
        18          0          0          0          0         80   exit.o
         8          0          0          0          0         68   ferror.o
         6          0          0          0          0        152   heapauxi.o
         2          0          0          0          0          0   libinit.o
         2          0          0          0          0          0   libinit2.o
         2          0          0          0          0          0   libshutdown.o
         2          0          0          0          0          0   libshutdown2.o
         8          4          0          0         96         68   libspace.o
        72          0          0          0          0         76   llsdiv.o
       238          0          0          0          0        100   lludivv7m.o
        88          0          0          0          0         76   memcmp.o
        24          4          0          0          0         84   noretval__2printf.o
         8          4          0          0          0         68   rt_errno_addr_intlibspace.o
        68          0          0          0          0         68   rt_memclr.o
        78          0          0          0          0         80   rt_memclr_w.o
         2          0          0          0          0          0   rtexit.o
        10          0          0          0          0          0   rtexit2.o
        74          0          0          0          0         80   sys_stackheap_outer.o
         2          0          0          0          0         68   use_no_semi.o
         2          0          0          0          0         68   use_no_semi_2.o
        98          4          0          0          0         92   d2f.o
       826         16          0          0          0        348   daddsub_clz.o
        16          4          0          0          0         68   dcheck1.o
       688        140          0          0          0        208   ddiv.o
        46          0          0          0          0         68   dflt_clz.o
       340         12          0          0          0        104   dmul.o
       156          4          0          0          0         92   dnaninf.o
        12          0          0          0          0         68   dretinf.o
       460         56          0          0          0        120   dsqrt_noumaal.o
        86          4          0          0          0         84   f2d.o
       430          8          0          0          0        168   faddsub_clz.o
        24          0          0          0          0         68   fcmpi.o
       388         76          0          0          0         96   fdiv.o
       104          4          0          0          0         84   feqf.o
        54          4          0          0          0         84   ffix.o
        62          4          0          0          0         84   ffixu.o
        86          0          0          0          0        136   fflt_clz.o
       104          4          0          0          0         84   fleqf.o
       258          4          0          0          0         84   fmul.o
       140          4          0          0          0         84   fnaninf.o
        10          0          0          0          0         68   fretinf.o
        98          0          0          0          0         68   frleqf.o
       100          0          0          0          0         68   retnan.o
        92          0          0          0          0         68   scalbn.o
        48          0          0          0          0         68   trapv.o
         0          0          0          0          0          0   usenofp.o
       624         52         80          0          0        168   asin.o
       544         70        152          0          0        124   atan.o
       384         38          0          0          0        144   atan2.o
        38          6          0          0          0        272   dunder.o
        40          0          0          0          0         68   fpclassify.o
       170          0          0          0          0         96   poly.o
         0          0          8          0          0          0   qnan.o
        76          0          0          0          0         84   sqrt.o

    ----------------------------------------------------------------------
      8232        564        262          0         96       5408   Library Totals
        28          0          5          0          0          0   (incl. Padding)

    ----------------------------------------------------------------------

      Code (inc. data)   RO Data    RW Data    ZI Data      Debug   Library Name

      1602         50         17          0         96       1888   c_w.l
      4726        348          0          0          0       2564   fz_ws.l
      1876        166        240          0          0        956   m_ws.l

    ----------------------------------------------------------------------
      8232        564        262          0         96       5408   Library Totals

    ----------------------------------------------------------------------

==============================================================================


      Code (inc. data)   RO Data    RW Data    ZI Data      Debug   

     22868       1414       3820        136       1848     330745   Grand Totals
     22868       1414       3820        136       1848     330745   ELF Image Totals
     22868       1414       3820        136          0          0   ROM Totals

==============================================================================

    Total RO  Size (Code + RO Data)                26688 (  26.06kB)
    Total RW  Size (RW Data + ZI Data)              1984 (   1.94kB)
    Total ROM Size (Code + RO Data + RW Data)      26824 (  26.20kB)

==============================================================================

