Component: ARM Compiler 5.06 update 4 (build 422) Tool: armlink [4d35d2]

==============================================================================

Section Cross References

    main.o(i.DATA_Report) refers to _printf_pad.o(.text) for _printf_pre_padding
    main.o(i.DATA_Report) refers to _printf_percent.o(.ARM.Collect$$_printf_percent$$00000000) for _printf_percent
    main.o(i.DATA_Report) refers to _printf_d.o(.ARM.Collect$$_printf_percent$$00000009) for _printf_d
    main.o(i.DATA_Report) refers to _printf_dec.o(.text) for _printf_int_dec
    main.o(i.DATA_Report) refers to noretval__2sprintf.o(.text) for __2sprintf
    main.o(i.DATA_Report) refers to lcd_guidriver.o(i.Gui_DrawFont_GBK16) for Gui_DrawFont_GBK16
    main.o(i.DATA_Report) refers to noretval__2printf.o(.text) for __2printf
    main.o(i.DATA_Report) refers to fmul.o(x$fpl$fmul) for __aeabi_fmul
    main.o(i.DATA_Report) refers to ffix.o(x$fpl$ffix) for __aeabi_f2iz
    main.o(i.DATA_Report) refers to key.o(i.KEY_Scan) for KEY_Scan
    main.o(i.DATA_Report) refers to main.o(i.MPU_Mode) for MPU_Mode
    main.o(i.DATA_Report) refers to niming.o(i.mpu6050_send_data) for mpu6050_send_data
    main.o(i.DATA_Report) refers to niming.o(i.usart1_report_imu) for usart1_report_imu
    main.o(i.DATA_Report) refers to main.o(.data) for mpu6050
    main.o(i.DATA_Report) refers to main.o(.bss) for tmp_buf
    main.o(i.MPU_Mode) refers to lcd_basedriver.o(i.Lcd_Clear) for Lcd_Clear
    main.o(i.MPU_Mode) refers to lcd_guidriver.o(i.Gui_DrawFont_GBK16) for Gui_DrawFont_GBK16
    main.o(i.MPU_Mode) refers to key.o(i.KEY_Scan) for KEY_Scan
==============================================================================

Removing Unused input sections from the image.

    Removing system_stm32f10x.o(i.SystemCoreClockUpdate), (164 bytes).
    Removing lcd_basedriver.o(i.Lcd_ReadPoint), (24 bytes).
    Removing lcd_basedriver.o(i.Lcd_SetXY), (20 bytes).
    Removing lcd_basedriver.o(i.Lcd_WriteReg), (20 bytes).
    Removing lcd_guidriver.o(i.DisplayButtonDown), (130 bytes).
    Removing lcd_guidriver.o(i.DisplayButtonUp), (130 bytes).
    Removing lcd_guidriver.o(i.Gui_Circle), (300 bytes).
    Removing lcd_guidriver.o(i.Gui_DrawFont_GBK24), (496 bytes).
    Removing lcd_guidriver.o(i.Gui_DrawFont_Num32), (128 bytes).
    Removing lcd_guidriver.o(i.Gui_DrawLine), (186 bytes).
    Removing lcd_guidriver.o(i.Gui_box), (188 bytes).
    Removing lcd_guidriver.o(i.Gui_box2), (386 bytes).
    Removing lcd_guidriver.o(i.LCD_BGR2RGB), (26 bytes).
    Removing inv_mpu.o(i.mpu_get_accel_reg), (116 bytes).
    Removing inv_mpu.o(i.mpu_get_compass_fsr), (8 bytes).
    Removing inv_mpu.o(i.mpu_get_compass_reg), (8 bytes).
    Removing inv_mpu.o(i.mpu_get_compass_sample_rate), (10 bytes).
    Removing inv_mpu.o(i.mpu_get_dmp_state), (20 bytes).
==============================================================================

Image Symbol Table

    Local Symbols

    Symbol Name                              Value     Ov Type        Size  Object(Section)

    ../clib/angel/boardlib.s                 0x00000000   Number         0  boardinit1.o ABSOLUTE
    ../clib/angel/boardlib.s                 0x00000000   Number         0  boardshut.o ABSOLUTE
    ../clib/angel/boardlib.s                 0x00000000   Number         0  boardinit2.o ABSOLUTE
    ../clib/angel/boardlib.s                 0x00000000   Number         0  boardinit3.o ABSOLUTE
    ../clib/angel/handlers.s                 0x00000000   Number         0  __scatter_copy.o ABSOLUTE
    ../clib/angel/handlers.s                 0x00000000   Number         0  __scatter_zi.o ABSOLUTE
    ../clib/angel/kernel.s                   0x00000000   Number         0  __rtentry2.o ABSOLUTE
    ../clib/angel/kernel.s                   0x00000000   Number         0  __rtentry.o ABSOLUTE
    ../clib/angel/kernel.s                   0x00000000   Number         0  rtexit2.o ABSOLUTE
    ../clib/angel/kernel.s                   0x00000000   Number         0  rtexit.o ABSOLUTE
    ../clib/angel/kernel.s                   0x00000000   Number         0  __rtentry4.o ABSOLUTE
    ../clib/angel/rt.s                       0x00000000   Number         0  rt_errno_addr.o ABSOLUTE
    ../clib/angel/rt.s                       0x00000000   Number         0  rt_errno_addr_intlibspace.o ABSOLUTE
    ../clib/angel/rt.s                       0x00000000   Number         0  rt_div0.o ABSOLUTE
    ../clib/angel/rt.s                       0x00000000   Number         0  rt_raise.o ABSOLUTE
    ../clib/angel/rt.s                       0x00000000   Number         0  aeabi_ldiv0_sigfpe.o ABSOLUTE
    ../clib/angel/rt.s                       0x00000000   Number         0  aeabi_ldiv0.o ABSOLUTE
    ../clib/angel/scatter.s                  0x00000000   Number         0  __scatter.o ABSOLUTE
    ../clib/angel/startup.s                  0x00000000   Number         0  __main.o ABSOLUTE
    ../clib/angel/sys.s                      0x00000000   Number         0  libspace.o ABSOLUTE
    ../clib/angel/sys.s                      0x00000000   Number         0  use_no_semi.o ABSOLUTE
    ../clib/angel/sys.s                      0x00000000   Number         0  sys_stackheap_outer.o ABSOLUTE
    ../clib/angel/sys.s                      0x00000000   Number         0  indicate_semi.o ABSOLUTE
    ../clib/angel/sys.s                      0x00000000   Number         0  use_no_semi_2.o ABSOLUTE
    ../clib/angel/sysapp.c                   0x00000000   Number         0  sys_wrch.o ABSOLUTE
    ../clib/angel/sysapp.c                   0x00000000   Number         0  sys_command.o ABSOLUTE
    ../clib/armsys.c                         0x00000000   Number         0  argv_veneer.o ABSOLUTE
    ../clib/armsys.c                         0x00000000   Number         0  no_argv.o ABSOLUTE
    ../clib/armsys.c                         0x00000000   Number         0  _get_argv_nomalloc.o ABSOLUTE
    ../clib/armsys.c                         0x00000000   Number         0  argv_veneer.o ABSOLUTE
    ../clib/fenv.c                           0x00000000   Number         0  _rserrno.o ABSOLUTE
    ../clib/heapalloc.c                      0x00000000   Number         0  hrguard.o ABSOLUTE
    ../clib/heapaux.c                        0x00000000   Number         0  heapauxi.o ABSOLUTE
    ../clib/libinit.s                        0x00000000   Number         0  libinit.o ABSOLUTE
    ../clib/libinit.s                        0x00000000   Number         0  libinit2.o ABSOLUTE
    ../clib/libinit.s                        0x00000000   Number         0  libshutdown2.o ABSOLUTE
    ../clib/libinit.s                        0x00000000   Number         0  libshutdown.o ABSOLUTE
    ../clib/longlong.s                       0x00000000   Number         0  llsdiv.o ABSOLUTE
    ../clib/longlong.s                       0x00000000   Number         0  lludivv7m.o ABSOLUTE
    ../clib/memcpset.s                       0x00000000   Number         0  rt_memclr.o ABSOLUTE
    ../clib/memcpset.s                       0x00000000   Number         0  aeabi_memset.o ABSOLUTE
    ../clib/memcpset.s                       0x00000000   Number         0  rt_memclr_w.o ABSOLUTE
    ../clib/misc.s                           0x00000000   Number         0  printf_stubs.o ABSOLUTE
    ../clib/printf.c                         0x00000000   Number         0  __2sprintf.o ABSOLUTE
    ../clib/printf.c                         0x00000000   Number         0  noretval__2printf.o ABSOLUTE
    ../clib/printf.c                         0x00000000   Number         0  _printf_hex_int_ll_ptr.o ABSOLUTE
    ../clib/printf.c                         0x00000000   Number         0  noretval__2sprintf.o ABSOLUTE
    ../clib/printf.c                         0x00000000   Number         0  __printf_ss.o ABSOLUTE
    ../clib/printf.c                         0x00000000   Number         0  _printf_hex_ll_ptr.o ABSOLUTE
    ../clib/printf.c                         0x00000000   Number         0  __printf.o ABSOLUTE
    ../clib/printf.c                         0x00000000   Number         0  _printf_pad.o ABSOLUTE
    ../clib/printf.c                         0x00000000   Number         0  __printf_flags_ss.o ABSOLUTE
    ../clib/printf.c                         0x00000000   Number         0  _printf_dec.o ABSOLUTE
    ../clib/printf.c                         0x00000000   Number         0  _printf_hex_ll.o ABSOLUTE
    ../clib/printf.c                         0x00000000   Number         0  __printf_wp.o ABSOLUTE
    ../clib/printf.c                         0x00000000   Number         0  _printf_hex_int_ll.o ABSOLUTE
    ../clib/printf.c                         0x00000000   Number         0  _printf_hex_ptr.o ABSOLUTE
    ../clib/printf.c                         0x00000000   Number         0  __printf_flags_wp.o ABSOLUTE
    ../clib/printf.c                         0x00000000   Number         0  _printf_hex_int_ptr.o ABSOLUTE
    ../clib/printf.c                         0x00000000   Number         0  __2printf.o ABSOLUTE
    ../clib/printf.c                         0x00000000   Number         0  _printf_intcommon.o ABSOLUTE
    ../clib/printf.c                         0x00000000   Number         0  _printf_char_common.o ABSOLUTE
    ../clib/printf.c                         0x00000000   Number         0  __printf_ss_wp.o ABSOLUTE
    ../clib/printf.c                         0x00000000   Number         0  _sputc.o ABSOLUTE
    ../clib/printf.c                         0x00000000   Number         0  __printf_nopercent.o ABSOLUTE
    ../clib/printf.c                         0x00000000   Number         0  _printf_char_file.o ABSOLUTE
    ../clib/printf.c                         0x00000000   Number         0  __printf_flags_ss_wp.o ABSOLUTE
    ../clib/printf.c                         0x00000000   Number         0  __printf_flags.o ABSOLUTE
    ../clib/printf.c                         0x00000000   Number         0  _printf_hex_int.o ABSOLUTE
    ../clib/printf_percent.s                 0x00000000   Number         0  _printf_percent.o ABSOLUTE
    ../clib/printf_percent.s                 0x00000000   Number         0  _printf_x.o ABSOLUTE
    ../clib/printf_percent.s                 0x00000000   Number         0  _printf_percent_end.o ABSOLUTE
    ../clib/printf_percent.s                 0x00000000   Number         0  _printf_d.o ABSOLUTE
    ../clib/signal.c                         0x00000000   Number         0  defsig_fpe_formal.o ABSOLUTE
    ../clib/signal.c                         0x00000000   Number         0  defsig_fpe_outer.o ABSOLUTE
    ../clib/signal.c                         0x00000000   Number         0  defsig_other.o ABSOLUTE
    ../clib/signal.c                         0x00000000   Number         0  defsig_rtmem_outer.o ABSOLUTE
    ../clib/signal.c                         0x00000000   Number         0  defsig_rtmem_formal.o ABSOLUTE
    ../clib/signal.c                         0x00000000   Number         0  defsig_abrt_inner.o ABSOLUTE
    ../clib/signal.c                         0x00000000   Number         0  defsig_rtred_inner.o ABSOLUTE
    ../clib/signal.c                         0x00000000   Number         0  defsig_stak_inner.o ABSOLUTE
    ../clib/signal.c                         0x00000000   Number         0  defsig_rtmem_inner.o ABSOLUTE
    ../clib/signal.c                         0x00000000   Number         0  defsig_general.o ABSOLUTE
    ../clib/signal.c                         0x00000000   Number         0  defsig_pvfn_inner.o ABSOLUTE
    ../clib/signal.c                         0x00000000   Number         0  defsig_cppl_inner.o ABSOLUTE
    ../clib/signal.c                         0x00000000   Number         0  defsig_segv_inner.o ABSOLUTE
    ../clib/signal.c                         0x00000000   Number         0  __raise.o ABSOLUTE
    ../clib/signal.c                         0x00000000   Number         0  defsig_fpe_inner.o ABSOLUTE
    ../clib/signal.c                         0x00000000   Number         0  defsig_exit.o ABSOLUTE
    ../clib/signal.s                         0x00000000   Number         0  defsig.o ABSOLUTE
    ../clib/stdio.c                          0x00000000   Number         0  ferror.o ABSOLUTE
    ../clib/stdio.c                          0x00000000   Number         0  ferror_locked.o ABSOLUTE
    ../clib/stdlib.c                         0x00000000   Number         0  exit.o ABSOLUTE
    ../clib/string.c                         0x00000000   Number         0  memcmp.o ABSOLUTE
    ../fplib/d2f.s                           0x00000000   Number         0  d2f.o ABSOLUTE
    ../fplib/daddsub.s                       0x00000000   Number         0  daddsub_clz.o ABSOLUTE
    ../fplib/dcheck1.s                       0x00000000   Number         0  dcheck1.o ABSOLUTE
    ../fplib/dcmpi.s                         0x00000000   Number         0  dcmpi.o ABSOLUTE
    ../fplib/ddiv.s                          0x00000000   Number         0  ddiv.o ABSOLUTE
    ../fplib/dflt.s                          0x00000000   Number         0  dflt_clz.o ABSOLUTE
    ../fplib/dleqf.s                         0x00000000   Number         0  dleqf.o ABSOLUTE
    ../fplib/dmul.s                          0x00000000   Number         0  dmul.o ABSOLUTE
    ../fplib/dnaninf.s                       0x00000000   Number         0  dnaninf.o ABSOLUTE
    ../fplib/dretinf.s                       0x00000000   Number         0  dretinf.o ABSOLUTE
    ../fplib/dsqrt.s                         0x00000000   Number         0  dsqrt_noumaal.o ABSOLUTE
    ../fplib/f2d.s                           0x00000000   Number         0  f2d.o ABSOLUTE
    ../fplib/faddsub.s                       0x00000000   Number         0  faddsub_clz.o ABSOLUTE
    ../fplib/fcmpi.s                         0x00000000   Number         0  fcmpi.o ABSOLUTE
    ../fplib/fdiv.s                          0x00000000   Number         0  fdiv.o ABSOLUTE
    ../fplib/feqf.s                          0x00000000   Number         0  feqf.o ABSOLUTE
    ../fplib/ffix.s                          0x00000000   Number         0  ffix.o ABSOLUTE
    ../fplib/ffixu.s                         0x00000000   Number         0  ffixu.o ABSOLUTE
    ../fplib/fflt.s                          0x00000000   Number         0  fflt_clz.o ABSOLUTE
    ../fplib/fleqf.s                         0x00000000   Number         0  fleqf.o ABSOLUTE
    ../fplib/fmul.s                          0x00000000   Number         0  fmul.o ABSOLUTE
    ../fplib/fnaninf.s                       0x00000000   Number         0  fnaninf.o ABSOLUTE
    ../fplib/fpinit.s                        0x00000000   Number         0  fpinit.o ABSOLUTE
    ../fplib/fretinf.s                       0x00000000   Number         0  fretinf.o ABSOLUTE
    ../fplib/frleqf.s                        0x00000000   Number         0  frleqf.o ABSOLUTE
    ../fplib/retnan.s                        0x00000000   Number         0  retnan.o ABSOLUTE
    ../fplib/scalbn.s                        0x00000000   Number         0  scalbn.o ABSOLUTE
    ../fplib/trapv.s                         0x00000000   Number         0  trapv.o ABSOLUTE
    ../fplib/usenofp.s                       0x00000000   Number         0  usenofp.o ABSOLUTE
    ../mathlib/asin.c                        0x00000000   Number         0  asin.o ABSOLUTE
    ../mathlib/asin.c                        0x00000000   Number         0  asin_x.o ABSOLUTE
    ../mathlib/atan.c                        0x00000000   Number         0  atan_x.o ABSOLUTE
    ../mathlib/atan.c                        0x00000000   Number         0  atan.o ABSOLUTE
    ../mathlib/atan2.c                       0x00000000   Number         0  atan2.o ABSOLUTE
    ../mathlib/atan2.c                       0x00000000   Number         0  atan2_x.o ABSOLUTE
    ../mathlib/dunder.c                      0x00000000   Number         0  dunder.o ABSOLUTE
    ../mathlib/fpclassify.c                  0x00000000   Number         0  fpclassify.o ABSOLUTE
    ../mathlib/poly.c                        0x00000000   Number         0  poly.o ABSOLUTE
    ../mathlib/qnan.c                        0x00000000   Number         0  qnan.o ABSOLUTE
    ../mathlib/sqrt.c                        0x00000000   Number         0  sqrt_x.o ABSOLUTE
    ../mathlib/sqrt.c                        0x00000000   Number         0  sqrt.o ABSOLUTE
    ..\CORE\core_cm3.c                       0x00000000   Number         0  core_cm3.o ABSOLUTE
    ..\CORE\startup_stm32f10x_hd.s           0x00000000   Number         0  startup_stm32f10x_hd.o ABSOLUTE
    ..\HARDWARE\KEY\key.c                    0x00000000   Number         0  key.o ABSOLUTE
    ..\HARDWARE\LCD1.44\Lcd_BaseDriver.c     0x00000000   Number         0  lcd_basedriver.o ABSOLUTE
    ..\HARDWARE\LCD1.44\Lcd_GUIDriver.c      0x00000000   Number         0  lcd_guidriver.o ABSOLUTE
    ..\HARDWARE\LED\led.c                    0x00000000   Number         0  led.o ABSOLUTE
    ..\HARDWARE\MPU6050\eMPL\inv_mpu.c       0x00000000   Number         0  inv_mpu.o ABSOLUTE
    ..\HARDWARE\MPU6050\eMPL\inv_mpu_dmp_motion_driver.c 0x00000000   Number         0  inv_mpu_dmp_motion_driver.o ABSOLUTE
    ..\HARDWARE\MPU6050\mpu6050.c            0x00000000   Number         0  mpu6050.o ABSOLUTE
    ..\HARDWARE\MPU6050\mpuiic.c             0x00000000   Number         0  mpuiic.o ABSOLUTE
    ..\HARDWARE\MPU6050\niming.c             0x00000000   Number         0  niming.o ABSOLUTE
    ..\STM32F10x_FWLib\src\misc.c            0x00000000   Number         0  misc.o ABSOLUTE
    ..\STM32F10x_FWLib\src\stm32f10x_dbgmcu.c 0x00000000   Number         0  stm32f10x_dbgmcu.o ABSOLUTE
    ..\STM32F10x_FWLib\src\stm32f10x_gpio.c  0x00000000   Number         0  stm32f10x_gpio.o ABSOLUTE
    ..\STM32F10x_FWLib\src\stm32f10x_rcc.c   0x00000000   Number         0  stm32f10x_rcc.o ABSOLUTE
    ..\STM32F10x_FWLib\src\stm32f10x_usart.c 0x00000000   Number         0  stm32f10x_usart.o ABSOLUTE
    ..\SYSTEM\delay\delay.c                  0x00000000   Number         0  delay.o ABSOLUTE
    ..\SYSTEM\sys\sys.c                      0x00000000   Number         0  sys.o ABSOLUTE
    ..\SYSTEM\usart\usart.c                  0x00000000   Number         0  usart.o ABSOLUTE
    ..\\CORE\\core_cm3.c                     0x00000000   Number         0  core_cm3.o ABSOLUTE
    ..\\SYSTEM\\sys\\sys.c                   0x00000000   Number         0  sys.o ABSOLUTE
    dc.s                                     0x00000000   Number         0  dc.o ABSOLUTE
    main.c                                   0x00000000   Number         0  main.o ABSOLUTE
    stm32f10x_it.c                           0x00000000   Number         0  stm32f10x_it.o ABSOLUTE
    system_stm32f10x.c                       0x00000000   Number         0  system_stm32f10x.o ABSOLUTE
    RESET                                    0x08000000   Section      304  startup_stm32f10x_hd.o(RESET)
    !!!main                                  0x08000130   Section        8  __main.o(!!!main)
    !!!scatter                               0x08000138   Section       52  __scatter.o(!!!scatter)
    !!handler_copy                           0x0800016c   Section       26  __scatter_copy.o(!!handler_copy)
    !!handler_zi                             0x08000188   Section       28  __scatter_zi.o(!!handler_zi)
    .ARM.Collect$$_printf_percent$$00000000  0x080001a4   Section        0  _printf_percent.o(.ARM.Collect$$_printf_percent$$00000000)
    .ARM.Collect$$_printf_percent$$00000009  0x080001a4   Section        6  _printf_d.o(.ARM.Collect$$_printf_percent$$00000009)
    .ARM.Collect$$_printf_percent$$00000017  0x080001aa   Section        4  _printf_percent_end.o(.ARM.Collect$$_printf_percent$$00000017)
    .ARM.Collect$$libinit$$00000000          0x080001ae   Section        2  libinit.o(.ARM.Collect$$libinit$$00000000)
    .ARM.Collect$$libinit$$00000002          0x080001b0   Section        0  libinit2.o(.ARM.Collect$$libinit$$00000002)
    .ARM.Collect$$libinit$$00000004          0x080001b0   Section        0  libinit2.o(.ARM.Collect$$libinit$$00000004)
    .ARM.Collect$$libinit$$0000000A          0x080001b0   Section        0  libinit2.o(.ARM.Collect$$libinit$$0000000A)
    .ARM.Collect$$libinit$$0000000C          0x080001b0   Section        0  libinit2.o(.ARM.Collect$$libinit$$0000000C)
    .ARM.Collect$$libinit$$0000000E          0x080001b0   Section        0  libinit2.o(.ARM.Collect$$libinit$$0000000E)
    .ARM.Collect$$libinit$$00000011          0x080001b0   Section        0  libinit2.o(.ARM.Collect$$libinit$$00000011)
    .ARM.Collect$$libinit$$00000013          0x080001b0   Section        0  libinit2.o(.ARM.Collect$$libinit$$00000013)
    .ARM.Collect$$libinit$$00000015          0x080001b0   Section        0  libinit2.o(.ARM.Collect$$libinit$$00000015)
    .ARM.Collect$$libinit$$00000017          0x080001b0   Section        0  libinit2.o(.ARM.Collect$$libinit$$00000017)
    .ARM.Collect$$libinit$$00000019          0x080001b0   Section        0  libinit2.o(.ARM.Collect$$libinit$$00000019)
    .ARM.Collect$$libinit$$0000001B          0x080001b0   Section        0  libinit2.o(.ARM.Collect$$libinit$$0000001B)
    .ARM.Collect$$libinit$$0000001D          0x080001b0   Section        0  libinit2.o(.ARM.Collect$$libinit$$0000001D)
    .ARM.Collect$$libinit$$0000001F          0x080001b0   Section        0  libinit2.o(.ARM.Collect$$libinit$$0000001F)
    .ARM.Collect$$libinit$$00000021          0x080001b0   Section        0  libinit2.o(.ARM.Collect$$libinit$$00000021)
    .ARM.Collect$$libinit$$00000023          0x080001b0   Section        0  libinit2.o(.ARM.Collect$$libinit$$00000023)
    .ARM.Collect$$libinit$$00000025          0x080001b0   Section        0  libinit2.o(.ARM.Collect$$libinit$$00000025)
    .ARM.Collect$$libinit$$0000002C          0x080001b0   Section        0  libinit2.o(.ARM.Collect$$libinit$$0000002C)
    .ARM.Collect$$libinit$$0000002E          0x080001b0   Section        0  libinit2.o(.ARM.Collect$$libinit$$0000002E)
    .ARM.Collect$$libinit$$00000030          0x080001b0   Section        0  libinit2.o(.ARM.Collect$$libinit$$00000030)
    .ARM.Collect$$libinit$$00000032          0x080001b0   Section        0  libinit2.o(.ARM.Collect$$libinit$$00000032)
    .ARM.Collect$$libinit$$00000033          0x080001b0   Section        2  libinit2.o(.ARM.Collect$$libinit$$00000033)
    .ARM.Collect$$libshutdown$$00000000      0x080001b2   Section        2  libshutdown.o(.ARM.Collect$$libshutdown$$00000000)
    .ARM.Collect$$libshutdown$$00000002      0x080001b4   Section        0  libshutdown2.o(.ARM.Collect$$libshutdown$$00000002)
    .ARM.Collect$$libshutdown$$00000004      0x080001b4   Section        0  libshutdown2.o(.ARM.Collect$$libshutdown$$00000004)
    .ARM.Collect$$libshutdown$$00000007      0x080001b4   Section        0  libshutdown2.o(.ARM.Collect$$libshutdown$$00000007)
    .ARM.Collect$$libshutdown$$0000000A      0x080001b4   Section        0  libshutdown2.o(.ARM.Collect$$libshutdown$$0000000A)
    .ARM.Collect$$libshutdown$$0000000C      0x080001b4   Section        0  libshutdown2.o(.ARM.Collect$$libshutdown$$0000000C)
    .ARM.Collect$$libshutdown$$0000000F      0x080001b4   Section        0  libshutdown2.o(.ARM.Collect$$libshutdown$$0000000F)
    .ARM.Collect$$libshutdown$$00000010      0x080001b4   Section        2  libshutdown2.o(.ARM.Collect$$libshutdown$$00000010)
    .ARM.Collect$$rtentry$$00000000          0x080001b6   Section        0  __rtentry.o(.ARM.Collect$$rtentry$$00000000)
    .ARM.Collect$$rtentry$$00000002          0x080001b6   Section        0  __rtentry2.o(.ARM.Collect$$rtentry$$00000002)
    .ARM.Collect$$rtentry$$00000004          0x080001b6   Section        6  __rtentry4.o(.ARM.Collect$$rtentry$$00000004)
    .ARM.Collect$$rtentry$$00000009          0x080001bc   Section        0  __rtentry2.o(.ARM.Collect$$rtentry$$00000009)
    .ARM.Collect$$rtentry$$0000000A          0x080001bc   Section        4  __rtentry2.o(.ARM.Collect$$rtentry$$0000000A)
    .ARM.Collect$$rtentry$$0000000C          0x080001c0   Section        0  __rtentry2.o(.ARM.Collect$$rtentry$$0000000C)
    .ARM.Collect$$rtentry$$0000000D          0x080001c0   Section        8  __rtentry2.o(.ARM.Collect$$rtentry$$0000000D)
    .ARM.Collect$$rtexit$$00000000           0x080001c8   Section        2  rtexit.o(.ARM.Collect$$rtexit$$00000000)
    .ARM.Collect$$rtexit$$00000002           0x080001ca   Section        0  rtexit2.o(.ARM.Collect$$rtexit$$00000002)
    .ARM.Collect$$rtexit$$00000003           0x080001ca   Section        4  rtexit2.o(.ARM.Collect$$rtexit$$00000003)
    .ARM.Collect$$rtexit$$00000004           0x080001ce   Section        6  rtexit2.o(.ARM.Collect$$rtexit$$00000004)
    .text                                    0x080001d4   Section       64  startup_stm32f10x_hd.o(.text)
    .text                                    0x08000214   Section        2  use_no_semi_2.o(.text)
    .text                                    0x08000216   Section       72  llsdiv.o(.text)
    .text                                    0x08000260   Section        0  noretval__2printf.o(.text)
    .text                                    0x08000278   Section        0  noretval__2sprintf.o(.text)
    .text                                    0x080002a0   Section        0  _printf_pad.o(.text)
    .text                                    0x080002f0   Section        0  _printf_dec.o(.text)
    .text                                    0x08000368   Section        0  __printf_flags_wp.o(.text)
    .text                                    0x080004a0   Section        0  memcmp.o(.text)
    .text                                    0x080004f8   Section       16  aeabi_memset.o(.text)
    .text                                    0x08000508   Section        0  heapauxi.o(.text)
    .text                                    0x0800050e   Section        2  use_no_semi.o(.text)
    .text                                    0x08000510   Section      238  lludivv7m.o(.text)
    .text                                    0x080005fe   Section        0  _rserrno.o(.text)
    .text                                    0x08000614   Section        0  _printf_intcommon.o(.text)
    .text                                    0x080006c8   Section        0  _printf_char_common.o(.text)
    _printf_input_char                       0x080006c9   Thumb Code    10  _printf_char_common.o(.text)
    .text                                    0x080006f8   Section        0  _sputc.o(.text)
    .text                                    0x08000704   Section        0  _printf_char_file.o(.text)
    .text                                    0x08000728   Section       68  rt_memclr.o(.text)
    .text                                    0x0800076c   Section        8  rt_errno_addr_intlibspace.o(.text)
    .text                                    0x08000774   Section        0  ferror.o(.text)
    .text                                    0x0800077c   Section       78  rt_memclr_w.o(.text)
    .text                                    0x080007cc   Section        8  libspace.o(.text)
    .text                                    0x080007d4   Section       74  sys_stackheap_outer.o(.text)
    .text                                    0x0800081e   Section        0  exit.o(.text)
    i.BusFault_Handler                       0x08000830   Section        0  stm32f10x_it.o(i.BusFault_Handler)
    i.DATA_Report                            0x08000834   Section        0  main.o(i.DATA_Report)
    i.DebugMon_Handler                       0x08000cf4   Section        0  stm32f10x_it.o(i.DebugMon_Handler)
    i.GPIO_Init                              0x08000cf6   Section        0  stm32f10x_gpio.o(i.GPIO_Init)
    i.GPIO_PinRemapConfig                    0x08000e0c   Section        0  stm32f10x_gpio.o(i.GPIO_PinRemapConfig)
    i.GPIO_ReadInputDataBit                  0x08000e9c   Section        0  stm32f10x_gpio.o(i.GPIO_ReadInputDataBit)
    i.GPIO_SetBits                           0x08000eae   Section        0  stm32f10x_gpio.o(i.GPIO_SetBits)
    i.Gui_DrawFont_GBK16                     0x08000eb4   Section        0  lcd_guidriver.o(i.Gui_DrawFont_GBK16)
    i.Gui_DrawPoint                          0x08001048   Section        0  lcd_basedriver.o(i.Gui_DrawPoint)
    i.HardFault_Handler                      0x08001068   Section        0  stm32f10x_it.o(i.HardFault_Handler)
    i.KEY_Init                               0x0800106c   Section        0  key.o(i.KEY_Init)
    i.KEY_Scan                               0x080010cc   Section        0  key.o(i.KEY_Scan)
    i.LCD_GPIO_Init                          0x08001174   Section        0  lcd_basedriver.o(i.LCD_GPIO_Init)
    i.LCD_WriteData_16Bit                    0x080011dc   Section        0  lcd_basedriver.o(i.LCD_WriteData_16Bit)
    i.LED_Init                               0x0800120c   Section        0  led.o(i.LED_Init)
    i.Lcd_Clear                              0x0800125c   Section        0  lcd_basedriver.o(i.Lcd_Clear)
    i.Lcd_Init                               0x0800128e   Section        0  lcd_basedriver.o(i.Lcd_Init)
    i.Lcd_Reset                              0x080014b0   Section        0  lcd_basedriver.o(i.Lcd_Reset)
    i.Lcd_SetRegion                          0x080014d4   Section        0  lcd_basedriver.o(i.Lcd_SetRegion)
    i.Lcd_WriteData                          0x0800152c   Section        0  lcd_basedriver.o(i.Lcd_WriteData)
    i.Lcd_WriteIndex                         0x08001554   Section        0  lcd_basedriver.o(i.Lcd_WriteIndex)
    i.MPU_Get_Accelerometer                  0x0800157c   Section        0  mpu6050.o(i.MPU_Get_Accelerometer)
    i.MPU_Get_Gyroscope                      0x080015cc   Section        0  mpu6050.o(i.MPU_Get_Gyroscope)
    i.MPU_Get_Temperature                    0x0800161c   Section        0  mpu6050.o(i.MPU_Get_Temperature)
    i.MPU_IIC_Ack                            0x08001684   Section        0  mpuiic.o(i.MPU_IIC_Ack)
    i.MPU_IIC_Delay                          0x080016d0   Section        0  mpuiic.o(i.MPU_IIC_Delay)
    i.MPU_IIC_Init                           0x080016dc   Section        0  mpuiic.o(i.MPU_IIC_Init)
    i.MPU_IIC_NAck                           0x08001714   Section        0  mpuiic.o(i.MPU_IIC_NAck)
    i.MPU_IIC_Read_Byte                      0x08001760   Section        0  mpuiic.o(i.MPU_IIC_Read_Byte)
    i.MPU_IIC_Send_Byte                      0x080017cc   Section        0  mpuiic.o(i.MPU_IIC_Send_Byte)
    i.MPU_IIC_Start                          0x08001828   Section        0  mpuiic.o(i.MPU_IIC_Start)
    i.MPU_IIC_Stop                           0x08001870   Section        0  mpuiic.o(i.MPU_IIC_Stop)
    i.MPU_IIC_Wait_Ack                       0x080018b8   Section        0  mpuiic.o(i.MPU_IIC_Wait_Ack)
    i.MPU_Init                               0x0800191c   Section        0  mpu6050.o(i.MPU_Init)
    i.MPU_Mode                               0x08001998   Section        0  main.o(i.MPU_Mode)
    i.MPU_Read                               0x08001b88   Section        0  main.o(i.MPU_Read)
    i.MPU_Read_Byte                          0x08001c00   Section        0  mpu6050.o(i.MPU_Read_Byte)
    i.MPU_Read_Len                           0x08001c3a   Section        0  mpu6050.o(i.MPU_Read_Len)
    i.MPU_Set_Accel_Fsr                      0x08001cae   Section        0  mpu6050.o(i.MPU_Set_Accel_Fsr)
    i.MPU_Set_Gyro_Fsr                       0x08001cbe   Section        0  mpu6050.o(i.MPU_Set_Gyro_Fsr)
    i.MPU_Set_LPF                            0x08001cce   Section        0  mpu6050.o(i.MPU_Set_LPF)
    i.MPU_Set_Rate                           0x08001d08   Section        0  mpu6050.o(i.MPU_Set_Rate)
    i.MPU_Write_Byte                         0x08001d42   Section        0  mpu6050.o(i.MPU_Write_Byte)
    i.MPU_Write_Len                          0x08001d86   Section        0  mpu6050.o(i.MPU_Write_Len)
    i.MemManage_Handler                      0x08001de6   Section        0  stm32f10x_it.o(i.MemManage_Handler)
    i.NMI_Handler                            0x08001dea   Section        0  stm32f10x_it.o(i.NMI_Handler)
    i.NVIC_Init                              0x08001dec   Section        0  misc.o(i.NVIC_Init)
    i.NVIC_PriorityGroupConfig               0x08001e5c   Section        0  misc.o(i.NVIC_PriorityGroupConfig)
    i.PendSV_Handler                         0x08001e70   Section        0  stm32f10x_it.o(i.PendSV_Handler)
    i.RCC_APB2PeriphClockCmd                 0x08001e74   Section        0  stm32f10x_rcc.o(i.RCC_APB2PeriphClockCmd)
    i.RCC_GetClocksFreq                      0x08001e94   Section        0  stm32f10x_rcc.o(i.RCC_GetClocksFreq)
    i.SPI_WriteData                          0x08001f68   Section        0  lcd_basedriver.o(i.SPI_WriteData)
    i.SVC_Handler                            0x08001fa4   Section        0  stm32f10x_it.o(i.SVC_Handler)
    i.SYS_Init                               0x08001fa8   Section        0  main.o(i.SYS_Init)
    i.SetSysClock                            0x08002168   Section        0  system_stm32f10x.o(i.SetSysClock)
    SetSysClock                              0x08002169   Thumb Code     8  system_stm32f10x.o(i.SetSysClock)
    i.SetSysClockTo72                        0x08002170   Section        0  system_stm32f10x.o(i.SetSysClockTo72)
    SetSysClockTo72                          0x08002171   Thumb Code   214  system_stm32f10x.o(i.SetSysClockTo72)
    i.SysTick_CLKSourceConfig                0x08002250   Section        0  misc.o(i.SysTick_CLKSourceConfig)
    i.SysTick_Handler                        0x08002278   Section        0  stm32f10x_it.o(i.SysTick_Handler)
    i.SystemInit                             0x0800227c   Section        0  system_stm32f10x.o(i.SystemInit)
    i.USART1_IRQHandler                      0x080022dc   Section        0  usart.o(i.USART1_IRQHandler)
    i.USART_Cmd                              0x08002364   Section        0  stm32f10x_usart.o(i.USART_Cmd)
    i.USART_GetITStatus                      0x0800237c   Section        0  stm32f10x_usart.o(i.USART_GetITStatus)
    i.USART_ITConfig                         0x080023d0   Section        0  stm32f10x_usart.o(i.USART_ITConfig)
    i.USART_Init                             0x0800241c   Section        0  stm32f10x_usart.o(i.USART_Init)
    i.USART_ReceiveData                      0x080024f4   Section        0  stm32f10x_usart.o(i.USART_ReceiveData)
    i.UsageFault_Handler                     0x080024fe   Section        0  stm32f10x_it.o(i.UsageFault_Handler)
    i.__ARM_fpclassify                       0x08002502   Section        0  fpclassify.o(i.__ARM_fpclassify)
    i.__kernel_poly                          0x0800252a   Section        0  poly.o(i.__kernel_poly)
    i.__mathlib_dbl_infnan                   0x080025d4   Section        0  dunder.o(i.__mathlib_dbl_infnan)
    i.__mathlib_dbl_infnan2                  0x080025da   Section        0  dunder.o(i.__mathlib_dbl_infnan2)
    i.__mathlib_dbl_invalid                  0x080025de   Section        0  dunder.o(i.__mathlib_dbl_invalid)
    i.__mathlib_dbl_underflow                0x080025ec   Section        0  dunder.o(i.__mathlib_dbl_underflow)
    i._is_digit                              0x080025fc   Section        0  __printf_wp.o(i._is_digit)
    i._sys_exit                              0x0800260a   Section        0  usart.o(i._sys_exit)
    i.accel_self_test                        0x08002610   Section        0  inv_mpu.o(i.accel_self_test)
    accel_self_test                          0x08002611   Thumb Code   164  inv_mpu.o(i.accel_self_test)
    i.asin                                   0x080026b8   Section        0  asin.o(i.asin)
    i.atan                                   0x08002928   Section        0  atan.o(i.atan)
    i.atan2                                  0x08002b48   Section        0  atan2.o(i.atan2)
    i.decode_gesture                         0x08002cc8   Section        0  inv_mpu_dmp_motion_driver.o(i.decode_gesture)
    decode_gesture                           0x08002cc9   Thumb Code    94  inv_mpu_dmp_motion_driver.o(i.decode_gesture)
    i.delay_init                             0x08002d2c   Section        0  delay.o(i.delay_init)
    i.delay_ms                               0x08002d70   Section        0  delay.o(i.delay_ms)
    i.delay_us                               0x08002dbc   Section        0  delay.o(i.delay_us)
    i.dmp_enable_6x_lp_quat                  0x08002e08   Section        0  inv_mpu_dmp_motion_driver.o(i.dmp_enable_6x_lp_quat)
    i.dmp_enable_feature                     0x08002e44   Section        0  inv_mpu_dmp_motion_driver.o(i.dmp_enable_feature)
    i.dmp_enable_gyro_cal                    0x08003060   Section        0  inv_mpu_dmp_motion_driver.o(i.dmp_enable_gyro_cal)
    i.dmp_enable_lp_quat                     0x080030b8   Section        0  inv_mpu_dmp_motion_driver.o(i.dmp_enable_lp_quat)
    i.dmp_load_motion_driver_firmware        0x080030f4   Section        0  inv_mpu_dmp_motion_driver.o(i.dmp_load_motion_driver_firmware)
    i.dmp_read_fifo                          0x0800310c   Section        0  inv_mpu_dmp_motion_driver.o(i.dmp_read_fifo)
    i.dmp_set_accel_bias                     0x080032d8   Section        0  inv_mpu_dmp_motion_driver.o(i.dmp_set_accel_bias)
    i.dmp_set_fifo_rate                      0x08003408   Section        0  inv_mpu_dmp_motion_driver.o(i.dmp_set_fifo_rate)
    i.dmp_set_gyro_bias                      0x08003478   Section        0  inv_mpu_dmp_motion_driver.o(i.dmp_set_gyro_bias)
    i.dmp_set_orientation                    0x080035a8   Section        0  inv_mpu_dmp_motion_driver.o(i.dmp_set_orientation)
    i.dmp_set_shake_reject_thresh            0x080036e0   Section        0  inv_mpu_dmp_motion_driver.o(i.dmp_set_shake_reject_thresh)
    i.dmp_set_shake_reject_time              0x08003718   Section        0  inv_mpu_dmp_motion_driver.o(i.dmp_set_shake_reject_time)
    i.dmp_set_shake_reject_timeout           0x0800373e   Section        0  inv_mpu_dmp_motion_driver.o(i.dmp_set_shake_reject_timeout)
    i.dmp_set_tap_axes                       0x08003764   Section        0  inv_mpu_dmp_motion_driver.o(i.dmp_set_tap_axes)
    i.dmp_set_tap_count                      0x080037aa   Section        0  inv_mpu_dmp_motion_driver.o(i.dmp_set_tap_count)
    i.dmp_set_tap_thresh                     0x080037d0   Section        0  inv_mpu_dmp_motion_driver.o(i.dmp_set_tap_thresh)
    i.dmp_set_tap_time                       0x08003970   Section        0  inv_mpu_dmp_motion_driver.o(i.dmp_set_tap_time)
    i.dmp_set_tap_time_multi                 0x08003996   Section        0  inv_mpu_dmp_motion_driver.o(i.dmp_set_tap_time_multi)
    i.fputc                                  0x080039bc   Section        0  usart.o(i.fputc)
    i.get_accel_prod_shift                   0x080039d8   Section        0  inv_mpu.o(i.get_accel_prod_shift)
    get_accel_prod_shift                     0x080039d9   Thumb Code   168  inv_mpu.o(i.get_accel_prod_shift)
    i.get_st_biases                          0x08003a8c   Section        0  inv_mpu.o(i.get_st_biases)
    get_st_biases                            0x08003a8d   Thumb Code  1132  inv_mpu.o(i.get_st_biases)
    i.gyro_self_test                         0x08003efc   Section        0  inv_mpu.o(i.gyro_self_test)
    gyro_self_test                           0x08003efd   Thumb Code   256  inv_mpu.o(i.gyro_self_test)
    i.inv_orientation_matrix_to_scalar       0x0800400c   Section        0  inv_mpu.o(i.inv_orientation_matrix_to_scalar)
    i.inv_row_2_scale                        0x08004034   Section        0  inv_mpu.o(i.inv_row_2_scale)
    i.main                                   0x08004082   Section        0  main.o(i.main)
    i.mget_ms                                0x08004096   Section        0  inv_mpu.o(i.mget_ms)
    i.mpu6050_send_data                      0x08004098   Section        0  niming.o(i.mpu6050_send_data)
    i.mpu_configure_fifo                     0x08004108   Section        0  inv_mpu.o(i.mpu_configure_fifo)
    i.mpu_dmp_get_data                       0x08004178   Section        0  inv_mpu.o(i.mpu_dmp_get_data)
    i.mpu_dmp_init                           0x0800439c   Section        0  inv_mpu.o(i.mpu_dmp_init)
    i.mpu_get_accel_fsr                      0x0800443c   Section        0  inv_mpu.o(i.mpu_get_accel_fsr)
    i.mpu_get_accel_sens                     0x08004488   Section        0  inv_mpu.o(i.mpu_get_accel_sens)
    i.mpu_get_fifo_config                    0x080044dc   Section        0  inv_mpu.o(i.mpu_get_fifo_config)
    i.mpu_get_gyro_fsr                       0x080044ec   Section        0  inv_mpu.o(i.mpu_get_gyro_fsr)
    i.mpu_get_gyro_sens                      0x08004530   Section        0  inv_mpu.o(i.mpu_get_gyro_sens)
    i.mpu_get_lpf                            0x08004580   Section        0  inv_mpu.o(i.mpu_get_lpf)
    i.mpu_get_sample_rate                    0x080045d0   Section        0  inv_mpu.o(i.mpu_get_sample_rate)
    i.mpu_init                               0x080045f0   Section        0  inv_mpu.o(i.mpu_init)
    i.mpu_load_firmware                      0x080047e0   Section        0  inv_mpu.o(i.mpu_load_firmware)
    i.mpu_lp_accel_mode                      0x08004898   Section        0  inv_mpu.o(i.mpu_lp_accel_mode)
    i.mpu_read_fifo_stream                   0x08004978   Section        0  inv_mpu.o(i.mpu_read_fifo_stream)
    i.mpu_read_mem                           0x08004a38   Section        0  inv_mpu.o(i.mpu_read_mem)
    i.mpu_reset_fifo                         0x08004ab8   Section        0  inv_mpu.o(i.mpu_reset_fifo)
    i.mpu_run_self_test                      0x08004c80   Section        0  inv_mpu.o(i.mpu_run_self_test)
    i.mpu_set_accel_fsr                      0x08004d9c   Section        0  inv_mpu.o(i.mpu_set_accel_fsr)
    i.mpu_set_bypass                         0x08004e20   Section        0  inv_mpu.o(i.mpu_set_bypass)
    i.mpu_set_dmp_state                      0x08004f6c   Section        0  inv_mpu.o(i.mpu_set_dmp_state)
    i.mpu_set_gyro_fsr                       0x08004ffc   Section        0  inv_mpu.o(i.mpu_set_gyro_fsr)
    i.mpu_set_int_latched                    0x08005084   Section        0  inv_mpu.o(i.mpu_set_int_latched)
    i.mpu_set_lpf                            0x080050f0   Section        0  inv_mpu.o(i.mpu_set_lpf)
    i.mpu_set_sample_rate                    0x08005174   Section        0  inv_mpu.o(i.mpu_set_sample_rate)
    i.mpu_set_sensors                        0x08005210   Section        0  inv_mpu.o(i.mpu_set_sensors)
    i.mpu_write_mem                          0x080052e0   Section        0  inv_mpu.o(i.mpu_write_mem)
    i.run_self_test                          0x08005360   Section        0  inv_mpu.o(i.run_self_test)
    i.set_int_enable                         0x080053f4   Section        0  inv_mpu.o(i.set_int_enable)
    set_int_enable                           0x080053f5   Thumb Code   138  inv_mpu.o(i.set_int_enable)
    i.sqrt                                   0x08005484   Section        0  sqrt.o(i.sqrt)
    i.uart_init                              0x080054d0   Section        0  usart.o(i.uart_init)
    i.usart1_niming_report                   0x08005570   Section        0  niming.o(i.usart1_niming_report)
    i.usart1_report_imu                      0x080055e8   Section        0  niming.o(i.usart1_report_imu)
    i.usart1_send_char                       0x080056a8   Section        0  niming.o(i.usart1_send_char)
    x$fpl$d2f                                0x080056c4   Section       98  d2f.o(x$fpl$d2f)
    x$fpl$dadd                               0x08005728   Section      336  daddsub_clz.o(x$fpl$dadd)
    _dadd1                                   0x08005739   Thumb Code     0  daddsub_clz.o(x$fpl$dadd)
    x$fpl$dcheck1                            0x08005878   Section       16  dcheck1.o(x$fpl$dcheck1)
    x$fpl$ddiv                               0x08005888   Section      688  ddiv.o(x$fpl$ddiv)
    ddiv_entry                               0x0800588f   Thumb Code     0  ddiv.o(x$fpl$ddiv)
    x$fpl$dflt                               0x08005b38   Section       46  dflt_clz.o(x$fpl$dflt)
    x$fpl$dmul                               0x08005b68   Section      340  dmul.o(x$fpl$dmul)
    x$fpl$dnaninf                            0x08005cbc   Section      156  dnaninf.o(x$fpl$dnaninf)
    x$fpl$dretinf                            0x08005d58   Section       12  dretinf.o(x$fpl$dretinf)
    x$fpl$drsb                               0x08005d64   Section       22  daddsub_clz.o(x$fpl$drsb)
    x$fpl$dsqrt                              0x08005d7c   Section      460  dsqrt_noumaal.o(x$fpl$dsqrt)
    x$fpl$dsub                               0x08005f48   Section      468  daddsub_clz.o(x$fpl$dsub)
    _dsub1                                   0x08005f59   Thumb Code     0  daddsub_clz.o(x$fpl$dsub)
    x$fpl$f2d                                0x0800611c   Section       86  f2d.o(x$fpl$f2d)
    x$fpl$fadd                               0x08006174   Section      196  faddsub_clz.o(x$fpl$fadd)
    _fadd1                                   0x08006183   Thumb Code     0  faddsub_clz.o(x$fpl$fadd)
    x$fpl$fcmpinf                            0x08006238   Section       24  fcmpi.o(x$fpl$fcmpinf)
    x$fpl$fdiv                               0x08006250   Section      388  fdiv.o(x$fpl$fdiv)
    _fdiv1                                   0x08006251   Thumb Code     0  fdiv.o(x$fpl$fdiv)
    x$fpl$feqf                               0x080063d4   Section      104  feqf.o(x$fpl$feqf)
    x$fpl$ffix                               0x0800643c   Section       54  ffix.o(x$fpl$ffix)
    x$fpl$ffixu                              0x08006474   Section       62  ffixu.o(x$fpl$ffixu)
    x$fpl$fflt                               0x080064b4   Section       48  fflt_clz.o(x$fpl$fflt)
    x$fpl$ffltu                              0x080064e4   Section       38  fflt_clz.o(x$fpl$ffltu)
    x$fpl$fleqf                              0x0800650c   Section      104  fleqf.o(x$fpl$fleqf)
    x$fpl$fmul                               0x08006574   Section      258  fmul.o(x$fpl$fmul)
    x$fpl$fnaninf                            0x08006676   Section      140  fnaninf.o(x$fpl$fnaninf)
    x$fpl$fretinf                            0x08006702   Section       10  fretinf.o(x$fpl$fretinf)
    x$fpl$frleqf                             0x0800670c   Section       98  frleqf.o(x$fpl$frleqf)
    x$fpl$fsub                               0x08006770   Section      234  faddsub_clz.o(x$fpl$fsub)
    _fsub1                                   0x0800677f   Thumb Code     0  faddsub_clz.o(x$fpl$fsub)
    x$fpl$retnan                             0x0800685a   Section      100  retnan.o(x$fpl$retnan)
    x$fpl$scalbn                             0x080068be   Section       92  scalbn.o(x$fpl$scalbn)
    x$fpl$trapveneer                         0x0800691a   Section       48  trapv.o(x$fpl$trapveneer)
    .constdata                               0x0800694a   Section     6548  lcd_guidriver.o(.constdata)
    x$fpl$usenofp                            0x0800694a   Section        0  usenofp.o(x$fpl$usenofp)
    .constdata                               0x080082e0   Section       80  inv_mpu.o(.constdata)
    .constdata                               0x08008330   Section     3062  inv_mpu_dmp_motion_driver.o(.constdata)
    dmp_memory                               0x08008330   Data        3062  inv_mpu_dmp_motion_driver.o(.constdata)
    .constdata                               0x08008f26   Section       17  __printf_flags_wp.o(.constdata)
    maptable                                 0x08008f26   Data          17  __printf_flags_wp.o(.constdata)
    .constdata                               0x08008f38   Section       80  asin.o(.constdata)
    pS                                       0x08008f38   Data          48  asin.o(.constdata)
    qS                                       0x08008f68   Data          32  asin.o(.constdata)
    .constdata                               0x08008f88   Section      152  atan.o(.constdata)
    atanhi                                   0x08008f88   Data          32  atan.o(.constdata)
    atanlo                                   0x08008fa8   Data          32  atan.o(.constdata)
    aTodd                                    0x08008fc8   Data          40  atan.o(.constdata)
    aTeven                                   0x08008ff0   Data          48  atan.o(.constdata)
    .constdata                               0x08009020   Section        8  qnan.o(.constdata)
    .conststring                             0x08009028   Section       77  inv_mpu.o(.conststring)
    .data                                    0x20000000   Section       30  main.o(.data)
    .data                                    0x20000020   Section       20  system_stm32f10x.o(.data)
    .data                                    0x20000034   Section        1  key.o(.data)
    key_up                                   0x20000034   Data           1  key.o(.data)
    .data                                    0x20000038   Section       53  inv_mpu.o(.data)
    st                                       0x20000038   Data          44  inv_mpu.o(.data)
    gyro_orientation                         0x20000064   Data           9  inv_mpu.o(.data)
    .data                                    0x2000006e   Section        4  delay.o(.data)
    fac_us                                   0x2000006e   Data           1  delay.o(.data)
    fac_ms                                   0x20000070   Data           2  delay.o(.data)
    .data                                    0x20000074   Section        6  usart.o(.data)
    .data                                    0x2000007a   Section       20  stm32f10x_rcc.o(.data)
    APBAHBPrescTable                         0x2000007a   Data          16  stm32f10x_rcc.o(.data)
    ADCPrescTable                            0x2000008a   Data           4  stm32f10x_rcc.o(.data)
    .bss                                     0x20000090   Section       33  main.o(.bss)
    .bss                                     0x200000b4   Section       16  inv_mpu_dmp_motion_driver.o(.bss)
    dmp                                      0x200000b4   Data          16  inv_mpu_dmp_motion_driver.o(.bss)
    .bss                                     0x200000c4   Section      200  usart.o(.bss)
    .bss                                     0x2000018c   Section       96  libspace.o(.bss)
    HEAP                                     0x200001f0   Section      512  startup_stm32f10x_hd.o(HEAP)
    Heap_Mem                                 0x200001f0   Data         512  startup_stm32f10x_hd.o(HEAP)
    STACK                                    0x200003f0   Section     1024  startup_stm32f10x_hd.o(STACK)
    Stack_Mem                                0x200003f0   Data        1024  startup_stm32f10x_hd.o(STACK)
    __initial_sp                             0x200007f0   Data           0  startup_stm32f10x_hd.o(STACK)

    Global Symbols

    Symbol Name                              Value     Ov Type        Size  Object(Section)

    BuildAttributes$$THM_ISAv4$P$D$K$B$S$PE$A:L22UL41UL21$X:L11$S22US41US21$IEEE1$IW$USESV6$~STKCKD$USESV7$~SHL$OTIME$ROPI$IEEEX$EBA8$UX$STANDARDLIB$REQ8$PRES8$EABIv2 0x00000000   Number         0  anon$$obj.o ABSOLUTE
    __ARM_use_no_argv                        0x00000000   Number         0  main.o ABSOLUTE
    _printf_flags                            0x00000000   Number         0  printf_stubs.o ABSOLUTE
    _printf_return_value                     0x00000000   Number         0  printf_stubs.o ABSOLUTE
    _printf_sizespec                         0x00000000   Number         0  printf_stubs.o ABSOLUTE
    _printf_widthprec                        0x00000000   Number         0  printf_stubs.o ABSOLUTE
    __ARM_exceptions_init                     - Undefined Weak Reference
    __alloca_initialize                       - Undefined Weak Reference
    __arm_preinit_                            - Undefined Weak Reference
    __cpp_initialize__aeabi_                  - Undefined Weak Reference
    __cxa_finalize                            - Undefined Weak Reference
    __rt_locale                               - Undefined Weak Reference
    __sigvec_lookup                           - Undefined Weak Reference
    _atexit_init                              - Undefined Weak Reference
    _call_atexit_fns                          - Undefined Weak Reference
    _clock_init                               - Undefined Weak Reference
    _fp_trap_init                             - Undefined Weak Reference
    _fp_trap_shutdown                         - Undefined Weak Reference
    _get_lc_collate                           - Undefined Weak Reference
    _get_lc_ctype                             - Undefined Weak Reference
    _get_lc_monetary                          - Undefined Weak Reference
    _get_lc_numeric                           - Undefined Weak Reference
    _get_lc_time                              - Undefined Weak Reference
    _getenv_init                              - Undefined Weak Reference
    _handle_redirection                       - Undefined Weak Reference
    _init_alloc                               - Undefined Weak Reference
    _init_user_alloc                          - Undefined Weak Reference
    _initio                                   - Undefined Weak Reference
    _mutex_acquire                            - Undefined Weak Reference
    _mutex_release                            - Undefined Weak Reference
    _printf_truncate_signed                   - Undefined Weak Reference
    _printf_truncate_unsigned                 - Undefined Weak Reference
    _rand_init                                - Undefined Weak Reference
    _signal_finish                            - Undefined Weak Reference
    _signal_init                              - Undefined Weak Reference
    _terminate_alloc                          - Undefined Weak Reference
    _terminate_user_alloc                     - Undefined Weak Reference
    _terminateio                              - Undefined Weak Reference
    __Vectors_Size                           0x00000130   Number         0  startup_stm32f10x_hd.o ABSOLUTE
    __Vectors                                0x08000000   Data           4  startup_stm32f10x_hd.o(RESET)
    __Vectors_End                            0x08000130   Data           0  startup_stm32f10x_hd.o(RESET)
    __main                                   0x08000131   Thumb Code     8  __main.o(!!!main)
    __scatterload                            0x08000139   Thumb Code     0  __scatter.o(!!!scatter)
    __scatterload_rt2                        0x08000139   Thumb Code    44  __scatter.o(!!!scatter)
    __scatterload_rt2_thumb_only             0x08000139   Thumb Code     0  __scatter.o(!!!scatter)
    __scatterload_null                       0x08000147   Thumb Code     0  __scatter.o(!!!scatter)
    __scatterload_copy                       0x0800016d   Thumb Code    26  __scatter_copy.o(!!handler_copy)
    __scatterload_zeroinit                   0x08000189   Thumb Code    28  __scatter_zi.o(!!handler_zi)
    _printf_d                                0x080001a5   Thumb Code     0  _printf_d.o(.ARM.Collect$$_printf_percent$$00000009)
    _printf_percent                          0x080001a5   Thumb Code     0  _printf_percent.o(.ARM.Collect$$_printf_percent$$00000000)
    _printf_percent_end                      0x080001ab   Thumb Code     0  _printf_percent_end.o(.ARM.Collect$$_printf_percent$$00000017)
    __rt_lib_init                            0x080001af   Thumb Code     0  libinit.o(.ARM.Collect$$libinit$$00000000)
    __rt_lib_init_alloca_1                   0x080001b1   Thumb Code     0  libinit2.o(.ARM.Collect$$libinit$$0000002E)
    __rt_lib_init_argv_1                     0x080001b1   Thumb Code     0  libinit2.o(.ARM.Collect$$libinit$$0000002C)
    __rt_lib_init_atexit_1                   0x080001b1   Thumb Code     0  libinit2.o(.ARM.Collect$$libinit$$0000001B)
    __rt_lib_init_clock_1                    0x080001b1   Thumb Code     0  libinit2.o(.ARM.Collect$$libinit$$00000021)
    __rt_lib_init_cpp_1                      0x080001b1   Thumb Code     0  libinit2.o(.ARM.Collect$$libinit$$00000032)
    __rt_lib_init_exceptions_1               0x080001b1   Thumb Code     0  libinit2.o(.ARM.Collect$$libinit$$00000030)
    __rt_lib_init_fp_1                       0x080001b1   Thumb Code     0  libinit2.o(.ARM.Collect$$libinit$$00000002)
    __rt_lib_init_fp_trap_1                  0x080001b1   Thumb Code     0  libinit2.o(.ARM.Collect$$libinit$$0000001F)
    __rt_lib_init_getenv_1                   0x080001b1   Thumb Code     0  libinit2.o(.ARM.Collect$$libinit$$00000023)
    __rt_lib_init_heap_1                     0x080001b1   Thumb Code     0  libinit2.o(.ARM.Collect$$libinit$$0000000A)
    __rt_lib_init_lc_collate_1               0x080001b1   Thumb Code     0  libinit2.o(.ARM.Collect$$libinit$$00000011)
    __rt_lib_init_lc_ctype_1                 0x080001b1   Thumb Code     0  libinit2.o(.ARM.Collect$$libinit$$00000013)
    __rt_lib_init_lc_monetary_1              0x080001b1   Thumb Code     0  libinit2.o(.ARM.Collect$$libinit$$00000015)
    __rt_lib_init_lc_numeric_1               0x080001b1   Thumb Code     0  libinit2.o(.ARM.Collect$$libinit$$00000017)
    __rt_lib_init_lc_time_1                  0x080001b1   Thumb Code     0  libinit2.o(.ARM.Collect$$libinit$$00000019)
    __rt_lib_init_preinit_1                  0x080001b1   Thumb Code     0  libinit2.o(.ARM.Collect$$libinit$$00000004)
    __rt_lib_init_rand_1                     0x080001b1   Thumb Code     0  libinit2.o(.ARM.Collect$$libinit$$0000000E)
    __rt_lib_init_return                     0x080001b1   Thumb Code     0  libinit2.o(.ARM.Collect$$libinit$$00000033)
    __rt_lib_init_signal_1                   0x080001b1   Thumb Code     0  libinit2.o(.ARM.Collect$$libinit$$0000001D)
    __rt_lib_init_stdio_1                    0x080001b1   Thumb Code     0  libinit2.o(.ARM.Collect$$libinit$$00000025)
    __rt_lib_init_user_alloc_1               0x080001b1   Thumb Code     0  libinit2.o(.ARM.Collect$$libinit$$0000000C)
    __rt_lib_shutdown                        0x080001b3   Thumb Code     0  libshutdown.o(.ARM.Collect$$libshutdown$$00000000)
    __rt_lib_shutdown_cpp_1                  0x080001b5   Thumb Code     0  libshutdown2.o(.ARM.Collect$$libshutdown$$00000002)
    __rt_lib_shutdown_fp_trap_1              0x080001b5   Thumb Code     0  libshutdown2.o(.ARM.Collect$$libshutdown$$00000007)
    __rt_lib_shutdown_heap_1                 0x080001b5   Thumb Code     0  libshutdown2.o(.ARM.Collect$$libshutdown$$0000000F)
    __rt_lib_shutdown_return                 0x080001b5   Thumb Code     0  libshutdown2.o(.ARM.Collect$$libshutdown$$00000010)
    __rt_lib_shutdown_signal_1               0x080001b5   Thumb Code     0  libshutdown2.o(.ARM.Collect$$libshutdown$$0000000A)
    __rt_lib_shutdown_stdio_1                0x080001b5   Thumb Code     0  libshutdown2.o(.ARM.Collect$$libshutdown$$00000004)
    __rt_lib_shutdown_user_alloc_1           0x080001b5   Thumb Code     0  libshutdown2.o(.ARM.Collect$$libshutdown$$0000000C)
    __rt_entry                               0x080001b7   Thumb Code     0  __rtentry.o(.ARM.Collect$$rtentry$$00000000)
    __rt_entry_presh_1                       0x080001b7   Thumb Code     0  __rtentry2.o(.ARM.Collect$$rtentry$$00000002)
    __rt_entry_sh                            0x080001b7   Thumb Code     0  __rtentry4.o(.ARM.Collect$$rtentry$$00000004)
    __rt_entry_li                            0x080001bd   Thumb Code     0  __rtentry2.o(.ARM.Collect$$rtentry$$0000000A)
    __rt_entry_postsh_1                      0x080001bd   Thumb Code     0  __rtentry2.o(.ARM.Collect$$rtentry$$00000009)
    __rt_entry_main                          0x080001c1   Thumb Code     0  __rtentry2.o(.ARM.Collect$$rtentry$$0000000D)
    __rt_entry_postli_1                      0x080001c1   Thumb Code     0  __rtentry2.o(.ARM.Collect$$rtentry$$0000000C)
    __rt_exit                                0x080001c9   Thumb Code     0  rtexit.o(.ARM.Collect$$rtexit$$00000000)
    __rt_exit_ls                             0x080001cb   Thumb Code     0  rtexit2.o(.ARM.Collect$$rtexit$$00000003)
    __rt_exit_prels_1                        0x080001cb   Thumb Code     0  rtexit2.o(.ARM.Collect$$rtexit$$00000002)
    __rt_exit_exit                           0x080001cf   Thumb Code     0  rtexit2.o(.ARM.Collect$$rtexit$$00000004)
    Reset_Handler                            0x080001d5   Thumb Code     8  startup_stm32f10x_hd.o(.text)
    ADC1_2_IRQHandler                        0x080001ef   Thumb Code     0  startup_stm32f10x_hd.o(.text)
    ADC3_IRQHandler                          0x080001ef   Thumb Code     0  startup_stm32f10x_hd.o(.text)
    CAN1_RX1_IRQHandler                      0x080001ef   Thumb Code     0  startup_stm32f10x_hd.o(.text)
    CAN1_SCE_IRQHandler                      0x080001ef   Thumb Code     0  startup_stm32f10x_hd.o(.text)
    DMA1_Channel1_IRQHandler                 0x080001ef   Thumb Code     0  startup_stm32f10x_hd.o(.text)
    DMA1_Channel2_IRQHandler                 0x080001ef   Thumb Code     0  startup_stm32f10x_hd.o(.text)
    DMA1_Channel3_IRQHandler                 0x080001ef   Thumb Code     0  startup_stm32f10x_hd.o(.text)
    DMA1_Channel4_IRQHandler                 0x080001ef   Thumb Code     0  startup_stm32f10x_hd.o(.text)
    DMA1_Channel5_IRQHandler                 0x080001ef   Thumb Code     0  startup_stm32f10x_hd.o(.text)
    DMA1_Channel6_IRQHandler                 0x080001ef   Thumb Code     0  startup_stm32f10x_hd.o(.text)
    DMA1_Channel7_IRQHandler                 0x080001ef   Thumb Code     0  startup_stm32f10x_hd.o(.text)
    DMA2_Channel1_IRQHandler                 0x080001ef   Thumb Code     0  startup_stm32f10x_hd.o(.text)
    DMA2_Channel2_IRQHandler                 0x080001ef   Thumb Code     0  startup_stm32f10x_hd.o(.text)
    DMA2_Channel3_IRQHandler                 0x080001ef   Thumb Code     0  startup_stm32f10x_hd.o(.text)
    DMA2_Channel4_5_IRQHandler               0x080001ef   Thumb Code     0  startup_stm32f10x_hd.o(.text)
    EXTI0_IRQHandler                         0x080001ef   Thumb Code     0  startup_stm32f10x_hd.o(.text)
    EXTI15_10_IRQHandler                     0x080001ef   Thumb Code     0  startup_stm32f10x_hd.o(.text)
    EXTI1_IRQHandler                         0x080001ef   Thumb Code     0  startup_stm32f10x_hd.o(.text)
    EXTI2_IRQHandler                         0x080001ef   Thumb Code     0  startup_stm32f10x_hd.o(.text)
    EXTI3_IRQHandler                         0x080001ef   Thumb Code     0  startup_stm32f10x_hd.o(.text)
    EXTI4_IRQHandler                         0x080001ef   Thumb Code     0  startup_stm32f10x_hd.o(.text)
    EXTI9_5_IRQHandler                       0x080001ef   Thumb Code     0  startup_stm32f10x_hd.o(.text)
    FLASH_IRQHandler                         0x080001ef   Thumb Code     0  startup_stm32f10x_hd.o(.text)
    FSMC_IRQHandler                          0x080001ef   Thumb Code     0  startup_stm32f10x_hd.o(.text)
    I2C1_ER_IRQHandler                       0x080001ef   Thumb Code     0  startup_stm32f10x_hd.o(.text)
    I2C1_EV_IRQHandler                       0x080001ef   Thumb Code     0  startup_stm32f10x_hd.o(.text)
    I2C2_ER_IRQHandler                       0x080001ef   Thumb Code     0  startup_stm32f10x_hd.o(.text)
    I2C2_EV_IRQHandler                       0x080001ef   Thumb Code     0  startup_stm32f10x_hd.o(.text)
    PVD_IRQHandler                           0x080001ef   Thumb Code     0  startup_stm32f10x_hd.o(.text)
    RCC_IRQHandler                           0x080001ef   Thumb Code     0  startup_stm32f10x_hd.o(.text)
    RTCAlarm_IRQHandler                      0x080001ef   Thumb Code     0  startup_stm32f10x_hd.o(.text)
    RTC_IRQHandler                           0x080001ef   Thumb Code     0  startup_stm32f10x_hd.o(.text)
    SDIO_IRQHandler                          0x080001ef   Thumb Code     0  startup_stm32f10x_hd.o(.text)
    SPI1_IRQHandler                          0x080001ef   Thumb Code     0  startup_stm32f10x_hd.o(.text)
    SPI2_IRQHandler                          0x080001ef   Thumb Code     0  startup_stm32f10x_hd.o(.text)
    SPI3_IRQHandler                          0x080001ef   Thumb Code     0  startup_stm32f10x_hd.o(.text)
    TAMPER_IRQHandler                        0x080001ef   Thumb Code     0  startup_stm32f10x_hd.o(.text)
    TIM1_BRK_IRQHandler                      0x080001ef   Thumb Code     0  startup_stm32f10x_hd.o(.text)
    TIM1_CC_IRQHandler                       0x080001ef   Thumb Code     0  startup_stm32f10x_hd.o(.text)
    TIM1_TRG_COM_IRQHandler                  0x080001ef   Thumb Code     0  startup_stm32f10x_hd.o(.text)
    TIM1_UP_IRQHandler                       0x080001ef   Thumb Code     0  startup_stm32f10x_hd.o(.text)
    TIM2_IRQHandler                          0x080001ef   Thumb Code     0  startup_stm32f10x_hd.o(.text)
    TIM3_IRQHandler                          0x080001ef   Thumb Code     0  startup_stm32f10x_hd.o(.text)
    TIM4_IRQHandler                          0x080001ef   Thumb Code     0  startup_stm32f10x_hd.o(.text)
    TIM5_IRQHandler                          0x080001ef   Thumb Code     0  startup_stm32f10x_hd.o(.text)
    TIM6_IRQHandler                          0x080001ef   Thumb Code     0  startup_stm32f10x_hd.o(.text)
    TIM7_IRQHandler                          0x080001ef   Thumb Code     0  startup_stm32f10x_hd.o(.text)
    TIM8_BRK_IRQHandler                      0x080001ef   Thumb Code     0  startup_stm32f10x_hd.o(.text)
    TIM8_CC_IRQHandler                       0x080001ef   Thumb Code     0  startup_stm32f10x_hd.o(.text)
    TIM8_TRG_COM_IRQHandler                  0x080001ef   Thumb Code     0  startup_stm32f10x_hd.o(.text)
    TIM8_UP_IRQHandler                       0x080001ef   Thumb Code     0  startup_stm32f10x_hd.o(.text)
    UART4_IRQHandler                         0x080001ef   Thumb Code     0  startup_stm32f10x_hd.o(.text)
    UART5_IRQHandler                         0x080001ef   Thumb Code     0  startup_stm32f10x_hd.o(.text)
    USART2_IRQHandler                        0x080001ef   Thumb Code     0  startup_stm32f10x_hd.o(.text)
    USART3_IRQHandler                        0x080001ef   Thumb Code     0  startup_stm32f10x_hd.o(.text)
    USBWakeUp_IRQHandler                     0x080001ef   Thumb Code     0  startup_stm32f10x_hd.o(.text)
    USB_HP_CAN1_TX_IRQHandler                0x080001ef   Thumb Code     0  startup_stm32f10x_hd.o(.text)
    USB_LP_CAN1_RX0_IRQHandler               0x080001ef   Thumb Code     0  startup_stm32f10x_hd.o(.text)
    WWDG_IRQHandler                          0x080001ef   Thumb Code     0  startup_stm32f10x_hd.o(.text)
    __user_initial_stackheap                 0x080001f1   Thumb Code     0  startup_stm32f10x_hd.o(.text)
    __use_no_semihosting                     0x08000215   Thumb Code     2  use_no_semi_2.o(.text)
    __aeabi_ldivmod                          0x08000217   Thumb Code     0  llsdiv.o(.text)
    _ll_sdiv                                 0x08000217   Thumb Code    72  llsdiv.o(.text)
    __2printf                                0x08000261   Thumb Code    20  noretval__2printf.o(.text)
    __2sprintf                               0x08000279   Thumb Code    34  noretval__2sprintf.o(.text)
    _printf_pre_padding                      0x080002a1   Thumb Code    44  _printf_pad.o(.text)
    _printf_post_padding                     0x080002cd   Thumb Code    34  _printf_pad.o(.text)
    _printf_int_dec                          0x080002f1   Thumb Code   104  _printf_dec.o(.text)
    __printf                                 0x08000369   Thumb Code   308  __printf_flags_wp.o(.text)
    memcmp                                   0x080004a1   Thumb Code    88  memcmp.o(.text)
    __aeabi_memset                           0x080004f9   Thumb Code    16  aeabi_memset.o(.text)
    __use_two_region_memory                  0x08000509   Thumb Code     2  heapauxi.o(.text)
    __rt_heap_escrow$2region                 0x0800050b   Thumb Code     2  heapauxi.o(.text)
    __rt_heap_expand$2region                 0x0800050d   Thumb Code     2  heapauxi.o(.text)
    __I$use$semihosting                      0x0800050f   Thumb Code     0  use_no_semi.o(.text)
    __use_no_semihosting_swi                 0x0800050f   Thumb Code     2  use_no_semi.o(.text)
    __aeabi_uldivmod                         0x08000511   Thumb Code     0  lludivv7m.o(.text)
    _ll_udiv                                 0x08000511   Thumb Code   238  lludivv7m.o(.text)
    __read_errno                             0x080005ff   Thumb Code    10  _rserrno.o(.text)
    __set_errno                              0x08000609   Thumb Code    12  _rserrno.o(.text)
    _printf_int_common                       0x08000615   Thumb Code   178  _printf_intcommon.o(.text)
    _printf_char_common                      0x080006d3   Thumb Code    32  _printf_char_common.o(.text)
    _sputc                                   0x080006f9   Thumb Code    10  _sputc.o(.text)
    _printf_char_file                        0x08000705   Thumb Code    32  _printf_char_file.o(.text)
    __aeabi_memclr                           0x08000729   Thumb Code     0  rt_memclr.o(.text)
    __rt_memclr                              0x08000729   Thumb Code    68  rt_memclr.o(.text)
    _memset                                  0x0800072d   Thumb Code     0  rt_memclr.o(.text)
    __aeabi_errno_addr                       0x0800076d   Thumb Code     8  rt_errno_addr_intlibspace.o(.text)
    __errno$intlibspace                      0x0800076d   Thumb Code     0  rt_errno_addr_intlibspace.o(.text)
    __rt_errno_addr$intlibspace              0x0800076d   Thumb Code     0  rt_errno_addr_intlibspace.o(.text)
    ferror                                   0x08000775   Thumb Code     8  ferror.o(.text)
    __aeabi_memclr4                          0x0800077d   Thumb Code     0  rt_memclr_w.o(.text)
    __aeabi_memclr8                          0x0800077d   Thumb Code     0  rt_memclr_w.o(.text)
    __rt_memclr_w                            0x0800077d   Thumb Code    78  rt_memclr_w.o(.text)
    _memset_w                                0x08000781   Thumb Code     0  rt_memclr_w.o(.text)
    __user_libspace                          0x080007cd   Thumb Code     8  libspace.o(.text)
    __user_perproc_libspace                  0x080007cd   Thumb Code     0  libspace.o(.text)
    __user_perthread_libspace                0x080007cd   Thumb Code     0  libspace.o(.text)
    __user_setup_stackheap                   0x080007d5   Thumb Code    74  sys_stackheap_outer.o(.text)
    exit                                     0x0800081f   Thumb Code    18  exit.o(.text)
    BusFault_Handler                         0x08000831   Thumb Code     4  stm32f10x_it.o(i.BusFault_Handler)
    DATA_Report                              0x08000835   Thumb Code  1208  main.o(i.DATA_Report)
    DebugMon_Handler                         0x08000cf5   Thumb Code     2  stm32f10x_it.o(i.DebugMon_Handler)
    GPIO_Init                                0x08000cf7   Thumb Code   278  stm32f10x_gpio.o(i.GPIO_Init)
    GPIO_PinRemapConfig                      0x08000e0d   Thumb Code   138  stm32f10x_gpio.o(i.GPIO_PinRemapConfig)
    GPIO_ReadInputDataBit                    0x08000e9d   Thumb Code    18  stm32f10x_gpio.o(i.GPIO_ReadInputDataBit)
    GPIO_SetBits                             0x08000eaf   Thumb Code     4  stm32f10x_gpio.o(i.GPIO_SetBits)
    Gui_DrawFont_GBK16                       0x08000eb5   Thumb Code   394  lcd_guidriver.o(i.Gui_DrawFont_GBK16)
    Gui_DrawPoint                            0x08001049   Thumb Code    32  lcd_basedriver.o(i.Gui_DrawPoint)
    HardFault_Handler                        0x08001069   Thumb Code     4  stm32f10x_it.o(i.HardFault_Handler)
    KEY_Init                                 0x0800106d   Thumb Code    82  key.o(i.KEY_Init)
    KEY_Scan                                 0x080010cd   Thumb Code   154  key.o(i.KEY_Scan)
    LCD_GPIO_Init                            0x08001175   Thumb Code    92  lcd_basedriver.o(i.LCD_GPIO_Init)
    LCD_WriteData_16Bit                      0x080011dd   Thumb Code    42  lcd_basedriver.o(i.LCD_WriteData_16Bit)
    LED_Init                                 0x0800120d   Thumb Code    72  led.o(i.LED_Init)
    Lcd_Clear                                0x0800125d   Thumb Code    50  lcd_basedriver.o(i.Lcd_Clear)
    Lcd_Init                                 0x0800128f   Thumb Code   546  lcd_basedriver.o(i.Lcd_Init)
    Lcd_Reset                                0x080014b1   Thumb Code    32  lcd_basedriver.o(i.Lcd_Reset)
    Lcd_SetRegion                            0x080014d5   Thumb Code    86  lcd_basedriver.o(i.Lcd_SetRegion)
    Lcd_WriteData                            0x0800152d   Thumb Code    36  lcd_basedriver.o(i.Lcd_WriteData)
    Lcd_WriteIndex                           0x08001555   Thumb Code    34  lcd_basedriver.o(i.Lcd_WriteIndex)
    MPU_Get_Accelerometer                    0x0800157d   Thumb Code    80  mpu6050.o(i.MPU_Get_Accelerometer)
    MPU_Get_Gyroscope                        0x080015cd   Thumb Code    80  mpu6050.o(i.MPU_Get_Gyroscope)
    MPU_Get_Temperature                      0x0800161d   Thumb Code    86  mpu6050.o(i.MPU_Get_Temperature)
    MPU_IIC_Ack                              0x08001685   Thumb Code    62  mpuiic.o(i.MPU_IIC_Ack)
    MPU_IIC_Delay                            0x080016d1   Thumb Code    10  mpuiic.o(i.MPU_IIC_Delay)
    MPU_IIC_Init                             0x080016dd   Thumb Code    50  mpuiic.o(i.MPU_IIC_Init)
    MPU_IIC_NAck                             0x08001715   Thumb Code    62  mpuiic.o(i.MPU_IIC_NAck)
    MPU_IIC_Read_Byte                        0x08001761   Thumb Code    94  mpuiic.o(i.MPU_IIC_Read_Byte)
    MPU_IIC_Send_Byte                        0x080017cd   Thumb Code    80  mpuiic.o(i.MPU_IIC_Send_Byte)
    MPU_IIC_Start                            0x08001829   Thumb Code    60  mpuiic.o(i.MPU_IIC_Start)
    MPU_IIC_Stop                             0x08001871   Thumb Code    58  mpuiic.o(i.MPU_IIC_Stop)
    MPU_IIC_Wait_Ack                         0x080018b9   Thumb Code    86  mpuiic.o(i.MPU_IIC_Wait_Ack)
    MPU_Init                                 0x0800191d   Thumb Code   122  mpu6050.o(i.MPU_Init)
    MPU_Mode                                 0x08001999   Thumb Code   310  main.o(i.MPU_Mode)
    MPU_Read                                 0x08001b89   Thumb Code    76  main.o(i.MPU_Read)
    MPU_Read_Byte                            0x08001c01   Thumb Code    58  mpu6050.o(i.MPU_Read_Byte)
    MPU_Read_Len                             0x08001c3b   Thumb Code   116  mpu6050.o(i.MPU_Read_Len)
    MPU_Set_Accel_Fsr                        0x08001caf   Thumb Code    16  mpu6050.o(i.MPU_Set_Accel_Fsr)
    MPU_Set_Gyro_Fsr                         0x08001cbf   Thumb Code    16  mpu6050.o(i.MPU_Set_Gyro_Fsr)
    MPU_Set_LPF                              0x08001ccf   Thumb Code    58  mpu6050.o(i.MPU_Set_LPF)
    MPU_Set_Rate                             0x08001d09   Thumb Code    58  mpu6050.o(i.MPU_Set_Rate)
    MPU_Write_Byte                           0x08001d43   Thumb Code    68  mpu6050.o(i.MPU_Write_Byte)
    MPU_Write_Len                            0x08001d87   Thumb Code    96  mpu6050.o(i.MPU_Write_Len)
    MemManage_Handler                        0x08001de7   Thumb Code     4  stm32f10x_it.o(i.MemManage_Handler)
    NMI_Handler                              0x08001deb   Thumb Code     2  stm32f10x_it.o(i.NMI_Handler)
    NVIC_Init                                0x08001ded   Thumb Code   100  misc.o(i.NVIC_Init)
    NVIC_PriorityGroupConfig                 0x08001e5d   Thumb Code    10  misc.o(i.NVIC_PriorityGroupConfig)
    PendSV_Handler                           0x08001e71   Thumb Code     2  stm32f10x_it.o(i.PendSV_Handler)
    RCC_APB2PeriphClockCmd                   0x08001e75   Thumb Code    26  stm32f10x_rcc.o(i.RCC_APB2PeriphClockCmd)
    RCC_GetClocksFreq                        0x08001e95   Thumb Code   192  stm32f10x_rcc.o(i.RCC_GetClocksFreq)
    SPI_WriteData                            0x08001f69   Thumb Code    54  lcd_basedriver.o(i.SPI_WriteData)
    SVC_Handler                              0x08001fa5   Thumb Code     2  stm32f10x_it.o(i.SVC_Handler)
    SYS_Init                                 0x08001fa9   Thumb Code   364  main.o(i.SYS_Init)
    SysTick_CLKSourceConfig                  0x08002251   Thumb Code    40  misc.o(i.SysTick_CLKSourceConfig)
    SysTick_Handler                          0x08002279   Thumb Code     2  stm32f10x_it.o(i.SysTick_Handler)
    SystemInit                               0x0800227d   Thumb Code    78  system_stm32f10x.o(i.SystemInit)
    USART1_IRQHandler                        0x080022dd   Thumb Code   122  usart.o(i.USART1_IRQHandler)
    USART_Cmd                                0x08002365   Thumb Code    24  stm32f10x_usart.o(i.USART_Cmd)
    USART_GetITStatus                        0x0800237d   Thumb Code    84  stm32f10x_usart.o(i.USART_GetITStatus)
    USART_ITConfig                           0x080023d1   Thumb Code    74  stm32f10x_usart.o(i.USART_ITConfig)
    USART_Init                               0x0800241d   Thumb Code   210  stm32f10x_usart.o(i.USART_Init)
    USART_ReceiveData                        0x080024f5   Thumb Code    10  stm32f10x_usart.o(i.USART_ReceiveData)
    UsageFault_Handler                       0x080024ff   Thumb Code     4  stm32f10x_it.o(i.UsageFault_Handler)
    __ARM_fpclassify                         0x08002503   Thumb Code    40  fpclassify.o(i.__ARM_fpclassify)
    __kernel_poly                            0x0800252b   Thumb Code   170  poly.o(i.__kernel_poly)
    __mathlib_dbl_infnan                     0x080025d5   Thumb Code     6  dunder.o(i.__mathlib_dbl_infnan)
    __mathlib_dbl_infnan2                    0x080025db   Thumb Code     4  dunder.o(i.__mathlib_dbl_infnan2)
    __mathlib_dbl_invalid                    0x080025df   Thumb Code    12  dunder.o(i.__mathlib_dbl_invalid)
    __mathlib_dbl_underflow                  0x080025ed   Thumb Code    10  dunder.o(i.__mathlib_dbl_underflow)
    _is_digit                                0x080025fd   Thumb Code    14  __printf_wp.o(i._is_digit)
    _sys_exit                                0x0800260b   Thumb Code     4  usart.o(i._sys_exit)
    asin                                     0x080026b9   Thumb Code   572  asin.o(i.asin)
    atan                                     0x08002929   Thumb Code   474  atan.o(i.atan)
    atan2                                    0x08002b49   Thumb Code   346  atan2.o(i.atan2)
    delay_init                               0x08002d2d   Thumb Code    50  delay.o(i.delay_init)
    delay_ms                                 0x08002d71   Thumb Code    72  delay.o(i.delay_ms)
    delay_us                                 0x08002dbd   Thumb Code    72  delay.o(i.delay_us)
    dmp_enable_6x_lp_quat                    0x08002e09   Thumb Code    60  inv_mpu_dmp_motion_driver.o(i.dmp_enable_6x_lp_quat)
    dmp_enable_feature                       0x08002e45   Thumb Code   530  inv_mpu_dmp_motion_driver.o(i.dmp_enable_feature)
    dmp_enable_gyro_cal                      0x08003061   Thumb Code    62  inv_mpu_dmp_motion_driver.o(i.dmp_enable_gyro_cal)
    dmp_enable_lp_quat                       0x080030b9   Thumb Code    60  inv_mpu_dmp_motion_driver.o(i.dmp_enable_lp_quat)
    dmp_load_motion_driver_firmware          0x080030f5   Thumb Code    20  inv_mpu_dmp_motion_driver.o(i.dmp_load_motion_driver_firmware)
    dmp_read_fifo                            0x0800310d   Thumb Code   456  inv_mpu_dmp_motion_driver.o(i.dmp_read_fifo)
    dmp_set_accel_bias                       0x080032d9   Thumb Code   300  inv_mpu_dmp_motion_driver.o(i.dmp_set_accel_bias)
    dmp_set_fifo_rate                        0x08003409   Thumb Code    96  inv_mpu_dmp_motion_driver.o(i.dmp_set_fifo_rate)
    dmp_set_gyro_bias                        0x08003479   Thumb Code   294  inv_mpu_dmp_motion_driver.o(i.dmp_set_gyro_bias)
    dmp_set_orientation                      0x080035a9   Thumb Code   290  inv_mpu_dmp_motion_driver.o(i.dmp_set_orientation)
    dmp_set_shake_reject_thresh              0x080036e1   Thumb Code    56  inv_mpu_dmp_motion_driver.o(i.dmp_set_shake_reject_thresh)
    dmp_set_shake_reject_time                0x08003719   Thumb Code    38  inv_mpu_dmp_motion_driver.o(i.dmp_set_shake_reject_time)
    dmp_set_shake_reject_timeout             0x0800373f   Thumb Code    38  inv_mpu_dmp_motion_driver.o(i.dmp_set_shake_reject_timeout)
    dmp_set_tap_axes                         0x08003765   Thumb Code    70  inv_mpu_dmp_motion_driver.o(i.dmp_set_tap_axes)
    dmp_set_tap_count                        0x080037ab   Thumb Code    38  inv_mpu_dmp_motion_driver.o(i.dmp_set_tap_count)
    dmp_set_tap_thresh                       0x080037d1   Thumb Code   396  inv_mpu_dmp_motion_driver.o(i.dmp_set_tap_thresh)
    dmp_set_tap_time                         0x08003971   Thumb Code    38  inv_mpu_dmp_motion_driver.o(i.dmp_set_tap_time)
    dmp_set_tap_time_multi                   0x08003997   Thumb Code    38  inv_mpu_dmp_motion_driver.o(i.dmp_set_tap_time_multi)
    fputc                                    0x080039bd   Thumb Code    24  usart.o(i.fputc)
    inv_orientation_matrix_to_scalar         0x0800400d   Thumb Code    40  inv_mpu.o(i.inv_orientation_matrix_to_scalar)
    inv_row_2_scale                          0x08004035   Thumb Code    78  inv_mpu.o(i.inv_row_2_scale)
    main                                     0x08004083   Thumb Code    20  main.o(i.main)
    mget_ms                                  0x08004097   Thumb Code     2  inv_mpu.o(i.mget_ms)
    mpu6050_send_data                        0x08004099   Thumb Code   110  niming.o(i.mpu6050_send_data)
    mpu_configure_fifo                       0x08004109   Thumb Code   106  inv_mpu.o(i.mpu_configure_fifo)
    mpu_dmp_get_data                         0x08004179   Thumb Code   544  inv_mpu.o(i.mpu_dmp_get_data)
    mpu_dmp_init                             0x0800439d   Thumb Code   154  inv_mpu.o(i.mpu_dmp_init)
    mpu_get_accel_fsr                        0x0800443d   Thumb Code    72  inv_mpu.o(i.mpu_get_accel_fsr)
    mpu_get_accel_sens                       0x08004489   Thumb Code    78  inv_mpu.o(i.mpu_get_accel_sens)
    mpu_get_fifo_config                      0x080044dd   Thumb Code    12  inv_mpu.o(i.mpu_get_fifo_config)
    mpu_get_gyro_fsr                         0x080044ed   Thumb Code    64  inv_mpu.o(i.mpu_get_gyro_fsr)
    mpu_get_gyro_sens                        0x08004531   Thumb Code    58  inv_mpu.o(i.mpu_get_gyro_sens)
    mpu_get_lpf                              0x08004581   Thumb Code    74  inv_mpu.o(i.mpu_get_lpf)
    mpu_get_sample_rate                      0x080045d1   Thumb Code    26  inv_mpu.o(i.mpu_get_sample_rate)
    mpu_init                                 0x080045f1   Thumb Code   416  inv_mpu.o(i.mpu_init)
    mpu_load_firmware                        0x080047e1   Thumb Code   180  inv_mpu.o(i.mpu_load_firmware)
    mpu_lp_accel_mode                        0x08004899   Thumb Code   218  inv_mpu.o(i.mpu_lp_accel_mode)
    mpu_read_fifo_stream                     0x08004979   Thumb Code   186  inv_mpu.o(i.mpu_read_fifo_stream)
    mpu_read_mem                             0x08004a39   Thumb Code   122  inv_mpu.o(i.mpu_read_mem)
    mpu_reset_fifo                           0x08004ab9   Thumb Code   450  inv_mpu.o(i.mpu_reset_fifo)
    mpu_run_self_test                        0x08004c81   Thumb Code   278  inv_mpu.o(i.mpu_run_self_test)
    mpu_set_accel_fsr                        0x08004d9d   Thumb Code   126  inv_mpu.o(i.mpu_set_accel_fsr)
    mpu_set_bypass                           0x08004e21   Thumb Code   328  inv_mpu.o(i.mpu_set_bypass)
    mpu_set_dmp_state                        0x08004f6d   Thumb Code   138  inv_mpu.o(i.mpu_set_dmp_state)
    mpu_set_gyro_fsr                         0x08004ffd   Thumb Code   132  inv_mpu.o(i.mpu_set_gyro_fsr)
    mpu_set_int_latched                      0x08005085   Thumb Code   102  inv_mpu.o(i.mpu_set_int_latched)
    mpu_set_lpf                              0x080050f1   Thumb Code   126  inv_mpu.o(i.mpu_set_lpf)
    mpu_set_sample_rate                      0x08005175   Thumb Code   152  inv_mpu.o(i.mpu_set_sample_rate)
    mpu_set_sensors                          0x08005211   Thumb Code   202  inv_mpu.o(i.mpu_set_sensors)
    mpu_write_mem                            0x080052e1   Thumb Code   122  inv_mpu.o(i.mpu_write_mem)
    run_self_test                            0x08005361   Thumb Code   148  inv_mpu.o(i.run_self_test)
    sqrt                                     0x08005485   Thumb Code    76  sqrt.o(i.sqrt)
    uart_init                                0x080054d1   Thumb Code   152  usart.o(i.uart_init)
    usart1_niming_report                     0x08005571   Thumb Code   120  niming.o(i.usart1_niming_report)
    usart1_report_imu                        0x080055e9   Thumb Code   192  niming.o(i.usart1_report_imu)
    usart1_send_char                         0x080056a9   Thumb Code    22  niming.o(i.usart1_send_char)
    __aeabi_d2f                              0x080056c5   Thumb Code     0  d2f.o(x$fpl$d2f)
    _d2f                                     0x080056c5   Thumb Code    98  d2f.o(x$fpl$d2f)
    __aeabi_dadd                             0x08005729   Thumb Code     0  daddsub_clz.o(x$fpl$dadd)
    _dadd                                    0x08005729   Thumb Code   332  daddsub_clz.o(x$fpl$dadd)
    __fpl_dcheck_NaN1                        0x08005879   Thumb Code    10  dcheck1.o(x$fpl$dcheck1)
    __aeabi_ddiv                             0x08005889   Thumb Code     0  ddiv.o(x$fpl$ddiv)
    _ddiv                                    0x08005889   Thumb Code   552  ddiv.o(x$fpl$ddiv)
    __aeabi_i2d                              0x08005b39   Thumb Code     0  dflt_clz.o(x$fpl$dflt)
    _dflt                                    0x08005b39   Thumb Code    46  dflt_clz.o(x$fpl$dflt)
    __aeabi_dmul                             0x08005b69   Thumb Code     0  dmul.o(x$fpl$dmul)
    _dmul                                    0x08005b69   Thumb Code   332  dmul.o(x$fpl$dmul)
    __fpl_dnaninf                            0x08005cbd   Thumb Code   156  dnaninf.o(x$fpl$dnaninf)
    __fpl_dretinf                            0x08005d59   Thumb Code    12  dretinf.o(x$fpl$dretinf)
    __aeabi_drsub                            0x08005d65   Thumb Code     0  daddsub_clz.o(x$fpl$drsb)
    _drsb                                    0x08005d65   Thumb Code    22  daddsub_clz.o(x$fpl$drsb)
    _dsqrt                                   0x08005d7d   Thumb Code   456  dsqrt_noumaal.o(x$fpl$dsqrt)
    __aeabi_dsub                             0x08005f49   Thumb Code     0  daddsub_clz.o(x$fpl$dsub)
    _dsub                                    0x08005f49   Thumb Code   464  daddsub_clz.o(x$fpl$dsub)
    __aeabi_f2d                              0x0800611d   Thumb Code     0  f2d.o(x$fpl$f2d)
    _f2d                                     0x0800611d   Thumb Code    86  f2d.o(x$fpl$f2d)
    __aeabi_fadd                             0x08006175   Thumb Code     0  faddsub_clz.o(x$fpl$fadd)
    _fadd                                    0x08006175   Thumb Code   196  faddsub_clz.o(x$fpl$fadd)
    __fpl_fcmp_Inf                           0x08006239   Thumb Code    24  fcmpi.o(x$fpl$fcmpinf)
    __aeabi_fdiv                             0x08006251   Thumb Code     0  fdiv.o(x$fpl$fdiv)
    _fdiv                                    0x08006251   Thumb Code   384  fdiv.o(x$fpl$fdiv)
    __aeabi_cfcmpeq                          0x080063d5   Thumb Code     0  feqf.o(x$fpl$feqf)
    _fcmpeq                                  0x080063d5   Thumb Code   104  feqf.o(x$fpl$feqf)
    __aeabi_f2iz                             0x0800643d   Thumb Code     0  ffix.o(x$fpl$ffix)
    _ffix                                    0x0800643d   Thumb Code    54  ffix.o(x$fpl$ffix)
    __aeabi_f2uiz                            0x08006475   Thumb Code     0  ffixu.o(x$fpl$ffixu)
    _ffixu                                   0x08006475   Thumb Code    62  ffixu.o(x$fpl$ffixu)
    __aeabi_i2f                              0x080064b5   Thumb Code     0  fflt_clz.o(x$fpl$fflt)
    _fflt                                    0x080064b5   Thumb Code    48  fflt_clz.o(x$fpl$fflt)
    __aeabi_ui2f                             0x080064e5   Thumb Code     0  fflt_clz.o(x$fpl$ffltu)
    _ffltu                                   0x080064e5   Thumb Code    38  fflt_clz.o(x$fpl$ffltu)
    __aeabi_cfcmple                          0x0800650d   Thumb Code     0  fleqf.o(x$fpl$fleqf)
    _fcmple                                  0x0800650d   Thumb Code   104  fleqf.o(x$fpl$fleqf)
    __fpl_fcmple_InfNaN                      0x0800655f   Thumb Code     0  fleqf.o(x$fpl$fleqf)
    __aeabi_fmul                             0x08006575   Thumb Code     0  fmul.o(x$fpl$fmul)
    _fmul                                    0x08006575   Thumb Code   258  fmul.o(x$fpl$fmul)
    __fpl_fnaninf                            0x08006677   Thumb Code   140  fnaninf.o(x$fpl$fnaninf)
    __fpl_fretinf                            0x08006703   Thumb Code    10  fretinf.o(x$fpl$fretinf)
    __aeabi_cfrcmple                         0x0800670d   Thumb Code     0  frleqf.o(x$fpl$frleqf)
    _frcmple                                 0x0800670d   Thumb Code    98  frleqf.o(x$fpl$frleqf)
    __aeabi_fsub                             0x08006771   Thumb Code     0  faddsub_clz.o(x$fpl$fsub)
    _fsub                                    0x08006771   Thumb Code   234  faddsub_clz.o(x$fpl$fsub)
    __fpl_return_NaN                         0x0800685b   Thumb Code   100  retnan.o(x$fpl$retnan)
    __ARM_scalbn                             0x080068bf   Thumb Code    92  scalbn.o(x$fpl$scalbn)
    __fpl_cmpreturn                          0x0800691b   Thumb Code    48  trapv.o(x$fpl$trapveneer)
    __I$use$fp                               0x0800694a   Number         0  usenofp.o(x$fpl$usenofp)
    asc16                                    0x0800694a   Data        1521  lcd_guidriver.o(.constdata)
    sz32                                     0x08006f3b   Data        1921  lcd_guidriver.o(.constdata)
    hz16                                     0x080076bc   Data        1700  lcd_guidriver.o(.constdata)
    hz24                                     0x08007d60   Data        1406  lcd_guidriver.o(.constdata)
    reg                                      0x080082e0   Data          27  inv_mpu.o(.constdata)
    hw                                       0x080082fc   Data          12  inv_mpu.o(.constdata)
    test                                     0x08008308   Data          40  inv_mpu.o(.constdata)
    __mathlib_zero                           0x08009020   Data           8  qnan.o(.constdata)
    Region$$Table$$Base                      0x08009078   Number         0  anon$$obj.o(Region$$Table)
    Region$$Table$$Limit                     0x08009098   Number         0  anon$$obj.o(Region$$Table)
    pitch                                    0x20000000   Data           4  main.o(.data)
    roll                                     0x20000004   Data           4  main.o(.data)
    yaw                                      0x20000008   Data           4  main.o(.data)
    aacx                                     0x2000000c   Data           2  main.o(.data)
    aacy                                     0x2000000e   Data           2  main.o(.data)
    aacz                                     0x20000010   Data           2  main.o(.data)
    gyrox                                    0x20000012   Data           2  main.o(.data)
    gyroy                                    0x20000014   Data           2  main.o(.data)
    gyroz                                    0x20000016   Data           2  main.o(.data)
    temp                                     0x20000018   Data           2  main.o(.data)
    key                                      0x2000001a   Data           1  main.o(.data)
    mpu6050                                  0x2000001b   Data           3  main.o(.data)
    SystemCoreClock                          0x20000020   Data           4  system_stm32f10x.o(.data)
    AHBPrescTable                            0x20000024   Data          16  system_stm32f10x.o(.data)
    __stdout                                 0x20000074   Data           4  usart.o(.data)
    USART_RX_STA                             0x20000078   Data           2  usart.o(.data)
    tmp_buf                                  0x20000090   Data          33  main.o(.bss)
    USART_RX_BUF                             0x200000c4   Data         200  usart.o(.bss)
    __libspace_start                         0x2000018c   Data          96  libspace.o(.bss)
    __temporary_stack_top$libspace           0x200001ec   Data           0  libspace.o(.bss)



==============================================================================

Memory Map of the image

  Image Entry point : 0x080001d5

  Load Region LR_1 (Base: 0x08000000, Size: 0x00009128, Max: 0xffffffff, ABSOLUTE)

    Execution Region ER_RO (Base: 0x08000000, Size: 0x00009098, Max: 0xffffffff, ABSOLUTE)

    Base Addr    Size         Type   Attr      Idx    E Section Name        Object

    0x08000000   0x00000130   Data   RO         1378    RESET               startup_stm32f10x_hd.o
    0x08000130   0x00000008   Code   RO         2007  * !!!main             c_w.l(__main.o)
    0x08000138   0x00000034   Code   RO         2334    !!!scatter          c_w.l(__scatter.o)
    0x0800016c   0x0000001a   Code   RO         2336    !!handler_copy      c_w.l(__scatter_copy.o)
    0x08000186   0x00000002   PAD
    0x08000188   0x0000001c   Code   RO         2338    !!handler_zi        c_w.l(__scatter_zi.o)
    0x080001a4   0x00000000   Code   RO         2000    .ARM.Collect$$_printf_percent$$00000000  c_w.l(_printf_percent.o)
    0x080001a4   0x00000006   Code   RO         1999    .ARM.Collect$$_printf_percent$$00000009  c_w.l(_printf_d.o)
    0x080001aa   0x00000004   Code   RO         2096    .ARM.Collect$$_printf_percent$$00000017  c_w.l(_printf_percent_end.o)
    0x080001ae   0x00000002   Code   RO         2201    .ARM.Collect$$libinit$$00000000  c_w.l(libinit.o)
    0x080001b0   0x00000000   Code   RO         2213    .ARM.Collect$$libinit$$00000002  c_w.l(libinit2.o)
    0x080001b0   0x00000000   Code   RO         2215    .ARM.Collect$$libinit$$00000004  c_w.l(libinit2.o)
    0x080001b0   0x00000000   Code   RO         2218    .ARM.Collect$$libinit$$0000000A  c_w.l(libinit2.o)
    0x080001b0   0x00000000   Code   RO         2220    .ARM.Collect$$libinit$$0000000C  c_w.l(libinit2.o)
    0x080001b0   0x00000000   Code   RO         2222    .ARM.Collect$$libinit$$0000000E  c_w.l(libinit2.o)
    0x080001b0   0x00000000   Code   RO         2225    .ARM.Collect$$libinit$$00000011  c_w.l(libinit2.o)
    0x080001b0   0x00000000   Code   RO         2227    .ARM.Collect$$libinit$$00000013  c_w.l(libinit2.o)
    0x080001b0   0x00000000   Code   RO         2229    .ARM.Collect$$libinit$$00000015  c_w.l(libinit2.o)
    0x080001b0   0x00000000   Code   RO         2231    .ARM.Collect$$libinit$$00000017  c_w.l(libinit2.o)
    0x080001b0   0x00000000   Code   RO         2233    .ARM.Collect$$libinit$$00000019  c_w.l(libinit2.o)
    0x080001b0   0x00000000   Code   RO         2235    .ARM.Collect$$libinit$$0000001B  c_w.l(libinit2.o)
    0x080001b0   0x00000000   Code   RO         2237    .ARM.Collect$$libinit$$0000001D  c_w.l(libinit2.o)
    0x080001b0   0x00000000   Code   RO         2239    .ARM.Collect$$libinit$$0000001F  c_w.l(libinit2.o)
    0x080001b0   0x00000000   Code   RO         2241    .ARM.Collect$$libinit$$00000021  c_w.l(libinit2.o)
    0x080001b0   0x00000000   Code   RO         2243    .ARM.Collect$$libinit$$00000023  c_w.l(libinit2.o)
    0x080001b0   0x00000000   Code   RO         2245    .ARM.Collect$$libinit$$00000025  c_w.l(libinit2.o)
    0x080001b0   0x00000000   Code   RO         2249    .ARM.Collect$$libinit$$0000002C  c_w.l(libinit2.o)
    0x080001b0   0x00000000   Code   RO         2251    .ARM.Collect$$libinit$$0000002E  c_w.l(libinit2.o)
    0x080001b0   0x00000000   Code   RO         2253    .ARM.Collect$$libinit$$00000030  c_w.l(libinit2.o)
    0x080001b0   0x00000000   Code   RO         2255    .ARM.Collect$$libinit$$00000032  c_w.l(libinit2.o)
    0x080001b0   0x00000002   Code   RO         2256    .ARM.Collect$$libinit$$00000033  c_w.l(libinit2.o)
    0x080001b2   0x00000002   Code   RO         2286    .ARM.Collect$$libshutdown$$00000000  c_w.l(libshutdown.o)
    0x080001b4   0x00000000   Code   RO         2300    .ARM.Collect$$libshutdown$$00000002  c_w.l(libshutdown2.o)
    0x080001b4   0x00000000   Code   RO         2302    .ARM.Collect$$libshutdown$$00000004  c_w.l(libshutdown2.o)
    0x080001b4   0x00000000   Code   RO         2305    .ARM.Collect$$libshutdown$$00000007  c_w.l(libshutdown2.o)
    0x080001b4   0x00000000   Code   RO         2308    .ARM.Collect$$libshutdown$$0000000A  c_w.l(libshutdown2.o)
    0x080001b4   0x00000000   Code   RO         2310    .ARM.Collect$$libshutdown$$0000000C  c_w.l(libshutdown2.o)
    0x080001b4   0x00000000   Code   RO         2313    .ARM.Collect$$libshutdown$$0000000F  c_w.l(libshutdown2.o)
    0x080001b4   0x00000002   Code   RO         2314    .ARM.Collect$$libshutdown$$00000010  c_w.l(libshutdown2.o)
    0x080001b6   0x00000000   Code   RO         2083    .ARM.Collect$$rtentry$$00000000  c_w.l(__rtentry.o)
    0x080001b6   0x00000000   Code   RO         2150    .ARM.Collect$$rtentry$$00000002  c_w.l(__rtentry2.o)
    0x080001b6   0x00000006   Code   RO         2162    .ARM.Collect$$rtentry$$00000004  c_w.l(__rtentry4.o)
    0x080001bc   0x00000000   Code   RO         2152    .ARM.Collect$$rtentry$$00000009  c_w.l(__rtentry2.o)
    0x080001bc   0x00000004   Code   RO         2153    .ARM.Collect$$rtentry$$0000000A  c_w.l(__rtentry2.o)
    0x080001c0   0x00000000   Code   RO         2155    .ARM.Collect$$rtentry$$0000000C  c_w.l(__rtentry2.o)
    0x080001c0   0x00000008   Code   RO         2156    .ARM.Collect$$rtentry$$0000000D  c_w.l(__rtentry2.o)
    0x080001c8   0x00000002   Code   RO         2206    .ARM.Collect$$rtexit$$00000000  c_w.l(rtexit.o)
    0x080001ca   0x00000000   Code   RO         2260    .ARM.Collect$$rtexit$$00000002  c_w.l(rtexit2.o)
    0x080001ca   0x00000004   Code   RO         2261    .ARM.Collect$$rtexit$$00000003  c_w.l(rtexit2.o)
    0x080001ce   0x00000006   Code   RO         2262    .ARM.Collect$$rtexit$$00000004  c_w.l(rtexit2.o)
    0x080001d4   0x00000040   Code   RO         1379  * .text               startup_stm32f10x_hd.o
    0x08000214   0x00000002   Code   RO         1939    .text               c_w.l(use_no_semi_2.o)
    0x08000216   0x00000048   Code   RO         1941    .text               c_w.l(llsdiv.o)
    0x0800025e   0x00000002   PAD
    0x08000260   0x00000018   Code   RO         1947    .text               c_w.l(noretval__2printf.o)
    0x08000278   0x00000028   Code   RO         1949    .text               c_w.l(noretval__2sprintf.o)
    0x080002a0   0x0000004e   Code   RO         1953    .text               c_w.l(_printf_pad.o)
    0x080002ee   0x00000002   PAD
    0x080002f0   0x00000078   Code   RO         1955    .text               c_w.l(_printf_dec.o)
    0x08000368   0x00000138   Code   RO         1990    .text               c_w.l(__printf_flags_wp.o)
    0x080004a0   0x00000058   Code   RO         2001    .text               c_w.l(memcmp.o)
    0x080004f8   0x00000010   Code   RO         2003    .text               c_w.l(aeabi_memset.o)
    0x08000508   0x00000006   Code   RO         2005    .text               c_w.l(heapauxi.o)
    0x0800050e   0x00000002   Code   RO         2081    .text               c_w.l(use_no_semi.o)
    0x08000510   0x000000ee   Code   RO         2084    .text               c_w.l(lludivv7m.o)
    0x080005fe   0x00000016   Code   RO         2086    .text               c_w.l(_rserrno.o)
    0x08000614   0x000000b2   Code   RO         2088    .text               c_w.l(_printf_intcommon.o)
    0x080006c6   0x00000002   PAD
    0x080006c8   0x00000030   Code   RO         2090    .text               c_w.l(_printf_char_common.o)
    0x080006f8   0x0000000a   Code   RO         2092    .text               c_w.l(_sputc.o)
    0x08000702   0x00000002   PAD
    0x08000704   0x00000024   Code   RO         2094    .text               c_w.l(_printf_char_file.o)
    0x08000728   0x00000044   Code   RO         2097    .text               c_w.l(rt_memclr.o)
    0x0800076c   0x00000008   Code   RO         2171    .text               c_w.l(rt_errno_addr_intlibspace.o)
    0x08000774   0x00000008   Code   RO         2175    .text               c_w.l(ferror.o)
    0x0800077c   0x0000004e   Code   RO         2179    .text               c_w.l(rt_memclr_w.o)
    0x080007ca   0x00000002   PAD
    0x080007cc   0x00000008   Code   RO         2187    .text               c_w.l(libspace.o)
    0x080007d4   0x0000004a   Code   RO         2190    .text               c_w.l(sys_stackheap_outer.o)
    0x0800081e   0x00000012   Code   RO         2194    .text               c_w.l(exit.o)
    0x08000830   0x00000004   Code   RO          176    i.BusFault_Handler  stm32f10x_it.o
    0x08000834   0x000004c0   Code   RO            1    i.DATA_Report       main.o
    0x08000cf4   0x00000002   Code   RO          177    i.DebugMon_Handler  stm32f10x_it.o
    0x08000cf6   0x00000116   Code   RO         1425    i.GPIO_Init         stm32f10x_gpio.o
    0x08000e0c   0x00000090   Code   RO         1427    i.GPIO_PinRemapConfig  stm32f10x_gpio.o
    0x08000e9c   0x00000012   Code   RO         1429    i.GPIO_ReadInputDataBit  stm32f10x_gpio.o
    0x08000eae   0x00000004   Code   RO         1433    i.GPIO_SetBits      stm32f10x_gpio.o
    0x08000eb2   0x00000002   PAD
    0x08000eb4   0x00000194   Code   RO          490    i.Gui_DrawFont_GBK16  lcd_guidriver.o
    0x08001048   0x00000020   Code   RO          368    i.Gui_DrawPoint     lcd_basedriver.o
    0x08001068   0x00000004   Code   RO          178    i.HardFault_Handler  stm32f10x_it.o
    0x0800106c   0x00000060   Code   RO          559    i.KEY_Init          key.o
    0x080010cc   0x000000a8   Code   RO          560    i.KEY_Scan          key.o
    0x08001174   0x00000068   Code   RO          369    i.LCD_GPIO_Init     lcd_basedriver.o
    0x080011dc   0x00000030   Code   RO          370    i.LCD_WriteData_16Bit  lcd_basedriver.o
    0x0800120c   0x00000050   Code   RO          356    i.LED_Init          led.o
    0x0800125c   0x00000032   Code   RO          371    i.Lcd_Clear         lcd_basedriver.o
    0x0800128e   0x00000222   Code   RO          372    i.Lcd_Init          lcd_basedriver.o
    0x080014b0   0x00000024   Code   RO          374    i.Lcd_Reset         lcd_basedriver.o
    0x080014d4   0x00000056   Code   RO          375    i.Lcd_SetRegion     lcd_basedriver.o
    0x0800152a   0x00000002   PAD
    0x0800152c   0x00000028   Code   RO          377    i.Lcd_WriteData     lcd_basedriver.o
    0x08001554   0x00000028   Code   RO          378    i.Lcd_WriteIndex    lcd_basedriver.o
    0x0800157c   0x00000050   Code   RO          581    i.MPU_Get_Accelerometer  mpu6050.o
    0x080015cc   0x00000050   Code   RO          582    i.MPU_Get_Gyroscope  mpu6050.o
    0x0800161c   0x00000068   Code   RO          583    i.MPU_Get_Temperature  mpu6050.o
    0x08001684   0x0000004c   Code   RO          659    i.MPU_IIC_Ack       mpuiic.o
    0x080016d0   0x0000000a   Code   RO          660    i.MPU_IIC_Delay     mpuiic.o
    0x080016da   0x00000002   PAD
    0x080016dc   0x00000038   Code   RO          661    i.MPU_IIC_Init      mpuiic.o
    0x08001714   0x0000004c   Code   RO          662    i.MPU_IIC_NAck      mpuiic.o
    0x08001760   0x0000006c   Code   RO          663    i.MPU_IIC_Read_Byte  mpuiic.o
    0x080017cc   0x0000005c   Code   RO          664    i.MPU_IIC_Send_Byte  mpuiic.o
    0x08001828   0x00000048   Code   RO          665    i.MPU_IIC_Start     mpuiic.o
    0x08001870   0x00000048   Code   RO          666    i.MPU_IIC_Stop      mpuiic.o
    0x080018b8   0x00000064   Code   RO          667    i.MPU_IIC_Wait_Ack  mpuiic.o
    0x0800191c   0x0000007a   Code   RO          584    i.MPU_Init          mpu6050.o
    0x08001996   0x00000002   PAD
    0x08001998   0x000001f0   Code   RO            2    i.MPU_Mode          main.o
    0x08001b88   0x00000078   Code   RO            3    i.MPU_Read          main.o
    0x08001c00   0x0000003a   Code   RO          585    i.MPU_Read_Byte     mpu6050.o
    0x08001c3a   0x00000074   Code   RO          586    i.MPU_Read_Len      mpu6050.o
    0x08001cae   0x00000010   Code   RO          587    i.MPU_Set_Accel_Fsr  mpu6050.o
    0x08001cbe   0x00000010   Code   RO          588    i.MPU_Set_Gyro_Fsr  mpu6050.o
    0x08001cce   0x0000003a   Code   RO          589    i.MPU_Set_LPF       mpu6050.o
    0x08001d08   0x0000003a   Code   RO          590    i.MPU_Set_Rate      mpu6050.o
    0x08001d42   0x00000044   Code   RO          591    i.MPU_Write_Byte    mpu6050.o
    0x08001d86   0x00000060   Code   RO          592    i.MPU_Write_Len     mpu6050.o
    0x08001de6   0x00000004   Code   RO          179    i.MemManage_Handler  stm32f10x_it.o
    0x08001dea   0x00000002   Code   RO          180    i.NMI_Handler       stm32f10x_it.o
    0x08001dec   0x00000070   Code   RO         1383    i.NVIC_Init         misc.o
    0x08001e5c   0x00000014   Code   RO         1384    i.NVIC_PriorityGroupConfig  misc.o
    0x08001e70   0x00000002   Code   RO          181    i.PendSV_Handler    stm32f10x_it.o
    0x08001e72   0x00000002   PAD
    0x08001e74   0x00000020   Code   RO         1561    i.RCC_APB2PeriphClockCmd  stm32f10x_rcc.o
    0x08001e94   0x000000d4   Code   RO         1569    i.RCC_GetClocksFreq  stm32f10x_rcc.o
    0x08001f68   0x0000003c   Code   RO          380    i.SPI_WriteData     lcd_basedriver.o
    0x08001fa4   0x00000002   Code   RO          182    i.SVC_Handler       stm32f10x_it.o
    0x08001fa6   0x00000002   PAD
    0x08001fa8   0x000001c0   Code   RO            4    i.SYS_Init          main.o
    0x08002168   0x00000008   Code   RO          322    i.SetSysClock       system_stm32f10x.o
    0x08002170   0x000000e0   Code   RO          323    i.SetSysClockTo72   system_stm32f10x.o
    0x08002250   0x00000028   Code   RO         1387    i.SysTick_CLKSourceConfig  misc.o
    0x08002278   0x00000002   Code   RO          183    i.SysTick_Handler   stm32f10x_it.o
    0x0800227a   0x00000002   PAD
    0x0800227c   0x00000060   Code   RO          325    i.SystemInit        system_stm32f10x.o
    0x080022dc   0x00000088   Code   RO         1325    i.USART1_IRQHandler  usart.o
    0x08002364   0x00000018   Code   RO         1761    i.USART_Cmd         stm32f10x_usart.o
    0x0800237c   0x00000054   Code   RO         1765    i.USART_GetITStatus  stm32f10x_usart.o
    0x080023d0   0x0000004a   Code   RO         1767    i.USART_ITConfig    stm32f10x_usart.o
    0x0800241a   0x00000002   PAD
    0x0800241c   0x000000d8   Code   RO         1768    i.USART_Init        stm32f10x_usart.o
    0x080024f4   0x0000000a   Code   RO         1775    i.USART_ReceiveData  stm32f10x_usart.o
    0x080024fe   0x00000004   Code   RO          184    i.UsageFault_Handler  stm32f10x_it.o
    0x08002502   0x00000028   Code   RO         2136    i.__ARM_fpclassify  m_ws.l(fpclassify.o)
    0x0800252a   0x000000aa   Code   RO         2138    i.__kernel_poly     m_ws.l(poly.o)
    0x080025d4   0x00000006   Code   RO         2123    i.__mathlib_dbl_infnan  m_ws.l(dunder.o)
    0x080025da   0x00000004   Code   RO         2124    i.__mathlib_dbl_infnan2  m_ws.l(dunder.o)
    0x080025de   0x0000000c   Code   RO         2125    i.__mathlib_dbl_invalid  m_ws.l(dunder.o)
    0x080025ea   0x00000002   PAD
    0x080025ec   0x00000010   Code   RO         2128    i.__mathlib_dbl_underflow  m_ws.l(dunder.o)
    0x080025fc   0x0000000e   Code   RO         1988    i._is_digit         c_w.l(__printf_wp.o)
    0x0800260a   0x00000004   Code   RO         1326    i._sys_exit         usart.o
    0x0800260e   0x00000002   PAD
    0x08002610   0x000000a8   Code   RO          719    i.accel_self_test   inv_mpu.o
    0x080026b8   0x00000270   Code   RO         2064    i.asin              m_ws.l(asin.o)
    0x08002928   0x00000220   Code   RO         2113    i.atan              m_ws.l(atan.o)
    0x08002b48   0x00000180   Code   RO         2074    i.atan2             m_ws.l(atan2.o)
    0x08002cc8   0x00000064   Code   RO         1044    i.decode_gesture    inv_mpu_dmp_motion_driver.o
    0x08002d2c   0x00000044   Code   RO         1270    i.delay_init        delay.o
    0x08002d70   0x0000004c   Code   RO         1271    i.delay_ms          delay.o
    0x08002dbc   0x0000004c   Code   RO         1272    i.delay_us          delay.o
    0x08002e08   0x0000003c   Code   RO         1045    i.dmp_enable_6x_lp_quat  inv_mpu_dmp_motion_driver.o
    0x08002e44   0x0000021c   Code   RO         1046    i.dmp_enable_feature  inv_mpu_dmp_motion_driver.o
    0x08003060   0x00000058   Code   RO         1047    i.dmp_enable_gyro_cal  inv_mpu_dmp_motion_driver.o
    0x080030b8   0x0000003c   Code   RO         1048    i.dmp_enable_lp_quat  inv_mpu_dmp_motion_driver.o
    0x080030f4   0x00000018   Code   RO         1053    i.dmp_load_motion_driver_firmware  inv_mpu_dmp_motion_driver.o
    0x0800310c   0x000001cc   Code   RO         1054    i.dmp_read_fifo     inv_mpu_dmp_motion_driver.o
    0x080032d8   0x00000130   Code   RO         1057    i.dmp_set_accel_bias  inv_mpu_dmp_motion_driver.o
    0x08003408   0x00000070   Code   RO         1058    i.dmp_set_fifo_rate  inv_mpu_dmp_motion_driver.o
    0x08003478   0x00000130   Code   RO         1059    i.dmp_set_gyro_bias  inv_mpu_dmp_motion_driver.o
    0x080035a8   0x00000138   Code   RO         1061    i.dmp_set_orientation  inv_mpu_dmp_motion_driver.o
    0x080036e0   0x00000038   Code   RO         1064    i.dmp_set_shake_reject_thresh  inv_mpu_dmp_motion_driver.o
    0x08003718   0x00000026   Code   RO         1065    i.dmp_set_shake_reject_time  inv_mpu_dmp_motion_driver.o
    0x0800373e   0x00000026   Code   RO         1066    i.dmp_set_shake_reject_timeout  inv_mpu_dmp_motion_driver.o
    0x08003764   0x00000046   Code   RO         1067    i.dmp_set_tap_axes  inv_mpu_dmp_motion_driver.o
    0x080037aa   0x00000026   Code   RO         1068    i.dmp_set_tap_count  inv_mpu_dmp_motion_driver.o
    0x080037d0   0x000001a0   Code   RO         1069    i.dmp_set_tap_thresh  inv_mpu_dmp_motion_driver.o
    0x08003970   0x00000026   Code   RO         1070    i.dmp_set_tap_time  inv_mpu_dmp_motion_driver.o
    0x08003996   0x00000026   Code   RO         1071    i.dmp_set_tap_time_multi  inv_mpu_dmp_motion_driver.o
    0x080039bc   0x0000001c   Code   RO         1327    i.fputc             usart.o
    0x080039d8   0x000000b4   Code   RO          720    i.get_accel_prod_shift  inv_mpu.o
    0x08003a8c   0x00000470   Code   RO          721    i.get_st_biases     inv_mpu.o
    0x08003efc   0x00000110   Code   RO          722    i.gyro_self_test    inv_mpu.o
    0x0800400c   0x00000028   Code   RO          723    i.inv_orientation_matrix_to_scalar  inv_mpu.o
    0x08004034   0x0000004e   Code   RO          724    i.inv_row_2_scale   inv_mpu.o
    0x08004082   0x00000014   Code   RO            5    i.main              main.o
    0x08004096   0x00000002   Code   RO          725    i.mget_ms           inv_mpu.o
    0x08004098   0x0000006e   Code   RO         1240    i.mpu6050_send_data  niming.o
    0x08004106   0x00000002   PAD
    0x08004108   0x00000070   Code   RO          726    i.mpu_configure_fifo  inv_mpu.o
    0x08004178   0x00000224   Code   RO          727    i.mpu_dmp_get_data  inv_mpu.o
    0x0800439c   0x000000a0   Code   RO          728    i.mpu_dmp_init      inv_mpu.o
    0x0800443c   0x0000004c   Code   RO          729    i.mpu_get_accel_fsr  inv_mpu.o
    0x08004488   0x00000054   Code   RO          731    i.mpu_get_accel_sens  inv_mpu.o
    0x080044dc   0x00000010   Code   RO          736    i.mpu_get_fifo_config  inv_mpu.o
    0x080044ec   0x00000044   Code   RO          737    i.mpu_get_gyro_fsr  inv_mpu.o
    0x08004530   0x00000050   Code   RO          739    i.mpu_get_gyro_sens  inv_mpu.o
    0x08004580   0x00000050   Code   RO          741    i.mpu_get_lpf       inv_mpu.o
    0x080045d0   0x00000020   Code   RO          743    i.mpu_get_sample_rate  inv_mpu.o
    0x080045f0   0x000001f0   Code   RO          745    i.mpu_init          inv_mpu.o
    0x080047e0   0x000000b8   Code   RO          746    i.mpu_load_firmware  inv_mpu.o
    0x08004898   0x000000e0   Code   RO          747    i.mpu_lp_accel_mode  inv_mpu.o
    0x08004978   0x000000c0   Code   RO          750    i.mpu_read_fifo_stream  inv_mpu.o
    0x08004a38   0x00000080   Code   RO          751    i.mpu_read_mem      inv_mpu.o
    0x08004ab8   0x000001c8   Code   RO          754    i.mpu_reset_fifo    inv_mpu.o
    0x08004c80   0x0000011c   Code   RO          755    i.mpu_run_self_test  inv_mpu.o
    0x08004d9c   0x00000084   Code   RO          757    i.mpu_set_accel_fsr  inv_mpu.o
    0x08004e20   0x0000014c   Code   RO          758    i.mpu_set_bypass    inv_mpu.o
    0x08004f6c   0x00000090   Code   RO          760    i.mpu_set_dmp_state  inv_mpu.o
    0x08004ffc   0x00000088   Code   RO          761    i.mpu_set_gyro_fsr  inv_mpu.o
    0x08005084   0x0000006c   Code   RO          762    i.mpu_set_int_latched  inv_mpu.o
    0x080050f0   0x00000084   Code   RO          764    i.mpu_set_lpf       inv_mpu.o
    0x08005174   0x0000009c   Code   RO          765    i.mpu_set_sample_rate  inv_mpu.o
    0x08005210   0x000000d0   Code   RO          766    i.mpu_set_sensors   inv_mpu.o
    0x080052e0   0x00000080   Code   RO          767    i.mpu_write_mem     inv_mpu.o
    0x08005360   0x00000094   Code   RO          768    i.run_self_test     inv_mpu.o
    0x080053f4   0x00000090   Code   RO          769    i.set_int_enable    inv_mpu.o
    0x08005484   0x0000004c   Code   RO         2142    i.sqrt              m_ws.l(sqrt.o)
    0x080054d0   0x000000a0   Code   RO         1328    i.uart_init         usart.o
    0x08005570   0x00000078   Code   RO         1241    i.usart1_niming_report  niming.o
    0x080055e8   0x000000c0   Code   RO         1242    i.usart1_report_imu  niming.o
    0x080056a8   0x0000001c   Code   RO         1243    i.usart1_send_char  niming.o
    0x080056c4   0x00000062   Code   RO         2009    x$fpl$d2f           fz_ws.l(d2f.o)
    0x08005726   0x00000002   PAD
    0x08005728   0x00000150   Code   RO         2011    x$fpl$dadd          fz_ws.l(daddsub_clz.o)
    0x08005878   0x00000010   Code   RO         2181    x$fpl$dcheck1       fz_ws.l(dcheck1.o)
    0x08005888   0x000002b0   Code   RO         2018    x$fpl$ddiv          fz_ws.l(ddiv.o)
    0x08005b38   0x0000002e   Code   RO         2022    x$fpl$dflt          fz_ws.l(dflt_clz.o)
    0x08005b66   0x00000002   PAD
    0x08005b68   0x00000154   Code   RO         2027    x$fpl$dmul          fz_ws.l(dmul.o)
    0x08005cbc   0x0000009c   Code   RO         2099    x$fpl$dnaninf       fz_ws.l(dnaninf.o)
    0x08005d58   0x0000000c   Code   RO         2101    x$fpl$dretinf       fz_ws.l(dretinf.o)
    0x08005d64   0x00000016   Code   RO         2012    x$fpl$drsb          fz_ws.l(daddsub_clz.o)
    0x08005d7a   0x00000002   PAD
    0x08005d7c   0x000001cc   Code   RO         2185    x$fpl$dsqrt         fz_ws.l(dsqrt_noumaal.o)
    0x08005f48   0x000001d4   Code   RO         2013    x$fpl$dsub          fz_ws.l(daddsub_clz.o)
    0x0800611c   0x00000056   Code   RO         2029    x$fpl$f2d           fz_ws.l(f2d.o)
    0x08006172   0x00000002   PAD
    0x08006174   0x000000c4   Code   RO         2031    x$fpl$fadd          fz_ws.l(faddsub_clz.o)
    0x08006238   0x00000018   Code   RO         2103    x$fpl$fcmpinf       fz_ws.l(fcmpi.o)
    0x08006250   0x00000184   Code   RO         2038    x$fpl$fdiv          fz_ws.l(fdiv.o)
    0x080063d4   0x00000068   Code   RO         2041    x$fpl$feqf          fz_ws.l(feqf.o)
    0x0800643c   0x00000036   Code   RO         2043    x$fpl$ffix          fz_ws.l(ffix.o)
    0x08006472   0x00000002   PAD
    0x08006474   0x0000003e   Code   RO         2047    x$fpl$ffixu         fz_ws.l(ffixu.o)
    0x080064b2   0x00000002   PAD
    0x080064b4   0x00000030   Code   RO         2052    x$fpl$fflt          fz_ws.l(fflt_clz.o)
    0x080064e4   0x00000026   Code   RO         2051    x$fpl$ffltu         fz_ws.l(fflt_clz.o)
    0x0800650a   0x00000002   PAD
    0x0800650c   0x00000068   Code   RO         2057    x$fpl$fleqf         fz_ws.l(fleqf.o)
    0x08006574   0x00000102   Code   RO         2059    x$fpl$fmul          fz_ws.l(fmul.o)
    0x08006676   0x0000008c   Code   RO         2105    x$fpl$fnaninf       fz_ws.l(fnaninf.o)
    0x08006702   0x0000000a   Code   RO         2107    x$fpl$fretinf       fz_ws.l(fretinf.o)
    0x0800670c   0x00000062   Code   RO         2061    x$fpl$frleqf        fz_ws.l(frleqf.o)
    0x0800676e   0x00000002   PAD
    0x08006770   0x000000ea   Code   RO         2033    x$fpl$fsub          fz_ws.l(faddsub_clz.o)
    0x0800685a   0x00000064   Code   RO         2204    x$fpl$retnan        fz_ws.l(retnan.o)
    0x080068be   0x0000005c   Code   RO         2109    x$fpl$scalbn        fz_ws.l(scalbn.o)
    0x0800691a   0x00000030   Code   RO         2257    x$fpl$trapveneer    fz_ws.l(trapv.o)
    0x0800694a   0x00000000   Code   RO         2111    x$fpl$usenofp       fz_ws.l(usenofp.o)
    0x0800694a   0x00001994   Data   RO          497    .constdata          lcd_guidriver.o
    0x080082de   0x00000002   PAD
    0x080082e0   0x00000050   Data   RO          771    .constdata          inv_mpu.o
    0x08008330   0x00000bf6   Data   RO         1073    .constdata          inv_mpu_dmp_motion_driver.o
    0x08008f26   0x00000011   Data   RO         1991    .constdata          c_w.l(__printf_flags_wp.o)
    0x08008f37   0x00000001   PAD
    0x08008f38   0x00000050   Data   RO         2065    .constdata          m_ws.l(asin.o)
    0x08008f88   0x00000098   Data   RO         2114    .constdata          m_ws.l(atan.o)
    0x08009020   0x00000008   Data   RO         2140    .constdata          m_ws.l(qnan.o)
    0x08009028   0x0000004d   Data   RO          772    .conststring        inv_mpu.o
    0x08009075   0x00000003   PAD
    0x08009078   0x00000020   Data   RO         2332    Region$$Table       anon$$obj.o


    Execution Region ER_RW (Base: 0x20000000, Size: 0x00000090, Max: 0xffffffff, ABSOLUTE)

    Base Addr    Size         Type   Attr      Idx    E Section Name        Object

    0x20000000   0x0000001e   Data   RW            7    .data               main.o
    0x2000001e   0x00000002   PAD
    0x20000020   0x00000014   Data   RW          326    .data               system_stm32f10x.o
    0x20000034   0x00000001   Data   RW          561    .data               key.o
    0x20000035   0x00000003   PAD
    0x20000038   0x00000035   Data   RW          773    .data               inv_mpu.o
    0x2000006d   0x00000001   PAD
    0x2000006e   0x00000004   Data   RW         1273    .data               delay.o
    0x20000072   0x00000002   PAD
    0x20000074   0x00000006   Data   RW         1330    .data               usart.o
    0x2000007a   0x00000014   Data   RW         1589    .data               stm32f10x_rcc.o


    Execution Region ER_ZI (Base: 0x20000090, Size: 0x00000760, Max: 0xffffffff, ABSOLUTE)

    Base Addr    Size         Type   Attr      Idx    E Section Name        Object

    0x20000090   0x00000021   Zero   RW            6    .bss                main.o
    0x200000b1   0x00000003   PAD
    0x200000b4   0x00000010   Zero   RW         1072    .bss                inv_mpu_dmp_motion_driver.o
    0x200000c4   0x000000c8   Zero   RW         1329    .bss                usart.o
    0x2000018c   0x00000060   Zero   RW         2188    .bss                c_w.l(libspace.o)
    0x200001ec   0x00000004   PAD
    0x200001f0   0x00000200   Zero   RW         1377    HEAP                startup_stm32f10x_hd.o
    0x200003f0   0x00000400   Zero   RW         1376    STACK               startup_stm32f10x_hd.o


==============================================================================

Image component sizes


      Code (inc. data)   RO Data    RW Data    ZI Data      Debug   Object Name

       220         26          0          4          0       1755   delay.o
      6864        290        157         53          0      32984   inv_mpu.o
      3096        122       3062          0         16      20986   inv_mpu_dmp_motion_driver.o
       264         28          0          1          0       1262   key.o
      1042         38          0          0          0     210930   lcd_basedriver.o
       404         10       6548          0          0       2564   lcd_guidriver.o
        80          8          0          0          0        547   led.o
      2300        468          0         30         33     220345   main.o
       172         22          0          0          0       2093   misc.o
       872         18          0          0          0       8849   mpu6050.o
       662        100          0          0          0       5266   mpuiic.o
       450          6          0          0          0       3670   niming.o
        64         26        304          0       1536        800   startup_stm32f10x_hd.o
       444          6          0          0          0       4001   stm32f10x_gpio.o
        26          0          0          0          0      26982   stm32f10x_it.o
       244         26          0         20          0       3905   stm32f10x_rcc.o
       408          6          0          0          0       5054   stm32f10x_usart.o
         0          0          0          0          0         32   sys.o
       328         28          0         20          0       2137   system_stm32f10x.o
       328         26          0          6        200       4164   usart.o

    ----------------------------------------------------------------------
     18288       1254      10108        144       1788     558326   Object Totals
         0          0         32          0          0          0   (incl. Generated)
        20          0          5         10          3          0   (incl. Padding)

    ----------------------------------------------------------------------

      Code (inc. data)   RO Data    RW Data    ZI Data      Debug   Library Member Name

         8          0          0          0          0         68   __main.o
       312          4         17          0          0         92   __printf_flags_wp.o
        14          0          0          0          0         68   __printf_wp.o
         0          0          0          0          0          0   __rtentry.o
        12          0          0          0          0          0   __rtentry2.o
         6          0          0          0          0          0   __rtentry4.o
        52          8          0          0          0          0   __scatter.o
        26          0          0          0          0          0   __scatter_copy.o
        28          0          0          0          0          0   __scatter_zi.o
        48          6          0          0          0         96   _printf_char_common.o
        36          4          0          0          0         80   _printf_char_file.o
         6          0          0          0          0          0   _printf_d.o
       120         16          0          0          0         92   _printf_dec.o
       178          0          0          0          0         88   _printf_intcommon.o
        78          0          0          0          0        108   _printf_pad.o
         0          0          0          0          0          0   _printf_percent.o
         4          0          0          0          0          0   _printf_percent_end.o
        22          0          0          0          0        100   _rserrno.o
        10          0          0          0          0         68   _sputc.o
        16          0          0          0          0         68   aeabi_memset.o
        18          0          0          0          0         80   exit.o
         8          0          0          0          0         68   ferror.o
         6          0          0          0          0        152   heapauxi.o
         2          0          0          0          0          0   libinit.o
         2          0          0          0          0          0   libinit2.o
         2          0          0          0          0          0   libshutdown.o
         2          0          0          0          0          0   libshutdown2.o
         8          4          0          0         96         68   libspace.o
        72          0          0          0          0         76   llsdiv.o
       238          0          0          0          0        100   lludivv7m.o
        88          0          0          0          0         76   memcmp.o
        24          4          0          0          0         84   noretval__2printf.o
        40          6          0          0          0         84   noretval__2sprintf.o
         8          4          0          0          0         68   rt_errno_addr_intlibspace.o
        68          0          0          0          0         68   rt_memclr.o
        78          0          0          0          0         80   rt_memclr_w.o
         2          0          0          0          0          0   rtexit.o
        10          0          0          0          0          0   rtexit2.o
        74          0          0          0          0         80   sys_stackheap_outer.o
         2          0          0          0          0         68   use_no_semi.o
         2          0          0          0          0         68   use_no_semi_2.o
        98          4          0          0          0         92   d2f.o
       826         16          0          0          0        348   daddsub_clz.o
        16          4          0          0          0         68   dcheck1.o
       688        140          0          0          0        208   ddiv.o
        46          0          0          0          0         68   dflt_clz.o
       340         12          0          0          0        104   dmul.o
       156          4          0          0          0         92   dnaninf.o
        12          0          0          0          0         68   dretinf.o
       460         56          0          0          0        120   dsqrt_noumaal.o
        86          4          0          0          0         84   f2d.o
       430          8          0          0          0        168   faddsub_clz.o
        24          0          0          0          0         68   fcmpi.o
       388         76          0          0          0         96   fdiv.o
       104          4          0          0          0         84   feqf.o
        54          4          0          0          0         84   ffix.o
        62          4          0          0          0         84   ffixu.o
        86          0          0          0          0        136   fflt_clz.o
       104          4          0          0          0         84   fleqf.o
       258          4          0          0          0         84   fmul.o
       140          4          0          0          0         84   fnaninf.o
        10          0          0          0          0         68   fretinf.o
        98          0          0          0          0         68   frleqf.o
       100          0          0          0          0         68   retnan.o
        92          0          0          0          0         68   scalbn.o
        48          0          0          0          0         68   trapv.o
         0          0          0          0          0          0   usenofp.o
       624         52         80          0          0        168   asin.o
       544         70        152          0          0        124   atan.o
       384         38          0          0          0        144   atan2.o
        38          6          0          0          0        272   dunder.o
        40          0          0          0          0         68   fpclassify.o
       170          0          0          0          0         96   poly.o
         0          0          8          0          0          0   qnan.o
        76          0          0          0          0         84   sqrt.o

    ----------------------------------------------------------------------
      8362        570        258          0        100       5668   Library Totals
        30          0          1          0          4          0   (incl. Padding)

    ----------------------------------------------------------------------

      Code (inc. data)   RO Data    RW Data    ZI Data      Debug   Library Name

      1730         56         17          0         96       2148   c_w.l
      4726        348          0          0          0       2564   fz_ws.l
      1876        166        240          0          0        956   m_ws.l

    ----------------------------------------------------------------------
      8362        570        258          0        100       5668   Library Totals

    ----------------------------------------------------------------------

==============================================================================


      Code (inc. data)   RO Data    RW Data    ZI Data      Debug   

     26650       1824      10366        144       1888     554266   Grand Totals
     26650       1824      10366        144       1888     554266   ELF Image Totals
     26650       1824      10366        144          0          0   ROM Totals

==============================================================================

    Total RO  Size (Code + RO Data)                37016 (  36.15kB)
    Total RW  Size (RW Data + ZI Data)              2032 (   1.98kB)
    Total ROM Size (Code + RO Data + RW Data)      37160 (  36.29kB)

==============================================================================

