Component: ARM Compiler 5.06 update 6 (build 750) Tool: armlink [4d35ed]

==============================================================================

Section Cross References

    main.o(i.DATA_Report) refers to _printf_pad.o(.text) for _printf_pre_padding
    main.o(i.DATA_Report) refers to _printf_percent.o(.ARM.Collect$$_printf_percent$$00000000) for _printf_percent
    main.o(i.DATA_Report) refers to _printf_d.o(.ARM.Collect$$_printf_percent$$00000009) for _printf_d
    main.o(i.DATA_Report) refers to _printf_dec.o(.text) for _printf_int_dec
    main.o(i.DATA_Report) refers to noretval__2sprintf.o(.text) for __2sprintf
    main.o(i.DATA_Report) refers to lcd_guidriver.o(i.Gui_DrawFont_GBK16) for Gui_DrawFont_GBK16
    main.o(i.DATA_Report) refers to noretval__2printf.o(.text) for __2printf
    main.o(i.DATA_Report) refers to fmul.o(x$fpl$fmul) for __aeabi_fmul
    main.o(i.DATA_Report) refers to ffix.o(x$fpl$ffix) for __aeabi_f2iz
    main.o(i.DATA_Report) refers to key.o(i.KEY_Scan) for KEY_Scan
    main.o(i.DATA_Report) refers to main.o(i.MPU_Mode) for MPU_Mode
    main.o(i.DATA_Report) refers to niming.o(i.mpu6050_send_data) for mpu6050_send_data
    main.o(i.DATA_Report) refers to main.o(.data) for mpu6050
    main.o(i.DATA_Report) refers to main.o(.bss) for tmp_buf
    main.o(i.DATA_Report) refers to main.o(.conststring) for .conststring
    main.o(i.DATA_Report) refers to niming.o(i.usart1_report_imu) for usart1_report_imu
    main.o(i.MPU_Mode) refers to lcd_basedriver.o(i.Lcd_Clear) for Lcd_Clear
    main.o(i.MPU_Mode) refers to lcd_guidriver.o(i.Gui_DrawFont_GBK16) for Gui_DrawFont_GBK16
==============================================================================

Removing Unused input sections from the image.

    Removing system_stm32f10x.o(i.SystemCoreClockUpdate), (164 bytes).
    Removing lcd_basedriver.o(i.Lcd_ReadPoint), (24 bytes).
    Removing lcd_basedriver.o(i.Lcd_SetXY), (20 bytes).
    Removing lcd_basedriver.o(i.Lcd_WriteReg), (20 bytes).
    Removing lcd_guidriver.o(i.DisplayButtonDown), (130 bytes).
    Removing lcd_guidriver.o(i.DisplayButtonUp), (130 bytes).
    Removing lcd_guidriver.o(i.Gui_Circle), (300 bytes).
    Removing lcd_guidriver.o(i.Gui_DrawFont_GBK24), (496 bytes).
    Removing lcd_guidriver.o(i.Gui_DrawFont_Num32), (128 bytes).
    Removing lcd_guidriver.o(i.Gui_DrawLine), (186 bytes).
    Removing lcd_guidriver.o(i.Gui_box), (188 bytes).
    Removing lcd_guidriver.o(i.Gui_box2), (386 bytes).
    Removing lcd_guidriver.o(i.LCD_BGR2RGB), (26 bytes).
    Removing inv_mpu.o(i.mpu_get_accel_reg), (116 bytes).
    Removing inv_mpu.o(i.mpu_get_compass_fsr), (8 bytes).
    Removing inv_mpu.o(i.mpu_get_compass_reg), (8 bytes).
    Removing inv_mpu.o(i.mpu_get_compass_sample_rate), (10 bytes).
    Removing inv_mpu.o(i.mpu_get_dmp_state), (20 bytes).
==============================================================================

Image Symbol Table

    Local Symbols

    Symbol Name                              Value     Ov Type        Size  Object(Section)

    ../clib/angel/boardlib.s                 0x00000000   Number         0  boardshut.o ABSOLUTE
    ../clib/angel/boardlib.s                 0x00000000   Number         0  boardinit3.o ABSOLUTE
    ../clib/angel/boardlib.s                 0x00000000   Number         0  boardinit2.o ABSOLUTE
    ../clib/angel/boardlib.s                 0x00000000   Number         0  boardinit1.o ABSOLUTE
    ../clib/angel/handlers.s                 0x00000000   Number         0  __scatter_copy.o ABSOLUTE
    ../clib/angel/handlers.s                 0x00000000   Number         0  __scatter_zi.o ABSOLUTE
    ../clib/angel/kernel.s                   0x00000000   Number         0  __rtentry.o ABSOLUTE
    ../clib/angel/kernel.s                   0x00000000   Number         0  __rtentry2.o ABSOLUTE
    ../clib/angel/kernel.s                   0x00000000   Number         0  __rtentry4.o ABSOLUTE
    ../clib/angel/kernel.s                   0x00000000   Number         0  rtexit.o ABSOLUTE
    ../clib/angel/kernel.s                   0x00000000   Number         0  rtexit2.o ABSOLUTE
    ../clib/angel/rt.s                       0x00000000   Number         0  aeabi_ldiv0_sigfpe.o ABSOLUTE
    ../clib/angel/rt.s                       0x00000000   Number         0  rt_div0.o ABSOLUTE
    ../clib/angel/rt.s                       0x00000000   Number         0  rt_errno_addr.o ABSOLUTE
    ../clib/angel/rt.s                       0x00000000   Number         0  aeabi_ldiv0.o ABSOLUTE
    ../clib/angel/rt.s                       0x00000000   Number         0  rt_errno_addr_intlibspace.o ABSOLUTE
    ../clib/angel/rt.s                       0x00000000   Number         0  rt_raise.o ABSOLUTE
    ../clib/angel/scatter.s                  0x00000000   Number         0  __scatter.o ABSOLUTE
    ../clib/angel/startup.s                  0x00000000   Number         0  __main.o ABSOLUTE
    ../clib/angel/sys.s                      0x00000000   Number         0  indicate_semi.o ABSOLUTE
    ../clib/angel/sys.s                      0x00000000   Number         0  use_no_semi_2.o ABSOLUTE
    ../clib/angel/sys.s                      0x00000000   Number         0  sys_stackheap_outer.o ABSOLUTE
    ../clib/angel/sys.s                      0x00000000   Number         0  libspace.o ABSOLUTE
    ../clib/angel/sys.s                      0x00000000   Number         0  use_no_semi.o ABSOLUTE
    ../clib/angel/sysapp.c                   0x00000000   Number         0  sys_command.o ABSOLUTE
    ../clib/angel/sysapp.c                   0x00000000   Number         0  sys_wrch.o ABSOLUTE
    ../clib/armsys.c                         0x00000000   Number         0  _get_argv_nomalloc.o ABSOLUTE
    ../clib/armsys.c                         0x00000000   Number         0  no_argv.o ABSOLUTE
    ../clib/armsys.c                         0x00000000   Number         0  argv_veneer.o ABSOLUTE
    ../clib/armsys.c                         0x00000000   Number         0  argv_veneer.o ABSOLUTE
    ../clib/fenv.c                           0x00000000   Number         0  _rserrno.o ABSOLUTE
    ../clib/heapalloc.c                      0x00000000   Number         0  hrguard.o ABSOLUTE
    ../clib/heapaux.c                        0x00000000   Number         0  heapauxi.o ABSOLUTE
    ../clib/libinit.s                        0x00000000   Number         0  libshutdown.o ABSOLUTE
    ../clib/libinit.s                        0x00000000   Number         0  libshutdown2.o ABSOLUTE
    ../clib/libinit.s                        0x00000000   Number         0  libinit2.o ABSOLUTE
    ../clib/libinit.s                        0x00000000   Number         0  libinit.o ABSOLUTE
    ../clib/longlong.s                       0x00000000   Number         0  lludivv7m.o ABSOLUTE
    ../clib/longlong.s                       0x00000000   Number         0  llsdiv.o ABSOLUTE
    ../clib/memcpset.s                       0x00000000   Number         0  rt_memclr_w.o ABSOLUTE
    ../clib/memcpset.s                       0x00000000   Number         0  rt_memclr.o ABSOLUTE
    ../clib/memcpset.s                       0x00000000   Number         0  aeabi_memset.o ABSOLUTE
    ../clib/misc.s                           0x00000000   Number         0  printf_stubs.o ABSOLUTE
    ../clib/printf.c                         0x00000000   Number         0  __printf_flags_ss_wp.o ABSOLUTE
    ../clib/printf.c                         0x00000000   Number         0  __printf_nopercent.o ABSOLUTE
    ../clib/printf.c                         0x00000000   Number         0  _printf_char_file.o ABSOLUTE
    ../clib/printf.c                         0x00000000   Number         0  _sputc.o ABSOLUTE
    ../clib/printf.c                         0x00000000   Number         0  _printf_char_common.o ABSOLUTE
    ../clib/printf.c                         0x00000000   Number         0  _printf_intcommon.o ABSOLUTE
    ../clib/printf.c                         0x00000000   Number         0  _printf_hex_int_ll_ptr.o ABSOLUTE
    ../clib/printf.c                         0x00000000   Number         0  __2printf.o ABSOLUTE
    ../clib/printf.c                         0x00000000   Number         0  __2sprintf.o ABSOLUTE
    ../clib/printf.c                         0x00000000   Number         0  noretval__2printf.o ABSOLUTE
    ../clib/printf.c                         0x00000000   Number         0  noretval__2sprintf.o ABSOLUTE
    ../clib/printf.c                         0x00000000   Number         0  __printf.o ABSOLUTE
    ../clib/printf.c                         0x00000000   Number         0  _printf_pad.o ABSOLUTE
    ../clib/printf.c                         0x00000000   Number         0  _printf_dec.o ABSOLUTE
    ../clib/printf.c                         0x00000000   Number         0  _printf_hex_ll.o ABSOLUTE
    ../clib/printf.c                         0x00000000   Number         0  _printf_hex_int.o ABSOLUTE
    ../clib/printf.c                         0x00000000   Number         0  _printf_hex_int_ll.o ABSOLUTE
    ../clib/printf.c                         0x00000000   Number         0  _printf_hex_ptr.o ABSOLUTE
    ../clib/printf.c                         0x00000000   Number         0  _printf_hex_int_ptr.o ABSOLUTE
    ../clib/printf.c                         0x00000000   Number         0  _printf_hex_ll_ptr.o ABSOLUTE
    ../clib/printf.c                         0x00000000   Number         0  __printf_flags.o ABSOLUTE
    ../clib/printf.c                         0x00000000   Number         0  __printf_ss.o ABSOLUTE
    ../clib/printf.c                         0x00000000   Number         0  __printf_flags_ss.o ABSOLUTE
    ../clib/printf.c                         0x00000000   Number         0  __printf_wp.o ABSOLUTE
    ../clib/printf.c                         0x00000000   Number         0  __printf_flags_wp.o ABSOLUTE
    ../clib/printf.c                         0x00000000   Number         0  __printf_ss_wp.o ABSOLUTE
    ../clib/printf_percent.s                 0x00000000   Number         0  _printf_d.o ABSOLUTE
    ../clib/printf_percent.s                 0x00000000   Number         0  _printf_percent_end.o ABSOLUTE
    ../clib/printf_percent.s                 0x00000000   Number         0  _printf_x.o ABSOLUTE
    ../clib/printf_percent.s                 0x00000000   Number         0  _printf_percent.o ABSOLUTE
    ../clib/signal.c                         0x00000000   Number         0  defsig_rtmem_formal.o ABSOLUTE
    ../clib/signal.c                         0x00000000   Number         0  defsig_abrt_inner.o ABSOLUTE
    ../clib/signal.c                         0x00000000   Number         0  defsig_cppl_inner.o ABSOLUTE
    ../clib/signal.c                         0x00000000   Number         0  defsig_pvfn_inner.o ABSOLUTE
    ../clib/signal.c                         0x00000000   Number         0  defsig_other.o ABSOLUTE
    ../clib/signal.c                         0x00000000   Number         0  defsig_rtmem_inner.o ABSOLUTE
    ../clib/signal.c                         0x00000000   Number         0  defsig_rtmem_outer.o ABSOLUTE
    ../clib/signal.c                         0x00000000   Number         0  defsig_stak_inner.o ABSOLUTE
    ../clib/signal.c                         0x00000000   Number         0  defsig_fpe_formal.o ABSOLUTE
    ../clib/signal.c                         0x00000000   Number         0  defsig_general.o ABSOLUTE
    ../clib/signal.c                         0x00000000   Number         0  __raise.o ABSOLUTE
    ../clib/signal.c                         0x00000000   Number         0  defsig_fpe_outer.o ABSOLUTE
    ../clib/signal.c                         0x00000000   Number         0  defsig_segv_inner.o ABSOLUTE
    ../clib/signal.c                         0x00000000   Number         0  defsig_rtred_inner.o ABSOLUTE
    ../clib/signal.c                         0x00000000   Number         0  defsig_fpe_inner.o ABSOLUTE
    ../clib/signal.c                         0x00000000   Number         0  defsig_exit.o ABSOLUTE
    ../clib/signal.s                         0x00000000   Number         0  defsig.o ABSOLUTE
    ../clib/stdio.c                          0x00000000   Number         0  ferror.o ABSOLUTE
    ../clib/stdio.c                          0x00000000   Number         0  ferror_locked.o ABSOLUTE
    ../clib/stdlib.c                         0x00000000   Number         0  exit.o ABSOLUTE
    ../clib/string.c                         0x00000000   Number         0  memcmp.o ABSOLUTE
    ../fplib/d2f.s                           0x00000000   Number         0  d2f.o ABSOLUTE
    ../fplib/daddsub.s                       0x00000000   Number         0  daddsub_clz.o ABSOLUTE
    ../fplib/dcheck1.s                       0x00000000   Number         0  dcheck1.o ABSOLUTE
    ../fplib/dcmpi.s                         0x00000000   Number         0  dcmpi.o ABSOLUTE
    ../fplib/ddiv.s                          0x00000000   Number         0  ddiv.o ABSOLUTE
    ../fplib/dflt.s                          0x00000000   Number         0  dflt_clz.o ABSOLUTE
    ../fplib/dleqf.s                         0x00000000   Number         0  dleqf.o ABSOLUTE
    ../fplib/dmul.s                          0x00000000   Number         0  dmul.o ABSOLUTE
    ../fplib/dnaninf.s                       0x00000000   Number         0  dnaninf.o ABSOLUTE
    ../fplib/dretinf.s                       0x00000000   Number         0  dretinf.o ABSOLUTE
    ../fplib/dsqrt.s                         0x00000000   Number         0  dsqrt_noumaal.o ABSOLUTE
    ../fplib/f2d.s                           0x00000000   Number         0  f2d.o ABSOLUTE
    ../fplib/faddsub.s                       0x00000000   Number         0  faddsub_clz.o ABSOLUTE
    ../fplib/fcmpi.s                         0x00000000   Number         0  fcmpi.o ABSOLUTE
    ../fplib/fdiv.s                          0x00000000   Number         0  fdiv.o ABSOLUTE
    ../fplib/feqf.s                          0x00000000   Number         0  feqf.o ABSOLUTE
    ../fplib/ffix.s                          0x00000000   Number         0  ffix.o ABSOLUTE
    ../fplib/ffixu.s                         0x00000000   Number         0  ffixu.o ABSOLUTE
    ../fplib/fflt.s                          0x00000000   Number         0  fflt_clz.o ABSOLUTE
    ../fplib/fleqf.s                         0x00000000   Number         0  fleqf.o ABSOLUTE
    ../fplib/fmul.s                          0x00000000   Number         0  fmul.o ABSOLUTE
    ../fplib/fnaninf.s                       0x00000000   Number         0  fnaninf.o ABSOLUTE
    ../fplib/fpinit.s                        0x00000000   Number         0  fpinit.o ABSOLUTE
    ../fplib/fretinf.s                       0x00000000   Number         0  fretinf.o ABSOLUTE
    ../fplib/frleqf.s                        0x00000000   Number         0  frleqf.o ABSOLUTE
    ../fplib/retnan.s                        0x00000000   Number         0  retnan.o ABSOLUTE
    ../fplib/scalbn.s                        0x00000000   Number         0  scalbn.o ABSOLUTE
    ../fplib/trapv.s                         0x00000000   Number         0  trapv.o ABSOLUTE
    ../fplib/usenofp.s                       0x00000000   Number         0  usenofp.o ABSOLUTE
    ../mathlib/asin.c                        0x00000000   Number         0  asin.o ABSOLUTE
    ../mathlib/asin.c                        0x00000000   Number         0  asin_x.o ABSOLUTE
    ../mathlib/atan.c                        0x00000000   Number         0  atan_x.o ABSOLUTE
    ../mathlib/atan.c                        0x00000000   Number         0  atan.o ABSOLUTE
    ../mathlib/atan2.c                       0x00000000   Number         0  atan2.o ABSOLUTE
    ../mathlib/atan2.c                       0x00000000   Number         0  atan2_x.o ABSOLUTE
    ../mathlib/dunder.c                      0x00000000   Number         0  dunder.o ABSOLUTE
    ../mathlib/fpclassify.c                  0x00000000   Number         0  fpclassify.o ABSOLUTE
    ../mathlib/poly.c                        0x00000000   Number         0  poly.o ABSOLUTE
    ../mathlib/qnan.c                        0x00000000   Number         0  qnan.o ABSOLUTE
    ../mathlib/sqrt.c                        0x00000000   Number         0  sqrt.o ABSOLUTE
    ../mathlib/sqrt.c                        0x00000000   Number         0  sqrt_x.o ABSOLUTE
    ..\CORE\core_cm3.c                       0x00000000   Number         0  core_cm3.o ABSOLUTE
    ..\CORE\startup_stm32f10x_hd.s           0x00000000   Number         0  startup_stm32f10x_hd.o ABSOLUTE
    ..\HARDWARE\KEY\key.c                    0x00000000   Number         0  key.o ABSOLUTE
    ..\HARDWARE\LCD1.44\Lcd_BaseDriver.c     0x00000000   Number         0  lcd_basedriver.o ABSOLUTE
    ..\HARDWARE\LCD1.44\Lcd_GUIDriver.c      0x00000000   Number         0  lcd_guidriver.o ABSOLUTE
    ..\HARDWARE\LED\led.c                    0x00000000   Number         0  led.o ABSOLUTE
    ..\HARDWARE\MPU6050\eMPL\inv_mpu.c       0x00000000   Number         0  inv_mpu.o ABSOLUTE
    ..\HARDWARE\MPU6050\eMPL\inv_mpu_dmp_motion_driver.c 0x00000000   Number         0  inv_mpu_dmp_motion_driver.o ABSOLUTE
    ..\HARDWARE\MPU6050\mpu6050.c            0x00000000   Number         0  mpu6050.o ABSOLUTE
    ..\HARDWARE\MPU6050\mpuiic.c             0x00000000   Number         0  mpuiic.o ABSOLUTE
    ..\HARDWARE\MPU6050\niming.c             0x00000000   Number         0  niming.o ABSOLUTE
    ..\STM32F10x_FWLib\src\misc.c            0x00000000   Number         0  misc.o ABSOLUTE
    ..\STM32F10x_FWLib\src\stm32f10x_dbgmcu.c 0x00000000   Number         0  stm32f10x_dbgmcu.o ABSOLUTE
    ..\STM32F10x_FWLib\src\stm32f10x_gpio.c  0x00000000   Number         0  stm32f10x_gpio.o ABSOLUTE
    ..\STM32F10x_FWLib\src\stm32f10x_rcc.c   0x00000000   Number         0  stm32f10x_rcc.o ABSOLUTE
    ..\STM32F10x_FWLib\src\stm32f10x_usart.c 0x00000000   Number         0  stm32f10x_usart.o ABSOLUTE
    ..\SYSTEM\delay\delay.c                  0x00000000   Number         0  delay.o ABSOLUTE
    ..\SYSTEM\sys\sys.c                      0x00000000   Number         0  sys.o ABSOLUTE
    ..\SYSTEM\usart\usart.c                  0x00000000   Number         0  usart.o ABSOLUTE
    ..\\CORE\\core_cm3.c                     0x00000000   Number         0  core_cm3.o ABSOLUTE
    ..\\SYSTEM\\sys\\sys.c                   0x00000000   Number         0  sys.o ABSOLUTE
    dc.s                                     0x00000000   Number         0  dc.o ABSOLUTE
    main.c                                   0x00000000   Number         0  main.o ABSOLUTE
    stm32f10x_it.c                           0x00000000   Number         0  stm32f10x_it.o ABSOLUTE
    system_stm32f10x.c                       0x00000000   Number         0  system_stm32f10x.o ABSOLUTE
    RESET                                    0x08000000   Section      304  startup_stm32f10x_hd.o(RESET)
    !!!main                                  0x08000130   Section        8  __main.o(!!!main)
    !!!scatter                               0x08000138   Section       52  __scatter.o(!!!scatter)
    !!handler_copy                           0x0800016c   Section       26  __scatter_copy.o(!!handler_copy)
    !!handler_zi                             0x08000188   Section       28  __scatter_zi.o(!!handler_zi)
    .ARM.Collect$$_printf_percent$$00000000  0x080001a4   Section        0  _printf_percent.o(.ARM.Collect$$_printf_percent$$00000000)
    .ARM.Collect$$_printf_percent$$00000009  0x080001a4   Section        6  _printf_d.o(.ARM.Collect$$_printf_percent$$00000009)
    .ARM.Collect$$_printf_percent$$00000017  0x080001aa   Section        4  _printf_percent_end.o(.ARM.Collect$$_printf_percent$$00000017)
    .ARM.Collect$$libinit$$00000000          0x080001ae   Section        2  libinit.o(.ARM.Collect$$libinit$$00000000)
    .ARM.Collect$$libinit$$00000002          0x080001b0   Section        0  libinit2.o(.ARM.Collect$$libinit$$00000002)
    .ARM.Collect$$libinit$$00000004          0x080001b0   Section        0  libinit2.o(.ARM.Collect$$libinit$$00000004)
    .ARM.Collect$$libinit$$0000000A          0x080001b0   Section        0  libinit2.o(.ARM.Collect$$libinit$$0000000A)
    .ARM.Collect$$libinit$$0000000C          0x080001b0   Section        0  libinit2.o(.ARM.Collect$$libinit$$0000000C)
    .ARM.Collect$$libinit$$0000000E          0x080001b0   Section        0  libinit2.o(.ARM.Collect$$libinit$$0000000E)
    .ARM.Collect$$libinit$$00000011          0x080001b0   Section        0  libinit2.o(.ARM.Collect$$libinit$$00000011)
    .ARM.Collect$$libinit$$00000013          0x080001b0   Section        0  libinit2.o(.ARM.Collect$$libinit$$00000013)
    .ARM.Collect$$libinit$$00000015          0x080001b0   Section        0  libinit2.o(.ARM.Collect$$libinit$$00000015)
    .ARM.Collect$$libinit$$00000017          0x080001b0   Section        0  libinit2.o(.ARM.Collect$$libinit$$00000017)
    .ARM.Collect$$libinit$$00000019          0x080001b0   Section        0  libinit2.o(.ARM.Collect$$libinit$$00000019)
    .ARM.Collect$$libinit$$0000001B          0x080001b0   Section        0  libinit2.o(.ARM.Collect$$libinit$$0000001B)
    .ARM.Collect$$libinit$$0000001D          0x080001b0   Section        0  libinit2.o(.ARM.Collect$$libinit$$0000001D)
    .ARM.Collect$$libinit$$0000001F          0x080001b0   Section        0  libinit2.o(.ARM.Collect$$libinit$$0000001F)
    .ARM.Collect$$libinit$$00000021          0x080001b0   Section        0  libinit2.o(.ARM.Collect$$libinit$$00000021)
    .ARM.Collect$$libinit$$00000023          0x080001b0   Section        0  libinit2.o(.ARM.Collect$$libinit$$00000023)
    .ARM.Collect$$libinit$$00000025          0x080001b0   Section        0  libinit2.o(.ARM.Collect$$libinit$$00000025)
    .ARM.Collect$$libinit$$0000002C          0x080001b0   Section        0  libinit2.o(.ARM.Collect$$libinit$$0000002C)
    .ARM.Collect$$libinit$$0000002E          0x080001b0   Section        0  libinit2.o(.ARM.Collect$$libinit$$0000002E)
    .ARM.Collect$$libinit$$00000030          0x080001b0   Section        0  libinit2.o(.ARM.Collect$$libinit$$00000030)
    .ARM.Collect$$libinit$$00000032          0x080001b0   Section        0  libinit2.o(.ARM.Collect$$libinit$$00000032)
    .ARM.Collect$$libinit$$00000033          0x080001b0   Section        2  libinit2.o(.ARM.Collect$$libinit$$00000033)
    .ARM.Collect$$libshutdown$$00000000      0x080001b2   Section        2  libshutdown.o(.ARM.Collect$$libshutdown$$00000000)
    .ARM.Collect$$libshutdown$$00000002      0x080001b4   Section        0  libshutdown2.o(.ARM.Collect$$libshutdown$$00000002)
    .ARM.Collect$$libshutdown$$00000004      0x080001b4   Section        0  libshutdown2.o(.ARM.Collect$$libshutdown$$00000004)
    .ARM.Collect$$libshutdown$$00000007      0x080001b4   Section        0  libshutdown2.o(.ARM.Collect$$libshutdown$$00000007)
    .ARM.Collect$$libshutdown$$0000000A      0x080001b4   Section        0  libshutdown2.o(.ARM.Collect$$libshutdown$$0000000A)
    .ARM.Collect$$libshutdown$$0000000C      0x080001b4   Section        0  libshutdown2.o(.ARM.Collect$$libshutdown$$0000000C)
    .ARM.Collect$$libshutdown$$0000000F      0x080001b4   Section        0  libshutdown2.o(.ARM.Collect$$libshutdown$$0000000F)
    .ARM.Collect$$libshutdown$$00000010      0x080001b4   Section        2  libshutdown2.o(.ARM.Collect$$libshutdown$$00000010)
    .ARM.Collect$$rtentry$$00000000          0x080001b6   Section        0  __rtentry.o(.ARM.Collect$$rtentry$$00000000)
    .ARM.Collect$$rtentry$$00000002          0x080001b6   Section        0  __rtentry2.o(.ARM.Collect$$rtentry$$00000002)
    .ARM.Collect$$rtentry$$00000004          0x080001b6   Section        6  __rtentry4.o(.ARM.Collect$$rtentry$$00000004)
    .ARM.Collect$$rtentry$$00000009          0x080001bc   Section        0  __rtentry2.o(.ARM.Collect$$rtentry$$00000009)
    .ARM.Collect$$rtentry$$0000000A          0x080001bc   Section        4  __rtentry2.o(.ARM.Collect$$rtentry$$0000000A)
    .ARM.Collect$$rtentry$$0000000C          0x080001c0   Section        0  __rtentry2.o(.ARM.Collect$$rtentry$$0000000C)
    .ARM.Collect$$rtentry$$0000000D          0x080001c0   Section        8  __rtentry2.o(.ARM.Collect$$rtentry$$0000000D)
    .ARM.Collect$$rtexit$$00000000           0x080001c8   Section        2  rtexit.o(.ARM.Collect$$rtexit$$00000000)
    .ARM.Collect$$rtexit$$00000002           0x080001ca   Section        0  rtexit2.o(.ARM.Collect$$rtexit$$00000002)
    .ARM.Collect$$rtexit$$00000003           0x080001ca   Section        4  rtexit2.o(.ARM.Collect$$rtexit$$00000003)
    .ARM.Collect$$rtexit$$00000004           0x080001ce   Section        6  rtexit2.o(.ARM.Collect$$rtexit$$00000004)
    .text                                    0x080001d4   Section       64  startup_stm32f10x_hd.o(.text)
    .text                                    0x08000214   Section        2  use_no_semi_2.o(.text)
    .text                                    0x08000216   Section       72  llsdiv.o(.text)
    .text                                    0x08000260   Section        0  noretval__2printf.o(.text)
    .text                                    0x08000278   Section        0  noretval__2sprintf.o(.text)
    .text                                    0x080002a0   Section        0  _printf_pad.o(.text)
    .text                                    0x080002f0   Section        0  _printf_dec.o(.text)
    .text                                    0x08000368   Section        0  __printf_flags_wp.o(.text)
    .text                                    0x080004a0   Section        0  memcmp.o(.text)
    .text                                    0x080004f8   Section       16  aeabi_memset.o(.text)
    .text                                    0x08000508   Section        0  heapauxi.o(.text)
    .text                                    0x0800050e   Section        2  use_no_semi.o(.text)
    .text                                    0x08000510   Section      238  lludivv7m.o(.text)
    .text                                    0x080005fe   Section        0  _rserrno.o(.text)
    .text                                    0x08000614   Section        0  _printf_intcommon.o(.text)
    .text                                    0x080006c8   Section        0  _printf_char_common.o(.text)
    _printf_input_char                       0x080006c9   Thumb Code    10  _printf_char_common.o(.text)
    .text                                    0x080006f8   Section        0  _sputc.o(.text)
    .text                                    0x08000704   Section        0  _printf_char_file.o(.text)
    .text                                    0x08000728   Section       68  rt_memclr.o(.text)
    .text                                    0x0800076c   Section        8  rt_errno_addr_intlibspace.o(.text)
    .text                                    0x08000774   Section        0  ferror.o(.text)
    .text                                    0x0800077c   Section       78  rt_memclr_w.o(.text)
    .text                                    0x080007cc   Section        8  libspace.o(.text)
    .text                                    0x080007d4   Section       74  sys_stackheap_outer.o(.text)
    .text                                    0x0800081e   Section        0  exit.o(.text)
    i.BusFault_Handler                       0x08000830   Section        0  stm32f10x_it.o(i.BusFault_Handler)
    i.DATA_Report                            0x08000834   Section        0  main.o(i.DATA_Report)
    i.DebugMon_Handler                       0x08000d3c   Section        0  stm32f10x_it.o(i.DebugMon_Handler)
    i.GPIO_Init                              0x08000d3e   Section        0  stm32f10x_gpio.o(i.GPIO_Init)
    i.GPIO_PinRemapConfig                    0x08000e54   Section        0  stm32f10x_gpio.o(i.GPIO_PinRemapConfig)
    i.GPIO_ReadInputDataBit                  0x08000ee4   Section        0  stm32f10x_gpio.o(i.GPIO_ReadInputDataBit)
    i.GPIO_SetBits                           0x08000ef6   Section        0  stm32f10x_gpio.o(i.GPIO_SetBits)
    i.Gui_DrawFont_GBK16                     0x08000efc   Section        0  lcd_guidriver.o(i.Gui_DrawFont_GBK16)
    i.Gui_DrawPoint                          0x08001090   Section        0  lcd_basedriver.o(i.Gui_DrawPoint)
    i.HardFault_Handler                      0x080010b0   Section        0  stm32f10x_it.o(i.HardFault_Handler)
    i.KEY_Init                               0x080010b4   Section        0  key.o(i.KEY_Init)
    i.KEY_Scan                               0x08001114   Section        0  key.o(i.KEY_Scan)
    i.LCD_GPIO_Init                          0x080011bc   Section        0  lcd_basedriver.o(i.LCD_GPIO_Init)
    i.LCD_WriteData_16Bit                    0x08001224   Section        0  lcd_basedriver.o(i.LCD_WriteData_16Bit)
    i.LED_Init                               0x08001254   Section        0  led.o(i.LED_Init)
    i.Lcd_Clear                              0x080012a4   Section        0  lcd_basedriver.o(i.Lcd_Clear)
    i.Lcd_Init                               0x080012d6   Section        0  lcd_basedriver.o(i.Lcd_Init)
    i.Lcd_Reset                              0x080014f8   Section        0  lcd_basedriver.o(i.Lcd_Reset)
    i.Lcd_SetRegion                          0x0800151c   Section        0  lcd_basedriver.o(i.Lcd_SetRegion)
    i.Lcd_WriteData                          0x08001574   Section        0  lcd_basedriver.o(i.Lcd_WriteData)
    i.Lcd_WriteIndex                         0x0800159c   Section        0  lcd_basedriver.o(i.Lcd_WriteIndex)
    i.MPU_Get_Accelerometer                  0x080015c4   Section        0  mpu6050.o(i.MPU_Get_Accelerometer)
    i.MPU_Get_Gyroscope                      0x08001614   Section        0  mpu6050.o(i.MPU_Get_Gyroscope)
    i.MPU_Get_Temperature                    0x08001664   Section        0  mpu6050.o(i.MPU_Get_Temperature)
    i.MPU_IIC_Ack                            0x080016cc   Section        0  mpuiic.o(i.MPU_IIC_Ack)
    i.MPU_IIC_Delay                          0x08001718   Section        0  mpuiic.o(i.MPU_IIC_Delay)
    i.MPU_IIC_Init                           0x08001724   Section        0  mpuiic.o(i.MPU_IIC_Init)
    i.MPU_IIC_NAck                           0x0800175c   Section        0  mpuiic.o(i.MPU_IIC_NAck)
    i.MPU_IIC_Read_Byte                      0x080017a8   Section        0  mpuiic.o(i.MPU_IIC_Read_Byte)
    i.MPU_IIC_Send_Byte                      0x08001814   Section        0  mpuiic.o(i.MPU_IIC_Send_Byte)
    i.MPU_IIC_Start                          0x08001870   Section        0  mpuiic.o(i.MPU_IIC_Start)
    i.MPU_IIC_Stop                           0x080018b8   Section        0  mpuiic.o(i.MPU_IIC_Stop)
    i.MPU_IIC_Wait_Ack                       0x08001900   Section        0  mpuiic.o(i.MPU_IIC_Wait_Ack)
    i.MPU_Init                               0x08001964   Section        0  mpu6050.o(i.MPU_Init)
    i.MPU_Mode                               0x080019e0   Section        0  main.o(i.MPU_Mode)
    i.MPU_Read                               0x08001bd0   Section        0  main.o(i.MPU_Read)
    i.MPU_Read_Byte                          0x08001c48   Section        0  mpu6050.o(i.MPU_Read_Byte)
    i.MPU_Read_Len                           0x08001c82   Section        0  mpu6050.o(i.MPU_Read_Len)
    i.MPU_Set_Accel_Fsr                      0x08001cf6   Section        0  mpu6050.o(i.MPU_Set_Accel_Fsr)
    i.MPU_Set_Gyro_Fsr                       0x08001d06   Section        0  mpu6050.o(i.MPU_Set_Gyro_Fsr)
    i.MPU_Set_LPF                            0x08001d16   Section        0  mpu6050.o(i.MPU_Set_LPF)
    i.MPU_Set_Rate                           0x08001d50   Section        0  mpu6050.o(i.MPU_Set_Rate)
    i.MPU_Write_Byte                         0x08001d8a   Section        0  mpu6050.o(i.MPU_Write_Byte)
    i.MPU_Write_Len                          0x08001dce   Section        0  mpu6050.o(i.MPU_Write_Len)
    i.MemManage_Handler                      0x08001e2e   Section        0  stm32f10x_it.o(i.MemManage_Handler)
    i.NMI_Handler                            0x08001e32   Section        0  stm32f10x_it.o(i.NMI_Handler)
    i.NVIC_Init                              0x08001e34   Section        0  misc.o(i.NVIC_Init)
    i.NVIC_PriorityGroupConfig               0x08001ea4   Section        0  misc.o(i.NVIC_PriorityGroupConfig)
    i.PendSV_Handler                         0x08001eb8   Section        0  stm32f10x_it.o(i.PendSV_Handler)
    i.RCC_APB2PeriphClockCmd                 0x08001ebc   Section        0  stm32f10x_rcc.o(i.RCC_APB2PeriphClockCmd)
    i.RCC_GetClocksFreq                      0x08001edc   Section        0  stm32f10x_rcc.o(i.RCC_GetClocksFreq)
    i.SPI_WriteData                          0x08001fb0   Section        0  lcd_basedriver.o(i.SPI_WriteData)
    i.SVC_Handler                            0x08001fec   Section        0  stm32f10x_it.o(i.SVC_Handler)
    i.SYS_Init                               0x08001ff0   Section        0  main.o(i.SYS_Init)
    i.SetSysClock                            0x080021ec   Section        0  system_stm32f10x.o(i.SetSysClock)
    SetSysClock                              0x080021ed   Thumb Code     8  system_stm32f10x.o(i.SetSysClock)
    i.SetSysClockTo72                        0x080021f4   Section        0  system_stm32f10x.o(i.SetSysClockTo72)
    SetSysClockTo72                          0x080021f5   Thumb Code   214  system_stm32f10x.o(i.SetSysClockTo72)
    i.SysTick_CLKSourceConfig                0x080022d4   Section        0  misc.o(i.SysTick_CLKSourceConfig)
    i.SysTick_Handler                        0x080022fc   Section        0  stm32f10x_it.o(i.SysTick_Handler)
    i.SystemInit                             0x08002300   Section        0  system_stm32f10x.o(i.SystemInit)
    i.USART1_IRQHandler                      0x08002360   Section        0  usart.o(i.USART1_IRQHandler)
    i.USART_Cmd                              0x080023e8   Section        0  stm32f10x_usart.o(i.USART_Cmd)
    i.USART_GetITStatus                      0x08002400   Section        0  stm32f10x_usart.o(i.USART_GetITStatus)
    i.USART_ITConfig                         0x08002454   Section        0  stm32f10x_usart.o(i.USART_ITConfig)
    i.USART_Init                             0x080024a0   Section        0  stm32f10x_usart.o(i.USART_Init)
    i.USART_ReceiveData                      0x08002578   Section        0  stm32f10x_usart.o(i.USART_ReceiveData)
    i.UsageFault_Handler                     0x08002582   Section        0  stm32f10x_it.o(i.UsageFault_Handler)
    i.__ARM_fpclassify                       0x08002586   Section        0  fpclassify.o(i.__ARM_fpclassify)
    i.__kernel_poly                          0x080025ae   Section        0  poly.o(i.__kernel_poly)
    i.__mathlib_dbl_infnan                   0x08002658   Section        0  dunder.o(i.__mathlib_dbl_infnan)
    i.__mathlib_dbl_infnan2                  0x0800265e   Section        0  dunder.o(i.__mathlib_dbl_infnan2)
    i.__mathlib_dbl_invalid                  0x08002662   Section        0  dunder.o(i.__mathlib_dbl_invalid)
    i.__mathlib_dbl_underflow                0x08002670   Section        0  dunder.o(i.__mathlib_dbl_underflow)
    i._is_digit                              0x08002680   Section        0  __printf_wp.o(i._is_digit)
    i._sys_exit                              0x0800268e   Section        0  usart.o(i._sys_exit)
    i.accel_self_test                        0x08002694   Section        0  inv_mpu.o(i.accel_self_test)
    accel_self_test                          0x08002695   Thumb Code   164  inv_mpu.o(i.accel_self_test)
    i.asin                                   0x0800273c   Section        0  asin.o(i.asin)
    i.atan                                   0x080029ac   Section        0  atan.o(i.atan)
    i.atan2                                  0x08002bcc   Section        0  atan2.o(i.atan2)
    i.decode_gesture                         0x08002d4c   Section        0  inv_mpu_dmp_motion_driver.o(i.decode_gesture)
    decode_gesture                           0x08002d4d   Thumb Code    94  inv_mpu_dmp_motion_driver.o(i.decode_gesture)
    i.delay_init                             0x08002db0   Section        0  delay.o(i.delay_init)
    i.delay_ms                               0x08002df4   Section        0  delay.o(i.delay_ms)
    i.delay_us                               0x08002e40   Section        0  delay.o(i.delay_us)
    i.dmp_enable_6x_lp_quat                  0x08002e8c   Section        0  inv_mpu_dmp_motion_driver.o(i.dmp_enable_6x_lp_quat)
    i.dmp_enable_feature                     0x08002ec8   Section        0  inv_mpu_dmp_motion_driver.o(i.dmp_enable_feature)
    i.dmp_enable_gyro_cal                    0x080030e4   Section        0  inv_mpu_dmp_motion_driver.o(i.dmp_enable_gyro_cal)
    i.dmp_enable_lp_quat                     0x0800313c   Section        0  inv_mpu_dmp_motion_driver.o(i.dmp_enable_lp_quat)
    i.dmp_load_motion_driver_firmware        0x08003178   Section        0  inv_mpu_dmp_motion_driver.o(i.dmp_load_motion_driver_firmware)
    i.dmp_read_fifo                          0x08003190   Section        0  inv_mpu_dmp_motion_driver.o(i.dmp_read_fifo)
    i.dmp_set_accel_bias                     0x0800335c   Section        0  inv_mpu_dmp_motion_driver.o(i.dmp_set_accel_bias)
    i.dmp_set_fifo_rate                      0x0800348c   Section        0  inv_mpu_dmp_motion_driver.o(i.dmp_set_fifo_rate)
    i.dmp_set_gyro_bias                      0x080034fc   Section        0  inv_mpu_dmp_motion_driver.o(i.dmp_set_gyro_bias)
    i.dmp_set_orientation                    0x0800362c   Section        0  inv_mpu_dmp_motion_driver.o(i.dmp_set_orientation)
    i.dmp_set_shake_reject_thresh            0x08003764   Section        0  inv_mpu_dmp_motion_driver.o(i.dmp_set_shake_reject_thresh)
    i.dmp_set_shake_reject_time              0x0800379c   Section        0  inv_mpu_dmp_motion_driver.o(i.dmp_set_shake_reject_time)
    i.dmp_set_shake_reject_timeout           0x080037c2   Section        0  inv_mpu_dmp_motion_driver.o(i.dmp_set_shake_reject_timeout)
    i.dmp_set_tap_axes                       0x080037e8   Section        0  inv_mpu_dmp_motion_driver.o(i.dmp_set_tap_axes)
    i.dmp_set_tap_count                      0x0800382e   Section        0  inv_mpu_dmp_motion_driver.o(i.dmp_set_tap_count)
    i.dmp_set_tap_thresh                     0x08003854   Section        0  inv_mpu_dmp_motion_driver.o(i.dmp_set_tap_thresh)
    i.dmp_set_tap_time                       0x080039f4   Section        0  inv_mpu_dmp_motion_driver.o(i.dmp_set_tap_time)
    i.dmp_set_tap_time_multi                 0x08003a1a   Section        0  inv_mpu_dmp_motion_driver.o(i.dmp_set_tap_time_multi)
    i.fputc                                  0x08003a40   Section        0  usart.o(i.fputc)
    i.get_accel_prod_shift                   0x08003a5c   Section        0  inv_mpu.o(i.get_accel_prod_shift)
    get_accel_prod_shift                     0x08003a5d   Thumb Code   168  inv_mpu.o(i.get_accel_prod_shift)
    i.get_st_biases                          0x08003b10   Section        0  inv_mpu.o(i.get_st_biases)
    get_st_biases                            0x08003b11   Thumb Code  1132  inv_mpu.o(i.get_st_biases)
    i.gyro_self_test                         0x08003f80   Section        0  inv_mpu.o(i.gyro_self_test)
    gyro_self_test                           0x08003f81   Thumb Code   256  inv_mpu.o(i.gyro_self_test)
    i.inv_orientation_matrix_to_scalar       0x08004090   Section        0  inv_mpu.o(i.inv_orientation_matrix_to_scalar)
    i.inv_row_2_scale                        0x080040b8   Section        0  inv_mpu.o(i.inv_row_2_scale)
    i.main                                   0x08004106   Section        0  main.o(i.main)
    i.mget_ms                                0x0800411a   Section        0  inv_mpu.o(i.mget_ms)
    i.mpu6050_send_data                      0x0800411c   Section        0  niming.o(i.mpu6050_send_data)
    i.mpu_configure_fifo                     0x0800418c   Section        0  inv_mpu.o(i.mpu_configure_fifo)
    i.mpu_dmp_get_data                       0x080041fc   Section        0  inv_mpu.o(i.mpu_dmp_get_data)
    i.mpu_dmp_init                           0x08004420   Section        0  inv_mpu.o(i.mpu_dmp_init)
    i.mpu_get_accel_fsr                      0x080044c0   Section        0  inv_mpu.o(i.mpu_get_accel_fsr)
    i.mpu_get_accel_sens                     0x0800450c   Section        0  inv_mpu.o(i.mpu_get_accel_sens)
    i.mpu_get_fifo_config                    0x08004560   Section        0  inv_mpu.o(i.mpu_get_fifo_config)
    i.mpu_get_gyro_fsr                       0x08004570   Section        0  inv_mpu.o(i.mpu_get_gyro_fsr)
    i.mpu_get_gyro_sens                      0x080045b4   Section        0  inv_mpu.o(i.mpu_get_gyro_sens)
    i.mpu_get_lpf                            0x08004604   Section        0  inv_mpu.o(i.mpu_get_lpf)
    i.mpu_get_sample_rate                    0x08004654   Section        0  inv_mpu.o(i.mpu_get_sample_rate)
    i.mpu_init                               0x08004674   Section        0  inv_mpu.o(i.mpu_init)
    i.mpu_load_firmware                      0x08004864   Section        0  inv_mpu.o(i.mpu_load_firmware)
    i.mpu_lp_accel_mode                      0x0800491c   Section        0  inv_mpu.o(i.mpu_lp_accel_mode)
    i.mpu_read_fifo_stream                   0x080049fc   Section        0  inv_mpu.o(i.mpu_read_fifo_stream)
    i.mpu_read_mem                           0x08004abc   Section        0  inv_mpu.o(i.mpu_read_mem)
    i.mpu_reset_fifo                         0x08004b3c   Section        0  inv_mpu.o(i.mpu_reset_fifo)
    i.mpu_run_self_test                      0x08004d04   Section        0  inv_mpu.o(i.mpu_run_self_test)
    i.mpu_set_accel_fsr                      0x08004e20   Section        0  inv_mpu.o(i.mpu_set_accel_fsr)
    i.mpu_set_bypass                         0x08004ea4   Section        0  inv_mpu.o(i.mpu_set_bypass)
    i.mpu_set_dmp_state                      0x08004ff0   Section        0  inv_mpu.o(i.mpu_set_dmp_state)
    i.mpu_set_gyro_fsr                       0x08005080   Section        0  inv_mpu.o(i.mpu_set_gyro_fsr)
    i.mpu_set_int_latched                    0x08005108   Section        0  inv_mpu.o(i.mpu_set_int_latched)
    i.mpu_set_lpf                            0x08005174   Section        0  inv_mpu.o(i.mpu_set_lpf)
    i.mpu_set_sample_rate                    0x080051f8   Section        0  inv_mpu.o(i.mpu_set_sample_rate)
    i.mpu_set_sensors                        0x08005294   Section        0  inv_mpu.o(i.mpu_set_sensors)
    i.mpu_write_mem                          0x08005364   Section        0  inv_mpu.o(i.mpu_write_mem)
    i.run_self_test                          0x080053e4   Section        0  inv_mpu.o(i.run_self_test)
    i.set_int_enable                         0x08005478   Section        0  inv_mpu.o(i.set_int_enable)
    set_int_enable                           0x08005479   Thumb Code   138  inv_mpu.o(i.set_int_enable)
    i.sqrt                                   0x08005508   Section        0  sqrt.o(i.sqrt)
    i.uart_init                              0x08005554   Section        0  usart.o(i.uart_init)
    i.usart1_niming_report                   0x080055f4   Section        0  niming.o(i.usart1_niming_report)
    i.usart1_report_imu                      0x0800566c   Section        0  niming.o(i.usart1_report_imu)
    i.usart1_send_char                       0x0800572c   Section        0  niming.o(i.usart1_send_char)
    x$fpl$d2f                                0x08005748   Section       98  d2f.o(x$fpl$d2f)
    x$fpl$dadd                               0x080057ac   Section      336  daddsub_clz.o(x$fpl$dadd)
    _dadd1                                   0x080057bd   Thumb Code     0  daddsub_clz.o(x$fpl$dadd)
    x$fpl$dcheck1                            0x080058fc   Section       16  dcheck1.o(x$fpl$dcheck1)
    x$fpl$ddiv                               0x0800590c   Section      688  ddiv.o(x$fpl$ddiv)
    ddiv_entry                               0x08005913   Thumb Code     0  ddiv.o(x$fpl$ddiv)
    x$fpl$dflt                               0x08005bbc   Section       46  dflt_clz.o(x$fpl$dflt)
    x$fpl$dmul                               0x08005bec   Section      340  dmul.o(x$fpl$dmul)
    x$fpl$dnaninf                            0x08005d40   Section      156  dnaninf.o(x$fpl$dnaninf)
    x$fpl$dretinf                            0x08005ddc   Section       12  dretinf.o(x$fpl$dretinf)
    x$fpl$drsb                               0x08005de8   Section       22  daddsub_clz.o(x$fpl$drsb)
    x$fpl$dsqrt                              0x08005e00   Section      460  dsqrt_noumaal.o(x$fpl$dsqrt)
    x$fpl$dsub                               0x08005fcc   Section      468  daddsub_clz.o(x$fpl$dsub)
    _dsub1                                   0x08005fdd   Thumb Code     0  daddsub_clz.o(x$fpl$dsub)
    x$fpl$f2d                                0x080061a0   Section       86  f2d.o(x$fpl$f2d)
    x$fpl$fadd                               0x080061f8   Section      196  faddsub_clz.o(x$fpl$fadd)
    _fadd1                                   0x08006207   Thumb Code     0  faddsub_clz.o(x$fpl$fadd)
    x$fpl$fcmpinf                            0x080062bc   Section       24  fcmpi.o(x$fpl$fcmpinf)
    x$fpl$fdiv                               0x080062d4   Section      388  fdiv.o(x$fpl$fdiv)
    _fdiv1                                   0x080062d5   Thumb Code     0  fdiv.o(x$fpl$fdiv)
    x$fpl$feqf                               0x08006458   Section      104  feqf.o(x$fpl$feqf)
    x$fpl$ffix                               0x080064c0   Section       54  ffix.o(x$fpl$ffix)
    x$fpl$ffixu                              0x080064f8   Section       62  ffixu.o(x$fpl$ffixu)
    x$fpl$fflt                               0x08006538   Section       48  fflt_clz.o(x$fpl$fflt)
    x$fpl$ffltu                              0x08006568   Section       38  fflt_clz.o(x$fpl$ffltu)
    x$fpl$fleqf                              0x08006590   Section      104  fleqf.o(x$fpl$fleqf)
    x$fpl$fmul                               0x080065f8   Section      258  fmul.o(x$fpl$fmul)
    x$fpl$fnaninf                            0x080066fa   Section      140  fnaninf.o(x$fpl$fnaninf)
    x$fpl$fretinf                            0x08006786   Section       10  fretinf.o(x$fpl$fretinf)
    x$fpl$frleqf                             0x08006790   Section       98  frleqf.o(x$fpl$frleqf)
    x$fpl$fsub                               0x080067f4   Section      234  faddsub_clz.o(x$fpl$fsub)
    _fsub1                                   0x08006803   Thumb Code     0  faddsub_clz.o(x$fpl$fsub)
    x$fpl$retnan                             0x080068de   Section      100  retnan.o(x$fpl$retnan)
    x$fpl$scalbn                             0x08006942   Section       92  scalbn.o(x$fpl$scalbn)
    x$fpl$trapveneer                         0x0800699e   Section       48  trapv.o(x$fpl$trapveneer)
    .constdata                               0x080069ce   Section     3296  lcd_guidriver.o(.constdata)
    x$fpl$usenofp                            0x080069ce   Section        0  usenofp.o(x$fpl$usenofp)
    .constdata                               0x080076b0   Section       80  inv_mpu.o(.constdata)
    .constdata                               0x08007700   Section     3062  inv_mpu_dmp_motion_driver.o(.constdata)
    dmp_memory                               0x08007700   Data        3062  inv_mpu_dmp_motion_driver.o(.constdata)
    .constdata                               0x080082f6   Section       17  __printf_flags_wp.o(.constdata)
    maptable                                 0x080082f6   Data          17  __printf_flags_wp.o(.constdata)
    .constdata                               0x08008308   Section       80  asin.o(.constdata)
    pS                                       0x08008308   Data          48  asin.o(.constdata)
    qS                                       0x08008338   Data          32  asin.o(.constdata)
    .constdata                               0x08008358   Section      152  atan.o(.constdata)
    atanhi                                   0x08008358   Data          32  atan.o(.constdata)
    atanlo                                   0x08008378   Data          32  atan.o(.constdata)
    aTodd                                    0x08008398   Data          40  atan.o(.constdata)
    aTeven                                   0x080083c0   Data          48  atan.o(.constdata)
    .constdata                               0x080083f0   Section        8  qnan.o(.constdata)
    .conststring                             0x080083f8   Section       69  main.o(.conststring)
    .conststring                             0x08008440   Section       77  inv_mpu.o(.conststring)
    .data                                    0x20000000   Section       30  main.o(.data)
    .data                                    0x20000020   Section       20  system_stm32f10x.o(.data)
    .data                                    0x20000034   Section        1  key.o(.data)
    key_up                                   0x20000034   Data           1  key.o(.data)
    .data                                    0x20000038   Section       53  inv_mpu.o(.data)
    st                                       0x20000038   Data          44  inv_mpu.o(.data)
    gyro_orientation                         0x20000064   Data           9  inv_mpu.o(.data)
    .data                                    0x2000006e   Section        4  delay.o(.data)
    fac_us                                   0x2000006e   Data           1  delay.o(.data)
    fac_ms                                   0x20000070   Data           2  delay.o(.data)
    .data                                    0x20000074   Section        6  usart.o(.data)
    .data                                    0x2000007a   Section       20  stm32f10x_rcc.o(.data)
    APBAHBPrescTable                         0x2000007a   Data          16  stm32f10x_rcc.o(.data)
    ADCPrescTable                            0x2000008a   Data           4  stm32f10x_rcc.o(.data)
    .bss                                     0x20000090   Section       33  main.o(.bss)
    .bss                                     0x200000b4   Section       16  inv_mpu_dmp_motion_driver.o(.bss)
    dmp                                      0x200000b4   Data          16  inv_mpu_dmp_motion_driver.o(.bss)
    .bss                                     0x200000c4   Section      200  usart.o(.bss)
    .bss                                     0x2000018c   Section       96  libspace.o(.bss)
    HEAP                                     0x200001f0   Section      512  startup_stm32f10x_hd.o(HEAP)
    Heap_Mem                                 0x200001f0   Data         512  startup_stm32f10x_hd.o(HEAP)
    STACK                                    0x200003f0   Section     1024  startup_stm32f10x_hd.o(STACK)
    Stack_Mem                                0x200003f0   Data        1024  startup_stm32f10x_hd.o(STACK)
    __initial_sp                             0x200007f0   Data           0  startup_stm32f10x_hd.o(STACK)

    Global Symbols

    Symbol Name                              Value     Ov Type        Size  Object(Section)

    BuildAttributes$$THM_ISAv4$P$D$K$B$S$PE$A:L22UL41UL21$X:L11$S22US41US21$IEEE1$IW$USESV6$~STKCKD$USESV7$~SHL$OTIME$ROPI$IEEEX$EBA8$UX$STANDARDLIB$REQ8$PRES8$EABIv2 0x00000000   Number         0  anon$$obj.o ABSOLUTE
    __ARM_use_no_argv                        0x00000000   Number         0  main.o ABSOLUTE
    _printf_flags                            0x00000000   Number         0  printf_stubs.o ABSOLUTE
    _printf_return_value                     0x00000000   Number         0  printf_stubs.o ABSOLUTE
    _printf_sizespec                         0x00000000   Number         0  printf_stubs.o ABSOLUTE
    _printf_widthprec                        0x00000000   Number         0  printf_stubs.o ABSOLUTE
    __ARM_exceptions_init                     - Undefined Weak Reference
    __alloca_initialize                       - Undefined Weak Reference
    __arm_preinit_                            - Undefined Weak Reference
    __cpp_initialize__aeabi_                  - Undefined Weak Reference
    __cxa_finalize                            - Undefined Weak Reference
    __rt_locale                               - Undefined Weak Reference
    __sigvec_lookup                           - Undefined Weak Reference
    _atexit_init                              - Undefined Weak Reference
    _call_atexit_fns                          - Undefined Weak Reference
    _clock_init                               - Undefined Weak Reference
    _fp_trap_init                             - Undefined Weak Reference
    _fp_trap_shutdown                         - Undefined Weak Reference
    _get_lc_collate                           - Undefined Weak Reference
    _get_lc_ctype                             - Undefined Weak Reference
    _get_lc_monetary                          - Undefined Weak Reference
    _get_lc_numeric                           - Undefined Weak Reference
    _get_lc_time                              - Undefined Weak Reference
    _getenv_init                              - Undefined Weak Reference
    _handle_redirection                       - Undefined Weak Reference
    _init_alloc                               - Undefined Weak Reference
    _init_user_alloc                          - Undefined Weak Reference
    _initio                                   - Undefined Weak Reference
    _mutex_acquire                            - Undefined Weak Reference
    _mutex_release                            - Undefined Weak Reference
    _printf_truncate_signed                   - Undefined Weak Reference
    _printf_truncate_unsigned                 - Undefined Weak Reference
    _rand_init                                - Undefined Weak Reference
    _signal_finish                            - Undefined Weak Reference
    _signal_init                              - Undefined Weak Reference
    _terminate_alloc                          - Undefined Weak Reference
    _terminate_user_alloc                     - Undefined Weak Reference
    _terminateio                              - Undefined Weak Reference
    __Vectors_Size                           0x00000130   Number         0  startup_stm32f10x_hd.o ABSOLUTE
    __Vectors                                0x08000000   Data           4  startup_stm32f10x_hd.o(RESET)
    __Vectors_End                            0x08000130   Data           0  startup_stm32f10x_hd.o(RESET)
    __main                                   0x08000131   Thumb Code     8  __main.o(!!!main)
    __scatterload                            0x08000139   Thumb Code     0  __scatter.o(!!!scatter)
    __scatterload_rt2                        0x08000139   Thumb Code    44  __scatter.o(!!!scatter)
    __scatterload_rt2_thumb_only             0x08000139   Thumb Code     0  __scatter.o(!!!scatter)
    __scatterload_null                       0x08000147   Thumb Code     0  __scatter.o(!!!scatter)
    __scatterload_copy                       0x0800016d   Thumb Code    26  __scatter_copy.o(!!handler_copy)
    __scatterload_zeroinit                   0x08000189   Thumb Code    28  __scatter_zi.o(!!handler_zi)
    _printf_d                                0x080001a5   Thumb Code     0  _printf_d.o(.ARM.Collect$$_printf_percent$$00000009)
    _printf_percent                          0x080001a5   Thumb Code     0  _printf_percent.o(.ARM.Collect$$_printf_percent$$00000000)
    _printf_percent_end                      0x080001ab   Thumb Code     0  _printf_percent_end.o(.ARM.Collect$$_printf_percent$$00000017)
    __rt_lib_init                            0x080001af   Thumb Code     0  libinit.o(.ARM.Collect$$libinit$$00000000)
    __rt_lib_init_alloca_1                   0x080001b1   Thumb Code     0  libinit2.o(.ARM.Collect$$libinit$$0000002E)
    __rt_lib_init_argv_1                     0x080001b1   Thumb Code     0  libinit2.o(.ARM.Collect$$libinit$$0000002C)
    __rt_lib_init_atexit_1                   0x080001b1   Thumb Code     0  libinit2.o(.ARM.Collect$$libinit$$0000001B)
    __rt_lib_init_clock_1                    0x080001b1   Thumb Code     0  libinit2.o(.ARM.Collect$$libinit$$00000021)
    __rt_lib_init_cpp_1                      0x080001b1   Thumb Code     0  libinit2.o(.ARM.Collect$$libinit$$00000032)
    __rt_lib_init_exceptions_1               0x080001b1   Thumb Code     0  libinit2.o(.ARM.Collect$$libinit$$00000030)
    __rt_lib_init_fp_1                       0x080001b1   Thumb Code     0  libinit2.o(.ARM.Collect$$libinit$$00000002)
    __rt_lib_init_fp_trap_1                  0x080001b1   Thumb Code     0  libinit2.o(.ARM.Collect$$libinit$$0000001F)
    __rt_lib_init_getenv_1                   0x080001b1   Thumb Code     0  libinit2.o(.ARM.Collect$$libinit$$00000023)
    __rt_lib_init_heap_1                     0x080001b1   Thumb Code     0  libinit2.o(.ARM.Collect$$libinit$$0000000A)
    __rt_lib_init_lc_collate_1               0x080001b1   Thumb Code     0  libinit2.o(.ARM.Collect$$libinit$$00000011)
    __rt_lib_init_lc_ctype_1                 0x080001b1   Thumb Code     0  libinit2.o(.ARM.Collect$$libinit$$00000013)
    __rt_lib_init_lc_monetary_1              0x080001b1   Thumb Code     0  libinit2.o(.ARM.Collect$$libinit$$00000015)
    __rt_lib_init_lc_numeric_1               0x080001b1   Thumb Code     0  libinit2.o(.ARM.Collect$$libinit$$00000017)
    __rt_lib_init_lc_time_1                  0x080001b1   Thumb Code     0  libinit2.o(.ARM.Collect$$libinit$$00000019)
    __rt_lib_init_preinit_1                  0x080001b1   Thumb Code     0  libinit2.o(.ARM.Collect$$libinit$$00000004)
    __rt_lib_init_rand_1                     0x080001b1   Thumb Code     0  libinit2.o(.ARM.Collect$$libinit$$0000000E)
    __rt_lib_init_return                     0x080001b1   Thumb Code     0  libinit2.o(.ARM.Collect$$libinit$$00000033)
    __rt_lib_init_signal_1                   0x080001b1   Thumb Code     0  libinit2.o(.ARM.Collect$$libinit$$0000001D)
    __rt_lib_init_stdio_1                    0x080001b1   Thumb Code     0  libinit2.o(.ARM.Collect$$libinit$$00000025)
    __rt_lib_init_user_alloc_1               0x080001b1   Thumb Code     0  libinit2.o(.ARM.Collect$$libinit$$0000000C)
    __rt_lib_shutdown                        0x080001b3   Thumb Code     0  libshutdown.o(.ARM.Collect$$libshutdown$$00000000)
    __rt_lib_shutdown_cpp_1                  0x080001b5   Thumb Code     0  libshutdown2.o(.ARM.Collect$$libshutdown$$00000002)
    __rt_lib_shutdown_fp_trap_1              0x080001b5   Thumb Code     0  libshutdown2.o(.ARM.Collect$$libshutdown$$00000007)
    __rt_lib_shutdown_heap_1                 0x080001b5   Thumb Code     0  libshutdown2.o(.ARM.Collect$$libshutdown$$0000000F)
    __rt_lib_shutdown_return                 0x080001b5   Thumb Code     0  libshutdown2.o(.ARM.Collect$$libshutdown$$00000010)
    __rt_lib_shutdown_signal_1               0x080001b5   Thumb Code     0  libshutdown2.o(.ARM.Collect$$libshutdown$$0000000A)
    __rt_lib_shutdown_stdio_1                0x080001b5   Thumb Code     0  libshutdown2.o(.ARM.Collect$$libshutdown$$00000004)
    __rt_lib_shutdown_user_alloc_1           0x080001b5   Thumb Code     0  libshutdown2.o(.ARM.Collect$$libshutdown$$0000000C)
    __rt_entry                               0x080001b7   Thumb Code     0  __rtentry.o(.ARM.Collect$$rtentry$$00000000)
    __rt_entry_presh_1                       0x080001b7   Thumb Code     0  __rtentry2.o(.ARM.Collect$$rtentry$$00000002)
    __rt_entry_sh                            0x080001b7   Thumb Code     0  __rtentry4.o(.ARM.Collect$$rtentry$$00000004)
    __rt_entry_li                            0x080001bd   Thumb Code     0  __rtentry2.o(.ARM.Collect$$rtentry$$0000000A)
    __rt_entry_postsh_1                      0x080001bd   Thumb Code     0  __rtentry2.o(.ARM.Collect$$rtentry$$00000009)
    __rt_entry_main                          0x080001c1   Thumb Code     0  __rtentry2.o(.ARM.Collect$$rtentry$$0000000D)
    __rt_entry_postli_1                      0x080001c1   Thumb Code     0  __rtentry2.o(.ARM.Collect$$rtentry$$0000000C)
    __rt_exit                                0x080001c9   Thumb Code     0  rtexit.o(.ARM.Collect$$rtexit$$00000000)
    __rt_exit_ls                             0x080001cb   Thumb Code     0  rtexit2.o(.ARM.Collect$$rtexit$$00000003)
    __rt_exit_prels_1                        0x080001cb   Thumb Code     0  rtexit2.o(.ARM.Collect$$rtexit$$00000002)
    __rt_exit_exit                           0x080001cf   Thumb Code     0  rtexit2.o(.ARM.Collect$$rtexit$$00000004)
    Reset_Handler                            0x080001d5   Thumb Code     8  startup_stm32f10x_hd.o(.text)
    ADC1_2_IRQHandler                        0x080001ef   Thumb Code     0  startup_stm32f10x_hd.o(.text)
    ADC3_IRQHandler                          0x080001ef   Thumb Code     0  startup_stm32f10x_hd.o(.text)
    CAN1_RX1_IRQHandler                      0x080001ef   Thumb Code     0  startup_stm32f10x_hd.o(.text)
    CAN1_SCE_IRQHandler                      0x080001ef   Thumb Code     0  startup_stm32f10x_hd.o(.text)
    DMA1_Channel1_IRQHandler                 0x080001ef   Thumb Code     0  startup_stm32f10x_hd.o(.text)
    DMA1_Channel2_IRQHandler                 0x080001ef   Thumb Code     0  startup_stm32f10x_hd.o(.text)
    DMA1_Channel3_IRQHandler                 0x080001ef   Thumb Code     0  startup_stm32f10x_hd.o(.text)
    DMA1_Channel4_IRQHandler                 0x080001ef   Thumb Code     0  startup_stm32f10x_hd.o(.text)
    DMA1_Channel5_IRQHandler                 0x080001ef   Thumb Code     0  startup_stm32f10x_hd.o(.text)
    DMA1_Channel6_IRQHandler                 0x080001ef   Thumb Code     0  startup_stm32f10x_hd.o(.text)
    DMA1_Channel7_IRQHandler                 0x080001ef   Thumb Code     0  startup_stm32f10x_hd.o(.text)
    DMA2_Channel1_IRQHandler                 0x080001ef   Thumb Code     0  startup_stm32f10x_hd.o(.text)
    DMA2_Channel2_IRQHandler                 0x080001ef   Thumb Code     0  startup_stm32f10x_hd.o(.text)
    DMA2_Channel3_IRQHandler                 0x080001ef   Thumb Code     0  startup_stm32f10x_hd.o(.text)
    DMA2_Channel4_5_IRQHandler               0x080001ef   Thumb Code     0  startup_stm32f10x_hd.o(.text)
    EXTI0_IRQHandler                         0x080001ef   Thumb Code     0  startup_stm32f10x_hd.o(.text)
    EXTI15_10_IRQHandler                     0x080001ef   Thumb Code     0  startup_stm32f10x_hd.o(.text)
    EXTI1_IRQHandler                         0x080001ef   Thumb Code     0  startup_stm32f10x_hd.o(.text)
    EXTI2_IRQHandler                         0x080001ef   Thumb Code     0  startup_stm32f10x_hd.o(.text)
    EXTI3_IRQHandler                         0x080001ef   Thumb Code     0  startup_stm32f10x_hd.o(.text)
    EXTI4_IRQHandler                         0x080001ef   Thumb Code     0  startup_stm32f10x_hd.o(.text)
    EXTI9_5_IRQHandler                       0x080001ef   Thumb Code     0  startup_stm32f10x_hd.o(.text)
    FLASH_IRQHandler                         0x080001ef   Thumb Code     0  startup_stm32f10x_hd.o(.text)
    FSMC_IRQHandler                          0x080001ef   Thumb Code     0  startup_stm32f10x_hd.o(.text)
    I2C1_ER_IRQHandler                       0x080001ef   Thumb Code     0  startup_stm32f10x_hd.o(.text)
    I2C1_EV_IRQHandler                       0x080001ef   Thumb Code     0  startup_stm32f10x_hd.o(.text)
    I2C2_ER_IRQHandler                       0x080001ef   Thumb Code     0  startup_stm32f10x_hd.o(.text)
    I2C2_EV_IRQHandler                       0x080001ef   Thumb Code     0  startup_stm32f10x_hd.o(.text)
    PVD_IRQHandler                           0x080001ef   Thumb Code     0  startup_stm32f10x_hd.o(.text)
    RCC_IRQHandler                           0x080001ef   Thumb Code     0  startup_stm32f10x_hd.o(.text)
    RTCAlarm_IRQHandler                      0x080001ef   Thumb Code     0  startup_stm32f10x_hd.o(.text)
    RTC_IRQHandler                           0x080001ef   Thumb Code     0  startup_stm32f10x_hd.o(.text)
    SDIO_IRQHandler                          0x080001ef   Thumb Code     0  startup_stm32f10x_hd.o(.text)
    SPI1_IRQHandler                          0x080001ef   Thumb Code     0  startup_stm32f10x_hd.o(.text)
    SPI2_IRQHandler                          0x080001ef   Thumb Code     0  startup_stm32f10x_hd.o(.text)
    SPI3_IRQHandler                          0x080001ef   Thumb Code     0  startup_stm32f10x_hd.o(.text)
    TAMPER_IRQHandler                        0x080001ef   Thumb Code     0  startup_stm32f10x_hd.o(.text)
    TIM1_BRK_IRQHandler                      0x080001ef   Thumb Code     0  startup_stm32f10x_hd.o(.text)
    TIM1_CC_IRQHandler                       0x080001ef   Thumb Code     0  startup_stm32f10x_hd.o(.text)
    TIM1_TRG_COM_IRQHandler                  0x080001ef   Thumb Code     0  startup_stm32f10x_hd.o(.text)
    TIM1_UP_IRQHandler                       0x080001ef   Thumb Code     0  startup_stm32f10x_hd.o(.text)
    TIM2_IRQHandler                          0x080001ef   Thumb Code     0  startup_stm32f10x_hd.o(.text)
    TIM3_IRQHandler                          0x080001ef   Thumb Code     0  startup_stm32f10x_hd.o(.text)
    TIM4_IRQHandler                          0x080001ef   Thumb Code     0  startup_stm32f10x_hd.o(.text)
    TIM5_IRQHandler                          0x080001ef   Thumb Code     0  startup_stm32f10x_hd.o(.text)
    TIM6_IRQHandler                          0x080001ef   Thumb Code     0  startup_stm32f10x_hd.o(.text)
    TIM7_IRQHandler                          0x080001ef   Thumb Code     0  startup_stm32f10x_hd.o(.text)
    TIM8_BRK_IRQHandler                      0x080001ef   Thumb Code     0  startup_stm32f10x_hd.o(.text)
    TIM8_CC_IRQHandler                       0x080001ef   Thumb Code     0  startup_stm32f10x_hd.o(.text)
    TIM8_TRG_COM_IRQHandler                  0x080001ef   Thumb Code     0  startup_stm32f10x_hd.o(.text)
    TIM8_UP_IRQHandler                       0x080001ef   Thumb Code     0  startup_stm32f10x_hd.o(.text)
    UART4_IRQHandler                         0x080001ef   Thumb Code     0  startup_stm32f10x_hd.o(.text)
    UART5_IRQHandler                         0x080001ef   Thumb Code     0  startup_stm32f10x_hd.o(.text)
    USART2_IRQHandler                        0x080001ef   Thumb Code     0  startup_stm32f10x_hd.o(.text)
    USART3_IRQHandler                        0x080001ef   Thumb Code     0  startup_stm32f10x_hd.o(.text)
    USBWakeUp_IRQHandler                     0x080001ef   Thumb Code     0  startup_stm32f10x_hd.o(.text)
    USB_HP_CAN1_TX_IRQHandler                0x080001ef   Thumb Code     0  startup_stm32f10x_hd.o(.text)
    USB_LP_CAN1_RX0_IRQHandler               0x080001ef   Thumb Code     0  startup_stm32f10x_hd.o(.text)
    WWDG_IRQHandler                          0x080001ef   Thumb Code     0  startup_stm32f10x_hd.o(.text)
    __user_initial_stackheap                 0x080001f1   Thumb Code     0  startup_stm32f10x_hd.o(.text)
    __use_no_semihosting                     0x08000215   Thumb Code     2  use_no_semi_2.o(.text)
    __aeabi_ldivmod                          0x08000217   Thumb Code     0  llsdiv.o(.text)
    _ll_sdiv                                 0x08000217   Thumb Code    72  llsdiv.o(.text)
    __2printf                                0x08000261   Thumb Code    20  noretval__2printf.o(.text)
    __2sprintf                               0x08000279   Thumb Code    34  noretval__2sprintf.o(.text)
    _printf_pre_padding                      0x080002a1   Thumb Code    44  _printf_pad.o(.text)
    _printf_post_padding                     0x080002cd   Thumb Code    34  _printf_pad.o(.text)
    _printf_int_dec                          0x080002f1   Thumb Code   104  _printf_dec.o(.text)
    __printf                                 0x08000369   Thumb Code   308  __printf_flags_wp.o(.text)
    memcmp                                   0x080004a1   Thumb Code    88  memcmp.o(.text)
    __aeabi_memset                           0x080004f9   Thumb Code    16  aeabi_memset.o(.text)
    __use_two_region_memory                  0x08000509   Thumb Code     2  heapauxi.o(.text)
    __rt_heap_escrow$2region                 0x0800050b   Thumb Code     2  heapauxi.o(.text)
    __rt_heap_expand$2region                 0x0800050d   Thumb Code     2  heapauxi.o(.text)
    __I$use$semihosting                      0x0800050f   Thumb Code     0  use_no_semi.o(.text)
    __use_no_semihosting_swi                 0x0800050f   Thumb Code     2  use_no_semi.o(.text)
    __aeabi_uldivmod                         0x08000511   Thumb Code     0  lludivv7m.o(.text)
    _ll_udiv                                 0x08000511   Thumb Code   238  lludivv7m.o(.text)
    __read_errno                             0x080005ff   Thumb Code    10  _rserrno.o(.text)
    __set_errno                              0x08000609   Thumb Code    12  _rserrno.o(.text)
    _printf_int_common                       0x08000615   Thumb Code   178  _printf_intcommon.o(.text)
    _printf_char_common                      0x080006d3   Thumb Code    32  _printf_char_common.o(.text)
    _sputc                                   0x080006f9   Thumb Code    10  _sputc.o(.text)
    _printf_char_file                        0x08000705   Thumb Code    32  _printf_char_file.o(.text)
    __aeabi_memclr                           0x08000729   Thumb Code     0  rt_memclr.o(.text)
    __rt_memclr                              0x08000729   Thumb Code    68  rt_memclr.o(.text)
    _memset                                  0x0800072d   Thumb Code     0  rt_memclr.o(.text)
    __aeabi_errno_addr                       0x0800076d   Thumb Code     8  rt_errno_addr_intlibspace.o(.text)
    __errno$intlibspace                      0x0800076d   Thumb Code     0  rt_errno_addr_intlibspace.o(.text)
    __rt_errno_addr$intlibspace              0x0800076d   Thumb Code     0  rt_errno_addr_intlibspace.o(.text)
    ferror                                   0x08000775   Thumb Code     8  ferror.o(.text)
    __aeabi_memclr4                          0x0800077d   Thumb Code     0  rt_memclr_w.o(.text)
    __aeabi_memclr8                          0x0800077d   Thumb Code     0  rt_memclr_w.o(.text)
    __rt_memclr_w                            0x0800077d   Thumb Code    78  rt_memclr_w.o(.text)
    _memset_w                                0x08000781   Thumb Code     0  rt_memclr_w.o(.text)
    __user_libspace                          0x080007cd   Thumb Code     8  libspace.o(.text)
    __user_perproc_libspace                  0x080007cd   Thumb Code     0  libspace.o(.text)
    __user_perthread_libspace                0x080007cd   Thumb Code     0  libspace.o(.text)
    __user_setup_stackheap                   0x080007d5   Thumb Code    74  sys_stackheap_outer.o(.text)
    exit                                     0x0800081f   Thumb Code    18  exit.o(.text)
    BusFault_Handler                         0x08000831   Thumb Code     4  stm32f10x_it.o(i.BusFault_Handler)
    DATA_Report                              0x08000835   Thumb Code  1260  main.o(i.DATA_Report)
    DebugMon_Handler                         0x08000d3d   Thumb Code     2  stm32f10x_it.o(i.DebugMon_Handler)
    GPIO_Init                                0x08000d3f   Thumb Code   278  stm32f10x_gpio.o(i.GPIO_Init)
    GPIO_PinRemapConfig                      0x08000e55   Thumb Code   138  stm32f10x_gpio.o(i.GPIO_PinRemapConfig)
    GPIO_ReadInputDataBit                    0x08000ee5   Thumb Code    18  stm32f10x_gpio.o(i.GPIO_ReadInputDataBit)
    GPIO_SetBits                             0x08000ef7   Thumb Code     4  stm32f10x_gpio.o(i.GPIO_SetBits)
    Gui_DrawFont_GBK16                       0x08000efd   Thumb Code   394  lcd_guidriver.o(i.Gui_DrawFont_GBK16)
    Gui_DrawPoint                            0x08001091   Thumb Code    32  lcd_basedriver.o(i.Gui_DrawPoint)
    HardFault_Handler                        0x080010b1   Thumb Code     4  stm32f10x_it.o(i.HardFault_Handler)
    KEY_Init                                 0x080010b5   Thumb Code    82  key.o(i.KEY_Init)
    KEY_Scan                                 0x08001115   Thumb Code   154  key.o(i.KEY_Scan)
    LCD_GPIO_Init                            0x080011bd   Thumb Code    92  lcd_basedriver.o(i.LCD_GPIO_Init)
    LCD_WriteData_16Bit                      0x08001225   Thumb Code    42  lcd_basedriver.o(i.LCD_WriteData_16Bit)
    LED_Init                                 0x08001255   Thumb Code    72  led.o(i.LED_Init)
    Lcd_Clear                                0x080012a5   Thumb Code    50  lcd_basedriver.o(i.Lcd_Clear)
    Lcd_Init                                 0x080012d7   Thumb Code   546  lcd_basedriver.o(i.Lcd_Init)
    Lcd_Reset                                0x080014f9   Thumb Code    32  lcd_basedriver.o(i.Lcd_Reset)
    Lcd_SetRegion                            0x0800151d   Thumb Code    86  lcd_basedriver.o(i.Lcd_SetRegion)
    Lcd_WriteData                            0x08001575   Thumb Code    36  lcd_basedriver.o(i.Lcd_WriteData)
    Lcd_WriteIndex                           0x0800159d   Thumb Code    34  lcd_basedriver.o(i.Lcd_WriteIndex)
    MPU_Get_Accelerometer                    0x080015c5   Thumb Code    80  mpu6050.o(i.MPU_Get_Accelerometer)
    MPU_Get_Gyroscope                        0x08001615   Thumb Code    80  mpu6050.o(i.MPU_Get_Gyroscope)
    MPU_Get_Temperature                      0x08001665   Thumb Code    86  mpu6050.o(i.MPU_Get_Temperature)
    MPU_IIC_Ack                              0x080016cd   Thumb Code    62  mpuiic.o(i.MPU_IIC_Ack)
    MPU_IIC_Delay                            0x08001719   Thumb Code    10  mpuiic.o(i.MPU_IIC_Delay)
    MPU_IIC_Init                             0x08001725   Thumb Code    50  mpuiic.o(i.MPU_IIC_Init)
    MPU_IIC_NAck                             0x0800175d   Thumb Code    62  mpuiic.o(i.MPU_IIC_NAck)
    MPU_IIC_Read_Byte                        0x080017a9   Thumb Code    94  mpuiic.o(i.MPU_IIC_Read_Byte)
    MPU_IIC_Send_Byte                        0x08001815   Thumb Code    80  mpuiic.o(i.MPU_IIC_Send_Byte)
    MPU_IIC_Start                            0x08001871   Thumb Code    60  mpuiic.o(i.MPU_IIC_Start)
    MPU_IIC_Stop                             0x080018b9   Thumb Code    58  mpuiic.o(i.MPU_IIC_Stop)
    MPU_IIC_Wait_Ack                         0x08001901   Thumb Code    86  mpuiic.o(i.MPU_IIC_Wait_Ack)
    MPU_Init                                 0x08001965   Thumb Code   122  mpu6050.o(i.MPU_Init)
    MPU_Mode                                 0x080019e1   Thumb Code   310  main.o(i.MPU_Mode)
    MPU_Read                                 0x08001bd1   Thumb Code    76  main.o(i.MPU_Read)
    MPU_Read_Byte                            0x08001c49   Thumb Code    58  mpu6050.o(i.MPU_Read_Byte)
    MPU_Read_Len                             0x08001c83   Thumb Code   116  mpu6050.o(i.MPU_Read_Len)
    MPU_Set_Accel_Fsr                        0x08001cf7   Thumb Code    16  mpu6050.o(i.MPU_Set_Accel_Fsr)
    MPU_Set_Gyro_Fsr                         0x08001d07   Thumb Code    16  mpu6050.o(i.MPU_Set_Gyro_Fsr)
    MPU_Set_LPF                              0x08001d17   Thumb Code    58  mpu6050.o(i.MPU_Set_LPF)
    MPU_Set_Rate                             0x08001d51   Thumb Code    58  mpu6050.o(i.MPU_Set_Rate)
    MPU_Write_Byte                           0x08001d8b   Thumb Code    68  mpu6050.o(i.MPU_Write_Byte)
    MPU_Write_Len                            0x08001dcf   Thumb Code    96  mpu6050.o(i.MPU_Write_Len)
    MemManage_Handler                        0x08001e2f   Thumb Code     4  stm32f10x_it.o(i.MemManage_Handler)
    NMI_Handler                              0x08001e33   Thumb Code     2  stm32f10x_it.o(i.NMI_Handler)
    NVIC_Init                                0x08001e35   Thumb Code   100  misc.o(i.NVIC_Init)
    NVIC_PriorityGroupConfig                 0x08001ea5   Thumb Code    10  misc.o(i.NVIC_PriorityGroupConfig)
    PendSV_Handler                           0x08001eb9   Thumb Code     2  stm32f10x_it.o(i.PendSV_Handler)
    RCC_APB2PeriphClockCmd                   0x08001ebd   Thumb Code    26  stm32f10x_rcc.o(i.RCC_APB2PeriphClockCmd)
    RCC_GetClocksFreq                        0x08001edd   Thumb Code   192  stm32f10x_rcc.o(i.RCC_GetClocksFreq)
    SPI_WriteData                            0x08001fb1   Thumb Code    54  lcd_basedriver.o(i.SPI_WriteData)
    SVC_Handler                              0x08001fed   Thumb Code     2  stm32f10x_it.o(i.SVC_Handler)
    SYS_Init                                 0x08001ff1   Thumb Code   376  main.o(i.SYS_Init)
    SysTick_CLKSourceConfig                  0x080022d5   Thumb Code    40  misc.o(i.SysTick_CLKSourceConfig)
    SysTick_Handler                          0x080022fd   Thumb Code     2  stm32f10x_it.o(i.SysTick_Handler)
    SystemInit                               0x08002301   Thumb Code    78  system_stm32f10x.o(i.SystemInit)
    USART1_IRQHandler                        0x08002361   Thumb Code   122  usart.o(i.USART1_IRQHandler)
    USART_Cmd                                0x080023e9   Thumb Code    24  stm32f10x_usart.o(i.USART_Cmd)
    USART_GetITStatus                        0x08002401   Thumb Code    84  stm32f10x_usart.o(i.USART_GetITStatus)
    USART_ITConfig                           0x08002455   Thumb Code    74  stm32f10x_usart.o(i.USART_ITConfig)
    USART_Init                               0x080024a1   Thumb Code   210  stm32f10x_usart.o(i.USART_Init)
    USART_ReceiveData                        0x08002579   Thumb Code    10  stm32f10x_usart.o(i.USART_ReceiveData)
    UsageFault_Handler                       0x08002583   Thumb Code     4  stm32f10x_it.o(i.UsageFault_Handler)
    __ARM_fpclassify                         0x08002587   Thumb Code    40  fpclassify.o(i.__ARM_fpclassify)
    __kernel_poly                            0x080025af   Thumb Code   170  poly.o(i.__kernel_poly)
    __mathlib_dbl_infnan                     0x08002659   Thumb Code     6  dunder.o(i.__mathlib_dbl_infnan)
    __mathlib_dbl_infnan2                    0x0800265f   Thumb Code     4  dunder.o(i.__mathlib_dbl_infnan2)
    __mathlib_dbl_invalid                    0x08002663   Thumb Code    12  dunder.o(i.__mathlib_dbl_invalid)
    __mathlib_dbl_underflow                  0x08002671   Thumb Code    10  dunder.o(i.__mathlib_dbl_underflow)
    _is_digit                                0x08002681   Thumb Code    14  __printf_wp.o(i._is_digit)
    _sys_exit                                0x0800268f   Thumb Code     4  usart.o(i._sys_exit)
    asin                                     0x0800273d   Thumb Code   572  asin.o(i.asin)
    atan                                     0x080029ad   Thumb Code   474  atan.o(i.atan)
    atan2                                    0x08002bcd   Thumb Code   346  atan2.o(i.atan2)
    delay_init                               0x08002db1   Thumb Code    50  delay.o(i.delay_init)
    delay_ms                                 0x08002df5   Thumb Code    72  delay.o(i.delay_ms)
    delay_us                                 0x08002e41   Thumb Code    72  delay.o(i.delay_us)
    dmp_enable_6x_lp_quat                    0x08002e8d   Thumb Code    60  inv_mpu_dmp_motion_driver.o(i.dmp_enable_6x_lp_quat)
    dmp_enable_feature                       0x08002ec9   Thumb Code   530  inv_mpu_dmp_motion_driver.o(i.dmp_enable_feature)
    dmp_enable_gyro_cal                      0x080030e5   Thumb Code    62  inv_mpu_dmp_motion_driver.o(i.dmp_enable_gyro_cal)
    dmp_enable_lp_quat                       0x0800313d   Thumb Code    60  inv_mpu_dmp_motion_driver.o(i.dmp_enable_lp_quat)
    dmp_load_motion_driver_firmware          0x08003179   Thumb Code    20  inv_mpu_dmp_motion_driver.o(i.dmp_load_motion_driver_firmware)
    dmp_read_fifo                            0x08003191   Thumb Code   456  inv_mpu_dmp_motion_driver.o(i.dmp_read_fifo)
    dmp_set_accel_bias                       0x0800335d   Thumb Code   300  inv_mpu_dmp_motion_driver.o(i.dmp_set_accel_bias)
    dmp_set_fifo_rate                        0x0800348d   Thumb Code    96  inv_mpu_dmp_motion_driver.o(i.dmp_set_fifo_rate)
    dmp_set_gyro_bias                        0x080034fd   Thumb Code   294  inv_mpu_dmp_motion_driver.o(i.dmp_set_gyro_bias)
    dmp_set_orientation                      0x0800362d   Thumb Code   290  inv_mpu_dmp_motion_driver.o(i.dmp_set_orientation)
    dmp_set_shake_reject_thresh              0x08003765   Thumb Code    56  inv_mpu_dmp_motion_driver.o(i.dmp_set_shake_reject_thresh)
    dmp_set_shake_reject_time                0x0800379d   Thumb Code    38  inv_mpu_dmp_motion_driver.o(i.dmp_set_shake_reject_time)
    dmp_set_shake_reject_timeout             0x080037c3   Thumb Code    38  inv_mpu_dmp_motion_driver.o(i.dmp_set_shake_reject_timeout)
    dmp_set_tap_axes                         0x080037e9   Thumb Code    70  inv_mpu_dmp_motion_driver.o(i.dmp_set_tap_axes)
    dmp_set_tap_count                        0x0800382f   Thumb Code    38  inv_mpu_dmp_motion_driver.o(i.dmp_set_tap_count)
    dmp_set_tap_thresh                       0x08003855   Thumb Code   396  inv_mpu_dmp_motion_driver.o(i.dmp_set_tap_thresh)
    dmp_set_tap_time                         0x080039f5   Thumb Code    38  inv_mpu_dmp_motion_driver.o(i.dmp_set_tap_time)
    dmp_set_tap_time_multi                   0x08003a1b   Thumb Code    38  inv_mpu_dmp_motion_driver.o(i.dmp_set_tap_time_multi)
    fputc                                    0x08003a41   Thumb Code    24  usart.o(i.fputc)
    inv_orientation_matrix_to_scalar         0x08004091   Thumb Code    40  inv_mpu.o(i.inv_orientation_matrix_to_scalar)
    inv_row_2_scale                          0x080040b9   Thumb Code    78  inv_mpu.o(i.inv_row_2_scale)
    main                                     0x08004107   Thumb Code    20  main.o(i.main)
    mget_ms                                  0x0800411b   Thumb Code     2  inv_mpu.o(i.mget_ms)
    mpu6050_send_data                        0x0800411d   Thumb Code   110  niming.o(i.mpu6050_send_data)
    mpu_configure_fifo                       0x0800418d   Thumb Code   106  inv_mpu.o(i.mpu_configure_fifo)
    mpu_dmp_get_data                         0x080041fd   Thumb Code   544  inv_mpu.o(i.mpu_dmp_get_data)
    mpu_dmp_init                             0x08004421   Thumb Code   154  inv_mpu.o(i.mpu_dmp_init)
    mpu_get_accel_fsr                        0x080044c1   Thumb Code    72  inv_mpu.o(i.mpu_get_accel_fsr)
    mpu_get_accel_sens                       0x0800450d   Thumb Code    78  inv_mpu.o(i.mpu_get_accel_sens)
    mpu_get_fifo_config                      0x08004561   Thumb Code    12  inv_mpu.o(i.mpu_get_fifo_config)
    mpu_get_gyro_fsr                         0x08004571   Thumb Code    64  inv_mpu.o(i.mpu_get_gyro_fsr)
    mpu_get_gyro_sens                        0x080045b5   Thumb Code    58  inv_mpu.o(i.mpu_get_gyro_sens)
    mpu_get_lpf                              0x08004605   Thumb Code    74  inv_mpu.o(i.mpu_get_lpf)
    mpu_get_sample_rate                      0x08004655   Thumb Code    26  inv_mpu.o(i.mpu_get_sample_rate)
    mpu_init                                 0x08004675   Thumb Code   416  inv_mpu.o(i.mpu_init)
    mpu_load_firmware                        0x08004865   Thumb Code   180  inv_mpu.o(i.mpu_load_firmware)
    mpu_lp_accel_mode                        0x0800491d   Thumb Code   218  inv_mpu.o(i.mpu_lp_accel_mode)
    mpu_read_fifo_stream                     0x080049fd   Thumb Code   186  inv_mpu.o(i.mpu_read_fifo_stream)
    mpu_read_mem                             0x08004abd   Thumb Code   122  inv_mpu.o(i.mpu_read_mem)
    mpu_reset_fifo                           0x08004b3d   Thumb Code   450  inv_mpu.o(i.mpu_reset_fifo)
    mpu_run_self_test                        0x08004d05   Thumb Code   278  inv_mpu.o(i.mpu_run_self_test)
    mpu_set_accel_fsr                        0x08004e21   Thumb Code   126  inv_mpu.o(i.mpu_set_accel_fsr)
    mpu_set_bypass                           0x08004ea5   Thumb Code   328  inv_mpu.o(i.mpu_set_bypass)
    mpu_set_dmp_state                        0x08004ff1   Thumb Code   138  inv_mpu.o(i.mpu_set_dmp_state)
    mpu_set_gyro_fsr                         0x08005081   Thumb Code   132  inv_mpu.o(i.mpu_set_gyro_fsr)
    mpu_set_int_latched                      0x08005109   Thumb Code   102  inv_mpu.o(i.mpu_set_int_latched)
    mpu_set_lpf                              0x08005175   Thumb Code   126  inv_mpu.o(i.mpu_set_lpf)
    mpu_set_sample_rate                      0x080051f9   Thumb Code   152  inv_mpu.o(i.mpu_set_sample_rate)
    mpu_set_sensors                          0x08005295   Thumb Code   202  inv_mpu.o(i.mpu_set_sensors)
    mpu_write_mem                            0x08005365   Thumb Code   122  inv_mpu.o(i.mpu_write_mem)
    run_self_test                            0x080053e5   Thumb Code   148  inv_mpu.o(i.run_self_test)
    sqrt                                     0x08005509   Thumb Code    76  sqrt.o(i.sqrt)
    uart_init                                0x08005555   Thumb Code   152  usart.o(i.uart_init)
    usart1_niming_report                     0x080055f5   Thumb Code   120  niming.o(i.usart1_niming_report)
    usart1_report_imu                        0x0800566d   Thumb Code   192  niming.o(i.usart1_report_imu)
    usart1_send_char                         0x0800572d   Thumb Code    22  niming.o(i.usart1_send_char)
    __aeabi_d2f                              0x08005749   Thumb Code     0  d2f.o(x$fpl$d2f)
    _d2f                                     0x08005749   Thumb Code    98  d2f.o(x$fpl$d2f)
    __aeabi_dadd                             0x080057ad   Thumb Code     0  daddsub_clz.o(x$fpl$dadd)
    _dadd                                    0x080057ad   Thumb Code   332  daddsub_clz.o(x$fpl$dadd)
    __fpl_dcheck_NaN1                        0x080058fd   Thumb Code    10  dcheck1.o(x$fpl$dcheck1)
    __aeabi_ddiv                             0x0800590d   Thumb Code     0  ddiv.o(x$fpl$ddiv)
    _ddiv                                    0x0800590d   Thumb Code   552  ddiv.o(x$fpl$ddiv)
    __aeabi_i2d                              0x08005bbd   Thumb Code     0  dflt_clz.o(x$fpl$dflt)
    _dflt                                    0x08005bbd   Thumb Code    46  dflt_clz.o(x$fpl$dflt)
    __aeabi_dmul                             0x08005bed   Thumb Code     0  dmul.o(x$fpl$dmul)
    _dmul                                    0x08005bed   Thumb Code   332  dmul.o(x$fpl$dmul)
    __fpl_dnaninf                            0x08005d41   Thumb Code   156  dnaninf.o(x$fpl$dnaninf)
    __fpl_dretinf                            0x08005ddd   Thumb Code    12  dretinf.o(x$fpl$dretinf)
    __aeabi_drsub                            0x08005de9   Thumb Code     0  daddsub_clz.o(x$fpl$drsb)
    _drsb                                    0x08005de9   Thumb Code    22  daddsub_clz.o(x$fpl$drsb)
    _dsqrt                                   0x08005e01   Thumb Code   456  dsqrt_noumaal.o(x$fpl$dsqrt)
    __aeabi_dsub                             0x08005fcd   Thumb Code     0  daddsub_clz.o(x$fpl$dsub)
    _dsub                                    0x08005fcd   Thumb Code   464  daddsub_clz.o(x$fpl$dsub)
    __aeabi_f2d                              0x080061a1   Thumb Code     0  f2d.o(x$fpl$f2d)
    _f2d                                     0x080061a1   Thumb Code    86  f2d.o(x$fpl$f2d)
    __aeabi_fadd                             0x080061f9   Thumb Code     0  faddsub_clz.o(x$fpl$fadd)
    _fadd                                    0x080061f9   Thumb Code   196  faddsub_clz.o(x$fpl$fadd)
    __fpl_fcmp_Inf                           0x080062bd   Thumb Code    24  fcmpi.o(x$fpl$fcmpinf)
    __aeabi_fdiv                             0x080062d5   Thumb Code     0  fdiv.o(x$fpl$fdiv)
    _fdiv                                    0x080062d5   Thumb Code   384  fdiv.o(x$fpl$fdiv)
    __aeabi_cfcmpeq                          0x08006459   Thumb Code     0  feqf.o(x$fpl$feqf)
    _fcmpeq                                  0x08006459   Thumb Code   104  feqf.o(x$fpl$feqf)
    __aeabi_f2iz                             0x080064c1   Thumb Code     0  ffix.o(x$fpl$ffix)
    _ffix                                    0x080064c1   Thumb Code    54  ffix.o(x$fpl$ffix)
    __aeabi_f2uiz                            0x080064f9   Thumb Code     0  ffixu.o(x$fpl$ffixu)
    _ffixu                                   0x080064f9   Thumb Code    62  ffixu.o(x$fpl$ffixu)
    __aeabi_i2f                              0x08006539   Thumb Code     0  fflt_clz.o(x$fpl$fflt)
    _fflt                                    0x08006539   Thumb Code    48  fflt_clz.o(x$fpl$fflt)
    __aeabi_ui2f                             0x08006569   Thumb Code     0  fflt_clz.o(x$fpl$ffltu)
    _ffltu                                   0x08006569   Thumb Code    38  fflt_clz.o(x$fpl$ffltu)
    __aeabi_cfcmple                          0x08006591   Thumb Code     0  fleqf.o(x$fpl$fleqf)
    _fcmple                                  0x08006591   Thumb Code   104  fleqf.o(x$fpl$fleqf)
    __fpl_fcmple_InfNaN                      0x080065e3   Thumb Code     0  fleqf.o(x$fpl$fleqf)
    __aeabi_fmul                             0x080065f9   Thumb Code     0  fmul.o(x$fpl$fmul)
    _fmul                                    0x080065f9   Thumb Code   258  fmul.o(x$fpl$fmul)
    __fpl_fnaninf                            0x080066fb   Thumb Code   140  fnaninf.o(x$fpl$fnaninf)
    __fpl_fretinf                            0x08006787   Thumb Code    10  fretinf.o(x$fpl$fretinf)
    __aeabi_cfrcmple                         0x08006791   Thumb Code     0  frleqf.o(x$fpl$frleqf)
    _frcmple                                 0x08006791   Thumb Code    98  frleqf.o(x$fpl$frleqf)
    __aeabi_fsub                             0x080067f5   Thumb Code     0  faddsub_clz.o(x$fpl$fsub)
    _fsub                                    0x080067f5   Thumb Code   234  faddsub_clz.o(x$fpl$fsub)
    __fpl_return_NaN                         0x080068df   Thumb Code   100  retnan.o(x$fpl$retnan)
    __ARM_scalbn                             0x08006943   Thumb Code    92  scalbn.o(x$fpl$scalbn)
    __fpl_cmpreturn                          0x0800699f   Thumb Code    48  trapv.o(x$fpl$trapveneer)
    __I$use$fp                               0x080069ce   Number         0  usenofp.o(x$fpl$usenofp)
    asc16                                    0x080069ce   Data        1521  lcd_guidriver.o(.constdata)
    sz32                                     0x08006fbf   Data           1  lcd_guidriver.o(.constdata)
    hz16                                     0x08006fc0   Data        1700  lcd_guidriver.o(.constdata)
    hz24                                     0x08007664   Data          74  lcd_guidriver.o(.constdata)
    reg                                      0x080076b0   Data          27  inv_mpu.o(.constdata)
    hw                                       0x080076cc   Data          12  inv_mpu.o(.constdata)
    test                                     0x080076d8   Data          40  inv_mpu.o(.constdata)
    __mathlib_zero                           0x080083f0   Data           8  qnan.o(.constdata)
    Region$$Table$$Base                      0x08008490   Number         0  anon$$obj.o(Region$$Table)
    Region$$Table$$Limit                     0x080084b0   Number         0  anon$$obj.o(Region$$Table)
    pitch                                    0x20000000   Data           4  main.o(.data)
    roll                                     0x20000004   Data           4  main.o(.data)
    yaw                                      0x20000008   Data           4  main.o(.data)
    gyrox                                    0x2000000c   Data           2  main.o(.data)
    gyroy                                    0x2000000e   Data           2  main.o(.data)
    gyroz                                    0x20000010   Data           2  main.o(.data)
    aacx                                     0x20000012   Data           2  main.o(.data)
    aacy                                     0x20000014   Data           2  main.o(.data)
    aacz                                     0x20000016   Data           2  main.o(.data)
    temp                                     0x20000018   Data           2  main.o(.data)
    key                                      0x2000001a   Data           1  main.o(.data)
    mpu6050                                  0x2000001b   Data           3  main.o(.data)
    SystemCoreClock                          0x20000020   Data           4  system_stm32f10x.o(.data)
    AHBPrescTable                            0x20000024   Data          16  system_stm32f10x.o(.data)
    __stdout                                 0x20000074   Data           4  usart.o(.data)
    USART_RX_STA                             0x20000078   Data           2  usart.o(.data)
    tmp_buf                                  0x20000090   Data          33  main.o(.bss)
    USART_RX_BUF                             0x200000c4   Data         200  usart.o(.bss)
    __libspace_start                         0x2000018c   Data          96  libspace.o(.bss)
    __temporary_stack_top$libspace           0x200001ec   Data           0  libspace.o(.bss)



==============================================================================

Memory Map of the image

  Image Entry point : 0x080001d5

  Load Region LR_1 (Base: 0x08000000, Size: 0x00008540, Max: 0xffffffff, ABSOLUTE)

    Execution Region ER_RO (Exec base: 0x08000000, Load base: 0x08000000, Size: 0x000084b0, Max: 0xffffffff, ABSOLUTE)

    Exec Addr    Load Addr    Size         Type   Attr      Idx    E Section Name        Object

    0x08000000   0x08000000   0x00000130   Data   RO         1277    RESET               startup_stm32f10x_hd.o
    0x08000130   0x08000130   0x00000008   Code   RO         1906  * !!!main             c_w.l(__main.o)
    0x08000138   0x08000138   0x00000034   Code   RO         2233    !!!scatter          c_w.l(__scatter.o)
    0x0800016c   0x0800016c   0x0000001a   Code   RO         2235    !!handler_copy      c_w.l(__scatter_copy.o)
    0x08000186   0x08000186   0x00000002   PAD
    0x08000188   0x08000188   0x0000001c   Code   RO         2237    !!handler_zi        c_w.l(__scatter_zi.o)
    0x080001a4   0x080001a4   0x00000000   Code   RO         1899    .ARM.Collect$$_printf_percent$$00000000  c_w.l(_printf_percent.o)
    0x080001a4   0x080001a4   0x00000006   Code   RO         1898    .ARM.Collect$$_printf_percent$$00000009  c_w.l(_printf_d.o)
    0x080001aa   0x080001aa   0x00000004   Code   RO         1995    .ARM.Collect$$_printf_percent$$00000017  c_w.l(_printf_percent_end.o)
    0x080001ae   0x080001ae   0x00000002   Code   RO         2100    .ARM.Collect$$libinit$$00000000  c_w.l(libinit.o)
    0x080001b0   0x080001b0   0x00000000   Code   RO         2112    .ARM.Collect$$libinit$$00000002  c_w.l(libinit2.o)
    0x080001b0   0x080001b0   0x00000000   Code   RO         2114    .ARM.Collect$$libinit$$00000004  c_w.l(libinit2.o)
    0x080001b0   0x080001b0   0x00000000   Code   RO         2117    .ARM.Collect$$libinit$$0000000A  c_w.l(libinit2.o)
    0x080001b0   0x080001b0   0x00000000   Code   RO         2119    .ARM.Collect$$libinit$$0000000C  c_w.l(libinit2.o)
    0x080001b0   0x080001b0   0x00000000   Code   RO         2121    .ARM.Collect$$libinit$$0000000E  c_w.l(libinit2.o)
    0x080001b0   0x080001b0   0x00000000   Code   RO         2124    .ARM.Collect$$libinit$$00000011  c_w.l(libinit2.o)
    0x080001b0   0x080001b0   0x00000000   Code   RO         2126    .ARM.Collect$$libinit$$00000013  c_w.l(libinit2.o)
    0x080001b0   0x080001b0   0x00000000   Code   RO         2128    .ARM.Collect$$libinit$$00000015  c_w.l(libinit2.o)
    0x080001b0   0x080001b0   0x00000000   Code   RO         2130    .ARM.Collect$$libinit$$00000017  c_w.l(libinit2.o)
    0x080001b0   0x080001b0   0x00000000   Code   RO         2132    .ARM.Collect$$libinit$$00000019  c_w.l(libinit2.o)
    0x080001b0   0x080001b0   0x00000000   Code   RO         2134    .ARM.Collect$$libinit$$0000001B  c_w.l(libinit2.o)
    0x080001b0   0x080001b0   0x00000000   Code   RO         2136    .ARM.Collect$$libinit$$0000001D  c_w.l(libinit2.o)
    0x080001b0   0x080001b0   0x00000000   Code   RO         2138    .ARM.Collect$$libinit$$0000001F  c_w.l(libinit2.o)
    0x080001b0   0x080001b0   0x00000000   Code   RO         2140    .ARM.Collect$$libinit$$00000021  c_w.l(libinit2.o)
    0x080001b0   0x080001b0   0x00000000   Code   RO         2142    .ARM.Collect$$libinit$$00000023  c_w.l(libinit2.o)
    0x080001b0   0x080001b0   0x00000000   Code   RO         2144    .ARM.Collect$$libinit$$00000025  c_w.l(libinit2.o)
    0x080001b0   0x080001b0   0x00000000   Code   RO         2148    .ARM.Collect$$libinit$$0000002C  c_w.l(libinit2.o)
    0x080001b0   0x080001b0   0x00000000   Code   RO         2150    .ARM.Collect$$libinit$$0000002E  c_w.l(libinit2.o)
    0x080001b0   0x080001b0   0x00000000   Code   RO         2152    .ARM.Collect$$libinit$$00000030  c_w.l(libinit2.o)
    0x080001b0   0x080001b0   0x00000000   Code   RO         2154    .ARM.Collect$$libinit$$00000032  c_w.l(libinit2.o)
    0x080001b0   0x080001b0   0x00000002   Code   RO         2155    .ARM.Collect$$libinit$$00000033  c_w.l(libinit2.o)
    0x080001b2   0x080001b2   0x00000002   Code   RO         2185    .ARM.Collect$$libshutdown$$00000000  c_w.l(libshutdown.o)
    0x080001b4   0x080001b4   0x00000000   Code   RO         2199    .ARM.Collect$$libshutdown$$00000002  c_w.l(libshutdown2.o)
    0x080001b4   0x080001b4   0x00000000   Code   RO         2201    .ARM.Collect$$libshutdown$$00000004  c_w.l(libshutdown2.o)
    0x080001b4   0x080001b4   0x00000000   Code   RO         2204    .ARM.Collect$$libshutdown$$00000007  c_w.l(libshutdown2.o)
    0x080001b4   0x080001b4   0x00000000   Code   RO         2207    .ARM.Collect$$libshutdown$$0000000A  c_w.l(libshutdown2.o)
    0x080001b4   0x080001b4   0x00000000   Code   RO         2209    .ARM.Collect$$libshutdown$$0000000C  c_w.l(libshutdown2.o)
    0x080001b4   0x080001b4   0x00000000   Code   RO         2212    .ARM.Collect$$libshutdown$$0000000F  c_w.l(libshutdown2.o)
    0x080001b4   0x080001b4   0x00000002   Code   RO         2213    .ARM.Collect$$libshutdown$$00000010  c_w.l(libshutdown2.o)
    0x080001b6   0x080001b6   0x00000000   Code   RO         1982    .ARM.Collect$$rtentry$$00000000  c_w.l(__rtentry.o)
    0x080001b6   0x080001b6   0x00000000   Code   RO         2049    .ARM.Collect$$rtentry$$00000002  c_w.l(__rtentry2.o)
    0x080001b6   0x080001b6   0x00000006   Code   RO         2061    .ARM.Collect$$rtentry$$00000004  c_w.l(__rtentry4.o)
    0x080001bc   0x080001bc   0x00000000   Code   RO         2051    .ARM.Collect$$rtentry$$00000009  c_w.l(__rtentry2.o)
    0x080001bc   0x080001bc   0x00000004   Code   RO         2052    .ARM.Collect$$rtentry$$0000000A  c_w.l(__rtentry2.o)
    0x080001c0   0x080001c0   0x00000000   Code   RO         2054    .ARM.Collect$$rtentry$$0000000C  c_w.l(__rtentry2.o)
    0x080001c0   0x080001c0   0x00000008   Code   RO         2055    .ARM.Collect$$rtentry$$0000000D  c_w.l(__rtentry2.o)
    0x080001c8   0x080001c8   0x00000002   Code   RO         2105    .ARM.Collect$$rtexit$$00000000  c_w.l(rtexit.o)
    0x080001ca   0x080001ca   0x00000000   Code   RO         2159    .ARM.Collect$$rtexit$$00000002  c_w.l(rtexit2.o)
    0x080001ca   0x080001ca   0x00000004   Code   RO         2160    .ARM.Collect$$rtexit$$00000003  c_w.l(rtexit2.o)
    0x080001ce   0x080001ce   0x00000006   Code   RO         2161    .ARM.Collect$$rtexit$$00000004  c_w.l(rtexit2.o)
    0x080001d4   0x080001d4   0x00000040   Code   RO         1278  * .text               startup_stm32f10x_hd.o
    0x08000214   0x08000214   0x00000002   Code   RO         1838    .text               c_w.l(use_no_semi_2.o)
    0x08000216   0x08000216   0x00000048   Code   RO         1840    .text               c_w.l(llsdiv.o)
    0x0800025e   0x0800025e   0x00000002   PAD
    0x08000260   0x08000260   0x00000018   Code   RO         1846    .text               c_w.l(noretval__2printf.o)
    0x08000278   0x08000278   0x00000028   Code   RO         1848    .text               c_w.l(noretval__2sprintf.o)
    0x080002a0   0x080002a0   0x0000004e   Code   RO         1852    .text               c_w.l(_printf_pad.o)
    0x080002ee   0x080002ee   0x00000002   PAD
    0x080002f0   0x080002f0   0x00000078   Code   RO         1854    .text               c_w.l(_printf_dec.o)
    0x08000368   0x08000368   0x00000138   Code   RO         1889    .text               c_w.l(__printf_flags_wp.o)
    0x080004a0   0x080004a0   0x00000058   Code   RO         1900    .text               c_w.l(memcmp.o)
    0x080004f8   0x080004f8   0x00000010   Code   RO         1902    .text               c_w.l(aeabi_memset.o)
    0x08000508   0x08000508   0x00000006   Code   RO         1904    .text               c_w.l(heapauxi.o)
    0x0800050e   0x0800050e   0x00000002   Code   RO         1980    .text               c_w.l(use_no_semi.o)
    0x08000510   0x08000510   0x000000ee   Code   RO         1983    .text               c_w.l(lludivv7m.o)
    0x080005fe   0x080005fe   0x00000016   Code   RO         1985    .text               c_w.l(_rserrno.o)
    0x08000614   0x08000614   0x000000b2   Code   RO         1987    .text               c_w.l(_printf_intcommon.o)
    0x080006c6   0x080006c6   0x00000002   PAD
    0x080006c8   0x080006c8   0x00000030   Code   RO         1989    .text               c_w.l(_printf_char_common.o)
    0x080006f8   0x080006f8   0x0000000a   Code   RO         1991    .text               c_w.l(_sputc.o)
    0x08000702   0x08000702   0x00000002   PAD
    0x08000704   0x08000704   0x00000024   Code   RO         1993    .text               c_w.l(_printf_char_file.o)
    0x08000728   0x08000728   0x00000044   Code   RO         1996    .text               c_w.l(rt_memclr.o)
    0x0800076c   0x0800076c   0x00000008   Code   RO         2070    .text               c_w.l(rt_errno_addr_intlibspace.o)
    0x08000774   0x08000774   0x00000008   Code   RO         2074    .text               c_w.l(ferror.o)
    0x0800077c   0x0800077c   0x0000004e   Code   RO         2078    .text               c_w.l(rt_memclr_w.o)
    0x080007ca   0x080007ca   0x00000002   PAD
    0x080007cc   0x080007cc   0x00000008   Code   RO         2086    .text               c_w.l(libspace.o)
    0x080007d4   0x080007d4   0x0000004a   Code   RO         2089    .text               c_w.l(sys_stackheap_outer.o)
    0x0800081e   0x0800081e   0x00000012   Code   RO         2093    .text               c_w.l(exit.o)
    0x08000830   0x08000830   0x00000004   Code   RO          177    i.BusFault_Handler  stm32f10x_it.o
    0x08000834   0x08000834   0x00000508   Code   RO            1    i.DATA_Report       main.o
    0x08000d3c   0x08000d3c   0x00000002   Code   RO          178    i.DebugMon_Handler  stm32f10x_it.o
    0x08000d3e   0x08000d3e   0x00000116   Code   RO         1324    i.GPIO_Init         stm32f10x_gpio.o
    0x08000e54   0x08000e54   0x00000090   Code   RO         1326    i.GPIO_PinRemapConfig  stm32f10x_gpio.o
    0x08000ee4   0x08000ee4   0x00000012   Code   RO         1328    i.GPIO_ReadInputDataBit  stm32f10x_gpio.o
    0x08000ef6   0x08000ef6   0x00000004   Code   RO         1332    i.GPIO_SetBits      stm32f10x_gpio.o
    0x08000efa   0x08000efa   0x00000002   PAD
    0x08000efc   0x08000efc   0x00000194   Code   RO          421    i.Gui_DrawFont_GBK16  lcd_guidriver.o
    0x08001090   0x08001090   0x00000020   Code   RO          334    i.Gui_DrawPoint     lcd_basedriver.o
    0x080010b0   0x080010b0   0x00000004   Code   RO          179    i.HardFault_Handler  stm32f10x_it.o
    0x080010b4   0x080010b4   0x00000060   Code   RO          312    i.KEY_Init          key.o
    0x08001114   0x08001114   0x000000a8   Code   RO          313    i.KEY_Scan          key.o
    0x080011bc   0x080011bc   0x00000068   Code   RO          335    i.LCD_GPIO_Init     lcd_basedriver.o
    0x08001224   0x08001224   0x00000030   Code   RO          336    i.LCD_WriteData_16Bit  lcd_basedriver.o
    0x08001254   0x08001254   0x00000050   Code   RO          300    i.LED_Init          led.o
    0x080012a4   0x080012a4   0x00000032   Code   RO          337    i.Lcd_Clear         lcd_basedriver.o
    0x080012d6   0x080012d6   0x00000222   Code   RO          338    i.Lcd_Init          lcd_basedriver.o
    0x080014f8   0x080014f8   0x00000024   Code   RO          340    i.Lcd_Reset         lcd_basedriver.o
    0x0800151c   0x0800151c   0x00000056   Code   RO          341    i.Lcd_SetRegion     lcd_basedriver.o
    0x08001572   0x08001572   0x00000002   PAD
    0x08001574   0x08001574   0x00000028   Code   RO          343    i.Lcd_WriteData     lcd_basedriver.o
    0x0800159c   0x0800159c   0x00000028   Code   RO          344    i.Lcd_WriteIndex    lcd_basedriver.o
    0x080015c4   0x080015c4   0x00000050   Code   RO          490    i.MPU_Get_Accelerometer  mpu6050.o
    0x08001614   0x08001614   0x00000050   Code   RO          491    i.MPU_Get_Gyroscope  mpu6050.o
    0x08001664   0x08001664   0x00000068   Code   RO          492    i.MPU_Get_Temperature  mpu6050.o
    0x080016cc   0x080016cc   0x0000004c   Code   RO          568    i.MPU_IIC_Ack       mpuiic.o
    0x08001718   0x08001718   0x0000000a   Code   RO          569    i.MPU_IIC_Delay     mpuiic.o
    0x08001722   0x08001722   0x00000002   PAD
    0x08001724   0x08001724   0x00000038   Code   RO          570    i.MPU_IIC_Init      mpuiic.o
    0x0800175c   0x0800175c   0x0000004c   Code   RO          571    i.MPU_IIC_NAck      mpuiic.o
    0x080017a8   0x080017a8   0x0000006c   Code   RO          572    i.MPU_IIC_Read_Byte  mpuiic.o
    0x08001814   0x08001814   0x0000005c   Code   RO          573    i.MPU_IIC_Send_Byte  mpuiic.o
    0x08001870   0x08001870   0x00000048   Code   RO          574    i.MPU_IIC_Start     mpuiic.o
    0x080018b8   0x080018b8   0x00000048   Code   RO          575    i.MPU_IIC_Stop      mpuiic.o
    0x08001900   0x08001900   0x00000064   Code   RO          576    i.MPU_IIC_Wait_Ack  mpuiic.o
    0x08001964   0x08001964   0x0000007a   Code   RO          493    i.MPU_Init          mpu6050.o
    0x080019de   0x080019de   0x00000002   PAD
    0x080019e0   0x080019e0   0x000001f0   Code   RO            2    i.MPU_Mode          main.o
    0x08001bd0   0x08001bd0   0x00000078   Code   RO            3    i.MPU_Read          main.o
    0x08001c48   0x08001c48   0x0000003a   Code   RO          494    i.MPU_Read_Byte     mpu6050.o
    0x08001c82   0x08001c82   0x00000074   Code   RO          495    i.MPU_Read_Len      mpu6050.o
    0x08001cf6   0x08001cf6   0x00000010   Code   RO          496    i.MPU_Set_Accel_Fsr  mpu6050.o
    0x08001d06   0x08001d06   0x00000010   Code   RO          497    i.MPU_Set_Gyro_Fsr  mpu6050.o
    0x08001d16   0x08001d16   0x0000003a   Code   RO          498    i.MPU_Set_LPF       mpu6050.o
    0x08001d50   0x08001d50   0x0000003a   Code   RO          499    i.MPU_Set_Rate      mpu6050.o
    0x08001d8a   0x08001d8a   0x00000044   Code   RO          500    i.MPU_Write_Byte    mpu6050.o
    0x08001dce   0x08001dce   0x00000060   Code   RO          501    i.MPU_Write_Len     mpu6050.o
    0x08001e2e   0x08001e2e   0x00000004   Code   RO          180    i.MemManage_Handler  stm32f10x_it.o
    0x08001e32   0x08001e32   0x00000002   Code   RO          181    i.NMI_Handler       stm32f10x_it.o
    0x08001e34   0x08001e34   0x00000070   Code   RO         1282    i.NVIC_Init         misc.o
    0x08001ea4   0x08001ea4   0x00000014   Code   RO         1283    i.NVIC_PriorityGroupConfig  misc.o
    0x08001eb8   0x08001eb8   0x00000002   Code   RO          182    i.PendSV_Handler    stm32f10x_it.o
    0x08001eba   0x08001eba   0x00000002   PAD
    0x08001ebc   0x08001ebc   0x00000020   Code   RO         1460    i.RCC_APB2PeriphClockCmd  stm32f10x_rcc.o
    0x08001edc   0x08001edc   0x000000d4   Code   RO         1468    i.RCC_GetClocksFreq  stm32f10x_rcc.o
    0x08001fb0   0x08001fb0   0x0000003c   Code   RO          346    i.SPI_WriteData     lcd_basedriver.o
    0x08001fec   0x08001fec   0x00000002   Code   RO          183    i.SVC_Handler       stm32f10x_it.o
    0x08001fee   0x08001fee   0x00000002   PAD
    0x08001ff0   0x08001ff0   0x000001fc   Code   RO            4    i.SYS_Init          main.o
    0x080021ec   0x080021ec   0x00000008   Code   RO          266    i.SetSysClock       system_stm32f10x.o
    0x080021f4   0x080021f4   0x000000e0   Code   RO          267    i.SetSysClockTo72   system_stm32f10x.o
    0x080022d4   0x080022d4   0x00000028   Code   RO         1286    i.SysTick_CLKSourceConfig  misc.o
    0x080022fc   0x080022fc   0x00000002   Code   RO          184    i.SysTick_Handler   stm32f10x_it.o
    0x080022fe   0x080022fe   0x00000002   PAD
    0x08002300   0x08002300   0x00000060   Code   RO          269    i.SystemInit        system_stm32f10x.o
    0x08002360   0x08002360   0x00000088   Code   RO         1224    i.USART1_IRQHandler  usart.o
    0x080023e8   0x080023e8   0x00000018   Code   RO         1660    i.USART_Cmd         stm32f10x_usart.o
    0x08002400   0x08002400   0x00000054   Code   RO         1664    i.USART_GetITStatus  stm32f10x_usart.o
    0x08002454   0x08002454   0x0000004a   Code   RO         1666    i.USART_ITConfig    stm32f10x_usart.o
    0x0800249e   0x0800249e   0x00000002   PAD
    0x080024a0   0x080024a0   0x000000d8   Code   RO         1667    i.USART_Init        stm32f10x_usart.o
    0x08002578   0x08002578   0x0000000a   Code   RO         1674    i.USART_ReceiveData  stm32f10x_usart.o
    0x08002582   0x08002582   0x00000004   Code   RO          185    i.UsageFault_Handler  stm32f10x_it.o
    0x08002586   0x08002586   0x00000028   Code   RO         2035    i.__ARM_fpclassify  m_ws.l(fpclassify.o)
    0x080025ae   0x080025ae   0x000000aa   Code   RO         2037    i.__kernel_poly     m_ws.l(poly.o)
    0x08002658   0x08002658   0x00000006   Code   RO         2022    i.__mathlib_dbl_infnan  m_ws.l(dunder.o)
    0x0800265e   0x0800265e   0x00000004   Code   RO         2023    i.__mathlib_dbl_infnan2  m_ws.l(dunder.o)
    0x08002662   0x08002662   0x0000000c   Code   RO         2024    i.__mathlib_dbl_invalid  m_ws.l(dunder.o)
    0x0800266e   0x0800266e   0x00000002   PAD
    0x08002670   0x08002670   0x00000010   Code   RO         2027    i.__mathlib_dbl_underflow  m_ws.l(dunder.o)
    0x08002680   0x08002680   0x0000000e   Code   RO         1887    i._is_digit         c_w.l(__printf_wp.o)
    0x0800268e   0x0800268e   0x00000004   Code   RO         1225    i._sys_exit         usart.o
    0x08002692   0x08002692   0x00000002   PAD
    0x08002694   0x08002694   0x000000a8   Code   RO          658    i.accel_self_test   inv_mpu.o
    0x0800273c   0x0800273c   0x00000270   Code   RO         1963    i.asin              m_ws.l(asin.o)
    0x080029ac   0x080029ac   0x00000220   Code   RO         2012    i.atan              m_ws.l(atan.o)
    0x08002bcc   0x08002bcc   0x00000180   Code   RO         1973    i.atan2             m_ws.l(atan2.o)
    0x08002d4c   0x08002d4c   0x00000064   Code   RO          983    i.decode_gesture    inv_mpu_dmp_motion_driver.o
    0x08002db0   0x08002db0   0x00000044   Code   RO         1169    i.delay_init        delay.o
    0x08002df4   0x08002df4   0x0000004c   Code   RO         1170    i.delay_ms          delay.o
    0x08002e40   0x08002e40   0x0000004c   Code   RO         1171    i.delay_us          delay.o
    0x08002e8c   0x08002e8c   0x0000003c   Code   RO          984    i.dmp_enable_6x_lp_quat  inv_mpu_dmp_motion_driver.o
    0x08002ec8   0x08002ec8   0x0000021c   Code   RO          985    i.dmp_enable_feature  inv_mpu_dmp_motion_driver.o
    0x080030e4   0x080030e4   0x00000058   Code   RO          986    i.dmp_enable_gyro_cal  inv_mpu_dmp_motion_driver.o
    0x0800313c   0x0800313c   0x0000003c   Code   RO          987    i.dmp_enable_lp_quat  inv_mpu_dmp_motion_driver.o
    0x08003178   0x08003178   0x00000018   Code   RO          992    i.dmp_load_motion_driver_firmware  inv_mpu_dmp_motion_driver.o
    0x08003190   0x08003190   0x000001cc   Code   RO          993    i.dmp_read_fifo     inv_mpu_dmp_motion_driver.o
    0x0800335c   0x0800335c   0x00000130   Code   RO          996    i.dmp_set_accel_bias  inv_mpu_dmp_motion_driver.o
    0x0800348c   0x0800348c   0x00000070   Code   RO          997    i.dmp_set_fifo_rate  inv_mpu_dmp_motion_driver.o
    0x080034fc   0x080034fc   0x00000130   Code   RO          998    i.dmp_set_gyro_bias  inv_mpu_dmp_motion_driver.o
    0x0800362c   0x0800362c   0x00000138   Code   RO         1000    i.dmp_set_orientation  inv_mpu_dmp_motion_driver.o
    0x08003764   0x08003764   0x00000038   Code   RO         1003    i.dmp_set_shake_reject_thresh  inv_mpu_dmp_motion_driver.o
    0x0800379c   0x0800379c   0x00000026   Code   RO         1004    i.dmp_set_shake_reject_time  inv_mpu_dmp_motion_driver.o
    0x080037c2   0x080037c2   0x00000026   Code   RO         1005    i.dmp_set_shake_reject_timeout  inv_mpu_dmp_motion_driver.o
    0x080037e8   0x080037e8   0x00000046   Code   RO         1006    i.dmp_set_tap_axes  inv_mpu_dmp_motion_driver.o
    0x0800382e   0x0800382e   0x00000026   Code   RO         1007    i.dmp_set_tap_count  inv_mpu_dmp_motion_driver.o
    0x08003854   0x08003854   0x000001a0   Code   RO         1008    i.dmp_set_tap_thresh  inv_mpu_dmp_motion_driver.o
    0x080039f4   0x080039f4   0x00000026   Code   RO         1009    i.dmp_set_tap_time  inv_mpu_dmp_motion_driver.o
    0x08003a1a   0x08003a1a   0x00000026   Code   RO         1010    i.dmp_set_tap_time_multi  inv_mpu_dmp_motion_driver.o
    0x08003a40   0x08003a40   0x0000001c   Code   RO         1226    i.fputc             usart.o
    0x08003a5c   0x08003a5c   0x000000b4   Code   RO          659    i.get_accel_prod_shift  inv_mpu.o
    0x08003b10   0x08003b10   0x00000470   Code   RO          660    i.get_st_biases     inv_mpu.o
    0x08003f80   0x08003f80   0x00000110   Code   RO          661    i.gyro_self_test    inv_mpu.o
    0x08004090   0x08004090   0x00000028   Code   RO          662    i.inv_orientation_matrix_to_scalar  inv_mpu.o
    0x080040b8   0x080040b8   0x0000004e   Code   RO          663    i.inv_row_2_scale   inv_mpu.o
    0x08004106   0x08004106   0x00000014   Code   RO            5    i.main              main.o
    0x0800411a   0x0800411a   0x00000002   Code   RO          664    i.mget_ms           inv_mpu.o
    0x0800411c   0x0800411c   0x0000006e   Code   RO          628    i.mpu6050_send_data  niming.o
    0x0800418a   0x0800418a   0x00000002   PAD
    0x0800418c   0x0800418c   0x00000070   Code   RO          665    i.mpu_configure_fifo  inv_mpu.o
    0x080041fc   0x080041fc   0x00000224   Code   RO          666    i.mpu_dmp_get_data  inv_mpu.o
    0x08004420   0x08004420   0x000000a0   Code   RO          667    i.mpu_dmp_init      inv_mpu.o
    0x080044c0   0x080044c0   0x0000004c   Code   RO          668    i.mpu_get_accel_fsr  inv_mpu.o
    0x0800450c   0x0800450c   0x00000054   Code   RO          670    i.mpu_get_accel_sens  inv_mpu.o
    0x08004560   0x08004560   0x00000010   Code   RO          675    i.mpu_get_fifo_config  inv_mpu.o
    0x08004570   0x08004570   0x00000044   Code   RO          676    i.mpu_get_gyro_fsr  inv_mpu.o
    0x080045b4   0x080045b4   0x00000050   Code   RO          678    i.mpu_get_gyro_sens  inv_mpu.o
    0x08004604   0x08004604   0x00000050   Code   RO          680    i.mpu_get_lpf       inv_mpu.o
    0x08004654   0x08004654   0x00000020   Code   RO          682    i.mpu_get_sample_rate  inv_mpu.o
    0x08004674   0x08004674   0x000001f0   Code   RO          684    i.mpu_init          inv_mpu.o
    0x08004864   0x08004864   0x000000b8   Code   RO          685    i.mpu_load_firmware  inv_mpu.o
    0x0800491c   0x0800491c   0x000000e0   Code   RO          686    i.mpu_lp_accel_mode  inv_mpu.o
    0x080049fc   0x080049fc   0x000000c0   Code   RO          689    i.mpu_read_fifo_stream  inv_mpu.o
    0x08004abc   0x08004abc   0x00000080   Code   RO          690    i.mpu_read_mem      inv_mpu.o
    0x08004b3c   0x08004b3c   0x000001c8   Code   RO          693    i.mpu_reset_fifo    inv_mpu.o
    0x08004d04   0x08004d04   0x0000011c   Code   RO          694    i.mpu_run_self_test  inv_mpu.o
    0x08004e20   0x08004e20   0x00000084   Code   RO          696    i.mpu_set_accel_fsr  inv_mpu.o
    0x08004ea4   0x08004ea4   0x0000014c   Code   RO          697    i.mpu_set_bypass    inv_mpu.o
    0x08004ff0   0x08004ff0   0x00000090   Code   RO          699    i.mpu_set_dmp_state  inv_mpu.o
    0x08005080   0x08005080   0x00000088   Code   RO          700    i.mpu_set_gyro_fsr  inv_mpu.o
    0x08005108   0x08005108   0x0000006c   Code   RO          701    i.mpu_set_int_latched  inv_mpu.o
    0x08005174   0x08005174   0x00000084   Code   RO          703    i.mpu_set_lpf       inv_mpu.o
    0x080051f8   0x080051f8   0x0000009c   Code   RO          704    i.mpu_set_sample_rate  inv_mpu.o
    0x08005294   0x08005294   0x000000d0   Code   RO          705    i.mpu_set_sensors   inv_mpu.o
    0x08005364   0x08005364   0x00000080   Code   RO          706    i.mpu_write_mem     inv_mpu.o
    0x080053e4   0x080053e4   0x00000094   Code   RO          707    i.run_self_test     inv_mpu.o
    0x08005478   0x08005478   0x00000090   Code   RO          708    i.set_int_enable    inv_mpu.o
    0x08005508   0x08005508   0x0000004c   Code   RO         2041    i.sqrt              m_ws.l(sqrt.o)
    0x08005554   0x08005554   0x000000a0   Code   RO         1227    i.uart_init         usart.o
    0x080055f4   0x080055f4   0x00000078   Code   RO          629    i.usart1_niming_report  niming.o
    0x0800566c   0x0800566c   0x000000c0   Code   RO          630    i.usart1_report_imu  niming.o
    0x0800572c   0x0800572c   0x0000001c   Code   RO          631    i.usart1_send_char  niming.o
    0x08005748   0x08005748   0x00000062   Code   RO         1908    x$fpl$d2f           fz_ws.l(d2f.o)
    0x080057aa   0x080057aa   0x00000002   PAD
    0x080057ac   0x080057ac   0x00000150   Code   RO         1910    x$fpl$dadd          fz_ws.l(daddsub_clz.o)
    0x080058fc   0x080058fc   0x00000010   Code   RO         2080    x$fpl$dcheck1       fz_ws.l(dcheck1.o)
    0x0800590c   0x0800590c   0x000002b0   Code   RO         1917    x$fpl$ddiv          fz_ws.l(ddiv.o)
    0x08005bbc   0x08005bbc   0x0000002e   Code   RO         1921    x$fpl$dflt          fz_ws.l(dflt_clz.o)
    0x08005bea   0x08005bea   0x00000002   PAD
    0x08005bec   0x08005bec   0x00000154   Code   RO         1926    x$fpl$dmul          fz_ws.l(dmul.o)
    0x08005d40   0x08005d40   0x0000009c   Code   RO         1998    x$fpl$dnaninf       fz_ws.l(dnaninf.o)
    0x08005ddc   0x08005ddc   0x0000000c   Code   RO         2000    x$fpl$dretinf       fz_ws.l(dretinf.o)
    0x08005de8   0x08005de8   0x00000016   Code   RO         1911    x$fpl$drsb          fz_ws.l(daddsub_clz.o)
    0x08005dfe   0x08005dfe   0x00000002   PAD
    0x08005e00   0x08005e00   0x000001cc   Code   RO         2084    x$fpl$dsqrt         fz_ws.l(dsqrt_noumaal.o)
    0x08005fcc   0x08005fcc   0x000001d4   Code   RO         1912    x$fpl$dsub          fz_ws.l(daddsub_clz.o)
    0x080061a0   0x080061a0   0x00000056   Code   RO         1928    x$fpl$f2d           fz_ws.l(f2d.o)
    0x080061f6   0x080061f6   0x00000002   PAD
    0x080061f8   0x080061f8   0x000000c4   Code   RO         1930    x$fpl$fadd          fz_ws.l(faddsub_clz.o)
    0x080062bc   0x080062bc   0x00000018   Code   RO         2002    x$fpl$fcmpinf       fz_ws.l(fcmpi.o)
    0x080062d4   0x080062d4   0x00000184   Code   RO         1937    x$fpl$fdiv          fz_ws.l(fdiv.o)
    0x08006458   0x08006458   0x00000068   Code   RO         1940    x$fpl$feqf          fz_ws.l(feqf.o)
    0x080064c0   0x080064c0   0x00000036   Code   RO         1942    x$fpl$ffix          fz_ws.l(ffix.o)
    0x080064f6   0x080064f6   0x00000002   PAD
    0x080064f8   0x080064f8   0x0000003e   Code   RO         1946    x$fpl$ffixu         fz_ws.l(ffixu.o)
    0x08006536   0x08006536   0x00000002   PAD
    0x08006538   0x08006538   0x00000030   Code   RO         1951    x$fpl$fflt          fz_ws.l(fflt_clz.o)
    0x08006568   0x08006568   0x00000026   Code   RO         1950    x$fpl$ffltu         fz_ws.l(fflt_clz.o)
    0x0800658e   0x0800658e   0x00000002   PAD
    0x08006590   0x08006590   0x00000068   Code   RO         1956    x$fpl$fleqf         fz_ws.l(fleqf.o)
    0x080065f8   0x080065f8   0x00000102   Code   RO         1958    x$fpl$fmul          fz_ws.l(fmul.o)
    0x080066fa   0x080066fa   0x0000008c   Code   RO         2004    x$fpl$fnaninf       fz_ws.l(fnaninf.o)
    0x08006786   0x08006786   0x0000000a   Code   RO         2006    x$fpl$fretinf       fz_ws.l(fretinf.o)
    0x08006790   0x08006790   0x00000062   Code   RO         1960    x$fpl$frleqf        fz_ws.l(frleqf.o)
    0x080067f2   0x080067f2   0x00000002   PAD
    0x080067f4   0x080067f4   0x000000ea   Code   RO         1932    x$fpl$fsub          fz_ws.l(faddsub_clz.o)
    0x080068de   0x080068de   0x00000064   Code   RO         2103    x$fpl$retnan        fz_ws.l(retnan.o)
    0x08006942   0x08006942   0x0000005c   Code   RO         2008    x$fpl$scalbn        fz_ws.l(scalbn.o)
    0x0800699e   0x0800699e   0x00000030   Code   RO         2156    x$fpl$trapveneer    fz_ws.l(trapv.o)
    0x080069ce   0x080069ce   0x00000000   Code   RO         2010    x$fpl$usenofp       fz_ws.l(usenofp.o)
    0x080069ce   0x080069ce   0x00000ce0   Data   RO          428    .constdata          lcd_guidriver.o
    0x080076ae   0x080076ae   0x00000002   PAD
    0x080076b0   0x080076b0   0x00000050   Data   RO          710    .constdata          inv_mpu.o
    0x08007700   0x08007700   0x00000bf6   Data   RO         1012    .constdata          inv_mpu_dmp_motion_driver.o
    0x080082f6   0x080082f6   0x00000011   Data   RO         1890    .constdata          c_w.l(__printf_flags_wp.o)
    0x08008307   0x08008307   0x00000001   PAD
    0x08008308   0x08008308   0x00000050   Data   RO         1964    .constdata          m_ws.l(asin.o)
    0x08008358   0x08008358   0x00000098   Data   RO         2013    .constdata          m_ws.l(atan.o)
    0x080083f0   0x080083f0   0x00000008   Data   RO         2039    .constdata          m_ws.l(qnan.o)
    0x080083f8   0x080083f8   0x00000045   Data   RO            7    .conststring        main.o
    0x0800843d   0x0800843d   0x00000003   PAD
    0x08008440   0x08008440   0x0000004d   Data   RO          711    .conststring        inv_mpu.o
    0x0800848d   0x0800848d   0x00000003   PAD
    0x08008490   0x08008490   0x00000020   Data   RO         2231    Region$$Table       anon$$obj.o


    Execution Region ER_RW (Exec base: 0x20000000, Load base: 0x080084b0, Size: 0x00000090, Max: 0xffffffff, ABSOLUTE)

    Exec Addr    Load Addr    Size         Type   Attr      Idx    E Section Name        Object

    0x20000000   0x080084b0   0x0000001e   Data   RW            8    .data               main.o
    0x2000001e   0x080084ce   0x00000002   PAD
    0x20000020   0x080084d0   0x00000014   Data   RW          270    .data               system_stm32f10x.o
    0x20000034   0x080084e4   0x00000001   Data   RW          314    .data               key.o
    0x20000035   0x080084e5   0x00000003   PAD
    0x20000038   0x080084e8   0x00000035   Data   RW          712    .data               inv_mpu.o
    0x2000006d   0x0800851d   0x00000001   PAD
    0x2000006e   0x0800851e   0x00000004   Data   RW         1172    .data               delay.o
    0x20000072   0x08008522   0x00000002   PAD
    0x20000074   0x08008524   0x00000006   Data   RW         1229    .data               usart.o
    0x2000007a   0x0800852a   0x00000014   Data   RW         1488    .data               stm32f10x_rcc.o


    Execution Region ER_ZI (Exec base: 0x20000090, Load base: 0x08008540, Size: 0x00000760, Max: 0xffffffff, ABSOLUTE)

    Exec Addr    Load Addr    Size         Type   Attr      Idx    E Section Name        Object

    0x20000090        -       0x00000021   Zero   RW            6    .bss                main.o
    0x200000b1   0x08008540   0x00000003   PAD
    0x200000b4        -       0x00000010   Zero   RW         1011    .bss                inv_mpu_dmp_motion_driver.o
    0x200000c4        -       0x000000c8   Zero   RW         1228    .bss                usart.o
    0x2000018c        -       0x00000060   Zero   RW         2087    .bss                c_w.l(libspace.o)
    0x200001ec   0x08008540   0x00000004   PAD
    0x200001f0        -       0x00000200   Zero   RW         1276    HEAP                startup_stm32f10x_hd.o
    0x200003f0        -       0x00000400   Zero   RW         1275    STACK               startup_stm32f10x_hd.o


==============================================================================

Image component sizes


      Code (inc. data)   RO Data    RW Data    ZI Data      Debug   Object Name

       220         26          0          4          0       1899   delay.o
      6864        290        157         53          0      32884   inv_mpu.o
      3096        122       3062          0         16      21726   inv_mpu_dmp_motion_driver.o
       264         28          0          1          0       1254   key.o
      1042         38          0          0          0       6482   lcd_basedriver.o
       404         10       3296          0          0       2548   lcd_guidriver.o
        80          8          0          0          0        543   led.o
      2432        540         69         30         33     236961   main.o
       172         22          0          0          0       2233   misc.o
       872         18          0          0          0       8809   mpu6050.o
       662        100          0          0          0       5238   mpuiic.o
       450          6          0          0          0       3662   niming.o
        64         26        304          0       1536        828   startup_stm32f10x_hd.o
       444          6          0          0          0       4181   stm32f10x_gpio.o
        26          0          0          0          0       4098   stm32f10x_it.o
       244         26          0         20          0       4037   stm32f10x_rcc.o
       408          6          0          0          0       5266   stm32f10x_usart.o
         0          0          0          0          0         32   sys.o
       328         28          0         20          0       2305   system_stm32f10x.o
       328         26          0          6        200       4372   usart.o

    ----------------------------------------------------------------------
     18420       1326       6928        144       1788     349358   Object Totals
         0          0         32          0          0          0   (incl. Generated)
        20          0          8         10          3          0   (incl. Padding)

    ----------------------------------------------------------------------

      Code (inc. data)   RO Data    RW Data    ZI Data      Debug   Library Member Name

         8          0          0          0          0         68   __main.o
       312          4         17          0          0         92   __printf_flags_wp.o
        14          0          0          0          0         68   __printf_wp.o
         0          0          0          0          0          0   __rtentry.o
        12          0          0          0          0          0   __rtentry2.o
         6          0          0          0          0          0   __rtentry4.o
        52          8          0          0          0          0   __scatter.o
        26          0          0          0          0          0   __scatter_copy.o
        28          0          0          0          0          0   __scatter_zi.o
        48          6          0          0          0         96   _printf_char_common.o
        36          4          0          0          0         80   _printf_char_file.o
         6          0          0          0          0          0   _printf_d.o
       120         16          0          0          0         92   _printf_dec.o
       178          0          0          0          0         88   _printf_intcommon.o
        78          0          0          0          0        108   _printf_pad.o
         0          0          0          0          0          0   _printf_percent.o
         4          0          0          0          0          0   _printf_percent_end.o
        22          0          0          0          0        100   _rserrno.o
        10          0          0          0          0         68   _sputc.o
        16          0          0          0          0         68   aeabi_memset.o
        18          0          0          0          0         80   exit.o
         8          0          0          0          0         68   ferror.o
         6          0          0          0          0        152   heapauxi.o
         2          0          0          0          0          0   libinit.o
         2          0          0          0          0          0   libinit2.o
         2          0          0          0          0          0   libshutdown.o
         2          0          0          0          0          0   libshutdown2.o
         8          4          0          0         96         68   libspace.o
        72          0          0          0          0         76   llsdiv.o
       238          0          0          0          0        100   lludivv7m.o
        88          0          0          0          0         76   memcmp.o
        24          4          0          0          0         84   noretval__2printf.o
        40          6          0          0          0         84   noretval__2sprintf.o
         8          4          0          0          0         68   rt_errno_addr_intlibspace.o
        68          0          0          0          0         68   rt_memclr.o
        78          0          0          0          0         80   rt_memclr_w.o
         2          0          0          0          0          0   rtexit.o
        10          0          0          0          0          0   rtexit2.o
        74          0          0          0          0         80   sys_stackheap_outer.o
         2          0          0          0          0         68   use_no_semi.o
         2          0          0          0          0         68   use_no_semi_2.o
        98          4          0          0          0         92   d2f.o
       826         16          0          0          0        348   daddsub_clz.o
        16          4          0          0          0         68   dcheck1.o
       688        140          0          0          0        208   ddiv.o
        46          0          0          0          0         68   dflt_clz.o
       340         12          0          0          0        104   dmul.o
       156          4          0          0          0         92   dnaninf.o
        12          0          0          0          0         68   dretinf.o
       460         56          0          0          0        120   dsqrt_noumaal.o
        86          4          0          0          0         84   f2d.o
       430          8          0          0          0        168   faddsub_clz.o
        24          0          0          0          0         68   fcmpi.o
       388         76          0          0          0         96   fdiv.o
       104          4          0          0          0         84   feqf.o
        54          4          0          0          0         84   ffix.o
        62          4          0          0          0         84   ffixu.o
        86          0          0          0          0        136   fflt_clz.o
       104          4          0          0          0         84   fleqf.o
       258          4          0          0          0         84   fmul.o
       140          4          0          0          0         84   fnaninf.o
        10          0          0          0          0         68   fretinf.o
        98          0          0          0          0         68   frleqf.o
       100          0          0          0          0         68   retnan.o
        92          0          0          0          0         68   scalbn.o
        48          0          0          0          0         68   trapv.o
         0          0          0          0          0          0   usenofp.o
       624         52         80          0          0        168   asin.o
       544         70        152          0          0        124   atan.o
       384         38          0          0          0        144   atan2.o
        38          6          0          0          0        272   dunder.o
        40          0          0          0          0         68   fpclassify.o
       170          0          0          0          0         96   poly.o
         0          0          8          0          0          0   qnan.o
        76          0          0          0          0         84   sqrt.o

    ----------------------------------------------------------------------
      8362        570        258          0        100       5668   Library Totals
        30          0          1          0          4          0   (incl. Padding)

    ----------------------------------------------------------------------

      Code (inc. data)   RO Data    RW Data    ZI Data      Debug   Library Name

      1730         56         17          0         96       2148   c_w.l
      4726        348          0          0          0       2564   fz_ws.l
      1876        166        240          0          0        956   m_ws.l

    ----------------------------------------------------------------------
      8362        570        258          0        100       5668   Library Totals

    ----------------------------------------------------------------------

==============================================================================


      Code (inc. data)   RO Data    RW Data    ZI Data      Debug   

     26782       1896       7186        144       1888     345298   Grand Totals
     26782       1896       7186        144       1888     345298   ELF Image Totals
     26782       1896       7186        144          0          0   ROM Totals

==============================================================================

    Total RO  Size (Code + RO Data)                33968 (  33.17kB)
    Total RW  Size (RW Data + ZI Data)              2032 (   1.98kB)
    Total ROM Size (Code + RO Data + RW Data)      34112 (  33.31kB)

==============================================================================

