:020000040800F2
:10000000482900207D600008FD8A0008FF8A00085A
:10001000038B0008078B00080B8B00080000000012
:100020000000000000000000000000000F8B00082E
:10003000118B000800000000138B0008158B0008CE
:1000400097600008976000089760000897600008B4
:1000500097600008976000089760000897600008A4
:100060009760000897600008976000089760000894
:100070009760000897600008976000089760000884
:100080009760000897600008976000089760000874
:100090009760000897600008976000089760000864
:1000A0009760000897600008976000089760000854
:1000B0009760000897600008976000089760000844
:1000C0009760000897600008976000089760000834
:1000D0009760000883080008170C0008AB0D0008A3
:1000E0009760000897600008976000089760000814
:1000F0009760000897600008976000089760000804
:1001000097600008976000089760000897600008F3
:100110009760000897600008C91C000897600008F5
:1001200097600008976000089760000897600008D3
:1001300097600008976000089760000897600008C3
:1001400097600008976000089760000897600008B3
:1001500097600008976000089760000897600008A3
:100160009760000897600008976000089760000893
:100170009760000897600008976000089760000883
:10018000976000089760000800F002F800F070F82F
:100190000AA090E8000C82448344AAF10107DA45E2
:1001A00001D100F065F8AFF2090EBAE80F0013F0C4
:1001B000010F18BFFB1A43F00103184788AB010079
:1001C000A8AB010010F8013B0A4413F0030408BF78
:1001D00010F8014B1D1108BF10F8015B641E05D01B
:1001E00010F8016B641E01F8016BF9D1002D15D0D8
:1001F00010F8014B03F00C030C2BA1EB04040ABF15
:1002000010F8013BA4EB8314A4EB032405F10103D4
:1002100014F8016B5B1E01F8016BF9D5914238BFF0
:1002200010F8013BD1D3704700230024002500269D
:10023000103A28BF78C1FBD8520728BF30C148BF49
:100240000B60704766290BF0B681642908F0AE8513
:10025000002070471FB50BF0A4F909F06DF80400F9
:10026000002000210AF05CFBE0601FBD10B510BD4E
:1002700009F082F91146FFF7EDFF00F009F809F0E7
:10028000A0F903B4FFF7F2FF03BC00F09BFA0000F3
:1002900010B505F063FE1BE0104800780A2804DB67
:1002A00000200E49087005F02FFA0D4800786428E8
:1002B00004DB00200A49087005F02BFA0948008881
:1002C000B0F5FA7F04DB00200649088005F026FA25
:1002D000054800780028DFD110BD0000290000206B
:1002E0002A0000202C000020B01B00201CB501219A
:1002F000112007F065FF1C20009000208DF80400FD
:1003000003208DF8050001208DF8070069462C4870
:1003100007F0B8FC0120009002208DF80700694624
:10032000284807F0AFFC1CBD10B5044614B10120ED
:10033000254908702448007858B32448006858B10B
:100340002248001F006838B120480838006818B1FA
:100350001F48006801281CD10A2000F0D9FD0020A8
:10036000194908701948006808B9012010BD1748DC
:10037000001F006808B90220F8E714480838006830
:1003800008B90320F2E712480068012815D10420BB
:10039000ECE70E48006801280FD10C48001F0068E8
:1003A00001280AD1094808380068012805D1084801
:1003B000006810B90120044908700020D6E7000049
:1003C00000100240000002400000002010024242E3
:1003D0000002404200B58DB00121084607F0F0FE52
:1003E0000121080207F046FF70200B9003208DF8D2
:1003F000300001208DF833000BA9674807F042FC5C
:100400000121080207F08BFF00214FF4807007F0F4
:1004100086FF012005F031FF002007900A90099027
:100420004FF48030089007A805F0F2FE00200190FC
:100430008DF808008DF809000390059001208DF8D3
:10044000180001A9554805F0B4FE07230122042134
:10045000524805F034FF0121504805F0F0FE0DB080
:1004600000BD10B504460723012221464B4805F084
:1004700026FF4A4805F07FFF00BF0221474806F0EB
:100480009BF80028F9D0454805F0B1FF10BD2DE9D3
:10049000F04107460C460025002608E03846FFF7E5
:1004A000E0FF0544052000F033FD701CC6B2A642F3
:1004B000F4DBB5FBF4F080B2BDE8F08110B52DEDB2
:1004C000088B0A211020FFF7E2FF08EE100AB8EEB1
:1004D000480A10EE100A0AF0F3FF41EC1A0B9FEDE8
:1004E000300B53EC102B0AF02BFD41EC190B9FED58
:1004F0002E0B53EC102B51EC190B0AF0F7FE41ECCC
:100500001B0B9FED2B0B53EC102B0AF011FB41EC56
:100510001A0B9FED290B53EC102B0AF055FA41EC06
:10052000190B9FED270B53EC102B51EC190B0AF014
:1005300007FD41EC190B41EC1A0B0AF051FC04B217
:100540002046BDEC088B10BD10B52DED048B0420AA
:10055000FFF787FF08EE100AB8EE480A10EE100AFF
:100560000AF0AEFF41EC190B9FED0D0B53EC102B75
:100570000AF0E6FC144A03C2134890ED000B53EC5A
:10058000102B9FED120B51EC100B0AF0D9FC0E4A08
:1005900003C2BDEC048B10BD0000024000200140EE
:1005A0006666666666664A3F52B81E85EB51E83F4E
:1005B0007B14AE47E17A643F000000000000394040
:1005C000000000000000594008000020000000006A
:1005D0000000264010B5044600BF0221764806F010
:1005E0001FFA0028F9D02146734806F0D0F900BF61
:1005F0000121714806F014FA0028F9D06E4806F07F
:10060000C3F9C0B210BD00B587B00121022007F0C8
:10061000D7FD0121080307F02DFE382005900220A8
:100620008DF8180000208DF81A0003208DF81900AD
:1006300001208DF81B0005A9604807F023FB052267
:1006400003215E4807F0A9FB052204215B4807F05F
:10065000A4FB05221146594807F09FFB012108031E
:1006600007F05DFE00214FF4805007F058FE002097
:10067000ADF800004FF48270ADF802000020ADF834
:1006800004000220ADF806000120ADF80800400289
:10069000ADF80A000020ADF80C00ADF80E00072000
:1006A000ADF810006946444805F0F6FF01214248C4
:1006B00006F0ECF8FF20FFF78DFF07B000BD00B596
:1006C00087B00121022007F07BFD0121880307F09C
:1006D000C0FD4FF46040009002208DF8040003201C
:1006E0008DF8050000208DF8060001208DF8070028
:1006F0006946324807F0C6FA05220D212F4807F057
:100700004CFB05220E212D4807F047FB05220F2147
:100710002A4807F042FB0020ADF808004FF4827031
:10072000ADF80A000020ADF80C000220ADF80E0074
:100730000120ADF810004002ADF812000020ADF825
:100740001400ADF816000720ADF8180002A91C48E7
:1007500005F0A2FF01211A4806F098F807B000BD85
:1007600010B50446144800884FF6C7710840124976
:100770000880084600882043088001210E4806F0C2
:1007800085F810BD10B5044600BF02210C4806F0E4
:1007900047F90028F9D02146094806F0F8F800BFCB
:1007A0000121074806F03CF90028F9D0044806F07A
:1007B000EBF8C0B210BD0000003001400004024060
:1007C0000038004000BF704700BFFE4A128802F0A8
:1007D0004002002AF9D0C2B2FA4B9A80704710B595
:1007E00088B004460121084607F0EAFC01211020E8
:1007F00007F040FD07220921F34807F0CEFA07224F
:100800000A21F14807F0C9FA4FF4C06006900220AF
:100810008DF81C008DF81D0000208DF81E000120B1
:100820008DF81F0006A9E84807F02CFA0294002072
:10083000ADF80C00ADF80E00ADF81000ADF81400E6
:100840000C20ADF8120002A9DE4806F0D2FF01210B
:10085000DC4807F056F8012240F22551D94807F04C
:1008600006F925208DF8040003208DF805008DF889
:10087000060001208DF8070001A805F024FC08B04F
:1008800010BD10B540F22551CE4807F02BF958B1F4
:1008900040F22551CB4807F060F9CA4807F060F8EC
:1008A000C4B2204601F051FE10BD10B588B0044618
:1008B0000121084607F084FC0121480407F0C9FC27
:1008C00007220221C04807F068FA07220321BE4828
:1008D00007F063FA0C20069002208DF81C008DF8BA
:1008E0001D0000208DF81E0001208DF81F0006A9B4
:1008F000B54807F0C7F902940020ADF80C00ADF838
:100900000E00ADF81000ADF814000C20ADF8120088
:1009100002A9AE4806F06DFF0121AC4806F0F1FFD8
:10092000012240F22551A94807F0A1F826208DF8B0
:10093000040002208DF8050001208DF806008DF8D6
:10094000070001A805F0BFFB08B010BD9D498880D5
:1009500000BF9C49098801F040010029F9D0704787
:1009600000B50246C2F30720FFF7F0FFD0B2FFF751
:10097000EDFF00BD00B5024600210812FFF7E6FFBB
:10098000D0B2FFF7E3FF00BD30B50246002A05DA1A
:100990002D20FFF7DBFF504242B202E02020FFF79C
:1009A000D5FF642092FBF0F0C3B2642092FBF0F11B
:1009B00000FB11200A2190FBF1F0C4B20A2092FB47
:1009C000F0F100FB1120C5B203F13001C8B2FFF70E
:1009D000BDFF04F13001C8B2FFF7B8FF05F13001E7
:1009E000C8B2FFF7B3FF30BD30B50246642092FBBA
:1009F000F0F0C3B2642092FBF0F100FB11200A2159
:100A000090FBF1F0C4B20A2092FBF0F100FB112040
:100A1000C5B203F13001C8B2FFF798FF04F130010D
:100A2000C8B2FFF793FF05F13001C8B2FFF78EFFA0
:100A300030BDF0B50246002A05DA2D20FFF786FF0B
:100A4000504202B202E02020FFF780FF604892FB94
:100A5000F0F100FB112042F2107190FBF1F0C3B2F3
:100A6000084692FBF0F100FB11204FF47A7190FBE5
:100A7000F1F0C4B2084692FBF0F100FB11206421B2
:100A800090FBF1F0C5B2642092FBF0F100FB112065
:100A90000A2190FBF1F0C6B20A2092FBF0F100FBB4
:100AA0001120C7B203F13001C8B2FFF74FFF04F1C4
:100AB0003001C8B2FFF74AFF05F13001C8B2FFF7B5
:100AC00045FF06F13001C8B2FFF740FF07F13001E2
:100AD000C8B2FFF73BFFF0BDF0B502463C4892FBC1
:100AE000F0F100FB112042F2107190FBF1F0C3B263
:100AF000084692FBF0F100FB11204FF47A7190FB55
:100B0000F1F0C4B2084692FBF0F100FB1120642121
:100B100090FBF1F0C5B2642092FBF0F100FB1120D4
:100B20000A2190FBF1F0C6B20A2092FBF0F100FB23
:100B30001120C7B22020FFF709FF03F13001C8B22E
:100B4000FFF704FF04F13001C8B2FFF7FFFE05F123
:100B50003001C8B2FFF7FAFE06F13001C8B2FFF764
:100B6000F5FE07F13001C8B2FFF7F0FEF0BD00B5A9
:100B700003461A4603E01078FFF7E8FE521C10788F
:100B80000028F8D100BD2DE9F04F06460C46154669
:100B90009B4609AF97E8800700230E48FFF7E0FE69
:100BA00003F5AA730220FFF7D1FE9B1C3046FFF726
:100BB000E1FE33442046FFF7DDFE23442846FFF7DD
:100BC000D9FE09E00010014000000240004400404E
:100BD000A0860100AAAAFFFF2B445846FFF7CAFED1
:100BE0005B443846FFF7C6FE3B444046FFF7C2FE73
:100BF00043444846FFF7BEFE4B445046FFF7BAFE5B
:100C000053440D98FFF7B6FE0D980344D8B2FFF792
:100C10009DFEBDE8F08F10B540F22551814806F0E9
:100C200061FF00286DD001207F49087040F22551F6
:100C30007E4806F057FF58B17C4806F091FEC1B2DD
:100C40007B4802780078401C794B187079488154B1
:100C50000220754908707848007878B9754800789E
:100C6000552806D101207449087003206E49087088
:100C700004E000206E4908706F4908706E480078E3
:100C8000012810D16A48007802280CD169484078C0
:100C9000532803D102206849087004E00020644909
:100CA00008706549087064480078022825D16048BA
:100CB0000078032821DB5E4800780A281DDD042027
:100CC000594908705B4880795A49C97940EA01203E
:100CD00000B200EE100AB8EEC00A9FED581AC0EE3E
:100CE000010A9FED570A20EE800A564880ED000A5F
:100CF00000204F490870504908704021494806F0CB
:100D0000E8FE10BD10B588B004460121042007F0AC
:100D100057FA0121880407F09CFA07220B214A4860
:100D200007F03BF807220A21474807F036F84FF44E
:100D30004060069002208DF81C008DF81D000020F8
:100D40008DF81E0001208DF81F0006A93E4806F010
:100D500099FF02940020ADF80C00ADF80E00ADF83C
:100D60001000ADF814000C20ADF8120002A92F48B5
:100D700006F03FFD01212D4806F0C3FD012240F29F
:100D800025512A4806F073FE27208DF80400022022
:100D90008DF8050003208DF8060001208DF807006E
:100DA00001A805F090F908B010BD10B501211F4849
:100DB00006F082FE30B11D4806F0D2FD01211B482D
:100DC00006F087FE0821194806F076FE30B1174874
:100DD00006F0C6FD0821154806F07BFE02211348E7
:100DE00006F06AFE30B1114806F0BAFD02210D4846
:100DF00006F06FFE40F225510C4806F073FE78B104
:100E000020210A4806F065FE40F22551074806F009
:100E1000A4FE064806F0A4FDC4B2204601F0B2FAD2
:100E200010BD0000004400401600002000480040B3
:100E300021000020A01C002020000020000000470E
:100E4000000034431C0000200008024010B5044696
:100E50006FF0040005F084F9E11704EB5171C1F360
:100E6000C701394A11701046007800EB4001C1EB10
:100E7000C0104FF6FF7101EAC0003449088010BD70
:100E80000146314A12784A434FF0E0235A6100226A
:100E90009A611A46126942F001021A6100BF4FF0CE
:100EA000E022106900F001021AB100F48032002A39
:100EB000F5D04FF0E022126922F001024FF0E0235A
:100EC0001A6100229A6170470146204A12884A43FB
:100ED0004FF0E0235A6100229A611A46126942F0EB
:100EE00001021A6100BF4FF0E022106900F0010218
:100EF0001AB100F48032002AF5D04FF0E0221269D6
:100F000022F001024FF0E0231A6100229A6170473B
:100F100070B504464FF4077094FBF0F0C6B24FF47E
:100F2000077094FBF0F100FB114085B205E04FF42F
:100F30000770FFF7C9FF701EC6B2002EF7D115B1BA
:100F40002846FFF7C1FF70BD2200002024000020CA
:100F500030B58BB005460C460121022007F08AF916
:100F60000121042007F02CF903220621A74806F0EE
:100F700014FF03220721A54806F00FFF03220821D2
:100F8000A24806F00AFF03220921A04806F005FF47
:100F90004FF47070099002208DF8280003208DF81E
:100FA000290000208DF82A0001208DF82B0009A9C6
:100FB000964806F067FE0795A0B2ADF8180000202D
:100FC000ADF81A00ADF820008DF8220006A990486F
:100FD00005F003FE6020ADF804000120ADF8060026
:100FE0000020ADF80800ADF810000820ADF81200A0
:100FF0000020ADF81400ADF81600039001A9844854
:1010000005F080FE0821824806F009F800200390D0
:1010100001A97F4805F0AFFE08217D4806F008F8D9
:101020000020039001A97A4805F0F2FE08217848D3
:1010300006F00BF80020039001A9754805F04EFF5B
:101040000821734806F00AF80121714805F030FEC6
:1010500001216F4805F04AFE01216D4806F037FA7C
:101060000BB030BD10B56B4890ED090AB5EEC00A63
:10107000F1EE10FA07DD012067490860002067499A
:10108000C1F8800206E0002063490860012063493E
:10109000C1F880025F4890ED090AB5EEC00AF1EE92
:1010A00010FA02DB90ED090A04E05A4890ED090AB3
:1010B000B1EE400A574880ED090A90ED090ABCEEEE
:1010C000C00A10EE101A524805F075FF544890ED12
:1010D000090AB5EEC00AF1EE10FA08DD01204E490A
:1010E0000831086000204D49C1F8880207E000205F
:1010F00049490831086001204849C1F88802484838
:1011000090ED090AB5EEC00AF1EE10FA02DB90ED9F
:10111000090A04E0424890ED090AB1EE400A40484D
:1011200080ED090A90ED090ABCEEC00A10EE101A13
:10113000374805F042FF3B4890ED090AB5EEC00A7A
:10114000F1EE10FA08DD012033491031086000206B
:101150003249C1F8900207E000202F4910310860A1
:1011600001202E49C1F890022E4890ED090AB5EEF3
:10117000C00AF1EE10FA02DB90ED090A04E02948FA
:1011800090ED090AB1EE400A264880ED090A90ED7B
:10119000090ABCEEC00A10EE101A1D4805F00FFF38
:1011A000214890ED090AB5EEC00AF1EE10FA08DD0B
:1011B000012019491831086000201849C1F8980227
:1011C00007E0002014491831086001201349C1F8D4
:1011D0009802154890ED090AB5EEC00AF1EE10FA32
:1011E00002DB90ED090A04E00F4890ED090AB1EE28
:1011F000400A0D4880ED090A90ED090ABCEEC00ACC
:1012000010EE101A024805F0DCFE10BD0008024086
:1012100000040140C82000208482414200804142F5
:10122000F0200020182100204021002000B589B0C6
:101230000121084607F00DF80121084606F0C0FF1D
:101240000121022006F0BCFF2020079002208DF82B
:10125000200003208DF8210001208DF822008DF858
:10126000230007A9B24806F00DFD0820079007A942
:10127000B04806F007FD01220321AE4806F08DFDBF
:1012800001220521AA4806F088FD4FF6FF7005905F
:101290000020ADF81000ADF81800ADF8120004A958
:1012A0004FF0804005F099FC0A231A4603215807A5
:1012B00006F007FA01A806F09EF80020ADF80C0031
:1012C00001A94FF0804006F05FF800204FF0804108
:1012D00048620121880705F009FD09B000BD00B58D
:1012E00089B00121022006F0B4FF0121084606F072
:1012F00067FFC020079002208DF8200003208DF8A2
:10130000210001208DF822008DF8230007A98848CC
:1013100006F0B8FC02220621854806F03EFD0222B6
:101320000721834806F039FD4FF6FF700590002035
:10133000ADF81000ADF81800ADF8120004A97E4811
:1013400005F04BFC0A231A4603217B4806F0B9F945
:1013500001A806F050F80020ADF80C0001A976486D
:1013600006F012F800207449243108600121724807
:1013700005F0BCFC09B000BD00B589B01E208DF899
:10138000000001208DF801008DF802008DF80300A7
:10139000684604F098FE0121042006F05AFF01215E
:1013A000022006F00DFFC020079002208DF82000DB
:1013B00003208DF8210001208DF822008DF82300F4
:1013C00007A95C4806F05EFC02220621594806F097
:1013D000E4FC02220721574806F0DFFC4FF6FF70BD
:1013E00005900020ADF81000ADF81800ADF812001F
:1013F00004A9524805F0F1FB0A231A4603214F487D
:1014000006F05FF901A805F0F6FF0020ADF80C002A
:1014100001A94A4805F0B8FF002048492431086076
:101420000121464805F062FC09B000BD00B589B055
:101430000121082006F00DFF0121084606F0C0FE3C
:101440000320079002208DF8200003208DF8210052
:1014500001208DF822008DF8230007A9344806F0FA
:1014600011FC02220021324806F097FC02220121E1
:101470002F4806F092FC4FF6FF7005900020ADF863
:101480001000ADF81800ADF8120004A92C4805F0C2
:10149000A4FB0A231A460321294806F012F901A8E1
:1014A00005F0A9FF0020ADF80C0001A9244805F0C3
:1014B0006BFF00202249243108600121204805F0FB
:1014C00015FC09B000BD01464A1CD1B2022906D064
:1014D00003290DD0042914D0052924D11AE04FF096
:1014E0008042526A10B200224FF080435A621CE0E0
:1014F000114A2432126810B200220F4B24331A60B2
:1015000013E00E4A2432126810B200220B4B24332F
:101510001A600AE00A4A2432126810B20022084B0C
:1015200024331A6001E0002000BF00BF70470000B4
:101530000000024000040240000400400008004097
:10154000000C00400146086870470146CA488142C5
:1015500001D200207047C948814201D20820F9E732
:10156000C748814201D21020F4E7C648814201D227
:101570001820EFE7C448814201D22020EAE7C3489F
:10158000814201D22820E5E7C148814201D23020C2
:10159000E0E7C048814201D23820DBE7BE48814203
:1015A00001D24020D6E7BD48814201D24820D1E790
:1015B000BB48814201D25020CCE75820CAE72DE930
:1015C000F04704460E4617464FF009080025A94685
:1015D000B4F1006F02D304F0030008B1BDE8F08756
:1015E00006F080FF002006F060FF254604EB870927
:1015F000AC48854215D211E02846FFF7A3FF401CF6
:1016000058B12846FFF7A1FF8246022106F0BEFF2F
:101610008046B8F1090F01D002E02D1D4D45EBD3F6
:1016200000BFB8F1090F0CD108E02046316807F07F
:10163000C6F8092800D003E0241D361D4C45F4D31C
:1016400000BF012006F031FF06F059FF00BFC5E7DB
:1016500030B503460C461546002206E01846FFF753
:1016600071FF44F822001B1D521CAA42F6D330BD64
:101670002DE9F04704468946164609270025A84665
:10168000B4F1006F02D304F0030008B1BDE8F087A5
:1016900006F028FF002006F008FF254604EB860828
:1016A0008048854217D213E02846FFF74BFF401CC5
:1016B00068B12846FFF749FF8246022106F066FF1F
:1016C0000746092F04D078A007F030FB02E02D1D5B
:1016D0004545E9D300BF092F0ED10AE0494620460F
:1016E00007F06DF8092803D074A007F01FFB02E093
:1016F000241D4445F2D300BF012006F0D6FE06F0BB
:10170000FEFE00BFC2E701460A461068704710B5EA
:101710002DED028B6C48B0F9001001226048FFF7F4
:10172000A7FF6948B0F9021001225D48001DFFF7CC
:101730009FFF6548B0F90410012259480830FFF7AF
:1017400097FF6248B0F90010012255480C30FFF7AE
:101750008FFF5E48B0F90210012251481030FFF7A8
:1017600087FF01225A4801684D481430FFF780FF77
:101770005548B0F9001057A007F0D8FA5248B0F910
:1017800002105EA007F0D2FA4F48B0F9041065A02D
:1017900007F0CCFA4D48B0F900106CA007F0C6FA7B
:1017A0004A48B0F9021073A007F0C0FA4848006830
:1017B00009F086FE41EC180B53EC182B77A007F0CC
:1017C000B5FABDEC028B10BD10B52DED028B34487F
:1017D000FFF799FF00B23C4908803148001DFFF730
:1017E00092FF00B2384948802D480830FFF78BFF40
:1017F00000B2354988802A480C30FFF784FF00B2D8
:101800003249088026481030FFF77DFF00B22F498B
:101810004880234890ED050A2D4880ED000A2A48AB
:10182000B0F9001067A007F081FA2748B0F902105C
:101830006EA007F07BFA2448B0F9041075A007F0F9
:1018400075FA2248B0F900107CA007F06FFA1F4823
:10185000B0F9021083A007F069FA1D48006809F08A
:101860002FFE41EC180B53EC182B88A007F05EFA02
:10187000BDEC028B10BD0000004000080080000895
:1018800000C0000800000108000002080000040871
:10189000000006080000080800000A0800000C0804
:1018A00000000E080000FF1FCAFDBEDDB2C1B3FD7F
:1018B000B7A2C9FAB4EDCEF300000000D0B4C8EB73
:1018C000D2ECB3A3000000009A1B0020A01B002054
:1018D000F000002049434D323036303220777269B3
:1018E00074652064617461206F66667365745F61FE
:1018F00063632E783D25640D0A00000049434D3294
:1019000030363032207772697465206461746120EA
:101910006F66667365745F6163632E793D25640D40
:101920000A00000049434D32303630322077726968
:1019300074652064617461206F66667365745F61AD
:1019400063632E7A3D25640D0A00000049434D3241
:10195000303630322077726974652064617461209A
:101960006F66667365745F6779726F2E783D256464
:101970000D0A000049434D3230363032207772690B
:1019800074652064617461206F66667365745F6757
:1019900079726F2E793D25640D0A000049434D325E
:1019A000303630322077726974652064617461204A
:1019B0006F66667365745F6779726F2E7A3D256610
:1019C0000D0A000049434D323036303220726561D5
:1019D000642064617461206F66667365745F61631F
:1019E000632E783D25640D0A0000000049434D3206
:1019F0003036303220726561642064617461206F1A
:101A000066667365745F6163632E793D25640D0AB4
:101A10000000000049434D3230363032207265619B
:101A2000642064617461206F66667365745F6163CE
:101A3000632E7A3D25640D0A0000000049434D32B3
:101A40003036303220726561642064617461206FC9
:101A500066667365745F6779726F2E783D25640DD5
:101A60000A00000049434D32303630322072656141
:101A7000642064617461206F66667365745F677962
:101A8000726F2E793D25640D0A00000049434D32E6
:101A90003036303220726561642064617461206F79
:101AA00066667365745F6779726F5F7A3D25660D50
:101AB0000A0000001CB50121092006F081FB4FF44B
:101AC0000050009001208DF8040000208DF80600E1
:101AD00003208DF8050001208DF8070069465E4857
:101AE00006F0D0F84FF48070009001208DF80400CB
:101AF00000208DF8060003208DF8050001208DF8E8
:101B000007006946554806F0BDF81CBD1CB501210B
:101B10000A2006F055FBFF20009001208DF80400FC
:101B200000208DF8060003208DF8050001208DF8B7
:101B300007006946484806F0A5F81CBD012814D1E5
:101B40000121474A1160002102E000BF4A1CD1B2C6
:101B50001129FADB0021424A116000BF02E000BFF8
:101B60004A1CD1B20829FADB13E001213C4A11607A
:101B7000002102E000BF4A1CD1B20829FADB002193
:101B8000374A116000BF02E000BF4A1CD1B21129E0
:101B9000FADB704710B50023322418E0002303E07D
:101BA0000020FFF7CBFF5B1C082BF9D3002303E0D9
:101BB0000020FFF7C3FF5B1C082BF9D3002303E0D1
:101BC0000020FFF7BBFF5B1C082BF9D3641E002C21
:101BD000E4D110BD10B50023322418E0002303E047
:101BE0000120FFF7ABFF5B1C082BF9D3002303E0B8
:101BF0000120FFF7A3FF5B1C082BF9D3002303E0B0
:101C00000120FFF79BFF5B1C082BF9D3641E002CFF
:101C1000E4D101201249086010BD1CB5012110203B
:101C200006F0CEFA4FF40050009002208DF8040028
:101C300003208DF8050000208DF8060001208DF8A6
:101C400007006946074806F01DF84FF400510548A3
:101C500006F096F81CBD0000000C02400000024097
:101C6000B4824142001002407FB505460C46012176
:101C7000102006F0EEFA0295ADF804400020ADF811
:101C80000600ADF80C0001A9364804F0A6FF0122B9
:101C90001146344805F042FC0121324805F026F88F
:101CA00036208DF8000001208DF8010000208DF80D
:101CB000020001208DF80300684604F004FA0121B7
:101CC000284805F013F87FBD10B50121254805F01F
:101CD0003CFC012841D101F0CEF82349234800F013
:101CE000B2FE2349234800F0D5FE23491E4800F0E8
:101CF000F8FE04F099F82148007802280ADB002059
:101D00001E4908701E48407820B91D48007808B95F
:101D100003F042FD1B480078042805DB0020194928
:101D20000870194803F0ECFF14480078401C134970
:101D3000087014480078401C124908701348007855
:101D4000401C1249087012480078401C1049087065
:101D500010480088401C0F4908800121014805F007
:101D600005FC10BD00100040941B0020821B0020C9
:101D7000881B00207C1B0020102200202700002050
:101D8000F400002028000020482200202900002024
:101D90002A0000202C00002038B5044601200090C5
:101DA0000020FE494870012000902EE0BDF80000A0
:101DB000204018B10120FA49086002E00020F849EB
:101DC00008600120F649083108600520FFF758F83F
:101DD0000020F449C1F8B0020520FFF751F80120B6
:101DE000F049C1F8B0020846D0F8240230B1EB48FF
:101DF0004078BDF800100843E8494870BDF800007D
:101E00004FF6FF7101EA40000090BDF80000FF2886
:101E1000CCDD1020FFF734F838BD10B50020E049C4
:101E2000091D08601020FFF72BF80120FFF7B4FF11
:101E30004320FFF7B1FF0020FFF7AEFF0020FFF7C0
:101E4000ABFF5A20FFF7A8FF5A20FFF7A5FF5A2043
:101E5000FFF7A2FF5A20FFF79FFF5A20FFF79CFFD2
:101E60000120D049C1F8AC021020FFF709F810BDDD
:101E700010B50020CA49091D08601020FFF700F8BE
:101E80000120FFF789FF4D20FFF786FF0020FFF7B5
:101E900083FF0020FFF780FF0120FFF77DFF012077
:101EA000C049C1F8AC021020FEF7EAFF10BD10B522
:101EB0000020BB49091D08600120FFF76DFF442089
:101EC000FFF76AFF0020FFF767FF0120FFF764FFBD
:101ED0000320FFF761FF0020FFF75EFF0020FFF700
:101EE0005BFF0020FFF758FF0020FFF755FF0120A0
:101EF000AC49C1F8AC021020FEF7C2FF10BD10B50E
:101F00000020A749091D08601020FEF7B9FF012035
:101F1000FFF742FF4320FFF73FFF0020FFF73CFFA2
:101F20000120FFF739FF0020FFF736FF0020FFF701
:101F300033FF0020FFF730FF0020FFF72DFF0020C8
:101F4000FFF72AFF01209749C1F8AC021020FEF7E5
:101F500097FF10BD10B500209149091D08601020A1
:101F6000FEF78EFF0120FFF717FF4220FFF714FF57
:101F70000020FFF711FF0020FFF70EFF0020FFF702
:101F80000BFF01208749C1F8AC021020FEF778FF53
:101F900010BD10B5FFF7DEFFFFF7DCFFFFF7DAFF3C
:101FA000FFF7ADFFFFF783FFFFF762FFFFF735FF96
:101FB00010BD1CB50121082006F002F94FF4E050D5
:101FC000009001208DF8040000208DF80600032009
:101FD0008DF8050001208DF807006946724805F06C
:101FE00051FE0E21704805F0C9FE4FF400700090BC
:101FF00000208DF8040003208DF8050001208DF8E5
:1020000007006946684805F03DFEFFF7C2FF1CBDAA
:1020100010B500206249091D086064490878FFF77F
:10202000BBFE62494878FFF7B7FE01205D49C1F861
:10203000AC025A484078732801D1002010BD01201D
:10204000FCE71CB5002001900120009000205449BD
:10205000091D086055490878FFF79EFE53494878E6
:10206000FFF79AFE0220019036E00120009027E061
:1020700001204B49083108600520FEF701FF0020D0
:102080004849C1F8B0020520FEF7FAFE0120454993
:10209000C1F8B0020846D0F8240250B13F489DF87C
:1020A0000410405CBDF8001008433C499DF8042032
:1020B0008854BDF800004FF6FF7101EA400000901F
:1020C000BDF80000FF28D3DD1020FEF7D9FE9DF8F3
:1020D0000400401CC0B201909DF804000928C4DB34
:1020E00001202F49091D08601CBD002004E00021CB
:1020F0002A4A1154411CC8B20928F8DB704710B5B0
:10210000FFF7F3FFFFF79DFF2448C07823490979C3
:1021100040EA01202649088000240FE0254810F8F5
:102120001400401E012101FA00F0214909880840ED
:1021300010B9601CC0B210BD601CC4B2102CEDDB25
:102140000020F8E701461548405C704770B5054629
:102150000C4600201249091D08601020FEF790FE71
:102160000120FFF719FE4220FFF716FE0020FFF7BF
:1021700013FE2846FFF710FE2046FFF70DFE002055
:10218000FFF70AFE0020FFF707FE0020FFF704FE1E
:102190000020FFF701FE012002490DE0AB1C0020EA
:1021A000A882414200804142000C024032000020DF
:1021B0003000002034000020C1F8AC021020FEF7EF
:1021C0005FFE70BD10B566480078002856D0072025
:1021D000FFF7B8FF803800EE100AB8EEC00A614879
:1021E00080ED000A0820FFF7ADFF803800EE100AEE
:1021F000B8EEC00A5C4880ED000A0520FFF7A2FF98
:10220000803800EE100AB8EEC00A584880ED000A87
:102210000620FFF797FF803800EE100AB8EEC00ADC
:10222000534880ED000AFFF76AFF52490860072013
:10223000FFF788FFFF2820D10520FFF783FF002844
:102240001BD14B4890ED000AB5EEC00AF1EE10FA32
:1022500013D19FED490A434880ED000A9FED460ADD
:10226000414880ED000A9FED440A404880ED000A95
:102270009FED410A3E4880ED000A6FE000F01BF937
:1022800000EE100AB8EE400A364880ED000A00F071
:1022900018F900EE100AB8EE400A334880ED000A43
:1022A00000F015F900EE100AB8EE400A2F4880ED54
:1022B000000A00F012F900EE100AB8EE400A2C48AD
:1022C00080ED000A00F0F1F82A490860254890EDF9
:1022D000000ADFED2A0AB4EEE00AF1EE10FA07DD9B
:1022E00090ED000ADFED260A30EE600A80ED000A6C
:1022F0001D4890ED000ADFED210AB4EEE00AF1EE90
:1023000010FA07DD90ED000ADFED1D0A30EE600ADD
:1023100080ED000A154890ED000ADFED180AB4EED2
:10232000E00AF1EE10FA07DD90ED000ADFED140A85
:1023300030EE600A80ED000A0D4890ED000ADFEDF6
:102340000F0AB4EEE00AF1EE10FA07DD90ED000A94
:10235000DFED0B0A30EE600A80ED000A10BD0000D0
:102360007100002054000020580000205C00002074
:102370006000002064000020000000000000FE4219
:1023800000008043FE49097829B9DF2803D10121E3
:10239000FB4A117088E0FA490978012905D1F94909
:1023A00008700221F64A11707EE0F5490978022989
:1023B00041D1F4490978012906D002290AD003291C
:1023C0000ED0042930D11DE0EE4948700321EC4ABB
:1023D00011702FE0EB4988700321E94A117029E060
:1023E000E949097829B9E749C8700121E64A11701D
:1023F00007E0E44908710021E34A11700321E04A33
:10240000117017E0E049097829B9DE4948710121C6
:10241000DD4A117007E0DB4988710021DA4A11704A
:102420000321D74A117005E00021D54A1170D64A20
:10243000117000BF38E0D249097803292FD1FD2857
:102440002DD1D0490978012906D0022909D00329C4
:102450000CD004291CD112E0CA494978CB4A11702A
:1024600016E0C8498978CA4A117011E0C549C9788F
:10247000C84A1170C3490979C74A117008E0C149B7
:102480004979C64A1170BF498979C54A117000BFA0
:1024900000BF0021BA4A1170BB4A117004E000214C
:1024A000B74A1170B84A117070470020B54988705A
:1024B000B748007870470020B249C870B548007826
:1024C00070470020AF490871B3480078704700207A
:1024D000AC494871B148007870470020A94988711B
:1024E000AF4800787047AF480078AA490978884219
:1024F0001AD1AD480078A8490978884214D1AB4870
:102500000078A649097888420ED1A9480078A449E4
:102510000978884208D100209E4908709E490870B9
:102520009E4908709E4908709A4800789D49087035
:10253000994800789C490870984800789B49087031
:10254000974800789A4908707047072871D2DFE8E9
:1025500000F004122131415161000021954A1170AF
:10256000954A1170954A1170954A1170954A1170EB
:10257000954A11705DE001218E4A117000218E4A4A
:1025800011708E4A11708E4A11708E4A11708E4AE7
:1025900011704EE00021874A11700121864A1170A6
:1025A0000021864A1170864A1170864A1170864A47
:1025B00011703EE000217F4A11707F4A11700121A5
:1025C0007E4A117000217E4A11707E4A11707E4A47
:1025D00011702EE00021774A1170774A1170774A06
:1025E00011700121764A11700021764A1170764AE5
:1025F00011701EE000216F4A11706F4A11706F4A0E
:1026000011706F4A117001216E4A117000216E4ADB
:1026100011700EE00021674A1170674A1170674A15
:102620001170674A1170674A11700121664A117072
:1026300000BF00BF704710B55E48007838B1072072
:10264000FFF780FD0446214660A006F06FFB5A4864
:10265000007870B1604991ED000ABCEEC00A10EE3E
:10266000101AC8B2FFF76EFD044621465BA006F0C3
:102670005DFB5248007870B15B4991ED000ABCEEF9
:10268000C00A10EE101AC8B2FFF75CFD04462146DE
:1026900056A006F04BFB4A48007870B1564991EDC0
:1026A000000ABCEEC00A10EE101AC8B2FFF74AFDCD
:1026B0000446214651A006F039FB4248007830B16B
:1026C000FFF71DFD044621464FA006F02FFB3E48B4
:1026D000007820B12E4801784CA006F027FB10BDF1
:1026E00070B5044600250CE0615D4A4805F034F9F8
:1026F00000BF4021474805F0DFF90128F9D1681CE7
:10270000C5B2A078401DA842EEDC70BD421892ED23
:10271000000A704770B505460024DF222146641C7C
:102720003D48425401222146641C42542146641C07
:1027300042542146641C4554FD222146641C4254E7
:10274000FFF7CEFF002470BD10B52DED040B002463
:10275000DF222146641C3148425402222146641C77
:10276000425410222146641C42549DF80020214608
:10277000641C42549DF801202146641C42544FE0E1
:102780007E000020B41C00207F000020710000208B
:102790006C00002068000020690000206A00002012
:1027A0006B0000206D0000206E0000206F000020F4
:1027B00070000020720000207300002074000020D0
:1027C0007500002076000020770000205053325F13
:1027D0004C583D25640A0000580000205053325FD9
:1027E0004C593D25640A00005C0000205053325FC4
:1027F00052583D25640A0000600000205053325FAB
:1028000052593D25640A00005053325F4B45593DF3
:1028100025640A000048004078000020BD1C00200C
:102820009DF802202146641C42549DF80320214655
:10283000641C42549DF804202046611CCCB22C49F3
:102840000A549DF805202046611CCCB228490A5440
:102850009DF806202046611CCCB225490A549DF8FB
:1028600007202046611CCCB221490A549DF808205B
:102870002046611CCCB21E490A549DF8092020460E
:10288000611CCCB21A490A549DF80A202046611CEA
:10289000CCB217490A549DF80B202046611CCCB2DB
:1028A00013490A549DF80C202046611CCCB21049F3
:1028B0000A549DF80D202046611CCCB20C490A54E4
:1028C0009DF80E202046611CCCB209490A549DF89F
:1028D0000F202046611CCCB205490A54FD22204637
:1028E000611CCCB202490A540846FFF7F9FE1FBD2D
:1028F000BD1C002070B52DED028B06460C4606254A
:1029000015E0681E04F1380101EBC00090ED000BEA
:10291000084600EBC50080ED000B681E04EBC0000C
:1029200090ED000B04EBC50080ED000B6D1E002D3B
:10293000E7DC304608F0B1FAC4E900019FED7B0BFB
:1029400084ED0E0B01254CE004EBC50090ED002B4F
:10295000B0EE420AF0EE620A764800EBC50090ED58
:10296000002BB0EE421AF0EE621A53EC102B51EC31
:10297000110B08F0E5FA41EC180B94ED0E1BB0EECC
:10298000410AF0EE610A53EC102B08F01DF8C4E97F
:102990000E0104F1380000EBC50090ED002BB0EE05
:1029A000420AF0EE620A644800EBC50090ED002B8D
:1029B000B0EE421AF0EE621A53EC102B51EC110BF0
:1029C00008F0BEFA41EC180B94ED0E1BB0EE410A74
:1029D000F0EE610A53EC102B08F0B0FBC4E90E01D5
:1029E0006D1C072DB0DB94ED002BB0EE420AF0EE2B
:1029F000620A504890ED002BB0EE421AF0EE621AD7
:102A000053EC102B51EC110B08F09AFA41EC180B17
:102A100094ED0E1BB0EE410AF0EE610A53EC102B60
:102A200007F0D2FFC4E90E0194ED0E1BB0EE410A8F
:102A3000F0EE610A51EC100B07F094FF00EE100A63
:102A4000BDEC028B70BD70B504460D46B4F90000B4
:102A50003A49FFF74FFFBDEEC00A10EE100A00B270
:102A60002880B4F9020035497031FFF743FFBDEE0D
:102A7000C00A10EE100A00B26880B4F904002F49B1
:102A8000E031FFF737FFBDEEC00A10EE100A00B2CA
:102A9000A88070BD70B504460D46B4F90000284901
:102AA000FFF728FFBDEEC00A10EE100A00B2288022
:102AB000B4F9020022497031FFF71CFFBDEEC00AD5
:102AC00010EE100A00B26880B4F904001C49E0312D
:102AD000FFF710FFBDEEC00A10EE100A00B2A8808A
:102AE00070BDB0F9002000EE102AB8EEC00ADFED8C
:102AF000150A20EE200A81ED000AB0F9022000EE4E
:102B0000102AB8EEC00ADFED0F0A20EE200A81ED90
:102B1000010AB0F9042000EE102AB8EEC00ADFED79
:102B2000090A20EE200A81ED020A70470000000029
:102B30000000000080000020B8000020D81C002009
:102B4000281E002089A18B3A70B504460D4600204E
:102B5000FE49086004F07F00FDF714FE2846FDF7EB
:102B600011FE0120FA49C1F8A00270BD70B50446FB
:102B70000020F649086044F08000FDF703FEFF20C6
:102B8000FDF700FE05460120F149C1F8A0022846E4
:102B900070BD70B505460E4614460020EB4908602E
:102BA00045F08000FDF7EEFD04E0FF20FDF7EAFDB3
:102BB00004F8010B301EA6F10101CEB2F5D10120BF
:102BC000E249086070BD10B580216B20FFF7BCFFA3
:102BD0001420FEF79DF910BD10B5FDF770FD0A2019
:102BE000FEF796F980216B20FFF7AEFF6420FEF719
:102BF0008FF900211920FFF7A7FF0A20FEF788F9B7
:102C000000216B20FFF7A0FF00216C20FFF79CFF45
:102C10000A20FEF77DF904211A20FFF795FF0A200C
:102C2000FEF776F918211B20FFF78EFF0A20FEF72A
:102C30006FF910211C20FFF787FF04211D20FFF7EB
:102C400083FF0A20FEF764F900211E20FFF77CFFB6
:102C50000A20FEF75DF900212320FFF775FF0A2007
:102C6000FEF756F97520FFF781FF122801D00020EA
:102C700010BD0120FCE710B52DED028BB5480078A2
:102C800001286FD10020B3498870B348007880B91B
:102C90000020B249088048808880B1490860B14965
:102CA0000860B14908600120AB490870BDEC028B97
:102CB00010BDA9480078401CA7490870AB48B0F97E
:102CC0000000A74909680844A5490860A748B0F969
:102CD0000200A44909680844A2490860A348B0F961
:102CE0000400A149096808449F4908609A4800788F
:102CF000FB2837D198480078401E974908709848BB
:102D00000068097890FBF1F000B29449088095487A
:102D100000689149097890FBF1F000B28F49488032
:102D2000914800688C49097890FBF1F0A0F580503B
:102D300000B28A4988800846B0F900108CA005F0DE
:102D4000F5FF8648B0F9021090A005F0EFFF834828
:102D5000B0F9041094A005F0E9FF00207D49087047
:102D6000012088707B484078012879D1002079497A
:102D7000C8709448007898B900209349088048802A
:102D80009FED920A924880ED000A00209149086068
:102D9000914908609149086001208A49087085E7D7
:102DA00088480078401C874908708D48B0F90000B9
:102DB000884909680844874908608948B0F90200D1
:102DC000854909680844844908608548B0F90400C9
:102DD000824909680844814908607A480078FB28DC
:102DE00047D178480078401E7649087079480068D5
:102DF000097890FBF1F000B27349088076480068CA
:102E00007049097890FBF1F000B26F49488073482F
:102E100090ED000AB8EEC00AF7EE000A60EE200A54
:102E20006848007800EE100AB8EE400A80EE801A7A
:102E3000674880ED001A0846B0F9001069A005F057
:102E400075FF6148B0F902106DA005F06FFF604892
:102E5000006808F035FB41EC180B53EC182B00E030
:102E600007E06EA005F062FF00203A49487001209B
:102E7000C87000BF1AE71FB5FFF7FDFE6A460E21B6
:102E80003B20FFF786FE9DF801009DF8001040EA08
:102E9000012032490988401A00B2344908809DF85F
:102EA00003009DF8021040EA01202C494988401A8D
:102EB00000B22E4948809DF805009DF8041040EAB4
:102EC000012026498988401A00B2284988809DF847
:102ED00009009DF8081040EA01203B490988401A82
:102EE00000B23F4908809DF80B009DF80A1040EAA7
:102EF000012035494988401A00B2394948809DF877
:102F00000D009DF80C1040EA0121314890ED000AB7
:102F1000BDEEC00A10EE100A081A00B230498880CF
:102F20001FBD00B52DED028B81B06A460221412004
:102F3000FFF72FFE9DF801009DF8001000EB012027
:102F400000B208EE100AB8EEC80A75E0A0024042CE
:102F500000004042F4000020040100209A1B0020E1
:102F6000F8000020FC000020000100207C1B002055
:102F700049434D32303630326F66667365745F6137
:102F800063632E783D25640D0A00000049434D32ED
:102F9000303630326F66667365745F6163632E79B5
:102FA0003D25640D0A00000049434D323036303271
:102FB0006F66667365745F6163632E7A3D25640D89
:102FC0000A00000014010020A01B002000000000E7
:102FD000F0000020080100200C010020100100205A
:102FE000821B002049434D3230363032206F6666F6
:102FF0007365745F67726F792E783D25640D0A00E2
:1030000049434D3230363032206F66667365745FE7
:103010006779726F2E793D25640D0A0049434D3260
:1030200030363032206F66667365745F6779726F11
:103030002E7A3D25660D0A009FED051AC0EE010AA5
:10304000B3EE090A30EE800A01B0BDEC028B00BD80
:103050006666A34370B504460E4626B10221FE48BB
:1030600004F08CFE03E00221FB4804F089FE0121FC
:10307000F94804F085FE002517E01021F64804F019
:103080007FFE04F0800020B10821F34804F076FEB2
:1030900003E00821F04804F073FE1021EE4804F02C
:1030A0006DFE6006040E681CC5B2082DE5DB01212B
:1030B000E94804F063FE0221E74804F05FFE70BDBA
:1030C00070B504460D4605F1B001C8B20021FFF706
:1030D000C1FF102141EA14100021FFF7BBFF04F0EB
:1030E0000F0141F001000021FFF7B4FF70BD10B5E2
:1030F00000218D20FFF7AEFF00211420FFF7AAFF6B
:103100000021AF20FFF7A6FF10BD10B500218D20D4
:10311000FFF7A0FF00211020FFF79CFF0021AE2049
:10312000FFF798FF10BD70B5002419E004F1B0015D
:10313000C8B20021FFF78EFF00210846FFF78AFF83
:1031400000211020FFF786FF002505E00121002067
:10315000FFF780FF681CC5B2802DF7DB601CC4B28E
:10316000082CE3DB70BD2DE9F04107460C462546EF
:103170000FE029463846FFF7A3FF002605E00121AE
:103180000020FFF767FF701CC6B2122EF7DB681C29
:10319000C5B2A01C8542ECDBBDE8F0812DE9F04111
:1031A00080460E46144625460FE029464046FFF766
:1031B00087FF002705E001210020FFF74BFF781C67
:1031C000C7B2B742F7DB681CC5B2A01C8542ECDB76
:1031D000BDE8F0812DE9F05F06460F46144698469B
:1031E000B81B00F0FF0AA8EB040000F0FF0B00255D
:1031F00013E06019C1B23046FFF762FF4FF00009DB
:1032000007E001210020FFF725FF09F1010000F090
:10321000FF09D145F5DD681CC5B25D45E9DDBDE8B6
:10322000F09F70B50446254619E005F1B001C8B21B
:103230000021FFF70FFF00210846FFF70BFF0021D9
:103240001020FFF707FF002605E001210020FFF70F
:1032500001FF701CC6B2802EF7DB681CC5B2A01C33
:103260008542E2DB70BD2DE9F05F06460F464FF068
:10327000000AD3464FEA8618002421E00BEB040035
:10328000C1B25046FFF71CFFE0064FEA106911E09B
:10329000002507E007EB0811485D0121FFF7DAFE82
:1032A000681CC5B2102DF5DB08F1010809F1010019
:1032B00000F0FF09601CC0004845E9DC601CC4B296
:1032C000082CDBDBBDE8F09F70B50546002408E064
:1032D00062492046FFF7C7FF2846FDF719FE601C2C
:1032E000C4B22A2CF4DB70BD2DE9F04180460E46B5
:1032F0001546002731464046FFF7E2FE00240AE06B
:10330000574A02EB8511085D0121FFF7A3FE781CE7
:10331000C7B2601CC4B2102CF2DB701CC1B24046B4
:10332000FFF7CEFE00240CE06900491C4C4A02EB7A
:103330004111085D0121FFF78DFE781CC7B2601CAA
:10334000C4B2102CF0DBBDE8F0812DE9F041074656
:103350000E46904600250024A8F12000C5B27F2F1C
:1033600002DD0027B01CC6B231463846FFF7A8FE82
:10337000002408E004EB05113A4A505C0121FFF7F4
:1033800069FE601CC4B2082CF4DB701CC1B2384664
:10339000FFF796FE002409E004EB05110831314ADD
:1033A000505C0121FFF756FE601CC4B2082CF3DB11
:1033B000BDE8F0812DE9F04106460F461546002490
:1033C00017E0102C07DA2A5D06EBC401C8B23946B3
:1033D000FFF7BBFF0BE0102C09DB2A5DBB1CD9B249
:1033E000A4F1100306EBC303D8B2FFF7AEFF601CD5
:1033F000C4B2285D0028E4D1BDE8F08110B50246D2
:10340000012000E050430B1EA1F10104E1B2F9D10B
:1034100010BD2DE9FF5F074691461D460E9E4FF0F9
:10342000000A00243DE0281B401EC1B20A20FFF71D
:10343000E5FFB9FBF0F00A21B0FBF1F201FB120845
:10344000BAF1000F1DD1681EA0421ADDB8F1000FBD
:1034500015D1B34608E0000000100240BA0301088D
:10346000150100201514002006EBDB71491001FB4B
:103470000471C8B220220199FFF767FF0FE04FF0F7
:10348000010AB34606EBDB71491001FB0471C8B2B7
:1034900008F13001CAB20199FFF757FF00BF601C65
:1034A000C4B2AC42BFDBBDE8FF9F2DE9F0432DED78
:1034B000068B85B005460E46B0EE408AF0EE608A77
:1034C00014461F464FF000089FEDFE0B53EC102BE7
:1034D00051EC180B07F0F8FC01D2012000E00020AD
:1034E0008046B8F1010F58D151EC180B07F02EFAB5
:1034F00041EC180B02A8B0EE480AF0EE680A07F09B
:10350000A9F8B0EE40AAF0EE60AA9FEDF00B53ECE4
:10351000102B51EC1A0B07F013FD41EC190B701C2A
:10352000C3B2E01905F1080202EBC0000830C1B2D5
:1035300032462846FFF74EFE2D2231462846FFF739
:1035400004FF9DED020B51EC100B07F079FC814656
:10355000102005F108010090C8B223464A463146C2
:10356000FFF757FF05F1080101EBC401C8B22E2295
:103570003146FFF7EAFE51EC190B07F061FC81467A
:10358000102005F1080101EBC40108310090C8B218
:103590003B464A463146FFF73CFFB8F1000F52D197
:1035A00002A8B0EE480AF0EE680A07F053F8B0EE51
:1035B00040AAF0EE60AA9FEDC50B53EC102B51EC26
:1035C0001A0B07F0BDFC41EC190B701CC3B2E019DB
:1035D00005F1080202EBC0000830C1B232462846AD
:1035E000FFF7F8FD202231462846FFF7AEFE9DED9D
:1035F000020B51EC100B07F023FC8146102005F163
:1036000008010090C8B223464A463146FFF701FF41
:1036100005F1080101EBC401C8B22E223146FFF7C3
:1036200094FE51EC190B07F00BFC8146102005F1BC
:10363000080101EBC40108310090C8B23B464A467C
:103640003146FFF7E6FE05B0BDEC068BBDE8F08322
:1036500010B50446012C02D0022C7DD150E000228E
:1036600011462020FFF740FE012200213020FFF705
:103670003BFE022200214020FFF736FE03220021FC
:103680005020FFF731FE092202211120FFF72CFE06
:103690000A2202212120FFF727FE002202213120E9
:1036A000FFF722FE012202214120FFF71DFE0B221F
:1036B00004211120FFF718FE0C2204212120FFF71E
:1036C00013FE002204213120FFF70EFE0122042107
:1036D0004120FFF709FE102206211120FFF704FE0A
:1036E000112206212120FFF7FFFD002206213120B3
:1036F000FFF7FAFD012206214120FFF7F5FD53E017
:10370000072200210846FFF7EFFD082200211020C4
:10371000FFF7EAFD3A2202212020FFF716FE0522DC
:1037200002210020FFF7E0FD062202211020FFF712
:10373000DBFD3A2202212020FFF707FE5822042158
:103740000020FFF702FE0F2204211020FFF7CCFD1E
:103750003A220421202000E025E0FFF7F6FD632255
:1037600004216F20FFF7F1FD6D2204217720FFF780
:10377000ECFD592206210020FFF7E7FD0F2206216C
:103780001020FFF7B1FD3A2206212020FFF7DDFDD2
:10379000632206216F20FFF7D8FD6D2206217720D6
:1037A000FFF7D3FD00E000BF00BF10BD1CB5012135
:1037B000102004F005FD1F20009001208DF804006A
:1037C00000208DF8060003208DF8050002208DF8FA
:1037D000070069463F4804F055FA1F213D4804F0B0
:1037E000CDFA04213B4804F0C9FA6420FDF790FBB0
:1037F0000421384804F0C4FAC820FDF789FB0421ED
:10380000344804F0BBFA0021AE20FFF723FC00216E
:103810000846FFF71FFC00211020FFF71BFC0021CA
:103820004020FFF717FC00218120FFF713FC002147
:10383000CF20FFF70FFC0021A120FFF70BFC002198
:10384000C820FFF707FC0021A620FFF703FC00219A
:10385000A820FFF7FFFB00213F20FFF7FBFB002123
:10386000D320FFF7F7FB00210846FFF7F3FB002109
:10387000D520FFF7EFFB00218020FFF7EBFB0021B5
:10388000D920FFF7E7FB0021F120FFF7E3FB002140
:10389000DA20FFF7DFFB00211220FFF7DBFB00211E
:1038A000DB20FFF7D7FB00214020FFF7D3FB0021EF
:1038B0002020FFF7CFFB00210220FFF7CBFB0021E8
:1038C0008D2009E000000000000000000000000062
:1038D0000000594000100240FFF7BCFB00211420FB
:1038E000FFF7B8FB0021A420FFF7B4FB0021A620BE
:1038F000FFF7B0FB0021AF20FFF7ACFB0021AF20AA
:10390000FFF7A8FBFFF70FFC1CBD2DE9F041804637
:103910000F461546002441E03819C1B24046FFF772
:10392000CFFB00260EE004EB440105EBC50201EBE2
:103930004201744A02EB0111885D0121FFF78AFB05
:10394000701CC6B2102EEEDB00260FE004EB440123
:10395000491C05EBC50201EB42016A4A02EB011169
:10396000885D0121FFF776FB701CC6B2102EEDDBDF
:1039700000260FE004EB4401891C05EBC50201EBB6
:103980004201604A02EB0111885D0121FFF762FBF1
:10399000701CC6B2102EEDDB601CC4B2062CBBDB63
:1039A000BDE8F0812DE9F04180460F461546002420
:1039B00047E03819C1B24046FFF782FB00260FE00E
:1039C00004EB4402691C01EBC10102EB41014D4AC9
:1039D00002EB0111885D0121FFF73CFB701CC6B2B0
:1039E000102EEDDB002610E004EB4401491C6A1C9C
:1039F00002EBC20201EB4201424A02EB0111885D77
:103A00000121FFF727FB701CC6B2102EECDB00264D
:103A100010E004EB4401891C6A1C02EBC20201EBBA
:103A20004201384A02EB0111885D0121FFF712FBC8
:103A3000701CC6B2102EECDB0A20FDF769FA601C80
:103A4000C4B2062CB5DBBDE8F0812DE9F04707468E
:103A5000884691469A46002522E000241CE008EBA7
:103A60000402D1B2102202FB0572D0B2FFF728FB8C
:103A700000260DE005EB84014944234A02EB811145
:103A800006EB0A02885C0121FFF7E4FA701CC6B25B
:103A9000102EEFDB601CC4B2082CE0DB681CC5B242
:103AA000042DDADBBDE8F0872DE9F04707468846AC
:103AB00091469A46002421E000251BE008EB040211
:103AC000D1B2102202FB0572D0B2FFF7F9FA00263C
:103AD0000CE005EBC401082202FB09110AEB0111FD
:103AE000885D0121FFF7B6FA701CC6B2102EF0DB1C
:103AF000681CC5B2082DE1DB601CC4B2082CDBDBFE
:103B0000BDE8F087BAF60008BACA0008421E02EB08
:103B10004202844B03EBC20292ED000A81ED000ADF
:103B2000421E02EB420203EBC20292ED010A81ED5A
:103B3000010A421E02EB420203EBC20292ED020AAC
:103B400081ED020A421E02EB420203EBC20292ED39
:103B5000030ABDEEC00A10EE102A12B20A82421EFB
:103B600002EB420203EBC20292ED040ABDEEC00A70
:103B700010EE102A12B24A82421E02EB420203EBFE
:103B8000C20292ED050A81ED030A704700B566494D
:103B90000120FFF7BBFF65490220FFF7B7FF64492B
:103BA0000320FFF7B3FF63490420FFF7AFFF00BD19
:103BB000D1ED030A00EE100AB8EEC00A30EEC00ADA
:103BC00081ED050A91ED080AD1ED050A30EE200AD3
:103BD00081ED080AD1ED080AB1F9102000EE102A93
:103BE000B8EEC00AF4EEC00AF1EE10FA02D291ED7E
:103BF000080A05E0B1F9102000EE102AB8EEC00A5C
:103C000081ED080AD1ED080AB1F9122000EE102A60
:103C1000B8EEC00AF4EEC00AF1EE10FA02DD91ED42
:103C2000080A05E0B1F9122000EE102AB8EEC00A29
:103C300081ED080A404A92ED000AF2EE040AB4EE61
:103C4000E00AF1EE10FA1FD292ED000AFAEE040A31
:103C5000B4EEE00AF1EE10FA16DD384A92ED000AF1
:103C6000F2EE040AB4EEE00AF1EE10FA0CD292ED94
:103C7000000AFAEE040AB4EEE00AF1EE10FA03DDEF
:103C80009FED2F0A81ED080A91ED000AD1ED050A9A
:103C900020EE200AD1ED010A91ED081A00EE810A0A
:103CA000D1ED050A91ED061A70EEC10A91ED021AE6
:103CB00001EE200A81ED090AD1ED090AB1F91020BF
:103CC00000EE102AB8EEC00AF4EEC00AF1EE10FAC7
:103CD00002D291ED090A05E0B1F9102000EE102A98
:103CE000B8EEC00A81ED090AD1ED090AB1F9122036
:103CF00000EE102AB8EEC00AF4EEC00AF1EE10FA97
:103D000002DD91ED090A05E0B1F9122000EE102A5A
:103D1000B8EEC00A81ED090A91ED050A81ED060AA7
:103D200070470000181A0020C8200020F020002052
:103D300018210020402100205400002058000020BD
:103D40000000000010B52DED048BF0EE408AB0EEBF
:103D5000608AB0EE419AF0EE619A0446FEF732FABC
:103D6000FE4890ED000AC0EE280AC0ED000AFC48AB
:103D700090ED000AC0EE280AC0ED000AF74890ED69
:103D8000000AF2EE040AB4EEE00AF1EE10FA0CD8E2
:103D900090ED000AFAEE040AB4EEE00AF1EE10FA31
:103DA00003DB9FEDF00A80ED000AED4890ED000A7C
:103DB000F2EE040AB4EEE00AF1EE10FA0CD890ED3F
:103DC000000AFAEE040AB4EEE00AF1EE10FA03DBA0
:103DD0009FEDE40A80ED000AF0EE690AB0EE490AB0
:103DE000E14890ED001ABDEEC11A11EE100A41B281
:103DF000DE4890ED001ABDEEC11A11EE100A40B275
:103E000001F055FBDA48006810281DD19FEDD90A52
:103E1000D94880ED000A9FEDD90AD94880ED000A03
:103E2000D54890ED000ABCEEC00A10EE101AD54835
:103E300003F0C1F8D24890ED000ABCEEC00A10EEC3
:103E4000101AD04803F0B9F8CF480078012843D1C0
:103E5000CE48007890B99FEDC30AC148D0ED000A62
:103E6000FDEEE00A10EE901ABC48D0ED000AFDEE1F
:103E7000E00A10EE900A01F075FA2DE0C3480078D0
:103E8000012812D1B1EE480AB548D0ED000AFDEE86
:103E9000E00A10EE901AB148D0ED000AFDEEE00AFB
:103EA00010EE900A01F05EFA16E0B84890F90000B2
:103EB000401C88B9B0EE480AA948D0ED000AFDEED2
:103EC000E00A10EE901AA548D0ED000AFDEEE00AD7
:103ED00010EE900A01F046FAA5480068092803D0C0
:103EE000A34800680A280BD104EBC40000EB0410BF
:103EF0004FF4FA7202EB8001A24803F060F803E08D
:103F00000021A04803F05BF8994800680B2802D014
:103F10000C2826D112E0B1EE480A9148D0ED000AF3
:103F2000FDEEE00A10EE901A8C48D0ED000AFDEE8E
:103F3000E00A10EE900A01F015FA25E0B0EE480A0A
:103F40008748D0ED000AFDEEE00A10EE901A834893
:103F5000D0ED000AFDEEE00A10EE900A01F002FA40
:103F600012E09FED800A7E48D0ED000AFDEEE00AE7
:103F700010EE901A7948D0ED000AFDEEE00A10EE3E
:103F8000900A01F0EFF900BF00BFBDEC048B10BD3B
:103F900010B5FFF70BFC3220FFF796F9FFF7C3F8D7
:103FA0007B490020FFF75FF96420FCF7B1FFFEF7C3
:103FB00000F810BD10B52DED028B76480078002872
:103FC00079D175480078022872D17448B0F90000A0
:103FD000734AB2F90020801A724AB2F90020724B7B
:103FE000B3F90030D21A801A00EE100AB8EEC00AF7
:103FF000DFED6E0A20EE200ADFED6D0A20EE600A8A
:1040000010EE101A084607F05BFA6A4A03C26348CA
:10401000B0F90000624AB2F90020801A614AB2F990
:104020000020614BB3F90030D21A104400EE100AA0
:10403000B8EEC00ADFED5D0A20EE200ADFED5C0A73
:1040400020EE200A10EE101A084607F039FA5A4AF4
:1040500003C25A4890ED000A10EE101A084607F005
:104060002FFA41EC180B02230322B0EE480AF0EEBF
:10407000680A00213A20FFF718FA02231A4650482E
:1040800090ED000B19464120FFF70FFA022305229D
:10409000484890ED000B04211420FFF706FA022394
:1040A0000522454890ED000B06211420FFF7FDF98D
:1040B0000120384908703748007801280CD1414860
:1040C0000078401C3F49087008460078022803DB4E
:1040D000002008702F490870BDEC028B10BD70B530
:1040E00004460D46601E00EBC000C4B204F1090096
:1040F000C2B22B4600210846FFF7D6FC0A20FCF787
:1041000007FF04F10800C2B22B4600210846FFF762
:10411000CBFC1420FCF7FCFEE01DC2B22B460021B4
:104120000846FFF7C1FC1E20FCF7F2FEA01DC2B23C
:104130002B4600210846FFF7B7FC2820FCF7E8FED5
:10414000601DC2B22B4600210846FFF7ADFC3220AD
:10415000FCF7DEFE201DC2B22B4635E054000020E5
:104160005800002000000000600000205C000020DB
:104170006400002000003443401B00200000EA429D
:10418000441B002000000140F11A0020F01A00201A
:10419000BAF600082E1B0020F21A0020161A002082
:1041A000121A0020101A0020141A0020F304353FC0
:1041B00034D9BF3CF81A0020001B00204822002000
:1041C000080000202D1B002000210846FFF76CFC92
:1041D0002820FCF79DFEE01CC2B22B4600210846B9
:1041E000FFF762FC1E20FCF793FEA01CC2B22B4618
:1041F00000210846FFF758FC1420FCF789FE601CDC
:10420000C2B22B4600210846FFF74EFC0A20FCF7FD
:104210007FFE22462B4600210846FFF745FC70BD75
:1042200070B504460D46601E00EBC000C4B2601CB1
:10423000C2B22B4600210846FFF736FC0F20FCF7E0
:1042400067FEA01CC2B22B4600210846FFF72CFCDB
:104250001E20FCF75DFEE01CC2B22B460021084682
:10426000FFF722FC2D20FCF753FE201DC2B22B4687
:1042700000210846FFF718FC3220FCF749FE601DBC
:10428000C2B22B4600210846FFF70EFC2D20FCF79A
:104290003FFEA01DC2B22B4600210846FFF704FCDA
:1042A0001E20FCF735FEE01DC2B22B460021084659
:1042B000FFF7FAFB0F20FCF72BFE04F10800C2B257
:1042C0002B4600210846FFF7EFFB0F20FCF720FEEE
:1042D00004F10900C2B22B4600210846FFF7E4FBB7
:1042E00070BD10B50446601E00EBC000C4B2601C77
:1042F000C2B2FE4B00210846FFF7D6FB0F20FCF7A9
:1043000007FEA01CC2B2F94B00210846FFF7CCFB08
:104310001E20FCF7FDFDE01CC2B2F44B0021084654
:10432000FFF7C2FB2D20FCF7F3FD201DC2B2EF4BBF
:1043300000210846FFF7B8FB3220FCF7E9FD601DBD
:10434000C2B2EA4B00210846FFF7AEFB2D20FCF776
:10435000DFFDA01DC2B2E54B00210846FFF7A4FB1C
:104360001E20FCF7D5FDE01DC2B2E04B002108463F
:10437000FFF79AFB0F20FCF7CBFD04F10800C2B257
:10438000DA4B00210846FFF78FFB0F20FCF7C0FD3A
:1043900004F10900C2B2D54B00210846FFF784FBA7
:1043A00010BD10B5D24890F9000005287ED2DFE894
:1043B00000F0031E39548100072300228021402091
:1043C000FEF708FF122202214020FEF78DFF132284
:1043D00002215020FEF788FF142202216020FEF700
:1043E00083FF152202217020FEF77EFF7EE0072367
:1043F000002280214020FEF7EDFE162202214020FF
:10440000FEF772FF172202215020FEF76DFF0C22EB
:1044100002216020FEF768FF0D2202217020FEF7C6
:1044200063FF63E00723002280214020FEF7D2FED5
:10443000182202214020FEF757FF192202215020A6
:10444000FEF752FF1A2202216020FEF74DFF1B22C9
:1044500002217020FEF748FF48E007230022802158
:104460004020FEF7B7FE332202214020FEF73CFF3A
:10447000342202215020FEF737FF3522022160202E
:10448000FEF732FF362202217020FEF72DFF0523B2
:10449000042270216020FEF79DFE37220421602057
:1044A000FEF722FF38220421702000E01DE0FEF715
:1044B0001BFF1BE00723002280214020FEF78AFE1D
:1044C0001C2202214020FEF70FFF1D220221502056
:1044D000FEF70AFF1E2202216020FEF705FF1F22C1
:1044E00002217020FEF700FF00E000BF00BF10BDFA
:1044F00010B5044604EBC400C4B27E48007800281E
:104500006DD104F109008006020E002319461846F9
:10451000FFF79BFA0A20FCF7FBFC04F10800800679
:10452000020E002319461846FFF78FFA1420FCF7F5
:10453000EFFCE01D8006020E002319461846FFF727
:1045400084FA1E20FCF7E4FCA01D8006020E002366
:1045500019461846FFF779FA2820FCF7D9FC601DA8
:104560008006020E002319461846FFF76EFAFFF781
:1045700018FF3220FCF7CCFC201D8006020E002321
:1045800019461846FFF761FA2820FCF7C1FCE01C29
:104590008006020E002319461846FFF756FA1E2021
:1045A000FCF7B6FCA01C8006020E00231946184634
:1045B000FFF74BFA1420FCF7ABFC601C8006020EE0
:1045C000002319461846FFF740FA0A20FCF7A0FC22
:1045D000A006020E002319461846FFF736FA10BD52
:1045E00010B50446601E00EBC000C4B2424800781B
:1045F000002857D1601C8006020E00231946184679
:10460000FFF723FA0F20FCF783FCA01C8006020EA4
:10461000002319461846FFF718FA1E20FCF778FC0D
:10462000E01C8006020E002319461846FFF70DFA1B
:104630002820FCF76DFC201D8006020E0023194681
:104640001846FFF702FAFFF7ACFE2D20FCF760FCDE
:10465000601D8006020E002319461846FFF7F5F983
:104660002820FCF755FCA01D8006020E00231946E9
:104670001846FFF7EAF91E20FCF74AFCE01D800609
:10468000020E002319461846FFF7DFF90F20FCF74A
:104690003FFC04F109008006020E0023194618466B
:1046A000FFF7D3F910BD10B50446601E00EBC00043
:1046B000C4B204F10900C2B20C4B00210846FFF756
:1046C000F3F90A20FCF724FC04F10800C2B2074BFE
:1046D00000210846FFF7E8F91420FCF719FCE01D5B
:1046E000C2B2024B0021084608E00000BAF60008FA
:1046F000181B00201C1B00201B1B0020FFF7D4F9F7
:104700001E20FCF705FCA01DC2B2FE4B002108468E
:10471000FFF7CAF92820FCF7FBFB601DC2B2F94B7A
:1047200000210846FFF7C0F93220FCF7F1FB201DFD
:10473000C2B2F44B00210846FFF7B6F92820FCF777
:10474000E7FBE01CC2B2EF4B00210846FFF7ACF9D3
:104750001E20FCF7DDFBA01CC2B2EA4B002108467C
:10476000FFF7A2F91420FCF7D3FB601CC2B2E54BA3
:1047700000210846FFF798F90A20FCF7C9FB2246FA
:10478000E04B00210846FFF78FF910BD08B5DE4861
:10479000007880BBDD48007820B1FDF7B0FCDC4933
:1047A000086003E0FDF781FED9490860D9484078E8
:1047B000012820D1D64800680F281CD10020D549F7
:1047C0004870012008700020D34908700220FFF7CC
:1047D0006AFF0523042270216020FEF7FBFC0820FD
:1047E0000090CE480278012304216020FEF711FEDC
:1047F0000120C5490870C448007801287ED1C3480B
:10480000007820B1FDF77BFCC149086003E0FDF7AB
:104810004CFEBF490860BF48007818BBBC48006820
:104820000E281FD10020BE490870BC490870012025
:10483000B84908700020B84908700120FFF751FD01
:104840000523042270216020FEF7C4FC082000909C
:10485000B248B34991F90010425C01230421602061
:10486000FEF7D7FDAF480078062811DBA94800788D
:10487000012809D1A64800680F2805D10020A549C4
:1048800008700120FFF70FFF0020A649087004E020
:10489000A4480078401CA34908709E48007801286D
:1048A000ACD19D4800780028A8D19F480078042802
:1048B0000DDB9B4890F90000042808DA2822042127
:1048C0005020FEF711FD0020974908700AE00523EB
:1048D000042260215020FEF77DFC93480078401CA4
:1048E000914908708A480068062874D18C4890F96C
:1048F000000030B1012826D0022800E0BAE168D1DA
:1049000043E086480078401C8449087008460078D7
:10491000052801DB052001E0804800787F49087008
:104920000523042270216020FEF754FC082000902B
:104930007A487B4991F90010425C012304216020F0
:10494000FEF767FD46E075484078401C73494870A3
:1049500008464078052801DB052001E06F484078D3
:104960006E4948700523042270216020FEF732FC56
:104970000820009069486A4991F90010425C0123BF
:1049800004216020FEF745FD24E064488078401C47
:104990006249887008468078092801DB092001E017
:1049A0005E4880785D49887005230422702160206C
:1049B000FEF710FC082000905848594991F9001062
:1049C000425C012304216020FEF723FD02E002E0A7
:1049D000FFE700BF00BF4E480068082870D150486C
:1049E00090F9000020B1012824D0022866D143E0CC
:1049F0004A480078401E4949087008460078012856
:104A000001DC012001E04548007844490870052395
:104A1000042270216020FEF7DDFB082000903F4853
:104A20003F4991F90010425C012304216020FEF708
:104A3000F0FC44E039484078401E38494870084648
:104A40004078012801DC012001E0344840783349F6
:104A500048700523042270216020FEF7BBFB08206C
:104A600000902E482E4991F90010425C0123042148
:104A70006020FEF7CEFC22E028488078401E2749BF
:104A8000887008468078012801DC012001E0234875
:104A90008078224988700523042270216020FEF767
:104AA00099FB082000901D481D4991F90010425CB7
:104AB000012304216020FEF7ACFC00E000BF00BF32
:104AC00013480068052802D0072872D155E0144821
:104AD00090F9000015490978884201D1012000E0D1
:104AE0000020134908700E480078401C40B20C4961
:104AF0000870084690F900000C49097888421BDBD1
:104B00000A4817E0BAF600081F1B002071000020B9
:104B100064000020241B0020F21A0020291B002022
:104B2000181B00201E1B00201D1B0020191B00202D
:104B30001B1B0020007802E0FE4890F9000040B204
:104B4000FC4908700878FFF74BFDFA4890F900001F
:104B5000032811DA0523042270216020FEF73AFBB6
:104B600008200090F448F34991F90010425C0123B9
:104B700004216020FEF74DFC3EE0EE4890F9000075
:104B8000EE490978884201D1012000E00020EC497B
:104B90000870E8480078401E40B2E64908700846B0
:104BA00090F90000E5490978884203DCE348007881
:104BB00003E020E0DF4890F9000040B2DD490870D2
:104BC0000878FFF795FCDB4890F90000032811DA1C
:104BD0000523042270216020FEF7FCFA08200090D3
:104BE000D548D44991F90010425C0123042160208A
:104BF000FEF70FFC00E000BF00BFD24800680E289F
:104C00001AD1CC480078B8B9CB480078A0B1CE48CA
:104C100090ED000ACD4880ED030A0120CC49487090
:104C20000220CC4908700120CB4908700020CB49F4
:104C300008700220FFF755FBC24800680E280AD111
:104C4000BC480078032806D1C5490120FFF7E8FADF
:104C50000220C2490870BB4800680E280AD1B54836
:104C60000078042806D1BF490120FFF7D9FA0320B4
:104C7000BA490870B948007802287DD1BA4800784E
:104C800020B1FDF73CFAAF49086003E0FDF70DFCE9
:104C9000AC490860AB480068052826D0072849D1F0
:104CA000B2480078801C40B2B0490870084690F9BC
:104CB0000000062801DD062002E0AC4890F9000063
:104CC000AA49087008460078401EC3B2084600781A
:104CD000801EC2B210210020FEF77CFAA3480178A2
:104CE00028220020FEF700FB25E0A0480078801E67
:104CF00040B29E490870084690F90000012801DC86
:104D0000002002E0994890F9000098490870084690
:104D10000078C01CC3B208460078801CC2B21021C3
:104D20000020FEF757FA9148017828220020FEF76C
:104D3000DBFA00E000BF00BF8C4890F9000030B102
:104D4000022836D0042864D0062864D162E07D4869
:104D50000068062818D185480078401CC3B28348F3
:104D6000027878216820FEF735FA8048017812220F
:104D70006820FEF7B9FA00E043E101207C490870A1
:104D800048707C49087013E06E48006808280FD10D
:104D900076480078401CC3B27448027878216820B5
:104DA000FEF718FA714801781C226820FEF79CFA79
:104DB00032E064480068062813D16C480078401C33
:104DC000C3B26A48027870216020FEF703FA674890
:104DD000017812226020FEF787FA012066490870E8
:104DE00016E058480068082812D160480078401C36
:104DF000C3B25E48027870216020FEF7EBF95B4891
:104E000001781C226020FEF76FFA00205A490870D2
:104E100002E001E000E000BF00BF56480078012832
:104E20007ED1412206211020FEF75EFA42220621A1
:104E30002020FEF759FA322206213020FEF754FADC
:104E40004B48007800286BD149484078002867D14A
:104E50000723062270211020FEF7BCF9012300224F
:104E600080211020FEF7B6F92C2200211020FEF739
:104E70003BFA2D2200212020FEF736FA39220021AC
:104E80003020FEF731FA3A2200214020FEF72CFABA
:104E90003B2200215020FEF727FA3C22002160200F
:104EA000FEF722FA97E03048007820B1FDF727F9A5
:104EB0002449086003E0FDF7F8FA22490860214818
:104EC00000680E2862D10123002280211020FEF705
:104ED00081F9392200211020FEF706FA3A2200213A
:104EE0002020FEF701FA322200213020FEF7FCF9E3
:104EF000FCF70DFC0123002280211020FEF76AF947
:104F0000392200211020FEF7EFF93A22002120205B
:104F1000FEF7EAF93D2200213020FEF7E5F900E036
:104F200060E03E2200214020FEF7DEF90120134917
:104F3000087025E0181B0020291B00201A1B0020E8
:104F40001C1B002064000020482200206821002053
:104F5000241B0020F21A0020F61A00201F1B00203C
:104F60003ABE0008BAB5000871000020201B0020DE
:104F7000F4000020221B0020211B0020231B002006
:104F8000FCF722FC3220FBF7C3FF25E05048006805
:104F90000F2820D10123002280211020FEF71AF9CA
:104FA0003F2200211020FEF79FF9402200212020FF
:104FB000FEF79AF9392200213020FEF795F93A22BE
:104FC00000214020FEF790F9FF204249087032206E
:104FD000FBF79EFF00E066E700BF00203E498870B7
:104FE0003E4908703A4800680F280AD13C480078CA
:104FF000032806D13B490120FFF771F801203A4907
:10500000087039480078032816D13848007820B154
:10501000FDF775F82E49086003E0FDF746FA2C49C4
:1050200008602B4800680F2806D131490120FFF79E
:1050300056F801202C49087008BD10B52D4800789D
:10504000022834D12C480078012840D12B49097816
:105050002A4A527811FB02F1490002EE101AB8EE0A
:10506000C22AF0EE421A25490978244A527811FBE7
:1050700002F1490002EE101AB8EEC22AB0EE421A4E
:105080001E494878097802EE101AB8EEC22AF0EEEE
:10509000420A1A490978C1F10501490002EE101AC5
:1050A000B8EEC22AB0EE420AFEF74CFE0FE0002135
:1050B000134801F080FF0021114801F07EFF00211C
:1050C0000F4801F07CFF00210D4801F07AFF10BD70
:1050D00064000020231B0020F4000020221B00207D
:1050E000181B00203ABE00081F1B00207100002082
:1050F000BAB50008F21A0020F61A0020291B002079
:1051000000040140F0EE400AF6EE001A60EEA11A2B
:10511000B0EE611AB0EE600A10EE100AFC49A1EB85
:10512000600000EE100A21EE002AF7EE081A42EEA7
:10513000401A61EE801AB0EE610A704770B52DED2D
:105140000C8B05460C461646F0EE409A05FB05F022
:1051500004FB040000EE900AF8EEE00AB0EE600AEC
:10516000FFF7D0FFB0EE408A05FB06F000EE100A14
:10517000B8EEC00AC0EE080AF0EE608A04FB06F042
:1051800000EE100AB8EEC00AC0EE080AB0EE609A4F
:10519000E048C0ED038AB1EE680ADF4880ED030AFB
:1051A000B1EE490ADD4880ED030ADD4880ED039A3F
:1051B0007DE0DC48B0F9000005F06FFE41EC1D0B0E
:1051C000B0EE4D0AF0EE6D0A05F03AFAB0EE40BAD4
:1051D000F0EE60BAD448B0F9000005F05EFE41EC94
:1051E0001D0BB0EE4D0AF0EE6D0A05F029FAB0EE97
:1051F00040CAF0EE60CA53EC1B2B51EC1C0B05F0BF
:10520000E3FB41EC1A0B05F01BFEC8490880C848B7
:10521000B0F9000005F041FE41EC1D0BB0EE4D0A67
:10522000F0EE6D0A05F00CFAB0EE40BAF0EE60BA9E
:10523000C048B0F9000005F030FE41EC1D0BB0EEA7
:105240004D0AF0EE6D0A05F0FBF9B0EE40CAF0EE43
:1052500060CA53EC1B2B51EC1C0B05F0B5FB41EC69
:105260001A0B05F0EDFDB4490880B048008885426E
:105270000CDC9FEDB20AA74880ED030A9FEDAF0A50
:10528000A54880ED030A0120AD490870AA480088AE
:1052900084420CDC9FEDA90AA04880ED030A9FED33
:1052A000A70A9F4880ED030A0120A6490870A44878
:1052B0000078A4490978084402287FF47AAF0020D6
:1052C0009F4908709F490870BDEC0C8B70BD10B5EC
:1052D00003460C46B0EE405AE01A00EE100AB8EE53
:1052E000C00ADFED990A80EE201AF0EE412A00EEA6
:1052F000103AF8EEC00A9FED941AB0EE620A00EE82
:10530000810AF0EE404A64EEA40A42EEA20AB0EE30
:10531000600AFFF7F7FEB0EE403A00EE102AB8EE52
:10532000400A24EE800AC0EE030AF0EE603A00EE76
:10533000102AB8EE400A22EE800AC0EE030AB0EE50
:10534000604A7448C0ED033AB1EE630A724880EDDA
:10535000030A724880ED034AB1EE440A704880EDBA
:10536000030A10BDB0EE401AF0EE0C2A61EE222ABC
:10537000764AC2ED032A0A1A02EE902AF8EEE22AD1
:105380009FED713AC2EE833AB0EE630A02EE900AE4
:10539000B8EEE23ADFED6C3AF0EE402A43EE232A13
:1053A000F0EE620AF0EE601AB0EE402A674AD2EDE3
:1053B000032A72EEA12A574AC2ED032A634AD2EDAC
:1053C000032AB1EE613A72EE832A534AC2ED032AF0
:1053D0005E4AD2ED032AB1EE423A72EE832A4F4A78
:1053E000C2ED032A594AD2ED032A72EE822A4C4AB0
:1053F000C2ED032A7047554AD2ED030A9FED541AB5
:1054000041EE000AC2ED030A00EE900AF8EEE00A4F
:10541000504AC2ED000A00EE901AF8EEE00A4E4A39
:10542000C2ED000A4B4AD2ED000A4B4A92ED001A37
:1054300070EE810A494A92ED091A70EE810A374AE4
:10544000C2ED030A434AD2ED000A434A92ED001A24
:1054500070EEC10A414A92ED091A70EE810A2D4A96
:10546000C2ED030A3B4AD2ED000AF1EE600A3A4A65
:1054700092ED001A70EEC10A384A92ED091A70EEE8
:10548000810A274AC2ED030A324AD2ED000AF1EE40
:10549000600A314A92ED001A70EE810A2F4A92EDAD
:1054A000091A70EE810A1C4AC2ED030A704770B5F2
:1054B0002DED028B04460D46B0EE408AF0EE608A78
:1054C00015F1640F02DAB1EE480A01E0B0EE480AC5
:1054D000B0EE408A642D05DA15F1640F02DD9FED10
:1054E000170A01E0B0EE480AB0EE408A642C02DDF3
:1054F000B1EE680A01E0B0EE680AF0EE408A642C72
:105500002EDA14F1640F2BDD9FED0C0A2AE0000067
:10551000DF59375FF020002040210020C820002004
:10552000182100200E1A00200A1A0020321B002029
:105530000C1A0020081A0020341B00200000000074
:10554000301B0020311B0020F304B53F68210020F0
:105550000AD7A33B481B00204C1B002090210020B1
:10556000B0EE680AF0EE408A5748007800287BD1F8
:10557000564890ED000ADFED560A00EE880A80EDED
:10558000000A544890ED000ADFED510A00EEA80A27
:1055900080ED000A4D4890ED000ADFED4F0AB4EEB1
:1055A000E00AF1EE10FA02DD9FED4C0A02E04748F6
:1055B00090ED000A454880ED000A90ED000ADFED0D
:1055C000480AB4EEE00AF1EE10FA02D29FED450A65
:1055D00002E03E4890ED000A3C4880ED000A3D485C
:1055E00090ED000ADFED400AB4EEE00AF1EE10FAA9
:1055F00002DD9FED3E0A02E0364890ED000A354894
:1056000080ED000A90ED000ADFED390AB4EEE00A01
:10561000F1EE10FA02D29FED370A02E02D4890ED2C
:10562000000A2C4880ED000A90ED000ABDEEC00A89
:1056300010EE100A3C2805D0B42807D101202E49CD
:10564000087007E0FF202C49087003E000202A4979
:10565000087000BF00BF052C07DA14F1050F04DD48
:1056600000202649087003E019E001202349087052
:10567000164890ED000ABCEEC00A10EE101A204841
:1056800001F099FC134890ED000ABCEEC00A10EE40
:10569000101A1B4801F091FC01200B4908700A48C0
:1056A000007801280CD117480078401C1549087073
:1056B000084600780A2803DB0020087002490870B9
:1056C000BDEC028B70BD0000511B0020401B002070
:1056D0006666663F441B0020000076430000754369
:1056E0000000844200008242000033430000344343
:1056F0000000744200007042F01A0020F11A0020ED
:1057000000000140501B002010B5FFF796FC01205F
:1057100010BD10B5FFF73AF8012010BD10B52DED02
:10572000048B194890ED000B51EC100B05F01AF9A1
:1057300008EE100A154890ED000B51EC100B05F027
:1057400011F908EE900A124890ED000B51EC100B85
:1057500005F008F909EE100A0E4890ED000AF0EE87
:10576000401AB0EE481AF0EE680AB0EE490AFCF7AB
:10577000EBFFFEF71FFCFAF7E7FEFCF7B4FE012093
:10578000BDEC048B10BD000008000020001B0020B1
:10579000F81A00204822002010B537480078022867
:1057A00069D136480078002854D10120FBF78BFEE0
:1057B00000B2334908800220FBF785FE00B2314970
:1057C00008800320FBF77FFE00B22F4908800420E9
:1057D000FBF779FE00B22D4908802D492848B0F921
:1057E0000000FEF7E5F92B492648B0F90000FEF766
:1057F000DFF929492448B0F90000FEF7D9F9274913
:105800002248B0F90000FEF7D3F9FBF72BFC24483F
:1058100000881B490988084400B2214908802148B2
:10582000008818490988084400B21E4908801E48AB
:10583000008815490988084400B21B4908801B48A4
:10584000008812490988084400B2184908800120DC
:105850000A4908700948007801280CD114480078DA
:10586000401C1349087008460078042803DB002018
:1058700008700249087010BDF21A0020531B002066
:10588000081A00200A1A00200C1A00200E1A002004
:10589000C8200020F02000201821002040210020F6
:1058A000101A0020121A0020141A0020161A0020C4
:1058B000521B002000B52DED108B87B0F0EE408A12
:1058C000B0EE609AF0EE419AB0EE61BAB0EE42AA44
:1058D000F0EE62AAFC4890ED000A20EE000AB0EE5D
:1058E00040FAFA4890ED000A20EE000AF0EE40FA85
:1058F000F74890ED000A20EE000A8DED060AF54803
:1059000090ED000AF048D0ED000A20EE200A8DED5F
:10591000050AF04890ED000AEC48D0ED000A20EEB0
:10592000200A8DED040AEB4890ED000AE848D0ED1E
:10593000000A20EE200A8DED030AE34890ED000AEC
:10594000E248D0ED000A20EE200A8DED020ADE4882
:1059500090ED000ADE48D0ED000A20EE200A8DED21
:10596000010ADA4890ED000AD948D0ED000A20EE8D
:10597000200A8DED000AB7EE000AF0EE000A00EEF4
:10598000EF0ADDED060AB0EE001A01EE600AD24819
:1059900080ED000A9DED020ADDED030AF1EE600ADA
:1059A00030EE200AF0EE000A20EE200A80ED010A17
:1059B0009DED010ADDED040AF1EE600A30EE600AA9
:1059C000F0EE000A20EE200A80ED020A9DED020AA8
:1059D000DDED030AF1EE600A30EE600AF0EE000A37
:1059E00020EE200A80ED030AB7EE000AF0EE000A6E
:1059F00000EECF0ADDED060AB0EE001A01EE600AF5
:105A000080ED040A9DED000ADDED050AF1EE600A65
:105A100030EE200AF0EE000A20EE200A80ED050AA2
:105A20009DED010ADDED040AF1EE600A30EE200A78
:105A3000F0EE000A20EE200A80ED060A9DED000A35
:105A4000DDED050AF1EE600A30EE600AF0EE000AC4
:105A500020EE200A80ED070AB7EE000AF0EE000AF9
:105A600000EECF0AF0EE000A00EEEF0A80ED080A21
:105A70006BEE0B0A4AEE0A0A4AEEAA0AB0EE600A78
:105A800000F0A8FAB0EE408A2BEE080AB0EE40BA59
:105A90002AEE080AB0EE40AA2AEE880AF0EE40AAE2
:105AA0008D4890ED080A20EE0A0AD0ED070A0AEEAA
:105AB000E00AF0EE40DA90ED060A20EE2A0AD0ED78
:105AC000080A0BEE600AB0EE40EA90ED070A20EEFD
:105AD0000B0AD0ED060A0AEE600AF0EE40EA7F48B3
:105AE00090ED000ADFED7E0A0DEEA00A80ED000ABF
:105AF0007C4890ED000ADFED7A0A0EEE200A80ED78
:105B0000000A794890ED000ADFED750A0EEEA00A52
:105B100080ED000AF0EE000AB0EE680A00EEAD0A71
:105B20006E48D0ED000A30EE200AF0EE408AF0EE2A
:105B3000000AB0EE490A00EE8E0A6A48D0ED000A6B
:105B400030EE200AB0EE409AF0EE000AB0EE690A9C
:105B500000EEAE0A6448D0ED000A30EE200AF0EE06
:105B6000409A5C4890ED000AF0EE40BA564890ED3D
:105B7000000AB0EE40CA554890ED000AF0EE40CA67
:105B8000534890ED000AB0EE40DAB1EE4C0A20EE38
:105B9000280A0CEEC90A0DEE690A9FED541AF0EEC0
:105BA0006B0A40EE010A4B48C0ED000A2BEEA80A32
:105BB0000CEEA90A0DEE490A9FED4C1AF0EE4C0AC4
:105BC00040EE010A4048C0ED000A2BEE890A0CEEB7
:105BD000690A0DEE280A9FED451AF0EE6C0A40EEB8
:105BE000010A3A48C0ED000A2BEEA90A0CEE090A98
:105BF0000CEEE80A9FED3D1AF0EE4D0A40EE010A68
:105C00003348C0ED000A3348D0ED000A60EEA00A28
:105C10002D4890ED001AD0ED001A41EE210A2B48D4
:105C200090ED001AD0ED001A41EE210A284890EDBF
:105C3000001AD0ED001A41EE210AB0EE600A00F021
:105C4000C9F9B0EE408A234890ED000A20EE080A18
:105C500080ED000A1C4890ED000A20EE080A80ED55
:105C6000000A1A4890ED000A20EE080A80ED000AAA
:105C7000174890ED000A20EE080A80ED000A1C4843
:105C8000B0F90400032805DC1948B0F9040010F14C
:105C9000030F14DA174890ED000A1548B0F9040014
:105CA00000EE900AF8EEE00A9FED131A60EE810A0A
:105CB0009FED121A00EEC10A0E4880ED000A07B0EF
:105CC000BDEC108B00BD0000581B00205C1B0020A9
:105CD000601B0020541B0020E0210020641B0020DA
:105CE0000AD7233C681B00206C1B00206F12033A6C
:105CF000941B002048220020F1FF793D6F12833A67
:105D000010B52DED0A8B0446604890ED000A20EE98
:105D1000000A5F48D0ED000A90ED001A00EEC10ABB
:105D20005C48D0ED000A90ED001A00EEC10A5A4816
:105D3000D0ED000A90ED001A00EE810A10EE101A64
:105D4000084605F0BDFB41EC1B0B504890ED000AE6
:105D50004F48D0ED000A20EE200A4E48D0ED000A50
:105D60004D4890ED001A00EE810AF0EE000A20EE98
:105D7000200A10EE101A084605F0A2FB41EC1C0B9D
:105D8000B0EE4B1AF0EE6B1AB0EE4C0AF0EE6C0A65
:105D900004F05EFBB0EE40AAF0EE60AA51EC1A0BE4
:105DA00004F0D4FD41EC190B9FED3C0B53EC102B90
:105DB00005F0C6F841EC180B04F0D4FD60603348E0
:105DC00090ED000A3348D0ED000A20EE200A30485A
:105DD000D0ED000A304890ED001A00EEC10AF0EE56
:105DE000000A20EE200A10EE101A084605F068FBA3
:105DF00041EC1A0BB0EE4A0AF0EE6A0A04F00CF815
:105E0000B0EE409AF0EE609A9FED240B53EC102B0D
:105E100051EC190B05F094F841EC180B04F0A2FDBD
:105E2000A060BDEC0A8B10BD10B51E48407860BB69
:105E30001C48007848BB1C48B0F9040003EE100A67
:105E4000B8EEC33AF0EE432A1748B0F9020003EE69
:105E5000100AB8EEC33AB0EE432A1348B0F9000076
:105E600003EE100AB8EEC33AF0EE431A0F4890ED75
:105E7000023AB0EE431A90ED013AF0EE430A90ED8B
:105E8000003AB0EE430AFFF715FD10BD541B002089
:105E9000581B00205C1B0020601B0020000000201D
:105EA000DCA54C40F4000020881B002010220020BC
:105EB00010B52DED048B55A002F038FFFAF7FEFA6D
:105EC000044604F0EAFF41EC190B9FED540B53EC30
:105ED000102B04F02DFE41EC180B04F043FD51494A
:105EE00008600846006805F0EBFA41EC180B53EC2B
:105EF000182B4DA002F01AFFFDF713F84E4880ED65
:105F0000000A006805F0DCFA41EC180B53EC182B82
:105F10004AA002F00BFFBDEC048B10BD10B50020B1
:105F2000FAF702FA4A49087008460078A8B108460C
:105F30000078012806D0022805D004280CD1FFF7EC
:105F4000B7FF09E008E04348007808B9012000E005
:105F500000204049087000BF00BF10BD10B54FF4CD
:105F6000A06000F0ABF8A820FAF770FF3A48FAF703
:105F700036FC4FF4E130FAF7C5FEFBF79BFDFBF76B
:105F8000C5FDFBF74AFEFAF7B1F9FAF723FAFBF77A
:105F90004DF9FBF7A4F9FBF7EFF9FBF747FA5321AB
:105FA00040F2E730FAF7D4FFFCF716FE012802D1E1
:105FB0002AA002F0BBFEFDF7EBFFFDF7E7FDFBF7C4
:105FC00003FC532140F2E730FBF74EFE0120294944
:105FD000087010BDF0EE400AF6EE001A60EEA11A4D
:105FE000B0EE611AB0EE600A10EE100A2249A1EB81
:105FF000600000EE100A21EE002AF7EE081A42EEC9
:10600000401A61EE801AB0EE610A7047B6C1C8A1AD
:10601000435055CEC2B6C80D0A0000000000000073
:1060200000005940A81B0020435055CEC2B6C820DE
:1060300025660D0A0D0A0000AC1B0020CDD3C2DD81
:10604000D2C7CEC2B6C82025660D0A0D0A000000D0
:10605000A71B0020A61B002020A10700494D55B317
:10606000F5CABCBBAFB3F5CABCBBAFB3C9B9A60DCB
:106070000A000000B01B0020DF59375F0948804745
:1060800009480047FEE7FEE7FEE7FEE7FEE7FEE71A
:10609000FEE7FEE7FEE7FEE704480549054A064B32
:1060A00070470000F58B0008890100084823002094
:1060B0004829002048250020482500203249014376
:1060C000324A1160704770B5002100230F22C47856
:1060D0001CB32E4C246804F4E064C4F5E064C4F3FB
:1060E0000721C1F10404E3B20A4144789C40E1B2C3
:1060F0008478144021430C07210E254C0578615506
:10610000047804F01F050124AC4005786D11AD0042
:1061100005F1E025C5F8004109E0047804F01F0509
:106120000124AC401B4D0678761145F8264070BD21
:10613000194A0A400243154B1B1F1A60704739B1B8
:10614000124A121D12680243104B1B1D1A6006E012
:106150000E4A121D126882430C4B1B1D1A607047B9
:10616000042808D14FF0E021096941F004014FF003
:10617000E022116107E04FF0E021096921F00401FC
:106180004FF0E022116170470000FA050CED00E0CD
:1061900000E400E080E100E080FFFF1F10B5012176
:1061A000080202F0BCF800214FF4807002F0B7F84A
:1061B00010BD30B50246002000235068F84C204046
:1061C0000D790C6844EA0524204350609068F54C32
:1061D0002040D1E903542C438D682C434D7944EA87
:1061E000450420439060D06A20F470000C7D641E4A
:1061F000E4B2234340EA0350D06230BD0021016085
:10620000017141718160C1600161012101757047B7
:106210000021E54A1168E54A1140D0E900231A43FC
:1062200083681A43C3681A431143E14AC2F804134E
:1062300070470021016041608160C160704721B1F9
:10624000826842F00102826003E0826822F001026B
:10625000826070470A4600214168D64B19401143BD
:10626000416070474162826270470A46002141687E
:1062700021F01F0111434160704738B1CA490968D4
:1062800041F40001CA4AC2F8041306E0C64909688D
:1062900021F40001C64AC2F80413704738B1C2495C
:1062A000096841F48001C24AC2F8041306E0BE49FD
:1062B000096821F48001BE4AC2F804137047F0B5A2
:1062C00004460D4600200021092D11DDE068A5F1EE
:1062D0000A0606EB4607072606FA07F18843A5F1EA
:1062E0000A0606EB460603FA06F10843E0600CE0F6
:1062F000206905EB4507072606FA07F1884305EBF9
:10630000450603FA06F108432061072A0FDA606B9D
:10631000561E06EB86071F2606FA07F18843561E0F
:1063200006EB860605FA06F10843606322E00D2AB3
:106330000FDA206BD61F06EB86071F2606FA07F139
:106340008843D61F06EB860605FA06F1084320634C
:1063500010E0E06AA2F10D0606EB86071F2606FA9A
:1063600007F18843A2F10D0606EB860605FA06F151
:106370000843E062F0BD816841F080418160704770
:10638000014600208A6802F080420AB1012000E044
:106390000020704721B1826842F48062826003E08D
:1063A000826822F480628260704721B1826842F084
:1063B0000202826003E0826822F00202826070477B
:1063C00010B50A4600210023416821F46041531EA4
:1063D00041EA4331416010BD21B1426842F400629C
:1063E000426003E0426822F4006242607047014666
:1063F000C86C80B270476C48001D0068704721B1BE
:10640000826842F48072826003E0826822F48072C3
:106410008260704721B1826842F40072826003E0BA
:10642000826822F400728260704738B15E49096860
:1064300041F400515E4AC2F8041306E05A49096863
:1064400021F400515A4AC2F804137047F0B50446CB
:106450001546002000220026092911DDE068A1F17F
:106460000A0707EB470C072707FA0CF29043A1F144
:106470000A0707EB470703FA07F21043E0600CE056
:10648000206901EB410C072707FA0CF2904301EB5E
:10649000410703FA07F210432061A06BC0F30156D5
:1064A000EF1C06F1010CA7EB0C0707EB870C1F276D
:1064B00007FA0CF29043EF1C06F1010CA7EB0C0756
:1064C00007EB870701FA07F21043A063F0BD10B590
:1064D0000A4600210023816B21F44011531E41EA3A
:1064E0000351816310BD08B5002300930090009B09
:1064F0000B440093009B1A6008BD0A460021816886
:1065000021F470211143816070470A46002181689F
:1065100021F44011114381607047816841F480018A
:1065200081607047014600208A6802F480020AB147
:10653000012000E00020704721B1426842F48062EF
:10654000426003E0426822F480624260704721B1F9
:10655000426842F48052426003E0426822F4805272
:106560004260704708B5024600200090009201F199
:106570002800009B184400900098006880B208BD75
:1065800010B50B460021D9B2012404FA01F11AB169
:1065900044680C43446002E044688C43446010BD8E
:1065A000FFFEFFFCFDF7FFC004230140E030FCFFCD
:1065B00000200140FFFD3FFF0246002013680B4012
:1065C0000BB1012000E000207047CA430260704711
:1065D00070B502460020002300240B1255680126E6
:1065E0008E4005EA060415681D4015B10CB1012066
:1065F00000E0002070BD00220A12D3430360704700
:1066000010B50446FB48844208D10121801401F0F2
:1066100086FE0021A01401F082FE3CE0F648844290
:1066200008D10121001401F069FE0021201401F0BD
:1066300065FE30E0F148844208D10121C01301F029
:106640005DFE0021E01301F059FE24E0EC48844295
:1066500008D10121401401F062FE0021601401F014
:106660005EFE18E0E748844209D10121080501F0E7
:1066700056FE00214FF4801001F051FE0BE0E2487D
:10668000844208D10121480501F049FE00214FF460
:10669000001001F044FE10BD10B50022028802F483
:1066A00041520B884C8823438C882343CC88234356
:1066B0000C8923434C8923438C892343CC8923436E
:1066C0001A430280838B4FF2FF74234083830B8A2B
:1066D000038210BD2DE9F04F0025022300244FF066
:1066E000010900220026002794469046B0F81CA01D
:1066F0004FF2400B0AEA0B0AA0F81CA04FF0020A66
:10670000A0F820A0858BD1F808A0BAF1020F01D122
:1067100000BF82E0B1F804A0BAF1000F02D14FF03F
:10672000010901E04FF00209DFF8E0A2DAF800A069
:106730000AF4000ABAF1000F09D0DFF8D0A2DAF8A3
:1067400000A02AF4000ADFF8C4B2CBF800A0DFF8FA
:10675000BCA20AF17C0ADAF800A0CAF3881CDFF8B0
:10676000ACA20AF17C0ADAF800A0CAF30278DFF8DA
:106770009CA2AAF1040ADAF800A00AF03F07DFF8A9
:106780008CA2AAF1040ADAF800A00AF4800ABAF589
:10679000800F08D1DFF878A2BAFBF7FA0AFB0CFAEF
:1067A000BAFBF8F607E0DFF86CA2BAFBF7FA0AFBCF
:1067B0000CFABAFBF8F6B1F806A0BAF5007F0ED1D4
:1067C0004FEA162A0AEB8A0A4FEA4A0AD1F808B0B9
:1067D000BAFBFBFA0AF1050A1FFA8AF20FE04FEA48
:1067E000491AB6FBFAFA0AEB8A0A4FEA4A0AD1F8C2
:1067F00008B0BAFBFBFA0AF1050A1FFA8AF24FF059
:106800000A0AB2FBFAF202F00104A2EB040ACAF38C
:106810004F034FF6FF7A0AEA0424022B01DBFF2B19
:1068200001DD02230024B1F806A04AEA040A4AEA7C
:10683000030AA0F820A0B1F804A0B1F80CB04AEA0D
:106840000B0AB1F802B04AEA0B0AB1F800B04AEA02
:106850000B0A4AF4006A4AEA05058583BDE8F08F11
:106860000021018041808180C1800181418181813D
:10687000C181072101827047002101804180818010
:10688000C1800221816000218181704721B102888D
:1068900042F04002028004E002884FF6BF731A40C3
:1068A0000280704721B1828B42F48062828304E0CF
:1068B000828B4FF6FF331A408283704702884FF273
:1068C000FF731A40028002880A4302807047B1F5C4
:1068D000804F04D1028842F48042028004E00288A2
:1068E0004BF6FF731A40028070474FF6FF629142E9
:1068F00004D0028842F48072028004E002884FF6DD
:10690000FF631A400280704721B1828842F004027E
:10691000828004E082884FF6FB731A4082807047C1
:1069200021B1828842F01002828004E082884FF612
:10693000EF731A408280704730B500220023848BA9
:106940004FF240052C40848302240484828B0C88FF
:10695000B4F5007F01D00C8814B94FF4807308E0BF
:106960000C88B4F5407F03D00C88B4F5807F00D14B
:1069700000238C888D892C434D882C431C4344F480
:1069800000642243828330BD01468889704781813B
:10699000704721B1028842F40052028004E002886C
:1069A0004DF6FF731A4002807047018841F4805110
:1069B0000180704702460020012901D0108B00E0C1
:1069C000908A70470146088A70471AB183880B4342
:1069D000838002E083888B438380704730B5002436
:1069E00000230C110125A540ABB2AAB185881D4337
:1069F000858014E00030014000380040003C004039
:106A00000034014000500140005401400838024069
:106A100000127A000024F40085889D43858030BDF3
:106A20000246002013890B400BB1012000E000203A
:106A30007047CA4302817047F0B502460020002427
:106A40000023002501F00F070126BE40B4B20B1150
:106A500001269E40B3B2968806EA030516892640B1
:106A600016B10DB1012000E00020F0BD10B50022EC
:106A700001F00F040123A3409AB2D343038110BD58
:106A800010B50446FE48844208D10121084601F0B1
:106A900046FC0021012001F042FC9DE0B4F1804F52
:106AA00008D10121084601F029FC0021012001F054
:106AB00025FC91E0F348844208D10121022001F035
:106AC0001DFC0021022001F019FC85E0EE48844203
:106AD00008D10121042001F011FC0021042001F063
:106AE0000DFC79E0E948844208D10121082001F039
:106AF00005FC0021082001F001FC6DE0E44884421F
:106B000008D10121102001F0F9FB0021102001F033
:106B1000F5FB61E0DF48844208D10121202001F02B
:106B2000EDFB0021202001F0E9FB55E0DA4884422A
:106B300008D10121022001F0F2FB0021022001F026
:106B4000EEFB49E0D548844209D10121080401F057
:106B5000E6FB00214FF4803001F0E1FB3CE0D0483F
:106B6000844209D10121480401F0D9FB00214FF4EE
:106B7000003001F0D4FB2FE0CA48844209D1012142
:106B8000880401F0CCFB00214FF4802001F0C7FB0A
:106B900022E0C548844208D10121402001F0AEFB2B
:106BA0000021402001F0AAFB16E0C048844208D131
:106BB0000121802001F0A2FB0021802001F09EFB3A
:106BC0000AE0BB48844207D10121801501F096FB01
:106BD0000021A01501F092FB10BD00220288A84BF5
:106BE00098420ED0AC4B98420BD0B0F1804F08D0F9
:106BF000A44B984205D0A44B984202D0A34B984294
:106C000004D14FF68F731A404B881A43A04B984219
:106C100007D0A04B984204D04FF6FF431A400B898F
:106C20001A4302804B68C3620B880385944B9842D9
:106C300002D0994B984201D18B7A0386012383823B
:106C400070474FF0FF314160002101800181418098
:106C5000817270470185828270470A46002101884F
:106C60004FF68F731940114301807047416270479E
:106C7000C16270470146486A70470146088D7047F7
:106C800021B1028842F00202028004E002884FF63D
:106C9000FD731A400280704721B1028842F004025D
:106CA000028004E002884FF6FB731A4002807047AE
:106CB00021B1028842F08002028004E002884FF68F
:106CC0007F731A400280704702884FF6F7731A40AC
:106CD000028002880A430280704702884FF6FF4311
:106CE0001A40028002880A430280704721B102885C
:106CF00042F00102028004E002884FF6FE731A405F
:106D00000280704770B5002400220023058C4FF6E6
:106D1000FE7635400584028C8388048B4FF68F7590
:106D20002C40B51E2C400D882C43751E2A408D89A1
:106D30002A434D882A43524DA84202D0564DA842BC
:106D400013D14FF6F7752A40CD892A434FF6FB75CC
:106D50002A408D882A434FF6FF652B404FF6FF559A
:106D60002B400D8A2B434D8A2B43838004838D68EF
:106D70004563028470BD70B5002400220023058C99
:106D80004FF6EF7635400584028C8388048B48F6F5
:106D9000FF752C404FF6FF452C400D884FF6FF76CF
:106DA00006EA05252C434FF6DF752A408D8906EA51
:106DB00005152A434D8806EA05152A43304DA84299
:106DC00002D0354DA8421DD14FF67F752A40CD899E
:106DD0004FF6FF7606EA05152A434FF6BF752A409F
:106DE0008D8806EA05152A434FF6FF352B404FF2F2
:106DF000FF752B400D8A06EA85052B434D8A06EA6E
:106E000085052B43838004838D688563028470BD70
:106E100070B5002400220023058C4FF6FF66354034
:106E20000584028C8388848B4FF68F752C404FF637
:106E3000FC752C400D882C434FF6FF552A408D8958
:106E40004FF6FF7606EA05252A434D8806EA052512
:106E50002A430B4DA84202D00F4DA84238D14FF221
:106E6000FF752A40CD894FF6FF7606EA05252A43AD
:106E70004FF6FF352A408D8806EA05252A4319E09A
:106E8000000001400004004000080040000C0040E9
:106E90000010004000140040000401400040014088
:106EA000004401400048014000180040001C004020
:106EB000002000404EF6FF752B404DF6FF752B402D
:106EC0000D8A06EA05152B434D8A06EA05152B4364
:106ED000838084838D68C563028470BD70B5002291
:106EE00000230024058C4EF6FF7635400584038C84
:106EF0008488828B48F6FF752A404FF6FF452A406A
:106F00000D884FF6FF7606EA05252A434DF6FF75F4
:106F10002B408D8906EA05352B434D8806EA053559
:106F20002B43FE4DA84202D0FD4DA84208D14BF69E
:106F3000FF752C400D8A4FF6FF7606EA85152C4327
:106F4000848082838D680564038470BD0021018084
:106F50004180818081608181C1810182418270474D
:106F600070B50346002000241846183001258D40D6
:106F7000ACB21D8CA5431D8409B108290AD100EBD0
:106F8000610005684FF68F7635400560056815434A
:106F900005600FE00D1FC5F34E052844056848F64F
:106FA000FF763540056005684FF6FF7606EA022653
:106FB0003543056070BD4163704781637047C163AD
:106FC0007047016470470A460021018B4FF68F73AA
:106FD00019401143018370470A460021018B48F68E
:106FE000FF7319404FF6FF7303EA0223194301832D
:106FF00070470A460021818B4FF68F731940114369
:10700000818370470A460021818B48F6FF7319403F
:107010004FF6FF7303EA02231943818370470A4640
:107020000021018B4FF6F77319401143018370471C
:107030000A460021018B4FF2FF7319404FF6FF7390
:1070400003EA02231943018370470A460021818B1A
:107050004FF6F77319401143818370470A460021A8
:10706000818B4FF2FF7319404FF6FF7303EA02233F
:107070001943818370470A460021018B4FF6FB7349
:1070800019401143018370470A460021018B4FF6D6
:10709000FF3319404FF6FF7303EA022319430183BC
:1070A00070470A460021818B4FF6FB73194011434C
:1070B000818370470A460021818B4FF6FF331940C8
:1070C0004FF6FF7303EA02231943818370470A4690
:1070D0000021018B4FF67F731940114301837047E4
:1070E0000A460021018BC1F30E014FF6FF7303EA3C
:1070F00002231943018370470A460021818B4FF612
:107100007F7319401143818370470A460021818BA8
:10711000C1F30E014FF6FF7303EA02231943818383
:1071200070470A460021018C4FF6FD731940114348
:10713000018470470A460021018C4FF6F77319400D
:107140001143018470470A460021018C4FF6DF731A
:1071500019404FF6FF7303EA021319430184704785
:107160000A460021018C4FF67F7319404FF6FF73DA
:1071700003EA02131943018470470A460021018C77
:107180004FF6FF5319404FF6FF7303EA02231943EA
:10719000018470470A460021018C4FF2FF731940A9
:1071A0004FF6FF7303EA02231943018470470A462E
:1071B0000021018C4DF6FF7319404FF6FF7303EA6F
:1071C000023319430184704730B5002301248C40F9
:1071D000A3B2048C9C430484048C02FA01F5ADB282
:1071E0002C43048430BD30B5002304248C40A3B26A
:1071F000048C9C430484048C02FA01F5ADB22C4348
:10720000048430BD828B4FF2FF331A408283828B1D
:107210004FF6FF7303EA01231A4382837047F0B5E8
:107220000C461546002100220026078C4EF6FF7CF6
:1072300007EA0C070784818B028C4FF6FF7707EA79
:10724000043640F6FF4739404FF6FF7707EA052737
:1072500039434FF6FF7707EA0337394345F6FF779F
:107260003A4046F480573A4381830284F0BD828BD2
:107270004FF6F3731A408283828B0A4382837047EE
:10728000F0B50C461546002100220026078C4FF66B
:10729000FF6C07EA0C070784818B028C4FF6FF779F
:1072A00007EA04264FF60C7739404FF6FF7707EAD6
:1072B00003172F4339434FF2FF573A4046F4807784
:1072C0003A4381830284F0BD028B4FF2FF331A40B0
:1072D0000283028B4FF6FF7303EA01231A430283F2
:1072E0007047F0B50C461546002100220026078C99
:1072F0004FF6EF7C07EA0C070784018B028C4FF6F0
:10730000FF7707EA041640F6FF4739404FF6FF774C
:1073100007EA033739434FF6FF7703E000000140E7
:107320000004014007EA052739434FF65F773A40EA
:1073300046F010073A4301830284F0BD028B4FF6FA
:10734000F3731A400283028B0A4302837047F0B53D
:107350000C46154600210022068C4FF6FE773E4073
:107360000684018B028C4FF60C7631407E1C06EAB7
:1073700003162E4331434FF6F576324044F00106B2
:10738000324301830284F0BD70B505460C46208867
:1073900050B92389A28861882846FFF7D8FFE18881
:1073A0002846FFF7CBFF25E0208804280AD123894F
:1073B000A28861882846FFF794FFE1882846FFF7F6
:1073C00083FF17E0208808280AD12389A2886188D2
:1073D0002846FFF755FFE1882846FFF748FF09E0F8
:1073E0002389A28861882846FFF719FFE18828468B
:1073F000FFF708FF70BD00210180418001218180DD
:107400000021C180018170472DE9F04105460C46FD
:1074100000260127608808B9022600E00026A0881F
:10742000012801D1022700E001272088A0B9238983
:10743000A28861882846FFF78AFFE1882846FFF77F
:107440007DFF23893A4631462846FFF74AFFE18807
:107450002846FFF739FF13E02389A2886188284670
:10746000FFF73FFFE1882846FFF72EFF23893A46C2
:1074700031462846FFF76BFFE1882846FFF75EFF9D
:10748000BDE8F0810146486B70470146886B704744
:107490000146C86B70470146086C70470A884B88E4
:1074A0001A438B881A43CB881A430B891A434B899A
:1074B0001A438B891A43A0F84420704700210180A9
:1074C00041808180C180018141818181704731B1DA
:1074D000B0F8442042F40042A0F8442005E0B0F89F
:1074E0004420C2F30E02A0F84420704721B18288E4
:1074F00042F00402828004E082884FF6FB731A4057
:107500008280704721B1828842F00102828004E0CB
:1075100082884FF6FE731A40828070471AB18389C1
:107520000B43838102E083898B438381704781828F
:10753000704702460020138A0B400BB1012000E087
:1075400000207047CA430282704730B502460020CF
:1075500000230024158A05EA0103958905EA010440
:1075600013B10CB1012000E0002030BDCA430282FB
:10757000704741EA0203A0F8483070471AB1838986
:107580000B43838102E083898B438381704721B160
:10759000828842F00802828004E082884FF6F77306
:1075A0001A408280704701894FF6F87211400181BC
:1075B00070470A46002101894FF68F731940114325
:1075C0000181704730B504460D4629462046FFF735
:1075D000F0FF208940F00700208130BD2DE9F04107
:1075E00004460D4616461F46602D06D13B46012235
:1075F00031462046FFF775FE05E03B460122314645
:107600002046FFF7A4FE29462046FFF7D2FF208937
:1076100040F007002081BDE8F08130B50C46002124
:107620000189C9B24FF6FF7505EA032515432543C5
:107630002943018130BD2DE9F04105460E4617462C
:107640009846002443463A4631462846FFF7E5FF70
:107650002C894FF6F870044044F007044FF68F7001
:10766000044044F070042C81BDE8F081F0B504467C
:107670000D4616461F463B46324629462046FFF732
:10768000CCFF208940F480402081F0BD82884FF6F5
:107690008F731A40828082880A43828070470289F1
:1076A0004FF6F8731A40028102890A43028170473B
:1076B00002894FF67F731A40028102890A430281D0
:1076C0007047F0B50C4615461E46002100220023E7
:1076D0000189028B038C4FF6F877394021434FF62E
:1076E000FC473A4040F201173A434FF6DD773B4002
:1076F0004FF6FF7707EA06172F433B4301810283CA
:107700000384F0BD21B1828842F08002828004E0CF
:1077100082884FF67F731A4082807047A0F850101D
:107720007047000010B50446FA48844208D1012190
:10773000102000F0F4FD0021102000F0F0FD57E0D3
:10774000F548844209D10121480400F0D7FD002109
:107750004FF4003000F0D2FD4AE0F048844209D1F5
:107760000121880400F0CAFD00214FF4802000F0C0
:10777000C5FD3DE0EA48844209D10121C80400F07A
:10778000BDFD00214FF4002000F0B8FD30E0E548D9
:10779000844209D10121080500F0B0FD00214FF419
:1077A000801000F0ABFD23E0DF48844208D10121C6
:1077B000202000F0B4FD0021202000F0B0FD17E0F3
:1077C000DA48844209D10121880700F097FD0021A1
:1077D0004FF0804000F092FD0AE0D548844207D186
:1077E0000121400500F08AFD0021600500F086FDC2
:1077F00010BD2DE9FF4705460E460024A14600BFF7
:10780000A046B08900B100BF2C8A24F44054F0880F
:1078100004432C82AC8941F20C608443B0883189E6
:107820000843718908430443AC81AC8A24F4407452
:10783000B0890443AC82684600F0F1FBB54885424C
:1078400002D0B948854202D1DDF80C9001E0DDF8A4
:107850000890A88900F4004040B109EBC90000EB92
:10786000091031684900B0FBF1F707E009EBC900E6
:1078700000EB091031688900B0FBF1F76420B7FB19
:10788000F0F004012009642101FB1078A88900F4BC
:10789000004040B1322000EBC800B0FBF1F000F036
:1078A0000700044308E0322000EB08106421B0FB1D
:1078B000F1F000F00F0004432C81BDE8FF874FF486
:1078C0001651016000218180C18001810C2141811C
:1078D00000218181704710B502460020108A20F4F3
:1078E00070600B884C8823438C882343CC882343C7
:1078F0001843108210BD0021018041808180C18029
:10790000704721B1828942F40052828104E0828969
:107910004DF6FF731A4082817047028B02F47F425A
:107920000283028B0A430283704721B1828942F4A9
:107930000042828103E08289C2F30E028281704795
:1079400021B1828A42F40062828204E0828A4FF28C
:10795000FF731A4082827047C1F308028280704729
:1079600001468888C0F308007047028A4FF6F0731A
:107970001A400282028A0A430282704721B1828938
:1079800042F00202828104E082894FF6FD731A40C0
:107990008281704782894FF2FF731A408281828907
:1079A0000A4382817047028A4FF6DF731A400282CF
:1079B000028A0A430282704721B1028A42F480425D
:1079C000028204E0028A4BF6FF731A40028270477B
:1079D000818941F001018181704721B1828A42F0A1
:1079E0000802828204E0828A4FF6F7731A4082828C
:1079F0007047028BD2B20283028B42EA01220283D9
:107A0000704721B1828A42F02002828204E0828A99
:107A10004FF6DF731A408282704721B1828A42F0AA
:107A20001002828204E0828A4FF6EF731A4082824B
:107A30007047828A4FF6FB731A408282828A0A4319
:107A40008282704721B1828A42F00202828204E07F
:107A5000828A4FF6FD731A40828270471AB1838A78
:107A60000B43838202E0838A8B4383827047F0B5A5
:107A70000346002400260025002040F66A17B9427C
:107A800000D100BF1846C1F3421401F01F060127C0
:107A900007FA06F5012C01D10C3004E0022C01D1CB
:107AA000103000E014301AB107682F43076002E07D
:107AB0000768AF430760F0BD02460020B1F5007FC4
:107AC00000D100BF13880B400BB1012000E0002063
:107AD000704701F40072B2F5007F00D100BFCA43C5
:107AE0000280704770B50246002400230025002064
:107AF00040F66A16B14200D100BFC1F3421501F051
:107B00001F03012606FA03F3012D13D19689334092
:107B100017E0000000100140004400400048004011
:107B2000004C00400050004000140140007800402C
:107B3000007C0040022D02D1168A334001E0968A73
:107B400033400C12012606FA04F41688344013B1AF
:107B50000CB1012000E0002070BD10B50022002310
:107B600040F66A14A14200D100BF0A1201249440D9
:107B7000A3B2DC43048010BD10B50446984884428B
:107B800008D10121084600F086FB0021012000F009
:107B900082FB76E09348844208D10121022000F064
:107BA0007AFB0021022000F076FB6AE08E488442D6
:107BB00008D10121042000F06EFB0021042000F018
:107BC0006AFB5EE08948844208D10121082000F068
:107BD00062FB0021082000F05EFB52E084488442F2
:107BE00008D10121102000F056FB0021102000F0E8
:107BF00052FB46E07F48844208D10121202000F05A
:107C00004AFB0021202000F046FB3AE07A488442FB
:107C100008D10121402000F03EFB0021402000F06F
:107C20003AFB2EE07548844208D10121802000F003
:107C300032FB0021802000F02EFB22E070488442BD
:107C400008D10121801500F026FB0021A01500F0CD
:107C500022FB16E06B48844208D10121401500F058
:107C60001AFB0021601500F016FB0AE0664884420A
:107C700007D10121001500F00EFB0021201500F0B6
:107C80000AFB10BDF0B50A4600210023002400BF06
:107C90003DE0012505FA01F3156805EA03049C425D
:107CA00034D105684F000326BE40B5430560157901
:107CB0004E00B5400668354305601579012D02D0A8
:107CC0001579022D16D185684F000326BE40B543B5
:107CD000856055794E00B5408668354385604568B6
:107CE00001268E40B5434560456896798E40B6B210
:107CF00035434560C5684F000326BE40B543C560A7
:107D0000D5794E00B540C6683543C560491C102979
:107D1000BFD3F0BD4FF6FF710160002101714171C9
:107D20008171C171704708B54FF480320092009A9A
:107D30000A430092009AC261C161009AC261C2699D
:107D40000092C269009208BD0246002013690B40F0
:107D50000BB1012000E0002070470146086980B2A5
:107D600070470246002053690B400BB1012000E030
:107D7000002070470146486980B270470183704710
:107D8000418370470AB1018300E04183704741613C
:107D9000704742694A4042617047F0B500230024B1
:107DA0004D07ED0E02FA05F3CE1000F1200555F84F
:107DB00026504E07F70E0F26BE40B543CF1000F1F8
:107DC000200646F82750CE1000F1200555F8265021
:107DD00045EA0304CE1000F1200545F82640F0BD29
:107DE000000002400004024000080240000C024073
:107DF000001002400014024000180240001C024023
:107E0000002002400024024000280240F948006897
:107E100040F00100F74908600020F6490831086089
:107E2000F4480068F4490840F2490860F348091D25
:107E30000860F348EF4984310860F0481038091DA4
:107E40000860EC48006820F48020EA4908600020BF
:107E5000E8490C310860E7498C310860704700211F
:107E6000E44A921C117011460870704710B5014623
:107E70000022002300204A11012A02D1DD4C236890
:107E800008E0022A03D1DB4C7034236802E0D94CAD
:107E90007434236801F01F02012494401C400CB18B
:107EA000012000E0002010BD38B500200090002423
:107EB000002500BF3120FFF7D9FF05460098401C80
:107EC00000900098B0F5A04F01D0002DF2D03120E5
:107ED000FFF7CCFF08B1012400E00024204638BDA4
:107EE00001460020C34A106820F0F80040EAC100B3
:107EF00010607047C349086070470021BD4A703266
:107F000011701170012802D004280AD104E0012167
:107F1000B84A7032117005E00521B64A703211700E
:107F200000E000BF00BF7047B7490860704770B5F8
:107F3000049C41EA82150126C6EB530645EA064534
:107F4000054345EA0465AB4E361D356070BDAD494D
:107F500008667047820142EA0172A64B84331A60B8
:107F60007047A8498866704710B5830143EA0163EA
:107F700043EA02739F4C8834236010BDA14908670F
:107F80007047A049C864704702460020994B0833E7
:107F9000186820F0EC6042EA01031843954B08335F
:107FA0001860704702460020924B0833186820F092
:107FB000784042EA010318438E4B0833186070473B
:107FC000014600208B4A0832106820F00300084365
:107FD0001060704787480830006800F00C00704758
:107FE00001460020834A0832106820F0F000084360
:107FF00010607047014600207E4A0832106820F465
:10800000E05008431060704701460020794A08326A
:10801000106820F4604040EAC10010607047F0B57D
:10802000002100220024022500260223714F083778
:108030003F6807F00C0121B1042905D0082937D188
:1080400005E0724F076036E0714F076033E0694F1B
:108050003F1D3F68C7F38056664F3F1D3F6807F0DE
:108060003F036EB16A4FB7FBF3F7DFF888C10CF13D
:10807000040CDCF800C0CCF3881C07FB0CF40CE00B
:10808000624FB7FBF3F7DFF86CC10CF1040CDCF8BE
:1080900000C0CCF3881C07FB0CF4564F3F1D3F6813
:1080A000C7F301477F1C7D00B4FBF5F7076002E0D2
:1080B000564F076000BF00BF4E4F08373F6807F0BC
:1080C000F0010909534F7A5C0768D7404760494F70
:1080D00008373F6807F4E051890A4E4F7A5C4768D9
:1080E000D7408760434F08373F6807F46041490B2A
:1080F000484F7A5C4768D740C760F0BD002100F464
:108100004072B2F5407F0AD13A4A0832116821F430
:10811000F811414A02401143364A08321160354A8B
:1081200070321268C0F30B031A43324B70331A607B
:108130007047354944390860704733494039086011
:10814000704736490860704701460020294A8C3242
:10815000106820F01F004A1E1043264A8C3210601F
:10816000704701460020234A8C32106820F4F850F2
:108170004A1E40EA02201F4A8C32106070470146B6
:1081800000201C4A8C32106820F440100843106014
:10819000704701460020174A8C32106820F44000D6
:1081A00008431060704701460020124A8C32106864
:1081B00020F4403008431060704719490860704748
:1081C00039B10C4A3032126802430A4B30331A601C
:1081D00006E0084A303212688243064B30331A6098
:1081E0007047F9B1034A343212680243014B343309
:1081F0001A601CE000380240FFFFF6EA103000244D
:108200000030002000004742800E47420024F40066
:1082100000127A00B11B0020FFFCFF0F5C014742F7
:10822000E01147428F4A126882438E4B1A607047B2
:1082300039B18C4A121D126802438A4B1B1D1A6009
:1082400006E0884A121D12688243864B1B1D1A6085
:10825000704739B1834A0C3212680243814B0C33A8
:108260001A6006E07F4A0C32126882437D4B0C3361
:108270001A60704739B17B4A103212680243794B59
:1082800010331A6006E0774A103212688243754B49
:1082900010331A60704739B1724A243A12680243A7
:1082A000704B243B1A6006E06E4A243A12688243FF
:1082B0006C4B243B1A60704739B16A4A203A126805
:1082C0000243684B203B1A6006E0664A203A126877
:1082D0008243644B203B1A60704739B1614A1C3AB3
:1082E000126802435F4B1C3B1A6006E05D4A1C3A71
:1082F000126882435B4B1C3B1A60704739B1594A84
:10830000143A12680243574B143B1A6006E0554A70
:10831000143A12688243534B143B1A60704739B1C8
:10832000504A103A126802434E4B103B1A6006E066
:108330004C4A103A126882434A4B103B1A6070470D
:1083400039B1484A1C3212680243464B1C331A604A
:1083500006E0444A1C3212688243424B1C331A60C6
:10836000704739B13F4A2032126802433D4B2033F7
:108370001A6006E03B4A203212688243394B2033B0
:108380001A60704739B1374A243212680243354BBC
:1083900024331A6006E0334A243212688243314B98
:1083A00024331A60704739B12E4A2C3212680243C6
:1083B0002C4B2C331A6006E02A4A2C321268824376
:1083C000284B2C331A60704739B1264A3032126874
:1083D0000243244B30331A6006E0224A30321268DE
:1083E0008243204B30331A607047012808D11D4961
:1083F0003C31096841F008011A4A3C32116007E03B
:1084000018493C31096821F00801164A3C321160D4
:10841000704739B1134A273A12780243114B273B70
:108420001A7006E00F4A273A127882430D4B273B19
:108430001A7070470B484030006840F0807009495E
:1084400040310860704701460020064A283A126809
:108450000A400AB1012000E0002070470149263996
:108460000870704734380240FE4A1070704730B1CF
:10847000FC49096841F48071FA4A116005E0F94944
:10848000096821F48071F74A1160704730B1F549ED
:10849000096841F40071F34A116005E0F149096887
:1084A00021F40071EF4A1160704730B1ED4909685D
:1084B00041F48061EB4A116005E0EA49096821F462
:1084C0008061E84A11607047E648006840F4006047
:1084D000E44908607047E348006840F48050E1498F
:1084E00008607047DF481030006800F0004028B195
:1084F000DD48DC49091D0860DC4808607047D94840
:108500001030006840F00040D649103108607047D4
:108510000920D4490C31096801F48031B1F5803F5C
:1085200001D1012020E0CF490C31096801F0100190
:1085300009B1062018E0CB490C31096801F48071BB
:1085400009B1022010E0C7490C31096801F0EF01C0
:1085500009B1072008E0C3490C31096801F00201A4
:1085600009B1082000E00920704708B509200090F3
:10857000FFF7CEFF009002E0FFF7CAFF00909DF8E2
:1085800000000128F8D09DF8000008BD70B5044631
:108590000A460026092502B909E0012A01D116027E
:1085A00005E0022A01D1160201E04FF44076FFF700
:1085B000DCFF0546092D2DD1AA481030006820F4B3
:1085C0004070A849103108600846006830430860D0
:1085D0000846006820F0F80008600846006844F08B
:1085E000020108439F49103108600846006840F4C2
:1085F00080300860FFF7B9FF05469A4810300068E0
:1086000020F002009749103108600846006820F009
:10861000F8000860284670BD30B5024600250924E0
:10862000FFF7A3FF044602B909E0012A01D11502B0
:1086300005E0022A01D1150201E04FF44075092C32
:1086400020D188481030006820F4407085491031EE
:10865000086008460068284308600846006840F043
:10866000040008600846006840F480300860FFF7A6
:108670007CFF04467B481030006820F004007949F4
:1086800010310860204630BD30B50246002509246F
:10869000FFF76BFF044602B909E0012A01D1150278
:1086A00005E0022A01D1150201E04FF44075092CC2
:1086B00020D16C481030006820F4407069491031B6
:1086C000086008460068284308600846006840F0D3
:1086D000040008600846006840F480300860FFF736
:1086E00044FF04465F481030006820F004005D49F4
:1086F00010310860204630BD30B5024600250924FF
:10870000FFF733FF044602B909E0012A01D115023F
:1087100005E0022A01D1150201E04FF44075092C51
:1087200020D150481030006820F440704D4910317D
:10873000086008460068284308600846006840F45E
:10874000004008600846006840F480300860FFF789
:108750000CFF044643481030006820F400404149B3
:1087600010310860204630BD70B5064614461D46DF
:108770000922FFF7FAFE0246092A1ED139481030B5
:10878000006820F4407037491031086008460068DE
:1087900040F4407008600846006840F0010008603E
:1087A00034607560FFF7E1FE02462E481030006825
:1087B00020F001002B4910310860104670BD30B523
:1087C00002460C460925FFF7D0FE0546092D1DD1AE
:1087D00024481030006820F44070224910310860AD
:1087E0000846006840F4007008600846006840F0E1
:1087F000010008601460FFF7B8FE05461948103004
:10880000006820F00100174910310860284630BD8B
:1088100030B502460C460925FFF7A7FE0546092D8F
:108820001DD110481030006820F440700D491031FF
:1088300008600846006840F48070086008460068D8
:1088400040F0010008601480FFF78FFE05460548E0
:108850001030006820F001000249103108602846FD
:1088600030BD0000003C024023016745AB89EFCDDD
:1088700030B502460C460925FFF777FE0546092D5F
:1088800017D19B48006820F4407099490860084659
:10889000006808600846006840F001000860147035
:1088A000FFF763FE05469248006820F001009049FA
:1088B0000860284630BD8E48001D006800F00100A9
:1088C00028B18C488A49083908608B48086070478D
:1088D0008748001D006840F001008549091D0860B7
:1088E000704730B502460C460925FFF73EFE0546A7
:1088F000092D10D13CB17E48801D008890437C49F1
:10890000891D088007E07A48801D008891B20843DD
:108910007749891D088030BD30B502460C460925CF
:10892000FFF723FE0546092D10D13CB170480A30EF
:10893000008890436E490A31088007E06C480A308D
:10894000008891B208436A490A31088030BDFF218E
:10895000674AD21D127802F07F0140EA0102644B9F
:10896000DB1D1A70704730B502460C460925FFF72B
:10897000FCFD0546092D10D144B15D48801D0088DD
:1089800091B208435A49891D088006E05848801D65
:10899000008890435649891D088030BD30B5024695
:1089A0000C460925FFF7E1FD0546092D10D144B11C
:1089B0004F480A30008891B208434D490A31088077
:1089C00006E04B480A300088904349490A31088044
:1089D00030BD10B502460924FFF7C7FD0446092C37
:1089E00002D14348401D027010BDF0B504460D464B
:1089F000FF260927FFF7B9FD0746092F0BD13C4891
:108A0000001D007800F00F0645EA060010432043E1
:108A10003749091D0870F0BD3549091D097821F055
:108A20001001334A121D117011460978014311706B
:108A300070472F49091D097821F00C012C4A121D9D
:108A400011701146097801431170704700B5092271
:108A50002748001D007840F002002549091D0870D4
:108A6000FFF783FD0246104600BD2148001D006847
:108A7000C0F3471070471E48801D008870471C488F
:108A80000A30008870471A48801D008870471848CF
:108A90000A300088704700201549491D0978AA2925
:108AA00001D0012000E0002070471148001D00782F
:108AB00000F00C00704729B10D4A126802430C4BBC
:108AC0001A6004E00A4A12688243094B1A60704730
:108AD00001460020064A121F12680A400AB101200E
:108AE00000E0002070470249091F0860704700003D
:108AF000103C02403B2A19087F6E5D4C704700BF56
:108B0000FEE700BFFEE700BFFEE700BFFEE77047DD
:108B100070477047704700000CB50020019000902E
:108B20007648006840F480307449086000BF73489C
:108B3000006800F4003000900198401C01900098FB
:108B400018B90198B0F5A04FF1D16C48006800F455
:108B5000003010B10120009001E00020009000984A
:108B6000012846D165484030006840F08050634994
:108B7000403108606248006840F440406049086045
:108B80005E48083000685D490831086008460068A2
:108B900040F4004008600846006840F4A0500860B7
:108BA0005848091F0860081F006840F08070091FBE
:108BB000086000BF5148006800F000700028F9D03C
:108BC00040F20570504908604C480830006820F0B9
:108BD00003004A49083108600846006840F0020076
:108BE000086000BF45480830006800F00C00082805
:108BF000F8D10CBD10B54548006840F470004349F9
:108C000008603E48006840F001003C4908600020D0
:108C10003A4908310860394800683D4908403749F9
:108C200008603C48091D0860081F006820F4802087
:108C3000091F0860002031490C310860FFF76CFF04
:108C40004FF0006031498039086010BD70B50020D8
:108C50000022022300240221284D08352D6805F04A
:108C60000C0020B1042806D0082834D107E02A4D92
:108C70002A4E356033E02A4D284E35602FE01F4DD7
:108C80002D1D2D68C5F380541C4D2D1D2D6805F03C
:108C90003F0154B1224DB5FBF1F5184E361D366833
:108CA000C6F3881605FB06F209E01B4DB5FBF1F58E
:108CB000124E361D3668C6F3881605FB06F20F4DB8
:108CC0002D1D2D68C5F301456D1C6B00B2FBF3F53E
:108CD000124E356003E0104D104E356000BF00BFEE
:108CE000064D08352D68C5F303150E4E705D0B4D0E
:108CF0002D68C540094E356070BD00000038024047
:108D00000070004008544007003C024088ED00E03D
:108D1000FFFFF6FE103000240024F400C41B0020E6
:108D200000127A00C81B0020704700000FB40449ED
:108D300010B503AA029800F0EDFA10BC5DF814FB20
:108D4000100000202DE9F0410E460446002020626C
:108D50002046E168884730B3252805D0D4E90121B1
:108D60009047206A401CF2E7E168204600278847C8
:108D7000050018D0A5F14100192802D820354FF47C
:108D800000673246294620462760F7F75BFA40B174
:108D9000012804D0F61D26F007060836D8E7361D50
:108DA000D6E72846DAE7206ABDE8F0812DE9F041F0
:108DB0000646002410687529314616A510D0AFF379
:108DC0000080002802DA404213A507E031688A07D4
:108DD00001D512A502E0490704D511A5012401E03F
:108DE000AFF3008000210A2206F1240709E0B0FB5E
:108DF000F2FCB0FBF2F302FB1C0030307854184652
:108E0000491C0028F3D123462A463046BDE8F041EC
:108E100000F017B8000000002D0000002B0000003B
:108E200020000000704770477047704710B500F091
:108E300087FA006810BD10B5044600F081FA04609E
:108E400010BD2DE9F0470D4699469246044600F1C3
:108E500024080168880604D5E06921F0100121602A
:108E600000E00120A84201DD471B00E00027A169C6
:108E70007A1902EB0900081AA0612078C00602D412
:108E80002046AFF30080002608E0D4E901211AF85B
:108E900006009047206A401C761C20624E45F4DB99
:108EA0002078C0060AD52046AFF3008006E0D4E95A
:108EB000012130209047206A401C2062381EA7F113
:108EC0000107F4DC07E0D4E9012118F80500904718
:108ED000206A401C2062281EA5F10105F3DC204613
:108EE000AFF300802078000602D50220BDE8F087AD
:108EF0000120FBE770472DE9FF4F0C461E464FF05F
:108F0000FF378BB0D2E90001DDF860800A908A4615
:108F1000C1F30A5505B93D46002108464FF000004F
:108F2000BAF1000F00F4400005DA00EB80004FF4C6
:108F3000400101EA50004FEA9059B9F1010F00DDFC
:108F4000B9460A9850EA4A000ED044F61050A5F2ED
:108F5000FF3545432F14B8F1000F1ED07542291E6E
:108F60001EDDC9F100021CE0B8F1010F4FF0000056
:108F700001D0302103E0F24305E02154401CB0420F
:108F8000FBDB30460022002121540B99C1F80880F8
:108F9000C1E900200FB0BDE8F08FBD1B6D1CDEE7FE
:108FA0004A4600DA694206A800F06CFA06AB93E87C
:108FB000070003AB83E8070050460A9900F04AFB1C
:108FC0008DE80700A0F500501F3800900398002D91
:108FD0000ADD42F21F014A460844002303A9039018
:108FE000684600F0B3FD09E0A0F500504A461F387E
:108FF000002303A90390684600F0BDFD8DE807003B
:109000000004000C03D04FF0FF30410800E0104690
:10901000B8F1000F03D00022009215461EE0751E25
:1090200005D400F091F9303262556D1EF9D5B34682
:109030000122084302D000227F1C04E0207830285F
:1090400001D100227F1E002A099784D01DE0112D36
:1090500007DA00F079F9303262556D1C50EA0102EE
:10906000F5D1084302D00098C8B10EE00021681E77
:1090700005E0235C625C63542254401E491C81421B
:10908000F7DBAB46A81B401E0990002004F80B003C
:109090000B98099AC0F80880C0E9002B7AE71126DE
:1090A0004FF0000857E72DE9F04F88460446D21DDF
:1090B00022F0070191B0D1E90001CDE90A0100F0E9
:1090C00091FE02460B98C00F01D02D2007E02068CA
:1090D000810701D52B2002E0202101EAC000032AEC
:1090E000099001D0072A05DB03464146204600F0DF
:1090F00089F90BE12078800601D5E06900E00620BF
:10910000B8F1650F814606D0B8F1660F18D0B8F1F6
:10911000670F70D131E00020B9F1110F009001DB31
:10912000112301E009F101030AAA01A90CA8FFF724
:10913000E2FEDDE90C70002609F10105834647E0F7
:1091400001204B4600904FF000470AAA01A90CA845
:10915000FFF7D1FEDDE90DB00C995D46002610B990
:1091600009F101000D18B9EB050003D4C0F1FF3679
:1091700009F10105A5EB09002BE0B9F1010F01DAB6
:109180004FF001090020B9F1110F0090484601DDB0
:10919000112300E003460AAA01A90CA8FFF7ABFEC1
:1091A000DDE90C704D4600268346207800070AD47E
:1091B000AB4500DA5D4601A8012D04DD411911F827
:1091C000011C302907D04F4502DA17F1040F04DAE9
:1091D000012082460FE06D1EEEE7002F02DCED1B42
:1091E0003E4403E0781CA84200DD7D1CB81B00F162
:1091F000010A4FF000472078000703D4AA4501DB9D
:109200004FF0FF3A0021B7F1004F0DF143088DF800
:10921000431024D002202B23002F01DA7F422D237C
:109220000A21021EA0F1010000DC5FB197FBF1FCF6
:1092300097FBF1F201FB1C7C17460CF1300C08F88F
:1092400001CDEEE7A8F1010003702188090501D5E1
:10925000452100E06521A0F1010800F8011C0998F2
:109260000FA9A1EB0807FF1D00B10120411901EB77
:10927000EA70A1693844081A401EA0612078C0062F
:1092800002D42046AFF30080099828B1D4E9012127
:109290009047206A401C20622078C00622D52046D4
:1092A000AFF300801EE0002E04DBB34502DD01A811
:1092B000805D00E03020D4E901219047206A401C05
:1092C0002062761CAAF101005FEA000A0AD100F0D0
:1092D00033F8C0680168405CD4E901219047206AF6
:1092E000401C2062281EA5F10105DCDC07E0D4E962
:1092F000012118F8010B9047206A401C2062381E9B
:10930000A7F10107F3DC2046AFF30080032011B082
:1093100041E60000074B70B50D467B4400F05FF856
:109320000446284600F020F910B14FF0FF3070BD20
:10933000204670BDAB74FFFF004870470423002037
:1093400000487047E422002030B5B0F10A024FEA2D
:10935000900E71F100034EEA817EB0EB0E0061EBDE
:1093600091014FEA101E4EEA017E10EB0E0041EB18
:1093700011114FEA102E4EEA016E10EB0E0041EB78
:1093800011214FEA104E4EEA014E10EB0E0041EB58
:109390001141401841F100014FEAD00040EA41700C
:1093A0004FEAD10110EB80054FEA810444EA907442
:1093B00044EB01046D1944EB0404521BA3414FF02C
:1093C000000348BF0A3200D530BD401C41F1000106
:1093D00030BD000001694A1C02610878704700B581
:1093E0008FB0CDE901310021059105497944CDE9DE
:1093F000031011466846FFF7A5FC0FB000BD000042
:10940000E5FFFFFF2DE9F0411F46044603260168F2
:10941000072A01F4006004DB08B116A505E016A5D3
:1094200003E008B115A500E015A521F010002060AB
:10943000A069C01EA0610FB1401EA0612046AFF31D
:1094400000804FB1D4E9012138469047206A401C82
:109450002062C01C206206E0206AFAE7D4E90121FC
:1094600015F8010B9047761EF8D22046AFF3008026
:10947000BDE8F0814E414E006E616E00494E4600DF
:10948000696E66002DE9F047814616468AB0354878
:1094900078440DC88DE80D0032487844801C03AC38
:1094A0000DC884E80D0041F69B300844372190FB3D
:1094B000F1F290FBF1F5A5F1800501FB12041B3CD4
:1094C00002D56442012000E00020DFF898A0804629
:1094D0000027FA44AAF1BE0A0EE0E0070AD032469D
:1094E000684607EB470101230AEB810100F043FBCB
:1094F0008DE8070064107F1C002CEED1194F7F44CB
:10950000AE3F19E0E80715D007EB04100DF1180A7B
:1095100090E80E008AE80E00C068F04201D1981968
:1095200008903246012306A903A800F024FB03ABF0
:1095300083E807006D10641C002DE3D14FF0010398
:1095400032466946B8F1000F03A802D000F0FEFAD7
:1095500001E000F010FBC9E90001C9F808200AB0D9
:10956000BDE8F08798180100007B00F0800070478C
:1095700000487047E42200207546FFF7F9FFAE4629
:1095800005006946534620F00700854618B020B50F
:10959000FCF782FDBDE820404FF000064FF00007C9
:1095A0004FF000084FF0000B21F00701AC46ACE88B
:1095B000C009ACE8C009ACE8C009ACE8C0098D46F8
:1095C000704710B50446AFF300802046BDE8104058
:1095D000F6F757BE4FF0013C50F8042B51F8043B0E
:1095E0009A4221D1A2EB0C03934313EACC1317D177
:1095F00050F8042B51F8043B9A4215D1A2EB0C030E
:10960000934313EACC130BD150F8042B51F8043BCD
:109610009A4209D1A2EB0C03934313EACC13DBD09B
:109620004FF00000704700BFD01A01BAB1FA81F1C3
:1096300001F0180122FA01F0CB40C1F12001DBB2A8
:10964000C0B2C01A2CFA01F3D11A914311EAC31126
:10965000E6D170475FEA400C08BF91F0000F4FEA77
:109660008C234FEAC12243EA51514FEA1C5018BFE4
:1096700000F5F0404FEA300018BF41F000415FEACA
:109680006C5C00F02980BCF1FF3F08BF40F08040D7
:109690007047130C06BF12044FF0100C4FF0000C73
:1096A000130E04BF12020CF1080C130F04BF1201B9
:1096B0000CF1040C930F04BF92000CF1020CD30FB9
:1096C00004BF52000CF1010C11464FF00002A0F152
:1096D0001F00A0EB0C00704711F0004F08BF70474F
:1096E00031F000413FF4D5AF0B0C06BF09044FF039
:1096F000100C4FF0000C0B0E04BF09020CF1080C0B
:109700000B0F04BF09010CF1040C8B0F04BF89007F
:109710000CF1020CCB0F04BF49000CF1010CCCF191
:109720002003A0EB0C0022FA03F302FA0CF241EA48
:10973000030100F10100704720F07F4C80EA030034
:1097400023F07F47ACEB070303F57C5300F00040A8
:1097500003F1FF032DE980494FEA154B09B44FEAA5
:10976000144325EA0B4E24EA03480FF2042606EBC5
:10977000132749083E785FEA320203FB0667C7F504
:10978000000707FB06F64FEA54374FEAD64606F1C4
:10979000020607FB066CCCF1005C4FEA1C472CEA82
:1097A000074C07FB06F40CFB06F504EB15464FEAE5
:1097B000961634BF00204FF000404FEAD13706FB29
:1097C00007FC4FEA1C4C0CFB0BF7D21B03FB0CF7FE
:1097D00061EB07010CFB0EF7B0EB074072EB174291
:1097E0000CFB08F734BFA2EB0742B2EB074261EB78
:1097F00017414FEA0C444FEA910706FB07FC4FEA7A
:109800001C4C0CFB0BF7B0EBC74072EB573203FB61
:109810000CF734BFA2EBC742B2EBC74261EB573142
:109820000CFB0EF7B0EBC70072EB57720CFB08F79E
:1098300034BFA2EBC702B2EBC70261EB5771039FC3
:109840004FEA816141EA921104EBCC044FEAD1372F
:109850004FEA826206FB07FC42EA90124FEA806000
:109860004FEA1C4C0CFB0BF7D21B03FB0CF761EB14
:1098700007010CFB0EF7B0EB074072EB17420CFB35
:1098800008F734BFA2EB0742B2EB074261EB174186
:109890004FEA8C554FEA910704EB9C2406FB07FC2A
:1098A0004FEA1C4C0CFB0BF7B0EBC74072EB573286
:1098B00003FB0CF734BFA2EBC742B2EBC74261EB2C
:1098C00057310CFB0EF7B0EBC70072EB57720CFB75
:1098D00008F734BFA2EBC702B2EBC70261EB5771C6
:1098E00015EB4C254FEA816141EA92114FEA826201
:1098F0004FEAD13742EA901206FB07FC44F100041C
:109900004FEA80604FEA1C4C0CFB0BF7D21B03FBA9
:109910000CF761EB07010CFB0EF7B0EB074072EBA5
:1099200017420CFB08F734BFA2EB0742B2EB074229
:1099300061EB174115EB1C154FEA813141EA924169
:109940004FEA823242EA90424FEA80304FEA0C7688
:1099500044F1000448EA03434EEA0B484FF0000E7E
:10996000B2EB080C71EB030724BF624639464EEB9D
:109970000E0E4FF0000B0018524149414BEB0B0B00
:10998000B2EB080C71EB03077BF1000B24BF6246BE
:1099900039464EEB0E0E4FF0000B00185241494174
:1099A0004BEB0B0BB2EB080C71EB03077BF1000BDD
:1099B00024BF624639464EEB0E0E51EA020718BF2D
:1099C00046F0010616EB0E7655F1000254F1000147
:1099D00003D5BDE88901BDE80088BDE88901BDE87F
:1099E0000048B619524141EB0101A3F10103704750
:1099F00080807F7E7D7C7B7A7978777676757473CC
:109A0000727171706F6E6E6D6C6C6B6A6A6968688A
:109A1000676666656464636362616160605F5F5E20
:109A20005E5D5D5C5C5B5B5A5A5959585857575696
:109A300056555555545453535252525151505050FB
:109A40004F4F4F4E4E4D4D4D4C4C4C4B4B4B4A4A4D
:109A50004A49494948484847474747464646454591
:109A600045444444444343434342424242414141CA
:109A7000002B9C4630D477002BD01CB54FEA37071B
:109A800003B44FF010004FF01001BAF1000F06D0F0
:109A9000BCF1000FDCBF40F0080040F008014FF0BF
:109AA00000000FBCBDE810400BF1010BBBF1010F32
:109AB00008BF5FEA170722BF12F1010211F101018D
:109AC0004FF0004143F1000300F0004043EA000082
:109AD0007047F9D35708D0E746EA064613F1400F1E
:109AE0004FEA16461FDD13F1200FDFBF16430A466B
:109AF000002120335B42BED0C3F1200746EA064670
:109B000002FA07F74FEA164646EA0706C3F12007AE
:109B100022FA03F201FA07F721FA03F14FF00003EA
:109B200042EA0702A7E746EA020646EA06464FEA85
:109B3000164646EA0106BCBF46EA0646360C4FF01A
:109B400000034FF000024FF0000194E72DE9804C34
:109B50009A46934670B491E8380007C831EA400C41
:109B600048BF34EA430C03D5FFF7E6FDFFF780FF5B
:109B7000F0BCBDE8008C2DE9804C9A46934670B449
:109B800091E8380007C810F0804F08BF13F0804FED
:109B900003D100F005F8FFF76BFFF0BCBDE8008CC7
:109BA00020F07F4780EA030023F07F4C07EB0C0393
:109BB000A3F57C5300F00040A3F1FE0392F0000FE8
:109BC00000F0B38095F0000F00F077802DE9014997
:109BD0004FEA11404FEA144621EA004800FB06FC18
:109BE00024EA064708FB06F607FB08F800FB07F720
:109BF00018EB06484CEB164C4FEA124B18EB074893
:109C00004FEA15464CEB174022EA0B4E0BFB06FCC5
:109C100025EA06470EFB06F607FB0EFE0BFB07F7D1
:109C20001EEB064E4CEB164C4FF000061EEB074E9B
:109C30004CEB174B18EB0B0840F1000018EB0E0B28
:109C400058EB000840F100008F1A4FF000013CBFB4
:109C5000C943661B14BFB5EB040C00213CBFC943CC
:109C6000F61B4FEA17444EEA8E0E27EA04454FEAE8
:109C70001C4704FB07622CEA074C05FB07F70CFBAB
:109C800005F604FB0CFC16EB074642EB174216EBFD
:109C90000C4642EB1C421BEB060658EB020241410C
:109CA00046EA9E0601D5BDE80189B619524141EB4D
:109CB0000101A3F10103BDE801894FEA14454FEA10
:109CC000114724EA054621EA074C05FB07F406FB89
:109CD00007F70CFB06F105FB0CFC11EB074144EB0D
:109CE00017444FEA124711EB0C4144EB1C4422EAA3
:109CF000074C05FB07F206FB07F70CFB06F605FB16
:109D00000CFC16EB074642EB174216EB0C4642EBF7
:109D10001C456A1854F1000148BF7047B6195241FA
:109D200041EB0101A3F10103704795F0000F37D01B
:109D30004FEA11424FEA144721EA024624EA074C4F
:109D400002FB07F106FB07F70CFB06F402FB0CFC19
:109D500014EB074441EB17414FEA154714EB0C4451
:109D600041EB1C4125EA074C02FB07F506FB07F710
:109D70000CFB06F602FB0CFC16EB074645EB174501
:109D800016EB0C4645EB1C42121951F1000148BF7D
:109D90007047B619524141EB0101A3F1010370472D
:109DA0004FEA14454FEA114724EA054621EA074CD9
:109DB00005FB07F106FB07F70CFB06F24FF0000668
:109DC00005FB0CFC12EB074241EB174112EB0C4276
:109DD00051EB1C4148BF7047921841EB0101A3F1C0
:109DE0000103704703B401984100009850EAC12074
:109DF00018BF04204A0D18BF40F0010040F2FF7266
:109E0000B2EB515F08BF40F00200012808BF0520F7
:109E100002B070470000000070B5C1482DED020B84
:109E20002DED0E8B82B0119D25F000449FEDBEDB21
:109E30009FEDBFEB84423EDBA4F140511098A1F1AD
:109E40007F6108430FD0BC48844202DC28D11098BF
:109E500030B39DED100B02B0BDEC0E8B02B0BDE82F
:109E6000704000F0DBBC9DED100B53EC1D2B51EC52
:109E7000100B01F065F89DED100B41EC180B53EC45
:109E80001E2B51EC100B01F05BF853EC182B00F07B
:109E90009BFD41EC100B02B0BDEC0E8B02B070BD0F
:109EA0000120FEF7C8FF02B0BDEC0E8B02B0BDE88A
:109EB000704000F0C9BCA1489FEDA18B844256DAE6
:109EC0009DED100BB4F1795F0ADA51EC100BFFF73E
:109ED00089FF042808BF00F0C7FC9DED100BDAE7EE
:109EE00053EC102B51EC100B01F02AF841EC190B3C
:109EF00095480621B0EE490AF0EE690A784400F070
:109F000011FC53EC192B51EC100B01F019F841EC3A
:109F10001A0B8E48B0EE490AF0EE690A0421784423
:109F200000F000FC53EC192B51EC100B01F008F879
:109F300053EC182B00F048FD41EC100B51EC1A0BC0
:109F400053EC102B00F0F4FDCDE900019DED000B6A
:109F500053EC102B9DED100B51EC100B00F0F0FFAB
:109F60009DED101B53EC112B00F02EFDD2E09DED6A
:109F7000100B51EC100B00F08FFC53EC182B01F080
:109F8000DDF89FED730BCDE9000153EC102B9DED37
:109F9000000B51EC100B00F0D3FF41EC190B6E4895
:109FA0000621B0EE490AF0EE690A784400F0BAFBE7
:109FB00053EC192B51EC100B00F0C2FF41EC1B0BC2
:109FC0006648B0EE490AF0EE690A0421784400F0D0
:109FD000A9FB53EC192B51EC100B00F0B1FF53EC23
:109FE000182B00F0F1FC41EC1C0B51EC190B00F0AC
:109FF0005FFC41EC180B5A489FED5BABA04222DCA2
:10A0000053EC1C2B51EC1B0B00F092FDCDE9000131
:10A010009DED000B51EC180B53EC102B00F090FF52
:10A0200053EC182B00F0D0FC53EC1A2B00F088FFF7
:10A0300053EC1D2B01F05AF953EC1E2B01F07EF866
:10A0400041EC100B5FE08DED008B002000909DED4A
:10A05000000B51EC180B53EC102B00F0B5FC9DEDF0
:10A06000000B41EC1E0B53EC102B51EC100B00F0CD
:10A0700067FF53EC192B01F061F853EC1E2B00F035
:10A0800057FD41EC190B53EC1C2B51EC1B0B00F052
:10A090004FFD41EC1B0B53EC1A2B51EC190B00F04C
:10A0A0004FFF53EC1D2B01F049F841EC190B53EC19
:10A0B0001A2B51EC180B00F043FF53EC1B2B00F054
:10A0C0003FFF53EC192B01F011F99DED000B41EC12
:10A0D000180B53EC1A2B51EC100B00F031FF9FEDD5
:10A0E000249B53EC192B01F029F841EC100B51EC97
:10A0F000180B53EC102B01F0F9F853EC192B01F06D
:10A100001DF841EC100B002D3FF7C5AE51EC100BC4
:10A1100000F01CFC41EC100BBDE60000000000004C
:10A120000000F03F00000000075C143326A6913CBD
:10A13000182D4454FB21F93F0000F07F0000E03F60
:10A14000000000000000F03FC00C0100CE0C010038
:10A15000000000000000E03F120C0100200C010094
:10A160003333EF3F0000000000000000000000401B
:10A17000182D4454FB21E93F70B59B482DED020B8F
:10A180002DED068B079D25F00044A04218DC974872
:10A19000844202DC0AD1069840B19DED060BBDEC6D
:10A1A000068B02B0BDE8704000F038BB002DCCBF7C
:10A1B0009FED8F0B9FED900BBDEC068B02B070BD39
:10A1C0008F48A04215DD8F48A042D8BF4FF0FF3422
:10A1D00058DD9DED060B51EC100BFFF703FE042834
:10A1E00008BF00F041FB9DED060BBDEC068B02B0F5
:10A1F00070BD9DED060B51EC100B00F04DFBCDE951
:10A20000060181489FED828BA0423CDD8248A0423E
:10A210001FDD00249FED82AB9DED060B53EC1A2B46
:10A2200051EC100B00F0D0FB9DED060B41EC190B2F
:10A2300053EC1A2B51EC100B00F082FE53EC182B50
:10A2400001F054F853EC192B00F072FCCDE9060133
:10A2500049E09DED060B012453EC182B51EC100B3B
:10A2600000F0B2FB9DED060B41EC190B53EC182BE3
:10A2700051EC100B01F03AF853EC192B00F058FC9C
:10A28000CDE906012FE06848A0421FDD02249FEDC2
:10A29000689B9DED060B53EC192B51EC100B00F055
:10A2A0004FFE53EC182B00F08FFB9DED060B41EC9D
:10A2B000180B53EC192B51EC100B01F017F853EC61
:10A2C000182B00F035FCCDE906010CE09DED060BE6
:10A2D000032453EC102B9FED580B51EC100B00F0A6
:10A2E00027FCCDE906019DED060B53EC102B51EC3C
:10A2F000100B00F025FE41EC180B53EC182B00F06E
:10A300001FFE41EC190B4E480621B0EE490AF0EE53
:10A31000690A784400F006FA53EC182B51EC100B44
:10A3200000F00EFE41EC180B4648B0EE490AF0EE84
:10A33000690A0521784400F0F5F953EC192B51EC2A
:10A34000100B00F0FDFD41EC100B51EC180B53EC21
:10A35000102B002C0EDA00F037FB9DED061B53ECA2
:10A36000112B00F0EDFD9DED061B53EC112B00F0C1
:10A37000E5FE35E000F028FB9DED061B53EC112BAC
:10A3800000F0DEFD41EC100B2F48784400EBC400D8
:10A3900090ED001B51EC100B53EC112B00F0A6FFBD
:10A3A0009DED061B53EC112B00F0A0FF41EC100BB0
:10A3B0002648784400EBC40090ED001B51EC100BD4
:10A3C00053EC112B00F0BAFE41EC100B002DA2BF94
:10A3D000BDEC068B02B070BD51EC100B00F0B6FA6C
:10A3E00041EC100B01E70000000010440000F07F7A
:10A3F000182D4454FB21F93F182D4454FB21F9BF7B
:10A400000000DC3F0000203E0000F33F00000000A1
:10A41000000000000000F03F0000E63F00000000E8
:10A420000000000000000040008003400000000029
:10A43000000000000000F83F000000000000F0BF36
:10A440006209010018090100A20801005A08010070
:10A4500070B56B4E2DED040B2DED028B82B0DDF847
:10A460001CC0DDE905235C422CF000411C4341EA9D
:10A47000D474049D22F00040B44205D86C422C43B1
:10A4800040EAD474B4420BD99DED061B9DED040B3C
:10A4900002B0BDEC028B04B0BDE8704000F0C8B95A
:10A4A000ACF14054A4F17F641C430BD0022404EAB5
:10A4B000AC7444EAD27405439FED538B9FED542B4B
:10A4C00007D015E09DED040B51EC100B00F0DCF90A
:10A4D00042E0002C11BF012C9DED040B02B0BDEC3D
:10A4E000028B04BF04B070BD022C38D0032C3BD0CB
:10A4F0000B439FED491B9FED4A0B0AD0B14218D187
:10A50000B04209D121F0804120F0804007910590B0
:10A510000FE0002A15DA10E0434B7B44002C08BF03
:10A5200093ED000B0DD0012C10D0022C17D0032C72
:10A530001AD0B0421DD1002A03DAB0EE410AF0EE83
:10A54000610A02B0BDEC028B04B070BD93ED000B4C
:10A5500051EC100B00F0FAF941EC100BF1E7B0EE02
:10A56000480AF0EE680AECE7B0EE420AF0EE620A42
:10A57000E7E7401A00153C28C8BF8DED000B19DC39
:10A58000BCF1000FBEBF10F13C0F9FED290B8DED0C
:10A59000000B0FDB9DED060B53EC102B9DED040B18
:10A5A00051EC100B00F0C4FA00F076F900F06CF9F1
:10A5B000CDE90001002C08BF9DED000BC1D0012C9E
:10A5C00010D0022C9FED1C0B53EC102B9DED000BBB
:10A5D00051EC100B0DD000F089FE53EC182B00F05D
:10A5E00085FEB9E7019880F0004001909DED000BD9
:10A5F000A7E700F07BFE53EC182B00F09FFDABE7C4
:10A600000000F07F00000000182D4454FB21094099
:10A61000182D4454FB2109C0182D4454FB21F9BFC7
:10A62000182D4454FB21F93F8A0701000000000067
:10A630000000000000000000075C143326A6A13CC7
:10A640002DED020B019820F0004001909DED000BD4
:10A6500002B0704731B52DED020BDDE900C2BCF14F
:10A66000000F14BF0121002141EA420111F5001F32
:10A6700007D99DED000B80ED000B9DED000B03B0A5
:10A6800030BDC2F30A510024A1F2FF3102F00043B1
:10A6900014291EDA0029B8BFC0E9004329DB204D88
:10A6A00025FA01F102EA010555EA0C0C1BD022EA59
:10A6B0000101C0E9004190ED000B53EC102B9DED22
:10A6C000000B51EC100B00F011FE03B041EC100B2D
:10A6D00030BD332907DC4FF0FF35143925FA01F17D
:10A6E0001CEA010F09D19DED000B80ED000BCDE9B7
:10A6F00000439DED000B03B030BD2CEA0101C0E921
:10A70000001290ED000B53EC102B9DED000B51EC63
:10A71000100B00F0EBFD03B041EC100B30BD00005E
:10A72000FFFF0F0070B504462DED028B4D1E00EBB0
:10A73000C500B0EE408AF0EE608A90ED000B35F077
:10A74000060017D053EC182B51EC100B00F0F8FB5F
:10A7500041EC100B6D1E04EBC50090ED001B51EC9D
:10A76000100B53EC112B00F02FF941EC100B35F0CE
:10A770000600E7D1022D36D0042D1CD0062D1CBFBB
:10A78000BDEC028B70BD53EC182B51EC100B00F09C
:10A79000D7FB94ED0A1B53EC112B00F015F953EC89
:10A7A000182B00F0CDFB94ED081B53EC112B00F09F
:10A7B0000BF941EC100B53EC182B51EC100B00F083
:10A7C000BFFB94ED061B53EC112B00F0FDF853EC8E
:10A7D000182B00F0B5FB94ED040B53EC102B00F09C
:10A7E000F3F841EC100B53EC182B51EC100B00F06C
:10A7F000A7FB94ED021B53EC112B00F0E5F853EC92
:10A80000182B00F09DFB94ED001B53EC112B00F076
:10A81000DBF8BDEC028B41EC100B70BD10B553ECB6
:10A82000102B51EC100B00F0CFF841EC100B10BDC9
:10A8300010B553EC112B51EC100B00F0C5F841ECA6
:10A84000100B10BD000000009FED050B10B553EC80
:10A85000102B51EC100B00F06BF941EC100B10BDFC
:10A8600000000000000000009FED050B10B553EC48
:10A87000102B51EC100B00F063FB41EC100B10BDE2
:10A88000000000000000001010B541EC100BFFF7B5
:10A8900073FC51EC100B10BD82B0CDE9000121F02A
:10A8A000004001909DED000B02B051EC100B704781
:10A8B00000B52DED048B83B041EC190B00F04AFC80
:10A8C00041EC180B18EE100A18EE901A8DED008B63
:10A8D000002818BF0120084320F00040C0F17F602D
:10A8E00000F1E040C00F14D019EE101A19EE900AD2
:10A8F0008DED009B002918BF0121084320F0004086
:10A90000C0F17F6000F1E040C00F04BF0120FEF7FE
:10A9100092FA51EC180B03B0BDEC048B00BD0000A3
:10A9200010B500290AD00878002807D005487844D7
:10A93000FEF750FE002801D0002010BD02487844E8
:10A9400010BD0000360401002E04010081F000411A
:10A95000704780F00040704721F00041704720F0C0
:10A960000040704721F00042A2F16052B2F5801F12
:10A9700001F0004328BFD2F17F6C0BD95FEA001CC5
:10A9800043EAC20242EB507018BF704728BF20F064
:10A9900001007047B2F5801FBCBF184670474FEAF0
:10A9A000410C1CF5001F02D2084600F0FFBD70B537
:10A9B00000F070FB00000089FFF7F6BF4FF0004089
:10A9C000A0F580007047000010B591EA030F48BF62
:10A9D00083F0004300F19284841A71EB030C05D2DA
:10A9E000121943EB0C03001B61EB0C01DFF824E1AF
:10A9F0004FEA1154A4EB135C1EEA430F18BF9EEA02
:10AA0000445F73D023EA0E03DCF1200E21EA0451E7
:10AA100043F4801332D322FA0CFE10EB0E0023FA1B
:10AA20000CFE41EB0E01CCF1200E03FA0EFE10EBF2
:10AA30000E0051F10001B1F5801FCCF1200E32D291
:10AA400001EB045112FA0EF2BDE8104058BF7047F6
:10AA5000401C38BF5FEA420218BF7047002814BF8D
:10AA600020F0010041F100014FEA410313F5001FFE
:10AA700038BF7047A1F1C04100F05ABB012A43EB37
:10AA80000302ACF1200CDCF11F0E32BF4FF0000EC0
:10AA900023FA0CF310EB030041EB0451B4EB115F0C
:10AAA000D0D0A1EB045101F5801149085FEA3000D4
:10AAB00001EB04510ED350F1000038BF12FA0EFE24
:10AAC00008D1BDE81040C9E7401C38BF5FEA420228
:10AAD000CAD1C3E7BDE810404FEA410313F5001F98
:10AAE00038BF7047A1F1C04100F022BB9EEA445F2D
:10AAF00008D011EA5E0FBDE8104004BF01F000412C
:10AB000000207047BDE8104070B500F0C3FA00BFE8
:10AB100064FBBE3E0000E0FF491058BFC1F1404158
:10AB20005B1058BFC3F140438B42EFF30080704786
:10AB30002DE9C04130B4DFF8A0C23CEA111418BFBF
:10AB40003CEA131400F0EC8081EA03051CEA1114BE
:10AB500044EAD57418BF1CEA131500F0C780A4EBB3
:10AB600005044FF0004545EAC12145EAC32341EA07
:10AB7000505143EA525304F17F74994204F5003472
:10AB80004FEAC0204FEAC22208BF904200F09C80EA
:10AB90004FEA13650FF24016765D4FEA134506FB48
:10ABA00005F7C7F1807706FB07F74FEAD737A7FB12
:10ABB00003687642C8F58038A7FB06CE38BFA8F1F7
:10ABC000010807FB08E64FF0000EA6FB028CE6FB2F
:10ABD00003CEDCF1000CCEF1004E38BFAEF1010E19
:10ABE000A6FB0C584FF000074FF00005E6FB0E8760
:10ABF000A1FB08C6A0FB07CE16EB0E0645F100052B
:10AC0000E1FB076515F1E04E7EBFA4F580345FEAF5
:10AC100046066D4116F1800745F100054FEA1727FA
:10AC20004FEA066647EA0567A6F1DE46B6F1805FA1
:10AC30004FEA15251FD9384624F0010C05EBC471E5
:10AC4000BCF1FE6F01EB0C1102D8F0BCBDE8008135
:10AC500024425CBF01F5801E9EEAC47F02D4F0BC92
:10AC6000BDE80081244238D4F0BCA1F1C041BDE868
:10AC7000004100F05DBA4FEAD22242EA43524FEA65
:10AC8000D323A7FB02864FEAD02040EA415007FBBE
:10AC900003661EEA0E0F4FEAD12105FB026658BF7C
:10ACA000A6EB0056B6EB00564FEA520E4EEAC37EB4
:10ACB00018EB0E0E56EB530EBDD518EB02085E4195
:10ACC0007F1C55F10005B6E74FF480154FF00007E3
:10ACD0004FF000064FF00008ADE7F0BC4FF0000069
:10ACE00001F1C04101F00041BDE8008111EA0C1FF3
:10ACF0000CEA131500D00CE013EA0C1F00F02580BD
:10AD00004FF00000F0BC81EA030101F00041BDE812
:10AD10000081F0BCBDE8004181EA030100F008BAFF
:10AD2000F0BCBDE8004170B500F0B4F9097EFC3E0E
:10AD300000F007B881EA03014FF0000001F0004184
:10AD4000704781EA030100F0F3B9F0BCBDE80041AF
:10AD50004FF0000021497047FFFDFBF9F7F5F4F2D1
:10AD6000F0EEEDEBE9E8E6E4E3E1E0DEDDDBDAD8A6
:10AD7000D7D5D4D3D1D0CFCDCCCBCAC8C7C6C5C404
:10AD8000C2C1C0BFBEBDBCBBBAB9B8B7B6B5B4B31B
:10AD9000B2B1B0AFAEADACABAAA9A8A8A7A6A5A406
:10ADA000A3A3A2A1A09F9F9E9D9C9C9B9A999998CA
:10ADB0009797969595949393929191908F8F8E8E6D
:10ADC0008D8C8C8B8B8A89898888878786858584FA
:10ADD00084838382828181800000FF070000F87FE6
:10ADE0004FEA41034FEA5353A3F58063D3F11E03A7
:10ADF000C8BFD3F1210C0CDD4FF0004242EAC12262
:10AE000042EA505232FA03FC8CEAE17CACEBE1708E
:10AE10007047102BC4BF0020704703F5787CBCF14D
:10AE2000FF3F04D06FF0004282EA2100704770B506
:10AE300000F030F94992248000207047F2E70000CA
:10AE40004FEA1153A3F58063D3F11E03A8BFD3F1DA
:10AE5000200C08DB4FF0004242EAC12252EA505275
:10AE600032FA03F0704709420BD4102BC4BF002004
:10AE7000704703F5787CBCF1FF3F05D04FF0FF3001
:10AE800070474FF00000704770B500F003F900BF45
:10AE90004992248000207047F0E710F0004248BF3C
:10AEA0004042B0FA80F310FA03F10AD0C3F11D0357
:10AEB00003F580634FEA415002EB035202EBD121CC
:10AEC00070474FF00000704751EA030C17D41CF58F
:10AED000801F58BFBCF5801F00F10680994218BF43
:10AEE000704708BF9042704707D711F5801F58BFC1
:10AEF00013F5801F19D499427047894270471CF599
:10AF0000801F08D5BCF5801FF7D58B4218BF70474E
:10AF100008BF824270474FF4001C1CEB410F38BF42
:10AF20001CEB430F01D28B42704770B500F0B2F8B2
:10AF3000922449004FF000514FF08053FFF7ECBDD1
:10AF4000DFF848C170B51CEA111E1EBF1CEA1315BC
:10AF50009EEA0C0F95EA0C0F00F06F8081EA030463
:10AF600023EA4C134EEAD47E21EA4C1141F48011BD
:10AF700043F48013AE44A1FB024CA0FB0365AEF189
:10AF80007F7E361955EB0C05A1FB034C4CF10003F9
:10AF9000A0FB021C16EB0C06654153F100030942AD
:10AFA00018BF46F0010613F4007F0BD14FEA0331BE
:10AFB0004FEA0530340341EA155140EA16506FF06C
:10AFC00003020AE04FEAC3214FEAC520F40241EA36
:10AFD000555140EA56506FF0020202EB2E4201EB4F
:10AFE000025585EACE710AD05FEA440C18BF24F0FE
:10AFF000004450F1000041F1000120EAD47040F219
:10B00000FE7C624500D270BDA84214BF4FF0804460
:10B010004FF04044002E08BF0024BEF1806FA8BF4F
:10B02000A1F1C041BDE8704080F282804FF0000085
:10B0300001F1C04101F0004170479EEA0C0F0CEA9B
:10B04000131518BF95EA0C0F06D04FF0000081EAE7
:10B05000030E0EF0004170BD00F01CF88900013EA7
:10B0600000F007B800F009B84FEA430C5FEA5C5CF7
:10B0700008D081EA030100F05BB84FEA410C5FEAB7
:10B080005C5CF6D14FF00000014970470000FF07FB
:10B090000000F87F0EF1020E2EF0030E5EF8046B36
:10B0A000364205D4012A43EB030515F5001F12D8DB
:10B0B000012841EB010C1CF5001F0CD80ED14FEA02
:10B0C000D17C15F5001F0CEB4C0C0CF1020C08BFE9
:10B0D0004CEBD37C04E04FF0080C01E04FEAD37C4A
:10B0E0000CEB4C0526FA05F606F00706B6F1040C43
:10B0F00006D20EEB860CBDE870404CF0010C6047A8
:10B10000DFE80CF0090B02024FF000414FF00000A5
:10B11000A1F5002170BD19461046012851EB01042C
:10B1200018BFD4F5001484BF002001F0004170BDA9
:10B130000808A0F500114FEA3101704791EA030FAA
:10B1400010B581F000413FF547AC83F0004300F0BB
:10B15000D5B800002DE9F04101F5801CBCF5001FB9
:10B16000C0F2A9804FEA115C21EA0C510CF1FD0CF0
:10B1700041F480115FEA5C0C0CF5C07C01D3400007
:10B18000494130A4890241EA905187028E0E0A0C8F
:10B19000A45D04FB04F602FB06F6C6F14046A4FBE0
:10B1A0000662F60D46EA422606FB06F4A4FB0123DE
:10B1B0005242C3F1404338BF5B1EA6FB024200244B
:10B1C000E6FB0324D20B42EA4446A6FB0623A1FB7E
:10B1D00002E2A3FB07E4E3FB61426442C2F1404E9A
:10B1E00038BFAEF1010EA6FB04234FF00002E6FBD0
:10B1F0000E32A2FB03463400E2FB6264A1FB06E6CA
:10B20000A4FB07E8E4FB61687642C8F1405838BF08
:10B21000A8F10108A2FB06E4A3FB08E5E2FB6854E1
:10B22000A1FB05E6A7FB04E8E1FB648618F1200515
:10B2300056F10006A809A8F11B08B10908F03F085B
:10B24000B8F10A0F40EA86601CD901EB0C51BDE849
:10B25000F08100BFFCF5EEE8E2DDD8D3CFCBC7C369
:10B26000C0BDB9B6B4B1AEACA9A7A5A3A19F9D9B23
:10B270009A9896959392908F8D8C8B8988878685E6
:10B2800084838281A0FB006800FB01F208EB420886
:10B29000B8EB872807D5341858EB0104D5D5401CE6
:10B2A00051F10001D1E7341A78EB0104CDD4401EEE
:10B2B00071F10001C9E75FEA4C0C5FEA9C5C0DD1BB
:10B2C00005D34FF0000001F00041BDE8F081BDE87A
:10B2D000F04170B5FFF7DEFE6DDBFFBEBDE8F0416B
:10B2E0004FF00000004970470000F87F10B591EA68
:10B2F000030F48BF83F000433FF56EAB841A71EB38
:10B30000030C07D212198CF0004C43EB0C03001B0A
:10B3100061EB0C01DFF8A4E14FEA1154A4EB135CDC
:10B320001EEA430F18BF9EEA445F00F0B08023EA94
:10B330006E03524221EA0451C3EB6E0338BF5B1E19
:10B34000DCF1200E25D322FA0CFE10EB0E0043FA9E
:10B350000CFE41EB0E01CCF1200E03FA0EFE10EBB9
:10B360000E0051F10001CCF1200E29D412FA0EF298
:10B3700001EB0451BDE8104058BF7047401C1CBF92
:10B38000B2F1004F704700280CBF491C20F00100AB
:10B39000704712EB020E43EB030218BF4FF0010E91
:10B3A0004EEA4202ACF1200CDCF11E0E54D943FAF5
:10B3B0000CFE10EB0E0051F1FF31CCF11E0ED5D575
:10B3C0000EF1010E12FA0EFE404141EB010101EBBC
:10B3D000445C5FEA5C5C10D910EBDE7001EB045159
:10B3E00038BFBEF1004FBDE8104018BF70470028BD
:10B3F0000CBF491C20F00100704730D24FEAD42C1A
:10B4000011F5001124F400641BD0B1FA81F20B3A5B
:10B41000A41AA41ED2F12003914030FA03F3194379
:10B42000904001EBCC71002C01EB0451BDE81040C1
:10B43000A8BF704701F1C0414FF0000001F000418A
:10B440007047B0FA80F310FA03F100D110BDE41A8E
:10B45000173C4805C90AE4E701EB045110BD491047
:10B4600001EB0451BDE810404FEA300002E04FF01C
:10B47000000170474A0008BF0042F8D0B2F5001F33
:10B4800028BF704701F000414FF0000070479EEA6E
:10B49000445F07D011EA5E0FBDE8104004BF0021F1
:10B4A00000207047BDE8104070B5FFF7F3FD00BF06
:10B4B00040DFF63E83F00041104670470000E0FF99
:10B4C00043004FEAD30C4FEA3C0C43401FBF4007F8
:10B4D0000CF1605113F0FE4F70471CF0006F03D168
:10B4E00000200CF0004170470CF0004343EA50701C
:10B4F00010B540EACC0000F00EF800BF000000924A
:10B500004FEA0001FFF714BE4FF000414FF000007A
:10B51000A1F5002170470EF1020E2EF0030E5EF829
:10B52000044B244204D44FEA4102B2F17F4F11D8B8
:10B530004FEA4003B3F17F4F0CD80ED14FEAD07CD5
:10B54000B2F17F4F0CEB4C0C0CF1020C08BF4CEB32
:10B55000D17C04E04FF0080C01E04FEAD17C0CEB09
:10B560004C0324FA03F404F00704B4F1040C06D2EB
:10B570000EEB840CBDE810404CF0010C6047DFE896
:10B580000CF0070802024FF00040A0F5800010BD4B
:10B590000846420018BFD2F1807288BF00F0004018
:10B5A00010BD4FF04070E1EE100A7047FF2141EAF4
:10B5B000D050C0057047FDF776BD000000000000C8
:10B5C000000000000000000000000000808080E01B
:10B5D000E0E0E0FCFCFCFCFCFCFCFCFCFCFCFCFCFF
:10B5E000FCE0E0E0E080808000000000000000005F
:10B5F000000000000000000000000000000000004B
:10B60000000000000000000000000000000000003A
:10B61000000000000000000000000000000000002A
:10B62000000000000000000000000000000000001A
:10B63000000000000000000000000000000000000A
:10B640000000000000000000C0C0FEFEFFFFFFFF82
:10B65000FFFFFFFFFFFFFFFFFFFFFFFFFFFFFFFFFA
:10B66000FFFFFFFFFFFFFFFFFEFEC0C00000000066
:10B6700000000000000000000000000000000000CA
:10B6800000000000000000000000000000000000BA
:10B6900000000000000000000000000000000000AA
:10B6A000000000000000000000000000000000009A
:10B6B000000000000000000000000000000000008A
:10B6C0000000000000000000FFFFFFFFFFFFFFFF82
:10B6D000FFFFFFFFFFFFFFFFFFFFFFFFFFFFFFFF7A
:10B6E000FFFFFFFFFFFFFFFFFFFFFFFF0000000066
:10B6F0000000000000000000000000001011161003
:10B7000010F010101413100000004040424242425A
:10B7100042FE424242424240400020242424FE2372
:10B72000222020FF20222CA02000008060F80700AB
:10B73000F8010600040404FC000000000000000002
:10B7400000000000000000003F3FFFFFFFFFFFFF81
:10B75000FFFFFF0707010101F9F9FFFFFFFFFFFFEF
:10B76000FFFFFFFFFFFFFFFFFFFF3F3F0000000065
:10B770000000000000000000000081814141211113
:10B780000D030D11214141818100000000000040A6
:10B79000807F0000000000000000000848847F0255
:10B7A000414020130C142241F800010000FF00006A
:10B7B000FF0000000040807F00000000000000004B
:10B7C0000000008080808080E0E0E3E3FFFFFFFF77
:10B7D000FFFFFFFCFCE0E0E0E3E3FFFFFFFFFFFF14
:10B7E000FFFFFFFFFFFFFFFFE3E3E0E080808080DB
:10B7F00080000000000000000000000000000000C9
:10B800000000000000000000000000000000000038
:10B810000000000000000000000000000000000028
:10B820000000000000000000000000000000000018
:10B83000000000000000000000000000C0C0C0FECA
:10B84000FEFEFEFFFFFFFFFFFFFFFFFFFFFFFFFF0B
:10B85000FFFFFFFFFFFFFFFFFFFFFFFFFFFFFFFFF8
:10B86000FFFFFFFFFFFFFFFFFFFFFFFFFFFFFFFFE8
:10B87000FFFEFEF8F8C0C0C000000000000000009D
:10B8800000000000000000000000000000000000B8
:10B8900000000000000000000000000000000000A8
:10B8A0000000000000000000000000000000000098
:10B8B0000000000000000000000000001F1F1F7FAC
:10B8C0007FFFFFFFFFFFFFFFFFFFFFFFFFFFFFFF08
:10B8D000FFFFFFFFFFFFFFFFFFFFFFFFFFFFFFFF78
:10B8E000FFFFFFFFFFFFFFFFFFFFFFFFFFFFFFFF68
:10B8F000FFFFFF7F7F1F1F1F0000000000000000F0
:10B900000000000000000000000000000000000037
:10B910000000000000000000000000000000000027
:10B920000000000000000000000000000000000017
:10B930000000000000000000000000000000000007
:10B9400000010101010101010101070707070707C4
:10B950000707070707070707070707070707070777
:10B96000070707070707070707070101010101018B
:10B9700001010100000000000000000000000000C4
:10B9800000000000000000000000000000000000B7
:10B9900000000000000000000000000000000000A7
:10B9A0000000000000000000000000000000000097
:10B9B0000000000000000000000000000000000087
:10B9C0000000000000000000000000000000000077
:10B9D0000000000000000000000000000000000067
:10B9E0000000000000000000000000000000000057
:10B9F0000000000000000000000000000000000047
:10BA00000000000000000000000000000000000036
:10BA10000000000000000000000000000000000026
:10BA20000000000000000000000000000000000016
:10BA300000000000000000000000E01008080810EE
:10BA4000E000E01008080810E000000000C0C0009E
:10BA50000000001010F8000000000030088888483E
:10BA600030000000C02010F8000000E010888818A6
:10BA7000000000F808888808080000E0108888188E
:10BA800000000070880808887000001010F800009E
:10BA900000000030088888483000000000000000E6
:10BAA0000000000000000000000000000000000096
:10BAB000000000000000000000000F18242438508F
:10BAC0004F000F18242438504F0000000030300081
:10BAD00000000020203F202000000018202020111E
:10BAE0000E0000070424243F2400000F1120201121
:10BAF0000E000019212020110E00000F112020112E
:10BB00000E00001C222121221C000020203F2020AA
:10BB100000000018202020110E000000000000008E
:10BB20000000000000000000000000000000000015
:10BB30000000000000000000000000000000000005
:10BB400000000000000000000000000000000000F5
:10BB500000000000000000000000000000000000E5
:10BEE000E0F8FCFEFEFFFFFFFFFFFF7F3F1F1E0E7F
:10BEF0000000000000000000000000000000000042
:10BF00000000000000000000000000000000000031
:10BF10000000000000000000000000000000000021
:10BF20000000000000000000000000000000000011
:10BF30000000000000000000000000000000000001
:10BF400000000000000000000000000000000000F1
:10BF500000000000000000000000000080C0C0E001
:10BF6000FFFFFFFFFFFFFFFFFFFFFFFCF8F0F0F018
:10BF7000E0F0F8FCFFFFFEFEF80000040404FF54AC
:10BF800054545454FF04040400000484E45C44C486
:10BF9000007C4040FF40407C0000404042CC0040DC
:10BFA000A09E8282829EA0202000001715D55557A2
:10BFB000557D555755D5151700000000000000802D
:10BFC00080C0C0E0E0E0E0E0E0E0E0E0E0E0C0C051
:10BFD000C0C0C0E0F0F0F8F8FCFEFEFFFFFFFFFF7E
:10BFE000FFFFFFFFFFFF7F7F3F1F1F3F3F3F3F3FA1
:10BFF0003F3F3F3F1F1F0F030000111189859391A1
:10C0000091FD919193858911110002017F10103FDC
:10C01000007E40407F4040FE00000000003F9088CE
:10C0200040432C102846418080004040407F5555B9
:10C0300055555555557F4040400000C0F8FCFFFF66
:10C04000FFFFFFFFFF7F7FFFFFFFFFFFFFFFFFFF00
:10C05000FFFFFFFFFFFFFFFFFFFF7F7F3F1F0F0778
:10C0600007030101000000000000000000000000C4
:10C0700000000000000000000000000000000000C0
:10C08000000000000000000000000000000000FCB4
:10C09000F8F0E0C0800000000000404042CC00808A
:10C0A0008888FF8888FF88888000000000000001E1
:10C0B000E21CE00000000000000000070F1F0F0F4F
:10C0C000070303010000000000000183FFFFFFFFE2
:10C0D000FFFFFFFFFFFFFFFFFF0000000000000069
:10C0E0000000000000000000000000000000000050
:10C0F0000000000000000000000000000000000040
:10C100000000000000000000000000000000007FB0
:10C110003F1F0F070301000000000040201F2040C8
:10C12000504C4340405F40404000804020100C0392
:10C13000000000030C304080800000000000000080
:10C14000000000003078787CFEFFFFFFFFFFFFFF5C
:10C15000FF7F7F3F3F1F070300000000000000003B
:10C1600000000000000000000000000000000000CF
:10C1700000000000000000000000000000000000BF
:10C1800000000000000000000000000000000000AF
:10C19000000000000000000000000000000000009F
:10C1A000000000000000000000000000000000008F
:10C1B000000000000000000000000000000000007F
:10C1C000000000000000000000000000000000006F
:10C1D000000000000000000000000000000000005F
:10C1E000000000000000000000000000000000004F
:10C1F000000000000000000000000000000000003F
:10C20000000000000000000000000000000000002E
:10C21000000000000000000000000000000000001E
:10C22000000000000000000000000000000000000E
:10C2300000000000000000000000000000000000FE
:10C2400000000000000000000000000000000000EE
:10C2500000000000000000000000000000000000DE
:10C2600000000000000000000000000000000000CE
:10C2700000000000000000000000000000000000BE
:10C2800000000000000000000000000000000000AE
:10C29000000000000000000000000000000000009E
:10C2A000000000000000000000000000000000008E
:10C2B000000000000000000000000000000000FC82
:10C2C000F8F0E0C080000000000000FE0222DA0664
:10C2D00020D808090E088828180000F808FF08F878
:10C2E000003EAA6A3E2AAA3E0000008060F80700CD
:10C2F0001CE0010600E01E0000001010D0FF9010AE
:10C30000804828090E082848880000020CE04020D8
:10C31000F84F4849FE4848480800000000C0C000E7
:10C32000000000001011161010F01010141310006F
:10C330000000000000000000000000000000007F7E
:10C340003F1F0F0703010000000000FF081008074F
:10C35000003F44444241407800002063211F1139CE
:10C360004829098DFB09082C5800010000FF0080B6
:10C370004020130C132040808000040300FF0001C4
:10C380008080432C102C4380800004047F00000038
:10C39000FF2222223F222222200000000030300013
:10C3A00000008181414121110D030D112141418185
:10C3B00081000000000000000000000000000000FC
:10C3C00000000000000000000000101010FF10909E
:10C3D0002030282423202830600040484848FF4867
:10C3E0004800C4444444FC0000001010D0FF9050AA
:10C3F00020504C434C50204040001060028C00FE06
:10C4000002F202FE00F800FF000000000000000041
:10C410000000000000000000000080828282FE8296
:10C4200082828282FE828282800000000000000000
:10C4300000000000000000000000000000000000FC
:10C44000000000000000000000000444827F0100A2
:10C4500000FF4141414141FF000080601F207F44B7
:10C4600044404F505050505C4000040300FF0041D6
:10C470004458414E60584740400004047E018047C4
:10C48000300F10270047807F000000003636000084
:10C4900000000000000000000000008040300F009D
:10C4A00000000000FF00000000000000000000008D
:10C4B000000000000000000000000000000000007C
:10C4C000000000000000000000000000000000006C
:10C4D000000000000000000000000000000000005C
:10C4E000000000000000000000000000000000004C
:10CCC000000000000000C0E0303000000000000064
:10CCD0000000000000000000000000000000000054
:10CCE0000000000000000000000000000000000044
:10CCF000000000000000000000001818181C1C1C98
:10CD00003C3C38606040C0C0C0C000000000000073
:10CD10000000000000000000000000000000000013
:10CD20000000000000000000000000000000000003
:10CD300000000000000000000000C0C0C0C0C0C073
:10CD40004060783C3C1C1C1C1C18000000000000CB
:10CD500000000000000000000000000000000000D3
:10CD600000000000000000000000000000000000C3
:10CD7000000000000000000000001830E08000000B
:10CD800000000000000000000000000000000000A3
:10CD90000000000000000000000000000000000093
:10CDA0000000000000000000000000000000000083
:10CDB0000000000000000000000000000000000073
:10CDC00000000000F07E0700C0C00000000000006E
:10CDD0000000000000000000000000000000000053
:10CDE0000000000000000000000000000000000043
:10CDF00000000000000000000000C0C0C0FEFEC037
:10CE0000C0C0C0C000000000000000000000000022
:10CE10000000000000000000000000000000000012
:10CE20000000000000000000000000000000000002
:10CE300000000000000000000000000000000000F2
:10CE4000C02020C00C12120CC02000000000000006
:10CE500000000000000000000000000000000000D2
:10CE600000000000000000000000000000000000C2
:10CE70000000000000000000000020C000073EF09D
:10CE80008000000000000000000000000000000022
:10CE90000000000000000000000000000000000092
:10CEA0000000000000000000000000000000000082
:10CEB0000000000000000000000000000000000072
:10CEC000000000FFFF000000000000000000000064
:10CED0000000000000000000000000000000000052
:10CEE0000000000000000000000000000000000042
:10CEF000000000000000000000000000001F1F00F4
:10CF000000000000009C9494949C0000000000002D
:10CF10000000000000000000000000000000000011
:10CF20000000000000000000000000000000000001
:10CF30000000000000000000000080809C94141499
:10CF40001C0101000C12120C000100000000000086
:10CF500000000000000000000000000000000000D1
:10CF600000000000000000000000000000000000C1
:10CF7000000000000000000000000100000000FFB1
:10CF8000FF000000000000000000000000000000A2
:10CF90000000000000000000000000000000000091
:10CFA0000000000000000000000000000000000081
:10CFB0000000000000000000000000000000000071
:10CFC000000000030F1C3060404000000000000023
:10CFD0000000000000000000000000000000000051
:10CFE0000000000000000000000000000000000041
:10CFF0000000000000000000000040606030181CCD
:10D000000C060203030101036EF80000000000009B
:10D010000000000000000000000000000000000010
:10D020000000000000000000000000000000000000
:10D0300000000000000000000000980E03810103C2
:10D040000306060C1830306060600000000000002D
:10D0500000000000000000000000000000000000D0
:10D0600000000000000000000000000000000000C0
:10D0700000000000000000000000606060301C073D
:10D08000010000000000000000000000000000009F
:10D090000000000000000000000000000000000090
:10D0A0000000000000000000000000000000000080
:10D0B0000000000000000000000000000000000070
:10D0C0000000000000000000000000000000000060
:10D0D0000000000000000000000000000000000050
:10D0E0000000000000000000000000000000000040
:10D0F0000000000000000000000000000000000030
:10D10000000000000000000000010000000000001E
:10D11000000000000000000000000000000000000F
:10D1200000000000000000000000000000000000FF
:10D1300000000000000000000000010101010302E6
:10D1400000000000000000000000000000000000DF
:10D1500000000000000000000000000000000000CF
:10D1600000000000000000000000000000000000BF
:10D1700000000000000000000000000000000000AF
:10D3B00000000000000000000000000000C0E0E0ED
:10D3C000F8FCF8F8F0F0E0E0C0C000000000000059
:10D3D000000000000000000000000000000000004D
:10D3E000000000000000000000000000000000003D
:10D3F00000000000000000000000808000000080AD
:10D40000000000000000000000000000000000001C
:10D41000000000000000000000000000000000000C
:10D4200000000000000000000000000000000000FC
:10D4300000000000000000000000000000000000EC
:10D4400000000000000000000000000000000000DC
:10D4500000000000000000000000000000000000CC
:10D4600000000000000000000000000000000000BC
:10D4700000000000000000000000000000000000AC
:10D48000000000000000000000000000000000009C
:10D49000000000000000000000000000000000008C
:10D4A000000000000000000000000000000000007C
:10D4B000000000000000000000000000033F7FFFAC
:10D4C000FFFFFFFFFFFFFFFFFFFF00000000000066
:10D4D000000000000000000000000000000000004C
:10D4E000000000000000000000000000000000003C
:10D4F00000000000000000000000FFFFFFFFFFFF32
:10D50000FFFFFEFCFCF8F8F0F0E000000000000077
:10D51000000000000000000000000000000000000B
:10D5200000000000000000000000000000000000FB
:10D5300000000000000000000000E0C0C08000000B
:10D5400000000000000000000000000000000000DB
:10D5500000000000000000000000000000000000CB
:10D5600000000000000000000000000000000000BB
:10D5700000000000000000000000000000000000AB
:10D58000000000000000000000000000000000009B
:10D59000000000000000000000000000000000008B
:10D5A000000000000000000000000000000000007B
:10D5B000000000000000000000000000000000006B
:10D5C0000001010303070F8FFFFF000000000000B0
:10D5D000000000000000000000000000000000004B
:10D5E000000000000000000000000000000000003B
:10D5F00000000000000000000000FFFFFFFFFFFF31
:10D60000FFFFFFFFFFFFFFFFFFFF00000000000024
:10D61000000000000000000000000000000000000A
:10D6200000000000000000000000000000000000FA
:10D6300000000000000000000000FFFFFFFFFFFFF0
:10D64000FEFEFCFCF8F8F0C0000000000000000046
:10D6500000000000000000000000000000000000CA
:10D6600000000000000000000000000000000000BA
:10D6700000000000000000000000000000000000AA
:10D68000000000000000000000000000000000009A
:10D69000000000000000000000000000000000008A
:10D6A000000000000000000000000000000000007A
:10D6B000000000000000000000000000000000006A
:10D6C0000000000000000000000100000000000059
:10D6D000000000000000000000000000000000004A
:10D6E000000000000000000000000000000000003A
:10D6F0000000000000000000000001030307070F06
:10D700001F1F3F3F7F3FFFFFFFFF000000000000A3
:10D710000000000000000000000000000000000009
:10D7200000000000000000000000000000000000F9
:10D7300000000000000000000000FFFFFFFFFFFFEF
:10D74000FFFFFFFFFFFFFFFFFFFF000000000000E3
:10D7500000000000000000000000000000000000C9
:10D7600000000000000000000000000000000000B9
:10D7700000000000000000000000FEFEFEFEFEFCB7
:10D78000FEFCFC8080800000000000000000000023
:10D790000000000000000000000000000000000089
:10D7A0000000000000000000000000000000000079
:10D7B0000000000000000000000000000000000069
:10D7C0000000000000000000000000000000000059
:10D7D0000000000000000000000000000000000049
:10D7E0000000000000000000000000000000000039
:10D7F0000000000000000000000000000000000029
:10D800000000000000061F3F78F00000000000004C
:10D810000000000000000000000000000000000008
:10D8200000000000000000000000000000000000F8
:10D8300000000000000000000000F0F0DCFFFFFF2F
:10D84000FFFFFFFFFFFFFFFFFFFF000000000000E2
:10D8500000000000000000000000000000000000C8
:10D8600000000000000000000000000000000000B8
:10D8700000000000000000000000FFFFFFFFFFFFAE
:10D88000FFBF8F8F070707000000000000000000A7
:10D890000000000000000000000000000000000088
:10D8A0000000000000000000000000000000000078
:10D8B0000000000000000000000000000000000068
:10D8C0000000000000000000000000000000000058
:10D8D0000000000000000000000000000000000048
:10D8E0000000000000000000000000000000000038
:10D8F0000000000000000000000000000000000028
:10D900000000000000000000000000000000000017
:10D910000000000000000000000000000000000007
:10D9200000000000000000000000000000000000F7
:10D93000000000000000000000000001010103FFE2
:10D94000FFFFFFFFFFFFFFFFFFFF000000000000E1
:10D9500000000000000000000000000000000000C7
:10D9600000000000000000000000000000000000B7
:10D97000000000000000000000008F070303030701
:10D980000707070703000000000000000000000078
:10D990000000000000000000000000000000000087
:10D9A0000000000000000000000000000000000077
:10D9B0000000000000000000000000000000000067
:10D9C0000000000000000000000000000000000057
:10D9D0000000000000000000000000000000000047
:10D9E0000000000000000000000000000000000037
:10D9F0000000000000000000000000000000000027
:10DA00000000000000000000000000000000000016
:10DA10000000000000000000000000000000000006
:10DA200000000000000000000000000000000000F6
:10DA300000000000000000000000000000E0FFFF08
:10DA4000FFFFFFFFFFFFFFFFFFFF000000000000E0
:10DA500000000000000000000000000000000000C6
:10DA600000000000000000000000000000000000B6
:10DA700000000000000000000000FF0000000000A7
:10DA80000000000000000000000000000000000096
:10DA90000000000000000000000000000000000086
:10DAA0000000000000000000000000000000000076
:10DAB0000000000000000000000000000000000066
:10DAC0000000000000000000000000000000000056
:10DAD0000000000000000000000000000000000046
:10DAE0000000000000000000000000000000000036
:10DAF0000000000000000000000000000000000026
:10DB00000000000000000000000000000000000015
:10DB10000000000000000000000000000000000005
:10DB200000000000000000000000000000000000F5
:10DB300000000000000000000000070707070707BB
:10DB40000F0F0F1F1F1F1F1F1F07000000000000E7
:10DB500000000000000000000000000000000000C5
:10DB600000000000000000000000000000000000B5
:10DB700000000000000000000000010000000000A4
:10DB80000000000000000000000000000000000095
:10DB90000000000000000000000000000000000085
:10DBA0000000000000000000000000000000000075
:10DBB0000000000000000000000000000000000065
:10DBC0000000000000000000000000000000000055
:10DBD0000000000000000000000000000000000045
:10DBE0000000000000000000000000000000000035
:10DBF0000000000000000000000000000000000025
:10DC00000000000000000000000000000000000014
:10DC10000000000000000000000000000000000004
:10DC200000000000000000000000000000000000F4
:10DC300000000000000000000000000000000000E4
:10DC400000000000000000000000000000000000D4
:10DC500000000000000000000000000000000000C4
:10DC600000000000000000000000000000000000B4
:10DC700000000000000000000000000000000000A4
:10DC80000000000000000000000000000000000094
:10DC90000000000000000000000000000000000084
:10DCA0000000000000000000000000000000000074
:10DCB0000000000000000000000000000000000064
:10DCC00000008000000000000000000000000000D4
:10DCD0000000000000000000000000000000000044
:10DCE0000000000000000000000000000000000034
:10DCF0000000000000000000000000000000000024
:10DD00000000000000000000000000000000000013
:10DD10000000000000000000000000000000000003
:10DD200000000000000000000000000000000000F3
:10DD300000000000000000000000000000000000E3
:10DD400000000000000000000000000000000000D3
:10DD500000000000000000000000000000000000C3
:10DD600000000000000000000000000000000000B3
:10DD70000000000000000000000000000000008023
:10DD80008000000000000000000000000000000013
:10DD90000000000000000000000000000000000083
:10DDA0000000000000000000000000000000000073
:10DDB0000000000000000000000000000000000063
:10DDC000000103070F0E1C387870000000000000EF
:10DDD0000000000000000000000000000000000043
:10DDE0000000000000000000000000000000000033
:10DDF0000000000000000000000060000080C0E0A3
:10DE00007038389C9CCECECECECE000000000000F4
:10DE10000000000000000000000000000000000002
:10DE200000000000000000000000000000000000F2
:10DE3000000000000000000000000E0E0E0E1C1C72
:10DE4000383870E0E0C000002070000000000000E2
:10DE500000000000000000000000000000000000C2
:10DE600000000000000000000000000000000000B2
:10DE700000000000000000000000383C1C0E0707F6
:10DE8000030000000000000000000000000000008F
:10DE90000000000000000000000000000000000082
:10DEA0000000000000000000000000000000000072
:10DEB0000000000000000000000000000000000062
:10DEC0000000000000000000000000000000000052
:10DED0000000000000000000000000000000000042
:10DEE0000000000000000000000000000000000032
:10DEF00000000000000000000000F0FCFF0FC3F86D
:10DF0000FC1E0F07030101010100000000000000DA
:10DF10000000000000000000000000000000000001
:10DF200000000000000000000000000000000000F1
:10DF300000000000000000000000000000000000E1
:10DF400000000000030FFFFEF000000000000000D2
:10DF500000000000000000000000000000000000C1
:10DF600000000000000000000000000000000000B1
:10DF700000000000000000000000000000000000A1
:10DF80000000000000000000000000000000000091
:10DF90000000000000000000000000000000000081
:10DFA0000000000000000000000000000000000071
:10DFB000000000000000000000000000000707074C
:10DFC0000707070707070700000000000000000020
:10DFD0000000000000000000000000000000000041
:10DFE0000000000000000000000000000000000031
:10DFF000000000000000000000001F7FFFE083031E
:10E00000010000000000000000000000000000000F
:10E010000000000000000000000000000000000000
:10E0200000000000000000000000000000000000F0
:10E0300000000000000000000000000000000000E0
:10E040000000000000C0FFFF1F00000000000000F3
:10E0500000000000000000000000000000000000C0
:10E0600000000000000000000000000000000000B0
:10E070000000000000000000000000000707070784
:10E080000707070707070000000000000000000066
:10E090000000000000000000000000000000000080
:10E0A0000000000000000000000000000000000070
:10E0B0000000000000000000000000000000000060
:10E0C0000000000080C0C0E0707800000000000088
:10E0D0000000000000000000000000000000000040
:10E0E0000000000000000000000000000000000030
:10E0F00000000000000000000000380001070F3E93
:10E10000FCF0C00000000000000000000000000063
:10E1100000000000000000000000000000000000FF
:10E1200000000000000000000000000000000000EF
:10E1300000000000000000000000000000000000DF
:10E1400080F0F83E0F070100307000000000000072
:10E1500000000000000000000000000000000000BF
:10E1600000000000000000000000000000000000AF
:10E1700000000000000000000000F0E0C08080000F
:10E18000000000000000000000000000000000008F
:10E19000000000000000000000000000000000007F
:10E1A000000000000000000000000000000000006F
:10E1B000000000000000000000000000000000005F
:10E1C0000004060703030100000000000000000037
:10E1D000000000000000000000000000000000003F
:10E1E000000000000000000000000000000000002F
:10E1F000000000000000000000000000000000001F
:10E20000CFFF6F6060606060606000000000000031
:10E2100000000000000000000000000000000000FE
:10E2200000000000000000000000000000000000EE
:10E23000000000000000000000006060606060609E
:10E24000EFFFCF0000000000000000000000000011
:10E2500000000000000000000000000000000000BE
:10E2600000000000000000000000000000000000AE
:10E27000000000000000000000000000010307078C
:10E280000600000000000000000000000000000088
:10E29000000000000000000000000000000000007E
:10E2A000000000000000000000000000000000006E
:10E2B000000000000000000000000000000000005E
:10E2C000000000000000000000000000000000004E
:10E2D000000000000000000000000000000000003E
:10E2E000000000000000000000000000000000002E
:10E2F000000000000000000000000000000000001E
:10E30000030707F7F7E7870707070000000000008B
:10E3100000000000000000000000000000000000FD
:10E3200000000000000000000000000000000000ED
:10E330000000000000000000000007078787F7F7D3
:10E3400007070300000000000000000000000000BC
:10E3500000000000000000000000000000000000BD
:10E3600000000000000000000000000000000000AD
:10E37000000000000000000000000000000000009D
:10E38000000000000000000000000000000000008D
:10E39000000000000000000000000000000000007D
:10E3A000000000000000000000000000000000006D
:10E3B000000000000000000000000000000000005D
:10E3C000000000000000000000000000000000004D
:10E3D000000000000000000000000000000000003D
:10E3E000000000000000000000000000000000002D
:10E3F000000000000000000000000000000000001D
:10E400000000000103030307070E000000000000E6
:10E4100000000000000000000000000000000000FC
:10E4200000000000000000000000000000000000EC
:10E4300000000000000000000000070703030101C6
:10E4400000000000000000000000000000000000CC
:10E4500000000000000000000000000000000000BC
:10E4600000000000000000000000000000000000AC
:10E47000000000000000000000000000000000009C
:10E74000E0F8FCFEFEFFFFFFFFFF000000000000FE
:10E7500000000000000000000000000000000000B9
:10E7600000000000000000000000000000000000A9
:10E7700000000000000000000000FF7F3F1F1E0E91
:10E780000000000000000000000000000000000089
:10E790000000000000000000000000000000000079
:10E7A0000000000000000000000000000000000069
:10E7B0000000000000000000000000000000000059
:10E7C0000000000000000000000000000000000049
:10E7D0000000000000000000000000000000000039
:10E7E0000000000000000000000000000000000029
:10E7F0000000000000000000000000000000000019
:10E800000000000000000000000000000000000008
:10E8100000000000000000000000000000000000F8
:10E8200000000000000000000000000000000000E8
:10E8300000000000000000000000000080C0C0E0F8
:10E84000FFFFFFFFFFFFFFFFFFFF000000000000D2
:10E8500000000000000000000000000000000000B8
:10E8600000000000000000000000000000000000A8
:10E8700000000000000000000000FFFCF8F0F0F0D5
:10E88000E0F0F8FCFFFFFEFEF800000000000000D2
:10E890000000000000000000000000000000000078
:10E8A0000000000000000000000000000000000068
:10E8B00000000000000000000000000000000080D8
:10E8C00080C0C0E0E0E0E0E0E0E000000000000028
:10E8D0000000000000000000000000000000000038
:10E8E0000000000000000000000000000000000028
:10E8F00000000000000000000000E0E0E0E0C0C018
:10E90000C0C0C0E0F0F0F8F8FCFE0000000000001D
:10E9100000000000000000000000000000000000F7
:10E9200000000000000000000000000000000000E7
:10E9300000000000000000000000FEFFFFFFFFFFDE
:10E94000FFFFFFFFFFFF7F7F3F1F00000000000071
:10E9500000000000000000000000000000000000B7
:10E9600000000000000000000000000000000000A7
:10E97000000000000000000000001F3F3F3F3F3F3D
:10E980003F3F3F3F1F1F0F0300000000000000003B
:10E990000000000000000000000000000000000077
:10E9A0000000000000000000000000000000000067
:10E9B0000000000000000000000000C0F8FCFFFFA5
:10E9C000FFFFFFFFFF7F7FFFFFFF00000000000051
:10E9D0000000000000000000000000000000000037
:10E9E0000000000000000000000000000000000027
:10E9F00000000000000000000000FFFFFFFFFFFF1D
:10EA0000FFFFFFFFFFFFFFFFFFFF00000000000010
:10EA100000000000000000000000000000000000F6
:10EA200000000000000000000000000000000000E6
:10EA3000000000000000000000007F7F3F1F0F0764
:10EA400007030101000000000000000000000000BA
:10EA500000000000000000000000000000000000B6
:10EA600000000000000000000000000000000000A6
:10EA70000000000000000000000000000000000096
:10EA80000000000000000000000000000000000086
:10EA90000000000000000000000000000000000076
:10EAA0000000000000000000000000000000000066
:10EAB0000000000000000000000000070F1F0F0F03
:10EAC0000703030100000000000000000000000038
:10EAD0000000000000000000000000000000000036
:10EAE0000000000000000000000000000000000026
:10EAF000000000000000000000000183FFFFFFFF96
:10EB0000FFFFFFFFFFFFFFFFFF000000000000000E
:10EB100000000000000000000000000000000000F5
:10EB200000000000000000000000000000000000E5
:10EB300000000000000000000000000000000000D5
:10EB400000000000000000000000000000000000C5
:10EB500000000000000000000000000000000000B5
:10EB600000000000000000000000000000000000A5
:10EB70000000000000000000000000000000000095
:10EB80000000000000000000000000000000000085
:10EB90000000000000000000000000000000000075
:10EBA0000000000000000000000000000000000065
:10EBB0000000000000000000000000000000000055
:10EBC000000000003078787CFEFF000000000000AC
:10EBD0000000000000000000000000000000000035
:10EBE0000000000000000000000000000000000025
:10EBF00000000000000000000000FFFFFFFFFFFF1B
:10EC0000FF7F7F3F3F1F0703000000000000000060
:10EC100000000000000000000000000000000000F4
:10EC200000000000000000000000000000000000E4
:10EC300000000000000000000000000000000000D4
:10EC400000000000000000000000000000000000C4
:10EEF000000000000000000000000000808080E0B2
:10EF0000E0E0E0FCFCFCFCFCFCFC0000000000007D
:10EF100000000000000000000000000000000000F1
:10EF200000000000000000000000000000000000E1
:10EF300000000000000000000000FCFCFCFCFCFCE9
:10EF4000FCE0E0E0E08080800000000000000000C5
:10EF500000000000000000000000000000000000B1
:10EF600000000000000000000000000000000000A1
:10EF70000000000000000000000000000000000091
:10EF80000000000000000000000000000000000081
:10EF90000000000000000000000000000000000071
:10EFA0000000000000000000000000000000000061
:10EFB0000000000000000000000000000000000051
:10EFC0000000000000000000C0C0000000000000C1
:10EFD0000000000000000000000000000000000031
:10EFE0000000000000000000000000000000000021
:10EFF00000000000000000000000FEFEFFFFFFFF19
:10F00000FFFFFFFFFFFFFFFFFFFF0000000000000A
:10F0100000000000000000000000000000000000F0
:10F0200000000000000000000000000000000000E0
:10F0300000000000000000000000FFFFFFFFFFFFD6
:10F04000FFFFFFFFFFFFFFFFFEFE000000000000CC
:10F0500000000000000000000000000000000000B0
:10F0600000000000000000000000000000000000A0
:10F0700000000000000000000000C0C00000000010
:10F080000000000000000000000000000000000080
:10F090000000000000000000000000000000000070
:10F0A0000000000000000000000000000000000060
:10F0B0000000000000000000000000000000000050
:10F0C0000000000000000000FFFF00000000000042
:10F0D0000000000000000000000000000000000030
:10F0E0000000000000000000000000000000000020
:10F0F00000000000000000000000FFFFFFFFFFFF16
:10F10000FFFFFFFFFFFFFFFFFFFF00000000000009
:10F1100000000000000000000000000000000000EF
:10F1200000000000000000000000000000000000DF
:10F1300000000000000000000000FFFFFFFFFFFFD5
:10F14000FFFFFFFFFFFFFFFFFFFF000000000000C9
:10F1500000000000000000000000000000000000AF
:10F16000000000000000000000000000000000009F
:10F1700000000000000000000000FFFF0000000091
:10F18000000000000000000000000000000000007F
:10F19000000000000000000000000000000000006F
:10F1A000000000000000000000000000000000005F
:10F1B000000000000000000000000000000000004F
:10F1C00000000000000000003F3F000000000000C1
:10F1D000000000000000000000000000000000002F
:10F1E000000000000000000000000000000000001F
:10F1F00000000000000000000000FFFFFFFFFFFF15
:10F20000FFFFFF0707010101F9F9000000000000FE
:10F2100000000000000000000000000000000000EE
:10F2200000000000000000000000000000000000DE
:10F2300000000000000000000000FFFFFFFFFFFFD4
:10F24000FFFFFFFFFFFFFFFFFFFF000000000000C8
:10F2500000000000000000000000000000000000AE
:10F26000000000000000000000000000000000009E
:10F27000000000000000000000003F3F0000000010
:10F28000000000000000000000000000000000007E
:10F29000000000000000000000000000000000006E
:10F2A000000000000000000000000000000000005E
:10F2B000000000000000000000000000000000004E
:10F2C0000000008080808080E0E0000000000000FE
:10F2D000000000000000000000000000000000002E
:10F2E000000000000000000000000000000000001E
:10F2F00000000000000000000000E3E3FFFFFFFF4C
:10F30000FFFFFFFCFCE0E0E0E3E3000000000000A2
:10F3100000000000000000000000000000000000ED
:10F3200000000000000000000000000000000000DD
:10F3300000000000000000000000FFFFFFFFFFFFD3
:10F34000FFFFFFFFFFFFFFFFE3E3000000000000FF
:10F3500000000000000000000000000000000000AD
:10F36000000000000000000000000000000000009D
:10F3700000000000000000000000E0E080808080CD
:10F3800080000000000000000000000000000000FD
:10F39000000000000000000000000000000000006D
:10F3A000000000000000000000000000000000005D
:10F3B000000000000000000000000000C0C0C0FE0F
:10F3C000FEFEFEFFFFFFFFFFFFFF0000000000004A
:10F3D000000000000000000000000000000000002D
:10F3E000000000000000000000000000000000001D
:10F3F00000000000000000000000FFFFFFFFFFFF13
:10F40000FFFFFFFFFFFFFFFFFFFF00000000000006
:10F4100000000000000000000000000000000000EC
:10F4200000000000000000000000000000000000DC
:10F4300000000000000000000000FFFFFFFFFFFFD2
:10F44000FFFFFFFFFFFFFFFFFFFF000000000000C6
:10F4500000000000000000000000000000000000AC
:10F46000000000000000000000000000000000009C
:10F4700000000000000000000000FFFFFFFFFFFF92
:10F48000FFFEFEF8F8C0C0C0000000000000000051
:10F49000000000000000000000000000000000006C
:10F4A000000000000000000000000000000000005C
:10F4B0000000000000000000000000001F1F1F7F70
:10F4C0007FFFFFFFFFFFFFFFFFFF000000000000C6
:10F4D000000000000000000000000000000000002C
:10F4E000000000000000000000000000000000001C
:10F4F00000000000000000000000FFFFFFFFFFFF12
:10F50000FFFFFFFFFFFFFFFFFFFF00000000000005
:10F5100000000000000000000000000000000000EB
:10F5200000000000000000000000000000000000DB
:10F5300000000000000000000000FFFFFFFFFFFFD1
:10F54000FFFFFFFFFFFFFFFFFFFF000000000000C5
:10F5500000000000000000000000000000000000AB
:10F56000000000000000000000000000000000009B
:10F5700000000000000000000000FFFFFFFFFFFF91
:10F58000FFFFFF7F7F1F1F1F000000000000000023
:10F59000000000000000000000000000000000006B
:10F5A000000000000000000000000000000000005B
:10F5B000000000000000000000000000000000004B
:10F5C0000001010101010101010100000000000032
:10F5D000000000000000000000000000000000002B
:10F5E000000000000000000000000000000000001B
:10F5F00000000000000000000000070707070707E1
:10F6000007070707070707070707000000000000B4
:10F6100000000000000000000000000000000000EA
:10F6200000000000000000000000000000000000DA
:10F6300000000000000000000000070707070707A0
:10F640000707070707070707070700000000000074
:10F6500000000000000000000000000000000000AA
:10F66000000000000000000000000000000000009A
:10F670000000000000000000000001010101010184
:10F680000101010000000000000000000000000077
:10F69000000000000000000000000000000000006A
:10F6A000000000000000000000000000000000005A
:10F6B000000000000000000000000000000000004A
:10F6C000000000000000000000000000000000003A
:10F6D000000000000000000000000000000000002A
:10F6E000000000000000000000000000000000001A
:10F6F000000000000000000000000000000000000A
:10F7000000000000000000000000000000000000F9
:10F7100000000000000000000000000000000000E9
:10F7200000000000000000000000000000000000D9
:10F7300000000000000000000000000000000000C9
:10F7400000000000000000000000000000000000B9
:10F7500000000000000000000000000000000000A9
:10F760000000000000000000000000000000000099
:10F770000000000000000000000000000000000089
:10F780000000000000000000000000000000000079
:10F790000000000000000000000000000000000069
:10F7A0000000000000000000000000000000000059
:10F7B0000000000000000000000004244484649C59
:10F7C00040300FC8080828180000404042CC000014
:10F7D000FC040200FC0404FC00008060F80704E460
:10F7E000242424FF242424E404000000FE222222F6
:10F7F00022FE22222222FE0000000000C0404040E3
:10F800007F48484848C8080800001060020CC00043
:10F8100094A48494A282A31A0000000000FF0808A8
:10F8200008404040FF2022AC2000000888482818EB
:10F830000FE8080808080808000010080601824CB4
:10F84000201806010618204080000040201F20409C
:10F850004F4442407F42444340000000FF0080810B
:10F860004529112F41418181800080601F020202E1
:10F87000027F020242827F000000804037040414AD
:10F8800064041464040710E0000004047C03000412
:10F89000040444847E0504040400007F2121212106
:10F8A0007F80402017182641F0000808090909093F
:10F8B00009FF090909090908080000000000000003
:10F8C0000000000000000000000000000000000038
:10F8D0000000000000000000000000000000000028
:10F8E0000000000000000000000000000000000018
:10F8F0000000000000000000000000000000000008
:10F9000000000000000000000000000000000000F7
:10F9100000000000000000000000000000000000E7
:10F9200000000000000000000000000000000000D7
:10F9300000000000000000000000000000000000C7
:10F9400000000000000000000000000000000000B7
:10F9500000000000000000000000000000000000A7
:10F960000000000000000000000000000000000097
:10F970000000000000000000000000000000000087
:10F980000000000000000000000000000000000077
:10F990000000000000000000000000000000000067
:10F9A0000000000000000000000000000000000057
:10F9B0000000000000000000000000000000000047
:10F9C0000000000000000000000000000000000037
:10F9D0000000000000000000000000000000000027
:10F9E0000000000000000000000080828282FE8291
:10F9F00082828282FE82828280001010F01F10F0CC
:10FA00000040E05847405060C00000000000000087
:10FA100000000000000000000000000000000000E6
:10FA200000000000000000000000000000000000D6
:10FA300000000000000000000000000000000000C6
:10FA400000000000000000000000000000000000B6
:10FA500000000000000000000000000000000000A6
:10FA600000000000000000000000008040300F0097
:10FA700000000000FF0000000000402215081621D1
:10FA80000000FE42424242FE000000000000000072
:10FA90000000000000000000000000000000000066
:10FAA0000000000000000000000000000000000056
:10FAB0000000000000000000000000000000000046
:10FAC0000000000000000000000000000000000036
:10FAD0000000000000000000000000000000000026
:10FAE0000000000000000000000000000000000016
:10FAF0000000000000000000000000000000000006
:10FB000000000000000000000000000000000000F5
:10FB100000000000000000000000000000000000E5
:10FB200000000000000000000000000000000000D5
:10FB300000000000000000000000000000000000C5
:10FB400000000000000000000000000000000000B5
:10FB500000000000000000000000000000000000A5
:10FB60000000000000000000000000000000000095
:10FB70000000000000000000000000000000000085
:10FB80000000000000000000000000000000000075
:10FB90000000000000000000000000000000000065
:10FBA0000000000000000000000000000000000055
:10FBB0000000000000000000000000000000000045
:10FBC0000000000000000000000000000000000035
:10FBD0000000000000000000000000000000000025
:10FBE0000000000000000000000000000000000015
:10FBF0000000000000000000000000000000000005
:10FC000000000000000000000000000000000000F4
:10FC100000000000000000000000000000000000E4
:10FC200000000000000000000000000000000000D4
:10FC300000000000000000000000000000000000C4
:10FC4000000000000000C0E030301818181C1C1C18
:10FC50003C3C38606040C0C0C0C0C0C0C0C0C0C074
:10FC60004060783C3C1C1C1C1C181830E0800000D4
:10FC70000000000000000000000080828282FE82FE
:10FC800082828282FE82828280001010F01F10F039
:10FC90000040E05847405060C0004828980E18AA1D
:10FCA0004800FE428262FE000000000888482818D2
:10FCB0000FE808080808080800000000000000001D
:10FCC00000000000F07E0700C0C0C0C0C0FEFEC043
:10FCD000C0C0C0C000000000000000000000000024
:10FCE000C02020C00C12120CC02020C000073EF023
:10FCF00080000000000000000000008040300F0085
:10FD000000000000FF00000000004022150816213E
:10FD10000000FE42424242FE000044340F95641F40
:10FD2000A5641F0403043F40F800080809090909F5
:10FD300009FF09090909090808000000000000007E
:10FD4000000000FFFF00000000000000001F1F0077
:10FD500000000000009C9494949C80809C94141457
:10FD60001C0101000C12120C00010100000000FF38
:10FD7000FF00000000000000000000000000000084
:10FD80000000000000000000000000000000000073
:10FD90000000000000000000000000000000000063
:10FDA0000000000000000000000000000000000053
:10FDB0000000000000000000000000000000000043
:10FDC000000000030F1C3060404040606030181C91
:10FDD0000C060203030101036EF8980E0381010370
:10FDE0000306060C183030606060606060301C07ED
:10FDF0000100000000000000000000000000000002
:10FE000000000000000000000000000000000000F2
:10FE100000000000000000000000000000000000E2
:10FE200000000000000000000000000000000000D2
:10FE300000000000000000000000000000000000C2
:10FE400000000000000000000000000000000000B2
:10FE50000000000000000000000101010101030298
:10FE60000000000000000000000000000000000092
:10FE70000000000000000000000000000000000082
:10FE80000000000000000000000000000000000072
:10FE90000000000000000000000000000000000062
:10FEA0000000000000000000000000000000000052
:10FEB0000000000000000000000000000000000042
:10FEC0000000000000000000000000000000000032
:10FED0000000000000000000000000000000000022
:10FEE0000000000000000000000000000000000012
:10FEF0000000000000000000000000000000000002
:10FF000000000000000000000000000000000000F1
:10FF100000000000000000000000000000000000E1
:10FF200000000000000000000000000000000000D1
:10FF300000000000000000000000000000000000C1
:10FF400000000000000000000000000000000000B1
:10FF500000000000000000000000000000000000A1
:10FF60000000000000000000000000000000000091
:10FF70000000000000000000000000000000000081
:10FF80000000000000000000000000000000000071
:10FF90000000000000000000000000000000000061
:10FFA0000000000000000000000000000000000051
:10FFB000000000000000000000000000C038E00069
:10FFC0000000808000808080000000008080800031
:10FFD00000000000808080808000001010F8000089
:10FFE00000000000808080800000000000C0C00091
:10FFF0000000000000000000000000000000000001
:020000040801F1
:1000000000000000000000000000000000000000F0
:1000100000000000000000000000000000000000E0
:1000200000000000000000000000000000000000D0
:10003000000000000C12120C0000203C23020227DA
:100040003820203F210000203F2000192424123FA7
:100050002000006B9494949360000020203F2020A7
:100060000000001F2424242417000000003030006A
:100070000000000000000000000000000000000080
:100080000000000000000000000000000000000070
:100090000000000000000000000000000000000060
:1000A0000000000000000000000000000000000050
:1000B0000000000000000000000008F88888887038
:1000C00000000000808080000000008080E08080D0
:1000D0000000008080E08080000000008080808040
:1000E0000000808080008080800080808000008010
:1000F0008080000000C0C000000000000000000080
:1001000000000000000000000000000000000000EF
:1001100000000000000000000000000000000000DF
:1001200000000000000000000000000000000000CF
:1001300000000878880000C83808203F20202011DF
:100140000E0000192424123F20000000001F202070
:1001500010000000001F20201000001F2424242471
:10016000170020203F21200001000081867818061A
:10017000010000000030300000000000000000001E
:10018000000000000000000000000000000000006F
:10019000000000000000000000000000000000005F
:1001A000000000000000000000000000000000004F
:1001B0000000000007380E01000008186880806801
:1001C0001808000000C0C00000000000000000008F
:1001D000000000000000000000000000000000001F
:1001E000000000000000000000000000000000000F
:1001F00000000000000000000000000000000000FF
:1002000000000000000000000000000000000000EE
:1002100000000000000000000000000000000000DE
:1002200000000000000000000000000000000000CE
:100230000000000000000000000020302C03032C10
:1002400030200000003030000000000000000000FE
:10025000000000000000000000000000000000009E
:10026000000000000000000000000000000000008E
:10027000000000000000000000000000000000007E
:10028000000000000000000000000000000000006E
:10029000000000000000000000000000000000005E
:1002A000000000000000000000000000000000004E
:1002B000000000000000000000000838C800C83836
:1002C0000800000000C0C0000000000000000000A6
:1002D000000000000000000000000000000000001E
:1002E000000000000000000000000000000000000E
:1002F00000000000000000000000000000000000FE
:1003000000000000000000000000000000000000ED
:1003100000000000000000000000000000000000DD
:1003200000000000000000000000000000000000CD
:10033000000000000000000000000000203F20003E
:10034000000000000030300000000000000000004D
:10035000000000000000000000000000000000009D
:10036000000000000000000000000000000000008D
:10037000000000000000000000000000000000007D
:10038000000000000000000000000000000000006D
:1006E0000000000000000000004040C080800000CA
:1006F00000000000000000000000000000000000FA
:100700000000008080C040200000000000000000C9
:1007100000000000000000000000000000000000D9
:1007200000000000000000000000000000000000C9
:1007300000000000000000000000000000000000B9
:1007400000000000000000000000000000000000A9
:100750000000000000000000000000000000000099
:100760000000000000000000000000000001010186
:100770000303060606040404040404040406020237
:100780000203010100000000000000000000000062
:100790000000000000000000000000000000000059
:1007A0000000000000000000000000000000000049
:1007B0000000000000000000000000000000000039
:1007C0000000000000000000000000000000000029
:100A6000003860C00000000000000000000000002E
:100A70000000000000000000000000000000000076
:100A80000000000000000000000000000080E038CE
:100A9000080000000000000000000000000000004E
:100AA0000000000000000000000000000000000046
:100AB0000000000000000000000000000000000036
:100AC0000000000000000000000000000000000026
:100AD0000000000000000000000000000000000016
:100AE0000000000103060C18302060C08080000068
:100AF00000000000000000000000000000000000F6
:100B00000000008080C0406030180C060301000027
:100B100000000000000000000000000000000000D5
:100B200000000000000000000000000000000000C5
:100B300000000000000000000000000000000000B5
:100B400000000000000000000000000000000000A5
:100B50000000000000000000000000000000000095
:100B60000000000000000000000000000001030180
:100B70000302020606040404040404040406020238
:100B8000020301010000000000000000000000005E
:100B90000000000000000000000000000000000055
:100BA0000000000000000000000000000000000045
:100BB0000000000000000000000000000000000035
:100BC0000000000000000000000000000000000025
:100BD0000000000000000000000000000000000015
:100BE0000000000000000000000000000000000005
:100BF00000000000000000000000000000000000F5
:100C000000000000000000000000000000000000E4
:100C100000000000000000000000000000000000D4
:100C200000000000000000000000000000000000C4
:100C300000000000000000000000000000000000B4
:100C400000000000000000000000000000000000A4
:100C50000000000000000000000000000000000094
:100C60000000000000000000000000000000000084
:100C70000000000000000000000000000000000074
:100C80000000000000000000000000000000000064
:100C90000000000000000000000000000000000054
:100CA0000000000000000000000000000000000044
:100CB0000000000000000000000000000000000034
:100CC0000000000000000000000000000000000024
:100CD0000000000000000000000000000000000014
:100CE0000000000000000000000000000000000004
:100CF00000000000000000000000000000000000F4
:100D000000000000000000000000000000000000E3
:100D100000000000000000000000000000000000D3
:100D200000000000000000000000000000000000C3
:100D300000000000000000000000000000000000B3
:100D400000000000000000000000000000000000A3
:100D50000000000000000000000000000000C0F0E3
:100D60000000008080808080808080808080808003
:100D700080C0C0E080808080808080808080808093
:100D80008080808080808080808080800000000063
:100D90000000F00000000000000000000000000063
:100DA0000000000000000000000000000000000043
:100DB0000000000000000000000000000000000033
:100DC0000000000000000000000000000000000023
:100DD00000000000000000000000000000000FFF05
:100DE00000000001010101010100000000000000FD
:100DF00000000000000000000000000000000101F1
:100E000001010101010101010101010100000000D6
:100E100040C07F0000000000000000000000000053
:100E200000000000000000000000000000000000C2
:100E300000000000000000000000000000000000B2
:100E400000000000000000000000000000000000A2
:100E50000000000000000000000000000000010190
:100E6000071C70D00000000000000000000000001F
:100E70000000000000000000000000000000000072
:100E80000000000000000000000000000080C030F2
:100E90001E03000000000000000000000000000031
:100EA0000000000000000000000000000000000042
:100EB0000000000000000000000000000000000032
:100EC0000000000000000000000000000000000022
:100ED0000000000000000000000000000000000012
:100EE0000000000003060C18302060C08080000065
:100EF00000000000000000000000000000000000F2
:100F00000000008080C04060301808060301000027
:100F100000000000000000000000000000000000D1
:100F200000000000000000000000000000000000C1
:100F300000000000000000000000000000000000B1
:100F400000000000000000000000000000000000A1
:100F50000000000000000000000000000000000091
:100F6000000000000000000000000000000101017E
:100F70000303020606040404040404040406020233
:100F8000020301010000000000000000000000005A
:100F90000000000000000000000000000000000051
:100FA0000000000000000000000000000000000041
:100FB0000000000000000000000000000000000031
:100FC0000000000000000000000000000000000021
:100FD0000000000000000000000000000000000011
:100FE0000000000000000000000000000000000001
:100FF00000000000000000000000000000000000F1
:1010000000000000000000000000000000000000E0
:1010100000000000000000000000000000000000D0
:1010200000000000000000000000000000000000C0
:1010300000000000000000000000000000000000B0
:1010400000000000000000000000000000000000A0
:101050000000000000000000000000000000000090
:101060000000000000800000000000000000000000
:101070000000000000000000000000000000000070
:101080000000000000000000000000808000000060
:101090000000000000000000000000000000000050
:1010A0000000000000000000000000000000000040
:1010B0000000000000000000000000000000000030
:1010C0000000000000000000000000000000000020
:1010D0000000000000000000000000000000000010
:1010E000C0701C06030100000000000000000000AA
:1010F00000000000000000000004060602020000DC
:1011000000000000000000000000000003060CF0DA
:10111000E08000000000000000000000000000006F
:1011200000000000000000000000000000000000BF
:1011300000000000000000000000000000000000AF
:10114000000000000000000000000000000000009F
:101150000000000000000000000000000000F0FFA0
:10116000030000000000000000000000000000007C
:10117000000000000000000000000000000000006F
:10118000000000000000000000000000000000005F
:10119000011FF8F80000000000000000000000003F
:1011A000000000000000000000000000000000003F
:1011B000000000000000000000000000000000002F
:1011C000000000000000000000000000000000001F
:1011D00000000000000000000000000000003FFFD1
:1011E00000000000000000000000000000000000FF
:1011F00000000000000000000000000000000000EF
:1012000000000000000000000000000000000000DE
:1012100000E07F0700000000000000000000000068
:1012200000000000000000000000000000000000BE
:1012300000000000000000000000000000000000AE
:10124000000000000000000000000000000000009E
:10125000000000000000000000000000000000018D
:101260002F3860D0000000000000000000000000E7
:10127000000000000000000000000000000000006E
:101280000000000000000000000000000080E03CC2
:101290000E0300000000000000000000000000003D
:1012A000000000000000000000000000000000003E
:1012B000000000000000000000000000000000002E
:1012C000000000000000000000000000000000001E
:1012D000000000000000000000000000000000000E
:1012E0000000000103060C18302060C08080000060
:1012F00000000000000000000000000000000000EE
:101300000000008080C0406030180C06030100001F
:1013100000000000000000000000000000000000CD
:1013200000000000000000000000000000000000BD
:1013300000000000000000000000000000000000AD
:10134000000000000000000000000000000000009D
:10135000000000000000000000000000000000008D
:101360000000000000000000000000000001030178
:101370000302020606040404040404040406020230
:101380000203010100000000000000000000000056
:10139000000000000000000000000000000000004D
:1013A000000000000000000000000000000000003D
:1013B000000000000000000000000000000000002D
:1013C000000000000000000000000000000000001D
:1013D000000000000000000000000000000000000D
:1013E0008080C0000000000000008080C0C0E0607D
:1013F0006060B0B0B0B0B0B0B1B1B1B1B1B1B171C5
:10140000616163C3C386860E0C1C183070E0C08017
:1014100000000000000000000000000000000000CC
:1014200000000000000000000000000000000000BC
:1014300000000000000000000000000000000000AC
:10144000000000000000000000000000000000009C
:101450000000000000000000000000000002030384
:101460000303000000804066331B0B0D06020203DD
:101470000101010000000000000000000001010166
:101480000101030206050D1B132664C08000000144
:10149000030704000000000000000000000000003E
:1014A000000000000000000000000000000000003C
:1014B000000000000000000000000000000000002C
:1014C000000000000000000000000000000000001C
:1014D000000000000000000000000000000000000C
:1014E000C0701C06030100000000000000000000A6
:1014F00000000000000000000000000000000000EC
:1015000000000000000000000000000003060CB016
:10151000E0000000000000000000000000000000EB
:1015200000000000000000000000000000000000BB
:1015300000000000000000000000000000000000AB
:10154000000000000000000000000000000000009B
:101550000000000000000000000000000000F0FF9C
:101560000700000000000000000000000000000074
:10157000000000000000000000000000000000006B
:10158000000000000000000000000000000000005B
:10159000191FF8F800000000000000000000000023
:1015A000000000000000000000000000000000003B
:1015B000000000000000000000000000000000002B
:1015C000000000000000000000000000000000001B
:1015D00000000000000000000000000000003FFFCD
:1015E00000000000000000000000000000000000FB
:1015F00000000000000000000000000000000000EB
:1016000000000000000000000000000000000000DA
:1016100000F07F010000000000000000000000005A
:1016200000000000000000000000000000000000BA
:1016300000000000000000000000000000000000AA
:10164000000000000000000000000000000000009A
:101650000000000000000000000000000000000189
:101660000F3860C000000000000000000000000013
:10167000000000000000000000000000000000006A
:101680000000000000000000000000000080E03CBE
:101690000E03000000000000000000000000000039
:1016A000000000000000000000000000000000003A
:1016B000000000000000000000000000000000002A
:1016C000000000000000000000000000000000001A
:1016D000000000000000000000000000000000000A
:1016E0000000000103060C18302060C0808000005C
:1016F00000000000000000000000000000000000EA
:101700000000008080C0406030180C06030100001B
:1017100000000000000000000000000000000000C9
:1017200000000000000000000000000000000000B9
:1017300000000000000000000000000000000000A9
:101740000000000000000000000000000000000099
:101750000000000000000000000000000000000089
:101760000000000000000000000000000001010176
:10177000030202060604040404040404040602022C
:101780000203010100000000000000000000000052
:101790000000000000000000000000000000000049
:1017A0000000000000000000000000000000000039
:1017B0000000000000000000000000000000000029
:1017C0000000000000000000000000000000000019
:1017D0000000000000000000000000000000000009
:1017E0008080C0000000000000008080C0C0E06079
:1017F0006060B0B0B0B0B0B0B1B1B1B1B1B1B161D1
:101800006161E3C3C386860E0C1C183070E0C08093
:1018100000000000000000000000000000000000C8
:1018200000000000000000000000000000000000B8
:1018300000000000000000000000000000000000A8
:101840000000000000000000000000000000000098
:101850000000000000000000000080C0F03A1F0FF0
:101860000F87C06030984C6E371B0B0D05020203CA
:101870000101010000000000000000000001010162
:10188000010102020E0D193B3766ECDCB870E0C1B5
:1018900003061C38F0E0800000000000000000009B
:1018A0000000000000000000000000000000000038
:1018B0000000000000000000000000000000000028
:1018C0000000000000000000000000000000000018
:1018D00000000000000000C0F87E0F0300E0F83CAC
:1018E000CF731D060301000000000000000000008F
:1018F00000000000000000000000000000000000E8
:1019000000000000000000000000000003061CBBF7
:10191000E71E78E08001073EF8E0000000000000CC
:1019200000000000000000000000000000000000B7
:1019300000000000000000000000000000000000A7
:101940000000000000000000000000000000000097
:101950000000000000000003030000000303F0FF8C
:101960000300000000000000000000000000000074
:101970000000000000000000000000000000000067
:101980000000000000000000000000000000000057
:10199000191FF8F303040000010302000000000017
:1019A0000000000000000000000000000000000037
:1019B0000000000000000000000000000000000027
:1019C0000000000000000000000000000000000017
:1019D00000000000000000000000000000003FFFC9
:1019E00000000000000000000000000000000000F7
:1019F00000000000000000000000000000000000E7
:101A000000000000000000000000000000000000D6
:101A100000F07F0100000000000000000000000056
:101A200000000000000000000000000000000000B6
:101A300000000000000000000000000000000000A6
:101A40000000000000000000000000000000000096
:101A50000000000000000000000000000000000185
:101A60000F3860C00000000000000000000000000F
:101A70000000000000000000000000000000000066
:101A80000000000000000000000000000080E03CBA
:101A90000E03000000000000000000000000000035
:101AA0000000000000000000000000000000000036
:101AB0000000000000000000000000000000000026
:101AC0000000000000000000000000000000000016
:101AD0000000000000000000000000000000000006
:101AE0000000000103060C18302060C08080000058
:101AF00000000000000000000000000000000000E6
:101B00000000008080C0406030180C060301000017
:101B100000000000000000000000000000000000C5
:101B200000000000000000000000000000000000B5
:101B300000000000000000000000000000000000A5
:101B40000000000000000000000000000000000095
:101B50000000000000000000000000000000000085
:101B60000000000000000000000000000001010172
:101B70000302020606040404040404040406020228
:101B8000020301010000000000000000000000004E
:101B90000000000000000000000000000000000045
:101BA0000000000000000000000000000000000035
:101BB0000000000000000000000000000000000025
:101BC0000000000000000000000000000000000015
:101BD0000000000000000000000000000000000005
:101BE000808080000000000000008080C0C0C060D5
:101BF000606060B0B0B0B0B0B1B1B1B1B1B1F161DD
:101C00006163C3C3C786860C0C18383070E0C0808F
:101C100000000000000000000000000000000000C4
:101C200000000000000000000000000000000000B4
:101C300000000000000000000000000000000000A4
:101C40000000000000000000000000000000000094
:101C50000000000000000000000000C0E03A1F0F7C
:101C60000F87C1E03098DC6E361B0B0D05060603AE
:101C7000010101010000000000000000000001015E
:101C8000030302060D1D1B1B37EECC983870E18153
:101C9000070E1C38F0C080000000000000000000AB
:101CA0000000000000000000000000000000000034
:101CB0000000000000000000000000000000000024
:101CC0000000000000000000000000000000000014
:101CD00000000000000000C0F07E0F0300C0F03CD8
:101CE000CF7319060301000000000000000000008F
:101CF00000000000000000000000000000000000E4
:101D000000000000000000000000010103061CF3B9
:101D1000C71EF8E080030F3EF8C00000000000007E
:101D200000000000000000000000000000000000B3
:101D300000000000000000000000000000000000A3
:101D40000000000000000000000000000000000093
:101D5000000000000000FCFF070000F0FF1FE1FE94
:101D60000300000000000000000000000000000070
:101D70000000000000000000000000000000000063
:101D80000000000000000000000000000000000152
:101D9000111FF807FFF8000003FFFE00000000001D
:101DA0000000000000000000000000000000000033
:101DB0000000000000000000000000000000000023
:101DC0000000000000000000000000000000000013
:101DD000000000000000FFFF8000003FFFC01FFF69
:101DE00000000000000000000000000000000000F3
:101DF00000000000000000000000000000000000E3
:101E000000000000000000000000000000000000D2
:101E100000E07F80FFFF000000FFFF0000000000E7
:101E200000000000000000000000000000000000B2
:101E300000000000000000000000000000000000A2
:101E40000000000000000000000000000000000092
:101E50000000000000000003030000000303000175
:101E60000F3860800000000000000000000000004B
:101E70000000000000000000000000000000000062
:101E80000000000000000000000000000080E03CB6
:101E90000E03000303000000030301000000000024
:101EA0000000000000000000000000000000000032
:101EB0000000000000000000000000000000000022
:101EC0000000000000000000000000000000000012
:101ED0000000000000000000000000000000000002
:101EE0000000000103060C18306040C08080000034
:101EF00000000000000000000000000000000000E2
:101F00000000008080C0406030100806030100001F
:101F100000000000000000000000000000000000C1
:101F200000000000000000000000000000000000B1
:101F300000000000000000000000000000000000A1
:101F40000000000000000000000000000000000091
:101F50000000000000000000000000000000000081
:101F6000000000000000000000000000000101036C
:101F7000020206060404040404040404040606021F
:101F80000203010101000000000000000000000049
:101F90000000000000000000000000000000000041
:101FA0000000000000000000000000000000000031
:101FB0000000000000000000000000000000000021
:101FC0000000000000000000000000000000000011
:101FD0000000000000000000000000000000000001
:101FE0008080C0000000000000008080C0C0E06071
:101FF0006060B0B0B0B0B0B0B1B1B1B1B1B1B161C9
:102000006161E3C3C386860E0C1C183070E0C0808B
:1020100000000000000000000000000000000000C0
:1020200000000000000000000000000000000000B0
:1020300000000000000000000000000000000000A0
:102040000000000000000000000000000000000090
:102050000000000000000000000080C0F03A1F0FE8
:102060000F87C06030984C6E371B0B0D05020203C2
:10207000010101000000000000000000000101015A
:10208000010102020E1D193B3766ECDCB870E0C19D
:1020900003061C38F0E08000000000000000000093
:1020A0000000000000000000000000000000000030
:1020B0000000000000000000000000000000000020
:1020C0000000000000000000000000000000000010
:1020D00000000000000000C0F87E0F0300E0F83CA4
:1020E000CF731D0603010000000000000000000087
:1020F00000000000000000000000000000000000E0
:1021000000000000000000000000000103060C7B3E
:10211000E71E78E08001073EF8E0000000000000C4
:1021200000000000000000000000000000000000AF
:10213000000000000000000000000000000000009F
:10214000000000000000000000000000000000008F
:10215000000000000000FCFF070000F0FF0FE0FEA1
:10216000030000000000000000000000000000006C
:10217000000000000000000000000000000000005F
:10218000000000000000000000000000000000004F
:10219000191FF807FFFC000001FFFE00000000000F
:1021A000000000000000000000000000000000002F
:1021B000000000000000000000000000000000001F
:1021C000000000000000000000000000000000000F
:1021D000000000000000FFFF8000003FFFC01FFF65
:1021E00000000000000000000000000000000000EF
:1021F00000000000000000000000000000000000DF
:1022000000000000000000000000000000000000CE
:1022100000F03F80FFFF000000FFFF000000000013
:1022200000000000000000000000000000000000AE
:10223000000000000000000000000000000000009E
:10224000000000000000000000000000000000008E
:1022500000000000000000073FF8C000031F7CF1F1
:10226000CF3860C000000000000000000000000047
:10227000000000000000000000000000000000005E
:102280000000000000000000000000000080E03CB2
:102290008EE3781F0700C0F07F0F010000000000F0
:1022A000000000000000000000000000000000002E
:1022B000000000000000000000000000000000001E
:1022C000000000000000000000000000000000000E
:1022D00000000000000000000000030F1C38E0C0F8
:1022E00083070E393366CCD8B02060C080800000F0
:1022F00000000000000000000000000000000000DE
:102300000000008080C04060B098CCE673391CCFDC
:1023100083C1E0703C0F07010000000000000000D6
:1023200000000000000000000000000000000000AD
:10233000000000000000000000000000000000009D
:10234000000000000000000000000000000000008D
:10235000000000000000000000000000000000017C
:102360000307060C08180001030306060C0D0D09EF
:102370001B1A1A0606040404040404040406121AB0
:102380001A0B090D0C06060303010000000C0F07D1
:102390000703020000000000000000000000000031
:1023A000000000000000000000000000000000002D
:1023B000000000000000000000000000000000001D
:1023C000000000000000000000000000000000000D
:1023D00000000000000000000000000000000000FD
:1023E00060E0E0E0F030000000008080C0C0E0600D
:1023F0006060B0B0B0B0B0B0B0B0B0B0B0B1B161CA
:102400006161C3C3C386860C0C18383070E0C0808D
:1024100000000000000000000000000000000000BC
:1024200000000000000000000000000000000000AC
:10243000000000000000000000000000000000009C
:10244000000000000000000000000000000000008C
:102450000000000000000000000080C0F0381C0EEA
:102460000783E17130984C66371B0B0D0406060399
:102470000101010000000000000000008081C1C1D6
:10248000C1E1E2E6EEEDEBDB172E6CD83870C083CD
:10249000070E1C38F0C080000000000000000000A3
:1024A000000000000000000000000000000000002C
:1024B000000000000000000000000000000000001C
:1024C000000000000000000000000000000000000C
:1024D00000000000000000C0F83E0F0300E0F83EDE
:1024E000CF731D0603010000000000000000000083
:1024F0000000000000C0E070381C0E07030301015B
:10250000C1E1F0F0E0C000000000000103060DF39F
:10251000CF1EF8E000010F3EF8C0000000000000F0
:1025200000000000000000000000000000000000AB
:10253000000000000000000000000000000000009B
:10254000000000000000000000000000000000008B
:10255000000000000000FEFF030000F8FF0FE07F16
:102560000300000080808080808080808080808068
:1025700080C0F8BC8F838180808080808080808054
:10258000818383838381808080800000000000003D
:10259000031FF807FFF8000003FFFE000000000023
:1025A000000000000000000000000000000000002B
:1025B000000000000000000000000000000000001B
:1025C000000000000000000000000000000000000B
:1025D000000000000000FFFF0000007FFFC01FFFA1
:1025E0000703030303030303010101010101E1FDEB
:1025F0003F07010101010101010101010101030383
:102600000303030303030707070707070F0F0F0E53
:102610008EEC3F80FF7F000000FFFF000000000005
:1026200000000000000000000000000000000000AA
:10263000000000000000000000000000000000009A
:10264000000000000000000000000000000000008A
:10265000000000000000000F3FF8C000031F7CE1F5
:102660008F3A60C0000000000000C0F03C1F07006F
:10267000000000000000000000000000000000005A
:102680000000000000000000000000000080E03CAE
:102690008EE37C1F0700C0F87F0F000000000000E1
:1026A000000000000000000000000000000000002A
:1026B000000000000000000000000000000000001A
:1026C000000000000000000000000000000000000A
:1026D00000000000000000000001030F1C78E0C1B2
:1026E00083071C397366CC9CB66361C08080000090
:1026F00000000000000000000000000000000000DA
:102700000000008080C04060B098CCE673391C0F98
:1027100083C1E0781C0F03010000000000000000EE
:1027200000000000000000000000000000000000A9
:102730000000000000000000000000000000000099
:102740000000000000000000000000000000000089
:102750000000000000000000000000000000000178
:1027600003070E0C18387061E3C3C6868C8D9999E7
:102770001B3A32363634343434343434343632322C
:102780001A1B190D0C060603030130383E1C1E17D8
:102790000301000000000000000000000000000035
:1027A0000000000000000000000000000000000029
:1027B0000000000000000000000000000000000019
:1027C0000000000000000000000000000000000009
:1027D00000000000000000000000000000000000F9
:1027E0000080C0E07030381A3E1E8E86C2C0E060A5
:1027F000606030B0B0B0B0B0B0B0B0B0B0B0606099
:102800006060C0C08786060C1C18383060C0C0806D
:1028100000000000000000000000000000000000B8
:1028200000000000000000000000000000000000A8
:102830000000000000000000000000000000000098
:102840000000000000000000000000000000000088
:102850000000000000000000000080C0F0381C0EE6
:1028600003C1E170389CCCE6371B090D0406060352
:102870000303010100000000000000000081C1C14D
:10288000C3E3E6E6E5EDEBDB36EE5CB870E0C18372
:10289000070E1C78E0C000000000000000000000EF
:1028A0000000000000000000000000000000000028
:1028B0000000000000000000000000000000000018
:1028C0000000000000000000000000000000000008
:1028D00000000000000000C0F83E070180E0781E04
:1028E000C7F31C0E03010000000000000000000000
:1028F000000000000080E070381C0E070303010197
:10290000C1E1E1E0E0C000000000010103061DF7A5
:10291000CF3CF0C000030F7CF0C0000000000000BE
:1029200000000000000000000000000000000000A7
:102930000000000000000000000000000000000097
:102940000000000000000000000000000000000087
:10295000000000000000FEFF010000FCFF07F07F08
:102960000300000000008080808080808080808064
:1029700080C0F0BC8F878180808080808080808054
:1029800081838383838180000000000000000001B8
:10299000071FF11FFFF0000007FFFC000000000010
:1029A0000000000000000000000000000000000027
:1029B0000000000000000000000000000000000017
:1029C0000000000000000000000000000000000007
:1029D000000000000000FFFF000000FFFF803FF745
:1029E0005707030303030303030101010101E1FD91
:1029F0003F0701010101010101010101010303037D
:102A000003030303030707070707070F0F0F0F0E43
:102A10008EEC3FC0FF3F000080FFFF000000000081
:102A200000000000000000000000000000000000A6
:102A30000000000000000000000000000000000096
:102A40000000000000000000000000000000000086
:102A5000000000000000010F7EF0C000073F78E199
:102A60008F387080000000000000C0E07C1F07016C
:102A70000000000000000000000000000000000056
:102A80000000000000000000000000000080E03CAA
:102A90008EE37C1F0300C0F83F0F00000000000021
:102AA0000000000000000000000000000000000026
:102AB0000000000000000000000000000000000016
:102AC0000000000000000000000000000000000006
:102AD00000000000000000000001070F3C70E0C192
:102AE000830F1C3973E6CC9C366341C080800000A4
:102AF00000000000000000000000000000000000D6
:102B00000000008080C040603090C8E473391C0F22
:102B100083C1E0781C0F03000000000000000000EB
:102B200000000000000000000000000000000000A5
:102B30000000000000000000000000000000000095
:102B40000000000000000000000000000000000085
:102B50000000000000000000000000000000000174
:102B600003070E1C18307161C3C7868E8D0D1B1BA9
:102B70003B333636343474646464743434363632F9
:102B80003A1B190D8DCEE6F3E3617030181C0E0769
:102B90000301000000000000000000000000000031
:102BA0000000000000000000000000000000000025
:102BB0000000000000000000000000000000000015
:102BC0000000000000000000000000000000000005
:102BD00000000000000000000000000000000000F5
:102BE0000080C0E07030381A3E1E8E86C2C0E060A1
:102BF000606030B0B0B0B0B0B0B0B0B0B0B0606095
:102C00006060C0C08786060C1C18383060C0C08069
:102C100000000000000000000000000000000000B4
:102C200000000000000000000000000000000000A4
:102C30000000000000000000000000000000000094
:102C40000000000000000000000000000000000084
:102C50000000000000000000000080C0F0381C0EE2
:102C600003C1E170389CCCE6371B090D040606034E
:102C70000303010100000000000000000081C1C347
:102C8000C3E3E6E6E5EDEBDB36EEDCB870E0C183EE
:102C9000070E1C78E0C000000000000000000000EB
:102CA0000000000000000000000000000000000024
:102CB0000000000000000000000000000000000014
:102CC0000000000000000000000000000000000004
:102CD00000000000000000C0F83E070180E0781E00
:102CE000C7F31C0E030100000000000000000000FC
:102CF000000000000080E070381C0E070303010193
:102D0000C1E1E1E0E0C000000000010103063DF781
:102D1000CF3CF0C000030F7CF0C0000000000000BA
:102D200000000000000000000000000000000000A3
:102D30000000000000000000000000000000000093
:102D40000000000000000000000000000000000083
:102D5000000000000000FEFF010000FCFF07F07F04
:102D60000703000000008080808080808080808059
:102D700080C0F0BC8F878180808080808080808050
:102D800081838383838180000000000000000001B4
:102D9000171FF11FFFF0000007FFFC0000000000FC
:102DA0000000000000000000000000000000000023
:102DB0000000000000000000000000000000000013
:102DC0000000000000000000000000000000000003
:102DD000000000000000FFFF000000FFFF803FF741
:102DE0005707030303030303030101010101E1FD8D
:102DF0003F07010101010101010101010103030379
:102E000003030303030707070707070F0F0F0F0E3F
:102E10008EEC3FC0FF3F000080FFFF00000000007D
:102E200000000000000000000000000000000000A2
:102E30000000000000000000000000000000000092
:102E40000000000000000000000000000000000082
:102E5000000000000000010F7EF0C000073F78E195
:102E60008F387080000000000000C0E07C1F070168
:102E70000000000000000000000000000000000052
:102E80000000000000000000000000000080E03CA6
:102E90008EE37C1F0300C0F83F0F0000000000001D
:102EA0000000000000000000000000000000000022
:102EB0000000000000000000000000000000000012
:102EC0000000000000000000000000000000000002
:102ED00000000000000000000001070F3C70E0C18E
:102EE000830F1C3973E6CC9C366341C080800000A0
:102EF00000000000000000000000000000000000D2
:102F00000000008080C040603090C8E473391C0F1E
:102F100083C1E0781C0F03000000000000000000E7
:102F200000000000000000000000000000000000A1
:102F30000000000000000000000000000000000091
:102F40000000000000000000000000000000000081
:102F50000000000000000000000000000000000170
:102F600003070E1C18307161C3C7868E8D0D1B1BA5
:102F70003B333636343474646464743434363733F3
:102F80003A1B190D8DCEE6F3E3617030181C0E0765
:102F9000030100000000000000000000000000002D
:102FA0000000000000000000000000000000000021
:102FB0000000000000000000000000000000000011
:102FC0000000000000000000000000000000000001
:102FD00000000000000000000000000000000000F1
:102FE00080C0C0603038180C0C8686C3C363616132
:102FF00031B1B3B1B1B8B8B8B8B8B0B0B0B0B07062
:103000006060E0C0C08080000000000000C0C080A0
:1030100000000000000000000000000000000000B0
:1030200000000000000000000000000000000000A0
:103030000000000000000000000000000000000090
:103040000000000000000000000000000000000080
:103050000000000000000000000080E0703C0E074F
:1030600083C1E030188CCEE733191D0C0606060329
:103070000303030300000000000000008081C1C3BF
:10308000C3E3E2E6E5EDEBCB162E5CB870E0C1835E
:10309000070E1C78E0C000000000000000000000E7
:1030A0000000000000000000000000000000000020
:1030B0000000000000000000000000000000000010
:1030C0000000000000000000000000000000000000
:1030D00000000000000000E0FC1F0701C0F03C0FF2
:1030E000E3793C060301000000000000000000003E
:1030F0000000000000C0E070381C0E07030301014F
:10310000C1E1F0F0E0C0000000000101070E09E796
:103110009E7CF0C000031F7CF080000000000000D7
:10312000000000000000000000000000000000009F
:10313000000000000000000000000000000000008F
:10314000000000000000000000000000000000007F
:103150000000000000E0FF3F000080FEFF03EC7F66
:10316000030000008080808080808080808080805C
:1031700080C0F0BC8F838180808080808080808050
:103180008183838383818080808000000000000031
:10319000011C03FFFE0000000FFFF800000000000C
:1031A000000000000000000000000000000000001F
:1031B000000000000000000000000000000000000F
:1031C00000000000000000000000000000000000FF
:1031D00000000000000FFFF8000003FFFF0078F779
:1031E0000703030303030301010101010101E1FDE1
:1031F0003F07010101010101010101010101010379
:103200000303030303030707070707070F0F0F0E47
:103210000EEC00FFFF070000C0FF3F0000000000B1
:10322000000000000000000000000000000000009E
:10323000000000000000000000000000000000008E
:10324000000000000000000000000000000000007E
:10325000000000000000031F7EF08000073F78E1BF
:103260008F7E70C0800000000000C0F03C1F07008F
:10327000000000000000000000000000000000004E
:1032800000000000000000000000000080C0609C02
:10329000C6F93F0F0180E0FC1F03000000000000A2
:1032A000000000000000000000000000000000001E
:1032B000000000000000000000000000000000000E
:1032C00000000000000000000000000000000000FE
:1032D00000000000000000000001070F3C70E0C18A
:1032E000830F1C3B73E3CC8CB66361E0C0C0C000AD
:1032F00000000000000000000000000000000000CE
:103300000000008080C06030B8D8EC763B1D0E070E
:1033100083C070381E07030000000000000000009A
:10332000000000000000000000000000000000009D
:10333000000000000000000000000000000000008D
:10334000000000000000000000000000000000007D
:10335000000000000000000000000000000000016C
:103360000307060000000001030306060C0D191BED
:103370001B3B33363636363636343636B636321BA7
:103380001B9B1D8D8E86C7C3616130381C0C0603E4
:10339000010000000000000000000000000000002C
:1033A000000000000000000000000000000000001D
:1033B000000000000000000000000000000000000D
:1033C00000000000000000000000000000000000FD
:1033D00000000000000000000000000000000000ED
:1033E00080C0E07030181C0C8E86C7C363617131D9
:1033F00031311919191818181818181939313131AB
:10340000716161C3C38F8F0F0E1C18000000000094
:1034100000000000000000000000000000000000AC
:10342000000000000000000000000000000000009C
:10343000000000000000000000000000000000008C
:10344000000000000000000000000000000000007C
:1034500000000000000000000080C0F0381C0E07D3
:10346000C1E170381C0E07030301000000000000DA
:103470000000000000000000000000000080C0C04C
:10348000C0E0E0E0E0E1E3C3060E1C3870E0C000FD
:10349000000000000000000000000000000000002C
:1034A000000000000000000000000000000000001C
:1034B000000000000000000000000000000000000C
