Component: ARM Compiler 5.06 update 6 (build 750) Tool: armlink [4d35ed]

==============================================================================

Section Cross References

    main.o(.text) refers to df_struct.o(.text) for BSP
    main.o(.text) refers to df_loop.o(.text) for LOOP_100_HZ
    main.o(.text) refers to df_task_time.o(.data) for Count_10ms
    main.o(.text) refers to df_struct.o(.data) for flagss
    key.o(.text) refers to stm32f4xx_rcc.o(.text) for RCC_AHB1PeriphClockCmd
    key.o(.text) refers to stm32f4xx_gpio.o(.text) for GPIO_Init
    key.o(.text) refers to delay.o(.text) for delay_ms
    key.o(.text) refers to key.o(.data) for key_up
    adc.o(.text) refers to stm32f4xx_rcc.o(.text) for RCC_AHB1PeriphClockCmd
    adc.o(.text) refers to stm32f4xx_gpio.o(.text) for GPIO_Init
    adc.o(.text) refers to stm32f4xx_adc.o(.text) for ADC_TempSensorVrefintCmd
    adc.o(.text) refers to delay.o(.text) for delay_ms
    adc.o(.text) refers to f2d.o(x$fpl$f2d) for __aeabi_f2d
    adc.o(.text) refers to dmul.o(x$fpl$dmul) for __aeabi_dmul
    adc.o(.text) refers to daddsub_clz.o(x$fpl$dsub) for __aeabi_dsub
    adc.o(.text) refers to ddiv.o(x$fpl$ddiv) for __aeabi_ddiv
    adc.o(.text) refers to daddsub_clz.o(x$fpl$dadd) for __aeabi_dadd
    adc.o(.text) refers to dfix.o(x$fpl$dfix) for __aeabi_d2iz
==============================================================================

Removing Unused input sections from the image.

    Removing main.o(.rev16_text), (4 bytes).
    Removing main.o(.revsh_text), (4 bytes).
    Removing main.o(.rrx_text), (6 bytes).
    Removing key.o(.rev16_text), (4 bytes).
    Removing key.o(.revsh_text), (4 bytes).
    Removing key.o(.rrx_text), (6 bytes).
    Removing adc.o(.rev16_text), (4 bytes).
    Removing adc.o(.revsh_text), (4 bytes).
    Removing adc.o(.rrx_text), (6 bytes).
    Removing spi.o(.rev16_text), (4 bytes).
    Removing spi.o(.revsh_text), (4 bytes).
    Removing spi.o(.rrx_text), (6 bytes).
    Removing usart.o(.rev16_text), (4 bytes).
    Removing usart.o(.revsh_text), (4 bytes).
    Removing usart.o(.rrx_text), (6 bytes).
    Removing delay.o(.rev16_text), (4 bytes).
    Removing delay.o(.revsh_text), (4 bytes).
    Removing delay.o(.rrx_text), (6 bytes).
==============================================================================

Image Symbol Table

    Local Symbols

    Symbol Name                              Value     Ov Type        Size  Object(Section)

    ../clib/angel/boardlib.s                 0x00000000   Number         0  boardshut.o ABSOLUTE
    ../clib/angel/boardlib.s                 0x00000000   Number         0  boardinit2.o ABSOLUTE
    ../clib/angel/boardlib.s                 0x00000000   Number         0  boardinit1.o ABSOLUTE
    ../clib/angel/boardlib.s                 0x00000000   Number         0  boardinit3.o ABSOLUTE
    ../clib/angel/dclz77c.s                  0x00000000   Number         0  __dclz77c.o ABSOLUTE
    ../clib/angel/handlers.s                 0x00000000   Number         0  __scatter_zi.o ABSOLUTE
    ../clib/angel/kernel.s                   0x00000000   Number         0  rtexit.o ABSOLUTE
    ../clib/angel/kernel.s                   0x00000000   Number         0  rtexit2.o ABSOLUTE
    ../clib/angel/kernel.s                   0x00000000   Number         0  __rtentry2.o ABSOLUTE
    ../clib/angel/kernel.s                   0x00000000   Number         0  __rtentry.o ABSOLUTE
    ../clib/angel/kernel.s                   0x00000000   Number         0  __rtentry4.o ABSOLUTE
    ../clib/angel/rt.s                       0x00000000   Number         0  rt_raise.o ABSOLUTE
    ../clib/angel/rt.s                       0x00000000   Number         0  rt_errno_addr_intlibspace.o ABSOLUTE
    ../clib/angel/rt.s                       0x00000000   Number         0  rt_errno_addr.o ABSOLUTE
    ../clib/angel/rt.s                       0x00000000   Number         0  rt_locale.o ABSOLUTE
    ../clib/angel/rt.s                       0x00000000   Number         0  rt_locale_intlibspace.o ABSOLUTE
    ../clib/angel/scatter.s                  0x00000000   Number         0  __scatter.o ABSOLUTE
    ../clib/angel/startup.s                  0x00000000   Number         0  __main.o ABSOLUTE
    ../clib/angel/sys.s                      0x00000000   Number         0  indicate_semi.o ABSOLUTE
    ../clib/angel/sys.s                      0x00000000   Number         0  sys_stackheap_outer.o ABSOLUTE
    ../clib/angel/sys.s                      0x00000000   Number         0  use_no_semi.o ABSOLUTE
    ../clib/angel/sys.s                      0x00000000   Number         0  use_no_semi_2.o ABSOLUTE
    ../clib/angel/sys.s                      0x00000000   Number         0  libspace.o ABSOLUTE
    ../clib/angel/sysapp.c                   0x00000000   Number         0  sys_command.o ABSOLUTE
    ../clib/angel/sysapp.c                   0x00000000   Number         0  sys_wrch.o ABSOLUTE
    ../clib/armsys.c                         0x00000000   Number         0  argv_veneer.o ABSOLUTE
    ../clib/armsys.c                         0x00000000   Number         0  _get_argv_nomalloc.o ABSOLUTE
    ../clib/armsys.c                         0x00000000   Number         0  no_argv.o ABSOLUTE
    ../clib/armsys.c                         0x00000000   Number         0  argv_veneer.o ABSOLUTE
    ../clib/bigflt.c                         0x00000000   Number         0  bigflt0.o ABSOLUTE
    ../clib/btod.s                           0x00000000   Number         0  btod.o ABSOLUTE
    ../clib/fenv.c                           0x00000000   Number         0  _rserrno.o ABSOLUTE
    ../clib/heapalloc.c                      0x00000000   Number         0  hrguard.o ABSOLUTE
    ../clib/heapaux.c                        0x00000000   Number         0  heapauxi.o ABSOLUTE
    ../clib/libinit.s                        0x00000000   Number         0  libshutdown.o ABSOLUTE
    ../clib/libinit.s                        0x00000000   Number         0  libshutdown2.o ABSOLUTE
    ../clib/libinit.s                        0x00000000   Number         0  libinit.o ABSOLUTE
    ../clib/libinit.s                        0x00000000   Number         0  libinit2.o ABSOLUTE
    ../clib/locale.s                         0x00000000   Number         0  lc_numeric_c.o ABSOLUTE
    ../clib/longlong.s                       0x00000000   Number         0  lludiv10.o ABSOLUTE
    ../clib/memcpset.s                       0x00000000   Number         0  strcmpv7m.o ABSOLUTE
    ../clib/printf.c                         0x00000000   Number         0  noretval__2printf.o ABSOLUTE
    ../clib/printf.c                         0x00000000   Number         0  __printf.o ABSOLUTE
    ../clib/printf.c                         0x00000000   Number         0  __printf_ss_wp.o ABSOLUTE
    ../clib/printf.c                         0x00000000   Number         0  _printf_dec.o ABSOLUTE
    ../clib/printf.c                         0x00000000   Number         0  __printf_flags.o ABSOLUTE
    ../clib/printf.c                         0x00000000   Number         0  __printf_flags_ss_wp.o ABSOLUTE
    ../clib/printf.c                         0x00000000   Number         0  __printf_ss.o ABSOLUTE
    ../clib/printf.c                         0x00000000   Number         0  __printf_flags_ss.o ABSOLUTE
    ../clib/printf.c                         0x00000000   Number         0  _printf_char_common.o ABSOLUTE
    ../clib/printf.c                         0x00000000   Number         0  _printf_fp_infnan.o ABSOLUTE
    ../clib/printf.c                         0x00000000   Number         0  __printf_wp.o ABSOLUTE
    ../clib/printf.c                         0x00000000   Number         0  __printf_nopercent.o ABSOLUTE
    ../clib/printf.c                         0x00000000   Number         0  __printf_flags_wp.o ABSOLUTE
    ../clib/printf.c                         0x00000000   Number         0  _printf_char_file.o ABSOLUTE
    ../clib/printf.c                         0x00000000   Number         0  _printf_fp_dec.o ABSOLUTE
    ../clib/printf.c                         0x00000000   Number         0  _printf_intcommon.o ABSOLUTE
    ../clib/printf.c                         0x00000000   Number         0  __2printf.o ABSOLUTE
    ../clib/printf_percent.s                 0x00000000   Number         0  _printf_percent_end.o ABSOLUTE
    ../clib/printf_percent.s                 0x00000000   Number         0  _printf_d.o ABSOLUTE
    ../clib/printf_percent.s                 0x00000000   Number         0  _printf_f.o ABSOLUTE
    ../clib/printf_percent.s                 0x00000000   Number         0  _printf_percent.o ABSOLUTE
    ../clib/signal.c                         0x00000000   Number         0  defsig_rtmem_formal.o ABSOLUTE
    ../clib/signal.c                         0x00000000   Number         0  defsig_rtmem_outer.o ABSOLUTE
    ../clib/signal.c                         0x00000000   Number         0  defsig_rtred_inner.o ABSOLUTE
    ../clib/signal.c                         0x00000000   Number         0  defsig_general.o ABSOLUTE
    ../clib/signal.c                         0x00000000   Number         0  defsig_stak_inner.o ABSOLUTE
    ../clib/signal.c                         0x00000000   Number         0  defsig_rtmem_inner.o ABSOLUTE
    ../clib/signal.c                         0x00000000   Number         0  defsig_cppl_inner.o ABSOLUTE
    ../clib/signal.c                         0x00000000   Number         0  __raise.o ABSOLUTE
    ../clib/signal.c                         0x00000000   Number         0  defsig_pvfn_inner.o ABSOLUTE
    ../clib/signal.c                         0x00000000   Number         0  defsig_exit.o ABSOLUTE
    ../clib/signal.c                         0x00000000   Number         0  defsig_segv_inner.o ABSOLUTE
    ../clib/signal.c                         0x00000000   Number         0  defsig_abrt_inner.o ABSOLUTE
    ../clib/signal.c                         0x00000000   Number         0  defsig_fpe_inner.o ABSOLUTE
    ../clib/signal.c                         0x00000000   Number         0  defsig_other.o ABSOLUTE
    ../clib/signal.s                         0x00000000   Number         0  defsig.o ABSOLUTE
    ../clib/stdio.c                          0x00000000   Number         0  ferror.o ABSOLUTE
    ../clib/stdio.c                          0x00000000   Number         0  ferror_locked.o ABSOLUTE
    ../clib/stdlib.c                         0x00000000   Number         0  exit.o ABSOLUTE
    ../fplib/basic.s                         0x00000000   Number         0  basic.o ABSOLUTE
    ../fplib/d2f.s                           0x00000000   Number         0  d2f.o ABSOLUTE
    ../fplib/daddsub.s                       0x00000000   Number         0  daddsub_clz.o ABSOLUTE
    ../fplib/dcmpi.s                         0x00000000   Number         0  dcmpi.o ABSOLUTE
    ../fplib/ddiv.s                          0x00000000   Number         0  ddiv.o ABSOLUTE
    ../fplib/dfix.s                          0x00000000   Number         0  dfix.o ABSOLUTE
    ../fplib/dfixu.s                         0x00000000   Number         0  dfixu.o ABSOLUTE
    ../fplib/dflt.s                          0x00000000   Number         0  dflt_clz.o ABSOLUTE
    ../fplib/dleqf.s                         0x00000000   Number         0  dleqf.o ABSOLUTE
    ../fplib/dmul.s                          0x00000000   Number         0  dmul.o ABSOLUTE
    ../fplib/dnaninf.s                       0x00000000   Number         0  dnaninf.o ABSOLUTE
    ../fplib/dretinf.s                       0x00000000   Number         0  dretinf.o ABSOLUTE
    ../fplib/dsqrt.s                         0x00000000   Number         0  dsqrt_umaal.o ABSOLUTE
    ../fplib/f2d.s                           0x00000000   Number         0  f2d.o ABSOLUTE
    ../fplib/fnaninf.s                       0x00000000   Number         0  fnaninf.o ABSOLUTE
    ../fplib/fpinit.s                        0x00000000   Number         0  fpinit.o ABSOLUTE
    ../fplib/fretinf.s                       0x00000000   Number         0  fretinf.o ABSOLUTE
    ../fplib/istatus.s                       0x00000000   Number         0  istatus.o ABSOLUTE
    ../fplib/printf1.s                       0x00000000   Number         0  printf1.o ABSOLUTE
    ../fplib/usenofp.s                       0x00000000   Number         0  usenofp.o ABSOLUTE
    ../mathlib/asin.c                        0x00000000   Number         0  asin.o ABSOLUTE
    ../mathlib/asin.c                        0x00000000   Number         0  asin_x.o ABSOLUTE
    ../mathlib/atan.c                        0x00000000   Number         0  atan_x.o ABSOLUTE
    ../mathlib/atan.c                        0x00000000   Number         0  atan.o ABSOLUTE
    ../mathlib/atan2.c                       0x00000000   Number         0  atan2.o ABSOLUTE
    ../mathlib/atan2.c                       0x00000000   Number         0  atan2_x.o ABSOLUTE
    ../mathlib/dunder.c                      0x00000000   Number         0  dunder.o ABSOLUTE
    ../mathlib/fabs.c                        0x00000000   Number         0  fabs.o ABSOLUTE
    ../mathlib/fpclassify.c                  0x00000000   Number         0  fpclassify.o ABSOLUTE
    ../mathlib/modf.c                        0x00000000   Number         0  modf.o ABSOLUTE
    ../mathlib/poly.c                        0x00000000   Number         0  poly.o ABSOLUTE
    ../mathlib/qnan.c                        0x00000000   Number         0  qnan.o ABSOLUTE
    ../mathlib/sqrt.c                        0x00000000   Number         0  sqrt.o ABSOLUTE
    ../mathlib/sqrt.c                        0x00000000   Number         0  sqrt_x.o ABSOLUTE
    ..\CORE\startup_stm32f40_41xxx.s         0x00000000   Number         0  startup_stm32f40_41xxx.o ABSOLUTE
    ..\DF_Base\ADC\adc.c                     0x00000000   Number         0  adc.o ABSOLUTE
    ..\DF_Base\Blance\Blance.c               0x00000000   Number         0  blance.o ABSOLUTE
    ..\DF_Base\ENCODER\encoder.c             0x00000000   Number         0  encoder.o ABSOLUTE
    ..\DF_Base\Flash\flash.c                 0x00000000   Number         0  flash.o ABSOLUTE
    ..\DF_Base\KEY\key.c                     0x00000000   Number         0  key.o ABSOLUTE
    ..\DF_Base\LED\led.c                     0x00000000   Number         0  led.o ABSOLUTE
    ..\DF_Base\PWM\pwm.c                     0x00000000   Number         0  pwm.o ABSOLUTE
    ..\DF_Base\SPI\spi.c                     0x00000000   Number         0  spi.o ABSOLUTE
    ..\DF_Base\delay\delay.c                 0x00000000   Number         0  delay.o ABSOLUTE
    ..\DF_Base\usart\usart.c                 0x00000000   Number         0  usart.o ABSOLUTE
    ..\DF_Logic\DF_Loop\DF_Loop.c            0x00000000   Number         0  df_loop.o ABSOLUTE
    ..\DF_Logic\DF_Motion_Decom\DF_Motion_Decom.c 0x00000000   Number         0  df_motion_decom.o ABSOLUTE
    ..\DF_Logic\DF_Move\DF_Move.c            0x00000000   Number         0  df_move.o ABSOLUTE
    ..\DF_Logic\DF_Pid\DF_Pid.c              0x00000000   Number         0  df_pid.o ABSOLUTE
    ..\DF_Logic\DF_Rc\DF_Rc.c                0x00000000   Number         0  df_rc.o ABSOLUTE
    ..\DF_Logic\DF_Struct\DF_Imu.c           0x00000000   Number         0  df_imu.o ABSOLUTE
    ..\DF_Logic\DF_Struct\DF_Struct.c        0x00000000   Number         0  df_struct.o ABSOLUTE
    ..\DF_Middle\DF_Android\DF_Android.c     0x00000000   Number         0  df_android.o ABSOLUTE
    ..\DF_Middle\DF_Communicat\DF_Communicat.c 0x00000000   Number         0  df_communicat.o ABSOLUTE
    ..\DF_Middle\DF_Fiter\DF_Fiter.c         0x00000000   Number         0  df_fiter.o ABSOLUTE
    ..\DF_Middle\DF_Fly\DF_Fly.c             0x00000000   Number         0  df_fly.o ABSOLUTE
    ..\DF_Middle\DF_OLED\DF_OLED.c           0x00000000   Number         0  df_oled.o ABSOLUTE
    ..\DF_Middle\DF_Ps2\DF_Ps2.c             0x00000000   Number         0  df_ps2.o ABSOLUTE
    ..\DF_Middle\DF_Task_Time\DF_Task_Time.c 0x00000000   Number         0  df_task_time.o ABSOLUTE
    ..\FWLIB\src\misc.c                      0x00000000   Number         0  misc.o ABSOLUTE
    ..\FWLIB\src\stm32f4xx_adc.c             0x00000000   Number         0  stm32f4xx_adc.o ABSOLUTE
    ..\FWLIB\src\stm32f4xx_dma.c             0x00000000   Number         0  stm32f4xx_dma.o ABSOLUTE
    ..\FWLIB\src\stm32f4xx_exti.c            0x00000000   Number         0  stm32f4xx_exti.o ABSOLUTE
    ..\FWLIB\src\stm32f4xx_flash.c           0x00000000   Number         0  stm32f4xx_flash.o ABSOLUTE
    ..\FWLIB\src\stm32f4xx_fsmc.c            0x00000000   Number         0  stm32f4xx_fsmc.o ABSOLUTE
    ..\FWLIB\src\stm32f4xx_gpio.c            0x00000000   Number         0  stm32f4xx_gpio.o ABSOLUTE
    ..\FWLIB\src\stm32f4xx_i2c.c             0x00000000   Number         0  stm32f4xx_i2c.o ABSOLUTE
    ..\FWLIB\src\stm32f4xx_ltdc.c            0x00000000   Number         0  stm32f4xx_ltdc.o ABSOLUTE
    ..\FWLIB\src\stm32f4xx_pwr.c             0x00000000   Number         0  stm32f4xx_pwr.o ABSOLUTE
    ..\FWLIB\src\stm32f4xx_rcc.c             0x00000000   Number         0  stm32f4xx_rcc.o ABSOLUTE
    ..\FWLIB\src\stm32f4xx_rng.c             0x00000000   Number         0  stm32f4xx_rng.o ABSOLUTE
    ..\FWLIB\src\stm32f4xx_rtc.c             0x00000000   Number         0  stm32f4xx_rtc.o ABSOLUTE
    ..\FWLIB\src\stm32f4xx_sdio.c            0x00000000   Number         0  stm32f4xx_sdio.o ABSOLUTE
    ..\FWLIB\src\stm32f4xx_spi.c             0x00000000   Number         0  stm32f4xx_spi.o ABSOLUTE
    ..\FWLIB\src\stm32f4xx_syscfg.c          0x00000000   Number         0  stm32f4xx_syscfg.o ABSOLUTE
    ..\FWLIB\src\stm32f4xx_tim.c             0x00000000   Number         0  stm32f4xx_tim.o ABSOLUTE
    ..\FWLIB\src\stm32f4xx_usart.c           0x00000000   Number         0  stm32f4xx_usart.o ABSOLUTE
    ..\FWLIB\stm32f4xx_it.c                  0x00000000   Number         0  stm32f4xx_it.o ABSOLUTE
    ..\FWLIB\sys\sys.c                       0x00000000   Number         0  sys.o ABSOLUTE
    ..\FWLIB\system_stm32f4xx.c              0x00000000   Number         0  system_stm32f4xx.o ABSOLUTE
    ..\\DF_Base\\ADC\\adc.c                  0x00000000   Number         0  adc.o ABSOLUTE
    ..\\DF_Base\\Blance\\Blance.c            0x00000000   Number         0  blance.o ABSOLUTE
    ..\\DF_Base\\ENCODER\\encoder.c          0x00000000   Number         0  encoder.o ABSOLUTE
    ..\\DF_Base\\Flash\\flash.c              0x00000000   Number         0  flash.o ABSOLUTE
    ..\\DF_Base\\KEY\\key.c                  0x00000000   Number         0  key.o ABSOLUTE
    ..\\DF_Base\\LED\\led.c                  0x00000000   Number         0  led.o ABSOLUTE
    ..\\DF_Base\\PWM\\pwm.c                  0x00000000   Number         0  pwm.o ABSOLUTE
    ..\\DF_Base\\SPI\\spi.c                  0x00000000   Number         0  spi.o ABSOLUTE
    ..\\DF_Base\\delay\\delay.c              0x00000000   Number         0  delay.o ABSOLUTE
    ..\\DF_Base\\usart\\usart.c              0x00000000   Number         0  usart.o ABSOLUTE
    ..\\DF_Logic\\DF_Loop\\DF_Loop.c         0x00000000   Number         0  df_loop.o ABSOLUTE
    ..\\DF_Logic\\DF_Motion_Decom\\DF_Motion_Decom.c 0x00000000   Number         0  df_motion_decom.o ABSOLUTE
    ..\\DF_Logic\\DF_Move\\DF_Move.c         0x00000000   Number         0  df_move.o ABSOLUTE
    ..\\DF_Logic\\DF_Pid\\DF_Pid.c           0x00000000   Number         0  df_pid.o ABSOLUTE
    ..\\DF_Logic\\DF_Rc\\DF_Rc.c             0x00000000   Number         0  df_rc.o ABSOLUTE
    ..\\DF_Logic\\DF_Struct\\DF_Imu.c        0x00000000   Number         0  df_imu.o ABSOLUTE
    ..\\DF_Logic\\DF_Struct\\DF_Struct.c     0x00000000   Number         0  df_struct.o ABSOLUTE
    ..\\DF_Middle\\DF_Android\\DF_Android.c  0x00000000   Number         0  df_android.o ABSOLUTE
    ..\\DF_Middle\\DF_Communicat\\DF_Communicat.c 0x00000000   Number         0  df_communicat.o ABSOLUTE
    ..\\DF_Middle\\DF_Fiter\\DF_Fiter.c      0x00000000   Number         0  df_fiter.o ABSOLUTE
    ..\\DF_Middle\\DF_Fly\\DF_Fly.c          0x00000000   Number         0  df_fly.o ABSOLUTE
    ..\\DF_Middle\\DF_OLED\\DF_OLED.c        0x00000000   Number         0  df_oled.o ABSOLUTE
    ..\\DF_Middle\\DF_Ps2\\DF_Ps2.c          0x00000000   Number         0  df_ps2.o ABSOLUTE
    ..\\DF_Middle\\DF_Task_Time\\DF_Task_Time.c 0x00000000   Number         0  df_task_time.o ABSOLUTE
    ..\\FWLIB\\src\\misc.c                   0x00000000   Number         0  misc.o ABSOLUTE
    ..\\FWLIB\\src\\stm32f4xx_adc.c          0x00000000   Number         0  stm32f4xx_adc.o ABSOLUTE
    ..\\FWLIB\\src\\stm32f4xx_dma.c          0x00000000   Number         0  stm32f4xx_dma.o ABSOLUTE
    ..\\FWLIB\\src\\stm32f4xx_exti.c         0x00000000   Number         0  stm32f4xx_exti.o ABSOLUTE
    ..\\FWLIB\\src\\stm32f4xx_flash.c        0x00000000   Number         0  stm32f4xx_flash.o ABSOLUTE
    ..\\FWLIB\\src\\stm32f4xx_fsmc.c         0x00000000   Number         0  stm32f4xx_fsmc.o ABSOLUTE
    ..\\FWLIB\\src\\stm32f4xx_gpio.c         0x00000000   Number         0  stm32f4xx_gpio.o ABSOLUTE
    ..\\FWLIB\\src\\stm32f4xx_i2c.c          0x00000000   Number         0  stm32f4xx_i2c.o ABSOLUTE
    ..\\FWLIB\\src\\stm32f4xx_ltdc.c         0x00000000   Number         0  stm32f4xx_ltdc.o ABSOLUTE
    ..\\FWLIB\\src\\stm32f4xx_pwr.c          0x00000000   Number         0  stm32f4xx_pwr.o ABSOLUTE
    ..\\FWLIB\\src\\stm32f4xx_rcc.c          0x00000000   Number         0  stm32f4xx_rcc.o ABSOLUTE
    ..\\FWLIB\\src\\stm32f4xx_rng.c          0x00000000   Number         0  stm32f4xx_rng.o ABSOLUTE
    ..\\FWLIB\\src\\stm32f4xx_rtc.c          0x00000000   Number         0  stm32f4xx_rtc.o ABSOLUTE
    ..\\FWLIB\\src\\stm32f4xx_sdio.c         0x00000000   Number         0  stm32f4xx_sdio.o ABSOLUTE
    ..\\FWLIB\\src\\stm32f4xx_spi.c          0x00000000   Number         0  stm32f4xx_spi.o ABSOLUTE
    ..\\FWLIB\\src\\stm32f4xx_syscfg.c       0x00000000   Number         0  stm32f4xx_syscfg.o ABSOLUTE
    ..\\FWLIB\\src\\stm32f4xx_tim.c          0x00000000   Number         0  stm32f4xx_tim.o ABSOLUTE
    ..\\FWLIB\\src\\stm32f4xx_usart.c        0x00000000   Number         0  stm32f4xx_usart.o ABSOLUTE
    ..\\FWLIB\\stm32f4xx_it.c                0x00000000   Number         0  stm32f4xx_it.o ABSOLUTE
    ..\\FWLIB\\sys\\sys.c                    0x00000000   Number         0  sys.o ABSOLUTE
    ..\\FWLIB\\system_stm32f4xx.c            0x00000000   Number         0  system_stm32f4xx.o ABSOLUTE
    dc.s                                     0x00000000   Number         0  dc.o ABSOLUTE
    main.c                                   0x00000000   Number         0  main.o ABSOLUTE
    main.c                                   0x00000000   Number         0  main.o ABSOLUTE
    RESET                                    0x08000000   Section      392  startup_stm32f40_41xxx.o(RESET)
    !!!main                                  0x08000188   Section        8  __main.o(!!!main)
    !!!scatter                               0x08000190   Section       52  __scatter.o(!!!scatter)
    !!dclz77c                                0x080001c4   Section      100  __dclz77c.o(!!dclz77c)
    !!handler_zi                             0x08000228   Section       28  __scatter_zi.o(!!handler_zi)
    .ARM.Collect$$_printf_percent$$00000000  0x08000244   Section        0  _printf_percent.o(.ARM.Collect$$_printf_percent$$00000000)
    .ARM.Collect$$_printf_percent$$00000003  0x08000244   Section        6  _printf_f.o(.ARM.Collect$$_printf_percent$$00000003)
    .ARM.Collect$$_printf_percent$$00000009  0x0800024a   Section        6  _printf_d.o(.ARM.Collect$$_printf_percent$$00000009)
    .ARM.Collect$$_printf_percent$$00000017  0x08000250   Section        4  _printf_percent_end.o(.ARM.Collect$$_printf_percent$$00000017)
    .ARM.Collect$$libinit$$00000000          0x08000254   Section        2  libinit.o(.ARM.Collect$$libinit$$00000000)
    .ARM.Collect$$libinit$$00000001          0x08000256   Section        4  libinit2.o(.ARM.Collect$$libinit$$00000001)
    .ARM.Collect$$libinit$$00000004          0x0800025a   Section        0  libinit2.o(.ARM.Collect$$libinit$$00000004)
    .ARM.Collect$$libinit$$0000000A          0x0800025a   Section        0  libinit2.o(.ARM.Collect$$libinit$$0000000A)
    .ARM.Collect$$libinit$$0000000C          0x0800025a   Section        0  libinit2.o(.ARM.Collect$$libinit$$0000000C)
    .ARM.Collect$$libinit$$0000000E          0x0800025a   Section        0  libinit2.o(.ARM.Collect$$libinit$$0000000E)
    .ARM.Collect$$libinit$$0000000F          0x0800025a   Section        6  libinit2.o(.ARM.Collect$$libinit$$0000000F)
    .ARM.Collect$$libinit$$00000011          0x08000260   Section        0  libinit2.o(.ARM.Collect$$libinit$$00000011)
    .ARM.Collect$$libinit$$00000013          0x08000260   Section        0  libinit2.o(.ARM.Collect$$libinit$$00000013)
    .ARM.Collect$$libinit$$00000015          0x08000260   Section        0  libinit2.o(.ARM.Collect$$libinit$$00000015)
    .ARM.Collect$$libinit$$00000016          0x08000260   Section       10  libinit2.o(.ARM.Collect$$libinit$$00000016)
    .ARM.Collect$$libinit$$00000017          0x0800026a   Section        0  libinit2.o(.ARM.Collect$$libinit$$00000017)
    .ARM.Collect$$libinit$$00000019          0x0800026a   Section        0  libinit2.o(.ARM.Collect$$libinit$$00000019)
    .ARM.Collect$$libinit$$0000001B          0x0800026a   Section        0  libinit2.o(.ARM.Collect$$libinit$$0000001B)
    .ARM.Collect$$libinit$$0000001D          0x0800026a   Section        0  libinit2.o(.ARM.Collect$$libinit$$0000001D)
    .ARM.Collect$$libinit$$0000001F          0x0800026a   Section        0  libinit2.o(.ARM.Collect$$libinit$$0000001F)
    .ARM.Collect$$libinit$$00000021          0x0800026a   Section        0  libinit2.o(.ARM.Collect$$libinit$$00000021)
    .ARM.Collect$$libinit$$00000023          0x0800026a   Section        0  libinit2.o(.ARM.Collect$$libinit$$00000023)
    .ARM.Collect$$libinit$$00000025          0x0800026a   Section        0  libinit2.o(.ARM.Collect$$libinit$$00000025)
    .ARM.Collect$$libinit$$0000002C          0x0800026a   Section        0  libinit2.o(.ARM.Collect$$libinit$$0000002C)
    .ARM.Collect$$libinit$$0000002E          0x0800026a   Section        0  libinit2.o(.ARM.Collect$$libinit$$0000002E)
    .ARM.Collect$$libinit$$00000030          0x0800026a   Section        0  libinit2.o(.ARM.Collect$$libinit$$00000030)
    .ARM.Collect$$libinit$$00000032          0x0800026a   Section        0  libinit2.o(.ARM.Collect$$libinit$$00000032)
    .ARM.Collect$$libinit$$00000033          0x0800026a   Section        2  libinit2.o(.ARM.Collect$$libinit$$00000033)
    .ARM.Collect$$libshutdown$$00000000      0x0800026c   Section        2  libshutdown.o(.ARM.Collect$$libshutdown$$00000000)
    .ARM.Collect$$libshutdown$$00000002      0x0800026e   Section        0  libshutdown2.o(.ARM.Collect$$libshutdown$$00000002)
    .ARM.Collect$$libshutdown$$00000004      0x0800026e   Section        0  libshutdown2.o(.ARM.Collect$$libshutdown$$00000004)
    .ARM.Collect$$libshutdown$$00000007      0x0800026e   Section        0  libshutdown2.o(.ARM.Collect$$libshutdown$$00000007)
    .ARM.Collect$$libshutdown$$0000000A      0x0800026e   Section        0  libshutdown2.o(.ARM.Collect$$libshutdown$$0000000A)
    .ARM.Collect$$libshutdown$$0000000C      0x0800026e   Section        0  libshutdown2.o(.ARM.Collect$$libshutdown$$0000000C)
    .ARM.Collect$$libshutdown$$0000000F      0x0800026e   Section        0  libshutdown2.o(.ARM.Collect$$libshutdown$$0000000F)
    .ARM.Collect$$libshutdown$$00000010      0x0800026e   Section        2  libshutdown2.o(.ARM.Collect$$libshutdown$$00000010)
    .ARM.Collect$$rtentry$$00000000          0x08000270   Section        0  __rtentry.o(.ARM.Collect$$rtentry$$00000000)
    .ARM.Collect$$rtentry$$00000002          0x08000270   Section        0  __rtentry2.o(.ARM.Collect$$rtentry$$00000002)
    .ARM.Collect$$rtentry$$00000004          0x08000270   Section        6  __rtentry4.o(.ARM.Collect$$rtentry$$00000004)
    .ARM.Collect$$rtentry$$00000009          0x08000276   Section        0  __rtentry2.o(.ARM.Collect$$rtentry$$00000009)
    .ARM.Collect$$rtentry$$0000000A          0x08000276   Section        4  __rtentry2.o(.ARM.Collect$$rtentry$$0000000A)
    .ARM.Collect$$rtentry$$0000000C          0x0800027a   Section        0  __rtentry2.o(.ARM.Collect$$rtentry$$0000000C)
    .ARM.Collect$$rtentry$$0000000D          0x0800027a   Section        8  __rtentry2.o(.ARM.Collect$$rtentry$$0000000D)
    .ARM.Collect$$rtexit$$00000000           0x08000282   Section        2  rtexit.o(.ARM.Collect$$rtexit$$00000000)
    .ARM.Collect$$rtexit$$00000002           0x08000284   Section        0  rtexit2.o(.ARM.Collect$$rtexit$$00000002)
    .ARM.Collect$$rtexit$$00000003           0x08000284   Section        4  rtexit2.o(.ARM.Collect$$rtexit$$00000003)
    .ARM.Collect$$rtexit$$00000004           0x08000288   Section        6  rtexit2.o(.ARM.Collect$$rtexit$$00000004)
    .text                                    0x08000290   Section        0  main.o(.text)
    .text                                    0x080002ec   Section        0  key.o(.text)
    .text                                    0x080003d4   Section        0  adc.o(.text)
    .text                                    0x080005d4   Section        0  spi.o(.text)
    .text                                    0x080007c4   Section        0  usart.o(.text)
    .text                                    0x08000e4c   Section        0  delay.o(.text)
    .text                                    0x08000f50   Section        0  pwm.o(.text)
    .text                                    0x0800122c   Section        0  encoder.o(.text)
    .text                                    0x08001544   Section        0  flash.o(.text)
    .text                                    0x08001ab4   Section        0  led.o(.text)
    .text                                    0x08001c68   Section        0  df_task_time.o(.text)
    .text                                    0x08001d98   Section        0  df_ps2.o(.text)
    .text                                    0x08002384   Section        0  df_android.o(.text)
    .text                                    0x080028f4   Section        0  df_fiter.o(.text)
    .text                                    0x08002b48   Section        0  df_fly.o(.text)
    .text                                    0x08003054   Section        0  df_oled.o(.text)
    .text                                    0x08003b0c   Section        0  df_pid.o(.text)
    .text                                    0x08003d44   Section        0  df_rc.o(.text)
    .text                                    0x08005104   Section        0  df_motion_decom.o(.text)
    .text                                    0x08005708   Section        0  df_loop.o(.text)
    .text                                    0x08005798   Section        0  df_move.o(.text)
    .text                                    0x080058b4   Section        0  df_imu.o(.text)
    .text                                    0x08005eb0   Section        0  df_struct.o(.text)
    .text                                    0x0800607c   Section       64  startup_stm32f40_41xxx.o(.text)
    $v0                                      0x0800607c   Number         0  startup_stm32f40_41xxx.o(.text)
    .text                                    0x080060bc   Section        0  misc.o(.text)
    .text                                    0x0800619c   Section        0  stm32f4xx_adc.o(.text)
    .text                                    0x08006600   Section        0  stm32f4xx_spi.o(.text)
    .text                                    0x08006a80   Section        0  stm32f4xx_tim.o(.text)
    TI4_Config                               0x0800721f   Thumb Code    80  stm32f4xx_tim.o(.text)
    TI3_Config                               0x08007281   Thumb Code    72  stm32f4xx_tim.o(.text)
    TI2_Config                               0x080072e3   Thumb Code    90  stm32f4xx_tim.o(.text)
    TI1_Config                               0x0800734f   Thumb Code    58  stm32f4xx_tim.o(.text)
    .text                                    0x08007724   Section        0  stm32f4xx_usart.o(.text)
    .text                                    0x08007b78   Section        0  stm32f4xx_gpio.o(.text)
    .text                                    0x08007e0c   Section        0  stm32f4xx_rcc.o(.text)
    .text                                    0x08008468   Section        0  stm32f4xx_flash.o(.text)
    .text                                    0x08008afc   Section        0  stm32f4xx_it.o(.text)
    .text                                    0x08008b18   Section        0  system_stm32f4xx.o(.text)
    SetSysClock                              0x08008b19   Thumb Code   220  system_stm32f4xx.o(.text)
    .text                                    0x08008d28   Section        2  use_no_semi_2.o(.text)
    .text                                    0x08008d2c   Section        0  noretval__2printf.o(.text)
    .text                                    0x08008d44   Section        0  __printf.o(.text)
    .text                                    0x08008dac   Section        0  _printf_dec.o(.text)
    .text                                    0x08008e24   Section        0  heapauxi.o(.text)
    .text                                    0x08008e2a   Section        2  use_no_semi.o(.text)
    .text                                    0x08008e2c   Section        0  _rserrno.o(.text)
    .text                                    0x08008e42   Section        0  _printf_intcommon.o(.text)
    .text                                    0x08008ef4   Section        0  _printf_fp_dec.o(.text)
    _fp_digits                               0x08008ef7   Thumb Code   432  _printf_fp_dec.o(.text)
    .text                                    0x08009314   Section        0  _printf_char_file.o(.text)
    .text                                    0x08009338   Section        8  rt_locale_intlibspace.o(.text)
    .text                                    0x08009340   Section        8  rt_errno_addr_intlibspace.o(.text)
    .text                                    0x08009348   Section      138  lludiv10.o(.text)
    .text                                    0x080093d4   Section        0  _printf_char_common.o(.text)
    _printf_input_char                       0x080093d5   Thumb Code    10  _printf_char_common.o(.text)
    .text                                    0x08009404   Section        0  _printf_fp_infnan.o(.text)
    .text                                    0x08009484   Section        0  bigflt0.o(.text)
    .text                                    0x08009568   Section        0  ferror.o(.text)
    .text                                    0x08009570   Section        8  libspace.o(.text)
    .text                                    0x08009578   Section       74  sys_stackheap_outer.o(.text)
    .text                                    0x080095c2   Section        0  exit.o(.text)
    .text                                    0x080095d4   Section      128  strcmpv7m.o(.text)
    CL$$btod_d2e                             0x08009654   Section       62  btod.o(CL$$btod_d2e)
    CL$$btod_d2e_denorm_low                  0x08009692   Section       70  btod.o(CL$$btod_d2e_denorm_low)
    CL$$btod_d2e_norm_op1                    0x080096d8   Section       96  btod.o(CL$$btod_d2e_norm_op1)
    CL$$btod_div_common                      0x08009738   Section      824  btod.o(CL$$btod_div_common)
    CL$$btod_e2e                             0x08009a70   Section      220  btod.o(CL$$btod_e2e)
    CL$$btod_ediv                            0x08009b4c   Section       42  btod.o(CL$$btod_ediv)
    CL$$btod_emul                            0x08009b76   Section       42  btod.o(CL$$btod_emul)
    CL$$btod_mult_common                     0x08009ba0   Section      580  btod.o(CL$$btod_mult_common)
    i.__ARM_fpclassify                       0x08009de4   Section        0  fpclassify.o(i.__ARM_fpclassify)
    i.__hardfp_asin                          0x08009e18   Section        0  asin.o(i.__hardfp_asin)
    i.__hardfp_atan                          0x0800a178   Section        0  atan.o(i.__hardfp_atan)
    i.__hardfp_atan2                         0x0800a450   Section        0  atan2.o(i.__hardfp_atan2)
    i.__hardfp_fabs                          0x0800a640   Section        0  fabs.o(i.__hardfp_fabs)
    i.__hardfp_modf                          0x0800a654   Section        0  modf.o(i.__hardfp_modf)
    i.__kernel_poly                          0x0800a724   Section        0  poly.o(i.__kernel_poly)
    i.__mathlib_dbl_infnan                   0x0800a81c   Section        0  dunder.o(i.__mathlib_dbl_infnan)
    i.__mathlib_dbl_infnan2                  0x0800a830   Section        0  dunder.o(i.__mathlib_dbl_infnan2)
    i.__mathlib_dbl_invalid                  0x0800a848   Section        0  dunder.o(i.__mathlib_dbl_invalid)
    i.__mathlib_dbl_underflow                0x0800a868   Section        0  dunder.o(i.__mathlib_dbl_underflow)
    i.atan                                   0x0800a888   Section        0  atan.o(i.atan)
    i.fabs                                   0x0800a898   Section        0  fabs.o(i.fabs)
    i.sqrt                                   0x0800a8b0   Section        0  sqrt.o(i.sqrt)
    locale$$code                             0x0800a920   Section       44  lc_numeric_c.o(locale$$code)
    x$fpl$basic                              0x0800a94c   Section       24  basic.o(x$fpl$basic)
    $v0                                      0x0800a94c   Number         0  basic.o(x$fpl$basic)
    x$fpl$d2f                                0x0800a964   Section       98  d2f.o(x$fpl$d2f)
    $v0                                      0x0800a964   Number         0  d2f.o(x$fpl$d2f)
    x$fpl$dadd                               0x0800a9c8   Section      336  daddsub_clz.o(x$fpl$dadd)
    $v0                                      0x0800a9c8   Number         0  daddsub_clz.o(x$fpl$dadd)
    _dadd1                                   0x0800a9d9   Thumb Code     0  daddsub_clz.o(x$fpl$dadd)
    x$fpl$dcmpinf                            0x0800ab18   Section       24  dcmpi.o(x$fpl$dcmpinf)
    $v0                                      0x0800ab18   Number         0  dcmpi.o(x$fpl$dcmpinf)
    x$fpl$ddiv                               0x0800ab30   Section      688  ddiv.o(x$fpl$ddiv)
    $v0                                      0x0800ab30   Number         0  ddiv.o(x$fpl$ddiv)
    ddiv_entry                               0x0800ab37   Thumb Code     0  ddiv.o(x$fpl$ddiv)
    x$fpl$dfix                               0x0800ade0   Section       94  dfix.o(x$fpl$dfix)
    $v0                                      0x0800ade0   Number         0  dfix.o(x$fpl$dfix)
    x$fpl$dfixu                              0x0800ae40   Section       90  dfixu.o(x$fpl$dfixu)
    $v0                                      0x0800ae40   Number         0  dfixu.o(x$fpl$dfixu)
    x$fpl$dflt                               0x0800ae9a   Section       46  dflt_clz.o(x$fpl$dflt)
    $v0                                      0x0800ae9a   Number         0  dflt_clz.o(x$fpl$dflt)
    x$fpl$dleqf                              0x0800aec8   Section      120  dleqf.o(x$fpl$dleqf)
    $v0                                      0x0800aec8   Number         0  dleqf.o(x$fpl$dleqf)
    x$fpl$dmul                               0x0800af40   Section      340  dmul.o(x$fpl$dmul)
    $v0                                      0x0800af40   Number         0  dmul.o(x$fpl$dmul)
    x$fpl$dnaninf                            0x0800b094   Section      156  dnaninf.o(x$fpl$dnaninf)
    $v0                                      0x0800b094   Number         0  dnaninf.o(x$fpl$dnaninf)
    x$fpl$dretinf                            0x0800b130   Section       12  dretinf.o(x$fpl$dretinf)
    $v0                                      0x0800b130   Number         0  dretinf.o(x$fpl$dretinf)
    x$fpl$drsb                               0x0800b13c   Section       22  daddsub_clz.o(x$fpl$drsb)
    $v0                                      0x0800b13c   Number         0  daddsub_clz.o(x$fpl$drsb)
    x$fpl$dsqrt                              0x0800b154   Section      408  dsqrt_umaal.o(x$fpl$dsqrt)
    $v0                                      0x0800b154   Number         0  dsqrt_umaal.o(x$fpl$dsqrt)
    x$fpl$dsub                               0x0800b2ec   Section      468  daddsub_clz.o(x$fpl$dsub)
    $v0                                      0x0800b2ec   Number         0  daddsub_clz.o(x$fpl$dsub)
    _dsub1                                   0x0800b2fd   Thumb Code     0  daddsub_clz.o(x$fpl$dsub)
    x$fpl$f2d                                0x0800b4c0   Section       86  f2d.o(x$fpl$f2d)
    $v0                                      0x0800b4c0   Number         0  f2d.o(x$fpl$f2d)
    x$fpl$fnaninf                            0x0800b516   Section      140  fnaninf.o(x$fpl$fnaninf)
    $v0                                      0x0800b516   Number         0  fnaninf.o(x$fpl$fnaninf)
    x$fpl$fpinit                             0x0800b5a2   Section       10  fpinit.o(x$fpl$fpinit)
    $v0                                      0x0800b5a2   Number         0  fpinit.o(x$fpl$fpinit)
    x$fpl$fretinf                            0x0800b5ac   Section       10  fretinf.o(x$fpl$fretinf)
    $v0                                      0x0800b5ac   Number         0  fretinf.o(x$fpl$fretinf)
    x$fpl$printf1                            0x0800b5b6   Section        4  printf1.o(x$fpl$printf1)
    $v0                                      0x0800b5b6   Number         0  printf1.o(x$fpl$printf1)
    .constdata                               0x0800b5ba   Section    62976  df_oled.o(.constdata)
    x$fpl$usenofp                            0x0800b5ba   Section        0  usenofp.o(x$fpl$usenofp)
    .constdata                               0x0801abc0   Section       80  asin.o(.constdata)
    pS                                       0x0801abc0   Data          48  asin.o(.constdata)
    qS                                       0x0801abf0   Data          32  asin.o(.constdata)
    .constdata                               0x0801ac10   Section      152  atan.o(.constdata)
    atanhi                                   0x0801ac10   Data          32  atan.o(.constdata)
    atanlo                                   0x0801ac30   Data          32  atan.o(.constdata)
    aTodd                                    0x0801ac50   Data          40  atan.o(.constdata)
    aTeven                                   0x0801ac78   Data          48  atan.o(.constdata)
    .constdata                               0x0801aca8   Section        8  qnan.o(.constdata)
    .constdata                               0x0801acb0   Section      148  bigflt0.o(.constdata)
    tenpwrs_x                                0x0801acb0   Data          60  bigflt0.o(.constdata)
    tenpwrs_i                                0x0801acec   Data          64  bigflt0.o(.constdata)
    locale$$data                             0x0801ad64   Section       28  lc_numeric_c.o(locale$$data)
    __lcnum_c_name                           0x0801ad68   Data           2  lc_numeric_c.o(locale$$data)
    __lcnum_c_start                          0x0801ad70   Data           0  lc_numeric_c.o(locale$$data)
    __lcnum_c_point                          0x0801ad7c   Data           0  lc_numeric_c.o(locale$$data)
    __lcnum_c_thousands                      0x0801ad7e   Data           0  lc_numeric_c.o(locale$$data)
    __lcnum_c_grouping                       0x0801ad7f   Data           0  lc_numeric_c.o(locale$$data)
    __lcnum_c_end                            0x0801ad80   Data           0  lc_numeric_c.o(locale$$data)
    .data                                    0x20000000   Section        1  key.o(.data)
    key_up                                   0x20000000   Data           1  key.o(.data)
    .data                                    0x20000008   Section        8  adc.o(.data)
    .data                                    0x20000010   Section       18  usart.o(.data)
    state_machine                            0x20000020   Data           1  usart.o(.data)
    i                                        0x20000021   Data           1  usart.o(.data)
    .data                                    0x20000022   Section        4  delay.o(.data)
    fac_us                                   0x20000022   Data           1  delay.o(.data)
    fac_ms                                   0x20000024   Data           2  delay.o(.data)
    .data                                    0x20000026   Section        8  df_task_time.o(.data)
    .data                                    0x20000030   Section       56  df_ps2.o(.data)
    .data                                    0x20000068   Section       24  df_android.o(.data)
    state                                    0x2000007e   Data           1  df_android.o(.data)
    _state_                                  0x2000007f   Data           1  df_android.o(.data)
    .data                                    0x20000080   Section      112  df_fiter.o(.data)
    .data                                    0x200000f0   Section       37  df_fly.o(.data)
    ACC_X                                    0x200000f8   Data           4  df_fly.o(.data)
    ACC_Y                                    0x200000fc   Data           4  df_fly.o(.data)
    ACC_Z                                    0x20000100   Data           4  df_fly.o(.data)
    count_acc                                0x20000104   Data           1  df_fly.o(.data)
    GYRO_X                                   0x20000108   Data           4  df_fly.o(.data)
    GYRO_Y                                   0x2000010c   Data           4  df_fly.o(.data)
    GYRO_Z                                   0x20000110   Data           4  df_fly.o(.data)
    count_gyro                               0x20000114   Data           1  df_fly.o(.data)
    .data                                    0x20000115   Section     6384  df_oled.o(.data)
    .data                                    0x20001a08   Section      232  df_pid.o(.data)
    .data                                    0x20001af0   Section       63  df_rc.o(.data)
    time_cnt                                 0x20001b2d   Data           1  df_rc.o(.data)
    time_flag                                0x20001b2e   Data           1  df_rc.o(.data)
    .data                                    0x20001b30   Section       34  df_motion_decom.o(.data)
    _Vx                                      0x20001b48   Data           4  df_motion_decom.o(.data)
    _Vy                                      0x20001b4c   Data           4  df_motion_decom.o(.data)
    time_cnt                                 0x20001b50   Data           1  df_motion_decom.o(.data)
    time_flag                                0x20001b51   Data           1  df_motion_decom.o(.data)
    .data                                    0x20001b52   Section        2  df_move.o(.data)
    time_cnt                                 0x20001b52   Data           1  df_move.o(.data)
    time_flag                                0x20001b53   Data           1  df_move.o(.data)
    .data                                    0x20001b54   Section       40  df_imu.o(.data)
    q0                                       0x20001b54   Data           4  df_imu.o(.data)
    q1                                       0x20001b58   Data           4  df_imu.o(.data)
    q2                                       0x20001b5c   Data           4  df_imu.o(.data)
    q3                                       0x20001b60   Data           4  df_imu.o(.data)
    exInt                                    0x20001b64   Data           4  df_imu.o(.data)
    eyInt                                    0x20001b68   Data           4  df_imu.o(.data)
    ezInt                                    0x20001b6c   Data           4  df_imu.o(.data)
    .data                                    0x20001b7c   Section       53  df_struct.o(.data)
    .data                                    0x20001bb1   Section       16  stm32f4xx_rcc.o(.data)
    APBAHBPrescTable                         0x20001bb1   Data          16  stm32f4xx_rcc.o(.data)
    .data                                    0x20001bc4   Section       20  system_stm32f4xx.o(.data)
    .bss                                     0x20001bd8   Section      211  usart.o(.bss)
    .bss                                     0x20001cab   Section        9  df_ps2.o(.bss)
    .bss                                     0x20001cb4   Section       30  df_android.o(.bss)
    .bss                                     0x20001cd8   Section     1008  df_fiter.o(.bss)
    .bss                                     0x200020c8   Section      280  df_pid.o(.bss)
    .bss                                     0x200021e0   Section       36  df_imu.o(.bss)
    rMat                                     0x200021e0   Data          36  df_imu.o(.bss)
    .bss                                     0x20002204   Section      224  df_struct.o(.bss)
    .bss                                     0x200022e4   Section       96  libspace.o(.bss)
    HEAP                                     0x20002348   Section      512  startup_stm32f40_41xxx.o(HEAP)
    Heap_Mem                                 0x20002348   Data         512  startup_stm32f40_41xxx.o(HEAP)
    STACK                                    0x20002548   Section     1024  startup_stm32f40_41xxx.o(STACK)
    Stack_Mem                                0x20002548   Data        1024  startup_stm32f40_41xxx.o(STACK)
    __initial_sp                             0x20002948   Data           0  startup_stm32f40_41xxx.o(STACK)

    Global Symbols

    Symbol Name                              Value     Ov Type        Size  Object(Section)

    BuildAttributes$$THM_ISAv4$E$P$D$K$B$S$7EM$VFPi3$EXTD16$VFPS$VFMA$PE$A:L22UL41UL21$X:L11$S22US41US21$IEEE1$IW$USESV6$~STKCKD$USESV7$~SHL$OTIME$ROPI$IEEEX$EBA8$UX$STANDARDLIB$REQ8$PRES8$EABIv2 0x00000000   Number         0  anon$$obj.o ABSOLUTE
    __ARM_use_no_argv                        0x00000000   Number         0  main.o ABSOLUTE
    __ARM_exceptions_init                     - Undefined Weak Reference
    __alloca_initialize                       - Undefined Weak Reference
    __arm_preinit_                            - Undefined Weak Reference
    __cpp_initialize__aeabi_                  - Undefined Weak Reference
    __cxa_finalize                            - Undefined Weak Reference
    __sigvec_lookup                           - Undefined Weak Reference
    _atexit_init                              - Undefined Weak Reference
    _call_atexit_fns                          - Undefined Weak Reference
    _clock_init                               - Undefined Weak Reference
    _fp_trap_init                             - Undefined Weak Reference
    _fp_trap_shutdown                         - Undefined Weak Reference
    _get_lc_collate                           - Undefined Weak Reference
    _get_lc_ctype                             - Undefined Weak Reference
    _get_lc_monetary                          - Undefined Weak Reference
    _get_lc_time                              - Undefined Weak Reference
    _getenv_init                              - Undefined Weak Reference
    _handle_redirection                       - Undefined Weak Reference
    _init_alloc                               - Undefined Weak Reference
    _init_user_alloc                          - Undefined Weak Reference
    _initio                                   - Undefined Weak Reference
    _mutex_acquire                            - Undefined Weak Reference
    _mutex_release                            - Undefined Weak Reference
    _printf_post_padding                      - Undefined Weak Reference
    _printf_pre_padding                       - Undefined Weak Reference
    _printf_truncate_signed                   - Undefined Weak Reference
    _printf_truncate_unsigned                 - Undefined Weak Reference
    _rand_init                                - Undefined Weak Reference
    _signal_finish                            - Undefined Weak Reference
    _signal_init                              - Undefined Weak Reference
    _terminate_alloc                          - Undefined Weak Reference
    _terminate_user_alloc                     - Undefined Weak Reference
    _terminateio                              - Undefined Weak Reference
    __Vectors_Size                           0x00000188   Number         0  startup_stm32f40_41xxx.o ABSOLUTE
    __Vectors                                0x08000000   Data           4  startup_stm32f40_41xxx.o(RESET)
    __Vectors_End                            0x08000188   Data           0  startup_stm32f40_41xxx.o(RESET)
    __main                                   0x08000189   Thumb Code     8  __main.o(!!!main)
    __scatterload                            0x08000191   Thumb Code     0  __scatter.o(!!!scatter)
    __scatterload_rt2                        0x08000191   Thumb Code    44  __scatter.o(!!!scatter)
    __scatterload_rt2_thumb_only             0x08000191   Thumb Code     0  __scatter.o(!!!scatter)
    __scatterload_null                       0x0800019f   Thumb Code     0  __scatter.o(!!!scatter)
    __decompress                             0x080001c5   Thumb Code   100  __dclz77c.o(!!dclz77c)
    __decompress2                            0x080001c5   Thumb Code     0  __dclz77c.o(!!dclz77c)
    __scatterload_zeroinit                   0x08000229   Thumb Code    28  __scatter_zi.o(!!handler_zi)
    _printf_f                                0x08000245   Thumb Code     0  _printf_f.o(.ARM.Collect$$_printf_percent$$00000003)
    _printf_percent                          0x08000245   Thumb Code     0  _printf_percent.o(.ARM.Collect$$_printf_percent$$00000000)
    _printf_d                                0x0800024b   Thumb Code     0  _printf_d.o(.ARM.Collect$$_printf_percent$$00000009)
    _printf_percent_end                      0x08000251   Thumb Code     0  _printf_percent_end.o(.ARM.Collect$$_printf_percent$$00000017)
    __rt_lib_init                            0x08000255   Thumb Code     0  libinit.o(.ARM.Collect$$libinit$$00000000)
    __rt_lib_init_fp_1                       0x08000257   Thumb Code     0  libinit2.o(.ARM.Collect$$libinit$$00000001)
    __rt_lib_init_heap_1                     0x0800025b   Thumb Code     0  libinit2.o(.ARM.Collect$$libinit$$0000000A)
    __rt_lib_init_lc_common                  0x0800025b   Thumb Code     0  libinit2.o(.ARM.Collect$$libinit$$0000000F)
    __rt_lib_init_preinit_1                  0x0800025b   Thumb Code     0  libinit2.o(.ARM.Collect$$libinit$$00000004)
    __rt_lib_init_rand_1                     0x0800025b   Thumb Code     0  libinit2.o(.ARM.Collect$$libinit$$0000000E)
    __rt_lib_init_user_alloc_1               0x0800025b   Thumb Code     0  libinit2.o(.ARM.Collect$$libinit$$0000000C)
    __rt_lib_init_lc_collate_1               0x08000261   Thumb Code     0  libinit2.o(.ARM.Collect$$libinit$$00000011)
    __rt_lib_init_lc_ctype_1                 0x08000261   Thumb Code     0  libinit2.o(.ARM.Collect$$libinit$$00000013)
    __rt_lib_init_lc_monetary_1              0x08000261   Thumb Code     0  libinit2.o(.ARM.Collect$$libinit$$00000015)
    __rt_lib_init_lc_numeric_2               0x08000261   Thumb Code     0  libinit2.o(.ARM.Collect$$libinit$$00000016)
    __rt_lib_init_alloca_1                   0x0800026b   Thumb Code     0  libinit2.o(.ARM.Collect$$libinit$$0000002E)
    __rt_lib_init_argv_1                     0x0800026b   Thumb Code     0  libinit2.o(.ARM.Collect$$libinit$$0000002C)
    __rt_lib_init_atexit_1                   0x0800026b   Thumb Code     0  libinit2.o(.ARM.Collect$$libinit$$0000001B)
    __rt_lib_init_clock_1                    0x0800026b   Thumb Code     0  libinit2.o(.ARM.Collect$$libinit$$00000021)
    __rt_lib_init_cpp_1                      0x0800026b   Thumb Code     0  libinit2.o(.ARM.Collect$$libinit$$00000032)
    __rt_lib_init_exceptions_1               0x0800026b   Thumb Code     0  libinit2.o(.ARM.Collect$$libinit$$00000030)
    __rt_lib_init_fp_trap_1                  0x0800026b   Thumb Code     0  libinit2.o(.ARM.Collect$$libinit$$0000001F)
    __rt_lib_init_getenv_1                   0x0800026b   Thumb Code     0  libinit2.o(.ARM.Collect$$libinit$$00000023)
    __rt_lib_init_lc_numeric_1               0x0800026b   Thumb Code     0  libinit2.o(.ARM.Collect$$libinit$$00000017)
    __rt_lib_init_lc_time_1                  0x0800026b   Thumb Code     0  libinit2.o(.ARM.Collect$$libinit$$00000019)
    __rt_lib_init_return                     0x0800026b   Thumb Code     0  libinit2.o(.ARM.Collect$$libinit$$00000033)
    __rt_lib_init_signal_1                   0x0800026b   Thumb Code     0  libinit2.o(.ARM.Collect$$libinit$$0000001D)
    __rt_lib_init_stdio_1                    0x0800026b   Thumb Code     0  libinit2.o(.ARM.Collect$$libinit$$00000025)
    __rt_lib_shutdown                        0x0800026d   Thumb Code     0  libshutdown.o(.ARM.Collect$$libshutdown$$00000000)
    __rt_lib_shutdown_cpp_1                  0x0800026f   Thumb Code     0  libshutdown2.o(.ARM.Collect$$libshutdown$$00000002)
    __rt_lib_shutdown_fp_trap_1              0x0800026f   Thumb Code     0  libshutdown2.o(.ARM.Collect$$libshutdown$$00000007)
    __rt_lib_shutdown_heap_1                 0x0800026f   Thumb Code     0  libshutdown2.o(.ARM.Collect$$libshutdown$$0000000F)
    __rt_lib_shutdown_return                 0x0800026f   Thumb Code     0  libshutdown2.o(.ARM.Collect$$libshutdown$$00000010)
    __rt_lib_shutdown_signal_1               0x0800026f   Thumb Code     0  libshutdown2.o(.ARM.Collect$$libshutdown$$0000000A)
    __rt_lib_shutdown_stdio_1                0x0800026f   Thumb Code     0  libshutdown2.o(.ARM.Collect$$libshutdown$$00000004)
    __rt_lib_shutdown_user_alloc_1           0x0800026f   Thumb Code     0  libshutdown2.o(.ARM.Collect$$libshutdown$$0000000C)
    __rt_entry                               0x08000271   Thumb Code     0  __rtentry.o(.ARM.Collect$$rtentry$$00000000)
    __rt_entry_presh_1                       0x08000271   Thumb Code     0  __rtentry2.o(.ARM.Collect$$rtentry$$00000002)
    __rt_entry_sh                            0x08000271   Thumb Code     0  __rtentry4.o(.ARM.Collect$$rtentry$$00000004)
    __rt_entry_li                            0x08000277   Thumb Code     0  __rtentry2.o(.ARM.Collect$$rtentry$$0000000A)
    __rt_entry_postsh_1                      0x08000277   Thumb Code     0  __rtentry2.o(.ARM.Collect$$rtentry$$00000009)
    __rt_entry_main                          0x0800027b   Thumb Code     0  __rtentry2.o(.ARM.Collect$$rtentry$$0000000D)
    __rt_entry_postli_1                      0x0800027b   Thumb Code     0  __rtentry2.o(.ARM.Collect$$rtentry$$0000000C)
    __rt_exit                                0x08000283   Thumb Code     0  rtexit.o(.ARM.Collect$$rtexit$$00000000)
    __rt_exit_ls                             0x08000285   Thumb Code     0  rtexit2.o(.ARM.Collect$$rtexit$$00000003)
    __rt_exit_prels_1                        0x08000285   Thumb Code     0  rtexit2.o(.ARM.Collect$$rtexit$$00000002)
    __rt_exit_exit                           0x08000289   Thumb Code     0  rtexit2.o(.ARM.Collect$$rtexit$$00000004)
    main                                     0x08000291   Thumb Code    74  main.o(.text)
    KEY_Init                                 0x080002ed   Thumb Code    60  key.o(.text)
    KEY_Scan                                 0x08000329   Thumb Code   150  key.o(.text)
    Adc_Init                                 0x080003d5   Thumb Code   142  adc.o(.text)
    Get_Adc                                  0x08000463   Thumb Code    44  adc.o(.text)
    Get_Adc_Average                          0x0800048f   Thumb Code    46  adc.o(.text)
    Get_Temprate                             0x080004bd   Thumb Code   140  adc.o(.text)
    Get_Battery                              0x08000549   Thumb Code    80  adc.o(.text)
    SPI1_ReadWriteByte                       0x080005d5   Thumb Code    50  spi.o(.text)
    SPI1_Init                                0x08000607   Thumb Code   184  spi.o(.text)
    SPI2_init                                0x080006bf   Thumb Code   162  spi.o(.text)
    SPI1_SetSpeed                            0x08000761   Thumb Code    36  spi.o(.text)
    SPI2_RW                                  0x08000785   Thumb Code    50  spi.o(.text)
    _sys_exit                                0x080007c5   Thumb Code     4  usart.o(.text)
    fputc                                    0x080007c9   Thumb Code    22  usart.o(.text)
    uart_init                                0x080007df   Thumb Code   164  usart.o(.text)
    USART1_IRQHandler                        0x08000883   Thumb Code    40  usart.o(.text)
    uart2_init                               0x080008ab   Thumb Code   162  usart.o(.text)
    PrintHexU8                               0x0800094d   Thumb Code    20  usart.o(.text)
    PrintHexU16                              0x08000961   Thumb Code    20  usart.o(.text)
    PrintHexS16                              0x08000975   Thumb Code    20  usart.o(.text)
    PrintS8                                  0x08000989   Thumb Code    96  usart.o(.text)
    PrintU8                                  0x080009e9   Thumb Code    74  usart.o(.text)
    PrintS16                                 0x08000a33   Thumb Code   166  usart.o(.text)
    PrintU16                                 0x08000ad9   Thumb Code   150  usart.o(.text)
    PrintString                              0x08000b6f   Thumb Code    24  usart.o(.text)
    Send_Senser                              0x08000b87   Thumb Code   144  usart.o(.text)
    USART2_IRQHandler                        0x08000c17   Thumb Code   238  usart.o(.text)
    usart3_init                              0x08000d05   Thumb Code   166  usart.o(.text)
    USART3_IRQHandler                        0x08000dab   Thumb Code   120  usart.o(.text)
    delay_init                               0x08000e4d   Thumb Code    52  delay.o(.text)
    delay_us                                 0x08000e81   Thumb Code    72  delay.o(.text)
    delay_xms                                0x08000ec9   Thumb Code    72  delay.o(.text)
    delay_ms                                 0x08000f11   Thumb Code    56  delay.o(.text)
    TIM8_PWM_Init                            0x08000f51   Thumb Code   276  pwm.o(.text)
    DF_Pwm_Deal                              0x08001065   Thumb Code   424  pwm.o(.text)
    TIM2_EncoderInit                         0x0800122d   Thumb Code   178  encoder.o(.text)
    TIM3_EncoderInit                         0x080012df   Thumb Code   154  encoder.o(.text)
    TIM4_EncoderInit                         0x08001379   Thumb Code   180  encoder.o(.text)
    TIM5_EncoderInit                         0x0800142d   Thumb Code   154  encoder.o(.text)
    DF_Read_Encoder                          0x080014c7   Thumb Code   104  encoder.o(.text)
    STMFLASH_ReadWord                        0x08001545   Thumb Code     6  flash.o(.text)
    STMFLASH_GetFlashSector                  0x0800154b   Thumb Code   116  flash.o(.text)
    STMFLASH_Write                           0x080015bf   Thumb Code   146  flash.o(.text)
    STMFLASH_Read                            0x08001651   Thumb Code    32  flash.o(.text)
    STMFlash_Write                           0x08001671   Thumb Code   150  flash.o(.text)
    STMFlash_Read                            0x08001707   Thumb Code     8  flash.o(.text)
    Write_Acc_Data                           0x0800170f   Thumb Code   186  flash.o(.text)
    Read_Acc_Data                            0x080017c9   Thumb Code   174  flash.o(.text)
    LED_Init                                 0x08001ab5   Thumb Code    88  led.o(.text)
    DF_Motor_Gpio_Init                       0x08001b0d   Thumb Code    48  led.o(.text)
    LED_Write_Byte                           0x08001b3d   Thumb Code    88  led.o(.text)
    LED_Reset                                0x08001b95   Thumb Code    64  led.o(.text)
    LED_Set                                  0x08001bd5   Thumb Code    70  led.o(.text)
    DF_Close_Gun                             0x08001c1b   Thumb Code    60  led.o(.text)
    TIM6_Int_Init                            0x08001c69   Thumb Code    96  df_task_time.o(.text)
    TIM6_DAC_IRQHandler                      0x08001cc9   Thumb Code   156  df_task_time.o(.text)
    PS2_Cmd                                  0x08001d99   Thumb Code   130  df_ps2.o(.text)
    PS2_ExitConfing                          0x08001e1b   Thumb Code    86  df_ps2.o(.text)
    PS2_VibrationMode                        0x08001e71   Thumb Code    62  df_ps2.o(.text)
    PS2_TurnOnAnalogMode                     0x08001eaf   Thumb Code    80  df_ps2.o(.text)
    PS2_EnterConfing                         0x08001eff   Thumb Code    86  df_ps2.o(.text)
    PS2_ShortPoll                            0x08001f55   Thumb Code    62  df_ps2.o(.text)
    PS2_SetInit                              0x08001f93   Thumb Code    32  df_ps2.o(.text)
    PS2_Init                                 0x08001fb3   Thumb Code    94  df_ps2.o(.text)
    PS2_RedLight                             0x08002011   Thumb Code    50  df_ps2.o(.text)
    PS2_ReadData                             0x08002043   Thumb Code   168  df_ps2.o(.text)
    PS2_ClearData                            0x080020eb   Thumb Code    20  df_ps2.o(.text)
    PS2_DataKey                              0x080020ff   Thumb Code    70  df_ps2.o(.text)
    PS2_AnologData                           0x08002145   Thumb Code     8  df_ps2.o(.text)
    PS2_Vibration                            0x0800214d   Thumb Code   120  df_ps2.o(.text)
    PS2_Receive                              0x080021c5   Thumb Code   410  df_ps2.o(.text)
    DF_getAndroidCtrl                        0x08002385   Thumb Code   294  df_android.o(.text)
    DF_getAndroidKey                         0x080024ab   Thumb Code    12  df_android.o(.text)
    DF_getAndroidLX                          0x080024b7   Thumb Code    12  df_android.o(.text)
    DF_getAndroidLY                          0x080024c3   Thumb Code    12  df_android.o(.text)
    DF_getAndroidRX                          0x080024cf   Thumb Code    12  df_android.o(.text)
    DF_getAndroidRY                          0x080024db   Thumb Code    12  df_android.o(.text)
    safeRemote                               0x080024e7   Thumb Code   100  df_android.o(.text)
    uartDeBug                                0x0800254b   Thumb Code   236  df_android.o(.text)
    debug                                    0x08002637   Thumb Code   170  df_android.o(.text)
    Usart3_Put_Buf                           0x080026e1   Thumb Code    44  df_android.o(.text)
    getFloat                                 0x0800270d   Thumb Code     8  df_android.o(.text)
    DF_sendAttitudeToPhone                   0x08002715   Thumb Code    52  df_android.o(.text)
    DF_send_Val                              0x08002749   Thumb Code   424  df_android.o(.text)
    IIRLowPass                               0x080028f5   Thumb Code   338  df_fiter.o(.text)
    GROY_IIR_Filter                          0x08002a47   Thumb Code    78  df_fiter.o(.text)
    ACC_IIR_Filter                           0x08002a95   Thumb Code    78  df_fiter.o(.text)
    Get_Radian                               0x08002ae3   Thumb Code    74  df_fiter.o(.text)
    icm20602_write                           0x08002b49   Thumb Code    36  df_fly.o(.text)
    icm20602_read                            0x08002b6d   Thumb Code    38  df_fly.o(.text)
    icm20602_read_nbyte                      0x08002b93   Thumb Code    52  df_fly.o(.text)
    ICM20602_rest                            0x08002bc7   Thumb Code    18  df_fly.o(.text)
    ICM20602_Init                            0x08002bd9   Thumb Code   158  df_fly.o(.text)
    ICM20602_Offset                          0x08002c77   Thumb Code   512  df_fly.o(.text)
    ICM20602_Updata_get                      0x08002e77   Thumb Code   172  df_fly.o(.text)
    icm20602_get_temp                        0x08002f23   Thumb Code   302  df_fly.o(.text)
    OLED_Wr_Byte                             0x08003055   Thumb Code   108  df_oled.o(.text)
    OLED_Set_Position                        0x080030c1   Thumb Code    46  df_oled.o(.text)
    OLED_ON                                  0x080030ef   Thumb Code    28  df_oled.o(.text)
    OLED_OFF                                 0x0800310b   Thumb Code    28  df_oled.o(.text)
    OLED_Clear                               0x08003127   Thumb Code    64  df_oled.o(.text)
    OLED_Clear_Block                         0x08003167   Thumb Code    54  df_oled.o(.text)
    OLED_Clear_Block_T                       0x0800319d   Thumb Code    56  df_oled.o(.text)
    OLED_Clear_                              0x080031d5   Thumb Code    78  df_oled.o(.text)
    OLED_Clear_Line                          0x08003223   Thumb Code    68  df_oled.o(.text)
    Show_JPG                                 0x08003267   Thumb Code    98  df_oled.o(.text)
    Show_Start_Moive                         0x080032c9   Thumb Code    32  df_oled.o(.text)
    OLED_Show                                0x080032e9   Thumb Code    98  df_oled.o(.text)
    OLED_ShowChar                            0x0800334b   Thumb Code   106  df_oled.o(.text)
    Show_String                              0x080033b5   Thumb Code    72  df_oled.o(.text)
    oled_pow                                 0x080033fd   Thumb Code    22  df_oled.o(.text)
    OLED_ShowNum                             0x08003413   Thumb Code   152  df_oled.o(.text)
    OLED_ShowNums                            0x080034ab   Thumb Code   422  df_oled.o(.text)
    Page_Show                                0x08003651   Thumb Code   348  df_oled.o(.text)
    OLED_Init                                0x080037ad   Thumb Code   350  df_oled.o(.text)
    show_pic                                 0x0800390b   Thumb Code   154  df_oled.o(.text)
    show_pic_pingyi                          0x080039a5   Thumb Code   166  df_oled.o(.text)
    show_text                                0x08003a4b   Thumb Code    94  df_oled.o(.text)
    all_pic_change                           0x08003aa9   Thumb Code    92  df_oled.o(.text)
    DF_PID_Assignment                        0x08003b0d   Thumb Code   128  df_pid.o(.text)
    DF_PID_Init                              0x08003b8d   Thumb Code    36  df_pid.o(.text)
    DF_Position_PID_Speed                    0x08003bb1   Thumb Code   370  df_pid.o(.text)
    PS2_Receive_Analyse                      0x08003d45   Thumb Code   588  df_rc.o(.text)
    DF_oled_display_Init                     0x08003f91   Thumb Code    36  df_rc.o(.text)
    OLED_Val_Show                            0x08003fb5   Thumb Code   298  df_rc.o(.text)
    all_pic_down_select                      0x080040df   Thumb Code   322  df_rc.o(.text)
    all_pic_up_select                        0x08004221   Thumb Code   194  df_rc.o(.text)
    all_pic_up                               0x080042e3   Thumb Code   192  df_rc.o(.text)
    Page_word                                0x080043a3   Thumb Code   334  df_rc.o(.text)
    oled_pic_down                            0x080044f1   Thumb Code   240  df_rc.o(.text)
    oled_pic_up                              0x080045e1   Thumb Code   198  df_rc.o(.text)
    all_pic_down                             0x080046a7   Thumb Code   230  df_rc.o(.text)
    PS2_Sel                                  0x0800478d   Thumb Code  2222  df_rc.o(.text)
    PS2_Mode_Sel                             0x0800503b   Thumb Code   150  df_rc.o(.text)
    DF_invSqrt                               0x08005105   Thumb Code    56  df_motion_decom.o(.text)
    DF_Motion_Decom_Last                     0x0800513d   Thumb Code   402  df_motion_decom.o(.text)
    DF_Motion_Decom_Now                      0x080052cf   Thumb Code   150  df_motion_decom.o(.text)
    DF_Motion_Decom_Now_RC                   0x08005365   Thumb Code   146  df_motion_decom.o(.text)
    DF_Motion_New_Mode                       0x080053f7   Thumb Code   184  df_motion_decom.o(.text)
    DF_Pwm_Servo                             0x080054af   Thumb Code   536  df_motion_decom.o(.text)
    LOOP_100_HZ                              0x08005709   Thumb Code    10  df_loop.o(.text)
    LOOP_10_HZ                               0x08005713   Thumb Code    10  df_loop.o(.text)
    LOOP_2_HZ                                0x0800571d   Thumb Code   106  df_loop.o(.text)
    PID_Pos_Calculate                        0x08005799   Thumb Code   224  df_move.o(.text)
    IMUupdate                                0x080058b5   Thumb Code  1100  df_imu.o(.text)
    Get_Eulerian_Angle                       0x08005d01   Thumb Code   296  df_imu.o(.text)
    DF_Attitude_Sensor_Health_Attitude_Calculation 0x08005e29   Thumb Code   100  df_imu.o(.text)
    get_information                          0x08005eb1   Thumb Code   108  df_struct.o(.text)
    key_key                                  0x08005f1d   Thumb Code    64  df_struct.o(.text)
    BSP                                      0x08005f5d   Thumb Code   120  df_struct.o(.text)
    invSqrt                                  0x08005fd5   Thumb Code    56  df_struct.o(.text)
    Reset_Handler                            0x0800607d   Thumb Code     8  startup_stm32f40_41xxx.o(.text)
    ADC_IRQHandler                           0x08006097   Thumb Code     0  startup_stm32f40_41xxx.o(.text)
    CAN1_RX0_IRQHandler                      0x08006097   Thumb Code     0  startup_stm32f40_41xxx.o(.text)
    CAN1_RX1_IRQHandler                      0x08006097   Thumb Code     0  startup_stm32f40_41xxx.o(.text)
    CAN1_SCE_IRQHandler                      0x08006097   Thumb Code     0  startup_stm32f40_41xxx.o(.text)
    CAN1_TX_IRQHandler                       0x08006097   Thumb Code     0  startup_stm32f40_41xxx.o(.text)
    CAN2_RX0_IRQHandler                      0x08006097   Thumb Code     0  startup_stm32f40_41xxx.o(.text)
    CAN2_RX1_IRQHandler                      0x08006097   Thumb Code     0  startup_stm32f40_41xxx.o(.text)
    CAN2_SCE_IRQHandler                      0x08006097   Thumb Code     0  startup_stm32f40_41xxx.o(.text)
    CAN2_TX_IRQHandler                       0x08006097   Thumb Code     0  startup_stm32f40_41xxx.o(.text)
    CRYP_IRQHandler                          0x08006097   Thumb Code     0  startup_stm32f40_41xxx.o(.text)
    DCMI_IRQHandler                          0x08006097   Thumb Code     0  startup_stm32f40_41xxx.o(.text)
    DMA1_Stream0_IRQHandler                  0x08006097   Thumb Code     0  startup_stm32f40_41xxx.o(.text)
    DMA1_Stream1_IRQHandler                  0x08006097   Thumb Code     0  startup_stm32f40_41xxx.o(.text)
    DMA1_Stream2_IRQHandler                  0x08006097   Thumb Code     0  startup_stm32f40_41xxx.o(.text)
    DMA1_Stream3_IRQHandler                  0x08006097   Thumb Code     0  startup_stm32f40_41xxx.o(.text)
    DMA1_Stream4_IRQHandler                  0x08006097   Thumb Code     0  startup_stm32f40_41xxx.o(.text)
    DMA1_Stream5_IRQHandler                  0x08006097   Thumb Code     0  startup_stm32f40_41xxx.o(.text)
    DMA1_Stream6_IRQHandler                  0x08006097   Thumb Code     0  startup_stm32f40_41xxx.o(.text)
    DMA1_Stream7_IRQHandler                  0x08006097   Thumb Code     0  startup_stm32f40_41xxx.o(.text)
    DMA2_Stream0_IRQHandler                  0x08006097   Thumb Code     0  startup_stm32f40_41xxx.o(.text)
    DMA2_Stream1_IRQHandler                  0x08006097   Thumb Code     0  startup_stm32f40_41xxx.o(.text)
    DMA2_Stream2_IRQHandler                  0x08006097   Thumb Code     0  startup_stm32f40_41xxx.o(.text)
    DMA2_Stream3_IRQHandler                  0x08006097   Thumb Code     0  startup_stm32f40_41xxx.o(.text)
    DMA2_Stream4_IRQHandler                  0x08006097   Thumb Code     0  startup_stm32f40_41xxx.o(.text)
    DMA2_Stream5_IRQHandler                  0x08006097   Thumb Code     0  startup_stm32f40_41xxx.o(.text)
    DMA2_Stream6_IRQHandler                  0x08006097   Thumb Code     0  startup_stm32f40_41xxx.o(.text)
    DMA2_Stream7_IRQHandler                  0x08006097   Thumb Code     0  startup_stm32f40_41xxx.o(.text)
    ETH_IRQHandler                           0x08006097   Thumb Code     0  startup_stm32f40_41xxx.o(.text)
    ETH_WKUP_IRQHandler                      0x08006097   Thumb Code     0  startup_stm32f40_41xxx.o(.text)
    EXTI0_IRQHandler                         0x08006097   Thumb Code     0  startup_stm32f40_41xxx.o(.text)
    EXTI15_10_IRQHandler                     0x08006097   Thumb Code     0  startup_stm32f40_41xxx.o(.text)
    EXTI1_IRQHandler                         0x08006097   Thumb Code     0  startup_stm32f40_41xxx.o(.text)
    EXTI2_IRQHandler                         0x08006097   Thumb Code     0  startup_stm32f40_41xxx.o(.text)
    EXTI3_IRQHandler                         0x08006097   Thumb Code     0  startup_stm32f40_41xxx.o(.text)
    EXTI4_IRQHandler                         0x08006097   Thumb Code     0  startup_stm32f40_41xxx.o(.text)
    EXTI9_5_IRQHandler                       0x08006097   Thumb Code     0  startup_stm32f40_41xxx.o(.text)
    FLASH_IRQHandler                         0x08006097   Thumb Code     0  startup_stm32f40_41xxx.o(.text)
    FPU_IRQHandler                           0x08006097   Thumb Code     0  startup_stm32f40_41xxx.o(.text)
    FSMC_IRQHandler                          0x08006097   Thumb Code     0  startup_stm32f40_41xxx.o(.text)
    HASH_RNG_IRQHandler                      0x08006097   Thumb Code     0  startup_stm32f40_41xxx.o(.text)
    I2C1_ER_IRQHandler                       0x08006097   Thumb Code     0  startup_stm32f40_41xxx.o(.text)
    I2C1_EV_IRQHandler                       0x08006097   Thumb Code     0  startup_stm32f40_41xxx.o(.text)
    I2C2_ER_IRQHandler                       0x08006097   Thumb Code     0  startup_stm32f40_41xxx.o(.text)
    I2C2_EV_IRQHandler                       0x08006097   Thumb Code     0  startup_stm32f40_41xxx.o(.text)
    I2C3_ER_IRQHandler                       0x08006097   Thumb Code     0  startup_stm32f40_41xxx.o(.text)
    I2C3_EV_IRQHandler                       0x08006097   Thumb Code     0  startup_stm32f40_41xxx.o(.text)
    OTG_FS_IRQHandler                        0x08006097   Thumb Code     0  startup_stm32f40_41xxx.o(.text)
    OTG_FS_WKUP_IRQHandler                   0x08006097   Thumb Code     0  startup_stm32f40_41xxx.o(.text)
    OTG_HS_EP1_IN_IRQHandler                 0x08006097   Thumb Code     0  startup_stm32f40_41xxx.o(.text)
    OTG_HS_EP1_OUT_IRQHandler                0x08006097   Thumb Code     0  startup_stm32f40_41xxx.o(.text)
    OTG_HS_IRQHandler                        0x08006097   Thumb Code     0  startup_stm32f40_41xxx.o(.text)
    OTG_HS_WKUP_IRQHandler                   0x08006097   Thumb Code     0  startup_stm32f40_41xxx.o(.text)
    PVD_IRQHandler                           0x08006097   Thumb Code     0  startup_stm32f40_41xxx.o(.text)
    RCC_IRQHandler                           0x08006097   Thumb Code     0  startup_stm32f40_41xxx.o(.text)
    RTC_Alarm_IRQHandler                     0x08006097   Thumb Code     0  startup_stm32f40_41xxx.o(.text)
    RTC_WKUP_IRQHandler                      0x08006097   Thumb Code     0  startup_stm32f40_41xxx.o(.text)
    SDIO_IRQHandler                          0x08006097   Thumb Code     0  startup_stm32f40_41xxx.o(.text)
    SPI1_IRQHandler                          0x08006097   Thumb Code     0  startup_stm32f40_41xxx.o(.text)
    SPI2_IRQHandler                          0x08006097   Thumb Code     0  startup_stm32f40_41xxx.o(.text)
    SPI3_IRQHandler                          0x08006097   Thumb Code     0  startup_stm32f40_41xxx.o(.text)
    TAMP_STAMP_IRQHandler                    0x08006097   Thumb Code     0  startup_stm32f40_41xxx.o(.text)
    TIM1_BRK_TIM9_IRQHandler                 0x08006097   Thumb Code     0  startup_stm32f40_41xxx.o(.text)
    TIM1_CC_IRQHandler                       0x08006097   Thumb Code     0  startup_stm32f40_41xxx.o(.text)
    TIM1_TRG_COM_TIM11_IRQHandler            0x08006097   Thumb Code     0  startup_stm32f40_41xxx.o(.text)
    TIM1_UP_TIM10_IRQHandler                 0x08006097   Thumb Code     0  startup_stm32f40_41xxx.o(.text)
    TIM2_IRQHandler                          0x08006097   Thumb Code     0  startup_stm32f40_41xxx.o(.text)
    TIM3_IRQHandler                          0x08006097   Thumb Code     0  startup_stm32f40_41xxx.o(.text)
    TIM4_IRQHandler                          0x08006097   Thumb Code     0  startup_stm32f40_41xxx.o(.text)
    TIM5_IRQHandler                          0x08006097   Thumb Code     0  startup_stm32f40_41xxx.o(.text)
    TIM7_IRQHandler                          0x08006097   Thumb Code     0  startup_stm32f40_41xxx.o(.text)
    TIM8_BRK_TIM12_IRQHandler                0x08006097   Thumb Code     0  startup_stm32f40_41xxx.o(.text)
    TIM8_CC_IRQHandler                       0x08006097   Thumb Code     0  startup_stm32f40_41xxx.o(.text)
    TIM8_TRG_COM_TIM14_IRQHandler            0x08006097   Thumb Code     0  startup_stm32f40_41xxx.o(.text)
    TIM8_UP_TIM13_IRQHandler                 0x08006097   Thumb Code     0  startup_stm32f40_41xxx.o(.text)
    UART4_IRQHandler                         0x08006097   Thumb Code     0  startup_stm32f40_41xxx.o(.text)
    UART5_IRQHandler                         0x08006097   Thumb Code     0  startup_stm32f40_41xxx.o(.text)
    USART6_IRQHandler                        0x08006097   Thumb Code     0  startup_stm32f40_41xxx.o(.text)
    WWDG_IRQHandler                          0x08006097   Thumb Code     0  startup_stm32f40_41xxx.o(.text)
    __user_initial_stackheap                 0x08006099   Thumb Code     0  startup_stm32f40_41xxx.o(.text)
    NVIC_PriorityGroupConfig                 0x080060bd   Thumb Code    10  misc.o(.text)
    NVIC_Init                                0x080060c7   Thumb Code   106  misc.o(.text)
    NVIC_SetVectorTable                      0x08006131   Thumb Code    14  misc.o(.text)
    NVIC_SystemLPConfig                      0x0800613f   Thumb Code    34  misc.o(.text)
    SysTick_CLKSourceConfig                  0x08006161   Thumb Code    40  misc.o(.text)
    ADC_DeInit                               0x0800619d   Thumb Code    22  stm32f4xx_adc.o(.text)
    ADC_Init                                 0x080061b3   Thumb Code    74  stm32f4xx_adc.o(.text)
    ADC_StructInit                           0x080061fd   Thumb Code    20  stm32f4xx_adc.o(.text)
    ADC_CommonInit                           0x08006211   Thumb Code    34  stm32f4xx_adc.o(.text)
    ADC_CommonStructInit                     0x08006233   Thumb Code    12  stm32f4xx_adc.o(.text)
    ADC_Cmd                                  0x0800623f   Thumb Code    22  stm32f4xx_adc.o(.text)
    ADC_AnalogWatchdogCmd                    0x08006255   Thumb Code    16  stm32f4xx_adc.o(.text)
    ADC_AnalogWatchdogThresholdsConfig       0x08006265   Thumb Code     6  stm32f4xx_adc.o(.text)
    ADC_AnalogWatchdogSingleChannelConfig    0x0800626b   Thumb Code    16  stm32f4xx_adc.o(.text)
    ADC_TempSensorVrefintCmd                 0x0800627b   Thumb Code    34  stm32f4xx_adc.o(.text)
    ADC_VBATCmd                              0x0800629d   Thumb Code    34  stm32f4xx_adc.o(.text)
    ADC_RegularChannelConfig                 0x080062bf   Thumb Code   184  stm32f4xx_adc.o(.text)
    ADC_SoftwareStartConv                    0x08006377   Thumb Code    10  stm32f4xx_adc.o(.text)
    ADC_GetSoftwareStartConvStatus           0x08006381   Thumb Code    20  stm32f4xx_adc.o(.text)
    ADC_EOCOnEachRegularChannelCmd           0x08006395   Thumb Code    22  stm32f4xx_adc.o(.text)
    ADC_ContinuousModeCmd                    0x080063ab   Thumb Code    22  stm32f4xx_adc.o(.text)
    ADC_DiscModeChannelCountConfig           0x080063c1   Thumb Code    24  stm32f4xx_adc.o(.text)
    ADC_DiscModeCmd                          0x080063d9   Thumb Code    22  stm32f4xx_adc.o(.text)
    ADC_GetConversionValue                   0x080063ef   Thumb Code     8  stm32f4xx_adc.o(.text)
    ADC_GetMultiModeConversionValue          0x080063f7   Thumb Code     8  stm32f4xx_adc.o(.text)
    ADC_DMACmd                               0x080063ff   Thumb Code    22  stm32f4xx_adc.o(.text)
    ADC_DMARequestAfterLastTransferCmd       0x08006415   Thumb Code    22  stm32f4xx_adc.o(.text)
    ADC_MultiModeDMARequestAfterLastTransferCmd 0x0800642b   Thumb Code    34  stm32f4xx_adc.o(.text)
    ADC_InjectedChannelConfig                0x0800644d   Thumb Code   130  stm32f4xx_adc.o(.text)
    ADC_InjectedSequencerLengthConfig        0x080064cf   Thumb Code    24  stm32f4xx_adc.o(.text)
    ADC_SetInjectedOffset                    0x080064e7   Thumb Code    20  stm32f4xx_adc.o(.text)
    ADC_ExternalTrigInjectedConvConfig       0x080064fb   Thumb Code    16  stm32f4xx_adc.o(.text)
    ADC_ExternalTrigInjectedConvEdgeConfig   0x0800650b   Thumb Code    16  stm32f4xx_adc.o(.text)
    ADC_SoftwareStartInjectedConv            0x0800651b   Thumb Code    10  stm32f4xx_adc.o(.text)
    ADC_GetSoftwareStartInjectedConvCmdStatus 0x08006525   Thumb Code    20  stm32f4xx_adc.o(.text)
    ADC_AutoInjectedConvCmd                  0x08006539   Thumb Code    22  stm32f4xx_adc.o(.text)
    ADC_InjectedDiscModeCmd                  0x0800654f   Thumb Code    22  stm32f4xx_adc.o(.text)
    ADC_GetInjectedConversionValue           0x08006565   Thumb Code    28  stm32f4xx_adc.o(.text)
    ADC_ITConfig                             0x08006581   Thumb Code    56  stm32f4xx_adc.o(.text)
    ADC_GetFlagStatus                        0x080065b9   Thumb Code    18  stm32f4xx_adc.o(.text)
    ADC_ClearFlag                            0x080065cb   Thumb Code     6  stm32f4xx_adc.o(.text)
    ADC_GetITStatus                          0x080065d1   Thumb Code    38  stm32f4xx_adc.o(.text)
    ADC_ClearITPendingBit                    0x080065f7   Thumb Code    10  stm32f4xx_adc.o(.text)
    SPI_I2S_DeInit                           0x08006601   Thumb Code   152  stm32f4xx_spi.o(.text)
    SPI_Init                                 0x08006699   Thumb Code    60  stm32f4xx_spi.o(.text)
    I2S_Init                                 0x080066d5   Thumb Code   396  stm32f4xx_spi.o(.text)
    SPI_StructInit                           0x08006861   Thumb Code    24  stm32f4xx_spi.o(.text)
    I2S_StructInit                           0x08006879   Thumb Code    20  stm32f4xx_spi.o(.text)
    SPI_Cmd                                  0x0800688d   Thumb Code    24  stm32f4xx_spi.o(.text)
    I2S_Cmd                                  0x080068a5   Thumb Code    24  stm32f4xx_spi.o(.text)
    SPI_DataSizeConfig                       0x080068bd   Thumb Code    18  stm32f4xx_spi.o(.text)
    SPI_BiDirectionalLineConfig              0x080068cf   Thumb Code    28  stm32f4xx_spi.o(.text)
    SPI_NSSInternalSoftwareConfig            0x080068eb   Thumb Code    30  stm32f4xx_spi.o(.text)
    SPI_SSOutputCmd                          0x08006909   Thumb Code    24  stm32f4xx_spi.o(.text)
    SPI_TIModeCmd                            0x08006921   Thumb Code    24  stm32f4xx_spi.o(.text)
    I2S_FullDuplexConfig                     0x08006939   Thumb Code    80  stm32f4xx_spi.o(.text)
    SPI_I2S_ReceiveData                      0x08006989   Thumb Code     6  stm32f4xx_spi.o(.text)
    SPI_I2S_SendData                         0x0800698f   Thumb Code     4  stm32f4xx_spi.o(.text)
    SPI_CalculateCRC                         0x08006993   Thumb Code    24  stm32f4xx_spi.o(.text)
    SPI_TransmitCRC                          0x080069ab   Thumb Code    10  stm32f4xx_spi.o(.text)
    SPI_GetCRC                               0x080069b5   Thumb Code    16  stm32f4xx_spi.o(.text)
    SPI_GetCRCPolynomial                     0x080069c5   Thumb Code     6  stm32f4xx_spi.o(.text)
    SPI_I2S_DMACmd                           0x080069cb   Thumb Code    18  stm32f4xx_spi.o(.text)
    SPI_I2S_ITConfig                         0x080069dd   Thumb Code    68  stm32f4xx_spi.o(.text)
    SPI_I2S_GetFlagStatus                    0x08006a21   Thumb Code    18  stm32f4xx_spi.o(.text)
    SPI_I2S_ClearFlag                        0x08006a33   Thumb Code     6  stm32f4xx_spi.o(.text)
    SPI_I2S_GetITStatus                      0x08006a39   Thumb Code    52  stm32f4xx_spi.o(.text)
    SPI_I2S_ClearITPendingBit                0x08006a6d   Thumb Code    20  stm32f4xx_spi.o(.text)
    TIM_DeInit                               0x08006a81   Thumb Code   346  stm32f4xx_tim.o(.text)
    TIM_TimeBaseInit                         0x08006bdb   Thumb Code   104  stm32f4xx_tim.o(.text)
    TIM_TimeBaseStructInit                   0x08006c43   Thumb Code    18  stm32f4xx_tim.o(.text)
    TIM_PrescalerConfig                      0x08006c55   Thumb Code     6  stm32f4xx_tim.o(.text)
    TIM_CounterModeConfig                    0x08006c5b   Thumb Code    18  stm32f4xx_tim.o(.text)
    TIM_SetCounter                           0x08006c6d   Thumb Code     4  stm32f4xx_tim.o(.text)
    TIM_SetAutoreload                        0x08006c71   Thumb Code     4  stm32f4xx_tim.o(.text)
    TIM_GetCounter                           0x08006c75   Thumb Code     6  stm32f4xx_tim.o(.text)
    TIM_GetPrescaler                         0x08006c7b   Thumb Code     6  stm32f4xx_tim.o(.text)
    TIM_UpdateDisableConfig                  0x08006c81   Thumb Code    24  stm32f4xx_tim.o(.text)
    TIM_UpdateRequestConfig                  0x08006c99   Thumb Code    24  stm32f4xx_tim.o(.text)
    TIM_ARRPreloadConfig                     0x08006cb1   Thumb Code    24  stm32f4xx_tim.o(.text)
    TIM_SelectOnePulseMode                   0x08006cc9   Thumb Code    18  stm32f4xx_tim.o(.text)
    TIM_SetClockDivision                     0x08006cdb   Thumb Code    18  stm32f4xx_tim.o(.text)
    TIM_Cmd                                  0x08006ced   Thumb Code    24  stm32f4xx_tim.o(.text)
    TIM_OC1Init                              0x08006d05   Thumb Code   114  stm32f4xx_tim.o(.text)
    TIM_OC2Init                              0x08006d77   Thumb Code   154  stm32f4xx_tim.o(.text)
    TIM_OC3Init                              0x08006e11   Thumb Code   204  stm32f4xx_tim.o(.text)
    TIM_OC4Init                              0x08006edd   Thumb Code   112  stm32f4xx_tim.o(.text)
    TIM_OCStructInit                         0x08006f4d   Thumb Code    20  stm32f4xx_tim.o(.text)
    TIM_SelectOCxM                           0x08006f61   Thumb Code    86  stm32f4xx_tim.o(.text)
    TIM_SetCompare1                          0x08006fb7   Thumb Code     4  stm32f4xx_tim.o(.text)
    TIM_SetCompare2                          0x08006fbb   Thumb Code     4  stm32f4xx_tim.o(.text)
    TIM_SetCompare3                          0x08006fbf   Thumb Code     4  stm32f4xx_tim.o(.text)
    TIM_SetCompare4                          0x08006fc3   Thumb Code     4  stm32f4xx_tim.o(.text)
    TIM_ForcedOC1Config                      0x08006fc7   Thumb Code    18  stm32f4xx_tim.o(.text)
    TIM_ForcedOC2Config                      0x08006fd9   Thumb Code    26  stm32f4xx_tim.o(.text)
    TIM_ForcedOC3Config                      0x08006ff3   Thumb Code    18  stm32f4xx_tim.o(.text)
    TIM_ForcedOC4Config                      0x08007005   Thumb Code    26  stm32f4xx_tim.o(.text)
    TIM_OC1PreloadConfig                     0x0800701f   Thumb Code    18  stm32f4xx_tim.o(.text)
    TIM_OC2PreloadConfig                     0x08007031   Thumb Code    26  stm32f4xx_tim.o(.text)
    TIM_OC3PreloadConfig                     0x0800704b   Thumb Code    18  stm32f4xx_tim.o(.text)
    TIM_OC4PreloadConfig                     0x0800705d   Thumb Code    26  stm32f4xx_tim.o(.text)
    TIM_OC1FastConfig                        0x08007077   Thumb Code    18  stm32f4xx_tim.o(.text)
    TIM_OC2FastConfig                        0x08007089   Thumb Code    26  stm32f4xx_tim.o(.text)
    TIM_OC3FastConfig                        0x080070a3   Thumb Code    18  stm32f4xx_tim.o(.text)
    TIM_OC4FastConfig                        0x080070b5   Thumb Code    26  stm32f4xx_tim.o(.text)
    TIM_ClearOC1Ref                          0x080070cf   Thumb Code    18  stm32f4xx_tim.o(.text)
    TIM_ClearOC2Ref                          0x080070e1   Thumb Code    24  stm32f4xx_tim.o(.text)
    TIM_ClearOC3Ref                          0x080070f9   Thumb Code    18  stm32f4xx_tim.o(.text)
    TIM_ClearOC4Ref                          0x0800710b   Thumb Code    24  stm32f4xx_tim.o(.text)
    TIM_OC1PolarityConfig                    0x08007123   Thumb Code    18  stm32f4xx_tim.o(.text)
    TIM_OC1NPolarityConfig                   0x08007135   Thumb Code    18  stm32f4xx_tim.o(.text)
    TIM_OC2PolarityConfig                    0x08007147   Thumb Code    26  stm32f4xx_tim.o(.text)
    TIM_OC2NPolarityConfig                   0x08007161   Thumb Code    26  stm32f4xx_tim.o(.text)
    TIM_OC3PolarityConfig                    0x0800717b   Thumb Code    26  stm32f4xx_tim.o(.text)
    TIM_OC3NPolarityConfig                   0x08007195   Thumb Code    26  stm32f4xx_tim.o(.text)
    TIM_OC4PolarityConfig                    0x080071af   Thumb Code    26  stm32f4xx_tim.o(.text)
    TIM_CCxCmd                               0x080071c9   Thumb Code    30  stm32f4xx_tim.o(.text)
    TIM_CCxNCmd                              0x080071e7   Thumb Code    30  stm32f4xx_tim.o(.text)
    TIM_SetIC4Prescaler                      0x08007205   Thumb Code    26  stm32f4xx_tim.o(.text)
    TIM_SetIC3Prescaler                      0x0800726f   Thumb Code    18  stm32f4xx_tim.o(.text)
    TIM_SetIC2Prescaler                      0x080072c9   Thumb Code    26  stm32f4xx_tim.o(.text)
    TIM_SetIC1Prescaler                      0x0800733d   Thumb Code    18  stm32f4xx_tim.o(.text)
    TIM_ICInit                               0x08007389   Thumb Code   110  stm32f4xx_tim.o(.text)
    TIM_ICStructInit                         0x080073f7   Thumb Code    18  stm32f4xx_tim.o(.text)
    TIM_PWMIConfig                           0x08007409   Thumb Code   124  stm32f4xx_tim.o(.text)
    TIM_GetCapture1                          0x08007485   Thumb Code     6  stm32f4xx_tim.o(.text)
    TIM_GetCapture2                          0x0800748b   Thumb Code     6  stm32f4xx_tim.o(.text)
    TIM_GetCapture3                          0x08007491   Thumb Code     6  stm32f4xx_tim.o(.text)
    TIM_GetCapture4                          0x08007497   Thumb Code     6  stm32f4xx_tim.o(.text)
    TIM_BDTRConfig                           0x0800749d   Thumb Code    32  stm32f4xx_tim.o(.text)
    TIM_BDTRStructInit                       0x080074bd   Thumb Code    18  stm32f4xx_tim.o(.text)
    TIM_CtrlPWMOutputs                       0x080074cf   Thumb Code    30  stm32f4xx_tim.o(.text)
    TIM_SelectCOM                            0x080074ed   Thumb Code    24  stm32f4xx_tim.o(.text)
    TIM_CCPreloadControl                     0x08007505   Thumb Code    24  stm32f4xx_tim.o(.text)
    TIM_ITConfig                             0x0800751d   Thumb Code    18  stm32f4xx_tim.o(.text)
    TIM_GenerateEvent                        0x0800752f   Thumb Code     4  stm32f4xx_tim.o(.text)
    TIM_GetFlagStatus                        0x08007533   Thumb Code    18  stm32f4xx_tim.o(.text)
    TIM_ClearFlag                            0x08007545   Thumb Code     6  stm32f4xx_tim.o(.text)
    TIM_GetITStatus                          0x0800754b   Thumb Code    34  stm32f4xx_tim.o(.text)
    TIM_ClearITPendingBit                    0x0800756d   Thumb Code     6  stm32f4xx_tim.o(.text)
    TIM_DMAConfig                            0x08007573   Thumb Code    10  stm32f4xx_tim.o(.text)
    TIM_DMACmd                               0x0800757d   Thumb Code    18  stm32f4xx_tim.o(.text)
    TIM_SelectCCDMA                          0x0800758f   Thumb Code    24  stm32f4xx_tim.o(.text)
    TIM_InternalClockConfig                  0x080075a7   Thumb Code    12  stm32f4xx_tim.o(.text)
    TIM_SelectInputTrigger                   0x080075b3   Thumb Code    18  stm32f4xx_tim.o(.text)
    TIM_ITRxExternalClockConfig              0x080075c5   Thumb Code    24  stm32f4xx_tim.o(.text)
    TIM_TIxExternalClockConfig               0x080075dd   Thumb Code    62  stm32f4xx_tim.o(.text)
    TIM_ETRConfig                            0x0800761b   Thumb Code    28  stm32f4xx_tim.o(.text)
    TIM_ETRClockMode1Config                  0x08007637   Thumb Code    54  stm32f4xx_tim.o(.text)
    TIM_ETRClockMode2Config                  0x0800766d   Thumb Code    32  stm32f4xx_tim.o(.text)
    TIM_SelectOutputTrigger                  0x0800768d   Thumb Code    18  stm32f4xx_tim.o(.text)
    TIM_SelectSlaveMode                      0x0800769f   Thumb Code    18  stm32f4xx_tim.o(.text)
    TIM_SelectMasterSlaveMode                0x080076b1   Thumb Code    18  stm32f4xx_tim.o(.text)
    TIM_EncoderInterfaceConfig               0x080076c3   Thumb Code    66  stm32f4xx_tim.o(.text)
    TIM_SelectHallSensor                     0x08007705   Thumb Code    24  stm32f4xx_tim.o(.text)
    TIM_RemapConfig                          0x0800771d   Thumb Code     6  stm32f4xx_tim.o(.text)
    USART_DeInit                             0x08007725   Thumb Code   206  stm32f4xx_usart.o(.text)
    USART_Init                               0x080077f3   Thumb Code   204  stm32f4xx_usart.o(.text)
    USART_StructInit                         0x080078bf   Thumb Code    24  stm32f4xx_usart.o(.text)
    USART_ClockInit                          0x080078d7   Thumb Code    32  stm32f4xx_usart.o(.text)
    USART_ClockStructInit                    0x080078f7   Thumb Code    12  stm32f4xx_usart.o(.text)
    USART_Cmd                                0x08007903   Thumb Code    24  stm32f4xx_usart.o(.text)
    USART_SetPrescaler                       0x0800791b   Thumb Code    16  stm32f4xx_usart.o(.text)
    USART_OverSampling8Cmd                   0x0800792b   Thumb Code    22  stm32f4xx_usart.o(.text)
    USART_OneBitMethodCmd                    0x08007941   Thumb Code    24  stm32f4xx_usart.o(.text)
    USART_SendData                           0x08007959   Thumb Code     8  stm32f4xx_usart.o(.text)
    USART_ReceiveData                        0x08007961   Thumb Code    10  stm32f4xx_usart.o(.text)
    USART_SetAddress                         0x0800796b   Thumb Code    18  stm32f4xx_usart.o(.text)
    USART_ReceiverWakeUpCmd                  0x0800797d   Thumb Code    24  stm32f4xx_usart.o(.text)
    USART_WakeUpConfig                       0x08007995   Thumb Code    18  stm32f4xx_usart.o(.text)
    USART_LINBreakDetectLengthConfig         0x080079a7   Thumb Code    18  stm32f4xx_usart.o(.text)
    USART_LINCmd                             0x080079b9   Thumb Code    24  stm32f4xx_usart.o(.text)
    USART_SendBreak                          0x080079d1   Thumb Code    10  stm32f4xx_usart.o(.text)
    USART_HalfDuplexCmd                      0x080079db   Thumb Code    24  stm32f4xx_usart.o(.text)
    USART_SetGuardTime                       0x080079f3   Thumb Code    16  stm32f4xx_usart.o(.text)
    USART_SmartCardCmd                       0x08007a03   Thumb Code    24  stm32f4xx_usart.o(.text)
    USART_SmartCardNACKCmd                   0x08007a1b   Thumb Code    24  stm32f4xx_usart.o(.text)
    USART_IrDAConfig                         0x08007a33   Thumb Code    18  stm32f4xx_usart.o(.text)
    USART_IrDACmd                            0x08007a45   Thumb Code    24  stm32f4xx_usart.o(.text)
    USART_DMACmd                             0x08007a5d   Thumb Code    18  stm32f4xx_usart.o(.text)
    USART_ITConfig                           0x08007a6f   Thumb Code    74  stm32f4xx_usart.o(.text)
    USART_GetFlagStatus                      0x08007ab9   Thumb Code    26  stm32f4xx_usart.o(.text)
    USART_ClearFlag                          0x08007ad3   Thumb Code    18  stm32f4xx_usart.o(.text)
    USART_GetITStatus                        0x08007ae5   Thumb Code   118  stm32f4xx_usart.o(.text)
    USART_ClearITPendingBit                  0x08007b5b   Thumb Code    30  stm32f4xx_usart.o(.text)
    GPIO_DeInit                              0x08007b79   Thumb Code   268  stm32f4xx_gpio.o(.text)
    GPIO_Init                                0x08007c85   Thumb Code   144  stm32f4xx_gpio.o(.text)
    GPIO_StructInit                          0x08007d15   Thumb Code    18  stm32f4xx_gpio.o(.text)
    GPIO_PinLockConfig                       0x08007d27   Thumb Code    34  stm32f4xx_gpio.o(.text)
    GPIO_ReadInputDataBit                    0x08007d49   Thumb Code    18  stm32f4xx_gpio.o(.text)
    GPIO_ReadInputData                       0x08007d5b   Thumb Code     8  stm32f4xx_gpio.o(.text)
    GPIO_ReadOutputDataBit                   0x08007d63   Thumb Code    18  stm32f4xx_gpio.o(.text)
    GPIO_ReadOutputData                      0x08007d75   Thumb Code     8  stm32f4xx_gpio.o(.text)
    GPIO_SetBits                             0x08007d7d   Thumb Code     4  stm32f4xx_gpio.o(.text)
    GPIO_ResetBits                           0x08007d81   Thumb Code     4  stm32f4xx_gpio.o(.text)
    GPIO_WriteBit                            0x08007d85   Thumb Code    10  stm32f4xx_gpio.o(.text)
    GPIO_Write                               0x08007d8f   Thumb Code     4  stm32f4xx_gpio.o(.text)
    GPIO_ToggleBits                          0x08007d93   Thumb Code     8  stm32f4xx_gpio.o(.text)
    GPIO_PinAFConfig                         0x08007d9b   Thumb Code    70  stm32f4xx_gpio.o(.text)
    RCC_DeInit                               0x08007e0d   Thumb Code    82  stm32f4xx_rcc.o(.text)
    RCC_HSEConfig                            0x08007e5f   Thumb Code    14  stm32f4xx_rcc.o(.text)
    RCC_GetFlagStatus                        0x08007e6d   Thumb Code    60  stm32f4xx_rcc.o(.text)
    RCC_WaitForHSEStartUp                    0x08007ea9   Thumb Code    56  stm32f4xx_rcc.o(.text)
    RCC_AdjustHSICalibrationValue            0x08007ee1   Thumb Code    20  stm32f4xx_rcc.o(.text)
    RCC_HSICmd                               0x08007ef5   Thumb Code     6  stm32f4xx_rcc.o(.text)
    RCC_LSEConfig                            0x08007efb   Thumb Code    46  stm32f4xx_rcc.o(.text)
    RCC_LSICmd                               0x08007f29   Thumb Code     6  stm32f4xx_rcc.o(.text)
    RCC_PLLConfig                            0x08007f2f   Thumb Code    32  stm32f4xx_rcc.o(.text)
    RCC_PLLCmd                               0x08007f4f   Thumb Code     6  stm32f4xx_rcc.o(.text)
    RCC_PLLI2SConfig                         0x08007f55   Thumb Code    14  stm32f4xx_rcc.o(.text)
    RCC_PLLI2SCmd                            0x08007f63   Thumb Code     6  stm32f4xx_rcc.o(.text)
    RCC_PLLSAIConfig                         0x08007f69   Thumb Code    20  stm32f4xx_rcc.o(.text)
    RCC_PLLSAICmd                            0x08007f7d   Thumb Code     6  stm32f4xx_rcc.o(.text)
    RCC_ClockSecuritySystemCmd               0x08007f83   Thumb Code     6  stm32f4xx_rcc.o(.text)
    RCC_MCO1Config                           0x08007f89   Thumb Code    28  stm32f4xx_rcc.o(.text)
    RCC_MCO2Config                           0x08007fa5   Thumb Code    28  stm32f4xx_rcc.o(.text)
    RCC_SYSCLKConfig                         0x08007fc1   Thumb Code    20  stm32f4xx_rcc.o(.text)
    RCC_GetSYSCLKSource                      0x08007fd5   Thumb Code    12  stm32f4xx_rcc.o(.text)
    RCC_HCLKConfig                           0x08007fe1   Thumb Code    20  stm32f4xx_rcc.o(.text)
    RCC_PCLK1Config                          0x08007ff5   Thumb Code    20  stm32f4xx_rcc.o(.text)
    RCC_PCLK2Config                          0x08008009   Thumb Code    22  stm32f4xx_rcc.o(.text)
    RCC_GetClocksFreq                        0x0800801f   Thumb Code   222  stm32f4xx_rcc.o(.text)
    RCC_RTCCLKConfig                         0x080080fd   Thumb Code    54  stm32f4xx_rcc.o(.text)
    RCC_RTCCLKCmd                            0x08008133   Thumb Code     8  stm32f4xx_rcc.o(.text)
    RCC_BackupResetCmd                       0x0800813b   Thumb Code     8  stm32f4xx_rcc.o(.text)
    RCC_I2SCLKConfig                         0x08008143   Thumb Code     6  stm32f4xx_rcc.o(.text)
    RCC_SAIPLLI2SClkDivConfig                0x08008149   Thumb Code    26  stm32f4xx_rcc.o(.text)
    RCC_SAIPLLSAIClkDivConfig                0x08008163   Thumb Code    28  stm32f4xx_rcc.o(.text)
    RCC_SAIBlockACLKConfig                   0x0800817f   Thumb Code    20  stm32f4xx_rcc.o(.text)
    RCC_SAIBlockBCLKConfig                   0x08008193   Thumb Code    20  stm32f4xx_rcc.o(.text)
    RCC_LTDCCLKDivConfig                     0x080081a7   Thumb Code    20  stm32f4xx_rcc.o(.text)
    RCC_TIMCLKPresConfig                     0x080081bb   Thumb Code     6  stm32f4xx_rcc.o(.text)
    RCC_AHB1PeriphClockCmd                   0x080081c1   Thumb Code    34  stm32f4xx_rcc.o(.text)
    RCC_AHB2PeriphClockCmd                   0x080081e3   Thumb Code    78  stm32f4xx_rcc.o(.text)
    RCC_AHB3PeriphClockCmd                   0x08008231   Thumb Code    34  stm32f4xx_rcc.o(.text)
    RCC_APB1PeriphClockCmd                   0x08008253   Thumb Code    34  stm32f4xx_rcc.o(.text)
    RCC_APB2PeriphClockCmd                   0x08008275   Thumb Code    34  stm32f4xx_rcc.o(.text)
    RCC_AHB1PeriphResetCmd                   0x08008297   Thumb Code    34  stm32f4xx_rcc.o(.text)
    RCC_AHB2PeriphResetCmd                   0x080082b9   Thumb Code    34  stm32f4xx_rcc.o(.text)
    RCC_AHB3PeriphResetCmd                   0x080082db   Thumb Code    34  stm32f4xx_rcc.o(.text)
    RCC_APB1PeriphResetCmd                   0x080082fd   Thumb Code    34  stm32f4xx_rcc.o(.text)
    RCC_APB2PeriphResetCmd                   0x0800831f   Thumb Code    34  stm32f4xx_rcc.o(.text)
    RCC_AHB1PeriphClockLPModeCmd             0x08008341   Thumb Code    34  stm32f4xx_rcc.o(.text)
    RCC_AHB2PeriphClockLPModeCmd             0x08008363   Thumb Code    34  stm32f4xx_rcc.o(.text)
    RCC_AHB3PeriphClockLPModeCmd             0x08008385   Thumb Code    34  stm32f4xx_rcc.o(.text)
    RCC_APB1PeriphClockLPModeCmd             0x080083a7   Thumb Code    34  stm32f4xx_rcc.o(.text)
    RCC_APB2PeriphClockLPModeCmd             0x080083c9   Thumb Code    34  stm32f4xx_rcc.o(.text)
    RCC_LSEModeConfig                        0x080083eb   Thumb Code    40  stm32f4xx_rcc.o(.text)
    RCC_ITConfig                             0x08008413   Thumb Code    34  stm32f4xx_rcc.o(.text)
    RCC_ClearFlag                            0x08008435   Thumb Code    18  stm32f4xx_rcc.o(.text)
    RCC_GetITStatus                          0x08008447   Thumb Code    22  stm32f4xx_rcc.o(.text)
    RCC_ClearITPendingBit                    0x0800845d   Thumb Code     8  stm32f4xx_rcc.o(.text)
    FLASH_SetLatency                         0x08008469   Thumb Code     6  stm32f4xx_flash.o(.text)
    FLASH_PrefetchBufferCmd                  0x0800846f   Thumb Code    30  stm32f4xx_flash.o(.text)
    FLASH_InstructionCacheCmd                0x0800848d   Thumb Code    30  stm32f4xx_flash.o(.text)
    FLASH_DataCacheCmd                       0x080084ab   Thumb Code    30  stm32f4xx_flash.o(.text)
    FLASH_InstructionCacheReset              0x080084c9   Thumb Code    14  stm32f4xx_flash.o(.text)
    FLASH_DataCacheReset                     0x080084d7   Thumb Code    14  stm32f4xx_flash.o(.text)
    FLASH_Unlock                             0x080084e5   Thumb Code    26  stm32f4xx_flash.o(.text)
    FLASH_Lock                               0x080084ff   Thumb Code    18  stm32f4xx_flash.o(.text)
    FLASH_GetStatus                          0x08008511   Thumb Code    90  stm32f4xx_flash.o(.text)
    FLASH_WaitForLastOperation               0x0800856b   Thumb Code    34  stm32f4xx_flash.o(.text)
    FLASH_EraseSector                        0x0800858d   Thumb Code   140  stm32f4xx_flash.o(.text)
    FLASH_EraseAllSectors                    0x08008619   Thumb Code   112  stm32f4xx_flash.o(.text)
    FLASH_EraseAllBank1Sectors               0x08008689   Thumb Code   112  stm32f4xx_flash.o(.text)
    FLASH_EraseAllBank2Sectors               0x080086f9   Thumb Code   112  stm32f4xx_flash.o(.text)
    FLASH_ProgramDoubleWord                  0x08008769   Thumb Code    86  stm32f4xx_flash.o(.text)
    FLASH_ProgramWord                        0x080087bf   Thumb Code    82  stm32f4xx_flash.o(.text)
    FLASH_ProgramHalfWord                    0x08008811   Thumb Code    96  stm32f4xx_flash.o(.text)
    FLASH_ProgramByte                        0x08008871   Thumb Code    70  stm32f4xx_flash.o(.text)
    FLASH_OB_Unlock                          0x080088b7   Thumb Code    26  stm32f4xx_flash.o(.text)
    FLASH_OB_Lock                            0x080088d1   Thumb Code    18  stm32f4xx_flash.o(.text)
    FLASH_OB_WRPConfig                       0x080088e3   Thumb Code    54  stm32f4xx_flash.o(.text)
    FLASH_OB_WRP1Config                      0x08008919   Thumb Code    54  stm32f4xx_flash.o(.text)
    FLASH_OB_PCROPSelectionConfig            0x0800894f   Thumb Code    24  stm32f4xx_flash.o(.text)
    FLASH_OB_PCROPConfig                     0x08008967   Thumb Code    54  stm32f4xx_flash.o(.text)
    FLASH_OB_PCROP1Config                    0x0800899d   Thumb Code    54  stm32f4xx_flash.o(.text)
    FLASH_OB_RDPConfig                       0x080089d3   Thumb Code    24  stm32f4xx_flash.o(.text)
    FLASH_OB_UserConfig                      0x080089eb   Thumb Code    46  stm32f4xx_flash.o(.text)
    FLASH_OB_BootConfig                      0x08008a19   Thumb Code    26  stm32f4xx_flash.o(.text)
    FLASH_OB_BORConfig                       0x08008a33   Thumb Code    26  stm32f4xx_flash.o(.text)
    FLASH_OB_Launch                          0x08008a4d   Thumb Code    30  stm32f4xx_flash.o(.text)
    FLASH_OB_GetUser                         0x08008a6b   Thumb Code    12  stm32f4xx_flash.o(.text)
    FLASH_OB_GetWRP                          0x08008a77   Thumb Code     8  stm32f4xx_flash.o(.text)
    FLASH_OB_GetWRP1                         0x08008a7f   Thumb Code     8  stm32f4xx_flash.o(.text)
    FLASH_OB_GetPCROP                        0x08008a87   Thumb Code     8  stm32f4xx_flash.o(.text)
    FLASH_OB_GetPCROP1                       0x08008a8f   Thumb Code     8  stm32f4xx_flash.o(.text)
    FLASH_OB_GetRDP                          0x08008a97   Thumb Code    20  stm32f4xx_flash.o(.text)
    FLASH_OB_GetBOR                          0x08008aab   Thumb Code    12  stm32f4xx_flash.o(.text)
    FLASH_ITConfig                           0x08008ab7   Thumb Code    26  stm32f4xx_flash.o(.text)
    FLASH_GetFlagStatus                      0x08008ad1   Thumb Code    22  stm32f4xx_flash.o(.text)
    FLASH_ClearFlag                          0x08008ae7   Thumb Code     8  stm32f4xx_flash.o(.text)
    NMI_Handler                              0x08008afd   Thumb Code     2  stm32f4xx_it.o(.text)
    HardFault_Handler                        0x08008aff   Thumb Code     4  stm32f4xx_it.o(.text)
    MemManage_Handler                        0x08008b03   Thumb Code     4  stm32f4xx_it.o(.text)
    BusFault_Handler                         0x08008b07   Thumb Code     4  stm32f4xx_it.o(.text)
    UsageFault_Handler                       0x08008b0b   Thumb Code     4  stm32f4xx_it.o(.text)
    SVC_Handler                              0x08008b0f   Thumb Code     2  stm32f4xx_it.o(.text)
    DebugMon_Handler                         0x08008b11   Thumb Code     2  stm32f4xx_it.o(.text)
    PendSV_Handler                           0x08008b13   Thumb Code     2  stm32f4xx_it.o(.text)
    SysTick_Handler                          0x08008b15   Thumb Code     2  stm32f4xx_it.o(.text)
    SystemInit                               0x08008bf5   Thumb Code    88  system_stm32f4xx.o(.text)
    SystemCoreClockUpdate                    0x08008c4d   Thumb Code   174  system_stm32f4xx.o(.text)
    __use_no_semihosting                     0x08008d29   Thumb Code     2  use_no_semi_2.o(.text)
    __2printf                                0x08008d2d   Thumb Code    20  noretval__2printf.o(.text)
    __printf                                 0x08008d45   Thumb Code   104  __printf.o(.text)
    _printf_int_dec                          0x08008dad   Thumb Code   104  _printf_dec.o(.text)
    __use_two_region_memory                  0x08008e25   Thumb Code     2  heapauxi.o(.text)
    __rt_heap_escrow$2region                 0x08008e27   Thumb Code     2  heapauxi.o(.text)
    __rt_heap_expand$2region                 0x08008e29   Thumb Code     2  heapauxi.o(.text)
    __I$use$semihosting                      0x08008e2b   Thumb Code     0  use_no_semi.o(.text)
    __use_no_semihosting_swi                 0x08008e2b   Thumb Code     2  use_no_semi.o(.text)
    __read_errno                             0x08008e2d   Thumb Code    10  _rserrno.o(.text)
    __set_errno                              0x08008e37   Thumb Code    12  _rserrno.o(.text)
    _printf_int_common                       0x08008e43   Thumb Code   178  _printf_intcommon.o(.text)
    __lib_sel_fp_printf                      0x08008ef5   Thumb Code     2  _printf_fp_dec.o(.text)
    _printf_fp_dec_real                      0x080090a7   Thumb Code   620  _printf_fp_dec.o(.text)
    _printf_char_file                        0x08009315   Thumb Code    32  _printf_char_file.o(.text)
    __rt_locale                              0x08009339   Thumb Code     8  rt_locale_intlibspace.o(.text)
    __aeabi_errno_addr                       0x08009341   Thumb Code     8  rt_errno_addr_intlibspace.o(.text)
    __errno$intlibspace                      0x08009341   Thumb Code     0  rt_errno_addr_intlibspace.o(.text)
    __rt_errno_addr$intlibspace              0x08009341   Thumb Code     0  rt_errno_addr_intlibspace.o(.text)
    _ll_udiv10                               0x08009349   Thumb Code   138  lludiv10.o(.text)
    _printf_char_common                      0x080093df   Thumb Code    32  _printf_char_common.o(.text)
    _printf_fp_infnan                        0x08009405   Thumb Code   112  _printf_fp_infnan.o(.text)
    _btod_etento                             0x08009485   Thumb Code   224  bigflt0.o(.text)
    ferror                                   0x08009569   Thumb Code     8  ferror.o(.text)
    __user_libspace                          0x08009571   Thumb Code     8  libspace.o(.text)
    __user_perproc_libspace                  0x08009571   Thumb Code     0  libspace.o(.text)
    __user_perthread_libspace                0x08009571   Thumb Code     0  libspace.o(.text)
    __user_setup_stackheap                   0x08009579   Thumb Code    74  sys_stackheap_outer.o(.text)
    exit                                     0x080095c3   Thumb Code    18  exit.o(.text)
    strcmp                                   0x080095d5   Thumb Code   128  strcmpv7m.o(.text)
    _btod_d2e                                0x08009655   Thumb Code    62  btod.o(CL$$btod_d2e)
    _d2e_denorm_low                          0x08009693   Thumb Code    70  btod.o(CL$$btod_d2e_denorm_low)
    _d2e_norm_op1                            0x080096d9   Thumb Code    96  btod.o(CL$$btod_d2e_norm_op1)
    __btod_div_common                        0x08009739   Thumb Code   696  btod.o(CL$$btod_div_common)
    _e2e                                     0x08009a71   Thumb Code   220  btod.o(CL$$btod_e2e)
    _btod_ediv                               0x08009b4d   Thumb Code    42  btod.o(CL$$btod_ediv)
    _btod_emul                               0x08009b77   Thumb Code    42  btod.o(CL$$btod_emul)
    __btod_mult_common                       0x08009ba1   Thumb Code   580  btod.o(CL$$btod_mult_common)
    __ARM_fpclassify                         0x08009de5   Thumb Code    48  fpclassify.o(i.__ARM_fpclassify)
    __hardfp_asin                            0x08009e19   Thumb Code   770  asin.o(i.__hardfp_asin)
    __hardfp_atan                            0x0800a179   Thumb Code   622  atan.o(i.__hardfp_atan)
    __hardfp_atan2                           0x0800a451   Thumb Code   432  atan2.o(i.__hardfp_atan2)
    __hardfp_fabs                            0x0800a641   Thumb Code    20  fabs.o(i.__hardfp_fabs)
    __hardfp_modf                            0x0800a655   Thumb Code   202  modf.o(i.__hardfp_modf)
    __kernel_poly                            0x0800a725   Thumb Code   248  poly.o(i.__kernel_poly)
    __mathlib_dbl_infnan                     0x0800a81d   Thumb Code    20  dunder.o(i.__mathlib_dbl_infnan)
    __mathlib_dbl_infnan2                    0x0800a831   Thumb Code    20  dunder.o(i.__mathlib_dbl_infnan2)
    __mathlib_dbl_invalid                    0x0800a849   Thumb Code    24  dunder.o(i.__mathlib_dbl_invalid)
    __mathlib_dbl_underflow                  0x0800a869   Thumb Code    24  dunder.o(i.__mathlib_dbl_underflow)
    atan                                     0x0800a889   Thumb Code    16  atan.o(i.atan)
    fabs                                     0x0800a899   Thumb Code    24  fabs.o(i.fabs)
    sqrt                                     0x0800a8b1   Thumb Code   110  sqrt.o(i.sqrt)
    _get_lc_numeric                          0x0800a921   Thumb Code    44  lc_numeric_c.o(locale$$code)
    __aeabi_dneg                             0x0800a94d   Thumb Code     0  basic.o(x$fpl$basic)
    _dneg                                    0x0800a94d   Thumb Code     6  basic.o(x$fpl$basic)
    __aeabi_fneg                             0x0800a953   Thumb Code     0  basic.o(x$fpl$basic)
    _fneg                                    0x0800a953   Thumb Code     6  basic.o(x$fpl$basic)
    _dabs                                    0x0800a959   Thumb Code     6  basic.o(x$fpl$basic)
    _fabs                                    0x0800a95f   Thumb Code     6  basic.o(x$fpl$basic)
    __aeabi_d2f                              0x0800a965   Thumb Code     0  d2f.o(x$fpl$d2f)
    _d2f                                     0x0800a965   Thumb Code    98  d2f.o(x$fpl$d2f)
    __aeabi_dadd                             0x0800a9c9   Thumb Code     0  daddsub_clz.o(x$fpl$dadd)
    _dadd                                    0x0800a9c9   Thumb Code   332  daddsub_clz.o(x$fpl$dadd)
    __fpl_dcmp_Inf                           0x0800ab19   Thumb Code    24  dcmpi.o(x$fpl$dcmpinf)
    __aeabi_ddiv                             0x0800ab31   Thumb Code     0  ddiv.o(x$fpl$ddiv)
    _ddiv                                    0x0800ab31   Thumb Code   552  ddiv.o(x$fpl$ddiv)
    __aeabi_d2iz                             0x0800ade1   Thumb Code     0  dfix.o(x$fpl$dfix)
    _dfix                                    0x0800ade1   Thumb Code    94  dfix.o(x$fpl$dfix)
    __aeabi_d2uiz                            0x0800ae41   Thumb Code     0  dfixu.o(x$fpl$dfixu)
    _dfixu                                   0x0800ae41   Thumb Code    90  dfixu.o(x$fpl$dfixu)
    __aeabi_i2d                              0x0800ae9b   Thumb Code     0  dflt_clz.o(x$fpl$dflt)
    _dflt                                    0x0800ae9b   Thumb Code    46  dflt_clz.o(x$fpl$dflt)
    __aeabi_cdcmple                          0x0800aec9   Thumb Code     0  dleqf.o(x$fpl$dleqf)
    _dcmple                                  0x0800aec9   Thumb Code   120  dleqf.o(x$fpl$dleqf)
    __fpl_dcmple_InfNaN                      0x0800af2b   Thumb Code     0  dleqf.o(x$fpl$dleqf)
    __aeabi_dmul                             0x0800af41   Thumb Code     0  dmul.o(x$fpl$dmul)
    _dmul                                    0x0800af41   Thumb Code   332  dmul.o(x$fpl$dmul)
    __fpl_dnaninf                            0x0800b095   Thumb Code   156  dnaninf.o(x$fpl$dnaninf)
    __fpl_dretinf                            0x0800b131   Thumb Code    12  dretinf.o(x$fpl$dretinf)
    __aeabi_drsub                            0x0800b13d   Thumb Code     0  daddsub_clz.o(x$fpl$drsb)
    _drsb                                    0x0800b13d   Thumb Code    22  daddsub_clz.o(x$fpl$drsb)
    _dsqrt                                   0x0800b155   Thumb Code   404  dsqrt_umaal.o(x$fpl$dsqrt)
    __aeabi_dsub                             0x0800b2ed   Thumb Code     0  daddsub_clz.o(x$fpl$dsub)
    _dsub                                    0x0800b2ed   Thumb Code   464  daddsub_clz.o(x$fpl$dsub)
    __aeabi_f2d                              0x0800b4c1   Thumb Code     0  f2d.o(x$fpl$f2d)
    _f2d                                     0x0800b4c1   Thumb Code    86  f2d.o(x$fpl$f2d)
    __fpl_fnaninf                            0x0800b517   Thumb Code   140  fnaninf.o(x$fpl$fnaninf)
    _fp_init                                 0x0800b5a3   Thumb Code    10  fpinit.o(x$fpl$fpinit)
    __fplib_config_fpu_vfp                   0x0800b5ab   Thumb Code     0  fpinit.o(x$fpl$fpinit)
    __fplib_config_pureend_doubles           0x0800b5ab   Thumb Code     0  fpinit.o(x$fpl$fpinit)
    __fpl_fretinf                            0x0800b5ad   Thumb Code    10  fretinf.o(x$fpl$fretinf)
    _printf_fp_dec                           0x0800b5b7   Thumb Code     4  printf1.o(x$fpl$printf1)
    __I$use$fp                               0x0800b5ba   Number         0  usenofp.o(x$fpl$usenofp)
    about_us_pic                             0x0800b5ba   Data        2176  df_oled.o(.constdata)
    setting_pic_change                       0x0800be3a   Data        2176  df_oled.o(.constdata)
    pic_null                                 0x0800c6ba   Data        1024  df_oled.o(.constdata)
    all_pic_                                 0x0800caba   Data       11264  df_oled.o(.constdata)
    pic_                                     0x0800f6ba   Data        3328  df_oled.o(.constdata)
    dianfu_                                  0x080103ba   Data       43008  df_oled.o(.constdata)
    __mathlib_zero                           0x0801aca8   Data           8  qnan.o(.constdata)
    Region$$Table$$Base                      0x0801ad44   Number         0  anon$$obj.o(Region$$Table)
    Region$$Table$$Limit                     0x0801ad64   Number         0  anon$$obj.o(Region$$Table)
    Battery_Voltage                          0x20000008   Data           8  adc.o(.data)
    __stdout                                 0x20000010   Data           4  usart.o(.data)
    USART_RX_STA                             0x20000014   Data           2  usart.o(.data)
    speed_x                                  0x20000016   Data           1  usart.o(.data)
    speed_y                                  0x20000017   Data           1  usart.o(.data)
    qualit                                   0x20000018   Data           1  usart.o(.data)
    read_mpu_yaw                             0x2000001c   Data           4  usart.o(.data)
    Count_1ms                                0x20000026   Data           1  df_task_time.o(.data)
    Count_2ms                                0x20000027   Data           1  df_task_time.o(.data)
    Count_4ms                                0x20000028   Data           1  df_task_time.o(.data)
    Count_10ms                               0x20000029   Data           1  df_task_time.o(.data)
    Count_100ms                              0x2000002a   Data           1  df_task_time.o(.data)
    Count_500ms                              0x2000002c   Data           2  df_task_time.o(.data)
    Handkey                                  0x20000030   Data           2  df_ps2.o(.data)
    Comd                                     0x20000032   Data           2  df_ps2.o(.data)
    MASK                                     0x20000034   Data          32  df_ps2.o(.data)
    PS2_LX                                   0x20000054   Data           4  df_ps2.o(.data)
    PS2_LY                                   0x20000058   Data           4  df_ps2.o(.data)
    PS2_RX                                   0x2000005c   Data           4  df_ps2.o(.data)
    PS2_RY                                   0x20000060   Data           4  df_ps2.o(.data)
    PS2_KEY                                  0x20000064   Data           4  df_ps2.o(.data)
    LX                                       0x20000068   Data           1  df_android.o(.data)
    LY                                       0x20000069   Data           1  df_android.o(.data)
    RX                                       0x2000006a   Data           1  df_android.o(.data)
    RY                                       0x2000006b   Data           1  df_android.o(.data)
    mKey                                     0x2000006c   Data           1  df_android.o(.data)
    LX_last                                  0x2000006d   Data           1  df_android.o(.data)
    LY_last                                  0x2000006e   Data           1  df_android.o(.data)
    RX_last                                  0x2000006f   Data           1  df_android.o(.data)
    RY_last                                  0x20000070   Data           1  df_android.o(.data)
    remoteFlag                               0x20000071   Data           1  df_android.o(.data)
    debug1                                   0x20000072   Data           1  df_android.o(.data)
    debug2                                   0x20000073   Data           1  df_android.o(.data)
    debug3                                   0x20000074   Data           1  df_android.o(.data)
    debug4                                   0x20000075   Data           1  df_android.o(.data)
    debug5                                   0x20000076   Data           1  df_android.o(.data)
    debug6                                   0x20000077   Data           1  df_android.o(.data)
    _data                                    0x20000078   Data           6  df_android.o(.data)
    b                                        0x20000080   Data          56  df_fiter.o(.data)
    a                                        0x200000b8   Data          56  df_fiter.o(.data)
    offset_gyro_z                            0x200000f0   Data           4  df_fly.o(.data)
    Groy_Acc                                 0x200000f4   Data           4  df_fly.o(.data)
    Hzk                                      0x20000115   Data        4864  df_oled.o(.data)
    zifu                                     0x20001415   Data        1520  df_oled.o(.data)
    DF_Encoder_Cnt_1                         0x20001a08   Data           2  df_pid.o(.data)
    DF_Encoder_Cnt_2                         0x20001a0a   Data           2  df_pid.o(.data)
    DF_Encoder_Cnt_3                         0x20001a0c   Data           2  df_pid.o(.data)
    DF_Encoder_Cnt_4                         0x20001a0e   Data           2  df_pid.o(.data)
    DF_Mileage_All_1                         0x20001a10   Data           2  df_pid.o(.data)
    DF_Mileage_All_2                         0x20001a12   Data           2  df_pid.o(.data)
    DF_Mileage_All_3                         0x20001a14   Data           2  df_pid.o(.data)
    DF_Mileage_All_4                         0x20001a16   Data           2  df_pid.o(.data)
    Pid_Value_Array                          0x20001a18   Data         216  df_pid.o(.data)
    turn_flag                                0x20001af0   Data           1  df_rc.o(.data)
    move_flag                                0x20001af1   Data           1  df_rc.o(.data)
    RC_flag                                  0x20001af2   Data           1  df_rc.o(.data)
    RC_p_flag                                0x20001af3   Data           1  df_rc.o(.data)
    RC_p_flag_last                           0x20001af4   Data           1  df_rc.o(.data)
    RC_start_flag                            0x20001af5   Data           1  df_rc.o(.data)
    RC_mode_flag                             0x20001af6   Data           1  df_rc.o(.data)
    X_normal                                 0x20001af8   Data           8  df_rc.o(.data)
    Y_normal                                 0x20001b00   Data           8  df_rc.o(.data)
    X_cnt                                    0x20001b08   Data           8  df_rc.o(.data)
    Y_cnt                                    0x20001b10   Data           8  df_rc.o(.data)
    PS2_Page_Flag                            0x20001b18   Data           1  df_rc.o(.data)
    oled_pic_max                             0x20001b19   Data           1  df_rc.o(.data)
    oled_pic_min                             0x20001b1a   Data           1  df_rc.o(.data)
    up_max_flag                              0x20001b1b   Data           1  df_rc.o(.data)
    down_min_flag                            0x20001b1c   Data           1  df_rc.o(.data)
    shine_cnt                                0x20001b1d   Data           1  df_rc.o(.data)
    back_cnt                                 0x20001b1e   Data           1  df_rc.o(.data)
    countinue_flag                           0x20001b1f   Data           1  df_rc.o(.data)
    line_flag                                0x20001b20   Data           1  df_rc.o(.data)
    pick_up_flag                             0x20001b21   Data           1  df_rc.o(.data)
    acc_gyro_flag                            0x20001b22   Data           1  df_rc.o(.data)
    save_data_flag                           0x20001b23   Data           1  df_rc.o(.data)
    pic_flag                                 0x20001b24   Data           5  df_rc.o(.data)
    set_num                                  0x20001b29   Data           4  df_rc.o(.data)
    DF_count_x                               0x20001b30   Data           1  df_motion_decom.o(.data)
    DF_count_y                               0x20001b31   Data           1  df_motion_decom.o(.data)
    DF_Mileage_X                             0x20001b32   Data           2  df_motion_decom.o(.data)
    DF_Mileage_Y                             0x20001b34   Data           2  df_motion_decom.o(.data)
    DF_Encoder_Cnts_1                        0x20001b36   Data           2  df_motion_decom.o(.data)
    DF_Encoder_Cnts_2                        0x20001b38   Data           2  df_motion_decom.o(.data)
    DF_Encoder_Cnts_3                        0x20001b3a   Data           2  df_motion_decom.o(.data)
    DF_Encoder_Cnts_4                        0x20001b3c   Data           2  df_motion_decom.o(.data)
    PWM_Servo_Up                             0x20001b40   Data           4  df_motion_decom.o(.data)
    PWM_Servo_Down                           0x20001b44   Data           4  df_motion_decom.o(.data)
    aex                                      0x20001b70   Data           4  df_imu.o(.data)
    aey                                      0x20001b74   Data           4  df_imu.o(.data)
    aez                                      0x20001b78   Data           4  df_imu.o(.data)
    acc                                      0x20001b7c   Data           6  df_struct.o(.data)
    gyro                                     0x20001b82   Data           6  df_struct.o(.data)
    filter_acc                               0x20001b88   Data           6  df_struct.o(.data)
    filter_gyro_first                        0x20001b8e   Data           6  df_struct.o(.data)
    filter_gyro                              0x20001b94   Data           6  df_struct.o(.data)
    offset_acc                               0x20001b9a   Data           6  df_struct.o(.data)
    offset_gyro                              0x20001ba0   Data           6  df_struct.o(.data)
    k                                        0x20001ba6   Data           1  df_struct.o(.data)
    key                                      0x20001ba7   Data           1  df_struct.o(.data)
    temp                                     0x20001ba8   Data           4  df_struct.o(.data)
    wendu                                    0x20001bac   Data           4  df_struct.o(.data)
    flagss                                   0x20001bb0   Data           1  df_struct.o(.data)
    SystemCoreClock                          0x20001bc4   Data           4  system_stm32f4xx.o(.data)
    AHBPrescTable                            0x20001bc8   Data          16  system_stm32f4xx.o(.data)
    USART_RX_BUF                             0x20001bd8   Data         200  usart.o(.bss)
    usart3_rx_buf                            0x20001ca0   Data          11  usart.o(.bss)
    Data                                     0x20001cab   Data           9  df_ps2.o(.bss)
    androidData                              0x20001cb4   Data           9  df_android.o(.bss)
    send_data                                0x20001cbd   Data          21  df_android.o(.bss)
    groy_filter                              0x20001cd8   Data         336  df_fiter.o(.bss)
    acc_filter                               0x20001e28   Data         336  df_fiter.o(.bss)
    gyro_filter                              0x20001f78   Data         336  df_fiter.o(.bss)
    PID_Pos_1                                0x200020c8   Data          40  df_pid.o(.bss)
    PID_Pos_2                                0x200020f0   Data          40  df_pid.o(.bss)
    PID_Pos_3                                0x20002118   Data          40  df_pid.o(.bss)
    PID_Pos_4                                0x20002140   Data          40  df_pid.o(.bss)
    PID_Pos_5                                0x20002168   Data          40  df_pid.o(.bss)
    PID_Pos_6                                0x20002190   Data          40  df_pid.o(.bss)
    PID_Pos_7                                0x200021b8   Data          40  df_pid.o(.bss)
    SI_acc                                   0x20002204   Data          12  df_struct.o(.bss)
    SI_gyro                                  0x20002210   Data          12  df_struct.o(.bss)
    nacc                                     0x2000221c   Data          12  df_struct.o(.bss)
    Rc                                       0x20002228   Data          32  df_struct.o(.bss)
    out_angle                                0x20002248   Data          12  df_struct.o(.bss)
    filter_2s                                0x20002254   Data          12  df_struct.o(.bss)
    filter_3s                                0x20002260   Data          12  df_struct.o(.bss)
    pitch                                    0x2000226c   Data          20  df_struct.o(.bss)
    roll                                     0x20002280   Data          20  df_struct.o(.bss)
    yaw                                      0x20002294   Data          20  df_struct.o(.bss)
    gyro_pitch                               0x200022a8   Data          20  df_struct.o(.bss)
    gyro_roll                                0x200022bc   Data          20  df_struct.o(.bss)
    gyro_yaw                                 0x200022d0   Data          20  df_struct.o(.bss)
    __libspace_start                         0x200022e4   Data          96  libspace.o(.bss)
    __temporary_stack_top$libspace           0x20002344   Data           0  libspace.o(.bss)



==============================================================================

Memory Map of the image

  Image Entry point : 0x08000189

  Load Region LR_IROM1 (Base: 0x08000000, Size: 0x0001c958, Max: 0x00080000, ABSOLUTE, COMPRESSED[0x0001b9d8])

    Execution Region ER_IROM1 (Exec base: 0x08000000, Load base: 0x08000000, Size: 0x0001ad80, Max: 0x00080000, ABSOLUTE)

    Exec Addr    Load Addr    Size         Type   Attr      Idx    E Section Name        Object

    0x08000000   0x08000000   0x00000188   Data   RO         1007    RESET               startup_stm32f40_41xxx.o
    0x08000188   0x08000188   0x00000008   Code   RO         1610  * !!!main             c_w.l(__main.o)
    0x08000190   0x08000190   0x00000034   Code   RO         1962    !!!scatter          c_w.l(__scatter.o)
    0x080001c4   0x080001c4   0x00000064   Code   RO         1960    !!dclz77c           c_w.l(__dclz77c.o)
    0x08000228   0x08000228   0x0000001c   Code   RO         1964    !!handler_zi        c_w.l(__scatter_zi.o)
    0x08000244   0x08000244   0x00000000   Code   RO         1607    .ARM.Collect$$_printf_percent$$00000000  c_w.l(_printf_percent.o)
    0x08000244   0x08000244   0x00000006   Code   RO         1606    .ARM.Collect$$_printf_percent$$00000003  c_w.l(_printf_f.o)
    0x0800024a   0x0800024a   0x00000006   Code   RO         1605    .ARM.Collect$$_printf_percent$$00000009  c_w.l(_printf_d.o)
    0x08000250   0x08000250   0x00000004   Code   RO         1697    .ARM.Collect$$_printf_percent$$00000017  c_w.l(_printf_percent_end.o)
    0x08000254   0x08000254   0x00000002   Code   RO         1837    .ARM.Collect$$libinit$$00000000  c_w.l(libinit.o)
    0x08000256   0x08000256   0x00000004   Code   RO         1838    .ARM.Collect$$libinit$$00000001  c_w.l(libinit2.o)
    0x0800025a   0x0800025a   0x00000000   Code   RO         1841    .ARM.Collect$$libinit$$00000004  c_w.l(libinit2.o)
    0x0800025a   0x0800025a   0x00000000   Code   RO         1844    .ARM.Collect$$libinit$$0000000A  c_w.l(libinit2.o)
    0x0800025a   0x0800025a   0x00000000   Code   RO         1846    .ARM.Collect$$libinit$$0000000C  c_w.l(libinit2.o)
    0x0800025a   0x0800025a   0x00000000   Code   RO         1848    .ARM.Collect$$libinit$$0000000E  c_w.l(libinit2.o)
    0x0800025a   0x0800025a   0x00000006   Code   RO         1849    .ARM.Collect$$libinit$$0000000F  c_w.l(libinit2.o)
    0x08000260   0x08000260   0x00000000   Code   RO         1851    .ARM.Collect$$libinit$$00000011  c_w.l(libinit2.o)
    0x08000260   0x08000260   0x00000000   Code   RO         1853    .ARM.Collect$$libinit$$00000013  c_w.l(libinit2.o)
    0x08000260   0x08000260   0x00000000   Code   RO         1855    .ARM.Collect$$libinit$$00000015  c_w.l(libinit2.o)
    0x08000260   0x08000260   0x0000000a   Code   RO         1856    .ARM.Collect$$libinit$$00000016  c_w.l(libinit2.o)
    0x0800026a   0x0800026a   0x00000000   Code   RO         1857    .ARM.Collect$$libinit$$00000017  c_w.l(libinit2.o)
    0x0800026a   0x0800026a   0x00000000   Code   RO         1859    .ARM.Collect$$libinit$$00000019  c_w.l(libinit2.o)
    0x0800026a   0x0800026a   0x00000000   Code   RO         1861    .ARM.Collect$$libinit$$0000001B  c_w.l(libinit2.o)
    0x0800026a   0x0800026a   0x00000000   Code   RO         1863    .ARM.Collect$$libinit$$0000001D  c_w.l(libinit2.o)
    0x0800026a   0x0800026a   0x00000000   Code   RO         1865    .ARM.Collect$$libinit$$0000001F  c_w.l(libinit2.o)
    0x0800026a   0x0800026a   0x00000000   Code   RO         1867    .ARM.Collect$$libinit$$00000021  c_w.l(libinit2.o)
    0x0800026a   0x0800026a   0x00000000   Code   RO         1869    .ARM.Collect$$libinit$$00000023  c_w.l(libinit2.o)
    0x0800026a   0x0800026a   0x00000000   Code   RO         1871    .ARM.Collect$$libinit$$00000025  c_w.l(libinit2.o)
    0x0800026a   0x0800026a   0x00000000   Code   RO         1875    .ARM.Collect$$libinit$$0000002C  c_w.l(libinit2.o)
    0x0800026a   0x0800026a   0x00000000   Code   RO         1877    .ARM.Collect$$libinit$$0000002E  c_w.l(libinit2.o)
    0x0800026a   0x0800026a   0x00000000   Code   RO         1879    .ARM.Collect$$libinit$$00000030  c_w.l(libinit2.o)
    0x0800026a   0x0800026a   0x00000000   Code   RO         1881    .ARM.Collect$$libinit$$00000032  c_w.l(libinit2.o)
    0x0800026a   0x0800026a   0x00000002   Code   RO         1882    .ARM.Collect$$libinit$$00000033  c_w.l(libinit2.o)
    0x0800026c   0x0800026c   0x00000002   Code   RO         1910    .ARM.Collect$$libshutdown$$00000000  c_w.l(libshutdown.o)
    0x0800026e   0x0800026e   0x00000000   Code   RO         1919    .ARM.Collect$$libshutdown$$00000002  c_w.l(libshutdown2.o)
    0x0800026e   0x0800026e   0x00000000   Code   RO         1921    .ARM.Collect$$libshutdown$$00000004  c_w.l(libshutdown2.o)
    0x0800026e   0x0800026e   0x00000000   Code   RO         1924    .ARM.Collect$$libshutdown$$00000007  c_w.l(libshutdown2.o)
    0x0800026e   0x0800026e   0x00000000   Code   RO         1927    .ARM.Collect$$libshutdown$$0000000A  c_w.l(libshutdown2.o)
    0x0800026e   0x0800026e   0x00000000   Code   RO         1929    .ARM.Collect$$libshutdown$$0000000C  c_w.l(libshutdown2.o)
    0x0800026e   0x0800026e   0x00000000   Code   RO         1932    .ARM.Collect$$libshutdown$$0000000F  c_w.l(libshutdown2.o)
    0x0800026e   0x0800026e   0x00000002   Code   RO         1933    .ARM.Collect$$libshutdown$$00000010  c_w.l(libshutdown2.o)
    0x08000270   0x08000270   0x00000000   Code   RO         1688    .ARM.Collect$$rtentry$$00000000  c_w.l(__rtentry.o)
    0x08000270   0x08000270   0x00000000   Code   RO         1755    .ARM.Collect$$rtentry$$00000002  c_w.l(__rtentry2.o)
    0x08000270   0x08000270   0x00000006   Code   RO         1767    .ARM.Collect$$rtentry$$00000004  c_w.l(__rtentry4.o)
    0x08000276   0x08000276   0x00000000   Code   RO         1757    .ARM.Collect$$rtentry$$00000009  c_w.l(__rtentry2.o)
    0x08000276   0x08000276   0x00000004   Code   RO         1758    .ARM.Collect$$rtentry$$0000000A  c_w.l(__rtentry2.o)
    0x0800027a   0x0800027a   0x00000000   Code   RO         1760    .ARM.Collect$$rtentry$$0000000C  c_w.l(__rtentry2.o)
    0x0800027a   0x0800027a   0x00000008   Code   RO         1761    .ARM.Collect$$rtentry$$0000000D  c_w.l(__rtentry2.o)
    0x08000282   0x08000282   0x00000002   Code   RO         1883    .ARM.Collect$$rtexit$$00000000  c_w.l(rtexit.o)
    0x08000284   0x08000284   0x00000000   Code   RO         1890    .ARM.Collect$$rtexit$$00000002  c_w.l(rtexit2.o)
    0x08000284   0x08000284   0x00000004   Code   RO         1891    .ARM.Collect$$rtexit$$00000003  c_w.l(rtexit2.o)
    0x08000288   0x08000288   0x00000006   Code   RO         1892    .ARM.Collect$$rtexit$$00000004  c_w.l(rtexit2.o)
    0x0800028e   0x0800028e   0x00000002   PAD
    0x08000290   0x08000290   0x0000005c   Code   RO            4    .text               main.o
    0x080002ec   0x080002ec   0x000000e8   Code   RO          215    .text               key.o
    0x080003d4   0x080003d4   0x00000200   Code   RO          240    .text               adc.o
    0x080005d4   0x080005d4   0x000001f0   Code   RO          267    .text               spi.o
    0x080007c4   0x080007c4   0x00000688   Code   RO          291    .text               usart.o
    0x08000e4c   0x08000e4c   0x00000104   Code   RO          326    .text               delay.o
    0x08000f50   0x08000f50   0x000002dc   Code   RO          355    .text               pwm.o
    0x0800122c   0x0800122c   0x00000318   Code   RO          379    .text               encoder.o
    0x08001544   0x08001544   0x00000570   Code   RO          441    .text               flash.o
    0x08001ab4   0x08001ab4   0x000001b4   Code   RO          475    .text               led.o
    0x08001c68   0x08001c68   0x00000130   Code   RO          499    .text               df_task_time.o
    0x08001d98   0x08001d98   0x000005ec   Code   RO          537    .text               df_ps2.o
    0x08002384   0x08002384   0x00000570   Code   RO          568    .text               df_android.o
    0x080028f4   0x080028f4   0x00000254   Code   RO          704    .text               df_fiter.o
    0x08002b48   0x08002b48   0x0000050c   Code   RO          732    .text               df_fly.o
    0x08003054   0x08003054   0x00000ab8   Code   RO          767    .text               df_oled.o
    0x08003b0c   0x08003b0c   0x00000238   Code   RO          798    .text               df_pid.o
    0x08003d44   0x08003d44   0x000013c0   Code   RO          831    .text               df_rc.o
    0x08005104   0x08005104   0x00000604   Code   RO          862    .text               df_motion_decom.o
    0x08005708   0x08005708   0x00000090   Code   RO          890    .text               df_loop.o
    0x08005798   0x08005798   0x0000011c   Code   RO          919    .text               df_move.o
    0x080058b4   0x080058b4   0x000005fc   Code   RO          945    .text               df_imu.o
    0x08005eb0   0x08005eb0   0x000001cc   Code   RO          976    .text               df_struct.o
    0x0800607c   0x0800607c   0x00000040   Code   RO         1008    .text               startup_stm32f40_41xxx.o
    0x080060bc   0x080060bc   0x000000e0   Code   RO         1015    .text               misc.o
    0x0800619c   0x0800619c   0x00000464   Code   RO         1045    .text               stm32f4xx_adc.o
    0x08006600   0x08006600   0x00000480   Code   RO         1069    .text               stm32f4xx_spi.o
    0x08006a80   0x08006a80   0x00000ca2   Code   RO         1096    .text               stm32f4xx_tim.o
    0x08007722   0x08007722   0x00000002   PAD
    0x08007724   0x08007724   0x00000454   Code   RO         1123    .text               stm32f4xx_usart.o
    0x08007b78   0x08007b78   0x00000294   Code   RO         1177    .text               stm32f4xx_gpio.o
    0x08007e0c   0x08007e0c   0x0000065c   Code   RO         1360    .text               stm32f4xx_rcc.o
    0x08008468   0x08008468   0x00000694   Code   RO         1470    .text               stm32f4xx_flash.o
    0x08008afc   0x08008afc   0x0000001a   Code   RO         1519    .text               stm32f4xx_it.o
    0x08008b16   0x08008b16   0x00000002   PAD
    0x08008b18   0x08008b18   0x00000210   Code   RO         1546    .text               system_stm32f4xx.o
    0x08008d28   0x08008d28   0x00000002   Code   RO         1575    .text               c_w.l(use_no_semi_2.o)
    0x08008d2a   0x08008d2a   0x00000002   PAD
    0x08008d2c   0x08008d2c   0x00000018   Code   RO         1579    .text               c_w.l(noretval__2printf.o)
    0x08008d44   0x08008d44   0x00000068   Code   RO         1581    .text               c_w.l(__printf.o)
    0x08008dac   0x08008dac   0x00000078   Code   RO         1583    .text               c_w.l(_printf_dec.o)
    0x08008e24   0x08008e24   0x00000006   Code   RO         1608    .text               c_w.l(heapauxi.o)
    0x08008e2a   0x08008e2a   0x00000002   Code   RO         1686    .text               c_w.l(use_no_semi.o)
    0x08008e2c   0x08008e2c   0x00000016   Code   RO         1689    .text               c_w.l(_rserrno.o)
    0x08008e42   0x08008e42   0x000000b2   Code   RO         1691    .text               c_w.l(_printf_intcommon.o)
    0x08008ef4   0x08008ef4   0x0000041e   Code   RO         1693    .text               c_w.l(_printf_fp_dec.o)
    0x08009312   0x08009312   0x00000002   PAD
    0x08009314   0x08009314   0x00000024   Code   RO         1695    .text               c_w.l(_printf_char_file.o)
    0x08009338   0x08009338   0x00000008   Code   RO         1772    .text               c_w.l(rt_locale_intlibspace.o)
    0x08009340   0x08009340   0x00000008   Code   RO         1777    .text               c_w.l(rt_errno_addr_intlibspace.o)
    0x08009348   0x08009348   0x0000008a   Code   RO         1779    .text               c_w.l(lludiv10.o)
    0x080093d2   0x080093d2   0x00000002   PAD
    0x080093d4   0x080093d4   0x00000030   Code   RO         1781    .text               c_w.l(_printf_char_common.o)
    0x08009404   0x08009404   0x00000080   Code   RO         1783    .text               c_w.l(_printf_fp_infnan.o)
    0x08009484   0x08009484   0x000000e4   Code   RO         1785    .text               c_w.l(bigflt0.o)
    0x08009568   0x08009568   0x00000008   Code   RO         1810    .text               c_w.l(ferror.o)
    0x08009570   0x08009570   0x00000008   Code   RO         1821    .text               c_w.l(libspace.o)
    0x08009578   0x08009578   0x0000004a   Code   RO         1824    .text               c_w.l(sys_stackheap_outer.o)
    0x080095c2   0x080095c2   0x00000012   Code   RO         1828    .text               c_w.l(exit.o)
    0x080095d4   0x080095d4   0x00000080   Code   RO         1830    .text               c_w.l(strcmpv7m.o)
    0x08009654   0x08009654   0x0000003e   Code   RO         1788    CL$$btod_d2e        c_w.l(btod.o)
    0x08009692   0x08009692   0x00000046   Code   RO         1790    CL$$btod_d2e_denorm_low  c_w.l(btod.o)
    0x080096d8   0x080096d8   0x00000060   Code   RO         1789    CL$$btod_d2e_norm_op1  c_w.l(btod.o)
    0x08009738   0x08009738   0x00000338   Code   RO         1798    CL$$btod_div_common  c_w.l(btod.o)
    0x08009a70   0x08009a70   0x000000dc   Code   RO         1795    CL$$btod_e2e        c_w.l(btod.o)
    0x08009b4c   0x08009b4c   0x0000002a   Code   RO         1792    CL$$btod_ediv       c_w.l(btod.o)
    0x08009b76   0x08009b76   0x0000002a   Code   RO         1791    CL$$btod_emul       c_w.l(btod.o)
    0x08009ba0   0x08009ba0   0x00000244   Code   RO         1797    CL$$btod_mult_common  c_w.l(btod.o)
    0x08009de4   0x08009de4   0x00000030   Code   RO         1737    i.__ARM_fpclassify  m_wm.l(fpclassify.o)
    0x08009e14   0x08009e14   0x00000004   PAD
    0x08009e18   0x08009e18   0x00000360   Code   RO         1648    i.__hardfp_asin     m_wm.l(asin.o)
    0x0800a178   0x0800a178   0x000002d8   Code   RO         1709    i.__hardfp_atan     m_wm.l(atan.o)
    0x0800a450   0x0800a450   0x000001f0   Code   RO         1662    i.__hardfp_atan2    m_wm.l(atan2.o)
    0x0800a640   0x0800a640   0x00000014   Code   RO         1674    i.__hardfp_fabs     m_wm.l(fabs.o)
    0x0800a654   0x0800a654   0x000000d0   Code   RO         1680    i.__hardfp_modf     m_wm.l(modf.o)
    0x0800a724   0x0800a724   0x000000f8   Code   RO         1739    i.__kernel_poly     m_wm.l(poly.o)
    0x0800a81c   0x0800a81c   0x00000014   Code   RO         1724    i.__mathlib_dbl_infnan  m_wm.l(dunder.o)
    0x0800a830   0x0800a830   0x00000014   Code   RO         1725    i.__mathlib_dbl_infnan2  m_wm.l(dunder.o)
    0x0800a844   0x0800a844   0x00000004   PAD
    0x0800a848   0x0800a848   0x00000020   Code   RO         1726    i.__mathlib_dbl_invalid  m_wm.l(dunder.o)
    0x0800a868   0x0800a868   0x00000020   Code   RO         1729    i.__mathlib_dbl_underflow  m_wm.l(dunder.o)
    0x0800a888   0x0800a888   0x00000010   Code   RO         1711    i.atan              m_wm.l(atan.o)
    0x0800a898   0x0800a898   0x00000018   Code   RO         1676    i.fabs              m_wm.l(fabs.o)
    0x0800a8b0   0x0800a8b0   0x0000006e   Code   RO         1744    i.sqrt              m_wm.l(sqrt.o)
    0x0800a91e   0x0800a91e   0x00000002   PAD
    0x0800a920   0x0800a920   0x0000002c   Code   RO         1815    locale$$code        c_w.l(lc_numeric_c.o)
    0x0800a94c   0x0800a94c   0x00000018   Code   RO         1612    x$fpl$basic         fz_wm.l(basic.o)
    0x0800a964   0x0800a964   0x00000062   Code   RO         1614    x$fpl$d2f           fz_wm.l(d2f.o)
    0x0800a9c6   0x0800a9c6   0x00000002   PAD
    0x0800a9c8   0x0800a9c8   0x00000150   Code   RO         1616    x$fpl$dadd          fz_wm.l(daddsub_clz.o)
    0x0800ab18   0x0800ab18   0x00000018   Code   RO         1698    x$fpl$dcmpinf       fz_wm.l(dcmpi.o)
    0x0800ab30   0x0800ab30   0x000002b0   Code   RO         1623    x$fpl$ddiv          fz_wm.l(ddiv.o)
    0x0800ade0   0x0800ade0   0x0000005e   Code   RO         1626    x$fpl$dfix          fz_wm.l(dfix.o)
    0x0800ae3e   0x0800ae3e   0x00000002   PAD
    0x0800ae40   0x0800ae40   0x0000005a   Code   RO         1630    x$fpl$dfixu         fz_wm.l(dfixu.o)
    0x0800ae9a   0x0800ae9a   0x0000002e   Code   RO         1635    x$fpl$dflt          fz_wm.l(dflt_clz.o)
    0x0800aec8   0x0800aec8   0x00000078   Code   RO         1640    x$fpl$dleqf         fz_wm.l(dleqf.o)
    0x0800af40   0x0800af40   0x00000154   Code   RO         1642    x$fpl$dmul          fz_wm.l(dmul.o)
    0x0800b094   0x0800b094   0x0000009c   Code   RO         1700    x$fpl$dnaninf       fz_wm.l(dnaninf.o)
    0x0800b130   0x0800b130   0x0000000c   Code   RO         1702    x$fpl$dretinf       fz_wm.l(dretinf.o)
    0x0800b13c   0x0800b13c   0x00000016   Code   RO         1617    x$fpl$drsb          fz_wm.l(daddsub_clz.o)
    0x0800b152   0x0800b152   0x00000002   PAD
    0x0800b154   0x0800b154   0x00000198   Code   RO         1817    x$fpl$dsqrt         fz_wm.l(dsqrt_umaal.o)
    0x0800b2ec   0x0800b2ec   0x000001d4   Code   RO         1618    x$fpl$dsub          fz_wm.l(daddsub_clz.o)
    0x0800b4c0   0x0800b4c0   0x00000056   Code   RO         1644    x$fpl$f2d           fz_wm.l(f2d.o)
    0x0800b516   0x0800b516   0x0000008c   Code   RO         1704    x$fpl$fnaninf       fz_wm.l(fnaninf.o)
    0x0800b5a2   0x0800b5a2   0x0000000a   Code   RO         1887    x$fpl$fpinit        fz_wm.l(fpinit.o)
    0x0800b5ac   0x0800b5ac   0x0000000a   Code   RO         1706    x$fpl$fretinf       fz_wm.l(fretinf.o)
    0x0800b5b6   0x0800b5b6   0x00000004   Code   RO         1646    x$fpl$printf1       fz_wm.l(printf1.o)
    0x0800b5ba   0x0800b5ba   0x00000000   Code   RO         1708    x$fpl$usenofp       fz_wm.l(usenofp.o)
    0x0800b5ba   0x0800b5ba   0x0000f600   Data   RO          768    .constdata          df_oled.o
    0x0801abba   0x0801abba   0x00000006   PAD
    0x0801abc0   0x0801abc0   0x00000050   Data   RO         1651    .constdata          m_wm.l(asin.o)
    0x0801ac10   0x0801ac10   0x00000098   Data   RO         1712    .constdata          m_wm.l(atan.o)
    0x0801aca8   0x0801aca8   0x00000008   Data   RO         1741    .constdata          m_wm.l(qnan.o)
    0x0801acb0   0x0801acb0   0x00000094   Data   RO         1786    .constdata          c_w.l(bigflt0.o)
    0x0801ad44   0x0801ad44   0x00000020   Data   RO         1958    Region$$Table       anon$$obj.o
    0x0801ad64   0x0801ad64   0x0000001c   Data   RO         1814    locale$$data        c_w.l(lc_numeric_c.o)


    Execution Region RW_IRAM2 (Exec base: 0x10000000, Load base: 0x0801b9d8, Size: 0x00000000, Max: 0x00010000, ABSOLUTE)

    **** No section assigned to this execution region ****


    Execution Region RW_IRAM1 (Exec base: 0x20000000, Load base: 0x0801ad80, Size: 0x00002948, Max: 0x00020000, ABSOLUTE, COMPRESSED[0x00000c58])

    Exec Addr    Load Addr    Size         Type   Attr      Idx    E Section Name        Object

    0x20000000   COMPRESSED   0x00000001   Data   RW          216    .data               key.o
    0x20000001   COMPRESSED   0x00000007   PAD
    0x20000008   COMPRESSED   0x00000008   Data   RW          241    .data               adc.o
    0x20000010   COMPRESSED   0x00000012   Data   RW          293    .data               usart.o
    0x20000022   COMPRESSED   0x00000004   Data   RW          327    .data               delay.o
    0x20000026   COMPRESSED   0x00000008   Data   RW          500    .data               df_task_time.o
    0x2000002e   COMPRESSED   0x00000002   PAD
    0x20000030   COMPRESSED   0x00000038   Data   RW          539    .data               df_ps2.o
    0x20000068   COMPRESSED   0x00000018   Data   RW          570    .data               df_android.o
    0x20000080   COMPRESSED   0x00000070   Data   RW          706    .data               df_fiter.o
    0x200000f0   COMPRESSED   0x00000025   Data   RW          733    .data               df_fly.o
    0x20000115   COMPRESSED   0x000018f0   Data   RW          769    .data               df_oled.o
    0x20001a05   COMPRESSED   0x00000003   PAD
    0x20001a08   COMPRESSED   0x000000e8   Data   RW          800    .data               df_pid.o
    0x20001af0   COMPRESSED   0x0000003f   Data   RW          832    .data               df_rc.o
    0x20001b2f   COMPRESSED   0x00000001   PAD
    0x20001b30   COMPRESSED   0x00000022   Data   RW          863    .data               df_motion_decom.o
    0x20001b52   COMPRESSED   0x00000002   Data   RW          920    .data               df_move.o
    0x20001b54   COMPRESSED   0x00000028   Data   RW          947    .data               df_imu.o
    0x20001b7c   COMPRESSED   0x00000035   Data   RW          978    .data               df_struct.o
    0x20001bb1   COMPRESSED   0x00000010   Data   RW         1361    .data               stm32f4xx_rcc.o
    0x20001bc1   COMPRESSED   0x00000003   PAD
    0x20001bc4   COMPRESSED   0x00000014   Data   RW         1547    .data               system_stm32f4xx.o
    0x20001bd8        -       0x000000d3   Zero   RW          292    .bss                usart.o
    0x20001cab        -       0x00000009   Zero   RW          538    .bss                df_ps2.o
    0x20001cb4        -       0x0000001e   Zero   RW          569    .bss                df_android.o
    0x20001cd2   COMPRESSED   0x00000006   PAD
    0x20001cd8        -       0x000003f0   Zero   RW          705    .bss                df_fiter.o
    0x200020c8        -       0x00000118   Zero   RW          799    .bss                df_pid.o
    0x200021e0        -       0x00000024   Zero   RW          946    .bss                df_imu.o
    0x20002204        -       0x000000e0   Zero   RW          977    .bss                df_struct.o
    0x200022e4        -       0x00000060   Zero   RW         1822    .bss                c_w.l(libspace.o)
    0x20002344   COMPRESSED   0x00000004   PAD
    0x20002348        -       0x00000200   Zero   RW         1006    HEAP                startup_stm32f40_41xxx.o
    0x20002548        -       0x00000400   Zero   RW         1005    STACK               startup_stm32f40_41xxx.o


==============================================================================

Image component sizes


      Code (inc. data)   RO Data    RW Data    ZI Data      Debug   Object Name

       512         60          0          8          0       1906   adc.o
       260          8          0          4          0       1509   delay.o
      1392        172          0         24         30      33879   df_android.o
       596         28          0        112       1008       2360   df_fiter.o
      1292        240          0         37          0       5775   df_fly.o
      1532         94          0         40         36       3060   df_imu.o
       144         18          0          0          0        863   df_loop.o
      1540        148          0         34          0       4091   df_motion_decom.o
       284         60          0          2          0        652   df_move.o
      2744         46      62976       6384          0       9707   df_oled.o
       568         34          0        232        280       3058   df_pid.o
      1516         66          0         56          9       4479   df_ps2.o
      5056        308          0         63          0       6771   df_rc.o
       460        112          0         53        224       3323   df_struct.o
       304         52          0          8          0       1411   df_task_time.o
       792         22          0          0          0       2206   encoder.o
      1392        574          0          0          0       3619   flash.o
       232         22          0          1          0        888   key.o
       436         18          0          0          0       2036   led.o
        92         18          0          0          0     300898   main.o
       224         20          0          0          0       3525   misc.o
       732         32          0          0          0       1172   pwm.o
       496         14          0          0          0       1575   spi.o
        64         26        392          0       1536        840   startup_stm32f40_41xxx.o
      1124         24          0          0          0      10714   stm32f4xx_adc.o
      1684         28          0          0          0      18470   stm32f4xx_flash.o
       660         44          0          0          0      11197   stm32f4xx_gpio.o
        26          0          0          0          0       1258   stm32f4xx_it.o
      1628         52          0         16          0      28396   stm32f4xx_rcc.o
      1152         36          0          0          0      15145   stm32f4xx_spi.o
      3234         60          0          0          0      42800   stm32f4xx_tim.o
      1108         34          0          0          0      13912   stm32f4xx_usart.o
       528         46          0         20          0       1875   system_stm32f4xx.o
      1672         62          0         18        211       7220   usart.o

    ----------------------------------------------------------------------
     35480       2578      63406       7128       3340     550590   Object Totals
         0          0         32          0          0          0   (incl. Generated)
         4          0          6         16          6          0   (incl. Padding)

    ----------------------------------------------------------------------

      Code (inc. data)   RO Data    RW Data    ZI Data      Debug   Library Member Name

       100          0          0          0          0          0   __dclz77c.o
         8          0          0          0          0         68   __main.o
       104          0          0          0          0         84   __printf.o
         0          0          0          0          0          0   __rtentry.o
        12          0          0          0          0          0   __rtentry2.o
         6          0          0          0          0          0   __rtentry4.o
        52          8          0          0          0          0   __scatter.o
        28          0          0          0          0          0   __scatter_zi.o
        48          6          0          0          0         96   _printf_char_common.o
        36          4          0          0          0         80   _printf_char_file.o
         6          0          0          0          0          0   _printf_d.o
       120         16          0          0          0         92   _printf_dec.o
         6          0          0          0          0          0   _printf_f.o
      1054          0          0          0          0        216   _printf_fp_dec.o
       128         16          0          0          0         84   _printf_fp_infnan.o
       178          0          0          0          0         88   _printf_intcommon.o
         0          0          0          0          0          0   _printf_percent.o
         4          0          0          0          0          0   _printf_percent_end.o
        22          0          0          0          0        100   _rserrno.o
       228          4        148          0          0         96   bigflt0.o
      1936        128          0          0          0        672   btod.o
        18          0          0          0          0         80   exit.o
         8          0          0          0          0         68   ferror.o
         6          0          0          0          0        152   heapauxi.o
        44         10         28          0          0         76   lc_numeric_c.o
         2          0          0          0          0          0   libinit.o
        22          0          0          0          0          0   libinit2.o
         2          0          0          0          0          0   libshutdown.o
         2          0          0          0          0          0   libshutdown2.o
         8          4          0          0         96         68   libspace.o
       138          0          0          0          0         80   lludiv10.o
        24          4          0          0          0         84   noretval__2printf.o
         8          4          0          0          0         68   rt_errno_addr_intlibspace.o
         8          4          0          0          0         68   rt_locale_intlibspace.o
         2          0          0          0          0          0   rtexit.o
        10          0          0          0          0          0   rtexit2.o
       128          0          0          0          0         68   strcmpv7m.o
        74          0          0          0          0         80   sys_stackheap_outer.o
         2          0          0          0          0         68   use_no_semi.o
         2          0          0          0          0         68   use_no_semi_2.o
        24          0          0          0          0        164   basic.o
        98          4          0          0          0        140   d2f.o
       826         16          0          0          0        492   daddsub_clz.o
        24          0          0          0          0        116   dcmpi.o
       688        140          0          0          0        256   ddiv.o
        94          4          0          0          0        140   dfix.o
        90          4          0          0          0        140   dfixu.o
        46          0          0          0          0        116   dflt_clz.o
       120          4          0          0          0        140   dleqf.o
       340         12          0          0          0        152   dmul.o
       156          4          0          0          0        140   dnaninf.o
        12          0          0          0          0        116   dretinf.o
       408         56          0          0          0        168   dsqrt_umaal.o
        86          4          0          0          0        132   f2d.o
       140          4          0          0          0        132   fnaninf.o
        10          0          0          0          0        116   fpinit.o
        10          0          0          0          0        116   fretinf.o
         4          0          0          0          0        116   printf1.o
         0          0          0          0          0          0   usenofp.o
       864         94         80          0          0        280   asin.o
       744        106        152          0          0        352   atan.o
       496         64          0          0          0        192   atan2.o
       104         16          0          0          0        496   dunder.o
        44          0          0          0          0        248   fabs.o
        48          0          0          0          0        124   fpclassify.o
       208          6          0          0          0        152   modf.o
       248          0          0          0          0        152   poly.o
         0          0          8          0          0          0   qnan.o
       110          0          0          0          0        148   sqrt.o

    ----------------------------------------------------------------------
     10650        746        416          0        100       7740   Library Totals
        24          0          0          0          4          0   (incl. Padding)

    ----------------------------------------------------------------------

      Code (inc. data)   RO Data    RW Data    ZI Data      Debug   Library Name

      4584        208        176          0         96       2704   c_w.l
      3176        252          0          0          0       2892   fz_wm.l
      2866        286        240          0          0       2144   m_wm.l

    ----------------------------------------------------------------------
     10650        746        416          0        100       7740   Library Totals

    ----------------------------------------------------------------------

==============================================================================


      Code (inc. data)   RO Data    RW Data    ZI Data      Debug   

     46130       3324      63822       7128       3440     546674   Grand Totals
     46130       3324      63822       3160       3440     546674   ELF Image Totals (compressed)
     46130       3324      63822       3160          0          0   ROM Totals

==============================================================================

    Total RO  Size (Code + RO Data)               109952 ( 107.38kB)
    Total RW  Size (RW Data + ZI Data)             10568 (  10.32kB)
    Total ROM Size (Code + RO Data + RW Data)     113112 ( 110.46kB)

==============================================================================

