:020000040800F2
:10000000D8070020CD0100087D150008AB120008BC
:1000100041140008D3020008311900080000000054
:100020000000000000000000000000004B16000867
:10003000D502000800000000491600084D1600080F
:10004000E7010008E7010008E7010008E7010008F0
:10005000E7010008E7010008E7010008E7010008E0
:10006000E7010008E7010008E7010008E7010008D0
:10007000E7010008E7010008E7010008E7010008C0
:10008000E7010008E7010008E7010008E7010008B0
:10009000E7010008E7010008E7010008E7010008A0
:1000A000E7010008B1160008E7010008E7010008B1
:1000B000E7010008E7010008E7010008E701000880
:1000C000E7010008E7010008E7010008E701000870
:1000D000E7010008E7010008E7010008E701000860
:1000E000E7010008E7010008E7010008E701000850
:1000F000E7010008E7010008E7010008E701000840
:10010000E7010008E7010008E7010008E70100082F
:10011000E7010008E7010008BD160008E701000834
:10012000E7010008E7010008E7010008E70100080F
:1001300000F002F800F03AF80AA090E8000C8244BF
:100140008344AAF10107DA4501D100F02FF8AFF29C
:10015000090EBAE80F0013F0010F18BFFB1A43F0A5
:1001600001031847501E0000701E0000103A24BF03
:1001700078C878C1FAD8520724BF30C830C144BF0C
:1001800004680C607047000000230024002500264E
:10019000103A28BF78C1FBD8520728BF30C148BFEA
:1001A0000B6070471FB51FBD10B510BD00F058F8AB
:1001B0001146FFF7F7FF01F0CDFB00F076F803B42E
:1001C000FFF7F2FF03BC00F07DF80000094880470C
:1001D00009480047FEE7FEE7FEE7FEE7FEE7FEE729
:1001E000FEE7FEE7FEE7FEE704480549054A064B41
:1001F00070470000AF16000831010008D801002048
:10020000D8070020D8030020D80300204FF00002B8
:1002100000B5134694469646203922BFA0E80C50FC
:10022000A0E80C50B1F12001BFF4F7AF090728BFD7
:10023000A0E80C5048BF0CC05DF804EB890028BF53
:1002400040F8042B08BF704748BF20F8022B11F07C
:10025000804F18BF00F8012B7047704770477047F8
:10026000754600F02BF8AE4605006946534620F06F
:100270000700854618B020B5FFF7B6FFBDE820405F
:100280004FF000064FF000074FF000084FF0000B52
:1002900021F00701AC46ACE8C009ACE8C009ACE805
:1002A000C009ACE8C0098D46704710B50446AFF3ED
:1002B00000802046BDE81040FFF781BF004870472E
:1002C0007801002001491820ABBEFEE7260002009D
:1002D0007047FEE7704772B6FEE700002DE9F84F61
:1002E000DFF8C891002409F1040A0AF1040B23463F
:1002F0000F270BF1040ED1E00125A54006EA050207
:10030000AA4276D1DFF8A8C14E68A6EB0C08664574
:100310002BD00DDC032E34D005DC36B3012E19D0E2
:10032000022E2FD11BE0112E16D0122E2AD119E049
:10033000B8F5881F19D006DCB8F5803F15D0B8F5A0
:10034000801F1FD111E0B8F5001F0ED0B8F5041FB3
:1003500018D10AE0CB6815E0CB681B1D12E0CB6812
:1003600008330FE0CB680C330CE08B682BB1012B0A
:100370004FF0080303D0456104E0042302E0056167
:1003800000E00023FF2A01D8064601E000F1040640
:100390004FEA840501D9A5F12005D6F8008007FAB7
:1003A00005FC28EA0C0803FA05F548EA0508C6F832
:1003B00000804D68ED0070D53E4DAE6946F00106F7
:1003C000AE61AD6924F0030605F0010500953A4DD4
:1003D00006EB050CDCF80850A607360F07FA06F8FE
:1003E00025EA0805DFF8D480404503D14FF0000826
:1003F00025E052E0DFF8C880404502D14FF0010807
:100400001DE0DFF8C080404502D14FF0020816E041
:10041000DFF8B480404502D14FF003080FE0DFF869
:10042000AC80404502D14FF0040808E0DFF8A0801E
:10043000404502D14FF0050801E04FF0060808FAE8
:1004400006F848EA0508CCF808804D68D9F800603D
:10045000ED034D4601D5164300E096432E604D68EE
:10046000DAF80060AD03554601D5164300E0964327
:100470002E604D68DBF80060ED025D4601D5164345
:1004800000E096432E604D68DEF80060AD027546D0
:1004900001D5164300E096432E60641C0A68164698
:1004A000E2407FF429AFBDE8F88F0000000401406E
:1004B000000011100010024000000140000801403F
:1004C000000C0140001001400014014000180140E0
:1004D000001C01400AB1016170470904FBE70000FC
:1004E00001488068704700000800002002488168C9
:1004F000027811448160704708000020074810B559
:10050000016841F010010160032000F075F800203F
:1005100000F006F800F024F8002010BD0020024092
:1005200070B50D4D04464FF47A712878B1FBF0F0A8
:100530000A490968B1FBF0F000F0CCFA48B9102C78
:1005400007D200222146501E00F036F800206C60D1
:1005500070BD012070BD00000800002014000020C4
:100560000C4808B5816941F001018161816901F0A0
:1005700001010091C16941F08051C161C06900F081
:10058000805000900448416821F0E06141F0007122
:10059000416008BD0010024000000140002809DB56
:1005A00000F01F02012191404009800000F1E0208D
:1005B000C0F8001170470000F0B40E4B1B680C46E9
:1005C000C3F30223C3F10705042D00D90425191D27
:1005D000072901D2002300E0DB1E012606FA05F1FF
:1005E000491E214099409E40761E16403143F0BC82
:1005F00001F09FB90CED00E0064900F00702086821
:100600004FF6FF03184040EA0220034A10430860F7
:10061000704700000CED00E00000FA052DE9F047FE
:100620000F46050061D0434E306800F00700B84225
:1006300009D2306820F0070038433060306800F09D
:100640000700B84251D128683B4C810712D54007BA
:1006500003D5606840F4E06060602878000703D547
:10066000606840F4605060606068A96820F0F00045
:10067000084360602878C00728D06868012810D037
:100680002168022810D0890700292EDA616821F03C
:10069000030101436160FFF723FF804641F288397F
:1006A0000DE021688903EFE78901EDE7FFF718FF07
:1006B000A0EB0801494502D90320BDE8F087606836
:1006C000696800F00C00B0EB810FEFD1306800F0EA
:1006D0000700B8420BD9306820F00700384330607B
:1006E000306800F00700B84201D00120E5E7287823
:1006F000400705D56068E96820F4E0600843606061
:100700002878000706D56068296920F4605040EA1F
:10071000C100606000F018F86168084AC1F3031175
:10072000515CC8400649086006480068FFF7F8FEBB
:100730000020C2E70020024000100240A21F000873
:10074000140000200C00002012A185B00FC98DE814
:100750000F0014A0144A006804905168134801F077
:100760000C03042B10D0082B0ED1C1F38343C90313
:100770001DF803000AD5516804AAC1F34041515C39
:100780000A4A5043B0FBF1F005B0704708494843AE
:10079000FAE7000002030405060708090A0B0C0D1E
:1007A0000E0F1010010200000010024000127A002B
:1007B00000093D002DE9F84F040070D02078C04DAD
:1007C000C00749D06868C0F38100012807D0686875
:1007D000C0F38100022809D16868C00306D52868E3
:1007E000800339D560680028E7D035E06068B0F54F
:1007F000803F0BD010B1B0F5A02F11D0286820F4A5
:1008000080302860286820F4802002E0286840F4C6
:1008100080302860606890B1FFF762FE06460AE00B
:10082000286840F480202860F0E700BFFFF758FEFA
:10083000801B642873D828688003F7D50CE0FFF785
:100840004FFE064605E000BFFFF74AFE801B642806
:10085000F0D828688003F7D420789A4E80074FF0AC
:1008600001094FF0000839D5686810F00C0F07D067
:100870006868C0F38100022809D16868C00306D403
:100880002868800714D52069012808D110E0206964
:10089000B0B1C6F80090FFF723FE074605E00AE175
:1008A000FFF71EFEC01B0228C4D828688007F7D5B2
:1008B0002868616920F0F80040EAC10028600DE076
:1008C000C6F80080FFF70CFE074604E0FFF708FEBD
:1008D000C01B022823D828688007F7D42078000797
:1008E0002CD57948A169D9B1C0F80090FFF7F8FD7F
:1008F000074604E0FFF7F4FDC01B02280FD8686A22
:100900008007F7D571484FF4FA510068B0FBF1F059
:10091000009000BF0098411E0091FAD20EE080E0E6
:10092000C0F80080FFF7DCFD074604E0FFF7D8FDC4
:10093000C01B022875D8686A8007F7D42078400762
:1009400060D5E8690027C00008D4E86940F080500D
:10095000E861E869012700F0805000905C48016878
:10096000C90513D40168834641F480710160FFF723
:10097000B7FD824606E000BFFFF7B2FDA0EB0A001C
:1009800064284ED8DBF80000C005F5D5E0680128E2
:100990000AD008B1052813D0286A20F00100286287
:1009A000286A20F0040002E0286A40F00100286272
:1009B000E06841F2883B98B1FFF792FD82460BE078
:1009C000286A40F004002862EEE700BFFFF788FDC8
:1009D000A0EB0A0159455AD8286A8007F6D50CE0E1
:1009E000FFF77EFD824605E0FFF77AFDA0EB0A01E6
:1009F00059454CD8286A8007F6D41FB1E86920F021
:100A00008050E861E06988B36968C1F38101022917
:100A100044D00228C6F8608004D0FFF761FD044688
:100A200038E034E0FFF75CFD074604E0FFF758FDCF
:100A3000C01B02282BD828688001F7D4206AB0F5A3
:100A4000803F05D16868A16820F4003008436860E1
:100A5000D4E908010843696821F474110843686007
:100A6000C6F86090FFF73CFD044606E025E000BFB5
:100A7000FFF736FD001B022809D828688001F7D54A
:100A80001BE000BFFFF72CFD001B022802D903204A
:100A9000BDE8F88F28688001F4D40EE00128F7D073
:100AA0006868226A00F48031914204D1616A00F4DE
:100AB0007010884201D00120EAE70020E8E700003A
:100AC0000010024000004242800442421400002014
:100AD0000070004010B5401EB0F1807F01D30120AE
:100AE00010BD4FF0E02460610F21601700F021FF7E
:100AF0000020A06107202061002010BD70477047D2
:100B000070B590F83C20012A32D0012480F83C4096
:100B1000022280F83D2003685A689D6822F0700622
:100B20000A6832435A60134B02689A4214D0124B3F
:100B30009A4211D0B2F1804F0ED0104B9A420BD096
:100B40000F4B9A4208D00F4B9A4205D00E4B9A4257
:100B500002D00E4B9A4204D1496825F08003194314
:100B6000916080F83D40002180F83C10084670BD3F
:100B7000022070BD002C0140003401400004004000
:100B800000080040000C0040004C014000180040EC
:100B900010B5040003D094F83D0010B107E0012027
:100BA00010BD002084F83C00204600F01FF8022011
:100BB00084F83D00211D206800F086FD012084F8A6
:100BC000460084F83E0084F83F0084F8400084F832
:100BD000410084F8420084F8430084F8440084F81B
:100BE000450084F83D00002010BD000008B50068F5
:100BF0000B49884212D10B48C16941F01001C16113
:100C0000C069002200F01000009001213620FFF79B
:100C1000D3FCBDE808403620FFF7C0BC08BD00008B
:100C2000001000400010024090F83D10012901D052
:100C300001207047022180F83D100168CA6842F027
:100C40000102CA6000681149884214D010498842E4
:100C500011D0B0F1804F0ED00E4988420BD00E4912
:100C6000884208D00D49884205D00D49884202D0FB
:100C70000C49884204D1816801F00701062903D09C
:100C8000016841F00101016000207047002C014023
:100C9000003401400004004000080040000C004007
:100CA000004C0140001800402DE9F0410D460400C1
:100CB00003D094F83D0018B108E00120BDE8F081B0
:100CC000002084F83C00204600F040F8022084F820
:100CD0003D002068816844F2070291438160211D34
:100CE000206800F0F1FC226890689169166A2B6810
:100CF000AF69034340F20330814341EA0721A8680A
:100D0000EF6908434FF6FC418843E96840EA072051
:100D1000014328692F6A000140EA073008436968E7
:100D20006D6926F0220646EA05152943936022687C
:100D3000906154F8460B0162012004F81F09E07528
:100D40002076E0762077A0750020B7E700B585B063
:100D50000021009101910291039100681649884297
:100D600028D11648816941F400618161816901F4EB
:100D700000610491816941F04001816180696946A7
:100D800000F0400004904FF4206000900C48FFF702
:100D9000A5FA0C48416821F0C00141F0E06141F042
:100DA000C0014160002211461920FFF705FC1920FF
:100DB000FFF7F4FB05B000BD002C0140001002401D
:100DC000001801400000014070B590F83E600446F4
:100DD00090F83F5090F8423090F84320022021B123
:100DE00004290ED0012E1BD114E0012E18D1012BA5
:100DF00016D184F83E0084F84200012200212068C8
:100E000020E0012D0CD1012A0AD184F83F0084F89A
:100E1000430014E0012D03D1012B01D1012A01D09F
:100E2000012070BD84F83E0084F83F0084F8420041
:100E300084F8430001220021206800F0A9FC01226F
:100E40000421206800F0A4FC2068016841F0010141
:100E50000160002070BD704770B5044600680169EC
:100E60004FF00005C943890715D4C168C9438907F4
:100E700011D4E91E01610120207720688069800774
:100E8000204602D0FFF7E7FF04E000F0BDF820465F
:100E900000F060F9257720680169C943490717D434
:100EA000C168C943490713D46FF0040101610220EE
:100EB00020772068806910F4407F204602D0FFF739
:100EC000CAFF04E000F0A0F8204600F043F92577BF
:100ED00020680169C943090716D4C168C9430907D5
:100EE00012D46FF008010161042020772068C069E6
:100EF0008007204602D0FFF7AEFF04E000F084F840
:100F0000204600F027F9257720680169C943C90602
:100F100017D4C168C943C90613D46FF01001016129
:100F2000082020772068C06910F4407F204602D056
:100F3000FFF791FF04E000F067F8204600F00AF99F
:100F4000257720680169C943C90708D1C168C94329
:100F5000C90704D1891E0161204600F061F92068AB
:100F60000169C943090609D4C168C943090605D402
:100F70006FF0800101612046FFF7C0FD2068016924
:100F8000C943490609D4C168C943490605D46FF06D
:100F900040010161204600F087F920680169C943DA
:100FA00089060BD4C168C943890607D46FF02001B4
:100FB00001612046BDE87040FFF7A1BD70BD000093
:100FC00000B585B000210091019102910391006864
:100FD0000A49884210D10A48816941F004018161BF
:100FE0008069694600F0040004900220009001909E
:100FF00003900448FFF772F905B000BD000C0040F3
:101000000010024000080140704770B5044690F897
:101010003C000D4601280AD0012084F83C0042B172
:10102000042A18D0082A2AD00C2A4DD139E00220EF
:1010300070BD206800F0BAFB2068816941F00801AA
:1010400081612068816921F00401816120688169E2
:101050002A69114311E0206800F0D8FB20688169FB
:1010600041F4006181612068816921F480618161BE
:10107000206881692A6941EA0221816124E02068AF
:1010800000F0FAFB2068C16941F00801C1612068E5
:10109000C16921F00401C1612068C1692A69114355
:1010A00011E0206800F01CFC2068C16941F4006177
:1010B000C1612068C16921F48061C1612068C16992
:1010C0002A6941EA0221C161002084F83C0070BD18
:1010D00010B5040003D094F83D0010B107E00120E2
:1010E00010BD002084F83C00204600F01FF80220CC
:1010F00084F83D00211D206800F0E6FA012084F804
:10110000460084F83E0084F83F0084F8400084F8EC
:10111000410084F8420084F8430084F8440084F8D5
:10112000450084F83D00002010BD000008B50068AF
:101130000649884208D10648C16941F00801C161E9
:10114000C06900F00800009008BD0000000C0040DD
:10115000001002407047000010B50446022249B159
:1011600004290ED0082913D094F84100012816D084
:10117000012010BD94F83E000128F9D184F83E20EA
:101180000FE094F83F000128F2D184F83F2008E0F6
:1011900094F840000128EBD184F8402001E084F865
:1011A00041200122206800F0F3FA16492068164A0F
:1011B000884201D0904203D1436C43F4004343641E
:1011C0002068884213D0904211D0B0F1804F0ED0E9
:1011D0000E4988420BD00E49884208D00D498842FA
:1011E00005D00D49884202D00C49884204D181685B
:1011F00001F00701062903D0016841F001010160F7
:10120000002010BD002C01400034014000040040CB
:1012100000080040000C0040004C01400018004055
:1012200070B502681A481B4C1B490368B4F90800E2
:1012300009689A421BD14A6ACB6AC96AA2EB530277
:1012400012B2484302EB500565602068281A00F08E
:10125000E9FC124900F004FC114900F02FFD256063
:10126000E06010480078BDE8704000F03BB98A4269
:101270000CD14B6A42F21072934201D2401C03E03F
:101280004B6A934201D9401E20814A6270BD000022
:101290003001002018000020A00000200000C344FE
:1012A0000080BB45000000207047FEE730B585B0E8
:1012B000002418480094019402940394816941F039
:1012C00004018161816901F004010491816941F0A7
:1012D00010018161816901F010010491816941F07F
:1012E0004001816180690C4D00F0400004900022B3
:1012F00030212846FFF7EEF8302000900120CDE99C
:1013000001040220039069462846FEF7E7FF05B076
:1013100030BD0000001002400010014010B58CB03C
:1013200024216846FEF772FF0024164809941449E8
:101330000A94C0E9001444F62061C0E90241046146
:10134000446184610320CDE900040120CDE9020459
:101350000494CDE90540079469460A480894FFF7CC
:10136000A3FC08B1FEF7B7FF099409A905480A9440
:10137000FFF7C6FB002801D0FEF7ADFF0CB010BD93
:10138000002C0140A000002010B58AB00024079472
:101390001C2168460894FEF739FF1748154901607B
:1013A0004721C0E9011442F21071C0E90314802101
:1013B0008161FFF78DFE08B1FEF78DFF079407A945
:1013C0000D480894FFF79CFB08B1FEF784FF6020EE
:1013D000CDE9000402940422694607480494FFF70B
:1013E00014FE08B1FEF777FF0348FFF7E9FD0AB0E6
:1013F00010BD0000000C0040E80000201CB50024D7
:101400000E4800940C49019401604721C0E9011481
:1014100042F210718461C160FFF7BAFB08B1FEF7B8
:101420005AFF0094694605480194FFF769FB0028BC
:1014300001D0FEF750FF1CBD00100040300100201D
:10144000FEE700007CB53C211C48FFF7BDFC1C48B2
:10145000FFF7EAFB04211B48FFF77EFE174842F224
:101460001071026851620068C16841F00101C160F9
:101470001548164C164D00784FF00003A8B1154ED4
:10148000CDE9005432461449144800F086F8134858
:10149000CDE9005400231A463146243000F07DF88F
:1014A0000E4900203C3908817CBD0C48CDE9005430
:1014B0004FF081420A492438F0E70000A0000020E4
:1014C00030010020E80000200000002000401C4601
:1014D00000409C459A99D93F00007A43540000206F
:1014E000000016432DE9F041214C0100214F224E0E
:1014F000E5684FF0000002D0012908D025E01C4823
:101500002A461830216900F050F8606B0FE06068DF
:1015100000F088FB8046606900F084FB01461448B7
:101520002B4642463C3000F02AF8D4F88400B0F54F
:10153000000F0ADB00F056FB396888630022102197
:101540003046FEF7C7FF01220BE080F0004000F0BC
:1015500049FB39688863012210213046FEF7BAFF43
:1015600000223046BDE8F0412021FEF7B3BF000065
:1015700018000020E800002000100140FEE770B5D0
:1015800004461D46243000F010F82A462046216CFF
:1015900000F00BF8E069A06470BD30B5DDE90345EB
:1015A0000562846180E80E0030BD70B50B46C568E9
:1015B000044605611146184600F07EFC06462946A1
:1015C000E06000F079FCA16800F078FB0546304649
:1015D000216800F073FB294600F0D4F9E061304641
:1015E000616800F06BFB616900F0CCF90146606155
:1015F000A06980F0004000F02DFC03D8A06980F0C5
:10160000004107E0D4E9050100F024FC01D8A169FC
:1016100000E061696161E06900F0B4F90146E061F0
:10162000206A80F0004000F015FC03D8206A80F0AA
:10163000004007E0D4E9070100F00CFC01D8206A63
:1016400000E0E069E06170BD70477047FEF74EBF93
:1016500030B58FB028216846FEF7D8FD14210AA8BE
:10166000FEF7D4FD01210804CDE900100024029406
:1016700002250491CDE907504FF4E0100990684627
:10168000FFF798F808B172B6FEE70F20CDE90A051A
:101690004FF48060CDE90C4002210AA80E94FEF7B9
:1016A000BDFF002801D072B6FEE70FB030BD704715
:1016B0000148FFF7D1BB0000A00000200148FFF760
:1016C000CBBB000030010020F0B50268254C264D50
:1016D000264E274F274B4FF0804CA04209D098420E
:1016E00007D0604505D0A84203D0B04201D0B8422F
:1016F00004D122F0700E4A6842EA0E02A0421BD0CA
:10170000984219D0604517D0A84215D0B04213D0E6
:10171000B84211D0184DA8420ED0184DA8420BD097
:10172000174DA84208D0174DA84205D0164DA84223
:1017300002D0164DA84203D122F44075CA682A434C
:101740004D6922F080022A4302608A68C2620A68F8
:101750008262A04201D0984201D10969016301214E
:101760004161F0BD002C0140000400400008004031
:10177000000C004000340140004C0140005001408A
:101780000054014000180040001C004000200040B0
:1017900010B501F01F030121046A99408C430462D3
:1017A000016A9A401143016210BD0000F0B5026A5F
:1017B00022F001020262036A42688469124E24F038
:1017C00073050C682C4323F002058B682B430D4DE9
:1017D000A84201D0B04205D123F00807CB683B43B3
:1017E00023F00403A84201D0B04205D14D6922F490
:1017F000407215438A692A434260846149684163A3
:101800000362F0BD002C014000340140F0B5026AD3
:1018100022F010020262026A436884690D6824F4AF
:10182000E64444EA05248D6822F0200242EA0512CB
:101830000F4D104EA84201D0B04206D1CF6822F021
:10184000800242EA071222F04002A84201D0B042D0
:1018500007D14D6923F4406343EA85038D6943EA68
:10186000850343608461496881630262F0BD0000C2
:10187000002C014000340140F0B5026A22F480726D
:101880000262026A4368C46922F4007224F073059C
:101890000C68124E2C438D6842EA05220E4DA84278
:1018A00001D0B04206D1CF6822F4006242EA07229A
:1018B00022F48062A84201D0B04207D14D6923F4DE
:1018C000405343EA05138D6943EA05134360C4613D
:1018D0004968C1630262F0BD002C01400034014040
:1018E00030B5026A22F480520262046A4268C36917
:1018F0000D6823F4E64343EA05238D6824F400547D
:1019000044EA0534084DA84202D0084DA84204D14B
:101910004D6922F4804242EA85124260C3614968FF
:101920000164046230BD0000002C0140003401401D
:10193000FEE70907090E002804DB00F1E02080F82B
:101940000014704700F00F0000F1E02080F8141D33
:1019500070470000FEF7D2FDFFF77AFEFFF7A6FC06
:10196000FFF7DCFCFFF74AFDFFF70EFDFFF76AFD0E
:101970000248034900680861FEE7000004000020F7
:101980001800002090EA010F48BF81F0004100F1EB
:101990009A82421A3CBF801A89184FEAD0524FF0FF
:1019A0007F4C1CEA410FA2EBD15318BF9CEA026F97
:1019B00000F03B804FF0004C4CEA00204CEA012143
:1019C00021FA03FC10EB0C0C1ED202F1FF325FEA8D
:1019D0001C2040EBC25038BF70471CF07F0F4FEA0D
:1019E000400C18BFBCF17F4F38BF7047C3F12003D4
:1019F000994008BF20F00100BCF17F4F38BF70470D
:101A0000A0F1C04000F021BA4FEA3C00000A40EBD0
:101A1000C25028BF1CF0FF0F4FEA400CE6D018BFA1
:101A2000BCF17F4F38BF7047EAE79CEA026F05D0F0
:101A300010EA5C0F08BF00F00040704710B500F0DE
:101A4000BEF900BF64FBBE3E401058BFC0F140402D
:101A5000491058BFC1F140418142EFF30080704707
:101A60004FF47F0C1CEAD0121EBF1CEAD11392EA7D
:101A70000C0F93EA0C0F00F0858090EA010F48BF2D
:101A800042F4807240F4000C41F400002CF07F41DD
:101A900020F07F4000B58142A2EB03020FF2081C48
:101AA000ACEB504EC0F100009EF800E04FEA4E0E45
:101AB00000FB0EFC38BF49004FEA2C1C02F5FA026D
:101AC0000CFB0EF34FEACE1E4FEA112C4FEAC12158
:101AD0000EEB635E42EB22420EFB0CFC4FEA1C5302
:101AE00000FB03114FEA112C4FEA01310EFB0CFCF5
:101AF0004FEADC4C00FB0C11C14228BF09184CEB2B
:101B000003335DF804EB10EB410143EBC250B2F537
:101B10007C0F38BF704729D512F0F00F1CBF00F1C1
:101B2000C04000F000407047008182838485868732
:101B300088898B8C8D8E8F919293959697999A9C8C
:101B40009D9FA0A2A3A5A7A8AAACAEB0B2B3B5B7FB
:101B5000B9BCBEC0C2C5C7C9CCCED1D4D7D9DCDFD1
:101B6000E2E6E9ECF0F3F7FAFE0000004FEA400C81
:101B70000CF1807CBCF17E4F28BF7047B0F1C040B3
:101B800000F063B990EA010F0CEAD11348BF42F4A8
:101B90008072624538BF634507D213F47F0F16D0B9
:101BA00080EA010000F00040704710B500F007F92E
:101BB000097EFC3E00F005B880EA010000F000401C
:101BC000704780EA010000F0004000F03EB912F4D6
:101BD0007F0F04BF0248704780EA010000F035B96A
:101BE0000000C07FC10DD1F19E0206DB4FEA002349
:101BF00043F0004323FA02F07047004207D54FEA52
:101C00004001B1F1FE4F02D24FF00000704710B515
:101C100000F0D5F849922480002070476FEA200038
:101C20007047000010F0004148BF4042B0FA80F316
:101C300010FA03F2C3F19D030BD051EAC35101EB3B
:101C40001220530638BF704700F1010008BF20F092
:101C50000100704750EA010C00F113801CF5000FE1
:101C600058BFBCF5000F01D48842704707D710F564
:101C7000000F58BF11F5000F15D4884270478942F4
:101C800070471CF5000F04D5BCF5000FF7D5814255
:101C900070474FF0807C1CEB400F38BF1CEB410FAE
:101CA00001D28142704710B500F089F892244900B2
:101CB0004FF000504FF08051FFF7C6BE4FF47F0C3D
:101CC0001CEAD0121EBF1CEAD11392EA0C0F93EA51
:101CD0000C0F00F0478090EA010F48BF42F4807279
:101CE0004FF0004C4CEA00204CEA012102EB0302C9
:101CF000A0FB0113A2F50002002918BF43F0010365
:101D00005B0028BF4FEA330342EB22425FEA132C09
:101D10004CEBC2502EBFBCEB436FB2F57C0F70474B
:101D20004FEA036CBCF1004F08BF20F00100B2F590
:101D30007C0F38BF70470BD582F0FF0212F5803F51
:101D4000C8BF704700F1C040D8BF00F000407047E6
:101D500000F5000C5FEA4C0C48BF7047B0F1C04082
:101D600000F073B890EA010F0CEAD11348BF42F4B7
:101D70008072624538BF634504D280EA010000F0FA
:101D80000040704710B500F01AF800BF8900013E0E
:101D900000F007B800F009B85FEA410C5FEA1C6C7C
:101DA00008D080EA010000F050B85FEA400C5FEA1A
:101DB0001C6CF6D14FF00040A0F5800070470EF18A
:101DC000020E2EF0030E5EF8044B244204D44FEAB8
:101DD0004102B2F17F4F11D84FEA4003B3F17F4F78
:101DE0000CD80ED14FEAD07CB2F17F4F0CEB4C0CEB
:101DF0000CF1020C08BF4CEBD17C04E04FF0080C56
:101E000001E04FEAD17C0CEB4C0324FA03F404F01C
:101E10000704B4F1040C06D20EEB840CBDE81040AC
:101E20004CF0010C6047DFE80CF0070802024FF0AD
:101E30000040A0F5800010BD0846420018BFD2F156
:101E4000807288BF00F0004010BDFF2141EAD050F1
:101E5000C005704751EA000C00F113801CF5000F1B
:101E600058BFBCF5000F01D48142704707D711F568
:101E7000000F58BF10F5000F15D4814270478942FA
:101E800070471CF5000F04D5BCF5000FF7D588424C
:101E900070474FF0807C1CEB410F38BF1CEB400FAC
:101EA00001D28842704780EA010081EA000180EA9D
:101EB0000100FFF7F8BE000090EA010F48BF81F073
:101EC00000413FF566AD421A04D882F00042A0EB13
:101ED000020011444FEAD0524FF07F4C1CEA410FF0
:101EE000A2EBD15318BF9CEA026F4AD04FF0004CCE
:101EF0004CEA00204CEA012121FA03FCB0EB0C0C67
:101F00000FD412F0FE0F36D05FEA4C001DD5001240
:101F100040EBC25038BF70471CF03F0F18BF7047EE
:101F20000BE0A2F101025FEA1C2040EBC25038BF77
:101F300070471CF07F0F18BF7047C3F12003994012
:101F400014BF401E20F00100704780084FEA1223A2
:101F500008BF7047B0FA80FCA2EB0C02CCF1280C51
:101F600060FA0CF093EA122F04BF00EBC2507047E6
:101F70004FEAC3707047130A5FEADC1008BF70476E
:101F8000F6E79CEA026F04D010EA5C0F08BF00205D
:101F9000704710B5FFF713FF40DFF63E81F00040B9
:101FA0007047000000000000000001020304060763
:101FB00008090000D41F00080000002018000000DD
:101FC0006C010008EC1F000818000020C00700008A
:101FD000880100080100000000000000010000006E
:0C1FE00010000000000000000024F400CD
:0400000508000131BD
:00000001FF
