:020000040800F2
:10000000700C0020ED010008AF1D0008AD170008BE
:10001000AB1D0008F71500082F2B0008000000009A
:10002000000000000000000000000000F5220008B1
:10003000FB15000800000000DF210008B1260008C1
:10004000070200080702000807020008070200086C
:10005000070200080702000807020008070200085C
:10006000070200080702000807020008070200084C
:10007000070200080702000807020008070200083C
:10008000070200080702000807020008070200082C
:10009000070200080702000807020008070200081C
:1000A000070200080702000807020008070200080C
:1000B00007020008152700080702000807020008C9
:1000C00007020008070200080702000807020008EC
:1000D000070200080D2900080702000807020008AF
:1000E00007020008070200080702000807020008CC
:1000F00007020008070200080702000807020008BC
:1001000007020008070200080702000807020008AB
:10011000070200080702000807020008070200089B
:10012000070200080702000807020008070200088B
:1001300000F002F800F04AF80AA090E8000C8244AF
:100140008344AAF10107DA4501D100F03FF8AFF28C
:10015000090EBAE80F0013F0010F18BFFB1A43F0A5
:10016000010318476891000088910000103A24BFED
:1001700078C878C1FAD8520724BF30C830C144BF0C
:1001800004680C607047000000230024002500264E
:10019000103A28BF78C1FBD8520728BF30C148BFEA
:1001A0000B607047662906F0E084642900F08480C3
:1001B000002070471FB500F0C9FC0400002000219A
:1001C00005F0B0FCE0601FBD10B510BD00F0EAFD09
:1001D0001146FFF7EFFF04F036F900F008FE03B414
:1001E000FFF7F2FF03BC02F028FD0000094880473A
:1001F00009480047FEE7FEE7FEE7FEE7FEE7FEE709
:10020000FEE7FEE7FEE7FEE704480549054A064B20
:1002100070470000B5260008310100087006002074
:10022000700C00207008002070080020704710B586
:100230004C1084EA530404D54042C1F1000138BF98
:10024000491E1B4204D55242C3F1000338BF5B1E56
:1002500000F042F914F0804F04D04042C1F1000197
:1002600038BF491E14F0004F04D05242C3F10003BE
:1002700038BF5B1E10BD00000FB4044910B503AABF
:10028000029800F02FFC10BC5DF814FB78000020F1
:100290000FB41CB5074B06AA7B446946009005982D
:1002A00000F007FC0020694600F016FC1CBC5DF85D
:1002B00014FB00003D0800002DE9F0410646002433
:1002C00010687529314616A510D0AFF300800028BC
:1002D00002DA404213A507E031688A0701D512A56A
:1002E00002E0490704D511A5012401E0AFF3008025
:1002F00000210A2206F1240709E0B0FBF2FCB0FB62
:10030000F2F302FB1C00303078541846491C0028D8
:10031000F3D123462A463046BDE8F04100F05EB9ED
:10032000000000002D0000002B0000002000000055
:100330002DE9F05F894604464FF0000ADFF824B14A
:10034000FB44C0F820A02046E168884700287DD003
:10035000252806D0D4E901219047206A401C20625C
:10036000F1E700255F462046E168884720280646D9
:1003700007DB312E05D2B81910F8200C08B105435F
:10038000F1E7A80701D525F00405C4F81CA0002753
:10039000C4F818A02A2E09D0304602F047FC38B322
:1003A00004EB8708303EC8F8186019E059F8041BC0
:1003B000204604EB87029161E1688847012F0646D9
:1003C00018D1E069002820DA25F020051DE0D8F8D2
:1003D000180000EB800006EB40003038C8F8180029
:1003E0002046E1688847064602F020FC0028EED14E
:1003F000012F0AD02E2E08D12046E16888477F1CA5
:100400000646022F45F02005C4DBA069002803DA68
:10041000404245F00105A061E80701D025F0100534
:10042000A6B1A6F14100192802D8203645F400658E
:100430004A463146204625604D46FFF7B3FE60B17F
:10044000012807D0ED1D25F0070000E007E000F1CE
:10045000080978E705F1040975E730467AE7206A6C
:10046000BDE8F09FF28D000040EA010310B59B0744
:100470000FD1042A0DD310C808C9121F9C42F8D00E
:1004800020BA19BA884201D9012010BD4FF0FF30BF
:1004900010BD1AB1D30703D0521C07E0002010BDD5
:1004A00010F8013B11F8014B1B1B07D110F8013B61
:1004B00011F8014B1B1B01D1921EF1D1184610BD42
:1004C00002F0FF0343EA032242EA024200F01EBBAD
:1004D000704770477047704753EA020C00F069801C
:1004E0002DE9F04B4FF00006002B1FBFB3FA83F548
:1004F00003FA05F424FA05F65E4012BF1643B2FA79
:1005000082F502FA05F4C5F120051EBF22FA05FCAA
:1005100044EA0C04203556EA044C4FEA144418BF50
:10052000641C4FF000084FF00009904271EB030C7F
:1005300039D3002919BFB1FA81F701FA07F6B0FAE9
:1005400080F700FA07F6C7F120071EBF20FA07FC64
:1005500046EA0C062037B6FBF4FCA7EB0507103F74
:1005600007F01F0BCBF120060CFA0BFB2CFA06F65A
:1005700044BFB3460026202FA4BF5E464FF0000BB9
:100580005BEA060C08BF4FF0010B19EB0B09ABFB44
:10059000027C48EB0608C01B06FB02CC0BFB03CC1D
:1005A00071EB0C01C1E70B46024641464846BDE8E7
:1005B000F08B13B54FF000004FF00001AFF3008057
:1005C000BDE81C40704710B500F0C4FA006810BDCB
:1005D00010B5044600F0BEFA046010BD2DE9F047E6
:1005E0000D4699469246044600F1240801688806A3
:1005F00004D5E06921F01001216000E00120A8424B
:1006000001DD471B00E00027A1697A1902EB090010
:10061000081AA0612078C00602D42046AFF30080FB
:10062000002608E0D4E901211AF806009047206A64
:10063000401C761C20624E45F4DB2078C0060AD5AB
:100640002046AFF3008006E0D4E901213020904736
:10065000206A401C2062381EA7F10107F4DC07E085
:10066000D4E9012118F805009047206A401C206257
:10067000281EA5F10105F3DC2046AFF300802078A9
:10068000000602D50220BDE8F0870120FBE7704795
:100690002DE9FF4F0C461E464FF0FF378BB0D2E9D5
:1006A0000001DDF860800A908A46C1F30A5505B959
:1006B0003D46002108464FF00000BAF1000F00F45B
:1006C000400005DA00EB80004FF4400101EA5000E1
:1006D0004FEA9059B9F1010F00DDB9460A9850EA86
:1006E0004A000ED044F61050A5F2FF3545432F14B2
:1006F000B8F1000F1ED07542291E1EDDC9F100029F
:100700001CE0B8F1010F4FF0000001D0302103E0F0
:10071000F24305E02154401CB042FBDB304600228E
:10072000002121540B99C1F80880C1E900200FB0C5
:10073000BDE8F08FBD1B6D1CDEE74A4600DA69425A
:1007400006A800F091FA06AB93E8070003AB83E834
:10075000070050460A9900F093FB8DE80700A0F5CA
:1007600000501F3800900398002D09DD42F21F0150
:100770004A46084403A90390684600F0F2FD08E0E9
:10078000A0F500504A461F3803A90390684600F0C0
:10079000FCFD8DE807000004000C03D04FF0FF3093
:1007A000410800E01046B8F1000F03D0002200928B
:1007B00015461EE0751E05D400F0D0F930326255A2
:1007C0006D1EF9D5B3460122084302D000227F1CDA
:1007D00004E02078302801D100227F1E002A0997EA
:1007E00086D01DE0112D07DA00F0B8F930326255DD
:1007F0006D1C50EA0102F5D1084302D00098C8B13F
:100800000EE00021681E05E0235C625C6354225404
:10081000401E491C8142F7DBAB46A81B401E0990D5
:10082000002004F80B000B98099AC0F80880C0E972
:10083000002B7CE711264FF0000859E72DE9F04F17
:1008400088460446D21D22F0070191B0D1E900018B
:10085000CDE90A0102F06DF902460B98C00F01D0F4
:100860002D2007E02068810701D52B2002E0202100
:1008700001EAC000032A099001D0072A05DB0346DC
:100880004146204600F0B0F90BE12078800601D502
:10089000E06900E00620B8F1650F814606D0B8F1A6
:1008A000660F18D0B8F1670F70D131E00020B9F1B0
:1008B000110F009001DB112301E009F101030AAAE5
:1008C00001A90CA8FFF7E4FEDDE90C70002609F190
:1008D0000105834647E001204B4600904FF000475A
:1008E0000AAA01A90CA8FFF7D3FEDDE90DB00C9907
:1008F0005D46002610B909F101000D18B9EB05009D
:1009000003D4C0F1FF3609F10105A5EB09002BE086
:10091000B9F1010F01DA4FF001090020B9F1110F0F
:100920000090484601DD112300E003460AAA01A910
:100930000CA8FFF7ADFEDDE90C704D46002683469E
:10094000207800070AD4AB4500DA5D4601A8012DE6
:1009500004DD411911F8011C302907D04F4502DA96
:1009600017F1040F04DA012082460FE06D1EEEE756
:10097000002F02DCED1B3E4403E0781CA84200DDA2
:100980007D1CB81B00F1010A4FF0004720780007DA
:1009900003D4AA4501DB4FF0FF3A0021B7F1004F25
:1009A0000DF143088DF8431024D002202B23002F93
:1009B00001DA7F422D230A21021EA0F1010000DC92
:1009C0005FB197FBF1FC97FBF1F201FB1C7C174632
:1009D0000CF1300C08F801CDEEE7A8F1010003702E
:1009E0002188090501D5452100E06521A0F1010814
:1009F00000F8011C09980FA9A1EB0807FF1D00B121
:100A00000120411901EBEA70A1693844081A401E1F
:100A1000A0612078C00602D42046AFF30080099878
:100A200028B1D4E901219047206A401C2062207837
:100A3000C00622D52046AFF300801EE0002E04DB66
:100A4000B34502DD01A8805D00E03020D4E901213A
:100A50009047206A401C2062761CAAF101005FEAE0
:100A6000000A0AD100F072F8C0680168405CD4E95D
:100A700001219047206A401C2062281EA5F1010533
:100A8000DCDC07E0D4E9012118F8010B9047206A6B
:100A9000401C2062381EA7F10107F3DC2046AFF3AB
:100AA0000080032011B043E601694A1C0261087806
:100AB000704700B58FB0CDE901310021059105499E
:100AC0007944CDE9031011466846FFF731FC0FB0B9
:100AD00000BD0000E5FFFFFF0A6802F8010B0A6095
:100AE00070470000074B70B50D467B44FFF7E1FFF0
:100AF0000446284600F026F910B14FF0FF3070BDD3
:100B0000204670BD573400004FF000020429C0F0A9
:100B1000128010F0030C00F01B81CCF1040CBCF12E
:100B2000020F18BF00F8012BA8BF20F8022BA1EB81
:100B30000C0100F00DB95FEAC17C24BF00F8012B65
:100B400000F8012B48BF00F8012B704700487047A0
:100B500030060020004870471006002030B5B0F184
:100B60000A024FEA900E71F100034EEA817EB0EB6B
:100B70000E0061EB91014FEA101E4EEA017E10EB70
:100B80000E0041EB11114FEA102E4EEA016E10EBF0
:100B90000E0041EB11214FEA104E4EEA014E10EBD0
:100BA0000E0041EB1141401841F100014FEAD00025
:100BB00040EA41704FEAD10110EB80054FEA810411
:100BC00044EA907444EB01046D1944EB0404521B95
:100BD000A3414FF0000348BF0A3200D530BD401C8E
:100BE00041F1000130BD00002DE9F0411F460446EF
:100BF00003260168072A01F4006004DB08B116A58A
:100C000005E016A503E008B115A500E015A521F043
:100C100010002060A069C01EA0610FB1401EA0613D
:100C20002046AFF300804FB1D4E901213846904708
:100C3000206A401C2062C01C206206E0206AFAE79D
:100C4000D4E9012115F8010B9047761EF8D2204611
:100C5000AFF30080BDE8F0814E414E006E616E0042
:100C6000494E4600696E66002DE9F04781461646FA
:100C70008AB0334878440DC88DE80D003048784478
:100C8000801C03AC0DC884E80D0041F69B3008447D
:100C9000372190FBF1F290FBF1F5A5F1800501FB06
:100CA00012041B3C02D56442012000E00020DFF862
:100CB00090A080460027FA44AAF1BE0A0DE0E007A2
:100CC00009D03246684607EB47010AEB810100F084
:100CD0005CFB8DE8070064107F1C002CEFD1184FDF
:100CE0007F44AC3F18E0E80714D007EB04100DF187
:100CF000180A90E80E008AE80E00C068F04201D1A0
:100D000098190890324606A903A800F03EFB03ABF1
:100D100083E807006D10641C002DE4D1324669465B
:100D2000B8F1000F03A802D000F01BFB01E000F0B7
:100D30002CFBC9E90001C9F808200AB0BDE8F0871A
:100D40003C860000007B00F0800070474FF00002FE
:100D500000B5134694469646203922BFA0E80C50B1
:100D6000A0E80C50B1F12001BFF4F7AF090728BF8C
:100D7000A0E80C5048BF0CC05DF804EB890028BF08
:100D800040F8042B08BF704748BF20F8022B11F031
:100D9000804F18BF00F8012B7047000000487047D3
:100DA000100600207546FFF7F9FFAE4605006946BC
:100DB000534620F00700854618B020B5FFF724FA07
:100DC000BDE820404FF000064FF000074FF000084C
:100DD0004FF0000B21F00701AC46ACE8C009ACE8CD
:100DE000C009ACE8C009ACE8C0098D46704710B531
:100DF0000446AFF300802046BDE81040FFF7EFB98E
:100E00004FF0013C50F8042B51F8043B9A4221D199
:100E1000A2EB0C03934313EACC1317D150F8042B25
:100E200051F8043B9A4215D1A2EB0C03934313EA09
:100E3000CC130BD150F8042B51F8043B9A4209D142
:100E4000A2EB0C03934313EACC13DBD04FF000006A
:100E5000704700BFD01A01BAB1FA81F101F0180150
:100E600022FA01F0CB40C1F12001DBB2C0B2C01ABE
:100E70002CFA01F3D11A914311EAC311E6D170475C
:100E80005FEA400C08BF91F0000F4FEA8C234FEA55
:100E9000C12243EA51514FEA1C5018BF00F5F040FF
:100EA0004FEA300018BF41F000415FEA6C5C00F08F
:100EB0002980BCF1FF3F08BF40F080407047130C11
:100EC00006BF12044FF0100C4FF0000C130E04BFBD
:100ED00012020CF1080C130F04BF12010CF1040CE8
:100EE000930F04BF92000CF1020CD30F04BF520009
:100EF0000CF1010C11464FF00002A0F11F00A0EB15
:100F00000C00704711F0004F08BF704731F00041EE
:100F10003FF4D5AF0B0C06BF09044FF0100C4FF097
:100F2000000C0B0E04BF09020CF1080C0B0F04BFE0
:100F300009010CF1040C8B0F04BF89000CF1020CA9
:100F4000CB0F04BF49000CF1010CCCF12003A0EB46
:100F50000C0022FA03F302FA0CF241EA030100F159
:100F60000100704720F07F4C80EA030023F07F47A8
:100F7000ACEB070303F57C5300F0004003F1FF03E3
:100F80002DE980494FEA154B09B44FEA144325EA8D
:100F90000B4E24EA03480FF2042606EB13274908F8
:100FA0003E785FEA320203FB0667C7F5000707FBDE
:100FB00006F64FEA54374FEAD64606F1020607FB1B
:100FC000066CCCF1005C4FEA1C472CEA074C07FB8F
:100FD00006F40CFB06F504EB15464FEA961634BFF3
:100FE00000204FF000404FEAD13706FB07FC4FEAE4
:100FF0001C4C0CFB0BF7D21B03FB0CF761EB07013E
:101000000CFB0EF7B0EB074072EB17420CFB08F736
:1010100034BFA2EB0742B2EB074261EB17414FEA44
:101020000C444FEA910706FB07FC4FEA1C4C0CFBF3
:101030000BF7B0EBC74072EB573203FB0CF734BF32
:10104000A2EBC742B2EBC74261EB57310CFB0EF784
:10105000B0EBC70072EB57720CFB08F734BFA2EB82
:10106000C702B2EBC70261EB5771039F4FEA816180
:1010700041EA921104EBCC044FEAD1374FEA826285
:1010800006FB07FC42EA90124FEA80604FEA1C4CD4
:101090000CFB0BF7D21B03FB0CF761EB07010CFBFE
:1010A0000EF7B0EB074072EB17420CFB08F734BFAA
:1010B000A2EB0742B2EB074261EB17414FEA8C55B6
:1010C0004FEA910704EB9C2406FB07FC4FEA1C4CFB
:1010D0000CFB0BF7B0EBC74072EB573203FB0CF77E
:1010E00034BFA2EBC742B2EBC74261EB57310CFBF6
:1010F0000EF7B0EBC70072EB57720CFB08F734BF6A
:10110000A2EBC702B2EBC70261EB577115EB4C259E
:101110004FEA816141EA92114FEA82624FEAD13788
:1011200042EA901206FB07FC44F100044FEA80609B
:101130004FEA1C4C0CFB0BF7D21B03FB0CF761EBCB
:1011400007010CFB0EF7B0EB074072EB17420CFBEC
:1011500008F734BFA2EB0742B2EB074261EB17413D
:1011600015EB1C154FEA813141EA92414FEA823278
:1011700042EA90424FEA80304FEA0C7644F1000494
:1011800048EA03434EEA0B484FF0000EB2EB080C5E
:1011900071EB030724BF624639464EEB0E0E4FF04B
:1011A000000B0018524149414BEB0B0BB2EB080C02
:1011B00071EB03077BF1000B24BF624639464EEB0F
:1011C0000E0E4FF0000B0018524149414BEB0B0B38
:1011D000B2EB080C71EB03077BF1000B24BF6246F6
:1011E00039464EEB0E0E51EA020718BF46F00106D3
:1011F00016EB0E7655F1000254F1000103D5BDE85F
:101200008901BDE80088BDE88901BDE80048B6193C
:10121000524141EB0101A3F10103704780807F7EC1
:101220007D7C7B7A7978777676757473727171705C
:101230006F6E6E6D6C6C6B6A6A696868676666650E
:101240006464636362616160605F5F5E5E5D5D5C9C
:101250005C5B5B5A5A59595858575756565555550D
:101260005454535352525251515050504F4F4F4E6D
:101270004E4D4D4D4C4C4C4B4B4B4A4A4A494949BB
:1012800048484847474747464646454545444444FD
:10129000444343434342424242414141002B26D40E
:1012A000770021D01CB54FEA370703B44FF0100088
:1012B0004FF010014FF000000FBCBDE810400BF1E3
:1012C000010BBBF1010F08BF5FEA170722BF12F144
:1012D000010211F101014FF0004143F1000300F060
:1012E000004043EA00007047F9D35708DAE746EABE
:1012F000064613F1400F4FEA16461FDD13F1200F8B
:10130000DFBF16430A46002120335B42C8D0C3F139
:10131000200746EA064602FA07F74FEA164646EA6B
:101320000706C3F1200722FA03F201FA07F721FAB0
:1013300003F14FF0000342EA0702B1E746EA020672
:1013400046EA06464FEA164646EA0106BCBF46EAAA
:101350000646360C4FF000034FF000024FF000013C
:101360009EE72DE9C048934630B491E8380007C89D
:1013700031EA400C48BF34EA430C03D5FFF7F2FDD5
:10138000FFF78CFFF0BCBDE800882DE9C04893460C
:1013900030B491E8380007C810F0804F08BF13F050
:1013A000804F03D100F005F8FFF778FFF0BCBDE8EF
:1013B000008820F07F4780EA030023F07F4C07EB92
:1013C0000C03A3F57C5300F00040A3F1FE0392F060
:1013D000000F00F0B38095F0000F00F077802DE94A
:1013E00001494FEA11404FEA144621EA004800FB48
:1013F00006FC24EA064708FB06F607FB08F800FB94
:1014000007F718EB06484CEB164C4FEA124B18EB5B
:1014100007484FEA15464CEB174022EA0B4E0BFBF0
:1014200006FC25EA06470EFB06F607FB0EFE0BFB45
:1014300007F71EEB064E4CEB164C4FF000061EEB6A
:10144000074E4CEB174B18EB0B0840F1000018EB64
:101450000E0B58EB000840F100008F1A4FF000010E
:101460003CBFC943661B14BFB5EB040C00213CBF55
:10147000C943F61B4FEA17444EEA8E0E27EA04458D
:101480004FEA1C4704FB07622CEA074C05FB07F7F1
:101490000CFB05F604FB0CFC16EB074642EB17426F
:1014A00016EB0C4642EB1C421BEB060658EB020205
:1014B000414146EA9E0601D5BDE80189B61952416F
:1014C00041EB0101A3F10103BDE801894FEA144595
:1014D0004FEA114724EA054621EA074C05FB07F4C9
:1014E00006FB07F70CFB06F105FB0CFC11EB0741B3
:1014F00044EB17444FEA124711EB0C4144EB1C44F8
:1015000022EA074C05FB07F206FB07F70CFB06F681
:1015100005FB0CFC16EB074642EB174216EB0C469C
:1015200042EB1C456A1854F1000148BF7047B619D8
:10153000524141EB0101A3F10103704795F0000F07
:1015400037D04FEA11424FEA144721EA024624EA13
:10155000074C02FB07F106FB07F70CFB06F402FB46
:101560000CFC14EB074441EB17414FEA154714EB11
:101570000C4441EB1C4125EA074C02FB07F506FB36
:1015800007F70CFB06F602FB0CFC16EB074645EBD7
:10159000174516EB0C4645EB1C42121951F10001A0
:1015A00048BF7047B619524141EB0101A3F1010355
:1015B00070474FEA14454FEA114724EA054621EAED
:1015C000074C05FB07F106FB07F70CFB06F24FF093
:1015D000000605FB0CFC12EB074241EB174112EB36
:1015E0000C4251EB1C4148BF7047921841EB01017E
:1015F000A3F10103704700BFFEE770472DE9F041FA
:10160000024600250026002000230024002791F830
:1016100003C00CF00F0591F803C00CF0100CBCF1E6
:10162000000F03D091F802C04CEA050591F800C004
:10163000BCF1000F31D0146800202BE04FF0010CFA
:101640000CFA00F3B1F800C00CEA03069E4220D168
:1016500083004FF00F0C0CFA03F7BC4305FA03FCB0
:101660004CEA040491F803C0BCF1280F06D14FF0F6
:10167000010C0CFA00FCC2F814C00AE091F803C097
:10168000BCF1480F05D14FF0010C0CFA00FCC2F878
:1016900010C0401C0828D1D31460B1F800C0BCF1C0
:1016A000FF0F34DD546800202EE000F1080C4FF0ED
:1016B000010808FA0CF3B1F800C00CEA03069E42D8
:1016C00021D183004FF00F0C0CFA03F7BC4305FA4D
:1016D00003FC4CEA040491F803C0BCF1280F05D1C7
:1016E00000F1080C08FA0CF8C2F8148091F803C055
:1016F000BCF1480F07D100F1080C4FF0010808FABF
:101700000CF8C2F81080401C0828CED35460BDE805
:10171000F0810000F0B50A460023002400210025D6
:1017200000F00046B6F1004F02D11D4EF16901E014
:101730001B4E7168C0F3034583B200F44016B6F542
:10174000401F08D121F07061154E766826F0706652
:10175000134F7E6012E000F48016B6F5801F06D1AC
:10176000032606FA05F4A14341F0706106E0460D38
:10177000360103FA06F6B14341F0706122B1460D1D
:10178000360103FA06F6314300F00046B6F1004F89
:1017900002D1034EF16101E0014E7160F0BD000025
:1017A00000000140416170470161704700BFFEE7E2
:1017B00010B580210748FFF7F7FF40210548FFF7E4
:1017C000F3FF80210348FFF7EDFF40210148FFF7B9
:1017D000E9FF10BD0008014010B540210548FFF7A2
:1017E000E3FF80210348FFF7DDFF80210148FFF779
:1017F000DBFF10BD0008014010B540210348FFF792
:10180000D3FF40210148FFF7CDFF10BD0008014084
:1018100008B50121482000F0F3FC2020ADF80000BD
:1018200010208DF8030003208DF802006946094856
:10183000FFF7E4FE20210748FFF7B6FF2020ADF8B0
:10184000000069460448FFF7D9FE20210248FFF74F
:10185000ABFF08BD000C01400018014010B500208E
:101860000E4908600E48006820F470400C4908607A
:101870000846006840F44050086000200949C1F85B
:10188000AC0100F011F801200449086000F00CF8E8
:1018900000200449C1F8A80110BD0000A881214220
:1018A000040C01400080214210B5022001F04AFDE5
:1018B00010BD000008B50121082000F0A1FC4FF484
:1018C0004060ADF8000010208DF8030003208DF873
:1018D000020069460448FFF791FE4FF44061024858
:1018E000FFF762FF08BD0000000C014010B50020AA
:1018F0000E4908600E48006820F470400C490860EA
:101900000846006840F44050086001200949C1F8C9
:10191000AC01FFF7C9FF012004490860FFF7C4FFCD
:1019200000200449C1F8A80110BD0000A88121428F
:10193000040C01400080214270B505460024164881
:10194000006820F47040144908600846006840F4BC
:1019500000400860002614E0002010490860FFF7EE
:10196000A3FF01200E49C1F8A8016006040E0B4830
:101970007C38006808B1601CC4B2FFF795FF701C8A
:10198000C6B2082EE8DB15B9FFF7B0FF01E0FFF79C
:1019900065FF204670BD0000040C0140A881214273
:1019A0000080214270B504461248006820F470405F
:1019B000104908600846006840F440500860002064
:1019C0000D490860002512E0E0090B49091D086077
:1019D0006006040E01200949C1F8A801FFF764FF61
:1019E000002005490860FFF75FFF681CC5B2082D9D
:1019F000EADB70BD040C0140A88121420080214235
:101A000010B50E48006820F470400C490860084684
:101A1000006840F440500860012009490860094905
:101A2000C1F8A801FFF740FF002005490860FFF753
:101A30003BFF00200349C1F8A80110BD040C014080
:101A4000AC8121420080214210B50E48006820F48C
:101A500070400C4908600846006840F44050086037
:101A60000020094908600949C1F8AC01FFF71CFFD3
:101A70000120054908600549C1F8AC01FFF714FFD2
:101A800010BD0000040C0140A881214200802142C9
:101A900010B500241448006820F470401249086012
:101AA0000846006840F40040086001200F490860C3
:101AB000FFF7FAFE01200E49C1F8A801FFF7F4FE76
:101AC00007E0601CC4B2FA2C03DDFFF7BDFF012064
:101AD00010BD0648803800680028F2D10349091F6C
:101AE000086000BFF4E70000040C0140AC81214213
:101AF0000080214238B50121084600F081FB012118
:101B0000042000F07DFB4FF40040ADF800001020F1
:101B10008DF8030003208DF8020069462448FFF782
:101B20006DFD01212348FFF7F5FD002022490860E3
:101B3000FFF7C0FE80216B2000F0E5F8642001F083
:101B4000DBFB00216B2000F0DEF8032000F099F8A9
:101B5000002000F08EF8322000F0B8F80021382084
:101B600000F0D1F800216A2000F0CDF800212320F8
:101B700000F0C9F88021372000F0C5F8752000F08A
:101B800021F8044621460DA0FEF776FB712C0BD1FF
:101B900001216B2000F0B7F800216C2000F0B3F8B1
:101BA000322000F093F801E0012038BD0020FCE76E
:101BB0000008014000023000BC01214249443A259E
:101BC000640D0A0070B50446FFF71AFFD020FFF736
:101BD000E9FEFFF75DFF2046FFF7E4FEFFF758FF41
:101BE000FFF70EFFD120FFF7DDFEFFF751FF0020CA
:101BF000FFF7A2FE0546FFF727FF284670BD2DE937
:101C0000F04106460F4614461D46FFF7F9FE002137
:101C100041EA4601C8B2FFF7C5FEFFF739FF20B120
:101C2000FFF712FF0120BDE8F0813846FFF7BAFE4A
:101C3000FFF72EFFFFF7E4FE012101EB4601C8B2DA
:101C4000FFF7B0FEFFF724FF0DE0012C04D10020C8
:101C5000FFF772FE287003E00120FFF76DFE287089
:101C6000601EC4B26D1C002CEFD1FFF7EDFE00200A
:101C7000D9E710B50446E006010E1C2000F043F839
:101C800010BD10B50446E006010E1B2000F03BF825
:101C900010BD70B504460025BC2C01DB012510E009
:101CA000622C01DB02250CE02A2C01DB032508E075
:101CB000142C01DB042504E00A2C01DB052500E0DF
:101CC000062529461A2000F01EF870BD70B504469E
:101CD000B4F57A7F01DD4FF47A74042C00DA042421
:101CE0004FF47A7090FBF4F0401EC5B229461920DB
:101CF00000F009F80546264604EBD671C1F34F0003
:101D0000FFF7C7FF70BD70B505460C46FFF778FEBC
:101D1000D020FFF747FEFFF7BBFE18B1FFF794FE98
:101D2000012070BD2846FFF73DFEFFF7B1FE2046BB
:101D3000FFF738FEFFF7ACFE18B1FFF785FE012074
:101D4000EFE7FFF781FE0020EBE72DE9F0410546C4
:101D50000E4617469846FFF753FE002141EA45011B
:101D6000C8B2FFF71FFEFFF793FE20B1FFF76CFE2E
:101D70000120BDE8F0813046FFF714FEFFF788FE32
:101D800000240CE018F80400FFF70CFEFFF780FEBB
:101D900018B1FFF759FE0120EBE7601CC4B2BC424A
:101DA000F0DBFFF751FE0020E3E700BFFEE77047DE
:101DB00070B5002100230F22C47804B3154C2468A9
:101DC00004F4E064C4F5E064210AC1F10403CA40EC
:101DD000447804FA03F184781440214309010E4C3D
:101DE0000678A155047804F01F050124AC4005785D
:101DF0006D11AD0005F1E025C5F8004109E004785A
:101E000004F01F050124AC40044D0678761145F816
:101E1000264070BD0CED00E000E400E080E100E051
:101E200002490143024A1160704700000000FA05B0
:101E30000CED00E070B500240CE0002506E0002069
:101E4000074901EBC5010855681CC5B2802DF6DBBA
:101E5000601CC4B2082CF0DB00F0E0F870BD00009C
:101E6000C800002070B50B46CE1701EB5676C6F3BE
:101E7000C702CE1701EB5676F610A1EBC606F4B2F8
:101E80000123A340DDB20E4B03EBC0039B5CDB439D
:101E90000B4E06EBC006B354094B03EBC0039B5C2F
:101EA0002B43074E06EBC006B354054B03EBC003B0
:101EB0009B5CDB43024E06EBC006B35470BD0000D2
:101EC000C800002070B50A46CE1701EB5676C6F35F
:101ED000C703CE1701EB5676F610A1EBC606F4B297
:101EE0000122A240D5B2054A02EBC002D25C2A43CD
:101EF000024E06EBC006F25470BD0000C800002080
:101F000008B50121042000F07BF9C020ADF80000E5
:101F100010208DF8030003208DF8020069463E482A
:101F2000FFF76CFBC0213C48FFF73EFCC82001F0E6
:101F3000E3F90021AE2000F036F90021084600F058
:101F400032F90021102000F02EF90021402000F08D
:101F50002AF90021812000F026F90021CF2000F08D
:101F600022F90021A12000F01EF90021C82000F074
:101F70001AF90021A62000F016F90021A82000F08F
:101F800012F900213F2000F00EF90021D32000F0CB
:101F90000AF90021084600F006F90021D52000F0DA
:101FA00002F90021802000F0FEF80021D92000F085
:101FB000FAF80021F12000F0F6F80021DA2000F014
:101FC000F2F80021122000F0EEF80021DB2000F0F2
:101FD000EAF80021402000F0E6F80021202000F07F
:101FE000E2F80021022000F0DEF800218D2000F050
:101FF000DAF80021142000F0D6F80021A42000F027
:10200000D2F80021A62000F0CEF80021AF2000F089
:10201000CAF8FFF70FFF08BD0008014070B50024A3
:102020001CE004F1B001C8B2002100F0BCF80021AE
:10203000084600F0B8F80021102000F0B4F80025A0
:1020400008E0084901EBC501085D012100F0ABF88B
:10205000681CC5B2802DF4DB601CC4B2082CE0DB28
:1020600070BD0000C80000202DE9FF4F81B0804600
:102070000E461C4600962046E31704EB5373DB1014
:1020800021464FEAE47C04EB5C7C4FEAEC0CA4EBC9
:10209000CC0CBCF1000F02D04FF0010C01E04FF06E
:1020A000000C6344224604EBD27C4FEA6C0C03FB29
:1020B0000CF303F0FF0B03982038C7B2002547E06C
:1020C0000C2C07D107EB4700234901EB800010F8E7
:1020D00005A014E0102C05D1204800EB071010F8E3
:1020E00005A00CE0182C07D107EBC7001C4901EB39
:1020F000800010F805A002E005B0BDE8F08F4FF0B9
:1021000000091FE00AF0800020B131464046FFF789
:10211000D9FE03E031464046FFF7A4FE4FEA4A608D
:102120004FEA106A701CC6B20098301AA04205D15E
:10213000009E08F1010000F0FF0806E009F101002F
:1021400000F0FF09B9F1080FDCDB00BF681CC5B265
:102150005D45B5DB00BFCFE7B67800082A7D0008F3
:102160001A830008F0B506460F4614461D4613E0D4
:1021700022782B4639463046FFF776FF284605EB96
:10218000D07106EB6101CEB2C5F18000B04202DA37
:102190000026B81CC7B2641C2078202802DB2078F7
:1021A0007E28E5DDF0BD70B505460C46FFF700FB67
:1021B000782000F0CFF9FFF71FFB1CB1402000F0A2
:1021C000C9F902E0002000F0C5F9FFF715FB284629
:1021D00000F0C0F9FFF710FBFFF7FEFA70BD704783
:1021E00029B1064AD2690243044BDA6104E0034A8A
:1021F000D2698243014BDA6170470000001002404F
:1022000029B1064A92690243044B9A6104E0034AE9
:1022100092698243014B9A617047000000100240AE
:1022200030B500210022002400232D4D6D6805F0FB
:102230000C0121B1042905D0082923D105E0294D3D
:10224000056022E0274D05601FE0254D6D6805F40F
:102250007012234D6D6805F48034022505EB92421F
:102260001CB9214D554305600BE01D4D6D6805F40B
:1022700000351DB11C4D5543056002E0194D554315
:10228000056002E0174D056000BF00BF144D6D688A
:1022900005F0F0010909154D6B5C0568DD404560EE
:1022A0000F4D6D6805F4E061090A104D6B5C4568DF
:1022B000DD4085600A4D6D6805F46051C90A0B4D1B
:1022C0006B5C4568DD40C560054D6D6805F44041B7
:1022D000890B074D6B5CC568B5FBF3F5056130BD37
:1022E0000010024000127A0000093D007E0000202C
:1022F0008E0000207047000010B54FF4A060FFF77B
:102300008FFD00F0D7FF4FF4E13003F0BBFBFFF788
:102310007FFAFFF7F5FDFFF7EDFB18B93FA0FDF7DA
:10232000ABFF02E041A0FDF7A7FF62E002F0DEF99B
:10233000424908700846017841A0FDF79DFF3F48DB
:1023400000780B2833D2DFE800F0060A0E12161AC6
:102350001E22262A2E003DA0FDF78EFF2BE040A076
:10236000FDF78AFF27E043A0FDF786FF23E045A0A5
:10237000FDF782FF1FE048A0FDF77EFF1BE04BA0AA
:10238000FDF77AFF17E04FA0FDF776FF13E052A0AC
:10239000FDF772FF0FE056A0FDF76EFF0BE057A0B0
:1023A000FDF76AFF07E059A0FDF766FF03E05CA0B8
:1023B000FDF762FF00BF00BF2048007800B919E0B8
:1023C000C82000F099FF5948006808B9012000E0D2
:1023D0000020564908601948027855A15848FDF771
:1023E00057FF1023564A00210846FFF7BBFEFFF7B0
:1023F00015FE9BE700BF40F2E73000F07DFF1023A1
:1024000050A200210846FFF7ADFEFFF707FE41F698
:102410001F41312000F0CEF910BD00004944B6C183
:10242000C8A1D5FDB3A30D0A000000004944B6C100
:10243000C8A1B2BBD5FDB3A30D0A00001A0000204D
:102440004552524F523A25640D0A0000444D50BF88
:10245000E2B3F5CABCBBAFD5FDB3A30D0A000000C3
:10246000C9E8D6C3B4ABB8D0C6F7CAA7B0DC0D0A6A
:1024700000000000C9E8D6C34649464FCAA7B0DCF1
:102480000D0A0000C9E8D6C3B2C9D1F9C2CACAA7A9
:10249000B0DC0D0A00000000BCD3D4D8646D70B964
:1024A000CCBCFECAA7B0DC0D0A000000C9E8D6C348
:1024B000CDD3C2DDD2C7B7BDCFF2CAA7B0DC0D0AFB
:1024C00000000000C9E8D6C3646D70B9A6C4DCCAB8
:1024D000A7B0DC0D0A000000C9E8D6C3444D50CABD
:1024E000E4B3F6CBD9C2CACAA7B0DC0D0A0000001B
:1024F000D7D4BCECCAA7B0DC0D0A0000CAB9C4DC52
:10250000444D50CAA7B0DC0D0A000000B3F5CABCA8
:10251000BBAF4D505536303530CAA7B0DC0D0A0080
:10252000CEB4D6AAB4EDCEF30D0A000094812142B8
:1025300020202020204552524F523A2564000000AE
:102540009400002020202020204D50553932353075
:102550000000000070B5044600251BE040210F4834
:10256000FFF720F904F0800020B180210B48FFF72D
:102570001BF903E080210948FFF714F940210748BF
:10258000FFF712F940210548FFF70CF96006040E29
:10259000681CC5B2082DE1DB70BD000000080140D9
:1025A00010B500F001F810BD0CB5002001900090AE
:1025B0003348006840F480303149086000BF30483B
:1025C000006800F4003000900198401C01900098D1
:1025D00018B90198B0F5A06FF1D12948006800F44E
:1025E000003010B10120009001E000200090009820
:1025F000012843D12348006840F0100021490860B9
:102600000846006820F0030008600846006840F0B3
:10261000020008601A484068194948600846406846
:1026200048600846406840F480604860084640685A
:1026300020F47C1048600846406840F4E810486088
:102640000846006840F08070086000BF0C480068D1
:1026500000F000700028F9D00948406820F003001D
:10266000074948600846406840F00200486000BFE3
:102670000348406800F00C000828F9D10CBD0000A8
:102680000010024000200240042808D14FF0E02151
:10269000096941F004014FF0E022116107E04FF0B9
:1026A000E021096921F004014FF0E0221161704737
:1026B0007047000010B51348006840F00100114950
:1026C000086008464068104908400E4948600846BE
:1026D00000680E4908400B4908600846006820F46D
:1026E000802008600846406820F4FE0048604FF4EF
:1026F0001F008860FFF754FF4FF000600449086036
:1027000010BD0000001002400000FFF8FFFFF6FEC1
:1027100008ED00E02DE9FF470121194800F089F894
:1027200000282BD00121164800F074F8154A1649EC
:10273000164801F0C9FE08BB1248006803F01CFFF0
:1027400004460D461148006803F016FF06460F4682
:102750000D48006803F010FF804642460B460CA06F
:10276000CDE90067CDE90245FDF786FD1048006818
:1027700008B9012000E000200D490860BDE8FF878E
:102780000004004008000020000000200400002099
:1027900050697463683A256620202020526F6C6C63
:1027A0003A2566202020205961773A25660D0A00D7
:1027B000948121427FB505460C4601210220FFF796
:1027C0000FFDADF80850ADF804400020ADF80A0048
:1027D000ADF8060001A90E4800F046F801221146A6
:1027E0000B4800F037F81D208DF8000000208DF810
:1027F000010003208DF8020001208DF803006846D7
:10280000FFF7D6FA0121024800F007F87FBD00006B
:1028100000040040CA430282704721B1028842F09E
:102820000102028004E002884FF6FE731A40028023
:10283000704730B50246002000230024158A05EABF
:102840000103958905EA010413B10CB1012000E0F0
:10285000002030BD1AB183890B43838102E0838954
:102860008B43838170470000002202881D4B9842F1
:102870000ED01D4B98420BD0B0F1804F08D01B4BAF
:10288000984205D01A4B984202D01A4B984204D174
:102890004FF68F731A404B881A43174B984207D054
:1028A000164B984204D04FF6FF431A40CB881A4388
:1028B00002808B8883850B8803850A4B98420BD056
:1028C000094B984208D00E4B984205D00D4B9842C8
:1028D00002D00D4B984201D10B7A038601238382EB
:1028E00070470000002C014000340140000400400B
:1028F00000080040000C00400010004000140040A0
:1029000000400140004401400048014010B540F241
:1029100025511D4800F04AF810B31B4800F002F999
:10292000C4B21A48008800F40040C8B917480088AB
:1029300000F4804060B10A2C03D0002013490880C5
:1029400020E01248008840F400401049088019E057
:102950000D2C06D10D48008840F480400B490880BA
:1029600010E00A480088C0F30D0009490C540748DC
:102970000088401C0549088008460088C72801DDFA
:102980000020088010BD0000003801407C000020BD
:102990004805002021B1828942F40052828104E07E
:1029A00082894DF6FF731A408281704770B50246E6
:1029B000002400230025002040F66A16B14200D111
:1029C00000BFC1F3421501F01F03012606FA03F30D
:1029D000012D02D19689334006E0022D02D1168ADC
:1029E000334001E0968A33400C12012606FA04F4C3
:1029F0001688344013B10CB1012000E0002070BDF6
:102A0000F0B50346002400260025002040F66A1792
:102A1000B94200D100BF1846C1F3421401F01F06AD
:102A2000012707FA06F5012C01D10C3004E0022C35
:102A300001D1103000E014301AB107682F4307604D
:102A400002E00768AF430760F0BD00002DE9F047E2
:102A500086B005460E460024A24600BFA1460027C8
:102A6000B08900B100BF2F462C8A4CF6FF7004409D
:102A7000F08804432C82AC894EF6F3100440B088F1
:102A800031890843718908430443AC81AC8A4FF60D
:102A9000FF400440B0890443AC8201A8FFF7C0FBAB
:102AA0001F48874202D1DDF810A001E0DDF80CA03C
:102AB000A88900F4004040B10AEBCA0000EB0A10FC
:102AC00031684900B0FBF1F807E00AEBCA0000EBFF
:102AD0000A1031688900B0FBF1F86420B8FBF0F00F
:102AE00004012009642101FB1089A88900F4004039
:102AF00040B1322000EBC900B0FBF1F000F007005C
:102B0000044308E0322000EB09106421B0FBF1F02F
:102B100000F00F0004432C8106B0BDE8F0870000F0
:102B20000038014001468888C0F30800704700BFA4
:102B3000FEE7490050EAC12018BF04204A0D18BF23
:102B400040F0010040F2FF72B2EB515F08BF40F06D
:102B50000200012808BF052070472DE9F0414F1EF3
:102B600000EBC7010446D1E9000115461E4637F0C7
:102B700006020DD02A46334603F024FA7F1E04EBEA
:102B8000C703D3E9002303F015F837F00602F1D1AB
:102B9000022F25D0042F13D0062F18BFBDE8F081D7
:102BA0002A46334603F00EFAD4E90A2303F002F86A
:102BB0002A46334603F006FAD4E9082302F0FAFF66
:102BC0002A46334603F0FEF9D4E9062302F0F2FF69
:102BD0002A46334603F0F6F9D4E9042302F0EAFF6B
:102BE0002A46334603F0EEF9D4E9022302F0E2FF6D
:102BF0002A46334603F0E6F9D4E90023BDE8F04164
:102C000002F0D8BF012203F0E4BF02F0D3BF0022DC
:102C100013461046114603F07DB80000024A00201A
:102C2000110703F0D6BF000001FDFFFF30380A286E
:102C300001D2012070470020704700BF704700009C
:102C40002DE9F04D8D4F21F0004A86B005460C4627
:102C5000BA452ADBAAEB070028430AD088488245F8
:102C600001DC1AD1CDB106B02846BDE8F04DFFF722
:102C7000C9BF844A844B284603F0A4F907460E4690
:102C8000824A834B2846214603F09CF906B03A4617
:102C90003346BDE8F04D02F08DBF0120FDF798FCF2
:102CA00006B0BDE8F04DFFF7B2BF7A48824542DA80
:102CB000BAF1795F0BDA2846FFF73BFF042808BF1B
:102CC000FFF7ACFF284606B02146BDE8F08D2A4646
:102CD0000B46104603F076F9834602466E480E46D0
:102CE0000B4606217844FFF738FF5A46334603F077
:102CF00069F9804669488A465A4633460421784431
:102D0000FFF72BFF5A46334603F05CF900223B469F
:102D100002F050FF02460B464046514602F0FAFFD1
:102D20002A46234603F04EF906B02A462346BDE85C
:102D3000F04D02F03FBF284624F0004100223D46FE
:102D40003B4603F03DFA4FF0FF3203F042FF0646E8
:102D5000024653480F460B4606217844FFF7FDFE16
:102D600032463B4603F02EF9CDE900014D4832468C
:102D70003B4604217844FFF7F0FE32463B4603F021
:102D800021F900222B4602F015FF834602913046BE
:102D9000394602F051FE804643480D46504517DC47
:102DA000DDE900015A46029B02F0B4FF42462B4681
:102DB00003F008F942462B4602F0FCFE012203F024
:102DC00008FF304A304B03F0EDFA304A304B4CE00C
:102DD0004FF0000A52460B46404602F0EBFECDE9AA
:102DE000031052462B461046194603F0EBF83246C4
:102DF0003B4603F0E5F9DDE9033202F08BFF0646BE
:102E00000F46DDE900015A46029B02F083FF83462C
:102E1000009101223046394603F0DBFE194A1A4B75
:102E200003F0CEF906460F4601224046294603F03C
:102E3000D0FE5A46009B03F0C5F832463B4603F0ED
:102E4000B1FA06460F4601225046294603F0C1FE5C
:102E50000E4DDFF858802A46434603F0B1F932465A
:102E60003B4603F0ADF92A46434603F0A9F9002C8E
:102E7000D8BF81F0004106B0BDE8F08D0000F03F02
:102E80000000F07F075C143326A6913C182D4454B3
:102E9000FB21F93F0000E03F606400007664000021
:102EA000EA630000006400003333EF3FFB21E93F99
:102EB0002DE9F84F04460D4621F00040009173497A
:102EC000814211DC7249884201DC06D12CB12046D6
:102ED0002946BDE8F84FFFF795BE6E48002DCCBFE0
:102EE0006D496E49BDE8F88F6D49814211DD6D492C
:102EF0008142D8BF4FF0FF366DDD20462946FFF7EF
:102F000018FE042808BFFFF789FE20462946BDE8C1
:102F1000F88F6549654F25F00045814233DD6449EE
:102F2000814219DD002632464FF080432046294673
:102F300002F040FE80468A4601222046294603F0E0
:102F400048FE00223B4603F02DFA4246534602F06B
:102F5000E1FE04460D463EE001260022BA463B460D
:102F60002046294602F026FE80460F4600225346A0
:102F70002046294603F016FA42463B4602F0CAFEB6
:102F800004460D4627E04B4981421BDDDFF828A1AE
:102F90000226002253462046294603F013F8002259
:102FA0003B4602F007FE80460F460022534620466D
:102FB000294603F0F7F942463B4602F0ABFE0446D1
:102FC0000D4608E0032622462B4600203B4902F02E
:102FD000A1FE04460D4622462B461046194602F035
:102FE000F1FF8B46824602460B4602F0EBFF074696
:102FF0000246334888460B4606217844FFF7ADFD6C
:1030000052465B4602F0DEFF82462E488B463A4629
:10301000434605217844FFF7A0FD3A46434602F0B7
:10302000D1FF02460B46002E504659460CDA02F0FC
:10303000C1FD22462B4602F0C5FF01B022462B46B9
:10304000BDE8F04F03F0BCB802F0B4FD22462B46B9
:1030500002F0B8FF1C4A7A4402EBC603D3E900230E
:1030600003F0A0F922462B4603F09CF9174A7A4454
:1030700002EBC603D3E9002303F0A2F8009A002A6A
:10308000B8BF81F00041BDE8F88F00000000104497
:103090000000F07F182D4454FB21F93FFB21F9BFBC
:1030A0000000DC3F0000203E0000F33F0000F03F46
:1030B0000000E63F008003400000F83F0000F0BF42
:1030C00002620000C06100005E6100002661000035
:1030D0002DE9F04D9446CCF1000423F000464CEA73
:1030E0000404524F46EAD4749A46884621F00042BE
:1030F000BC4206D8454240EA050442EAD474BC42C8
:1031000004D9BDE8F04D6246FFF77FBDAAF14055F6
:10311000A5F17F6555EA0C040BD0022404EAAA74D9
:10312000434DDFF810E144EAD87452EA000B04D0B2
:103130000CE0BDE8F04DFFF7BBBE002C14BF012C26
:10314000BDE8F08D022C30D0032C32D056EA0C0BA7
:103150000AD0BE4220D1BA4209D126F0804622F0E0
:1031600080423346114617E000291ADB25E0DFF8DC
:10317000C8B0FB44002C04BFDBE90001BDE8F08DC2
:10318000012C02BFDBE9000181F00041BDE8F08DB8
:10319000022C0AD0032C0CD0BA4212D1B8F1000F85
:1031A0000BDA23482549BDE8F08D28462449BDE8BF
:1031B000F08D28467146BDE8F08D1D482149BDE8D7
:1031C000F08D921B12153C2AC4BF19481D490EDC14
:1031D000BAF1000FBEBF12F13C0F0020014606DB22
:1031E000624602F097FD21F00041FFF761FE002CDE
:1031F00008BFBDE8F08D012C04BF81F00041BDE89F
:10320000F08D114A114B022C07D003F0CBF82A465F
:10321000BDE8F04D0A4B03F0C5B803F0C3F82A46E9
:10322000BDE8F04D064B02F0CBBF00000000F07F80
:10323000182D4454FB2109C0BA600000FB21F9BFDE
:10324000FB210940FB21F93F075C143326A6A13C72
:103250002DE9F0410446E07800F0C006E07800F087
:103260003F05607800F0010098B1EF102846E9179B
:1032700005EB5171C910A5EBC101491C01F0FF0814
:103280000B48006820B10A4841460268384690471A
:1032900000BF607800F0080030B10548406818B100
:1032A000B011034A516888470020BDE8F081000052
:1032B000B800002010B56FF00400FFF7E5F90A48E8
:1032C00000680A49B0FBF1F0094908700846007827
:1032D00000EB4001C1EBC0104FF6FF7101EAC000E6
:1032E0000449088010BD00001C00002000127A0074
:1032F00072000020740000200146114A12884A43DF
:103300004FF0E0235A6100229A611A46126942F096
:1033100001021A6100BF4FF0E022106900F00102C3
:103320001AB100F48032002AF5D04FF0E022126981
:1033300022F001024FF0E0231A6100229A617047E7
:10334000740000200146114A12784A434FF0E023EE
:103350005A6100229A611A46126942F001021A610A
:1033600000BF4FF0E022106900F001021AB100F432
:103370008032002AF5D04FF0E022126922F00102DB
:103380004FF0E0231A6100229A617047720000201A
:1033900038B5044664B120208DF8000028208DF84F
:1033A000010030208DF8020038208DF8030004E081
:1033B000A32204216846FDF783F86A46042140F6FB
:1033C0009E2002F03DF901F0D7FC38BD3EB5044621
:1033D00002208DF80000CA208DF80100E3208DF84E
:1033E000020009208DF803006A460421682002F0DB
:1033F00027F9A3208DF8000004F0400048B1C02058
:103400008DF80100C8208DF80200C2208DF803005D
:1034100006E0A3208DF801008DF802008DF803006E
:1034200004F4C07048B1C4208DF80400CC208DF89D
:103430000500C6208DF8060006E0A3208DF80400E4
:103440008DF805008DF80600A3208DF807008DF893
:1034500008008DF809006A460A2140F6A72002F00C
:10346000EFF804F0030018B120208DF8000002E00E
:10347000D8208DF800006A46012140F6B62002F0FF
:10348000DFF804F0200018B1012000F0ADF802E0F0
:10349000002000F0A9F804F4C07008B304F48070B0
:1034A00060B1B2208DF800008B208DF80100B620AD
:1034B0008DF802009B208DF803000BE0B0208DF802
:1034C000000080208DF80100B4208DF802009020CB
:1034D0008DF803006A46042140F6A22002F0B0F8FD
:1034E00004F0010020B3F8208DF800006A460121A5
:1034F0004FF40B6002F0A4F8FA21072000F02CFC36
:10350000072000F0F3FB012000F013FC642000F022
:10351000F3FC4FF4FA7000F002FDC821304800F0CF
:10352000A3FB282000F0BCFB0A2000F0CCFB08E045
:10353000D8208DF800006A4601214FF40B6002F09C
:103540007FF804F0020018B1D9208DF8000002E0E5
:10355000D8208DF800006A46012140F23D7002F04B
:103560006FF804F0040018B1012000F069F802E0DF
:10357000002000F065F804F0100018B10120FFF7FA
:1035800007FF02E00020FFF703FF44F008001549A1
:10359000488101F0F1FB00201249887304F04000DB
:1035A00018B10846807B801D887304F4C07020B178
:1035B0000C48807B801D0B49887304F0140020B1F7
:1035C0000848807B10300749887304F0030020B15D
:1035D0000448807B001D0349887300203EBD000025
:1035E00009E3CA02B80000203EB504466CB10EA142
:1035F000D1E900208968CDE9002002916A460921BD
:103600004FF4976002F01CF83EBD0AA2D2E9001008
:103610009268CDE9010200916A4609214FF4976052
:1036200002F00EF8F0E70000B8AAB38DB4980D359B
:103630005D000000B8AAAAAAB088C3C5C7000000F0
:1036400038B5044664B1C0208DF80000C2208DF862
:103650000100C4208DF80200C6208DF8030004E0AC
:103660008B2204216846FCF72BFF6A46042140F6B2
:10367000982001F0E5FF01F07FFB38BD10B5C823AD
:103680004FF48062024940F6F63001F0EBF910BDCC
:10369000C06C00082DE9F04F8DB0074688461546EE
:1036A0009946DDE9166B0024002030806B49887B49
:1036B0005A4605A901F0C0FA18B1601E0DB0BDE868
:1036C000F08F6648807A00F01400002867D09DF8DB
:1036D000140000069DF8151040EA01409DF81610F0
:1036E00040EA01209DF81710084328609DF8180053
:1036F00000069DF8191040EA01409DF81A1040EAB2
:1037000001209DF81B10084368609DF81C0000060E
:103710009DF81D1040EA01409DF81E1040EA01206E
:103720009DF81F100843A8609DF8200000069DF832
:10373000211040EA01409DF8221040EA01209DF846
:1037400023100843E86004F11000C4B22868001494
:103750000190686800140290A86800140390E8685B
:103760000014049001984043029901FB0100039961
:1037700001FB0100049901FB010ABAF1706F02DB41
:10378000BAF1885F05DD01F0F7FA00203080401EB5
:1037900094E7B6F9000040F48070308000BF2F48F5
:1037A000807A00F0400020B305A9601C085C095D28
:1037B00040EA012000B2A8F8000005A9E01C095C5D
:1037C00005AAA01C105C41EA002000B2A8F8020083
:1037D00005A9601D095C201D105C41EA002000B2B3
:1037E000A8F80400A01DC4B2B6F9000040F008001B
:1037F00030801A48408900F4C07008B305A9601CE5
:10380000085C095D40EA012000B2388005A9E01C8F
:10381000095C05AAA01C105C41EA002000B2788077
:1038200005A9601D095C201D105C41EA002000B262
:10383000B880A01DC4B2B6F9000040F0700030801E
:103840000648807A00F0030018B105A90819FFF7AF
:10385000FFFC484600F0FEFD00202FE7B8000020E6
:1038600070B588B0064601A800F0B6FFBDF80400A8
:103870000021C90341EA5045C4034448007A00F0DE
:10388000030056F8200005904048007A00F004003C
:1038900010B10598404205903C48007AC0F3C10041
:1038A00056F8200006903948007A00F0200010B148
:1038B0000698404206903548007AC0F3811056F8C9
:1038C000200007903148008900F4807010B10798FB
:1038D000404207900598C117A0FB042301FB043167
:1038E00000FB0510810041EA927005900698C1170F
:1038F000A0FB042301FB043100FB0510810041EA19
:10390000927006900798C117A0FB042301FB0431B5
:1039100000FB0510810041EA927007900598000EA7
:103920008DF808000598000C8DF809000598000A2C
:103930008DF80A000598C0B28DF80B000698000EAD
:103940008DF80C000698000C8DF80D000698000A02
:103950008DF80E000698C0B28DF80F000798000E83
:103960008DF810000798000C8DF811000798000AD8
:103970008DF812000798C0B28DF8130002AA0C212E
:103980004FF4257001F05CFE08B070BDB800002057
:1039900030B585B0044616A207CA02AB07C3C82CCF
:1039A00003DD4FF0FF3005B030BDC82090FBF4F0D0
:1039B000401E85B2280A8DF80000E8B28DF801009B
:1039C0006A46022140F2162001F03AFE10B14FF093
:1039D000FF30E8E702AA0C2140F6C12001F030FEDA
:1039E00010B14FF0FF30DEE7044884810020DAE7B1
:1039F000FEF2ABC4AAF1DFDFBBAFDFDFB80000200F
:103A00001FB504464848007A00F0030054F820002F
:103A100001904548007A00F0040010B1019840423E
:103A200001904148007AC0F3C10054F82000029090
:103A30003D48007A00F0200010B102984042029008
:103A40003948007AC0F3811054F8200003903648BA
:103A5000008900F4807010B103984042039033490C
:103A6000019880FB0101800F40EA810001902F49FD
:103A7000029880FB0110820042EA917002902B496B
:103A8000039880FB0110820042EA91700390019834
:103A9000000E8DF800000198000C8DF801000198CF
:103AA000000A8DF802000198C0B28DF803006A4642
:103AB00004214FF4747001F0C3FD18B14FF0FF30D2
:103AC00004B010BD0298000E8DF800000298000CA2
:103AD0008DF801000298000A8DF802000298C0B229
:103AE0008DF803006A4604214FF4757001F0A8FDBB
:103AF00010B14FF0FF30E3E70398000E8DF800009F
:103B00000398000C8DF801000398000A8DF802005C
:103B10000398C0B28DF803006A4604214FF4767012
:103B200001F08EFDCCE70000B800002009E3CA02D6
:103B300010B586B0044647A00068039046A0006810
:103B4000029046A00068019045A00068009004F033
:103B5000030003A9085C8DF8140003A8C4F3C10195
:103B6000405C8DF8150003A8C4F38111405C8DF80A
:103B7000160004F0030002A9085C8DF8100002A8EA
:103B8000C4F3C101405C8DF8110002A8C4F3811197
:103B9000405C8DF8120005AA032140F2264001F096
:103BA0004FFD18B14FF0FF3006B010BD04AA03213D
:103BB00040F22A4001F044FD10B14FF0FF30F3E72E
:103BC000019805900098049004F0040058B19DF805
:103BD000140040F001008DF814009DF8100040F032
:103BE00001008DF8100004F0200058B19DF8150078
:103BF00040F001008DF815009DF8110040F0010023
:103C00008DF8110004F4807058B19DF8160040F052
:103C100001008DF816009DF8120040F001008DF8AB
:103C2000120005AA03214FF4886001F009FD10B1CC
:103C30004FF0FF30B8E704AA032140F2314001F011
:103C4000FFFC10B14FF0FF30AEE7064804810020C2
:103C5000AAE700004CCD6C000CC92C00365676004B
:103C600026466600B8000020F8B505460E464FF41B
:103C70007A7095FBF0F000FB06F4200E8DF8000042
:103C8000200C8DF80100200A8DF80200E0B28DF8BA
:103C900003006A4604214FF4AE7001F0D1FCF8BD78
:103CA00038B50446052094FBF0F084B220128DF85C
:103CB0000000E0B28DF801006A4602214FF4AD70B9
:103CC00001F0BEFC38BD38B50446052094FBF0F089
:103CD00084B220128DF80000E0B28DF801006A462F
:103CE00002214FF4AC7001F0ABFC38BD38B504468E
:103CF0000020009004F0010020B19DF8000040F089
:103D00003000009004F0020020B19DF8000040F067
:103D10000C00009004F0040020B19DF8000040F079
:103D2000030000906A4601214FF4A47001F088FC62
:103D300038BD38B50446012C01DA012402E0042C18
:103D400000DD0424601EC0B200906A46012140F2EA
:103D50004F1001F075FC38BD2DE9FC4706460F46B3
:103D600006F0070010B1B7F5C86F03DD4FF0FF3064
:103D7000BDE8FC87384602F0A3FD8146594902F0B0
:103D800089FC8046684600F001FD9DF8000002288D
:103D900006D0042816D0082826D0102848D135E0AF
:103DA0004FF08D41404602F09FFD814602F050FDEC
:103DB00084B24D49404602F097FD814602F048FD2D
:103DC00085B238E04FF08C41404602F08DFD8146CF
:103DD00002F03EFD84B24549404602F085FD814631
:103DE00002F036FD85B226E04FF08B41404602F0EE
:103DF0007BFD814602F02CFD84B23D49404602F035
:103E000073FD814602F024FD85B214E04FF08A4133
:103E1000404602F069FD814602F01AFD84B2354940
:103E2000404602F061FD814602F012FD85B202E0DB
:103E30004FF0FF309CE700BF20128DF80400E0B285
:103E40008DF8050028128DF80600E8B28DF80700FD
:103E500006F00100A0B101AA02214FF4EA7001F0BE
:103E6000EFFB10B14FF0FF3082E70DF106020221A7
:103E70004FF4927001F0E4FB10B14FF0FF3077E7A0
:103E800006F00200A0B101AA02214FF4EC7001F08B
:103E9000D7FB10B14FF0FF306AE70DF106020221A7
:103EA0004FF4947001F0CCFB10B14FF0FF305FE79E
:103EB00006F00400A0B101AA02214FF4EE7001F057
:103EC000BFFB10B14FF0FF3052E70DF106020221A7
:103ED0004FF4967001F0B4FB10B14FF0FF3047E79C
:103EE000002045E700004843000040460000C04570
:103EF000000040450000C04438B50446052094FB4E
:103F0000F0F085B228128DF80000E8B28DF80100BB
:103F10006A4602214FF4EF7001F092FB38BD38B5CC
:103F20000446052094FBF0F085B228128DF80000BD
:103F3000E8B28DF801006A4602214FF4ED7001F0FD
:103F40007FFB38BD00BF054A128802F04002002AFC
:103F5000F9D0C2B2014B1B1D1A80704700380140D6
:103F60002DE9F04F87B005460C46914601208DF8AB
:103F7000100000208DF81100FE4A1268517DFD4AA4
:103F80005268107804AB0222FDF7DFFE20B14FF03B
:103F9000FF3007B0BDE8F08FC820FFF7ADF9002073
:103FA0008DF81000F34A1268517CF24A526810787A
:103FB00004AB0122FDF7C9FE10B14FF0FF30E8E776
:103FC000EC4A12685179EB4A5268107804AB01222E
:103FD000FDF7BBFE10B14FF0FF30DAE7E54A12689B
:103FE000517DE44A5268107804AB0122FDF7ADFE22
:103FF00010B14FF0FF30CCE7DE4A1268917EDD4A07
:104000005268107804AB0122FDF79FFE10B14FF00B
:10401000FF30BEE7D74A12681179D64A5268107845
:1040200004AB0122FDF791FE10B14FF0FF30B0E775
:104030000C208DF81000CF4A12681179CD4A5268D1
:10404000107804AB0122FDF780FE10B14FF0FF3075
:104050009FE70F20FFF750F9C648406B407A8DF874
:104060001000C44A12689178C24A5268107804ABB2
:104070000122FDF76AFE10B14FF0FF3089E7BD481D
:10408000406B007A8DF81000BA4A12685178B94A2C
:104090005268107804AB0122FDF757FE10B14FF0C3
:1040A000FF3076E7B9F1000F07D0B248406B807A55
:1040B00040F0E0008DF8100004E0AE48406B807ADC
:1040C0008DF81000AB4A12689179AA4A52681078AC
:1040D00004AB0122FDF739FE10B14FF0FF3058E775
:1040E000B9F1000F07D0A348406BC07A40F0E00060
:1040F0008DF8100003E0A048C07A8DF810009D4AAA
:104100001268D1799B4A5268107804AB0122FDF7FE
:104110001CFE10B14FF0FF303BE7B9F1000F02D0A9
:10412000C820FFF7E9F840208DF81000914A126886
:104130001179904A5268107804AB0122FDF705FE10
:1041400010B14FF0FF3024E778208DF81000894A35
:1041500012685179874A5268107804AB0122FDF742
:10416000F4FD10B14FF0FF3013E783498889FFF762
:10417000C3F800208DF810007E4A126851797D4AFC
:104180005268107804AB0122FDF7DFFD10B14FF04B
:10419000FF30FEE6774A1268117B764A5268107843
:1041A00004AB0222FDF72BFD10B14FF0FF30F0E61B
:1041B0009DF811009DF8101040EA012B0C209BFB8C
:1041C000F0F0C6B20020A86068602860A06060605F
:1041D0002060824665E0674A1268517B654A5268F2
:1041E000107804AB0C22FDF70AFD10B14FF0FF3040
:1041F000CFE69DF811009DF8101040EA012000B2B2
:10420000ADF808009DF813009DF8121040EA012057
:1042100000B2ADF80A009DF815009DF8141040EAB0
:10422000012000B2ADF80C00BDF908102068084468
:104230002060BDF90A10606808446060BDF90C1088
:10424000A0680844A0609DF817009DF8161040EA89
:10425000012000B2ADF800009DF819009DF818107B
:1042600040EA012000B2ADF802009DF81B009DF865
:104270001A1040EA012000B2ADF80400BDF90010A8
:10428000286808442860BDF902106868084468601E
:10429000BDF90410A8680844A8600AF1010000F004
:1042A000FF0AB24597DB3448D0F800C02868C11730
:1042B000090441EA10410704624600233846FBF72F
:1042C000B6FF32460023CDE90201FBF7B0FF2860BC
:1042D0002948D0F800C06868C117090441EA1041B4
:1042E0000704624600233846FBF7A1FF324600234D
:1042F000CDE90201FBF79BFF68601F48D0F800C0C2
:10430000A868C117090441EA104107046246002366
:104310003846FBF78CFF32460023CDE90201FBF75C
:1043200086FFA8601448D0F804C02168C8170004AC
:1043300040EA11480F046246002338464146FBF725
:1043400076FF32460023CDE90201FBF770FF2060C3
:104350000948D0F804C06068C117090441EA104157
:104360000704624600233846FBF761FF324600230C
:1043700004E0000030000020986C0008CDE9020144
:10438000FBF755FF60601148D0F804C0A068C11762
:10439000090441EA10410704624600233846FBF74E
:1043A00046FF32460023CDE90201FBF740FFA06043
:1043B000A068002804DDA068A0F58030A06003E0BC
:1043C000A06800F58030A0600020E2E5986C00084D
:1043D00010B50446204600F00FF80346E01C00F03C
:1043E0000BF843EAC00083B2A01D00F005F843EAD1
:1043F000801083B2184610BD014691F90020002AB2
:1044000001DD00201EE091F90020002A01DA0420DD
:1044100018E091F90120002A01DD012012E091F954
:104420000120002A01DA05200CE091F90220002A7F
:1044300001DD022006E091F90220002A01DA0620BF
:1044400000E007207047FDF757FF02E06420FEF709
:1044500053FFFBE77047000070B50446002624F0C8
:104460000104184890F8240008B1002070BD1548D8
:10447000807A10B94FF0FF30F8E71248057C807A57
:104480002040104908740846007CA04202D04FF03A
:10449000FF3600E0002614B90A48007D18B101205B
:1044A00001F058F902E0002001F054F93CB100F0AD
:1044B00063FC20B1034805744FF0FF30D6E7304667
:1044C000D4E70000300000202DE9F04F99B00446F9
:1044D0000D4616464FF07E574FF000084FF000098A
:1044E0004FF0000A12A813A918AB0EAACDE90010CC
:1044F00014A916A8FFF7CEF818B1012019B0BDE82D
:10450000F08FBDF84C0000F4807000287ED00E982B
:1045100002F0BEF983464FF09D4102F0BBF807461A
:104520000F9802F0B5F983464FF09D4102F0B2F8C2
:104530008046109802F0ACF983464FF09D4102F09E
:10454000A9F88146119802F0A3F983464FF09D41E6
:1045500002F0A0F8824639464FF0804002F0C4F9DC
:104560004946059002F0C0F9414607904FF040409F
:1045700002F0BAF95146059002F0B6F90690079993
:1045800002F026F8834601F0F7FFCDE90801FEF7B7
:1045900057FB4FF06632544BCDE90A0101F012FD92
:1045A000CDE90C0101F0D4FA206049464FF080407B
:1045B00002F09AF94946029002F096F941460490B9
:1045C0004FF0404002F090F94146029002F08CF921
:1045D0000390049902F054FA83464FF07E5101F0A3
:1045E000F7FF059001F0C8FFCDE9080139464FF00B
:1045F000804002F079F94146039002F075F949468E
:1046000004904FF0804002F06FF900E068E05146FE
:10461000039002F069F98346049901F0D9FF0590EF
:1046200001F0AAFFCDE90601DDE90823FEF750FD00
:104630004FF066322C4BCDE90A0101F0C3FCCDE905
:104640000C0101F085FA28605146504602F04CF901
:1046500049460490484602F047F9414603904046D7
:1046600002F042F939460190384602F03DF90090D7
:10467000019901F0ADFF0290039902F001FA83461F
:10468000049902F0FDF9059001F076FFCDE90801EB
:104690005146384602F028F949460490404602F057
:1046A00023F90390049901F093FF4FF080410590A6
:1046B00002F01AF9834601F05FFFCDE90601DDE95A
:1046C0000823FEF705FD4FF06632074BCDE90A01DE
:1046D00001F078FCCDE90C0101F03AFA306001E01C
:1046E00002200BE7002009E766A64C4070B50024C5
:1046F000FDF7E0F800F024F9002840D1782000F020
:10470000EBFEC4B20CB1012070BD7820FFF7A4FE0F
:10471000C4B20CB10220F7E7642000F083FEC4B2FB
:104720000CB10320F0E7FEF7A9FFC4B20CB10420DE
:10473000EAE71548FFF74CFE0546FFF7F9F9C4B262
:104740000CB10520E0E740F27310FEF73FFEC4B263
:104750000CB10620D8E76420FFF71AF9C4B20CB1F7
:104760000720D1E700F0ACFF04460CB10820CBE7EE
:10477000012000F053FDC4B21CB10920C4E70A2097
:10478000C2E70020C0E70000680000200146114891
:10479000407A30B1012807D0022808D003280CD174
:1047A00008E0022008700BE00420087008E00820F0
:1047B000087005E01020087002E04FF0FF307047ED
:1047C00000BF0448C07C18B108784006000E08708D
:1047D0000020F4E73000002001461348407A30B151
:1047E000012808D002280AD0032810D10BE04FF48A
:1047F000804008800EE041F69C7008800AE04FF48B
:104800008050088006E04FF40060088002E04FF01E
:10481000FF30704700BF0448C07C10B108884010CA
:1048200008800020F5E70000300000200146024823
:10483000007C0870002070473000002001460F48BF
:10484000007A30B1012807D0022809D003280FD1FF
:104850000AE0FA2008800EE04FF4FA7008800AE0BF
:104860004FF47A70088006E04FF4FA60088002E0A6
:104870000020088000BF00BF0020704730000020EB
:1048800001460E48007A30B1012807D0022808D02E
:1048900003280CD108E00A4808600BE009480860CA
:1048A00008E00948086005E00848086002E04FF0A9
:1048B000FF30704700BF0020FBE700003000002001
:1048C0000000034300008342333303423333834108
:1048D00001461248C07A082817D2DFE800F0170412
:1048E000070A0D101318BC20088013E0622008800E
:1048F00010E02A2008800DE0142008800AE00A2039
:10490000088007E00520088004E000BF00BF002009
:10491000088000BF00BF002070470000300000206A
:104920000146064890F8240010B14FF0FF30704760
:104930000248C08908800020F9E70000300000200C
:104940001CB580208DF80000454A1268517D444A0C
:10495000526810786B460122FDF7F7F910B14FF05D
:10496000FF301CBD6420FEF7C7FC00208DF800005E
:104970003B4A1268517D3A4A526810786B460122D0
:10498000FDF7E3F910B14FF0FF30EAE748208DF86A
:104990000000334A1268117A314A526810786B4627
:1049A0000122FDF7D2F910B14FF0FF30D9E7FF2116
:1049B0002B488172FF202A490872FF212848417242
:1049C000C1724FF6FF71C181FF21017481744FF6EE
:1049D000FF7101850121017380F82210002180F808
:1049E00023104175017516300160416081601638F1
:1049F00080F8241080F82510C1844FF4FA6000F08C
:104A000055FC10B14FF0FF30ABE7022000F0EEFA9A
:104A100010B14FF0FF30A4E72A2000F0C1FC10B124
:104A20004FF0FF309DE7322000F0FCFC10B14FF05A
:104A3000FF3096E70020FFF70FFD10B14FF0FF3079
:104A40008FE700F0CFFE0A2000F0B8FB10B14FF066
:104A5000FF3086E7002000F03FFD002081E70000E6
:104A6000300000202DE9F04385B005460E46904603
:104A70009946294890F8250020B14FF0FF3005B045
:104A8000BDE8F08316B94FF0FF30F8E7002423E0CB
:104A9000281B102801DD102000E0281B87B23219E6
:104AA0003946204600F0CCFD10B14FF0FF30E6E76C
:104AB00001AA3946204600F01FF910B14FF0FF302F
:104AC000DDE730193A4601A9FBF7CEFC10B16FF0D3
:104AD0000100D4E7E01984B2AC42D9DB4FEA2820C8
:104AE0008DF8000008F0FF008DF801000A4A1268F6
:104AF000517F094A526810786B460222FDF725F96A
:104B000010B14FF0FF30BAE70121034880F82510BB
:104B1000A0F826900020B2E73000002038B5044607
:104B2000282C02DD4FF0FF3038BDDCB9002000F04A
:104B300001FC00208DF8000007208DF801003D4A9F
:104B40001268517D3B4A526810786B460222FDF78D
:104B5000FCF810B14FF0FF30E6E700213548017551
:104B60000020E1E7012000F0E5FB012C03D1022049
:104B70008DF8000033E0022C03D103208DF80000F3
:104B80002DE0052C03DC04208DF8000027E00A2C22
:104B900003DC05208DF8000021E0142C03DC062046
:104BA0008DF800001BE0282C03DC07208DF80000A6
:104BB00015E0502C03DC08208DF800000FE0A02C3D
:104BC00003DC09208DF8000009E0B4F5A07F03DCC8
:104BD0000A208DF8000002E00B208DF80000154A35
:104BE0001268517A134A526810786B460122FDF719
:104BF000ACF810B14FF0FF3096E720208DF80000A0
:104C00000C4A1268517D0B4A526810786B4601229B
:104C1000FDF79BF810B14FF0FF3085E708210548FC
:104C2000817200210173012101750020FFF714FC3E
:104C3000002079E730000020F8B504460F461646FC
:104C40002C4890F8240010B94FF0FF30F8BD2948E7
:104C5000807A10B94FF0FF30F8E7264A1268117BCE
:104C6000244A526810786B460222FCF7C8FF10B144
:104C70004FF0FF30EAE79DF801009DF8001040EA90
:104C80000125A54203DA00203070401EDEE71948F6
:104C900040684088B5EB600F17DD164A1268D17C7A
:104CA000144A526810786B460122FCF7A8FF10B135
:104CB0004FF0FF30CAE79DF8000000F0100020B16F
:104CC00000F05AF86FF00100C0E7E2B2094B1B6830
:104CD000597B084B5B6818783B46FCF790FF10B196
:104CE0004FF0FF30B2E795FBF4F0401E307000202B
:104CF000ACE7000030000020F8B504460D4616462B
:104D000016B94FF0FF30F8BD1A48807A10B94FF04D
:104D1000FF30F8E720128DF80000E0B28DF80100B6
:104D20009DF801002844134949684989884202DDF9
:104D30004FF0FF30E7E70F4A1268D17E0D4A526804
:104D400010786B460222FDF700F810B14FF0FF30EB
:104D5000D9E7EAB2074B1B68197E064B5B681878E7
:104D60003346FCF74CFF10B14FF0FF30CBE700208B
:104D7000C9E700003000002008B57048807A10B9FB
:104D80004FF0FF3008BD002000906C4A1268517C43
:104D90006A4A526810786B460122FCF7D6FF10B1C0
:104DA0004FF0FF30EEE7654A12685179634A526866
:104DB00010786B460122FCF7C8FF10B14FF0FF30AE
:104DC000E0E75E4A126811795C4A526810786B46D7
:104DD0000122FCF7BAFF10B14FF0FF30D2E757487D
:104DE00090F82400002853D00C200090534A1268F9
:104DF0001179524A526810786B460122FCF7A5FFE0
:104E000010B14FF0FF30BDE73220FEF775FAC02039
:104E100000904A48807A00F0010020B19DF800001F
:104E200040F020000090454A12681179434A5268C8
:104E300010786B460122FCF788FF10B14FF0FF306D
:104E4000A0E73E48407C10B10220009001E0002025
:104E500000903A4A1268517C384A526810786B4682
:104E60000122FCF772FF10B14FF0FF308AE70020FB
:104E70000090324A12685179304A526810786B4675
:104E80000122FCF762FF002855D04FF0FF3079E790
:104E900004200090294A12681179284A5268107833
:104EA0006B460122FCF751FF10B14FF0FF3069E76C
:104EB0002248807C20B92148807A00F0010010B996
:104EC0004020009001E0602000901C4A1268117997
:104ED0001A4A526810786B460122FCF736FF10B16F
:104EE0004FF0FF304EE73220FEF706FA1348407CC1
:104EF00010B10120009001E0002000900F4A1268DC
:104F0000517C0E4A526810786B460122FCF71DFF57
:104F100010B14FF0FF3035E7084A12685179074A5F
:104F200052681078054B10330122FCF70EFF10B1C8
:104F30004FF0FF3026E7002024E70000300000207B
:104F40002DE9F04186B007468846274890F82400AE
:104F500020B1002000F062F9012400E0002403A841
:104F6000FFF76CFC05A8FFF711FC01A8FFF7B0FCE8
:104F700002A8FFF7D5FC1C48867A04A8FFF756FC68
:104F8000002241463846FEF7EBFF0725FF20164971
:104F90000872FF2114484172C1724FF6FF71C1813E
:104FA000FF218172017401210173BDF80C0000F032
:104FB0007DF99DF8140000F019F8BDF8040000F028
:104FC000EFF9BDF8080000F02DFA304600F084FA41
:104FD0009DF81000FFF740FA14B1012000F01EF90F
:104FE000284606B0BDE8F0813000002038B5044600
:104FF0001E48807A10B94FF0FF3038BD022C06D021
:10500000042C07D0082C08D0102C0CD108E000206C
:1050100000900BE00820009008E01020009005E0D0
:105020001820009002E04FF0FF30E6E700BF0F4885
:10503000407A9DF80010B0EBE10F01D10020DCE7D1
:105040000A4A1268D179094A526810786B460122DF
:10505000FCF77BFE10B14FF0FF30CEE79DF800006B
:10506000C110024841720020C7E700003000002054
:1050700038B504465048807CA04201D1002038BD9C
:10508000002C46D04C4A126811794B4A526810786D
:105090006B460122FCF7B3FD10B14FF0FF30EEE795
:1050A0009DF8000020F020000090434A126811791A
:1050B000414A526810786B460122FCF746FE10B157
:1050C0004FF0FF30DBE70320FEF716F902200090D7
:1050D000394890F8220020B19DF8000040F080008F
:1050E0000090354890F8230020B19DF8000040F072
:1050F00030000090304A1268D17D2F4A52681078F3
:105100006B460122FCF721FE002851D04FF0FF3002
:10511000B5E7294A12681179274A526810786B4618
:105120000122FCF76CFD10B14FF0FF30A7E72248D9
:10513000807A00F0010028B19DF8000040F02000C6
:10514000009004E09DF8000020F0200000901A4A32
:1051500012681179184A526810786B460122FCF7E0
:10516000F4FD10B14FF0FF3089E70320FEF7C4F8DB
:10517000114890F8220010B18020009001E000203A
:1051800000900D4890F8230020B19DF8000040F0F9
:1051900030000090084A1268D17D074A52681078A2
:1051A0006B460122FCF7D1FD10B14FF0FF3066E7EE
:1051B00001488474002062E73000002038B50446BE
:1051C0002CB11548C089A04201DB642C02DD4FF0F0
:1051D000FF3038BD1048C08990FBF4F0401EC0B2CB
:1051E00000900D4A126892F824100B4A5268107809
:1051F0006B460122FCF7A9FD10B14FF0FF30E8E744
:105200000548C1899DF80000401C91FBF0F081B277
:10521000014801850020DCE73000002038B5044655
:10522000214890F82400A04201D1002038BD24B3C9
:105230001D4890F8250010B94FF0FF30F6E7002028
:1052400000F088FA0020FFF713FF1749C88C00F020
:10525000E9F8002000901449496808786B4601225B
:105260002321FCF772FD01210F4880F82410012052
:1052700000F070FAFFF780FD13E0002000F06AFAFA
:105280000948007C00900849496808786B4601226B
:105290002321FCF75AFD0021034880F82410FFF772
:1052A0006BFD0020C2E700003000002038B5044646
:1052B0001F48807A10B94FF0FF3038BDFA2C09D062
:1052C000B4F5FA7F09D0B4F57A7F09D0B4F5FA6F56
:1052D0000CD108E0002000900BE00820009008E0CE
:1052E0001020009005E01820009002E04FF0FF3001
:1052F000E3E700BF0E48007A9DF80010B0EBE10F25
:1053000001D10020D9E70A4A12689179084A526807
:1053100010786B460122FCF718FD10B14FF0FF30FA
:10532000CBE79DF80000C010014908720020C4E7D7
:105330003000002038B50446184890F82300A042F9
:1053400001D1002038BD14B13020009001E00020D0
:1053500000901248807C20B19DF8000040F00200CF
:1053600000900E4890F8220020B19DF8000040F017
:1053700080000090094A1268D17D084A526810786E
:105380006B460122FCF7E1FC10B14FF0FF30D9E78A
:10539000024880F823400020D4E7000030000020BD
:1053A00038B504461E48807A10B94FF0FF3038BD3A
:1053B000BC2C02DB0120009015E0622C02DB0220F5
:1053C000009010E02A2C02DB032000900BE0142C4C
:1053D00002DB0420009006E00A2C02DB052000908E
:1053E00001E0062000900E48C07A9DF80010884227
:1053F00001D10020DBE70A4A12689178084A526816
:1054000010786B460122FCF7A0FC10B14FF0FF3082
:10541000CDE79DF800100248C1720020C7E70000E8
:105420003000002038B504462A48807A10B94FF081
:10543000FF3038BD274890F8240010B14FF0FF30FE
:10544000F7E72448007D50B134B1282C04DCE0B2E9
:10545000FFF764FB0020ECE70020FFF75FFB042C64
:1054600001DA042404E0B4F57A7F01DD4FF47A74A4
:105470004FF47A7090FBF4F0401EC0B20090154AD1
:1054800012685178134A526810786B460122FCF773
:105490005CFC10B14FF0FF30CBE79DF80000401CE2
:1054A0004FF47A7191FBF0F081B20A48C181014654
:1054B000098D642902DA0146098D00E0642108465D
:1054C000FFF77CFE0349C9894810FFF769FF0020F8
:1054D000AFE70000300000201CB5044604F0700067
:1054E00010B10120019005E014B10020019001E00D
:1054F00040200190514A1268517D504A52681078FC
:1055000001AB0122FCF721FC20B100214B48817244
:10551000481E1CBD9DF8040020F04001474801735F
:105520000020019004F0400020B99DF8040040F0F4
:105530000400019004F0200020B99DF8040040F020
:105540000200019004F0100020B99DF8040040F022
:105550000100019004F0080020B99DF8040040F01B
:1055600038000190354A1268917D344A52681078AB
:1055700001AB0122FCF7E9FB20B100212F48817229
:10558000481EC6E724B1082C02D00020FFF7D2FE47
:105590002A4A12681179294A526810786B4601220A
:1055A000FCF72DFB10B14FF0FF30B2E704F0010023
:1055B00038B1112001909DF8000040F020000090CB
:1055C00006E0102001909DF8000020F020000090DF
:1055D0001A4890F8240028B19DF8000040F080009F
:1055E000009004E09DF8000020F080000090134A35
:1055F000126892F82610114A5268107801AB012205
:10560000FCF7A3FB10B14FF0FF3082E70B4A1268A2
:1056100011790A4A526810786B460122FCF795FB13
:1056200010B14FF0FF3074E7044884720021017517
:105630003220FDF761FE00206BE700003000002003
:10564000F8B504460D46164616B94FF0FF30F8BDC2
:105650001A48807A10B94FF0FF30F8E720128DF821
:105660000000E0B28DF801009DF8010028441349C4
:1056700049684989884202DD4FF0FF30E7E70F4A69
:105680001268D17E0D4A526810786B460222FCF7F0
:105690005CFB10B14FF0FF30D9E7EAB2074B1B6853
:1056A000197E064B5B6818783346FCF74EFB10B149
:1056B0004FF0FF30CBE70020C9E7000030000020AA
:1056C00070B588B002A905A8FFF73AFC0446072C7C
:1056D0003ED101A8FFF7D4F8059801F0D9F80646A5
:1056E000019901F001F9054601F096F80590069838
:1056F00001F0CEF80646019901F0F6F8054601F0F2
:105700008BF80690079801F0C3F80646019901F05E
:10571000EBF8054601F080F8079005A8FEF770F950
:105720006846FFF759F8BDF8001002984843029008
:10573000BDF80010039848430390BDF8001004988A
:105740004843049002A8FEF78BF8002008B070BD13
:105750000120FBE738B50446214890F82400C0B189
:1057600014B10220009001E0002000901C4A126851
:10577000517C1B4A526810786B460122FCF7E5FA0F
:1057800010B14FF0FF3038BD9DF80010144841743F
:1057900023E01348807A10B94FF0FF30F3E724B1CB
:1057A0000F48407C08B10020EDE714B101200090C3
:1057B00001E0002000900A4A1268517C084A5268B1
:1057C00010786B460122FCF7C0FA10B14FF0FF30A1
:1057D000D9E79DF80010024841740020D3E700008B
:1057E0003000002038B50120FFF742FC0C240EE009
:1057F0006B46012200212046FCF701FA054625B937
:105800009DF80000482800D103E0601CC4B20F2CB2
:10581000EEDD00BF0F2C05DD81A0FAF72DFD4FF066
:10582000FF3038BD834880F82A4010208DF80000F2
:10583000804991F82A006B4601220A21FCF785FA7B
:1058400010B14FF0FF30ECE70120FDF755FD1F20B0
:105850008DF80000774991F82A006B4601220A2151
:10586000FCF773FA10B14FF0FF30DAE70120FDF7D3
:1058700043FD704991F82A006B4603221021FCF782
:10588000BEF910B14FF0FF30CBE79DF8000080303B
:10589000684988859DF8011080316648C1859DF86A
:1058A00002108031018610208DF80000614991F8C6
:1058B0002A006B4601220A21FCF747FA10B14FF08B
:1058C000FF30AEE70120FDF717FD0020FFF7D0FB0A
:1058D00040208DF80000574A1268917E554A526860
:1058E00010786B460122FCF730FA10B14FF0FF3010
:1058F00097E7504890F82A0040F080008DF80000AB
:105900004C4A1268917F4B4A526810786B460122CC
:10591000FCF71BFA10B14FF0FF3082E702208DF840
:105920000000444A1268D17F424A526810786B46A0
:105930000122FCF70AFA10B14FF0FF3071E788201E
:105940008DF800003B4A126892F82010394A5268DC
:1059500010786B460122FCF7F8F910B14FF0FF30D8
:105960005FE7344890F82A008DF80000314A126849
:1059700092F821102F4A526810786B460122FCF7EA
:10598000E4F910B14FF0FF304BE70A208DF800002A
:10599000284A126892F82210264A526810786B46FC
:1059A0000122FCF7D2F910B14FF0FF3039E7812026
:1059B0008DF800001F4A126892F823101D4A5268A1
:1059C00010786B460122FCF7C0F910B14FF0FF30A0
:1059D00027E711208DF80000164A126892F8261069
:1059E000144A526810786B460122FCF7AEF910B1E8
:1059F0004FF0FF3015E703208DF800000D4A1268C4
:105A000092F827100B4A526810786B460122FCF777
:105A10009CF910B14FF0FF3003E7002001E70000D0
:105A2000436F6D70617373206E6F7420666F756E57
:105A3000642E0A00300000202DE9F04106460F4692
:105A400000F0CAFB041E0D4618BF0120284320F0B9
:105A50000040C0F17F6000F1E040C00F0ED0301C6C
:105A600018BF0120384320F00040C0F17F6000F1F2
:105A7000E040C00F04BF0120FAF7AAFD20462946E6
:105A8000BDE8F08110B586B00446012144F204005F
:105A9000FCF7B6FB4FF40070ADF8140003208DF84E
:105AA000160018208DF8170005A91C48FBF7A6FD65
:105AB0004FF48060ADF8140004208DF8170005A99C
:105AC0001648FBF79BFD25208DF8000003208DF87C
:105AD00001008DF8020001208DF803006846FCF7F4
:105AE00067F901940020ADF80800ADF80A00ADF8A0
:105AF0000C00ADF810000C20ADF80E0001A908480C
:105B0000FCF7A4FF012240F225510548FCF778FF7D
:105B100001210348FCF73EFF06B010BD000801401C
:105B20000038014010B500290AD00878002807D0B5
:105B300005487844FBF764F9002801D0002010BD27
:105B40000248784410BD0000BA370000B2370000A8
:105B500021F00042A2F16052B2F5801F01F0004333
:105B600028BFD2F17F6C0BD95FEA001C43EAC20266
:105B700042EB507018BF704728BF20F001007047FB
:105B8000B2F5801FBCBF184670474FEA410C1CF5A8
:105B9000001F02D2084600F06EBF70B500F0BCFADC
:105BA00000000089FFF7F6BF4FF00040A0F580002D
:105BB0007047000010B591EA030F48BF83F000431F
:105BC00000F1F883841A71EB030C05D2121943EB30
:105BD0000C03001B61EB0C01DFF824E14FEA1154C8
:105BE000A4EB135C1EEA430F18BF9EEA445F73D018
:105BF00023EA0E03DCF1200E21EA045143F4801362
:105C000032D322FA0CFE10EB0E0023FA0CFE41EB0D
:105C10000E01CCF1200E03FA0EFE10EB0E0051F136
:105C20000001B1F5801FCCF1200E32D201EB0451FE
:105C300012FA0EF2BDE8104058BF7047401C38BF42
:105C40005FEA420218BF7047002814BF20F001002D
:105C500041F100014FEA410313F5001F38BF7047BF
:105C6000A1F1C04100F0A6BA012A43EB0302ACF156
:105C7000200CDCF11F0E32BF4FF0000E23FA0CF3A4
:105C800010EB030041EB0451B4EB115FD0D0A1EB5A
:105C9000045101F5801149085FEA300001EB04511D
:105CA0000ED350F1000038BF12FA0EFE08D1BDE845
:105CB0001040C9E7401C38BF5FEA4202CAD1C3E7BF
:105CC000BDE810404FEA410313F5001F38BF70478D
:105CD000A1F1C04100F06EBA9EEA445F08D011EA1B
:105CE0005E0FBDE8104004BF01F000410020704786
:105CF000BDE8104070B500F00FFA00BF64FBBE3E77
:105D00000000E0FF02494FF0000000F030BF00BF8C
:105D10000000F87F2DE9C04130B4DFF8A0C23CEAB2
:105D2000111418BF3CEA131400F0EC8081EA03055B
:105D30001CEA111444EAD57418BF1CEA131500F0CC
:105D4000C780A4EB05044FF0004545EAC12145EAB0
:105D5000C32341EA505143EA525304F17F749942FC
:105D600004F500344FEAC0204FEAC22208BF904237
:105D700000F09C804FEA13650FF24016765D4FEA03
:105D8000134506FB05F7C7F1807706FB07F74FEAD7
:105D9000D737A7FB03687642C8F58038A7FB06CE45
:105DA00038BFA8F1010807FB08E64FF0000EA6FB7C
:105DB000028CE6FB03CEDCF1000CCEF1004E38BFC6
:105DC000AEF1010EA6FB0C584FF000074FF0000596
:105DD000E6FB0E87A1FB08C6A0FB07CE16EB0E065E
:105DE00045F10005E1FB076515F1E04E7EBFA4F526
:105DF00080345FEA46066D4116F1800745F10005E3
:105E00004FEA17274FEA066647EA0567A6F1DE461E
:105E1000B6F1805F4FEA15251FD9384624F0010CF2
:105E200005EBC471BCF1FE6F01EB0C1102D8F0BCA4
:105E3000BDE8008124425CBF01F5801E9EEAC47F5C
:105E400002D4F0BCBDE80081244238D4F0BCA1F1FA
:105E5000C041BDE8004100F0ADB94FEAD22242EAAC
:105E600043524FEAD323A7FB02864FEAD02040EAF1
:105E7000415007FB03661EEA0E0F4FEAD12105FBD6
:105E8000026658BFA6EB0056B6EB00564FEA520E1C
:105E90004EEAC37E18EB0E0E56EB530EBDD518EB33
:105EA00002085E417F1C55F10005B6E74FF48015EE
:105EB0004FF000074FF000064FF00008ADE7F0BCD0
:105EC0004FF0000001F1C04101F00041BDE8008148
:105ED00011EA0C1F0CEA131500D00CE013EA0C1F9A
:105EE00000F025804FF00000F0BC81EA030101F0D2
:105EF0000041BDE80081F0BCBDE8004181EA03013A
:105F000000F058B9F0BCBDE8004170B500F004F9EC
:105F1000097EFC3E00F007B881EA03014FF0000063
:105F200001F00041704781EA030100F043B9F0BC81
:105F3000BDE800414FF0000021497047FFFDFBF92B
:105F4000F7F5F4F2F0EEEDEBE9E8E6E4E3E1E0DEAC
:105F5000DDDBDAD8D7D5D4D3D1D0CFCDCCCBCAC81E
:105F6000C7C6C5C4C2C1C0BFBEBDBCBBBAB9B8B745
:105F7000B6B5B4B3B2B1B0AFAEADACABAAA9A8A838
:105F8000A7A6A5A4A3A3A2A1A09F9F9E9D9C9C9B06
:105F90009A999998979796959594939392919190B1
:105FA0008F8F8E8E8D8C8C8B8B8A89898888878742
:105FB0008685858484838382828181800000FF07B7
:105FC0000000F87FDFF848C170B51CEA111E1EBF43
:105FD0001CEA13159EEA0C0F95EA0C0F00F06F8077
:105FE00081EA030423EA4C134EEAD47E21EA4C11E1
:105FF00041F4801143F48013AE44A1FB024CA0FB9A
:106000000365AEF17F7E361955EB0C05A1FB034C01
:106010004CF10003A0FB021C16EB0C06654153F18A
:106020000003094218BF46F0010613F4007F0BD1AC
:106030004FEA03314FEA0530340341EA155140EA93
:1060400016506FF003020AE04FEAC3214FEAC52061
:10605000F40241EA555140EA56506FF0020202EB59
:106060002E4201EB025585EACE710AD05FEA440C5C
:1060700018BF24F0004450F1000041F1000120EA73
:10608000D47040F2FE7C624500D270BDA84214BFBD
:106090004FF080444FF04044002E08BF0024BEF172
:1060A000806FA8BFA1F1C041BDE8704080F282803E
:1060B0004FF0000001F1C04101F0004170479EEA3D
:1060C0000C0F0CEA131518BF95EA0C0F06D04FF011
:1060D000000081EA030E0EF0004170BD00F01CF8D4
:1060E0008900013E00F007B800F009B84FEA430C00
:1060F0005FEA5C5C08D081EA030100F05BB84FEA1C
:10610000410C5FEA5C5CF6D14FF00000014970473A
:106110000000FF070000F87F0EF1020E2EF0030EC4
:106120005EF8046B364205D4012A43EB030515F5EE
:10613000001F12D8012841EB010C1CF5001F0CD8E0
:106140000ED14FEAD17C15F5001F0CEB4C0C0CF175
:10615000020C08BF4CEBD37C04E04FF0080C01E0CC
:106160004FEAD37C0CEB4C0526FA05F606F0070641
:10617000B6F1040C06D20EEB860CBDE870404CF074
:10618000010C6047DFE80CF0090B02024FF0004100
:106190004FF00000A1F5002170BD194610460128FE
:1061A00051EB010418BFD4F5001484BF002001F0A6
:1061B000004170BD0808A0F500114FEA3101704799
:1061C00091EA030F10B581F000413FF5FBAC83F07D
:1061D000004300F0EFB800002DE9F04101F5801C0C
:1061E000BCF5001FC0F2C3804FEA115C21EA0C51DC
:1061F0000CF1FD0C41F480115FEA5C0C0CF5C07CE5
:1062000001D3400049413DA4890241EA90518702EF
:106210008E0E0A0CA45D04FB04F602FB06F6C6F122
:106220004046A4FB0662F60D46EA422606FB06F44B
:10623000A4FB01235242C3F1404338BF5B1EA6FBBF
:1062400002420024E6FB0324D20B42EA4446A6FBAA
:106250000623A1FB02E2A3FB07E4A4184FF000020F
:1062600052F10002E3FB01426442C2F1404E38BFEA
:10627000AEF1010EA6FB04234FF00002E6FB0E3246
:10628000A2FB03464FF00004B61954F10004E2FBF0
:106290000264A1FB06E6A4FB07E816EB08064FF034
:1062A000000858F10008E4FB01687642C8F1405844
:1062B00038BFA8F10108A2FB06E4A3FB08E52D19ED
:1062C0004FF0000454F10004E2FB0854A1FB05E682
:1062D000A7FB04E818EB06084FF0000656F100068D
:1062E000E1FB048618F1200556F10006A809A8F183
:1062F0001B08B10908F03F08B8F10A0F40EA8660B0
:106300001CD901EB0C51BDE8F08100BFFCF5EEE8B3
:10631000E2DDD8D3CFCBC7C3C0BDB9B6B4B1AEAC44
:10632000A9A7A5A3A19F9D9B9A9896959392908FBC
:106330008D8C8B898887868584838281A0FB006809
:1063400000FB01F208EB4208B8EB872807D53418A8
:1063500058EB0104D5D5401C51F10001D1E7341AA6
:1063600078EB0104CDD4401E71F10001C9E75FEA6A
:106370004C0C5FEA9C5C0DD105D34FF0000001F09E
:106380000041BDE8F081BDE8F04170B5FFF7C4FE03
:106390006DDBFFBEBDE8F0414FF0000000497047E3
:1063A0000000F87F10B591EA030F48BF83F0004367
:1063B0003FF508AC841A71EB030C07D212198CF06C
:1063C000004C43EB0C03001B61EB0C01DFF8A4E174
:1063D0004FEA1154A4EB135C1EEA430F18BF9EEA68
:1063E000445F00F0B08023EA6E03524221EA045178
:1063F000C3EB6E0338BF5B1EDCF1200E25D322FAFF
:106400000CFE10EB0E0043FA0CFE41EB0E01CCF13A
:10641000200E03FA0EFE10EB0E0051F10001CCF13C
:10642000200E29D412FA0EF201EB0451BDE81040FF
:1064300058BF7047401C1CBFB2F1004F7047002886
:106440000CBF491C20F00100704712EB020E43EB19
:10645000030218BF4FF0010E4EEA4202ACF1200CCD
:10646000DCF11E0E54D943FA0CFE10EB0E0051F174
:10647000FF31CCF11E0ED5D50EF1010E12FA0EFE33
:10648000404141EB010101EB445C5FEA5C5C10D9E7
:1064900010EBDE7001EB045138BFBEF1004FBDE8D8
:1064A000104018BF704700280CBF491C20F00100A5
:1064B000704730D24FEAD42C11F5001124F4006457
:1064C0001BD0B1FA81F20B3AA41AA41ED2F1200318
:1064D000914030FA03F31943904001EBCC71002C4A
:1064E00001EB0451BDE81040A8BF704701F1C04165
:1064F0004FF0000001F000417047B0FA80F310FA4D
:1065000003F100D110BDE41A173C4805C90AE4E7BD
:1065100001EB045110BD491001EB0451BDE81040DE
:106520004FEA300002E04FF0000170474A0008BF18
:106530000042F8D0B2F5001F28BF704701F00041BB
:106540004FF0000070479EEA445F07D011EA5E0FEB
:10655000BDE8104004BF002100207047BDE8104096
:1065600070B5FFF7D9FD00BF40DFF63E83F0004174
:10657000104670470000E0FF43004FEAD30C4FEA9B
:106580003C0C43401FBF40070CF1605113F0FE4F1D
:1065900070471CF0006F03D100200CF000417047E1
:1065A0000CF0004343EA507010B540EACC0000F014
:1065B0001CFA00BF000000924FEA0001FFF7FABD8D
:1065C0004FF000414FF00000A1F50021704700009E
:1065D00090EA010F48BF81F0004100F15882421A51
:1065E0003CBF801A89184FEAD0524FF07F4C1CEA0A
:1065F000410FA2EBD15318BF9CEA026F00F03B8021
:106600004FF0004C4CEA00204CEA012121FA03FC37
:1066100010EB0C0C1ED202F1FF325FEA1C2040EBA3
:10662000C25038BF70471CF07F0F4FEA400C18BFB4
:10663000BCF17F4F38BF7047C3F12003994008BFBA
:1066400020F00100BCF17F4F38BF7047A0F1C0407F
:1066500000F011BA4FEA3C00000A40EBC25028BFDC
:106660001CF0FF0F4FEA400CE6D018BFBCF17F4F83
:1066700038BF7047EAE79CEA026F05D010EA5C0F6A
:1066800008BF00F00040704710B500F0AEF900BF41
:1066900064FBBE3E4FF47F0C1CEAD0121EBF1CEA06
:1066A000D11392EA0C0F93EA0C0F00F0858090EA68
:1066B000010F48BF42F4807240F4000C41F4000026
:1066C0002CF07F4120F07F4000B58142A2EB030215
:1066D0000FF2081CACEB504EC0F100009EF800E039
:1066E0004FEA4E0E00FB0EFC38BF49004FEA2C1C4F
:1066F00002F5FA020CFB0EF34FEACE1E4FEA112C04
:106700004FEAC1210EEB635E42EB22420EFB0CFC12
:106710004FEA1C5300FB03114FEA112C4FEA0131E1
:106720000EFB0CFC4FEADC4C00FB0C11C14228BFF5
:1067300009184CEB03335DF804EB10EB410143EB1C
:10674000C250B2F57C0F38BF704729D512F0F00F58
:106750001CBF00F1C04000F0004070470081828300
:106760008485868788898B8C8D8E8F919293959660
:1067700097999A9C9D9FA0A2A3A5A7A8AAACAEB0EA
:10678000B2B3B5B7B9BCBEC0C2C5C7C9CCCED1D4EF
:10679000D7D9DCDFE2E6E9ECF0F3F7FAFE0000001F
:1067A0004FEA400C0CF1807CBCF17E4F28BF704753
:1067B000B0F1C04000F05FB990EA010F0CEAD113CC
:1067C00048BF42F48072624538BF634507D213F474
:1067D0007F0F16D080EA010000F00040704710B52E
:1067E00000F003F9097EFC3E00F005B880EA0100E4
:1067F00000F00040704780EA010000F0004000F027
:106800003AB912F47F0F04BF0248704780EA0100D2
:1068100000F031B90000C07F41000B0ED3F19E02A1
:1068200008D950F400034FEA032323FA02F048BFCB
:106830004042704710B500F0D8F800BF499224805C
:10684000002070476FF0004282EA2000704700008D
:10685000C10DD1F19E0206DB4FEA002343F0004355
:1068600023FA02F07047004207D54FEA4001B1F128
:10687000FE4F02D24FF00000704710B500F0B5F89F
:1068800049922480002070476FEA20007047000082
:1068900010F0004148BF4042B0FA80F310FA03F212
:1068A000C3F19D030BD051EAC35101EB12205306F3
:1068B00038BF704700F1010008BF20F001007047A9
:1068C000B0FA80F310FA03F2C3F19D030AD0D905A0
:1068D00001EB1220530638BF704700F1010008BFDA
:1068E00020F00100704700004FF47F0C1CEAD0122A
:1068F0001EBF1CEAD11392EA0C0F93EA0C0F00F0B2
:10690000478090EA010F48BF42F480724FF0004C7C
:106910004CEA00204CEA012102EB0302A0FB011328
:10692000A2F50002002918BF43F001035B0028BF55
:106930004FEA330342EB22425FEA132C4CEBC25086
:106940002EBFBCEB436FB2F57C0F70474FEA036C70
:10695000BCF1004F08BF20F00100B2F57C0F38BF3A
:1069600070470BD582F0FF0212F5803FC8BF704719
:1069700000F1C040D8BF00F00040704700F5000CA7
:106980005FEA4C0C48BF7047B0F1C04000F073B8EC
:1069900090EA010F0CEAD11348BF42F480726245BD
:1069A00038BF634504D280EA010000F00040704720
:1069B00010B500F01AF800BF8900013E00F007B8DA
:1069C00000F009B85FEA410C5FEA1C6C08D080EA6D
:1069D000010000F050B85FEA400C5FEA1C6CF6D191
:1069E0004FF00040A0F5800070470EF1020E2EF02F
:1069F000030E5EF8044B244204D44FEA4102B2F184
:106A00007F4F11D84FEA4003B3F17F4F0CD80ED11E
:106A10004FEAD07CB2F17F4F0CEB4C0C0CF1020C26
:106A200008BF4CEBD17C04E04FF0080C01E04FEACA
:106A3000D17C0CEB4C0324FA03F404F00704B4F10A
:106A4000040C06D20EEB840CBDE810404CF0010C97
:106A50006047DFE80CF0070802024FF00040A0F5A5
:106A6000800010BD0846420018BFD2F1807288BF76
:106A700000F0004010BDFF2141EAD050C005704732
:106A800090EA010F48BF81F000413FF5A8AD421ADE
:106A900004D882F00042A0EB020011444FEAD05229
:106AA0004FF07F4C1CEA410FA2EBD15318BF9CEA78
:106AB000026F4AD04FF0004C4CEA00204CEA012112
:106AC00021FA03FCB0EB0C0C0FD412F0FE0F36D001
:106AD0005FEA4C001DD5001240EBC25038BF704732
:106AE0001CF03F0F18BF70470BE0A2F101025FEAF4
:106AF0001C2040EBC25038BF70471CF07F0F18BFFE
:106B00007047C3F12003994014BF401E20F00100DC
:106B1000704780084FEA122308BF7047B0FA80FC24
:106B2000A2EB0C02CCF1280C60FA0CF093EA122FC5
:106B300004BF00EBC25070474FEAC3707047130A9E
:106B40005FEADC1008BF7047F6E79CEA026F04D0EA
:106B500010EA5C0F08BF0020704710B5FFF745FF33
:106B600040DFF63E81F000407047F9F767BE0CF059
:106B70000F03092B08BF082000F059800A2B0BD007
:106B8000082B18BF704708BF1CF0400F0AD04FF009
:106B900000004FF0000170471CF0400F18BF4FF08D
:106BA000004070471CF0100F08D020F0704300F038
:106BB0007F4242EAD3014FEA4370704700F06040E1
:106BC00021F07F4242EA000201F07F4040EA727009
:106BD00070474FF0FF0C4CF4E06C1CEA11531CBFE3
:106BE0009CEA030C9445C2BFDA4201EB02517047A4
:106BF000002B0DD0BCF1000F0FD0002A01F0004196
:106C0000A4BF41F0E04141F07F614FF000007047C8
:106C100001F000414FF00000704750EA01334FF09F
:106C20009B0C18BF4CF0806C7FF46CA870471CF470
:106C3000801F11D01CF4E02F03D06FEACC31490043
:106C400070474FF04050EFF3008222F0704242EA6A
:106C5000000282F3008870474FF000007047000088
:106C600075191A0C6A231B1C1D1E1F207274433BCE
:106C70004138393A696B6C376F77246D6E7000005C
:106C80000000000000000000000068000004800018
:106C90004101000000010000830000000008000026
:106CA0000001001832000500000020410000D2421F
:106CB000295C0F3E9A99993E3333733F295C0F3E0E
:106CC000000070000000002400000002000300002B
:106CD00000650054FFEF0000FA80000B12820001F3
:106CE000030C30C30E8C8CE914D5400213710F8E47
:106CF0003883F8833000F883258EF8833000F883DA
:106D0000FFFFFFFF0FFEA9D6240004001A8279A11D
:106D10000000003CFFFF00000010000038836FA25D
:106D2000003E03304000000002CAE3093E8000003C
:106D30002000000000000000400000006000000093
:106D4000000C0000000C186E000006920A16C0DF4E
:106D5000FFFF0256FD8CD377FFE1C496E0C5BEAAC3
:106D600000000000FFFF0B2B000016570000035926
:106D70004000000000001DFA00026C1D0000000031
:106D80003FFFDFEB003EB3B6000D227800002F3C42
:106D900000000000001942B5000039A20000B365F0
:106DA000D90E9FC91DCF4C343000000050000000A8
:106DB0003BB67AE80064000000C800000000000054
:106DC000100000001000FA921000225E000D229FB9
:106DD0000001000000320000FF46000063D4000004
:106DE0001000000004D6000004CC000004CC000019
:106DF00000001072000000400000000000000000D1
:106E0000000600020005000700000000006400000A
:106E100000000000000000050005006400200000E4
:106E2000000000000000000000004000000003001F
:106E300000000032F8980000FF650000830F00009A
:106E4000FF9BFC00000000000000000000000000AC
:106E50000000000000000000000000000000000032
:106E60000000000000000000000000000000100012
:106E700040000000000000060000B26A00020000AE
:106E80000001FB830068000000D9FC007CF1FF8357
:106E90000000000000650000006403E800640028B2
:106EA000000000250000000016A0000000001000F7
:106EB00000001000002F0000000001F4000010008E
:106EC00000280000FFFF4581FFFFFA72000000006C
:106ED00000000000004400050005BAC6004778A283
:106EE0000000000100000000000006000000001487
:106EF0000000254D002F706D000005AE000C02D083
:106F00000000000000000000000000000000000081
:106F1000001B000000000000000000000000000056
:106F200000640000000800000000000000000000F5
:106F30000000000000000000000000000000000051
:106F40000000000000000000000000000000000041
:106F50000000000000000000000000000000000031
:106F60000000000000000000000000000000000021
:106F70000000000000000000000000000000000011
:106F8000001B00000000000000000000000E000ECA
:106F900000000AC70004000000000032FFFFFF9C51
:106FA00000000B2B00000002000000010000006444
:106FB000FFE50000000000000000000000000000ED
:106FC00000000001000000000001000000000000BF
:106FD000000180000001800000018000002426D311
:106FE0000000000000000000000600100096003CB9
:106FF0000000000000000000000000000000000091
:107000000C0A4E68CDCF770950166759C619CE8243
:107010000000000000000000000000000000000070
:10702000000000000000000017D7840003000000EB
:107030000000000000000000C7938F9D1E1B1C195C
:107040000000000000000000000000000000000040
:10705000000000000000000002031885000040004E
:10706000000000030000000300000000000000001A
:1070700040000000000000000000000000000000D0
:107080000000000000000000000000000000000000
:1070900000000000000000000000000000000000F0
:1070A00000000000677DDF7E72902E554CF6E6886A
:1070B00000000000000000000000000000000000D0
:1070C000D8DCB4B8B0D8B9ABF3F8FAB3B7BB8E9E7E
:1070D000AEF132F51BF1B4B8B08097F1A9DFDFDF74
:1070E000AADFDFDFF2AAC5CDC7A90CC92C97F1A989
:1070F00089264666B28999A92D557DB0B08AA89691
:10710000365676F1BAA3B4B280C0B8A89711B2834C
:1071100098BAA3F0240844106418B2B9B49883F163
:10712000A329557DBAB5B1A38393F0002850F5B2D9
:10713000B6AA839328547CF1B9A3829361BAA2DAE8
:10714000DEDFDB819AB9AEF5606870F1DABAA2DFF2
:10715000D9BAA2FAB9A38292DB31BAA2D9BAA2F8FB
:10716000DF85A4D0C1BBAD83C2C5C7B8A2DFDFDF56
:10717000BAA0DFDFDFD8D8F1B8AAB38DB4980D3547
:107180005DB2B6BAAF8C96198F9FA70E161EB49A31
:10719000B8AA872C547CBAA4B08AB691325676B27B
:1071A0008494A4C808CDD8B8B4B0F19982A82D555C
:1071B0007D98A80E161EA22C547C92A4F02C507818
:1071C000F184A898C4CDFCD80DDBA8FC2DF3D9BA66
:1071D000A6F8DABAA6DED8BAB2B68696A6D0F3C8B2
:1071E00041DAA6C8F8D8B0B4B882A892F52C548871
:1071F00098F135D9F418D8F1A2D0F8F9A884D9C7F4
:10720000DFF8F883C5DADF69DF83C1D8F40114F150
:10721000A8824EA884F311D182F5D992289788F1DB
:1072200009F41C1CD884A8F3C0F9D1D99782F1299C
:10723000F40DD8F3F9F9D1D982F4C203D8DEDF1AFC
:10724000D8F1A2FAF9A88498D9C7DFF8F8F883C76B
:10725000DADF69DFF883C3D8F40114F198A8822E2D
:10726000A884F311D182F5D992509788F109F41CC2
:10727000D884A8F3C0F8F9D1D99782F149F40DD890
:10728000F3F9F9D1D982F4C403D8DEDFD8F1AD889F
:1072900098CCA809F9D98292A8F57CF1883ACF94C4
:1072A0004A6E98DB6931DAADF2DEF9D88795A8F23B
:1072B00021D1DAA5F9F417D9F1AE8ED0C0C3AE82D0
:1072C000C684C3A88595C8A588F2C0F1F4010EF163
:1072D0008E9EA8C63E56F554F18872F40115F198B9
:1072E00045856EF58E9E0488F142985A8E9E0688DA
:1072F00069F4011CF1981E1108D0F504F11E9702E3
:1073000002983625DBF9D985A5F3C1DA85A5F3DF27
:10731000D88595A8F309DAA5FAD88292A8F578F16C
:10732000881A849F26889821DAF41DF3D8879F391C
:10733000D1AFD9DFDFFBF9F40CF3D8FAD0F8DAF9E2
:10734000F9D0DFD9F9D8F40BD8F3879F39D1AFD969
:10735000DFDFF41DF3D8FAFCA869F9F9AFD0DADE63
:10736000FAD9F88F9FA8F1CCF398DB45D9AFDFD0DD
:10737000F8D8F18F9FA8CAF38809DAAF8FCBF8D875
:10738000F2AD978D0CD9A5DFF9BAA6F3FAF412F293
:10739000D8950DD1D9BAA6F3FADAA5F2C1BAA6F3F7
:1073A000DFD8F1BAB2B68696A6D0CAF349DAA6CB30
:1073B000F8D8B0B4B8D8AD84F2C0DFF18FCBC3A891
:1073C000B2B68696C8C1CBC3F3B0B48898A821DB07
:1073D000718D9D71859521D9ADF2FAD88597A82830
:1073E000D9F408D8F28D29DAF405D9F285A4C2F2CD
:1073F000D8A88D9401D1D9F411F2D88721D8F40AF4
:10740000D8F28498A8C801D1D9F411D8F3A4C8BB84
:10741000AFD0F2DEF8F8F8F8F8F8F8F8D8F1B8F6E6
:10742000B5B9B08A95A3DE3CA3D9F8D85CA3D9F846
:10743000D87CA3D9F8D8F8F9D1A5D9DFDAFAD8B130
:107440008530F7D9DED8F830ADDADED8F2B48C99D1
:10745000A32D557DA083DFDFDFB591A0F629D9FBF1
:10746000D8A0FC29D9FAD8A0D051D9F8D8FC51D944
:10747000F9D879D9FBD8A0D0FC79D9FAD8A1F9F9F3
:10748000F9F9F9A0DADFDFDFD8A1F8F8F8F8F8ACFD
:10749000DEF8ADDE8393AC2C547CF1A8DFDFDFF6A1
:1074A0009D2CDAA0DFD9FADB2DF8D8A850DAA0D0CD
:1074B000DED9D0F8F8F8DB55F8D8A878DAA0D0DF14
:1074C000D9D0FAF8F8F8F8DB7DF8D89CA88CF5301C
:1074D000DB38D9D0DEDFA0D0DEDFD8A848DB58D932
:1074E000DFD0DEA0DFD0DED8A868DB70D9DFDFA078
:1074F000DFDFD8F1A888902C547C98A8D05C38D1D4
:10750000DAF2AE8CDFF9D8B087A8C1C1B188A8C6BD
:10751000F9F9DA36D8A8F9DA36D8A8F9DA36D8A8D7
:10752000F9DA36D8A8F9DA36D8F78D9DADF818DA39
:10753000F2AEDFD8F7ADFA30D9A4DEF9D8F2AEDE7C
:10754000FAF983A7D9C3C5C7F1889BA77AADF7DE3F
:10755000DFA4F8849408A797F300AEF29819A488E2
:10756000C6A39488F632DFF28393DB09D9F2AADF4F
:10757000D8D8AEF8F9D1DAF3A4DEA7F1889B7AD88F
:10758000F38494AE19F9DAAAF1DFD8A881C0C3C593
:10759000C7A39283F628ADDED9F8D8A350ADD9F8A9
:1075A000D8A378ADD9F8D8F8F9D1A1DADEC3C5C728
:1075B000D8A18194F818F2B089ACC3C5C7F1D8B886
:1075C000B4B09786A8319B069907AB9728889BF0A3
:1075D0000C201440B0B4B8F0A88A9A285078B79B11
:1075E000A8295179247059446938644831F1BBABFA
:1075F00088002C547CF0B38BB8A804285078F1B0E4
:1076000088B49726A85998BBABB38B02264666B0C0
:10761000B8F08A9CA82951798B2951798A2470590C
:107620008B2058718A4469388B3940688A644831A4
:107630008B30496088F1AC002C547CF08CA8042875
:107640005078F1889726A85998AC8C02264666F0A7
:10765000899CA8295179247059446938644831A912
:107660008809205970AB11384069A8193148608CDD
:10767000A83C415C207C00F187981986A86E767E34
:10768000A999882D557DD8B1B5B9A3DFDFDFAED07C
:10769000DFAAD0DEF2ABF8F9D9B087C4AAF1DFDFF8
:1076A000BBAFDFDFB9D8B1F1A3978E60DFB084F252
:1076B000C8F8F9D9DED89385F14AB183A308B58318
:1076C0009A0810B79F10D8F1B0BAAEB08AC2B2B65D
:1076D0008E9EF1FBD9F41DD8F9D90CF1D8F8F8AD8C
:1076E00061D9AEFBD8F40CF1D8F8F8AD19D9AEFBDE
:1076F000DFD8F416F1D8F8AD8D61D9F4F4ACF59C6F
:107700009C8DDF2BBAB6AEFAF8F40BD8F1AED0F8F8
:10771000AD51DAAEFAF8F1D8B9B1B6A3839C08B985
:10772000B1839AB5AAC0FD3083B79F10B58B93F291
:107730000202D1ABDADED8F1B080BAABC0C3B284FA
:10774000C1C3D8B1B9F38BA391B609B4D9ABDEB03C
:10775000879CB9A3DDF1B38B8B8B8B8BB087A3A3F5
:10776000A3A3B28BB69BF2A3A3A3A3A3A3A3A3A398
:10777000A3F1B087B59AA3F39BA3A3DCBAACDFB99E
:10778000A3A3A3A3A3A3A3A3A3A3A3A3A3A3A3A3C9
:10779000D8D8D8BBB3B7F1AAF9DAFFD9809AAA280A
:1077A000B48098A720B79787A86688F07951F190A0
:1077B0002C870CA781976293F071716085940129E1
:1077C000517990A5F1284C6C870C95188578A38386
:1077D00090284C6C886CD8F3A28200F210A8921901
:1077E00080A2F2D926D8F188A84DD948D896A839D0
:1077F00080D93CD89580A839A68698D92CDA87A755
:107800002CD8A8899519A980D938D8A88939A980F0
:10781000DA3CD8A82EA83990D90CD8A8953198D997
:107820000CD8A809D9FFD801DAFFD89539A9DA26EA
:10783000FFD890A80D8999A810809821DA2ED889B0
:1078400099A83180DA2ED8A886963180DA2ED8A869
:10785000873180DA2ED8A88292F34180F1D92ED8D0
:10786000A882F31980F1D92ED882ACF3C0A280226D
:10787000F1A62EA72EA92298A829DAACDEFFD8A25D
:10788000F22AF1A92E8292A8F23180A696F1D900AF
:10789000AC8C9C0C30ACDED0DEFFD88C9CACD01015
:1078A000ACDE8092A2F24C82A8F1CAF235F1968841
:1078B000A6D900D8F1FF0000000000000000000081
:1078C0000000000000003F40000000000000000039
:1078D0003000400030004000000009000BC03D00B7
:1078E0000BC03D00090018C024407FE022403180D9
:1078F0000000180024C01B000D803240018003806E
:107900001C4027401C800740004010006000000021
:107910000000000000000000000000001F80204068
:1079200040200000402020401F800000000009008F
:1079300006001F80060009000000040004003F80CC
:1079400004000400000000100060000000000000BF
:107950000000040004000400040004000000000013
:1079600000400000000000000000002001C00600F0
:107970003800400000001F802040204020401F8031
:107980000000000010403FC000400000000018C090
:107990002140224024401840000010802040244014
:1079A00024401B80000002000D0011003FC0014078
:1079B00000003C80244024402440238000001F809D
:1079C000244024403440038000003000200027C0C1
:1079D0003800200000001B802440244024401B80ED
:1079E00000001C0022C0224022401F800000000036
:1079F00000000840000000000000000000000460DB
:107A0000000000000000000004000A0011002080B7
:107A100040400900090009000900090000000000B9
:107A20004040208011000A0004001800200023407C
:107A30002400180000001F802040274029401F40DC
:107A40000000004007C039000F0001C00040204086
:107A50003FC0244024401B8000001F802040204065
:107A600020403080000020403FC0204020401F8048
:107A7000000020403FC024402E4030C00000204085
:107A80003FC024402E00300000000F001080204036
:107A900022403380020020403FC0040004003FC069
:107AA0002040204020403FC0204020400000006097
:107AB000202020203FC02000200020403FC0244044
:107AC0000B0030C0204020403FC02040004000401C
:107AD00000C03FC03C0003C03C003FC0000020404D
:107AE0003FC00C4023003FC020001F8020402040AA
:107AF00020401F80000020403FC024402400180088
:107B000000001F802140214020E01FA000002040F5
:107B10003FC02440260019C0004018C02440244023
:107B2000224031800000300020403FC02040300023
:107B3000000020003F80004000403F8020002000E7
:107B40003E0001C0070038002000380007C03C009C
:107B500007C038000000204039C0060039C020406E
:107B600000002000384007C03840200000003040AE
:107B700021C02640384020C00000000000007FE007
:107B8000402040200000000070000C0003800040F6
:107B900000000000402040207FE0000000000000C6
:107BA0002000400020000000000000100010001025
:107BB0000010001000100000000040000000000055
:107BC0000000000002800540054003C00040200086
:107BD0003FC00440044003800000000003800440D4
:107BE00004400640000000000380044024403FC0E1
:107BF00000400000038005400540034000000000F5
:107C000004401FC0244024402000000002E0055032
:107C100005500650042020403FC00440040003C02B
:107C200000400000044027C0004000000000001099
:107C30000010041027E00000000020403FC0014079
:107C4000070004C00440204020403FC000400040E6
:107C5000000007C0040007C0040003C00000044087
:107C600007C00440040003C000400000038004403B
:107C7000044003800000041007F004500440038017
:107C80000000000003800440045007F0001004408E
:107C900007C0024004000400000000000640054048
:107CA000054004C00000000004001F8004400040A4
:107CB0000000040007800040044007C000400400AA
:107CC000070004C0018006000400060001C0070090
:107CD00001C006000000044006C0010006C00440C8
:107CE00000000410071004E00180060004000000FA
:107CF000044005C0064004400000000000000400ED
:107D00007BE040200000000000000000FFF00000C9
:107D10000000000040207BE0040000000000400064
:107D20008000400020002000400000000000000013
:107D30000000000000000000000000000000000043
:107D40001FCC000C00000000000000000800300004
:107D500060000800300060000000022003FC1E20CC
:107D6000022003FC1E200220000000000E18110457
:107D70003FFF10840C78000000000F0010840F38C3
:107D800000C0077818840078000000780F8410C4C1
:107D900011240E9800E400840008080068007000B8
:107DA00000000000000000000000000000000000D3
:107DB00007E01818200440020000000040022004E0
:107DC000181807E000000000000002400240018097
:107DD0000FF001800240024000000080008000801F
:107DE0000FF800800080008000000001000D000EF0
:107DF0000000000000000000000000000080008083
:107E0000008000800080008000800000000C000CDA
:107E10000000000000000000000000000006001844
:107E200000600180060018002000000007F008082C
:107E300010041004080807F00000000008040804FB
:107E40001FFC000400040000000000000E0C1014D1
:107E50001024104411840E0C000000000C181004B3
:107E60001104110412880C700000000000E00320CF
:107E7000042408241FFC0024000000001F98108424
:107E800011041104108810700000000007F0088829
:107E90001104110418880070000000001C0010007C
:107EA00010FC13001C001000000000000E381144EC
:107EB0001084108411440E38000000000700088C64
:107EC00010441044088807F0000000000000000083
:107ED000030C030C00000000000000000000000183
:107EE00001060000000000000000000000800140CA
:107EF00002200410080810040000022002200220C2
:107F000002200220022002200000000010040808C5
:107F10000410022001400080000000000E0012004A
:107F2000100C106C10800F00000003E00C1813E41C
:107F3000142417C4082807D000000004003C03C420
:107F40001C40074000E4001C000410041FFC110446
:107F5000110411040E880070000003E00C181004D6
:107F60001004100410081C10000010041FFC100462
:107F700010041004080807F0000010041FFC11048E
:107F8000110417C410040818000010041FFC110489
:107F9000110017C010000800000003E00C181004C6
:107FA000100410441C780040000010041FFC1084D2
:107FB0000080008010841FFC1004000010041004D6
:107FC0001FFC100410040000000000030001100159
:107FD00010011FFE10001000000010041FFC11040F
:107FE00003801464181C1004000010041FFC10040B
:107FF000000400040004000C000010041FFC1F001B
:1080000000FC1F001FFC1004000010041FFC0C04E7
:10801000030000E010181FFC100007F0080810040F
:1080200010041004080807F0000010041FFC10845E
:108030001080108010800F00000007F00818102436
:108040001024101C080A07F2000010041FFC110481
:10805000110011C011300E0C000400000E1C1104A0
:108060001084108410441C38000018001000100404
:108070001FFC100410001800000010001FF810046E
:108080000004000410041FF8100010001E0011E08E
:10809000001C007013801C0010001FC0103C00E08A
:1080A0001F0000E0103C1FC000001004180C163424
:1080B00001C001C01634180C100410001C00130479
:1080C00000FC13041C00100000000804101C1064C5
:1080D000108413041C0410180000000000000000AD
:1080E0007FFE4002400240020000000030000C0011
:1080F00003800060001C00030000000040024002FA
:1081000040027FFE00000000000000000000200090
:10811000400040004000200000000001000100017C
:1081200000010001000100010001000040004000CA
:108130002000000000000000000000000098012462
:1081400001440144014400FC000410001FFC0088AD
:108150000104010400880070000000000070008825
:108160000104010401040088000000000070008880
:108170000104010411081FFC0004000000F8014480
:1081800001440144014400C800000000010401044E
:108190000FFC1104110411001800000000D6012981
:1081A0000129012901C90106000010041FFC0084F7
:1081B00001000100010400FC000400000104190496
:1081C00019FC00040004000000000000000300018E
:1081D0000101190119FE0000000010041FFC002419
:1081E000004001B4010C0104000000001004100460
:1081F0001FFC0004000400000000010401FC010455
:10820000010001FC0104010000FC010401FC0084E8
:1082100001000100010400FC0004000000F801045A
:1082200001040104010400F80000010101FF0085C0
:108230000104010400880070000000000070008844
:1082400001040104010501FF00010104010401FC16
:1082500000840104010001800000000000CC012422
:108260000124012401240198000000000100010004
:1082700007F80104010400000000010001F80004F7
:1082800000040004010801FC0004010001800170E9
:10829000000C001001600180010001F0010C0030B1
:1082A00001C00030010C01F0010000000104018C4C
:1082B00000740170018C0104000001010181017151
:1082C000000E001801600180010000000184010C13
:1082D000013401440184010C000000000000000092
:1082E000000001003EFC40024002000000000000CF
:1082F0000000FFFF000000000000000040024002FC
:108300003EFC010000000000000000006000800052
:10831000800040004000200020000000000000001D
:10832000000000000000000000000000000000004D
:10833000000000000000000000000000000000003D
:10834000000000000000000000000000000F803866
:108350000FFE380F80380000000000000000000011
:1083600000000000000000000100000600000C00FA
:10837000003800003100000600000C00003800004A
:108380003000000000000000000061800067F80776
:10839000F980006180006180006180006180006779
:1083A000F807F98000618000000000000000000074
:1083B00001C0E003E0F00630080418081FFFFE04C7
:1083C0000E080787F00381E000000000000001F0C4
:1083D00000060C00040408060C7001F9C0000E0031
:1083E000003BE000EC18070808040C180003E0004C
:1083F00000000001E00007F003F818041C0804174F
:108400000807E1D003C0E00023B0003C08002008CA
:1084100000001000000000000001000031000032E8
:1084200000001C0000000000000000000000000030
:10843000000000000000000000000000000000003C
:10844000000000000000000000007F0001FFC007E6
:1084500080F00C0018100004200002000000000052
:10846000002000021000040C00180780F001FFC07B
:10847000007F00000000000000000000000000007D
:108480000000000000004200006600006600003CA2
:108490000000180003FFC0001800003C0000660048
:1084A0000066000042000000000008000008000014
:1084B000080000080000080001FFC00008000008D4
:1084C0000000080000080000080000000000000193
:1084D00000003100003200001C000000000000001D
:1084E000000000000000000000000000000000008C
:1084F0000000080000080000080000080000080054
:108500000008000008000008000008000008000043
:1085100000000000000000000000380000380000EB
:108520003800000000000000000000000000000013
:1085300000000000000000000000000600001C0019
:108540000070000180000E0000380000C00007002D
:10855000001C0000300000000000000000007F80D0
:1085600001FFE003807006001804000804000806FC
:10857000001803807001FFE0007F80000000000011
:108580000000000001000801000801000803FFF8D6
:1085900007FFF800000800000800000800000000C5
:1085A000000000000001C03802C058040098040117
:1085B00018040218040418061C1803F81801E0F83F
:1085C00000000000000000000001C0E003C0F00453
:1085D000000804080804080806180803F41801E74E
:1085E000F00001E0000000000000000000000300B7
:1085F000000D000011000061000081080301080760
:10860000FFF80FFFF800010800010800000000005B
:10861000000000E007FCD006080806100806100855
:10862000061008061838060FF00607C00000000004
:108630000000000000003F8001FFE00384300208DA
:1086400018041008041008041008071810030FF08D
:108650000007C000000000000000000003C0000789
:1086600000000600000600F80607F806180006E0FD
:108670000007000006000000000000000001E1E02B
:1086800003F7F0063410041808041808040C080452
:108690000C0806161803F3F001C1E000000000000A
:1086A0000000F80003FC3003063804020804020846
:1086B0000402080404100308F001FFC0007F00005A
:1086C00000000000000000000000000000000000AA
:1086D00000007038007038007038000000000000A2
:1086E000000000000000000000000000000000008A
:1086F000000000000000301A00301C0000000000E4
:108700000000000000000000000000000000000069
:1087100000080000140000220000410000808001D9
:1087200000400200200400100800080000000000C3
:108730000000210000210000210000210000210094
:108740000021000021000021000021000021000084
:1087500000000000000000000800080400100200F3
:108760002001004000808000410000220000140031
:1087700000080000000000000003C00004C0000466
:108780000000080038080F380808380810000C30BE
:108790000007E00003C000000000000000003F8070
:1087A00000FFE0038070020F1006708804C0880488
:1087B0008308047F8802C09003012000FE4000006F
:1087C000080000180001F8003E0801C2000702007E
:1087D00007E20000FE00001FC80001F8000038009A
:1087E000000804000807FFF807FFF8040808040859
:1087F0000804080804080806180803F41801E7F03C
:108800000001E0000000000000003F8001FFE003E5
:108810008070020018040008040008040008040026
:10882000100600200780C000000004000807FFF8C1
:1088300007FFF804000804000804000804001802F8
:10884000001003807001FFE0007F80000000040042
:108850000807FFF807FFF8040808040808040808D8
:10886000040808043E08040008060018010060001F
:10887000000004000807FFF807FFF80408080408D0
:1088800000040800040800043E0006000006000082
:10889000018000000000000000003F8001FFE003B5
:1088A000807006001804000804020804020802038D
:1088B000F00783F000020000020004000807FFF840
:1088C00007FFF8040808000800000800000800007E
:1088D000080004080807FFF807FFF8040008000074
:1088E0000000000004000804000804000807FFF866
:1088F00007FFF80400080400080400080000000056
:108900000000000000000006000007000001040055
:108910000104000104000307FFFE07FFFC04000040
:1089200004000004000004000807FFF807FFF80433
:108930000C08001800003E0004C7800503C80600AC
:10894000F804003804001800000804000807FFF8C5
:1089500007FFF804000800000800000800000800F5
:10896000000800000800001800006000000004007B
:108970000807FFF807800807FC00007FC00003F825
:108980000007C000780007800807FFF807FFF80419
:10899000000804000807FFF807000803C00000E013
:1089A00000003800001E000007000001C00400F0B5
:1089B00007FFF8040000000000007F8001FFE003D3
:1089C0008070060018040008040008060018030060
:1089D0003001FFE0007F8000000004000807FFF87E
:1089E00007FFF8040408040400040400040400045D
:1089F0000400060C0003F80001F000000000000075
:108A000000007F8001FFE00380700600880400887A
:108A10000400C806003C03003E01FFE6007F84001E
:108A2000000004000807FFF807FFF804080804081E
:108A300000040C00040F00040BC00610F003F03813
:108A400001E00800000800000001E0F803F0300633
:108A50003010041808041808040C08040C08020656
:108A6000180207F00781E000000001800006000006
:108A700004000004000004000807FFF807FFF804E2
:108A8000000804000004000006000001800004004B
:108A90000007FFE007FFF0040018000008000008CE
:108AA00000000800000800000804001007FFE004B0
:108AB000000004000006000007E00007FE00041F9D
:108AC000E00001F80000380001E0043E0007C000AB
:108AD00006000004000004000007E00007FFC004D7
:108AE0001FF80007C007F80007FF80043FF80007E1
:108AF000C004F800070000040000000000040008A3
:108B000006001807C07805F1C8003E00001F800469
:108B100063E80780F806001804000800000004005D
:108B20000006000007800007E008047C08001FF82A
:108B30000007F800180804E0080700000600000419
:108B400000000000000100080600380400F80403DB
:108B5000E8040F08047C0805F00807C0080700189F
:108B600004006000000000000000000000000000A1
:108B700000000000003FFFFE200002200002200055
:108B8000022000022000020000000000000000009F
:108B900008000007000000C00000380000060000C8
:108BA00001C000003000000E0000010000000000C5
:108BB000000000002000022000022000022000022D
:108BC0002000023FFFFE0000000000000000000047
:108BD000000000000000000000000008000010007D
:108BE00000300000200000300000100000080000ED
:108BF0000000000000000000010000010000010072
:108C0000000100000100000100000100000100005F
:108C10000100000100000100000100000000000050
:108C200000000020000020000010000010000000E4
:108C30000000000000000000000000000000000034
:108C4000000000F00019F8001B1800220800260898
:108C5000002408002410003FF8001FF8000008005E
:108C6000001800000004000007FFF80FFFF00018D4
:108C700018001008002008002008003018001FF01D
:108C8000000FC00000000000000007C0001FF0003F
:108C90001830002008002008002008003C08001CB4
:108CA000100000600000000000000000000007C08D
:108CB000001FF000381800200800200800200804D9
:108CC000101007FFF80FFFF0000010000000000078
:108CD000000000000007C0001FF000123000221842
:108CE000002208002208003208001E10000E20009A
:108CF000000000000000200000200800200801FF04
:108D0000F803FFF8062008042008042008072000C4
:108D100003000000000000000000000E000E6E00C6
:108D20001FF30031B10020B10020B1003191001FCC
:108D300013002E1E00200E0030000000000400086A
:108D400007FFF80FFFF800100800200000200000C7
:108D50002008003FF8001FF8000008000000000095
:108D600000000000002008002008002008063FF84E
:108D7000063FF8000008000008000008000000009E
:108D800000000000000000000000030000030020BD
:108D900001002001002003063FFE063FFC0000000A
:108DA00000000000000000000004000807FFF80FAA
:108DB000FFF8000188000300002FC00038F80020F1
:108DC000380020080000080000000000000000003B
:108DD00004000804000804000807FFF80FFFF8006B
:108DE000000800000800000800000000000000204B
:108DF00008003FF8003FF8001008002000003FF88E
:108E0000003FF8001008002000003FF8003FF80085
:108E10000008000000002008003FF8003FF80010A4
:108E200008001000002000002008003FF8001FF894
:108E30000000080000000000000007C0000FF00064
:108E40001830003008002008002008003008001802
:108E500030000FF00007C0000000000000002001FB
:108E6000003FFF003FFF0010110020090020080014
:108E70002008003038001FF0000FC0000000000084
:108E8000000007C0001FF00038180020080020086C
:108E9000002009001011001FFF003FFF000001002B
:108EA0000000002008002008002008003FF8003FD4
:108EB000F80008080010080020080020000030001A
:108EC000003000000000000000000000000C7800EE
:108ED0001E18003308002308002108002188002103
:108EE000980030F000386000000000000000200012
:108EF00000200000200000FFF003FFF80020080021
:108F000020080020080000300000000000000000E1
:108F100000002000003FF0007FF80000180000086B
:108F2000000008002010003FF8007FF00000100053
:108F30000000000000002000003000003C00003F66
:108F4000800023F0000078000070002380003C00C7
:108F5000003000002000002000003C00003FE00046
:108F600023F80000E0002700003E00003FE0002161
:108F7000F80001E0003E0000200000000000200892
:108F8000002008003838003E680027800003C80031
:108F90002CF80038380020180020080000000000DD
:108FA00000002000003003003C01003F830023EC60
:108FB000000070002380003C000020000020000022
:108FC00000000000000000000038080020380020E9
:108FD000F80023E8002F88003E0800380800201819
:108FE0000000700000000000000000000000000011
:108FF00000000000000008000014001FF7FC300013
:109000000620000200000000000000000000000038
:10901000000000000000000000000000FFFFFF0053
:109020000000000000000000000000000000000040
:10903000000000002000023000061FF7FC001400B2
:109040000008000000000000000000000000000018
:109050000000000000180000600000400000400018
:1090600000200000100000080000040000040000C0
:109070000C000010000000202021222C202020289D
:1090800024232020000040404242424242424242C9
:1090900042424240400000E000FF0020C000FE00CD
:1090A00020C000FF00008140300F000000003F00A2
:1090B000000000FF0000048484FC848400FE92927F
:1090C000FE9292FE00002060201F10104044444495
:1090D0007F444444400000040404040404FC0404E9
:1090E000040404040000202020202020203F202011
:1090F00020202020200020202020202020FF2020B1
:1091000020202020200080804020100C0300030C31
:109110001020408080004030119690909196909061
:10912000981413503000040404040444847E06059B
:10913000040404040400040000080000000000000F
:109140000002000100001000555555555555C53F0A
:109150007D6FEB0312D6D4BF5544880E55C1C93F6D
:109160003B8F68B52882A4BF88B20175E0EF493F04
:1091700009F7FD0DE13D023F4B2D8A1C273A03C044
:10918000C88A599CE52A004059018D1B6C06E6BF30
:1091900082922EB1C5B8B33F4FBB610567ACDD3FCE
:1091A000182D4454FB21E93F9BF681D20B73EF3F0E
:1091B000182D4454FB21F93FE2652F227F2B7A3C86
:1091C000075C143326A6813CBDCBF07A8807703C3F
:1091D000075C143326A6913CC4EB98999999C9BFB2
:1091E000711623FEC671BCBF6D9A74AFF2B0B3BFE7
:1091F0009AFDDE522DDEADBF2F6C6A2C44B4A2BFA7
:109200000D5555555555D53FFF8300922449C23F12
:109210006E204CC5CD45B73F513DD0A0660DB13F46
:10922000EB0D76244B7BA93F11DA22E33AAD903F58
:10923000000000000000000002400000000000A04C
:109240000000000005400000000000C80000000011
:109250000C4000000000409C00000000194000008D
:109260000020BCBE0000000034400000BFC91B8EBF
:1092700000000004B5400000504BCFD06607E2CF9D
:10928000010000006C4100003E8251AADFEEA734CD
:1092900001000000D9420000DCB5A0E23A301F977F
:1092A000FFFFFFFFB4450000FD25A0C8E9A3C14FA3
:1092B000FFFFFFFFFF3F00000000008000000000F4
:1092C000FF3F00000000008000000000089300083D
:1092D00000000020940000006C0100089C9300082E
:1092E00094000020DC0B0000880100081C00000036
:1092F00043000000F8FFFFFF0C0000000E0000001C
:109300000F0000002E000000000000000000000020
:10931000000000000000000000000000000000004D
:109320000000000000A24A0400000000000000004D
:109330000102030406070809606C00088A6C000833
:10934000000000000000000000000000000000001D
:10935000000000000000000000000000000000000D
:10936000000000000000000000000000986C0008F1
:1093700001000000010000000100000000000000EA
:1093800000000000000000000000010203040102D0
:0C93900003040607080902040608000098
:0400000508000131BD
:00000001FF
