:020000040800F2
:100000008011002045010008A14F00084B3700086F
:100010000D4E0008390B0008715E0008000000005A
:100020000000000000000000000000007156000801
:10003000730C000800000000F75300087D5700080B
:100040005F0100085F0100085F0100085F01000810
:100050005F0100085F0100085F0100085F01000800
:100060005F0100085F0100085F0100085F010008F0
:100070005F0100085F010008010C00080D0C00087A
:10008000190C0008250C00085F0100085F0100083A
:100090005F0100085F0100085F0100085F010008C0
:1000A0005F0100085F0100085F0100085F010008B0
:1000B0004D5800085958000865580008593700087D
:1000C0004D37000871370008653700085F010008E8
:1000D0005F0100085F010008FD5D00085F01000886
:1000E0005F0100085F0100085F0100085F01000870
:1000F0005F0100085F0100085F0100085F01000860
:100100005F0100085F010008715800085F010008E6
:10011000A55A00085F0100085F0100085F010008A0
:100120005F0100085F010008310C00083D0C000869
:10013000DFF80CD000F016FC00480047F56F00080F
:10014000801100200648804706480047FEE7FEE78A
:10015000FEE7FEE7FEE7FEE7FEE7FEE7FEE7FEE777
:100160000558000831010008202A04DB203A21FA52
:1001700002F00021704721FA02F3D040C2F12002C0
:100180009140084319467047F0B480EA0102D40F49
:100190004200B2EB410F02D20246084611464A0025
:1001A00042D0C30DDDB2C1F3C752AD1A202D35DAEE
:1001B000C1F3160141F4000204B15242C5F1200618
:1001C00002FA06F12A411044B3EBD05F23D0C4B148
:1001D000012DA0EBC35009DCF0BC4FF0004202EA55
:1001E000C352DBB200F5000000F01FBA400000F17E
:1001F000807000EBC350A0F1807040EAD1704900DC
:1002000009E0490841EAC071A0EBC35000F50000C5
:10021000400800EBC350F0BC00F0FEB9614201227F
:1002200002EB4101001BF6E7F0BC704781F0004192
:10023000AAE780F00040A7E780EA010210B502F0CB
:100240000043400022D04A001FD0010E01EB126192
:10025000C0F35600C2F3560240F4000042F400021C
:10026000A0FB022000047F39140400D0401C50EA97
:10027000124001D44000491EC2B20C0604EBD0105B
:10028000401C4008802A02D003E0002010BD20F06E
:100290000100002900DA0020184310BD30B480EAC4
:1002A000010202F0004530F0004221F0004013D07E
:1002B00090B1C30DD40DC2F31601C0F31600E41AB9
:1002C00041F4000140F400027D34914201D3641CEA
:1002D00000E04900002C02DA30BC002070474FF4E7
:1002E00000000023914201D3891A034340084FEADA
:1002F0004101F7D151B1914202D14FF0004105E0E7
:1003000002D24FF0010101E06FF0010103EBC45094
:10031000284430BC00F080B9420005D0C0F3C75279
:100320005242914201DC0020704700EBC1507047FF
:100330002DE9FE4F804681EA0300C00F0C46009075
:1003400021F0004123F00045B8EB0200A94105D29D
:100350004046214690461C460B46024623F000408C
:10036000104347D0270DC7F30A00C3F30A51029088
:10037000401A019040286BDAC3F3130040F4801B4D
:100380000098924620B10023D2EB030A63EB0B0BDB
:1003900001985946C0F14002504600F01CF906464B
:1003A0000D4650465946019A00F024F910EB08001A
:1003B0006141002487EA115284EAE7731A4340D06E
:1003C000009A62B3019A012A4FEA075215DC001B1A
:1003D00061EB02014FF0004202EA0752CDE9004210
:1003E000001C41F5801132462B4600F05BF903B04A
:1003F000BDE8F08F40462146F9E7001B61EB0201A2
:10040000001C41F5801300185B412018A2F500176D
:1004100047EB030140EAD570B6196D4111E06D0854
:100420004FEA360645EAC0754FEA0752001B61EBFA
:100430000201001C41F5801149084FEA3000001903
:10044000514132462B4603B0BDE8F04F00F01BB9D6
:100450000098012240000023D0EB020263EBE0731E
:10046000009821464FEAE074B8EB000061EB04010C
:10047000E9E783F000435BE781F0004158E7C10FF3
:1004800080EAE0700844CA079623002100F0CDB846
:1004900096230022114600F0C8B820F00040C10D9C
:1004A000C0F3160040F400007F2901DA00207047F5
:1004B000962903DCC1F19601C840704796398840FF
:1004C000704700F0004230F000400AD0C10D01F545
:1004D0006071C0F3160042EA0151C208400711439F
:1004E000704700200146704701F0004330B421F00E
:1004F000004150EA010206D00A0DA2F56072C1F374
:100500001301002A02DC30BC00207047440F44EA8B
:10051000C104C100E01830BC00EBC25000F07CB850
:10052000002801DBC0F10040002901DBC1F10041DE
:1005300081427047002801DBC0F10040002901DB47
:10054000C1F100418842704730B50B46014600209A
:100550002022012409E021FA02F59D4205D303FA85
:1005600002F5491B04FA02F52844151EA2F1010206
:10057000F1DC30BD2DE9F05F0546002092469B4638
:1005800088460646814640241BE0284641464746A9
:100590002246FFF7E9FD53465A46C01A914110D34F
:1005A00011461846224600F016F82D1A67EB01088E
:1005B0004F4622460120002100F00DF817EB0009FC
:1005C0004E41201EA4F10104DFDC484631462A4694
:1005D0004346BDE8F09F202A04DB203A00FA02F1EE
:1005E000002070479140C2F1200320FA03F3194321
:1005F00090407047202A06DBCB17203A41FA02F0E0
:1006000043EAE07306E041FA02F3D040C2F120026F
:1006100091400843194670470029A8BF7047401C05
:10062000490008BF20F00100704710B4B0FA80FC08
:1006300000FA0CF050EA010404BF10BC704749B145
:10064000CCF1200421FA04F411FA0CF118BF0121B5
:1006500021430843A3EB0C01CB1D4FEA00614FEA95
:10066000102042BF002010BC704700EBC350104464
:100670000029A4BF10BC7047401C490008BF20F0EF
:10068000010010BC704710B5141E73F1000408DAA5
:10069000401C41F1000192185B411A4301D120F046
:1006A000010010BD2DE9F04D92469B4611B1B1FA03
:1006B00081F202E0B0FA80F220329046FFF78BFF21
:1006C00004460F4640EA0A0041EA0B0153465A46E7
:1006D000084313D0114653EA010019D0C8F1400273
:1006E0005046FFF741FD05460E46504659464246E4
:1006F000FFF771FF084305D0012004E0204639468A
:10070000BDE8F08D0020054346EAE0762C433743F0
:100710000A986305E40AA0EB08000022FD0A44EAF7
:1007200047540A3002D500200146E9E701051019B7
:100730006941DDE9084500196941BDE8F04DA2E7CE
:100740002DE9FE4F81EA030404F0004421F000414A
:1007500000944FF0000B23F0004350EA01045ED0F8
:1007600052EA03045BD0C3F30A54C1F30A552C4484
:10077000A4F2F3340194A0FB0254C1F3130141F439
:100780008011C3F3130343F4801301FB024400FB05
:10079000034E840A970A44EA815447EA8357A4FB2C
:1007A000076802958D0A05FB07854FEA932C04FB29
:1007B0000C542705029D4FEA065847EA1637B5EB59
:1007C00008056EEB070C870E920E47EA811742EA86
:1007D0008312A7FB0201B6EB0B0164EB00042B0DA7
:1007E00043EA0C335E1844EB1C50DA465146E7FBF3
:1007F0000201C5F313044FEA0B3343EA14534FEAE3
:100800000432019C43EA0603A4F10C040294009C08
:10081000CDE900B4FFF746FF03B0BDE8F08F00203C
:100820000146F9E72DE9F04D81EA030404F0004B9D
:1008300021F0004514464FF0000A23F0004150EA31
:10084000050220D054EA01021DD0C5F30A57024622
:10085000C5F31303C1F31300C1F30A5640F4801526
:1008600043F48013A7EB0608101BD64608F2FD38A8
:1008700073EB050002D308F1010801E092185B4117
:10088000B8F1000F03DA00200146BDE8F08D00202A
:100890004FF48011064684460EE0171B73EB0507E4
:1008A00005D3121B63EB050306434CEA010C490810
:1008B0004FEA300092185B4150EA0107EDD152EA4D
:1008C000030012D082EA040083EA0501084305D040
:1008D000101BAB4106D20122002306E000224FF09C
:1008E000004302E06FF0010253101AEB06004CEBDC
:1008F000085110EB0A0041EB0B01BDE8F04DFFF78A
:10090000C2BEC1F30A52C1F3130140F2FF3341F4F6
:1009100080119A4202DA00200146704740F23343C8
:100920009A42A2F2334202DC5242FFF71DBCFFF7AB
:1009300052BE000030B5041E71F1000404DB4FF01C
:100940000044404264EB0101141E73F1000405DB16
:100950001C464FF00043524263EB0403994208BF28
:10096000904230BD064C074D06E0E06840F00103C0
:1009700094E8070098471034AC42F6D3FFF7DCFB4D
:10098000187E0008387E000870B521F0004303434C
:100990000CD0C1F30A550024D5EB040564EB040325
:1009A000D617AD1AB34102DB0020014670BD2018F6
:1009B00041EB025170BD70B58C1810F8015B15F059
:1009C000070301D110F8013B2A1106D110F8012BC1
:1009D00003E010F8016B01F8016B5B1EF9D12B07E6
:1009E00005D40023521E0DD401F8013BFAE710F89C
:1009F000013BCB1A921C03E013F8015B01F8015B89
:100A0000521EF9D5A142D8D3002070BD70B504465E
:100A100000688168C943C9071BD1816821F00101C1
:100A2000816001F069F805460EE001F065F8401BB1
:100A3000022809D9A06A40F01000A062E06A40F0E4
:100A40000100E062012070BD20688068C043C007DB
:100A5000EBD0002070BD10B50146406A826A12F0EA
:100A6000500F05D0006A026BBDE8104008461047E1
:100A7000816A41F40071816201688968C1F3424171
:100A800007290CD1C16851B9816A21F48071816252
:100A9000816AC90403D4816A41F00101816200F0D6
:100AA00007FB10BD10B5406A816A41F040018162C8
:100AB000C16A41F00401C16200F0FCFA10BD10B53A
:100AC000406A00F0F6FA10BDF8B50026044600961C
:100AD00000688168C943C90727D0816841F00101D6
:100AE0008160134813490068B0FBF1F000E0401E3C
:100AF00000900028FBD100F0FFFF054610E000F059
:100B0000FBFF401B02280BD9A06A40F01000A06236
:100B1000E06A40F00100E06284F824600120F8BD42
:100B200020688068C043C007E9D10020F8BD0000FC
:100B30000C02002040420F00FEE700002DE9F041CA
:100B40001B4E05460C46308AA84208D1708AA04246
:100B500005D1B088002828D1F088002825D1358219
:100B6000748201203070134855B14CB14FF6FF71BB
:100B70008C4207D10122BDE8F041202100F0B6BF30
:100B80000022F8E78846002745453A464FF0200105
:100B900003D100F0ABFFB58004E000F0A7FF08EA46
:100BA0004500B080B483F7803770BDE8F081000065
:100BB00018000020001001400F4810B5816986B070
:100BC00041F01001816180690C4C00F0100004902C
:100BD0002020009001200190022003900020024676
:100BE00002902021204600F081FF6946204600F057
:100BF00083FE06B010BD000000100240001001404E
:100C0000014800F0C9BC0000F8080020014800F0CD
:100C1000C3BC0000B4080020014800F0BDBC0000C7
:100C200028050020014800F0B7BC00001006002095
:100C3000014800F0B1BC0000CC050020014800F0E4
:100C4000ABBC00005406002030B590F840500124A1
:100C5000AC40C56B6C60046863604368102B03682C
:100C600003D099600068C26030BD9A600068C160BE
:100C700030BD7047002202608280C2800281817292
:100C80000848062905D2DFE801F004030507090B2F
:100C9000028070474280704782807047C2807047F0
:100CA000028170473A00002010B5827A1B4B062A59
:100CB00023D2DFE802F022030823282D184A126805
:100CC0001B8892B204E04FF08042526A5B8892B275
:100CD00083800389038942F21074D31AC380C388C6
:100CE000A34201D9C388C3800281C3884B43C38018
:100CF000838802EB03424A43026010BD094A12682E
:100D00009B8892B2E4E7084A1268DB8892B2DFE778
:100D1000064A12681B8992B2DAE700003A00002006
:100D2000242C01402404004024080040240C0040EE
:100D300070B504460846FFF7ABFB01462046FFF7B7
:100D4000ADFA6D496D4C88420FDBFFF7BAFB6C4A78
:100D50006C4BFFF78EFBFFF7C7FB6B49FFF79EFA63
:100D60002146FFF769FA694911E06949884211DBB8
:100D7000FFF7A7FB674A684BFFF77BFBFFF7B4FB66
:100D80006649FFF78BFA2146FFF756FA6449FFF7E9
:100D9000FBF9A7E06349644D88420FDBFFF791FB45
:100DA000624A634BFFF765FBFFF79EFB2946FFF79F
:100DB00075FA2146FFF740FA5E49E8E75E495F4E63
:100DC00088420FDBFFF77DFB5D4A5E4BFFF751FB6F
:100DD000FFF78AFB3146FFF761FA2146FFF72CFA4D
:100DE0005949D4E7594988420FDBFFF76AFB584A53
:100DF000584BFFF73EFBFFF777FB3146FFF74EFA04
:100E00002146FFF719FA5449C1E75449544E884224
:100E10000FDBFFF756FB534A534BFFF72AFBFFF755
:100E200063FB3146FFF73AFA2146FFF705FA4F49CF
:100E3000ADE74F49884210DBFFF743FB354A4D4B86
:100E40005242FFF716FBFFF74FFB4B49FFF726FA1D
:100E50002146FFF7F1F9494999E7494988420FDBF3
:100E6000FFF72FFB474A484BFFF703FBFFF73CFB1D
:100E70003146FFF713FA2146FFF7DEF9434986E7CB
:100E80004349884210DBFFF71CFB314A414B524279
:100E9000FFF7EFFAFFF728FB2946FFF7FFF9214696
:100EA000FFF7CAF9214672E73B4988420FDBFFF79B
:100EB00008FB3A4A3A4BFFF7DCFAFFF715FB3949D2
:100EC000FFF7ECF92146FFF7B7F937495FE73749F4
:100ED00088420EDBFFF7AAF93549FFF7DFF9214613
:100EE000FFF7AAF9FFF7D9FAC0B2642800D9642045
:100EF00070BD002070BD000085EB814000002041E6
:100F00003D0AD7A3703D1040295C0F3E0000B4425B
:100F100052B87E40D7A3703D0AD70F400AD7A33DF1
:100F20000000A04248E17A408FC2753D5C8FC2F557
:100F3000285C0F4000008C4214AE7740CDCC4C3D75
:100F4000F6285C8FC2F50E4000007042E17A7440D2
:100F50008FC2F5285C8F0E40000048425C8F7240C3
:100F60008FC2F53C52B81E85EB510E400000204266
:100F7000AE477140F5280E400AD7A33C0000F0416F
:100F8000295C6F40EC51B81E85EB0D400000A0417C
:100F90001F856B40A3700D40CDCC5C409A99999908
:100FA00099990B401F856B3E0000A0400000404017
:100FB0006666E63EF8B50023009390F824201C46B0
:100FC000012A12D0012280F824204A681F26072A0D
:100FD0000DD205686F6B521E02EB82029640B7433A
:100FE0000E68964037436F6319E00220F8BD05682C
:100FF0000D2A0AD22F6BD21F02EB82029640B74312
:101000000E68964037432F6309E0EF6A0D3A02EB12
:1010100082029640B7430E6896403743EF620A68F3
:10102000072605680A2A0AD3EF680A3A02EB420249
:101030009640B7438E6896403743EF6008E02F69CB
:1010400002EB42029640B7438E68964037432F61C9
:101050000A68102A01D0112A20D1124D0268AA4232
:1010600017D195682D0219D4956845F4000595604F
:101070000968102912D10C490C4A0968B1FBF2F138
:1010800001EB8101490000E0491E00910029FBD1DC
:1010900004E0816A41F020018162012380F824404C
:1010A0001846F8BD002401400C02002040420F0009
:1010B00070477047704700002DE9F04104004FF081
:1010C00000057FD0A06A002628B9E66284F8246073
:1010D000204600F081F82046FFF798FCA16AC90677
:1010E00000D420B1A06A40F01000A0626AE0A16ABA
:1010F00021F4885141F00201A162334923688B42F7
:10110000E16904D1B1F5402F01D14FF40021E76826
:101110004FF4807C41EA470261680A43A168614557
:1011200008D0012906D00021D4F814E0BEF1010F47
:1011300002D00AE06146F7E7C7B1A76A47F0200787
:10114000A762E76A47F00107E7625F6827F469472B
:101150000F435F6021688B681C4F3B4013438B60DB
:10116000A16861450BD0012909D00CE0DFF860E0EF
:10117000A7690EEB47370F4347F40061E5E7218A83
:101180000D05A5F580152168CB6A23F470032B4368
:10119000CB62216889680F4B1940914208D1E66201
:1011A000A16A21F0020141F00101A162BDE8F081D4
:1011B000A06A20F0020040F01000A062E06A40F057
:1011C0000100E0620120F1E7003C0140FDF7E1FF92
:1011D00000E0FFFFFE0E1FFF30B5054600681E4908
:1011E00085B0884236D11D4CA06940F40070A061E2
:1011F000A06900F400700490A06940F00400A061B0
:10120000A069694600F004000490102000900320BB
:1012100001900390124800F06FFB606940F00100FC
:1012200060616069104C00F0010004900D4820607E
:1012300000206060A0608020E0608000206180006D
:1012400060612020A0610002E061204600F0C8FA41
:101250002C62656205B030BD0024014000100240E0
:101260000008014008000240C807002070B504468D
:1012700090F8240001280DD0012084F82400204695
:10128000FFF722FC01004FF0000205D084F8242073
:10129000084670BD022070BDA06A40F20123984349
:1012A00040F48070A0621F4D20681F4BA84218D1E7
:1012B0001E6816F4702F14D0A66A46F48016A66233
:1012C0001E68760505D5A66A26F4005646F48056B3
:1012D000A662A66AF6040AD5E66A26F00606E66263
:1012E00006E0A66A26F48016A6624668E9E7E2628E
:1012F00084F824206FF00202026020688268C2F342
:101300004242072A05D1A84208D11A6812F4702F68
:1013100004D0826842F480128260B9E7826842F4A5
:10132000A002F9E700280140042401402DE9F0471C
:10133000894604463B4900683B4F0E1D9046884253
:1013400001D0B84207D1306810F4702F03D00125C6
:101350002846BDE8F08794F8240001280CD001202D
:1013600084F824002046FFF7AFFB05004FF0000192
:1013700004D084F82410EBE70220EAE7A06A40F6E4
:101380000162904340F48070A0622068B84218D196
:10139000326812F4702F14D0A06A40F48010A0625A
:1013A0003068400505D5A06A20F4005040F4805014
:1013B000A062A06AC0040AD5E06A20F00600E062DC
:1013C00006E0A26A22F48012A2624068E9E7E162C4
:1013D00084F82410216A15488862216A1448C8627A
:1013E000216A1448086321686FF0020008602068D1
:1013F000816841F480718160216843464A464C31DE
:10140000206A00F02FFA20688168C1F34241072961
:10141000816803D041F48011816099E741F4A00113
:10142000FAE700000024014000280140570A0008A4
:10143000BF0A0008A50A000801680A6822F00E0227
:101440000A6001680A6822F001020A6090F84020F0
:10145000012303FA02F1C26B516080F821300021B0
:1014600080F82010084670472DE9F05F90F82110B1
:101470000024022903D004218163012485E001684E
:101480000A6822F00E020A6001680A6822F001026E
:101490000A603F4E3E4FB215DFF8F4C0DFF8F0901F
:1014A000DFF8ECA0DFF8E8B0DFF8E4E00168783FAF
:1014B00013011502ACF1640CA9F15009AAF13C0A20
:1014C000ABF1280BAEF1140E4FF48018B14227D9BE
:1014D000B9420ED0614512D049451DD0514518D0B2
:1014E000594518D0714501D1424615E0294EB14207
:1014F00001D1012210E0274E1436B14201D1102251
:101500000AE0244E2836B14206D0224A3C329142AB
:1015100001D11A4600E02A461E49091F0A602BE045
:10152000B94213D0614517D0494522D051451DD04D
:1015300059451DD0714501D142461AE0B14202D150
:101540004FF0807215E0134EB14201D1012210E03C
:10155000104E1436B14201D110220AE00D4E283649
:10156000B14206D00B4A3C32914201D11A4600E00A
:101570002A46074980394A60012180F8211000215C
:1015800080F82010416B01B188472046BDE8F09FEC
:1015900080000240080402402DE9F05FC16B0B6837
:1015A00001680A68046C4FF0040808FA04F8844DD6
:1015B000844E854FDFF814C2DFF81492DFF814A2CE
:1015C000DFF814B2DFF814E218EA030F65D05FEA1F
:1015D000427862D50A68920603D40A6822F00402AF
:1015E0000A60DFF8F0814FF48062016808F11408A6
:1015F00013011402414524D9A9420DD0B1420FD0A4
:10160000B9421AD0614515D0494515D0514501D18F
:10161000120312E0594501D104220EE0714501D1B7
:1016200040220AE06D4D1435A94206D06B4A28329B
:10163000914201D11A4600E022466749091F0A601B
:1016400029E0A94213D0B14215D0B94220D061455A
:101650001BD049451BD0514502D14FF4800217E001
:10166000414502D14FF0806212E0594501D1042278
:101670000EE0714501D140220AE0584D1435A942CF
:1016800006D0564A2832914201D11A4600E022463D
:101690004B4908394A60C16A71E04FF0020808FA04
:1016A00004F818EA030F70D05FEA82786DD50A68F3
:1016B000920606D40A6822F00A020A60012180F824
:1016C0002110DFF810814FF40072016808F114084E
:1016D00013011402414524D9A9420DD0B1420FD0C3
:1016E000B9421AD0614515D0494515D0514501D1AF
:1016F000120312E0594501D102220EE0714501D1D9
:1017000020220AE0354D1435A94206D0334A28324A
:10171000914201D11A4600E022462F49091F0A6072
:1017200029E0A94213D0B14215D0B94220D0614579
:101730001BD049451BD0514502D14FF4001217E090
:10174000414502D14FF0007212E0594501D1022209
:101750000EE0714501D120220AE0204D1435A94246
:1017600006D01E4A2832914201D11A4600E0224694
:10177000134908394A60002180F82010816A002945
:101780001CD0BDE8F05F0847FFE70825A5401D42D3
:1017900014D0120712D50A6822F00E020A6090F8DF
:1017A0004020C36B012101FA02F25A60816380F884
:1017B0002110002180F82010016BE0E7BDE8F09FC8
:1017C000080002401C000240300002404400024079
:1017D000580002406C000240080402401C04024011
:1017E00030B560B11C4B01681422994209D21B4BE1
:1017F0000B44B3FBF2F292000264194A0AE00120A2
:1018000030BD154B5B420B44B3FBF2F29200026415
:10181000114A083AC263022280F821200A6843F67E
:10182000F0739A43F0E901342343D0E902452C4395
:1018300023430469234344692343846923431343B3
:101840000B60002141628162C16201634163012238
:1018500042770177084630BD08040240F8FFFDBF1B
:101860000000024070B5044690F8200000250128D1
:101870000CD0012084F8200094F821600020012E73
:1018800006D084F820000225284670BD022070BDD5
:10189000022684F82160A0632068066826F001060D
:1018A00006602046FFF7D0F9E06A0028206801684A
:1018B00002D041F00E0106E021F004010160206831
:1018C000016841F00A0101602068016841F00101EE
:1018D0000160D9E770B5044600F00EF90546601CBA
:1018E00002D004480078044400F006F9401BA042EE
:1018F000FAD370BD000200202DE9F84FDFF8BC914B
:10190000002309F1040A0AF1040B1C464FF00F08EA
:101910000BF1040E01270A68A7403A40BA4272D17F
:10192000DFF89CC14D68A5EB0C0665452BD00DDC9E
:10193000032D34D005DC35B3012D19D0022D2FD164
:101940001BE0112D16D0122D2AD119E0B6F5881FF3
:1019500019D006DCB6F5803F15D0B6F5801F1FD133
:1019600011E0B6F5001F0ED0B6F5041F18D10AE03D
:10197000CB6815E0CB681B1D12E0CB6808330FE085
:10198000CB680C330CE08B682BB1012B4FF00803B4
:1019900003D0476104E0042302E0076100E0002374
:1019A000FF2A01D8064601E000F104064FEA84054B
:1019B00001D9A5F12005376808FA05FC27EA0C07CC
:1019C00003FA05F547EA050737604D68ED006ED567
:1019D0003C4DAE6946F00106AE61AD6924F00306E8
:1019E00005F001050095384D7719BE68A5072D0F44
:1019F00008FA05FC26EA0C06DFF8D0C0604503D1E2
:101A00004FF0000C25E052E0DFF8C4C0604502D181
:101A10004FF0010C1DE0DFF8BCC0604502D14FF073
:101A2000020C16E0DFF8B0C0604502D14FF0030CA5
:101A30000FE0DFF8A8C0604502D14FF0040C08E0C9
:101A4000DFF89CC0604502D14FF0050C01E04FF07B
:101A5000060C0CFA05FC4CEA060CC7F808C04D68E9
:101A6000D9F80060ED034D4601D5164300E09643DA
:101A70002E604D68DAF80060AD03554601D5164377
:101A800000E096432E604D68DBF80060ED025D4695
:101A900001D5164300E096432E604D68DEF80060E5
:101AA000AD02754601D5164300E096432E60641CD6
:101AB000102CFFF42FAFBDE8F88F000000040140A8
:101AC0000000111000100240000001400008014019
:101AD000000C0140001001400014014000180140BA
:101AE000001C0140C2684A40C26070470AB10161EF
:101AF00070470904FBE70000014880687047000058
:101B0000000200207047704770B5044600684569C0
:101B1000466830490D420DD0F1050BD5216C41F0DE
:101B2000010121646FF4807141612068016841F412
:101B30000041016015F4813F09D0F00507D5206C04
:101B400040F00200206421686FF40070486115F4D1
:101B5000823F28D0F00526D594F83E30618D94F868
:101B60003D00226B202B08D139B921280ED029281D
:101B70000CD0282801D1212A08D0206C40F0040084
:101B8000206494F83E00102804D008E0204602F0BB
:101B9000A3F908E02068016841F400710160216840
:101BA0006FF48060486115F4843F09D0F00507D5D3
:101BB000206C40F00800206421686FF400604861E8
:101BC000206C002804D02046BDE8704001F056BECD
:101BD00070BD0000000101002DE9F05F02680646BB
:101BE000D2F818805469556890F83E007449DFF8BF
:101BF000D0A1DFF8CCB1DFF8CC918F1C0AF17E0ABE
:101C00000BF13E0B102812D0402810D00C425BD0B4
:101C1000A80559D5936930460021DB435B0700D501
:101C200001219269D243120648D5828947E014F017
:101C3000011F05D0A80503D5304602F0D0F810E00A
:101C40005F48801D044205D0A80503D5706CC0B262
:101C5000106106E00C4204D0A80502D5304602F01F
:101C600031F818EA090F14D014EA0A0F08D06805F1
:101C700006D53C4206D13046BDE8F05F01F09FBF7B
:101C80003C421FD0A8051DD53046BDE8F05F01F0ED
:101C900056BF14EA0B0F08D0680506D53C4206D1A2
:101CA0003046BDE8F05F01F0F3BE3C420AD0A80523
:101CB00008D53046BDE8F05F01F086BE028B92B2D7
:101CC000FFF721FFBDE8F09F3D480E30044206D0EB
:101CD000A80504D53046BDE8F05F02F03FB918EA28
:101CE000090F4FF0280334D014EA0A0F23D06805F7
:101CF00021D53C4221D196F83D203046718D0029F6
:101D0000E0D0416A4C1C4462046809782161418D2D
:101D1000491E4185418D0029D4D1292AD2D101689B
:101D20004A6822F480624A602121016380F83D30D4
:101D300000F053FBC6E73C42C4D0A805C2D5708D65
:101D40000028BFD0706A411C716231680078086158
:101D500031E014EA0B0F22D0680520D53C4220D197
:101D600096F83D403046718D0029ABD01269416A2A
:101D70004D1C45620A70418D491E4185418D0029E7
:101D8000A0D12A2C9ED101684A6822F480624A6060
:101D90002221016380F83D3000F01EFB92E73C42B7
:101DA00090D0A8058ED5708D00288BD01169706AEF
:101DB000421C72620170708D401E708582E70000C7
:101DC00002000100040010007047000070B504001C
:101DD0001BD094F83D00002520B984F83C502046E3
:101DE00000F03EFA242084F83D002068016821F0CC
:101DF0000101016000F0CAFC404A6168914201D8CB
:101E00003F4900E03F49884201D2012070BD3E4970
:101E10002368B0FBF1F159606368934206D94FF42F
:101E2000967359434FF47A73B1FBF3F12368491C5D
:101E300019626168914210D84900401EB0FBF1F26E
:101E4000521CC2F30B02042A01D2042022E0B0FB90
:101E5000F1F0401CC0F30B001CE0A268CAB301EB18
:101E6000C10303EB0116431EB3FBF6F35B1C43F403
:101E700080431B0536D06AB301EBC10202EB0111AE
:101E8000401EB0FBF1F0401CC0F30B0040F480405A
:101E900040F400402168C861D4E907010843216883
:101EA0000860D4E90310084321688860D4E905017B
:101EB00008432168C8602068016841F001010160A1
:101EC0002564202084F83D00256384F83E500020DE
:101ED00070BD00E008E001EB4106431EB3FBF6F3E2
:101EE0005B1CC6E70120D5E701EB4101401EB0FBBA
:101EF000F1F0401CC0F30B00CAE70000A08601000F
:101F000080841E0000093D0040420F00704770476A
:101F10007047000010B500681249884221D112496B
:101F200001204870114802F02FFC104802F072FCAA
:101F30000E4802F08DFC0D4802F026FC0B4802F022
:101F400069FC0A4802F084FC0949084802F0AAFC2E
:101F50000849064802F0C2FCBDE81040034802F000
:101F6000D9BC10BD0054004014000020C003002064
:101F700060030020900300200068064B0122064900
:101F8000984201D10A707047044B9842FBD18A7085
:101F9000704700000054004014000020005800402A
:101FA000F8B50025DDE90676009590F83D40202C37
:101FB0005CD12F4C46F2A81C2468B4FBFCF404EB63
:101FC000C40C0CEB04140094B4F1010CCDF800C067
:101FD00006D240F8305F2021417305730320F8BD1D
:101FE0000468A469E443A40701D46446ECE790F8CC
:101FF0003C40012C3AD0012480F83C400468D4F8DD
:1020000000C05FEACC7C05D1D4F800C04CF0010CD4
:10201000C4F800C00468D4F800C02CF4006CC4F804
:1020200000C0222480F83D40402480F83E400564F2
:102030004762068546850F4CC46241648264C3646E
:10204000056501680A6842F480620A6001680A68EE
:1020500042F480720A6080F83C50018D21B1006822
:10206000416841F4E06141600020F8BD0220F8BD04
:102070000C0200200000FFFF2DE9FC5F0025DDE9D8
:102080000C86994692468B4604460095FFF734FD30
:10209000074694F83D00202872D13A4846F2A8112C
:1020A0000068B0FBF1F000EBC00101EB0010009004
:1020B000411E009107D244F8305F202060732573E1
:1020C0000320BDE8FC9F20688069C043800701D4DD
:1020D0000846EDE794F83C00012851D0012084F82F
:1020E0003C0020680168C90703D1016841F0010183
:1020F00001602068016821F400610160212084F8FA
:102100003D00402084F83E002564C4F824802685E4
:1021100066851D48E06286B3616B1C488862616B0E
:102120001B480863606BC562606B45632268238D42
:102130001032616A606BFFF795FB2320CDE9000741
:102140004B4652465946204601F076FE30B1206C8F
:1021500084F83C500428B3D10120B2E720684169DB
:102160008169009184F83C50416841F4807141607C
:102170002068416841F4006141600020A1E7FFE769
:1021800002209EE70C0200200000FFFFF537000848
:10219000CB370008F8B50025DDE90676009590F804
:1021A0003D40202C55D12C4C46F2A81C2468B4FB91
:1021B000FCF404EBC40C0CEB04140094B4F1010C1B
:1021C000CDF800C006D240F8305F2021417305737E
:1021D0000320F8BD0468A469E443A40701D464465D
:1021E000ECE790F83C40012C33D0012480F83C40CF
:1021F0000468D4F800C05FEACC7C05D1D4F800C0F4
:102200004CF0010CC4F800C00468D4F800C02CF4F1
:10221000006CC4F800C0212480F83D40402480F8C0
:102220003E4005644762068546850C4CC4624164A5
:102230008264C364056501680A6842F480720A60BA
:1022400080F83C500068416841F4E0614160002042
:10225000F8BD0220F8BD00000C0200200000FFFFC6
:102260002DE9F043044600685349544D12260327D4
:10227000DFF84C9185B04FF0000888422ED15149CB
:10228000486840F0E06040F002004860E86940F4CF
:102290000010E861E86900F400100490A86940F0BB
:1022A0000800A861A869039700F0080004903802AC
:1022B0008DE8410169464846FFF71EFB01220021D7
:1022C0001F2000F011F91F2000F002F90122002167
:1022D000202000F009F9202000F0FAF83A4920689F
:1022E000884265D1E86940F48000E861E86900F45B
:1022F00080000490A86940F00800A861A8696946B8
:1023000000F0080004904FF44060CDE90006039708
:102310004846FFF7F1FA686940F0010068616869B2
:102320002B4D00F0010004902848C5E900084646FE
:102330004FF08008C5E902682E614FF400576E61C6
:102340002846C5E90667FFF74BFAA5636C621F488C
:10235000204D143801C51020A5E841011D4845F85D
:1023600010696E61C5E90667FFF73AFA65630122F5
:1023700000210E206C6200F0B7F80E2000F0A8F8E3
:10238000012200210F2000F0AFF80F2000F0A0F88C
:1023900001220021212000F0A7F8212000F098F868
:1023A00001220021222000F09FF8222000F090F866
:1023B00005B0BDE8F083000000540040001002406A
:1023C000000C01400000014000580040580002404D
:1023D000B4080020F8080020704770470248816860
:1023E000027811448160704700020020074810B550
:1023F000016841F010010160032000F095F8002011
:1024000000F006F800F024F8002010BD0020024083
:1024100070B50D4D04464FF47A712878B1FBF0F099
:102420000A490968B1FBF0F000F0B8FB48B9102C7C
:1024300007D200222146501E00F056F800206C60A2
:1024400070BD012070BD0000000200200C020020C1
:102450001D4808B5816941F001018161806900F082
:1024600001000090032000F05FF8002211466FF099
:102470000B0000F039F8002211466FF00A0000F05E
:1024800033F8002211466FF0090000F02DF8002209
:102490001146501F00F028F800221146101F00F0CE
:1024A00023F800221146901E00F01EF8002211466B
:1024B000501E00F019F80549486820F0E06040F02F
:1024C0000070486008BD000000100240000001409C
:1024D00000F01F02012191404009800000F1E0203E
:1024E000C0F8001170470000F0B40E4B1B68C3F336
:1024F0000223C3F10704042C00D904241D1D072D59
:1025000001D2002300E0DB1E012606FA04F56D1E51
:102510000D409D409E40761E164045EA0601F0BCE7
:1025200002F03FBD0CED00E0064A00F00701106824
:102530004FF6FF03184040EA0120034908431060AA
:10254000704700000CED00E00000FA052DE9F843AB
:1025500004460078344FC00752D0F8690025C00007
:1025600008D4F86940F08050F861F869012500F05E
:10257000805000902D480168C90511D4016880463B
:1025800041F480710160FFF7B7FA064604E0FFF7F7
:10259000B3FA801B642822D8D8F80000C005F6D50D
:1025A000386A10F4407020D0A18801F44071814253
:1025B0001BD0386A1E49012220F440700A600022B4
:1025C0000A603862C00710D0FFF796FA064641F25B
:1025D000883807E0FFF790FA811B414502D90320B4
:1025E000BDE8F883386A8007F4D5386A616820F45A
:1025F0004070084338621DB1F86920F08050F861DE
:102600002078800705D57868A16820F44040084309
:1026100078602078C00605D57868616920F480006C
:10262000084378600020DBE70010024000700040A3
:10263000400442422DE9F047DFF8348104460E465B
:10264000D8F8000000F00700B0420CD2D8F8001013
:1026500021F007013143C8F80010D8F8000000F05D
:102660000700B04260D12078424F800705D57868D6
:10267000A16820F0F000084378602078C00742D0BD
:102680006068012816D03968022816D08907002909
:102690004ADA796821F0030101437960FFF72CFAE7
:1026A0000546606841F2883101280ED0022889462B
:1026B00017D024E039688903E9E78901E7E7FFF7E4
:1026C0001BFA411B494501D916E089467868C0F3D9
:1026D00081000128F3D116E0FFF70EFA411B4945AE
:1026E0000AD87868C0F381000228F5D10BE0FFF723
:1026F00003FA411B494502D90320BDE8F0877868F9
:1027000010F00C0FF3D1D8F80010404601F007018B
:10271000B1420BD9016821F0070131430160006823
:1027200000F00700B04201D00120E6E72078400722
:1027300005D57868E16820F4E06008437860207887
:10274000000706D57868216920F4605040EAC1008E
:10275000786000F03BF87968074AC1F30311515CD7
:10276000C840064908600020FFF752FE0020C4E779
:1027700000200240001002405C7D00080C02002096
:1027800001480068704700000C0200200448054919
:1027900000684968044AC1F30221515CC84070478F
:1027A0000C020020001002406C7D0008044805491E
:1027B00000684968044AC1F3C221515CC8407047AF
:1027C0000C020020001002406C7D000812A085B0B1
:1027D0000FC88DE80F0014A0144B006804905968CE
:1027E000134801F00C02042A10D0082A0ED1C1F3BC
:1027F0008342C9031DF802000AD5596804AAC1F32F
:102800004041515C0A4A5043B0FBF1F005B07047BB
:1028100008494843FAE700000203040506070809CF
:102820000A0B0C0D0E0F10100102000000100240E8
:1028300000127A0000093D002DE9F84F04460078A7
:10284000B64DC00747D06868C0F38100012807D0A3
:102850006868C0F38100022809D16868C00306D502
:102860002868800337D5606800286ED033E0606840
:10287000B0F5803F0BD010B1B0F5A02F11D0286873
:1028800020F480302860286820F4802002E0286846
:1028900040F480302860606888B1FFF72DF9064663
:1028A00009E0286840F480202860F0E7FFF724F969
:1028B000801B642873D828688003F7D50BE0FFF7E6
:1028C0001BF9064604E0FFF717F9801B6428F1D8CE
:1028D00028688003F7D42078DFF8448280074FF01F
:1028E000010A4FF0000939D5686810F00C0F07D0C5
:1028F0006868C0F38100022809D16868C00306D463
:102900002868800713D5206901281ED10FE02069AF
:10291000A8B1C8F800A0FFF7EFF8064604E0FFF7FB
:10292000EBF8801B0228C5D828688007F7D52868EF
:10293000616920F0F80040EAC10028600EE0C8F8A4
:102940000090FFF7D9F8064605E0E5E0FFF7D4F878
:10295000801B022823D828688007F7D42078000736
:102960002CD57049A069D8B1C1F800A0FFF7C4F810
:10297000064604E0FFF7C0F8801B02280FD8686AFB
:102980008007F7D568484FF4FA510068B0FBF1F0C2
:10299000009000BF0098411E0091FAD20EE07CE04A
:1029A000C1F80090FFF7A8F8064604E0FFF7A4F886
:1029B000801B022871D8686A8007F7D42078400706
:1029C0005BD5E8690027C00008D4E86940F0805072
:1029D000E861E869012700F08050009053480168E1
:1029E000C90511D40168834641F480710160FFF785
:1029F00083F8064604E0FFF77FF8801B64284CD874
:102A0000DBF80000C005F6D5E06801280AD008B15F
:102A1000052813D0286A20F001002862286A20F0D7
:102A2000040002E0286A40F001002862E06841F2F8
:102A3000883B88B1FFF760F8064609E0286A40F055
:102A400004002862EEE7FFF757F8811B59455BD871
:102A5000286A8007F7D50BE0FFF74EF8064604E03A
:102A6000FFF74AF8811B59454ED8286A8007F7D4EA
:102A70001FB1E86920F08050E861E069A8B3696897
:102A8000C1F38101022947D00228484606D0C8F880
:102A90006000FFF731F8044639E035E04746C8F8F2
:102AA0006000FFF729F8064604E0FFF725F8801BD1
:102AB000022829D828688001F7D4206AB0F5803F21
:102AC00005D16868A16820F4003008436860D4E943
:102AD00008010843696821F4741108436860C7F865
:102AE00060A0FFF709F8044605E013E0FFF704F8DB
:102AF000001B022808D828688001F7D50AE0FEF7F5
:102B0000FBFF001B022802D90320BDE8F88F2868CC
:102B10008001F4D40020F8E70120F6E7001002401D
:102B200000004242800442420C020020007000403B
:102B30004FF0E0210428086903D020F00400086168
:102B4000704740F00400FAE70F48018811B101888E
:102B5000491E01800D48018811B10188491E01807C
:102B60000B48018811B10188491E0180094801887C
:102B700011B10188491E01800749088810B10888F1
:102B8000401E088001F026BB00000020020000204B
:102B900008000020040000200600002010B5401EA0
:102BA000B0F1807F01D3012010BD4FF0E0246061BF
:102BB0000F21601702F0F5F90020A06107202061C5
:102BC000002010BD10B5FFF7BFFF10BD7047704764
:102BD00010B590F83C20012A25D0012280F83C2035
:102BE000CA688C6822F4407222434C6822F48062E6
:102BF00022430C6822F4006222430C6922F48052C2
:102C000022434C6922F400522243896922F4804213
:102C10000A43002322F400420A4301684A6480F810
:102C20003C30002010BD022010BD30B590F83C2093
:102C3000012A20D0012380F83C30022280F83D2078
:102C40000268546824F070045460026854680D6887
:102C50002C4354600268946824F0800494600268F5
:102C6000946849680C43946080F83D30002180F8F6
:102C70003C10084630BD022030BD2DE9F0410D4624
:102C8000040003D094F83D0018B108E00120BDE82D
:102C9000F081002084F83C00204600F039F8022042
:102CA00084F83D002068816821F007018160211DC2
:102CB000206802F0E3FD206881688269066A2B685B
:102CC000AF690B4340F203318A4342EA0722A96805
:102CD000EF6911434FF6FC429143EA6841EA07214C
:102CE0000A4329692F6A090141EA073769681743CE
:102CF0006D6926F0AA0242EA05121143836020683A
:102D0000876120680162012084F83D000020BEE751
:102D10002DE9F04704460068DFF86C91DFF86CA1FC
:102D200000265B4D032786B0B0F1804F3BD1E869A8
:102D300040F00100E861E869564900F001000490A4
:102D4000486820F4407040F0E06040F480704860D3
:102D5000A86940F00400A861A86900F0040004908C
:102D6000A86940F00800A861A869694600F0080059
:102D700004904FF40040CDE900065046CDE90267CB
:102D8000FEF7BAFD0820CDE9000669464846CDE9C0
:102D90000267FEF7B1FD002201211C20FFF7A4FB12
:102DA0001C20FFF795FB3C4920684FF0C008884283
:102DB0001FD1E86940F00200E861E86900F0020014
:102DC0000490A86940F00400A861A869CDE90086D4
:102DD00000F004000296CDE9037069465046FEF704
:102DE0008BFD012211461D20FFF77EFB1D20FFF702
:102DF0006FFB2A49206888421FD1E86940F004002F
:102E0000E861E86900F004000490A86940F0080057
:102E1000A861A869CDE9008600F008000296CDE916
:102E2000037069464846FEF767FD022201211E2015
:102E3000FFF75AFB1E20FFF74BFB19492068884219
:102E40001FD1E86940F00800E861E86900F0080077
:102E50000490A86940F00400A861A869CDE9007653
:102E600000F004000296CDE9037069465046FEF773
:102E700043FD032201213220FFF736FB3220FFF70A
:102E800027FB06B0BDE8F087000C014000080140B8
:102E90000010024000000140000400400008004013
:102EA000000C004010B50446006889B1042904D024
:102EB0000122002102F028FD20680122042102F0F5
:102EC00023FD2068016841F001010160002010BD70
:102ED00001220021F3E7704770B5044600680169DC
:102EE0004FF00005C943890715D4C168C943890754
:102EF00011D4E91E016101202077206880698007D4
:102F0000204602D0FFF7E7FF04E000F098F82046E3
:102F100000F062F9257720680169C943490717D491
:102F2000C168C943490713D46FF00401016102204D
:102F300020772068806910F4407F204602D0FFF798
:102F4000CAFF04E000F07BF8204600F045F9257741
:102F500020680169C943090716D4C168C943090734
:102F600012D46FF008010161042020772068C06945
:102F70008007204602D0FFF7AEFF04E000F05FF8C4
:102F8000204600F029F9257720680169C943C90660
:102F900017D4C168C943C90613D46FF01001016189
:102FA000082020772068C06910F4407F204602D0B6
:102FB000FFF791FF04E000F042F8204600F00CF922
:102FC000257720680169C943C90708D1C168C94389
:102FD000C90704D1891E0161204600F01BF9206851
:102FE0000169C943090609D4C168C943090605D462
:102FF0006FF0800101612046FFF7E8FD206801695C
:10300000C943490609D4C168C943490605D46FF0CC
:1030100040010161204600F045F920680169C9437B
:1030200089060BD4C168C943890607D46FF0200113
:1030300001612046BDE87040FFF7C9BD70BD704713
:1030400070B5044690F83C000D4601280DD00126CD
:1030500084F83C60022084F83D0042B1042A18D074
:10306000082A2AD00C2A4DD139E0022070BD2068F0
:1030700002F056FC2068816941F0080181612068F6
:10308000816921F004018161206881692A69114305
:1030900011E0206802F074FC2068816941F400614D
:1030A00081612068816921F4806181612068816982
:1030B0002A6941EA0221816124E0206802F096FC3D
:1030C0002068C16941F00801C1612068C16921F02F
:1030D0000401C1612068C1692A69114311E02068B7
:1030E00002F0B8FC2068C16941F40061C161206848
:1030F000C16921F48061C1612068C1692A6941EA1E
:103100000221C16184F83D60002084F83C0070BD5C
:1031100010B5040003D094F83D0010B107E0012081
:1031200010BD002084F83C00204600F00DF802207D
:1031300084F83D00211D206802F0A0FB012084F8E6
:103140003D00002010BD000000B51E4B01681E4868
:10315000022285B0994217D1816941F400618161F1
:10316000816901F400610491816941F00401816188
:103170008069694600F0040004904FF47060CDE966
:1031800000021248039219E0114B994218D181694B
:1031900041F400518161816901F400510491816918
:1031A00041F0100181618069694600F010000490CF
:1031B0004FF47070CDE9000206480392FEF79CFBC5
:1031C00005B000BD002C0140001002400008014085
:1031D00000340140001001407047000010B5044663
:1031E0000068012202F090FB08482168814202D069
:1031F0000748814203D1486C40F40040486420688D
:10320000016841F001010160002010BD002C014067
:103210000034014000681E4A1E49904208D10068EF
:10322000C006088801D5401E00E0401C0880704799
:10323000B0F1804F08D0184A904211D10068C00602
:1032400088880AD5401E09E00068C006488801D574
:10325000401E00E0401C48807047401C888070473A
:103260000E4A904208D10068C006C88801D5401EA9
:1032700000E0401CC8807047094A9042FBD10068BA
:10328000C006088901D5401E00E0401C0881704737
:10329000002C01403A0000200004004000080040DB
:1032A000000C0040704710B504460068416994F86E
:1032B0003920C1F3C011212A0BD151B1416921F04C
:1032C00080014161206B08B1FEF7B6F8204602F09C
:1032D00057FC2068416994F83A20C1F38011222AF2
:1032E0000BD151B1416921F040014161606B08B1DE
:1032F000FEF7A2F8204602F035FC002010BD016860
:103300000A680A68D243D20703D14A686FF0010203
:103310000A6001680A68D243920703D44A686FF0D2
:1033200002020A6001680A68D243520703D44A685D
:103330006FF004020A6000680168C943090703D4FA
:10334000C1686FF0080101607047000070B5026845
:1033500004461068D168536910F00F0F50D003F085
:10336000010501F4907635435DD0C20705D0CA054A
:1033700003D5E26B42F00102E263420705D5DA07AA
:1033800003D0E26B42F00202E263820705D5DA075E
:1033900003D0E26B42F00402E263020705D5DA07CC
:1033A00003D0E26B42F00802E263E26B002A33D002
:1033B000800604D5880602D5204602F0EAFB206884
:1033C0004069E16BC0F38010090700D428B32046A0
:1033D00002F0C8FB2068416949061AD5416921F00D
:1033E00040014161606BA0B11B494163606BFEF716
:1033F0003BF8002810D0606B416BBDE87040084777
:10340000830610D58B060ED52046BDE8704002F02D
:10341000C0BB2046FFF773FF70BD2046FFF76FFF6C
:103420000020E06370BD030606D50B0604D52046D8
:10343000BDE8704002F0B0BC4006F3D54806F1D5B7
:10344000D168204621F04001D160202184F8391054
:1034500000F07AF970BD0000C55A000870B504008C
:1034600004D094F83900002510B106E0012070BDA9
:1034700084F83850204600F023F8242084F83900DE
:103480002068C16821F40051C160204602F0CCFBE5
:103490002068016921F4904101612068416921F0AF
:1034A0002A0141612068C16841F40051C160E563AF
:1034B000202084F8390084F83A00002070BD000014
:1034C0002DE9F047044600686C4A00266C4D022145
:1034D000032786B04FF010094FF08008904263D167
:1034E000E86940F40030E861E86900F400300490D5
:1034F000A86940F00400A861A869624C00F00400CB
:1035000004900420CDE90001039769462046FEF7A8
:10351000F3F90820CDE9000669462046CDE90267A7
:10352000FEF7EAF9686940F0010068616869574C84
:1035300000F001000490C4E9026826615248666107
:10354000C4E9000947464FF40058C4E9066820461C
:10355000FEF746F94E4D4C482C6365624D4C1438CD
:10356000C4E90006C4E9026726616661C4E9066829
:103570002046FEF735F96C630022012110206562B8
:10358000FEF7B2FF1020FEF7A3FF00220121112059
:10359000FEF7AAFF1120FEF79BFF00220121262043
:1035A000FEF7A2FF262064E03B4A904263D1E8691F
:1035B00040F40020E861E86900F400200490A86964
:1035C00040F01000A861A869DFF8D0A000F010005A
:1035D00004901015CDE90001039769465046FEF7A7
:1035E0008BF94FF40060CDE9000669465046CDE9FD
:1035F0000267FEF781F9686940F002006861686956
:10360000284D00F002000490C5E902682E616E6149
:10361000AE612348EE61C5E9000947462846FEF73A
:10362000DFF825636C621E481F4D2838C5E9000687
:10363000C5E902672E616E61AE612846EE61FEF754
:10364000CFF86563002201213A206C62FEF74CFF3F
:103650003A20FEF73DFF002201213B20FEF744FF08
:103660003B20FEF735FF002201213420FEF73CFF0E
:103670003420FEF72DFF06B0BDE8F087004400407F
:1036800000100240000801408000024010060020A7
:103690004804002028050020004C00400010014094
:1036A0005804024054060020CC05002037B50446DB
:1036B00090F83A0082B0134620283AD1039AAAB370
:1036C000A3B394F83800012833D0012084F83800DF
:1036D000A262A3850025E563222084F83A00616B8D
:1036E00015488862616B1548C862616B14480863AD
:1036F000606B45632168606B091DFEF7B3F82068B5
:1037000001684168009184F83850C16841F48071C3
:10371000C1602068416941F001014161206841694F
:1037200041F040014161002005B030BDFFE70120BC
:10373000FAE70220F8E700001F5B00085B5B000867
:10374000D55A0008704770477047FEE70148FEF7FA
:10375000DBB900000C0800200148FEF73DBA00006C
:103760000C0800200148FEF7CFB9000060080020D7
:103770000148FEF731BA00006008002010B5406A29
:1037800001680A6822F480620A6000214185426B68
:103790005163826B516390F83D302022602B80F89A
:1037A0003D2080F83E1007D001680A6822F001022F
:1037B0000A60FEF709FB10BD016401680A6822F087
:1037C00001020A60FEF79EF910BD10B5406A01685B
:1037D0000A6822F480620A6000214185202280F874
:1037E0003D2080F83E10016C41F010010164FEF7AD
:1037F000EBFA10BD10B50146406A90F83D2090F8F4
:103800003E40496A0023212A09681CD0222A01D19E
:10381000202C18D00A6822F480620A6001680A68C5
:1038200042F400720A6001684A6822F480524A60D9
:1038300001684A6822F400624A604385016C69B1FC
:10384000FEF7C2FA10BD4A6822F400624A6043855E
:103850000068416841F44071416010BD202180F84A
:103860003D1090F83E1080F83E30402902D0FEF71F
:103870004EFB10BDFEF74EFB10BD000070B590F87A
:103880003D10044600262025006829292DD02A292C
:103890002BD094F83D10602904D04168090501D46B
:1038A00084F83D50266384F83E60016821F400618D
:1038B000016020684168090537D5416821F400613D
:1038C0004160606B344990F82120012A12D0416395
:1038D000606BFDF7C9FD38B32068016821F0010174
:1038E000016084F83D50606B1CE02663282184F859
:1038F0003D10DAE7A06B4163A06BFDF7B5FD98B111
:1039000020684169C943490604D40169606A421CC0
:10391000626201702068016821F00101016084F891
:103920003D50A06B416B88470FE094F83D10602933
:103930001DD04169C943490604D40169606A421C2B
:10394000626201702046FEF73FFA94F83D00282895
:103950000CD1206C400709D51048E062266384F83A
:103960003D5084F83E602046FEF7D0FA70BD84F8E2
:103970003D5026644169C943490604D40169606A1F
:10398000421C626201702068016821F0010101603F
:103990002046FEF7B7F8D8E77D3700080000FFFFA4
:1039A00001684A69D24352050CD46FF480624A61BF
:1039B00004210164002140F8301F2022427301736A
:1039C000012070470020704710B5C26A448D2F4B0C
:1039D0000168032C03D0448D022C15D00AE0042A80
:1039E00003D0082A01D09A4203D10A6822F48062E7
:1039F0000A6001680A69416A4B1C43620A70418D82
:103A0000491E4185002010BD042A12D0082A10D07A
:103A10009A420ED0022A0A6802D022F4806201E0A3
:103A200042F480620A6001684A6822F440724A6087
:103A300008E04A6822F440724A6001680A6842F469
:103A400000720A6001680A69416A4B1C43620A708D
:103A5000418D491E418501680A69416A4B1C4362D8
:103A60000A70418D491E4185202180F83D100021BA
:103A7000016390F83E2080F83E10402A02D0FEF705
:103A800046FABFE7FEF746FABCE700000000FFFF7A
:103A900010B590F83D1022294CD1418D032909D948
:103AA00001680A69416A4B1C43620A70418D491ED4
:103AB00041853FE0022909D0032907D0C16A0229C4
:103AC00001680A6818D022F4806217E0C16A0229EE
:103AD00001680A6807D022F480620A6001680A68F7
:103AE00042F4006201E042F480620A6000684168CA
:103AF00021F4806141601DE042F480620A60016847
:103B00004A6822F4E0624A6001680A69416A4B1C13
:103B100043620A70418D491E4185202180F83D1085
:103B20000021016390F83E2080F83E10402A03D027
:103B3000FEF7EDF9002010BDFEF7ECF9FAE710B53D
:103B4000C16A90F83D20212A21D1428D4AB1416AB3
:103B50004A1C4262026809781161418D491E418503
:103B600015E020230022042913D0082911D011F5D3
:103B7000803F0ED001684C6824F4E0644C60112151
:103B8000016380F83E2080F83D30FEF7C1F9002047
:103B900010BD01684C6824F4E0644C6001680C6856
:103BA00044F400740C60026380F83D3090F83E10DD
:103BB00080F83E204029E8D1FEF7DEF9E7E710B5AE
:103BC00090F83D2090F83E30C16A048D24B1212A3E
:103BD00033D0402B2FD073E0212AFAD120230022AA
:103BE000042912D0082910D011F5803F0DD00168AA
:103BF0004C6824F4E0644C601121016380F83E209D
:103C000080F83D30FEF784F95AE001684C6824F4EE
:103C1000E0644C6001680C6844F400740C6002635A
:103C200080F83D3090F83E1080F83E204029E9D1E0
:103C3000FEF7A2F944E0222A42D1418D21B190F849
:103C40003E10402906D032E00068416821F48061CE
:103C5000416035E0016D31B1016D012911D0016D77
:103C6000022915D02CE0C16C0129816C02D0C1F36E
:103C7000072108E00268C9B21161016D891C016564
:103C80001EE0816CC9B202681161016D491CF6E742
:103C900090F83D10222904D090F83D10212906D03B
:103CA0000EE00068016841F48071016008E0416A3B
:103CB0004A1C4262026809781161418D491E4185A2
:103CC000002010BD78B590F83E50C26A046B90F8A1
:103CD0003D6000230168222E06D1066D0EB9402DED
:103CE00002D0056D25B107E04869886900901CE0A5
:103CF0000569B5F5404F1AD0458D85B3458D012D29
:103D000020D0428D022A4AD00A6842F480620A60BA
:103D100001684A68120503D54A6842F480524A6035
:103D200001684A69896900910365002078BD4A6984
:103D30008A6900920A6842F480720A60016D491C27
:103D40000165F2E712F5803F0AD0042A21D0082A43
:103D50001FD0122C1DD0C26A022A09D114E00BE038
:103D60000A6822F480620A6001684A68120503D575
:103D70000A6822F480620AE04A698A6900920A6845
:103D800042F400720A60CFE70A6842F480620A6077
:103D9000C6E70A6822F480620A600168ECE7C26A3A
:103DA000022A0A680BD042F400620A6001684A697C
:103DB0008A6900920A6822F480620A6006E042F48E
:103DC00080620A6001684A698969009101684A68ED
:103DD0001205A9D54A6842F480524A60A4E790F8D7
:103DE0003E10402909D00169B1F5804F10D0016D16
:103DF00099B1016D012915D01CE0016D19B9416C13
:103E000001F0FE0114E0416CC9B241F001010FE084
:103E100090F83D102129F6D1F1E7416CF02201F430
:103E2000407103E0416CF12201F4407142EAD1118A
:103E300000680161002070472DE9F84304460068DE
:103E40000D46DDE9089701689846164641F48071F1
:103E500001604B4600224FF001112046009700F010
:103E6000EBF8E8B9216805F0FE0008613B464A46D8
:103E70001849204600F010F928B1206C04280FD111
:103E80000120BDE8F88320684169806900903A46C6
:103E90004946204600F043F920B1206C042813D095
:103EA0000320EEE7F5B2B8F1010F09D02168300A1E
:103EB00008613A464946204600F031F90028ECD125
:103EC000206805610020DCE72068016841F400718A
:103ED0000160D5E7020001002DE9F04190F83D3086
:103EE000C26A00251C4F202601686FF48064042AF2
:103EF00001D0082A01D1282B05D0212B17D04C61E5
:103F00000020BDE8F081C7624A6822F4E0624A609E
:103F100001684C6101680A6822F480620A600563E6
:103F200080F83D6080F83E50FDF7F0FFE8E7C7629B
:103F30002122026380F83D6080F83E504A6822F4F6
:103F4000E0624A6001684C6101680A6822F480629C
:103F50000A60FEF742FAD3E70000FFFF38B590F899
:103F60003D100268536823F4E06353600268002345
:103F700054690094146844F00104146002681468E1
:103F800024F4806414600268546824050BD590F80A
:103F90003D40222C2BD090F83D402A2C27D0446B5A
:103FA000246864684485448DE4B15469E44364073B
:103FB00007D41469426A551C45621470428D521E22
:103FC000428502685469E443640607D41569426A6D
:103FD000541C44621570428D521E4285026C42F0A0
:103FE00004020264026C22B1FFF748FC1FE0846BFC
:103FF000D6E72022282909D02A2907D0292905D047
:10400000046B222C0CD022290AD010E00949C1628D
:10401000036380F83D2080F83E30FDF777FF06E02F
:10402000036380F83D2080F83E30FEF7D5F900208C
:1040300038BD00000000FFFF2DE9F0471D46904607
:104040000E460446C1F30747DDF8209012E0681CD5
:1040500010D02DB1FDF750FDA0EB0900A84209D901
:10406000002044F8300F20216173A07320730320D7
:10407000BDE8F0872068012F0AD0806926EA000099
:104080000004000C06D000204045E0D00020EFE7FF
:104090004069F3E70120F7E72DE9F0479846154618
:1040A0000E4604464FF000094FF0200AC1F30747BF
:1040B00029E020684069C043400513D420680168A6
:1040C00041F40071016021686FF480604861042050
:1040D0002064C4F8309084F83DA084F83C9001201E
:1040E000BDE8F087681C0ED02DB1FDF705FDA0EBF3
:1040F0000800A84207D944F8309F84F80DA084F83E
:104100000C900320ECE72068012F06D0806926EA96
:1041100000000004000CE3D0CBE74069F7E770B57E
:1041200016460D4604461AE02046FFF739FC08B152
:10413000012070BD681C12D025B1FDF7DDFC801B8D
:10414000A8420CD954F8400F40F0200044F8100960
:1041500000202060202161732073032070BD20683F
:104160004069C0430006DFD4002070BD016042609A
:1041700083600021C16001614161704770B50446F0
:104180001046FCF753F8E06020690121FCF7C4F801
:10419000E168FCF74EF86169FBF7F6FFA168FCF7F0
:1041A0004BF8E16805466068FCF746F82169064669
:1041B000E068FCF73BF82168FCF73EF83146FBF776
:1041C000E3FF2946FBF7E0FF21696161E1682161B6
:1041D00070BD000070B5264CE08810B1E088401E2C
:1041E000E080608910B16089401E6081E08910B173
:1041F000E089401EE08120784FF6FF7578B9A088ED
:1042000068B1E08858B920211A48FDF76BFCA088F6
:10421000A84202D0A088401EA080A08BE0806078D9
:10422000154E78B9208968B1608958B902213046A5
:10423000FDF758FC2089A84202D02089401E208129
:10424000E08B6081A078002811D1A08900280ED0D1
:10425000E08900280BD101213046FDF743FCA089FD
:10426000A84202D0A089401EA081208CE08170BDB0
:104270001800002000100140000C01402DE9F0471B
:104280000D46C169044692461046FBF7CFFF6169AF
:10429000FBF7D2FF2168FBF777FF206021682846F3
:1042A000FBF7C4FF61698046606AFBF7C5FF61697F
:1042B0000546A06AFBF7C0FFA168FBF7BAFF2946D5
:1042C000FBF7B4FF216AFBF75FFF20626169E06AD8
:1042D000FBF7B2FF616AFBF7ACFF60626169E06AFD
:1042E000FBF7AAFFA16AFBF7A4FFA062E168E06AFE
:1042F000FBF74AFFE062207EFCF7CAF8216AFBF771
:104300009BFF0546207EFCF7C3F8A16AFBF794FFEC
:104310000746207EFCF7BCF82946FBF78DFF216994
:10432000FBF732FF064601462846FBF7B7FF8146FA
:1043300031463846FBF7B2FF0646207EFCF7A8F868
:10434000616AFBF779FF074629464846FBF774FF89
:10435000216AFBF76EFF206239464846FBF76CFF87
:10436000616AFBF766FF606229463046FBF764FF2F
:10437000A16AFBF75EFFA06239463046FBF75CFF9F
:10438000E16AFBF756FFE06241464846FBF754FFFF
:104390002168FBF7F9FE206041463046FBF74CFFF1
:1043A000E169FBF7F1FEE061E1695046FBF73EFF92
:1043B0006060BDE8F0870000094981600949C1607B
:1043C0004FF07C51016108494161012101760021D2
:1043D000C1614FF07E52026241628162C2627047E7
:1043E000ACC5A73682A87B370AD7A33B2DE9F0419D
:1043F000044600681F4D2946FBF71EFF8046606893
:104400002946FBF719FF0746A0682946FBF714FF6A
:104410001949FBF711FF194D064629464046FBF79F
:104420003DFF804629463846FBF738FF07462946B8
:104430003046FBF733FF064639464046FBF7F6FEAB
:1044400005463146FBF7F2FEE06039464046FBF791
:104450009BFE07463146FBF797FE20613846314602
:10446000FBF7E4FE606128463146FBF78DFEA06154
:10447000BDE8F081000070420E2D323EECA19D3E61
:104480002DE9F04101690446C068FBF77DFE6169D2
:10449000FBF77AFEA169FBF777FE6FF0010529466D
:1044A000FBF73AFF1A4E3146FBF7F8FE194F394633
:1044B000FBF7C2FE2060E1682069FBF7B7FE616987
:1044C000FBF762FEA169FBF7B1FE2946FBF724FF6B
:1044D0003146FBF7E3FE3946FBF7AEFE6060E1686C
:1044E0002069FBF7A3FE6169FBF7A0FEA169FBF75A
:1044F0004BFE2946FBF710FF3146FBF7CFFE39464E
:10450000FBF79AFE0449FBF7C9FEA060BDE8F08105
:1045100000007042ECA19D3E0E2D323E2DE9F0418F
:104520001B4E05460C46B08AA84208D1F08AA0422C
:1045300005D13089002828D17089002825D1B5827D
:10454000F48201207070134855B14CB14FF6FF71E1
:104550008C4207D10122BDE8F0410221FDF7C6BA25
:104560000022F8E78846002745453A464FF0020109
:1045700003D1FDF7BBFA358104E0FDF7B7FA08EA8D
:1045800045003081F48377817770BDE8F0810000C9
:1045900018000020000C01400E4810B5816986B05B
:1045A00041F0080181618069012100F00800049058
:1045B0000220CDE9000103900020074C0246029042
:1045C00002212046FDF792FA69462046FDF794F94C
:1045D00006B010BD00100240000C01402DE9F04172
:1045E0001B4E05460C46308BA84208D1708BA0426A
:1045F00005D1B089002828D1F089002825D135833C
:1046000074830120B070134855B14CB14FF6FF715F
:104610008C4207D10122BDE8F0410121FDF766BAC5
:104620000022F8E78846002745453A464FF0010149
:1046300003D1FDF75BFAB58104E0FDF757FA08EA0C
:104640004500B0813484F781B770BDE8F081000087
:1046500018000020000C01400E4810B5816986B09A
:1046600041F00801816180690B4C00F00800049062
:104670000120009001900220039000200246029049
:1046800001212046FDF732FA69462046FDF734F94C
:1046900006B010BD00100240000C01400160002176
:1046A00041608160704770B5016804464FF07E50EC
:1046B000FBF7BCFD6168FBF7BFFDA16805462068FC
:1046C000FBF7BAFD2946FBF75FFD6060606870BDCF
:1046D0002DE9FE4304466420FDF7FCF8284E4FF018
:1046E00002098DF808900025357001270DF10808A2
:1046F000CDE900873B466B22D0212248FDF74AFDD9
:1047000030780028FCD018208DF808003570CDE9ED
:10471000008701231B22D0211A48FDF73BFD30788A
:104720000028FCD008208DF808003570CDE90087FE
:1047300001231C22D0211348FDF72CFD30780028DE
:10474000FCD08DF808903570CDE9008701236B22ED
:10475000D0210C48FDF71EFD30780028FCD02580C4
:104760006580A580E58025816581A58125616561DC
:10477000A561E561256265626563BDE8FE830000B1
:10478000140000200C08002010B5044690F83900F1
:1047900094F8381000EB012024F8280BE07CA17C71
:1047A00000EB012024F8260C607D217D00EB012028
:1047B00024F8240CE07DA17D00EB012024F8220CDC
:1047C00034F9220CFBF75BFE0F49FBF767FDFBF7A3
:1047D00078FE0E4A0E4BFBF7ABFDFBF785FEE06063
:1047E000607E217E00EB012024F8200CE07EA17E7B
:1047F00000EB012024F81E0C607F217F00EB0120DC
:1048000024F81C0C10BD00000000AA43A4703D0A4F
:10481000D743424070B50446B0F90000FBF72FFEC5
:104820006FF00C052946FBF777FD2061B4F9020013
:10483000FBF725FE2946FBF76FFD6061B4F9040024
:10484000FBF71DFE2946FBF767FDA06170BD000068
:1048500070B50446B0F90800FBF711FE0F4D29466C
:10486000FBF71CFD0E4E3146FBF718FDE061B4F975
:104870000A00FBF704FE2946FBF710FD3146FBF763
:104880000DFD2062B4F90C00FBF7F9FD2946FBF79A
:1048900005FD3146FBF702FD606270BD3333834195
:1048A000E12E65422DE9F04104460F468069FBF791
:1048B00008FE05460E462069FBF703FE2A463346EE
:1048C00002F0D8FAFBF710FE226A80F00041384669
:1048D000FFF7D4FC3868A062BDE8F0812DE9F04113
:1048E00004460F468069FBF7ECFD05460E466069FD
:1048F000FBF7E7FD2A46334602F0BCFAFBF7F4FD6E
:10490000E26901463846FFF7B9FC38682063BDE824
:10491000F081000070B51D4D04462888B0F5C87FB1
:1049200002D2401C288070BD606A1949FBF72CFC3C
:104930006062606A6968FBF779FC20F00040154905
:10494000FBF7F8FD02D2C820688001E06888D0B18A
:1049500080B2401E6880606A0F49FBF76DFCE16A17
:10496000FBF712FCE062E06A0C4A0D499042E06AF3
:1049700002DDFBF75BFC05E00A4A904203D9E06ADE
:10498000FBF702FCE062606A686070BD48000020CE
:104990009CC3753D0AD7233C0AD7A33BD80F494097
:1049A000DA0FC940D80F49C03EB516481449012551
:1049B00001608915C0E902150021416102244FF40C
:1049C00060220461C2614160FCF776FB0420CDE9FE
:1049D00000050520029069460A48FCF7EBFA112011
:1049E000CDE9000469460748FCF7E4FA02220649CB
:1049F0000448FCF79BFC0348FCF738FC3EBD000074
:104A000000240140980700200C0000200D4882B0CF
:104A1000816941F00101816180690B4900F0010069
:104A200000900A484FF4804201600949416000212A
:104A30008160C0E9031241618161C161016202B01C
:104A4000FDF7C4B900100240005400400C080020DB
:104A5000801A0600094808494FF48042016008495D
:104A6000416000218160C0E9031241618161C1613F
:104A70000162FDF7ABB9000000580040600800205B
:104A8000801A060010B52A4890B0284901604721D5
:104A9000416044F61F610024C0E90314846044614E
:104AA0008461FEF735FB0E940EA921480F94FEF7A2
:104AB000BCF86020009040F2DC50CDE90104039482
:104AC000049405940022694619480694FEF7B8FA42
:104AD000042269461648FEF7B3FA082269461448CC
:104AE000FEF7AEFA0C2269461148FEF7A9FA0794C0
:104AF000089409944FF400500A94CDE90B4007A99B
:104B00000B480D94FEF764F800210948FEF766FB98
:104B100004210748FEF762FB08210548FEF75EFB0B
:104B20000C210348FEF75AFB10B010BD002C0140C9
:104B30003C0900201A4810B581698AB041F0010192
:104B400081618069174C00F0010009904FF08043AB
:104B50000020C4E900304FF6FF71C4E90201206172
:104B60000321CDE90010012202920F21CDE90301BA
:104B7000CDE90502CDE90701586269462046FEF7F6
:104B80007CF821686FF0010008612068C16841F07D
:104B90000101C16004212046FEF784F90AB010BD6E
:104BA00000100240D806002010B5164C8AB0144BF5
:104BB0000020C4E900304FF6FF71C4E90201206112
:104BC0000321CDE90010012202920F21CDE903015A
:104BD000CDE90502CDE90701586269462046FEF796
:104BE0004CF821686FF0010008612068C16841F04D
:104BF0000101C16004212046FEF754F90AB010BD3E
:104C0000000400401807002010B5164C8AB0144B61
:104C10000020C4E900304FF6FF71C4E902012061B1
:104C20000321CDE90010012202920F21CDE90301F9
:104C3000CDE90502CDE90701586269462046FEF735
:104C40001CF821686FF0010008612068C16841F01C
:104C50000101C16004212046FEF724F90AB010BD0D
:104C6000000800409806002010B5164C8AB0144B7E
:104C70000020C4E900304FF6FF71C4E90201206151
:104C80000321CDE90010012202920F21CDE9030199
:104C9000CDE90502CDE90701586269462046FDF7D6
:104CA000ECFF21686FF0010008612068C16841F0E5
:104CB0000101C16004212046FEF7F4F80AB010BDDE
:104CC000000C00405807002010B52A4890B0284931
:104CD00001600221416040F2CF710024C0E9031459
:104CE000846044618461FEF713FA0E940EA9214892
:104CF0000F94FDF79AFF602000904FF4FA60CDE921
:104D0000010403940494059400226946194806940A
:104D1000FEF796F9042269461648FEF791F9082233
:104D200069461448FEF78CF90C2269461148FEF7D3
:104D300087F90794089409944FF400500A94CDE938
:104D40000B4007A90B480D94FDF742FF00210948CD
:104D5000FEF744FA04210748FEF740FA0821054807
:104D6000FEF73CFA0C210348FEF738FA10B010BDEC
:104D7000003401400804002010B5114C0F484FF4D6
:104D8000806120600F4860604FF48050A060002078
:104D9000C4E903010C21C4E90510E0612046FEF7D7
:104DA0005DFB1E2204F140012046FEF77FFC2068D7
:104DB000C16841F01001C16010BD0000004C00400E
:104DC0006C050020A086010010B50F4C0D480C2189
:104DD00020604FF4613060600020A060E060C4E9B2
:104DE0000401A061E0612046FEF738FB3C2204F19B
:104DF000A4012046FEF75AFC2068C16841F010016A
:104E0000C16010BD0044004048040020FEE70000DF
:104E1000002210210148FCF769BE0000001001408B
:104E20000E4810B5816986B041F01001816180693A
:104E30000B4C00F010000490102000900120019015
:104E400002200390002210212046FCF74FFE694605
:104E50002046FCF751FD06B010BD000000100240D6
:104E600000100140012210210148FCF73FBE000064
:104E700000100140012251030148FCF737BE000039
:104E8000001001400E4810B5816986B041F0100154
:104E9000816180694FF4005100F0100004900120FE
:104EA000CDE900100220074C039000222046FCF7B9
:104EB0001DFE69462046FCF71FFD06B010BD000030
:104EC000001002400010014000224FF40051014840
:104ED000FCF70CBE0010014000224FF48041014855
:104EE000FCF704BE001001400E4810B5816986B081
:104EF00041F01001816180694FF4804100F01000A1
:104F000004900120CDE900100220074C03900022FC
:104F10002046FCF7EBFD69462046FCF7EDFC06B0A9
:104F200010BD00000010024000100140012291035A
:104F30000148FCF7DBBD0000001001400122D10355
:104F40000148FCF7D3BD0000001001400E4810B529
:104F5000816986B041F01001816180694FF40041A0
:104F600000F0100004900120CDE900100220074C51
:104F7000039000222046FCF7B9FD69462046FCF765
:104F8000BBFC06B010BD0000001002400010014044
:104F900000224FF400410148FCF7A8BD0010014079
:104FA00070470907090E002806DA00F00F0000F12B
:104FB000E02080F8141D704700F1E02080F8001414
:104FC0007047000010B50021074C0A46002004EB92
:104FD000C1131A54401CC0B28028FAD3491CC9B26C
:104FE0000829F3D310BD00007C09002038B5384DE6
:104FF000287800286AD0FFF7E5FF102000210090F4
:1050000003234FF4C872084600F0A1F9102331A21F
:105010000021202000F074F92F48037A4268002113
:10502000302000F099F82D4908880A280AD2401C3F
:105030000880302003460090294A0221282000F0F1
:1050400039F93FE0102327A20221002000F058F98F
:10505000264CA06AFBF735FA02460B4624A12846E7
:1050600001F000F910232A4602212D2000F048F912
:10507000102320A20421002000F042F9206BFBF74E
:1050800020FA02460B461AA1284601F0EBF810233D
:105090002A4604212D2000F033F9102317A20621FF
:1050A000002000F02DF9E06AFBF70BFA02460B46F0
:1050B0000FA1284601F0D6F810232A4606212D20FC
:1050C00000F01EF900F036F80020287038BD00000E
:1050D00016000020636D000038020020EE01002061
:1050E0003C7C00085069746368000000C003002025
:1050F00025660000526F6C6C00000000596177005B
:1051000070B5074C0025257000F00CF820780028B9
:10511000FCD02570FFF756FFBDE8704000F00AB8DC
:105120001600002010B56420FCF7D4FBBDE8104049
:1051300001F088B81CB54FF480610548CDE9000145
:105140000123402278210348FCF796FF1CBD000094
:105150007C090020600800202DE9F84389460446B8
:1051600098462B491046FBF767F8FBF796F980B293
:105170004FF49671884200D908460A21B0FBF1F33A
:10518000B0FBF1F201FB13051026D2B2022349460F
:105190002046009600F0DBF81834E4B20027102314
:1051A0002E2249462046009700F038F801232A466F
:1051B00049462046009600F0CAF81034E4B21023A5
:1051C000562249462046009700F028F80834152159
:1051D000E5B2B8FBF1F4104A0E4E002002EBC91301
:1051E00000EB84122918B75C5F5432441944177CD1
:1051F00081F8807092F820700F74401C92F8302073
:10520000C0B281F890201028EAD3BDE8F8830000EE
:1052100000002041FC7A00087C090020F0B5203A0B
:10522000214E0024059DD2B206EBC111082B14D0EB
:10523000102B11D11D4E3DB304EB0215735D3544A7
:10524000DF430319641CCF542D7A0B44ED43E4B2C1
:1052500083F88050082CEFD3F0BD154B02EB4202CF
:1052600003EB420245B1135D0519DB43641CE4B254
:105270004B55062CF7D3F0BD135D0519641CE4B241
:105280004B55062CF8D3F0BD04EB02130519F75C5F
:105290004F5533440D44641C1B7AE4B285F88030CA
:1052A000082CF1D3F0BD00007C0900200C7500082B
:1052B000E47200082DE9F0479246814600220F4F24
:1052C000DDF820C015E000200AEB020609EB02051C
:1052D0000AE000FB03F401EB000807EBC818A45D2B
:1052E000401C08F80540C0B2B0EBDC0FF1D3521CF3
:1052F000D2B29A42E7D3BDE8F08700007C090020D3
:105300002DE9F84100241646884605462746082B15
:105310000AD918E00823414628460097FFF77EFF88
:10532000AD1D641CEDB2E4B2325D002AF2D1BDE8DD
:10533000F8811023414628460097FFF76FFF083594
:10534000641CEDB2E4B2325D002AF2D1EFE72DE940
:10535000F84706461446099867421D468A464FF0AC
:1053600000084FF00A09082822D8002C07DA082381
:105370002D223046CDF80080FFF750FF3C464F46C7
:10538000002D36D094FBF7F007FB10403030C2B24E
:1053900005EB450006EB4000C0B208235146CDF8AE
:1053A0000080FFF73BFF94FBF7F46D1EEDB2E7E7DB
:1053B000002C07DA10232D223046CDF80080FFF7AD
:1053C0002DFF3C464F46002D13D094FBF7F007FB12
:1053D00010403030C2B206EBC500C0B210235146B7
:1053E000CDF80080FFF71AFF94FBF7F46D1EEDB2C5
:1053F000E9E7BDE8F887704730B40A780F2A58D13A
:105400000A7E002A55D142834B784383438B8C78A4
:1054100004F0070443EA0423438382838B78DB0888
:105420008383838BCC7804F03F0443EA4413838363
:10543000C283CB789B09C383C38B0C7943EA840373
:10544000C383C38B4C7904F0010443EA8423C383F0
:1054500002844B795B080384038C8C7904F00F047D
:1054600043EAC413038442848B791B094384438C2D
:10547000CC7904F07F0443EA041343848284CB791B
:10548000DB098384838C0C7A43EA44038384838C12
:10549000497A01F0030143EA41218184C18B0B4B1E
:1054A000322908D202760A211970026042608260B5
:1054B000C26030BC7047197811B1491E1970F8E705
:1054C0000121017630BC00F003B80000100200207A
:1054D0002DE9F05F0446008C614FDFF888A1DFF80A
:1054E00088B14FF4617940F206484FF07E5640F2A1
:1054F000FE65D22801D238461EE0208C4845208C1B
:1055000009D2D238FAF7BBFF5146FAF7C7FE314647
:10551000FAF78CFE10E0A84201D930460CE0218C4D
:10552000414508D9208CA0F20640FAF7A8FF594659
:10553000FAF7B4FE00E0002080F000402060A08B6D
:10554000D22801D238461EE0A08B4845A08B09D254
:10555000D238FAF794FF5146FAF7A0FE3146FAF72F
:1055600065FE10E0A84201D930460CE0A18B414510
:1055700008D9A08BA0F20640FAF781FF5946FAF746
:105580008DFE00E000206060608BD22801D238469A
:105590001EE0608B4845608B09D2D238FAF76FFF66
:1055A0005146FAF77BFE3146FAF740FE10E0A8427A
:1055B00001D930460CE0618B414508D9608BA0F2DF
:1055C0000640FAF75CFF5946FAF768FE00E0002053
:1055D000A060E08BD22801D238461EE0E08B48451F
:1055E000E08B09D2D238FAF74AFF5146FAF756FE55
:1055F0003146FAF71BFE10E0A84201D930460CE014
:10560000E18B414508D9E08BA0F20640FAF737FF5D
:105610005946FAF743FE00E0002080F00040E060C9
:10562000608CD22801D2002005E0608CA84201D90C
:10563000022000E001202074A08CD22801D200209A
:105640000AE0A08CA84201D9304605E0A08CFAF708
:105650001FFF0649FAF722FE6061BDE8F09F0000D7
:10566000000080BF00802C4400003E4400C0DF44A6
:10567000704700002DE9F041254E88463146FAF783
:10568000DBFD244C07462068FAF702FF3946FAF79B
:105690007BFD01462048214D81420FDB2068FAF74F
:1056A000F7FE3946FAF770FD01462846814205DCCF
:1056B0002068FAF7EDFE3946FAF766FDFAF7EDFED7
:1056C000206031464046FAF7B7FD124C0646241DCD
:1056D0002068FAF7DDFE3146FAF756FD014610481C
:1056E000814210DB2068FAF7D3FE3146FAF74CFD11
:1056F00001462846814206DC35462068FAF7C8FE96
:105700002946FAF741FDFAF7C8FE2060BDE8F081AE
:105710000000A040342C01400000FA4300401C452A
:105720000000484470B50D460F49FAF785FD4FF06B
:10573000FF342146FAF7F0FD0C49FAF725FDFAF798
:10574000ACFE0B4908600B492846FAF775FD214667
:10575000FAF7E2FD0849FAF717FDFAF79EFE044949
:10576000091D086070BD00000000FA440080BB44C1
:10577000342C01400080D4440040CE4410B5FCF7E6
:105780002DFEBDE81040FDF71DBA30B595B00121E2
:105790000804CDE900100024029402250491CDE90B
:1057A00007504FF4E01009906846FDF745F800B146
:1057B000FEE70F20CDE90A054FF48060CDE90C40EB
:1057C00002210AA80E94FCF735FF00B1FEE74FF462
:1057D000804011900F950FA8FCF7B8FE00B1FEE7CE
:1057E000FCF7CEFF4FF47A71B0FBF1F0FDF7D6F97C
:1057F0000420FDF79DF900221146501EFCF774FEAF
:1058000015B030BD0D48016841F0010101604168EB
:105810000B4A1140416001680A4A11400160016869
:1058200021F480210160416821F4FE0141604FF4C0
:105830001F0181600449C0030860704700100240E6
:105840000000FFF8FFFFF6FE08ED00E00148FDF75D
:1058500043BB0000D80600200148FDF73DBB000017
:10586000180700200148FDF737BB0000980600200C
:105870000148FDF731BB000058070020F0B5026871
:105880001C4D1D4E1D4FDFF878C01E4B4FF0804E53
:10589000A84209D0984207D0704505D0B04203D045
:1058A000B84201D0604503D122F070044A68224317
:1058B000A84209D0984207D0704505D0B04203D025
:1058C000B84201D0604503D122F44074CA68224333
:1058D0004C6922F08002144304608A68C2620A683C
:1058E0008262A84201D0984201D109690163012175
:1058F0004161F0BD002C0140000400400008004060
:10590000000C00400034014010B50123046A8B40B4
:105910009C430462036A8A401343036210BD000083
:10592000F0B5026A22F001020262026A43688469E9
:10593000114E24F073050C68104F2C4322F0020521
:105940008A682A43B04201D0B84205D122F0080546
:10595000CA682A4322F00402B04201D0B84205D1FD
:105960004D6923F440731D438B692B43436084616D
:10597000496841630262F0BD002C014000340140DF
:10598000F0B5026A22F010020262026A436884697A
:105990000D6824F4E64444EA05248D6822F02002D0
:1059A00042EA05120F4D104EA84201D0B04206D176
:1059B000CF6822F0800242EA071222F04002A84299
:1059C00001D0B04207D14D6923F4406343EA850317
:1059D0008D6943EA8503436084614968816302629B
:1059E000F0BD0000002C014000340140F0B5026A17
:1059F00022F480720262026A4368C46922F400726F
:105A000024F073050C68124E2C438D6842EA05227F
:105A10000E4DA84201D0B04206D1CF6822F40062F8
:105A200042EA072222F48062A84201D0B04207D1A4
:105A30004D6923F4405343EA05138D6943EA051386
:105A40004360C4614968C1630262F0BD002C01403B
:105A50000034014030B5026A22F480520262036AC7
:105A60004268C4690D6824F4E64444EA05248D685C
:105A700023F4005343EA0533084DA84202D0084DF1
:105A8000A84204D14D6922F4804242EA8512426064
:105A9000C46149680164036230BD0000002C01400C
:105AA00000340140064810B500680068C00602D501
:105AB000034800F0DFF9BDE810400148FDF746BC9F
:105AC0006C05002010B5406A0021C185C184FDF736
:105AD00016FC10BD70B5446A2068406994F839100E
:105AE000C0F3C0100025212904D118B1E584204657
:105AF00000F046F82068406994F83A10C0F380102E
:105B0000222904D118B1E585204600F02BF8E06B7E
:105B100040F01000E0632046FDF7F1FB70BD10B5CA
:105B20000146406A09680968890613D40021C185C5
:105B30000168CA6822F48072CA6001684A6922F06A
:105B400001024A6101684A6922F040024A6120214B
:105B500080F83A10FDF7F6FD10BD10B5406AFDF76C
:105B6000F2FD10BD0168CA6822F49072CA60016833
:105B70004A6922F001024A61202180F83A107047F8
:105B80000168CA6822F0C002CA60202180F839107A
:105B9000704710B590F83A10222901D0022010BDAC
:105BA0008168B1F5805F11D00169002901681FD0BB
:105BB000496801F07F03816A4A1C82620B70C18DC3
:105BC000491E0904090CC18518D02BE00269816ABD
:105BD000002A0268526805D0D2B20A80816A491C44
:105BE0008162ECE7C2F308020A80816A891CF7E748
:105BF0004A68816A4B1C83620A70E0E70168CA68E0
:105C000022F02002CA600168CA6822F48072CA6069
:105C100001684A6922F001024A61202180F83A10A5
:105C2000FDF790FD002010BD2DE9F041044600680D
:105C30000169E26821F4405111430161A1682069C2
:105C40000143606901432068C26841F20C639A43D2
:105C50000A43C26020684169A26921F4407111437E
:105C600041614C4920686426322788423CD1FCF7C8
:105C70009DFD00EBC00101EB001061688900B0FBE5
:105C8000F1F5FCF793FD00EBC00101EB001061683A
:105C9000B8468900B0FBF1F0B0FBF6F06FF01801E8
:105CA000484305EB800107EB0110B0FBF6F000F074
:105CB000F005FCF77BFD00EBC00101EB0010616813
:105CC0008900B0FBF1F0B0FBF6F005EB0015FCF736
:105CD0006DFD00EBC00101EB001061688900B0FBB5
:105CE000F1F7FCF763FD3BE0FCF750FD00EBC00172
:105CF00001EB001061688900B0FBF1F5FCF746FD8F
:105D000000EBC00101EB00106168B8468900B0FBF0
:105D1000F1F0B0FBF6F06FF01801484305EB80019D
:105D200007EB0110B0FBF6F000F0F005FCF72EFDDC
:105D300000EBC00101EB001061688900B0FBF1F0DD
:105D4000B0FBF6F005EB0015FCF720FD00EBC00101
:105D500001EB001061688900B0FBF1F7FCF716FD5C
:105D600000EBC00101EB001061688900B0FBF1F0AD
:105D7000B0FBF6F06FF01801484307EB800108EB29
:105D80000110B0FBF6F0216800F00F002844886095
:105D9000BDE8F0810038014090F83910212901D088
:105DA000022070478168B1F5805F016A0BD04A1C00
:105DB0000262026809785160C18C491E0904090C0D
:105DC000C1840ED017E009880268C1F30801516050
:105DD00001690029016A02D0491C0162ECE7891CB3
:105DE000FBE70168CA6822F08002CA600068C168E7
:105DF00041F04001C160002070470000064810B526
:105E000000680068C00602D5034800F033F8BDE81A
:105E100010400148FDF79ABA4804002070B50446C6
:105E200008882080888860806088FAF731FB054602
:105E30002088FAF72DFB0B490968FAF7FDF9294686
:105E4000FAF72CFA0849FAF7F7F908498860084682
:105E5000FEF729FC606060680321FAF769FF207291
:105E600070BD0000440000209A99F94044020020CF
:105E7000FEE7000038B5016804460868C043C00664
:105E80002DD4174881420ED10868486800900868F0
:105E900048681448006840682046FDF704FA114934
:105EA0003C223C3916E01048814218D10868486805
:105EB0000090086848680B48A43000684068204695
:105EC000FDF7F1F9074909488431FFF795FA0549CB
:105ED0001E2284312046BDE83840FDF7E7BB38BDBF
:105EE0000044004028050020004C004050020020E3
:105EF0002DE9F84F04464FF0FF352946BF48FAF721
:105F0000D3FE2946BE48FAF7CFFE2946BD48FAF728
:105F1000CBFE0121BC48FAF7C7FEDFF8E0A2BAF9D0
:105F200006004EF660214843FAF7A9FAB74D294614
:105F3000FAF7B4F9B64E3146FAF7B0F92060DFF857
:105F4000C0B2BBF906004EF660214843FAF797FA53
:105F50002946FAF7A3F93146FAF7A0F96060A94893
:105F6000B0F906004EF660214843FAF788FA294650
:105F7000FAF794F93146FAF791F9A060A248B0F91E
:105F800006004EF660214843FAF779FA2946FAF7F7
:105F900085F93146FAF782F9E0602169DFF874C2C9
:105FA0009D48614501D9614605E02269824201DDD3
:105FB000014600E0216921616169614501D96246BC
:105FC00005E06169814201DD024600E062696261CB
:105FD000A169614501D9634605E0A169814201DDFE
:105FE000034600E0A369A361E2698C4E8C4D06F183
:105FF000040808F1040909F10407624501D9604663
:1060000003E0E269824200DCE069E06120698549E1
:1060100020F00040FAF784FA23D26069814920F029
:106020000040FAF77DFA1CD2A0697E4920F00040BA
:10603000FAF776FA15D2E0697A4920F00040FAF7CB
:106040006FFA0ED20020E860A860686028604FF404
:10605000FA603060C8F80000C9F800003860BDE898
:10606000F88F20697049FAF7E7F80090BAF906004E
:10607000FAF705FA01466D48009AFEF77FF829689D
:10608000FAF782F8286060696749FAF7D5F882461E
:10609000BBF90600FAF7F3F9014652466448FEF7E9
:1060A0006DF86968FAF770F86860A0695E49FAF7F8
:1060B000C3F882465348B0F90600FAF7E0F9014602
:1060C00052465C48FEF75AF8A968FAF75DF8A860EE
:1060D000E0695549FAF7B0F804464B48B0F90600B4
:1060E000FAF7CDF9014622465348FEF747F8E9682A
:1060F000FAF74AF80146E860504B2868504C98423D
:1061000001D9184602E0A04200DD204628606A68F6
:106110009A4201D91A4602E0A24200DD22466A6094
:10612000AA689A4201D91A4602E0A24200DD22463C
:10613000AA60994201D9194602E0A14200DD214638
:106140004FF4000AE960504509DB01462046FAF7A2
:106150006DF8FAF7A2F93860FEF784FE07E02146F1
:10616000FAF712F8FAF799F93860FEF751FE686805
:106170005746B8420ADB01462046FAF757F8FAF7C5
:106180008CF9C9F80000FEF79FFE08E02146F9F7F8
:10619000FBFFFAF782F9C9F80000FEF76BFEA8686A
:1061A000B8420ADB01462046FAF740F8FAF775F9DB
:1061B000C8F80000FEF7BAFE08E02146F9F7E4FF50
:1061C000FAF76BF9C8F80000FEF786FEE868B842F7
:1061D0000ADB01462046FAF729F8FAF75EF9306043
:1061E000BDE8F84FFEF7D4BE2146F9F7CDFFFAF728
:1061F00054F93060BDE8F84FFEF7A0BED802002089
:10620000E4020020F0020020FC02002000002041F7
:106210000000A5440000A5C30000A543343401409C
:10622000F00100200AD7A33BAE47613E7802002070
:1062300090020020A8020020C00200200000FAC442
:106240000000FA441CB51D210448CDE900010123DA
:10625000002278210248FBF70FFF1CBDD00100206F
:10626000600800200FB4084B10B504A902AA0398D7
:1062700000F054F9044602A9002000F0E6FC204694
:1062800010BC5DF814FB00004B6C0008490050EA9C
:10629000C12018BF04204A0D18BF40F0010040F291
:1062A000FF72B2EB515F08BF40F00200012808BF47
:1062B000052070472DE9F0414F1E00EBC701044651
:1062C000D1E9000115461E4637F006020DD02A46D8
:1062D0003346FAF735FA7F1E04EBC703D3E90023F0
:1062E000FAF726F837F00602F1D1022F25D0042F55
:1062F00013D0062F18BFBDE8F0812A463346FAF7BF
:106300001FFAD4E90A23FAF713F82A463346FAF7B4
:1063100017FAD4E90823FAF70BF82A463346FAF7B6
:106320000FFAD4E90623FAF703F82A463346FAF7B8
:1063300007FAD4E90423F9F7FBFF2A463346FAF7B4
:10634000FFF9D4E90223F9F7F3FF2A463346FAF7B7
:10635000F7F9D4E90023BDE8F041F9F7E9BF0122DC
:10636000FAF712BBF9F7E4BF024A00201107FAF767
:106370000BBB000001FDFFFF02E008C8121F08C1AF
:10638000002AFAD170477047002001E001C1121FB6
:10639000002AFBD1704700002DE9FF5F82B0002189
:1063A000DDE90430020DDDF840B0034318D044F6B7
:1063B0001050A2F2FF3242431514119801281FD049
:1063C000A5EB0B00401C5FEA000A4FF000064E4FA1
:1063D000DFF83891B046504615D5CAF1000413E0F5
:1063E000119801244AA3012801D16FEA0B010298F8
:1063F000119AC0E90031C0E9024206B0BDE8F09F41
:10640000CBF10000DFE704460021404A491842EB87
:106410000450CDE9001012E0E00707D032463B46B9
:1064200040464946FAF78CF98046894632463B4653
:1064300010461946FAF784F906460F466410002CF8
:10644000EAD1DDE90401DDE90023BAF1000F06DA43
:10645000FAF776F942464B46FAF772F905E0FAF791
:10646000E1F942464B46FAF7DDF904460E460022B2
:10647000284BFAF75FFA03D84FF0FF30014607E0E8
:106480000022254B20463146F9F752FFFAF739FA38
:10649000102409E0002C0ADB0A220023FAF76AF82C
:1064A000039B30321A55641E50EA0102F2D1641C7B
:1064B000039AC4F111031444119A012A03D0012252
:1064C00008430DD10AE0084304D000204FF0110B1F
:1064D000119072E7A3EB0B056D1E0DE05B4504DD2B
:1064E0004FF0000205F1010504E003DA4FF000026D
:1064F000A5F10105002AECD002981199C0E90231FA
:10650000C0E9004579E70000000014400000F03FBA
:10651000300000000000F0430000E03F2DE9FF4F95
:1065200095B09B468946064600250FE2252877D17F
:1065300000242746F84A0121059400E0044316F898
:10654000013F203B01FA03F01042F7D130782A28AE
:1065500011D06FF02F033078A0F13002092A16D83D
:10656000059A44F0020402EB820203EB420210445B
:10657000761C0590EFE759F8042B0592002A03DA00
:10658000504244F40054059044F00204761C3078E4
:106590002E2816D116F8010F44F004042A280DD035
:1065A0006FF02F023078A0F13003092B09D807EBE8
:1065B000870302EB4303C718761CF3E759F8047B03
:1065C000761C30786C280FD006DC4C2817D0682851
:1065D0000DD06A2814D104E0742810D07A280FD185
:1065E0000DE044F400140AE044F4801401E044F4A3
:1065F00040147278824202D104F58014761C761C15
:10660000307866280BD013DC582877D009DC0028B6
:1066100075D04528F6D04628F4D047281AD19DE1F8
:1066200018E0632835D0642879D0652812D195E127
:10663000702873D008DC6728F1D069286FD06E28E5
:106640000DD06F2806D1B5E073282CD0752875D0F1
:10665000782874D05A46179990476D1C75E1C4F399
:106660000250022809D003280DD0D9F800100428C0
:106670000DD00D6009F1040967E1D9F80010EA179F
:10668000C1E90052F6E7D9F800100D80F2E70D706D
:10669000F0E719F8041B8DF8001000208DF80100B8
:1066A000EA46012003E059F804AB4FF0FF306107E0
:1066B0004FF0000102D40DE008F101018846B94213
:1066C0000FDA8045F8DB1AF808100029F4D108E049
:1066D00008F1010188468142FADB1AF80810002906
:1066E000F6D105985B46A0EB080721463846179A75
:1066F00000F094FA284400EB080507E04DE029E19A
:106700000DE01AF8010B5A4617999047B8F10108A5
:10671000F7D25B4621463846179A13E142E00A2237
:106720000092C4F302524FF0000A022A08D059F82E
:1067300004CB032A4FEAEC710AD00DE029E02AE0ED
:1067400009F1070121F00702F2E802C1914609E0D0
:106750000FFA8CFC4FEAEC71042A03D14FFA8CFC3F
:106760004FEAEC71002907DA0A460021DCF1000C3F
:1067700061EB02012D2202E0220504D52B228DF8C7
:106780000420012203E0E20701D02022F7E790462F
:1067900059E00A2102E010220DE010214FF0000A1A
:1067A00000910BE010224FF0000A44F00404082787
:1067B000009203E008224FF0000A0092C4F3025254
:1067C000022A05D059F804CB0021032A08D009E099
:1067D00009F1070121F00702F2E802C1914605E044
:1067E0001FFA8CFC042A01D10CF0FF0C4FF00008BA
:1067F000220728D5702806D0009B83F0100353EAA7
:106800000A0305D00EE040228DF80420012208E0A2
:106810005CEA010206D030228DF804208DF80500D4
:1068200002229046009B83F0080353EA0A030AD130
:106830005CEA010201D1620705D530228DF80420FF
:106840004FF001087F1E582804D034A003900EA8F2
:1068500002900DE036A0F9E753466046009AF9F73A
:1068600089FE84460398825C0298401E0290027062
:106870005CEA0100F0D1029806A9081A00F1200A8A
:10688000600702D524F4803400E00127574502DD7B
:10689000A7EB0A0000E0002000EB0A010090059839
:1068A0004144401A0590E00306D45B462146179AFE
:1068B000059800F0B3F90544002706E001A85A4600
:1068C000C05D179990476D1C7F1C4745F6DBE003C0
:1068D0000CD55B462146179A059800F09FF90544B0
:1068E00004E030205A46179990476D1C0099481EC5
:1068F00000900029F5DC08E0029802995A460078D9
:10690000491C0291179990476D1CBAF10001AAF138
:10691000010AF1DC65E10000092801003031323361
:1069200034353637383961626364656600000000CB
:1069300030313233343536373839414243444546B5
:106940000000000000F058F90544761C307800285B
:106950007FF4ECAD19B02846BDE8F08F620700D493
:10696000062709F1070222F0070CFCE80223E146A2
:1069700003F000485FEA080C02D00FF2702C0DE023
:106980005FEA045C02D50FF2682C07E05FEAC47C82
:1069900002D00FF2602C01E0AFF2700C4FF0FF3824
:1069A00023F00043CDF850C065280CD006DC452804
:1069B00009D046281DD047283DD13DE0662818D093
:1069C00067287ED138E00021112F01DB112000E083
:1069D000781CCDE9000106A90EA8FFF7DDFCDDE972
:1069E0000F010E9A03910021009207F1010A049110
:1069F0004DE04FF000400097CDE9011006A90EA828
:106A0000FFF7CAFCDDE90F0203920E9B11990022E9
:106A1000DDF80CA00093049211B9791C00EB010A77
:106A2000B7EB0A0004D4C0F1FF3007F1010A04906B
:106A3000AAEB0700019044E0012F00DA01270021B2
:106A4000112F01DD112000E03846CDE9000106A933
:106A50000EA8FFF7A1FCDDE90F010E9A03910021BA
:106A600004910092BA4621070CD40399514500DAEB
:106A70008A46BAF1010F05DD009AAAF10101515CC5
:106A8000302908D0B84202DA10F1040F06DA0121E9
:106A9000CDE9011015E0AAF10101E9E7002805DCC4
:106AA000049901440491AAEB000102E0411C514504
:106AB00000DD8A460499401A401C01904FF00040C6
:106AC0000290200704D40198504501DBCDF80480E2
:106AD00000208DF84F0002980DF14F07B0F1004FE4
:106AE00025D02B200E9002984FF0020800280CDAD7
:106AF000404202902D200E9007E00A210298F9F7FB
:106B000023FD3031029007F8011DB8F10001A8F112
:106B10000108F2DC02980028EFD1791E0E98087067
:106B2000307800F0200040F0450007F8020D12A870
:106B3000C01B00F107081498007800B1012000EB99
:106B40000A01019801EBE07105984144401A401E8A
:106B50000590E00306D45B462146179A059800F09D
:106B60005DF805441498007818B15A461799904773
:106B70006D1CE00324D55B462146179A059800F06A
:106B80004DF805441CE00498002807DBDDE903010B
:106B9000884203DD0098405C179901E01799302086
:106BA0005A469047049805F10105401C049001984D
:106BB000401E019004D12E205A46179990476D1C13
:106BC000BAF10001AAF1010ADDDC05E017F8010BBA
:106BD0005A46179990476D1CB8F10001A8F10108B9
:106BE000F4DC5B462146179A0598ABE62D000000C1
:106BF0002B000000200000002DE9F0410446002594
:106C00001E461746880404D405E039462020B047C4
:106C10006D1C641EF9D52846BDE8F0812DE9F041D0
:106C2000044600251E469046C80301D5302700E0E3
:106C30002027880404D505E041463846B0476D1C3E
:106C4000641EF9D52846BDE8F0810A68531C0B6024
:106C5000107070472DE9F84F04460D4621F00040B2
:106C600000917349814211DC7249884201DC06D1EE
:106C70002CB120462946BDE8F84FFFF770BB6E489F
:106C8000002DCCBF6D496E49BDE8F88F6D4981423A
:106C900011DD6D498142D8BF4FF0FF366DDD2046D2
:106CA0002946FFF7F3FA042808BFFFF75DFB2046EB
:106CB0002946BDE8F88F6549654F25F000458142BA
:106CC00033DD6449814219DD002632464FF08043AE
:106CD00020462946F9F72CFB80468A4601222046A9
:106CE0002946F9F751FE00223B46F9F7C2FB42461E
:106CF0005346F9F797FD04460D463EE00126002273
:106D0000BA463B4620462946F9F712FB80460F4615
:106D10000022534620462946F9F7ABFB42463B4644
:106D2000F9F780FD04460D4627E04B4981421BDD03
:106D3000DFF828A102260022534620462946F9F70B
:106D4000FFFC00223B46F9F7F3FA80460F4600228B
:106D5000534620462946F9F78CFB42463B46F9F755
:106D600061FD04460D4608E0032622462B4600201E
:106D70003B49F9F757FD04460D4622462B4610467F
:106D80001946F9F7DDFC8B46824602460B46F9F7B9
:106D9000D7FC07460246334888460B46062178440E
:106DA000FFF788FA52465B46F9F7CAFC82462E483E
:106DB0008B463A46434605217844FFF77BFA3A462C
:106DC0004346F9F7BDFC02460B46002E5046594695
:106DD0000CDAF9F7ADFA22462B46F9F7B1FC01B00F
:106DE00022462B46BDE8F04FF9F746BBF9F7A0FA6B
:106DF00022462B46F9F7A4FC1C4A7A4402EBC60350
:106E0000D3E90023F9F735FB22462B46F9F731FB8E
:106E1000174A7A4402EBC603D3E90023F9F72CFBA7
:106E2000009A002AB8BF81F00041BDE8F88F000049
:106E3000000010440000F07F182D4454FB21F93F5E
:106E4000FB21F9BF0000DC3F0000203E0000F33FC3
:106E50000000F03F0000E63F008003400000F83FE4
:106E60000000F0BF3E100000FC0F00009A0F000071
:106E7000620F00002DE9F04D9446CCF1000423F0A0
:106E800000464CEA0404524F46EAD4749A468846B7
:106E900021F00042BC4206D8454240EA050442EADD
:106EA000D474BC4204D9BDE8F04D6246FFF75ABA2B
:106EB000AAF14055A5F17F6555EA0C040BD00224D8
:106EC00004EAAA74434DDFF810E144EAD87452EAA8
:106ED000000B04D00CE0BDE8F04DFFF7BBBE002C6A
:106EE00014BF012CBDE8F08D022C30D0032C32D021
:106EF00056EA0C0B0AD0BE4220D1BA4209D126F084
:106F0000804622F080423346114617E000291ADB02
:106F100025E0DFF8C8B0FB44002C04BFDBE900012A
:106F2000BDE8F08D012C02BFDBE9000181F00041DA
:106F3000BDE8F08D022C0AD0032C0CD0BA4212D13D
:106F4000B8F1000F0BDA23482549BDE8F08D28463B
:106F50002449BDE8F08D28467146BDE8F08D1D48F6
:106F60002149BDE8F08D921B12153C2AC4BF194877
:106F70001D490EDCBAF1000FBEBF12F13C0F00201C
:106F8000014606DB6246F9F74DFC21F00041FFF7B0
:106F900061FE002C08BFBDE8F08D012C04BF81F01C
:106FA0000041BDE8F08D114A114B022C07D0F9F7D2
:106FB00060FA2A46BDE8F04D0A4BF9F75ABAF9F7DC
:106FC00058FA2A46BDE8F04D064BF9F755BA0000CD
:106FD0000000F07F182D4454FB2109C0F60E00007C
:106FE000FB21F9BFFB210940FB21F93F075C14336A
:106FF00026A6A13C1CB5FBF7F9F9FEF7C6FBFDF789
:1070000063FEFDF70DFFFDF73DFFFDF76DFFFDF79B
:107010009DFFFDF7C9FC934C93482146FDF73EFBCD
:1070200021469248FDF73AFB21469148FDF736FB91
:1070300021469048FDF732FBFDF7C6FEFDF79CFEAA
:10704000FDF7E4FCFDF706FDFDF71CFDFDF772FD05
:10705000FDF7AAFDFDF7D8FDFDF706FE04218648E1
:10706000F9F708FE02218548F9F704FE0521844856
:10707000F9F700FE03218348F9F7FCFD824C834DAC
:107080000023224629468248FDF770F80023224655
:1070900029468048FDF76AF80023224629467E48A3
:1070A000FDF764F80023224629467C48FDF75EF888
:1070B0007B48FDF781F97B48FDF77EF9F9F77CFD08
:1070C000FDF76AFAFDF7C8FA4FF41670FAF702FCFA
:1070D0007548FDF7FDFAFEF713F832210220F9F7A3
:1070E0002DFD32210220FDF719FA32210220FDF791
:1070F00075FA6D4FDFF8B4B16D4E6E4C4FF000086D
:10710000308800287ED19BF818005D46C0B3287CEB
:1071100020B1012835D002282DD139E06869B0F1BD
:107120007C5F11DDF86ADFF890914946F9F7B6F80F
:107130008246B86A4946F9F7B1F880F000418AF012
:107140000040FEF7EFFA05E000210846FEF7EAFAF4
:10715000C7F82C806868DFF864914946F9F76CF845
:10716000206028684946F9F767F86060A86801213F
:10717000F9F7D2F8A06032210120FDF7CFF918E02D
:1071800011E0C7F82C80E968A868FEF7CBFA03E0A5
:10719000E968A868FEF76EFA68684849F9F74CF89C
:1071A00020602868E3E7C4F80080C4F80480C4F8CD
:1071B000088020682D4988600846FDF774FA206031
:1071C00060682B4988600846FDF76DFA6060A0682A
:1071D000284988600846FDF766FAA0603548FDF743
:1071E00005F9E068364D2861206968616069A86129
:1071F000A069E8612846FEF77BFE29683148C16036
:10720000696800E008E00161A9684161E96881619D
:10721000FDF736F90A2030802B4D288860B92248C6
:107220000E213830CDE9000101233B22D02127482F
:10723000FAF7B6FE05202880254D288828B925486C
:107240000078FDF7D3FE64202880234D288800288D
:107250007FF456AF21492248FEF7E0FD4FF4FA7063
:1072600028804DE79A99993E44020020140200209C
:10727000200200202C020020D8020020E40200207E
:10728000F0020020FC0200200000C0BF000030C05F
:107290007802002090020020A8020020C0020020F6
:1072A0006003002090030020C00300205002002053
:1072B0000200002028030020D80FC93FCDCC4C3F4E
:1072C0000803002044030020000000200C080020D8
:1072D00008000020ED010020040000200C00002028
:1072E000380200200000000000000000002F000015
:1072F00000000700070000147F147F1400242A7F79
:107300002A120062640813230036495522500000F7
:107310000503000000001C224100000041221C0067
:107320000014083E08140008083E0808000000A0E9
:1073300060000008080808080000606000000020E5
:1073400010080402003E5149453E0000427F4000C3
:10735000004261514946002141454B310018141249
:107360007F10002745454539003C4A494930000116
:107370007109050300364949493600064949291E65
:1073800000003636000000005636000000081422C7
:1073900041000014141414140000412214080002C7
:1073A0000151090600324959513E007C1211127CEC
:1073B000007F49494936003E41414122007F414119
:1073C000221C007F49494941007F09090901003E0B
:1073D0004149497A007F0808087F0000417F410049
:1073E000002040413F01007F08142241007F4040BF
:1073F0004040007F020C027F007F0408107F003EA7
:107400004141413E007F09090906003E4151215E8C
:10741000007F091929460046494949310001017F89
:107420000101003F4040403F001F2040201F003F1F
:107430004038403F006314081463000708700807D1
:1074400000615149454300007F41410000552A55E4
:107450002A55000041417F0000040201020400405F
:107460004040404000000102040000205454547881
:10747000007F4844443800384444442000384444A1
:10748000487F00385454541800087E09010200183F
:10749000A4A4A47C007F080404780000447D40007C
:1074A000004080847D00007F102844000000417F60
:1074B0004000007C04180478007C0804047800383C
:1074C0004444443800FC242424180018242418FCC4
:1074D000007C0804040800485454542000043F442D
:1074E0004020003C4040207C001C2040201C003CF0
:1074F0004030403C004428102844001CA0A0A07C40
:10750000004464544C441414141414140000000077
:10751000000000000000000000000000000000F873
:1075200000000000000000333000000000100C06D6
:10753000100C0600000000000000000040C0784071
:10754000C0784000043F04043F040400007088FC3D
:1075500008300000001820FF211E0000F008F00095
:10756000E018000000211C031E211E0000F0088806
:10757000700000001E2123241927211010160E0070
:10758000000000000000000000000000000000E01B
:107590001804020000000007182040000002041830
:1075A000E00000000040201807000000404080F08C
:1075B000804040000202010F01020200000000F0C2
:1075C000000000000101011F010101000000000096
:1075D0000000000080B0700000000000000000000B
:1075E0000000000000010101010101010000000094
:1075F000000000000030300000000000000000002B
:1076000080601804006018060100000000E0100807
:107610000810E000000F102020100F00001010F8DC
:10762000000000000020203F20200000007008081B
:10763000088870000030282422213000003008889B
:10764000884830000018202020110E000000C020C3
:1076500010F8000000070424243F240000F80888E4
:10766000880808000019212020110E0000E0108871
:1076700088180000000F112020110E0000380808A3
:10768000C83808000000003F0000000000708808B3
:1076900008887000001C222121221C0000E0100834
:1076A0000810E0000000312222110F00000000C08D
:1076B000C00000000000003030000000000000802A
:1076C000000000000000806000000000000080401A
:1076D0002010080000010204081020004040404033
:1076E0004040400004040404040404000008102086
:1076F00040800000002010080402010000704808CB
:107700000808F0000000003036010000C030C82832
:10771000E810E0000718272423140B000000C038ED
:10772000E0000000203C23020227382008F8888867
:1077300088700000203F202020110E00C030080873
:1077400008083800071820202010080008F808084A
:107750000810E000203F202020100F0008F8888843
:10776000E8081000203F20202320180008F888880F
:10777000E8081000203F200003000000C030080887
:107780000838000007182020221E020008F8080010
:107790000008F808203F210101213F20000808F8D7
:1077A000080800000020203F2020000000000808FA
:1077B000F8080800C08080807F00000008F888C0BA
:1077C00028180800203F20012638200008F808006B
:1077D00000000000203F20202020300008F8F800A2
:1077E000F8F80800203F003F003F200008F830C0B4
:1077F0000008F808203F200007183F00E0100808A4
:107800000810E0000F10202020100F0008F80808D2
:107810000808F000203F210101010000E0100808E5
:107820000810E0000F18242438504F0008F888880A
:1078300088887000203F2000030C302000708808EA
:10784000080838000038202121221C00180808F8F8
:10785000080818000000203F2000000008F8080079
:107860000008F808001F202020201F00087888004A
:1078700000C83808000007380E010000F80800F8BA
:107880000008F800033C0700073C03000818688064
:107890008068180820302C03032C30200838C800DA
:1078A000C83808000000203F200000001008080829
:1078B000C83808002038262120201800000000FECB
:1078C000020202000000007F40404000000C30C077
:1078D00000000000000000010638C00000020202A3
:1078E000FE000000004040407F0000000000040255
:1078F0000202040000000000000000000000000080
:10790000000000008080808080808080000202046F
:107910000000000000000000000000000000808067
:10792000808000000019242222223F2008F80080D5
:1079300080000000003F112020110E000000008098
:1079400080800000000E1120202011000000008027
:107950008088F800000E112020103F200000808059
:1079600080800000001F222222221300008080F06D
:10797000888888180020203F202000000000808098
:1079800080808000006B94949493600008F80080DD
:1079900080800000203F210000203F200080989838
:1079A000000000000020203F202000000000008098
:1079B0009898000000C08080807F000008F80000D8
:1079C00080808000203F24022D302000000808F82D
:1079D000000000000020203F2020000080808080E8
:1079E00080808000203F20003F20003F808000807A
:1079F00080800000203F210000203F200000808088
:107A000080800000001F202020201F008080008038
:107A10008000000080FFA12020110E0000000080E7
:107A200080808000000E112020A0FF8080808000D8
:107A30008080800020203F21200001000000808005
:107A4000808080000033242424241900008080E0FA
:107A5000808000000000001F2020000080800000C7
:107A600000808000001F202020103F2080808000A8
:107A70000080808000010E300806010080800080B8
:107A8000008080800F300C030C300F0000808000DD
:107A9000808080000020312E0E3120008080800008
:107AA0000080808080818E701806010000808080B8
:107AB000808080000021302C222130000000000056
:107AC000807C020200000000003F404000000000F7
:107AD000FF00000000000000FF0000000002027C28
:107AE000800000000040403F00000000000601014F
:107AF00002020404000000000000000000F8FC0C7A
:107B00000C0C0C0C0C0C0C0C0C0C0C0C001F3F3057
:107B10003030303030303030303030300C0C0C0CF5
:107B20000C0C0C0C0C0C0CFCF8E0E0E030303030AD
:107B3000303030303030303F1F07070700F8FC0C82
:107B4000ECECECEC0C0C0C0C0C0C0C0C001F3F3097
:107B50003737373730303030303030300C0C0C0C99
:107B60000C0C0C0C0C0C0CFCF8E0E0E0303030306D
:107B7000303030303030303F1F07070700F8FC0C42
:107B8000ECECECEC0C0CECECECEC0C0C001F3F30D7
:107B90003737373730303737373730300C0C0C0C3D
:107BA0000C0C0C0C0C0C0CFCF8E0E0E0303030302D
:107BB000303030303030303F1F07070700F8FC0C02
:107BC000ECECECEC0C0CECECECEC0C0C001F3F3097
:107BD000373737373030373737373030ECECECEC7D
:107BE0000C0C0C0C0C0C0CFCF8E0E0E037373737D1
:107BF000303030303030303F1F07070700F8FC0CC2
:107C0000ECECECEC0C0CECECECEC0C0C001F3F3056
:107C1000373737373030373737373030ECECECEC3C
:107C20000C0CECECECEC0CFCF8E0E0E03737373710
:107C3000303037373737303F1F0707070000000065
:107C400000000000000000901038FFFE7C7C4C001B
:107C5000008080C04040606060604040C0FCFC002C
:107C60000000000000000000000000000000000014
:107C700000000040F0F8F8F8F0E0810000E0780C37
:107C8000030100E0F8F8FCFCFCF6F4F4ECE8D9B3EE
:107C9000628CF800000000000000000040C0C0C07E
:107CA000E0F0C08083071F3F7FFFFFFFFEFFF8F07B
:107CB000E0C0C087050707070F0F0F1F1F3F7FCFCB
:107CC000E03D0F000000043C1E3C2C00000C0F07A0
:107CD000070F1F0101000080C0E107FFFFFFFFFF4A
:107CE000FFFFDFDB7F80C030ECECFCFCFCFCFFFD29
:107CF000FCFC7C7E7C3C3C0000000000000000009E
:107D000000000000E0F8FEFFFFFFFFFF7F7F3F3F26
:107D10003F3F7EFFFEF9FFFFFFFFFDFD010000007A
:107D200030F07870D000000000000000000000007B
:107D3000000000030F0F0F0F0703010000000000F9
:107D400000000001030F1F1F3F3F1F07000000003E
:107D50000000000000000000000000000000000023
:107D600000000000010203040607080900000000EB
:107D700001020304000000004FBB610567ACDD3F5A
:107D8000182D4454FB21E93F9BF681D20B73EF3F42
:107D9000182D4454FB21F93FE2652F227F2B7A3CBA
:107DA000075C143326A6813CBDCBF07A8807703C73
:107DB000075C143326A6913CC4EB98999999C9BFE6
:107DC000711623FEC671BCBF6D9A74AFF2B0B3BF1B
:107DD0009AFDDE522DDEADBF2F6C6A2C44B4A2BFDB
:107DE0000D5555555555D53FFF8300922449C23F47
:107DF0006E204CC5CD45B73F513DD0A0660DB13F7B
:107E0000EB0D76244B7BA93F11DA22E33AAD903F8C
:107E10000000000000000000387E00080000002084
:107E200014020000B6090008007F000814020020B8
:107E30006C0F0000886300080144959A99993F1DD2
:107E40002018C744012AFC050212041D040404077B
:107E5000042B04FF050A110421215BFE22010213F9
:107E6000FE3E8040300F0201041642827F4BFE82AC
:107E70000109123F414BFF40010215FF16FC8484AB
:107E800084FC2A10010412FF10101A3F1919EE0D7C
:107E90001201064080800810138040209088868060
:107EA0008080838C10204080211318071C40804064
:107EB000450113172424A4FE232213C03812FF0403
:107EC00011081060000F12080601FF0106818040B2
:107ED0004027100C0312AE100C1040B081FFA1A679
:107EE000A83FC8D3000F14D580D805D9F1DA12DB2A
:107EF000308D14AF20320179E635A24A040A000021
:0400000508000131BD
:00000001FF
