Component: ARM Compiler 5.06 update 6 (build 750) Tool: armlink [4d35ed]

==============================================================================

Section Cross References

    startup_stm32f103xe.o(RESET) refers to startup_stm32f103xe.o(STACK) for __initial_sp
    startup_stm32f103xe.o(RESET) refers to startup_stm32f103xe.o(.text) for Reset_Handler
    startup_stm32f103xe.o(RESET) refers to stm32f1xx_it.o(i.NMI_Handler) for NMI_Handler
    startup_stm32f103xe.o(RESET) refers to stm32f1xx_it.o(i.HardFault_Handler) for HardFault_Handler
    startup_stm32f103xe.o(RESET) refers to stm32f1xx_it.o(i.MemManage_Handler) for MemManage_Handler
    startup_stm32f103xe.o(RESET) refers to stm32f1xx_it.o(i.BusFault_Handler) for BusFault_Handler
    startup_stm32f103xe.o(RESET) refers to stm32f1xx_it.o(i.UsageFault_Handler) for UsageFault_Handler
    startup_stm32f103xe.o(RESET) refers to stm32f1xx_it.o(i.SVC_Handler) for SVC_Handler
    startup_stm32f103xe.o(RESET) refers to stm32f1xx_it.o(i.DebugMon_Handler) for DebugMon_Handler
    startup_stm32f103xe.o(RESET) refers to stm32f1xx_it.o(i.PendSV_Handler) for PendSV_Handler
    startup_stm32f103xe.o(RESET) refers to stm32f1xx_it.o(i.SysTick_Handler) for SysTick_Handler
    startup_stm32f103xe.o(RESET) refers to stm32f1xx_it.o(i.DMA1_Channel4_IRQHandler) for DMA1_Channel4_IRQHandler
    startup_stm32f103xe.o(RESET) refers to stm32f1xx_it.o(i.DMA1_Channel5_IRQHandler) for DMA1_Channel5_IRQHandler
    startup_stm32f103xe.o(RESET) refers to stm32f1xx_it.o(i.DMA1_Channel6_IRQHandler) for DMA1_Channel6_IRQHandler
    startup_stm32f103xe.o(RESET) refers to stm32f1xx_it.o(i.DMA1_Channel7_IRQHandler) for DMA1_Channel7_IRQHandler
    startup_stm32f103xe.o(RESET) refers to stm32f1xx_it.o(i.TIM2_IRQHandler) for TIM2_IRQHandler
    startup_stm32f103xe.o(RESET) refers to stm32f1xx_it.o(i.TIM3_IRQHandler) for TIM3_IRQHandler
    startup_stm32f103xe.o(RESET) refers to stm32f1xx_it.o(i.TIM4_IRQHandler) for TIM4_IRQHandler
==============================================================================

Removing Unused input sections from the image.

    Removing startup_stm32f103xe.o(HEAP), (10000 bytes).
    Removing main.o(.rev16_text), (4 bytes).
    Removing main.o(.revsh_text), (4 bytes).
    Removing main.o(.rrx_text), (6 bytes).
    Removing main.o(i._Error_Handler), (2 bytes).
    Removing stm32f1xx_hal_msp.o(.rev16_text), (4 bytes).
    Removing stm32f1xx_hal_msp.o(.revsh_text), (4 bytes).
    Removing stm32f1xx_hal_msp.o(.rrx_text), (6 bytes).
    Removing stm32f1xx_hal_msp.o(i.HAL_ADC_MspDeInit), (56 bytes).
    Removing stm32f1xx_hal_msp.o(i.HAL_I2C_MspDeInit), (136 bytes).
    Removing stm32f1xx_hal_msp.o(i.HAL_TIM_Encoder_MspDeInit), (192 bytes).
    Removing stm32f1xx_hal_msp.o(i.HAL_TIM_PWM_MspDeInit), (72 bytes).
    Removing stm32f1xx_hal_msp.o(i.HAL_UART_MspDeInit), (96 bytes).
    Removing stm32f1xx_it.o(.rev16_text), (4 bytes).
    Removing stm32f1xx_it.o(.revsh_text), (4 bytes).
    Removing stm32f1xx_it.o(.rrx_text), (6 bytes).
    Removing delayus.o(.rev16_text), (4 bytes).
    Removing delayus.o(.revsh_text), (4 bytes).
==============================================================================

Image Symbol Table

    Local Symbols

    Symbol Name                              Value     Ov Type        Size  Object(Section)

    ..//Src/system_stm32f1xx.c               0x00000000   Number         0  system_stm32f1xx.o ABSOLUTE
    ../Drivers/STM32F1xx_HAL_Driver/Src/stm32f1xx_hal.c 0x00000000   Number         0  stm32f1xx_hal.o ABSOLUTE
    ../Drivers/STM32F1xx_HAL_Driver/Src/stm32f1xx_hal_adc.c 0x00000000   Number         0  stm32f1xx_hal_adc.o ABSOLUTE
    ../Drivers/STM32F1xx_HAL_Driver/Src/stm32f1xx_hal_adc_ex.c 0x00000000   Number         0  stm32f1xx_hal_adc_ex.o ABSOLUTE
    ../Drivers/STM32F1xx_HAL_Driver/Src/stm32f1xx_hal_cortex.c 0x00000000   Number         0  stm32f1xx_hal_cortex.o ABSOLUTE
    ../Drivers/STM32F1xx_HAL_Driver/Src/stm32f1xx_hal_dma.c 0x00000000   Number         0  stm32f1xx_hal_dma.o ABSOLUTE
    ../Drivers/STM32F1xx_HAL_Driver/Src/stm32f1xx_hal_flash.c 0x00000000   Number         0  stm32f1xx_hal_flash.o ABSOLUTE
    ../Drivers/STM32F1xx_HAL_Driver/Src/stm32f1xx_hal_flash_ex.c 0x00000000   Number         0  stm32f1xx_hal_flash_ex.o ABSOLUTE
    ../Drivers/STM32F1xx_HAL_Driver/Src/stm32f1xx_hal_gpio.c 0x00000000   Number         0  stm32f1xx_hal_gpio.o ABSOLUTE
    ../Drivers/STM32F1xx_HAL_Driver/Src/stm32f1xx_hal_gpio_ex.c 0x00000000   Number         0  stm32f1xx_hal_gpio_ex.o ABSOLUTE
    ../Drivers/STM32F1xx_HAL_Driver/Src/stm32f1xx_hal_pwr.c 0x00000000   Number         0  stm32f1xx_hal_pwr.o ABSOLUTE
    ../Drivers/STM32F1xx_HAL_Driver/Src/stm32f1xx_hal_rcc.c 0x00000000   Number         0  stm32f1xx_hal_rcc.o ABSOLUTE
    ../Drivers/STM32F1xx_HAL_Driver/Src/stm32f1xx_hal_rcc_ex.c 0x00000000   Number         0  stm32f1xx_hal_rcc_ex.o ABSOLUTE
    ../Drivers/STM32F1xx_HAL_Driver/Src/stm32f1xx_hal_tim.c 0x00000000   Number         0  stm32f1xx_hal_tim.o ABSOLUTE
    ../Drivers/STM32F1xx_HAL_Driver/Src/stm32f1xx_hal_tim_ex.c 0x00000000   Number         0  stm32f1xx_hal_tim_ex.o ABSOLUTE
    ../Drivers/STM32F1xx_HAL_Driver/Src/stm32f1xx_hal_uart.c 0x00000000   Number         0  stm32f1xx_hal_uart.o ABSOLUTE
    ../Src/main.c                            0x00000000   Number         0  main.o ABSOLUTE
    ../Src/stm32f1xx_hal_msp.c               0x00000000   Number         0  stm32f1xx_hal_msp.o ABSOLUTE
    ../Src/stm32f1xx_it.c                    0x00000000   Number         0  stm32f1xx_it.o ABSOLUTE
    ../clib/../cmprslib/zerorunl2.c          0x00000000   Number         0  __dczerorl2.o ABSOLUTE
    ../clib/microlib/division.c              0x00000000   Number         0  uidiv.o ABSOLUTE
    ../clib/microlib/division.c              0x00000000   Number         0  uldiv.o ABSOLUTE
    ../clib/microlib/errno.c                 0x00000000   Number         0  errno.o ABSOLUTE
    ../clib/microlib/init/entry.s            0x00000000   Number         0  entry10b.o ABSOLUTE
    ../clib/microlib/init/entry.s            0x00000000   Number         0  entry.o ABSOLUTE
    ../clib/microlib/init/entry.s            0x00000000   Number         0  entry10a.o ABSOLUTE
    ../clib/microlib/init/entry.s            0x00000000   Number         0  entry8a.o ABSOLUTE
    ../clib/microlib/init/entry.s            0x00000000   Number         0  entry7a.o ABSOLUTE
    ../clib/microlib/init/entry.s            0x00000000   Number         0  entry8b.o ABSOLUTE
    ../clib/microlib/init/entry.s            0x00000000   Number         0  entry2.o ABSOLUTE
    ../clib/microlib/init/entry.s            0x00000000   Number         0  entry9b.o ABSOLUTE
    ../clib/microlib/init/entry.s            0x00000000   Number         0  entry9a.o ABSOLUTE
    ../clib/microlib/init/entry.s            0x00000000   Number         0  entry11a.o ABSOLUTE
    ../clib/microlib/init/entry.s            0x00000000   Number         0  entry11b.o ABSOLUTE
    ../clib/microlib/init/entry.s            0x00000000   Number         0  entry5.o ABSOLUTE
    ../clib/microlib/init/entry.s            0x00000000   Number         0  entry7b.o ABSOLUTE
    ../clib/microlib/longlong.c              0x00000000   Number         0  llushr.o ABSOLUTE
    ../clib/microlib/longlong.c              0x00000000   Number         0  llshl.o ABSOLUTE
    ../clib/microlib/longlong.c              0x00000000   Number         0  llsshr.o ABSOLUTE
    ../clib/microlib/printf/printf.c         0x00000000   Number         0  printf8.o ABSOLUTE
    ../clib/microlib/printf/printf.c         0x00000000   Number         0  printfa.o ABSOLUTE
    ../clib/microlib/printf/printf.c         0x00000000   Number         0  printf1.o ABSOLUTE
    ../clib/microlib/printf/printf.c         0x00000000   Number         0  printfb.o ABSOLUTE
    ../clib/microlib/printf/printf.c         0x00000000   Number         0  printf2.o ABSOLUTE
    ../clib/microlib/printf/printf.c         0x00000000   Number         0  printf3.o ABSOLUTE
    ../clib/microlib/printf/printf.c         0x00000000   Number         0  printf6.o ABSOLUTE
    ../clib/microlib/printf/printf.c         0x00000000   Number         0  printf0.o ABSOLUTE
    ../clib/microlib/printf/printf.c         0x00000000   Number         0  printf4.o ABSOLUTE
    ../clib/microlib/printf/printf.c         0x00000000   Number         0  printf7.o ABSOLUTE
    ../clib/microlib/printf/printf.c         0x00000000   Number         0  printf5.o ABSOLUTE
    ../clib/microlib/printf/stubs.s          0x00000000   Number         0  stubs.o ABSOLUTE
    ../clib/microlib/stdio/fputc.c           0x00000000   Number         0  fputc.o ABSOLUTE
    ../clib/microlib/stdio/semi.s            0x00000000   Number         0  semi.o ABSOLUTE
    ../clib/microlib/stdio/streams.c         0x00000000   Number         0  stdout.o ABSOLUTE
    ../clib/microlib/stubs.s                 0x00000000   Number         0  iusefp.o ABSOLUTE
    ../clib/microlib/stubs.s                 0x00000000   Number         0  iusesemip.o ABSOLUTE
    ../fplib/microlib/d2f.c                  0x00000000   Number         0  d2f.o ABSOLUTE
    ../fplib/microlib/f2d.c                  0x00000000   Number         0  f2d.o ABSOLUTE
    ../fplib/microlib/fpadd.c                0x00000000   Number         0  dadd.o ABSOLUTE
    ../fplib/microlib/fpadd.c                0x00000000   Number         0  fadd.o ABSOLUTE
    ../fplib/microlib/fpdiv.c                0x00000000   Number         0  fdiv.o ABSOLUTE
    ../fplib/microlib/fpdiv.c                0x00000000   Number         0  ddiv.o ABSOLUTE
    ../fplib/microlib/fpepilogue.c           0x00000000   Number         0  depilogue.o ABSOLUTE
    ../fplib/microlib/fpepilogue.c           0x00000000   Number         0  fepilogue.o ABSOLUTE
    ../fplib/microlib/fpfix.c                0x00000000   Number         0  dfixul.o ABSOLUTE
    ../fplib/microlib/fpfix.c                0x00000000   Number         0  ffixui.o ABSOLUTE
    ../fplib/microlib/fpflt.c                0x00000000   Number         0  fflti.o ABSOLUTE
    ../fplib/microlib/fpflt.c                0x00000000   Number         0  ffltui.o ABSOLUTE
    ../fplib/microlib/fpmul.c                0x00000000   Number         0  dmul.o ABSOLUTE
    ../fplib/microlib/fpmul.c                0x00000000   Number         0  fmul.o ABSOLUTE
    ../fplib/microlib/fpscalb.c              0x00000000   Number         0  fscalb.o ABSOLUTE
    ../fplib/microlib/fpscalb.c              0x00000000   Number         0  dscalb.o ABSOLUTE
    ../mathlib/atan.c                        0x00000000   Number         0  atan_x.o ABSOLUTE
    ../mathlib/atan.c                        0x00000000   Number         0  atan.o ABSOLUTE
    ../mathlib/atan2.c                       0x00000000   Number         0  atan2.o ABSOLUTE
    ../mathlib/atan2.c                       0x00000000   Number         0  atan2_x.o ABSOLUTE
    ../mathlib/dunder.c                      0x00000000   Number         0  dunder.o ABSOLUTE
    ../mathlib/fpclassify.c                  0x00000000   Number         0  fpclassify.o ABSOLUTE
    ../mathlib/poly.c                        0x00000000   Number         0  poly.o ABSOLUTE
    ../mathlib/qnan.c                        0x00000000   Number         0  qnan.o ABSOLUTE
    ..\Drivers\STM32F1xx_HAL_Driver\Src\stm32f1xx_hal.c 0x00000000   Number         0  stm32f1xx_hal.o ABSOLUTE
    ..\Drivers\STM32F1xx_HAL_Driver\Src\stm32f1xx_hal_adc.c 0x00000000   Number         0  stm32f1xx_hal_adc.o ABSOLUTE
    ..\Drivers\STM32F1xx_HAL_Driver\Src\stm32f1xx_hal_adc_ex.c 0x00000000   Number         0  stm32f1xx_hal_adc_ex.o ABSOLUTE
    ..\Drivers\STM32F1xx_HAL_Driver\Src\stm32f1xx_hal_can.c 0x00000000   Number         0  stm32f1xx_hal_can.o ABSOLUTE
    ..\Drivers\STM32F1xx_HAL_Driver\Src\stm32f1xx_hal_cortex.c 0x00000000   Number         0  stm32f1xx_hal_cortex.o ABSOLUTE
    ..\Drivers\STM32F1xx_HAL_Driver\Src\stm32f1xx_hal_dac.c 0x00000000   Number         0  stm32f1xx_hal_dac.o ABSOLUTE
    ..\Drivers\STM32F1xx_HAL_Driver\Src\stm32f1xx_hal_dac_ex.c 0x00000000   Number         0  stm32f1xx_hal_dac_ex.o ABSOLUTE
    ..\Drivers\STM32F1xx_HAL_Driver\Src\stm32f1xx_hal_dma.c 0x00000000   Number         0  stm32f1xx_hal_dma.o ABSOLUTE
    ..\Drivers\STM32F1xx_HAL_Driver\Src\stm32f1xx_hal_flash.c 0x00000000   Number         0  stm32f1xx_hal_flash.o ABSOLUTE
    ..\Drivers\STM32F1xx_HAL_Driver\Src\stm32f1xx_hal_flash_ex.c 0x00000000   Number         0  stm32f1xx_hal_flash_ex.o ABSOLUTE
    ..\Drivers\STM32F1xx_HAL_Driver\Src\stm32f1xx_hal_gpio.c 0x00000000   Number         0  stm32f1xx_hal_gpio.o ABSOLUTE
    ..\Drivers\STM32F1xx_HAL_Driver\Src\stm32f1xx_hal_gpio_ex.c 0x00000000   Number         0  stm32f1xx_hal_gpio_ex.o ABSOLUTE
    ..\Drivers\STM32F1xx_HAL_Driver\Src\stm32f1xx_hal_i2c.c 0x00000000   Number         0  stm32f1xx_hal_i2c.o ABSOLUTE
    ..\Drivers\STM32F1xx_HAL_Driver\Src\stm32f1xx_hal_iwdg.c 0x00000000   Number         0  stm32f1xx_hal_iwdg.o ABSOLUTE
    ..\Drivers\STM32F1xx_HAL_Driver\Src\stm32f1xx_hal_pwr.c 0x00000000   Number         0  stm32f1xx_hal_pwr.o ABSOLUTE
    ..\Drivers\STM32F1xx_HAL_Driver\Src\stm32f1xx_hal_rcc.c 0x00000000   Number         0  stm32f1xx_hal_rcc.o ABSOLUTE
    ..\Drivers\STM32F1xx_HAL_Driver\Src\stm32f1xx_hal_rcc_ex.c 0x00000000   Number         0  stm32f1xx_hal_rcc_ex.o ABSOLUTE
    ..\Drivers\STM32F1xx_HAL_Driver\Src\stm32f1xx_hal_spi.c 0x00000000   Number         0  stm32f1xx_hal_spi.o ABSOLUTE
    ..\Drivers\STM32F1xx_HAL_Driver\Src\stm32f1xx_hal_tim.c 0x00000000   Number         0  stm32f1xx_hal_tim.o ABSOLUTE
    ..\Drivers\STM32F1xx_HAL_Driver\Src\stm32f1xx_hal_tim_ex.c 0x00000000   Number         0  stm32f1xx_hal_tim_ex.o ABSOLUTE
    ..\Drivers\STM32F1xx_HAL_Driver\Src\stm32f1xx_hal_uart.c 0x00000000   Number         0  stm32f1xx_hal_uart.o ABSOLUTE
    ..\Drivers\STM32F1xx_HAL_Driver\Src\stm32f1xx_hal_usart.c 0x00000000   Number         0  stm32f1xx_hal_usart.o ABSOLUTE
    ..\Drivers\STM32F1xx_HAL_Driver\Src\stm32f1xx_hal_wwdg.c 0x00000000   Number         0  stm32f1xx_hal_wwdg.o ABSOLUTE
    ..\Src\BatteryInfor.c                    0x00000000   Number         0  batteryinfor.o ABSOLUTE
    ..\Src\Encoder.c                         0x00000000   Number         0  encoder.o ABSOLUTE
    ..\Src\IndicatorDevice.c                 0x00000000   Number         0  indicatordevice.o ABSOLUTE
    ..\Src\KalmanFilter.c                    0x00000000   Number         0  kalmanfilter.o ABSOLUTE
    ..\Src\Kinematics_Mecanum.c              0x00000000   Number         0  kinematics_mecanum.o ABSOLUTE
    ..\Src\Loop.c                            0x00000000   Number         0  loop.o ABSOLUTE
    ..\Src\LowPassFilter.c                   0x00000000   Number         0  lowpassfilter.o ABSOLUTE
    ..\Src\MotorControl.c                    0x00000000   Number         0  motorcontrol.o ABSOLUTE
    ..\Src\OLED_Display.c                    0x00000000   Number         0  oled_display.o ABSOLUTE
    ..\Src\RC.c                              0x00000000   Number         0  rc.o ABSOLUTE
    ..\Src\Servo.c                           0x00000000   Number         0  servo.o ABSOLUTE
    ..\Src\ShareWare.c                       0x00000000   Number         0  shareware.o ABSOLUTE
    ..\Src\VelocityControl.c                 0x00000000   Number         0  velocitycontrol.o ABSOLUTE
    ..\Src\adc1.c                            0x00000000   Number         0  adc1.o ABSOLUTE
    ..\Src\delayus.c                         0x00000000   Number         0  delayus.o ABSOLUTE
    ..\Src\i2c.c                             0x00000000   Number         0  i2c.o ABSOLUTE
    ..\Src\main.c                            0x00000000   Number         0  main.o ABSOLUTE
    ..\Src\mpu6050.c                         0x00000000   Number         0  mpu6050.o ABSOLUTE
    ..\Src\oled.c                            0x00000000   Number         0  oled.o ABSOLUTE
    ..\Src\pid.c                             0x00000000   Number         0  pid.o ABSOLUTE
    ..\Src\stm32f1xx_hal_msp.c               0x00000000   Number         0  stm32f1xx_hal_msp.o ABSOLUTE
    ..\Src\stm32f1xx_it.c                    0x00000000   Number         0  stm32f1xx_it.o ABSOLUTE
    ..\Src\tim1.c                            0x00000000   Number         0  tim1.o ABSOLUTE
    ..\Src\tim2.c                            0x00000000   Number         0  tim2.o ABSOLUTE
    ..\Src\tim3.c                            0x00000000   Number         0  tim3.o ABSOLUTE
    ..\Src\tim4.c                            0x00000000   Number         0  tim4.o ABSOLUTE
    ..\Src\tim5.c                            0x00000000   Number         0  tim5.o ABSOLUTE
    ..\Src\tim8.c                            0x00000000   Number         0  tim8.o ABSOLUTE
    ..\Src\uart.c                            0x00000000   Number         0  uart.o ABSOLUTE
    ..\\Drivers\\STM32F1xx_HAL_Driver\\Src\\stm32f1xx_hal_can.c 0x00000000   Number         0  stm32f1xx_hal_can.o ABSOLUTE
    ..\\Drivers\\STM32F1xx_HAL_Driver\\Src\\stm32f1xx_hal_dac.c 0x00000000   Number         0  stm32f1xx_hal_dac.o ABSOLUTE
    ..\\Drivers\\STM32F1xx_HAL_Driver\\Src\\stm32f1xx_hal_dac_ex.c 0x00000000   Number         0  stm32f1xx_hal_dac_ex.o ABSOLUTE
    ..\\Drivers\\STM32F1xx_HAL_Driver\\Src\\stm32f1xx_hal_i2c.c 0x00000000   Number         0  stm32f1xx_hal_i2c.o ABSOLUTE
    ..\\Drivers\\STM32F1xx_HAL_Driver\\Src\\stm32f1xx_hal_iwdg.c 0x00000000   Number         0  stm32f1xx_hal_iwdg.o ABSOLUTE
    ..\\Drivers\\STM32F1xx_HAL_Driver\\Src\\stm32f1xx_hal_spi.c 0x00000000   Number         0  stm32f1xx_hal_spi.o ABSOLUTE
    ..\\Drivers\\STM32F1xx_HAL_Driver\\Src\\stm32f1xx_hal_usart.c 0x00000000   Number         0  stm32f1xx_hal_usart.o ABSOLUTE
    ..\\Drivers\\STM32F1xx_HAL_Driver\\Src\\stm32f1xx_hal_wwdg.c 0x00000000   Number         0  stm32f1xx_hal_wwdg.o ABSOLUTE
    ..\\Src\\BatteryInfor.c                  0x00000000   Number         0  batteryinfor.o ABSOLUTE
    ..\\Src\\Encoder.c                       0x00000000   Number         0  encoder.o ABSOLUTE
    ..\\Src\\IndicatorDevice.c               0x00000000   Number         0  indicatordevice.o ABSOLUTE
    ..\\Src\\KalmanFilter.c                  0x00000000   Number         0  kalmanfilter.o ABSOLUTE
    ..\\Src\\Kinematics_Mecanum.c            0x00000000   Number         0  kinematics_mecanum.o ABSOLUTE
    ..\\Src\\Loop.c                          0x00000000   Number         0  loop.o ABSOLUTE
    ..\\Src\\LowPassFilter.c                 0x00000000   Number         0  lowpassfilter.o ABSOLUTE
    ..\\Src\\MotorControl.c                  0x00000000   Number         0  motorcontrol.o ABSOLUTE
    ..\\Src\\OLED_Display.c                  0x00000000   Number         0  oled_display.o ABSOLUTE
    ..\\Src\\RC.c                            0x00000000   Number         0  rc.o ABSOLUTE
    ..\\Src\\Servo.c                         0x00000000   Number         0  servo.o ABSOLUTE
    ..\\Src\\ShareWare.c                     0x00000000   Number         0  shareware.o ABSOLUTE
    ..\\Src\\VelocityControl.c               0x00000000   Number         0  velocitycontrol.o ABSOLUTE
    ..\\Src\\adc1.c                          0x00000000   Number         0  adc1.o ABSOLUTE
    ..\\Src\\delayus.c                       0x00000000   Number         0  delayus.o ABSOLUTE
    ..\\Src\\i2c.c                           0x00000000   Number         0  i2c.o ABSOLUTE
    ..\\Src\\mpu6050.c                       0x00000000   Number         0  mpu6050.o ABSOLUTE
    ..\\Src\\oled.c                          0x00000000   Number         0  oled.o ABSOLUTE
    ..\\Src\\pid.c                           0x00000000   Number         0  pid.o ABSOLUTE
    ..\\Src\\tim1.c                          0x00000000   Number         0  tim1.o ABSOLUTE
    ..\\Src\\tim2.c                          0x00000000   Number         0  tim2.o ABSOLUTE
    ..\\Src\\tim3.c                          0x00000000   Number         0  tim3.o ABSOLUTE
    ..\\Src\\tim4.c                          0x00000000   Number         0  tim4.o ABSOLUTE
    ..\\Src\\tim5.c                          0x00000000   Number         0  tim5.o ABSOLUTE
    ..\\Src\\tim8.c                          0x00000000   Number         0  tim8.o ABSOLUTE
    ..\\Src\\uart.c                          0x00000000   Number         0  uart.o ABSOLUTE
    ..\\Src\system_stm32f1xx.c               0x00000000   Number         0  system_stm32f1xx.o ABSOLUTE
    cdrcmple.s                               0x00000000   Number         0  cdrcmple.o ABSOLUTE
    cfcmple.s                                0x00000000   Number         0  cfcmple.o ABSOLUTE
    cfrcmple.s                               0x00000000   Number         0  cfrcmple.o ABSOLUTE
    dc.s                                     0x00000000   Number         0  dc.o ABSOLUTE
    handlers.s                               0x00000000   Number         0  handlers.o ABSOLUTE
    init.s                                   0x00000000   Number         0  init.o ABSOLUTE
    startup_stm32f103xe.s                    0x00000000   Number         0  startup_stm32f103xe.o ABSOLUTE
    RESET                                    0x08000000   Section      304  startup_stm32f103xe.o(RESET)
    .ARM.Collect$$$$00000000                 0x08000130   Section        0  entry.o(.ARM.Collect$$$$00000000)
    .ARM.Collect$$$$00000001                 0x08000130   Section        4  entry2.o(.ARM.Collect$$$$00000001)
    .ARM.Collect$$$$00000004                 0x08000134   Section        4  entry5.o(.ARM.Collect$$$$00000004)
    .ARM.Collect$$$$00000008                 0x08000138   Section        0  entry7b.o(.ARM.Collect$$$$00000008)
    .ARM.Collect$$$$0000000A                 0x08000138   Section        0  entry8b.o(.ARM.Collect$$$$0000000A)
    .ARM.Collect$$$$0000000B                 0x08000138   Section        8  entry9a.o(.ARM.Collect$$$$0000000B)
    .ARM.Collect$$$$0000000D                 0x08000140   Section        0  entry10a.o(.ARM.Collect$$$$0000000D)
    .ARM.Collect$$$$0000000F                 0x08000140   Section        0  entry11a.o(.ARM.Collect$$$$0000000F)
    .ARM.Collect$$$$00002712                 0x08000140   Section        4  entry2.o(.ARM.Collect$$$$00002712)
    __lit__00000000                          0x08000140   Data           4  entry2.o(.ARM.Collect$$$$00002712)
    .text                                    0x08000144   Section       36  startup_stm32f103xe.o(.text)
    .text                                    0x08000168   Section        0  llushr.o(.text)
    .text                                    0x08000188   Section        0  fadd.o(.text)
    .text                                    0x08000238   Section        0  fmul.o(.text)
    .text                                    0x0800029c   Section        0  fdiv.o(.text)
    .text                                    0x08000318   Section        0  fscalb.o(.text)
    .text                                    0x08000330   Section        0  dadd.o(.text)
    .text                                    0x0800047e   Section        0  fflti.o(.text)
    .text                                    0x08000490   Section        0  ffltui.o(.text)
    .text                                    0x0800049a   Section        0  ffixui.o(.text)
    .text                                    0x080004c2   Section        0  f2d.o(.text)
    .text                                    0x080004e8   Section        0  d2f.o(.text)
    .text                                    0x08000520   Section       20  cfcmple.o(.text)
    .text                                    0x08000534   Section       20  cfrcmple.o(.text)
    .text                                    0x08000548   Section        0  uidiv.o(.text)
    .text                                    0x08000574   Section        0  uldiv.o(.text)
    .text                                    0x080005d6   Section        0  llshl.o(.text)
    .text                                    0x080005f4   Section        0  llsshr.o(.text)
    .text                                    0x08000618   Section        0  iusefp.o(.text)
    .text                                    0x08000618   Section        0  fepilogue.o(.text)
    .text                                    0x08000686   Section        0  depilogue.o(.text)
    .text                                    0x08000740   Section        0  dmul.o(.text)
    .text                                    0x08000824   Section        0  ddiv.o(.text)
    .text                                    0x08000902   Section        0  dfixul.o(.text)
    .text                                    0x08000934   Section       48  cdrcmple.o(.text)
    .text                                    0x08000964   Section       36  init.o(.text)
    .text                                    0x08000988   Section        0  dscalb.o(.text)
    .text                                    0x080009b6   Section        0  __dczerorl2.o(.text)
    i.ADC_ConversionStop_Disable             0x08000a0c   Section        0  stm32f1xx_hal_adc.o(i.ADC_ConversionStop_Disable)
    i.ADC_DMAConvCplt                        0x08000a56   Section        0  stm32f1xx_hal_adc.o(i.ADC_DMAConvCplt)
    i.ADC_DMAError                           0x08000aa4   Section        0  stm32f1xx_hal_adc.o(i.ADC_DMAError)
    i.ADC_DMAHalfConvCplt                    0x08000abe   Section        0  stm32f1xx_hal_adc.o(i.ADC_DMAHalfConvCplt)
    i.ADC_Enable                             0x08000ac8   Section        0  stm32f1xx_hal_adc.o(i.ADC_Enable)
    i.BusFault_Handler                       0x08000b38   Section        0  stm32f1xx_it.o(i.BusFault_Handler)
    i.BuzzerControl                          0x08000b3c   Section        0  indicatordevice.o(i.BuzzerControl)
    i.Buzzer_GPIO_Init                       0x08000bb8   Section        0  indicatordevice.o(i.Buzzer_GPIO_Init)
    i.DMA1_Channel4_IRQHandler               0x08000c00   Section        0  stm32f1xx_it.o(i.DMA1_Channel4_IRQHandler)
    i.DMA1_Channel5_IRQHandler               0x08000c0c   Section        0  stm32f1xx_it.o(i.DMA1_Channel5_IRQHandler)
    i.DMA1_Channel6_IRQHandler               0x08000c18   Section        0  stm32f1xx_it.o(i.DMA1_Channel6_IRQHandler)
    i.DMA1_Channel7_IRQHandler               0x08000c24   Section        0  stm32f1xx_it.o(i.DMA1_Channel7_IRQHandler)
    i.DMA2_Channel3_IRQHandler               0x08000c30   Section        0  stm32f1xx_it.o(i.DMA2_Channel3_IRQHandler)
    i.DMA2_Channel4_5_IRQHandler             0x08000c3c   Section        0  stm32f1xx_it.o(i.DMA2_Channel4_5_IRQHandler)
    i.DMA_SetConfig                          0x08000c48   Section        0  stm32f1xx_hal_dma.o(i.DMA_SetConfig)
    DMA_SetConfig                            0x08000c49   Thumb Code    42  stm32f1xx_hal_dma.o(i.DMA_SetConfig)
    i.DebugMon_Handler                       0x08000c72   Section        0  stm32f1xx_it.o(i.DebugMon_Handler)
    i.Encoder_Struct_Init                    0x08000c74   Section        0  encoder.o(i.Encoder_Struct_Init)
    i.Encoder_UpdataValue                    0x08000ca8   Section        0  encoder.o(i.Encoder_UpdataValue)
    i.GetdBatteryCapacity                    0x08000d30   Section        0  batteryinfor.o(i.GetdBatteryCapacity)
    i.HAL_ADC_ConfigChannel                  0x08000fb4   Section        0  stm32f1xx_hal_adc.o(i.HAL_ADC_ConfigChannel)
    i.HAL_ADC_ConvCpltCallback               0x080010b0   Section        0  stm32f1xx_hal_adc.o(i.HAL_ADC_ConvCpltCallback)
    i.HAL_ADC_ConvHalfCpltCallback           0x080010b2   Section        0  stm32f1xx_hal_adc.o(i.HAL_ADC_ConvHalfCpltCallback)
    i.HAL_ADC_ErrorCallback                  0x080010b4   Section        0  stm32f1xx_hal_adc.o(i.HAL_ADC_ErrorCallback)
    i.HAL_ADC_Init                           0x080010b8   Section        0  stm32f1xx_hal_adc.o(i.HAL_ADC_Init)
    i.HAL_ADC_MspInit                        0x080011d8   Section        0  stm32f1xx_hal_msp.o(i.HAL_ADC_MspInit)
    i.HAL_ADC_Start                          0x0800126c   Section        0  stm32f1xx_hal_adc.o(i.HAL_ADC_Start)
    i.HAL_ADC_Start_DMA                      0x0800132c   Section        0  stm32f1xx_hal_adc.o(i.HAL_ADC_Start_DMA)
    i.HAL_DMA_Abort                          0x08001438   Section        0  stm32f1xx_hal_dma.o(i.HAL_DMA_Abort)
    i.HAL_DMA_Abort_IT                       0x08001468   Section        0  stm32f1xx_hal_dma.o(i.HAL_DMA_Abort_IT)
    i.HAL_DMA_IRQHandler                     0x08001598   Section        0  stm32f1xx_hal_dma.o(i.HAL_DMA_IRQHandler)
    i.HAL_DMA_Init                           0x080017e0   Section        0  stm32f1xx_hal_dma.o(i.HAL_DMA_Init)
    i.HAL_DMA_Start_IT                       0x08001864   Section        0  stm32f1xx_hal_dma.o(i.HAL_DMA_Start_IT)
    i.HAL_Delay                              0x080018d4   Section        0  stm32f1xx_hal.o(i.HAL_Delay)
    i.HAL_GPIO_Init                          0x080018f8   Section        0  stm32f1xx_hal_gpio.o(i.HAL_GPIO_Init)
    i.HAL_GPIO_TogglePin                     0x08001ae4   Section        0  stm32f1xx_hal_gpio.o(i.HAL_GPIO_TogglePin)
    i.HAL_GPIO_WritePin                      0x08001aec   Section        0  stm32f1xx_hal_gpio.o(i.HAL_GPIO_WritePin)
    i.HAL_GetTick                            0x08001af8   Section        0  stm32f1xx_hal.o(i.HAL_GetTick)
    i.HAL_I2C_AbortCpltCallback              0x08001b04   Section        0  stm32f1xx_hal_i2c.o(i.HAL_I2C_AbortCpltCallback)
    i.HAL_I2C_AddrCallback                   0x08001b06   Section        0  stm32f1xx_hal_i2c.o(i.HAL_I2C_AddrCallback)
    i.HAL_I2C_ER_IRQHandler                  0x08001b08   Section        0  stm32f1xx_hal_i2c.o(i.HAL_I2C_ER_IRQHandler)
    i.HAL_I2C_EV_IRQHandler                  0x08001bd8   Section        0  stm32f1xx_hal_i2c.o(i.HAL_I2C_EV_IRQHandler)
    i.HAL_I2C_ErrorCallback                  0x08001dc8   Section        0  i2c.o(i.HAL_I2C_ErrorCallback)
    i.HAL_I2C_Init                           0x08001dcc   Section        0  stm32f1xx_hal_i2c.o(i.HAL_I2C_Init)
    i.HAL_I2C_ListenCpltCallback             0x08001f0c   Section        0  stm32f1xx_hal_i2c.o(i.HAL_I2C_ListenCpltCallback)
    i.HAL_I2C_MasterRxCpltCallback           0x08001f0e   Section        0  stm32f1xx_hal_i2c.o(i.HAL_I2C_MasterRxCpltCallback)
    i.HAL_I2C_MasterTxCpltCallback           0x08001f10   Section        0  stm32f1xx_hal_i2c.o(i.HAL_I2C_MasterTxCpltCallback)
    i.HAL_I2C_MemRxCpltCallback              0x08001f14   Section        0  i2c.o(i.HAL_I2C_MemRxCpltCallback)
    i.HAL_I2C_MemTxCpltCallback              0x08001f78   Section        0  i2c.o(i.HAL_I2C_MemTxCpltCallback)
    i.HAL_I2C_Mem_Read_IT                    0x08001fa0   Section        0  stm32f1xx_hal_i2c.o(i.HAL_I2C_Mem_Read_IT)
    i.HAL_I2C_Mem_Write_DMA                  0x08002078   Section        0  stm32f1xx_hal_i2c.o(i.HAL_I2C_Mem_Write_DMA)
    i.HAL_I2C_Mem_Write_IT                   0x08002194   Section        0  stm32f1xx_hal_i2c.o(i.HAL_I2C_Mem_Write_IT)
    i.HAL_I2C_MspInit                        0x08002260   Section        0  stm32f1xx_hal_msp.o(i.HAL_I2C_MspInit)
    i.HAL_I2C_SlaveRxCpltCallback            0x080023d8   Section        0  stm32f1xx_hal_i2c.o(i.HAL_I2C_SlaveRxCpltCallback)
    i.HAL_I2C_SlaveTxCpltCallback            0x080023da   Section        0  stm32f1xx_hal_i2c.o(i.HAL_I2C_SlaveTxCpltCallback)
    i.HAL_IncTick                            0x080023dc   Section        0  stm32f1xx_hal.o(i.HAL_IncTick)
    i.HAL_Init                               0x080023ec   Section        0  stm32f1xx_hal.o(i.HAL_Init)
    i.HAL_InitTick                           0x08002410   Section        0  stm32f1xx_hal.o(i.HAL_InitTick)
    i.HAL_MspInit                            0x08002450   Section        0  stm32f1xx_hal_msp.o(i.HAL_MspInit)
    i.HAL_NVIC_EnableIRQ                     0x080024d0   Section        0  stm32f1xx_hal_cortex.o(i.HAL_NVIC_EnableIRQ)
    i.HAL_NVIC_SetPriority                   0x080024e8   Section        0  stm32f1xx_hal_cortex.o(i.HAL_NVIC_SetPriority)
    i.HAL_NVIC_SetPriorityGrouping           0x08002528   Section        0  stm32f1xx_hal_cortex.o(i.HAL_NVIC_SetPriorityGrouping)
    i.HAL_RCCEx_PeriphCLKConfig              0x0800254c   Section        0  stm32f1xx_hal_rcc_ex.o(i.HAL_RCCEx_PeriphCLKConfig)
    i.HAL_RCC_ClockConfig                    0x08002634   Section        0  stm32f1xx_hal_rcc.o(i.HAL_RCC_ClockConfig)
    i.HAL_RCC_GetHCLKFreq                    0x08002780   Section        0  stm32f1xx_hal_rcc.o(i.HAL_RCC_GetHCLKFreq)
    i.HAL_RCC_GetPCLK1Freq                   0x0800278c   Section        0  stm32f1xx_hal_rcc.o(i.HAL_RCC_GetPCLK1Freq)
    i.HAL_RCC_GetPCLK2Freq                   0x080027ac   Section        0  stm32f1xx_hal_rcc.o(i.HAL_RCC_GetPCLK2Freq)
    i.HAL_RCC_GetSysClockFreq                0x080027cc   Section        0  stm32f1xx_hal_rcc.o(i.HAL_RCC_GetSysClockFreq)
    i.HAL_RCC_OscConfig                      0x08002838   Section        0  stm32f1xx_hal_rcc.o(i.HAL_RCC_OscConfig)
    i.HAL_SYSTICK_CLKSourceConfig            0x08002b30   Section        0  stm32f1xx_hal_cortex.o(i.HAL_SYSTICK_CLKSourceConfig)
    i.HAL_SYSTICK_Callback                   0x08002b48   Section        0  loop.o(i.HAL_SYSTICK_Callback)
    i.HAL_SYSTICK_Config                     0x08002b9c   Section        0  stm32f1xx_hal_cortex.o(i.HAL_SYSTICK_Config)
    i.HAL_SYSTICK_IRQHandler                 0x08002bc4   Section        0  stm32f1xx_hal_cortex.o(i.HAL_SYSTICK_IRQHandler)
    i.HAL_TIMEx_BreakCallback                0x08002bcc   Section        0  stm32f1xx_hal_tim_ex.o(i.HAL_TIMEx_BreakCallback)
    i.HAL_TIMEx_CommutationCallback          0x08002bce   Section        0  stm32f1xx_hal_tim_ex.o(i.HAL_TIMEx_CommutationCallback)
    i.HAL_TIMEx_ConfigBreakDeadTime          0x08002bd0   Section        0  stm32f1xx_hal_tim_ex.o(i.HAL_TIMEx_ConfigBreakDeadTime)
    i.HAL_TIMEx_MasterConfigSynchronization  0x08002c2a   Section        0  stm32f1xx_hal_tim_ex.o(i.HAL_TIMEx_MasterConfigSynchronization)
    i.HAL_TIM_Encoder_Init                   0x08002c7a   Section        0  stm32f1xx_hal_tim.o(i.HAL_TIM_Encoder_Init)
    i.HAL_TIM_Encoder_MspInit                0x08002d10   Section        0  stm32f1xx_hal_msp.o(i.HAL_TIM_Encoder_MspInit)
    i.HAL_TIM_Encoder_Start                  0x08002ea4   Section        0  stm32f1xx_hal_tim.o(i.HAL_TIM_Encoder_Start)
    i.HAL_TIM_IC_CaptureCallback             0x08002ed6   Section        0  stm32f1xx_hal_tim.o(i.HAL_TIM_IC_CaptureCallback)
    i.HAL_TIM_IRQHandler                     0x08002ed8   Section        0  stm32f1xx_hal_tim.o(i.HAL_TIM_IRQHandler)
    i.HAL_TIM_OC_DelayElapsedCallback        0x0800303e   Section        0  stm32f1xx_hal_tim.o(i.HAL_TIM_OC_DelayElapsedCallback)
    i.HAL_TIM_PWM_ConfigChannel              0x08003040   Section        0  stm32f1xx_hal_tim.o(i.HAL_TIM_PWM_ConfigChannel)
    i.HAL_TIM_PWM_Init                       0x08003110   Section        0  stm32f1xx_hal_tim.o(i.HAL_TIM_PWM_Init)
    i.HAL_TIM_PWM_MspInit                    0x08003148   Section        0  stm32f1xx_hal_msp.o(i.HAL_TIM_PWM_MspInit)
    i.HAL_TIM_PWM_PulseFinishedCallback      0x080031d8   Section        0  stm32f1xx_hal_tim.o(i.HAL_TIM_PWM_PulseFinishedCallback)
    i.HAL_TIM_PWM_Start                      0x080031dc   Section        0  stm32f1xx_hal_tim.o(i.HAL_TIM_PWM_Start)
    i.HAL_TIM_PeriodElapsedCallback          0x08003214   Section        0  encoder.o(i.HAL_TIM_PeriodElapsedCallback)
    i.HAL_TIM_TriggerCallback                0x080032a4   Section        0  stm32f1xx_hal_tim.o(i.HAL_TIM_TriggerCallback)
    i.HAL_UART_DMAStop                       0x080032a6   Section        0  stm32f1xx_hal_uart.o(i.HAL_UART_DMAStop)
    i.HAL_UART_ErrorCallback                 0x080032fe   Section        0  uart.o(i.HAL_UART_ErrorCallback)
    i.HAL_UART_IRQHandler                    0x0800334c   Section        0  stm32f1xx_hal_uart.o(i.HAL_UART_IRQHandler)
    i.HAL_UART_Init                          0x0800345c   Section        0  stm32f1xx_hal_uart.o(i.HAL_UART_Init)
    i.HAL_UART_MspInit                       0x080034c0   Section        0  stm32f1xx_hal_msp.o(i.HAL_UART_MspInit)
    i.HAL_UART_Receive_DMA                   0x080036ac   Section        0  stm32f1xx_hal_uart.o(i.HAL_UART_Receive_DMA)
    i.HAL_UART_RxCpltCallback                0x08003744   Section        0  uart.o(i.HAL_UART_RxCpltCallback)
    i.HAL_UART_RxHalfCpltCallback            0x08003746   Section        0  stm32f1xx_hal_uart.o(i.HAL_UART_RxHalfCpltCallback)
    i.HAL_UART_TxCpltCallback                0x08003748   Section        0  uart.o(i.HAL_UART_TxCpltCallback)
    i.HardFault_Handler                      0x0800374a   Section        0  stm32f1xx_it.o(i.HardFault_Handler)
    i.I2C1_ER_IRQHandler                     0x0800374c   Section        0  stm32f1xx_it.o(i.I2C1_ER_IRQHandler)
    i.I2C1_EV_IRQHandler                     0x08003758   Section        0  stm32f1xx_it.o(i.I2C1_EV_IRQHandler)
    i.I2C2_ER_IRQHandler                     0x08003764   Section        0  stm32f1xx_it.o(i.I2C2_ER_IRQHandler)
    i.I2C2_EV_IRQHandler                     0x08003770   Section        0  stm32f1xx_it.o(i.I2C2_EV_IRQHandler)
    i.I2C_DMAAbort                           0x0800377c   Section        0  stm32f1xx_hal_i2c.o(i.I2C_DMAAbort)
    I2C_DMAAbort                             0x0800377d   Thumb Code    78  stm32f1xx_hal_i2c.o(i.I2C_DMAAbort)
    i.I2C_DMAError                           0x080037ca   Section        0  stm32f1xx_hal_i2c.o(i.I2C_DMAError)
    I2C_DMAError                             0x080037cb   Thumb Code    42  stm32f1xx_hal_i2c.o(i.I2C_DMAError)
    i.I2C_DMAXferCplt                        0x080037f4   Section        0  stm32f1xx_hal_i2c.o(i.I2C_DMAXferCplt)
    I2C_DMAXferCplt                          0x080037f5   Thumb Code   134  stm32f1xx_hal_i2c.o(i.I2C_DMAXferCplt)
    i.I2C_ITError                            0x0800387c   Section        0  stm32f1xx_hal_i2c.o(i.I2C_ITError)
    I2C_ITError                              0x0800387d   Thumb Code   284  stm32f1xx_hal_i2c.o(i.I2C_ITError)
    i.I2C_IsAcknowledgeFailed                0x080039a0   Section        0  stm32f1xx_hal_i2c.o(i.I2C_IsAcknowledgeFailed)
    I2C_IsAcknowledgeFailed                  0x080039a1   Thumb Code    40  stm32f1xx_hal_i2c.o(i.I2C_IsAcknowledgeFailed)
    i.I2C_MasterReceive_BTF                  0x080039c8   Section        0  stm32f1xx_hal_i2c.o(i.I2C_MasterReceive_BTF)
    I2C_MasterReceive_BTF                    0x080039c9   Thumb Code   194  stm32f1xx_hal_i2c.o(i.I2C_MasterReceive_BTF)
    i.I2C_MasterReceive_RXNE                 0x08003a90   Section        0  stm32f1xx_hal_i2c.o(i.I2C_MasterReceive_RXNE)
    I2C_MasterReceive_RXNE                   0x08003a91   Thumb Code   174  stm32f1xx_hal_i2c.o(i.I2C_MasterReceive_RXNE)
    i.I2C_MasterTransmit_BTF                 0x08003b3e   Section        0  stm32f1xx_hal_i2c.o(i.I2C_MasterTransmit_BTF)
    I2C_MasterTransmit_BTF                   0x08003b3f   Thumb Code   128  stm32f1xx_hal_i2c.o(i.I2C_MasterTransmit_BTF)
    i.I2C_MasterTransmit_TXE                 0x08003bbe   Section        0  stm32f1xx_hal_i2c.o(i.I2C_MasterTransmit_TXE)
    I2C_MasterTransmit_TXE                   0x08003bbf   Thumb Code   262  stm32f1xx_hal_i2c.o(i.I2C_MasterTransmit_TXE)
    i.I2C_Master_ADDR                        0x08003cc4   Section        0  stm32f1xx_hal_i2c.o(i.I2C_Master_ADDR)
    I2C_Master_ADDR                          0x08003cc5   Thumb Code   282  stm32f1xx_hal_i2c.o(i.I2C_Master_ADDR)
    i.I2C_Master_SB                          0x08003dde   Section        0  stm32f1xx_hal_i2c.o(i.I2C_Master_SB)
    I2C_Master_SB                            0x08003ddf   Thumb Code    90  stm32f1xx_hal_i2c.o(i.I2C_Master_SB)
    i.I2C_RequestMemoryWrite                 0x08003e38   Section        0  stm32f1xx_hal_i2c.o(i.I2C_RequestMemoryWrite)
    I2C_RequestMemoryWrite                   0x08003e39   Thumb Code   156  stm32f1xx_hal_i2c.o(i.I2C_RequestMemoryWrite)
    i.I2C_Slave_AF                           0x08003ed8   Section        0  stm32f1xx_hal_i2c.o(i.I2C_Slave_AF)
    I2C_Slave_AF                             0x08003ed9   Thumb Code   128  stm32f1xx_hal_i2c.o(i.I2C_Slave_AF)
    i.I2C_Slave_STOPF                        0x08003f5c   Section        0  stm32f1xx_hal_i2c.o(i.I2C_Slave_STOPF)
    I2C_Slave_STOPF                          0x08003f5d   Thumb Code   214  stm32f1xx_hal_i2c.o(i.I2C_Slave_STOPF)
    i.I2C_WaitOnFlagUntilTimeout             0x08004038   Section        0  stm32f1xx_hal_i2c.o(i.I2C_WaitOnFlagUntilTimeout)
    I2C_WaitOnFlagUntilTimeout               0x08004039   Thumb Code    96  stm32f1xx_hal_i2c.o(i.I2C_WaitOnFlagUntilTimeout)
    i.I2C_WaitOnMasterAddressFlagUntilTimeout 0x08004098   Section        0  stm32f1xx_hal_i2c.o(i.I2C_WaitOnMasterAddressFlagUntilTimeout)
    I2C_WaitOnMasterAddressFlagUntilTimeout  0x08004099   Thumb Code   134  stm32f1xx_hal_i2c.o(i.I2C_WaitOnMasterAddressFlagUntilTimeout)
    i.I2C_WaitOnTXEFlagUntilTimeout          0x0800411e   Section        0  stm32f1xx_hal_i2c.o(i.I2C_WaitOnTXEFlagUntilTimeout)
    I2C_WaitOnTXEFlagUntilTimeout            0x0800411f   Thumb Code    78  stm32f1xx_hal_i2c.o(i.I2C_WaitOnTXEFlagUntilTimeout)
    i.IncPID_Init                            0x0800416c   Section        0  pid.o(i.IncPID_Init)
    i.Incremental_PID                        0x0800417c   Section        0  pid.o(i.Incremental_PID)
    i.IndicatorDeviceControl                 0x080041d4   Section        0  indicatordevice.o(i.IndicatorDeviceControl)
    i.KalmanFilter_Calculation               0x0800427c   Section        0  kalmanfilter.o(i.KalmanFilter_Calculation)
    i.KalmanFilter_Init                      0x080043b8   Section        0  kalmanfilter.o(i.KalmanFilter_Init)
    i.Kinematics_Mecanum_CalculateRPM        0x080043ec   Section        0  kinematics_mecanum.o(i.Kinematics_Mecanum_CalculateRPM)
    i.Kinematics_Mecanum_GetVelocities       0x08004480   Section        0  kinematics_mecanum.o(i.Kinematics_Mecanum_GetVelocities)
    i.LED_Green_Control                      0x0800451c   Section        0  indicatordevice.o(i.LED_Green_Control)
    i.LED_Green_GPIO_Init                    0x08004598   Section        0  indicatordevice.o(i.LED_Green_GPIO_Init)
    i.LED_Red_Control                        0x080045dc   Section        0  indicatordevice.o(i.LED_Red_Control)
    i.LED_Red_GPIO_Init                      0x08004658   Section        0  indicatordevice.o(i.LED_Red_GPIO_Init)
    i.LPF_Struct_Init                        0x0800469c   Section        0  lowpassfilter.o(i.LPF_Struct_Init)
    i.LowPassFilter                          0x080046a6   Section        0  lowpassfilter.o(i.LowPassFilter)
    i.MPU6050_Init                           0x080046d0   Section        0  mpu6050.o(i.MPU6050_Init)
    i.MPU6050_Update                         0x08004788   Section        0  mpu6050.o(i.MPU6050_Update)
    i.MPU6050_UpdateAccel                    0x08004814   Section        0  mpu6050.o(i.MPU6050_UpdateAccel)
    i.MPU6050_UpdateGyro                     0x08004850   Section        0  mpu6050.o(i.MPU6050_UpdateGyro)
    i.MPU6050_UpdatePitch                    0x080048a4   Section        0  mpu6050.o(i.MPU6050_UpdatePitch)
    i.MPU6050_UpdateRoll                     0x080048dc   Section        0  mpu6050.o(i.MPU6050_UpdateRoll)
    i.MPU6050_UpdateYaw                      0x08004914   Section        0  mpu6050.o(i.MPU6050_UpdateYaw)
    i.MX_ADC1_Init                           0x080049a8   Section        0  adc1.o(i.MX_ADC1_Init)
    i.MX_I2C1_Init                           0x08004a0c   Section        0  i2c.o(i.MX_I2C1_Init)
    i.MX_I2C2_Init                           0x08004a54   Section        0  i2c.o(i.MX_I2C2_Init)
    i.MX_TIM1_Init                           0x08004a84   Section        0  tim1.o(i.MX_TIM1_Init)
    i.MX_TIM2_Init                           0x08004b34   Section        0  tim2.o(i.MX_TIM2_Init)
    i.MX_TIM3_Init                           0x08004ba8   Section        0  tim3.o(i.MX_TIM3_Init)
    i.MX_TIM4_Init                           0x08004c08   Section        0  tim4.o(i.MX_TIM4_Init)
    i.MX_TIM5_Init                           0x08004c68   Section        0  tim5.o(i.MX_TIM5_Init)
    i.MX_TIM8_Init                           0x08004cc8   Section        0  tim8.o(i.MX_TIM8_Init)
    i.MX_UART4_Init                          0x08004d78   Section        0  uart.o(i.MX_UART4_Init)
    i.MX_USART2_Init                         0x08004dc8   Section        0  uart.o(i.MX_USART2_Init)
    i.MemManage_Handler                      0x08004e0c   Section        0  stm32f1xx_it.o(i.MemManage_Handler)
    i.Motor1_Forward                         0x08004e10   Section        0  motorcontrol.o(i.Motor1_Forward)
    i.Motor1_GPIO_Init                       0x08004e20   Section        0  motorcontrol.o(i.Motor1_GPIO_Init)
    i.Motor1_Reverse                         0x08004e64   Section        0  motorcontrol.o(i.Motor1_Reverse)
    i.Motor2_Forward                         0x08004e74   Section        0  motorcontrol.o(i.Motor2_Forward)
    i.Motor2_GPIO_Init                       0x08004e84   Section        0  motorcontrol.o(i.Motor2_GPIO_Init)
    i.Motor2_Reverse                         0x08004ec8   Section        0  motorcontrol.o(i.Motor2_Reverse)
    i.Motor3_Forward                         0x08004ed8   Section        0  motorcontrol.o(i.Motor3_Forward)
    i.Motor3_GPIO_Init                       0x08004ee8   Section        0  motorcontrol.o(i.Motor3_GPIO_Init)
    i.Motor3_Reverse                         0x08004f2c   Section        0  motorcontrol.o(i.Motor3_Reverse)
    i.Motor4_Forward                         0x08004f3c   Section        0  motorcontrol.o(i.Motor4_Forward)
    i.Motor4_GPIO_Init                       0x08004f4c   Section        0  motorcontrol.o(i.Motor4_GPIO_Init)
    i.Motor4_Reverse                         0x08004f90   Section        0  motorcontrol.o(i.Motor4_Reverse)
    i.NMI_Handler                            0x08004fa0   Section        0  stm32f1xx_it.o(i.NMI_Handler)
    i.NVIC_SetPriority                       0x08004fa2   Section        0  stm32f1xx_hal_cortex.o(i.NVIC_SetPriority)
    NVIC_SetPriority                         0x08004fa3   Thumb Code    32  stm32f1xx_hal_cortex.o(i.NVIC_SetPriority)
    i.OLED_Clear                             0x08004fc4   Section        0  oled.o(i.OLED_Clear)
    i.OLED_Display                           0x08004fec   Section        0  oled_display.o(i.OLED_Display)
    i.OLED_Display_Init                      0x08005100   Section        0  oled_display.o(i.OLED_Display_Init)
    i.OLED_Init                              0x08005124   Section        0  oled.o(i.OLED_Init)
    i.OLED_Refreash                          0x08005134   Section        0  oled.o(i.OLED_Refreash)
    i.OLED_ShowBattery                       0x08005158   Section        0  oled_display.o(i.OLED_ShowBattery)
    i.OLED_ShowChar                          0x0800521c   Section        0  oled.o(i.OLED_ShowChar)
    i.OLED_ShowIconfont                      0x080052b4   Section        0  oled_display.o(i.OLED_ShowIconfont)
    i.OLED_ShowString                        0x08005300   Section        0  oled.o(i.OLED_ShowString)
    i.OLED_Show_Num                          0x0800534e   Section        0  oled.o(i.OLED_Show_Num)
    i.PendSV_Handler                         0x080053f6   Section        0  stm32f1xx_it.o(i.PendSV_Handler)
    i.RC_Update                              0x080053f8   Section        0  rc.o(i.RC_Update)
    i.RC_UpdateStruct                        0x080054d0   Section        0  rc.o(i.RC_UpdateStruct)
    i.SVC_Handler                            0x08005670   Section        0  stm32f1xx_it.o(i.SVC_Handler)
    i.Servo_PositionControl                  0x08005674   Section        0  servo.o(i.Servo_PositionControl)
    i.Servo_ServoControl                     0x08005724   Section        0  servo.o(i.Servo_ServoControl)
    i.SysTick_Handler                        0x0800577c   Section        0  stm32f1xx_it.o(i.SysTick_Handler)
    i.SystemClock_Config                     0x0800578a   Section        0  main.o(i.SystemClock_Config)
    i.SystemInit                             0x08005804   Section        0  system_stm32f1xx.o(i.SystemInit)
    i.TIM2_IRQHandler                        0x0800584c   Section        0  stm32f1xx_it.o(i.TIM2_IRQHandler)
    i.TIM3_IRQHandler                        0x08005858   Section        0  stm32f1xx_it.o(i.TIM3_IRQHandler)
    i.TIM4_IRQHandler                        0x08005864   Section        0  stm32f1xx_it.o(i.TIM4_IRQHandler)
    i.TIM5_IRQHandler                        0x08005870   Section        0  stm32f1xx_it.o(i.TIM5_IRQHandler)
    i.TIM_Base_SetConfig                     0x0800587c   Section        0  stm32f1xx_hal_tim.o(i.TIM_Base_SetConfig)
    i.TIM_CCxChannelCmd                      0x08005908   Section        0  stm32f1xx_hal_tim.o(i.TIM_CCxChannelCmd)
    i.TIM_OC1_SetConfig                      0x08005920   Section        0  stm32f1xx_hal_tim.o(i.TIM_OC1_SetConfig)
    TIM_OC1_SetConfig                        0x08005921   Thumb Code    88  stm32f1xx_hal_tim.o(i.TIM_OC1_SetConfig)
    i.TIM_OC2_SetConfig                      0x08005980   Section        0  stm32f1xx_hal_tim.o(i.TIM_OC2_SetConfig)
    i.TIM_OC3_SetConfig                      0x080059ec   Section        0  stm32f1xx_hal_tim.o(i.TIM_OC3_SetConfig)
    TIM_OC3_SetConfig                        0x080059ed   Thumb Code    96  stm32f1xx_hal_tim.o(i.TIM_OC3_SetConfig)
    i.TIM_OC4_SetConfig                      0x08005a54   Section        0  stm32f1xx_hal_tim.o(i.TIM_OC4_SetConfig)
    TIM_OC4_SetConfig                        0x08005a55   Thumb Code    70  stm32f1xx_hal_tim.o(i.TIM_OC4_SetConfig)
    i.UART4_IRQHandler                       0x08005aa4   Section        0  stm32f1xx_it.o(i.UART4_IRQHandler)
    i.UART_DMAAbortOnError                   0x08005ac4   Section        0  stm32f1xx_hal_uart.o(i.UART_DMAAbortOnError)
    UART_DMAAbortOnError                     0x08005ac5   Thumb Code    16  stm32f1xx_hal_uart.o(i.UART_DMAAbortOnError)
    i.UART_DMAError                          0x08005ad4   Section        0  stm32f1xx_hal_uart.o(i.UART_DMAError)
    UART_DMAError                            0x08005ad5   Thumb Code    74  stm32f1xx_hal_uart.o(i.UART_DMAError)
    i.UART_DMAReceiveCplt                    0x08005b1e   Section        0  stm32f1xx_hal_uart.o(i.UART_DMAReceiveCplt)
    UART_DMAReceiveCplt                      0x08005b1f   Thumb Code    60  stm32f1xx_hal_uart.o(i.UART_DMAReceiveCplt)
    i.UART_DMARxHalfCplt                     0x08005b5a   Section        0  stm32f1xx_hal_uart.o(i.UART_DMARxHalfCplt)
    UART_DMARxHalfCplt                       0x08005b5b   Thumb Code    10  stm32f1xx_hal_uart.o(i.UART_DMARxHalfCplt)
    i.UART_EndRxTransfer                     0x08005b64   Section        0  stm32f1xx_hal_uart.o(i.UART_EndRxTransfer)
    UART_EndRxTransfer                       0x08005b65   Thumb Code    28  stm32f1xx_hal_uart.o(i.UART_EndRxTransfer)
    i.UART_EndTxTransfer                     0x08005b80   Section        0  stm32f1xx_hal_uart.o(i.UART_EndTxTransfer)
    UART_EndTxTransfer                       0x08005b81   Thumb Code    18  stm32f1xx_hal_uart.o(i.UART_EndTxTransfer)
    i.UART_Receive_IT                        0x08005b92   Section        0  stm32f1xx_hal_uart.o(i.UART_Receive_IT)
    UART_Receive_IT                          0x08005b93   Thumb Code   150  stm32f1xx_hal_uart.o(i.UART_Receive_IT)
    i.UART_SetConfig                         0x08005c28   Section        0  stm32f1xx_hal_uart.o(i.UART_SetConfig)
    UART_SetConfig                           0x08005c29   Thumb Code   364  stm32f1xx_hal_uart.o(i.UART_SetConfig)
    i.UART_Transmit_IT                       0x08005d98   Section        0  stm32f1xx_hal_uart.o(i.UART_Transmit_IT)
    UART_Transmit_IT                         0x08005d99   Thumb Code    98  stm32f1xx_hal_uart.o(i.UART_Transmit_IT)
    i.USART2_IRQHandler                      0x08005dfc   Section        0  stm32f1xx_it.o(i.USART2_IRQHandler)
    i.UpdateBatteryInfor                     0x08005e1c   Section        0  batteryinfor.o(i.UpdateBatteryInfor)
    i.UsageFault_Handler                     0x08005e70   Section        0  stm32f1xx_it.o(i.UsageFault_Handler)
    i.UsartReceive_IDLE                      0x08005e74   Section        0  uart.o(i.UsartReceive_IDLE)
    i.VelocityControl_4WD                    0x08005ef0   Section        0  velocitycontrol.o(i.VelocityControl_4WD)
    i.WriteCmd                               0x08006244   Section        0  oled.o(i.WriteCmd)
    i.__0sprintf                             0x08006264   Section        0  printfa.o(i.__0sprintf)
    i.__ARM_fpclassify                       0x0800628c   Section        0  fpclassify.o(i.__ARM_fpclassify)
    i.__kernel_poly                          0x080062b4   Section        0  poly.o(i.__kernel_poly)
    i.__mathlib_dbl_infnan                   0x0800635e   Section        0  dunder.o(i.__mathlib_dbl_infnan)
    i.__mathlib_dbl_infnan2                  0x08006364   Section        0  dunder.o(i.__mathlib_dbl_infnan2)
    i.__mathlib_dbl_underflow                0x08006368   Section        0  dunder.o(i.__mathlib_dbl_underflow)
    i.__scatterload_copy                     0x08006378   Section       14  handlers.o(i.__scatterload_copy)
    i.__scatterload_null                     0x08006386   Section        2  handlers.o(i.__scatterload_null)
    i.__scatterload_zeroinit                 0x08006388   Section       14  handlers.o(i.__scatterload_zeroinit)
    i._fp_digits                             0x08006398   Section        0  printfa.o(i._fp_digits)
    _fp_digits                               0x08006399   Thumb Code   366  printfa.o(i._fp_digits)
    i._printf_core                           0x0800651c   Section        0  printfa.o(i._printf_core)
    _printf_core                             0x0800651d   Thumb Code  1744  printfa.o(i._printf_core)
    i._printf_post_padding                   0x08006bf8   Section        0  printfa.o(i._printf_post_padding)
    _printf_post_padding                     0x08006bf9   Thumb Code    36  printfa.o(i._printf_post_padding)
    i._printf_pre_padding                    0x08006c1c   Section        0  printfa.o(i._printf_pre_padding)
    _printf_pre_padding                      0x08006c1d   Thumb Code    46  printfa.o(i._printf_pre_padding)
    i._sputc                                 0x08006c4a   Section        0  printfa.o(i._sputc)
    _sputc                                   0x08006c4b   Thumb Code    10  printfa.o(i._sputc)
    i.atan                                   0x08006c54   Section        0  atan.o(i.atan)
    i.atan2                                  0x08006e74   Section        0  atan2.o(i.atan2)
    i.main                                   0x08006ff4   Section        0  main.o(i.main)
    .constdata                               0x080072e4   Section     2072  oled.o(.constdata)
    .constdata                               0x08007afc   Section      608  oled_display.o(.constdata)
    icon_32x16                               0x08007afc   Data         320  oled_display.o(.constdata)
    Iconfont0                                0x08007c3c   Data         288  oled_display.o(.constdata)
    .constdata                               0x08007d5c   Section       16  system_stm32f1xx.o(.constdata)
    .constdata                               0x08007d6c   Section        8  system_stm32f1xx.o(.constdata)
    .constdata                               0x08007d78   Section      152  atan.o(.constdata)
    atanhi                                   0x08007d78   Data          32  atan.o(.constdata)
    atanlo                                   0x08007d98   Data          32  atan.o(.constdata)
    aTodd                                    0x08007db8   Data          40  atan.o(.constdata)
    aTeven                                   0x08007de0   Data          48  atan.o(.constdata)
    .constdata                               0x08007e10   Section        8  qnan.o(.constdata)
    .data                                    0x20000000   Section        2  shareware.o(.data)
    .data                                    0x20000002   Section        2  shareware.o(.data)
    .data                                    0x20000004   Section        2  shareware.o(.data)
    .data                                    0x20000006   Section        2  shareware.o(.data)
    .data                                    0x20000008   Section        2  shareware.o(.data)
    .data                                    0x2000000c   Section        8  adc1.o(.data)
    .data                                    0x20000014   Section        3  i2c.o(.data)
    .data                                    0x20000018   Section       34  indicatordevice.o(.data)
    LastTimes                                0x20000028   Data           2  indicatordevice.o(.data)
    LastPeriodTime                           0x2000002a   Data           2  indicatordevice.o(.data)
    LastTimes                                0x2000002c   Data           2  indicatordevice.o(.data)
    LastPeriodTime                           0x2000002e   Data           2  indicatordevice.o(.data)
    LastTimes                                0x20000030   Data           2  indicatordevice.o(.data)
    LastPeriodTime                           0x20000032   Data           2  indicatordevice.o(.data)
    .data                                    0x2000003a   Section       10  encoder.o(.data)
    .data                                    0x20000044   Section        4  batteryinfor.o(.data)
    VREFINT                                  0x20000044   Data           4  batteryinfor.o(.data)
    .data                                    0x20000048   Section        8  mpu6050.o(.data)
    i                                        0x20000048   Data           2  mpu6050.o(.data)
    c                                        0x2000004a   Data           2  mpu6050.o(.data)
    Gyro_Z_Last                              0x2000004c   Data           4  mpu6050.o(.data)
    .data                                    0x20000050   Section      413  oled.o(.data)
    .data                                    0x200001ed   Section        1  oled_display.o(.data)
    .data                                    0x200001ee   Section        2  oled_display.o(.data)
    times                                    0x200001ee   Data           2  oled_display.o(.data)
    .data                                    0x200001f0   Section       16  velocitycontrol.o(.data)
    PWM_M1                                   0x200001f0   Data           4  velocitycontrol.o(.data)
    PWM_M2                                   0x200001f4   Data           4  velocitycontrol.o(.data)
    PWM_M3                                   0x200001f8   Data           4  velocitycontrol.o(.data)
    PWM_M4                                   0x200001fc   Data           4  velocitycontrol.o(.data)
    .data                                    0x20000200   Section       12  stm32f1xx_hal.o(.data)
    .data                                    0x2000020c   Section        4  system_stm32f1xx.o(.data)
    .data                                    0x20000210   Section        1  rc.o(.data)
    DisconnectCount                          0x20000210   Data           1  rc.o(.data)
    .bss                                     0x20000214   Section       12  shareware.o(.bss)
    .bss                                     0x20000220   Section       12  shareware.o(.bss)
    .bss                                     0x2000022c   Section       12  shareware.o(.bss)
    .bss                                     0x20000238   Section       12  shareware.o(.bss)
    .bss                                     0x20000244   Section       12  shareware.o(.bss)
    .bss                                     0x20000250   Section       40  shareware.o(.bss)
    .bss                                     0x20000278   Section       24  shareware.o(.bss)
    .bss                                     0x20000290   Section       24  shareware.o(.bss)
    .bss                                     0x200002a8   Section       24  shareware.o(.bss)
    .bss                                     0x200002c0   Section       24  shareware.o(.bss)
    .bss                                     0x200002d8   Section       12  shareware.o(.bss)
    .bss                                     0x200002e4   Section       12  shareware.o(.bss)
    .bss                                     0x200002f0   Section       12  shareware.o(.bss)
    .bss                                     0x200002fc   Section       12  shareware.o(.bss)
    .bss                                     0x20000308   Section       32  shareware.o(.bss)
    .bss                                     0x20000328   Section       28  shareware.o(.bss)
    .bss                                     0x20000344   Section       28  shareware.o(.bss)
    .bss                                     0x20000360   Section       48  shareware.o(.bss)
    .bss                                     0x20000390   Section       48  shareware.o(.bss)
    .bss                                     0x200003c0   Section       72  shareware.o(.bss)
    .bss                                     0x20000408   Section       64  tim8.o(.bss)
    .bss                                     0x20000448   Section      456  uart.o(.bss)
    .bss                                     0x20000610   Section       68  uart.o(.bss)
    .bss                                     0x20000654   Section       68  uart.o(.bss)
    .bss                                     0x20000698   Section       64  tim4.o(.bss)
    .bss                                     0x200006d8   Section       64  tim2.o(.bss)
    .bss                                     0x20000718   Section       64  tim3.o(.bss)
    .bss                                     0x20000758   Section       64  tim5.o(.bss)
    .bss                                     0x20000798   Section       48  adc1.o(.bss)
    .bss                                     0x200007c8   Section       68  adc1.o(.bss)
    .bss                                     0x2000080c   Section      168  i2c.o(.bss)
    .bss                                     0x200008b4   Section       68  i2c.o(.bss)
    .bss                                     0x200008f8   Section       68  i2c.o(.bss)
    .bss                                     0x2000093c   Section       64  tim1.o(.bss)
    .bss                                     0x2000097c   Section     1024  oled.o(.bss)
    STACK                                    0x20000d80   Section     1024  startup_stm32f103xe.o(STACK)

    Global Symbols

    Symbol Name                              Value     Ov Type        Size  Object(Section)

    BuildAttributes$$THM_ISAv4$P$D$K$B$S$PE$A:L22UL41UL21$X:L11$S22US41US21$IEEE1$IW$USESV6$~STKCKD$USESV7$~SHL$OTIME$ROPI$IEEEX$EBA8$MICROLIB$REQ8$PRES8$EABIv2 0x00000000   Number         0  anon$$obj.o ABSOLUTE
    __ARM_use_no_argv                        0x00000000   Number         0  main.o ABSOLUTE
    _printf_a                                0x00000000   Number         0  stubs.o ABSOLUTE
    _printf_c                                0x00000000   Number         0  stubs.o ABSOLUTE
    _printf_charcount                        0x00000000   Number         0  stubs.o ABSOLUTE
    _printf_d                                0x00000000   Number         0  stubs.o ABSOLUTE
    _printf_e                                0x00000000   Number         0  stubs.o ABSOLUTE
    _printf_f                                0x00000000   Number         0  stubs.o ABSOLUTE
    _printf_flags                            0x00000000   Number         0  stubs.o ABSOLUTE
    _printf_fp_dec                           0x00000000   Number         0  stubs.o ABSOLUTE
    _printf_fp_hex                           0x00000000   Number         0  stubs.o ABSOLUTE
    _printf_g                                0x00000000   Number         0  stubs.o ABSOLUTE
    _printf_i                                0x00000000   Number         0  stubs.o ABSOLUTE
    _printf_int_dec                          0x00000000   Number         0  stubs.o ABSOLUTE
    _printf_l                                0x00000000   Number         0  stubs.o ABSOLUTE
    _printf_lc                               0x00000000   Number         0  stubs.o ABSOLUTE
    _printf_ll                               0x00000000   Number         0  stubs.o ABSOLUTE
    _printf_lld                              0x00000000   Number         0  stubs.o ABSOLUTE
    _printf_lli                              0x00000000   Number         0  stubs.o ABSOLUTE
    _printf_llo                              0x00000000   Number         0  stubs.o ABSOLUTE
    _printf_llu                              0x00000000   Number         0  stubs.o ABSOLUTE
    _printf_llx                              0x00000000   Number         0  stubs.o ABSOLUTE
    _printf_longlong_dec                     0x00000000   Number         0  stubs.o ABSOLUTE
    _printf_longlong_hex                     0x00000000   Number         0  stubs.o ABSOLUTE
    _printf_longlong_oct                     0x00000000   Number         0  stubs.o ABSOLUTE
    _printf_ls                               0x00000000   Number         0  stubs.o ABSOLUTE
    _printf_mbtowc                           0x00000000   Number         0  stubs.o ABSOLUTE
    _printf_n                                0x00000000   Number         0  stubs.o ABSOLUTE
    _printf_o                                0x00000000   Number         0  stubs.o ABSOLUTE
    _printf_p                                0x00000000   Number         0  stubs.o ABSOLUTE
    _printf_percent                          0x00000000   Number         0  stubs.o ABSOLUTE
    _printf_pre_padding                      0x00000000   Number         0  stubs.o ABSOLUTE
    _printf_return_value                     0x00000000   Number         0  stubs.o ABSOLUTE
    _printf_s                                0x00000000   Number         0  stubs.o ABSOLUTE
    _printf_sizespec                         0x00000000   Number         0  stubs.o ABSOLUTE
    _printf_str                              0x00000000   Number         0  stubs.o ABSOLUTE
    _printf_truncate_signed                  0x00000000   Number         0  stubs.o ABSOLUTE
    _printf_truncate_unsigned                0x00000000   Number         0  stubs.o ABSOLUTE
    _printf_u                                0x00000000   Number         0  stubs.o ABSOLUTE
    _printf_wc                               0x00000000   Number         0  stubs.o ABSOLUTE
    _printf_wctomb                           0x00000000   Number         0  stubs.o ABSOLUTE
    _printf_widthprec                        0x00000000   Number         0  stubs.o ABSOLUTE
    _printf_x                                0x00000000   Number         0  stubs.o ABSOLUTE
    __cpp_initialize__aeabi_                  - Undefined Weak Reference
    __cxa_finalize                            - Undefined Weak Reference
    _clock_init                               - Undefined Weak Reference
    _microlib_exit                            - Undefined Weak Reference
    __Vectors_Size                           0x00000130   Number         0  startup_stm32f103xe.o ABSOLUTE
    __Vectors                                0x08000000   Data           4  startup_stm32f103xe.o(RESET)
    __Vectors_End                            0x08000130   Data           0  startup_stm32f103xe.o(RESET)
    __main                                   0x08000131   Thumb Code     0  entry.o(.ARM.Collect$$$$00000000)
    _main_stk                                0x08000131   Thumb Code     0  entry2.o(.ARM.Collect$$$$00000001)
    _main_scatterload                        0x08000135   Thumb Code     0  entry5.o(.ARM.Collect$$$$00000004)
    __main_after_scatterload                 0x08000139   Thumb Code     0  entry5.o(.ARM.Collect$$$$00000004)
    _main_clock                              0x08000139   Thumb Code     0  entry7b.o(.ARM.Collect$$$$00000008)
    _main_cpp_init                           0x08000139   Thumb Code     0  entry8b.o(.ARM.Collect$$$$0000000A)
    _main_init                               0x08000139   Thumb Code     0  entry9a.o(.ARM.Collect$$$$0000000B)
    __rt_final_cpp                           0x08000141   Thumb Code     0  entry10a.o(.ARM.Collect$$$$0000000D)
    __rt_final_exit                          0x08000141   Thumb Code     0  entry11a.o(.ARM.Collect$$$$0000000F)
    Reset_Handler                            0x08000145   Thumb Code     8  startup_stm32f103xe.o(.text)
    ADC1_2_IRQHandler                        0x0800015f   Thumb Code     0  startup_stm32f103xe.o(.text)
    ADC3_IRQHandler                          0x0800015f   Thumb Code     0  startup_stm32f103xe.o(.text)
    CAN1_RX1_IRQHandler                      0x0800015f   Thumb Code     0  startup_stm32f103xe.o(.text)
    CAN1_SCE_IRQHandler                      0x0800015f   Thumb Code     0  startup_stm32f103xe.o(.text)
    DMA1_Channel1_IRQHandler                 0x0800015f   Thumb Code     0  startup_stm32f103xe.o(.text)
    DMA1_Channel2_IRQHandler                 0x0800015f   Thumb Code     0  startup_stm32f103xe.o(.text)
    DMA1_Channel3_IRQHandler                 0x0800015f   Thumb Code     0  startup_stm32f103xe.o(.text)
    DMA2_Channel1_IRQHandler                 0x0800015f   Thumb Code     0  startup_stm32f103xe.o(.text)
    DMA2_Channel2_IRQHandler                 0x0800015f   Thumb Code     0  startup_stm32f103xe.o(.text)
    EXTI0_IRQHandler                         0x0800015f   Thumb Code     0  startup_stm32f103xe.o(.text)
    EXTI15_10_IRQHandler                     0x0800015f   Thumb Code     0  startup_stm32f103xe.o(.text)
    EXTI1_IRQHandler                         0x0800015f   Thumb Code     0  startup_stm32f103xe.o(.text)
    EXTI2_IRQHandler                         0x0800015f   Thumb Code     0  startup_stm32f103xe.o(.text)
    EXTI3_IRQHandler                         0x0800015f   Thumb Code     0  startup_stm32f103xe.o(.text)
    EXTI4_IRQHandler                         0x0800015f   Thumb Code     0  startup_stm32f103xe.o(.text)
    EXTI9_5_IRQHandler                       0x0800015f   Thumb Code     0  startup_stm32f103xe.o(.text)
    FLASH_IRQHandler                         0x0800015f   Thumb Code     0  startup_stm32f103xe.o(.text)
    FSMC_IRQHandler                          0x0800015f   Thumb Code     0  startup_stm32f103xe.o(.text)
    PVD_IRQHandler                           0x0800015f   Thumb Code     0  startup_stm32f103xe.o(.text)
    RCC_IRQHandler                           0x0800015f   Thumb Code     0  startup_stm32f103xe.o(.text)
    RTC_Alarm_IRQHandler                     0x0800015f   Thumb Code     0  startup_stm32f103xe.o(.text)
    RTC_IRQHandler                           0x0800015f   Thumb Code     0  startup_stm32f103xe.o(.text)
    SDIO_IRQHandler                          0x0800015f   Thumb Code     0  startup_stm32f103xe.o(.text)
    SPI1_IRQHandler                          0x0800015f   Thumb Code     0  startup_stm32f103xe.o(.text)
    SPI2_IRQHandler                          0x0800015f   Thumb Code     0  startup_stm32f103xe.o(.text)
    SPI3_IRQHandler                          0x0800015f   Thumb Code     0  startup_stm32f103xe.o(.text)
    TAMPER_IRQHandler                        0x0800015f   Thumb Code     0  startup_stm32f103xe.o(.text)
    TIM1_BRK_IRQHandler                      0x0800015f   Thumb Code     0  startup_stm32f103xe.o(.text)
    TIM1_CC_IRQHandler                       0x0800015f   Thumb Code     0  startup_stm32f103xe.o(.text)
    TIM1_TRG_COM_IRQHandler                  0x0800015f   Thumb Code     0  startup_stm32f103xe.o(.text)
    TIM1_UP_IRQHandler                       0x0800015f   Thumb Code     0  startup_stm32f103xe.o(.text)
    TIM6_IRQHandler                          0x0800015f   Thumb Code     0  startup_stm32f103xe.o(.text)
    TIM7_IRQHandler                          0x0800015f   Thumb Code     0  startup_stm32f103xe.o(.text)
    TIM8_BRK_IRQHandler                      0x0800015f   Thumb Code     0  startup_stm32f103xe.o(.text)
    TIM8_CC_IRQHandler                       0x0800015f   Thumb Code     0  startup_stm32f103xe.o(.text)
    TIM8_TRG_COM_IRQHandler                  0x0800015f   Thumb Code     0  startup_stm32f103xe.o(.text)
    TIM8_UP_IRQHandler                       0x0800015f   Thumb Code     0  startup_stm32f103xe.o(.text)
    UART5_IRQHandler                         0x0800015f   Thumb Code     0  startup_stm32f103xe.o(.text)
    USART1_IRQHandler                        0x0800015f   Thumb Code     0  startup_stm32f103xe.o(.text)
    USART3_IRQHandler                        0x0800015f   Thumb Code     0  startup_stm32f103xe.o(.text)
    USBWakeUp_IRQHandler                     0x0800015f   Thumb Code     0  startup_stm32f103xe.o(.text)
    USB_HP_CAN1_TX_IRQHandler                0x0800015f   Thumb Code     0  startup_stm32f103xe.o(.text)
    USB_LP_CAN1_RX0_IRQHandler               0x0800015f   Thumb Code     0  startup_stm32f103xe.o(.text)
    WWDG_IRQHandler                          0x0800015f   Thumb Code     0  startup_stm32f103xe.o(.text)
    __aeabi_llsr                             0x08000169   Thumb Code    32  llushr.o(.text)
    _ll_ushift_r                             0x08000169   Thumb Code     0  llushr.o(.text)
    __aeabi_fadd                             0x08000189   Thumb Code   164  fadd.o(.text)
    __aeabi_fsub                             0x0800022d   Thumb Code     6  fadd.o(.text)
    __aeabi_frsub                            0x08000233   Thumb Code     6  fadd.o(.text)
    __aeabi_fmul                             0x08000239   Thumb Code   100  fmul.o(.text)
    __aeabi_fdiv                             0x0800029d   Thumb Code   124  fdiv.o(.text)
    __ARM_scalbnf                            0x08000319   Thumb Code    24  fscalb.o(.text)
    scalbnf                                  0x08000319   Thumb Code     0  fscalb.o(.text)
    __aeabi_dadd                             0x08000331   Thumb Code   322  dadd.o(.text)
    __aeabi_dsub                             0x08000473   Thumb Code     6  dadd.o(.text)
    __aeabi_drsub                            0x08000479   Thumb Code     6  dadd.o(.text)
    __aeabi_i2f                              0x0800047f   Thumb Code    18  fflti.o(.text)
    __aeabi_ui2f                             0x08000491   Thumb Code    10  ffltui.o(.text)
    __aeabi_f2uiz                            0x0800049b   Thumb Code    40  ffixui.o(.text)
    __aeabi_f2d                              0x080004c3   Thumb Code    38  f2d.o(.text)
    __aeabi_d2f                              0x080004e9   Thumb Code    56  d2f.o(.text)
    __aeabi_cfcmpeq                          0x08000521   Thumb Code     0  cfcmple.o(.text)
    __aeabi_cfcmple                          0x08000521   Thumb Code    20  cfcmple.o(.text)
    __aeabi_cfrcmple                         0x08000535   Thumb Code    20  cfrcmple.o(.text)
    __aeabi_uidiv                            0x08000549   Thumb Code     0  uidiv.o(.text)
    __aeabi_uidivmod                         0x08000549   Thumb Code    44  uidiv.o(.text)
    __aeabi_uldivmod                         0x08000575   Thumb Code    98  uldiv.o(.text)
    __aeabi_llsl                             0x080005d7   Thumb Code    30  llshl.o(.text)
    _ll_shift_l                              0x080005d7   Thumb Code     0  llshl.o(.text)
    __aeabi_lasr                             0x080005f5   Thumb Code    36  llsshr.o(.text)
    _ll_sshift_r                             0x080005f5   Thumb Code     0  llsshr.o(.text)
    __I$use$fp                               0x08000619   Thumb Code     0  iusefp.o(.text)
    _float_round                             0x08000619   Thumb Code    18  fepilogue.o(.text)
    _float_epilogue                          0x0800062b   Thumb Code    92  fepilogue.o(.text)
    _double_round                            0x08000687   Thumb Code    30  depilogue.o(.text)
    _double_epilogue                         0x080006a5   Thumb Code   156  depilogue.o(.text)
    __aeabi_dmul                             0x08000741   Thumb Code   228  dmul.o(.text)
    __aeabi_ddiv                             0x08000825   Thumb Code   222  ddiv.o(.text)
    __aeabi_d2ulz                            0x08000903   Thumb Code    48  dfixul.o(.text)
    __aeabi_cdrcmple                         0x08000935   Thumb Code    48  cdrcmple.o(.text)
    __scatterload                            0x08000965   Thumb Code    28  init.o(.text)
    __scatterload_rt2                        0x08000965   Thumb Code     0  init.o(.text)
    __ARM_scalbn                             0x08000989   Thumb Code    46  dscalb.o(.text)
    scalbn                                   0x08000989   Thumb Code     0  dscalb.o(.text)
    __decompress                             0x080009b7   Thumb Code     0  __dczerorl2.o(.text)
    __decompress1                            0x080009b7   Thumb Code    86  __dczerorl2.o(.text)
    ADC_ConversionStop_Disable               0x08000a0d   Thumb Code    74  stm32f1xx_hal_adc.o(i.ADC_ConversionStop_Disable)
    ADC_DMAConvCplt                          0x08000a57   Thumb Code    78  stm32f1xx_hal_adc.o(i.ADC_DMAConvCplt)
    ADC_DMAError                             0x08000aa5   Thumb Code    26  stm32f1xx_hal_adc.o(i.ADC_DMAError)
    ADC_DMAHalfConvCplt                      0x08000abf   Thumb Code    10  stm32f1xx_hal_adc.o(i.ADC_DMAHalfConvCplt)
    ADC_Enable                               0x08000ac9   Thumb Code   102  stm32f1xx_hal_adc.o(i.ADC_Enable)
    BusFault_Handler                         0x08000b39   Thumb Code     2  stm32f1xx_it.o(i.BusFault_Handler)
    BuzzerControl                            0x08000b3d   Thumb Code   114  indicatordevice.o(i.BuzzerControl)
    Buzzer_GPIO_Init                         0x08000bb9   Thumb Code    62  indicatordevice.o(i.Buzzer_GPIO_Init)
    DMA1_Channel4_IRQHandler                 0x08000c01   Thumb Code     6  stm32f1xx_it.o(i.DMA1_Channel4_IRQHandler)
    DMA1_Channel5_IRQHandler                 0x08000c0d   Thumb Code     6  stm32f1xx_it.o(i.DMA1_Channel5_IRQHandler)
    DMA1_Channel6_IRQHandler                 0x08000c19   Thumb Code     6  stm32f1xx_it.o(i.DMA1_Channel6_IRQHandler)
    DMA1_Channel7_IRQHandler                 0x08000c25   Thumb Code     6  stm32f1xx_it.o(i.DMA1_Channel7_IRQHandler)
    DMA2_Channel3_IRQHandler                 0x08000c31   Thumb Code     6  stm32f1xx_it.o(i.DMA2_Channel3_IRQHandler)
    DMA2_Channel4_5_IRQHandler               0x08000c3d   Thumb Code     6  stm32f1xx_it.o(i.DMA2_Channel4_5_IRQHandler)
    DebugMon_Handler                         0x08000c73   Thumb Code     2  stm32f1xx_it.o(i.DebugMon_Handler)
    Encoder_Struct_Init                      0x08000c75   Thumb Code    48  encoder.o(i.Encoder_Struct_Init)
    Encoder_UpdataValue                      0x08000ca9   Thumb Code   114  encoder.o(i.Encoder_UpdataValue)
    GetdBatteryCapacity                      0x08000d31   Thumb Code   454  batteryinfor.o(i.GetdBatteryCapacity)
    HAL_ADC_ConfigChannel                    0x08000fb5   Thumb Code   240  stm32f1xx_hal_adc.o(i.HAL_ADC_ConfigChannel)
    HAL_ADC_ConvCpltCallback                 0x080010b1   Thumb Code     2  stm32f1xx_hal_adc.o(i.HAL_ADC_ConvCpltCallback)
    HAL_ADC_ConvHalfCpltCallback             0x080010b3   Thumb Code     2  stm32f1xx_hal_adc.o(i.HAL_ADC_ConvHalfCpltCallback)
    HAL_ADC_ErrorCallback                    0x080010b5   Thumb Code     2  stm32f1xx_hal_adc.o(i.HAL_ADC_ErrorCallback)
    HAL_ADC_Init                             0x080010b9   Thumb Code   272  stm32f1xx_hal_adc.o(i.HAL_ADC_Init)
    HAL_ADC_MspInit                          0x080011d9   Thumb Code   128  stm32f1xx_hal_msp.o(i.HAL_ADC_MspInit)
    HAL_ADC_Start                            0x0800126d   Thumb Code   184  stm32f1xx_hal_adc.o(i.HAL_ADC_Start)
    HAL_ADC_Start_DMA                        0x0800132d   Thumb Code   246  stm32f1xx_hal_adc.o(i.HAL_ADC_Start_DMA)
    HAL_DMA_Abort                            0x08001439   Thumb Code    48  stm32f1xx_hal_dma.o(i.HAL_DMA_Abort)
    HAL_DMA_Abort_IT                         0x08001469   Thumb Code   296  stm32f1xx_hal_dma.o(i.HAL_DMA_Abort_IT)
    HAL_DMA_IRQHandler                       0x08001599   Thumb Code   552  stm32f1xx_hal_dma.o(i.HAL_DMA_IRQHandler)
    HAL_DMA_Init                             0x080017e1   Thumb Code   120  stm32f1xx_hal_dma.o(i.HAL_DMA_Init)
    HAL_DMA_Start_IT                         0x08001865   Thumb Code   112  stm32f1xx_hal_dma.o(i.HAL_DMA_Start_IT)
    HAL_Delay                                0x080018d5   Thumb Code    32  stm32f1xx_hal.o(i.HAL_Delay)
    HAL_GPIO_Init                            0x080018f9   Thumb Code   450  stm32f1xx_hal_gpio.o(i.HAL_GPIO_Init)
    HAL_GPIO_TogglePin                       0x08001ae5   Thumb Code     8  stm32f1xx_hal_gpio.o(i.HAL_GPIO_TogglePin)
    HAL_GPIO_WritePin                        0x08001aed   Thumb Code    10  stm32f1xx_hal_gpio.o(i.HAL_GPIO_WritePin)
    HAL_GetTick                              0x08001af9   Thumb Code     6  stm32f1xx_hal.o(i.HAL_GetTick)
    HAL_I2C_AbortCpltCallback                0x08001b05   Thumb Code     2  stm32f1xx_hal_i2c.o(i.HAL_I2C_AbortCpltCallback)
    HAL_I2C_AddrCallback                     0x08001b07   Thumb Code     2  stm32f1xx_hal_i2c.o(i.HAL_I2C_AddrCallback)
    HAL_I2C_ER_IRQHandler                    0x08001b09   Thumb Code   202  stm32f1xx_hal_i2c.o(i.HAL_I2C_ER_IRQHandler)
    HAL_I2C_EV_IRQHandler                    0x08001bd9   Thumb Code   486  stm32f1xx_hal_i2c.o(i.HAL_I2C_EV_IRQHandler)
    HAL_I2C_ErrorCallback                    0x08001dc9   Thumb Code     2  i2c.o(i.HAL_I2C_ErrorCallback)
    HAL_I2C_Init                             0x08001dcd   Thumb Code   302  stm32f1xx_hal_i2c.o(i.HAL_I2C_Init)
    HAL_I2C_ListenCpltCallback               0x08001f0d   Thumb Code     2  stm32f1xx_hal_i2c.o(i.HAL_I2C_ListenCpltCallback)
    HAL_I2C_MasterRxCpltCallback             0x08001f0f   Thumb Code     2  stm32f1xx_hal_i2c.o(i.HAL_I2C_MasterRxCpltCallback)
    HAL_I2C_MasterTxCpltCallback             0x08001f11   Thumb Code     2  stm32f1xx_hal_i2c.o(i.HAL_I2C_MasterTxCpltCallback)
    HAL_I2C_MemRxCpltCallback                0x08001f15   Thumb Code    80  i2c.o(i.HAL_I2C_MemRxCpltCallback)
    HAL_I2C_MemTxCpltCallback                0x08001f79   Thumb Code    26  i2c.o(i.HAL_I2C_MemTxCpltCallback)
    HAL_I2C_Mem_Read_IT                      0x08001fa1   Thumb Code   208  stm32f1xx_hal_i2c.o(i.HAL_I2C_Mem_Read_IT)
    HAL_I2C_Mem_Write_DMA                    0x08002079   Thumb Code   268  stm32f1xx_hal_i2c.o(i.HAL_I2C_Mem_Write_DMA)
    HAL_I2C_Mem_Write_IT                     0x08002195   Thumb Code   194  stm32f1xx_hal_i2c.o(i.HAL_I2C_Mem_Write_IT)
    HAL_I2C_MspInit                          0x08002261   Thumb Code   342  stm32f1xx_hal_msp.o(i.HAL_I2C_MspInit)
    HAL_I2C_SlaveRxCpltCallback              0x080023d9   Thumb Code     2  stm32f1xx_hal_i2c.o(i.HAL_I2C_SlaveRxCpltCallback)
    HAL_I2C_SlaveTxCpltCallback              0x080023db   Thumb Code     2  stm32f1xx_hal_i2c.o(i.HAL_I2C_SlaveTxCpltCallback)
    HAL_IncTick                              0x080023dd   Thumb Code    12  stm32f1xx_hal.o(i.HAL_IncTick)
    HAL_Init                                 0x080023ed   Thumb Code    32  stm32f1xx_hal.o(i.HAL_Init)
    HAL_InitTick                             0x08002411   Thumb Code    54  stm32f1xx_hal.o(i.HAL_InitTick)
    HAL_MspInit                              0x08002451   Thumb Code   118  stm32f1xx_hal_msp.o(i.HAL_MspInit)
    HAL_NVIC_EnableIRQ                       0x080024d1   Thumb Code    22  stm32f1xx_hal_cortex.o(i.HAL_NVIC_EnableIRQ)
    HAL_NVIC_SetPriority                     0x080024e9   Thumb Code    60  stm32f1xx_hal_cortex.o(i.HAL_NVIC_SetPriority)
    HAL_NVIC_SetPriorityGrouping             0x08002529   Thumb Code    26  stm32f1xx_hal_cortex.o(i.HAL_NVIC_SetPriorityGrouping)
    HAL_RCCEx_PeriphCLKConfig                0x0800254d   Thumb Code   220  stm32f1xx_hal_rcc_ex.o(i.HAL_RCCEx_PeriphCLKConfig)
    HAL_RCC_ClockConfig                      0x08002635   Thumb Code   316  stm32f1xx_hal_rcc.o(i.HAL_RCC_ClockConfig)
    HAL_RCC_GetHCLKFreq                      0x08002781   Thumb Code     6  stm32f1xx_hal_rcc.o(i.HAL_RCC_GetHCLKFreq)
    HAL_RCC_GetPCLK1Freq                     0x0800278d   Thumb Code    20  stm32f1xx_hal_rcc.o(i.HAL_RCC_GetPCLK1Freq)
    HAL_RCC_GetPCLK2Freq                     0x080027ad   Thumb Code    20  stm32f1xx_hal_rcc.o(i.HAL_RCC_GetPCLK2Freq)
    HAL_RCC_GetSysClockFreq                  0x080027cd   Thumb Code    74  stm32f1xx_hal_rcc.o(i.HAL_RCC_GetSysClockFreq)
    HAL_RCC_OscConfig                        0x08002839   Thumb Code   740  stm32f1xx_hal_rcc.o(i.HAL_RCC_OscConfig)
    HAL_SYSTICK_CLKSourceConfig              0x08002b31   Thumb Code    24  stm32f1xx_hal_cortex.o(i.HAL_SYSTICK_CLKSourceConfig)
    HAL_SYSTICK_Callback                     0x08002b49   Thumb Code    64  loop.o(i.HAL_SYSTICK_Callback)
    HAL_SYSTICK_Config                       0x08002b9d   Thumb Code    40  stm32f1xx_hal_cortex.o(i.HAL_SYSTICK_Config)
    HAL_SYSTICK_IRQHandler                   0x08002bc5   Thumb Code     8  stm32f1xx_hal_cortex.o(i.HAL_SYSTICK_IRQHandler)
    HAL_TIMEx_BreakCallback                  0x08002bcd   Thumb Code     2  stm32f1xx_hal_tim_ex.o(i.HAL_TIMEx_BreakCallback)
    HAL_TIMEx_CommutationCallback            0x08002bcf   Thumb Code     2  stm32f1xx_hal_tim_ex.o(i.HAL_TIMEx_CommutationCallback)
    HAL_TIMEx_ConfigBreakDeadTime            0x08002bd1   Thumb Code    90  stm32f1xx_hal_tim_ex.o(i.HAL_TIMEx_ConfigBreakDeadTime)
    HAL_TIMEx_MasterConfigSynchronization    0x08002c2b   Thumb Code    80  stm32f1xx_hal_tim_ex.o(i.HAL_TIMEx_MasterConfigSynchronization)
    HAL_TIM_Encoder_Init                     0x08002c7b   Thumb Code   150  stm32f1xx_hal_tim.o(i.HAL_TIM_Encoder_Init)
    HAL_TIM_Encoder_MspInit                  0x08002d11   Thumb Code   376  stm32f1xx_hal_msp.o(i.HAL_TIM_Encoder_MspInit)
    HAL_TIM_Encoder_Start                    0x08002ea5   Thumb Code    50  stm32f1xx_hal_tim.o(i.HAL_TIM_Encoder_Start)
    HAL_TIM_IC_CaptureCallback               0x08002ed7   Thumb Code     2  stm32f1xx_hal_tim.o(i.HAL_TIM_IC_CaptureCallback)
    HAL_TIM_IRQHandler                       0x08002ed9   Thumb Code   358  stm32f1xx_hal_tim.o(i.HAL_TIM_IRQHandler)
    HAL_TIM_OC_DelayElapsedCallback          0x0800303f   Thumb Code     2  stm32f1xx_hal_tim.o(i.HAL_TIM_OC_DelayElapsedCallback)
    HAL_TIM_PWM_ConfigChannel                0x08003041   Thumb Code   208  stm32f1xx_hal_tim.o(i.HAL_TIM_PWM_ConfigChannel)
    HAL_TIM_PWM_Init                         0x08003111   Thumb Code    54  stm32f1xx_hal_tim.o(i.HAL_TIM_PWM_Init)
    HAL_TIM_PWM_MspInit                      0x08003149   Thumb Code   124  stm32f1xx_hal_msp.o(i.HAL_TIM_PWM_MspInit)
    HAL_TIM_PWM_PulseFinishedCallback        0x080031d9   Thumb Code     2  stm32f1xx_hal_tim.o(i.HAL_TIM_PWM_PulseFinishedCallback)
    HAL_TIM_PWM_Start                        0x080031dd   Thumb Code    48  stm32f1xx_hal_tim.o(i.HAL_TIM_PWM_Start)
    HAL_TIM_PeriodElapsedCallback            0x08003215   Thumb Code   124  encoder.o(i.HAL_TIM_PeriodElapsedCallback)
    HAL_TIM_TriggerCallback                  0x080032a5   Thumb Code     2  stm32f1xx_hal_tim.o(i.HAL_TIM_TriggerCallback)
    HAL_UART_DMAStop                         0x080032a7   Thumb Code    88  stm32f1xx_hal_uart.o(i.HAL_UART_DMAStop)
    HAL_UART_ErrorCallback                   0x080032ff   Thumb Code    76  uart.o(i.HAL_UART_ErrorCallback)
    HAL_UART_IRQHandler                      0x0800334d   Thumb Code   266  stm32f1xx_hal_uart.o(i.HAL_UART_IRQHandler)
    HAL_UART_Init                            0x0800345d   Thumb Code    98  stm32f1xx_hal_uart.o(i.HAL_UART_Init)
    HAL_UART_MspInit                         0x080034c1   Thumb Code   444  stm32f1xx_hal_msp.o(i.HAL_UART_MspInit)
    HAL_UART_Receive_DMA                     0x080036ad   Thumb Code   138  stm32f1xx_hal_uart.o(i.HAL_UART_Receive_DMA)
    HAL_UART_RxCpltCallback                  0x08003745   Thumb Code     2  uart.o(i.HAL_UART_RxCpltCallback)
    HAL_UART_RxHalfCpltCallback              0x08003747   Thumb Code     2  stm32f1xx_hal_uart.o(i.HAL_UART_RxHalfCpltCallback)
    HAL_UART_TxCpltCallback                  0x08003749   Thumb Code     2  uart.o(i.HAL_UART_TxCpltCallback)
    HardFault_Handler                        0x0800374b   Thumb Code     2  stm32f1xx_it.o(i.HardFault_Handler)
    I2C1_ER_IRQHandler                       0x0800374d   Thumb Code     6  stm32f1xx_it.o(i.I2C1_ER_IRQHandler)
    I2C1_EV_IRQHandler                       0x08003759   Thumb Code     6  stm32f1xx_it.o(i.I2C1_EV_IRQHandler)
    I2C2_ER_IRQHandler                       0x08003765   Thumb Code     6  stm32f1xx_it.o(i.I2C2_ER_IRQHandler)
    I2C2_EV_IRQHandler                       0x08003771   Thumb Code     6  stm32f1xx_it.o(i.I2C2_EV_IRQHandler)
    IncPID_Init                              0x0800416d   Thumb Code    16  pid.o(i.IncPID_Init)
    Incremental_PID                          0x0800417d   Thumb Code    86  pid.o(i.Incremental_PID)
    IndicatorDeviceControl                   0x080041d5   Thumb Code   156  indicatordevice.o(i.IndicatorDeviceControl)
    KalmanFilter_Calculation                 0x0800427d   Thumb Code   314  kalmanfilter.o(i.KalmanFilter_Calculation)
    KalmanFilter_Init                        0x080043b9   Thumb Code    40  kalmanfilter.o(i.KalmanFilter_Init)
    Kinematics_Mecanum_CalculateRPM          0x080043ed   Thumb Code   136  kinematics_mecanum.o(i.Kinematics_Mecanum_CalculateRPM)
    Kinematics_Mecanum_GetVelocities         0x08004481   Thumb Code   144  kinematics_mecanum.o(i.Kinematics_Mecanum_GetVelocities)
    LED_Green_Control                        0x0800451d   Thumb Code   114  indicatordevice.o(i.LED_Green_Control)
    LED_Green_GPIO_Init                      0x08004599   Thumb Code    60  indicatordevice.o(i.LED_Green_GPIO_Init)
    LED_Red_Control                          0x080045dd   Thumb Code   114  indicatordevice.o(i.LED_Red_Control)
    LED_Red_GPIO_Init                        0x08004659   Thumb Code    60  indicatordevice.o(i.LED_Red_GPIO_Init)
    LPF_Struct_Init                          0x0800469d   Thumb Code    10  lowpassfilter.o(i.LPF_Struct_Init)
    LowPassFilter                            0x080046a7   Thumb Code    42  lowpassfilter.o(i.LowPassFilter)
    MPU6050_Init                             0x080046d1   Thumb Code   174  mpu6050.o(i.MPU6050_Init)
    MPU6050_Update                           0x08004789   Thumb Code   126  mpu6050.o(i.MPU6050_Update)
    MPU6050_UpdateAccel                      0x08004815   Thumb Code    58  mpu6050.o(i.MPU6050_UpdateAccel)
    MPU6050_UpdateGyro                       0x08004851   Thumb Code    76  mpu6050.o(i.MPU6050_UpdateGyro)
    MPU6050_UpdatePitch                      0x080048a5   Thumb Code    56  mpu6050.o(i.MPU6050_UpdatePitch)
    MPU6050_UpdateRoll                       0x080048dd   Thumb Code    54  mpu6050.o(i.MPU6050_UpdateRoll)
    MPU6050_UpdateYaw                        0x08004915   Thumb Code   120  mpu6050.o(i.MPU6050_UpdateYaw)
    MX_ADC1_Init                             0x080049a9   Thumb Code    86  adc1.o(i.MX_ADC1_Init)
    MX_I2C1_Init                             0x08004a0d   Thumb Code    56  i2c.o(i.MX_I2C1_Init)
    MX_I2C2_Init                             0x08004a55   Thumb Code    34  i2c.o(i.MX_I2C2_Init)
    MX_TIM1_Init                             0x08004a85   Thumb Code   168  tim1.o(i.MX_TIM1_Init)
    MX_TIM2_Init                             0x08004b35   Thumb Code   108  tim2.o(i.MX_TIM2_Init)
    MX_TIM3_Init                             0x08004ba9   Thumb Code    88  tim3.o(i.MX_TIM3_Init)
    MX_TIM4_Init                             0x08004c09   Thumb Code    88  tim4.o(i.MX_TIM4_Init)
    MX_TIM5_Init                             0x08004c69   Thumb Code    88  tim5.o(i.MX_TIM5_Init)
    MX_TIM8_Init                             0x08004cc9   Thumb Code   168  tim8.o(i.MX_TIM8_Init)
    MX_UART4_Init                            0x08004d79   Thumb Code    66  uart.o(i.MX_UART4_Init)
    MX_USART2_Init                           0x08004dc9   Thumb Code    60  uart.o(i.MX_USART2_Init)
    MemManage_Handler                        0x08004e0d   Thumb Code     2  stm32f1xx_it.o(i.MemManage_Handler)
    Motor1_Forward                           0x08004e11   Thumb Code    10  motorcontrol.o(i.Motor1_Forward)
    Motor1_GPIO_Init                         0x08004e21   Thumb Code    58  motorcontrol.o(i.Motor1_GPIO_Init)
    Motor1_Reverse                           0x08004e65   Thumb Code    10  motorcontrol.o(i.Motor1_Reverse)
    Motor2_Forward                           0x08004e75   Thumb Code    10  motorcontrol.o(i.Motor2_Forward)
    Motor2_GPIO_Init                         0x08004e85   Thumb Code    58  motorcontrol.o(i.Motor2_GPIO_Init)
    Motor2_Reverse                           0x08004ec9   Thumb Code    12  motorcontrol.o(i.Motor2_Reverse)
    Motor3_Forward                           0x08004ed9   Thumb Code    12  motorcontrol.o(i.Motor3_Forward)
    Motor3_GPIO_Init                         0x08004ee9   Thumb Code    58  motorcontrol.o(i.Motor3_GPIO_Init)
    Motor3_Reverse                           0x08004f2d   Thumb Code    10  motorcontrol.o(i.Motor3_Reverse)
    Motor4_Forward                           0x08004f3d   Thumb Code    10  motorcontrol.o(i.Motor4_Forward)
    Motor4_GPIO_Init                         0x08004f4d   Thumb Code    58  motorcontrol.o(i.Motor4_GPIO_Init)
    Motor4_Reverse                           0x08004f91   Thumb Code    12  motorcontrol.o(i.Motor4_Reverse)
    NMI_Handler                              0x08004fa1   Thumb Code     2  stm32f1xx_it.o(i.NMI_Handler)
    OLED_Clear                               0x08004fc5   Thumb Code    34  oled.o(i.OLED_Clear)
    OLED_Display                             0x08004fed   Thumb Code   226  oled_display.o(i.OLED_Display)
    OLED_Display_Init                        0x08005101   Thumb Code    32  oled_display.o(i.OLED_Display_Init)
    OLED_Init                                0x08005125   Thumb Code    16  oled.o(i.OLED_Init)
    OLED_Refreash                            0x08005135   Thumb Code    26  oled.o(i.OLED_Refreash)
    OLED_ShowBattery                         0x08005159   Thumb Code   182  oled_display.o(i.OLED_ShowBattery)
    OLED_ShowChar                            0x0800521d   Thumb Code   138  oled.o(i.OLED_ShowChar)
    OLED_ShowIconfont                        0x080052b5   Thumb Code    70  oled_display.o(i.OLED_ShowIconfont)
    OLED_ShowString                          0x08005301   Thumb Code    78  oled.o(i.OLED_ShowString)
    OLED_Show_Num                            0x0800534f   Thumb Code   168  oled.o(i.OLED_Show_Num)
    PendSV_Handler                           0x080053f7   Thumb Code     2  stm32f1xx_it.o(i.PendSV_Handler)
    RC_Update                                0x080053f9   Thumb Code   210  rc.o(i.RC_Update)
    RC_UpdateStruct                          0x080054d1   Thumb Code   398  rc.o(i.RC_UpdateStruct)
    SVC_Handler                              0x08005671   Thumb Code     2  stm32f1xx_it.o(i.SVC_Handler)
    Servo_PositionControl                    0x08005675   Thumb Code   156  servo.o(i.Servo_PositionControl)
    Servo_ServoControl                       0x08005725   Thumb Code    66  servo.o(i.Servo_ServoControl)
    SysTick_Handler                          0x0800577d   Thumb Code    14  stm32f1xx_it.o(i.SysTick_Handler)
    SystemClock_Config                       0x0800578b   Thumb Code   122  main.o(i.SystemClock_Config)
    SystemInit                               0x08005805   Thumb Code    56  system_stm32f1xx.o(i.SystemInit)
    TIM2_IRQHandler                          0x0800584d   Thumb Code     6  stm32f1xx_it.o(i.TIM2_IRQHandler)
    TIM3_IRQHandler                          0x08005859   Thumb Code     6  stm32f1xx_it.o(i.TIM3_IRQHandler)
    TIM4_IRQHandler                          0x08005865   Thumb Code     6  stm32f1xx_it.o(i.TIM4_IRQHandler)
    TIM5_IRQHandler                          0x08005871   Thumb Code     6  stm32f1xx_it.o(i.TIM5_IRQHandler)
    TIM_Base_SetConfig                       0x0800587d   Thumb Code   120  stm32f1xx_hal_tim.o(i.TIM_Base_SetConfig)
    TIM_CCxChannelCmd                        0x08005909   Thumb Code    22  stm32f1xx_hal_tim.o(i.TIM_CCxChannelCmd)
    TIM_OC2_SetConfig                        0x08005981   Thumb Code    98  stm32f1xx_hal_tim.o(i.TIM_OC2_SetConfig)
    UART4_IRQHandler                         0x08005aa5   Thumb Code    28  stm32f1xx_it.o(i.UART4_IRQHandler)
    USART2_IRQHandler                        0x08005dfd   Thumb Code    28  stm32f1xx_it.o(i.USART2_IRQHandler)
    UpdateBatteryInfor                       0x08005e1d   Thumb Code    70  batteryinfor.o(i.UpdateBatteryInfor)
    UsageFault_Handler                       0x08005e71   Thumb Code     2  stm32f1xx_it.o(i.UsageFault_Handler)
    UsartReceive_IDLE                        0x08005e75   Thumb Code   108  uart.o(i.UsartReceive_IDLE)
    VelocityControl_4WD                      0x08005ef1   Thumb Code   780  velocitycontrol.o(i.VelocityControl_4WD)
    WriteCmd                                 0x08006245   Thumb Code    24  oled.o(i.WriteCmd)
    __0sprintf                               0x08006265   Thumb Code    34  printfa.o(i.__0sprintf)
    __1sprintf                               0x08006265   Thumb Code     0  printfa.o(i.__0sprintf)
    __2sprintf                               0x08006265   Thumb Code     0  printfa.o(i.__0sprintf)
    __c89sprintf                             0x08006265   Thumb Code     0  printfa.o(i.__0sprintf)
    sprintf                                  0x08006265   Thumb Code     0  printfa.o(i.__0sprintf)
    __ARM_fpclassify                         0x0800628d   Thumb Code    40  fpclassify.o(i.__ARM_fpclassify)
    __kernel_poly                            0x080062b5   Thumb Code   170  poly.o(i.__kernel_poly)
    __mathlib_dbl_infnan                     0x0800635f   Thumb Code     6  dunder.o(i.__mathlib_dbl_infnan)
    __mathlib_dbl_infnan2                    0x08006365   Thumb Code     4  dunder.o(i.__mathlib_dbl_infnan2)
    __mathlib_dbl_underflow                  0x08006369   Thumb Code    10  dunder.o(i.__mathlib_dbl_underflow)
    __scatterload_copy                       0x08006379   Thumb Code    14  handlers.o(i.__scatterload_copy)
    __scatterload_null                       0x08006387   Thumb Code     2  handlers.o(i.__scatterload_null)
    __scatterload_zeroinit                   0x08006389   Thumb Code    14  handlers.o(i.__scatterload_zeroinit)
    atan                                     0x08006c55   Thumb Code   474  atan.o(i.atan)
    atan2                                    0x08006e75   Thumb Code   346  atan2.o(i.atan2)
    main                                     0x08006ff5   Thumb Code   624  main.o(i.main)
    F6x8                                     0x080072e4   Data         552  oled.o(.constdata)
    F8X16                                    0x0800750c   Data        1520  oled.o(.constdata)
    AHBPrescTable                            0x08007d5c   Data          16  system_stm32f1xx.o(.constdata)
    APBPrescTable                            0x08007d6c   Data           8  system_stm32f1xx.o(.constdata)
    __mathlib_zero                           0x08007e10   Data           8  qnan.o(.constdata)
    Region$$Table$$Base                      0x08007e18   Number         0  anon$$obj.o(Region$$Table)
    Region$$Table$$Limit                     0x08007e38   Number         0  anon$$obj.o(Region$$Table)
    Loop_5msTime                             0x20000000   Data           2  shareware.o(.data)
    Loop_10msTime                            0x20000002   Data           2  shareware.o(.data)
    Loop_500msTime                           0x20000004   Data           2  shareware.o(.data)
    HeartbeatTime                            0x20000006   Data           2  shareware.o(.data)
    Loop_100msTime                           0x20000008   Data           2  shareware.o(.data)
    ADC1_DMA_Buff                            0x2000000c   Data           8  adc1.o(.data)
    I2C1_Tx_Flag                             0x20000014   Data           1  i2c.o(.data)
    I2C1_Rx_Flag                             0x20000015   Data           1  i2c.o(.data)
    I2C2_Tx_Flag                             0x20000016   Data           1  i2c.o(.data)
    Buzzer_LockedStatus                      0x20000018   Data           1  indicatordevice.o(.data)
    LED_Green_LockedStatus                   0x20000019   Data           1  indicatordevice.o(.data)
    LED_Red_LockedStatus                     0x2000001a   Data           1  indicatordevice.o(.data)
    Buzzer_Times                             0x2000001c   Data           2  indicatordevice.o(.data)
    Buzzer_PeriodTime                        0x2000001e   Data           2  indicatordevice.o(.data)
    LED_Green_Times                          0x20000020   Data           2  indicatordevice.o(.data)
    LED_Green_PeriodTime                     0x20000022   Data           2  indicatordevice.o(.data)
    LED_Red_Times                            0x20000024   Data           2  indicatordevice.o(.data)
    LED_Red_PeriodTime                       0x20000026   Data           2  indicatordevice.o(.data)
    Buzzer_PeriodTimeBuffer                  0x20000034   Data           2  indicatordevice.o(.data)
    LED_Green_PeriodTimeBuffer               0x20000036   Data           2  indicatordevice.o(.data)
    LED_Red_PeriodTimeBuffer                 0x20000038   Data           2  indicatordevice.o(.data)
    TIM1_OverflowCount                       0x2000003a   Data           2  encoder.o(.data)
    TIM2_OverflowCount                       0x2000003c   Data           2  encoder.o(.data)
    TIM3_OverflowCount                       0x2000003e   Data           2  encoder.o(.data)
    TIM4_OverflowCount                       0x20000040   Data           2  encoder.o(.data)
    TIM5_OverflowCount                       0x20000042   Data           2  encoder.o(.data)
    Hzk                                      0x20000050   Data         384  oled.o(.data)
    OLED_CMD_Data                            0x200001d0   Data          29  oled.o(.data)
    OLED_DisplayIconNum                      0x200001ed   Data           1  oled_display.o(.data)
    uwTickFreq                               0x20000200   Data           1  stm32f1xx_hal.o(.data)
    uwTickPrio                               0x20000204   Data           4  stm32f1xx_hal.o(.data)
    uwTick                                   0x20000208   Data           4  stm32f1xx_hal.o(.data)
    SystemCoreClock                          0x2000020c   Data           4  system_stm32f1xx.o(.data)
    LPF_Linear_X                             0x20000214   Data          12  shareware.o(.bss)
    LPF_Linear_Y                             0x20000220   Data          12  shareware.o(.bss)
    LPF_Angular_Z                            0x2000022c   Data          12  shareware.o(.bss)
    Battery                                  0x20000238   Data          12  shareware.o(.bss)
    LPF_SupplyVoltage                        0x20000244   Data          12  shareware.o(.bss)
    RC                                       0x20000250   Data          40  shareware.o(.bss)
    PID_M1                                   0x20000278   Data          24  shareware.o(.bss)
    PID_M2                                   0x20000290   Data          24  shareware.o(.bss)
    PID_M3                                   0x200002a8   Data          24  shareware.o(.bss)
    PID_M4                                   0x200002c0   Data          24  shareware.o(.bss)
    Encoder_M1                               0x200002d8   Data          12  shareware.o(.bss)
    Encoder_M2                               0x200002e4   Data          12  shareware.o(.bss)
    Encoder_M3                               0x200002f0   Data          12  shareware.o(.bss)
    Encoder_M4                               0x200002fc   Data          12  shareware.o(.bss)
    VelControl                               0x20000308   Data          32  shareware.o(.bss)
    Kinematics_Inverse                       0x20000328   Data          28  shareware.o(.bss)
    Kinematics_Forward                       0x20000344   Data          28  shareware.o(.bss)
    KalmanFilter_Pitch                       0x20000360   Data          48  shareware.o(.bss)
    KalmanFilter_Roll                        0x20000390   Data          48  shareware.o(.bss)
    MPU6050                                  0x200003c0   Data          72  shareware.o(.bss)
    htim8                                    0x20000408   Data          64  tim8.o(.bss)
    huart2                                   0x20000448   Data          64  uart.o(.bss)
    Usart2_TX_Buf                            0x20000488   Data         100  uart.o(.bss)
    Usart2_RX_Buf                            0x200004ec   Data          60  uart.o(.bss)
    hdma_usart2_rx                           0x20000528   Data          68  uart.o(.bss)
    huart4                                   0x2000056c   Data          64  uart.o(.bss)
    Uart4_RX_Buf                             0x200005ac   Data          30  uart.o(.bss)
    hdma_uart4_rx                            0x200005cc   Data          68  uart.o(.bss)
    hdma_usart2_tx                           0x20000610   Data          68  uart.o(.bss)
    hdma_uart4_tx                            0x20000654   Data          68  uart.o(.bss)
    htim4                                    0x20000698   Data          64  tim4.o(.bss)
    htim2                                    0x200006d8   Data          64  tim2.o(.bss)
    htim3                                    0x20000718   Data          64  tim3.o(.bss)
    htim5                                    0x20000758   Data          64  tim5.o(.bss)
    hadc1                                    0x20000798   Data          48  adc1.o(.bss)
    hdma1                                    0x200007c8   Data          68  adc1.o(.bss)
    hi2c1                                    0x2000080c   Data          84  i2c.o(.bss)
    hi2c2                                    0x20000860   Data          84  i2c.o(.bss)
    hdma_i2c2_rx                             0x200008b4   Data          68  i2c.o(.bss)
    hdma_i2c2_tx                             0x200008f8   Data          68  i2c.o(.bss)
    htim1                                    0x2000093c   Data          64  tim1.o(.bss)
    OLED_Buf                                 0x2000097c   Data        1024  oled.o(.bss)
    __initial_sp                             0x20001180   Data           0  startup_stm32f103xe.o(STACK)



==============================================================================

Memory Map of the image

  Image Entry point : 0x08000131

  Load Region LR_IROM1 (Base: 0x08000000, Size: 0x0000804c, Max: 0x00040000, ABSOLUTE, COMPRESSED[0x00007f00])

    Execution Region ER_IROM1 (Exec base: 0x08000000, Load base: 0x08000000, Size: 0x00007e38, Max: 0x00040000, ABSOLUTE)

    Exec Addr    Load Addr    Size         Type   Attr      Idx    E Section Name        Object

    0x08000000   0x08000000   0x00000130   Data   RO            3    RESET               startup_stm32f103xe.o
    0x08000130   0x08000130   0x00000000   Code   RO         5688  * .ARM.Collect$$$$00000000  mc_w.l(entry.o)
    0x08000130   0x08000130   0x00000004   Code   RO         6003    .ARM.Collect$$$$00000001  mc_w.l(entry2.o)
    0x08000134   0x08000134   0x00000004   Code   RO         6006    .ARM.Collect$$$$00000004  mc_w.l(entry5.o)
    0x08000138   0x08000138   0x00000000   Code   RO         6008    .ARM.Collect$$$$00000008  mc_w.l(entry7b.o)
    0x08000138   0x08000138   0x00000000   Code   RO         6010    .ARM.Collect$$$$0000000A  mc_w.l(entry8b.o)
    0x08000138   0x08000138   0x00000008   Code   RO         6011    .ARM.Collect$$$$0000000B  mc_w.l(entry9a.o)
    0x08000140   0x08000140   0x00000000   Code   RO         6013    .ARM.Collect$$$$0000000D  mc_w.l(entry10a.o)
    0x08000140   0x08000140   0x00000000   Code   RO         6015    .ARM.Collect$$$$0000000F  mc_w.l(entry11a.o)
    0x08000140   0x08000140   0x00000004   Code   RO         6004    .ARM.Collect$$$$00002712  mc_w.l(entry2.o)
    0x08000144   0x08000144   0x00000024   Code   RO            4    .text               startup_stm32f103xe.o
    0x08000168   0x08000168   0x00000020   Code   RO         5691    .text               mc_w.l(llushr.o)
    0x08000188   0x08000188   0x000000b0   Code   RO         5954    .text               mf_w.l(fadd.o)
    0x08000238   0x08000238   0x00000064   Code   RO         5956    .text               mf_w.l(fmul.o)
    0x0800029c   0x0800029c   0x0000007c   Code   RO         5958    .text               mf_w.l(fdiv.o)
    0x08000318   0x08000318   0x00000018   Code   RO         5960    .text               mf_w.l(fscalb.o)
    0x08000330   0x08000330   0x0000014e   Code   RO         5962    .text               mf_w.l(dadd.o)
    0x0800047e   0x0800047e   0x00000012   Code   RO         5964    .text               mf_w.l(fflti.o)
    0x08000490   0x08000490   0x0000000a   Code   RO         5966    .text               mf_w.l(ffltui.o)
    0x0800049a   0x0800049a   0x00000028   Code   RO         5968    .text               mf_w.l(ffixui.o)
    0x080004c2   0x080004c2   0x00000026   Code   RO         5970    .text               mf_w.l(f2d.o)
    0x080004e8   0x080004e8   0x00000038   Code   RO         5972    .text               mf_w.l(d2f.o)
    0x08000520   0x08000520   0x00000014   Code   RO         5974    .text               mf_w.l(cfcmple.o)
    0x08000534   0x08000534   0x00000014   Code   RO         5976    .text               mf_w.l(cfrcmple.o)
    0x08000548   0x08000548   0x0000002c   Code   RO         6020    .text               mc_w.l(uidiv.o)
    0x08000574   0x08000574   0x00000062   Code   RO         6022    .text               mc_w.l(uldiv.o)
    0x080005d6   0x080005d6   0x0000001e   Code   RO         6024    .text               mc_w.l(llshl.o)
    0x080005f4   0x080005f4   0x00000024   Code   RO         6026    .text               mc_w.l(llsshr.o)
    0x08000618   0x08000618   0x00000000   Code   RO         6035    .text               mc_w.l(iusefp.o)
    0x08000618   0x08000618   0x0000006e   Code   RO         6036    .text               mf_w.l(fepilogue.o)
    0x08000686   0x08000686   0x000000ba   Code   RO         6038    .text               mf_w.l(depilogue.o)
    0x08000740   0x08000740   0x000000e4   Code   RO         6040    .text               mf_w.l(dmul.o)
    0x08000824   0x08000824   0x000000de   Code   RO         6042    .text               mf_w.l(ddiv.o)
    0x08000902   0x08000902   0x00000030   Code   RO         6044    .text               mf_w.l(dfixul.o)
    0x08000932   0x08000932   0x00000002   PAD
    0x08000934   0x08000934   0x00000030   Code   RO         6046    .text               mf_w.l(cdrcmple.o)
    0x08000964   0x08000964   0x00000024   Code   RO         6052    .text               mc_w.l(init.o)
    0x08000988   0x08000988   0x0000002e   Code   RO         6056    .text               mf_w.l(dscalb.o)
    0x080009b6   0x080009b6   0x00000056   Code   RO         6066    .text               mc_w.l(__dczerorl2.o)
    0x08000a0c   0x08000a0c   0x0000004a   Code   RO         2768    i.ADC_ConversionStop_Disable  stm32f1xx_hal_adc.o
    0x08000a56   0x08000a56   0x0000004e   Code   RO         2769    i.ADC_DMAConvCplt   stm32f1xx_hal_adc.o
    0x08000aa4   0x08000aa4   0x0000001a   Code   RO         2770    i.ADC_DMAError      stm32f1xx_hal_adc.o
    0x08000abe   0x08000abe   0x0000000a   Code   RO         2771    i.ADC_DMAHalfConvCplt  stm32f1xx_hal_adc.o
    0x08000ac8   0x08000ac8   0x00000070   Code   RO         2772    i.ADC_Enable        stm32f1xx_hal_adc.o
    0x08000b38   0x08000b38   0x00000002   Code   RO          347    i.BusFault_Handler  stm32f1xx_it.o
    0x08000b3a   0x08000b3a   0x00000002   PAD
    0x08000b3c   0x08000b3c   0x0000007c   Code   RO          959    i.BuzzerControl     indicatordevice.o
    0x08000bb8   0x08000bb8   0x00000048   Code   RO          960    i.Buzzer_GPIO_Init  indicatordevice.o
    0x08000c00   0x08000c00   0x0000000c   Code   RO          348    i.DMA1_Channel4_IRQHandler  stm32f1xx_it.o
    0x08000c0c   0x08000c0c   0x0000000c   Code   RO          349    i.DMA1_Channel5_IRQHandler  stm32f1xx_it.o
    0x08000c18   0x08000c18   0x0000000c   Code   RO          350    i.DMA1_Channel6_IRQHandler  stm32f1xx_it.o
    0x08000c24   0x08000c24   0x0000000c   Code   RO          351    i.DMA1_Channel7_IRQHandler  stm32f1xx_it.o
    0x08000c30   0x08000c30   0x0000000c   Code   RO          352    i.DMA2_Channel3_IRQHandler  stm32f1xx_it.o
    0x08000c3c   0x08000c3c   0x0000000c   Code   RO          353    i.DMA2_Channel4_5_IRQHandler  stm32f1xx_it.o
    0x08000c48   0x08000c48   0x0000002a   Code   RO         1559    i.DMA_SetConfig     stm32f1xx_hal_dma.o
    0x08000c72   0x08000c72   0x00000002   Code   RO          354    i.DebugMon_Handler  stm32f1xx_it.o
    0x08000c74   0x08000c74   0x00000034   Code   RO         1022    i.Encoder_Struct_Init  encoder.o
    0x08000ca8   0x08000ca8   0x00000088   Code   RO         1023    i.Encoder_UpdataValue  encoder.o
    0x08000d30   0x08000d30   0x00000284   Code   RO         1064    i.GetdBatteryCapacity  batteryinfor.o
    0x08000fb4   0x08000fb4   0x000000fc   Code   RO         2774    i.HAL_ADC_ConfigChannel  stm32f1xx_hal_adc.o
    0x080010b0   0x080010b0   0x00000002   Code   RO         2775    i.HAL_ADC_ConvCpltCallback  stm32f1xx_hal_adc.o
    0x080010b2   0x080010b2   0x00000002   Code   RO         2776    i.HAL_ADC_ConvHalfCpltCallback  stm32f1xx_hal_adc.o
    0x080010b4   0x080010b4   0x00000002   Code   RO         2778    i.HAL_ADC_ErrorCallback  stm32f1xx_hal_adc.o
    0x080010b6   0x080010b6   0x00000002   PAD
    0x080010b8   0x080010b8   0x00000120   Code   RO         2783    i.HAL_ADC_Init      stm32f1xx_hal_adc.o
    0x080011d8   0x080011d8   0x00000094   Code   RO          264    i.HAL_ADC_MspInit   stm32f1xx_hal_msp.o
    0x0800126c   0x0800126c   0x000000c0   Code   RO         2789    i.HAL_ADC_Start     stm32f1xx_hal_adc.o
    0x0800132c   0x0800132c   0x0000010c   Code   RO         2790    i.HAL_ADC_Start_DMA  stm32f1xx_hal_adc.o
    0x08001438   0x08001438   0x00000030   Code   RO         1560    i.HAL_DMA_Abort     stm32f1xx_hal_dma.o
    0x08001468   0x08001468   0x00000130   Code   RO         1561    i.HAL_DMA_Abort_IT  stm32f1xx_hal_dma.o
    0x08001598   0x08001598   0x00000248   Code   RO         1565    i.HAL_DMA_IRQHandler  stm32f1xx_hal_dma.o
    0x080017e0   0x080017e0   0x00000084   Code   RO         1566    i.HAL_DMA_Init      stm32f1xx_hal_dma.o
    0x08001864   0x08001864   0x00000070   Code   RO         1570    i.HAL_DMA_Start_IT  stm32f1xx_hal_dma.o
    0x080018d4   0x080018d4   0x00000024   Code   RO         3592    i.HAL_Delay         stm32f1xx_hal.o
    0x080018f8   0x080018f8   0x000001ec   Code   RO         3397    i.HAL_GPIO_Init     stm32f1xx_hal_gpio.o
    0x08001ae4   0x08001ae4   0x00000008   Code   RO         3400    i.HAL_GPIO_TogglePin  stm32f1xx_hal_gpio.o
    0x08001aec   0x08001aec   0x0000000a   Code   RO         3401    i.HAL_GPIO_WritePin  stm32f1xx_hal_gpio.o
    0x08001af6   0x08001af6   0x00000002   PAD
    0x08001af8   0x08001af8   0x0000000c   Code   RO         3596    i.HAL_GetTick       stm32f1xx_hal.o
    0x08001b04   0x08001b04   0x00000002   Code   RO         3949    i.HAL_I2C_AbortCpltCallback  stm32f1xx_hal_i2c.o
    0x08001b06   0x08001b06   0x00000002   Code   RO         3950    i.HAL_I2C_AddrCallback  stm32f1xx_hal_i2c.o
    0x08001b08   0x08001b08   0x000000d0   Code   RO         3953    i.HAL_I2C_ER_IRQHandler  stm32f1xx_hal_i2c.o
    0x08001bd8   0x08001bd8   0x000001f0   Code   RO         3954    i.HAL_I2C_EV_IRQHandler  stm32f1xx_hal_i2c.o
    0x08001dc8   0x08001dc8   0x00000002   Code   RO          873    i.HAL_I2C_ErrorCallback  i2c.o
    0x08001dca   0x08001dca   0x00000002   PAD
    0x08001dcc   0x08001dcc   0x00000140   Code   RO         3960    i.HAL_I2C_Init      stm32f1xx_hal_i2c.o
    0x08001f0c   0x08001f0c   0x00000002   Code   RO         3962    i.HAL_I2C_ListenCpltCallback  stm32f1xx_hal_i2c.o
    0x08001f0e   0x08001f0e   0x00000002   Code   RO         3963    i.HAL_I2C_MasterRxCpltCallback  stm32f1xx_hal_i2c.o
    0x08001f10   0x08001f10   0x00000002   Code   RO         3964    i.HAL_I2C_MasterTxCpltCallback  stm32f1xx_hal_i2c.o
    0x08001f12   0x08001f12   0x00000002   PAD
    0x08001f14   0x08001f14   0x00000064   Code   RO          874    i.HAL_I2C_MemRxCpltCallback  i2c.o
    0x08001f78   0x08001f78   0x00000028   Code   RO          875    i.HAL_I2C_MemTxCpltCallback  i2c.o
    0x08001fa0   0x08001fa0   0x000000d8   Code   RO         3978    i.HAL_I2C_Mem_Read_IT  stm32f1xx_hal_i2c.o
    0x08002078   0x08002078   0x0000011c   Code   RO         3980    i.HAL_I2C_Mem_Write_DMA  stm32f1xx_hal_i2c.o
    0x08002194   0x08002194   0x000000cc   Code   RO         3981    i.HAL_I2C_Mem_Write_IT  stm32f1xx_hal_i2c.o
    0x08002260   0x08002260   0x00000178   Code   RO          266    i.HAL_I2C_MspInit   stm32f1xx_hal_msp.o
    0x080023d8   0x080023d8   0x00000002   Code   RO         3984    i.HAL_I2C_SlaveRxCpltCallback  stm32f1xx_hal_i2c.o
    0x080023da   0x080023da   0x00000002   Code   RO         3985    i.HAL_I2C_SlaveTxCpltCallback  stm32f1xx_hal_i2c.o
    0x080023dc   0x080023dc   0x00000010   Code   RO         3600    i.HAL_IncTick       stm32f1xx_hal.o
    0x080023ec   0x080023ec   0x00000024   Code   RO         3601    i.HAL_Init          stm32f1xx_hal.o
    0x08002410   0x08002410   0x00000040   Code   RO         3602    i.HAL_InitTick      stm32f1xx_hal.o
    0x08002450   0x08002450   0x00000080   Code   RO          267    i.HAL_MspInit       stm32f1xx_hal_msp.o
    0x080024d0   0x080024d0   0x00000016   Code   RO         3183    i.HAL_NVIC_EnableIRQ  stm32f1xx_hal_cortex.o
    0x080024e6   0x080024e6   0x00000002   PAD
    0x080024e8   0x080024e8   0x00000040   Code   RO         3189    i.HAL_NVIC_SetPriority  stm32f1xx_hal_cortex.o
    0x08002528   0x08002528   0x00000024   Code   RO         3190    i.HAL_NVIC_SetPriorityGrouping  stm32f1xx_hal_cortex.o
    0x0800254c   0x0800254c   0x000000e8   Code   RO         2734    i.HAL_RCCEx_PeriphCLKConfig  stm32f1xx_hal_rcc_ex.o
    0x08002634   0x08002634   0x0000014c   Code   RO         3848    i.HAL_RCC_ClockConfig  stm32f1xx_hal_rcc.o
    0x08002780   0x08002780   0x0000000c   Code   RO         3853    i.HAL_RCC_GetHCLKFreq  stm32f1xx_hal_rcc.o
    0x0800278c   0x0800278c   0x00000020   Code   RO         3855    i.HAL_RCC_GetPCLK1Freq  stm32f1xx_hal_rcc.o
    0x080027ac   0x080027ac   0x00000020   Code   RO         3856    i.HAL_RCC_GetPCLK2Freq  stm32f1xx_hal_rcc.o
    0x080027cc   0x080027cc   0x0000006c   Code   RO         3857    i.HAL_RCC_GetSysClockFreq  stm32f1xx_hal_rcc.o
    0x08002838   0x08002838   0x000002f8   Code   RO         3860    i.HAL_RCC_OscConfig  stm32f1xx_hal_rcc.o
    0x08002b30   0x08002b30   0x00000018   Code   RO         3192    i.HAL_SYSTICK_CLKSourceConfig  stm32f1xx_hal_cortex.o
    0x08002b48   0x08002b48   0x00000054   Code   RO          618    i.HAL_SYSTICK_Callback  loop.o
    0x08002b9c   0x08002b9c   0x00000028   Code   RO         3194    i.HAL_SYSTICK_Config  stm32f1xx_hal_cortex.o
    0x08002bc4   0x08002bc4   0x00000008   Code   RO         3195    i.HAL_SYSTICK_IRQHandler  stm32f1xx_hal_cortex.o
    0x08002bcc   0x08002bcc   0x00000002   Code   RO         2948    i.HAL_TIMEx_BreakCallback  stm32f1xx_hal_tim_ex.o
    0x08002bce   0x08002bce   0x00000002   Code   RO         2949    i.HAL_TIMEx_CommutationCallback  stm32f1xx_hal_tim_ex.o
    0x08002bd0   0x08002bd0   0x0000005a   Code   RO         2950    i.HAL_TIMEx_ConfigBreakDeadTime  stm32f1xx_hal_tim_ex.o
    0x08002c2a   0x08002c2a   0x00000050   Code   RO         2965    i.HAL_TIMEx_MasterConfigSynchronization  stm32f1xx_hal_tim_ex.o
    0x08002c7a   0x08002c7a   0x00000096   Code   RO         1674    i.HAL_TIM_Encoder_Init  stm32f1xx_hal_tim.o
    0x08002d10   0x08002d10   0x00000194   Code   RO          269    i.HAL_TIM_Encoder_MspInit  stm32f1xx_hal_msp.o
    0x08002ea4   0x08002ea4   0x00000032   Code   RO         1677    i.HAL_TIM_Encoder_Start  stm32f1xx_hal_tim.o
    0x08002ed6   0x08002ed6   0x00000002   Code   RO         1685    i.HAL_TIM_IC_CaptureCallback  stm32f1xx_hal_tim.o
    0x08002ed8   0x08002ed8   0x00000166   Code   RO         1698    i.HAL_TIM_IRQHandler  stm32f1xx_hal_tim.o
    0x0800303e   0x0800303e   0x00000002   Code   RO         1701    i.HAL_TIM_OC_DelayElapsedCallback  stm32f1xx_hal_tim.o
    0x08003040   0x08003040   0x000000d0   Code   RO         1722    i.HAL_TIM_PWM_ConfigChannel  stm32f1xx_hal_tim.o
    0x08003110   0x08003110   0x00000036   Code   RO         1725    i.HAL_TIM_PWM_Init  stm32f1xx_hal_tim.o
    0x08003146   0x08003146   0x00000002   PAD
    0x08003148   0x08003148   0x00000090   Code   RO          271    i.HAL_TIM_PWM_MspInit  stm32f1xx_hal_msp.o
    0x080031d8   0x080031d8   0x00000002   Code   RO         1728    i.HAL_TIM_PWM_PulseFinishedCallback  stm32f1xx_hal_tim.o
    0x080031da   0x080031da   0x00000002   PAD
    0x080031dc   0x080031dc   0x00000038   Code   RO         1729    i.HAL_TIM_PWM_Start  stm32f1xx_hal_tim.o
    0x08003214   0x08003214   0x00000090   Code   RO         1024    i.HAL_TIM_PeriodElapsedCallback  encoder.o
    0x080032a4   0x080032a4   0x00000002   Code   RO         1739    i.HAL_TIM_TriggerCallback  stm32f1xx_hal_tim.o
    0x080032a6   0x080032a6   0x00000058   Code   RO         2304    i.HAL_UART_DMAStop  stm32f1xx_hal_uart.o
    0x080032fe   0x080032fe   0x0000004c   Code   RO          645    i.HAL_UART_ErrorCallback  uart.o
    0x0800334a   0x0800334a   0x00000002   PAD
    0x0800334c   0x0800334c   0x00000110   Code   RO         2309    i.HAL_UART_IRQHandler  stm32f1xx_hal_uart.o
    0x0800345c   0x0800345c   0x00000062   Code   RO         2310    i.HAL_UART_Init     stm32f1xx_hal_uart.o
    0x080034be   0x080034be   0x00000002   PAD
    0x080034c0   0x080034c0   0x000001ec   Code   RO          273    i.HAL_UART_MspInit  stm32f1xx_hal_msp.o
    0x080036ac   0x080036ac   0x00000098   Code   RO         2314    i.HAL_UART_Receive_DMA  stm32f1xx_hal_uart.o
    0x08003744   0x08003744   0x00000002   Code   RO          646    i.HAL_UART_RxCpltCallback  uart.o
    0x08003746   0x08003746   0x00000002   Code   RO         2317    i.HAL_UART_RxHalfCpltCallback  stm32f1xx_hal_uart.o
    0x08003748   0x08003748   0x00000002   Code   RO          647    i.HAL_UART_TxCpltCallback  uart.o
    0x0800374a   0x0800374a   0x00000002   Code   RO          355    i.HardFault_Handler  stm32f1xx_it.o
    0x0800374c   0x0800374c   0x0000000c   Code   RO          356    i.I2C1_ER_IRQHandler  stm32f1xx_it.o
    0x08003758   0x08003758   0x0000000c   Code   RO          357    i.I2C1_EV_IRQHandler  stm32f1xx_it.o
    0x08003764   0x08003764   0x0000000c   Code   RO          358    i.I2C2_ER_IRQHandler  stm32f1xx_it.o
    0x08003770   0x08003770   0x0000000c   Code   RO          359    i.I2C2_EV_IRQHandler  stm32f1xx_it.o
    0x0800377c   0x0800377c   0x0000004e   Code   RO         3994    i.I2C_DMAAbort      stm32f1xx_hal_i2c.o
    0x080037ca   0x080037ca   0x0000002a   Code   RO         3995    i.I2C_DMAError      stm32f1xx_hal_i2c.o
    0x080037f4   0x080037f4   0x00000086   Code   RO         3996    i.I2C_DMAXferCplt   stm32f1xx_hal_i2c.o
    0x0800387a   0x0800387a   0x00000002   PAD
    0x0800387c   0x0800387c   0x00000124   Code   RO         3997    i.I2C_ITError       stm32f1xx_hal_i2c.o
    0x080039a0   0x080039a0   0x00000028   Code   RO         3998    i.I2C_IsAcknowledgeFailed  stm32f1xx_hal_i2c.o
    0x080039c8   0x080039c8   0x000000c8   Code   RO         3999    i.I2C_MasterReceive_BTF  stm32f1xx_hal_i2c.o
    0x08003a90   0x08003a90   0x000000ae   Code   RO         4000    i.I2C_MasterReceive_RXNE  stm32f1xx_hal_i2c.o
    0x08003b3e   0x08003b3e   0x00000080   Code   RO         4003    i.I2C_MasterTransmit_BTF  stm32f1xx_hal_i2c.o
    0x08003bbe   0x08003bbe   0x00000106   Code   RO         4004    i.I2C_MasterTransmit_TXE  stm32f1xx_hal_i2c.o
    0x08003cc4   0x08003cc4   0x0000011a   Code   RO         4005    i.I2C_Master_ADDR   stm32f1xx_hal_i2c.o
    0x08003dde   0x08003dde   0x0000005a   Code   RO         4006    i.I2C_Master_SB     stm32f1xx_hal_i2c.o
    0x08003e38   0x08003e38   0x000000a0   Code   RO         4008    i.I2C_RequestMemoryWrite  stm32f1xx_hal_i2c.o
    0x08003ed8   0x08003ed8   0x00000084   Code   RO         4009    i.I2C_Slave_AF      stm32f1xx_hal_i2c.o
    0x08003f5c   0x08003f5c   0x000000dc   Code   RO         4010    i.I2C_Slave_STOPF   stm32f1xx_hal_i2c.o
    0x08004038   0x08004038   0x00000060   Code   RO         4012    i.I2C_WaitOnFlagUntilTimeout  stm32f1xx_hal_i2c.o
    0x08004098   0x08004098   0x00000086   Code   RO         4013    i.I2C_WaitOnMasterAddressFlagUntilTimeout  stm32f1xx_hal_i2c.o
    0x0800411e   0x0800411e   0x0000004e   Code   RO         4015    i.I2C_WaitOnTXEFlagUntilTimeout  stm32f1xx_hal_i2c.o
    0x0800416c   0x0800416c   0x00000010   Code   RO         1457    i.IncPID_Init       pid.o
    0x0800417c   0x0800417c   0x00000056   Code   RO         1458    i.Incremental_PID   pid.o
    0x080041d2   0x080041d2   0x00000002   PAD
    0x080041d4   0x080041d4   0x000000a8   Code   RO          961    i.IndicatorDeviceControl  indicatordevice.o
    0x0800427c   0x0800427c   0x0000013a   Code   RO         1529    i.KalmanFilter_Calculation  kalmanfilter.o
    0x080043b6   0x080043b6   0x00000002   PAD
    0x080043b8   0x080043b8   0x00000034   Code   RO         1530    i.KalmanFilter_Init  kalmanfilter.o
    0x080043ec   0x080043ec   0x00000094   Code   RO         1499    i.Kinematics_Mecanum_CalculateRPM  kinematics_mecanum.o
    0x08004480   0x08004480   0x0000009c   Code   RO         1500    i.Kinematics_Mecanum_GetVelocities  kinematics_mecanum.o
    0x0800451c   0x0800451c   0x0000007c   Code   RO          962    i.LED_Green_Control  indicatordevice.o
    0x08004598   0x08004598   0x00000044   Code   RO          963    i.LED_Green_GPIO_Init  indicatordevice.o
    0x080045dc   0x080045dc   0x0000007c   Code   RO          964    i.LED_Red_Control   indicatordevice.o
    0x08004658   0x08004658   0x00000044   Code   RO          965    i.LED_Red_GPIO_Init  indicatordevice.o
    0x0800469c   0x0800469c   0x0000000a   Code   RO         5543    i.LPF_Struct_Init   LowPassFilter.lib(lowpassfilter.o)
    0x080046a6   0x080046a6   0x0000002a   Code   RO         5544    i.LowPassFilter     LowPassFilter.lib(lowpassfilter.o)
    0x080046d0   0x080046d0   0x000000b8   Code   RO         1125    i.MPU6050_Init      mpu6050.o
    0x08004788   0x08004788   0x0000008c   Code   RO         1126    i.MPU6050_Update    mpu6050.o
    0x08004814   0x08004814   0x0000003a   Code   RO         1127    i.MPU6050_UpdateAccel  mpu6050.o
    0x0800484e   0x0800484e   0x00000002   PAD
    0x08004850   0x08004850   0x00000054   Code   RO         1128    i.MPU6050_UpdateGyro  mpu6050.o
    0x080048a4   0x080048a4   0x00000038   Code   RO         1129    i.MPU6050_UpdatePitch  mpu6050.o
    0x080048dc   0x080048dc   0x00000036   Code   RO         1130    i.MPU6050_UpdateRoll  mpu6050.o
    0x08004912   0x08004912   0x00000002   PAD
    0x08004914   0x08004914   0x00000094   Code   RO         1131    i.MPU6050_UpdateYaw  mpu6050.o
    0x080049a8   0x080049a8   0x00000064   Code   RO          841    i.MX_ADC1_Init      adc1.o
    0x08004a0c   0x08004a0c   0x00000048   Code   RO          876    i.MX_I2C1_Init      i2c.o
    0x08004a54   0x08004a54   0x00000030   Code   RO          877    i.MX_I2C2_Init      i2c.o
    0x08004a84   0x08004a84   0x000000b0   Code   RO          932    i.MX_TIM1_Init      tim1.o
    0x08004b34   0x08004b34   0x00000074   Code   RO          751    i.MX_TIM2_Init      tim2.o
    0x08004ba8   0x08004ba8   0x00000060   Code   RO          781    i.MX_TIM3_Init      tim3.o
    0x08004c08   0x08004c08   0x00000060   Code   RO          721    i.MX_TIM4_Init      tim4.o
    0x08004c68   0x08004c68   0x00000060   Code   RO          811    i.MX_TIM5_Init      tim5.o
    0x08004cc8   0x08004cc8   0x000000b0   Code   RO          591    i.MX_TIM8_Init      tim8.o
    0x08004d78   0x08004d78   0x00000050   Code   RO          648    i.MX_UART4_Init     uart.o
    0x08004dc8   0x08004dc8   0x00000044   Code   RO          649    i.MX_USART2_Init    uart.o
    0x08004e0c   0x08004e0c   0x00000002   Code   RO          360    i.MemManage_Handler  stm32f1xx_it.o
    0x08004e0e   0x08004e0e   0x00000002   PAD
    0x08004e10   0x08004e10   0x00000010   Code   RO         1342    i.Motor1_Forward    motorcontrol.o
    0x08004e20   0x08004e20   0x00000044   Code   RO         1343    i.Motor1_GPIO_Init  motorcontrol.o
    0x08004e64   0x08004e64   0x00000010   Code   RO         1344    i.Motor1_Reverse    motorcontrol.o
    0x08004e74   0x08004e74   0x00000010   Code   RO         1345    i.Motor2_Forward    motorcontrol.o
    0x08004e84   0x08004e84   0x00000044   Code   RO         1346    i.Motor2_GPIO_Init  motorcontrol.o
    0x08004ec8   0x08004ec8   0x00000010   Code   RO         1347    i.Motor2_Reverse    motorcontrol.o
    0x08004ed8   0x08004ed8   0x00000010   Code   RO         1348    i.Motor3_Forward    motorcontrol.o
    0x08004ee8   0x08004ee8   0x00000044   Code   RO         1349    i.Motor3_GPIO_Init  motorcontrol.o
    0x08004f2c   0x08004f2c   0x00000010   Code   RO         1350    i.Motor3_Reverse    motorcontrol.o
    0x08004f3c   0x08004f3c   0x00000010   Code   RO         1351    i.Motor4_Forward    motorcontrol.o
    0x08004f4c   0x08004f4c   0x00000044   Code   RO         1352    i.Motor4_GPIO_Init  motorcontrol.o
    0x08004f90   0x08004f90   0x00000010   Code   RO         1353    i.Motor4_Reverse    motorcontrol.o
    0x08004fa0   0x08004fa0   0x00000002   Code   RO          361    i.NMI_Handler       stm32f1xx_it.o
    0x08004fa2   0x08004fa2   0x00000020   Code   RO         3196    i.NVIC_SetPriority  stm32f1xx_hal_cortex.o
    0x08004fc2   0x08004fc2   0x00000002   PAD
    0x08004fc4   0x08004fc4   0x00000028   Code   RO         1186    i.OLED_Clear        oled.o
    0x08004fec   0x08004fec   0x00000114   Code   RO         1292    i.OLED_Display      oled_display.o
    0x08005100   0x08005100   0x00000024   Code   RO         1293    i.OLED_Display_Init  oled_display.o
    0x08005124   0x08005124   0x00000010   Code   RO         1191    i.OLED_Init         oled.o
    0x08005134   0x08005134   0x00000024   Code   RO         1192    i.OLED_Refreash     oled.o
    0x08005158   0x08005158   0x000000c4   Code   RO         1294    i.OLED_ShowBattery  oled_display.o
    0x0800521c   0x0800521c   0x00000098   Code   RO         1194    i.OLED_ShowChar     oled.o
    0x080052b4   0x080052b4   0x0000004c   Code   RO         1295    i.OLED_ShowIconfont  oled_display.o
    0x08005300   0x08005300   0x0000004e   Code   RO         1195    i.OLED_ShowString   oled.o
    0x0800534e   0x0800534e   0x000000a8   Code   RO         1196    i.OLED_Show_Num     oled.o
    0x080053f6   0x080053f6   0x00000002   Code   RO          362    i.PendSV_Handler    stm32f1xx_it.o
    0x080053f8   0x080053f8   0x000000d8   Code   RO         5382    i.RC_Update         RC.lib(rc.o)
    0x080054d0   0x080054d0   0x000001a0   Code   RO         5383    i.RC_UpdateStruct   RC.lib(rc.o)
    0x08005670   0x08005670   0x00000002   Code   RO          363    i.SVC_Handler       stm32f1xx_it.o
    0x08005672   0x08005672   0x00000002   PAD
    0x08005674   0x08005674   0x000000b0   Code   RO         1095    i.Servo_PositionControl  servo.o
    0x08005724   0x08005724   0x00000058   Code   RO         1096    i.Servo_ServoControl  servo.o
    0x0800577c   0x0800577c   0x0000000e   Code   RO          364    i.SysTick_Handler   stm32f1xx_it.o
    0x0800578a   0x0800578a   0x0000007a   Code   RO           13    i.SystemClock_Config  main.o
    0x08005804   0x08005804   0x00000048   Code   RO         5345    i.SystemInit        system_stm32f1xx.o
    0x0800584c   0x0800584c   0x0000000c   Code   RO          365    i.TIM2_IRQHandler   stm32f1xx_it.o
    0x08005858   0x08005858   0x0000000c   Code   RO          366    i.TIM3_IRQHandler   stm32f1xx_it.o
    0x08005864   0x08005864   0x0000000c   Code   RO          367    i.TIM4_IRQHandler   stm32f1xx_it.o
    0x08005870   0x08005870   0x0000000c   Code   RO          368    i.TIM5_IRQHandler   stm32f1xx_it.o
    0x0800587c   0x0800587c   0x0000008c   Code   RO         1740    i.TIM_Base_SetConfig  stm32f1xx_hal_tim.o
    0x08005908   0x08005908   0x00000016   Code   RO         1741    i.TIM_CCxChannelCmd  stm32f1xx_hal_tim.o
    0x0800591e   0x0800591e   0x00000002   PAD
    0x08005920   0x08005920   0x00000060   Code   RO         1749    i.TIM_OC1_SetConfig  stm32f1xx_hal_tim.o
    0x08005980   0x08005980   0x0000006c   Code   RO         1750    i.TIM_OC2_SetConfig  stm32f1xx_hal_tim.o
    0x080059ec   0x080059ec   0x00000068   Code   RO         1751    i.TIM_OC3_SetConfig  stm32f1xx_hal_tim.o
    0x08005a54   0x08005a54   0x00000050   Code   RO         1752    i.TIM_OC4_SetConfig  stm32f1xx_hal_tim.o
    0x08005aa4   0x08005aa4   0x00000020   Code   RO          369    i.UART4_IRQHandler  stm32f1xx_it.o
    0x08005ac4   0x08005ac4   0x00000010   Code   RO         2323    i.UART_DMAAbortOnError  stm32f1xx_hal_uart.o
    0x08005ad4   0x08005ad4   0x0000004a   Code   RO         2324    i.UART_DMAError     stm32f1xx_hal_uart.o
    0x08005b1e   0x08005b1e   0x0000003c   Code   RO         2325    i.UART_DMAReceiveCplt  stm32f1xx_hal_uart.o
    0x08005b5a   0x08005b5a   0x0000000a   Code   RO         2327    i.UART_DMARxHalfCplt  stm32f1xx_hal_uart.o
    0x08005b64   0x08005b64   0x0000001c   Code   RO         2333    i.UART_EndRxTransfer  stm32f1xx_hal_uart.o
    0x08005b80   0x08005b80   0x00000012   Code   RO         2334    i.UART_EndTxTransfer  stm32f1xx_hal_uart.o
    0x08005b92   0x08005b92   0x00000096   Code   RO         2335    i.UART_Receive_IT   stm32f1xx_hal_uart.o
    0x08005c28   0x08005c28   0x00000170   Code   RO         2336    i.UART_SetConfig    stm32f1xx_hal_uart.o
    0x08005d98   0x08005d98   0x00000062   Code   RO         2337    i.UART_Transmit_IT  stm32f1xx_hal_uart.o
    0x08005dfa   0x08005dfa   0x00000002   PAD
    0x08005dfc   0x08005dfc   0x00000020   Code   RO          370    i.USART2_IRQHandler  stm32f1xx_it.o
    0x08005e1c   0x08005e1c   0x00000054   Code   RO         1065    i.UpdateBatteryInfor  batteryinfor.o
    0x08005e70   0x08005e70   0x00000002   Code   RO          371    i.UsageFault_Handler  stm32f1xx_it.o
    0x08005e72   0x08005e72   0x00000002   PAD
    0x08005e74   0x08005e74   0x0000007c   Code   RO          650    i.UsartReceive_IDLE  uart.o
    0x08005ef0   0x08005ef0   0x00000354   Code   RO         1432    i.VelocityControl_4WD  velocitycontrol.o
    0x08006244   0x08006244   0x00000020   Code   RO         1198    i.WriteCmd          oled.o
    0x08006264   0x08006264   0x00000028   Code   RO         5928    i.__0sprintf        mc_w.l(printfa.o)
    0x0800628c   0x0800628c   0x00000028   Code   RO         6048    i.__ARM_fpclassify  m_ws.l(fpclassify.o)
    0x080062b4   0x080062b4   0x000000aa   Code   RO         6050    i.__kernel_poly     m_ws.l(poly.o)
    0x0800635e   0x0800635e   0x00000006   Code   RO         5989    i.__mathlib_dbl_infnan  m_ws.l(dunder.o)
    0x08006364   0x08006364   0x00000004   Code   RO         5990    i.__mathlib_dbl_infnan2  m_ws.l(dunder.o)
    0x08006368   0x08006368   0x00000010   Code   RO         5994    i.__mathlib_dbl_underflow  m_ws.l(dunder.o)
    0x08006378   0x08006378   0x0000000e   Code   RO         6060    i.__scatterload_copy  mc_w.l(handlers.o)
    0x08006386   0x08006386   0x00000002   Code   RO         6061    i.__scatterload_null  mc_w.l(handlers.o)
    0x08006388   0x08006388   0x0000000e   Code   RO         6062    i.__scatterload_zeroinit  mc_w.l(handlers.o)
    0x08006396   0x08006396   0x00000002   PAD
    0x08006398   0x08006398   0x00000184   Code   RO         5933    i._fp_digits        mc_w.l(printfa.o)
    0x0800651c   0x0800651c   0x000006dc   Code   RO         5934    i._printf_core      mc_w.l(printfa.o)
    0x08006bf8   0x08006bf8   0x00000024   Code   RO         5935    i._printf_post_padding  mc_w.l(printfa.o)
    0x08006c1c   0x08006c1c   0x0000002e   Code   RO         5936    i._printf_pre_padding  mc_w.l(printfa.o)
    0x08006c4a   0x08006c4a   0x0000000a   Code   RO         5938    i._sputc            mc_w.l(printfa.o)
    0x08006c54   0x08006c54   0x00000220   Code   RO         5979    i.atan              m_ws.l(atan.o)
    0x08006e74   0x08006e74   0x00000180   Code   RO         5681    i.atan2             m_ws.l(atan2.o)
    0x08006ff4   0x08006ff4   0x000002f0   Code   RO           15    i.main              main.o
    0x080072e4   0x080072e4   0x00000818   Data   RO         1200    .constdata          oled.o
    0x08007afc   0x08007afc   0x00000260   Data   RO         1296    .constdata          oled_display.o
    0x08007d5c   0x08007d5c   0x00000010   Data   RO         5346    .constdata          system_stm32f1xx.o
    0x08007d6c   0x08007d6c   0x00000008   Data   RO         5347    .constdata          system_stm32f1xx.o
    0x08007d74   0x08007d74   0x00000004   PAD
    0x08007d78   0x08007d78   0x00000098   Data   RO         5980    .constdata          m_ws.l(atan.o)
    0x08007e10   0x08007e10   0x00000008   Data   RO         6002    .constdata          m_ws.l(qnan.o)
    0x08007e18   0x08007e18   0x00000020   Data   RO         6058    Region$$Table       anon$$obj.o


    Execution Region RW_IRAM1 (Exec base: 0x20000000, Load base: 0x08007e38, Size: 0x00001180, Max: 0x0000c000, ABSOLUTE, COMPRESSED[0x000000c8])

    Exec Addr    Load Addr    Size         Type   Attr      Idx    E Section Name        Object

    0x20000000   COMPRESSED   0x00000002   Data   RW          562    .data               shareware.o
    0x20000002   COMPRESSED   0x00000002   Data   RW          563    .data               shareware.o
    0x20000004   COMPRESSED   0x00000002   Data   RW          564    .data               shareware.o
    0x20000006   COMPRESSED   0x00000002   Data   RW          565    .data               shareware.o
    0x20000008   COMPRESSED   0x00000002   Data   RW          567    .data               shareware.o
    0x2000000a   COMPRESSED   0x00000002   PAD
    0x2000000c   COMPRESSED   0x00000008   Data   RW          844    .data               adc1.o
    0x20000014   COMPRESSED   0x00000003   Data   RW          883    .data               i2c.o
    0x20000017   COMPRESSED   0x00000001   PAD
    0x20000018   COMPRESSED   0x00000022   Data   RW          966    .data               indicatordevice.o
    0x2000003a   COMPRESSED   0x0000000a   Data   RW         1025    .data               encoder.o
    0x20000044   COMPRESSED   0x00000004   Data   RW         1066    .data               batteryinfor.o
    0x20000048   COMPRESSED   0x00000008   Data   RW         1132    .data               mpu6050.o
    0x20000050   COMPRESSED   0x0000019d   Data   RW         1201    .data               oled.o
    0x200001ed   COMPRESSED   0x00000001   Data   RW         1297    .data               oled_display.o
    0x200001ee   COMPRESSED   0x00000002   Data   RW         1298    .data               oled_display.o
    0x200001f0   COMPRESSED   0x00000010   Data   RW         1433    .data               velocitycontrol.o
    0x20000200   COMPRESSED   0x0000000c   Data   RW         3608    .data               stm32f1xx_hal.o
    0x2000020c   COMPRESSED   0x00000004   Data   RW         5348    .data               system_stm32f1xx.o
    0x20000210   COMPRESSED   0x00000001   Data   RW         5384    .data               RC.lib(rc.o)
    0x20000211   COMPRESSED   0x00000003   PAD
    0x20000214        -       0x0000000c   Zero   RW          542    .bss                shareware.o
    0x20000220        -       0x0000000c   Zero   RW          543    .bss                shareware.o
    0x2000022c        -       0x0000000c   Zero   RW          544    .bss                shareware.o
    0x20000238        -       0x0000000c   Zero   RW          545    .bss                shareware.o
    0x20000244        -       0x0000000c   Zero   RW          546    .bss                shareware.o
    0x20000250        -       0x00000028   Zero   RW          547    .bss                shareware.o
    0x20000278        -       0x00000018   Zero   RW          548    .bss                shareware.o
    0x20000290        -       0x00000018   Zero   RW          549    .bss                shareware.o
    0x200002a8        -       0x00000018   Zero   RW          550    .bss                shareware.o
    0x200002c0        -       0x00000018   Zero   RW          551    .bss                shareware.o
    0x200002d8        -       0x0000000c   Zero   RW          552    .bss                shareware.o
    0x200002e4        -       0x0000000c   Zero   RW          553    .bss                shareware.o
    0x200002f0        -       0x0000000c   Zero   RW          554    .bss                shareware.o
    0x200002fc        -       0x0000000c   Zero   RW          555    .bss                shareware.o
    0x20000308        -       0x00000020   Zero   RW          556    .bss                shareware.o
    0x20000328        -       0x0000001c   Zero   RW          557    .bss                shareware.o
    0x20000344        -       0x0000001c   Zero   RW          558    .bss                shareware.o
    0x20000360        -       0x00000030   Zero   RW          559    .bss                shareware.o
    0x20000390        -       0x00000030   Zero   RW          560    .bss                shareware.o
    0x200003c0        -       0x00000048   Zero   RW          561    .bss                shareware.o
    0x20000408        -       0x00000040   Zero   RW          592    .bss                tim8.o
    0x20000448        -       0x000001c8   Zero   RW          652    .bss                uart.o
    0x20000610        -       0x00000044   Zero   RW          653    .bss                uart.o
    0x20000654        -       0x00000044   Zero   RW          655    .bss                uart.o
    0x20000698        -       0x00000040   Zero   RW          722    .bss                tim4.o
    0x200006d8        -       0x00000040   Zero   RW          752    .bss                tim2.o
    0x20000718        -       0x00000040   Zero   RW          782    .bss                tim3.o
    0x20000758        -       0x00000040   Zero   RW          812    .bss                tim5.o
    0x20000798        -       0x00000030   Zero   RW          842    .bss                adc1.o
    0x200007c8        -       0x00000044   Zero   RW          843    .bss                adc1.o
    0x2000080c        -       0x000000a8   Zero   RW          878    .bss                i2c.o
    0x200008b4        -       0x00000044   Zero   RW          881    .bss                i2c.o
    0x200008f8        -       0x00000044   Zero   RW          882    .bss                i2c.o
    0x2000093c        -       0x00000040   Zero   RW          933    .bss                tim1.o
    0x2000097c        -       0x00000400   Zero   RW         1199    .bss                oled.o
    0x20000d7c   COMPRESSED   0x00000004   PAD
    0x20000d80        -       0x00000400   Zero   RW            1    STACK               startup_stm32f103xe.o


==============================================================================

Image component sizes


      Code (inc. data)   RO Data    RW Data    ZI Data      Debug   Object Name

       100         14          0          8        116       1099   adc1.o
       728        204          0          4          0       1955   batteryinfor.o
       332         58          0         10          0       3157   encoder.o
       262         64          0          3        304       3311   i2c.o
       748         68          0         34          0       6531   indicatordevice.o
       366         12          0          0          0       1727   kalmanfilter.o
       304         24          0          0          0       1929   kinematics_mecanum.o
        84         20          0          0          0        487   loop.o
       874        128          0          0          0     516906   main.o
       400         82          0          0          0       6572   motorcontrol.o
       724         60          0          8          0       4450   mpu6050.o
       522         38       2072        413       1024       5324   oled.o
       584         74        608          3          0       3856   oled_display.o
       102          0          0          0          0       1436   pid.o
       264         42          0          0          0       1121   servo.o
         0          0          0         10        500       2465   shareware.o
        36          8        304          0       1024        796   startup_stm32f103xe.o
       164         28          0         12          0       3905   stm32f1xx_hal.o
      1306         68          0          0          0       9534   stm32f1xx_hal_adc.o
       226         14          0          0          0      26926   stm32f1xx_hal_cortex.o
      1222         52          0          0          0       5102   stm32f1xx_hal_dma.o
       510         42          0          0          0       3493   stm32f1xx_hal_gpio.o
      4284         96          0          0          0      27058   stm32f1xx_hal_i2c.o
      1692        160          0          0          0       5693   stm32f1xx_hal_msp.o
      1276        100          0          0          0       5836   stm32f1xx_hal_rcc.o
       232         12          0          0          0       1464   stm32f1xx_hal_rcc_ex.o
      1434         64          0          0          0      12857   stm32f1xx_hal_tim.o
       174          0          0          0          0       3214   stm32f1xx_hal_tim_ex.o
      1434         24          0          0          0      10042   stm32f1xx_hal_uart.o
       262         92          0          0          0      11049   stm32f1xx_it.o
        72         16         24          4          0       1179   system_stm32f1xx.o
       176          8          0          0         64        855   tim1.o
       116          8          0          0         64       1079   tim2.o
        96          8          0          0         64        763   tim3.o
        96          8          0          0         64        763   tim4.o
        96          8          0          0         64        763   tim5.o
       176          8          0          0         64        855   tim8.o
       352         38          0          0        592       4090   uart.o
       852         72          0         16          0       1458   velocitycontrol.o

    ----------------------------------------------------------------------
     22720       1822       3044        528       3948     701100   Object Totals
         0          0         32          0          0          0   (incl. Generated)
        42          0          4          3          4          0   (incl. Padding)

    ----------------------------------------------------------------------

      Code (inc. data)   RO Data    RW Data    ZI Data      Debug   Library Member Name

        52          0          0          0          0       1794   lowpassfilter.o
       632         24          0          1          0       5774   rc.o
       544         70        152          0          0        124   atan.o
       384         38          0          0          0        144   atan2.o
        26          6          0          0          0        204   dunder.o
        40          0          0          0          0         68   fpclassify.o
       170          0          0          0          0         96   poly.o
         0          0          8          0          0          0   qnan.o
        86          0          0          0          0          0   __dczerorl2.o
         0          0          0          0          0          0   entry.o
         0          0          0          0          0          0   entry10a.o
         0          0          0          0          0          0   entry11a.o
         8          4          0          0          0          0   entry2.o
         4          0          0          0          0          0   entry5.o
         0          0          0          0          0          0   entry7b.o
         0          0          0          0          0          0   entry8b.o
         8          4          0          0          0          0   entry9a.o
        30          0          0          0          0          0   handlers.o
        36          8          0          0          0         68   init.o
         0          0          0          0          0          0   iusefp.o
        30          0          0          0          0         68   llshl.o
        36          0          0          0          0         68   llsshr.o
        32          0          0          0          0         68   llushr.o
      2276         86          0          0          0        520   printfa.o
        44          0          0          0          0         80   uidiv.o
        98          0          0          0          0         92   uldiv.o
        48          0          0          0          0         68   cdrcmple.o
        20          0          0          0          0         68   cfcmple.o
        20          0          0          0          0         68   cfrcmple.o
        56          0          0          0          0         88   d2f.o
       334          0          0          0          0        148   dadd.o
       222          0          0          0          0        100   ddiv.o
       186          0          0          0          0        176   depilogue.o
        48          0          0          0          0         68   dfixul.o
       228          0          0          0          0         96   dmul.o
        46          0          0          0          0         80   dscalb.o
        38          0          0          0          0         68   f2d.o
       176          0          0          0          0        140   fadd.o
       124          0          0          0          0         88   fdiv.o
       110          0          0          0          0        168   fepilogue.o
        40          0          0          0          0         68   ffixui.o
        18          0          0          0          0         68   fflti.o
        10          0          0          0          0         68   ffltui.o
       100          0          0          0          0         76   fmul.o
        24          0          0          0          0         68   fscalb.o

    ----------------------------------------------------------------------
      6388        240        160          4          0      10940   Library Totals
         4          0          0          3          0          0   (incl. Padding)

    ----------------------------------------------------------------------

      Code (inc. data)   RO Data    RW Data    ZI Data      Debug   Library Name

        52          0          0          0          0       1794   LowPassFilter.lib
       632         24          0          1          0       5774   RC.lib
      1164        114        160          0          0        636   m_ws.l
      2688        102          0          0          0        964   mc_w.l
      1848          0          0          0          0       1772   mf_w.l

    ----------------------------------------------------------------------
      6388        240        160          4          0      10940   Library Totals

    ----------------------------------------------------------------------

==============================================================================


      Code (inc. data)   RO Data    RW Data    ZI Data      Debug   

     29108       2062       3204        532       3948     699532   Grand Totals
     29108       2062       3204        200       3948     699532   ELF Image Totals (compressed)
     29108       2062       3204        200          0          0   ROM Totals

==============================================================================

    Total RO  Size (Code + RO Data)                32312 (  31.55kB)
    Total RW  Size (RW Data + ZI Data)              4480 (   4.38kB)
    Total ROM Size (Code + RO Data + RW Data)      32512 (  31.75kB)

==============================================================================

