:020000040800F2
:10000000C007002091010008B90D0008830800080E
:10001000B50D0008630700086F1600080000000017
:10002000000000000000000000000000590F000860
:100030006707000800000000410E000821110008B9
:10004000AB010008AB010008AB010008AB010008E0
:10005000AB010008AB010008AB010008AB010008D0
:10006000AB010008AB010008AB010008AB010008C0
:10007000AB010008AB010008AB010008AB010008B0
:10008000AB010008AB010008AB010008AB010008A0
:10009000AB010008AB010008AB010008AB01000890
:1000A000AB010008AB010008AB010008AB01000880
:1000B000AB01000885110008AB010008AB01000886
:1000C000AB010008AB010008AB010008AB01000860
:1000D000AB0100084D140008AB010008AB0100089B
:1000E000AB010008AB010008AB01000800F002F80A
:1000F00000F03FF80AA090E8000C82448344AAF183
:100100000107DA4501D100F034F8AFF2090EBAE880
:100110000F0013F0010F18BFFB1A43F0010318473B
:100120004065000060650000103A24BF78C878C1BF
:10013000FAD8520724BF30C830C144BF04680C60ED
:10014000704700000023002400250026103A28BF35
:1001500078C1FBD8520728BF30C148BF0B60704739
:10016000642900F06780002070471FB51FBD10B5DF
:1001700010BD00F0CBFA1146FFF7F7FF03F039F896
:1001800000F0E9FA03B4FFF7F2FF03BC01F0F5FA5F
:100190000948804709480047FEE7FEE7FEE7FEE71B
:1001A000FEE7FEE7FEE7FEE7FEE7FEE70448054957
:1001B000054A064B7047000025110008ED000008B5
:1001C000C0010020C0070020C0030020C0030020A1
:1001D000704710B54C1084EA530404D54042C1F175
:1001E000000138BF491E1B4204D55242C3F100032F
:1001F00038BF5B1E00F02EF914F0804F04D040424F
:10020000C1F1000138BF491E14F0004F04D0524222
:10021000C3F1000338BF5B1E10BD00000FB40449DA
:1002200010B503AA029800F0F1F910BC5DF814FBB8
:100230006C0000202DE9F041064600241068752965
:10024000314616A510D0AFF30080002802DA4042F4
:1002500013A507E031688A0701D512A502E0490716
:1002600004D511A5012401E0AFF3008000210A228A
:1002700006F1240709E0B0FBF2FCB0FBF2F302FB4D
:100280001C00303078541846491C0028F3D123460E
:100290002A463046BDE8F04100F05EB9000000009B
:1002A0002D0000002B000000200000002DE9F05F71
:1002B000894604464FF0000ADFF824B1FB44C0F839
:1002C00020A02046E168884700287DD0252806D058
:1002D000D4E901219047206A401C2062F1E7002503
:1002E0005F462046E16888472028064607DB312E16
:1002F00005D2B81910F8200C08B10543F1E7A8079A
:1003000001D525F00405C4F81CA00027C4F818A0E6
:100310002A2E09D0304601F029FA38B304EB8708B9
:10032000303EC8F8186019E059F8041B204604EB69
:1003300087029161E1688847012F064618D1E0697C
:10034000002820DA25F020051DE0D8F8180000EB81
:10035000800006EB40003038C8F818002046E168FD
:100360008847064601F002FA0028EED1012F0AD094
:100370002E2E08D12046E16888477F1C0646022FB2
:1003800045F02005C4DBA069002803DA404245F0AF
:100390000105A061E80701D025F01005A6B1A6F17E
:1003A0004100192802D8203645F400654A463146F6
:1003B000204625604D46FFF7D3FE60B1012807D0E7
:1003C000ED1D25F0070000E007E000F1080978E7DF
:1003D00005F1040975E730467AE7206ABDE8F09F29
:1003E0004A62000040EA010310B59B070FD1042ABE
:1003F0000DD310C808C9121F9C42F8D020BA19BAF0
:10040000884201D9012010BD4FF0FF3010BD1AB154
:10041000D30703D0521C07E0002010BD10F8013BA9
:1004200011F8014B1B1B07D110F8013B11F8014BD0
:100430001B1B01D1921EF1D1184610BD02F0FF0323
:1004400043EA032242EA024200F0F4B870477047E0
:100450007047704753EA020C00F069802DE9F04BB9
:100460004FF00006002B1FBFB3FA83F503FA05F423
:1004700024FA05F65E4012BF1643B2FA82F502FA7C
:1004800005F4C5F120051EBF22FA05FC44EA0C0460
:10049000203556EA044C4FEA144418BF641C4FF050
:1004A00000084FF00009904271EB030C39D300298A
:1004B00019BFB1FA81F701FA07F6B0FA80F700FA2E
:1004C00007F6C7F120071EBF20FA07FC46EA0C0614
:1004D0002037B6FBF4FCA7EB0507103F07F01F0B16
:1004E000CBF120060CFA0BFB2CFA06F644BFB34600
:1004F0000026202FA4BF5E464FF0000B5BEA060CDF
:1005000008BF4FF0010B19EB0B09ABFB027C48EB6A
:100510000608C01B06FB02CC0BFB03CC71EB0C01E5
:10052000C1E70B46024641464846BDE8F08B13B58D
:100530004FF000004FF00001AFF30080BDE81C4019
:10054000704710B500F096F8006810BD10B504466D
:1005500000F090F8046010BD2DE9F0470D46994673
:100560009246044600F124080168880604D5E06933
:1005700021F01001216000E00120A84201DD471BAD
:1005800000E00027A1697A1902EB0900081AA061AE
:100590002078C00602D42046AFF30080002608E091
:1005A000D4E901211AF806009047206A401C761C05
:1005B00020624E45F4DB2078C0060AD52046AFF312
:1005C000008006E0D4E9012130209047206A401CD9
:1005D0002062381EA7F10107F4DC07E0D4E901210D
:1005E00018F805009047206A401C2062281EA5F1DB
:1005F0000105F3DC2046AFF300802078000602D529
:100600000220BDE8F0870120FBE70000074B70B532
:100610000D467B4400F037F80446284600F046F8C3
:1006200010B14FF0FF3070BD204670BD172500009F
:100630004FF000020429C0F0128010F0030C00F00B
:100640003B80CCF1040CBCF1020F18BF00F8012B69
:10065000A8BF20F8022BA1EB0C0100F02DB85FEA37
:10066000C17C24BF00F8012B00F8012B48BF00F823
:10067000012B7047004870476001002001694A1C47
:1006800002610878704700B58FB0CDE901310021D3
:10069000059105497944CDE9031011466846FFF7F5
:1006A00005FE0FB000BD0000E5FFFFFF007B00F07E
:1006B000800070474FF0000200B5134694469646FE
:1006C000203922BFA0E80C50A0E80C50B1F1200165
:1006D000BFF4F7AF090728BFA0E80C5048BF0CC013
:1006E0005DF804EB890028BF40F8042B08BF704771
:1006F00048BF20F8022B11F0804F18BF00F8012BE3
:100700007047000000487047600100207546FFF701
:10071000F9FFAE4605006946534620F007008546BE
:1007200018B020B5FFF742FDBDE820404FF00006AD
:100730004FF000074FF000084FF0000B21F00701C9
:10074000AC46ACE8C009ACE8C009ACE8C009ACE80C
:10075000C0098D4670470446AFF300802046FFF77E
:1007600011FD00BFFEE770472DE9F041024600256C
:100770000026002000230024002791F803C00CF07D
:100780000F0591F803C00CF0100CBCF1000F03D062
:1007900091F802C04CEA050591F800C0BCF1000FC9
:1007A00031D0146800202BE04FF0010C0CFA00F35C
:1007B000B1F800C00CEA03069E4220D183004FF03E
:1007C0000F0C0CFA03F7BC4305FA03FC4CEA0404D3
:1007D00091F803C0BCF1280F06D14FF0010C0CFAC0
:1007E00000FCC2F814C00AE091F803C0BCF1480F45
:1007F00005D14FF0010C0CFA00FCC2F810C0401CEF
:100800000828D1D31460B1F800C0BCF1FF0F34DD6B
:10081000546800202EE000F1080C4FF0010808FA9F
:100820000CF3B1F800C00CEA03069E4221D183000C
:100830004FF00F0C0CFA03F7BC4305FA03FC4CEA2B
:10084000040491F803C0BCF1280F05D100F1080C95
:1008500008FA0CF8C2F8148091F803C0BCF1480FF4
:1008600007D100F1080C4FF0010808FA0CF8C2F8A3
:100870001080401C0828CED35460BDE8F08101618F
:10088000704700BFFEE7000008B50121042000F01A
:10089000E9FA10208DF8030003208DF802004FF4D0
:1008A0008070ADF8000069460448FFF75DFF4FF423
:1008B00080710248FFF7E3FF08BD00000008014017
:1008C00010B500200E4908600E48006820F0704006
:1008D0000C4908600846006840F04050086000205D
:1008E0000949C1F89C0100F011F801200449086091
:1008F00000F00CF800200449C1F8980110BD000078
:1009000098812142000C01400080214210B5022054
:1009100001F00CFB10BD000008B50121082000F01B
:10092000A1FAC020ADF8000010208DF803000320CC
:100930008DF8020069460448FFF716FFC0210248FF
:10094000FFF79DFF08BD0000000C014010B500201E
:100950000E4908600E48006820F070400C4908609D
:100960000846006840F04050086001200949C1F87D
:100970009C01FFF7CBFF012004490860FFF7C6FF89
:1009800000200449C1F8980110BD0000988121425F
:10099000000C01400080214270B505460024164835
:1009A000006820F07040144908600846006840F074
:1009B00000400860002614E0002010490860FFF79E
:1009C000A5FF01200E49C1F898016006040E0B48EE
:1009D0007C38006808B1601CC4B2FFF797FF701C38
:1009E000C6B2082EE8DB15B9FFF7B0FF01E0FFF74C
:1009F00067FF204670BD0000000C01409881214235
:100A00000080214270B504461248006820F0704012
:100A1000104908600846006840F040500860002017
:100A20000D490860002512E0E0090B49091D086026
:100A30006006040E01200949C1F89801FFF766FF1E
:100A4000002005490860FFF761FF681CC5B2082D4A
:100A5000EADB70BD000C01409881214200802142F8
:100A600010B50E48006820F070400C490860084638
:100A7000006840F0405008600120094908600949B9
:100A8000C1F89801FFF742FF002005490860FFF711
:100A90003DFF00200349C1F8980110BD000C014042
:100AA0009C8121420080214210B50E48006820F050
:100AB00070400C4908600846006840F040500860EB
:100AC0000020094908600949C1F89C01FFF71EFF91
:100AD0000120054908600549C1F89C01FFF716FF90
:100AE00010BD0000000C014098812142008021428D
:100AF00010B500241448006820F0704012490860C6
:100B00000846006840F00040086001200F49086076
:100B1000FFF7FCFE01200E49C1F89801FFF7F6FE31
:100B200007E0601CC4B2FA2C03DDFFF7BDFF012013
:100B300010BD0648803800680028F2D10349091F1B
:100B4000086000BFF4E70000000C01409C812142D6
:100B50000080214210B5FFF7DFFE80216B2000F0FE
:100B6000D7F8642001F0BCF900216B2000F0D0F828
:100B7000032000F08BF8002000F080F8322000F015
:100B8000AAF80021382000F0C3F800216A2000F004
:100B9000BFF80021232000F0BBF88021372000F0AF
:100BA000B7F8752000F013F80446682C0BD101212A
:100BB0006B2000F0ADF800216C2000F0A9F8322085
:100BC00000F089F801E0012010BD0020FCE770B5BD
:100BD0000446FFF745FFD020FFF714FFFFF788FF1B
:100BE0002046FFF70FFFFFF783FFFFF739FFD12004
:100BF000FFF708FFFFF77CFF0020FFF7CDFE05465B
:100C0000FFF752FF284670BD2DE9F04106460F461A
:100C100014461D46FFF724FF002141EA4601C8B2F1
:100C2000FFF7F0FEFFF764FF20B1FFF73DFF012063
:100C3000BDE8F0813846FFF7E5FEFFF759FFFFF703
:100C40000FFF012101EB4601C8B2FFF7DBFEFFF702
:100C50004FFF0DE0012C04D10020FFF79DFE28700E
:100C600003E00120FFF798FE2870601EC4B26D1CDF
:100C7000002CEFD1FFF718FF0020D9E710B504468C
:100C8000E006010E1C2000F043F810BD10B504462C
:100C9000E006010E1B2000F03BF810BD70B50446C5
:100CA0000025BC2C01DB012510E0622C01DB0225B4
:100CB0000CE02A2C01DB032508E0142C01DB0425C1
:100CC00004E00A2C01DB052500E0062529461A2050
:100CD00000F01EF870BD70B50446B4F57A7F01DDF2
:100CE0004FF47A74042C00DA04244FF47A7090FBE9
:100CF000F4F0401EC5B22946192000F009F8054657
:100D0000264604EBD671C1F34F00FFF7C7FF70BD55
:100D100070B505460C46FFF7A3FED020FFF772FE24
:100D2000FFF7E6FE18B1FFF7BFFE012070BD2846B1
:100D3000FFF768FEFFF7DCFE2046FFF763FEFFF7D4
:100D4000D7FE18B1FFF7B0FE0120EFE7FFF7ACFECA
:100D50000020EBE72DE9F04105460E461746984680
:100D6000FFF77EFE002141EA4501C8B2FFF74AFEC7
:100D7000FFF7BEFE20B1FFF797FE0120BDE8F0812E
:100D80003046FFF73FFEFFF7B3FE00240CE018F8F3
:100D90000400FFF737FEFFF7ABFE18B1FFF784FE44
:100DA0000120EBE7601CC4B2BC42F0DBFFF77CFE25
:100DB0000020E3E700BFFEE77047000070B50021A8
:100DC00000230F22C47804B3154C246804F4E064B3
:100DD000C4F5E064210AC1F10403CA40447804FA6E
:100DE00003F184781440214309010E4C0678A15583
:100DF000047804F01F050124AC4005786D11AD00A6
:100E000005F1E025C5F8004109E0047804F01F056C
:100E10000124AC40044D0678761145F8264070BD9B
:100E20000CED00E000E400E080E100E00249014355
:100E3000024A1160704700000000FA050CED00E066
:100E40007047000029B1064AD2690243044BDA61B7
:100E500004E0034AD2698243014BDA617047000023
:100E60000010024029B1064A92690243044B9A617C
:100E700004E0034A92698243014B9A617047000083
:100E80000010024030B500210022002400232D4D27
:100E90006D6805F00C0121B1042905D0082923D182
:100EA00005E0294D056022E0274D05601FE0254D36
:100EB0006D6805F47012234D6D6805F480340225C9
:100EC00005EB92421CB9214D554305600BE01D4DC9
:100ED0006D6805F400351DB11C4D5543056002E0F9
:100EE000194D5543056002E0174D056000BF00BF76
:100EF000144D6D6805F0F0010909154D6B5C05682E
:100F0000DD4045600F4D6D6805F4E061090A104D44
:100F10006B5C4568DD4085600A4D6D6805F4605185
:100F2000C90A0B4D6B5C4568DD40C560054D6D68B9
:100F300005F44041890B074D6B5CC568B5FBF3F5C3
:100F4000056130BD0010024000127A0000093D002A
:100F500072000020820000207047000010B54FF49E
:100F6000A060FFF763FF00F099FF4FF4E13003F05A
:100F70002DFBFFF789FCFFF7EDFD16E01448006834
:100F800008B9012000E0002011490860322000F07B
:100F9000A7FF1048D0F8A00108B9012000E0002008
:100FA0000B4908600CA0FFF739F902F075FA002828
:100FB000E4D110A0FFF732F940F2E73000F090FFE3
:100FC00041F61F4140F2F31000F094F910BD00000B
:100FD000A001214200002142496E697469616C6977
:100FE0007A6174696F6E206661696C6564A3A10D96
:100FF0000A000000496E697469616C697A617469FC
:101000006F6E2073756363656564A3A10D0A0000AC
:1010100010B500F001F810BD0CB500200190009053
:101020003348006840F480303149086000BF3048E0
:10103000006800F4003000900198401C0190009876
:1010400018B90198B0F5A06FF1D12948006800F4F3
:10105000003010B10120009001E0002000900098C5
:10106000012843D12348006840F01000214908605E
:101070000846006820F0030008600846006840F059
:10108000020008601A4840681949486008464068EC
:1010900048600846406840F4806048600846406800
:1010A00020F47C1048600846406840F4E81048602E
:1010B0000846006840F08070086000BF0C48006877
:1010C00000F000700028F9D00948406820F00300C3
:1010D000074948600846406840F00200486000BF89
:1010E0000348406800F00C000828F9D10CBD00004E
:1010F0000010024000200240042808D14FF0E021F7
:10110000096941F004014FF0E022116107E04FF05E
:10111000E021096921F004014FF0E02211617047DC
:101120007047000010B51348006840F001001149F5
:10113000086008464068104908400E494860084663
:1011400000680E4908400B4908600846006820F412
:10115000802008600846406820F4FE0048604FF494
:101160001F008860FFF754FF4FF0006004490860DB
:1011700010BD0000001002400000FFF8FFFFF6FE67
:1011800008ED00E070B50121474800F0F2F80028B2
:101190007DD00121444800F0DDF8444A44494548E7
:1011A00002F068F800287ED143494248006804F004
:1011B0009DF9044604F0FEF800B240490880084654
:1011C000B0F90000002804DA08460088404200B266
:1011D00008803A48B0F900000A2190FBF1F201FBC7
:1011E00012043648B0F9000090FBF1F5224629467A
:1011F00033A0FFF713F830492D48006804F076F962
:10120000044604F0D7F800B22C4908800846B0F92B
:101210000000002804DA08460088404200B2088036
:101220002648B0F900000A2190FBF1F201FB1204FC
:101230002248B0F9000090FBF1F52246294624A08F
:10124000FEF7ECFF1C491948006804F04FF904460A
:1012500004F0B0F800B2194908800846B0F900005F
:10126000002804DA08460088404200B2088013488B
:10127000B0F900000A2190FBF1F201FB12040F48C3
:10128000B0F9000090FBF1F52246294600E00AE0A3
:1012900013A0FEF7C3FF1648006808B9012000E05C
:1012A00000201349086070BD0004004008000020C1
:1012B0000400002000000020000020411800002051
:1012C0002070697463683A25642E2564200000004C
:1012D00020726F6C6C3A25642E256420000000009B
:1012E000207961773A25642E2564200D0A000000DC
:1012F000A00121427FB505460C4601210220FFF7DF
:10130000A1FDADF80850ADF804400020ADF80A008A
:10131000ADF8060001A90E4800F046F8012211467A
:101320000B4800F037F81D208DF8000000208DF8E4
:10133000010003208DF8020001208DF803006846AB
:10134000FFF73CFD0121024800F007F87FBD0000D7
:1013500000040040CA430282704721B1028842F073
:101360000102028004E002884FF6FE731A400280F8
:10137000704730B50246002000230024158A05EA94
:101380000103958905EA010413B10CB1012000E0C5
:10139000002030BD1AB183890B43838102E0838929
:1013A0008B43838170470000002202881D4B9842C6
:1013B0000ED01D4B98420BD0B0F1804F08D01B4B84
:1013C000984205D01A4B984202D01A4B984204D149
:1013D0004FF68F731A404B881A43174B984207D029
:1013E000164B984204D04FF6FF431A40CB881A435D
:1013F00002808B8883850B8803850A4B98420BD02B
:10140000094B984208D00E4B984205D00D4B98429C
:1014100002D00D4B984201D10B7A038601238382BF
:1014200070470000002C01400034014000040040DF
:1014300000080040000C0040001000400014004074
:1014400000400140004401400048014010B540F216
:1014500025511D4800F04AF810B31B4800F002F96E
:10146000C4B21A48008800F40040C8B91748008880
:1014700000F4804060B10A2C03D00020134908809A
:1014800020E01248008840F400401049088019E02C
:101490000D2C06D10D48008840F480400B4908808F
:1014A00010E00A480088C0F30D0009490C540748B1
:1014B0000088401C0549088008460088C72801DDCF
:1014C0000020088010BD000000380140700000209E
:1014D0009800002021B1828942F40052828104E008
:1014E00082894DF6FF731A408281704770B50246BB
:1014F000002400230025002040F66A16B14200D1E6
:1015000000BFC1F3421501F01F03012606FA03F3E1
:10151000012D02D19689334006E0022D02D1168AB0
:10152000334001E0968A33400C12012606FA04F497
:101530001688344013B10CB1012000E0002070BDCA
:10154000F0B50346002400260025002040F66A1767
:10155000B94200D100BF1846C1F3421401F01F0682
:10156000012707FA06F5012C01D10C3004E0022C0A
:1015700001D1103000E014301AB107682F43076022
:1015800002E00768AF430760F0BD00002DE9F047B7
:1015900086B005460E460024A24600BFA14600279D
:1015A000B08900B100BF2F462C8A4CF6FF70044072
:1015B000F08804432C82AC894EF6F3100440B088C6
:1015C00031890843718908430443AC81AC8A4FF6E2
:1015D000FF400440B0890443AC8201A8FFF752FCED
:1015E0001F48874202D1DDF810A001E0DDF80CA011
:1015F000A88900F4004040B10AEBCA0000EB0A10D1
:1016000031684900B0FBF1F807E00AEBCA0000EBD3
:101610000A1031688900B0FBF1F86420B8FBF0F0E3
:1016200004012009642101FB1089A88900F400400D
:1016300040B1322000EBC900B0FBF1F000F0070030
:10164000044308E0322000EB09106421B0FBF1F004
:1016500000F00F0004432C8106B0BDE8F0870000C5
:101660000038014001468888C0F30800704700BF79
:10167000FEE7490050EAC12018BF04204A0D18BFF8
:1016800040F0010040F2FF72B2EB515F08BF40F042
:101690000200012808BF052070472DE9F0414F1EC8
:1016A00000EBC7010446D1E9000115461E4637F09C
:1016B00006020DD02A46334603F012FA7F1E04EBD1
:1016C000C703D3E9002303F003F837F00602F1D192
:1016D000022F25D0042F13D0062F18BFBDE8F081AC
:1016E0002A46334603F0FCF9D4E90A2302F0F0FF5E
:1016F0002A46334603F0F4F9D4E9082302F0E8FF60
:101700002A46334603F0ECF9D4E9062302F0E0FF61
:101710002A46334603F0E4F9D4E9042302F0D8FF63
:101720002A46334603F0DCF9D4E9022302F0D0FF65
:101730002A46334603F0D4F9D4E90023BDE8F0414A
:1017400002F0C6BF012204F076B802F0C1BF002249
:1017500013461046114603F06BB80000024A002001
:10176000110704F068B8000001FDFFFF30380A28B7
:1017700001D2012070470020704700BF7047000071
:101780002DE9FE4F06460F460025684601F0DCF9BC
:10179000002442E056F8240057F82410A0EB010A78
:1017A000BAF1000F01DB514601E0CAF10001084621
:1017B00003F03CFE83464FF08F4103F005FD804669
:1017C0005DF82400002103F0C1FD16D05DF824105F
:1017D000404603F0F9FC82464FF07E5103F084FF4F
:1017E000814629F0004A0F48416A504603F04AFFFB
:1017F00012D20120A04005430EE00A48C1694046CC
:1018000003F040FE05D30748016A404603F03AFF63
:1018100002D20120A0400543641C032CBADB2846F9
:10182000BDE8FE8FEC5800082DE9F04D8D4F21F0FA
:10183000004A86B005460C46BA452ADBAAEB0700EB
:1018400028430AD08848824501DC1AD1CDB106B0C0
:101850002846BDE8F04DFFF775BF844A844B284603
:1018600003F03EF907460E46824A834B284621463E
:1018700003F036F906B03A463346BDE8F04D02F0C3
:1018800027BF0120FEF762FE06B0BDE8F04DFFF76E
:101890005EBF7A48824542DABAF1795F0BDA2846B0
:1018A000FFF7E7FE042808BFFFF758FF284606B0F9
:1018B0002146BDE8F08D2A460B46104603F010F98C
:1018C000834602466E480E460B4606217844FFF7D3
:1018D000E4FE5A46334603F003F9804669488A46D7
:1018E0005A46334604217844FFF7D7FE5A4633461A
:1018F00003F0F6F800223B4602F0EAFE02460B46F1
:101900004046514602F094FF2A46234603F0E8F889
:1019100006B02A462346BDE8F04D02F0D9BE28465F
:1019200024F0004100223D463B4603F0D7F94FF03A
:10193000FF3203F080FF0646024653480F460B462F
:1019400006217844FFF7A9FE32463B4603F0C8F86B
:10195000CDE900014D4832463B4604217844FFF76B
:101960009CFE32463B4603F0BBF800222B4602F0B9
:10197000AFFE834602913046394602F001FE8046B2
:1019800043480D46504517DCDDE900015A46029BED
:1019900002F04EFF42462B4603F0A2F842462B4689
:1019A00002F096FE012203F046FF304A304B03F06E
:1019B00087FA304A304B4CE04FF0000A52460B4653
:1019C000404602F085FECDE9031052462B461046F4
:1019D000194603F085F832463B4603F07FF9DDE90E
:1019E000033202F025FF06460F46DDE900015A46A4
:1019F000029B02F01DFF83460091012230463946CA
:101A000003F019FF194A1A4B03F068F906460F460E
:101A100001224046294603F00EFF5A46009B03F080
:101A20005FF832463B4603F04BFA06460F4601226A
:101A30005046294603F0FFFE0E4DDFF858802A4637
:101A4000434603F04BF932463B4603F047F92A463A
:101A5000434603F043F9002CD8BF81F0004106B0A3
:101A6000BDE8F08D0000F03F0000F07F075C14330C
:101A700026A6913C182D4454FB21F93F0000E03F7D
:101A8000504C0000664C0000DA4B0000F04B0000A8
:101A90003333EF3FFB21E93F2DE9F84F04460D4674
:101AA00021F0004000917349814211DC7249884263
:101AB00001DC06D12CB120462946BDE8F84FFFF7DE
:101AC00041BE6E48002DCCBF6D496E49BDE8F88F10
:101AD0006D49814211DD6D498142D8BF4FF0FF361B
:101AE0006DDD20462946FFF7C4FD042808BFFFF737
:101AF00035FE20462946BDE8F88F6549654F25F03B
:101B00000045814233DD6449814219DD00263246B9
:101B10004FF080432046294602F0DAFD80468A468F
:101B200001222046294603F086FE00223B4603F0B0
:101B3000C7F94246534602F07BFE04460D463EE09E
:101B400001260022BA463B462046294602F0C0FD47
:101B500080460F46002253462046294603F0B0F93E
:101B600042463B4602F064FE04460D4627E04B49E0
:101B700081421BDDDFF828A10226002253462046C1
:101B8000294602F0ADFF00223B4602F0A1FD80464F
:101B90000F46002253462046294603F091F942465B
:101BA0003B4602F045FE04460D4608E00326224669
:101BB0002B4600203B4902F03BFE04460D462246E0
:101BC0002B461046194602F08BFF8B468246024692
:101BD0000B4602F085FF07460246334888460B460F
:101BE00006217844FFF759FD52465B4602F078FF24
:101BF00082462E488B463A46434605217844FFF7F5
:101C00004CFD3A46434602F06BFF02460B46002E5F
:101C1000504659460CDA02F05BFD22462B4602F094
:101C20005FFF01B022462B46BDE8F04F03F056B8E7
:101C300002F04EFD22462B4602F052FF1C4A7A4427
:101C400002EBC603D3E9002303F03AF922462B4600
:101C500003F036F9174A7A4402EBC603D3E90023AE
:101C600003F03CF8009A002AB8BF81F00041BDE8BB
:101C7000F88F0000000010440000F07F182D44543D
:101C8000FB21F93FFB21F9BF0000DC3F0000203EB3
:101C90000000F33F0000F03F0000E63F00800340FB
:101CA0000000F83F0000F0BFF2490000B04900001A
:101CB0004E490000164900002DE9F04D9446CCF144
:101CC000000423F000464CEA0404524F46EAD47460
:101CD0009A46884621F00042BC4206D8454240EA76
:101CE000050442EAD474BC4204D9BDE8F04D624612
:101CF000FFF72BBDAAF14055A5F17F6555EA0C040D
:101D00000BD0022404EAAA74434DDFF810E144EA40
:101D1000D87452EA000B04D00CE0BDE8F04DFFF798
:101D2000BBBE002C14BF012CBDE8F08D022C30D0BE
:101D3000032C32D056EA0C0B0AD0BE4220D1BA4254
:101D400009D126F0804622F080423346114617E042
:101D500000291ADB25E0DFF8C8B0FB44002C04BFE3
:101D6000DBE90001BDE8F08D012C02BFDBE90001D9
:101D700081F00041BDE8F08D022C0AD0032C0CD07C
:101D8000BA4212D1B8F1000F0BDA23482549BDE859
:101D9000F08D28462449BDE8F08D28467146BDE8FF
:101DA000F08D1D482149BDE8F08D921B12153C2A8B
:101DB000C4BF19481D490EDCBAF1000FBEBF12F1B5
:101DC0003C0F0020014606DB624602F031FD21F0A7
:101DD0000041FFF761FE002C08BFBDE8F08D012C2B
:101DE00004BF81F00041BDE8F08D114A114B022C77
:101DF00007D003F065F82A46BDE8F04D0A4B03F022
:101E00005FB803F05DF82A46BDE8F04D064B02F0DE
:101E100065BF00000000F07F182D4454FB2109C06D
:101E2000AA480000FB21F9BFFB210940FB21F93F33
:101E3000075C143326A6A13C2DE9F0410446E07866
:101E400000F0C006E07800F03F05607800F0010087
:101E500098B1EF102846E91705EB5171C910A5EBB1
:101E6000C101491C01F0FF080B48006820B10A4875
:101E7000414602683846904700BF607800F008008D
:101E800030B10548406818B1B011034A516888471D
:101E90000020BDE8F08100008800002010B56FF040
:101EA0000400FFF729F90A4800680A49B0FBF1F07D
:101EB000094908700846007800EB4001C1EBC010EA
:101EC0004FF6FF7101EAC0000449088010BD000010
:101ED0001C00002000127A0066000020680000202C
:101EE0000146114A12884A434FF0E0235A6100220A
:101EF0009A611A46126942F001021A6100BF4FF05E
:101F0000E022106900F001021AB100F48032002AC8
:101F1000F5D04FF0E022126922F001024FF0E023E9
:101F20001A6100229A617047680000200146114A38
:101F300012784A434FF0E0235A6100229A611A4610
:101F4000126942F001021A6100BF4FF0E0221069ED
:101F500000F001021AB100F48032002AF5D04FF0EF
:101F6000E022126922F001024FF0E0231A61002200
:101F70009A6170476600002038B5044664B120209D
:101F80008DF8000028208DF8010030208DF8020027
:101F900038208DF8030004E0A32204216846FEF7F0
:101FA0004DFA6A46042140F69E2002F017FA01F02D
:101FB00001FE38BD3EB5044602208DF80000CA205F
:101FC0008DF80100E3208DF8020009208DF8030050
:101FD0006A460421682002F001FAA3208DF800006F
:101FE00004F0400048B1C0208DF80100C8208DF8F1
:101FF0000200C2208DF8030006E0A3208DF8010046
:102000008DF802008DF8030004F4C07048B1C420BC
:102010008DF80400CC208DF80500C6208DF8060050
:1020200006E0A3208DF804008DF805008DF8060069
:10203000A3208DF807008DF808008DF809006A4686
:102040000A2140F6A72002F0C9F904F0030018B1F4
:1020500020208DF8000002E0D8208DF800006A46AC
:10206000012140F6B62002F0B9F904F0200018B1C1
:10207000012000F0ADF802E0002000F0A9F804F41F
:10208000C07008B304F4807060B1B2208DF8000015
:102090008B208DF80100B6208DF802009B208DF872
:1020A00003000BE0B0208DF8000080208DF80100C7
:1020B000B4208DF8020090208DF803006A460421B8
:1020C00040F6A22002F08AF904F0010020B3F820C3
:1020D0008DF800006A4601214FF40B6002F07EF992
:1020E000FA21072000F02CFC072000F0F3FB012070
:1020F00000F013FC642000F0F3FC4FF4FA7000F0E1
:1021000002FDC821304800F0A3FB282000F0BCFBF2
:102110000A2000F0CCFB08E0D8208DF800006A46C9
:1021200001214FF40B6002F059F904F0020018B1DC
:10213000D9208DF8000002E0D8208DF800006A4612
:10214000012140F23D7002F049F904F0040018B199
:10215000012000F069F802E0002000F065F804F0CA
:10216000100018B10120FFF707FF02E00020FFF781
:1021700003FF44F008001549488101F01BFD0020D1
:102180001249887304F0400018B10846807B801D16
:10219000887304F4C07020B10C48807B801D0B490B
:1021A000887304F0140020B10848807B1030074980
:1021B000887304F0030020B10448807B001D0349AC
:1021C000887300203EBD000009E3CA028800002099
:1021D0003EB504466CB10EA1D1E900208968CDE975
:1021E000002002916A4609214FF4976002F0F6F848
:1021F0003EBD0AA2D2E900109268CDE90102009129
:102200006A4609214FF4976002F0E8F8F0E7000011
:10221000B8AAB38DB4980D355D000000B8AAAAAA7B
:10222000B088C3C5C700000038B5044664B1C020FB
:102230008DF80000C2208DF80100C4208DF8020046
:10224000C6208DF8030004E08B2204216846FEF7C7
:10225000F5F86A46042140F6982002F0BFF801F034
:10226000A9FC38BD10B5C8234FF48062024940F67E
:10227000F63001F033FB10BD145900082DE9F04F82
:102280008DB00746884615469946DDE9166B002451
:10229000002030806B49887B5A4605A901F0EAFB93
:1022A00018B1601E0DB0BDE8F08F6648807A00F06E
:1022B0001400002867D09DF8140000069DF8151042
:1022C00040EA01409DF8161040EA01209DF81710E1
:1022D000084328609DF8180000069DF8191040EA90
:1022E00001409DF81A1040EA01209DF81B10084398
:1022F00068609DF81C0000069DF81D1040EA014032
:102300009DF81E1040EA01209DF81F100843A860A8
:102310009DF8200000069DF8211040EA01409DF83C
:10232000221040EA01209DF823100843E86004F1E0
:102330001000C4B22868001401906868001402906C
:10234000A86800140390E8680014049001984043C2
:10235000029901FB0100039901FB0100049901FBB3
:10236000010ABAF1706F02DBBAF1885F05DD01F096
:1023700021FC00203080401E94E7B6F9000040F4B4
:102380008070308000BF2F48807A00F0400020B37A
:1023900005A9601C085C095D40EA012000B2A8F8AC
:1023A000000005A9E01C095C05AAA01C105C41EA1C
:1023B000002000B2A8F8020005A9601D095C201DDC
:1023C000105C41EA002000B2A8F80400A01DC4B2CD
:1023D000B6F9000040F0080030801A48408900F447
:1023E000C07008B305A9601C085C095D40EA0120C3
:1023F00000B2388005A9E01C095C05AAA01C105C8D
:1024000041EA002000B2788005A9601D095C201D0A
:10241000105C41EA002000B2B880A01DC4B2B6F939
:10242000000040F0700030800648807A00F0030021
:1024300018B105A90819FFF7FFFC484600F0E0FEB7
:1024400000202FE78800002070B588B0064601A85C
:1024500001F098F8BDF804000021C90341EA504595
:10246000C4034448007A00F0030056F820000590A9
:102470004048007A00F0040010B1059840420590F1
:102480003C48007AC0F3C10056F820000690394855
:10249000007A00F0200010B10698404206903548BE
:1024A000007AC0F3811056F8200007903148008967
:1024B00000F4807010B10798404207900598C1174A
:1024C000A0FB042301FB043100FB0510810041EA5D
:1024D000927005900698C117A0FB042301FB0431FC
:1024E00000FB0510810041EA927006900798C11721
:1024F000A0FB042301FB043100FB0510810041EA2D
:10250000927007900598000E8DF808000598000C51
:102510008DF809000598000A8DF80A000598C0B2E8
:102520008DF80B000698000E8DF80C000698000C34
:102530008DF80D000698000A8DF80E000698C0B2BE
:102540008DF80F000798000E8DF810000798000C0A
:102550008DF811000798000A8DF812000798C0B294
:102560008DF8130002AA0C214FF4257001F036FFFC
:1025700008B070BD8800002030B585B0044616A2B2
:1025800007CA02AB07C3C82C03DD4FF0FF3005B00C
:1025900030BDC82090FBF4F0401E85B2280A8DF8AB
:1025A0000000E8B28DF801006A46022140F21620D0
:1025B00001F014FF10B14FF0FF30E8E702AA0C2140
:1025C00040F6C12001F00AFF10B14FF0FF30DEE706
:1025D000044884810020DAE7FEF2ABC4AAF1DFDF11
:1025E000BBAFDFDF880000201FB504464848007AF3
:1025F00000F0030054F8200001904548007A00F0F4
:10260000040010B10198404201904148007AC0F3A3
:10261000C10054F8200002903D48007A00F02000EC
:1026200010B10298404202903948007AC0F38110FC
:1026300054F8200003903648008900F4807010B1EF
:102640000398404203903349019880FB0101800FB9
:1026500040EA810001902F49029880FB011082001E
:1026600042EA917002902B49039880FB011082008E
:1026700042EA917003900198000E8DF800000198D5
:10268000000C8DF801000198000A8DF802000198F5
:10269000C0B28DF803006A4604214FF4747001F053
:1026A0009DFE18B14FF0FF3004B010BD0298000E2F
:1026B0008DF800000298000C8DF801000298000AC5
:1026C0008DF802000298C0B28DF803006A4604211A
:1026D0004FF4757001F082FE10B14FF0FF30E3E768
:1026E0000398000E8DF800000398000C8DF801008F
:1026F0000398000A8DF802000398C0B28DF8030019
:102700006A4604214FF4767001F068FECCE70000C1
:102710008800002009E3CA0210B586B0044647A02D
:102720000068039046A00068029046A000680190EF
:1027300045A00068009004F0030003A9085C8DF830
:10274000140003A8C4F3C101405C8DF8150003A870
:10275000C4F38111405C8DF8160004F0030002A957
:10276000085C8DF8100002A8C4F3C101405C8DF82C
:10277000110002A8C4F38111405C8DF8120005AA73
:10278000032140F2264001F029FE18B14FF0FF303E
:1027900006B010BD04AA032140F22A4001F01EFE3B
:1027A00010B14FF0FF30F3E70198059000980490C6
:1027B00004F0040058B19DF8140040F001008DF8B9
:1027C00014009DF8100040F001008DF8100004F096
:1027D000200058B19DF8150040F001008DF815005B
:1027E0009DF8110040F001008DF8110004F4807094
:1027F00058B19DF8160040F001008DF816009DF8C4
:10280000120040F001008DF8120005AA03214FF4D8
:10281000886001F0E3FD10B14FF0FF30B8E704AA83
:10282000032140F2314001F0D9FD10B14FF0FF30EB
:10283000AEE7064804810020AAE700004CCD6C00FA
:102840000CC92C003656760026466600880000200B
:10285000F8B505460E464FF47A7095FBF0F000FB94
:1028600006F4200E8DF80000200C8DF80100200ADF
:102870008DF80200E0B28DF803006A4604214FF49F
:10288000AE7001F0ABFDF8BD38B50446052094FBF1
:10289000F0F084B220128DF80000E0B28DF8010053
:1028A0006A4602214FF4AD7001F098FD38BD38B58D
:1028B0000446052094FBF0F084B220128DF800004D
:1028C000E0B28DF801006A4602214FF4AC7001F0CD
:1028D00085FD38BD38B504460020009004F00100A5
:1028E00020B19DF8000040F03000009004F002009C
:1028F00020B19DF8000040F00C00009004F00400AE
:1029000020B19DF8000040F0030000906A460121CC
:102910004FF4A47001F062FD38BD38B50446012CB7
:1029200001DA012402E0042C00DD0424601EC0B2A0
:1029300000906A46012140F24F1001F04FFD38BD72
:102940002DE9FC4706460F4606F0070010B1B7F523
:10295000C86F03DD4FF0FF30BDE8FC87384602F05A
:102960007DFD8146594902F02FFC8046684600F003
:10297000E3FD9DF80000022806D0042816D00828A0
:1029800026D0102848D135E04FF08D41404602F066
:10299000ADFD814602F02AFD84B24D49404602F069
:1029A000A5FD814602F022FD85B238E04FF08C4152
:1029B000404602F09BFD814602F018FD84B2454975
:1029C000404602F093FD814602F010FD85B226E0FC
:1029D0004FF08B41404602F089FD814602F006FD32
:1029E00084B23D49404602F081FD814602F0FEFC82
:1029F00085B214E04FF08A41404602F077FD8146EF
:102A000002F0F4FC84B23549404602F06FFD814685
:102A100002F0ECFC85B202E04FF0FF309CE700BF13
:102A200020128DF80400E0B28DF8050028128DF810
:102A30000600E8B28DF8070006F00100A0B101AA77
:102A400002214FF4EA7001F0C9FC10B14FF0FF30E1
:102A500082E70DF1060202214FF4927001F0BEFCF4
:102A600010B14FF0FF3077E706F00200A0B101AAE5
:102A700002214FF4EC7001F0B1FC10B14FF0FF30C7
:102A80006AE70DF1060202214FF4947001F0A6FCF2
:102A900010B14FF0FF305FE706F00400A0B101AACB
:102AA00002214FF4EE7001F099FC10B14FF0FF30AD
:102AB00052E70DF1060202214FF4967001F08EFCF0
:102AC00010B14FF0FF3047E7002045E700004843D2
:102AD000000040460000C045000040450000C044E2
:102AE00038B50446052094FBF0F085B228128DF825
:102AF0000000E8B28DF801006A4602214FF4EF7041
:102B000001F06CFC38BD38B50446052094FBF0F0AC
:102B100085B228128DF80000E8B28DF801006A46EF
:102B200002214FF4ED7001F059FC38BD00BF054A99
:102B3000128802F04002002AF9D0C2B2014B1B1DDC
:102B40001A807047003801407CB50546284949681D
:102B5000087801AB04220D21FEF756F808B10720D2
:102B60007CBD9DF80700C0F301109DF8041001F032
:102B7000E00140EAE1008DF800009DF80700C0F395
:102B800081009DF8051001F0E00140EAE1008DF8B8
:102B900001009DF8070000F003009DF8061001F009
:102BA000E00140EAE1008DF8020000241CE01DF87D
:102BB000040018B9002045F8240013E00D4845F83A
:102BC000240006E055F824000B4902F08FFC45F87C
:102BD00024001DF80400401EC0B20DF804000028B7
:102BE000F0D100BF601CC4B2032CE0DB0020B7E7CB
:102BF000300000207B14AE3E1D5A843F2DE9F04F7B
:102C000087B005460C46914601208DF81000002043
:102C10008DF81100FE4A1268917CFD4A52681078C6
:102C200004AB0222FEF796F820B14FF0FF3007B058
:102C3000BDE8F08FC820FFF753F900208DF8100091
:102C4000F34A1268D17BF24A5268107804AB012231
:102C5000FEF780F810B14FF0FF30E8E7EC4A126859
:102C60005179EB4A5268107804AB0122FEF772F8F2
:102C700010B14FF0FF30DAE7E54A1268917CE44A80
:102C80005268107804AB0122FEF764F810B14FF0DF
:102C9000FF30CCE7DE4A1268D17DDD4A52681078F9
:102CA00004AB0122FEF756F810B14FF0FF30BEE73B
:102CB000D74A12681179D64A5268107804AB0122BB
:102CC000FEF748F810B14FF0FF30B0E70C208DF858
:102CD0001000CF4A12681179CD4A5268107804ABBF
:102CE0000122FEF737F810B14FF0FF309FE70F20B9
:102CF000FFF7F6F8C648806A407A8DF81000C44A9B
:102D000012689178C24A5268107804AB0122FEF72B
:102D100021F810B14FF0FF3089E7BD48806A007A92
:102D20008DF81000BA4A12685178B94A5268107882
:102D300004AB0122FEF70EF810B14FF0FF3076E73A
:102D4000B9F1000F07D0B248806A807A40F0E00005
:102D50008DF8100004E0AE48806A807A8DF810008B
:102D6000AB4A12689179AA4A5268107804AB0122E2
:102D7000FDF7F0FF10B14FF0FF3058E7B9F1000F49
:102D800007D0A348806AC07A40F0E0008DF81000B8
:102D900003E0A048C07A8DF810009D4A1268D179EE
:102DA0009B4A5268107804AB0122FDF7D3FF10B1A3
:102DB0004FF0FF303BE7B9F1000F02D0C820FFF71A
:102DC0008FF840208DF81000914A12681179904ACE
:102DD0005268107804AB0122FDF7BCFF10B14FF030
:102DE000FF3024E778208DF81000894A1268517965
:102DF000874A5268107804AB0122FDF7ABFF10B18F
:102E00004FF0FF3013E783498889FFF769F8002006
:102E10008DF810007E4A126851797D4A5268107808
:102E200004AB0122FDF796FF10B14FF0FF30FEE634
:102E3000774A1268917A764A5268107804AB022277
:102E4000FDF7E2FE10B14FF0FF30F0E69DF8110003
:102E50009DF8101040EA012B0C209BFBF0F0C6B24D
:102E60000020A86068602860A060606020608246E2
:102E700065E0674A1268D17A654A5268107804ABF7
:102E80000C22FDF7C1FE10B14FF0FF30CFE69DF8E8
:102E900011009DF8101040EA012000B2ADF80800C2
:102EA0009DF813009DF8121040EA012000B2ADF821
:102EB0000A009DF815009DF8141040EA012000B2A8
:102EC000ADF80C00BDF90810206808442060BDF979
:102ED0000A10606808446060BDF90C10A0680844DE
:102EE000A0609DF817009DF8161040EA012000B27E
:102EF000ADF800009DF819009DF8181040EA012077
:102F000000B2ADF802009DF81B009DF81A1040EACF
:102F1000012000B2ADF80400BDF900102868084493
:102F20002860BDF90210686808446860BDF90410A3
:102F3000A8680844A8600AF1010000F0FF0AB24541
:102F400097DB3448D0F800C02868C117090441EA6B
:102F500010410704624600233846FDF73AF932462D
:102F60000023CDE90201FDF734F928602948D0F8A3
:102F700000C06868C117090441EA104107046246AD
:102F800000233846FDF725F932460023CDE902013A
:102F9000FDF71FF968601F48D0F800C0A868C11786
:102FA000090441EA10410704624600233846FDF750
:102FB00010F932460023CDE90201FDF70AF9A860B5
:102FC0001448D0F804C02168C817000440EA11482A
:102FD0000F046246002338464146FDF7FAF83246B0
:102FE0000023CDE90201FDF7F4F820600948D0F88C
:102FF00004C06068C117090441EA10410704624631
:1030000000233846FDF7E5F83246002304E00000CF
:1030100030000020EC580008CDE90201FDF7D9F896
:1030200060601148D0F804C0A068C117090441EAE3
:1030300010410704624600233846FDF7CAF83246BD
:103040000023CDE90201FDF7C4F8A060A0680028C4
:1030500004DDA068A0F58030A06003E0A06800F562
:103060008030A0600020E2E5EC5800082DE9FC5F0C
:1030700006460F4600253D494968087801AB032202
:103080000D21FDF7C1FD10B10720BDE8FC9F9DF8A3
:10309000040000F01F008DF804009DF8050000F00A
:1030A0001F008DF805009DF8060000F01F008DF848
:1030B0000600002456E056F8240057F82410A0EB30
:1030C000010BBBF1000F01DB594601E0CBF1000120
:1030D000084602F0ABF94FF08F41009002F074F80F
:1030E000814601A8005D68B32149086802F0B6F97D
:1030F000834659461F4802F067F8804604E01E499F
:10310000404602F0F3F9804601A8005D401EC0B2BF
:1031100001A908550028F2D14146484602F054F86A
:1031200083464FF07E5102F0DFFA82462AF0004BD0
:103130000F488169584602F0A5FA12D20120A0403A
:1031400005430EE00A480169484602F09BF905D3A1
:1031500007484169484602F095FA02D20120A04092
:103160000543641C032CA6DB28468EE730000020B4
:10317000EC58000800B04C4554E3853F10B50446B8
:10318000204600F00FF80346E01C00F00BF843EA7D
:10319000C00083B2A01D00F005F843EA801083B29E
:1031A000184610BD014691F90020002A01DD0020DB
:1031B0001EE091F90020002A01DA042018E091F9BC
:1031C0000120002A01DD012012E091F90120002AEE
:1031D00001DA05200CE091F90220002A01DD02202D
:1031E00006E091F90220002A01DA062000E007201B
:1031F0007047FDF7B3FE02E06420FEF771FEFBE7C7
:103200007047000070B50446002624F001041848F9
:1032100090F8240008B1002070BD1548807A10B9DC
:103220004FF0FF30F8E71248057C807A20401049C3
:1032300008740846007CA04202D04FF0FF3600E040
:10324000002614B90A48007D18B1012001F050F998
:1032500002E0002001F04CF93CB100F0ABFC20B1E1
:10326000034805744FF0FF30D6E73046D4E700003E
:10327000300000202DE9F04F99B004460D46164667
:103280004FF07E574FF000084FF000094FF0000A52
:1032900012A813A918AB0EAACDE9001014A916A8FC
:1032A000FEF7ECFF18B1012019B0BDE8F08FBDF8B2
:1032B0004C0000F4807000287ED00E9802F0B6F822
:1032C00083464FF09D4101F07FFF07460F9802F0C3
:1032D000ADF883464FF09D4101F076FF804610988F
:1032E00002F0A4F883464FF09D4101F06DFF814646
:1032F000119802F09BF883464FF09D4101F064FF66
:10330000824639464FF0804002F0F0F84946059079
:1033100002F0ECF8414607904FF0404002F0E6F82A
:103320005146059002F0E2F80690079901F0DEFEA2
:10333000834601F0AFFECDE90801FEF775FA4FF0C4
:103340006632544BCDE90A0101F0CAFBCDE90C010C
:1033500001F08CF9206049464FF0804002F0C6F839
:103360004946029002F0C2F8414604904FF04040B6
:1033700002F0BCF84146029002F0B8F803900499BC
:1033800002F0B2F983464FF07E5101F0AFFE059096
:1033900001F080FECDE9080139464FF0804002F08F
:1033A000A5F84146039002F0A1F8494604904FF079
:1033B000804002F09BF800E068E05146039002F084
:1033C00095F88346049901F091FE059001F062FEA4
:1033D000CDE90601DDE90823FEF76EFC4FF0663209
:1033E0002C4BCDE90A0101F07BFBCDE90C0101F08A
:1033F0003DF928605146504602F078F8494604905D
:10340000484602F073F841460390404602F06EF8D9
:1034100039460190384602F069F80090019901F0B0
:1034200065FE0290039902F05FF98346049902F069
:103430005BF9059001F02EFECDE9080151463846B2
:1034400002F054F849460490404602F04FF80390C9
:10345000049901F04BFE4FF08041059002F046F8D0
:10346000834601F017FECDE90601DDE90823FEF7EA
:1034700023FC4FF06632074BCDE90A0101F030FB27
:10348000CDE90C0101F0F2F8306001E002200BE719
:10349000002009E766A64C4070B50024FDF73CFA11
:1034A00000F024F9002840D1782000F02FFFC4B2AA
:1034B0000CB1012070BD7820FFF7A4FEC4B20CB19E
:1034C0000220F7E7642000F0D3FEC4B20CB1032061
:1034D000F0E7FEF7C7FEC4B20CB10420EAE71548D6
:1034E000FFF74CFE0546FFF717F9C4B20CB10520F3
:1034F000E0E740F27310FEF75DFDC4B20CB10620A8
:10350000D8E76420FFF738F8C4B20CB10720D1E740
:1035100000F0A4FF04460CB10820CBE7012000F026
:10352000A3FDC4B21CB10920C4E70A20C2E70020F1
:10353000C0E700005C00002001461148407A30B12D
:10354000012807D0022808D003280CD108E0022067
:1035500008700BE00420087008E00820087005E0FF
:103560001020087002E04FF0FF30704700BF0448A1
:10357000C07C18B108784006000E08700020F4E7FF
:103580003000002001461348407A30B1012808D0AD
:1035900002280AD0032810D10BE04FF480400880A5
:1035A0000EE041F69C7008800AE04FF480500880DD
:1035B00006E04FF40060088002E04FF0FF307047F3
:1035C00000BF0448C07C10B108884010088000206B
:1035D000F5E700003000002001460248007C08703A
:1035E000002070473000002001460F48007A30B1BB
:1035F000012807D0022809D003280FD10AE0FA20B9
:1036000008800EE04FF4FA7008800AE04FF47A70F8
:10361000088006E04FF4FA60088002E0002008808D
:1036200000BF00BF002070473000002001460E4858
:10363000007A30B1012807D0022808D003280CD125
:1036400008E00A4808600BE00948086008E00948FB
:10365000086005E00848086002E04FF0FF3070475E
:1036600000BF0020FBE70000300000200000034303
:10367000000083423333034233338341014612480F
:10368000C07A082817D2DFE800F01704070A0D10E7
:103690001318BC20088013E06220088010E02A2064
:1036A00008800DE0142008800AE00A20088007E066
:1036B0000520088004E000BF00BF0020088000BF94
:1036C00000BF00207047000030000020014606487F
:1036D00090F8240010B14FF0FF3070470248C089C5
:1036E00008800020F9E70000300000201CB5802091
:1036F0008DF80000654A1268917C644A526810781F
:103700006B460122FDF726FB10B14FF0FF301CBDC8
:103710006420FEF7E5FB00208DF800005B4A12688C
:10372000917C5A4A526810786B460122FDF712FBD1
:1037300010B14FF0FF30EAE7544A1268917D534AC6
:10374000526810786B460622FDF75EFA10B14FF012
:10375000FF30DCE79DF80500C007400F9DF803101F
:1037600001F0010140EA41009DF8011001F0010162
:1037700040EA010494B1012C03D101214348C174F2
:1037800031E0022C03D100214048C1742BE02146D6
:103790003FA0FCF743FD4FF0FF30B8E73B4A12680B
:1037A000D1783A4A526810786B460122FDF72CFA1C
:1037B00010B14FF0FF30AAE79DF8000000F00F04B1
:1037C0002CB93D48FCF72AFD4FF0FF309FE7042C51
:1037D00006D13AA0FCF722FD01212C48C17402E079
:1037E00000212A48C174FF2128488172FF202749FF
:1037F0000872FF2125484172C1724FF6FF71C181E5
:10380000FF21017481740121017380F822100021CD
:1038100080F82310417501751630016041608160A8
:10382000163880F8241080F82510C1844FF4FA600F
:1038300000F062FC10B14FF0FF3068E7022000F0AA
:103840002BFB10B14FF0FF3061E72A2000F0CEFCD7
:1038500010B14FF0FF305AE7322000F009FD10B1EF
:103860004FF0FF3053E70020FFF7CCFC10B14FF0D2
:10387000FF304CE7002000F051FB10B14FF0FF305B
:1038800045E7002000F042FD002040E73000002026
:10389000556E737570706F7274656420736F6674A3
:1038A000776172652070726F6475637420726576DB
:1038B0002025642E0A0000001066000848616C662E
:1038C0002073656E736974697669747920706172AA
:1038D0007420666F756E642E0A0000002DE9F043B7
:1038E00085B005460E4690469946294890F8250031
:1038F00020B14FF0FF3005B0BDE8F08316B94FF0AE
:10390000FF30F8E7002423E0281B102801DD1020F9
:1039100000E0281B87B232193946204600F05EFDD0
:1039200010B14FF0FF30E6E701AA3946204600F01B
:1039300001F910B14FF0FF30DDE730193A4601A927
:10394000FCF750FD10B16FF00100D4E7E01984B22C
:10395000AC42D9DB4FEA28208DF8000008F0FF00C8
:103960008DF801000A4A1268917E094A526810785F
:103970006B460222FDF7EEF910B14FF0FF30BAE7C7
:103980000121034880F82510A0F826900020B2E716
:103990003000002038B50446282C02DD4FF0FF30FF
:1039A00038BDDCB9002000F0EBFB00208DF80000F2
:1039B00007208DF801002E4A1268917C2C4A52682B
:1039C00010786B460222FDF7C5F910B14FF0FF30B9
:1039D000E6E70021264801750020E1E7012000F01C
:1039E000CFFB20208DF80000012C06D100208DF89F
:1039F0000100052000F0FAFB17E0052C06DC012091
:103A00008DF80100052000F0F1FB0EE0142C06DC1F
:103A100002208DF801000A2000F0E8FB05E00320F9
:103A20008DF80100142000F0E1FB9DF80100072152
:103A300001EB8010C0B28DF801000D4A1268917C34
:103A40000B4A526810786B460222FDF783F910B1D9
:103A50004FF0FF30A4E7082105488172002101736F
:103A6000012101750020FFF7CDFB002098E7000041
:103A700030000020F8B504460F4616462C4890F852
:103A8000240010B94FF0FF30F8BD2948807A10B9F2
:103A90004FF0FF30F8E7264A1268917A244A5268BC
:103AA00010786B460222FDF7AFF810B14FF0FF30EF
:103AB000EAE79DF801009DF8001040EA0125A542C3
:103AC00003DA00203070401EDEE719484068408865
:103AD000B5EB600F17DD164A1268517C144A526824
:103AE00010786B460122FDF78FF810B14FF0FF30D0
:103AF000CAE79DF8000000F0100020B100F05AF86D
:103B00006FF00100C0E7E2B2094B1B68D97A084B9D
:103B10005B6818783B46FDF777F810B14FF0FF303F
:103B2000B2E795FBF4F0401E30700020ACE70000D7
:103B300030000020F8B504460D46164616B94FF081
:103B4000FF30F8BD1A48807A10B94FF0FF30F8E71F
:103B500020128DF80000E0B28DF801009DF8010000
:103B60002844134949684989884202DD4FF0FF30F3
:103B7000E7E70F4A1268117E0D4A526810786B46CB
:103B80000222FDF7E7F810B14FF0FF30D9E7EAB2B3
:103B9000074B1B68597D064B5B6818783346FDF769
:103BA00033F810B14FF0FF30CBE70020C9E7000039
:103BB0003000002008B57048807A10B94FF0FF300F
:103BC00008BD002000906C4A1268D17B6A4A526896
:103BD00010786B460122FDF7BDF810B14FF0FF30B1
:103BE000EEE7654A12685179634A526810786B466D
:103BF0000122FDF7AFF810B14FF0FF30E0E75E4A69
:103C0000126811795C4A526810786B460122FDF700
:103C1000A1F810B14FF0FF30D2E7574890F82400D8
:103C2000002853D00C200090534A12681179524A50
:103C3000526810786B460122FDF78CF810B14FF0F6
:103C4000FF30BDE73220FEF74BF9C02000904A4814
:103C5000807A00F0010020B19DF8000040F02000C3
:103C60000090454A12681179434A526810786B46B1
:103C70000122FDF76FF810B14FF0FF30A0E73E488A
:103C8000407C10B10220009001E0002000903A4AF0
:103C90001268D17B384A526810786B460122FDF7D2
:103CA00059F810B14FF0FF308AE700200090324AF7
:103CB00012685179304A526810786B460122FDF73C
:103CC00049F8002855D04FF0FF3079E704200090E4
:103CD000294A12681179284A526810786B460122E5
:103CE000FDF738F810B14FF0FF3069E72248807CCB
:103CF00020B92148807A00F0010010B940200090DE
:103D000001E0602000901C4A126811791A4A52683A
:103D100010786B460122FDF71DF810B14FF0FF300F
:103D20004EE73220FEF7DCF81348407C10B101204A
:103D3000009001E0002000900F4A1268D17B0E4AEB
:103D4000526810786B460122FDF704F810B14FF06D
:103D5000FF3035E7084A12685179074A52681078EF
:103D6000054B10330122FCF7F5FF10B14FF0FF3087
:103D700026E7002024E70000300000202DE9F04F66
:103D80008DB083460F4602200C90424890F82400E4
:103D900020B1002000F068F9012600E0002603A809
:103DA000FFF722FC05A8FFF7C7FB01A8FFF766FC99
:103DB00002A8FFF78BFC374890F80AA004A8FFF789
:103DC0000BFC002407E0002239465846FEF716FF98
:103DD00000B902E0641C022CF5DB00BF022C01D10B
:103DE000002528E0002407E0012206A909A8FEF723
:103DF00005FF00B902E0641C022CF5DB00BF022CB9
:103E000001D1002517E006A93846FDF7B9FC00F0FE
:103E1000FF0809A95846FFF729F900F0FF09002516
:103E2000B9F1000F01D145F00105B8F1000F01D142
:103E300045F0020500BFFF2016490872FF21154812
:103E40004172C1724FF6FF71C181FF21817201740D
:103E500001210173BDF80C0000F04EF99DF814002B
:103E600000F01AF8BDF8040000F0C0F9BDF8080031
:103E700000F0FEF9504600F049FA9DF81000FFF7F7
:103E8000C1F916B1012000F0EFF828460DB0BDE8E9
:103E9000F08F00003000002038B504461E48807ABC
:103EA00010B94FF0FF3038BD022C06D0042C07D0DB
:103EB000082C08D0102C0CD108E0002000900BE05A
:103EC0000820009008E01020009005E018200090E5
:103ED00002E04FF0FF30E6E700BF0F48407A9DF860
:103EE0000010B0EBE10F01D10020DCE70A4A1268B4
:103EF000D179094A526810786B460122FCF72AFFF3
:103F000010B14FF0FF30CEE79DF80000C11002481D
:103F100041720020C7E700003000002038B5044699
:103F20005048807CA04201D1002038BD002C46D0F2
:103F30004C4A126811794B4A526810786B4601223C
:103F4000FCF762FE10B14FF0FF30EEE79DF8000085
:103F500020F020000090434A12681179414A5268CB
:103F600010786B460122FCF7F5FE10B14FF0FF30E0
:103F7000DBE70320FDF7B4FF02200090394890F8FA
:103F8000220020B19DF8000040F0800000903548EC
:103F900090F8230020B19DF8000040F03000009020
:103FA000304A1268117D2F4A526810786B46012200
:103FB000FCF7D0FE002851D04FF0FF30B5E7294A7A
:103FC00012681179274A526810786B460122FCF773
:103FD0001BFE10B14FF0FF30A7E72248807A00F0B7
:103FE000010028B19DF8000040F02000009004E09E
:103FF0009DF8000020F0200000901A4A1268117904
:10400000184A526810786B460122FCF7A3FE10B1E3
:104010004FF0FF3089E70320FDF762FF114890F869
:10402000220010B18020009001E0002000900D4897
:1040300090F8230020B19DF8000040F0300000907F
:10404000084A1268117D074A526810786B460122AF
:10405000FCF780FE10B14FF0FF3066E70148847432
:10406000002062E73000002038B50446214890F86F
:104070002400A04201D1002038BD24B31D4890F88F
:10408000250010B94FF0FF30F6E7002000F030FABD
:104090000020FFF743FF1749C88C00F0E9F8002023
:1040A00000901449496808786B4601222321FCF7E7
:1040B00051FE01210F4880F82410012000F018FA69
:1040C000FFF778FD13E0002000F012FA0948007CA9
:1040D00000900849496808786B4601222321FCF7C3
:1040E00039FE0021034880F82410FFF763FD00200B
:1040F000C2E700003000002038B504461F48807A2F
:1041000010B94FF0FF3038BDFA2C09D0B4F5FA7F62
:1041100009D0B4F57A7F09D0B4F5FA6F0CD108E074
:10412000002000900BE00820009008E01020009094
:1041300005E01820009002E04FF0FF30E3E700BFF9
:104140000E48007A9DF80010B0EBE10F01D100207D
:10415000D9E70A4A12689179084A526810786B4682
:104160000122FCF7F7FD10B14FF0FF30CBE79DF8CF
:104170000000C010014908720020C4E73000002090
:1041800038B50446184890F82300A04201D1002019
:1041900038BD14B13020009001E00020009012489A
:1041A000807C20B19DF8000040F0020000900E4895
:1041B00090F8220020B19DF8000040F080000090AF
:1041C000094A1268117D084A526810786B4601222C
:1041D000FCF7C0FD10B14FF0FF30D9E7024880F87E
:1041E00023400020D4E700003000002038B504460A
:1041F0001E48807A10B94FF0FF3038BDBC2C02DB6E
:104200000120009015E0622C02DB0220009010E0FB
:104210002A2C02DB032000900BE0142C02DB04208C
:10422000009006E00A2C02DB0520009001E0062049
:1042300000900E48C07A9DF80010884201D10020FD
:10424000DBE70A4A12689178084A526810786B4690
:104250000122FCF77FFD10B14FF0FF30CDE79DF854
:1042600000100248C1720020C7E7000030000020A3
:1042700038B504462448807A10B94FF0FF3038BD75
:10428000214890F8240010B14FF0FF30F7E71E48A6
:10429000007D50B134B1282C04DCE0B2FFF77AFB8A
:1042A0000020ECE70020FFF775FB042C01DA042462
:1042B00004E0B4F57A7F01DD4FF47A744FF47A703C
:1042C00090FBF4F0401EC0B200900F4A1268517883
:1042D0000D4A526810786B460122FCF73BFD10B185
:1042E0004FF0FF30CBE79DF80000401C4FF47A718F
:1042F00091FBF0F081B20448C1810146C9894810A0
:10430000FFF774FF0020BAE73000002038B50446FC
:1043100004F0700010B10120009005E014B10020FD
:10432000009001E0402000902B4A1268917C2A4ABC
:10433000526810786B460122FCF70CFD20B1002179
:1043400025488172481E38BD9DF8000020F04001CC
:10435000214801730020009004F0400020B99DF82E
:10436000000040F00400009004F0200020B99DF807
:10437000000040F00200009004F0100020B99DF809
:10438000000040F00100009004F0080020B99DF802
:10439000000040F0380000900F4A1268D17C0E4AAD
:1043A000526810786B460122FCF7D4FC20B1002142
:1043B00009488172481EC6E724B1082C02D00020AB
:1043C000FFF7DEFE04488472002101753220FDF7FC
:1043D00087FD0020B7E7000030000020F8B5044654
:1043E0000D46164616B94FF0FF30F8BD1A48807AD0
:1043F00010B94FF0FF30F8E720128DF80000E0B25E
:104400008DF801009DF80100284413494968498945
:10441000884202DD4FF0FF30E7E70F4A1268117E55
:104420000D4A526810786B460222FCF793FC10B1DB
:104430004FF0FF30D9E7EAB2074B1B68597D064BB6
:104440005B6818783346FCF785FC10B14FF0FF30FD
:10445000CBE70020C9E700003000002070B588B02D
:1044600002A905A8FFF78AFC0446032C3ED101A847
:10447000FFF7DCF8059800F0D9FF0646019901F036
:1044800035F8054600F096FF0590069800F0CEFF3F
:104490000646019901F02AF8054600F08BFF0690C8
:1044A000079800F0C3FF0646019901F01FF8054682
:1044B00000F080FF079005A8FEF796F86846FFF722
:1044C00061F8BDF80010029848430290BDF8001052
:1044D000039848430390BDF80010049848430490A3
:1044E00002A8FDF7B1FF002008B070BD0120FBE776
:1044F00038B50446214890F82400C0B114B1022018
:10450000009001E0002000901C4A1268D17B1B4AF9
:10451000526810786B460122FCF71CFC10B14FF07A
:10452000FF3038BD9DF800101448417423E0134853
:10453000807A10B94FF0FF30F3E724B10F48407C88
:1045400008B10020EDE714B10120009001E0002047
:1045500000900A4A1268D17B084A526810786B466C
:104560000122FCF7F7FB10B14FF0FF30D9E79DF8BF
:104570000010024841740020D3E700003000002002
:104580002DE9F04106460F4600F0B4FB04000D464D
:1045900018BF0120284320F00040C0F17F6000F1E7
:1045A000E040C00F0ED0301C18BF0120384320F06F
:1045B0000040C0F17F6000F1E040C00F04BF012067
:1045C000FBF7C4FF20462946BDE8F08110B586B050
:1045D0000446012144F20400FCF744FC4FF400704F
:1045E000ADF8140003208DF8160018208DF8170080
:1045F00005A91C48FCF7B8F84FF48060ADF814002A
:1046000004208DF8170005A91648FCF7ADF8252001
:104610008DF8000003208DF801008DF802000120C4
:104620008DF803006846FCF7C9FB01940020ADF843
:104630000800ADF80A00ADF80C00ADF810000C2031
:10464000ADF80E0001A90848FCF7A0FF012240F2D6
:1046500025510548FCF774FF01210348FCF73AFF98
:1046600006B010BD000801400038014021F00042B2
:10467000A2F16052B2F5801F01F0004328BFD2F1D1
:104680007F6C0BD95FEA001C43EAC20242EB507018
:1046900018BF704728BF20F001007047B2F5801F97
:1046A000BCBF184670474FEA410C1CF5001F02D2F0
:1046B000084600F0E2BF70B500F0BCFA00000089C7
:1046C000FFF7F6BF4FF00040A0F5800070470000F4
:1046D00010B591EA030F48BF83F0004300F1F8835F
:1046E000841A71EB030C05D2121943EB0C03001B67
:1046F00061EB0C01DFF824E14FEA1154A4EB135CE9
:104700001EEA430F18BF9EEA445F73D023EA0E03EC
:10471000DCF1200E21EA045143F4801332D322FA53
:104720000CFE10EB0E0023FA0CFE41EB0E01CCF157
:10473000200E03FA0EFE10EB0E0051F10001B1F550
:10474000801FCCF1200E32D201EB045112FA0EF28E
:10475000BDE8104058BF7047401C38BF5FEA4202B6
:1047600018BF7047002814BF20F0010041F100017C
:104770004FEA410313F5001F38BF7047A1F1C04154
:1047800000F0A6BA012A43EB0302ACF1200CDCF1E5
:104790001F0E32BF4FF0000E23FA0CF310EB030094
:1047A00041EB0451B4EB115FD0D0A1EB045101F502
:1047B000801149085FEA300001EB04510ED350F13B
:1047C000000038BF12FA0EFE08D1BDE81040C9E75C
:1047D000401C38BF5FEA4202CAD1C3E7BDE81040BF
:1047E0004FEA410313F5001F38BF7047A1F1C041E4
:1047F00000F06EBA9EEA445F08D011EA5E0FBDE891
:10480000104004BF01F0004100207047BDE8104097
:1048100070B500F00FFA00BF64FBBE3E0000E0FF81
:1048200002494FF0000000F0D4BF00BF0000F87F45
:104830002DE9C04130B4DFF8A0C23CEA111418BF22
:104840003CEA131400F0EC8081EA03051CEA111421
:1048500044EAD57418BF1CEA131500F0C780A4EB16
:1048600005044FF0004545EAC12145EAC32341EA6A
:10487000505143EA525304F17F74994204F50034D5
:104880004FEAC0204FEAC22208BF904200F09C804D
:104890004FEA13650FF24016765D4FEA134506FBAB
:1048A00005F7C7F1807706FB07F74FEAD737A7FB75
:1048B00003687642C8F58038A7FB06CE38BFA8F15A
:1048C000010807FB08E64FF0000EA6FB028CE6FB92
:1048D00003CEDCF1000CCEF1004E38BFAEF1010E7C
:1048E000A6FB0C584FF000074FF00005E6FB0E87C3
:1048F000A1FB08C6A0FB07CE16EB0E0645F100058E
:10490000E1FB076515F1E04E7EBFA4F580345FEA58
:1049100046066D4116F1800745F100054FEA17275D
:104920004FEA066647EA0567A6F1DE46B6F1805F04
:104930004FEA15251FD9384624F0010C05EBC47148
:10494000BCF1FE6F01EB0C1102D8F0BCBDE8008198
:1049500024425CBF01F5801E9EEAC47F02D4F0BCF5
:10496000BDE80081244238D4F0BCA1F1C041BDE8CB
:10497000004100F0ADB94FEAD22242EA43524FEA79
:10498000D323A7FB02864FEAD02040EA415007FB21
:1049900003661EEA0E0F4FEAD12105FB026658BFDF
:1049A000A6EB0056B6EB00564FEA520E4EEAC37E17
:1049B00018EB0E0E56EB530EBDD518EB02085E41F8
:1049C0007F1C55F10005B6E74FF480154FF0000746
:1049D0004FF000064FF00008ADE7F0BC4FF00000CC
:1049E00001F1C04101F00041BDE8008111EA0C1F56
:1049F0000CEA131500D00CE013EA0C1F00F0258020
:104A00004FF00000F0BC81EA030101F00041BDE875
:104A10000081F0BCBDE8004181EA030100F058B913
:104A2000F0BCBDE8004170B500F004F9097EFC3E21
:104A300000F007B881EA03014FF0000001F00041E7
:104A4000704781EA030100F043B9F0BCBDE80041C2
:104A50004FF0000021497047FFFDFBF9F7F5F4F234
:104A6000F0EEEDEBE9E8E6E4E3E1E0DEDDDBDAD809
:104A7000D7D5D4D3D1D0CFCDCCCBCAC8C7C6C5C467
:104A8000C2C1C0BFBEBDBCBBBAB9B8B7B6B5B4B37E
:104A9000B2B1B0AFAEADACABAAA9A8A8A7A6A5A469
:104AA000A3A3A2A1A09F9F9E9D9C9C9B9A9999982D
:104AB0009797969595949393929191908F8F8E8ED0
:104AC0008D8C8C8B8B8A898988888787868585845D
:104AD00084838382828181800000FF070000F87F49
:104AE000DFF848C170B51CEA111E1EBF1CEA131581
:104AF0009EEA0C0F95EA0C0F00F06F8081EA030428
:104B000023EA4C134EEAD47E21EA4C1141F4801181
:104B100043F48013AE44A1FB024CA0FB0365AEF14D
:104B20007F7E361955EB0C05A1FB034C4CF10003BD
:104B3000A0FB021C16EB0C06654153F10003094271
:104B400018BF46F0010613F4007F0BD14FEA033182
:104B50004FEA0530340341EA155140EA16506FF030
:104B600003020AE04FEAC3214FEAC520F40241EAFA
:104B7000555140EA56506FF0020202EB2E4201EB13
:104B8000025585EACE710AD05FEA440C18BF24F0C2
:104B9000004450F1000041F1000120EAD47040F2DD
:104BA000FE7C624500D270BDA84214BF4FF0804425
:104BB0004FF04044002E08BF0024BEF1806FA8BF14
:104BC000A1F1C041BDE8704080F282804FF000004A
:104BD00001F1C04101F0004170479EEA0C0F0CEA60
:104BE000131518BF95EA0C0F06D04FF0000081EAAC
:104BF000030E0EF0004170BD00F01CF88900013E6C
:104C000000F007B800F009B84FEA430C5FEA5C5CBB
:104C100008D081EA030100F05BB84FEA410C5FEA7B
:104C20005C5CF6D14FF00000014970470000FF07BF
:104C30000000F87F0EF1020E2EF0030E5EF8046BFA
:104C4000364205D4012A43EB030515F5001F12D89F
:104C5000012841EB010C1CF5001F0CD80ED14FEAC6
:104C6000D17C15F5001F0CEB4C0C0CF1020C08BFAD
:104C70004CEBD37C04E04FF0080C01E04FEAD37C0E
:104C80000CEB4C0526FA05F606F00706B6F1040C07
:104C900006D20EEB860CBDE870404CF0010C60476C
:104CA000DFE80CF0090B02024FF000414FF000006A
:104CB000A1F5002170BD19461046012851EB0104F1
:104CC00018BFD4F5001484BF002001F0004170BD6E
:104CD0000808A0F500114FEA3101704791EA030F6F
:104CE00010B581F000413FF5FBAC83F0004300F0CC
:104CF000EFB800002DE9F04101F5801CBCF5001F64
:104D0000C0F2C3804FEA115C21EA0C510CF1FD0C9A
:104D100041F480115FEA5C0C0CF5C07C01D34000CB
:104D200049413DA4890241EA905187028E0E0A0C46
:104D3000A45D04FB04F602FB06F6C6F14046A4FBA4
:104D40000662F60D46EA422606FB06F4A4FB0123A2
:104D50005242C3F1404338BF5B1EA6FB024200240F
:104D6000E6FB0324D20B42EA4446A6FB0623A1FB42
:104D700002E2A3FB07E4A4184FF0000252F1000284
:104D8000E3FB01426442C2F1404E38BFAEF1010E76
:104D9000A6FB04234FF00002E6FB0E32A2FB034603
:104DA0004FF00004B61954F10004E2FB0264A1FBC9
:104DB00006E6A4FB07E816EB08064FF0000858F1DA
:104DC0000008E4FB01687642C8F1405838BFA8F1FA
:104DD0000108A2FB06E4A3FB08E52D194FF000042F
:104DE00054F10004E2FB0854A1FB05E6A7FB04E82C
:104DF00018EB06084FF0000656F10006E1FB0486AA
:104E000018F1200556F10006A809A8F11B08B10900
:104E100008F03F08B8F10A0F40EA86601CD901EBA0
:104E20000C51BDE8F08100BFFCF5EEE8E2DDD8D31F
:104E3000CFCBC7C3C0BDB9B6B4B1AEACA9A7A5A30B
:104E4000A19F9D9B9A9896959392908F8D8C8B891C
:104E50008887868584838281A0FB006800FB01F23D
:104E600008EB4208B8EB872807D5341858EB010443
:104E7000D5D5401C51F10001D1E7341A78EB01047B
:104E8000CDD4401E71F10001C9E75FEA4C0C5FEA26
:104E90009C5C0DD105D34FF0000001F00041BDE84E
:104EA000F081BDE8F04170B5FFF7C4FE6DDBFFBED9
:104EB000BDE8F0414FF00000004970470000F87F66
:104EC00010B591EA030F48BF83F000433FF508ACEB
:104ED000841A71EB030C07D212198CF0004C43EBCF
:104EE0000C03001B61EB0C01DFF8A4E14FEA115445
:104EF000A4EB135C1EEA430F18BF9EEA445F00F068
:104F0000B08023EA6E03524221EA0451C3EB6E03E0
:104F100038BF5B1EDCF1200E25D322FA0CFE10EB0D
:104F20000E0043FA0CFE41EB0E01CCF1200E03FA09
:104F30000EFE10EB0E0051F10001CCF1200E29D431
:104F400012FA0EF201EB0451BDE8104058BF704751
:104F5000401C1CBFB2F1004F704700280CBF491C19
:104F600020F00100704712EB020E43EB030218BF62
:104F70004FF0010E4EEA4202ACF1200CDCF11E0EA5
:104F800054D943FA0CFE10EB0E0051F1FF31CCF175
:104F90001E0ED5D50EF1010E12FA0EFE404141EB68
:104FA000010101EB445C5FEA5C5C10D910EBDE7040
:104FB00001EB045138BFBEF1004FBDE8104018BFEF
:104FC000704700280CBF491C20F00100704730D208
:104FD0004FEAD42C11F5001124F400641BD0B1FA6F
:104FE00081F20B3AA41AA41ED2F12003914030FAA8
:104FF00003F31943904001EBCC71002C01EB0451F9
:10500000BDE81040A8BF704701F1C0414FF000005B
:1050100001F000417047B0FA80F310FA03F100D1BB
:1050200010BDE41A173C4805C90AE4E701EB045136
:1050300010BD491001EB0451BDE810404FEA3000AB
:1050400002E04FF0000170474A0008BF0042F8D06C
:10505000B2F5001F28BF704701F000414FF000007B
:1050600070479EEA445F07D011EA5E0FBDE810402A
:1050700004BF002100207047BDE8104070B5FFF765
:10508000D9FD00BF40DFF63E83F000411046704777
:105090000000E0FF43004FEAD30C4FEA3C0C4340D2
:1050A0001FBF40070CF1605113F0FE4F70471CF01A
:1050B000006F03D100200CF0004170470CF000435A
:1050C00043EA507010B540EACC0000F090FA00BFFF
:1050D000000000924FEA0001FFF7FABD4FF00041D7
:1050E0004FF00000A1F500217047000090EA010F89
:1050F00048BF81F0004100F1FE82421A3CBF801A95
:1051000089184FEAD0524FF07F4C1CEA410FA2EBB6
:10511000D15318BF9CEA026F00F03B804FF0004C67
:105120004CEA00204CEA012121FA03FC10EB0C0CA4
:105130001ED202F1FF325FEA1C2040EBC25038BFA2
:1051400070471CF07F0F4FEA400C18BFBCF17F4F37
:1051500038BF7047C3F12003994008BF20F0010019
:10516000BCF17F4F38BF7047A0F1C04000F085BA56
:105170004FEA3C00000A40EBC25028BF1CF0FF0F72
:105180004FEA400CE6D018BFBCF17F4F38BF7047E4
:10519000EAE79CEA026F05D010EA5C0F08BF00F056
:1051A0000040704710B500F022FA00BF64FBBE3E1D
:1051B000401058BFC0F14040491058BFC1F14041B4
:1051C0008142EFF3008070474FF47F0C1CEAD0124D
:1051D0001EBF1CEAD11392EA0C0F93EA0C0F00F0E9
:1051E000858090EA010F48BF42F4807240F4000CC1
:1051F00041F400002CF07F4120F07F4000B5814257
:10520000A2EB03020FF2081CACEB504EC0F1000001
:105210009EF800E04FEA4E0E00FB0EFC38BF49003E
:105220004FEA2C1C02F5FA020CFB0EF34FEACE1EDD
:105230004FEA112C4FEAC1210EEB635E42EB224292
:105240000EFB0CFC4FEA1C5300FB03114FEA112C20
:105250004FEA01310EFB0CFC4FEADC4C00FB0C1159
:10526000C14228BF09184CEB03335DF804EB10EB87
:10527000410143EBC250B2F57C0F38BF704729D5CE
:1052800012F0F00F1CBF00F1C04000F0004070476A
:10529000008182838485868788898B8C8D8E8F910F
:1052A0009293959697999A9C9D9FA0A2A3A5A7A833
:1052B000AAACAEB0B2B3B5B7B9BCBEC0C2C5C7C95F
:1052C000CCCED1D4D7D9DCDFE2E6E9ECF0F3F7FAC3
:1052D000FE0000004FEA400C0CF1807CBCF17E4FD8
:1052E00028BF7047B0F1C04000F0C7B990EA010F85
:1052F0000CEAD11348BF42F48072624538BF63455F
:1053000007D213F47F0F16D080EA010000F00040AE
:10531000704710B500F06BF9097EFC3E00F005B84F
:1053200080EA010000F00040704780EA010000F0D0
:10533000004000F0A2B912F47F0F04BF024870478A
:1053400080EA010000F099B90000C07F50EA010C2A
:1053500000F113801CF5000F58BFBCF5000F01D4FD
:105360008842704707D710F5000F58BF11F5000F9E
:1053700015D488427047894270471CF5000F04D548
:10538000BCF5000FF7D5814270474FF0807C1CEBD5
:10539000400F38BF1CEB410F01D28142704710B55E
:1053A00000F025F9922449004FF000504FF0805151
:1053B000FFF7FEBE41000B0ED3F19E0208D950F458
:1053C00000034FEA032323FA02F048BF404270472C
:1053D00010B500F00CF900BF4992248000207047FE
:1053E0006FF0004282EA200070470000C10DD1F149
:1053F0009E0206DB4FEA002343F0004323FA02F04B
:105400007047004207D54FEA4001B1F1FE4F02D28A
:105410004FF00000704710B500F0E9F84992248081
:10542000002070476FEA20007047000010F0004134
:1054300048BF4042B0FA80F310FA03F2C3F19D0373
:105440000BD051EAC35101EB1220530638BF70470D
:1054500000F1010008BF20F001007047B0FA80F3AE
:1054600010FA03F2C3F19D030AD0D90501EB122013
:10547000530638BF704700F1010008BF20F001005B
:105480007047000050EA010C00F113801CF5000F7A
:1054900058BFBCF5000F01D48842704707D710F5FC
:1054A000000F58BF11F5000F15D48842704789428C
:1054B00070471CF5000F04D5BCF5000FF7D58142ED
:1054C00070474FF0807C1CEB400F38BF1CEB410F46
:1054D00001D28142704710B500F089F8922449004A
:1054E0004FF000504FF08051FFF762BE4FF47F0C39
:1054F0001CEAD0121EBF1CEAD11392EA0C0F93EAE9
:105500000C0F00F0478090EA010F48BF42F4807210
:105510004FF0004C4CEA00204CEA012102EB030260
:10552000A0FB0113A2F50002002918BF43F00103FC
:105530005B0028BF4FEA330342EB22425FEA132CA1
:105540004CEBC2502EBFBCEB436FB2F57C0F7047E3
:105550004FEA036CBCF1004F08BF20F00100B2F528
:105560007C0F38BF70470BD582F0FF0212F5803FE9
:10557000C8BF704700F1C040D8BF00F0004070477E
:1055800000F5000C5FEA4C0C48BF7047B0F1C0401A
:1055900000F073B890EA010F0CEAD11348BF42F44F
:1055A0008072624538BF634504D280EA010000F092
:1055B0000040704710B500F01AF800BF8900013EA6
:1055C00000F007B800F009B85FEA410C5FEA1C6C14
:1055D00008D080EA010000F050B85FEA400C5FEAB2
:1055E0001C6CF6D14FF00040A0F5800070470EF122
:1055F000020E2EF0030E5EF8044B244204D44FEA50
:105600004102B2F17F4F11D84FEA4003B3F17F4F0F
:105610000CD80ED14FEAD07CB2F17F4F0CEB4C0C82
:105620000CF1020C08BF4CEBD17C04E04FF0080CED
:1056300001E04FEAD17C0CEB4C0324FA03F404F0B4
:105640000704B4F1040C06D20EEB840CBDE8104044
:105650004CF0010C6047DFE80CF0070802024FF045
:105660000040A0F5800010BD0846420018BFD2F1EE
:10567000807288BF00F0004010BDFF2141EAD05089
:10568000C005704751EA000C00F113801CF5000FB3
:1056900058BFBCF5000F01D48142704707D711F500
:1056A000000F58BF10F5000F15D481427047894292
:1056B00070471CF5000F04D5BCF5000FF7D58842E4
:1056C00070474FF0807C1CEB410F38BF1CEB400F44
:1056D00001D28842704780EA010081EA000180EA35
:1056E0000100FFF7F8BE000090EA010F48BF81F00B
:1056F00000413FF502AD421A04D882F00042A0EB0F
:10570000020011444FEAD0524FF07F4C1CEA410F87
:10571000A2EBD15318BF9CEA026F4AD04FF0004C65
:105720004CEA00204CEA012121FA03FCB0EB0C0CFE
:105730000FD412F0FE0F36D05FEA4C001DD50012D8
:1057400040EBC25038BF70471CF03F0F18BF704786
:105750000BE0A2F101025FEA1C2040EBC25038BF0F
:1057600070471CF07F0F18BF7047C3F120039940AA
:1057700014BF401E20F00100704780084FEA12233A
:1057800008BF7047B0FA80FCA2EB0C02CCF1280CE9
:1057900060FA0CF093EA122F04BF00EBC25070477E
:1057A0004FEAC3707047130A5FEADC1008BF704706
:1057B000F6E79CEA026F04D010EA5C0F08BF0020F5
:1057C000704710B5FFF713FF40DFF63E81F0004051
:1057D00070470CF00F03092B08BF082000F0598018
:1057E0000A2B0BD0082B18BF704708BF1CF0400FC6
:1057F0000AD04FF000004FF0000170471CF0400F3E
:1058000018BF4FF0004070471CF0100F08D020F078
:10581000704300F07F4242EAD3014FEA4370704781
:1058200000F0604021F07F4242EA000201F07F4038
:1058300040EA727070474FF0FF0C4CF4E06C1CEAC9
:1058400011531CBF9CEA030C9445C2BFDA4201EB22
:1058500002517047002B0DD0BCF1000F0FD0002A71
:1058600001F00041A4BF41F0E04141F07F614FF001
:105870000000704701F000414FF00000704750EA0F
:1058800001334FF09B0C18BF4CF0806C7EF4C8AF16
:1058900070471CF4801F11D01CF4E02F03D06FEA76
:1058A000CC31490070474FF04050EFF3008222F0B6
:1058B000704242EA000282F3008870474FF0000015
:1058C0007047000075191A0C6A231B1C1F20727484
:1058D000433B4138393A6B6C376F06246D6E70006C
:1058E0006800000476005401F7FD00018300000009
:1058F00000080000000100183200050000002041EF
:105900000000D242295C0F3E9A99993E3333733F8F
:10591000295C0F3E0000700000000024000000021F
:105920000003000000650054FFEF0000FA80000B48
:1059300012820001030C30C30E8C8CE914D5400296
:1059400013710F8E3883F8833000F883258EF88327
:105950003000F883FFFFFFFF0FFEA9D624000400EC
:105960001A8279A10000003CFFFF00000010000037
:1059700038836FA2003E03304000000002CAE309F2
:105980003E800000200000000000000040000000F9
:1059900060000000000C0000000C186E0000069271
:1059A0000A16C0DFFFFF0256FD8CD377FFE1C496D5
:1059B000E0C5BEAA00000000FFFF0B2B0000165739
:1059C000000003594000000000001DFA00026C1D99
:1059D000000000003FFFDFEB003EB3B6000D227871
:1059E00000002F3C00000000001942B5000039A261
:1059F0000000B365D90E9FC91DCF4C3430000000A4
:105A0000500000003BB67AE80064000000C80000C7
:105A100000000000100000001000FA921000225E4A
:105A2000000D229F0001000000320000FF46000030
:105A300063D400001000000004D6000004CC000075
:105A400004CC0000000010720000004000000000C4
:105A50000000000000060002000500070000000032
:105A60000064000000000000000000050005006464
:105A700000200000000000000000000000004000C6
:105A80000000030000000032F8980000FF650000ED
:105A9000830F0000FF9BFC000000000000000000DE
:105AA00000000000000000000000000000000000F6
:105AB00000000000000000000000000000000000E6
:105AC0000000100040000000000000060000B26A64
:105AD000000200000001FB830068000000D9FC0008
:105AE0007CF1FF830000000000650000006403E813
:105AF00000640028000000250000000016A000003F
:105B00000000100000001000002F0000000001F451
:105B10000000100000280000FFFF4581FFFFFA721F
:105B20000000000000000000004400050005BAC6A7
:105B3000004778A2000000010000000000000600FD
:105B4000000000140000254D002F706D000005AE10
:105B5000000C02D000000000000000000000000067
:105B600000000000001B000000000000000000001A
:105B700000000000006400000008000000000000B9
:105B80000000000000000000000000000000000015
:105B90000000000000000000000000000000000005
:105BA00000000000000000000000000000000000F5
:105BB00000000000000000000000000000000000E5
:105BC00000000000000000000000000000000000D5
:105BD00000000000001B00000000000000000000AA
:105BE000000E000E00000AC7000400000000003292
:105BF000FFFFFF9C00000B2B0000000200000001D3
:105C000000000064FFE5000000000000000000004C
:105C10000000000000000001000000000001000082
:105C200000000000000180000001800000018000F1
:105C3000002426D300000000000000000006001031
:105C40000096003C00000000000000000000000082
:105C5000000000000C0A4E68CDCF77095016675936
:105C6000C619CE8200000000000000000000000005
:105C700000000000000000000000000017D78400B2
:105C8000030000000000000000000000C7938F9D8B
:105C90001E1B1C1900000000000000000000000096
:105CA0000000000000000000000000000203188552
:105CB000000040000000000300000003000000009E
:105CC0000000000040000000000000000000000094
:105CD00000000000000000000000000000000000C4
:105CE00000000000000000000000000000000000B4
:105CF0000000000000000000677DDF7E72902E55DE
:105D00004CF6E688000000000000000000000000E3
:105D100000000000D8DCB4B8B0D8B9ABF3F8FAB3DF
:105D2000B7BB8E9EAEF132F51BF1B4B8B08097F1DF
:105D3000A9DFDFDFAADFDFDFF2AAC5CDC7A90CC963
:105D40002C97F1A989264666B28999A92D557DB06F
:105D5000B08AA896365676F1BAA3B4B280C0B8A875
:105D60009711B28398BAA3F0240844106418B2B90A
:105D7000B49883F1A329557DBAB5B1A38393F000FC
:105D80002850F5B2B6AA839328547CF1B9A3829324
:105D900061BAA2DADEDFDB819AB9AEF5606870F134
:105DA000DABAA2DFD9BAA2FAB9A38292DB31BAA2D7
:105DB000D9BAA2F8DF85A4D0C1BBAD83C2C5C7B82C
:105DC000A2DFDFDFBAA0DFDFDFD8D8F1B8AAB38D5A
:105DD000B4980D355DB2B6BAAF8C96198F9FA70EE9
:105DE000161EB49AB8AA872C547CBAA4B08AB6916D
:105DF000325676B28494A4C808CDD8B8B4B0F1991C
:105E000082A82D557D98A80E161EA22C547C92A413
:105E1000F02C5078F184A898C4CDFCD80DDBA8FCF8
:105E20002DF3D9BAA6F8DABAA6DED8BAB2B68696F3
:105E3000A6D0F3C841DAA6C8F8D8B0B4B882A89200
:105E4000F52C548898F135D9F418D8F1A2D0F8F986
:105E5000A884D9C7DFF8F883C5DADF69DF83C1D842
:105E6000F40114F1A8824EA884F311D182F5D992DD
:105E7000289788F109F41C1CD884A8F3C0F9D1D95B
:105E80009782F129F40DD8F3F9F9D1D982F4C2033C
:105E9000D8DEDF1AD8F1A2FAF9A88498D9C7DFF8BA
:105EA000F8F883C7DADF69DFF883C3D8F40114F1A7
:105EB00098A8822EA884F311D182F5D992509788A0
:105EC000F109F41CD884A8F3C0F8F9D1D99782F16C
:105ED00049F40DD8F3F9F9D1D982F4C403D8DEDF3F
:105EE000D8F1AD8898CCA809F9D98292A8F57CF1AF
:105EF000883ACF944A6E98DB6931DAADF2DEF9D890
:105F00008795A8F221D1DAA5F9F417D9F1AE8ED090
:105F1000C0C3AE82C684C3A88595C8A588F2C0F167
:105F2000F4010EF18E9EA8C63E56F554F18872F427
:105F30000115F19845856EF58E9E0488F142985AB8
:105F40008E9E068869F4011CF1981E1108D0F50494
:105F5000F11E970202983625DBF9D985A5F3C1DA3F
:105F600085A5F3DFD88595A8F309DAA5FAD882923A
:105F7000A8F578F1881A849F26889821DAF41DF311
:105F8000D8879F39D1AFD9DFDFFBF9F40CF3D8FA0A
:105F9000D0F8DAF9F9D0DFD9F9D8F40BD8F3879F24
:105FA00039D1AFD9DFDFF41DF3D8FAFCA869F9F9CC
:105FB000AFD0DADEFAD9F88F9FA8F1CCF398DB45A1
:105FC000D9AFDFD0F8D8F18F9FA8CAF38809DAAF2C
:105FD0008FCBF8D8F2AD978D0CD9A5DFF9BAA6F31F
:105FE000FAF412F2D8950DD1D9BAA6F3FADAA5F2DD
:105FF000C1BAA6F3DFD8F1BAB2B68696A6D0CAF374
:1060000049DAA6CBF8D8B0B4B8D8AD84F2C0DFF185
:106010008FCBC3A8B2B68696C8C1CBC3F3B0B48841
:1060200098A821DB718D9D71859521D9ADF2FAD8A3
:106030008597A828D9F408D8F28D29DAF405D9F281
:1060400085A4C2F2D8A88D9401D1D9F411F2D887D1
:1060500021D8F40AD8F28498A8C801D1D9F411D86B
:10606000F3A4C8BBAFD0F2DEF8F8F8F8F8F8F8F807
:10607000D8F1B8F6B5B9B08A95A3DE3CA3D9F8D863
:106080005CA3D9F8D87CA3D9F8D8F8F9D1A5D9DF81
:10609000DAFAD8B18530F7D9DED8F830ADDADED803
:1060A000F2B48C99A32D557DA083DFDFDFB591A0DD
:1060B000F629D9FBD8A0FC29D9FAD8A0D051D9F813
:1060C000D8FC51D9F9D879D9FBD8A0D0FC79D9FA24
:1060D000D8A1F9F9F9F9F9A0DADFDFDFD8A1F8F8EA
:1060E000F8F8F8ACDEF8ADDE8393AC2C547CF1A864
:1060F000DFDFDFF69D2CDAA0DFD9FADB2DF8D8A898
:1061000050DAA0D0DED9D0F8F8F8DB55F8D8A87866
:10611000DAA0D0DFD9D0FAF8F8F8F8DB7DF8D89C0F
:10612000A88CF530DB38D9D0DEDFA0D0DEDFD8A8F0
:1061300048DB58D9DFD0DEA0DFD0DED8A868DB701E
:10614000D9DFDFA0DFDFD8F1A888902C547C98A895
:10615000D05C38D1DAF2AE8CDFF9D8B087A8C1C1F3
:10616000B188A8C6F9F9DA36D8A8F9DA36D8A8F984
:10617000DA36D8A8F9DA36D8A8F9DA36D8F78D9D04
:10618000ADF818DAF2AEDFD8F7ADFA30D9A4DEF9FF
:10619000D8F2AEDEFAF983A7D9C3C5C7F1889BA7A9
:1061A0007AADF7DEDFA4F8849408A797F300AEF287
:1061B0009819A488C6A39488F632DFF28393DB098A
:1061C000D9F2AADFD8D8AEF8F9D1DAF3A4DEA7F174
:1061D000889B7AD8F38494AE19F9DAAAF1DFD8A8AB
:1061E00081C0C3C5C7A39283F628ADDED9F8D8A372
:1061F00050ADD9F8D8A378ADD9F8D8F8F9D1A1DA4B
:10620000DEC3C5C7D8A18194F818F2B089ACC3C564
:10621000C7F1D8B8B4B09786A8319B069907AB9759
:1062200028889BF00C201440B0B4B8F0A88A9A28B3
:106230005078B79BA829517924705944693864482B
:1062400031F1BBAB88002C547CF0B38BB8A8042888
:106250005078F1B088B49726A85998BBABB38B029D
:10626000264666B0B8F08A9CA82951798B295179C5
:106270008A2470598B2058718A4469388B39406858
:106280008A6448318B30496088F1AC002C547CF032
:106290008CA804285078F1889726A85998AC8C02CD
:1062A000264666F0899CA82951792470594469389A
:1062B000644831A98809205970AB11384069A81980
:1062C0003148608CA83C415C207C00F1879819869D
:1062D000A86E767EA999882D557DD8B1B5B9A3DF72
:1062E000DFDFAED0DFAAD0DEF2ABF8F9D9B087C4D9
:1062F000AAF1DFDFBBAFDFDFB9D8B1F1A3978E60C2
:10630000DFB084F2C8F8F9D9DED89385F14AB183B9
:10631000A308B5839A0810B79F10D8F1B0BAAEB0F1
:106320008AC2B2B68E9EF1FBD9F41DD8F9D90CF110
:10633000D8F8F8AD61D9AEFBD8F40CF1D8F8F8ADC7
:1063400019D9AEFBDFD8F416F1D8F8AD8D61D9F4C8
:10635000F4ACF59C9C8DDF2BBAB6AEFAF8F40BD8F2
:10636000F1AED0F8AD51DAAEFAF8F1D8B9B1B6A3C2
:10637000839C08B9B1839AB5AAC0FD3083B79F103A
:10638000B58B93F20202D1ABDADED8F1B080BAABB2
:10639000C0C3B284C1C3D8B1B9F38BA391B609B459
:1063A000D9ABDEB0879CB9A3DDF1B38B8B8B8B8B24
:1063B000B087A3A3A3A3B28BB69BF2A3A3A3A3A36B
:1063C000A3A3A3A3A3F1B087B59AA3F39BA3A3DCD4
:1063D000BAACDFB9A3A3A3A3A3A3A3A3A3A3A3A31B
:1063E000A3A3A3A3D8D8D8BBB3B7F1AAF9DAFFD92E
:1063F000809AAA28B48098A720B79787A86688F0C3
:106400007951F1902C870CA781976293F07171609C
:1064100085940129517990A5F1284C6C870C951829
:106420008578A38390284C6C886CD8F3A28200F204
:1064300010A8921980A2F2D926D8F188A84DD9487F
:10644000D896A83980D93CD89580A839A68698D9FD
:106450002CDA87A72CD8A8899519A980D938D8A86B
:106460008939A980DA3CD8A82EA83990D90CD8A8A7
:10647000953198D90CD8A809D9FFD801DAFFD89559
:1064800039A9DA26FFD890A80D8999A810809821FB
:10649000DA2ED88999A83180DA2ED8A8869631804C
:1064A000DA2ED8A8873180DA2ED8A88292F34180DC
:1064B000F1D92ED8A882F31980F1D92ED882ACF365
:1064C000C0A28022F1A62EA72EA92298A829DAAC74
:1064D000DEFFD8A2F22AF1A92E8292A8F23180A67C
:1064E00096F1D900AC8C9C0C30ACDED0DEFFD88CA1
:1064F0009CACD010ACDE8092A2F24C82A8F1CAF221
:1065000035F19688A6D900D8F1FF040000080000F4
:106510000000000000020001000010000000000068
:10652000555555555555C53F7D6FEB0312D6D4BF14
:106530005544880E55C1C93F3B8F68B52882A4BF1A
:1065400088B20175E0EF493F09F7FD0DE13D023FDB
:106550004B2D8A1C273A03C0C88A599CE52A004063
:1065600059018D1B6C06E6BF82922EB1C5B8B33FB0
:106570004FBB610567ACDD3F182D4454FB21E93F5B
:106580009BF681D20B73EF3F182D4454FB21F93F4A
:10659000E2652F227F2B7A3C075C143326A6813CD0
:1065A000BDCBF07A8807703C075C143326A6913C7B
:1065B000C4EB98999999C9BF711623FEC671BCBFE7
:1065C0006D9A74AFF2B0B3BF9AFDDE522DDEADBF4F
:1065D0002F6C6A2C44B4A2BF0D5555555555D53F67
:1065E000FF8300922449C23F6E204CC5CD45B73F82
:1065F000513DD0A0660DB13FEB0D76244B7BA93FFA
:1066000011DA22E33AAD903F0000000000000000E4
:1066100050726F6475637420494420726561642010
:106620006173203020696E646963617465732064EE
:106630006576696365206973206569746865722091
:10664000696E636F6D70617469626C65206F722032
:10665000616E204D5055333035302E0A0000000059
:106660008066000800000020880000002801000863
:10667000086700088800002038070000440100086F
:10668000000000000000000000000000000000000A
:1066900000000000000000000000000000A24A040A
:1066A00000000000000000000102030406070809C2
:1066B000C4580008E0580008000000000000000076
:1066C00000000000000000000000000000000000CA
:1066D0000000000000000000EC580008010000006D
:1066E00001000000010000000000000000000000A8
:1066F0000000000000000102030401020304060779
:0867000008090204060800006C
:04000005080001915D
:00000001FF
