:020000040800F2
:1000000070070020D5010008D10C00083506000853
:10001000CD0C0008B90400080B1200080000000015
:10002000000000000000000000000000510E000869
:100030001905000800000000590D0008850F000890
:10004000EF010008EF010008EF010008EF010008D0
:10005000EF010008EF010008EF010008EF010008C0
:10006000EF010008EF010008EF010008EF010008B0
:10007000EF010008EF010008EF010008EF010008A0
:10008000EF010008EF010008EF010008EF01000890
:10009000EF010008EF010008EF010008EF01000880
:1000A000EF010008EF010008EF010008EF01000870
:1000B000EF010008EF010008EF010008EF01000860
:1000C000EF010008EF010008EF010008EF01000850
:1000D000EF010008E90F0008EF010008EF01000838
:1000E000EF010008EF010008EF010008EF01000830
:1000F000EF010008EF010008EF010008EF01000820
:10010000EF010008EF010008EF010008EF0100080F
:10011000EF010008EF010008EF010008EF010008FF
:10012000EF010008EF010008EF010008EF010008EF
:1001300000F002F800F03FF80AA090E8000C8244BA
:100140008344AAF10107DA4501D100F034F8AFF297
:10015000090EBAE80F0013F0010F18BFFB1A43F0A5
:10016000010318477012000090120000103A24BFDB
:1001700078C878C1FAD8520724BF30C830C144BF0C
:1001800004680C607047000000230024002500264E
:10019000103A28BF78C1FBD8520728BF30C148BFEA
:1001A0000B607047642900F04380002070471FB542
:1001B0001FBD10B510BD00F04DF91146FFF7F7FF58
:1001C00001F07EF800F06BF903B4FFF7F2FF03BC17
:1001D00001F01DF80948804709480047FEE7FEE79F
:1001E000FEE7FEE7FEE7FEE7FEE7FEE7FEE7FEE7E7
:1001F00004480549054A064B70470000890F00086E
:1002000031010008700100207007002070030020F9
:1002100070030020704700000FB4044910B503AA12
:10022000029800F0E9F810BC5DF814FB2C000020E7
:100230002DE9F0410646002410687529314616A5BF
:1002400010D0AFF30080002802DA404213A507E087
:1002500031688A0701D512A502E0490704D511A526
:10026000012401E0AFF3008000210A2206F12407F7
:1002700009E0B0FBF2FCB0FBF2F302FB1C003030F3
:1002800078541846491C0028F3D123462A463046A4
:10029000BDE8F04100F056B8000000002D0000005D
:1002A0002B000000200000002DE9F0410F4604461D
:1002B0000020DFF88480F84420622046E168884707
:1002C00090B3252806D0D4E901219047206A401C2C
:1002D0002062F2E700252046E1688847202806468C
:1002E00008DB312E06D208EB060010F8200C08B10E
:1002F0000543F0E7A80701D525F00405A6B1A6F14E
:100300004100192802D8203645F400653A463146A6
:1003100020462560FFF746FF48B1012805D0FF1DA4
:1003200027F007070837C8E703E03F1DC5E7304659
:10033000C9E7206ABDE8F081B61000007047704739
:10034000704770472DE9F0470D469946924604469E
:1003500000F124080168880604D5E06921F0100145
:10036000216000E00120A84201DD471B00E00027DA
:10037000A1697A1902EB0900081AA0612078C00669
:1003800002D42046AFF30080002608E0D4E9012122
:100390001AF806009047206A401C761C20624E45E1
:1003A000F4DB2078C0060AD52046AFF3008006E0D3
:1003B000D4E9012130209047206A401C2062381E79
:1003C000A7F10107F4DC07E0D4E9012118F80500E2
:1003D0009047206A401C2062281EA5F10105F3DC2D
:1003E0002046AFF300802078000602D50220BDE849
:1003F000F0870120FBE70000074B70B50D467B44FA
:1004000000F011F80446284600F020F810B14FF033
:10041000FF3070BD204670BDA30E000001694A1C6C
:1004200002610878704700B58FB0CDE90131002135
:10043000059105497944CDE9031011466846FFF757
:1004400033FF0FB000BD0000E5FFFFFF007B00F0B1
:1004500080007047754600F02BF8AE4605006946EF
:10046000534620F00700854618B020B5FFF7C0FEC0
:10047000BDE820404FF000064FF000074FF00008A5
:100480004FF0000B21F00701AC46ACE8C009ACE826
:10049000C009ACE8C009ACE8C0098D46704710B58A
:1004A0000446AFF300802046BDE81040FFF78CBE45
:1004B000004870471001002000BFFEE700B587B07C
:1004C0001148B0F904001049B1F902100E4AB2F90E
:1004D00000200E4BB3F90430CDE90232CDE904100F
:1004E0000A48B0F902000949B1F90010CDE900103D
:1004F0000748B0F90430B0F90220B0F900100548FF
:10050000FFF78AFE07B000BD0000002006000020B3
:100510000C0000208413000870472DE9F0410246CA
:1005200000250026002000230024002791F803C0A6
:100530000CF00F0591F803C00CF0100CBCF1000F8B
:1005400003D091F802C04CEA050591F800C0BCF157
:10055000000F31D0146800202BE04FF0010C0CFA92
:1005600000F3B1F800C00CEA03069E4220D18300DC
:100570004FF00F0C0CFA03F7BC4305FA03FC4CEAEE
:10058000040491F803C0BCF1280F06D14FF0010C10
:100590000CFA00FCC2F814C00AE091F803C0BCF1E8
:1005A000480F05D14FF0010C0CFA00FCC2F810C046
:1005B000401C0828D1D31460B1F800C0BCF1FF0F73
:1005C00034DD546800202EE000F1080C4FF00108E3
:1005D00008FA0CF3B1F800C00CEA03069E4221D1E0
:1005E00083004FF00F0C0CFA03F7BC4305FA03FC31
:1005F0004CEA040491F803C0BCF1280F05D100F1C6
:10060000080C08FA0CF8C2F8148091F803C0BCF189
:10061000480F07D100F1080C4FF0010808FA0CF858
:10062000C2F81080401C0828CED35460BDE8F08189
:100630000161704700BFFEE710B500200F49086058
:100640000F48006820F470400D49086008460068B3
:1006500040F44050086000200A49C1F8AC01022073
:1006600000F012F8012005490860022000F00CF8A3
:1006700000200449C1F8A80110BD0000A881214252
:10068000040C014000802142002106E0052100BF4A
:100690000A1EA1F1010399B2FAD1021EA0F10103D1
:1006A00098B2F3D17047000008B50121092000F08D
:1006B00055FB4FF44060ADF8000010208DF80300AA
:1006C00003208DF8020069460448FFF726FF4FF427
:1006D00040610248FFF7ACFF08BD0000000C01407C
:1006E00010B500200F4908600F48006820F47040E2
:1006F0000D4908600846006840F440500860012039
:100700000A49C1F8AC010220FFF7BEFF01200549EC
:1007100008600220FFF7B8FF00200449C1F8A801D3
:1007200010BD0000A8812142040C0140008021423C
:1007300070B5054600241748006820F4704015493C
:1007400008600846006840F400400860002616E093
:100750000020114908600220FFF796FF01200F4991
:10076000C1F8A8016006040E0B487C38006808B187
:10077000601CC4B20120FFF787FF701CC6B2082EB0
:10078000E6DB15B9FFF7ACFF01E0FFF755FF2046A8
:1007900070BD0000040C0140A8812142008021426C
:1007A00070B504461548006820F47040134908608D
:1007B0000846006840F44050086000201049086076
:1007C000002517E0E0090E49091D08606006040EC7
:1007D0000220FFF759FF01200A49C1F8A8010220B1
:1007E000FFF752FF0020064908600220FFF74CFF88
:1007F000681CC5B2082DE5DB70BD0000040C01408B
:10080000A88121420080214210B50F48006820F4E1
:1008100070400D4908600846006840F44050086088
:1008200001200A4908600A49C1F8A8010420FFF71D
:100830002BFF0020054908600420FFF725FF00205A
:100840000349C1F8A80110BD040C0140AC8121424C
:100850000080214210B50F48006820F470400D4917
:1008600008600846006840F44050086000200A49CB
:1008700008600A49C1F8AC010420FFF705FF012018
:10088000054908600549C1F8AC010420FFF7FCFEEA
:1008900010BD0000040C0140A881214200802142CB
:1008A00010B500241448006820F470401249086014
:1008B0000846006840F40040086001200F490860C5
:1008C000FFF7E2FE01200E49C1F8A801FFF7DCFEA8
:1008D00007E0601CC4B2FA2C03DDFFF7BBFF012068
:1008E00010BD0648803800680028F2D10349091F6E
:1008F000086000BFF4E70000040C0140AC81214215
:100900000080214208B50121482000F027FA20206C
:10091000ADF8000010208DF8030003208DF80200D0
:1009200069460948FFF7F9FD20210748FFF780FED7
:100930002020ADF8000069460448FFF7EEFD2021B5
:100940000248FFF775FE08BD000C01400018014089
:1009500010B50024FFF7A8FE80226B21682000F06C
:100960008FF9642000F078FC00226B21682000F0F1
:1009700087F9032000F03FF9002000F033F932201E
:1009800000F060F900223821682000F079F9002297
:100990006A21682000F074F900222321682000F009
:1009A0006FF982223721682000F06AF975216820EA
:1009B00000F0BAF80446712C0DD101226B21682099
:1009C00000F05EF900226C21682000F059F9322015
:1009D00000F038F901E0012010BD00210C2000F0EA
:1009E000A3F80446482C05D111220A210C2000F05E
:1009F00047F901E00120EFE70020EDE72DE9FC4198
:100A000004460D4616466B4606223B21682000F040
:100A1000AFF80746BFB99DF801009DF8001040EA05
:100A2000012000B220809DF803009DF8021040EAEA
:100A3000012000B228809DF805009DF8041040EACE
:100A4000012000B230803846BDE8FC812DE9FC4130
:100A500004460D4616466B4606224321682000F0E8
:100A600087F80746BFB99DF801009DF8001040EADD
:100A7000012000B220809DF803009DF8021040EA9A
:100A8000012000B228809DF805009DF8041040EA7E
:100A9000012000B230803846BDE8FC812DE9FC41E0
:100AA00004460D4616466B46062203210C2000F034
:100AB0005FF80746BFB99DF800009DF8011040EAB5
:100AC000012000B220809DF802009DF8031040EA4A
:100AD000012000B228809DF804009DF8051040EA2E
:100AE000012000B2308011220A210C2000F0C8F849
:100AF0003846BDE8FC81000010B5084A911E881EEA
:100B0000FFF7A4FF064A911E881EFFF777FF054AEC
:100B1000911E881EFFF7C2FF10BD00000A000020D2
:100B2000100000200400002070B504460D46FFF7B9
:100B30006BFE002141EA4401C8B2FFF731FEFFF726
:100B4000AFFE2846FFF72CFEFFF7AAFEFFF75CFE7C
:100B5000012101EB4401C8B2FFF722FEFFF7A0FE1E
:100B60000020FFF7E5FD0646FFF774FE304670BD36
:100B70002DE9F04106460F4614461D46FFF744FE98
:100B8000002141EA4601C8B2FFF70AFEFFF788FEDE
:100B900020B1FFF75FFE0120BDE8F0813846FFF786
:100BA000FFFDFFF77DFEFFF72FFE012101EB460160
:100BB000C8B2FFF7F5FDFFF773FE0DE0012C04D17D
:100BC0000020FFF7B5FD287003E00120FFF7B0FD1E
:100BD0002870601EC4B26D1C002CEFD1FFF73AFEE6
:100BE0000020D9E710B50446E006020E1C2168205B
:100BF00000F046F810BD10B50446E006020E1B21B9
:100C0000682000F03DF810BD70B504460025BC2CEE
:100C100001DB012510E0622C01DB02250CE02A2C0F
:100C200001DB032508E0142C01DB042504E00A2C79
:100C300001DB052500E006252A461A21682000F080
:100C40001FF870BD70B50446B4F57A7F01DD4FF42E
:100C50007A74042C00DA04244FF47A7090FBF4F0D8
:100C6000401EC5B22A461921682000F009F8054641
:100C7000264604EBD671C1F34F00FFF7C5FF70BDE8
:100C800070B504460D461646FFF7BEFD002141EA49
:100C90004401C8B2FFF784FDFFF702FE18B1FFF769
:100CA000D9FD012070BD2846FFF77AFDFFF7F8FD5A
:100CB0003046FFF775FDFFF7F3FD18B1FFF7CAFDEA
:100CC0000120EFE7FFF7C6FD0020EBE700BFFEE7DE
:100CD0007047000070B5002100230F22C47804B3D0
:100CE000154C246804F4E064C4F5E064210AC1F101
:100CF0000403CA40447804FA03F184781440214381
:100D000009010E4C0678A155047804F01F05012452
:100D1000AC4005786D11AD0005F1E025C5F8004146
:100D200009E0047804F01F050124AC40044D067866
:100D3000761145F8264070BD0CED00E000E400E0BF
:100D400080E100E002490143024A1160704700005F
:100D50000000FA050CED00E07047000029B1064ADA
:100D600092690243044B9A6104E0034A9269824308
:100D7000014B9A61704700000010024030B500211D
:100D80000022002400232D4D6D6805F00C0121B1D7
:100D9000042905D0082923D105E0294D056022E06A
:100DA000274D05601FE0254D6D6805F47012234D39
:100DB0006D6805F48034022505EB92421CB9214D83
:100DC000554305600BE01D4D6D6805F400351DB100
:100DD0001C4D5543056002E0194D5543056002E086
:100DE000174D056000BF00BF144D6D6805F0F001A0
:100DF0000909154D6B5C0568DD4045600F4D6D6858
:100E000005F4E061090A104D6B5C4568DD408560C2
:100E10000A4D6D6805F46051C90A0B4D6B5C45685D
:100E2000DD40C560054D6D6805F44041890B074DF7
:100E30006B5CC568B5FBF3F5056130BD0010024081
:100E400000127A0000093D0032000020420000201C
:100E5000704710B54FF4A060FFF774FF00F0DAF9A7
:100E60004FF4E13000F034FAFFF74CFDFFF770FD6E
:100E700010BD10B500F002F810BD00000CB5002048
:100E8000019000903348006840F480303149086098
:100E900000BF3048006800F4003000900198401C0A
:100EA0000190009818B90198B0F5A06FF1D12948C8
:100EB000006800F4003010B10120009001E0002033
:100EC00000900098012843D12348006840F01000AA
:100ED000214908600846006820F0030008600846C1
:100EE000006840F0020008601A48406819494860EC
:100EF0000846406848600846406840F480604860A2
:100F00000846406820F47C1048600846406840F479
:100F1000E81048600846006840F08070086000BF34
:100F20000C48006800F000700028F9D009484068BB
:100F300020F00300074948600846406840F002007E
:100F4000486000BF0348406800F00C000828F9D151
:100F50000CBD00000010024000200240042808D10F
:100F60004FF0E021096941F004014FF0E0221161E6
:100F700007E04FF0E021096921F004014FF0E02281
:100F8000116170477047000010B51348006840F0C9
:100F900001001149086008464068104908400E49A0
:100FA0004860084600680E4908400B49086008463A
:100FB000006820F4802008600846406820F4FE00A5
:100FC00048604FF41F008860FFF753FF4FF0006048
:100FD0000449086010BD0000001002400000FFF846
:100FE000FFFFF6FE08ED00E010B540F225511D4868
:100FF00000F04AF810B31B4800F002F9C4B21A48D6
:10100000008800F40040C8B91748008800F4804008
:1010100060B10A2C03D000201349088020E0124858
:10102000008840F400401049088019E00D2C06D1DA
:101030000D48008840F480400B49088010E00A48C1
:101040000088C0F30D0009490C5407480088401C73
:101050000549088008460088C72801DD002008806F
:1010600010BD000000380140300000204800002082
:1010700021B1828942F40052828104E082894DF6D6
:10108000FF731A408281704770B502460024002326
:101090000025002040F66A16B14200D100BFC1F31E
:1010A000421501F01F03012606FA03F3012D02D1B8
:1010B0009689334006E0022D02D1168A334001E0C2
:1010C000968A33400C12012606FA04F4168834403E
:1010D00013B10CB1012000E0002070BDF0B5034653
:1010E000002400260025002040F66A17B94200D1EE
:1010F00000BF1846C1F3421401F01F06012707FA8A
:1011000006F5012C01D10C3004E0022C01D1103085
:1011100000E014301AB107682F43076002E0076847
:10112000AF430760F0BD00002DE9F04786B00546EB
:101130000E460024A24600BFA1460027B08900B198
:1011400000BF2F462C8A4CF6FF700440F088044301
:101150002C82AC894EF6F3100440B08831890843E4
:10116000718908430443AC81AC8A4FF6FF400440C8
:10117000B0890443AC8201A8FFF700FE1F488742F4
:1011800002D1DDF810A001E0DDF80CA0A88900F480
:10119000004040B10AEBCA0000EB0A103168490078
:1011A000B0FBF1F807E00AEBCA0000EB0A10316867
:1011B0008900B0FBF1F86420B8FBF0F004012009CD
:1011C000642101FB1089A88900F4004040B132205D
:1011D00000EBC900B0FBF1F000F00700044308E0A9
:1011E000322000EB09106421B0FBF1F000F00F0099
:1011F00004432C8106B0BDE8F087000000380140B0
:1012000001468888C0F30800704700BFFEE700BFB2
:101210007047000010B56FF00400FFF79FFE0A480A
:1012200000680A49B0FBF1F00949087008460078E7
:1012300000EB4001C1EBC0104FF6FF7101EAC000A6
:101240000449088010BD00001400002000127A003C
:10125000280000202A0000200146114A12884A4333
:101260004FF0E0235A6100229A611A46126942F057
:1012700001021A6100BF4FF0E022106900F0010284
:101280001AB100F48032002AF5D04FF0E022126942
:1012900022F001024FF0E0231A6100229A617047A8
:1012A0002A00002000BF054A128802F04002002AEE
:1012B000F9D0C2B2014B1B1D1A80704700380140A3
:1012C000FFF7C7FD03E0FFF717FCFFF7F7F8FAE7B2
:1012D00010B586B00446012144F20400FFF73EFD3C
:1012E0004FF40070ADF8140003208DF8160018209C
:1012F0008DF8170005A91C48FFF70FF94FF480601F
:10130000ADF8140004208DF8170005A91648FFF762
:1013100004F925208DF8000003208DF801008DF8D8
:10132000020001208DF803006846FFF7D3FC01940A
:101330000020ADF80800ADF80A00ADF80C00ADF8DB
:1013400010000C20ADF80E0001A90848FFF7ECFED4
:10135000012240F225510548FFF7C0FE0121034854
:10136000FFF786FE06B010BD0008014000380140BE
:10137000040000080000000000000002000100005E
:1013800010000000416363783A25642C416363795F
:101390003A25642C4163637A3A25642C4779726F4D
:1013A000783A25642C4779726F793A25642C47790D
:1013B000726F7A3A25642C4D6167783A25642C4D1A
:1013C0006167793A25642C4D61677A3A25640D0A84
:1013D00000000000F4130008000000204800000096
:1013E0006C0100083C140008480000202807000099
:1013F000880100080000000000000000000000005C
:10140000000000000000000000A24A0400000000EC
:1014100000000000010203040607080900000000A4
:1014200000000000000000000000010203040102AF
:0C14300003040607080902040608000077
:0400000508000131BD
:00000001FF
