:020000040800F2
:10000000581F0020290600082D0400082F040008AE
:1000100033040008370400083B0400080000000017
:100020000000000000000000000000003F04000885
:1000300041040008000000004304000845040008D3
:10004000430600084306000843060008430600086C
:10005000430600084306000843060008430600085C
:10006000430600084306000843060008430600084C
:10007000430600084306000843060008430600083C
:10008000430600084306000843060008430600082C
:10009000430600084306000843060008430600081C
:1000A000430600084306000843060008430600080C
:1000B00043060008430600086733000843060008AB
:1000C00043060008430600084306000843060008EC
:1000D00043060008F3210008430600084306000811
:1000E00043060008430600084306000800F002F833
:1000F00000F06AF80AA090E8000C82448344AAF158
:100100000107DA4501D100F05FF8AFF2090EBAE855
:100110000F0013F0010F18BFFB1A43F0010318473B
:1001200064780000847800000A444FF0000C10F856
:10013000013B13F0070408BF10F8014B1D1108BF65
:1001400010F8015B641E05D010F8016B641E01F805
:10015000016BF9D113F0080F1EBF10F8014BAD1C55
:100160000C1B09D16D1E58BF01F801CBFAD505E073
:1001700014F8016B01F8016B6D1EF9D59142D6D3CD
:10018000704700000023002400250026103A28BFF5
:1001900078C1FBD8520728BF30C148BF0B607047F9
:1001A000662905F07285642903F0AA830020704750
:1001B0001FB503F003FF04000020002104F0B4FD8C
:1001C000E0601FBD10B510BD03F0F8FF1146FFF74A
:1001D000EFFF00F000F904F016F803B4FFF7F2FFA8
:1001E00003BC01F0ABFF00002DE9F04188B07D4871
:1001F000006805F0F5F9044622460B467AA17C48D2
:1002000003F042FB10237A4A1946382002F041FAE3
:100210007848006805F0E4F9044622460B4672A1CE
:10022000734803F031FB1023714A2021382002F07B
:1002300030FA7148B0F9000005F04AFB804605F03D
:10024000CFF9064600226D4B04F066FE04462246B6
:100250000B466BA1664803F017FB1023644A30215C
:10026000382002F016FA02F0CEF86248006805F075
:10027000B7F904460D465B48006805F0B1F906463B
:100280000F466148B0F900006049B1F90010604ABA
:10029000B2F900205F4BB3F90030CDE90432CDE96B
:1002A00006105D48B0F900005C49B1F90010324613
:1002B0003B46CDE90045CDE90210594803F0D8FA94
:1002C00008B0BDE8F08110B501F0CEFE4FF4C0607B
:1002D00000F0CAF94FF4E13001F03FFF01F0CEFF2A
:1002E00002F05CFB002002F04EF8002002F059F80A
:1002F00018234CA20821192002F0CBF9002408E0B1
:100300002107080E10232246282102F033FA601C30
:10031000C4B2082CF4DB02F076F840F2E73001F0CA
:10032000E0FE40F2E73001F0DCFE02F08FF803F06F
:100330007BF94FF4FA7001F0D4FE41F61F41C7205B
:1003400002F0E4FF00240BE004F11101CAB2210124
:100350002031C8B21023002102F00CFA601CC4B294
:10036000042CF1DB00240BE004F10801CAB22101E6
:100370000831C8B21023194602F0FCF9601CC4B25F
:10038000032CF1DB00240BE004F10B01CAB22101C4
:100390000831C8B21023202102F0ECF9601CC4B26D
:1003A000032CF1DB00240BE004F10E01CAB22101A1
:1003B0000831C8B21023302102F0DCF9601CC4B24D
:1003C000032CF1DB102315223021602002F0D2F93A
:1003D00002F019F810BDFFF776FF01E0FFF704FF08
:1003E000FCE700003C1300203A252E32662720004F
:1003F0008C130020401300201813002000005940E7
:100400003A252E3166000000161300201413002038
:1004100012130020101300200E1300200C130020D4
:100420002C7900084D50553630353000704700BFEC
:10043000FEE700BFFEE700BFFEE700BFFEE7704734
:1004400070477047704700000CB500200190009085
:100450006C48006840F480306A49086000BF694811
:10046000006800F4003000900198401C0190009852
:1004700018B90198B0F5A06FF1D16248006800F496
:10048000003010B10120009001E0002000900098A1
:10049000012843D15C48006840F010005A490860C8
:1004A0000846006820F0030008600846006840F035
:1004B0000200086053484068524948600846406856
:1004C00048600846406840F48060486008464068DC
:1004D00020F47C1048600846406840F4E81048600A
:1004E0000846006840F08070086000BF454800681A
:1004F00000F000700028F9D04248406820F0030066
:10050000404948600846406840F00200486000BF2B
:100510003C48406800F00C000828F9D10CBD10B52B
:10052000FFF792FF10BD10B53648006840F001009B
:1005300034490860084640683449084031494860F9
:1005400008460068324908402E490860084600689D
:1005500020F4802008600846406820F4FE004860CF
:100560004FF41F008860FFF7DAFF4FF00060294961
:10057000086010BD10B5002100200022214B5B68EF
:1005800003F00C0121B1042906D0082928D107E085
:10059000214B224C236027E01F4B204C236023E09B
:1005A000184B5B6803F47010164B5B6803F48032E1
:1005B000022303EB904022B9194B4343174C2360AD
:1005C0000DE0104B5B6803F4003323B1144B43433D
:1005D000124C236003E0104B4343104C236003E0B4
:1005E0000D4B0E4C236000BF00BF064B5B68C3F38E
:1005F00003130C4CE15C094B1B68CB40074C236098
:1006000010BD000000100240002002400000FFF872
:10061000FFFFF6FE08ED00E000127A000000002067
:1006200000093D00040000200948804709480047B0
:10063000FEE7FEE7FEE7FEE7FEE7FEE7FEE7FEE792
:10064000FEE7FEE704480549054A064B70470000EF
:1006500027050008ED00000858190020581F002049
:10066000581B0020581B002031490143314A1160BA
:10067000704770B5002100230F22C47804B32D4CBD
:10068000246804F4E064C4F5E064210AC1F10403C1
:10069000CA40447804FA03F18478144021430901E4
:1006A000254C0678A155047804F01F050124AC40C0
:1006B00005786D11AD0005F1E025C5F8004109E0B0
:1006C000047804F01F050124AC401C4D0678761117
:1006D00045F8264070BD1A4A0A400243154B1B1FBD
:1006E0001A60704739B1134A121D12680243114B48
:1006F0001B1D1A6006E00F4A121D126882430D4B43
:100700001B1D1A607047042808D14FF0E0210969C9
:1007100041F004014FF0E022116107E04FF0E021C9
:10072000096921F004014FF0E022116170470000D7
:100730000000FA050CED00E000E400E080E100E0DC
:1007400080FFFF1F10B50446CC48844208D1012128
:10075000042000F02DFB0021042000F029FB46E0DE
:10076000C748844208D10121082000F021FB002164
:10077000082000F01DFB3AE0C248844208D1012164
:10078000102000F015FB0021102000F011FB2EE0DE
:10079000BD48844208D10121202000F009FB00213E
:1007A000202000F005FB22E0B848844208D1012156
:1007B000402000F0FDFA0021402000F0F9FA16E098
:1007C000B348844208D10121802000F0F1FA0021D1
:1007D000802000F0EDFA0AE0AE48844207D1012102
:1007E000801500F0E5FA0021A01500F0E1FA10BD37
:1007F00010B50121084600F0DBFA0021012000F0CD
:10080000D7FA10BD2DE9F041024600250026002050
:1008100000230024002791F803C00CF00F0591F885
:1008200003C00CF0100CBCF1000F03D091F802C013
:100830004CEA050591F800C0BCF1000F31D01468F6
:1008400000202BE04FF0010C0CFA00F3B1F800C0CF
:100850000CEA03069E4220D183004FF00F0C0CFAE5
:1008600003F7BC4305FA03FC4CEA040491F803C007
:10087000BCF1280F06D14FF0010C0CFA00FCC2F8B5
:1008800014C00AE091F803C0BCF1480F05D14FF045
:10089000010C0CFA00FCC2F810C0401C0828D1D38F
:1008A0001460B1F800C0BCF1FF0F34DD54680020C3
:1008B0002EE000F1080C4FF0010808FA0CF3B1F833
:1008C00000C00CEA03069E4221D183004FF00F0CBA
:1008D0000CFA03F7BC4305FA03FC4CEA040491F854
:1008E00003C0BCF1280F05D100F1080C08FA0CF880
:1008F000C2F8148091F803C0BCF1480F07D100F191
:10090000080C4FF0010808FA0CF8C2F81080401CDF
:100910000828CED35460BDE8F0814FF6FF71018006
:10092000022181700421C170704702460020936843
:100930000B400BB1012000E00020704701468868A1
:1009400080B2704702460020D3680B400BB10120F3
:1009500000E0002070470146C86880B2704701611E
:100960007047416170470AB1016100E04161704721
:10097000C16070474FF480320A43826181618261B5
:1009800082698269704702460020434B18684FF61F
:100990008073184040EA021008433F4B18607047CC
:1009A0003E49C8617047F0B50A4600230024002183
:1009B000002500F00046B6F1004F02D1364EF16935
:1009C00001E0354E7168C0F3034583B200F4401670
:1009D000B6F5401F08D121F070612F4E766826F0E1
:1009E00070662D4F7E6012E000F48016B6F5801F11
:1009F00006D1032606FA05F4A14341F0706106E032
:100A0000460D360103FA06F6B14341F0706122B19A
:100A1000460D360103FA06F6314300F00046B6F102
:100A2000004F02D11C4EF16101E01B4E7160F0BD20
:100A300030B500228B071C0F0F2303FA04F2164B6C
:100A400008338C1053F824309343134C08348D1022
:100A500044F8253023468C1053F824308C07240F9B
:100A600000FA04F423430C4C08348D1044F825306C
:100A700030BD0A49DC3108607047000000080140C1
:100A8000000C01400010014000140140001801401A
:100A9000001C0140002001400000014000002042F5
:100AA000DF48006840F00100DD4908600846406802
:100AB000DC490840DA49486008460068DA490840DD
:100AC000D74908600846006820F48020086008467E
:100AD000406820F4FE0048604FF41F0088607047B3
:100AE000CF49096821F48031CD4A11601146096867
:100AF00021F480211160B0F5803F03D0B0F5802F44
:100B00000ED106E0C649096841F48031C44A11603B
:100B100007E0C349096841F4A021C14A116000E01F
:100B200000BF00BF704710B501460022002300201F
:100B30004A11012A02D1BA4C236806E0022A02D1E6
:100B4000B74C236A01E0B64C636A01F01F0201242E
:100B500094401C400CB1012000E0002010BD38B5CD
:100B6000002000900024002500BF3120FFF7DBFFAC
:100B700005460098401C00900098B0F5A06F01D089
:100B8000002DF2D03120FFF7CEFF08B1012400E0A4
:100B90000024204638BD01460020A14A106820F0FC
:100BA000F80040EAC10010607047A0490860704733
:100BB000024600209A4B586820F47C1042EA010358
:100BC0001843974B5860704798490866704701462C
:100BD0000020934A506820F003000843506070479B
:100BE0008F48406800F00C007047014600208C4A96
:100BF000506820F0F0000843506070470146002024
:100C0000874A506820F4E06008435060704701460E
:100C10000020834A506820F4605040EAC1005060D0
:100C2000704729B17E4A527A02437D4B5A7204E0E2
:100C30007B4A527A82437A4B5A7270477B49D83149
:100C40000860704701460020754A506820F4404013
:100C50000843506070470021714A20321170704A79
:100C600082F82010012802D004280AD104E00121D2
:100C70006B4A2032117005E00521694A203211705B
:100C800000E000BF00BF70476949086070476449D1
:100C9000096A0143624A1162704765494439086034
:100CA000704730B500210022002400235C4D6D68A0
:100CB00005F00C0121B1042905D0082923D105E054
:100CC0005C4D056022E05B4D05601FE0544D6D6892
:100CD00005F47012524D6D6805F48034022505EB61
:100CE00092421CB9544D554305600BE04C4D6D6864
:100CF00005F400351DB1504D5543056002E04D4DE2
:100D00005543056002E04B4D056000BF00BF444DF8
:100D10006D6805F0F0010909484D6B5C0568DD4020
:100D200045603F4D6D6805F4E061090A434D6B5C19
:100D30004568DD4085603A4D6D6805F46051C90A2B
:100D40003E4D6B5C4568DD40C560354D6D6805F412
:100D50004041890B3A4D6B5CC568B5FBF3F5056105
:100D600030BD29B12E4A526902432D4B5A6104E02D
:100D70002B4A526982432A4B5A61704729B1284A4B
:100D800092690243264B9A6104E0254A92698243A4
:100D9000234B9A61704729B1214AD2690243204B03
:100DA000DA6104E01E4AD26982431D4BDA61704762
:100DB00029B11B4AD2680243194BDA6004E0184A91
:100DC000D2688243164BDA60704729B1144A12691F
:100DD0000243134B1A6104E0114A12698243104B1B
:100DE0001A61704712494039086070470F49C8645A
:100DF00070470B49C87170470948406A40F08070DD
:100E000007494862704701460020054A92680A4037
:100E10000AB1012000E00020704701498872704744
:100E2000001002400000FFF8FFFFF6FE0000424203
:100E30008004424200127A0000093D0014000020A4
:100E40002400002010B50446FE48844208D1012148
:100E5000C014FFF7ADFF0021E014FFF7A9FFC4E0C5
:100E6000B4F1804F08D101210846FFF7AEFF002101
:100E70000120FFF7AAFFB8E0F348844208D101211E
:100E80000220FFF7A2FF00210220FFF79EFFACE047
:100E9000EE48844208D101210420FFF796FF00218B
:100EA0000420FFF792FFA0E0E948844208D1012125
:100EB0000820FFF78AFF00210820FFF786FF94E053
:100EC000E448844208D101211020FFF77EFF002171
:100ED0001020FFF77AFF88E0DF48844208D1012123
:100EE0002020FFF772FF00212020FFF76EFF7CE03B
:100EF000DA48844208D101214014FFF759FF00214C
:100F00006014FFF755FF70E0D548844209D10121F4
:100F1000C804FFF74DFF00214FF40020FFF748FF02
:100F200063E0D048844209D101210805FFF740FF62
:100F300000214FF48010FFF73BFF56E0CA4884427F
:100F400009D101214805FFF733FF00214FF40010BC
:100F5000FFF72EFF49E0C548844208D10121402017
:100F6000FFF733FF00214020FFF72FFF3DE0C0488F
:100F7000844208D101218020FFF727FF0021802033
:100F8000FFF723FF31E0BB48844208D101218015DF
:100F9000FFF71BFF0021A015FFF717FF25E0B6485C
:100FA000844209D101210804FFF702FF00214FF418
:100FB0008030FFF7FDFE18E0B048844209D10121DE
:100FC0004804FFF7F5FE00214FF40030FFF7F0FE74
:100FD0000BE0AB48844208D101218804FFF7E8FE0A
:100FE00000214FF48020FFF7E3FE10BD00220288AD
:100FF000944B98420ED0994B98420BD0B0F1804F51
:1010000008D0914B984205D0904B984202D0904B1B
:10101000984204D14FF68F731A404B881A438D4B78
:10102000984207D08C4B984204D04FF6FF431A40A9
:10103000CB881A4302808B8883850B880385814B7C
:1010400098420BD0854B984208D08B4B984205D0E4
:101050008A4B984202D08A4B984201D10B7A038680
:1010600001238382704770B5002400220023058C81
:101070004FF6FE7635400584028C8388048B4FF64C
:101080008F752C40B51E2C400D882C43751E2A40B0
:101090000D892A434D882A436A4DA8420BD06F4DD3
:1010A000A84208D0744DA84205D0744DA84202D081
:1010B000734DA84213D14FF6F7752A404D892A4344
:1010C0004FF6FB752A408D882A434FF6FF652B406B
:1010D0004FF6FF552B408D892B43CD892B438380C1
:1010E0000483CD888586028470BD70B500240022FB
:1010F0000023058C4FF6EF7635400584028C8388FB
:10110000048B48F6FF752C404FF6FF452C400D88A8
:101110004FF6FF7606EA05252C434FF6DF752A4089
:101120000D8906EA05152A434D8806EA05152A4366
:10113000444DA84202D0494DA8421DD14FF67F75BB
:101140002A404D894FF6FF7606EA05152A434FF6E9
:10115000BF752A408D8806EA05152A434FF6FF35EC
:101160002B404FF2FF752B408D8906EA85052B43F6
:10117000CD8906EA85052B4383800483CD880587C6
:10118000028470BD70B5002400220023058C4FF648
:10119000FF6635400584028C8388848B4FF68F75FB
:1011A0002C404FF6FC752C400D882C434FF6FF5514
:1011B0002A400D894FF6FF7606EA05252A434D8819
:1011C00006EA05252A431F4DA84202D0234DA84216
:1011D0001DD14FF2FF752A404D894FF6FF7606EA82
:1011E00005252A434FF6FF352A408D8806EA052556
:1011F0002A434EF6FF752B404DF6FF752B408D8927
:1012000006EA05152B43CD8906EA05152B43838095
:101210008483CD888587028470BD70B50022002349
:101220000024058C4EF6FF7635400584038C8488B7
:10123000828B48F6FF752A404FF6FF452A400D88FD
:1012400020E00000002C01400004004000080040A5
:10125000000C004000100040001400400034014029
:10126000004C014000500140005401400018004073
:10127000001C0040002000400040014000440140AC
:10128000004801404FF6FF7606EA05252A434DF651
:10129000FF752B400D8906EA05352B434D8806EA7C
:1012A00005352B43FA4DA84202D0FA4DA84208D189
:1012B0004BF6FF752C408D894FF6FF7606EA8515B3
:1012C0002C4384808283CD88A0F84050038470BD75
:1012D000828B4FF2FF331A408283828B4FF6FF736B
:1012E00003EA01231A4382837047F0B50C46154682
:1012F000002200210026078C4EF6FF7C07EA0C072F
:101300000784828B018C4FF6FF7707EA043640F69C
:10131000FF473A404FF6FF7707EA05273A434FF673
:10132000FF7707EA03373A43D94FB8420ED0D94F77
:10133000B8420BD0B0F1804F08D0D74FB84205D09B
:10134000D64FB84202D0D64FB84206D14DF6FF77FD
:10135000394046F48057394305E047F6FF57394096
:1013600044F48057394382830184F0BD828B4FF669
:10137000F3731A408283828B0A4382837047F0B5ED
:101380000C461546002200210026078C4FF6FF6C04
:1013900007EA0C070784828B018C4FF6FF7707EA78
:1013A00004264FF60C773A404FF6FF7707EA03170B
:1013B0002F433A43B64FB8420ED0B64FB8420BD087
:1013C000B0F1804F08D0B44FB84205D0B34FB84207
:1013D00002D0B34FB84206D14FF6FF57394046F41A
:1013E0008077394305E04FF2FF57394044F4807766
:1013F000394382830184F0BD028B4FF2FF331A40E0
:101400000283028B4FF6FF7303EA01231A43028320
:101410007047F0B50C461546002200210026078CC7
:101420004FF6EF7C07EA0C070784028B018C4FF61E
:10143000FF7707EA041640F6FF473A404FF6FF777A
:1014400007EA03373A434FF6FF7707EA05273A439F
:101450008F4FB8420ED08F4FB8420BD0B0F1804FB3
:1014600008D08D4FB84205D08C4FB84202D08C4F77
:10147000B84206D14FF6DF77394046F010073943BE
:1014800005E04FF65F77394044F010073943028397
:101490000184F0BD028B4FF6F3731A400283028B76
:1014A0000A4302837047F0B50C461546002200211E
:1014B000068C4FF6FE773E400684028B018C4FF679
:1014C0000C7632407E1C06EA03162E433243704EE1
:1014D000B0420ED06F4EB0420BD0B0F1804F08D06A
:1014E0006D4EB04205D06D4EB04202D06C4EB0424F
:1014F00006D14FF6FD76314044F00106314305E058
:101500004FF6F576314044F0010631430283018401
:10151000F0BD70B505460C465D4885420ED05D486D
:1015200085420BD0B5F1804F08D05B48854205D08D
:101530005A48854202D05A48854200D100E000BF97
:10154000208850B92389A28861882846FFF7ABFF1D
:10155000E1882846FFF79EFF25E0208804280AD16D
:101560002389A28861882846FFF753FFE18828462F
:10157000FFF742FF17E0208808280AD12389A288B4
:1015800061882846FFF7FBFEE1882846FFF7EEFE5C
:1015900009E02389A28861882846FFF7A6FEE18832
:1015A0002846FFF795FE70BD2DE9F04105460C4633
:1015B00000260127608808B9022600E00026A088DE
:1015C000012801D1022700E001272088A0B9238942
:1015D000A28861882846FFF766FFE1882846FFF762
:1015E00059FF23893A4631462846FFF712FFE18822
:1015F0002846FFF701FF13E02389A2886188284667
:10160000FFF707FFE1882846FFF7F6FE23893A46F1
:1016100031462846FFF747FFE1882846FFF73AFFA3
:10162000BDE8F0810A884B881A438B881A43CB881F
:101630001A430B891A434B891A438B891A43A0F822
:10164000442070474FF6FF71818000210180C180E6
:101650004180017270470021018041808180C180FA
:10166000018141818181C1817047002101804180D8
:10167000012181800021C18001817047002101800A
:1016800041808180C180018141818181704700005A
:10169000002C0140003401400004004000080040DC
:1016A000000C004021B1028842F00102028004E0F7
:1016B00002884FF6FE731A400280704731B1B0F8CD
:1016C000442042F40042A0F8442005E0B0F8442051
:1016D000C2F30E02A0F8442070471AB183890B436D
:1016E000838102E083898B438381704781827047C5
:1016F00041EA0203A0F8483070471AB183890B43CE
:10170000838102E083898B438381704701894FF68F
:10171000F8721140018170470A46002101894FF695
:101720008F73194011430181704730B504460D464F
:1017300029462046FFF7F0FF208940F0070020816E
:1017400030BD2DE9F04104460D4616461F46602D7A
:1017500006D13B46012231462046FFF75AFE05E0FE
:101760003B46012231462046FFF79DFE2946204692
:10177000FFF7D2FF208940F007002081BDE8F0810B
:1017800030B50C4600210189C9B24FF6FF7505EA54
:101790000325154325432943018130BD2DE9F0413F
:1017A00005460E4617469846002443463A463146BB
:1017B0002846FFF7E5FF2C894FF6F870044044F007
:1017C00007044FF68F70044044F070042C81BDE88C
:1017D000F081F0B504460D4616461F463B4632469C
:1017E00029462046FFF7CCFF208940F48040208125
:1017F000F0BD0185828270470A46002101884FF6BC
:101800008F731940114301807047F0B50C4615469F
:101810001E460021002200230189028B038C4FF613
:10182000F877394021434FF6FC473A4040F2011720
:101830003A434FF6DD773B404FF6FF7707EA06174E
:101840002F433B43018102830384F0BD0A460021FC
:10185000018B4FF68F7319401143018370470A467D
:101860000021018B48F6FF7319404FF6FF7303EA1E
:1018700002231943018370470A460021818B4FF6EA
:101880008F7319401143818370470A460021818B71
:1018900048F6FF7319404FF6FF7303EA022319431A
:1018A0008183704721B1028842F08002028004E007
:1018B00002884FF67F731A400280704721B18288F8
:1018C00042F00402828004E082884FF6FB731A40E3
:1018D0008280704721B1828842F00802828004E051
:1018E00082884FF6F7731A408280704721B1828850
:1018F00042F00102828004E082884FF6FE731A40B3
:10190000828070470A460021018B4FF6F773194019
:101910001143018370470A460021018B4FF2FF7388
:1019200019404FF6FF7303EA0223194301837047FE
:101930000A460021818B4FF6F773194011438183CA
:1019400070470A460021818B4FF2FF7319404FF612
:10195000FF7303EA02231943818370470A4600217B
:10196000018B4FF6FB7319401143018370470A4600
:101970000021018B4FF6FF3319404FF6FF7303EA46
:1019800002231943018370470A460021818B4FF6D9
:10199000FB7319401143818370470A460021818BF4
:1019A0004FF6FF3319404FF6FF7303EA0223194342
:1019B000818370470A460021018B4FF67F731940DF
:1019C0001143018370470A460021018BC1F30E01C8
:1019D0004FF6FF7303EA02231943018370470A4657
:1019E0000021818B4FF67F7319401143818370472B
:1019F0000A460021818BC1F30E014FF6FF7303EA03
:101A000002231943818370470A460021018C4FF657
:101A1000FD7319401143018470470A460021018C6F
:101A20004FF6F77319401143018470470A460021AD
:101A3000018C4FF6DF7319404FF6FF7303EA021370
:101A40001943018470470A460021018C4FF67F73C9
:101A500019404FF6FF7303EA0213194301847047DC
:101A60000A460021018C4FF6FF5319404FF6FF73D1
:101A700003EA02231943018470470A460021018CBE
:101A80004FF2FF7319404FF6FF7303EA0223194325
:101A9000018470470A460021018C4DF6FF731940FE
:101AA0004FF6FF7303EA023319430184704730B5E0
:101AB000002301248C40A3B2048C9C430484048C36
:101AC00002FA01F5ADB22C43048430BD30B50023D9
:101AD00004248C40A3B2048C9C430484048C02FA3A
:101AE00001F5ADB22C43048430BD70B5034600202F
:101AF00000241846183001258D40ACB21D8CA5433A
:101B00001D8409B1082909D100EB6100056825F0A1
:101B1000700505600568154305600EE00D1FC5F3EF
:101B20004E052844056825F4E045056005684FF634
:101B3000FF7606EA02263543056070BD21B10288B2
:101B400042F00202028004E002884FF6FD731A4060
:101B50000280704721B1028842F00402028004E052
:101B600002884FF6FB731A400280704721B18288C9
:101B700042F08002828004E082884FF67F731A4030
:101B80008280704702884FF6F7731A4002800288FD
:101B90000A430280704782884FF68F731A40828012
:101BA00082880A438280704702894FF6F8731A4090
:101BB000028102890A430281704702894FF67F73CE
:101BC0001A40028102890A4302817047818470476A
:101BD000818570478186704701877047818770478C
:101BE000A0F84010704702884FF6FF431A40028069
:101BF00002880A43028070470146888E704701467A
:101C0000088F70470146888F70470146B1F8400041
:101C100070470146888C70470146088D7047024620
:101C20000020138A0B400BB1012000E00020704718
:101C3000CA430282704730B50246002000230024C8
:101C4000158A05EA0103958905EA010413B10CB16F
:101C5000012000E0002030BDCA430282704700002E
:101C600010B50446FB48844209D101218803FFF7DF
:101C70009FF800214FF48040FFF79AF832E0F648D1
:101C8000844209D101214804FFF79FF800214FF455
:101C90000030FFF79AF825E0F048844209D101218D
:101CA0008804FFF792F800214FF48020FFF78DF8A9
:101CB00018E0EB48844209D10121C804FFF785F8F8
:101CC00000214FF40020FFF780F80BE0E548844244
:101CD00008D101210805FFF778F800214FF48010A2
:101CE000FFF773F810BD2DE9F04786B005460E46A4
:101CF0000024A24600BFA1460027B08900B100BF62
:101D00002F462C8A4CF6FF700440F08804432C8246
:101D1000AC894EF6F3100440B088318908437189CC
:101D200008430443AC81AC8A4FF6FF400440B089BD
:101D30000443AC8201A8FEF7B4FFC648874202D133
:101D4000DDF810A001E0DDF80CA0A88900F4004047
:101D500040B10AEBCA0000EB0A1031684900B0FB41
:101D6000F1F807E00AEBCA0000EB0A1031688900BD
:101D7000B0FBF1F86420B8FBF0F004012009642105
:101D800001FB1089A88900F4004040B1322000EB2B
:101D9000C900B0FBF1F000F00700044308E0322076
:101DA00000EB09106421B0FBF1F000F00F000443D8
:101DB0002C8106B0BDE8F0874FF416510160002178
:101DC0008180C18001810C21418100218181704786
:101DD00010B502460020108A4FF2FF0318400B880E
:101DE0004C8823438C882343CC8823431843108298
:101DF00010BD0021018041808180C180704721B1E8
:101E0000828942F40052828104E082894DF6FF7398
:101E10001A4082817047F0B5034600240026002551
:101E2000002040F66A17B94200D100BF1846C1F33E
:101E3000421401F01F06012707FA06F5012C01D113
:101E40000C3004E0022C01D1103000E014301AB143
:101E500007682F43076002E00768AF430760F0BDE3
:101E60001AB1838A0B43838202E0838A8B43838285
:101E70007047028A4FF6F0731A400282028A0A43C0
:101E80000282704782894FF2FF731A4082818289F1
:101E90000A438281704721B1828942F00202828125
:101EA00004E082894FF6FD731A4082817047028AEE
:101EB0004FF6DF731A400282028A0A430282704799
:101EC00021B1028A42F48042028204E0028A4BF687
:101ED000FF731A4002827047C1F308028280704784
:101EE00001468888C0F308007047818941F00101EC
:101EF00081817047028BD2B20283028B42EA0122B7
:101F000002837047028B02F47F420283028B0A43F2
:101F10000283704721B1828A42F02002828204E06B
:101F2000828A4FF6DF731A408282704721B1828A1B
:101F300042F01002828204E0828A4FF6EF731A4068
:101F40008282704721B1828A42F00802828204E0D4
:101F5000828A4FF6F7731A408282704721B18289D4
:101F600042F40042828103E08289C2F30E02828140
:101F7000704721B1828A42F40062828204E0828A40
:101F80004FF2FF731A4082827047828A4FF6FB73CA
:101F90001A408282828A0A438282704721B1828AF1
:101FA00042F00202828204E0828A4FF6FD731A40F8
:101FB0008282704702460020B1F5007F00D100BF49
:101FC00013880B400BB1012000E00020704701F4A2
:101FD0000072B2F5007F00D100BFCA430280704793
:101FE00070B50246002400230025002040F66A1642
:101FF000B14200D100BFC1F3421501F01F03012619
:1020000006FA03F3012D02D19689334006E0022D32
:1020100002D1168A334001E0968A33400C12012621
:1020200006FA04F41688344013B10CB1012000E024
:10203000002070BD10B50022002340F66A14A142B2
:1020400000D100BF0A1201249440A3B2DC430480F3
:1020500010BD00000038014000440040004800402E
:10206000004C00400050004010B56FF00400FEF737
:102070004AFB2E4800682E49B0FBF1F02D4908704C
:102080000846007800EB4001C1EBC0104FF6FF712D
:1020900001EAC0002849088010BD0146254A12788F
:1020A0004A434FF0E0235A6100229A611A461269AE
:1020B00042F001021A6100BF4FF0E022106900F007
:1020C00001021AB100F48032002AF5D04FF0E0226C
:1020D000126922F001024FF0E0231A6100229A6196
:1020E00070470146144A12884A434FF0E0235A6170
:1020F00000229A611A46126942F001021A6100BF79
:102100004FF0E022106900F001021AB100F48032B1
:10211000002AF5D04FF0E022126922F001024FF0C0
:10212000E0231A6100229A6170470000000000203D
:1021300000127A00280000202A000020014600BF7B
:10214000704700BF494A128802F04002002AF9D0C5
:10215000C2B2464B1B1D1A80704710B586B00446AC
:10216000012144F20400FEF709FE4FF40070ADF8BF
:10217000140003208DF8160018208DF8170005A90B
:102180003B48FEF73FFB4FF48060ADF8140004209D
:102190008DF8170005A93648FEF734FB25208DF889
:1021A000000003208DF801008DF8020001208DF859
:1021B00003006846FEF75DFA01940020ADF80800C0
:1021C000ADF80A00ADF80C00ADF810000C20ADF829
:1021D0000E0001A92548FFF786FD012240F2255196
:1021E0002248FFF718FE01212048FFF708FE06B03D
:1021F00010BD10B540F225511C48FFF7F1FE10B399
:102200001A48FFF76DFEC4B21A48008800F4004077
:10221000C8B91848008800F4804060B10A2C03D087
:1022200000201449088020E01248008840F4004053
:102230001049088019E00D2C06D10E48008840F4A2
:1022400080400C49088010E00A480088C0F30D0067
:1022500009490C5407480088401C06490880084674
:102260000088C72801DD0020088010BD003801402B
:102270000008014030000020A013002008B5012113
:102280001020FEF77BFD4FF40050ADF80000102049
:102290008DF8030003208DF8020069460448FEF71C
:1022A000B1FA4FF400510248FEF759FB08BD000097
:1022B0000010014010B54021F948FEF750FB802185
:1022C000F748FEF74EFB8021F548FEF748FB10BDAE
:1022D00010B54021F248FEF742FB4021F048FEF7DE
:1022E00040FB10BD70B5044600251BE04021EC48C2
:1022F000FEF737FB04F0800020B18021E848FEF7AC
:102300002EFB03E08021E648FEF72BFB4021E4484A
:10231000FEF725FB4021E248FEF723FB6006040E92
:10232000681CC5B2082DE1DB70BD10B58021DC480A
:10233000FEF715FB4021DA48FEF711FB8021D84853
:10234000FEF70FFB4021D648FEF70BFB10BD70B522
:1023500005460C46FFF7E9FF7820FFF7C3FFFFF7BC
:10236000B7FF1CB14020FFF7BDFF02E00020FFF7E0
:10237000B9FFFFF7ADFF2846FFF7B4FFFFF7A8FF4F
:10238000FFF798FF70BD10B504461CB90021A620C8
:10239000FFF7DDFF012C03D10021A720FFF7D7FFB6
:1023A00010BD10B504463CB90021C820FFF7CFFF8F
:1023B0000021A120FFF7CBFF012C07D10021C02075
:1023C000FFF7C5FF0021A020FFF7C1FF10BD10B52A
:1023D00000218D20FFF7BBFF00211420FFF7B7FF7E
:1023E0000021AF20FFF7B3FF10BD10B500218D20F5
:1023F000FFF7ADFF00211020FFF7A9FF0021AF205C
:10240000FFF7A5FF10BD70B500241CE004F1B0017A
:10241000C8B20021FFF79BFF00210846FFF797FF96
:1024200000211020FFF793FF002508E09D4901EBF4
:10243000C501085D0121FFF78AFF681CC5B2802D28
:10244000F4DB601CC4B2082CE0DB70BD70B5002466
:102450000CE0002506E00020924901EBC50108557B
:10246000681CC5B2802DF6DB601CC4B2082CF0DB02
:10247000FFF7C9FF70BD70B50A46CE1701EB56765F
:10248000C6F3C703CE1701EB5676F610A1EBC606CE
:10249000F4B20122A240D5B2824A02EBC002D25C61
:1024A0002A43804E06EBC006F25470BD70B50B4651
:1024B000CE1701EB5676C6F3C702CE1701EB567660
:1024C000F610A1EBC606F4B20123A340DDB2754BB2
:1024D00003EBC0039B5CDB43724E06EBC006B354B8
:1024E000704B03EBC0039B5C2B436E4E06EBC006A8
:1024F000B3546C4B03EBC0039B5CDB43694E06EBB0
:10250000C006B35470BD00BF70472DE9F0430646C6
:102510000F469046002544463BE03A1BD1B2721963
:10252000D0B2FFF7A8FF3A1BD1B2721BD0B2FFF7AF
:10253000A2FF3A19D1B2721BD0B2FFF79CFF3A1931
:10254000D1B27219D0B2FFF796FF7A19D1B232190F
:10255000D0B2FFF790FF7A1BD1B23219D0B2FFF799
:102560008AFF7A1BD1B2321BD0B2FFF784FF7A19EF
:10257000D1B2321BD0B2FFF77EFF6D1C05FB05F018
:1025800004FB040008FB1809B9F1000F01DD641E0B
:102590006D1E6000604308FB08F18842BDDABDE8AB
:1025A000F0832DE9FF4F81B080460E461C46009611
:1025B0002046E31704EB5373DB1021464FEAE47C1B
:1025C00004EB5C7C4FEAEC0CA4EBCC0CBCF1000FF0
:1025D00002D04FF0010C01E04FF0000C63442246A2
:1025E00004EBD27C4FEA6C0C03FB0CF303F0FF0B03
:1025F00003982038C7B2002547E00C2C07D107EB21
:102600004700294901EB800010F805A014E0102CC8
:1026100005D1264800EB071010F805A00CE0182C97
:1026200007D107EBC700224901EB800010F805A095
:1026300002E005B0BDE8F08F4FF000091FE00AF09E
:10264000800020B131464046FFF715FF03E03146D8
:102650004046FFF72BFF4FEA4A604FEA106A701CB2
:10266000C6B20098301AA04205D1009E08F10100C0
:1026700000F0FF0806E009F1010000F0FF09B9F1E0
:10268000080FDCDB00BF681CC5B25D45B5DB00BFD1
:10269000CFE7F0B506460F4614461D461EE0000083
:1026A00000080140681400207E5D0008F261000807
:1026B000E267000822782B4639463046FFF771FF63
:1026C000284605EBD07106EB6101CEB2C5F1800062
:1026D000B04202DA0026B81CC7B2641C2078202859
:1026E00002DB20787E28E5DDF0BD10B50246012032
:1026F00000E050430B1EA1F10104E1B2F9D110BD7D
:102700002DE9F04F06468A4691461F46099C002552
:102710002CE0781B401EC1B20A20FFF7E6FFB9FB90
:10272000F0F00A21B0FBF1F201FB1208B8F1000F42
:102730000CD1A34604EBDB71491001FB0561C8B263
:10274000234630225146FFF72CFF0DE0A34604EB51
:10275000DB71491001FB0561C8B208F13001CAB252
:1027600023465146FFF71DFF681CC5B2BD42D0DBB2
:10277000BDE8F08F2DE9FF4F0746884691461C467D
:102780004FF0000B0297CDF804802046E11704EBD0
:102790005171C1F3C701009160E009FB04F0C1175A
:1027A00000EB51710BEBE101CEB20BF1010000F037
:1027B000FF0B002550E0102C05D1BE4800EB0610A1
:1027C000405D03901BE0182C07D106EBC600BA4908
:1027D00001EBC000405D039011E0202C05D1B7480B
:1027E00000EBC610405D039009E0402C05D1B448D1
:1027F00000EB4620405D039001E0BDE8FF8F4FF005
:10280000000A17E0039800F0010020B14146384665
:10281000FFF731FE03E041463846FFF747FE0398D5
:102820004010039008F1010000F0FF080AF10100D8
:1028300000F0FF0ABAF1080FE4DB781CC7B2029877
:10284000381AA04204D1029F01980830C0B201900A
:10285000DDF80480681CC5B2A542ACDB0098411EBF
:10286000C9B20091002898D100BFC6E780468946CA
:102870000026002749E03FB9102332461821802066
:10288000FFF778FF701CC6B2464522D14FF0000A10
:102890001AE0002410E000250AE08A4800EBC4009A
:1028A000415D601E874A02EBC0004155681CC5B2FD
:1028B000082DF2DB601CC4B2902CECDBFFF7A3FD0B
:1028C0000AF1010000F0FF0A4FEA09105045E0DC70
:1028D0000026781CC7B2102F00D10027002410E07A
:1028E00000250AE0774800EBC400415D601E754A90
:1028F00002EBC0004155681CC5B2082DF2DB601C1C
:10290000C4B2902CECDBFFF77EFDB4E770B5044653
:102910000D4605F1B001C8B20021FFF718FD1021E6
:1029200041EA14100021FFF712FD04F00F0141F0FD
:1029300001000021FFF70BFD70BD2DE9F05F05469A
:102940000E4617469846DDF828B04FF00009CA46F3
:102950000024E11704EB5171C910A4EBC10101B9C6
:1029600001E0601CC4B2344614E021462846FFF75B
:10297000CDFFAA460AE01BF809000121FFF7E7FC9A
:1029800009F101090AF1010000F0FF0ABA45F2DB82
:10299000601CC4B24445E8DBBDE8F09F08B50121E6
:1029A0000420FEF7EBF9C020ADF8000010208DF8F0
:1029B000030003208DF8020069464348FDF722FF1B
:1029C000C0214148FDF7CBFFC820FFF78AFB00215B
:1029D000AE20FFF7BCFC00210846FFF7B8FC002141
:1029E0001020FFF7B4FC00214020FFF7B0FC0021CD
:1029F0008120FFF7ACFC0021CF20FFF7A8FC0021CD
:102A0000A120FFF7A4FC0021C820FFF7A0FC0021B3
:102A1000A620FFF79CFC0021A820FFF798FC0021CE
:102A20003F20FFF794FC0021D320FFF790FC00210A
:102A30000846FFF78CFC0021D520FFF788FC002119
:102A40008020FFF784FC0021D920FFF780FC0021C3
:102A5000F120FFF77CFC0021DA20FFF778FC002151
:102A60001220FFF774FC0021DB20FFF770FC00212F
:102A70004020FFF76CFC00212020FFF768FC0021BC
:102A80000220FFF764FC00218D20FFF760FC00218D
:102A90001420FFF75CFC0021A420FFF758FC002164
:102AA000A620FFF754FC0021AF20FFF750FCFFF7F2
:102AB000CDFC08BD3E750008320000200A01002050
:102AC0000A03002068140020000801402DE9F041AD
:102AD00005460C46FE480168204603F061F80746AB
:102AE000FC480168384602F053FF0646FA48016880
:102AF000304602F0A1FDF8490860F8484168F848FE
:102B0000006803F04DF80646F4488168304603F04B
:102B100047F8F4490860F148C06880F00040486018
:102B2000EE48C06880F000408860EF480068C860E8
:102B30000868E849096802F02BFF0646E748016883
:102B4000304602F079FDE5490860E6494868E14908
:102B5000096802F01DFF0646E0484168304602F071
:102B60006BFDDE494860DF498868DA49096802F090
:102B70000FFF0646D9488168304602F05DFDD7490F
:102B80008860D849C868D349096802F001FF064641
:102B9000D248C168304602F04FFDD049C860CE48E7
:102BA0000168284602F0FCFFD0490860D048007850
:102BB00002F0A6FE0646C9480168304602F0E8FE6B
:102BC000CC490860CA48007802F09AFE0646C3481D
:102BD0008168304602F0DCFEC7490860C4480078CE
:102BE00002F08EFE0746C3480168384602F0D0FE68
:102BF0000646C2480168304602F01EFDC049086022
:102C000008460168BB48006802F084FDBD490860C1
:102C1000BB480168B848006802F07CFDBA4908600A
:102C2000B4480068B9490860B148007802F068FE0D
:102C30000646AA484168304602F0AAFEB449086038
:102C4000B2480168AF48006802F0A2FE0646A348F9
:102C50000168304602F099FFA0490860AC4801685D
:102C6000A848006802F094FE06469C484168304639
:102C700002F08BFF99494860A4480168A2480068A7
:102C800002F086FE064695488168304602F07DFFD8
:102C9000924988609E4801689B48006802F078FE6F
:102CA00006468E48C168304602F06FFF8B49C86007
:102CB0008E4801689348006802F06AFE064686481E
:102CC0000168304602F0B8FC834908608748016813
:102CD0008D48006802F05CFE06467D48016830467B
:102CE00002F0AAFC7A49086008460168204602F012
:102CF00057FF88490860BDE8F0812DE9F04105469D
:102D00000C4673480168204602F04AFF07467148A6
:102D10000168384602F03CFE06467F4801683046AE
:102D200002F08AFC7C4908606C4841686C48006885
:102D300002F036FF064669488168304602F030FFEF
:102D4000684908606548C06880F000404860634892
:102D5000C06880F00040886063480068C860086808
:102D60005C49096802F014FE06465C48016830467A
:102D700002F062FC594908605A4948685549096897
:102D800002F006FE064655484168304602F054FC03
:102D900052494860534988684E49096802F0F8FD75
:102DA00006464E488168304602F046FC4B49886032
:102DB0004C49C8684749096802F0EAFD0646474899
:102DC000C168304602F038FC4449C8604848007881
:102DD00002F096FD064641480168304602F0D8FDF3
:102DE000444908604248007802F08AFD06463B48A4
:102DF0008168304602F0CCFD3F4908603C480078CD
:102E000002F07EFD07463B480168384602F0C0FDEF
:102E100006463A480168304602F00EFC3849086020
:102E2000084601683348006802F074FC35490860C0
:102E3000334801683048006802F06CFC3249086091
:102E40002C480068314908602948007802F058FD94
:102E5000064622484168304602F09AFD2C49086037
:102E60002A4801682748006802F092FD06461B4880
:102E70000168304602F089FE18490860244801685C
:102E80002048006802F084FD064614484168304638
:102E900002F07BFE114948601C4801681A4800682E
:102EA00002F076FD06460D488168304602F06DFE60
:102EB0000A498860164801681348006802F068FDF6
:102EC00006460648C168304602F05FFE034925E029
:102ED0005813002050130020401300207C130020C2
:102EE00044130020E8180020481300205C13002041
:102EF0005413002060130020641300204C130020A2
:102F0000681300206C13002070130020741300203D
:102F1000781300202C1300203C130020C860E048E8
:102F20000168284602F03CFEDE4908600846016858
:102F3000DD48006802F02CFD0646D948016830469D
:102F400002F07AFBD6490860D6480168D748006885
:102F500002F01EFD0646D6480168304602F06CFBC2
:102F6000D349086008460168204602F019FED1499D
:102F70000860BDE8F0812DE9FF5FCF4ACF49D04816
:102F800000F0F7FBCF4AD049D04800F0CAFB00F070
:102F90009DFBCF490880CA48B0F9000002F098FCB8
:102FA000CC490860C548B0F9000002F091FCCA495C
:102FB0000860C148B0F9000002F08AFCC749086007
:102FC000C248B0F9000002F083FCBA490860BE486C
:102FD000B0F9000002F07CFCC1490860B948B0F9C2
:102FE000000002F075FCBF490860BF49B94800689D
:102FF00002F09AFC07D24FF08D41B648006802F00B
:1030000089FB81460FE0B949B248006802F0C8FD6B
:1030100006464FF08D4102F07DFB05464FF07E5194
:1030200002F0B3FD8146B049AB48006802F07CFC79
:1030300007D24FF08D41A848006802F06BFB824632
:103040000FE0AA49A448006802F0AAFD06464FF026
:103050008D4102F05FFB05464FF07E5102F095FD79
:103060008246A1499D48006802F05EFC07D24FF0FD
:103070008D419A48006802F04DFB04460AE09B49E6
:103080009648006802F08CFD05464FF08D4102F035
:1030900041FB04462146504602F03CFB834602F0C9
:1030A0009FFA074601F030FD05460022904B02F0E2
:1030B000A3F8904A904BCDE9000101F02DFFCDE936
:1030C000020101F047FE8D4908602146484602F0A2
:1030D00021FB834602F084FA074601F015FD054600
:1030E0000022834B02F088F8824A834BCDE900012D
:1030F00001F012FFCDE9020101F02CFE80490860C9
:1031000079497448006802F00FFC03D27C480068DB
:103110007B49086074496F48006802F005FD05D2DC
:103120007748006880F00040754908606E496A4839
:10313000006802F0F9FB03D2704800686F4908602C
:1031400069496548006802F0EFFC05D26B480068E9
:1031500080F00040694908604FF08E415548006892
:1031600002F0E2FB10D25348006802F039FA074639
:103170004FF06632634B01F0CFFE81F0004105460F
:1031800001F0E8FD4B4908604FF08E414948006866
:1031900002F0CAFC12D2474801685B4802F000FD09
:1031A000834602F01DFA07464FF06632554B01F098
:1031B000B3FE054601F0CEFD3E4908604FF08E415A
:1031C0004748006802F0B0FB10D24548006802F0A2
:1031D00007FA05464FF066324A4B01F09DFE81F03A
:1031E0000041074601F0B6FD3D4908604FF08E41B1
:1031F0003B48006802F098FC12D239480168424806
:1032000002F0CEFC834602F0EBF907464FF066323F
:103210003C4B01F081FE054601F09CFD3049086001
:103220004FF08E412F48006802F07EFB10D22D48EF
:10323000006802F0D5F905464FF06632314B01F0D7
:103240006BFE81F00041074601F084FD25490860CE
:103250004FF08E412348006802F066FC12D22148EC
:103260000168294802F09CFC834602F0B9F9054642
:103270004FF06632234B01F04FFE074601F06AFD26
:10328000184908600B4801681C480068FFF735FDC5
:10329000134801681A480068FFF718FCBDE8FF9F53
:1032A0003C1300205C1300206C13002070130020DE
:1032B0005813002028130020101300200E130020A4
:1032C0000C130020161300201413002012130020EA
:1032D000181300201C1300202013002024130020AA
:1032E0002C1300203013002000F8FF460000404758
:1032F000008066401F85EB51B81E09403413002042
:10330000381300206666304000FF7F477FB50546D2
:103310000C4601210420FDF73EFDADF80850ADF844
:1033200004400020ADF80A00ADF8060001A91848D5
:10333000FDF75CFE012211461548FEF7CEF91E206E
:103340008DF8000000208DF8010003208DF80200A8
:1033500001208DF803006846FDF78BF901210C4828
:10336000FEF7A0F97FBD10B501210948FEF763FC07
:1033700068B101210648FEF76FFCFFF7FCFD054828
:10338000006808B9012000E000200249086010BD73
:1033900000080040B401224210B50220FEF77DFE75
:1033A00010BD08B501210820FDF7E8FCC020ADF8EC
:1033B000000010208DF8030003208DF802006946FC
:1033C0008548FDF71FFAC0218348FDF7C8FA08BDFC
:1033D00010B58148006820F070407F4908600846B9
:1033E000006840F04050086001207C4908607C493A
:1033F000C1F89801FFF7D0FF002078490860FFF777
:10340000CBFF00207649C1F8980110BD10B5724875
:10341000006820F07040704908600846006840F07D
:103420004050086000206D49091F08606C49C1F8D0
:103430009C01FFF7B1FF01206849091F0860684936
:10344000C1F89C01FFF7A8FF10BD10B50024624829
:10345000006820F07040604908600846006840F04D
:103460000040086001205D490860FFF795FF0120DA
:103470005B49C1F89801FFF78FFF07E0601CC4B2F9
:10348000FA2C03DDFFF7C2FF012010BD534880383E
:1034900000680028F2D15149091F086000BFF4E715
:1034A00010B500204D49091F08604B48006820F006
:1034B0007040494908600846006840F04050086084
:1034C00000204749C1F89C01FFF766FF01204349EE
:1034D000091F0860FFF760FF00204149C1F898010B
:1034E00010BD10B500203D49091F08603A4800682A
:1034F00020F07040384908600846006840F04050AD
:10350000086001203649C1F89C01FFF745FF012002
:103510003249091F0860FFF73FFF00203049C1F81A
:10352000980110BD70B504462B48006820F070402B
:10353000294908600846006840F0405008600020B3
:103540002649091F0860002512E0E00923490860A8
:103550006006040E01202249C1F89801FFF71CFF04
:1035600000201E49091F0860FFF716FF681CC5B23E
:10357000082DEADB70BD70B50546002416480068CA
:1035800020F07040144908600846006840F0004090
:103590000860002615E000201049091F0860FFF7A9
:1035A000FBFE01200E49C1F898016006040E0B488D
:1035B0008038006808B1601CC4B2FFF7EDFE701CD3
:1035C000C6B2082EE7DB15B9FFF78BFF01E0FFF766
:1035D00067FF204670BD0000000C01409C81214225
:1035E0000080214270B505460C46FFF7F1FED02061
:1035F000FFF798FFFFF729FF18B1FFF707FF01203A
:1036000070BD2846FFF78EFFFFF71FFF2046FFF72C
:1036100089FFFFF71AFF18B1FFF7F8FE0120EFE767
:10362000FFF7F4FE0020EBE710B5FFF7BAFE00212C
:103630006B20FFF7D7FF07211920FFF7D3FF0621E3
:103640001A20FFF7CFFF18211B20FFF7CBFF012126
:103650001C20FFF7C7FF10BD2DE9F04106460F46BD
:1036600014461D46FFF7B4FE002141EA4601C8B2E8
:10367000FFF758FFFFF7E9FE20B1FFF7C7FE012073
:10368000BDE8F0813846FFF74DFFFFF7DEFEFFF79C
:103690009FFE012101EB4601C8B2FFF743FFFFF790
:1036A000D4FE0DE0012C04D10020FFF764FF287048
:1036B00003E00120FFF75FFF2870601EC4B26D1C9D
:1036C000002CEFD1FFF7A2FE0020D9E72DE9F84F3B
:1036D0006B46022241216820FFF7BEFF9DF80100E2
:1036E0009DF8001040EA01200FFA80FA504601F0E0
:1036F0006BFD80460022594B01F00EFC0646584AED
:10370000584B01F059FB044601F024FB834656490F
:10371000584602F03DF9044602F0BEF800B2BDE89A
:10372000F88F2DE9FC4104460D4616466B460622ED
:1037300043216820FFF790FF0746BFB99DF80100BD
:103740009DF8001040EA012000B220809DF803009F
:103750009DF8021040EA012000B228809DF8050083
:103760009DF8041040EA012000B230803846BDE8E0
:10377000FC812DE9FC4104460D4616466B460622A7
:103780003B216820FFF768FF0746BFB99DF801009D
:103790009DF8001040EA012000B220809DF803004F
:1037A0009DF8021040EA012000B228809DF8050033
:1037B0009DF8041040EA012000B230803846BDE890
:1037C000FC812DE9F04105460E4617469846FFF765
:1037D000FFFD002141EA4501C8B2FFF7A3FEFFF754
:1037E00034FE20B1FFF712FE0120BDE8F081304623
:1037F000FFF798FEFFF729FE00240CE018F80400FC
:10380000FFF790FEFFF721FE18B1FFF7FFFD012043
:10381000EBE7601CC4B2BC42F0DBFFF7F7FD002011
:10382000E3E770B50446FFF7D3FDD020FFF77AFE3B
:10383000FFF70BFE2046FFF775FEFFF706FEFFF7CA
:10384000C7FDD120FFF76EFEFFF7FFFD0020FFF759
:1038500092FE0546FFF7DAFD284670BD0040754030
:10386000A4703D0AD74342400000C84270470000A0
:103870000FB4044910B503AA029800F08DFB10BCE8
:103880005DF814FB2C0000200FB41CB5074B06AAF2
:103890007B4469460090059800F065FB002069466E
:1038A00000F074FB1CBC5DF814FB0000F90600007E
:1038B00070B5044685690068C10601D5302600E070
:1038C0002026C00707D070BDD4E9012130469047BB
:1038D000206A401C20626D1EF6D570BD70B504468E
:1038E00085690078C00707D170BDD4E90121202087
:1038F0009047206A401C20626D1EF6D570BD000006
:103900002DE9F0410646002410687529314616A5B8
:1039100010D0AFF30080002802DA404213A507E080
:1039200031688A0701D512A502E0490704D511A51F
:10393000012401E0AFF3008000210A2206F12407F0
:1039400009E0B0FBF2FCB0FBF2F302FB1C003030EC
:1039500078541846491C0028F3D123462A4630469D
:10396000BDE8F04100F093B8000000002D00000019
:103970002B000000200000002DE9F0474FF0000A66
:1039800089460446C0F820A02046E1688847002800
:1039900076D0252806D0D4E901219047206A401C22
:1039A0002062F1E7E168204600258847C4F81CA0A2
:1039B00006460027C4F818A02A2E09D0304601F088
:1039C0009BF838B304EB8708303EC8F8186019E05C
:1039D00059F8041B204604EB87029161E16888478F
:1039E000012F064618D1E069002820DA25F02005CD
:1039F0001DE0D8F8180000EB800006EB40003038DE
:103A0000C8F818002046E1688847064601F074F8B7
:103A10000028EED1012F0AD02E2E08D12046E168D1
:103A200088477F1C0646022F45F02005C4DBA069AD
:103A3000002803DA404245F00105A061E80701D003
:103A400025F01005B6B1A6F14100192802D820369C
:103A500045F400654A463146204625604D46FCF750
:103A60009FFB58B1012806D0ED1D25F0070000F19D
:103A7000080989E704E005F1040985E730468AE78B
:103A8000206ABDE8F08770477047704770472DE99E
:103A9000F0470D4699469246044600F12408016815
:103AA000880604D5E06921F01001216000E00120C2
:103AB000A84201DD471B00E00027A1697A1902EB4B
:103AC0000900081AA0612078C00602D42046FFF73A
:103AD000EFFE002608E0D4E901211AF8060090471D
:103AE000206A401C761C20624E45F4DB2078C0061C
:103AF0000AD52046FFF7DCFE06E0D4E9012130209C
:103B00009047206A401C2062381EA7F10107F4DCB0
:103B100007E0D4E9012118F805009047206A401C0D
:103B20002062281EA5F10105F3DC2046FFF7D6FE32
:103B30002078000602D50220BDE8F0870120FBE7CF
:103B400070472DE9FF4F0C461E464FF0FF378BB0F4
:103B5000D2E90001DDF860800A908A46C1F30A5577
:103B600005B93D46002108464FF00000BAF1000FAC
:103B700000F4400005DA00EB80004FF4400101EA58
:103B800050004FEA9059B9F1010F00DDB9460A988B
:103B900050EA4A000ED044F61050A5F2FF354543D6
:103BA0002F14B8F1000F1ED07542291E1EDDC9F179
:103BB00000021CE0B8F1010F4FF0000001D03021ED
:103BC00003E0F24305E02154401CB042FBDB3046E9
:103BD0000022002121540B99C1F80880C1E900207E
:103BE0000FB0BDE8F08FBD1B6D1CDEE74A4600DA62
:103BF000694206A800F06CFA06AB93E8070003AB35
:103C000083E8070050460A9900F046FB8DE807005C
:103C1000A0F500501F3800900398002D09DD42F2F6
:103C20001F014A46084403A90390684600F0A5FD19
:103C300008E0A0F500504A461F3803A903906846E3
:103C400000F0AFFD8DE807000004000C03D04FF03A
:103C5000FF30410800E01046B8F1000F03D0002209
:103C6000009215461EE0751E05D400F0ABF9303207
:103C700062556D1EF9D5B3460122084302D00022D9
:103C80007F1C04E02078302801D100227F1E002A0A
:103C9000099786D01DE0112D07DA00F093F9303234
:103CA00062556D1C50EA0102F5D1084302D000981C
:103CB000C8B10EE00021681E05E0235C625C63541D
:103CC0002254401E491C8142F7DBAB46A81B401E14
:103CD0000990002004F80B000B98099AC0F808809E
:103CE000C0E9002B7CE711264FF0000859E72DE9C9
:103CF000F04F88460446D21D22F0070191B0D1E969
:103D00000001CDE90A0100F082FE02460B98C00FC7
:103D100001D02D2007E02068810701D52B2002E08B
:103D2000202101EAC000032A099001D0072A05DBFF
:103D300003464146204600F08BF90BE120788006CF
:103D400001D5E06900E00620B8F1650F814606D094
:103D5000B8F1660F18D0B8F1670F70D131E00020CC
:103D6000B9F1110F009001DB112301E009F101030A
:103D70000AAA01A90CA8FFF7E4FEDDE90C700026F1
:103D800009F10105834647E001204B4600904FF0C2
:103D900000470AAA01A90CA8FFF7D3FEDDE90DB080
:103DA0000C995D46002610B909F101000D18B9EB18
:103DB000050003D4C0F1FF3609F10105A5EB0900A8
:103DC0002BE0B9F1010F01DA4FF001090020B9F140
:103DD000110F0090484601DD112300E003460AAAB6
:103DE00001A90CA8FFF7ADFEDDE90C704D460026D9
:103DF0008346207800070AD4AB4500DA5D4601A867
:103E0000012D04DD411911F8011C302907D04F455F
:103E100002DA17F1040F04DA012082460FE06D1E6A
:103E2000EEE7002F02DCED1B3E4403E0781CA842C5
:103E300000DD7D1CB81B00F1010A4FF0004720781F
:103E4000000703D4AA4501DB4FF0FF3A0021B7F188
:103E5000004F0DF143088DF8431024D002202B238E
:103E6000002F01DA7F422D230A21021EA0F101005A
:103E700000DC5FB197FBF1FC97FBF1F201FB1C7CCE
:103E800017460CF1300C08F801CDEEE7A8F101005F
:103E900003702188090501D5452100E06521A0F1C5
:103EA000010800F8011C09980FA9A1EB0807FF1DE4
:103EB00000B10120411901EBEA70A1693844081AE8
:103EC000401EA0612078C00602D42046FFF7F0FC17
:103ED000099828B1D4E901219047206A401C20624A
:103EE0002078C00622D52046FFF7E2FC1EE0002E17
:103EF00004DBB34502DD01A8805D00E03020D4E999
:103F000001219047206A401C2062761CAAF1010022
:103F10005FEA000A0AD100F051F8C0680168405C0D
:103F2000D4E901219047206A401C2062281EA5F197
:103F30000105DCDC07E0D4E9012118F8010B90470A
:103F4000206A401C2062381EA7F10107F3DC2046DE
:103F5000FFF7C4FC032011B043E6000001694A1CCE
:103F600002610878704700B58FB0CDE901310021BA
:103F7000059105497944CDE9031011466846FFF7DC
:103F8000FBFC0FB000BD0000E5FFFFFF0A6802F870
:103F9000010B0A6070470000074B70B50D467B446B
:103FA000FFF7E1FF0446284600F000F910B14FF09A
:103FB000FF3070BD204670BDA1E1FFFF0048704793
:103FC0001819002030B5B0F10A024FEA900E71F1D5
:103FD00000034EEA817EB0EB0E0061EB91014FEAE7
:103FE000101E4EEA017E10EB0E0041EB11114FEA5C
:103FF000102E4EEA016E10EB0E0041EB11214FEA3C
:10400000104E4EEA014E10EB0E0041EB11414018EC
:1040100041F100014FEAD00040EA41704FEAD1017E
:1040200010EB80054FEA810444EA907444EB0104EC
:104030006D1944EB0404521BA3414FF0000348BF29
:104040000A3200D530BD401C41F1000130BD0000F6
:104050002DE9F0411F46044603260168072A01F4B2
:10406000006004DB08B116A505E016A503E008B161
:1040700015A500E015A521F010002060A069C01E64
:10408000A0610FB1401EA0612046FFF711FC4FB1A7
:10409000D4E9012138469047206A401C2062C01CA8
:1040A000206206E0206AFAE7D4E9012115F8010B45
:1040B0009047761EF8D22046FFF710FCBDE8F0814D
:1040C0004E414E006E616E00494E4600696E6600BC
:1040D0002DE9F047814616468AB0334878440DC82A
:1040E0008DE80D0030487844801C03AC0DC884E88E
:1040F0000D0041F69B300844372190FBF1F290FB14
:10410000F1F5A5F1800501FB12041B3C02D56442C8
:10411000012000E00020DFF890A080460027FA444C
:10412000AAF1BE0A0DE0E00709D03246684607EB67
:1041300047010AEB810100F034FB8DE807006410B1
:104140007F1C002CEFD1184F7F44AC3F18E0E807EC
:1041500014D007EB04100DF1180A90E80E008AE85D
:104160000E00C068F04201D198190890324606A9A5
:1041700003A800F016FB03AB83E807006D10641C76
:10418000002DE4D132466946B8F1000F03A802D0F1
:1041900000F0F3FA01E000F004FBC9E90001C9F8FE
:1041A00008200AB0BDE8F08734380000007B00F03A
:1041B0008000704700487047F81800207546FFF7E8
:1041C000F9FFAE4605006946534620F007008546D4
:1041D00018B020B5FCF736FABDE820404FF00006D5
:1041E0004FF000074FF000084FF0000B21F00701DF
:1041F000AC46ACE8C009ACE8C009ACE8C009ACE822
:10420000C0098D46704710B50446AFF300802046C4
:10421000BDE81040FBF7E1BF4FF0013C50F8042B24
:1042200051F8043B9A4221D1A2EB0C03934313EAC9
:10423000CC1317D150F8042B51F8043B9A4215D1F6
:10424000A2EB0C03934313EACC130BD150F8042BCD
:1042500051F8043B9A4209D1A2EB0C03934313EAB1
:10426000CC13DBD04FF00000704700BFD01A01BA6A
:10427000B1FA81F101F0180122FA01F0CB40C1F14D
:104280002001DBB2C0B2C01A2CFA01F3D11A91435B
:1042900011EAC311E6D170475FEA400C08BF91F004
:1042A000000F4FEA8C234FEAC12243EA51514FEAF3
:1042B0001C5018BF00F5F0404FEA300018BF41F025
:1042C00000415FEA6C5C00F02980BCF1FF3F08BF51
:1042D00040F080407047130C06BF12044FF0100CE2
:1042E0004FF0000C130E04BF12020CF1080C130F58
:1042F00004BF12010CF1040C930F04BF92000CF1E7
:10430000020CD30F04BF52000CF1010C11464FF008
:104310000002A0F11F00A0EB0C00704711F0004F4D
:1043200008BF704731F000413FF4D5AF0B0C06BF1A
:1043300009044FF0100C4FF0000C0B0E04BF0902E3
:104340000CF1080C0B0F04BF09010CF1040C8B0FCE
:1043500004BF89000CF1020CCB0F04BF49000CF123
:10436000010CCCF12003A0EB0C0022FA03F302FABB
:104370000CF241EA030100F10100704720F07F4C8C
:1043800080EA030023F07F47ACEB070303F57C537F
:1043900000F0004003F1FF032DE980494FEA154B7F
:1043A00009B44FEA144325EA0B4E24EA03480FF2FE
:1043B000042606EB132749083E785FEA320203FB26
:1043C0000667C7F5000707FB06F64FEA54374FEAC2
:1043D000D64606F1020607FB066CCCF1005C4FEAFC
:1043E0001C472CEA074C07FB06F40CFB06F504EB14
:1043F00015464FEA961634BF00204FF000404FEAB2
:10440000D13706FB07FC4FEA1C4C0CFB0BF7D21B09
:1044100003FB0CF761EB07010CFB0EF7B0EB074059
:1044200072EB17420CFB08F734BFA2EB0742B2EB6A
:10443000074261EB17414FEA0C444FEA910706FB34
:1044400007FC4FEA1C4C0CFB0BF7B0EBC74072EBC0
:10445000573203FB0CF734BFA2EBC742B2EBC742A3
:1044600061EB57310CFB0EF7B0EBC70072EB5772E4
:104470000CFB08F734BFA2EBC702B2EBC70261EB3B
:104480005771039F4FEA816141EA921104EBCC041A
:104490004FEAD1374FEA826206FB07FC42EA9012EC
:1044A0004FEA80604FEA1C4C0CFB0BF7D21B03FB5E
:1044B0000CF761EB07010CFB0EF7B0EB074072EB5A
:1044C00017420CFB08F734BFA2EB0742B2EB0742DE
:1044D00061EB17414FEA8C554FEA910704EB9C249E
:1044E00006FB07FC4FEA1C4C0CFB0BF7B0EBC7407C
:1044F00072EB573203FB0CF734BFA2EBC742B2EBAF
:10450000C74261EB57310CFB0EF7B0EBC70072EB03
:1045100057720CFB08F734BFA2EBC702B2EBC7021D
:1045200061EB577115EB4C254FEA816141EA92111D
:104530004FEA82624FEAD13742EA901206FB07FC4B
:1045400044F100044FEA80604FEA1C4C0CFB0BF76F
:10455000D21B03FB0CF761EB07010CFB0EF7B0EB72
:10456000074072EB17420CFB08F734BFA2EB07427F
:10457000B2EB074261EB174115EB1C154FEA813195
:1045800041EA92414FEA823242EA90424FEA803059
:104590004FEA0C7644F1000448EA03434EEA0B4824
:1045A0004FF0000EB2EB080C71EB030724BF62461C
:1045B00039464EEB0E0E4FF0000B001852414941A8
:1045C0004BEB0B0BB2EB080C71EB03077BF1000B11
:1045D00024BF624639464EEB0E0E4FF0000B00181A
:1045E000524149414BEB0B0BB2EB080C71EB03074B
:1045F0007BF1000B24BF624639464EEB0E0E51EAAA
:10460000020718BF46F0010616EB0E7655F10002C0
:1046100054F1000103D5BDE88901BDE80088BDE87B
:104620008901BDE80048B619524141EB0101A3F1EF
:104630000103704780807F7E7D7C7B7A79787776F6
:1046400076757473727171706F6E6E6D6C6C6B6A6F
:104650006A6968686766666564646363626161600D
:10466000605F5F5E5E5D5D5C5C5B5B5A5A5959588A
:1046700058575756565555555454535352525251F4
:10468000515050504F4F4F4E4E4D4D4D4C4C4C4B4A
:104690004B4B4A4A4A494949484848474747474691
:1046A00046464545454444444443434343424242CD
:1046B00042414141002B26D4770021D01CB54FEA5E
:1046C000370703B44FF010004FF010014FF0000017
:1046D0000FBCBDE810400BF1010BBBF1010F08BF8F
:1046E0005FEA170722BF12F1010211F101014FF039
:1046F000004143F1000300F0004043EA000070472E
:10470000F9D35708DAE746EA064613F1400F4FEAB5
:1047100016461FDD13F1200FDFBF16430A460021A6
:1047200020335B42C8D0C3F1200746EA064602FAAE
:1047300007F74FEA164646EA0706C3F1200722FAB2
:1047400003F201FA07F721FA03F14FF0000342EAFE
:104750000702B1E746EA020646EA06464FEA16466F
:1047600046EA0106BCBF46EA0646360C4FF0000397
:104770004FF000024FF000019EE72DE9C04893463C
:1047800030B491E8380007C831EA400C48BF34EA39
:10479000430C03D5FFF7F2FDFFF78CFFF0BCBDE83B
:1047A00000882DE9C048934630B491E8380007C826
:1047B00010F0804F08BF13F0804F03D100F005F8D0
:1047C000FFF778FFF0BCBDE8008820F07F4780EA63
:1047D000030023F07F4C07EB0C03A3F57C5300F0A0
:1047E0000040A3F1FE0392F0000F00F0B38095F0BB
:1047F000000F00F077802DE901494FEA11404FEAA0
:10480000144621EA004800FB06FC24EA064708FBA0
:1048100006F607FB08F800FB07F718EB06484CEB19
:10482000164C4FEA124B18EB07484FEA15464CEB73
:10483000174022EA0B4E0BFB06FC25EA06470EFB4F
:1048400006F607FB0EFE0BFB07F71EEB064E4CEBC6
:10485000164C4FF000061EEB074E4CEB174B18EBB7
:104860000B0840F1000018EB0E0B58EB000840F16C
:1048700000008F1A4FF000013CBFC943661B14BFF4
:10488000B5EB040C00213CBFC943F61B4FEA1744AB
:104890004EEA8E0E27EA04454FEA1C4704FB0762E6
:1048A0002CEA074C05FB07F70CFB05F604FB0CFC98
:1048B00016EB074642EB174216EB0C4642EB1C4246
:1048C0001BEB060658EB0202414146EA9E0601D563
:1048D000BDE80189B619524141EB0101A3F1010381
:1048E000BDE801894FEA14454FEA114724EA05461D
:1048F00021EA074C05FB07F406FB07F70CFB06F162
:1049000005FB0CFC11EB074144EB17444FEA12473F
:1049100011EB0C4144EB1C4422EA074C05FB07F267
:1049200006FB07F70CFB06F605FB0CFC16EB07462F
:1049300042EB174216EB0C4642EB1C456A1854F149
:10494000000148BF7047B619524141EB0101A3F184
:104950000103704795F0000F37D04FEA11424FEA3C
:10496000144721EA024624EA074C02FB07F106FB42
:1049700007F70CFB06F402FB0CFC14EB074441EBBD
:1049800017414FEA154714EB0C4441EB1C4125EA53
:10499000074C02FB07F506FB07F70CFB06F602FBCC
:1049A0000CFC16EB074645EB174516EB0C4645EBA2
:1049B0001C42121951F1000148BF7047B61952410B
:1049C00041EB0101A3F1010370474FEA14454FEA9F
:1049D000114724EA054621EA074C05FB07F106FBCF
:1049E00007F70CFB06F24FF0000605FB0CFC12EB80
:1049F000074241EB174112EB0C4251EB1C4148BFFF
:104A00007047921841EB0101A3F10103704749007F
:104A100050EAC12018BF04204A0D18BF40F0010021
:104A200040F2FF72B2EB515F08BF40F00200012874
:104A300008BF052070472DE9F0414F1E00EBC7016C
:104A40000446D1E9000115461E4637F006020DD096
:104A50002A46334600F0D0FB7F1E04EBC703D3E9A0
:104A6000002300F0A9F937F00602F1D1022F25D07A
:104A7000042F13D0062F18BFBDE8F0812A46334615
:104A800000F0BAFBD4E90A2300F096F92A4633462F
:104A900000F0B2FBD4E9082300F08EF92A46334631
:104AA00000F0AAFBD4E9062300F086F92A46334633
:104AB00000F0A2FBD4E9042300F07EF92A46334635
:104AC00000F09AFBD4E9022300F076F92A46334637
:104AD00000F092FBD4E90023BDE8F04100F06CB98E
:104AE000012201F006B90000024A0020110701F07E
:104AF00000B9000001FDFFFF30380A2801D2012073
:104B000070470020704700002DE9F84F04460D461D
:104B100021F0004000917349814211DC72498842C2
:104B200001DC06D12CB120462946BDE8F84FFFF73D
:104B3000D7BF6E48002DCCBF6D496E49BDE8F88FD8
:104B40006D49814211DD6D498142D8BF4FF0FF367A
:104B50006DDD20462946FFF75AFF042808BFFFF7FE
:104B6000C3FF20462946BDE8F88F6549654F25F00B
:104B70000045814233DD6449814219DD0026324619
:104B80004FF080432046294600F016F980468A46B9
:104B900001222046294601F0ACF800223B4600F0F5
:104BA00035FC4246534600F0B7F904460D463EE058
:104BB00001260022BA463B462046294600F0FCF872
:104BC00080460F46002253462046294600F01EFC30
:104BD00042463B4600F0A0F904460D4627E04B490B
:104BE00081421BDDDFF828A1022600225346204621
:104BF000294600F001FB00223B4600F0DDF880462C
:104C00000F46002253462046294600F0FFFB42464D
:104C10003B4600F081F904460D4608E00326224693
:104C20002B4600203B4900F077F904460D4622460A
:104C30002B461046194600F0DFFA8B4682460246A4
:104C40000B4600F0D9FA07460246334888460B4621
:104C500006217844FFF7EFFE52465B4600F0CCFA9F
:104C600082462E488B463A46434605217844FFF754
:104C7000E2FE3A46434600F0BFFA02460B46002EDB
:104C8000504659460CDA00F097F822462B4600F0C1
:104C9000B3FA01B022462B46BDE8F04F00F0AABBA4
:104CA00000F08AF822462B4600F0A6FA1C4A7A4405
:104CB00002EBC603D3E9002300F0A8FB22462B46F3
:104CC00000F0A4FB174A7A4402EBC603D3E90023A1
:104CD00000F090FB009A002AB8BF81F00041BDE8C7
:104CE000F88F0000000010440000F07F182D44549D
:104CF000FB21F93FFB21F9BF0000DC3F0000203E13
:104D00000000F33F0000F03F0000E63F008003405A
:104D10000000F83F0000F0BF122C0000D02B000074
:104D20006E2B0000362B000010B500290AD0087841
:104D3000002807D005487844FFF76EFA002801D014
:104D4000002010BD0248784410BD00006E2C000009
:104D5000662C000021F00042A2F16052B2F5801FE3
:104D600001F0004328BFD2F17F6C0BD95FEA001C31
:104D700043EAC20242EB507018BF704728BF20F0D0
:104D800001007047B2F5801FBCBF184670474FEA5C
:104D9000410C1CF5001F02D2084600F0C0BE70B5E1
:104DA00000F0D4FA00000089FFF7F6BF4FF0004092
:104DB000A0F580007047000010B591EA030F48BFCE
:104DC00083F0004300F12A83841A71EB030C05D2AF
:104DD000121943EB0C03001B61EB0C01DFF824E11B
:104DE0004FEA1154A4EB135C1EEA430F18BF9EEA6E
:104DF000445F73D023EA0E03DCF1200E21EA045154
:104E000043F4801332D322FA0CFE10EB0E0023FA87
:104E10000CFE41EB0E01CCF1200E03FA0EFE10EB5E
:104E20000E0051F10001B1F5801FCCF1200E32D2FD
:104E300001EB045112FA0EF2BDE8104058BF704762
:104E4000401C38BF5FEA420218BF7047002814BFF9
:104E500020F0010041F100014FEA410313F5001F6A
:104E600038BF7047A1F1C04100F0BEBA012A43EB40
:104E70000302ACF1200CDCF11F0E32BF4FF0000E2C
:104E800023FA0CF310EB030041EB0451B4EB115F78
:104E9000D0D0A1EB045101F5801149085FEA300040
:104EA00001EB04510ED350F1000038BF12FA0EFE90
:104EB00008D1BDE81040C9E7401C38BF5FEA420294
:104EC000CAD1C3E7BDE810404FEA410313F5001F04
:104ED00038BF7047A1F1C04100F086BA9EEA445F36
:104EE00008D011EA5E0FBDE8104004BF01F0004198
:104EF00000207047BDE8104070B500F027FA00BFF1
:104F000064FBBE3E0000E0FF02494FF0000000F0ED
:104F1000BEBE00BF0000F87F2DE9C04130B4DFF80D
:104F2000A0C23CEA111418BF3CEA131400F0EC8054
:104F300081EA03051CEA111444EAD57418BF1CEA7F
:104F4000131500F0C780A4EB05044FF0004545EAB7
:104F5000C12145EAC32341EA505143EA525304F1C7
:104F60007F74994204F500344FEAC0204FEAC22210
:104F700008BF904200F09C804FEA13650FF2401684
:104F8000765D4FEA134506FB05F7C7F1807706FB10
:104F900007F74FEAD737A7FB03687642C8F5803892
:104FA000A7FB06CE38BFA8F1010807FB08E64FF0C3
:104FB000000EA6FB028CE6FB03CEDCF1000CCEF16A
:104FC000004E38BFAEF1010EA6FB0C584FF00007A3
:104FD0004FF00005E6FB0E87A1FB08C6A0FB07CE3D
:104FE00016EB0E0645F10005E1FB076515F1E04EF5
:104FF0007EBFA4F580345FEA46066D4116F1800756
:1050000045F100054FEA17274FEA066647EA0567AC
:10501000A6F1DE46B6F1805F4FEA15251FD9384666
:1050200024F0010C05EBC471BCF1FE6F01EB0C1117
:1050300002D8F0BCBDE8008124425CBF01F5801EAF
:105040009EEAC47F02D4F0BCBDE80081244238D47B
:10505000F0BCA1F1C041BDE8004100F0C5B94FEA84
:10506000D22242EA43524FEAD323A7FB02864FEAF9
:10507000D02040EA415007FB03661EEA0E0F4FEABC
:10508000D12105FB026658BFA6EB0056B6EB0056D1
:105090004FEA520E4EEAC37E18EB0E0E56EB530E3D
:1050A000BDD518EB02085E417F1C55F10005B6E73F
:1050B0004FF480154FF000074FF000064FF0000846
:1050C000ADE7F0BC4FF0000001F1C04101F000413C
:1050D000BDE8008111EA0C1F0CEA131500D00CE0AA
:1050E00013EA0C1F00F025804FF00000F0BC81EAAD
:1050F000030101F00041BDE80081F0BCBDE80041C2
:1051000081EA030100F070B9F0BCBDE8004170B560
:1051100000F01CF9097EFC3E00F007B881EA0301AB
:105120004FF0000001F00041704781EA030100F0F8
:105130005BB9F0BCBDE800414FF000002149704769
:10514000FFFDFBF9F7F5F4F2F0EEEDEBE9E8E6E44C
:10515000E3E1E0DEDDDBDAD8D7D5D4D3D1D0CFCDD3
:10516000CCCBCAC8C7C6C5C4C2C1C0BFBEBDBCBB0C
:10517000BAB9B8B7B6B5B4B3B2B1B0AFAEADACAB07
:10518000AAA9A8A8A7A6A5A4A3A3A2A1A09F9F9EE1
:105190009D9C9C9B9A999998979796959594939393
:1051A000929191908F8F8E8E8D8C8C8B8B8A89892A
:1051B00088888787868585848483838282818180AD
:1051C0000000FF070000F87F10F0004248BF404297
:1051D000B0FA80F310FA03F10AD0C3F11D0303F50E
:1051E00080634FEA415002EB035202EBD12170473A
:1051F0004FF0000070470000DFF848C170B51CEAAE
:10520000111E1EBF1CEA13159EEA0C0F95EA0C0F27
:1052100000F06F8081EA030423EA4C134EEAD47E47
:1052200021EA4C1141F4801143F48013AE44A1FBF8
:10523000024CA0FB0365AEF17F7E361955EB0C05E1
:10524000A1FB034C4CF10003A0FB021C16EB0C0667
:10525000654153F10003094218BF46F0010613F4FB
:10526000007F0BD14FEA03314FEA0530340341EAA6
:10527000155140EA16506FF003020AE04FEAC321CD
:105280004FEAC520F40241EA555140EA56506FF00A
:10529000020202EB2E4201EB025585EACE710AD0E2
:1052A0005FEA440C18BF24F0004450F1000041F1C3
:1052B000000120EAD47040F2FE7C624500D270BD4D
:1052C000A84214BF4FF080444FF04044002E08BF66
:1052D0000024BEF1806FA8BFA1F1C041BDE87040BD
:1052E00080F282804FF0000001F1C04101F00041E6
:1052F00070479EEA0C0F0CEA131518BF95EA0C0FC5
:1053000006D04FF0000081EA030E0EF0004170BDA0
:1053100000F01CF88900013E00F007B800F009B861
:105320004FEA430C5FEA5C5C08D081EA030100F0BD
:105330005BB84FEA410C5FEA5C5CF6D14FF00000CD
:10534000014970470000FF070000F87F0EF1020ED0
:105350002EF0030E5EF8046B364205D4012A43EBAF
:10536000030515F5001F12D8012841EB010C1CF5AF
:10537000001F0CD80ED14FEAD17C15F5001F0CEBA5
:105380004C0C0CF1020C08BF4CEBD37C04E04FF04A
:10539000080C01E04FEAD37C0CEB4C0526FA05F62D
:1053A00006F00706B6F1040C06D20EEB860CBDE83B
:1053B00070404CF0010C6047DFE80CF0090B020272
:1053C0004FF000414FF00000A1F5002170BD1946DB
:1053D0001046012851EB010418BFD4F5001484BF16
:1053E000002001F0004170BD0808A0F500114FEA4F
:1053F0003101704791EA030F10B581F000413FF58C
:10540000E3AC83F0004300F009B8000010B591EA66
:10541000030F48BF83F000433FF5D6AC841A71EB0D
:10542000030C07D212198CF0004C43EB0C03001B49
:1054300061EB0C01DFF8A4E14FEA1154A4EB135C1B
:105440001EEA430F18BF9EEA445F00F0B08023EAD3
:105450006E03524221EA0451C3EB6E0338BF5B1E58
:10546000DCF1200E25D322FA0CFE10EB0E0043FADD
:105470000CFE41EB0E01CCF1200E03FA0EFE10EBF8
:105480000E0051F10001CCF1200E29D412FA0EF2D7
:1054900001EB0451BDE8104058BF7047401C1CBFD1
:1054A000B2F1004F704700280CBF491C20F00100EA
:1054B000704712EB020E43EB030218BF4FF0010ED0
:1054C0004EEA4202ACF1200CDCF11E0E54D943FA34
:1054D0000CFE10EB0E0051F1FF31CCF11E0ED5D5B4
:1054E0000EF1010E12FA0EFE404141EB010101EBFB
:1054F000445C5FEA5C5C10D910EBDE7001EB045198
:1055000038BFBEF1004FBDE8104018BF70470028FB
:105510000CBF491C20F00100704730D24FEAD42C58
:1055200011F5001124F400641BD0B1FA81F20B3A9A
:10553000A41AA41ED2F12003914030FA03F31943B8
:10554000904001EBCC71002C01EB0451BDE8104000
:10555000A8BF704701F1C0414FF0000001F00041C9
:105560007047B0FA80F310FA03F100D110BDE41ACD
:10557000173C4805C90AE4E701EB045110BD491086
:1055800001EB0451BDE810404FEA300002E04FF05B
:10559000000170474A0008BF0042F8D0B2F5001F72
:1055A00028BF704701F000414FF0000070479EEAAD
:1055B000445F07D011EA5E0FBDE8104004BF002130
:1055C00000207047BDE8104070B5FFF7BFFE00BF78
:1055D00040DFF63E83F00041104670470000E0FFD8
:1055E00043004FEAD30C4FEA3C0C43401FBF400737
:1055F0000CF1605113F0FE4F70471CF0006F03D1A7
:1056000000200CF0004170470CF0004343EA50705A
:1056100010B540EACC0000F03CFA00BF0000009258
:105620004FEA0001FFF7E0BE4FF000414FF00000ED
:10563000A1F500217047000090EA010F48BF81F0FA
:10564000004100F1B482421A3CBF801A89184FEA27
:10565000D0524FF07F4C1CEA410FA2EBD15318BF40
:105660009CEA026F00F03B804FF0004C4CEA0020B7
:105670004CEA012121FA03FC10EB0C0C1ED202F1C2
:10568000FF325FEA1C2040EBC25038BF70471CF06D
:105690007F0F4FEA400C18BFBCF17F4F38BF7047F7
:1056A000C3F12003994008BF20F00100BCF17F4FF7
:1056B00038BF7047A0F1C04000F031BA4FEA3C005B
:1056C000000A40EBC25028BF1CF0FF0F4FEA400C0D
:1056D000E6D018BFBCF17F4F38BF7047EAE79CEABD
:1056E000026F05D010EA5C0F08BF00F00040704761
:1056F00010B500F0CEF900BF64FBBE3E401058BFAD
:10570000C0F14040491058BFC1F140418142EFF320
:10571000008070474FF47F0C1CEAD0121EBF1CEAB9
:10572000D11392EA0C0F93EA0C0F00F0858090EAF7
:10573000010F48BF42F4807240F4000C41F40000B5
:105740002CF07F4120F07F4000B58142A2EB0302A4
:105750000FF2081CACEB504EC0F100009EF800E0C8
:105760004FEA4E0E00FB0EFC38BF49004FEA2C1CDE
:1057700002F5FA020CFB0EF34FEACE1E4FEA112C93
:105780004FEAC1210EEB635E42EB22420EFB0CFCA2
:105790004FEA1C5300FB03114FEA112C4FEA013171
:1057A0000EFB0CFC4FEADC4C00FB0C11C14228BF85
:1057B00009184CEB03335DF804EB10EB410143EBAC
:1057C000C250B2F57C0F38BF704729D512F0F00FE8
:1057D0001CBF00F1C04000F0004070470081828390
:1057E0008485868788898B8C8D8E8F9192939596F0
:1057F00097999A9C9D9FA0A2A3A5A7A8AAACAEB07A
:10580000B2B3B5B7B9BCBEC0C2C5C7C9CCCED1D47E
:10581000D7D9DCDFE2E6E9ECF0F3F7FAFE000000AE
:105820004FEA400C0CF1807CBCF17E4F28BF7047E2
:10583000B0F1C04000F073B990EA010F0CEAD11347
:1058400048BF42F48072624538BF634507D213F403
:105850007F0F16D080EA010000F00040704710B5BD
:1058600000F017F9097EFC3E00F005B880EA01005F
:1058700000F00040704780EA010000F0004000F0B6
:105880004EB912F47F0F04BF0248704780EA01004E
:1058900000F045B90000C07F41000B0ED3F19E021D
:1058A00008D950F400034FEA032323FA02F048BF5B
:1058B0004042704710B500F0ECF800BF49922480D8
:1058C000002070476FF0004282EA2000704700001D
:1058D00010F0004148BF4042B0FA80F310FA03F2E2
:1058E000C3F19D030BD051EAC35101EB12205306C3
:1058F00038BF704700F1010008BF20F00100704779
:10590000B0FA80F310FA03F2C3F19D030AD0D9056F
:1059100001EB1220530638BF704700F1010008BFA9
:1059200020F001007047000050EA010C00F11380E4
:105930001CF5000F58BFBCF5000F01D4884270471A
:1059400007D710F5000F58BF11F5000F15D4884286
:105950007047894270471CF5000F04D5BCF5000F55
:10596000F7D5814270474FF0807C1CEB400F38BF69
:105970001CEB410F01D28142704710B500F089F84D
:10598000922449004FF000504FF08051FFF7B6BE0F
:105990004FF47F0C1CEAD0121EBF1CEAD11392EA0E
:1059A0000C0F93EA0C0F00F0478090EA010F48BFFC
:1059B00042F480724FF0004C4CEA00204CEA012186
:1059C00002EB0302A0FB0113A2F50002002918BF9D
:1059D00043F001035B0028BF4FEA330342EB22424E
:1059E0005FEA132C4CEBC2502EBFBCEB436FB2F5F9
:1059F0007C0F70474FEA036CBCF1004F08BF20F0EA
:105A00000100B2F57C0F38BF70470BD582F0FF0262
:105A100012F5803FC8BF704700F1C040D8BF00F00A
:105A20000040704700F5000C5FEA4C0C48BF70471F
:105A3000B0F1C04000F073B890EA010F0CEAD11346
:105A400048BF42F48072624538BF634504D280EAA1
:105A5000010000F00040704710B500F01AF800BFD8
:105A60008900013E00F007B800F009B85FEA410C78
:105A70005FEA1C6C08D080EA010000F050B85FEAD1
:105A8000400C5FEA1C6CF6D14FF00040A0F580009E
:105A900070470EF1020E2EF0030E5EF8044B244206
:105AA00004D44FEA4102B2F17F4F11D84FEA4003CC
:105AB000B3F17F4F0CD80ED14FEAD07CB2F17F4FBB
:105AC0000CEB4C0C0CF1020C08BF4CEBD17C04E04D
:105AD0004FF0080C01E04FEAD17C0CEB4C0324FAA8
:105AE00003F404F00704B4F1040C06D20EEB840CAA
:105AF000BDE810404CF0010C6047DFE80CF00708EF
:105B000002024FF00040A0F5800010BD08464200A0
:105B100018BFD2F1807288BF00F0004010BDFF2195
:105B200041EAD050C005704751EA000C00F11380E3
:105B30001CF5000F58BFBCF5000F01D4814270471F
:105B400007D711F5000F58BF10F5000F15D481428B
:105B50007047894270471CF5000F04D5BCF5000F53
:105B6000F7D5884270474FF0807C1CEB410F38BF5F
:105B70001CEB400F01D28842704780EA010081EAA5
:105B8000000180EA0100FFF7F8BE80F0004090EAD3
:105B9000010F7FF558AD81F0004100F008B800001A
:105BA00090EA010F48BF81F000413FF54CAD421A29
:105BB00004D882F00042A0EB020011444FEAD05218
:105BC0004FF07F4C1CEA410FA2EBD15318BF9CEA67
:105BD000026F4AD04FF0004C4CEA00204CEA012101
:105BE00021FA03FCB0EB0C0C0FD412F0FE0F36D0F0
:105BF0005FEA4C001DD5001240EBC25038BF704721
:105C00001CF03F0F18BF70470BE0A2F101025FEAE2
:105C10001C2040EBC25038BF70471CF07F0F18BFEC
:105C20007047C3F12003994014BF401E20F00100CB
:105C3000704780084FEA122308BF7047B0FA80FC13
:105C4000A2EB0C02CCF1280C60FA0CF093EA122FB4
:105C500004BF00EBC25070474FEAC3707047130A8D
:105C60005FEADC1008BF7047F6E79CEA026F04D0D9
:105C700010EA5C0F08BF0020704710B5FFF709FF5E
:105C800040DFF63E81F000407047FEF730B80CF080
:105C90000F03092B08BF082000F059800A2B0BD0F6
:105CA000082B18BF704708BF1CF0400F0AD04FF0F8
:105CB00000004FF0000170471CF0400F18BF4FF07C
:105CC000004070471CF0100F08D020F0704300F027
:105CD0007F4242EAD3014FEA4370704700F06040D0
:105CE00021F07F4242EA000201F07F4040EA7270F8
:105CF00070474FF0FF0C4CF4E06C1CEA11531CBFD2
:105D00009CEA030C9445C2BFDA4201EB0251704792
:105D1000002B0DD0BCF1000F0FD0002A01F0004184
:105D2000A4BF41F0E04141F07F614FF000007047B7
:105D300001F000414FF00000704750EA01334FF08E
:105D40009B0C18BF4CF0806C7FF4DEA870471CF4ED
:105D5000801F11D01CF4E02F03D06FEACC31490032
:105D600070474FF04050EFF3008222F0704242EA59
:105D7000000282F3008870474FF000007047000077
:105D800000000000000000000000000000003F4094
:105D90000000000000000000300040003000400023
:105DA000000009000BC03D000BC03D00090018C0F9
:105DB00024407FE0224031800000180024C01B00F6
:105DC0000D803240018003801C4027401C8007402A
:105DD0000040100060000000000000000000000013
:105DE000000000001F802040402000004020204094
:105DF0001F8000000000090006001F800600090047
:105E00000000040004003F800400040000000010B3
:105E10000060000000000000000004000400040016
:105E2000040004000000000000400000000000002A
:105E30000000002001C006003800400000001F8064
:105E40002040204020401F800000000010403FC044
:105E500000400000000018C02140224024401840AB
:105E6000000010802040244024401B8000000200DD
:105E70000D0011003FC0014000003C802440244040
:105E80002440238000001F802440244034400380AD
:105E900000003000200027C03800200000001B80D8
:105EA0002440244024401B8000001C0022C02240CB
:105EB00022401F8000000000000008400000000099
:105EC000000000000000046000000000000000006E
:105ED00004000A0011002080404009000900090068
:105EE00009000900000000004040208011000A0065
:105EF00004001800200023402400180000001F8028
:105F00002040274029401F400000004007C03900C2
:105F10000F0001C0004020403FC0244024401B80AF
:105F200000001F80204020402040308000002040A2
:105F30003FC0204020401F80000020403FC0244040
:105F40002E4030C0000020403FC024402E003000D2
:105F500000000F00108020402240338002002040CB
:105F60003FC0040004003FC02040204020403FC00C
:105F70002040204000000060202020203FC0200062
:105F8000200020403FC024400B0030C02040204073
:105F90003FC020400040004000C03FC03C0003C064
:105FA0003C003FC0000020403FC00C4023003FC0E9
:105FB00020001F802040204020401F800000204003
:105FC0003FC024402400180000001F8021402140D1
:105FD00020E01FA0000020403FC02440260019C040
:105FE000004018C02440244022403180000030008E
:105FF00020403FC020403000000020003F80004093
:1060000000403F80200020003E0001C00700380013
:106010002000380007C03C0007C0380000002040C6
:1060200039C0060039C0204000002000384007C0B9
:10603000384020000000304021C02640384020C0B9
:106040000000000000007FE0402040200000000031
:1060500070000C0003800040000000004020402041
:106060007FE0000000000000200040002000000051
:1060700000000010001000100010001000100000C0
:106080000000400000000000000000000280054009
:10609000054003C0004020003FC00440044003808E
:1060A000000000000380044004400640000000009F
:1060B0000380044024403FC00040000003800540AE
:1060C000054003400000000004401FC0244024405D
:1060D0002000000002E0055005500650042020403A
:1060E0003FC00440040003C000400000044027C03B
:1060F00000400000000000100010041027E0000025
:10610000000020403FC00140070004C00440204080
:1061100020403FC000400040000007C0040007C00E
:10612000040003C00000044007C00440040003C092
:10613000004000000380044004400380000004107D
:1061400007F0045004400380000000000380044076
:10615000045007F00010044007C00240040004008F
:106160000000000006400540054004C0000000009B
:1061700004001F800440004000000400078000402D
:10618000044007C000400400070004C0018006006E
:106190000400060001C0070001C006000000044022
:1061A00006C0010006C0044000000410071004E00F
:1061B0000180060004000000044005C006400440C1
:1061C00000000000000004007BE040200000000010
:1061D00000000000FFF000000000000040207BE015
:1061E000040000000000400080004000200020006B
:1061F000400000000000000000000000000000005F
:1062000000000000000000001FCC000C0000000097
:10621000000000000800300060000800300060004E
:106220000000022003FC1E20022003FC1E2002208E
:10623000000000000E1811043FFF10840C780000CD
:1062400000000F0010840F3800C007781884007811
:10625000000000780F8410C411240E9800E400841C
:106260000008000000003000480048003000000036
:10627000000000000000000007E0181820044002A1
:106280000000000040022004181807E00000000091
:1062900000000240024001800FF0018002400240F5
:1062A00000000080008000800FF8008000800080E7
:1062B00000000001000D000E0000000000000000C2
:1062C00000000000008000800080008000800080CE
:1062D00000800000000C000C000000000000000026
:1062E0000000000000060018006001800600180091
:1062F0002000000007F0080810041004080807F048
:1063000000000000080408041FFC00040004000052
:10631000000000000E0C10141024104411840E0C08
:10632000000000000C1810041104110412880C70F5
:106330000000000000E00320042408241FFC0024C7
:10634000000000001F9810841104110410881070C0
:106350000000000007F0088811041104188800707C
:10636000000000001C00100010FC13001C001000B6
:10637000000000000E3811441084108411440E38BF
:10638000000000000700088C10441044088807F043
:106390000000000000000000030C030C00000000DF
:1063A00000000000000000010106000000000000E5
:1063B00000000000008001400220041008081004C2
:1063C00000000220022002200220022002200220DF
:1063D00000000000100408080410022001400080A2
:1063E000000000000E001200100C106C10800F0056
:1063F000000003E00C1813E4142417C4082807D085
:1064000000000004003C03C41C40074000E4001CE2
:10641000000410041FFC1104110411040E88007004
:10642000000003E00C1810041004100410081C10E5
:10643000000010041FFC100410041004080807F0EA
:10644000000010041FFC1104110417C410040818E4
:10645000000010041FFC1104110017C010000800F8
:10646000000003E00C181004100410441C780040D5
:10647000000010041FFC10840080008010841FFCAA
:1064800010040000100410041FFC1004100400008D
:10649000000000030001100110011FFE1000100099
:1064A000000010041FFC110403801464181C100465
:1064B000000010041FFC1004000400040004000C81
:1064C000000010041FFC1F0000FC1F001FFC100434
:1064D000000010041FFC0C04030000E010181FFC57
:1064E000100007F00808100410041004080807F052
:1064F000000010041FFC10841080108010800F001A
:10650000000007F0081810241024101C080A07F2D5
:10651000000010041FFC1104110011C011300E0CFA
:10652000000400000E1C11041084108410441C3858
:1065300000001800100010041FFC100410001800C8
:10654000000010001FF810040004000410041FF8DD
:10655000100010001E0011E0001C007013801C00D1
:1065600010001FC0103C00E01F0000E0103C1FC0E6
:1065700000001004180C163401C001C01634180CA9
:10658000100410001C00130400FC13041C00100075
:1065900000000804101C1064108413041C0410185C
:1065A00000000000000000007FFE400240024002A8
:1065B0000000000030000C0003800060001C00039D
:1065C000000000004002400240027FFE0000000088
:1065D00000000000000020004000400040002000BB
:1065E00000000001000100010001000100010001A4
:1065F00000010000400040002000000000000000FA
:10660000000000000098012401440144014400FC02
:10661000000410001FFC00880104010400880070C1
:1066200000000000007000880104010401040088DB
:1066300000000000007000880104010411081FFC24
:106640000004000000F8014401440144014400C872
:1066500000000000010401040FFC110411041100EA
:106660001800000000D601290129012901C90106ED
:10667000000010041FFC008401000100010400FC64
:10668000000400000104190419FC000400040000C7
:1066900000000000000300010101190119FE0000C3
:1066A000000010041FFC0024004001B4010C010490
:1066B00000000000100410041FFC0004000400008F
:1066C0000000010401FC0104010001FC01040100BF
:1066D00000FC010401FC008401000100010400FC35
:1066E0000004000000F8010401040104010400F8A2
:1066F0000000010101FF0085010401040088007011
:10670000000000000070008801040104010501FF81
:1067100000010104010401FC008401040100018066
:106720000000000000CC0124012401240124019870
:10673000000000000100010007F80104010400004E
:106740000000010001F8000400040004010801FC3D
:106750000004010001800170000C00100160018044
:10676000010001F0010C003001C00030010C01F00B
:10677000010000000104018C00740170018C01040F
:106780000000010101810171000E0018016001800B
:10679000010000000184010C013401440184010C5A
:1067A0000000000000000000000001003EFC40026C
:1067B00040020000000000000000FFFF0000000099
:1067C00000000000400240023EFC0100000000000A
:1067D00000000000600080008000400040002000B9
:1067E0002000000000000000000000000000000089
:1067F0000000000000000000000000000000000099
:106800000000000000000000000000000000000088
:1068100000000000000F80380FFE380F80380000A5
:106820000000000000000000000000000000000068
:106830000100000600000C000038000031000006D6
:1068400000000C00003800003000000000000000D4
:10685000000061800067F807F980006180006180B6
:106860000061800061800067F807F98000618000A6
:10687000000000000000000001C0E003E0F006306E
:10688000080418081FFFFE040E080787F00381E0C4
:1068900000000000000001F000060C0004040806DF
:1068A0000C7001F9C0000E00003BE000EC18070876
:1068B00008040C180003E00000000001E00007F0ED
:1068C00003F818041C0804170807E1D003C0E0000F
:1068D00023B0003C08002008000010000000000069
:1068E000000100003100003200001C000000000028
:1068F0000000000000000000000000000000000098
:106900000000000000000000000000000000000087
:1069100000007F0001FFC00780F00C001810000489
:106920002000020000000000002000021000040C03
:1069300000180780F001FFC0007F00000000000089
:106940000000000000000000000000000000420005
:10695000006600006600003C0000180003FFC00055
:106960001800003C000066000066000042000000C5
:1069700000000800000800000800000800000800EF
:1069800001FFC00008000008000008000008000027
:10699000080000000000000100003100003200008B
:1069A0001C000000000000000000000000000000CB
:1069B00000000000000000000000080000080000C7
:1069C0000800000800000800000800000800000897
:1069D00000000800000800000000000000000000A7
:1069E00000003800003800003800000000000000FF
:1069F0000000000000000000000000000000000097
:106A00000000000600001C000070000180000E0065
:106A100000380000C0000700001C0000300000002B
:106A20000000000000007F8001FFE003807006008E
:106A30001804000804000806001803807001FFE035
:106A4000007F80000000000000000000010008013D
:106A5000000801000803FFF807FFF8000008000025
:106A60000800000800000000000000000001C0381D
:106A700002C05804009804011804021804041806FF
:106A80001C1803F81801E0F80000000000000000E6
:106A90000001C0E003C0F00400080408080408086E
:106AA00006180803F41801E7F00001E000000000F8
:106AB0000000000000000300000D00001100006154
:106AC0000000810803010807FFF80FFFF800010824
:106AD0000001080000000000000000E007FCD006F4
:106AE0000808061008061008061008061838060FD1
:106AF000F00607C0000000000000000000003F801A
:106B000001FFE00384300208180410080410080490
:106B10001008071810030FF00007C0000000000065
:106B20000000000003C0000700000600000600F897
:106B30000607F806180006E000070000060000003F
:106B4000000000000001E1E003F7F0063410041833
:106B500008041808040C08040C0806161803F3F0BF
:106B600001C1E000000000000000F80003FC300359
:106B7000063804020804020804020804041003088A
:106B8000F001FFC0007F00000000000000000000D6
:106B900000000000000000000000703800703800A5
:106BA000703800000000000000000000000000003D
:106BB0000000000000000000000000000000301A8B
:106BC00000301C0000000000000000000000000079
:106BD0000000000000000000000800001400002277
:106BE00000004100008080010040020020040010ED
:106BF0000800080000000000000021000021000043
:106C000021000021000021000021000021000021BE
:106C10000000210000210000000000000000000032
:106C200008000804001002002001004000808000DD
:106C300041000022000014000008000000000000D5
:106C40000003C00004C000040000080038080F382A
:106C50000808380810000C300007E00003C00000EE
:106C60000000000000003F8000FFE0038070020F82
:106C70001006708804C088048308047F8802C090CE
:106C800003012000FE400000080000180001F80089
:106C90003E0801C20007020007E20000FE00001FDC
:106CA000C80001F800003800000804000807FFF8D9
:106CB00007FFF80408080408080408080408080680
:106CC000180803F41801E7F00001E00000000000DC
:106CD00000003F8001FFE0038070020018040008FC
:106CE0000400080400080400100600200780C0000B
:106CF000000004000807FFF807FFF804000804007C
:106D00000804000804001802001003807001FFE06E
:106D1000007F8000000004000807FFF807FFF80468
:106D20000808040808040808040808043E080400C9
:106D30000806001801006000000004000807FFF8C2
:106D400007FFF80408080408000408000408000409
:106D50003E00060000060000018000000000000068
:106D600000003F8001FFE003807006001804000867
:106D70000402080402080203F00783F00002000086
:106D8000020004000807FFF807FFF80408080008DD
:106D90000000080000080000080004080807FFF8C9
:106DA00007FFF804000800000000000004000804C9
:106DB000000804000807FFF807FFF80400080400B3
:106DC00008040008000000000000000000000006A9
:106DD0000000070000010400010400010400030793
:106DE000FFFE07FFFC040000040000040000040094
:106DF0000807FFF807FFF8040C08001800003E0021
:106E000004C7800503C80600F80400380400180011
:106E1000000804000807FFF807FFF8040008000056
:106E20000800000800000800000800000800001822
:106E300000006000000004000807FFF80780080752
:106E4000FC00007FC00003F80007C0007800078046
:106E50000807FFF807FFF804000804000807FFF818
:106E600007000803C00000E000003800001E00001A
:106E700007000001C00400F007FFF8040000000054
:106E800000007F8001FFE003807006001804000806
:106E900004000806001803003001FFE0007F8000B6
:106EA000000004000807FFF807FFF80404080404C2
:106EB00000040400040400040400060C0003F800AD
:106EC00001F000000000000000007F8001FFE003EF
:106ED00080700600880400880400C806003C030097
:106EE0003E01FFE6007F8400000004000807FFF871
:106EF00007FFF8040808040800040C00040F00044D
:106F00000BC00610F003F03801E008000008000094
:106F10000001E0F803F030063010041808041808E7
:106F2000040C08040C080206180207F00781E000B0
:106F300000000180000600000400000400000400BE
:106F40000807FFF807FFF804000804000004000029
:106F500006000001800004000007FFE007FFF004C6
:106F600000180000080000080000080000080000E9
:106F70000804001007FFE004000004000006000001
:106F800007E00007FE00041FE00001F800003800E1
:106F900001E0043E0007C0000600000400000400F9
:106FA0000007E00007FFC0041FF80007C007F80053
:106FB00007FF80043FF80007C004F8000700000442
:106FC000000000000004000806001807C07805F162
:106FD000C8003E00001F800463E80780F806001820
:106FE00004000800000004000006000007800007FD
:106FF000E008047C08001FF80007F800180804E007
:10700000080700000600000400000000000100085E
:107010000600380400F80403E8040F08047C08059F
:10702000F00807C008070018040060000000000016
:10703000000000000000000000000000003FFFFE14
:107040002000022000022000022000022000020096
:10705000000000000000000008000007000000C061
:10706000000038000006000001C000003000000EE3
:1070700000000100000000000000000020000220CD
:1070800000022000022000022000023FFFFE00005C
:1070900000000000000000000000000000000000F0
:1070A0000000000800001000003000002000003048
:1070B00000001000000800000000000000000000B8
:1070C00001000001000001000001000001000001BA
:1070D00000000100000100000100000100000100AB
:1070E000000100000000000000000020000020005F
:1070F0000010000010000000000000000000000070
:107100000000000000000000000000F00019F8007E
:107110001B18002208002608002408002410003F45
:10712000F8001FF80000080000180000000400002C
:1071300007FFF80FFFF000181800100800200800E3
:107140002008003018001FF0000FC00000000000F1
:10715000000007C0001FF0001830002008002008C1
:10716000002008003C08001C100000600000000027
:1071700000000000000007C0001FF00038180020C9
:107180000800200800200804101007FFF80FFFF087
:107190000000100000000000000000000007C00018
:1071A0001FF00012300022180022080022080032CE
:1071B00008001E10000E200000000000000020004B
:1071C00000200800200801FFF803FFF8062008044B
:1071D0002008042008072000030000000000000031
:1071E0000000000E000E6E001FF30031B10020B150
:1071F0000020B1003191001F13002E1E00200E0050
:10720000300000000004000807FFF80FFFF800102E
:1072100008002000002000002008003FF8001FF8B0
:10722000000008000000000000000000002008002E
:107230002008002008063FF8063FF800000800007C
:10724000080000080000000000000000000000002E
:1072500000000300000300200100200100200306BD
:107260003FFE063FFC0000000000000000000000A0
:107270000004000807FFF80FFFF800018800030072
:10728000002FC00038F80020380020080000080057
:1072900000000000000000000400080400080400D2
:1072A0000807FFF80FFFF8000008000008000008BA
:1072B000000000000000002008003FF8003FF80038
:1072C0001008002000003FF8003FF80010080020E0
:1072D00000003FF8003FF800000800000000200810
:1072E000003FF8003FF800100800100000200000E8
:1072F0002008003FF8001FF8000008000000000010
:10730000000007C0000FF00018300030080020080F
:10731000002008003008001830000FF00007C000FF
:107320000000000000002001003FFF003FFF0010B0
:1073300011002009002008002008003038001FF04C
:10734000000FC00000000000000007C0001FF00098
:107350003818002008002008002009001011001F24
:10736000FF003FFF0000010000000020080020088F
:10737000002008003FF8003FF8000808001008004F
:107380002008002000003000003000000000000055
:1073900000000000000C78001E18003308002308CD
:1073A0000021080021880021980030F0003860009A
:1073B000000000000000200000200000200000FF6E
:1073C000F003FFF80020080020080020080000302B
:1073D000000000000000000000002000003FF0005E
:1073E0007FF8000018000008000008002010003F8F
:1073F000F8007FF0000010000000000000002000F6
:10740000003000003C00003F800023F000007800C6
:107410000070002380003C000030000020000020AD
:1074200000003C00003FE00023F80000E0002700DF
:10743000003E00003FE00021F80001E0003E0000B7
:107440002000000000002008002008003838003E1E
:10745000680027800003C8002CF800383800201886
:1074600000200800000000000000200000300300A1
:107470003C01003F830023EC000070002380003CAF
:1074800000002000002000000000000000000000BC
:107490000038080020380020F80023E8002F88007A
:1074A0003E080038080020180000700000000000AE
:1074B00000000000000000000000000000000800C4
:1074C0000014001FF7FC300006200002000000003E
:1074D00000000000000000000000000000000000AC
:1074E00000000000FFFFFF0000000000000000009F
:1074F000000000000000000000000000200002303A
:1075000000061FF7FC001400000800000000000047
:107510000000000000000000000000000018000053
:107520006000004000004000002000001000000843
:1075300000000400000400000C0000100000000027
:107540008080808040F648484840202000000000AD
:1075500000000000007F00000204000000000000A6
:10756000008040304E24E0202060302000000000E9
:107570000018060000603F0002060C080000000032
:107580000040804CF46CEC544CC040000000000003
:10759000004041452C131E27614040400000004040
:1075A000C00818E02020FEA8A81430000000001039
:1075B0003846300F3010214A4A53600800000080DE
:1075C000801010E04020FC2020302000000000103F
:1075D0003904304F4226190D13206040000000206E
:1075E000D048EE58E80840A818A83C080000003031
:1075F0000F051F253F040605057F05040000000058
:10760000000018E4D8E4A09E6E14040000000008F6
:107610000848281F0A0A0A7D040404040400000024
:1076200040C00810000040FC2020000000000000C6
:10763000180E0222121A1611110D39010100806074
:10764000F80700FC04C434858684F48484000000B8
:10765000FF40300F01FF00024C807F0000000080DF
:1076600060F80700FC040200FC0404FC00000100B8
:1076700000FF00001F080400FF040807000020109E
:10768000E824272424E424342C20E0000000806037
:107690001F090909097F090949897F000000965AD5
:1076A000327E3159951222FE001222FE000000FFA8
:1076B000497F49FF0044827F0442817F00001060BF
:1076C000028C002494CCA596C48C142400000404DD
:1076D0007E01201008FC42240815224040002010A2
:1076E000E824272424E424342C20E00000008060D7
:1076F0001F090909097F090949897F0000001060F5
:10770000028C0000FE9292929292FE00000004040D
:107710007E01407E42427E427E42427E4000000028
:10772000FC242424FC252624FC24242404004030AA
:107730008F80844C55252525554C80808000008005
:1077400060F80704E4A4A4BFA4A4E40400000100BA
:1077500000FF40407F4A4A4A4A4A7F4040000000BA
:1077600078084858682C8CF8080808780000000150
:10777000010D0D050703010307050D09010000F8C0
:10778000F848F8F820F0B03034FC30303010000306
:10779000030203030004040C0C0700000000008037
:1077A000D0B890FCB8DC40FC94F010100000000051
:1077B0000405070205040402010306060400008014
:1077C000D050FC5050FC5854F4545C58C000000495
:1077D000040C070403010F0505050F070000000C4A
:1077E000120C00C0701008080808103000000000DB
:1077F0000000000F183020202020301C0000000066
:107800004FBB610567ACDD3F182D4454FB21E93FB8
:107810009BF681D20B73EF3F182D4454FB21F93FA7
:10782000E2652F227F2B7A3C075C143326A6813C2D
:10783000BDCBF07A8807703C075C143326A6913CD8
:10784000C4EB98999999C9BF711623FEC671BCBF44
:107850006D9A74AFF2B0B3BF9AFDDE522DDEADBFAC
:107860002F6C6A2C44B4A2BF0D5555555555D53FC4
:10787000FF8300922449C23F6E204CC5CD45B73FDF
:10788000513DD0A0660DB13FEB0D76244B7BA93F57
:1078900011DA22E33AAD903F02400000000000A060
:1078A0000000000005400000000000C800000000CB
:1078B0000C4000000000409C000000001940000047
:1078C0000020BCBE0000000034400000BFC91B8E79
:1078D00000000004B5400000504BCFD06607E2CF57
:1078E000010000006C4100003E8251AADFEEA73487
:1078F00001000000D9420000DCB5A0E23A301F9739
:10790000FFFFFFFFB4450000FD25A0C8E9A3C14F5C
:10791000FFFFFFFFFF3F00000000008000000000AD
:10792000FF3F000000000080000000005069746309
:10793000683A252E346620526F6C6C3A252E3466D8
:1079400020094141435F583A253564204141435F56
:10795000593A253564204141435F5A3A2535642020
:10796000094759524F5F583A253564204759524FBD
:107970005F593A253564204759524F5F5A3A2535A9
:10798000640D0A00C0790008000000208C1300007C
:10799000280100089C7A00088C130020CC0B000002
:1079A000840100081C00000043000000F8FFFFFFF6
:1079B0000C0000000E0000000F0000002E00000070
:1079C0001184A24A04680901020304060708090C8D
:1079D0006910D5020406084BC080014BFC840803E3
:1079E00036C0C03CFF7F40014AFF07043E40FF7F96
:1079F000034A7F700373FCF86CFFFE02018BFFFFEC
:107A00000B0268036C1F1F04017BFFFF0B02741F36
:107A1000038C7F3F07FFF8F8F0F0702001E60214B6
:107A2000801AFF0109122C09132D01FF01C0EDFF7F
:107A3000FFFE06011AFF01F915391603FF070201BF
:107A4000D10C12FFFFFF1409101509151601FF01D3
:107A5000C1EDFFFFFF18011914091015391601FFB8
:107A600001D204120201011AFF01011209122A01B6
:107A7000FF01D71AFF0101FF01FD05FF1F1F0F0FB7
:107A800001FF011B30096F12833AA69B443B072973
:0C7A90003F0AD7A33C01AB803F0C000074
:04000005080000ED02
:00000001FF
