:020000040800F2
:10000000180A00204501000801400008972F000849
:100010006D3E0008F107000891490008000000004B
:1000200000000000000000000000000099420008ED
:100030001309000800000000234000089B4200084C
:100040005F0100085F0100085F0100085F01000810
:100050005F0100085F0100085F0100085F01000800
:100060005F0100085F0100085F0100085F010008F0
:100070005F0100085F0100085F0100085F010008E0
:10008000B9080008C50800085F0100085F01000802
:100090005F0100085F0100085F0100085F010008C0
:1000A0005F0100085F0100085F0100085F010008B0
:1000B0006D4300087943000885430008A52F000818
:1000C000992F00085F0100085F0100085F01000828
:1000D0005F0100085F0100081D4900085F0100087A
:1000E0005F0100085F0100085F0100085F01000870
:1000F0005F0100085F0100085F0100085F01000860
:100100005F0100085F010008914300085F010008DB
:10011000C54500085F0100085F0100085F01000895
:100120005F0100085F010008D1080008DD08000831
:10013000DFF80CD000F0B4FA00480047854D000805
:10014000180A00200648804706480047FEE7FEE7F9
:10015000FEE7FEE7FEE7FEE7FEE7FEE7FEE7FEE777
:100160002543000831010008202A04DB203A21FA47
:1001700002F00021704721FA02F3D040C2F12002C0
:100180009140084319467047F0B480EA0102D40F49
:100190004200B2EB410F02D20246084611464A0025
:1001A00042D0C30DDDB2C1F3C752AD1A202D35DAEE
:1001B000C1F3160141F4000204B15242C5F1200618
:1001C00002FA06F12A411044B3EBD05F23D0C4B148
:1001D000012DA0EBC35009DCF0BC4FF0004202EA55
:1001E000C352DBB200F5000000F0CEB9400000F1D0
:1001F000807000EBC350A0F1807040EAD1704900DC
:1002000009E0490841EAC071A0EBC35000F50000C5
:10021000400800EBC350F0BC00F0ADB961420122D0
:1002200002EB4101001BF6E7F0BC704781F0004192
:10023000AAE780F00040A7E780EA010210B502F0CB
:100240000043400022D04A001FD0010E01EB126192
:10025000C0F35600C2F3560240F4000042F400021C
:10026000A0FB022000047F39140400D0401C50EA97
:10027000124001D44000491EC2B20C0604EBD0105B
:10028000401C4008802A02D003E0002010BD20F06E
:100290000100002900DA0020184310BD30B480EAC4
:1002A000010202F0004530F0004221F0004013D07E
:1002B00090B1C30DD40DC2F31601C0F31600E41AB9
:1002C00041F4000140F400027D34914201D3641CEA
:1002D00000E04900002C02DA30BC002070474FF4E7
:1002E00000000023914201D3891A034340084FEADA
:1002F0004101F7D151B1914202D14FF0004105E0E7
:1003000002D24FF0010101E06FF0010103EBC45094
:10031000284430BC00F02FB9420005D0C0F3C752CA
:100320005242914201DC0020704700EBC1507047FF
:100330002DE9FE4F804681EA0300C00F0C46009075
:1003400021F0004123F00045B8EB0200A94105D29D
:100350004046214690461C460B46024623F000408C
:10036000104347D0270DC7F30A00C3F30A51029088
:10037000401A019040286BDAC3F3130040F4801B4D
:100380000098924620B10023D2EB030A63EB0B0BDB
:1003900001985946C0F14002504600F0CBF806469D
:1003A0000D4650465946019A00F0D3F810EB08006C
:1003B0006141002487EA115284EAE7731A4340D06E
:1003C000009A62B3019A012A4FEA075215DC001B1A
:1003D00061EB02014FF0004202EA0752CDE9004210
:1003E000001C41F5801132462B4600F00AF903B09B
:1003F000BDE8F08F40462146F9E7001B61EB0201A2
:10040000001C41F5801300185B412018A2F500176D
:1004100047EB030140EAD570B6196D4111E06D0854
:100420004FEA360645EAC0754FEA0752001B61EBFA
:100430000201001C41F5801149084FEA3000001903
:10044000514132462B4603B0BDE8F04F00F0CAB828
:100450000098012240000023D0EB020263EBE0731E
:10046000009821464FEAE074B8EB000061EB04010C
:10047000E9E783F000435BE781F0004158E7C10FF3
:1004800080EAE0700844CA079623002100F07CB897
:1004900096230022114600F077B820F00040C10DED
:1004A000C0F3160040F400007F2901DA00207047F5
:1004B000962903DCC1F19601C840704796398840FF
:1004C000704700F0004230F000400AD0C10D01F545
:1004D0006071C0F3160042EA0151C208400711439F
:1004E000704700200146704701F0004330B421F00E
:1004F000004150EA010206D00A0DA2F56072C1F374
:100500001301002A02DC30BC00207047440F44EA8B
:10051000C104C100E01830BC00EBC25000F02BB8A1
:10052000002801DBC0F10040002901DBC1F10041DE
:1005300081427047202A04DB203A00FA02F10020B1
:1005400070479140C2F1200320FA03F31943904011
:100550007047202A06DBCB17203A41FA02F043EA23
:10056000E07306E041FA02F3D040C2F1200291406C
:100570000843194670470029A8BF7047401C49002E
:1005800008BF20F00100704710B4B0FA80FC00FAF8
:100590000CF050EA010404BF10BC704749B1CCF123
:1005A000200421FA04F411FA0CF118BF01212143AF
:1005B0000843A3EB0C01CB1D4FEA00614FEA10206A
:1005C00042BF002010BC704700EBC350104400290C
:1005D000A4BF10BC7047401C490008BF20F00100B8
:1005E00010BC704710B5141E73F1000408DA401CEB
:1005F00041F1000192185B411A4301D120F0010042
:1006000010BD2DE9F04D92469B4611B1B1FA81F231
:1006100002E0B0FA80F220329046FFF78BFF0446EA
:100620000F4640EA0A0041EA0B0153465A46084386
:1006300013D0114653EA010019D0C8F140025046C8
:10064000FFF792FD05460E46504659464246FFF7D3
:1006500071FF084305D0012004E020463946BDE87B
:10066000F08D0020054346EAE0762C4337430A9894
:100670006305E40AA0EB08000022FD0A44EA47549F
:100680000A3002D500200146E9E701051019694149
:10069000DDE9084500196941BDE8F04DA2E7000019
:1006A000064C074D06E0E06840F0010394E80700BF
:1006B00098471034AC42F6D3FFF73EFDA44F000834
:1006C000C44F000870B5044600688168C943C90773
:1006D0001BD1816821F00101816001F05DF80546C0
:1006E0000EE001F059F8401B022809D9A06A40F039
:1006F0001000A062E06A40F00100E062012070BDDD
:1007000020688068C043C007EBD0002070BD10B5E2
:100710000146406A826A12F0500F05D0006A026BEF
:10072000BDE8104008461047816A41F400718162BB
:1007300001688968C1F3424107290CD1C16851B9E8
:10074000816A21F480718162816AC90403D4816A5B
:1007500041F00101816200F0FBFA10BD10B5406A62
:10076000816A41F040018162C16A41F00401C162C5
:1007700000F0F0FA10BD10B5406A00F0EAFA10BDC2
:10078000F8B500260446009600688168C943C90789
:1007900027D0816841F00101816013481349006846
:1007A000B0FBF1F000E0401E00900028FBD100F00B
:1007B000F3FF054610E000F0EFFF401B02280BD9C5
:1007C000A06A40F01000A062E06A40F00100E06220
:1007D00084F824600120F8BD20688068C043C00709
:1007E000E9D10020F8BD00006000002040420F0069
:1007F000FEE700002DE9F0411B4E05460C46308A0D
:10080000A84208D1708AA04205D1B088002828D11A
:10081000F088002825D13582748201203070134879
:1008200055B14CB14FF6FF718C4207D10122BDE8A2
:10083000F041202100F0AABF0022F8E788460027F7
:1008400045453A464FF0200103D100F09FFFB580A7
:1008500004E000F09BFF08EA4500B080B483F78015
:100860003770BDE8F0810000120000200010014048
:100870000F4810B5816986B041F01001816180692F
:100880000C4C00F0100004902020009001200190FA
:10089000022003900020024602902021204600F012
:1008A00075FF6946204600F077FE06B010BD0000D7
:1008B0000010024000100140014800F0BDBC0000E3
:1008C000E0020020014800F0B7BC0000C80300208F
:1008D000014800F0B1BC000084030020014800F092
:1008E000ABBC00000C04002030B590F8405001244F
:1008F000AC40C56B6C60046863604368102B036890
:1009000003D099600068C26030BD9A600068C16021
:1009100030BD7047002202608280C28002818172F5
:100920000848062905D2DFE801F004030507090B92
:10093000028070474280704782807047C280704753
:10094000028170473400002010B5827A1B4B062AC2
:1009500023D2DFE802F022030823282D184A126868
:100960001B8892B204E04FF08042526A5B8892B2D8
:1009700083800389038942F21074D31AC380C38829
:10098000A34201D9C388C3800281C3884B43C3807B
:10099000838802EB03424A43026010BD094A126891
:1009A0009B8892B2E4E7084A1268DB8892B2DFE7DC
:1009B000064A12681B8992B2DAE700003400002070
:1009C000242C01402404004024080040240C004052
:1009D00070B504460846FFF75BFD01462046FFF769
:1009E0005DFC6D496D4C88420FDBFFF76AFD6C4A78
:1009F0006C4BFFF73EFDFFF777FD6B49FFF74EFCB1
:100A00002146FFF719FC694911E06949884211DB69
:100A1000FFF757FD674A684BFFF72BFDFFF764FDB3
:100A20006649FFF73BFC2146FFF706FC6449FFF7E8
:100A3000ABFBA7E06349644D88420FDBFFF741FD44
:100A4000624A634BFFF715FDFFF74EFD2946FFF79E
:100A500025FC2146FFF7F0FB5E49E8E75E495F4E63
:100A600088420FDBFFF72DFD5D4A5E4BFFF701FD6E
:100A7000FFF73AFD3146FFF711FC2146FFF7DCFB9B
:100A80005949D4E7594988420FDBFFF71AFD584A04
:100A9000584BFFF7EEFCFFF727FD3146FFF7FEFB53
:100AA0002146FFF7C9FB5449C1E75449544E8842D7
:100AB0000FDBFFF706FD534A534BFFF7DAFCFFF756
:100AC00013FD3146FFF7EAFB2146FFF7B5FB4F491F
:100AD000ADE74F49884210DBFFF7F3FC354A4D4B39
:100AE0005242FFF7C6FCFFF7FFFC4B49FFF7D6FB6E
:100AF0002146FFF7A1FB494999E7494988420FDBA5
:100B0000FFF7DFFC474A484BFFF7B3FCFFF7ECFC6D
:100B10003146FFF7C3FB2146FFF78EFB434986E7CB
:100B20004349884210DBFFF7CCFC314A414B52422B
:100B3000FFF79FFCFFF7D8FC2946FFF7AFFB2146E4
:100B4000FFF77AFB214672E73B4988420FDBFFF74C
:100B5000B8FC3A4A3A4BFFF78CFCFFF7C5FC394921
:100B6000FFF79CFB2146FFF767FB37495FE73749F3
:100B700088420EDBFFF75AFB3549FFF78FFB214612
:100B8000FFF75AFBFFF789FCC0B2642800D9642044
:100B900070BD002070BD000085EB81400000204149
:100BA0003D0AD7A3703D1040295C0F3E0000B442BF
:100BB00052B87E40D7A3703D0AD70F400AD7A33D55
:100BC0000000A04248E17A408FC2753D5C8FC2F5BB
:100BD000285C0F4000008C4214AE7740CDCC4C3DD9
:100BE000F6285C8FC2F50E4000007042E17A744036
:100BF0008FC2F5285C8F0E40000048425C8F724027
:100C00008FC2F53C52B81E85EB510E4000002042C9
:100C1000AE477140F5280E400AD7A33C0000F041D2
:100C2000295C6F40EC51B81E85EB0D400000A041DF
:100C30001F856B40A3700D40CDCC5C409A9999996B
:100C400099990B401F856B3E0000A040000040407A
:100C50006666E63EF8B50023009390F824201C4613
:100C6000012A12D0012280F824204A681F26072A70
:100C70000DD205686F6B521E02EB82029640B7439D
:100C80000E68964037436F6319E00220F8BD05688F
:100C90000D2A0AD22F6BD21F02EB82029640B74375
:100CA0000E68964037432F6309E0EF6A0D3A02EB76
:100CB00082029640B7430E6896403743EF620A6857
:100CC000072605680A2A0AD3EF680A3A02EB4202AD
:100CD0009640B7438E6896403743EF6008E02F692F
:100CE00002EB42029640B7438E68964037432F612D
:100CF0000A68102A01D0112A20D1124D0268AA4296
:100D000017D195682D0219D4956845F400059560B2
:100D10000968102912D10C490C4A0968B1FBF2F19B
:100D200001EB8101490000E0491E00910029FBD13F
:100D300004E0816A41F020018162012380F82440AF
:100D40001846F8BD002401406000002040420F001A
:100D500070477047704700002DE9F04104004FF0E4
:100D600000057FD0A06A002628B9E66284F82460D6
:100D7000204600F081F82046FFF7A4FCA16AC906CE
:100D800000D420B1A06A40F01000A0626AE0A16A1D
:100D900021F4885141F00201A162334923688B425A
:100DA000E16904D1B1F5402F01D14FF40021E7688A
:100DB0004FF4807C41EA470261680A43A1686145BB
:100DC00008D0012906D00021D4F814E0BEF1010FAB
:100DD00002D00AE06146F7E7C7B1A76A47F02007EB
:100DE000A762E76A47F00107E7625F6827F469478F
:100DF0000F435F6021688B681C4F3B4013438B603F
:100E0000A16861450BD0012909D00CE0DFF860E052
:100E1000A7690EEB47370F4347F40061E5E7218AE6
:100E20000D05A5F580152168CB6A23F470032B43CB
:100E3000CB62216889680F4B1940914208D1E66264
:100E4000A16A21F0020141F00101A162BDE8F08137
:100E5000A06A20F0020040F01000A062E06A40F0BA
:100E60000100E0620120F1E7003C0140FDF7E1FFF5
:100E700000E0FFFFFE0E1FFF30B5054600681E496B
:100E800085B0884236D11D4CA06940F40070A06145
:100E9000A06900F400700490A06940F00400A06113
:100EA000A069694600F0040004901020009003201F
:100EB00001900390124800F06FFB606940F0010060
:100EC00060616069104C00F0010004900D482060E2
:100ED00000206060A0608020E060800020618000D1
:100EE00060612020A0610002E061204600F0C8FAA5
:100EF0002C62656205B030BD002401400010024044
:100F000000080140080002408005002070B504463A
:100F100090F8240001280DD0012084F824002046F8
:100F2000FFF72EFC01004FF0000205D084F82420CA
:100F3000084670BD022070BDA06A40F201239843AC
:100F400040F48070A0621F4D20681F4BA84218D14A
:100F50001E6816F4702F14D0A66A46F48016A66296
:100F60001E68760505D5A66A26F4005646F4805616
:100F7000A662A66AF6040AD5E66A26F00606E662C6
:100F800006E0A66A26F48016A6624668E9E7E262F1
:100F900084F824206FF00202026020688268C2F3A5
:100FA0004242072A05D1A84208D11A6812F4702FCC
:100FB00004D0826842F480128260B9E7826842F409
:100FC000A002F9E700280140042401402DE9F04780
:100FD000894604463B4900683B4F0E1D90468842B7
:100FE00001D0B84207D1306810F4702F03D001252A
:100FF0002846BDE8F08794F8240001280CD0012091
:1010000084F824002046FFF7BBFB05004FF00001E9
:1010100004D084F82410EBE70220EAE7A06A40F647
:101020000162904340F48070A0622068B84218D1F9
:10103000326812F4702F14D0A06A40F48010A062BD
:101040003068400505D5A06A20F4005040F4805077
:10105000A062A06AC0040AD5E06A20F00600E0623F
:1010600006E0A26A22F48012A2624068E9E7E16227
:1010700084F82410216A15488862216A1448C862DD
:10108000216A1448086321686FF002000860206834
:10109000816841F480718160216843464A464C3141
:1010A000206A00F02FFA20688168C1F342410729C5
:1010B000816803D041F48011816099E741F4A00177
:1010C000FAE7000000240140002801400F07000853
:1010D000770700085D07000801680A6822F00E0221
:1010E0000A6001680A6822F001020A6090F8402054
:1010F000012303FA02F1C26B516080F82130002114
:1011000080F82010084670472DE9F05F90F8211014
:101110000024022903D004218163012485E00168B1
:101120000A6822F00E020A6001680A6822F00102D1
:101130000A603F4E3E4FB215DFF8F4C0DFF8F09082
:10114000DFF8ECA0DFF8E8B0DFF8E4E00168783F12
:1011500013011502ACF1640CA9F15009AAF13C0A83
:10116000ABF1280BAEF1140E4FF48018B14227D921
:10117000B9420ED0614512D049451DD0514518D015
:10118000594518D0714501D1424615E0294EB1426A
:1011900001D1012210E0274E1436B14201D11022B4
:1011A0000AE0244E2836B14206D0224A3C3291420F
:1011B00001D11A4600E02A461E49091F0A602BE0A9
:1011C000B94213D0614517D0494522D051451DD0B1
:1011D00059451DD0714501D142461AE0B14202D1B4
:1011E0004FF0807215E0134EB14201D1012210E0A0
:1011F000104E1436B14201D110220AE00D4E2836AD
:10120000B14206D00B4A3C32914201D11A4600E06D
:101210002A46074980394A60012180F821100021BF
:1012200080F82010416B01B188472046BDE8F09F4F
:1012300080000240080402402DE9F05FC16B0B689A
:1012400001680A68046C4FF0040808FA04F8844D39
:10125000844E854FDFF814C2DFF81492DFF814A231
:10126000DFF814B2DFF814E218EA030F65D05FEA82
:10127000427862D50A68920603D40A6822F0040212
:101280000A60DFF8F0814FF48062016808F1140809
:1012900013011402414524D9A9420DD0B1420FD007
:1012A000B9421AD0614515D0494515D0514501D1F3
:1012B000120312E0594501D104220EE0714501D11B
:1012C00040220AE06D4D1435A94206D06B4A2832FF
:1012D000914201D11A4600E022466749091F0A607F
:1012E00029E0A94213D0B14215D0B94220D06145BE
:1012F0001BD049451BD0514502D14FF4800217E065
:10130000414502D14FF0806212E0594501D10422DB
:101310000EE0714501D140220AE0584D1435A94232
:1013200006D0564A2832914201D11A4600E02246A0
:101330004B4908394A60C16A71E04FF0020808FA67
:1013400004F818EA030F70D05FEA82786DD50A6856
:10135000920606D40A6822F00A020A60012180F887
:101360002110DFF810814FF40072016808F11408B1
:1013700013011402414524D9A9420DD0B1420FD026
:10138000B9421AD0614515D0494515D0514501D112
:10139000120312E0594501D102220EE0714501D13C
:1013A00020220AE0354D1435A94206D0334A2832AE
:1013B000914201D11A4600E022462F49091F0A60D6
:1013C00029E0A94213D0B14215D0B94220D06145DD
:1013D0001BD049451BD0514502D14FF4001217E0F4
:1013E000414502D14FF0007212E0594501D102226D
:1013F0000EE0714501D120220AE0204D1435A942AA
:1014000006D01E4A2832914201D11A4600E02246F7
:10141000134908394A60002180F82010816A0029A8
:101420001CD0BDE8F05F0847FFE70825A5401D4236
:1014300014D0120712D50A6822F00E020A6090F842
:101440004020C36B012101FA02F25A60816380F8E7
:101450002110002180F82010016BE0E7BDE8F09F2B
:10146000080002401C0002403000024044000240DC
:10147000580002406C000240080402401C04024074
:1014800030B560B11C4B01681422994209D21B4B44
:101490000B44B3FBF2F292000264194A0AE0012005
:1014A00030BD154B5B420B44B3FBF2F29200026479
:1014B000114A083AC263022280F821200A6843F6E2
:1014C000F0739A43F0E901342343D0E902452C43F9
:1014D0002343046923434469234384692343134317
:1014E0000B60002141628162C1620163416301229C
:1014F00042770177084630BD08040240F8FFFDBF7F
:101500000000024070B5044690F820000025012834
:101510000CD0012084F8200094F821600020012ED6
:1015200006D084F820000225284670BD022070BD38
:10153000022684F82160A0632068066826F0010670
:1015400006602046FFF7D0F9E06A002820680168AD
:1015500002D041F00E0106E021F004010160206894
:10156000016841F00A0101602068016841F0010151
:101570000160D9E770B5044600F00EF90546601C1D
:1015800002D004480078044400F006F9401BA04251
:10159000FAD370BD540000202DE9F84FDFF8BC915C
:1015A000002309F1040A0AF1040B1C464FF00F084E
:1015B0000BF1040E01270A68A7403A40BA4272D1E3
:1015C000DFF89CC14D68A5EB0C0665452BD00DDC02
:1015D000032D34D005DC35B3012D19D0022D2FD1C8
:1015E0001BE0112D16D0122D2AD119E0B6F5881F57
:1015F00019D006DCB6F5803F15D0B6F5801F1FD197
:1016000011E0B6F5001F0ED0B6F5041F18D10AE0A0
:10161000CB6815E0CB681B1D12E0CB6808330FE0E8
:10162000CB680C330CE08B682BB1012B4FF0080317
:1016300003D0476104E0042302E0076100E00023D7
:10164000FF2A01D8064601E000F104064FEA8405AE
:1016500001D9A5F12005376808FA05FC27EA0C072F
:1016600003FA05F547EA050737604D68ED006ED5CA
:101670003C4DAE6946F00106AE61AD6924F003064B
:1016800005F001050095384D7719BE68A5072D0FA7
:1016900008FA05FC26EA0C06DFF8D0C0604503D145
:1016A0004FF0000C25E052E0DFF8C4C0604502D1E5
:1016B0004FF0010C1DE0DFF8BCC0604502D14FF0D7
:1016C000020C16E0DFF8B0C0604502D14FF0030C09
:1016D0000FE0DFF8A8C0604502D14FF0040C08E02D
:1016E000DFF89CC0604502D14FF0050C01E04FF0DF
:1016F000060C0CFA05FC4CEA060CC7F808C04D684D
:10170000D9F80060ED034D4601D5164300E096433D
:101710002E604D68DAF80060AD03554601D51643DA
:1017200000E096432E604D68DBF80060ED025D46F8
:1017300001D5164300E096432E604D68DEF8006048
:10174000AD02754601D5164300E096432E60641C39
:10175000102CFFF42FAFBDE8F88F0000000401400B
:10176000000011100010024000000140000801407C
:10177000000C01400010014000140140001801401D
:10178000001C0140C2684A40C26070470AB1016152
:1017900070470904FBE700000148806870470000BB
:1017A000540000207047704770B5044600684569D2
:1017B000466830490D420DD0F1050BD5216C41F042
:1017C000010121646FF4807141612068016841F476
:1017D0000041016015F4813F09D0F00507D5206C68
:1017E00040F00200206421686FF40070486115F435
:1017F000823F28D0F00526D594F83E30618D94F8CC
:101800003D00226B202B08D139B921280ED0292880
:101810000CD0282801D1212A08D0206C40F00400E7
:10182000206494F83E00102804D008E0204601F01F
:10183000B1FE08E02068016841F400710160216890
:101840006FF48060486115F4843F09D0F00507D536
:10185000206C40F00800206421686FF4006048614B
:10186000206C002804D02046BDE8704001F0C8BBC1
:1018700070BD0000000101002DE9F05F026806461E
:10188000D2F818805469556890F83E007449DFF822
:10189000D0A1DFF8CCB1DFF8CC918F1C0AF17E0A21
:1018A0000BF13E0B102812D0402810D00C425BD018
:1018B000A80559D5936930460021DB435B0700D565
:1018C00001219269D243120648D5828947E014F07B
:1018D000011F05D0A80503D5304601F02EFE10E00B
:1018E0005F48801D044205D0A80503D5706CC0B2C6
:1018F000106106E00C4204D0A80502D5304601F084
:101900008FFD18EA090F14D014EA0A0F08D06805F1
:1019100006D53C4206D13046BDE8F05F01F0FDBC83
:101920003C421FD0A8051DD53046BDE8F05F01F050
:10193000B4BC14EA0B0F08D0680506D53C4206D1AA
:101940003046BDE8F05F01F051BC3C420AD0A8052A
:1019500008D53046BDE8F05F01F0E4BB028B92B2DF
:10196000FFF721FFBDE8F09F3D480E30044206D04E
:10197000A80504D53046BDE8F05F01F04DBE18EA79
:10198000090F4FF0280334D014EA0A0F23D068055A
:1019900021D53C4221D196F83D203046718D002959
:1019A000E0D0416A4C1C4462046809782161418D91
:1019B000491E4185418D0029D4D1292AD2D10168FF
:1019C0004A6822F480624A602121016380F83D3038
:1019D00000F04FF9C6E73C42C4D0A805C2D5708DCF
:1019E0000028BFD0706A411C7162316800780861BC
:1019F00031E014EA0B0F22D0680520D53C4220D1FB
:101A000096F83D403046718D0029ABD01269416A8D
:101A10004D1C45620A70418D491E4185418D00294A
:101A2000A0D12A2C9ED101684A6822F480624A60C3
:101A30002221016380F83D3000F01AF992E73C4220
:101A400090D0A8058ED5708D00288BD01169706A52
:101A5000421C72620170708D401E708582E700002A
:101A600002000100040010007047000070B504007F
:101A70001BD094F83D00002520B984F83C50204646
:101A800000F0B0F8242084F83D002068016821F0BF
:101A90000101016000F0C6FA404A6168914201D834
:101AA0003F4900E03F49884201D2012070BD3E49D4
:101AB0002368B0FBF1F159606368934206D94FF493
:101AC000967359434FF47A73B1FBF3F12368491CC1
:101AD00019626168914210D84900401EB0FBF1F2D2
:101AE000521CC2F30B02042A01D2042022E0B0FBF4
:101AF000F1F0401CC0F30B001CE0A268CAB301EB7C
:101B0000C10303EB0116431EB3FBF6F35B1C43F466
:101B100080431B0536D06AB301EBC10202EB011111
:101B2000401EB0FBF1F0401CC0F30B0040F48040BD
:101B300040F400402168C861D4E9070108432168E6
:101B40000860D4E90310084321688860D4E90501DE
:101B500008432168C8602068016841F00101016004
:101B60002564202084F83D00256384F83E50002041
:101B700070BD00E008E001EB4106431EB3FBF6F345
:101B80005B1CC6E70120D5E701EB4101401EB0FB1D
:101B9000F1F0401CC0F30B00CAE70000A086010072
:101BA00080841E0000093D0040420F0070477047CE
:101BB0007047000000680349884202D102490120B1
:101BC000487070470054004010000020006803492E
:101BD000884202D102490120087070470054004039
:101BE0001000002000B500681D4985B0884234D13E
:101BF0001C49486840F0E06040F0020048601A4824
:101C0000C16941F40011C161C16901F4001104917D
:101C1000816941F0080181618069694600F008002E
:101C200004904FF440700090122001900020029028
:101C3000032003900D48FFF7AFFC012200211F2075
:101C400000F09EF81F2000F08FF8012200212020D4
:101C500000F096F8202000F087F805B000BD0000E5
:101C6000005400400000014000100240000C014000
:101C7000704770470248816802781144816070475C
:101C800054000020074810B5016841F010010160C0
:101C9000032000F095F8002000F006F800F024F88A
:101CA000002010BD0020024070B50D4D04464FF4D9
:101CB0007A712878B1FBF0F00A490968B1FBF0F0BD
:101CC00000F0B0FB48B9102C07D200222146501E6C
:101CD00000F056F800206C6070BD012070BD00005F
:101CE00054000020600000201D4808B5816941F0C3
:101CF00001018161806900F001000090032000F083
:101D00005FF8002211466FF00B0000F039F8002256
:101D100011466FF00A0000F033F8002211466FF010
:101D2000090000F02DF800221146501F00F028F89D
:101D300000221146101F00F023F800221146901EC9
:101D400000F01EF800221146501E00F019F8054957
:101D5000486820F0E06040F00070486008BD000076
:101D6000001002400000014000F01F0201219140DC
:101D70004009800000F1E020C0F800117047000029
:101D8000F0B40E4B1B68C3F30223C3F10704042C09
:101D900000D904241D1D072D01D2002300E0DB1E05
:101DA000012606FA04F56D1E0D409D409E40761EEC
:101DB000164045EA0601F0BC02F023B90CED00E044
:101DC000064A00F0070110684FF6FF03184040EA8A
:101DD0000120034908431060704700000CED00E04B
:101DE0000000FA052DE9F84304460078344FC00797
:101DF00052D0F8690025C00008D4F86940F080503E
:101E0000F861F869012500F0805000902D480168C4
:101E1000C90511D40168804641F480710160FFF763
:101E2000BBFC064604E0FFF7B7FC801B642822D801
:101E3000D8F80000C005F6D5386A10F4407020D0FC
:101E4000A18801F4407181421BD0386A1E490122E9
:101E500020F440700A6000220A603862C00710D087
:101E6000FFF79AFC064641F2883807E0FFF794FC3A
:101E7000811B414502D90320BDE8F883386A8007F9
:101E8000F4D5386A616820F44070084338621DB1A7
:101E9000F86920F08050F8612078800705D57868CF
:101EA000A16820F44040084378602078C00605D53A
:101EB0007868616920F48000084378600020DBE7DF
:101EC0000010024000700040400442422DE9F047FB
:101ED000DFF8348104460E46D8F8000000F0070011
:101EE000B0420CD2D8F8001021F007013143C8F8F5
:101EF0000010D8F8000000F00700B04260D1207850
:101F0000424F800705D57868A16820F0F0000843AB
:101F100078602078C00742D06068012816D0396800
:101F2000022816D0890700294ADA796821F00301CE
:101F300001437960FFF730FC0546606841F2883163
:101F400001280ED00228894617D024E03968890379
:101F5000E9E78901E7E7FFF71FFC411B494501D984
:101F600016E089467868C0F381000128F3D116E0B5
:101F7000FFF712FC411B49450AD87868C0F381007D
:101F80000228F5D10BE0FFF707FC411B494502D9B8
:101F90000320BDE8F087786810F00C0FF3D1D8F873
:101FA0000010404601F00701B1420BD9016821F051
:101FB000070131430160006800F00700B04201D022
:101FC0000120E6E72078400705D57868E16820F42D
:101FD000E060084378602078000706D578682169BA
:101FE00020F4605040EAC100786000F03BF8796866
:101FF000074AC1F30311515CC8400649086000203C
:10200000FFF752FE0020C4E700200240001002400B
:102010008C4F0008600000200148006870470000F5
:10202000600000200448054900684968044AC1F37B
:102030000221515CC840704760000020001002403F
:102040009C4F00080448054900684968044AC1F3E8
:10205000C221515CC840704760000020001002405F
:102060009C4F000812A085B00FC88DE80F0014A087
:10207000144B006804905968134801F00C02042ABC
:1020800010D0082A0ED1C1F38342C9031DF8020003
:102090000AD5596804AAC1F34041515C0A4A504329
:1020A000B0FBF1F005B0704708494843FAE700007B
:1020B00002030405060708090A0B0C0D0E0F101089
:1020C000010200000010024000127A0000093D00E9
:1020D0002DE9F84F04460078B64DC00747D0686830
:1020E000C0F38100012807D06868C0F3810002288E
:1020F00009D16868C00306D52868800337D56068B1
:1021000000286ED033E06068B0F5803F0BD010B18E
:10211000B0F5A02F11D0286820F4803028602868FE
:1021200020F4802002E0286840F480302860606855
:1021300088B1FFF731FB064609E0286840F48020AB
:102140002860F0E7FFF728FB801B642873D8286815
:102150008003F7D50BE0FFF71FFB064604E0FFF70F
:102160001BFB801B6428F1D828688003F7D42078F3
:10217000DFF8448280074FF0010A4FF0000939D59B
:10218000686810F00C0F07D06868C0F3810002285F
:1021900009D16868C00306D42868800713D5206970
:1021A00001281ED10FE02069A8B1C8F800A0FFF7F0
:1021B000F3FA064604E0FFF7EFFA801B0228C5D8C1
:1021C00028688007F7D52868616920F0F80040EAA0
:1021D000C10028600EE0C8F80090FFF7DDFA06465F
:1021E00005E0E5E0FFF7D8FA801B022823D828682D
:1021F0008007F7D4207800072CD57049A069D8B1A2
:10220000C1F800A0FFF7C8FA064604E0FFF7C4FAD9
:10221000801B02280FD8686A8007F7D568484FF4FA
:10222000FA510068B0FBF1F0009000BF0098411E29
:102230000091FAD20EE07CE0C1F80090FFF7ACFA12
:10224000064604E0FFF7A8FA801B022871D8686AE6
:102250008007F7D4207840075BD5E8690027C000E5
:1022600008D4E86940F08050E861E869012700F08F
:102270008050009053480168C90511D40168834615
:1022800041F480710160FFF787FA064604E0FFF72A
:1022900083FA801B64284CD8DBF80000C005F6D513
:1022A000E06801280AD008B1052813D0286A20F078
:1022B00001002862286A20F0040002E0286A40F049
:1022C00001002862E06841F2883B88B1FFF764FAB8
:1022D000064609E0286A40F004002862EEE7FFF7AE
:1022E0005BFA811B59455BD8286A8007F7D50BE05C
:1022F000FFF752FA064604E0FFF74EFA811B5945F4
:102300004ED8286A8007F7D41FB1E86920F08050C2
:10231000E861E069A8B36968C1F38101022947D087
:102320000228484606D0C8F86000FFF735FA044690
:1023300039E035E04746C8F86000FFF72DFA064659
:1023400004E0FFF729FA801B022829D828688001B9
:10235000F7D4206AB0F5803F05D16868A16820F401
:10236000003008436860D4E908010843696821F433
:10237000741108436860C7F860A0FFF70DFA0446BF
:1023800005E013E0FFF708FA001B022808D82868C8
:102390008001F7D50AE0FFF7FFF9001B022802D9F8
:1023A0000320BDE8F88F28688001F4D40020F8E706
:1023B0000120F6E700100240000042428004424241
:1023C00060000020007000404FF0E0210428086900
:1023D00003D020F004000861704740F00400FAE7E1
:1023E0000C48018811B10188491E01800A48018802
:1023F00011B10188491E01800848018811B1018886
:10240000491E01800648018811B10188491E0180DA
:1024100001F0A4B900000020020000200400002008
:102420000600002010B5401EB0F1807F01D30120CE
:1024300010BD4FF0E02460610F21601701F0E1FD55
:102440000020A06107202061002010BD10B5FFF71B
:10245000C7FF10BD7047704710B590F83C20012AA7
:1024600025D0012280F83C20CA688C6822F4407292
:1024700022434C6822F4806222430C6822F40062FA
:1024800022430C6922F4805222434C6922F4005208
:102490002243896922F480420A43002322F4004245
:1024A0000A4301684A6480F83C30002010BD0220D5
:1024B00010BD30B590F83C20012A20D0012380F8CF
:1024C0003C30022280F83D200268546824F07004F9
:1024D0005460026854680D682C4354600268946824
:1024E00024F0800494600268946849680C43946006
:1024F00080F83D30002180F83C10084630BD0220B5
:1025000030BD2DE9F0410D46040003D094F83D00A4
:1025100018B108E00120BDE8F081002084F83C00FB
:10252000204600F039F8022084F83D0020688168D8
:1025300021F007018160211D206801F02FFF206834
:1025400081688269066A2B68AF690B4340F20331E8
:102550008A4342EA0722A968EF6911434FF6FC4219
:102560009143EA6841EA07210A4329692F6A090170
:1025700041EA0737696817436D6926F0AA0242EA03
:102580000512114383602068876120680162012081
:1025900084F83D000020BEE72DE9F04704460068BE
:1025A000DFF86C91DFF86CA100265B4D032786B045
:1025B000B0F1804F3BD1E86940F00100E861E86983
:1025C000564900F001000490486820F4407040F043
:1025D000E06040F480704860A86940F00400A861A1
:1025E000A86900F004000490A86940F00800A86100
:1025F000A869694600F0080004904FF40040CDE956
:1026000000065046CDE90267FEF7C6FF0820CDE977
:10261000000669464846CDE90267FEF7BDFF002285
:1026200001211C20FFF7ACFB1C20FFF79DFB3C4960
:1026300020684FF0C00888421FD1E86940F00200CE
:10264000E861E86900F002000490A86940F0040025
:10265000A861A869CDE9008600F004000296CDE9E2
:10266000037069465046FEF797FF012211461D2070
:10267000FFF786FB1D20FFF777FB2A492068884279
:102680001FD1E86940F00400E861E86900F0040047
:102690000490A86940F00800A861A869CDE9008607
:1026A00000F008000296CDE9037069464846FEF73F
:1026B00073FF022201211E20FFF762FB1E20FFF79D
:1026C00053FB1949206888421FD1E86940F008008F
:1026D000E861E86900F008000490A86940F004008F
:1026E000A861A869CDE9007600F004000296CDE962
:1026F000037069465046FEF74FFF03220121322046
:10270000FFF73EFB3220FFF72FFB06B0BDE8F08756
:10271000000C014000080140001002400000014090
:102720000004004000080040000C004010B50446C2
:10273000006889B1042904D00122002101F074FE4F
:1027400020680122042101F06FFE2068016841F039
:1027500001010160002010BD01220021F3E7704754
:1027600070B50446006801694FF00005C943890748
:1027700015D4C168C943890711D4E91E016101203C
:102780002077206880698007204602D0FFF7E7FFA6
:1027900004E000F098F8204600F044F9257720681E
:1027A0000169C943490717D4C168C943490713D40C
:1027B0006FF004010161022020772068806910F425
:1027C000407F204602D0FFF7CAFF04E000F07BF80C
:1027D000204600F027F9257720680169C9430907D9
:1027E00016D4C168C943090712D46FF0080101610A
:1027F000042020772068C0698007204602D0FFF7B8
:10280000AEFF04E000F05FF8204600F00BF92577FA
:1028100020680169C943C90617D4C168C943C906FC
:1028200013D46FF010010161082020772068C0697F
:1028300010F4407F204602D0FFF791FF04E000F043
:1028400042F8204600F0EEF8257720680169C94378
:10285000C90708D1C168C943C90704D1891E0161EC
:10286000204600F0FDF820680169C943090609D433
:10287000C168C943090605D46FF080010161204693
:10288000FFF7E8FD20680169C943490609D4C1681A
:10289000C943490605D46FF040010161204600F0AC
:1028A00027F920680169C94389060BD4C168C94367
:1028B000890607D46FF0200101612046BDE8704011
:1028C000FFF7C9BD70BD704770B5044690F83C0075
:1028D0000D4601280DD0012684F83C60022084F8C2
:1028E0003D0042B1042A18D0082A2AD00C2A4DD122
:1028F00039E0022070BD206801F0A2FD20688169E6
:1029000041F0080181612068816921F00401816141
:10291000206881692A69114311E0206801F0C0FD37
:102920002068816941F4006181612068816921F436
:1029300080618161206881692A6941EA022181619F
:1029400024E0206801F0E2FD2068C16941F008013F
:10295000C1612068C16921F00401C1612068C169B9
:102960002A69114311E0206801F004FE2068C16962
:1029700041F40061C1612068C16921F48061C161D5
:102980002068C1692A6941EA0221C16184F83D6079
:10299000002084F83C0070BD10B5040003D094F80A
:1029A0003D0010B107E0012010BD002084F83C007C
:1029B000204600F00DF8022084F83D00211D20681B
:1029C00001F0ECFC012084F83D00002010BD000067
:1029D00000B50068104985B088421AD10F48816956
:1029E00041F400518161816901F4005104918169D0
:1029F00041F0100181618069694600F01000049087
:102A00004FF4707000900220019003900448FEF78C
:102A1000C3FD05B000BD00000034014000100240BD
:102A2000001001407047000010B504460068012204
:102A300001F0FAFC08482168814202D0074881422F
:102A400003D1486C40F4004048642068016841F0BC
:102A500001010160002010BD002C01400034014044
:102A600000681E4A1E49904208D10068C0060888C6
:102A700001D5401E00E0401C08807047B0F1804F37
:102A800008D0184A904211D10068C00688880AD53B
:102A9000401E09E00068C006488801D5401E00E0DD
:102AA000401C48807047401C888070470E4A904206
:102AB00008D10068C006C88801D5401E00E0401C4F
:102AC000C8807047094A9042FBD10068C006088957
:102AD00001D5401E00E0401C08817047002C0140D9
:102AE000340000200004004000080040000C0040BA
:102AF000704710B504460068416994F83920C1F365
:102B0000C011212A0BD151B1416921F080014161ED
:102B1000206B08B1FEF7E0FA204601F0C1FD206805
:102B2000416994F83A20C1F38011222A0BD151B1A6
:102B3000416921F040014161606B08B1FEF7CCFAB8
:102B4000204601F09FFD002010BD01680A680A6858
:102B5000D243D20703D14A686FF001020A600168CC
:102B60000A68D243920703D44A686FF002020A60EF
:102B700001680A68D243520703D44A686FF004021E
:102B80000A6000680168C943090703D4C1686FF08F
:102B9000080101607047000070B5026804461068C3
:102BA000D168536910F00F0F50D003F0010501F404
:102BB000907635435DD0C20705D0CA0503D5E26BD8
:102BC00042F00102E263420705D5DA0703D0E26B67
:102BD00042F00202E263820705D5DA0703D0E26B16
:102BE00042F00402E263020705D5DA0703D0E26B84
:102BF00042F00802E263E26B002A33D0800604D57B
:102C0000880602D5204601F054FD20684069E16B3A
:102C1000C0F38010090700D428B3204601F032FD2C
:102C20002068416949061AD5416921F04001416196
:102C3000606BA0B11B494163606BFEF765FA002829
:102C400010D0606B416BBDE870400847830610D51B
:102C50008B060ED52046BDE8704001F02ABD204607
:102C6000FFF773FF70BD2046FFF76FFF0020E063A2
:102C700070BD030606D50B0604D52046BDE870409E
:102C800001F01ABE4006F3D54806F1D5D1682046BA
:102C900021F04001D160202184F8391000F07AF948
:102CA00070BD0000E545000870B5040004D094F83C
:102CB0003900002510B106E0012070BD84F83850BD
:102CC000204600F023F8242084F839002068C168E9
:102CD00021F40051C160204601F036FD20680169F1
:102CE00021F4904101612068416921F02A0141618C
:102CF0002068C16841F40051C160E563202084F878
:102D0000390084F83A00002070BD00002DE9F0473A
:102D1000044600686C4A00266C4D0221032786B0E9
:102D20004FF010094FF08008904263D1E86940F4F9
:102D30000030E861E86900F400300490A86940F0D0
:102D40000400A861A869624C00F00400049004200B
:102D5000CDE90001039769462046FEF71DFC0820D7
:102D6000CDE9000669462046CDE90267FEF714FC6E
:102D7000686940F0010068616869574C00F0010023
:102D80000490C4E90268266152486661C4E90009FA
:102D900047464FF40058C4E906682046FEF770FB2A
:102DA0004E4D4C482C6365624D4C1438C4E9000606
:102DB000C4E9026726616661C4E906682046FEF739
:102DC0005FFB6C630022012110206562FEF7D8FFD3
:102DD0001020FEF7C9FF002201211120FEF7D0FFCD
:102DE0001120FEF7C1FF002201212620FEF7C8FFB7
:102DF000262064E03B4A904263D1E86940F4002019
:102E0000E861E86900F400200490A86940F010002F
:102E1000A861A869DFF8D0A000F010000490101598
:102E2000CDE90001039769465046FEF7B5FB4FF424
:102E30000060CDE9000669465046CDE90267FEF71D
:102E4000ABFB686940F0020068616869284D00F0DA
:102E500002000490C5E902682E616E61AE612348EC
:102E6000EE61C5E9000947462846FEF709FB2563E0
:102E70006C621E481F4D2838C5E90006C5E9026787
:102E80002E616E61AE612846EE61FEF7F9FA656368
:102E9000002201213A206C62FEF772FF3A20FEF711
:102EA00063FF002201213B20FEF76AFF3B20FEF773
:102EB0005BFF002201213420FEF762FF3420FEF781
:102EC00053FF06B0BDE8F087004400400010024008
:102ED0000008014080000240C803002000020020DA
:102EE000E0020020004C0040001001405804024065
:102EF0000C0400208403002037B5044690F83A0003
:102F000082B0134620283AD1039AAAB3A3B394F807
:102F10003800012833D0012084F83800A262A3854C
:102F20000025E563222084F83A00616B1548886229
:102F3000616B1548C862616B14480863606B456338
:102F40002168606B091DFEF7DDFA206801684168A1
:102F5000009184F83850C16841F48071C1602068E4
:102F6000416941F0010141612068416941F040013E
:102F70004161002005B030BDFFE70120FAE70220E3
:102F8000F8E700003F4600087B460008F5450008CA
:102F9000704770477047FEE70148FEF705BC000028
:102FA000C40500200148FEF767BC0000C4050020EE
:102FB00010B5406A01680A6822F480620A60002144
:102FC0004185426B5163826B516390F83D30202202
:102FD000602B80F83D2080F83E1007D001680A6819
:102FE00022F001020A60FEF73FFD10BD0164016896
:102FF0000A6822F001020A60FEF7D4FB10BD00004F
:1030000070B590F83D100446002620250068292957
:103010002DD02A292BD094F83D10602904D0416886
:10302000090501D484F83D50266384F83E600168A8
:1030300021F40061016020684168090537D54168C5
:1030400021F400614160606B344990F82120012A2D
:1030500012D04163606BFEF757F838B320680168FF
:1030600021F00101016084F83D50606B1CE0266393
:10307000282184F83D10DAE7A06B4163A06BFEF7CE
:1030800043F898B120684169C943490604D40169ED
:10309000606A421C626201702068016821F00101CF
:1030A000016084F83D50A06B416B88470FE094F8B5
:1030B0003D1060291DD04169C943490604D4016906
:1030C000606A421C626201702046FEF7CDFC94F8F3
:1030D0003D0028280CD1206C400709D51048E0623B
:1030E000266384F83D5084F83E602046FEF75EFD7E
:1030F00070BD84F83D5026644169C943490604D433
:103100000169606A421C626201702068016821F0F6
:10311000010101602046FEF745FBD8E7B12F00080A
:103120000000FFFF10B5C26A448D2F4B0168032CCD
:1031300003D0448D022C15D00AE0042A03D0082ABB
:1031400001D09A4203D10A6822F480620A600168C1
:103150000A69416A4B1C43620A70418D491E4185D0
:10316000002010BD042A12D0082A10D09A420ED096
:10317000022A0A6802D022F4806201E042F48062EE
:103180000A6001684A6822F440724A6008E04A68AE
:1031900022F440724A6001680A6842F400720A60D0
:1031A00001680A69416A4B1C43620A70418D491EDD
:1031B000418501680A69416A4B1C43620A70418D6E
:1031C000491E4185202180F83D100021016390F8BF
:1031D0003E2080F83E10402A02D0FEF7E8FCBFE710
:1031E000FEF7E8FCBCE700000000FFFF10B590F818
:1031F0003D1022294CD1418D032909D901680A6962
:10320000416A4B1C43620A70418D491E41853FE073
:10321000022909D0032907D0C16A022901680A6876
:1032200018D022F4806217E0C16A022901680A6896
:1032300007D022F480620A6001680A6842F40062E2
:1032400001E042F480620A600068416821F4806114
:1032500041601DE042F480620A6001684A6822F41D
:10326000E0624A6001680A69416A4B1C43620A7065
:10327000418D491E4185202180F83D1000210163C8
:1032800090F83E2080F83E10402A03D0FEF78FFCD5
:10329000002010BDFEF78EFCFAE710B5C16A90F869
:1032A0003D20212A21D1428D4AB1416A4A1C426205
:1032B000026809781161418D491E418515E020237E
:1032C0000022042913D0082911D011F5803F0ED017
:1032D00001684C6824F4E0644C601121016380F8BB
:1032E0003E2080F83D30FEF763FC002010BD0168F1
:1032F0004C6824F4E0644C6001680C6844F4007489
:103300000C60026380F83D3090F83E1080F83E205B
:103310004029E8D1FEF75AFCE7E710B590F83D20C8
:1033200090F83E30C16A048D24B1212A33D0402B5D
:103330002FD073E0212AFAD120230022042912D0B1
:10334000082910D011F5803F0DD001684C6824F495
:10335000E0644C601121016380F83E2080F83D302C
:10336000FEF726FC5AE001684C6824F4E0644C60E7
:1033700001680C6844F400740C60026380F83D300E
:1033800090F83E1080F83E204029E9D1FEF71EFC5F
:1033900044E0222A42D1418D21B190F83E104029CB
:1033A00006D032E00068416821F48061416035E078
:1033B000016D31B1016D012911D0016D022915D0C6
:1033C0002CE0C16C0129816C02D0C1F3072108E017
:1033D0000268C9B21161016D891C01651EE0816C32
:1033E000C9B202681161016D491CF6E790F83D1001
:1033F000222904D090F83D10212906D00EE0006863
:10340000016841F48071016008E0416A4A1C42622F
:10341000026809781161418D491E4185002010BD67
:1034200078B590F83E50C26A046B90F83D60002376
:103430000168222E06D1066D0EB9402D02D0056D11
:1034400025B107E04869886900901CE00569B5F579
:10345000404F1AD0458D85B3458D012D20D0428D2A
:10346000022A4AD00A6842F480620A6001684A6807
:10347000120503D54A6842F480524A6001684A69DD
:10348000896900910365002078BD4A698A690092C4
:103490000A6842F480720A60016D491C0165F2E716
:1034A00012F5803F0AD0042A21D0082A1FD0122CFE
:1034B0001DD0C26A022A09D114E00BE00A6822F486
:1034C00080620A6001684A68120503D50A6822F41E
:1034D00080620AE04A698A6900920A6842F40072CE
:1034E0000A60CFE70A6842F480620A60C6E70A68A9
:1034F00022F480620A600168ECE7C26A022A0A6864
:103500000BD042F400620A6001684A698A6900923D
:103510000A6822F480620A6006E042F480620A606F
:1035200001684A698969009101684A681205A9D54C
:103530004A6842F480524A60A4E790F83E1040295D
:1035400009D00169B1F5804F10D0016D99B1016DBD
:10355000012915D01CE0016D19B9416C01F0FE0183
:1035600014E0416CC9B241F001010FE090F83D1048
:103570002129F6D1F1E7416CF02201F4407103E01A
:10358000416CF12201F4407142EAD11100680161FD
:10359000002070472DE9F04190F83D30C26A0025C7
:1035A0001C4F202601686FF48064042A01D0082A89
:1035B00001D1282B05D0212B17D04C610020BDE86C
:1035C000F081C7624A6822F4E0624A6001684C6197
:1035D00001680A6822F480620A60056380F83D6031
:1035E00080F83E50FEF7E2FAE8E7C7622122026364
:1035F00080F83D6080F83E504A6822F4E0624A60FC
:1036000001684C6101680A6822F480620A60FEF772
:1036100030FBD3E70000FFFF38B590F83D1002689B
:10362000536823F4E06353600268002354690094F4
:10363000146844F0010414600268146824F480647F
:1036400014600268546824050BD590F83D40222C84
:103650002BD090F83D402A2C27D0446B2468646816
:103660004485448DE4B15469E443640707D4146984
:10367000426A551C45621470428D521E4285026892
:103680005469E443640607D41569426A541C4462D1
:103690001570428D521E4285026C42F00402026493
:1036A000026C22B1FFF7ACFC1FE0846BD6E720224E
:1036B000282909D02A2907D0292905D0046B222CD2
:1036C0000CD022290AD010E00949C162036380F8B6
:1036D0003D2080F83E30FEF769FA06E0036380F88B
:1036E0003D2080F83E30FEF7C3FA002038BD0000D0
:1036F0000000FFFF0160426083600021C160016142
:103700004161704770B504461046FCF78FFDE060DC
:1037100020690121FCF700FEE168FCF78AFD616980
:10372000FCF732FDA168FCF787FDE168054660689B
:10373000FCF782FD21690646E068FCF777FD216809
:10374000FCF77AFD3146FCF71FFD2946FCF71CFD0E
:1037500021696161E168216170BD000070B5264C8E
:10376000E08810B1E088401EE080608910B1608977
:10377000401E6081E08910B1E089401EE081207820
:103780004FF6FF7578B9A08868B1E08858B9202154
:103790001A48FDF7F7FFA088A84202D0A088401E73
:1037A000A080A08BE0806078154E78B9208968B140
:1037B000608958B902213046FDF7E4FF2089A8420C
:1037C00002D02089401E2081E08B6081A0780028F3
:1037D00011D1A08900280ED0E08900280BD1012149
:1037E0003046FDF7CFFFA089A84202D0A089401E35
:1037F000A081208CE08170BD1200002000100140EB
:10380000000C01402DE9F041044600681F4D294697
:10381000FCF712FD804660682946FCF70DFD07465F
:10382000A0682946FCF708FD1949FCF705FD194D6C
:10383000064629464046FCF731FD80462946384673
:10384000FCF72CFD074629463046FCF727FD0646C7
:1038500039464046FCF7EAFC05463146FCF7E6FCF3
:10386000E06039464046FCF78FFC07463146FCF7DE
:103870008BFC206138463146FCF7D8FC6061284655
:103880003146FCF781FCA061BDE8F0810000704288
:103890000E2D323EECA19D3E2DE9F041016904461A
:1038A000C068FCF771FC6169FCF76EFCA169FCF76C
:1038B0006BFC6FF001052946FCF72EFD1A4E3146D0
:1038C000FCF7ECFC194F3946FCF7B6FC2060E168C8
:1038D0002069FCF7ABFC6169FCF756FCA169FCF7B9
:1038E000A5FC2946FCF718FD3146FCF7D7FC394604
:1038F000FCF7A2FC6060E1682069FCF797FC616955
:10390000FCF794FCA169FCF73FFC2946FCF704FD99
:103910003146FCF7C3FC3946FCF78EFC0449FCF742
:10392000BDFCA060BDE8F08100007042ECA19D3EAE
:103930000E2D323E2DE9F0411B4E05460C46B08A55
:10394000A84208D1F08AA04205D13089002828D1A8
:103950007089002825D1B582F48201207070134847
:1039600055B14CB14FF6FF718C4207D10122BDE831
:10397000F0410221FDF70ABF0022F8E78846002740
:1039800045453A464FF0020103D1FDF7FFFE358170
:1039900004E0FDF7FBFE08EA45003081F4837781FF
:1039A0007770BDE8F081000012000020000C01409B
:1039B0000E4810B5816986B041F0080181618069C7
:1039C000012100F0080004900220CDE900010390DD
:1039D0000020074C0246029002212046FDF7D6FE49
:1039E00069462046FDF7D8FD06B010BD0010024024
:1039F000000C01402DE9F0411B4E05460C46308B72
:103A0000A84208D1708BA04205D1B089002828D1E6
:103A1000F089002825D1358374830120B0701348C4
:103A200055B14CB14FF6FF718C4207D10122BDE870
:103A3000F0410121FDF7AABE0022F8E788460027E1
:103A400045453A464FF0010103D1FDF79FFEB58190
:103A500004E0FDF79BFE08EA4500B0813484F7815D
:103A6000B770BDE8F081000012000020000C01409A
:103A70000E4810B5816986B041F008018161806906
:103A80000B4C00F0080004900120009001900220EF
:103A9000039000200246029001212046FDF776FEA9
:103AA00069462046FDF778FD06B010BD00100240C3
:103AB000000C01400160002141608160704770B5D9
:103AC000016804464FF07E50FCF7B0FB6168FCF7DC
:103AD000B3FBA16805462068FCF7AEFB2946FCF75E
:103AE00053FB6060606870BD3EB5164814490125FF
:103AF00001608915C0E902150021416102244FF4DB
:103B000060220461C2614160FDF726F90420CDE91D
:103B100000050520029069460A48FDF79BF8112030
:103B2000CDE9000469460748FDF794F802220649EA
:103B30000448FDF74BFA0348FDF7E8F93EBD0000E5
:103B40000024014050050020080000200D4882B0EC
:103B5000816941F00101816180690B4900F0010038
:103B600000900A484FF480420160094941600021F9
:103B70008160C0E9031241618161C161016202B0EB
:103B8000FDF774BF0010024000540040C40500203F
:103B9000801A06001A4810B581698AB041F0010107
:103BA00081618069174C00F0010009904FF080435B
:103BB0000020C4E900304FF6FF71C4E90201206122
:103BC0000321CDE90010012202920F21CDE903016A
:103BD000CDE90502CDE90701586269462046FEF7A6
:103BE00090FC21686FF0010008612068C16841F015
:103BF0000101C16004212046FEF798FD0AB010BD06
:103C0000001002409004002010B5164C8AB0144BEE
:103C10000020C4E900304FF6FF71C4E902012061C1
:103C20000321CDE90010012202920F21CDE9030109
:103C3000CDE90502CDE90701586269462046FEF745
:103C400060FC21686FF0010008612068C16841F0E4
:103C50000101C16004212046FEF768FD0AB010BDD5
:103C600000040040D004002010B5164C8AB0144B5C
:103C70000020C4E900304FF6FF71C4E90201206161
:103C80000321CDE90010012202920F21CDE90301A9
:103C9000CDE90502CDE90701586269462046FEF7E5
:103CA00030FC21686FF0010008612068C16841F0B4
:103CB0000101C16004212046FEF738FD0AB010BDA5
:103CC000000800405004002010B5164C8AB0144B78
:103CD0000020C4E900304FF6FF71C4E90201206101
:103CE0000321CDE90010012202920F21CDE9030149
:103CF000CDE90502CDE90701586269462046FEF785
:103D000000FC21686FF0010008612068C16841F083
:103D10000101C16004212046FEF708FD0AB010BD74
:103D2000000C00401005002010B52A4890B028492A
:103D300001600221416040F2CF710024C0E9031408
:103D4000846044618461FEF727FE0E940EA9214829
:103D50000F94FEF7AEFB602000904FF4FA60CDE9BF
:103D600001040394049405940022694619480694BA
:103D7000FEF7AAFD042269461648FEF7A5FD0822B3
:103D800069461448FEF7A0FD0C2269461148FEF76B
:103D90009BFD0794089409944FF400500A94CDE9D0
:103DA0000B4007A90B480D94FEF756FB002109486C
:103DB000FEF73AFE04210748FEF736FE08210548C3
:103DC000FEF732FE0C210348FEF72EFE10B010BDA8
:103DD00000340140C001002010B5114C0F484FF4D1
:103DE000806120600F4860604FF48050A060002028
:103DF000C4E903010C21C4E90510E0612046FEF787
:103E000053FF1E2204F140012046FFF775F8206899
:103E1000C16841F01001C16010BD0000004C0040BD
:103E200024030020A086010010B50F4C0D480C2182
:103E300020604FF4613060600020A060E060C4E961
:103E40000401A061E0612046FEF72EFF3C2204F150
:103E5000A4012046FFF750F82068C16841F0100126
:103E6000C16010BD0044004000020020FEE70000D9
:103E7000012210210148FDF789BC0000001001401B
:103E80000E4810B5816986B041F0100181618069EA
:103E90000B4C00F0100004901020009001200190C5
:103EA00002200390002210212046FDF76FFC694696
:103EB0002046FDF771FB06B010BD00000010024067
:103EC00000100140002210210148FDF75FBC0000F6
:103ED0000010014000224FF400510148FDF756BC8C
:103EE000001001400E4810B5816986B041F0100104
:103EF000816180694FF4005100F0100004900120AE
:103F0000CDE900100220074C039000222046FDF767
:103F10003DFC69462046FDF73FFB06B010BD0000A2
:103F20000010024000100140012251030148FDF73A
:103F30002DBC000000100140012291030148FDF753
:103F400025BC0000001001400E4810B5816986B004
:103F500041F01001816180694FF4804100F0100050
:103F600004900120CDE900100220074C03900022AC
:103F70002046FDF70BFC69462046FDF70DFB06B019
:103F800010BD0000001002400010014000224FF45C
:103F900080410148FDF7FABB0010014000224FF4B8
:103FA00000410148FDF7F2BB001001400E4810B57A
:103FB000816986B041F01001816180694FF4004150
:103FC00000F0100004900120CDE900100220074C01
:103FD000039000222046FDF7D9FB69462046FDF7F5
:103FE000DBFA06B010BD00000010024000100140D6
:103FF0000122D1030148FDF7C9BB000000100140B8
:1040000070470907090E002806DA00F00F0000F1DA
:10401000E02080F8141D704700F1E02080F80014C3
:1040200070477047F0B40A780F2A54D10A7E002AEC
:1040300051D12F4A002353804C7854808C78568875
:1040400004F0070546EA052555809380E40894802E
:10405000CC78968804F03F0546EA45159580D380D4
:10406000A409D4800C79D58845EA8404D4804C799D
:10407000D68804F0010546EA8525D58013816408B9
:1040800014818C79168904F00F0546EAC51515814F
:10409000538124095481CC79568904F07F0546EA7E
:1040A000051555819381E40994810C7A958945EA37
:1040B00044049481497A948901F0030144EA41213E
:1040C0009181D188322908D203750A2111700360C9
:1040D00043608360C360F0BC7047117811B1491E22
:1040E0001170F8E701210175F0BC00F003B8000081
:1040F000640000202DE9F05FDFF88CA10446BAF8D7
:104100000800624FDFF888B14FF461794FF07E56B6
:1041100040F2064840F2FE65D22801D2384621E03E
:10412000BAF80810504649450AD20089D238FCF73F
:10413000A6F95946FCF7B2F83146FCF777F811E0DA
:104140000189A94201D930460CE00289424508D9CB
:104150000089A0F20640FCF792F94E49FCF79EF860
:1041600000E0002080F000402060BAF80400D2286F
:1041700001D2384621E0BAF80410504649450AD227
:104180008088D238FCF77BF95946FCF787F831462E
:10419000FCF74CF811E08188A94201D930460CE0C7
:1041A0008288424508D98088A0F20640FCF767F96A
:1041B0003849FCF773F800E000206060BAF80200AC
:1041C000D22801D2384621E0BAF8021050464945BB
:1041D0000AD24088D238FCF752F95946FCF75EF80B
:1041E0003146FCF723F811E04188A94201D9304655
:1041F0000CE04288424508D94088A0F20640FCF70E
:104200003EF92449FCF74AF800E00020A060BAF823
:104210000600D22801D2384621E0BAF806105046EE
:1042200049450AD2C088D238FCF729F95946FCF72B
:1042300035F83146FBF7FAFF11E0C188A94201D9F0
:1042400030460CE0C288424508D9C088A0F206403A
:10425000FCF715F90F49FCF721F800E0002080F089
:104260000040E060BAF80A105046D22901D200217D
:1042700005E04189A94201D9022100E00121217410
:1042800080896082BDE8F09F64000020000080BF4C
:1042900000802C4400003E44704710B5FDF7EAFC56
:1042A000BDE81040FEF7D2B830B595B00121080442
:1042B000CDE900100024029402250491CDE90750B5
:1042C0004FF4E01009906846FDF702FF00B1FEE7E9
:1042D0000F20CDE90A054FF48060CDE90C400221A2
:1042E0000AA80E94FDF7F2FD00B1FEE74FF48040FE
:1042F00011900F950FA8FDF775FD00B1FEE7FDF7D2
:104300008BFE4FF47A71B0FBF1F0FEF78BF80420CE
:10431000FEF75AF800221146501EFDF731FD15B088
:1043200030BD00000D48016841F0010101604168A5
:104330000B4A1140416001680A4A1140016001685E
:1043400021F480210160416821F4FE0141604FF4B5
:104350001F0181600449C0030860704700100240DB
:104360000000FFF8FFFFF6FE08ED00E00148FEF751
:10437000F7B90000900400200148FEF7F1B90000F1
:10438000D00400200148FEF7EBB9000050040020E3
:104390000148FEF7E5B9000010050020F0B50268FD
:1043A0001C4D1D4E1D4FDFF878C01E4B4FF0804E48
:1043B000A84209D0984207D0704505D0B04203D03A
:1043C000B84201D0604503D122F070044A6822430C
:1043D000A84209D0984207D0704505D0B04203D01A
:1043E000B84201D0604503D122F44074CA68224328
:1043F0004C6922F08002144304608A68C2620A6831
:104400008262A84201D0984201D109690163012169
:104410004161F0BD002C0140000400400008004054
:10442000000C00400034014010B50123046A8B40A9
:104430009C430462036A8A401343036210BD000078
:10444000F0B5026A22F001020262026A43688469DE
:10445000114E24F073050C68104F2C4322F0020516
:104460008A682A43B04201D0B84205D122F008053B
:10447000CA682A4322F00402B04201D0B84205D1F2
:104480004D6923F440731D438B692B434360846162
:10449000496841630262F0BD002C014000340140D4
:1044A000F0B5026A22F010020262026A436884696F
:1044B0000D6824F4E64444EA05248D6822F02002C5
:1044C00042EA05120F4D104EA84201D0B04206D16B
:1044D000CF6822F0800242EA071222F04002A8428E
:1044E00001D0B04207D14D6923F4406343EA85030C
:1044F0008D6943EA85034360846149688163026290
:10450000F0BD0000002C014000340140F0B5026A0B
:1045100022F480720262026A4368C46922F4007263
:1045200024F073050C68124E2C438D6842EA052274
:104530000E4DA84201D0B04206D1CF6822F40062ED
:1045400042EA072222F48062A84201D0B04207D199
:104550004D6923F4405343EA05138D6943EA05137B
:104560004360C4614968C1630262F0BD002C014030
:104570000034014030B5026A22F480520262036ABC
:104580004268C4690D6824F4E64444EA05248D6851
:1045900023F4005343EA0533084DA84202D0084DE6
:1045A000A84204D14D6922F4804242EA8512426059
:1045B000C46149680164036230BD0000002C014001
:1045C00000340140064810B500680068C00602D5F6
:1045D000034800F0DFF9BDE810400148FEF7DCBAFF
:1045E0002403002010B5406A0021C185C184FEF774
:1045F000ACFA10BD70B5446A2068406994F839106F
:10460000C0F3C0100025212904D118B1E58420464B
:1046100000F046F82068406994F83A10C0F3801022
:10462000222904D118B1E585204600F02BF8E06B73
:1046300040F01000E0632046FEF787FA70BD10B529
:104640000146406A09680968890613D40021C185BA
:104650000168CA6822F48072CA6001684A6922F05F
:1046600001024A6101684A6922F040024A61202140
:1046700080F83A10FEF78CFC10BD10B5406AFEF7CA
:1046800088FC10BD0168CA6822F49072CA60016893
:104690004A6922F001024A61202180F83A107047ED
:1046A0000168CA6822F0C002CA60202180F839106F
:1046B000704710B590F83A10222901D0022010BDA1
:1046C0008168B1F5805F11D00169002901681FD0B0
:1046D000496801F07F03816A4A1C82620B70C18DB8
:1046E000491E0904090CC18518D02BE00269816AB2
:1046F000002A0268526805D0D2B20A80816A491C39
:104700008162ECE7C2F308020A80816A891CF7E73C
:104710004A68816A4B1C83620A70E0E70168CA68D4
:1047200022F02002CA600168CA6822F48072CA605E
:1047300001684A6922F001024A61202180F83A109A
:10474000FEF726FC002010BD2DE9F041044600686C
:104750000169E26821F4405111430161A1682069B7
:104760000143606901432068C26841F20C639A43C7
:104770000A43C26020684169A26921F44071114373
:1047800041614C4920686426322788423CD1FDF7BC
:1047900059FC00EBC00101EB001061688900B0FB1F
:1047A000F1F5FDF74FFC00EBC00101EB0010616873
:1047B000B8468900B0FBF1F0B0FBF6F06FF01801DD
:1047C000484305EB800107EB0110B0FBF6F000F069
:1047D000F005FDF737FC00EBC00101EB001061684C
:1047E0008900B0FBF1F0B0FBF6F005EB0015FDF72A
:1047F00029FC00EBC00101EB001061688900B0FBEF
:10480000F1F7FDF71FFC3BE0FDF70CFC00EBC001EE
:1048100001EB001061688900B0FBF1F5FDF702FCC7
:1048200000EBC00101EB00106168B8468900B0FBE5
:10483000F1F0B0FBF6F06FF01801484305EB800192
:1048400007EB0110B0FBF6F000F0F005FDF7EAFB16
:1048500000EBC00101EB001061688900B0FBF1F0D2
:10486000B0FBF6F005EB0015FDF7DCFB00EBC0013B
:1048700001EB001061688900B0FBF1F7FDF7D2FB96
:1048800000EBC00101EB001061688900B0FBF1F0A2
:10489000B0FBF6F06FF01801484307EB800108EB1E
:1048A0000110B0FBF6F0216800F00F00284488608A
:1048B000BDE8F0810038014090F83910212901D07D
:1048C000022070478168B1F5805F016A0BD04A1CF5
:1048D0000262026809785160C18C491E0904090C02
:1048E000C1840ED017E009880268C1F30801516045
:1048F00001690029016A02D0491C0162ECE7891CA8
:10490000FBE70168CA6822F08002CA600068C168DB
:1049100041F04001C160002070470000064810B51A
:1049200000680068C00602D5034800F033F8BDE80F
:1049300010400148FEF730B90002002070B504466F
:1049400008882080888860806088FBF7A1FD054684
:104950002088FBF79DFD0B490968FBF76DFC294694
:10496000FBF79CFC0849FBF767FC08498860084690
:10497000FFF7A5F8606060680321FCF729F8207252
:1049800070BD0000400000209A99F940A40000206A
:10499000FEE7000038B5016804460868C043C00659
:1049A0002DD4174881420ED10868486800900868E5
:1049B00048681448006840682046FEF79AF8114994
:1049C0003C223C3916E01048814218D108684868FA
:1049D0000090086848680B48A4300068406820468A
:1049E000FEF787F8074909488431FFF71BFB0549A3
:1049F0001E2284312046BDE83840FEF77DBA38BD1E
:104A000000440040E0020020004C0040B0000020C4
:104A10002DE9F84F04464FF0FF352946BF48FBF714
:104A200093FF2946BE48FBF78FFF2946BD48FBF799
:104A30008BFF0121BC48FBF787FFDFF8E0A2BAF942
:104A400006004EF660214843FBF719FDB74D294695
:104A5000FBF724FCB64E3146FBF720FC2060DFF864
:104A6000C0B2BBF906004EF660214843FBF707FDD4
:104A70002946FBF713FC3146FBF710FC6060A948A0
:104A8000B0F906004EF660214843FBF7F8FC2946D2
:104A9000FBF704FC3146FBF701FCA060A248B0F92B
:104AA00006004EF660214843FBF7E9FC2946FBF778
:104AB000F5FB3146FBF7F2FBE0602169DFF874C2D9
:104AC0009D48614501D9614605E02269824201DDC8
:104AD000014600E0216921616169614501D96246B1
:104AE00005E06169814201DD024600E062696261C0
:104AF000A169614501D9634605E0A169814201DDF3
:104B0000034600E0A369A361E2698C4E8C4D06F177
:104B1000040808F1040909F10407624501D9604657
:104B200003E0E269824200DCE069E06120698549D6
:104B300020F00040FBF7F4FC23D26069814920F0AB
:104B40000040FBF7EDFC1CD2A0697E4920F000403C
:104B5000FBF7E6FC15D2E0697A4920F00040FBF74C
:104B6000DFFC0ED20020E860A860686028604FF487
:104B7000FA603060C8F80000C9F800003860BDE88D
:104B8000F88F20697049FBF757FB0090BAF90600CF
:104B9000FBF775FC01466D48009AFEF7B3FD2968E6
:104BA000FBF7F2FA286060696749FBF745FB82462C
:104BB000BBF90600FBF763FC014652466448FEF76A
:104BC000A1FD6968FBF7E0FA6860A0695E49FBF740
:104BD00033FB82465348B0F90600FBF750FC014610
:104BE00052465C48FEF78EFDA968FBF7CDFAA86037
:104BF000E0695549FBF720FB04464B48B0F9060035
:104C0000FBF73DFC014622465348FEF77BFDE96871
:104C1000FBF7BAFA0146E860504B2868504C9842BE
:104C200001D9184602E0A04200DD204628606A68EB
:104C30009A4201D91A4602E0A24200DD22466A6089
:104C4000AA689A4201D91A4602E0A24200DD224631
:104C5000AA60994201D9194602E0A14200DD21462D
:104C60004FF4000AE960504509DB01462046FBF796
:104C7000DDFAFBF712FC3860FFF724F907E0214664
:104C8000FBF782FAFBF709FC3860FFF7F1F8686878
:104C90005746B8420ADB01462046FBF7C7FAFBF746
:104CA000FCFBC9F80000FFF73FF908E02146FBF7DD
:104CB0006BFAFBF7F2FBC9F80000FFF70BF9A868E5
:104CC000B8420ADB01462046FBF7B0FAFBF7E5FBEA
:104CD000C8F80000FFF75AF908E02146FBF754FA3C
:104CE000FBF7DBFBC8F80000FFF726F9E868B842DD
:104CF0000ADB01462046FBF799FAFBF7CEFB306052
:104D0000BDE8F84FFFF774B92146FBF73DFAFBF712
:104D1000C4FB3060BDE8F84FFFF740B93801002010
:104D200044010020500100205C01002000002041CF
:104D30000000A5440000A5C30000A5433434014091
:104D4000440000200AD7A33BAE47613ED8000020B4
:104D5000F000002008010020200100200000FAC41B
:104D60000000FA4402E008C8121F08C1002AFAD164
:104D700070477047002001E001C1121F002AFBD1DB
:104D800070470000FCF77EFFFFF78EFAFEF7CCFFBE
:104D9000FFF776F8FFF7A6F8FFF7D6F8FFF706F962
:104DA000FEF7A2FE60496148FEF784FE604C614850
:104DB0002146FEF77FFE21465F48FEF77BFE214637
:104DC0005E48FEF777FEFFF72FF8FFF705F8FEF7CE
:104DD000E1FEFEF719FFFEF747FFFEF775FF04211E
:104DE0005748FBF797FD02215648FBF793FD052135
:104DF0005548FBF78FFD03215448FBF78BFD544CBE
:104E0000544D554E23462A4631465448FEF772FC0F
:104E100023462A4631465248FEF76CFC23462A4672
:104E200031465048FEF766FC23462A4631464E4836
:104E3000FEF760FCFBF71CFDFEF7BAFDFEF718FE5F
:104E40004FF41670FCF796FBFEF780FE322102202D
:104E5000FBF7D0FC32210220FEF76CFD322102204C
:104E6000FEF7C8FD414E424C424D688800284BD1A8
:104E7000307DA0B17068404F3946FBF7DDF9206006
:104E800030683946FBF7D8F96060B0680121FBF75C
:104E900043FAA06032210120FEF74CFD03E0002020
:104EA00020606060A0602068224988600846FEF7A4
:104EB00006FE20606068204988600846FEF7FFFD16
:104EC0006060A0681D4988600846FEF7F8FDA06094
:104ED0002748FEF797FCE068284F38612069786121
:104EE0006069B861A069F8613846FFF791FD3968DB
:104EF0002348C16079680161B9684161F9688161DD
:104F0000FEF7CAFC0A206880288808B90520288096
:104F1000A8880028A9D11B491B48FFF70FFD4FF4B3
:104F2000FA70A880A1E700009A99993EA400002099
:104F3000CDCC4C3E74000020800000208C0000206E
:104F40003801002044010020500100205C010020B5
:104F5000FB22C9C03C8318C08126D6C1D8000020DE
:104F6000F00000200801002020010020B0000020F7
:104F70008801002000000020CDCC4C3F68010020BB
:104F8000A40100200800002098000020000000007C
:104F900000000000010203040607080900000000E9
:104FA00001020304C44F0008000000207400000048
:104FB000644D00083850000874000020A409000067
:104FC000744D000800000000000000000000000018
:104FD00000000000000000000000000000000000D1
:104FE00000000000000000000000000000000000C1
:104FF00000000000000000000000000000000000B1
:10500000000000009A99993F000000000000000095
:10501000000000000000000001000000100000007F
:105020000000000000A24A040A0000000000000086
:08503000000000000000000078
:0400000508000131BD
:00000001FF
