Component: ARM Compiler 5.06 update 6 (build 750) Tool: armlink [4d35ed]

==============================================================================

Section Cross References

    startup_stm32f103xe.o(RESET) refers to startup_stm32f103xe.o(STACK) for __initial_sp
    startup_stm32f103xe.o(RESET) refers to startup_stm32f103xe.o(.text) for Reset_Handler
    startup_stm32f103xe.o(RESET) refers to stm32f1xx_it.o(i.NMI_Handler) for NMI_Handler
    startup_stm32f103xe.o(RESET) refers to stm32f1xx_it.o(i.HardFault_Handler) for HardFault_Handler
    startup_stm32f103xe.o(RESET) refers to stm32f1xx_it.o(i.MemManage_Handler) for MemManage_Handler
    startup_stm32f103xe.o(RESET) refers to stm32f1xx_it.o(i.BusFault_Handler) for BusFault_Handler
    startup_stm32f103xe.o(RESET) refers to stm32f1xx_it.o(i.UsageFault_Handler) for UsageFault_Handler
    startup_stm32f103xe.o(RESET) refers to stm32f1xx_it.o(i.SVC_Handler) for SVC_Handler
    startup_stm32f103xe.o(RESET) refers to stm32f1xx_it.o(i.DebugMon_Handler) for DebugMon_Handler
    startup_stm32f103xe.o(RESET) refers to stm32f1xx_it.o(i.PendSV_Handler) for PendSV_Handler
    startup_stm32f103xe.o(RESET) refers to stm32f1xx_it.o(i.SysTick_Handler) for SysTick_Handler
    startup_stm32f103xe.o(RESET) refers to stm32f1xx_it.o(i.DMA1_Channel6_IRQHandler) for DMA1_Channel6_IRQHandler
    startup_stm32f103xe.o(RESET) refers to stm32f1xx_it.o(i.DMA1_Channel7_IRQHandler) for DMA1_Channel7_IRQHandler
    startup_stm32f103xe.o(RESET) refers to stm32f1xx_it.o(i.TIM2_IRQHandler) for TIM2_IRQHandler
    startup_stm32f103xe.o(RESET) refers to stm32f1xx_it.o(i.TIM3_IRQHandler) for TIM3_IRQHandler
    startup_stm32f103xe.o(RESET) refers to stm32f1xx_it.o(i.TIM4_IRQHandler) for TIM4_IRQHandler
    startup_stm32f103xe.o(RESET) refers to stm32f1xx_it.o(i.I2C1_EV_IRQHandler) for I2C1_EV_IRQHandler
    startup_stm32f103xe.o(RESET) refers to stm32f1xx_it.o(i.I2C1_ER_IRQHandler) for I2C1_ER_IRQHandler
==============================================================================

Removing Unused input sections from the image.

    Removing startup_stm32f103xe.o(HEAP), (10000 bytes).
    Removing main.o(.rev16_text), (4 bytes).
    Removing main.o(.revsh_text), (4 bytes).
    Removing main.o(.rrx_text), (6 bytes).
    Removing main.o(i._Error_Handler), (2 bytes).
    Removing stm32f1xx_hal_msp.o(.rev16_text), (4 bytes).
    Removing stm32f1xx_hal_msp.o(.revsh_text), (4 bytes).
    Removing stm32f1xx_hal_msp.o(.rrx_text), (6 bytes).
    Removing stm32f1xx_hal_msp.o(i.HAL_ADC_MspDeInit), (56 bytes).
    Removing stm32f1xx_hal_msp.o(i.HAL_I2C_MspDeInit), (80 bytes).
    Removing stm32f1xx_hal_msp.o(i.HAL_TIM_Encoder_MspDeInit), (192 bytes).
    Removing stm32f1xx_hal_msp.o(i.HAL_TIM_PWM_MspDeInit), (44 bytes).
    Removing stm32f1xx_hal_msp.o(i.HAL_UART_MspDeInit), (96 bytes).
    Removing stm32f1xx_it.o(.rev16_text), (4 bytes).
    Removing stm32f1xx_it.o(.revsh_text), (4 bytes).
    Removing stm32f1xx_it.o(.rrx_text), (6 bytes).
    Removing delayus.o(.rev16_text), (4 bytes).
    Removing delayus.o(.revsh_text), (4 bytes).
==============================================================================

Image Symbol Table

    Local Symbols

    Symbol Name                              Value     Ov Type        Size  Object(Section)

    ..//Src/system_stm32f1xx.c               0x00000000   Number         0  system_stm32f1xx.o ABSOLUTE
    ../Drivers/STM32F1xx_HAL_Driver/Src/stm32f1xx_hal.c 0x00000000   Number         0  stm32f1xx_hal.o ABSOLUTE
    ../Drivers/STM32F1xx_HAL_Driver/Src/stm32f1xx_hal_adc.c 0x00000000   Number         0  stm32f1xx_hal_adc.o ABSOLUTE
    ../Drivers/STM32F1xx_HAL_Driver/Src/stm32f1xx_hal_adc_ex.c 0x00000000   Number         0  stm32f1xx_hal_adc_ex.o ABSOLUTE
    ../Drivers/STM32F1xx_HAL_Driver/Src/stm32f1xx_hal_cortex.c 0x00000000   Number         0  stm32f1xx_hal_cortex.o ABSOLUTE
    ../Drivers/STM32F1xx_HAL_Driver/Src/stm32f1xx_hal_dma.c 0x00000000   Number         0  stm32f1xx_hal_dma.o ABSOLUTE
    ../Drivers/STM32F1xx_HAL_Driver/Src/stm32f1xx_hal_flash.c 0x00000000   Number         0  stm32f1xx_hal_flash.o ABSOLUTE
    ../Drivers/STM32F1xx_HAL_Driver/Src/stm32f1xx_hal_flash_ex.c 0x00000000   Number         0  stm32f1xx_hal_flash_ex.o ABSOLUTE
    ../Drivers/STM32F1xx_HAL_Driver/Src/stm32f1xx_hal_gpio.c 0x00000000   Number         0  stm32f1xx_hal_gpio.o ABSOLUTE
    ../Drivers/STM32F1xx_HAL_Driver/Src/stm32f1xx_hal_gpio_ex.c 0x00000000   Number         0  stm32f1xx_hal_gpio_ex.o ABSOLUTE
    ../Drivers/STM32F1xx_HAL_Driver/Src/stm32f1xx_hal_pwr.c 0x00000000   Number         0  stm32f1xx_hal_pwr.o ABSOLUTE
    ../Drivers/STM32F1xx_HAL_Driver/Src/stm32f1xx_hal_rcc.c 0x00000000   Number         0  stm32f1xx_hal_rcc.o ABSOLUTE
    ../Drivers/STM32F1xx_HAL_Driver/Src/stm32f1xx_hal_rcc_ex.c 0x00000000   Number         0  stm32f1xx_hal_rcc_ex.o ABSOLUTE
    ../Drivers/STM32F1xx_HAL_Driver/Src/stm32f1xx_hal_tim.c 0x00000000   Number         0  stm32f1xx_hal_tim.o ABSOLUTE
    ../Drivers/STM32F1xx_HAL_Driver/Src/stm32f1xx_hal_tim_ex.c 0x00000000   Number         0  stm32f1xx_hal_tim_ex.o ABSOLUTE
    ../Drivers/STM32F1xx_HAL_Driver/Src/stm32f1xx_hal_uart.c 0x00000000   Number         0  stm32f1xx_hal_uart.o ABSOLUTE
    ../Src/main.c                            0x00000000   Number         0  main.o ABSOLUTE
    ../Src/stm32f1xx_hal_msp.c               0x00000000   Number         0  stm32f1xx_hal_msp.o ABSOLUTE
    ../Src/stm32f1xx_it.c                    0x00000000   Number         0  stm32f1xx_it.o ABSOLUTE
    ../clib/microlib/division.c              0x00000000   Number         0  uidiv.o ABSOLUTE
    ../clib/microlib/division.c              0x00000000   Number         0  uldiv.o ABSOLUTE
    ../clib/microlib/init/entry.s            0x00000000   Number         0  entry10a.o ABSOLUTE
    ../clib/microlib/init/entry.s            0x00000000   Number         0  entry9b.o ABSOLUTE
    ../clib/microlib/init/entry.s            0x00000000   Number         0  entry9a.o ABSOLUTE
    ../clib/microlib/init/entry.s            0x00000000   Number         0  entry2.o ABSOLUTE
    ../clib/microlib/init/entry.s            0x00000000   Number         0  entry8b.o ABSOLUTE
    ../clib/microlib/init/entry.s            0x00000000   Number         0  entry7b.o ABSOLUTE
    ../clib/microlib/init/entry.s            0x00000000   Number         0  entry7a.o ABSOLUTE
    ../clib/microlib/init/entry.s            0x00000000   Number         0  entry5.o ABSOLUTE
    ../clib/microlib/init/entry.s            0x00000000   Number         0  entry.o ABSOLUTE
    ../clib/microlib/init/entry.s            0x00000000   Number         0  entry8a.o ABSOLUTE
    ../clib/microlib/init/entry.s            0x00000000   Number         0  entry11b.o ABSOLUTE
    ../clib/microlib/init/entry.s            0x00000000   Number         0  entry11a.o ABSOLUTE
    ../clib/microlib/init/entry.s            0x00000000   Number         0  entry10b.o ABSOLUTE
    ../clib/microlib/longlong.c              0x00000000   Number         0  llshl.o ABSOLUTE
    ../clib/microlib/longlong.c              0x00000000   Number         0  llsshr.o ABSOLUTE
    ../clib/microlib/longlong.c              0x00000000   Number         0  llushr.o ABSOLUTE
    ../clib/microlib/printf/printf.c         0x00000000   Number         0  printfa.o ABSOLUTE
    ../clib/microlib/stdio/fputc.c           0x00000000   Number         0  fputc.o ABSOLUTE
    ../clib/microlib/stdio/semi.s            0x00000000   Number         0  semi.o ABSOLUTE
    ../clib/microlib/stdio/streams.c         0x00000000   Number         0  stdout.o ABSOLUTE
    ../clib/microlib/stubs.s                 0x00000000   Number         0  iusesemip.o ABSOLUTE
    ../clib/microlib/stubs.s                 0x00000000   Number         0  iusefp.o ABSOLUTE
    ../fplib/microlib/d2f.c                  0x00000000   Number         0  d2f.o ABSOLUTE
    ../fplib/microlib/f2d.c                  0x00000000   Number         0  f2d.o ABSOLUTE
    ../fplib/microlib/fpadd.c                0x00000000   Number         0  dadd.o ABSOLUTE
    ../fplib/microlib/fpadd.c                0x00000000   Number         0  fadd.o ABSOLUTE
    ../fplib/microlib/fpdiv.c                0x00000000   Number         0  fdiv.o ABSOLUTE
    ../fplib/microlib/fpdiv.c                0x00000000   Number         0  ddiv.o ABSOLUTE
    ../fplib/microlib/fpepilogue.c           0x00000000   Number         0  fepilogue.o ABSOLUTE
    ../fplib/microlib/fpepilogue.c           0x00000000   Number         0  depilogue.o ABSOLUTE
    ../fplib/microlib/fpfix.c                0x00000000   Number         0  dfixul.o ABSOLUTE
    ../fplib/microlib/fpfix.c                0x00000000   Number         0  ffixui.o ABSOLUTE
    ../fplib/microlib/fpflt.c                0x00000000   Number         0  fflti.o ABSOLUTE
    ../fplib/microlib/fpflt.c                0x00000000   Number         0  ffltui.o ABSOLUTE
    ../fplib/microlib/fpmul.c                0x00000000   Number         0  fmul.o ABSOLUTE
    ../fplib/microlib/fpmul.c                0x00000000   Number         0  dmul.o ABSOLUTE
    ../fplib/microlib/fpscalb.c              0x00000000   Number         0  fscalb.o ABSOLUTE
    ..\Drivers\STM32F1xx_HAL_Driver\Src\stm32f1xx_hal.c 0x00000000   Number         0  stm32f1xx_hal.o ABSOLUTE
    ..\Drivers\STM32F1xx_HAL_Driver\Src\stm32f1xx_hal_adc.c 0x00000000   Number         0  stm32f1xx_hal_adc.o ABSOLUTE
    ..\Drivers\STM32F1xx_HAL_Driver\Src\stm32f1xx_hal_adc_ex.c 0x00000000   Number         0  stm32f1xx_hal_adc_ex.o ABSOLUTE
    ..\Drivers\STM32F1xx_HAL_Driver\Src\stm32f1xx_hal_can.c 0x00000000   Number         0  stm32f1xx_hal_can.o ABSOLUTE
    ..\Drivers\STM32F1xx_HAL_Driver\Src\stm32f1xx_hal_cortex.c 0x00000000   Number         0  stm32f1xx_hal_cortex.o ABSOLUTE
    ..\Drivers\STM32F1xx_HAL_Driver\Src\stm32f1xx_hal_dac.c 0x00000000   Number         0  stm32f1xx_hal_dac.o ABSOLUTE
    ..\Drivers\STM32F1xx_HAL_Driver\Src\stm32f1xx_hal_dac_ex.c 0x00000000   Number         0  stm32f1xx_hal_dac_ex.o ABSOLUTE
    ..\Drivers\STM32F1xx_HAL_Driver\Src\stm32f1xx_hal_dma.c 0x00000000   Number         0  stm32f1xx_hal_dma.o ABSOLUTE
    ..\Drivers\STM32F1xx_HAL_Driver\Src\stm32f1xx_hal_flash.c 0x00000000   Number         0  stm32f1xx_hal_flash.o ABSOLUTE
    ..\Drivers\STM32F1xx_HAL_Driver\Src\stm32f1xx_hal_flash_ex.c 0x00000000   Number         0  stm32f1xx_hal_flash_ex.o ABSOLUTE
    ..\Drivers\STM32F1xx_HAL_Driver\Src\stm32f1xx_hal_gpio.c 0x00000000   Number         0  stm32f1xx_hal_gpio.o ABSOLUTE
    ..\Drivers\STM32F1xx_HAL_Driver\Src\stm32f1xx_hal_gpio_ex.c 0x00000000   Number         0  stm32f1xx_hal_gpio_ex.o ABSOLUTE
    ..\Drivers\STM32F1xx_HAL_Driver\Src\stm32f1xx_hal_i2c.c 0x00000000   Number         0  stm32f1xx_hal_i2c.o ABSOLUTE
    ..\Drivers\STM32F1xx_HAL_Driver\Src\stm32f1xx_hal_iwdg.c 0x00000000   Number         0  stm32f1xx_hal_iwdg.o ABSOLUTE
    ..\Drivers\STM32F1xx_HAL_Driver\Src\stm32f1xx_hal_pwr.c 0x00000000   Number         0  stm32f1xx_hal_pwr.o ABSOLUTE
    ..\Drivers\STM32F1xx_HAL_Driver\Src\stm32f1xx_hal_rcc.c 0x00000000   Number         0  stm32f1xx_hal_rcc.o ABSOLUTE
    ..\Drivers\STM32F1xx_HAL_Driver\Src\stm32f1xx_hal_rcc_ex.c 0x00000000   Number         0  stm32f1xx_hal_rcc_ex.o ABSOLUTE
    ..\Drivers\STM32F1xx_HAL_Driver\Src\stm32f1xx_hal_spi.c 0x00000000   Number         0  stm32f1xx_hal_spi.o ABSOLUTE
    ..\Drivers\STM32F1xx_HAL_Driver\Src\stm32f1xx_hal_tim.c 0x00000000   Number         0  stm32f1xx_hal_tim.o ABSOLUTE
    ..\Drivers\STM32F1xx_HAL_Driver\Src\stm32f1xx_hal_tim_ex.c 0x00000000   Number         0  stm32f1xx_hal_tim_ex.o ABSOLUTE
    ..\Drivers\STM32F1xx_HAL_Driver\Src\stm32f1xx_hal_uart.c 0x00000000   Number         0  stm32f1xx_hal_uart.o ABSOLUTE
    ..\Drivers\STM32F1xx_HAL_Driver\Src\stm32f1xx_hal_usart.c 0x00000000   Number         0  stm32f1xx_hal_usart.o ABSOLUTE
    ..\Drivers\STM32F1xx_HAL_Driver\Src\stm32f1xx_hal_wwdg.c 0x00000000   Number         0  stm32f1xx_hal_wwdg.o ABSOLUTE
    ..\Src\BatteryInfor.c                    0x00000000   Number         0  batteryinfor.o ABSOLUTE
    ..\Src\Encoder.c                         0x00000000   Number         0  encoder.o ABSOLUTE
    ..\Src\IndicatorDevice.c                 0x00000000   Number         0  indicatordevice.o ABSOLUTE
    ..\Src\Kinematics_Mecanum.c              0x00000000   Number         0  kinematics_mecanum.o ABSOLUTE
    ..\Src\Loop.c                            0x00000000   Number         0  loop.o ABSOLUTE
    ..\Src\LowPassFilter.c                   0x00000000   Number         0  lowpassfilter.o ABSOLUTE
    ..\Src\MotorControl.c                    0x00000000   Number         0  motorcontrol.o ABSOLUTE
    ..\Src\RC.c                              0x00000000   Number         0  rc.o ABSOLUTE
    ..\Src\ShareWare.c                       0x00000000   Number         0  shareware.o ABSOLUTE
    ..\Src\VelocityControl.c                 0x00000000   Number         0  velocitycontrol.o ABSOLUTE
    ..\Src\adc1.c                            0x00000000   Number         0  adc1.o ABSOLUTE
    ..\Src\delayus.c                         0x00000000   Number         0  delayus.o ABSOLUTE
    ..\Src\i2c.c                             0x00000000   Number         0  i2c.o ABSOLUTE
    ..\Src\main.c                            0x00000000   Number         0  main.o ABSOLUTE
    ..\Src\pid.c                             0x00000000   Number         0  pid.o ABSOLUTE
    ..\Src\stm32f1xx_hal_msp.c               0x00000000   Number         0  stm32f1xx_hal_msp.o ABSOLUTE
    ..\Src\stm32f1xx_it.c                    0x00000000   Number         0  stm32f1xx_it.o ABSOLUTE
    ..\Src\tim2.c                            0x00000000   Number         0  tim2.o ABSOLUTE
    ..\Src\tim3.c                            0x00000000   Number         0  tim3.o ABSOLUTE
    ..\Src\tim4.c                            0x00000000   Number         0  tim4.o ABSOLUTE
    ..\Src\tim5.c                            0x00000000   Number         0  tim5.o ABSOLUTE
    ..\Src\tim8.c                            0x00000000   Number         0  tim8.o ABSOLUTE
    ..\Src\uart.c                            0x00000000   Number         0  uart.o ABSOLUTE
    ..\\Drivers\\STM32F1xx_HAL_Driver\\Src\\stm32f1xx_hal_can.c 0x00000000   Number         0  stm32f1xx_hal_can.o ABSOLUTE
    ..\\Drivers\\STM32F1xx_HAL_Driver\\Src\\stm32f1xx_hal_dac.c 0x00000000   Number         0  stm32f1xx_hal_dac.o ABSOLUTE
    ..\\Drivers\\STM32F1xx_HAL_Driver\\Src\\stm32f1xx_hal_dac_ex.c 0x00000000   Number         0  stm32f1xx_hal_dac_ex.o ABSOLUTE
    ..\\Drivers\\STM32F1xx_HAL_Driver\\Src\\stm32f1xx_hal_i2c.c 0x00000000   Number         0  stm32f1xx_hal_i2c.o ABSOLUTE
    ..\\Drivers\\STM32F1xx_HAL_Driver\\Src\\stm32f1xx_hal_iwdg.c 0x00000000   Number         0  stm32f1xx_hal_iwdg.o ABSOLUTE
    ..\\Drivers\\STM32F1xx_HAL_Driver\\Src\\stm32f1xx_hal_spi.c 0x00000000   Number         0  stm32f1xx_hal_spi.o ABSOLUTE
    ..\\Drivers\\STM32F1xx_HAL_Driver\\Src\\stm32f1xx_hal_usart.c 0x00000000   Number         0  stm32f1xx_hal_usart.o ABSOLUTE
    ..\\Drivers\\STM32F1xx_HAL_Driver\\Src\\stm32f1xx_hal_wwdg.c 0x00000000   Number         0  stm32f1xx_hal_wwdg.o ABSOLUTE
    ..\\Src\\BatteryInfor.c                  0x00000000   Number         0  batteryinfor.o ABSOLUTE
    ..\\Src\\Encoder.c                       0x00000000   Number         0  encoder.o ABSOLUTE
    ..\\Src\\IndicatorDevice.c               0x00000000   Number         0  indicatordevice.o ABSOLUTE
    ..\\Src\\Kinematics_Mecanum.c            0x00000000   Number         0  kinematics_mecanum.o ABSOLUTE
    ..\\Src\\Loop.c                          0x00000000   Number         0  loop.o ABSOLUTE
    ..\\Src\\LowPassFilter.c                 0x00000000   Number         0  lowpassfilter.o ABSOLUTE
    ..\\Src\\MotorControl.c                  0x00000000   Number         0  motorcontrol.o ABSOLUTE
    ..\\Src\\RC.c                            0x00000000   Number         0  rc.o ABSOLUTE
    ..\\Src\\ShareWare.c                     0x00000000   Number         0  shareware.o ABSOLUTE
    ..\\Src\\VelocityControl.c               0x00000000   Number         0  velocitycontrol.o ABSOLUTE
    ..\\Src\\adc1.c                          0x00000000   Number         0  adc1.o ABSOLUTE
    ..\\Src\\delayus.c                       0x00000000   Number         0  delayus.o ABSOLUTE
    ..\\Src\\i2c.c                           0x00000000   Number         0  i2c.o ABSOLUTE
    ..\\Src\\pid.c                           0x00000000   Number         0  pid.o ABSOLUTE
    ..\\Src\\tim2.c                          0x00000000   Number         0  tim2.o ABSOLUTE
    ..\\Src\\tim3.c                          0x00000000   Number         0  tim3.o ABSOLUTE
    ..\\Src\\tim4.c                          0x00000000   Number         0  tim4.o ABSOLUTE
    ..\\Src\\tim5.c                          0x00000000   Number         0  tim5.o ABSOLUTE
    ..\\Src\\tim8.c                          0x00000000   Number         0  tim8.o ABSOLUTE
    ..\\Src\\uart.c                          0x00000000   Number         0  uart.o ABSOLUTE
    ..\\Src\system_stm32f1xx.c               0x00000000   Number         0  system_stm32f1xx.o ABSOLUTE
    cdrcmple.s                               0x00000000   Number         0  cdrcmple.o ABSOLUTE
    cfcmple.s                                0x00000000   Number         0  cfcmple.o ABSOLUTE
    cfrcmple.s                               0x00000000   Number         0  cfrcmple.o ABSOLUTE
    dc.s                                     0x00000000   Number         0  dc.o ABSOLUTE
    handlers.s                               0x00000000   Number         0  handlers.o ABSOLUTE
    init.s                                   0x00000000   Number         0  init.o ABSOLUTE
    startup_stm32f103xe.s                    0x00000000   Number         0  startup_stm32f103xe.o ABSOLUTE
    RESET                                    0x08000000   Section      304  startup_stm32f103xe.o(RESET)
    .ARM.Collect$$$$00000000                 0x08000130   Section        0  entry.o(.ARM.Collect$$$$00000000)
    .ARM.Collect$$$$00000001                 0x08000130   Section        4  entry2.o(.ARM.Collect$$$$00000001)
    .ARM.Collect$$$$00000004                 0x08000134   Section        4  entry5.o(.ARM.Collect$$$$00000004)
    .ARM.Collect$$$$00000008                 0x08000138   Section        0  entry7b.o(.ARM.Collect$$$$00000008)
    .ARM.Collect$$$$0000000A                 0x08000138   Section        0  entry8b.o(.ARM.Collect$$$$0000000A)
    .ARM.Collect$$$$0000000B                 0x08000138   Section        8  entry9a.o(.ARM.Collect$$$$0000000B)
    .ARM.Collect$$$$0000000D                 0x08000140   Section        0  entry10a.o(.ARM.Collect$$$$0000000D)
    .ARM.Collect$$$$0000000F                 0x08000140   Section        0  entry11a.o(.ARM.Collect$$$$0000000F)
    .ARM.Collect$$$$00002712                 0x08000140   Section        4  entry2.o(.ARM.Collect$$$$00002712)
    __lit__00000000                          0x08000140   Data           4  entry2.o(.ARM.Collect$$$$00002712)
    .text                                    0x08000144   Section       36  startup_stm32f103xe.o(.text)
    .text                                    0x08000168   Section        0  llushr.o(.text)
    .text                                    0x08000188   Section        0  fadd.o(.text)
    .text                                    0x08000238   Section        0  fmul.o(.text)
    .text                                    0x0800029c   Section        0  fdiv.o(.text)
    .text                                    0x08000318   Section        0  fscalb.o(.text)
    .text                                    0x08000330   Section        0  dadd.o(.text)
    .text                                    0x0800047e   Section        0  fflti.o(.text)
    .text                                    0x08000490   Section        0  ffltui.o(.text)
    .text                                    0x0800049a   Section        0  ffixui.o(.text)
    .text                                    0x080004c2   Section        0  f2d.o(.text)
    .text                                    0x080004e8   Section        0  d2f.o(.text)
    .text                                    0x08000520   Section       20  cfcmple.o(.text)
    .text                                    0x08000534   Section        0  llshl.o(.text)
    .text                                    0x08000552   Section        0  llsshr.o(.text)
    .text                                    0x08000576   Section        0  fepilogue.o(.text)
    .text                                    0x08000576   Section        0  iusefp.o(.text)
    .text                                    0x080005e4   Section        0  depilogue.o(.text)
    .text                                    0x080006a0   Section       36  init.o(.text)
    i.ADC_ConversionStop_Disable             0x080006c4   Section        0  stm32f1xx_hal_adc.o(i.ADC_ConversionStop_Disable)
    i.ADC_DMAConvCplt                        0x0800070e   Section        0  stm32f1xx_hal_adc.o(i.ADC_DMAConvCplt)
    i.ADC_DMAError                           0x0800075c   Section        0  stm32f1xx_hal_adc.o(i.ADC_DMAError)
    i.ADC_DMAHalfConvCplt                    0x08000776   Section        0  stm32f1xx_hal_adc.o(i.ADC_DMAHalfConvCplt)
    i.ADC_Enable                             0x08000780   Section        0  stm32f1xx_hal_adc.o(i.ADC_Enable)
    i.BusFault_Handler                       0x080007f0   Section        0  stm32f1xx_it.o(i.BusFault_Handler)
    i.BuzzerControl                          0x080007f4   Section        0  indicatordevice.o(i.BuzzerControl)
    i.Buzzer_GPIO_Init                       0x08000870   Section        0  indicatordevice.o(i.Buzzer_GPIO_Init)
    i.DMA1_Channel6_IRQHandler               0x080008b8   Section        0  stm32f1xx_it.o(i.DMA1_Channel6_IRQHandler)
    i.DMA1_Channel7_IRQHandler               0x080008c4   Section        0  stm32f1xx_it.o(i.DMA1_Channel7_IRQHandler)
    i.DMA2_Channel3_IRQHandler               0x080008d0   Section        0  stm32f1xx_it.o(i.DMA2_Channel3_IRQHandler)
    i.DMA2_Channel4_5_IRQHandler             0x080008dc   Section        0  stm32f1xx_it.o(i.DMA2_Channel4_5_IRQHandler)
    i.DMA_SetConfig                          0x080008e8   Section        0  stm32f1xx_hal_dma.o(i.DMA_SetConfig)
    DMA_SetConfig                            0x080008e9   Thumb Code    42  stm32f1xx_hal_dma.o(i.DMA_SetConfig)
    i.DebugMon_Handler                       0x08000912   Section        0  stm32f1xx_it.o(i.DebugMon_Handler)
    i.Encoder_Struct_Init                    0x08000914   Section        0  encoder.o(i.Encoder_Struct_Init)
    i.Encoder_UpdataValue                    0x08000948   Section        0  encoder.o(i.Encoder_UpdataValue)
    i.GetdBatteryCapacity                    0x080009d0   Section        0  batteryinfor.o(i.GetdBatteryCapacity)
    i.HAL_ADC_ConfigChannel                  0x08000c54   Section        0  stm32f1xx_hal_adc.o(i.HAL_ADC_ConfigChannel)
    i.HAL_ADC_ConvCpltCallback               0x08000d50   Section        0  stm32f1xx_hal_adc.o(i.HAL_ADC_ConvCpltCallback)
    i.HAL_ADC_ConvHalfCpltCallback           0x08000d52   Section        0  stm32f1xx_hal_adc.o(i.HAL_ADC_ConvHalfCpltCallback)
    i.HAL_ADC_ErrorCallback                  0x08000d54   Section        0  stm32f1xx_hal_adc.o(i.HAL_ADC_ErrorCallback)
    i.HAL_ADC_Init                           0x08000d58   Section        0  stm32f1xx_hal_adc.o(i.HAL_ADC_Init)
    i.HAL_ADC_MspInit                        0x08000e78   Section        0  stm32f1xx_hal_msp.o(i.HAL_ADC_MspInit)
    i.HAL_ADC_Start                          0x08000f0c   Section        0  stm32f1xx_hal_adc.o(i.HAL_ADC_Start)
    i.HAL_ADC_Start_DMA                      0x08000fcc   Section        0  stm32f1xx_hal_adc.o(i.HAL_ADC_Start_DMA)
    i.HAL_DMA_Abort                          0x080010d8   Section        0  stm32f1xx_hal_dma.o(i.HAL_DMA_Abort)
    i.HAL_DMA_Abort_IT                       0x08001108   Section        0  stm32f1xx_hal_dma.o(i.HAL_DMA_Abort_IT)
    i.HAL_DMA_IRQHandler                     0x08001238   Section        0  stm32f1xx_hal_dma.o(i.HAL_DMA_IRQHandler)
    i.HAL_DMA_Init                           0x08001480   Section        0  stm32f1xx_hal_dma.o(i.HAL_DMA_Init)
    i.HAL_DMA_Start_IT                       0x08001504   Section        0  stm32f1xx_hal_dma.o(i.HAL_DMA_Start_IT)
    i.HAL_Delay                              0x08001574   Section        0  stm32f1xx_hal.o(i.HAL_Delay)
    i.HAL_GPIO_Init                          0x08001598   Section        0  stm32f1xx_hal_gpio.o(i.HAL_GPIO_Init)
    i.HAL_GPIO_TogglePin                     0x08001784   Section        0  stm32f1xx_hal_gpio.o(i.HAL_GPIO_TogglePin)
    i.HAL_GPIO_WritePin                      0x0800178c   Section        0  stm32f1xx_hal_gpio.o(i.HAL_GPIO_WritePin)
    i.HAL_GetTick                            0x08001798   Section        0  stm32f1xx_hal.o(i.HAL_GetTick)
    i.HAL_I2C_AbortCpltCallback              0x080017a4   Section        0  stm32f1xx_hal_i2c.o(i.HAL_I2C_AbortCpltCallback)
    i.HAL_I2C_AddrCallback                   0x080017a6   Section        0  stm32f1xx_hal_i2c.o(i.HAL_I2C_AddrCallback)
    i.HAL_I2C_ER_IRQHandler                  0x080017a8   Section        0  stm32f1xx_hal_i2c.o(i.HAL_I2C_ER_IRQHandler)
    i.HAL_I2C_EV_IRQHandler                  0x08001878   Section        0  stm32f1xx_hal_i2c.o(i.HAL_I2C_EV_IRQHandler)
    i.HAL_I2C_ErrorCallback                  0x08001a68   Section        0  i2c.o(i.HAL_I2C_ErrorCallback)
    i.HAL_I2C_Init                           0x08001a6c   Section        0  stm32f1xx_hal_i2c.o(i.HAL_I2C_Init)
    i.HAL_I2C_ListenCpltCallback             0x08001bac   Section        0  stm32f1xx_hal_i2c.o(i.HAL_I2C_ListenCpltCallback)
    i.HAL_I2C_MasterRxCpltCallback           0x08001bae   Section        0  stm32f1xx_hal_i2c.o(i.HAL_I2C_MasterRxCpltCallback)
    i.HAL_I2C_MasterTxCpltCallback           0x08001bb0   Section        0  stm32f1xx_hal_i2c.o(i.HAL_I2C_MasterTxCpltCallback)
    i.HAL_I2C_MemRxCpltCallback              0x08001bb4   Section        0  i2c.o(i.HAL_I2C_MemRxCpltCallback)
    i.HAL_I2C_MemTxCpltCallback              0x08001bcc   Section        0  i2c.o(i.HAL_I2C_MemTxCpltCallback)
    i.HAL_I2C_MspInit                        0x08001be4   Section        0  stm32f1xx_hal_msp.o(i.HAL_I2C_MspInit)
    i.HAL_I2C_SlaveRxCpltCallback            0x08001c70   Section        0  stm32f1xx_hal_i2c.o(i.HAL_I2C_SlaveRxCpltCallback)
    i.HAL_I2C_SlaveTxCpltCallback            0x08001c72   Section        0  stm32f1xx_hal_i2c.o(i.HAL_I2C_SlaveTxCpltCallback)
    i.HAL_IncTick                            0x08001c74   Section        0  stm32f1xx_hal.o(i.HAL_IncTick)
    i.HAL_Init                               0x08001c84   Section        0  stm32f1xx_hal.o(i.HAL_Init)
    i.HAL_InitTick                           0x08001ca8   Section        0  stm32f1xx_hal.o(i.HAL_InitTick)
    i.HAL_MspInit                            0x08001ce8   Section        0  stm32f1xx_hal_msp.o(i.HAL_MspInit)
    i.HAL_NVIC_EnableIRQ                     0x08001d68   Section        0  stm32f1xx_hal_cortex.o(i.HAL_NVIC_EnableIRQ)
    i.HAL_NVIC_SetPriority                   0x08001d80   Section        0  stm32f1xx_hal_cortex.o(i.HAL_NVIC_SetPriority)
    i.HAL_NVIC_SetPriorityGrouping           0x08001dc0   Section        0  stm32f1xx_hal_cortex.o(i.HAL_NVIC_SetPriorityGrouping)
    i.HAL_RCCEx_PeriphCLKConfig              0x08001de4   Section        0  stm32f1xx_hal_rcc_ex.o(i.HAL_RCCEx_PeriphCLKConfig)
    i.HAL_RCC_ClockConfig                    0x08001ecc   Section        0  stm32f1xx_hal_rcc.o(i.HAL_RCC_ClockConfig)
    i.HAL_RCC_GetHCLKFreq                    0x08002018   Section        0  stm32f1xx_hal_rcc.o(i.HAL_RCC_GetHCLKFreq)
    i.HAL_RCC_GetPCLK1Freq                   0x08002024   Section        0  stm32f1xx_hal_rcc.o(i.HAL_RCC_GetPCLK1Freq)
    i.HAL_RCC_GetPCLK2Freq                   0x08002044   Section        0  stm32f1xx_hal_rcc.o(i.HAL_RCC_GetPCLK2Freq)
    i.HAL_RCC_GetSysClockFreq                0x08002064   Section        0  stm32f1xx_hal_rcc.o(i.HAL_RCC_GetSysClockFreq)
    i.HAL_RCC_OscConfig                      0x080020d0   Section        0  stm32f1xx_hal_rcc.o(i.HAL_RCC_OscConfig)
    i.HAL_SYSTICK_CLKSourceConfig            0x080023c8   Section        0  stm32f1xx_hal_cortex.o(i.HAL_SYSTICK_CLKSourceConfig)
    i.HAL_SYSTICK_Callback                   0x080023e0   Section        0  loop.o(i.HAL_SYSTICK_Callback)
    i.HAL_SYSTICK_Config                     0x08002424   Section        0  stm32f1xx_hal_cortex.o(i.HAL_SYSTICK_Config)
    i.HAL_SYSTICK_IRQHandler                 0x0800244c   Section        0  stm32f1xx_hal_cortex.o(i.HAL_SYSTICK_IRQHandler)
    i.HAL_TIMEx_BreakCallback                0x08002454   Section        0  stm32f1xx_hal_tim_ex.o(i.HAL_TIMEx_BreakCallback)
    i.HAL_TIMEx_CommutationCallback          0x08002456   Section        0  stm32f1xx_hal_tim_ex.o(i.HAL_TIMEx_CommutationCallback)
    i.HAL_TIMEx_ConfigBreakDeadTime          0x08002458   Section        0  stm32f1xx_hal_tim_ex.o(i.HAL_TIMEx_ConfigBreakDeadTime)
    i.HAL_TIMEx_MasterConfigSynchronization  0x080024b2   Section        0  stm32f1xx_hal_tim_ex.o(i.HAL_TIMEx_MasterConfigSynchronization)
    i.HAL_TIM_Encoder_Init                   0x08002502   Section        0  stm32f1xx_hal_tim.o(i.HAL_TIM_Encoder_Init)
    i.HAL_TIM_Encoder_MspInit                0x08002598   Section        0  stm32f1xx_hal_msp.o(i.HAL_TIM_Encoder_MspInit)
    i.HAL_TIM_Encoder_Start                  0x0800272c   Section        0  stm32f1xx_hal_tim.o(i.HAL_TIM_Encoder_Start)
    i.HAL_TIM_IC_CaptureCallback             0x0800275e   Section        0  stm32f1xx_hal_tim.o(i.HAL_TIM_IC_CaptureCallback)
    i.HAL_TIM_IRQHandler                     0x08002760   Section        0  stm32f1xx_hal_tim.o(i.HAL_TIM_IRQHandler)
    i.HAL_TIM_OC_DelayElapsedCallback        0x080028c6   Section        0  stm32f1xx_hal_tim.o(i.HAL_TIM_OC_DelayElapsedCallback)
    i.HAL_TIM_PWM_ConfigChannel              0x080028c8   Section        0  stm32f1xx_hal_tim.o(i.HAL_TIM_PWM_ConfigChannel)
    i.HAL_TIM_PWM_Init                       0x08002998   Section        0  stm32f1xx_hal_tim.o(i.HAL_TIM_PWM_Init)
    i.HAL_TIM_PWM_MspInit                    0x080029d0   Section        0  stm32f1xx_hal_msp.o(i.HAL_TIM_PWM_MspInit)
    i.HAL_TIM_PWM_PulseFinishedCallback      0x08002a24   Section        0  stm32f1xx_hal_tim.o(i.HAL_TIM_PWM_PulseFinishedCallback)
    i.HAL_TIM_PWM_Start                      0x08002a28   Section        0  stm32f1xx_hal_tim.o(i.HAL_TIM_PWM_Start)
    i.HAL_TIM_PeriodElapsedCallback          0x08002a60   Section        0  encoder.o(i.HAL_TIM_PeriodElapsedCallback)
    i.HAL_TIM_TriggerCallback                0x08002af0   Section        0  stm32f1xx_hal_tim.o(i.HAL_TIM_TriggerCallback)
    i.HAL_UART_DMAStop                       0x08002af2   Section        0  stm32f1xx_hal_uart.o(i.HAL_UART_DMAStop)
    i.HAL_UART_ErrorCallback                 0x08002b4a   Section        0  uart.o(i.HAL_UART_ErrorCallback)
    i.HAL_UART_IRQHandler                    0x08002b98   Section        0  stm32f1xx_hal_uart.o(i.HAL_UART_IRQHandler)
    i.HAL_UART_Init                          0x08002ca8   Section        0  stm32f1xx_hal_uart.o(i.HAL_UART_Init)
    i.HAL_UART_MspInit                       0x08002d0c   Section        0  stm32f1xx_hal_msp.o(i.HAL_UART_MspInit)
    i.HAL_UART_Receive_DMA                   0x08002ef8   Section        0  stm32f1xx_hal_uart.o(i.HAL_UART_Receive_DMA)
    i.HAL_UART_RxCpltCallback                0x08002f90   Section        0  uart.o(i.HAL_UART_RxCpltCallback)
    i.HAL_UART_RxHalfCpltCallback            0x08002f92   Section        0  stm32f1xx_hal_uart.o(i.HAL_UART_RxHalfCpltCallback)
    i.HAL_UART_TxCpltCallback                0x08002f94   Section        0  uart.o(i.HAL_UART_TxCpltCallback)
    i.HardFault_Handler                      0x08002f96   Section        0  stm32f1xx_it.o(i.HardFault_Handler)
    i.I2C1_ER_IRQHandler                     0x08002f98   Section        0  stm32f1xx_it.o(i.I2C1_ER_IRQHandler)
    i.I2C1_EV_IRQHandler                     0x08002fa4   Section        0  stm32f1xx_it.o(i.I2C1_EV_IRQHandler)
    i.I2C_DMAAbort                           0x08002fb0   Section        0  stm32f1xx_hal_i2c.o(i.I2C_DMAAbort)
    I2C_DMAAbort                             0x08002fb1   Thumb Code    78  stm32f1xx_hal_i2c.o(i.I2C_DMAAbort)
    i.I2C_ITError                            0x08003000   Section        0  stm32f1xx_hal_i2c.o(i.I2C_ITError)
    I2C_ITError                              0x08003001   Thumb Code   284  stm32f1xx_hal_i2c.o(i.I2C_ITError)
    i.I2C_MasterReceive_BTF                  0x08003124   Section        0  stm32f1xx_hal_i2c.o(i.I2C_MasterReceive_BTF)
    I2C_MasterReceive_BTF                    0x08003125   Thumb Code   194  stm32f1xx_hal_i2c.o(i.I2C_MasterReceive_BTF)
    i.I2C_MasterReceive_RXNE                 0x080031ec   Section        0  stm32f1xx_hal_i2c.o(i.I2C_MasterReceive_RXNE)
    I2C_MasterReceive_RXNE                   0x080031ed   Thumb Code   174  stm32f1xx_hal_i2c.o(i.I2C_MasterReceive_RXNE)
    i.I2C_MasterTransmit_BTF                 0x0800329a   Section        0  stm32f1xx_hal_i2c.o(i.I2C_MasterTransmit_BTF)
    I2C_MasterTransmit_BTF                   0x0800329b   Thumb Code   128  stm32f1xx_hal_i2c.o(i.I2C_MasterTransmit_BTF)
    i.I2C_MasterTransmit_TXE                 0x0800331a   Section        0  stm32f1xx_hal_i2c.o(i.I2C_MasterTransmit_TXE)
    I2C_MasterTransmit_TXE                   0x0800331b   Thumb Code   262  stm32f1xx_hal_i2c.o(i.I2C_MasterTransmit_TXE)
    i.I2C_Master_ADDR                        0x08003420   Section        0  stm32f1xx_hal_i2c.o(i.I2C_Master_ADDR)
    I2C_Master_ADDR                          0x08003421   Thumb Code   282  stm32f1xx_hal_i2c.o(i.I2C_Master_ADDR)
    i.I2C_Master_SB                          0x0800353a   Section        0  stm32f1xx_hal_i2c.o(i.I2C_Master_SB)
    I2C_Master_SB                            0x0800353b   Thumb Code    90  stm32f1xx_hal_i2c.o(i.I2C_Master_SB)
    i.I2C_Slave_AF                           0x08003594   Section        0  stm32f1xx_hal_i2c.o(i.I2C_Slave_AF)
    I2C_Slave_AF                             0x08003595   Thumb Code   128  stm32f1xx_hal_i2c.o(i.I2C_Slave_AF)
    i.I2C_Slave_STOPF                        0x08003618   Section        0  stm32f1xx_hal_i2c.o(i.I2C_Slave_STOPF)
    I2C_Slave_STOPF                          0x08003619   Thumb Code   214  stm32f1xx_hal_i2c.o(i.I2C_Slave_STOPF)
    i.IncPID_Init                            0x080036f4   Section        0  pid.o(i.IncPID_Init)
    i.Incremental_PID                        0x08003704   Section        0  pid.o(i.Incremental_PID)
    i.IndicatorDeviceControl                 0x0800375c   Section        0  indicatordevice.o(i.IndicatorDeviceControl)
    i.Kinematics_Mecanum_CalculateRPM        0x08003804   Section        0  kinematics_mecanum.o(i.Kinematics_Mecanum_CalculateRPM)
    i.Kinematics_Mecanum_GetVelocities       0x08003898   Section        0  kinematics_mecanum.o(i.Kinematics_Mecanum_GetVelocities)
    i.LED_Green_Control                      0x08003934   Section        0  indicatordevice.o(i.LED_Green_Control)
    i.LED_Green_GPIO_Init                    0x080039b0   Section        0  indicatordevice.o(i.LED_Green_GPIO_Init)
    i.LED_Red_Control                        0x080039f4   Section        0  indicatordevice.o(i.LED_Red_Control)
    i.LED_Red_GPIO_Init                      0x08003a70   Section        0  indicatordevice.o(i.LED_Red_GPIO_Init)
    i.LPF_Struct_Init                        0x08003ab4   Section        0  lowpassfilter.o(i.LPF_Struct_Init)
    i.LowPassFilter                          0x08003abe   Section        0  lowpassfilter.o(i.LowPassFilter)
    i.MX_ADC1_Init                           0x08003ae8   Section        0  adc1.o(i.MX_ADC1_Init)
    i.MX_I2C1_Init                           0x08003b4c   Section        0  i2c.o(i.MX_I2C1_Init)
    i.MX_TIM2_Init                           0x08003b94   Section        0  tim2.o(i.MX_TIM2_Init)
    i.MX_TIM3_Init                           0x08003c08   Section        0  tim3.o(i.MX_TIM3_Init)
    i.MX_TIM4_Init                           0x08003c68   Section        0  tim4.o(i.MX_TIM4_Init)
    i.MX_TIM5_Init                           0x08003cc8   Section        0  tim5.o(i.MX_TIM5_Init)
    i.MX_TIM8_Init                           0x08003d28   Section        0  tim8.o(i.MX_TIM8_Init)
    i.MX_UART4_Init                          0x08003dd8   Section        0  uart.o(i.MX_UART4_Init)
    i.MX_USART2_Init                         0x08003e28   Section        0  uart.o(i.MX_USART2_Init)
    i.MemManage_Handler                      0x08003e6c   Section        0  stm32f1xx_it.o(i.MemManage_Handler)
    i.Motor1_Forward                         0x08003e70   Section        0  motorcontrol.o(i.Motor1_Forward)
    i.Motor1_GPIO_Init                       0x08003e80   Section        0  motorcontrol.o(i.Motor1_GPIO_Init)
    i.Motor1_Reverse                         0x08003ec4   Section        0  motorcontrol.o(i.Motor1_Reverse)
    i.Motor2_Forward                         0x08003ed4   Section        0  motorcontrol.o(i.Motor2_Forward)
    i.Motor2_GPIO_Init                       0x08003ee4   Section        0  motorcontrol.o(i.Motor2_GPIO_Init)
    i.Motor2_Reverse                         0x08003f28   Section        0  motorcontrol.o(i.Motor2_Reverse)
    i.Motor3_Forward                         0x08003f38   Section        0  motorcontrol.o(i.Motor3_Forward)
    i.Motor3_GPIO_Init                       0x08003f48   Section        0  motorcontrol.o(i.Motor3_GPIO_Init)
    i.Motor3_Reverse                         0x08003f8c   Section        0  motorcontrol.o(i.Motor3_Reverse)
    i.Motor4_Forward                         0x08003f9c   Section        0  motorcontrol.o(i.Motor4_Forward)
    i.Motor4_GPIO_Init                       0x08003fac   Section        0  motorcontrol.o(i.Motor4_GPIO_Init)
    i.Motor4_Reverse                         0x08003ff0   Section        0  motorcontrol.o(i.Motor4_Reverse)
    i.NMI_Handler                            0x08004000   Section        0  stm32f1xx_it.o(i.NMI_Handler)
    i.NVIC_SetPriority                       0x08004002   Section        0  stm32f1xx_hal_cortex.o(i.NVIC_SetPriority)
    NVIC_SetPriority                         0x08004003   Thumb Code    32  stm32f1xx_hal_cortex.o(i.NVIC_SetPriority)
    i.PendSV_Handler                         0x08004022   Section        0  stm32f1xx_it.o(i.PendSV_Handler)
    i.RC_Update                              0x08004024   Section        0  rc.o(i.RC_Update)
    i.RC_UpdateStruct                        0x080040f4   Section        0  rc.o(i.RC_UpdateStruct)
    i.SVC_Handler                            0x08004298   Section        0  stm32f1xx_it.o(i.SVC_Handler)
    i.SysTick_Handler                        0x0800429a   Section        0  stm32f1xx_it.o(i.SysTick_Handler)
    i.SystemClock_Config                     0x080042a8   Section        0  main.o(i.SystemClock_Config)
    i.SystemInit                             0x08004324   Section        0  system_stm32f1xx.o(i.SystemInit)
    i.TIM2_IRQHandler                        0x0800436c   Section        0  stm32f1xx_it.o(i.TIM2_IRQHandler)
    i.TIM3_IRQHandler                        0x08004378   Section        0  stm32f1xx_it.o(i.TIM3_IRQHandler)
    i.TIM4_IRQHandler                        0x08004384   Section        0  stm32f1xx_it.o(i.TIM4_IRQHandler)
    i.TIM5_IRQHandler                        0x08004390   Section        0  stm32f1xx_it.o(i.TIM5_IRQHandler)
    i.TIM_Base_SetConfig                     0x0800439c   Section        0  stm32f1xx_hal_tim.o(i.TIM_Base_SetConfig)
    i.TIM_CCxChannelCmd                      0x08004428   Section        0  stm32f1xx_hal_tim.o(i.TIM_CCxChannelCmd)
    i.TIM_OC1_SetConfig                      0x08004440   Section        0  stm32f1xx_hal_tim.o(i.TIM_OC1_SetConfig)
    TIM_OC1_SetConfig                        0x08004441   Thumb Code    88  stm32f1xx_hal_tim.o(i.TIM_OC1_SetConfig)
    i.TIM_OC2_SetConfig                      0x080044a0   Section        0  stm32f1xx_hal_tim.o(i.TIM_OC2_SetConfig)
    i.TIM_OC3_SetConfig                      0x0800450c   Section        0  stm32f1xx_hal_tim.o(i.TIM_OC3_SetConfig)
    TIM_OC3_SetConfig                        0x0800450d   Thumb Code    96  stm32f1xx_hal_tim.o(i.TIM_OC3_SetConfig)
    i.TIM_OC4_SetConfig                      0x08004574   Section        0  stm32f1xx_hal_tim.o(i.TIM_OC4_SetConfig)
    TIM_OC4_SetConfig                        0x08004575   Thumb Code    70  stm32f1xx_hal_tim.o(i.TIM_OC4_SetConfig)
    i.UART4_IRQHandler                       0x080045c4   Section        0  stm32f1xx_it.o(i.UART4_IRQHandler)
    i.UART_DMAAbortOnError                   0x080045e4   Section        0  stm32f1xx_hal_uart.o(i.UART_DMAAbortOnError)
    UART_DMAAbortOnError                     0x080045e5   Thumb Code    16  stm32f1xx_hal_uart.o(i.UART_DMAAbortOnError)
    i.UART_DMAError                          0x080045f4   Section        0  stm32f1xx_hal_uart.o(i.UART_DMAError)
    UART_DMAError                            0x080045f5   Thumb Code    74  stm32f1xx_hal_uart.o(i.UART_DMAError)
    i.UART_DMAReceiveCplt                    0x0800463e   Section        0  stm32f1xx_hal_uart.o(i.UART_DMAReceiveCplt)
    UART_DMAReceiveCplt                      0x0800463f   Thumb Code    60  stm32f1xx_hal_uart.o(i.UART_DMAReceiveCplt)
    i.UART_DMARxHalfCplt                     0x0800467a   Section        0  stm32f1xx_hal_uart.o(i.UART_DMARxHalfCplt)
    UART_DMARxHalfCplt                       0x0800467b   Thumb Code    10  stm32f1xx_hal_uart.o(i.UART_DMARxHalfCplt)
    i.UART_EndRxTransfer                     0x08004684   Section        0  stm32f1xx_hal_uart.o(i.UART_EndRxTransfer)
    UART_EndRxTransfer                       0x08004685   Thumb Code    28  stm32f1xx_hal_uart.o(i.UART_EndRxTransfer)
    i.UART_EndTxTransfer                     0x080046a0   Section        0  stm32f1xx_hal_uart.o(i.UART_EndTxTransfer)
    UART_EndTxTransfer                       0x080046a1   Thumb Code    18  stm32f1xx_hal_uart.o(i.UART_EndTxTransfer)
    i.UART_Receive_IT                        0x080046b2   Section        0  stm32f1xx_hal_uart.o(i.UART_Receive_IT)
    UART_Receive_IT                          0x080046b3   Thumb Code   150  stm32f1xx_hal_uart.o(i.UART_Receive_IT)
    i.UART_SetConfig                         0x08004748   Section        0  stm32f1xx_hal_uart.o(i.UART_SetConfig)
    UART_SetConfig                           0x08004749   Thumb Code   364  stm32f1xx_hal_uart.o(i.UART_SetConfig)
    i.UART_Transmit_IT                       0x080048b8   Section        0  stm32f1xx_hal_uart.o(i.UART_Transmit_IT)
    UART_Transmit_IT                         0x080048b9   Thumb Code    98  stm32f1xx_hal_uart.o(i.UART_Transmit_IT)
    i.USART2_IRQHandler                      0x0800491c   Section        0  stm32f1xx_it.o(i.USART2_IRQHandler)
    i.UpdateBatteryInfor                     0x0800493c   Section        0  batteryinfor.o(i.UpdateBatteryInfor)
    i.UsageFault_Handler                     0x08004990   Section        0  stm32f1xx_it.o(i.UsageFault_Handler)
    i.UsartReceive_IDLE                      0x08004994   Section        0  uart.o(i.UsartReceive_IDLE)
    i.VelocityControl_4WD                    0x08004a10   Section        0  velocitycontrol.o(i.VelocityControl_4WD)
    i.__scatterload_copy                     0x08004d64   Section       14  handlers.o(i.__scatterload_copy)
    i.__scatterload_null                     0x08004d72   Section        2  handlers.o(i.__scatterload_null)
    i.__scatterload_zeroinit                 0x08004d74   Section       14  handlers.o(i.__scatterload_zeroinit)
    i.main                                   0x08004d84   Section        0  main.o(i.main)
    .constdata                               0x08004f8c   Section       16  system_stm32f1xx.o(.constdata)
    .constdata                               0x08004f9c   Section        8  system_stm32f1xx.o(.constdata)
    .data                                    0x20000000   Section        6  main.o(.data)
    .data                                    0x20000006   Section        2  main.o(.data)
    .data                                    0x20000008   Section        8  adc1.o(.data)
    .data                                    0x20000010   Section        2  i2c.o(.data)
    .data                                    0x20000012   Section       34  indicatordevice.o(.data)
    LastTimes                                0x20000022   Data           2  indicatordevice.o(.data)
    LastPeriodTime                           0x20000024   Data           2  indicatordevice.o(.data)
    LastTimes                                0x20000026   Data           2  indicatordevice.o(.data)
    LastPeriodTime                           0x20000028   Data           2  indicatordevice.o(.data)
    LastTimes                                0x2000002a   Data           2  indicatordevice.o(.data)
    LastPeriodTime                           0x2000002c   Data           2  indicatordevice.o(.data)
    .data                                    0x20000034   Section       10  encoder.o(.data)
    .data                                    0x20000040   Section        4  batteryinfor.o(.data)
    VREFINT                                  0x20000040   Data           4  batteryinfor.o(.data)
    .data                                    0x20000044   Section       16  velocitycontrol.o(.data)
    PWM_M1                                   0x20000044   Data           4  velocitycontrol.o(.data)
    PWM_M2                                   0x20000048   Data           4  velocitycontrol.o(.data)
    PWM_M3                                   0x2000004c   Data           4  velocitycontrol.o(.data)
    PWM_M4                                   0x20000050   Data           4  velocitycontrol.o(.data)
    .data                                    0x20000054   Section       12  stm32f1xx_hal.o(.data)
    .data                                    0x20000060   Section        4  system_stm32f1xx.o(.data)
    .data                                    0x20000064   Section       14  rc.o(.data)
    DisconnectCount                          0x20000064   Data           1  rc.o(.data)
    CH1                                      0x20000066   Data           2  rc.o(.data)
    CH2                                      0x20000068   Data           2  rc.o(.data)
    CH3                                      0x2000006a   Data           2  rc.o(.data)
    CH4                                      0x2000006c   Data           2  rc.o(.data)
    CH5                                      0x2000006e   Data           2  rc.o(.data)
    CH6                                      0x20000070   Data           2  rc.o(.data)
    .bss                                     0x20000074   Section       12  shareware.o(.bss)
    .bss                                     0x20000080   Section       12  shareware.o(.bss)
    .bss                                     0x2000008c   Section       12  shareware.o(.bss)
    .bss                                     0x20000098   Section       12  shareware.o(.bss)
    .bss                                     0x200000a4   Section       12  shareware.o(.bss)
    .bss                                     0x200000b0   Section       40  shareware.o(.bss)
    .bss                                     0x200000d8   Section       24  shareware.o(.bss)
    .bss                                     0x200000f0   Section       24  shareware.o(.bss)
    .bss                                     0x20000108   Section       24  shareware.o(.bss)
    .bss                                     0x20000120   Section       24  shareware.o(.bss)
    .bss                                     0x20000138   Section       12  shareware.o(.bss)
    .bss                                     0x20000144   Section       12  shareware.o(.bss)
    .bss                                     0x20000150   Section       12  shareware.o(.bss)
    .bss                                     0x2000015c   Section       12  shareware.o(.bss)
    .bss                                     0x20000168   Section       32  shareware.o(.bss)
    .bss                                     0x20000188   Section       28  shareware.o(.bss)
    .bss                                     0x200001a4   Section       28  shareware.o(.bss)
    .bss                                     0x200001c0   Section       64  tim8.o(.bss)
    .bss                                     0x20000200   Section      456  uart.o(.bss)
    .bss                                     0x200003c8   Section       68  uart.o(.bss)
    .bss                                     0x2000040c   Section       68  uart.o(.bss)
    .bss                                     0x20000450   Section       64  tim4.o(.bss)
    .bss                                     0x20000490   Section       64  tim2.o(.bss)
    .bss                                     0x200004d0   Section       64  tim3.o(.bss)
    .bss                                     0x20000510   Section       64  tim5.o(.bss)
    .bss                                     0x20000550   Section       48  adc1.o(.bss)
    .bss                                     0x20000580   Section       68  adc1.o(.bss)
    .bss                                     0x200005c4   Section       84  i2c.o(.bss)
    STACK                                    0x20000618   Section     1024  startup_stm32f103xe.o(STACK)

    Global Symbols

    Symbol Name                              Value     Ov Type        Size  Object(Section)

    BuildAttributes$$THM_ISAv4$P$D$K$B$S$PE$A:L22UL41UL21$X:L11$S22US41US21$IEEE1$IW$USESV6$~STKCKD$USESV7$~SHL$OTIME$ROPI$EBA8$MICROLIB$REQ8$PRES8$EABIv2 0x00000000   Number         0  anon$$obj.o ABSOLUTE
    __ARM_use_no_argv                        0x00000000   Number         0  main.o ABSOLUTE
    __cpp_initialize__aeabi_                  - Undefined Weak Reference
    __cxa_finalize                            - Undefined Weak Reference
    __decompress                              - Undefined Weak Reference
    _clock_init                               - Undefined Weak Reference
    _microlib_exit                            - Undefined Weak Reference
    __Vectors_Size                           0x00000130   Number         0  startup_stm32f103xe.o ABSOLUTE
    __Vectors                                0x08000000   Data           4  startup_stm32f103xe.o(RESET)
    __Vectors_End                            0x08000130   Data           0  startup_stm32f103xe.o(RESET)
    __main                                   0x08000131   Thumb Code     0  entry.o(.ARM.Collect$$$$00000000)
    _main_stk                                0x08000131   Thumb Code     0  entry2.o(.ARM.Collect$$$$00000001)
    _main_scatterload                        0x08000135   Thumb Code     0  entry5.o(.ARM.Collect$$$$00000004)
    __main_after_scatterload                 0x08000139   Thumb Code     0  entry5.o(.ARM.Collect$$$$00000004)
    _main_clock                              0x08000139   Thumb Code     0  entry7b.o(.ARM.Collect$$$$00000008)
    _main_cpp_init                           0x08000139   Thumb Code     0  entry8b.o(.ARM.Collect$$$$0000000A)
    _main_init                               0x08000139   Thumb Code     0  entry9a.o(.ARM.Collect$$$$0000000B)
    __rt_final_cpp                           0x08000141   Thumb Code     0  entry10a.o(.ARM.Collect$$$$0000000D)
    __rt_final_exit                          0x08000141   Thumb Code     0  entry11a.o(.ARM.Collect$$$$0000000F)
    Reset_Handler                            0x08000145   Thumb Code     8  startup_stm32f103xe.o(.text)
    ADC1_2_IRQHandler                        0x0800015f   Thumb Code     0  startup_stm32f103xe.o(.text)
    ADC3_IRQHandler                          0x0800015f   Thumb Code     0  startup_stm32f103xe.o(.text)
    CAN1_RX1_IRQHandler                      0x0800015f   Thumb Code     0  startup_stm32f103xe.o(.text)
    CAN1_SCE_IRQHandler                      0x0800015f   Thumb Code     0  startup_stm32f103xe.o(.text)
    DMA1_Channel1_IRQHandler                 0x0800015f   Thumb Code     0  startup_stm32f103xe.o(.text)
    DMA1_Channel2_IRQHandler                 0x0800015f   Thumb Code     0  startup_stm32f103xe.o(.text)
    DMA1_Channel3_IRQHandler                 0x0800015f   Thumb Code     0  startup_stm32f103xe.o(.text)
    DMA1_Channel4_IRQHandler                 0x0800015f   Thumb Code     0  startup_stm32f103xe.o(.text)
    DMA1_Channel5_IRQHandler                 0x0800015f   Thumb Code     0  startup_stm32f103xe.o(.text)
    DMA2_Channel1_IRQHandler                 0x0800015f   Thumb Code     0  startup_stm32f103xe.o(.text)
    DMA2_Channel2_IRQHandler                 0x0800015f   Thumb Code     0  startup_stm32f103xe.o(.text)
    EXTI0_IRQHandler                         0x0800015f   Thumb Code     0  startup_stm32f103xe.o(.text)
    EXTI15_10_IRQHandler                     0x0800015f   Thumb Code     0  startup_stm32f103xe.o(.text)
    EXTI1_IRQHandler                         0x0800015f   Thumb Code     0  startup_stm32f103xe.o(.text)
    EXTI2_IRQHandler                         0x0800015f   Thumb Code     0  startup_stm32f103xe.o(.text)
    EXTI3_IRQHandler                         0x0800015f   Thumb Code     0  startup_stm32f103xe.o(.text)
    EXTI4_IRQHandler                         0x0800015f   Thumb Code     0  startup_stm32f103xe.o(.text)
    EXTI9_5_IRQHandler                       0x0800015f   Thumb Code     0  startup_stm32f103xe.o(.text)
    FLASH_IRQHandler                         0x0800015f   Thumb Code     0  startup_stm32f103xe.o(.text)
    FSMC_IRQHandler                          0x0800015f   Thumb Code     0  startup_stm32f103xe.o(.text)
    I2C2_ER_IRQHandler                       0x0800015f   Thumb Code     0  startup_stm32f103xe.o(.text)
    I2C2_EV_IRQHandler                       0x0800015f   Thumb Code     0  startup_stm32f103xe.o(.text)
    PVD_IRQHandler                           0x0800015f   Thumb Code     0  startup_stm32f103xe.o(.text)
    RCC_IRQHandler                           0x0800015f   Thumb Code     0  startup_stm32f103xe.o(.text)
    RTC_Alarm_IRQHandler                     0x0800015f   Thumb Code     0  startup_stm32f103xe.o(.text)
    RTC_IRQHandler                           0x0800015f   Thumb Code     0  startup_stm32f103xe.o(.text)
    SDIO_IRQHandler                          0x0800015f   Thumb Code     0  startup_stm32f103xe.o(.text)
    SPI1_IRQHandler                          0x0800015f   Thumb Code     0  startup_stm32f103xe.o(.text)
    SPI2_IRQHandler                          0x0800015f   Thumb Code     0  startup_stm32f103xe.o(.text)
    SPI3_IRQHandler                          0x0800015f   Thumb Code     0  startup_stm32f103xe.o(.text)
    TAMPER_IRQHandler                        0x0800015f   Thumb Code     0  startup_stm32f103xe.o(.text)
    TIM1_BRK_IRQHandler                      0x0800015f   Thumb Code     0  startup_stm32f103xe.o(.text)
    TIM1_CC_IRQHandler                       0x0800015f   Thumb Code     0  startup_stm32f103xe.o(.text)
    TIM1_TRG_COM_IRQHandler                  0x0800015f   Thumb Code     0  startup_stm32f103xe.o(.text)
    TIM1_UP_IRQHandler                       0x0800015f   Thumb Code     0  startup_stm32f103xe.o(.text)
    TIM6_IRQHandler                          0x0800015f   Thumb Code     0  startup_stm32f103xe.o(.text)
    TIM7_IRQHandler                          0x0800015f   Thumb Code     0  startup_stm32f103xe.o(.text)
    TIM8_BRK_IRQHandler                      0x0800015f   Thumb Code     0  startup_stm32f103xe.o(.text)
    TIM8_CC_IRQHandler                       0x0800015f   Thumb Code     0  startup_stm32f103xe.o(.text)
    TIM8_TRG_COM_IRQHandler                  0x0800015f   Thumb Code     0  startup_stm32f103xe.o(.text)
    TIM8_UP_IRQHandler                       0x0800015f   Thumb Code     0  startup_stm32f103xe.o(.text)
    UART5_IRQHandler                         0x0800015f   Thumb Code     0  startup_stm32f103xe.o(.text)
    USART1_IRQHandler                        0x0800015f   Thumb Code     0  startup_stm32f103xe.o(.text)
    USART3_IRQHandler                        0x0800015f   Thumb Code     0  startup_stm32f103xe.o(.text)
    USBWakeUp_IRQHandler                     0x0800015f   Thumb Code     0  startup_stm32f103xe.o(.text)
    USB_HP_CAN1_TX_IRQHandler                0x0800015f   Thumb Code     0  startup_stm32f103xe.o(.text)
    USB_LP_CAN1_RX0_IRQHandler               0x0800015f   Thumb Code     0  startup_stm32f103xe.o(.text)
    WWDG_IRQHandler                          0x0800015f   Thumb Code     0  startup_stm32f103xe.o(.text)
    __aeabi_llsr                             0x08000169   Thumb Code    32  llushr.o(.text)
    _ll_ushift_r                             0x08000169   Thumb Code     0  llushr.o(.text)
    __aeabi_fadd                             0x08000189   Thumb Code   164  fadd.o(.text)
    __aeabi_fsub                             0x0800022d   Thumb Code     6  fadd.o(.text)
    __aeabi_frsub                            0x08000233   Thumb Code     6  fadd.o(.text)
    __aeabi_fmul                             0x08000239   Thumb Code   100  fmul.o(.text)
    __aeabi_fdiv                             0x0800029d   Thumb Code   124  fdiv.o(.text)
    __ARM_scalbnf                            0x08000319   Thumb Code    24  fscalb.o(.text)
    scalbnf                                  0x08000319   Thumb Code     0  fscalb.o(.text)
    __aeabi_dadd                             0x08000331   Thumb Code   322  dadd.o(.text)
    __aeabi_dsub                             0x08000473   Thumb Code     6  dadd.o(.text)
    __aeabi_drsub                            0x08000479   Thumb Code     6  dadd.o(.text)
    __aeabi_i2f                              0x0800047f   Thumb Code    18  fflti.o(.text)
    __aeabi_ui2f                             0x08000491   Thumb Code    10  ffltui.o(.text)
    __aeabi_f2uiz                            0x0800049b   Thumb Code    40  ffixui.o(.text)
    __aeabi_f2d                              0x080004c3   Thumb Code    38  f2d.o(.text)
    __aeabi_d2f                              0x080004e9   Thumb Code    56  d2f.o(.text)
    __aeabi_cfcmpeq                          0x08000521   Thumb Code     0  cfcmple.o(.text)
    __aeabi_cfcmple                          0x08000521   Thumb Code    20  cfcmple.o(.text)
    __aeabi_llsl                             0x08000535   Thumb Code    30  llshl.o(.text)
    _ll_shift_l                              0x08000535   Thumb Code     0  llshl.o(.text)
    __aeabi_lasr                             0x08000553   Thumb Code    36  llsshr.o(.text)
    _ll_sshift_r                             0x08000553   Thumb Code     0  llsshr.o(.text)
    __I$use$fp                               0x08000577   Thumb Code     0  iusefp.o(.text)
    _float_round                             0x08000577   Thumb Code    18  fepilogue.o(.text)
    _float_epilogue                          0x08000589   Thumb Code    92  fepilogue.o(.text)
    _double_round                            0x080005e5   Thumb Code    30  depilogue.o(.text)
    _double_epilogue                         0x08000603   Thumb Code   156  depilogue.o(.text)
    __scatterload                            0x080006a1   Thumb Code    28  init.o(.text)
    __scatterload_rt2                        0x080006a1   Thumb Code     0  init.o(.text)
    ADC_ConversionStop_Disable               0x080006c5   Thumb Code    74  stm32f1xx_hal_adc.o(i.ADC_ConversionStop_Disable)
    ADC_DMAConvCplt                          0x0800070f   Thumb Code    78  stm32f1xx_hal_adc.o(i.ADC_DMAConvCplt)
    ADC_DMAError                             0x0800075d   Thumb Code    26  stm32f1xx_hal_adc.o(i.ADC_DMAError)
    ADC_DMAHalfConvCplt                      0x08000777   Thumb Code    10  stm32f1xx_hal_adc.o(i.ADC_DMAHalfConvCplt)
    ADC_Enable                               0x08000781   Thumb Code   102  stm32f1xx_hal_adc.o(i.ADC_Enable)
    BusFault_Handler                         0x080007f1   Thumb Code     2  stm32f1xx_it.o(i.BusFault_Handler)
    BuzzerControl                            0x080007f5   Thumb Code   114  indicatordevice.o(i.BuzzerControl)
    Buzzer_GPIO_Init                         0x08000871   Thumb Code    62  indicatordevice.o(i.Buzzer_GPIO_Init)
    DMA1_Channel6_IRQHandler                 0x080008b9   Thumb Code     6  stm32f1xx_it.o(i.DMA1_Channel6_IRQHandler)
    DMA1_Channel7_IRQHandler                 0x080008c5   Thumb Code     6  stm32f1xx_it.o(i.DMA1_Channel7_IRQHandler)
    DMA2_Channel3_IRQHandler                 0x080008d1   Thumb Code     6  stm32f1xx_it.o(i.DMA2_Channel3_IRQHandler)
    DMA2_Channel4_5_IRQHandler               0x080008dd   Thumb Code     6  stm32f1xx_it.o(i.DMA2_Channel4_5_IRQHandler)
    DebugMon_Handler                         0x08000913   Thumb Code     2  stm32f1xx_it.o(i.DebugMon_Handler)
    Encoder_Struct_Init                      0x08000915   Thumb Code    48  encoder.o(i.Encoder_Struct_Init)
    Encoder_UpdataValue                      0x08000949   Thumb Code   114  encoder.o(i.Encoder_UpdataValue)
    GetdBatteryCapacity                      0x080009d1   Thumb Code   454  batteryinfor.o(i.GetdBatteryCapacity)
    HAL_ADC_ConfigChannel                    0x08000c55   Thumb Code   240  stm32f1xx_hal_adc.o(i.HAL_ADC_ConfigChannel)
    HAL_ADC_ConvCpltCallback                 0x08000d51   Thumb Code     2  stm32f1xx_hal_adc.o(i.HAL_ADC_ConvCpltCallback)
    HAL_ADC_ConvHalfCpltCallback             0x08000d53   Thumb Code     2  stm32f1xx_hal_adc.o(i.HAL_ADC_ConvHalfCpltCallback)
    HAL_ADC_ErrorCallback                    0x08000d55   Thumb Code     2  stm32f1xx_hal_adc.o(i.HAL_ADC_ErrorCallback)
    HAL_ADC_Init                             0x08000d59   Thumb Code   272  stm32f1xx_hal_adc.o(i.HAL_ADC_Init)
    HAL_ADC_MspInit                          0x08000e79   Thumb Code   128  stm32f1xx_hal_msp.o(i.HAL_ADC_MspInit)
    HAL_ADC_Start                            0x08000f0d   Thumb Code   184  stm32f1xx_hal_adc.o(i.HAL_ADC_Start)
    HAL_ADC_Start_DMA                        0x08000fcd   Thumb Code   246  stm32f1xx_hal_adc.o(i.HAL_ADC_Start_DMA)
    HAL_DMA_Abort                            0x080010d9   Thumb Code    48  stm32f1xx_hal_dma.o(i.HAL_DMA_Abort)
    HAL_DMA_Abort_IT                         0x08001109   Thumb Code   296  stm32f1xx_hal_dma.o(i.HAL_DMA_Abort_IT)
    HAL_DMA_IRQHandler                       0x08001239   Thumb Code   552  stm32f1xx_hal_dma.o(i.HAL_DMA_IRQHandler)
    HAL_DMA_Init                             0x08001481   Thumb Code   120  stm32f1xx_hal_dma.o(i.HAL_DMA_Init)
    HAL_DMA_Start_IT                         0x08001505   Thumb Code   112  stm32f1xx_hal_dma.o(i.HAL_DMA_Start_IT)
    HAL_Delay                                0x08001575   Thumb Code    32  stm32f1xx_hal.o(i.HAL_Delay)
    HAL_GPIO_Init                            0x08001599   Thumb Code   450  stm32f1xx_hal_gpio.o(i.HAL_GPIO_Init)
    HAL_GPIO_TogglePin                       0x08001785   Thumb Code     8  stm32f1xx_hal_gpio.o(i.HAL_GPIO_TogglePin)
    HAL_GPIO_WritePin                        0x0800178d   Thumb Code    10  stm32f1xx_hal_gpio.o(i.HAL_GPIO_WritePin)
    HAL_GetTick                              0x08001799   Thumb Code     6  stm32f1xx_hal.o(i.HAL_GetTick)
    HAL_I2C_AbortCpltCallback                0x080017a5   Thumb Code     2  stm32f1xx_hal_i2c.o(i.HAL_I2C_AbortCpltCallback)
    HAL_I2C_AddrCallback                     0x080017a7   Thumb Code     2  stm32f1xx_hal_i2c.o(i.HAL_I2C_AddrCallback)
    HAL_I2C_ER_IRQHandler                    0x080017a9   Thumb Code   202  stm32f1xx_hal_i2c.o(i.HAL_I2C_ER_IRQHandler)
    HAL_I2C_EV_IRQHandler                    0x08001879   Thumb Code   486  stm32f1xx_hal_i2c.o(i.HAL_I2C_EV_IRQHandler)
    HAL_I2C_ErrorCallback                    0x08001a69   Thumb Code     2  i2c.o(i.HAL_I2C_ErrorCallback)
    HAL_I2C_Init                             0x08001a6d   Thumb Code   302  stm32f1xx_hal_i2c.o(i.HAL_I2C_Init)
    HAL_I2C_ListenCpltCallback               0x08001bad   Thumb Code     2  stm32f1xx_hal_i2c.o(i.HAL_I2C_ListenCpltCallback)
    HAL_I2C_MasterRxCpltCallback             0x08001baf   Thumb Code     2  stm32f1xx_hal_i2c.o(i.HAL_I2C_MasterRxCpltCallback)
    HAL_I2C_MasterTxCpltCallback             0x08001bb1   Thumb Code     2  stm32f1xx_hal_i2c.o(i.HAL_I2C_MasterTxCpltCallback)
    HAL_I2C_MemRxCpltCallback                0x08001bb5   Thumb Code    16  i2c.o(i.HAL_I2C_MemRxCpltCallback)
    HAL_I2C_MemTxCpltCallback                0x08001bcd   Thumb Code    16  i2c.o(i.HAL_I2C_MemTxCpltCallback)
    HAL_I2C_MspInit                          0x08001be5   Thumb Code   122  stm32f1xx_hal_msp.o(i.HAL_I2C_MspInit)
    HAL_I2C_SlaveRxCpltCallback              0x08001c71   Thumb Code     2  stm32f1xx_hal_i2c.o(i.HAL_I2C_SlaveRxCpltCallback)
    HAL_I2C_SlaveTxCpltCallback              0x08001c73   Thumb Code     2  stm32f1xx_hal_i2c.o(i.HAL_I2C_SlaveTxCpltCallback)
    HAL_IncTick                              0x08001c75   Thumb Code    12  stm32f1xx_hal.o(i.HAL_IncTick)
    HAL_Init                                 0x08001c85   Thumb Code    32  stm32f1xx_hal.o(i.HAL_Init)
    HAL_InitTick                             0x08001ca9   Thumb Code    54  stm32f1xx_hal.o(i.HAL_InitTick)
    HAL_MspInit                              0x08001ce9   Thumb Code   118  stm32f1xx_hal_msp.o(i.HAL_MspInit)
    HAL_NVIC_EnableIRQ                       0x08001d69   Thumb Code    22  stm32f1xx_hal_cortex.o(i.HAL_NVIC_EnableIRQ)
    HAL_NVIC_SetPriority                     0x08001d81   Thumb Code    60  stm32f1xx_hal_cortex.o(i.HAL_NVIC_SetPriority)
    HAL_NVIC_SetPriorityGrouping             0x08001dc1   Thumb Code    26  stm32f1xx_hal_cortex.o(i.HAL_NVIC_SetPriorityGrouping)
    HAL_RCCEx_PeriphCLKConfig                0x08001de5   Thumb Code   220  stm32f1xx_hal_rcc_ex.o(i.HAL_RCCEx_PeriphCLKConfig)
    HAL_RCC_ClockConfig                      0x08001ecd   Thumb Code   316  stm32f1xx_hal_rcc.o(i.HAL_RCC_ClockConfig)
    HAL_RCC_GetHCLKFreq                      0x08002019   Thumb Code     6  stm32f1xx_hal_rcc.o(i.HAL_RCC_GetHCLKFreq)
    HAL_RCC_GetPCLK1Freq                     0x08002025   Thumb Code    20  stm32f1xx_hal_rcc.o(i.HAL_RCC_GetPCLK1Freq)
    HAL_RCC_GetPCLK2Freq                     0x08002045   Thumb Code    20  stm32f1xx_hal_rcc.o(i.HAL_RCC_GetPCLK2Freq)
    HAL_RCC_GetSysClockFreq                  0x08002065   Thumb Code    74  stm32f1xx_hal_rcc.o(i.HAL_RCC_GetSysClockFreq)
    HAL_RCC_OscConfig                        0x080020d1   Thumb Code   740  stm32f1xx_hal_rcc.o(i.HAL_RCC_OscConfig)
    HAL_SYSTICK_CLKSourceConfig              0x080023c9   Thumb Code    24  stm32f1xx_hal_cortex.o(i.HAL_SYSTICK_CLKSourceConfig)
    HAL_SYSTICK_Callback                     0x080023e1   Thumb Code    52  loop.o(i.HAL_SYSTICK_Callback)
    HAL_SYSTICK_Config                       0x08002425   Thumb Code    40  stm32f1xx_hal_cortex.o(i.HAL_SYSTICK_Config)
    HAL_SYSTICK_IRQHandler                   0x0800244d   Thumb Code     8  stm32f1xx_hal_cortex.o(i.HAL_SYSTICK_IRQHandler)
    HAL_TIMEx_BreakCallback                  0x08002455   Thumb Code     2  stm32f1xx_hal_tim_ex.o(i.HAL_TIMEx_BreakCallback)
    HAL_TIMEx_CommutationCallback            0x08002457   Thumb Code     2  stm32f1xx_hal_tim_ex.o(i.HAL_TIMEx_CommutationCallback)
    HAL_TIMEx_ConfigBreakDeadTime            0x08002459   Thumb Code    90  stm32f1xx_hal_tim_ex.o(i.HAL_TIMEx_ConfigBreakDeadTime)
    HAL_TIMEx_MasterConfigSynchronization    0x080024b3   Thumb Code    80  stm32f1xx_hal_tim_ex.o(i.HAL_TIMEx_MasterConfigSynchronization)
    HAL_TIM_Encoder_Init                     0x08002503   Thumb Code   150  stm32f1xx_hal_tim.o(i.HAL_TIM_Encoder_Init)
    HAL_TIM_Encoder_MspInit                  0x08002599   Thumb Code   376  stm32f1xx_hal_msp.o(i.HAL_TIM_Encoder_MspInit)
    HAL_TIM_Encoder_Start                    0x0800272d   Thumb Code    50  stm32f1xx_hal_tim.o(i.HAL_TIM_Encoder_Start)
    HAL_TIM_IC_CaptureCallback               0x0800275f   Thumb Code     2  stm32f1xx_hal_tim.o(i.HAL_TIM_IC_CaptureCallback)
    HAL_TIM_IRQHandler                       0x08002761   Thumb Code   358  stm32f1xx_hal_tim.o(i.HAL_TIM_IRQHandler)
    HAL_TIM_OC_DelayElapsedCallback          0x080028c7   Thumb Code     2  stm32f1xx_hal_tim.o(i.HAL_TIM_OC_DelayElapsedCallback)
    HAL_TIM_PWM_ConfigChannel                0x080028c9   Thumb Code   208  stm32f1xx_hal_tim.o(i.HAL_TIM_PWM_ConfigChannel)
    HAL_TIM_PWM_Init                         0x08002999   Thumb Code    54  stm32f1xx_hal_tim.o(i.HAL_TIM_PWM_Init)
    HAL_TIM_PWM_MspInit                      0x080029d1   Thumb Code    70  stm32f1xx_hal_msp.o(i.HAL_TIM_PWM_MspInit)
    HAL_TIM_PWM_PulseFinishedCallback        0x08002a25   Thumb Code     2  stm32f1xx_hal_tim.o(i.HAL_TIM_PWM_PulseFinishedCallback)
    HAL_TIM_PWM_Start                        0x08002a29   Thumb Code    48  stm32f1xx_hal_tim.o(i.HAL_TIM_PWM_Start)
    HAL_TIM_PeriodElapsedCallback            0x08002a61   Thumb Code   124  encoder.o(i.HAL_TIM_PeriodElapsedCallback)
    HAL_TIM_TriggerCallback                  0x08002af1   Thumb Code     2  stm32f1xx_hal_tim.o(i.HAL_TIM_TriggerCallback)
    HAL_UART_DMAStop                         0x08002af3   Thumb Code    88  stm32f1xx_hal_uart.o(i.HAL_UART_DMAStop)
    HAL_UART_ErrorCallback                   0x08002b4b   Thumb Code    76  uart.o(i.HAL_UART_ErrorCallback)
    HAL_UART_IRQHandler                      0x08002b99   Thumb Code   266  stm32f1xx_hal_uart.o(i.HAL_UART_IRQHandler)
    HAL_UART_Init                            0x08002ca9   Thumb Code    98  stm32f1xx_hal_uart.o(i.HAL_UART_Init)
    HAL_UART_MspInit                         0x08002d0d   Thumb Code   444  stm32f1xx_hal_msp.o(i.HAL_UART_MspInit)
    HAL_UART_Receive_DMA                     0x08002ef9   Thumb Code   138  stm32f1xx_hal_uart.o(i.HAL_UART_Receive_DMA)
    HAL_UART_RxCpltCallback                  0x08002f91   Thumb Code     2  uart.o(i.HAL_UART_RxCpltCallback)
    HAL_UART_RxHalfCpltCallback              0x08002f93   Thumb Code     2  stm32f1xx_hal_uart.o(i.HAL_UART_RxHalfCpltCallback)
    HAL_UART_TxCpltCallback                  0x08002f95   Thumb Code     2  uart.o(i.HAL_UART_TxCpltCallback)
    HardFault_Handler                        0x08002f97   Thumb Code     2  stm32f1xx_it.o(i.HardFault_Handler)
    I2C1_ER_IRQHandler                       0x08002f99   Thumb Code     6  stm32f1xx_it.o(i.I2C1_ER_IRQHandler)
    I2C1_EV_IRQHandler                       0x08002fa5   Thumb Code     6  stm32f1xx_it.o(i.I2C1_EV_IRQHandler)
    IncPID_Init                              0x080036f5   Thumb Code    16  pid.o(i.IncPID_Init)
    Incremental_PID                          0x08003705   Thumb Code    86  pid.o(i.Incremental_PID)
    IndicatorDeviceControl                   0x0800375d   Thumb Code   156  indicatordevice.o(i.IndicatorDeviceControl)
    Kinematics_Mecanum_CalculateRPM          0x08003805   Thumb Code   136  kinematics_mecanum.o(i.Kinematics_Mecanum_CalculateRPM)
    Kinematics_Mecanum_GetVelocities         0x08003899   Thumb Code   144  kinematics_mecanum.o(i.Kinematics_Mecanum_GetVelocities)
    LED_Green_Control                        0x08003935   Thumb Code   114  indicatordevice.o(i.LED_Green_Control)
    LED_Green_GPIO_Init                      0x080039b1   Thumb Code    60  indicatordevice.o(i.LED_Green_GPIO_Init)
    LED_Red_Control                          0x080039f5   Thumb Code   114  indicatordevice.o(i.LED_Red_Control)
    LED_Red_GPIO_Init                        0x08003a71   Thumb Code    60  indicatordevice.o(i.LED_Red_GPIO_Init)
    LPF_Struct_Init                          0x08003ab5   Thumb Code    10  lowpassfilter.o(i.LPF_Struct_Init)
    LowPassFilter                            0x08003abf   Thumb Code    42  lowpassfilter.o(i.LowPassFilter)
    MX_ADC1_Init                             0x08003ae9   Thumb Code    86  adc1.o(i.MX_ADC1_Init)
    MX_I2C1_Init                             0x08003b4d   Thumb Code    56  i2c.o(i.MX_I2C1_Init)
    MX_TIM2_Init                             0x08003b95   Thumb Code   108  tim2.o(i.MX_TIM2_Init)
    MX_TIM3_Init                             0x08003c09   Thumb Code    88  tim3.o(i.MX_TIM3_Init)
    MX_TIM4_Init                             0x08003c69   Thumb Code    88  tim4.o(i.MX_TIM4_Init)
    MX_TIM5_Init                             0x08003cc9   Thumb Code    88  tim5.o(i.MX_TIM5_Init)
    MX_TIM8_Init                             0x08003d29   Thumb Code   168  tim8.o(i.MX_TIM8_Init)
    MX_UART4_Init                            0x08003dd9   Thumb Code    66  uart.o(i.MX_UART4_Init)
    MX_USART2_Init                           0x08003e29   Thumb Code    60  uart.o(i.MX_USART2_Init)
    MemManage_Handler                        0x08003e6d   Thumb Code     2  stm32f1xx_it.o(i.MemManage_Handler)
    Motor1_Forward                           0x08003e71   Thumb Code    10  motorcontrol.o(i.Motor1_Forward)
    Motor1_GPIO_Init                         0x08003e81   Thumb Code    58  motorcontrol.o(i.Motor1_GPIO_Init)
    Motor1_Reverse                           0x08003ec5   Thumb Code    10  motorcontrol.o(i.Motor1_Reverse)
    Motor2_Forward                           0x08003ed5   Thumb Code    12  motorcontrol.o(i.Motor2_Forward)
    Motor2_GPIO_Init                         0x08003ee5   Thumb Code    58  motorcontrol.o(i.Motor2_GPIO_Init)
    Motor2_Reverse                           0x08003f29   Thumb Code    10  motorcontrol.o(i.Motor2_Reverse)
    Motor3_Forward                           0x08003f39   Thumb Code    10  motorcontrol.o(i.Motor3_Forward)
    Motor3_GPIO_Init                         0x08003f49   Thumb Code    58  motorcontrol.o(i.Motor3_GPIO_Init)
    Motor3_Reverse                           0x08003f8d   Thumb Code    12  motorcontrol.o(i.Motor3_Reverse)
    Motor4_Forward                           0x08003f9d   Thumb Code    12  motorcontrol.o(i.Motor4_Forward)
    Motor4_GPIO_Init                         0x08003fad   Thumb Code    58  motorcontrol.o(i.Motor4_GPIO_Init)
    Motor4_Reverse                           0x08003ff1   Thumb Code    10  motorcontrol.o(i.Motor4_Reverse)
    NMI_Handler                              0x08004001   Thumb Code     2  stm32f1xx_it.o(i.NMI_Handler)
    PendSV_Handler                           0x08004023   Thumb Code     2  stm32f1xx_it.o(i.PendSV_Handler)
    RC_Update                                0x08004025   Thumb Code   202  rc.o(i.RC_Update)
    RC_UpdateStruct                          0x080040f5   Thumb Code   404  rc.o(i.RC_UpdateStruct)
    SVC_Handler                              0x08004299   Thumb Code     2  stm32f1xx_it.o(i.SVC_Handler)
    SysTick_Handler                          0x0800429b   Thumb Code    14  stm32f1xx_it.o(i.SysTick_Handler)
    SystemClock_Config                       0x080042a9   Thumb Code   122  main.o(i.SystemClock_Config)
    SystemInit                               0x08004325   Thumb Code    56  system_stm32f1xx.o(i.SystemInit)
    TIM2_IRQHandler                          0x0800436d   Thumb Code     6  stm32f1xx_it.o(i.TIM2_IRQHandler)
    TIM3_IRQHandler                          0x08004379   Thumb Code     6  stm32f1xx_it.o(i.TIM3_IRQHandler)
    TIM4_IRQHandler                          0x08004385   Thumb Code     6  stm32f1xx_it.o(i.TIM4_IRQHandler)
    TIM5_IRQHandler                          0x08004391   Thumb Code     6  stm32f1xx_it.o(i.TIM5_IRQHandler)
    TIM_Base_SetConfig                       0x0800439d   Thumb Code   120  stm32f1xx_hal_tim.o(i.TIM_Base_SetConfig)
    TIM_CCxChannelCmd                        0x08004429   Thumb Code    22  stm32f1xx_hal_tim.o(i.TIM_CCxChannelCmd)
    TIM_OC2_SetConfig                        0x080044a1   Thumb Code    98  stm32f1xx_hal_tim.o(i.TIM_OC2_SetConfig)
    UART4_IRQHandler                         0x080045c5   Thumb Code    28  stm32f1xx_it.o(i.UART4_IRQHandler)
    USART2_IRQHandler                        0x0800491d   Thumb Code    28  stm32f1xx_it.o(i.USART2_IRQHandler)
    UpdateBatteryInfor                       0x0800493d   Thumb Code    70  batteryinfor.o(i.UpdateBatteryInfor)
    UsageFault_Handler                       0x08004991   Thumb Code     2  stm32f1xx_it.o(i.UsageFault_Handler)
    UsartReceive_IDLE                        0x08004995   Thumb Code   108  uart.o(i.UsartReceive_IDLE)
    VelocityControl_4WD                      0x08004a11   Thumb Code   780  velocitycontrol.o(i.VelocityControl_4WD)
    __scatterload_copy                       0x08004d65   Thumb Code    14  handlers.o(i.__scatterload_copy)
    __scatterload_null                       0x08004d73   Thumb Code     2  handlers.o(i.__scatterload_null)
    __scatterload_zeroinit                   0x08004d75   Thumb Code    14  handlers.o(i.__scatterload_zeroinit)
    main                                     0x08004d85   Thumb Code   418  main.o(i.main)
    AHBPrescTable                            0x08004f8c   Data          16  system_stm32f1xx.o(.constdata)
    APBPrescTable                            0x08004f9c   Data           8  system_stm32f1xx.o(.constdata)
    Region$$Table$$Base                      0x08004fa4   Number         0  anon$$obj.o(Region$$Table)
    Region$$Table$$Limit                     0x08004fc4   Number         0  anon$$obj.o(Region$$Table)
    Loop_5msTime                             0x20000000   Data           2  main.o(.data)
    Loop_10msTime                            0x20000002   Data           2  main.o(.data)
    Loop_500msTime                           0x20000004   Data           2  main.o(.data)
    HeartbeatTime                            0x20000006   Data           2  main.o(.data)
    ADC1_DMA_Buff                            0x20000008   Data           8  adc1.o(.data)
    I2C1_Tx_Flag                             0x20000010   Data           1  i2c.o(.data)
    I2C1_Rx_Flag                             0x20000011   Data           1  i2c.o(.data)
    Buzzer_LockedStatus                      0x20000012   Data           1  indicatordevice.o(.data)
    LED_Green_LockedStatus                   0x20000013   Data           1  indicatordevice.o(.data)
    LED_Red_LockedStatus                     0x20000014   Data           1  indicatordevice.o(.data)
    Buzzer_Times                             0x20000016   Data           2  indicatordevice.o(.data)
    Buzzer_PeriodTime                        0x20000018   Data           2  indicatordevice.o(.data)
    LED_Green_Times                          0x2000001a   Data           2  indicatordevice.o(.data)
    LED_Green_PeriodTime                     0x2000001c   Data           2  indicatordevice.o(.data)
    LED_Red_Times                            0x2000001e   Data           2  indicatordevice.o(.data)
    LED_Red_PeriodTime                       0x20000020   Data           2  indicatordevice.o(.data)
    Buzzer_PeriodTimeBuffer                  0x2000002e   Data           2  indicatordevice.o(.data)
    LED_Green_PeriodTimeBuffer               0x20000030   Data           2  indicatordevice.o(.data)
    LED_Red_PeriodTimeBuffer                 0x20000032   Data           2  indicatordevice.o(.data)
    TIM1_OverflowCount                       0x20000034   Data           2  encoder.o(.data)
    TIM2_OverflowCount                       0x20000036   Data           2  encoder.o(.data)
    TIM3_OverflowCount                       0x20000038   Data           2  encoder.o(.data)
    TIM4_OverflowCount                       0x2000003a   Data           2  encoder.o(.data)
    TIM5_OverflowCount                       0x2000003c   Data           2  encoder.o(.data)
    uwTickFreq                               0x20000054   Data           1  stm32f1xx_hal.o(.data)
    uwTickPrio                               0x20000058   Data           4  stm32f1xx_hal.o(.data)
    uwTick                                   0x2000005c   Data           4  stm32f1xx_hal.o(.data)
    SystemCoreClock                          0x20000060   Data           4  system_stm32f1xx.o(.data)
    LPF_Linear_X                             0x20000074   Data          12  shareware.o(.bss)
    LPF_Linear_Y                             0x20000080   Data          12  shareware.o(.bss)
    LPF_Angular_Z                            0x2000008c   Data          12  shareware.o(.bss)
    Battery                                  0x20000098   Data          12  shareware.o(.bss)
    LPF_SupplyVoltage                        0x200000a4   Data          12  shareware.o(.bss)
    RC                                       0x200000b0   Data          40  shareware.o(.bss)
    PID_M1                                   0x200000d8   Data          24  shareware.o(.bss)
    PID_M2                                   0x200000f0   Data          24  shareware.o(.bss)
    PID_M3                                   0x20000108   Data          24  shareware.o(.bss)
    PID_M4                                   0x20000120   Data          24  shareware.o(.bss)
    Encoder_M1                               0x20000138   Data          12  shareware.o(.bss)
    Encoder_M2                               0x20000144   Data          12  shareware.o(.bss)
    Encoder_M3                               0x20000150   Data          12  shareware.o(.bss)
    Encoder_M4                               0x2000015c   Data          12  shareware.o(.bss)
    VelControl                               0x20000168   Data          32  shareware.o(.bss)
    Kinematics_Inverse                       0x20000188   Data          28  shareware.o(.bss)
    Kinematics_Forward                       0x200001a4   Data          28  shareware.o(.bss)
    htim8                                    0x200001c0   Data          64  tim8.o(.bss)
    huart2                                   0x20000200   Data          64  uart.o(.bss)
    Usart2_TX_Buf                            0x20000240   Data         100  uart.o(.bss)
    Usart2_RX_Buf                            0x200002a4   Data          60  uart.o(.bss)
    hdma_usart2_rx                           0x200002e0   Data          68  uart.o(.bss)
    huart4                                   0x20000324   Data          64  uart.o(.bss)
    Uart4_RX_Buf                             0x20000364   Data          30  uart.o(.bss)
    hdma_uart4_rx                            0x20000384   Data          68  uart.o(.bss)
    hdma_usart2_tx                           0x200003c8   Data          68  uart.o(.bss)
    hdma_uart4_tx                            0x2000040c   Data          68  uart.o(.bss)
    htim4                                    0x20000450   Data          64  tim4.o(.bss)
    htim2                                    0x20000490   Data          64  tim2.o(.bss)
    htim3                                    0x200004d0   Data          64  tim3.o(.bss)
    htim5                                    0x20000510   Data          64  tim5.o(.bss)
    hadc1                                    0x20000550   Data          48  adc1.o(.bss)
    hdma1                                    0x20000580   Data          68  adc1.o(.bss)
    hi2c1                                    0x200005c4   Data          84  i2c.o(.bss)
    __initial_sp                             0x20000a18   Data           0  startup_stm32f103xe.o(STACK)



==============================================================================

Memory Map of the image

  Image Entry point : 0x08000131

  Load Region LR_IROM1 (Base: 0x08000000, Size: 0x00005038, Max: 0x00040000, ABSOLUTE)

    Execution Region ER_IROM1 (Exec base: 0x08000000, Load base: 0x08000000, Size: 0x00004fc4, Max: 0x00040000, ABSOLUTE)

    Exec Addr    Load Addr    Size         Type   Attr      Idx    E Section Name        Object

    0x08000000   0x08000000   0x00000130   Data   RO            3    RESET               startup_stm32f103xe.o
    0x08000130   0x08000130   0x00000000   Code   RO         5322  * .ARM.Collect$$$$00000000  mc_w.l(entry.o)
    0x08000130   0x08000130   0x00000004   Code   RO         5379    .ARM.Collect$$$$00000001  mc_w.l(entry2.o)
    0x08000134   0x08000134   0x00000004   Code   RO         5382    .ARM.Collect$$$$00000004  mc_w.l(entry5.o)
    0x08000138   0x08000138   0x00000000   Code   RO         5384    .ARM.Collect$$$$00000008  mc_w.l(entry7b.o)
    0x08000138   0x08000138   0x00000000   Code   RO         5386    .ARM.Collect$$$$0000000A  mc_w.l(entry8b.o)
    0x08000138   0x08000138   0x00000008   Code   RO         5387    .ARM.Collect$$$$0000000B  mc_w.l(entry9a.o)
    0x08000140   0x08000140   0x00000000   Code   RO         5389    .ARM.Collect$$$$0000000D  mc_w.l(entry10a.o)
    0x08000140   0x08000140   0x00000000   Code   RO         5391    .ARM.Collect$$$$0000000F  mc_w.l(entry11a.o)
    0x08000140   0x08000140   0x00000004   Code   RO         5380    .ARM.Collect$$$$00002712  mc_w.l(entry2.o)
    0x08000144   0x08000144   0x00000024   Code   RO            4    .text               startup_stm32f103xe.o
    0x08000168   0x08000168   0x00000020   Code   RO         5325    .text               mc_w.l(llushr.o)
    0x08000188   0x08000188   0x000000b0   Code   RO         5355    .text               mf_w.l(fadd.o)
    0x08000238   0x08000238   0x00000064   Code   RO         5357    .text               mf_w.l(fmul.o)
    0x0800029c   0x0800029c   0x0000007c   Code   RO         5359    .text               mf_w.l(fdiv.o)
    0x08000318   0x08000318   0x00000018   Code   RO         5361    .text               mf_w.l(fscalb.o)
    0x08000330   0x08000330   0x0000014e   Code   RO         5363    .text               mf_w.l(dadd.o)
    0x0800047e   0x0800047e   0x00000012   Code   RO         5365    .text               mf_w.l(fflti.o)
    0x08000490   0x08000490   0x0000000a   Code   RO         5367    .text               mf_w.l(ffltui.o)
    0x0800049a   0x0800049a   0x00000028   Code   RO         5369    .text               mf_w.l(ffixui.o)
    0x080004c2   0x080004c2   0x00000026   Code   RO         5371    .text               mf_w.l(f2d.o)
    0x080004e8   0x080004e8   0x00000038   Code   RO         5373    .text               mf_w.l(d2f.o)
    0x08000520   0x08000520   0x00000014   Code   RO         5375    .text               mf_w.l(cfcmple.o)
    0x08000534   0x08000534   0x0000001e   Code   RO         5400    .text               mc_w.l(llshl.o)
    0x08000552   0x08000552   0x00000024   Code   RO         5402    .text               mc_w.l(llsshr.o)
    0x08000576   0x08000576   0x00000000   Code   RO         5404    .text               mc_w.l(iusefp.o)
    0x08000576   0x08000576   0x0000006e   Code   RO         5405    .text               mf_w.l(fepilogue.o)
    0x080005e4   0x080005e4   0x000000ba   Code   RO         5407    .text               mf_w.l(depilogue.o)
    0x0800069e   0x0800069e   0x00000002   PAD
    0x080006a0   0x080006a0   0x00000024   Code   RO         5417    .text               mc_w.l(init.o)
    0x080006c4   0x080006c4   0x0000004a   Code   RO         2409    i.ADC_ConversionStop_Disable  stm32f1xx_hal_adc.o
    0x0800070e   0x0800070e   0x0000004e   Code   RO         2410    i.ADC_DMAConvCplt   stm32f1xx_hal_adc.o
    0x0800075c   0x0800075c   0x0000001a   Code   RO         2411    i.ADC_DMAError      stm32f1xx_hal_adc.o
    0x08000776   0x08000776   0x0000000a   Code   RO         2412    i.ADC_DMAHalfConvCplt  stm32f1xx_hal_adc.o
    0x08000780   0x08000780   0x00000070   Code   RO         2413    i.ADC_Enable        stm32f1xx_hal_adc.o
    0x080007f0   0x080007f0   0x00000002   Code   RO          331    i.BusFault_Handler  stm32f1xx_it.o
    0x080007f2   0x080007f2   0x00000002   PAD
    0x080007f4   0x080007f4   0x0000007c   Code   RO          877    i.BuzzerControl     indicatordevice.o
    0x08000870   0x08000870   0x00000048   Code   RO          878    i.Buzzer_GPIO_Init  indicatordevice.o
    0x080008b8   0x080008b8   0x0000000c   Code   RO          332    i.DMA1_Channel6_IRQHandler  stm32f1xx_it.o
    0x080008c4   0x080008c4   0x0000000c   Code   RO          333    i.DMA1_Channel7_IRQHandler  stm32f1xx_it.o
    0x080008d0   0x080008d0   0x0000000c   Code   RO          334    i.DMA2_Channel3_IRQHandler  stm32f1xx_it.o
    0x080008dc   0x080008dc   0x0000000c   Code   RO          335    i.DMA2_Channel4_5_IRQHandler  stm32f1xx_it.o
    0x080008e8   0x080008e8   0x0000002a   Code   RO         1200    i.DMA_SetConfig     stm32f1xx_hal_dma.o
    0x08000912   0x08000912   0x00000002   Code   RO          336    i.DebugMon_Handler  stm32f1xx_it.o
    0x08000914   0x08000914   0x00000034   Code   RO          940    i.Encoder_Struct_Init  encoder.o
    0x08000948   0x08000948   0x00000088   Code   RO          941    i.Encoder_UpdataValue  encoder.o
    0x080009d0   0x080009d0   0x00000284   Code   RO          982    i.GetdBatteryCapacity  batteryinfor.o
    0x08000c54   0x08000c54   0x000000fc   Code   RO         2415    i.HAL_ADC_ConfigChannel  stm32f1xx_hal_adc.o
    0x08000d50   0x08000d50   0x00000002   Code   RO         2416    i.HAL_ADC_ConvCpltCallback  stm32f1xx_hal_adc.o
    0x08000d52   0x08000d52   0x00000002   Code   RO         2417    i.HAL_ADC_ConvHalfCpltCallback  stm32f1xx_hal_adc.o
    0x08000d54   0x08000d54   0x00000002   Code   RO         2419    i.HAL_ADC_ErrorCallback  stm32f1xx_hal_adc.o
    0x08000d56   0x08000d56   0x00000002   PAD
    0x08000d58   0x08000d58   0x00000120   Code   RO         2424    i.HAL_ADC_Init      stm32f1xx_hal_adc.o
    0x08000e78   0x08000e78   0x00000094   Code   RO          248    i.HAL_ADC_MspInit   stm32f1xx_hal_msp.o
    0x08000f0c   0x08000f0c   0x000000c0   Code   RO         2430    i.HAL_ADC_Start     stm32f1xx_hal_adc.o
    0x08000fcc   0x08000fcc   0x0000010c   Code   RO         2431    i.HAL_ADC_Start_DMA  stm32f1xx_hal_adc.o
    0x080010d8   0x080010d8   0x00000030   Code   RO         1201    i.HAL_DMA_Abort     stm32f1xx_hal_dma.o
    0x08001108   0x08001108   0x00000130   Code   RO         1202    i.HAL_DMA_Abort_IT  stm32f1xx_hal_dma.o
    0x08001238   0x08001238   0x00000248   Code   RO         1206    i.HAL_DMA_IRQHandler  stm32f1xx_hal_dma.o
    0x08001480   0x08001480   0x00000084   Code   RO         1207    i.HAL_DMA_Init      stm32f1xx_hal_dma.o
    0x08001504   0x08001504   0x00000070   Code   RO         1211    i.HAL_DMA_Start_IT  stm32f1xx_hal_dma.o
    0x08001574   0x08001574   0x00000024   Code   RO         3233    i.HAL_Delay         stm32f1xx_hal.o
    0x08001598   0x08001598   0x000001ec   Code   RO         3038    i.HAL_GPIO_Init     stm32f1xx_hal_gpio.o
    0x08001784   0x08001784   0x00000008   Code   RO         3041    i.HAL_GPIO_TogglePin  stm32f1xx_hal_gpio.o
    0x0800178c   0x0800178c   0x0000000a   Code   RO         3042    i.HAL_GPIO_WritePin  stm32f1xx_hal_gpio.o
    0x08001796   0x08001796   0x00000002   PAD
    0x08001798   0x08001798   0x0000000c   Code   RO         3237    i.HAL_GetTick       stm32f1xx_hal.o
    0x080017a4   0x080017a4   0x00000002   Code   RO         3590    i.HAL_I2C_AbortCpltCallback  stm32f1xx_hal_i2c.o
    0x080017a6   0x080017a6   0x00000002   Code   RO         3591    i.HAL_I2C_AddrCallback  stm32f1xx_hal_i2c.o
    0x080017a8   0x080017a8   0x000000d0   Code   RO         3594    i.HAL_I2C_ER_IRQHandler  stm32f1xx_hal_i2c.o
    0x08001878   0x08001878   0x000001f0   Code   RO         3595    i.HAL_I2C_EV_IRQHandler  stm32f1xx_hal_i2c.o
    0x08001a68   0x08001a68   0x00000002   Code   RO          826    i.HAL_I2C_ErrorCallback  i2c.o
    0x08001a6a   0x08001a6a   0x00000002   PAD
    0x08001a6c   0x08001a6c   0x00000140   Code   RO         3601    i.HAL_I2C_Init      stm32f1xx_hal_i2c.o
    0x08001bac   0x08001bac   0x00000002   Code   RO         3603    i.HAL_I2C_ListenCpltCallback  stm32f1xx_hal_i2c.o
    0x08001bae   0x08001bae   0x00000002   Code   RO         3604    i.HAL_I2C_MasterRxCpltCallback  stm32f1xx_hal_i2c.o
    0x08001bb0   0x08001bb0   0x00000002   Code   RO         3605    i.HAL_I2C_MasterTxCpltCallback  stm32f1xx_hal_i2c.o
    0x08001bb2   0x08001bb2   0x00000002   PAD
    0x08001bb4   0x08001bb4   0x00000018   Code   RO          827    i.HAL_I2C_MemRxCpltCallback  i2c.o
    0x08001bcc   0x08001bcc   0x00000018   Code   RO          828    i.HAL_I2C_MemTxCpltCallback  i2c.o
    0x08001be4   0x08001be4   0x0000008c   Code   RO          250    i.HAL_I2C_MspInit   stm32f1xx_hal_msp.o
    0x08001c70   0x08001c70   0x00000002   Code   RO         3625    i.HAL_I2C_SlaveRxCpltCallback  stm32f1xx_hal_i2c.o
    0x08001c72   0x08001c72   0x00000002   Code   RO         3626    i.HAL_I2C_SlaveTxCpltCallback  stm32f1xx_hal_i2c.o
    0x08001c74   0x08001c74   0x00000010   Code   RO         3241    i.HAL_IncTick       stm32f1xx_hal.o
    0x08001c84   0x08001c84   0x00000024   Code   RO         3242    i.HAL_Init          stm32f1xx_hal.o
    0x08001ca8   0x08001ca8   0x00000040   Code   RO         3243    i.HAL_InitTick      stm32f1xx_hal.o
    0x08001ce8   0x08001ce8   0x00000080   Code   RO          251    i.HAL_MspInit       stm32f1xx_hal_msp.o
    0x08001d68   0x08001d68   0x00000016   Code   RO         2824    i.HAL_NVIC_EnableIRQ  stm32f1xx_hal_cortex.o
    0x08001d7e   0x08001d7e   0x00000002   PAD
    0x08001d80   0x08001d80   0x00000040   Code   RO         2830    i.HAL_NVIC_SetPriority  stm32f1xx_hal_cortex.o
    0x08001dc0   0x08001dc0   0x00000024   Code   RO         2831    i.HAL_NVIC_SetPriorityGrouping  stm32f1xx_hal_cortex.o
    0x08001de4   0x08001de4   0x000000e8   Code   RO         2375    i.HAL_RCCEx_PeriphCLKConfig  stm32f1xx_hal_rcc_ex.o
    0x08001ecc   0x08001ecc   0x0000014c   Code   RO         3489    i.HAL_RCC_ClockConfig  stm32f1xx_hal_rcc.o
    0x08002018   0x08002018   0x0000000c   Code   RO         3494    i.HAL_RCC_GetHCLKFreq  stm32f1xx_hal_rcc.o
    0x08002024   0x08002024   0x00000020   Code   RO         3496    i.HAL_RCC_GetPCLK1Freq  stm32f1xx_hal_rcc.o
    0x08002044   0x08002044   0x00000020   Code   RO         3497    i.HAL_RCC_GetPCLK2Freq  stm32f1xx_hal_rcc.o
    0x08002064   0x08002064   0x0000006c   Code   RO         3498    i.HAL_RCC_GetSysClockFreq  stm32f1xx_hal_rcc.o
    0x080020d0   0x080020d0   0x000002f8   Code   RO         3501    i.HAL_RCC_OscConfig  stm32f1xx_hal_rcc.o
    0x080023c8   0x080023c8   0x00000018   Code   RO         2833    i.HAL_SYSTICK_CLKSourceConfig  stm32f1xx_hal_cortex.o
    0x080023e0   0x080023e0   0x00000044   Code   RO          570    i.HAL_SYSTICK_Callback  loop.o
    0x08002424   0x08002424   0x00000028   Code   RO         2835    i.HAL_SYSTICK_Config  stm32f1xx_hal_cortex.o
    0x0800244c   0x0800244c   0x00000008   Code   RO         2836    i.HAL_SYSTICK_IRQHandler  stm32f1xx_hal_cortex.o
    0x08002454   0x08002454   0x00000002   Code   RO         2589    i.HAL_TIMEx_BreakCallback  stm32f1xx_hal_tim_ex.o
    0x08002456   0x08002456   0x00000002   Code   RO         2590    i.HAL_TIMEx_CommutationCallback  stm32f1xx_hal_tim_ex.o
    0x08002458   0x08002458   0x0000005a   Code   RO         2591    i.HAL_TIMEx_ConfigBreakDeadTime  stm32f1xx_hal_tim_ex.o
    0x080024b2   0x080024b2   0x00000050   Code   RO         2606    i.HAL_TIMEx_MasterConfigSynchronization  stm32f1xx_hal_tim_ex.o
    0x08002502   0x08002502   0x00000096   Code   RO         1315    i.HAL_TIM_Encoder_Init  stm32f1xx_hal_tim.o
    0x08002598   0x08002598   0x00000194   Code   RO          253    i.HAL_TIM_Encoder_MspInit  stm32f1xx_hal_msp.o
    0x0800272c   0x0800272c   0x00000032   Code   RO         1318    i.HAL_TIM_Encoder_Start  stm32f1xx_hal_tim.o
    0x0800275e   0x0800275e   0x00000002   Code   RO         1326    i.HAL_TIM_IC_CaptureCallback  stm32f1xx_hal_tim.o
    0x08002760   0x08002760   0x00000166   Code   RO         1339    i.HAL_TIM_IRQHandler  stm32f1xx_hal_tim.o
    0x080028c6   0x080028c6   0x00000002   Code   RO         1342    i.HAL_TIM_OC_DelayElapsedCallback  stm32f1xx_hal_tim.o
    0x080028c8   0x080028c8   0x000000d0   Code   RO         1363    i.HAL_TIM_PWM_ConfigChannel  stm32f1xx_hal_tim.o
    0x08002998   0x08002998   0x00000036   Code   RO         1366    i.HAL_TIM_PWM_Init  stm32f1xx_hal_tim.o
    0x080029ce   0x080029ce   0x00000002   PAD
    0x080029d0   0x080029d0   0x00000054   Code   RO          255    i.HAL_TIM_PWM_MspInit  stm32f1xx_hal_msp.o
    0x08002a24   0x08002a24   0x00000002   Code   RO         1369    i.HAL_TIM_PWM_PulseFinishedCallback  stm32f1xx_hal_tim.o
    0x08002a26   0x08002a26   0x00000002   PAD
    0x08002a28   0x08002a28   0x00000038   Code   RO         1370    i.HAL_TIM_PWM_Start  stm32f1xx_hal_tim.o
    0x08002a60   0x08002a60   0x00000090   Code   RO          942    i.HAL_TIM_PeriodElapsedCallback  encoder.o
    0x08002af0   0x08002af0   0x00000002   Code   RO         1380    i.HAL_TIM_TriggerCallback  stm32f1xx_hal_tim.o
    0x08002af2   0x08002af2   0x00000058   Code   RO         1945    i.HAL_UART_DMAStop  stm32f1xx_hal_uart.o
    0x08002b4a   0x08002b4a   0x0000004c   Code   RO          598    i.HAL_UART_ErrorCallback  uart.o
    0x08002b96   0x08002b96   0x00000002   PAD
    0x08002b98   0x08002b98   0x00000110   Code   RO         1950    i.HAL_UART_IRQHandler  stm32f1xx_hal_uart.o
    0x08002ca8   0x08002ca8   0x00000062   Code   RO         1951    i.HAL_UART_Init     stm32f1xx_hal_uart.o
    0x08002d0a   0x08002d0a   0x00000002   PAD
    0x08002d0c   0x08002d0c   0x000001ec   Code   RO          257    i.HAL_UART_MspInit  stm32f1xx_hal_msp.o
    0x08002ef8   0x08002ef8   0x00000098   Code   RO         1955    i.HAL_UART_Receive_DMA  stm32f1xx_hal_uart.o
    0x08002f90   0x08002f90   0x00000002   Code   RO          599    i.HAL_UART_RxCpltCallback  uart.o
    0x08002f92   0x08002f92   0x00000002   Code   RO         1958    i.HAL_UART_RxHalfCpltCallback  stm32f1xx_hal_uart.o
    0x08002f94   0x08002f94   0x00000002   Code   RO          600    i.HAL_UART_TxCpltCallback  uart.o
    0x08002f96   0x08002f96   0x00000002   Code   RO          337    i.HardFault_Handler  stm32f1xx_it.o
    0x08002f98   0x08002f98   0x0000000c   Code   RO          338    i.I2C1_ER_IRQHandler  stm32f1xx_it.o
    0x08002fa4   0x08002fa4   0x0000000c   Code   RO          339    i.I2C1_EV_IRQHandler  stm32f1xx_it.o
    0x08002fb0   0x08002fb0   0x0000004e   Code   RO         3635    i.I2C_DMAAbort      stm32f1xx_hal_i2c.o
    0x08002ffe   0x08002ffe   0x00000002   PAD
    0x08003000   0x08003000   0x00000124   Code   RO         3638    i.I2C_ITError       stm32f1xx_hal_i2c.o
    0x08003124   0x08003124   0x000000c8   Code   RO         3640    i.I2C_MasterReceive_BTF  stm32f1xx_hal_i2c.o
    0x080031ec   0x080031ec   0x000000ae   Code   RO         3641    i.I2C_MasterReceive_RXNE  stm32f1xx_hal_i2c.o
    0x0800329a   0x0800329a   0x00000080   Code   RO         3644    i.I2C_MasterTransmit_BTF  stm32f1xx_hal_i2c.o
    0x0800331a   0x0800331a   0x00000106   Code   RO         3645    i.I2C_MasterTransmit_TXE  stm32f1xx_hal_i2c.o
    0x08003420   0x08003420   0x0000011a   Code   RO         3646    i.I2C_Master_ADDR   stm32f1xx_hal_i2c.o
    0x0800353a   0x0800353a   0x0000005a   Code   RO         3647    i.I2C_Master_SB     stm32f1xx_hal_i2c.o
    0x08003594   0x08003594   0x00000084   Code   RO         3650    i.I2C_Slave_AF      stm32f1xx_hal_i2c.o
    0x08003618   0x08003618   0x000000dc   Code   RO         3651    i.I2C_Slave_STOPF   stm32f1xx_hal_i2c.o
    0x080036f4   0x080036f4   0x00000010   Code   RO         1128    i.IncPID_Init       pid.o
    0x08003704   0x08003704   0x00000056   Code   RO         1129    i.Incremental_PID   pid.o
    0x0800375a   0x0800375a   0x00000002   PAD
    0x0800375c   0x0800375c   0x000000a8   Code   RO          879    i.IndicatorDeviceControl  indicatordevice.o
    0x08003804   0x08003804   0x00000094   Code   RO         1170    i.Kinematics_Mecanum_CalculateRPM  kinematics_mecanum.o
    0x08003898   0x08003898   0x0000009c   Code   RO         1171    i.Kinematics_Mecanum_GetVelocities  kinematics_mecanum.o
    0x08003934   0x08003934   0x0000007c   Code   RO          880    i.LED_Green_Control  indicatordevice.o
    0x080039b0   0x080039b0   0x00000044   Code   RO          881    i.LED_Green_GPIO_Init  indicatordevice.o
    0x080039f4   0x080039f4   0x0000007c   Code   RO          882    i.LED_Red_Control   indicatordevice.o
    0x08003a70   0x08003a70   0x00000044   Code   RO          883    i.LED_Red_GPIO_Init  indicatordevice.o
    0x08003ab4   0x08003ab4   0x0000000a   Code   RO         5185    i.LPF_Struct_Init   LowPassFilter.lib(lowpassfilter.o)
    0x08003abe   0x08003abe   0x0000002a   Code   RO         5186    i.LowPassFilter     LowPassFilter.lib(lowpassfilter.o)
    0x08003ae8   0x08003ae8   0x00000064   Code   RO          794    i.MX_ADC1_Init      adc1.o
    0x08003b4c   0x08003b4c   0x00000048   Code   RO          829    i.MX_I2C1_Init      i2c.o
    0x08003b94   0x08003b94   0x00000074   Code   RO          704    i.MX_TIM2_Init      tim2.o
    0x08003c08   0x08003c08   0x00000060   Code   RO          734    i.MX_TIM3_Init      tim3.o
    0x08003c68   0x08003c68   0x00000060   Code   RO          674    i.MX_TIM4_Init      tim4.o
    0x08003cc8   0x08003cc8   0x00000060   Code   RO          764    i.MX_TIM5_Init      tim5.o
    0x08003d28   0x08003d28   0x000000b0   Code   RO          543    i.MX_TIM8_Init      tim8.o
    0x08003dd8   0x08003dd8   0x00000050   Code   RO          601    i.MX_UART4_Init     uart.o
    0x08003e28   0x08003e28   0x00000044   Code   RO          602    i.MX_USART2_Init    uart.o
    0x08003e6c   0x08003e6c   0x00000002   Code   RO          340    i.MemManage_Handler  stm32f1xx_it.o
    0x08003e6e   0x08003e6e   0x00000002   PAD
    0x08003e70   0x08003e70   0x00000010   Code   RO         1013    i.Motor1_Forward    motorcontrol.o
    0x08003e80   0x08003e80   0x00000044   Code   RO         1014    i.Motor1_GPIO_Init  motorcontrol.o
    0x08003ec4   0x08003ec4   0x00000010   Code   RO         1015    i.Motor1_Reverse    motorcontrol.o
    0x08003ed4   0x08003ed4   0x00000010   Code   RO         1016    i.Motor2_Forward    motorcontrol.o
    0x08003ee4   0x08003ee4   0x00000044   Code   RO         1017    i.Motor2_GPIO_Init  motorcontrol.o
    0x08003f28   0x08003f28   0x00000010   Code   RO         1018    i.Motor2_Reverse    motorcontrol.o
    0x08003f38   0x08003f38   0x00000010   Code   RO         1019    i.Motor3_Forward    motorcontrol.o
    0x08003f48   0x08003f48   0x00000044   Code   RO         1020    i.Motor3_GPIO_Init  motorcontrol.o
    0x08003f8c   0x08003f8c   0x00000010   Code   RO         1021    i.Motor3_Reverse    motorcontrol.o
    0x08003f9c   0x08003f9c   0x00000010   Code   RO         1022    i.Motor4_Forward    motorcontrol.o
    0x08003fac   0x08003fac   0x00000044   Code   RO         1023    i.Motor4_GPIO_Init  motorcontrol.o
    0x08003ff0   0x08003ff0   0x00000010   Code   RO         1024    i.Motor4_Reverse    motorcontrol.o
    0x08004000   0x08004000   0x00000002   Code   RO          341    i.NMI_Handler       stm32f1xx_it.o
    0x08004002   0x08004002   0x00000020   Code   RO         2837    i.NVIC_SetPriority  stm32f1xx_hal_cortex.o
    0x08004022   0x08004022   0x00000002   Code   RO          342    i.PendSV_Handler    stm32f1xx_it.o
    0x08004024   0x08004024   0x000000d0   Code   RO         5023    i.RC_Update         RC.lib(rc.o)
    0x080040f4   0x080040f4   0x000001a4   Code   RO         5024    i.RC_UpdateStruct   RC.lib(rc.o)
    0x08004298   0x08004298   0x00000002   Code   RO          343    i.SVC_Handler       stm32f1xx_it.o
    0x0800429a   0x0800429a   0x0000000e   Code   RO          344    i.SysTick_Handler   stm32f1xx_it.o
    0x080042a8   0x080042a8   0x0000007a   Code   RO           13    i.SystemClock_Config  main.o
    0x08004322   0x08004322   0x00000002   PAD
    0x08004324   0x08004324   0x00000048   Code   RO         4986    i.SystemInit        system_stm32f1xx.o
    0x0800436c   0x0800436c   0x0000000c   Code   RO          345    i.TIM2_IRQHandler   stm32f1xx_it.o
    0x08004378   0x08004378   0x0000000c   Code   RO          346    i.TIM3_IRQHandler   stm32f1xx_it.o
    0x08004384   0x08004384   0x0000000c   Code   RO          347    i.TIM4_IRQHandler   stm32f1xx_it.o
    0x08004390   0x08004390   0x0000000c   Code   RO          348    i.TIM5_IRQHandler   stm32f1xx_it.o
    0x0800439c   0x0800439c   0x0000008c   Code   RO         1381    i.TIM_Base_SetConfig  stm32f1xx_hal_tim.o
    0x08004428   0x08004428   0x00000016   Code   RO         1382    i.TIM_CCxChannelCmd  stm32f1xx_hal_tim.o
    0x0800443e   0x0800443e   0x00000002   PAD
    0x08004440   0x08004440   0x00000060   Code   RO         1390    i.TIM_OC1_SetConfig  stm32f1xx_hal_tim.o
    0x080044a0   0x080044a0   0x0000006c   Code   RO         1391    i.TIM_OC2_SetConfig  stm32f1xx_hal_tim.o
    0x0800450c   0x0800450c   0x00000068   Code   RO         1392    i.TIM_OC3_SetConfig  stm32f1xx_hal_tim.o
    0x08004574   0x08004574   0x00000050   Code   RO         1393    i.TIM_OC4_SetConfig  stm32f1xx_hal_tim.o
    0x080045c4   0x080045c4   0x00000020   Code   RO          349    i.UART4_IRQHandler  stm32f1xx_it.o
    0x080045e4   0x080045e4   0x00000010   Code   RO         1964    i.UART_DMAAbortOnError  stm32f1xx_hal_uart.o
    0x080045f4   0x080045f4   0x0000004a   Code   RO         1965    i.UART_DMAError     stm32f1xx_hal_uart.o
    0x0800463e   0x0800463e   0x0000003c   Code   RO         1966    i.UART_DMAReceiveCplt  stm32f1xx_hal_uart.o
    0x0800467a   0x0800467a   0x0000000a   Code   RO         1968    i.UART_DMARxHalfCplt  stm32f1xx_hal_uart.o
    0x08004684   0x08004684   0x0000001c   Code   RO         1974    i.UART_EndRxTransfer  stm32f1xx_hal_uart.o
    0x080046a0   0x080046a0   0x00000012   Code   RO         1975    i.UART_EndTxTransfer  stm32f1xx_hal_uart.o
    0x080046b2   0x080046b2   0x00000096   Code   RO         1976    i.UART_Receive_IT   stm32f1xx_hal_uart.o
    0x08004748   0x08004748   0x00000170   Code   RO         1977    i.UART_SetConfig    stm32f1xx_hal_uart.o
    0x080048b8   0x080048b8   0x00000062   Code   RO         1978    i.UART_Transmit_IT  stm32f1xx_hal_uart.o
    0x0800491a   0x0800491a   0x00000002   PAD
    0x0800491c   0x0800491c   0x00000020   Code   RO          350    i.USART2_IRQHandler  stm32f1xx_it.o
    0x0800493c   0x0800493c   0x00000054   Code   RO          983    i.UpdateBatteryInfor  batteryinfor.o
    0x08004990   0x08004990   0x00000002   Code   RO          351    i.UsageFault_Handler  stm32f1xx_it.o
    0x08004992   0x08004992   0x00000002   PAD
    0x08004994   0x08004994   0x0000007c   Code   RO          603    i.UsartReceive_IDLE  uart.o
    0x08004a10   0x08004a10   0x00000354   Code   RO         1103    i.VelocityControl_4WD  velocitycontrol.o
    0x08004d64   0x08004d64   0x0000000e   Code   RO         5423    i.__scatterload_copy  mc_w.l(handlers.o)
    0x08004d72   0x08004d72   0x00000002   Code   RO         5424    i.__scatterload_null  mc_w.l(handlers.o)
    0x08004d74   0x08004d74   0x0000000e   Code   RO         5425    i.__scatterload_zeroinit  mc_w.l(handlers.o)
    0x08004d82   0x08004d82   0x00000002   PAD
    0x08004d84   0x08004d84   0x00000208   Code   RO           15    i.main              main.o
    0x08004f8c   0x08004f8c   0x00000010   Data   RO         4987    .constdata          system_stm32f1xx.o
    0x08004f9c   0x08004f9c   0x00000008   Data   RO         4988    .constdata          system_stm32f1xx.o
    0x08004fa4   0x08004fa4   0x00000020   Data   RO         5421    Region$$Table       anon$$obj.o


    Execution Region RW_IRAM1 (Exec base: 0x20000000, Load base: 0x08004fc4, Size: 0x00000a18, Max: 0x0000c000, ABSOLUTE)

    Exec Addr    Load Addr    Size         Type   Attr      Idx    E Section Name        Object

    0x20000000   0x08004fc4   0x00000006   Data   RW           16    .data               main.o
    0x20000006   0x08004fca   0x00000002   Data   RW           17    .data               main.o
    0x20000008   0x08004fcc   0x00000008   Data   RW          797    .data               adc1.o
    0x20000010   0x08004fd4   0x00000002   Data   RW          833    .data               i2c.o
    0x20000012   0x08004fd6   0x00000022   Data   RW          884    .data               indicatordevice.o
    0x20000034   0x08004ff8   0x0000000a   Data   RW          943    .data               encoder.o
    0x2000003e   0x08005002   0x00000002   PAD
    0x20000040   0x08005004   0x00000004   Data   RW          984    .data               batteryinfor.o
    0x20000044   0x08005008   0x00000010   Data   RW         1104    .data               velocitycontrol.o
    0x20000054   0x08005018   0x0000000c   Data   RW         3249    .data               stm32f1xx_hal.o
    0x20000060   0x08005024   0x00000004   Data   RW         4989    .data               system_stm32f1xx.o
    0x20000064   0x08005028   0x0000000e   Data   RW         5025    .data               RC.lib(rc.o)
    0x20000072   0x08005036   0x00000002   PAD
    0x20000074        -       0x0000000c   Zero   RW          502    .bss                shareware.o
    0x20000080        -       0x0000000c   Zero   RW          503    .bss                shareware.o
    0x2000008c        -       0x0000000c   Zero   RW          504    .bss                shareware.o
    0x20000098        -       0x0000000c   Zero   RW          505    .bss                shareware.o
    0x200000a4        -       0x0000000c   Zero   RW          506    .bss                shareware.o
    0x200000b0        -       0x00000028   Zero   RW          507    .bss                shareware.o
    0x200000d8        -       0x00000018   Zero   RW          508    .bss                shareware.o
    0x200000f0        -       0x00000018   Zero   RW          509    .bss                shareware.o
    0x20000108        -       0x00000018   Zero   RW          510    .bss                shareware.o
    0x20000120        -       0x00000018   Zero   RW          511    .bss                shareware.o
    0x20000138        -       0x0000000c   Zero   RW          512    .bss                shareware.o
    0x20000144        -       0x0000000c   Zero   RW          513    .bss                shareware.o
    0x20000150        -       0x0000000c   Zero   RW          514    .bss                shareware.o
    0x2000015c        -       0x0000000c   Zero   RW          515    .bss                shareware.o
    0x20000168        -       0x00000020   Zero   RW          516    .bss                shareware.o
    0x20000188        -       0x0000001c   Zero   RW          517    .bss                shareware.o
    0x200001a4        -       0x0000001c   Zero   RW          518    .bss                shareware.o
    0x200001c0        -       0x00000040   Zero   RW          544    .bss                tim8.o
    0x20000200        -       0x000001c8   Zero   RW          605    .bss                uart.o
    0x200003c8        -       0x00000044   Zero   RW          606    .bss                uart.o
    0x2000040c        -       0x00000044   Zero   RW          608    .bss                uart.o
    0x20000450        -       0x00000040   Zero   RW          675    .bss                tim4.o
    0x20000490        -       0x00000040   Zero   RW          705    .bss                tim2.o
    0x200004d0        -       0x00000040   Zero   RW          735    .bss                tim3.o
    0x20000510        -       0x00000040   Zero   RW          765    .bss                tim5.o
    0x20000550        -       0x00000030   Zero   RW          795    .bss                adc1.o
    0x20000580        -       0x00000044   Zero   RW          796    .bss                adc1.o
    0x200005c4        -       0x00000054   Zero   RW          830    .bss                i2c.o
    0x20000618        -       0x00000400   Zero   RW            1    STACK               startup_stm32f103xe.o


==============================================================================

Image component sizes


      Code (inc. data)   RO Data    RW Data    ZI Data      Debug   Object Name

       100         14          0          8        116       1071   adc1.o
       728        204          0          4          0       1923   batteryinfor.o
       332         58          0         10          0       3093   encoder.o
       122         32          0          2         84       2559   i2c.o
       748         68          0         34          0       6439   indicatordevice.o
       304         24          0          0          0       1897   kinematics_mecanum.o
        68         16          0          0          0        467   loop.o
       642        102          0          8          0     505708   main.o
       400         82          0          0          0       6436   motorcontrol.o
       102          0          0          0          0       1404   pid.o
         0          0          0          0        332       1673   shareware.o
        36          8        304          0       1024        788   startup_stm32f103xe.o
       164         28          0         12          0       3833   stm32f1xx_hal.o
      1306         68          0          0          0       9406   stm32f1xx_hal_adc.o
       226         14          0          0          0      26846   stm32f1xx_hal_cortex.o
      1222         52          0          0          0       5030   stm32f1xx_hal_dma.o
       510         42          0          0          0       3453   stm32f1xx_hal_gpio.o
      2896         58          0          0          0      17973   stm32f1xx_hal_i2c.o
      1396        138          0          0          0       5273   stm32f1xx_hal_msp.o
      1276        100          0          0          0       5772   stm32f1xx_hal_rcc.o
       232         12          0          0          0       1440   stm32f1xx_hal_rcc_ex.o
      1434         64          0          0          0      12705   stm32f1xx_hal_tim.o
       174          0          0          0          0       3166   stm32f1xx_hal_tim_ex.o
      1434         24          0          0          0       9878   stm32f1xx_hal_uart.o
       214         68          0          0          0       9085   stm32f1xx_it.o
        72         16         24          4          0       1151   system_stm32f1xx.o
       116          8          0          0         64       1051   tim2.o
        96          8          0          0         64        743   tim3.o
        96          8          0          0         64        743   tim4.o
        96          8          0          0         64        743   tim5.o
       176          8          0          0         64        835   tim8.o
       352         38          0          0        592       4010   uart.o
       852         72          0         16          0       1442   velocitycontrol.o

    ----------------------------------------------------------------------
     17956       1442        360        100       2468     658036   Object Totals
         0          0         32          0          0          0   (incl. Generated)
        34          0          0          2          0          0   (incl. Padding)

    ----------------------------------------------------------------------

      Code (inc. data)   RO Data    RW Data    ZI Data      Debug   Library Member Name

        52          0          0          0          0       1794   lowpassfilter.o
       628         22          0         14          0       6114   rc.o
         0          0          0          0          0          0   entry.o
         0          0          0          0          0          0   entry10a.o
         0          0          0          0          0          0   entry11a.o
         8          4          0          0          0          0   entry2.o
         4          0          0          0          0          0   entry5.o
         0          0          0          0          0          0   entry7b.o
         0          0          0          0          0          0   entry8b.o
         8          4          0          0          0          0   entry9a.o
        30          0          0          0          0          0   handlers.o
        36          8          0          0          0         68   init.o
         0          0          0          0          0          0   iusefp.o
        30          0          0          0          0         68   llshl.o
        36          0          0          0          0         68   llsshr.o
        32          0          0          0          0         68   llushr.o
        20          0          0          0          0         68   cfcmple.o
        56          0          0          0          0         88   d2f.o
       334          0          0          0          0        148   dadd.o
       186          0          0          0          0        176   depilogue.o
        38          0          0          0          0         68   f2d.o
       176          0          0          0          0        140   fadd.o
       124          0          0          0          0         88   fdiv.o
       110          0          0          0          0        168   fepilogue.o
        40          0          0          0          0         68   ffixui.o
        18          0          0          0          0         68   fflti.o
        10          0          0          0          0         68   ffltui.o
       100          0          0          0          0         76   fmul.o
        24          0          0          0          0         68   fscalb.o

    ----------------------------------------------------------------------
      2104         38          0         16          0       9472   Library Totals
         4          0          0          2          0          0   (incl. Padding)

    ----------------------------------------------------------------------

      Code (inc. data)   RO Data    RW Data    ZI Data      Debug   Library Name

        52          0          0          0          0       1794   LowPassFilter.lib
       628         22          0         14          0       6114   RC.lib
       184         16          0          0          0        272   mc_w.l
      1236          0          0          0          0       1292   mf_w.l

    ----------------------------------------------------------------------
      2104         38          0         16          0       9472   Library Totals

    ----------------------------------------------------------------------

==============================================================================


      Code (inc. data)   RO Data    RW Data    ZI Data      Debug   

     20060       1480        360        116       2468     657988   Grand Totals
     20060       1480        360        116       2468     657988   ELF Image Totals
     20060       1480        360        116          0          0   ROM Totals

==============================================================================

    Total RO  Size (Code + RO Data)                20420 (  19.94kB)
    Total RW  Size (RW Data + ZI Data)              2584 (   2.52kB)
    Total ROM Size (Code + RO Data + RW Data)      20536 (  20.05kB)

==============================================================================

