Component: ARM Compiler 5.06 update 6 (build 750) Tool: armlink [4d35ed]

==============================================================================

Section Cross References

    main.o(i.DATA_Report) refers to _printf_percent.o(.ARM.Collect$$_printf_percent$$00000000) for _printf_percent
    main.o(i.DATA_Report) refers to _printf_d.o(.ARM.Collect$$_printf_percent$$00000009) for _printf_d
    main.o(i.DATA_Report) refers to _printf_dec.o(.text) for _printf_int_dec
    main.o(i.DATA_Report) refers to ffix.o(x$fpl$ffix) for __aeabi_f2iz
    main.o(i.DATA_Report) refers to fmul.o(x$fpl$fmul) for __aeabi_fmul
    main.o(i.DATA_Report) refers to noretval__2printf.o(.text) for __2printf
    main.o(i.DATA_Report) refers to main.o(.data) for yaw
    main.o(i.MPU_Read) refers to inv_mpu.o(i.mpu_dmp_get_data) for mpu_dmp_get_data
    main.o(i.MPU_Read) refers to mpu6050.o(i.MPU_Get_Temperature) for MPU_Get_Temperature
    main.o(i.MPU_Read) refers to mpu6050.o(i.MPU_Get_Accelerometer) for MPU_Get_Accelerometer
    main.o(i.MPU_Read) refers to mpu6050.o(i.MPU_Get_Gyroscope) for MPU_Get_Gyroscope
    main.o(i.MPU_Read) refers to main.o(.data) for yaw
    main.o(i.SYS_Init) refers to misc.o(i.NVIC_PriorityGroupConfig) for NVIC_PriorityGroupConfig
    main.o(i.SYS_Init) refers to delay.o(i.delay_init) for delay_init
    main.o(i.SYS_Init) refers to usart.o(i.uart_init) for uart_init
    main.o(i.SYS_Init) refers to led.o(i.LED_Init) for LED_Init
    main.o(i.SYS_Init) refers to mpu6050.o(i.MPU_Init) for MPU_Init
    main.o(i.SYS_Init) refers to delay.o(i.delay_ms) for delay_ms
==============================================================================

Removing Unused input sections from the image.

    Removing main.o(.bss), (33 bytes).
    Removing system_stm32f10x.o(i.SystemCoreClockUpdate), (164 bytes).
    Removing inv_mpu.o(i.mpu_get_accel_reg), (116 bytes).
    Removing inv_mpu.o(i.mpu_get_compass_fsr), (8 bytes).
    Removing inv_mpu.o(i.mpu_get_compass_reg), (8 bytes).
    Removing inv_mpu.o(i.mpu_get_compass_sample_rate), (10 bytes).
    Removing inv_mpu.o(i.mpu_get_dmp_state), (20 bytes).
    Removing inv_mpu.o(i.mpu_get_gyro_reg), (116 bytes).
    Removing inv_mpu.o(i.mpu_get_int_status), (68 bytes).
    Removing inv_mpu.o(i.mpu_get_power_state), (28 bytes).
    Removing inv_mpu.o(i.mpu_get_temperature), (160 bytes).
    Removing inv_mpu.o(i.mpu_lp_motion_interrupt), (516 bytes).
    Removing inv_mpu.o(i.mpu_read_fifo), (504 bytes).
    Removing inv_mpu.o(i.mpu_read_reg), (72 bytes).
    Removing inv_mpu.o(i.mpu_reg_dump), (104 bytes).
    Removing inv_mpu.o(i.mpu_set_accel_bias), (384 bytes).
    Removing inv_mpu.o(i.mpu_set_compass_sample_rate), (8 bytes).
    Removing inv_mpu.o(i.mpu_set_int_level), (16 bytes).
==============================================================================

Image Symbol Table

    Local Symbols

    Symbol Name                              Value     Ov Type        Size  Object(Section)

    ../clib/angel/boardlib.s                 0x00000000   Number         0  boardinit1.o ABSOLUTE
    ../clib/angel/boardlib.s                 0x00000000   Number         0  boardshut.o ABSOLUTE
    ../clib/angel/boardlib.s                 0x00000000   Number         0  boardinit3.o ABSOLUTE
    ../clib/angel/boardlib.s                 0x00000000   Number         0  boardinit2.o ABSOLUTE
    ../clib/angel/handlers.s                 0x00000000   Number         0  __scatter_zi.o ABSOLUTE
    ../clib/angel/handlers.s                 0x00000000   Number         0  __scatter_copy.o ABSOLUTE
    ../clib/angel/kernel.s                   0x00000000   Number         0  rtexit2.o ABSOLUTE
    ../clib/angel/kernel.s                   0x00000000   Number         0  __rtentry4.o ABSOLUTE
    ../clib/angel/kernel.s                   0x00000000   Number         0  rtexit.o ABSOLUTE
    ../clib/angel/kernel.s                   0x00000000   Number         0  __rtentry.o ABSOLUTE
    ../clib/angel/kernel.s                   0x00000000   Number         0  __rtentry2.o ABSOLUTE
    ../clib/angel/rt.s                       0x00000000   Number         0  rt_raise.o ABSOLUTE
    ../clib/angel/rt.s                       0x00000000   Number         0  rt_div0.o ABSOLUTE
    ../clib/angel/rt.s                       0x00000000   Number         0  aeabi_ldiv0.o ABSOLUTE
    ../clib/angel/rt.s                       0x00000000   Number         0  aeabi_ldiv0_sigfpe.o ABSOLUTE
    ../clib/angel/rt.s                       0x00000000   Number         0  rt_errno_addr.o ABSOLUTE
    ../clib/angel/rt.s                       0x00000000   Number         0  rt_errno_addr_intlibspace.o ABSOLUTE
    ../clib/angel/scatter.s                  0x00000000   Number         0  __scatter.o ABSOLUTE
    ../clib/angel/startup.s                  0x00000000   Number         0  __main.o ABSOLUTE
    ../clib/angel/sys.s                      0x00000000   Number         0  use_no_semi.o ABSOLUTE
    ../clib/angel/sys.s                      0x00000000   Number         0  indicate_semi.o ABSOLUTE
    ../clib/angel/sys.s                      0x00000000   Number         0  libspace.o ABSOLUTE
    ../clib/angel/sys.s                      0x00000000   Number         0  sys_stackheap_outer.o ABSOLUTE
    ../clib/angel/sys.s                      0x00000000   Number         0  use_no_semi_2.o ABSOLUTE
    ../clib/angel/sysapp.c                   0x00000000   Number         0  sys_command.o ABSOLUTE
    ../clib/angel/sysapp.c                   0x00000000   Number         0  sys_wrch.o ABSOLUTE
    ../clib/armsys.c                         0x00000000   Number         0  no_argv.o ABSOLUTE
    ../clib/armsys.c                         0x00000000   Number         0  _get_argv_nomalloc.o ABSOLUTE
    ../clib/armsys.c                         0x00000000   Number         0  argv_veneer.o ABSOLUTE
    ../clib/armsys.c                         0x00000000   Number         0  argv_veneer.o ABSOLUTE
    ../clib/fenv.c                           0x00000000   Number         0  _rserrno.o ABSOLUTE
    ../clib/heapalloc.c                      0x00000000   Number         0  hrguard.o ABSOLUTE
    ../clib/heapaux.c                        0x00000000   Number         0  heapauxi.o ABSOLUTE
    ../clib/libinit.s                        0x00000000   Number         0  libshutdown.o ABSOLUTE
    ../clib/libinit.s                        0x00000000   Number         0  libinit.o ABSOLUTE
    ../clib/libinit.s                        0x00000000   Number         0  libinit2.o ABSOLUTE
    ../clib/libinit.s                        0x00000000   Number         0  libshutdown2.o ABSOLUTE
    ../clib/longlong.s                       0x00000000   Number         0  lludivv7m.o ABSOLUTE
    ../clib/longlong.s                       0x00000000   Number         0  llsdiv.o ABSOLUTE
    ../clib/memcpset.s                       0x00000000   Number         0  aeabi_memset.o ABSOLUTE
    ../clib/memcpset.s                       0x00000000   Number         0  rt_memclr_w.o ABSOLUTE
    ../clib/memcpset.s                       0x00000000   Number         0  rt_memclr.o ABSOLUTE
    ../clib/misc.s                           0x00000000   Number         0  printf_stubs.o ABSOLUTE
    ../clib/printf.c                         0x00000000   Number         0  __printf_flags_ss.o ABSOLUTE
    ../clib/printf.c                         0x00000000   Number         0  __printf_flags_ss_wp.o ABSOLUTE
    ../clib/printf.c                         0x00000000   Number         0  __printf_ss_wp.o ABSOLUTE
    ../clib/printf.c                         0x00000000   Number         0  __printf_nopercent.o ABSOLUTE
    ../clib/printf.c                         0x00000000   Number         0  __printf_wp.o ABSOLUTE
    ../clib/printf.c                         0x00000000   Number         0  __printf_flags_wp.o ABSOLUTE
    ../clib/printf.c                         0x00000000   Number         0  _printf_char_common.o ABSOLUTE
    ../clib/printf.c                         0x00000000   Number         0  _printf_hex_ptr.o ABSOLUTE
    ../clib/printf.c                         0x00000000   Number         0  _printf_hex_int_ll.o ABSOLUTE
    ../clib/printf.c                         0x00000000   Number         0  _printf_hex_int_ptr.o ABSOLUTE
    ../clib/printf.c                         0x00000000   Number         0  _printf_hex_int.o ABSOLUTE
    ../clib/printf.c                         0x00000000   Number         0  _printf_hex_ll.o ABSOLUTE
    ../clib/printf.c                         0x00000000   Number         0  _printf_dec.o ABSOLUTE
    ../clib/printf.c                         0x00000000   Number         0  _printf_pad.o ABSOLUTE
    ../clib/printf.c                         0x00000000   Number         0  noretval__2printf.o ABSOLUTE
    ../clib/printf.c                         0x00000000   Number         0  _printf_hex_ll_ptr.o ABSOLUTE
    ../clib/printf.c                         0x00000000   Number         0  __2printf.o ABSOLUTE
    ../clib/printf.c                         0x00000000   Number         0  _printf_hex_int_ll_ptr.o ABSOLUTE
    ../clib/printf.c                         0x00000000   Number         0  __printf_flags.o ABSOLUTE
    ../clib/printf.c                         0x00000000   Number         0  __printf_ss.o ABSOLUTE
    ../clib/printf.c                         0x00000000   Number         0  _printf_char_file.o ABSOLUTE
    ../clib/printf.c                         0x00000000   Number         0  _printf_intcommon.o ABSOLUTE
    ../clib/printf.c                         0x00000000   Number         0  __printf.o ABSOLUTE
    ../clib/printf_percent.s                 0x00000000   Number         0  _printf_x.o ABSOLUTE
    ../clib/printf_percent.s                 0x00000000   Number         0  _printf_percent_end.o ABSOLUTE
    ../clib/printf_percent.s                 0x00000000   Number         0  _printf_percent.o ABSOLUTE
    ../clib/printf_percent.s                 0x00000000   Number         0  _printf_d.o ABSOLUTE
    ../clib/signal.c                         0x00000000   Number         0  defsig_stak_inner.o ABSOLUTE
    ../clib/signal.c                         0x00000000   Number         0  defsig_pvfn_inner.o ABSOLUTE
    ../clib/signal.c                         0x00000000   Number         0  defsig_cppl_inner.o ABSOLUTE
    ../clib/signal.c                         0x00000000   Number         0  defsig_segv_inner.o ABSOLUTE
    ../clib/signal.c                         0x00000000   Number         0  defsig_exit.o ABSOLUTE
    ../clib/signal.c                         0x00000000   Number         0  defsig_fpe_inner.o ABSOLUTE
    ../clib/signal.c                         0x00000000   Number         0  defsig_rtmem_outer.o ABSOLUTE
    ../clib/signal.c                         0x00000000   Number         0  defsig_rtmem_formal.o ABSOLUTE
    ../clib/signal.c                         0x00000000   Number         0  defsig_fpe_formal.o ABSOLUTE
    ../clib/signal.c                         0x00000000   Number         0  defsig_other.o ABSOLUTE
    ../clib/signal.c                         0x00000000   Number         0  defsig_fpe_outer.o ABSOLUTE
    ../clib/signal.c                         0x00000000   Number         0  defsig_rtred_inner.o ABSOLUTE
    ../clib/signal.c                         0x00000000   Number         0  __raise.o ABSOLUTE
    ../clib/signal.c                         0x00000000   Number         0  defsig_abrt_inner.o ABSOLUTE
    ../clib/signal.c                         0x00000000   Number         0  defsig_general.o ABSOLUTE
    ../clib/signal.c                         0x00000000   Number         0  defsig_rtmem_inner.o ABSOLUTE
    ../clib/signal.s                         0x00000000   Number         0  defsig.o ABSOLUTE
    ../clib/stdio.c                          0x00000000   Number         0  ferror.o ABSOLUTE
    ../clib/stdio.c                          0x00000000   Number         0  ferror_locked.o ABSOLUTE
    ../clib/stdlib.c                         0x00000000   Number         0  exit.o ABSOLUTE
    ../clib/string.c                         0x00000000   Number         0  memcmp.o ABSOLUTE
    ../fplib/d2f.s                           0x00000000   Number         0  d2f.o ABSOLUTE
    ../fplib/daddsub.s                       0x00000000   Number         0  daddsub_clz.o ABSOLUTE
    ../fplib/dcheck1.s                       0x00000000   Number         0  dcheck1.o ABSOLUTE
    ../fplib/dcmpi.s                         0x00000000   Number         0  dcmpi.o ABSOLUTE
    ../fplib/ddiv.s                          0x00000000   Number         0  ddiv.o ABSOLUTE
    ../fplib/dflt.s                          0x00000000   Number         0  dflt_clz.o ABSOLUTE
    ../fplib/dleqf.s                         0x00000000   Number         0  dleqf.o ABSOLUTE
    ../fplib/dmul.s                          0x00000000   Number         0  dmul.o ABSOLUTE
    ../fplib/dnaninf.s                       0x00000000   Number         0  dnaninf.o ABSOLUTE
    ../fplib/dretinf.s                       0x00000000   Number         0  dretinf.o ABSOLUTE
    ../fplib/dsqrt.s                         0x00000000   Number         0  dsqrt_noumaal.o ABSOLUTE
    ../fplib/f2d.s                           0x00000000   Number         0  f2d.o ABSOLUTE
    ../fplib/faddsub.s                       0x00000000   Number         0  faddsub_clz.o ABSOLUTE
    ../fplib/fcmpi.s                         0x00000000   Number         0  fcmpi.o ABSOLUTE
    ../fplib/fdiv.s                          0x00000000   Number         0  fdiv.o ABSOLUTE
    ../fplib/feqf.s                          0x00000000   Number         0  feqf.o ABSOLUTE
    ../fplib/ffix.s                          0x00000000   Number         0  ffix.o ABSOLUTE
    ../fplib/ffixu.s                         0x00000000   Number         0  ffixu.o ABSOLUTE
    ../fplib/fflt.s                          0x00000000   Number         0  fflt_clz.o ABSOLUTE
    ../fplib/fleqf.s                         0x00000000   Number         0  fleqf.o ABSOLUTE
    ../fplib/fmul.s                          0x00000000   Number         0  fmul.o ABSOLUTE
    ../fplib/fnaninf.s                       0x00000000   Number         0  fnaninf.o ABSOLUTE
    ../fplib/fpinit.s                        0x00000000   Number         0  fpinit.o ABSOLUTE
    ../fplib/fretinf.s                       0x00000000   Number         0  fretinf.o ABSOLUTE
    ../fplib/frleqf.s                        0x00000000   Number         0  frleqf.o ABSOLUTE
    ../fplib/retnan.s                        0x00000000   Number         0  retnan.o ABSOLUTE
    ../fplib/scalbn.s                        0x00000000   Number         0  scalbn.o ABSOLUTE
    ../fplib/trapv.s                         0x00000000   Number         0  trapv.o ABSOLUTE
    ../fplib/usenofp.s                       0x00000000   Number         0  usenofp.o ABSOLUTE
    ../mathlib/asin.c                        0x00000000   Number         0  asin_x.o ABSOLUTE
    ../mathlib/asin.c                        0x00000000   Number         0  asin.o ABSOLUTE
    ../mathlib/atan.c                        0x00000000   Number         0  atan.o ABSOLUTE
    ../mathlib/atan.c                        0x00000000   Number         0  atan_x.o ABSOLUTE
    ../mathlib/atan2.c                       0x00000000   Number         0  atan2_x.o ABSOLUTE
    ../mathlib/atan2.c                       0x00000000   Number         0  atan2.o ABSOLUTE
    ../mathlib/dunder.c                      0x00000000   Number         0  dunder.o ABSOLUTE
    ../mathlib/fpclassify.c                  0x00000000   Number         0  fpclassify.o ABSOLUTE
    ../mathlib/poly.c                        0x00000000   Number         0  poly.o ABSOLUTE
    ../mathlib/qnan.c                        0x00000000   Number         0  qnan.o ABSOLUTE
    ../mathlib/sqrt.c                        0x00000000   Number         0  sqrt.o ABSOLUTE
    ../mathlib/sqrt.c                        0x00000000   Number         0  sqrt_x.o ABSOLUTE
    ..\CORE\core_cm3.c                       0x00000000   Number         0  core_cm3.o ABSOLUTE
    ..\CORE\startup_stm32f10x_hd.s           0x00000000   Number         0  startup_stm32f10x_hd.o ABSOLUTE
    ..\HARDWARE\LED\led.c                    0x00000000   Number         0  led.o ABSOLUTE
    ..\HARDWARE\MPU6050\eMPL\inv_mpu.c       0x00000000   Number         0  inv_mpu.o ABSOLUTE
    ..\HARDWARE\MPU6050\eMPL\inv_mpu_dmp_motion_driver.c 0x00000000   Number         0  inv_mpu_dmp_motion_driver.o ABSOLUTE
    ..\HARDWARE\MPU6050\mpu6050.c            0x00000000   Number         0  mpu6050.o ABSOLUTE
    ..\HARDWARE\MPU6050\mpuiic.c             0x00000000   Number         0  mpuiic.o ABSOLUTE
    ..\STM32F10x_FWLib\src\misc.c            0x00000000   Number         0  misc.o ABSOLUTE
    ..\STM32F10x_FWLib\src\stm32f10x_dbgmcu.c 0x00000000   Number         0  stm32f10x_dbgmcu.o ABSOLUTE
    ..\STM32F10x_FWLib\src\stm32f10x_gpio.c  0x00000000   Number         0  stm32f10x_gpio.o ABSOLUTE
    ..\STM32F10x_FWLib\src\stm32f10x_rcc.c   0x00000000   Number         0  stm32f10x_rcc.o ABSOLUTE
    ..\STM32F10x_FWLib\src\stm32f10x_usart.c 0x00000000   Number         0  stm32f10x_usart.o ABSOLUTE
    ..\SYSTEM\delay\delay.c                  0x00000000   Number         0  delay.o ABSOLUTE
    ..\SYSTEM\sys\sys.c                      0x00000000   Number         0  sys.o ABSOLUTE
    ..\SYSTEM\usart\usart.c                  0x00000000   Number         0  usart.o ABSOLUTE
    ..\\CORE\\core_cm3.c                     0x00000000   Number         0  core_cm3.o ABSOLUTE
    ..\\SYSTEM\\sys\\sys.c                   0x00000000   Number         0  sys.o ABSOLUTE
    dc.s                                     0x00000000   Number         0  dc.o ABSOLUTE
    main.c                                   0x00000000   Number         0  main.o ABSOLUTE
    stm32f10x_it.c                           0x00000000   Number         0  stm32f10x_it.o ABSOLUTE
    system_stm32f10x.c                       0x00000000   Number         0  system_stm32f10x.o ABSOLUTE
    RESET                                    0x08000000   Section      304  startup_stm32f10x_hd.o(RESET)
    !!!main                                  0x08000130   Section        8  __main.o(!!!main)
    !!!scatter                               0x08000138   Section       52  __scatter.o(!!!scatter)
    !!handler_copy                           0x0800016c   Section       26  __scatter_copy.o(!!handler_copy)
    !!handler_zi                             0x08000188   Section       28  __scatter_zi.o(!!handler_zi)
    .ARM.Collect$$_printf_percent$$00000000  0x080001a4   Section        0  _printf_percent.o(.ARM.Collect$$_printf_percent$$00000000)
    .ARM.Collect$$_printf_percent$$00000009  0x080001a4   Section        6  _printf_d.o(.ARM.Collect$$_printf_percent$$00000009)
    .ARM.Collect$$_printf_percent$$00000017  0x080001aa   Section        4  _printf_percent_end.o(.ARM.Collect$$_printf_percent$$00000017)
    .ARM.Collect$$libinit$$00000000          0x080001ae   Section        2  libinit.o(.ARM.Collect$$libinit$$00000000)
    .ARM.Collect$$libinit$$00000002          0x080001b0   Section        0  libinit2.o(.ARM.Collect$$libinit$$00000002)
    .ARM.Collect$$libinit$$00000004          0x080001b0   Section        0  libinit2.o(.ARM.Collect$$libinit$$00000004)
    .ARM.Collect$$libinit$$0000000A          0x080001b0   Section        0  libinit2.o(.ARM.Collect$$libinit$$0000000A)
    .ARM.Collect$$libinit$$0000000C          0x080001b0   Section        0  libinit2.o(.ARM.Collect$$libinit$$0000000C)
    .ARM.Collect$$libinit$$0000000E          0x080001b0   Section        0  libinit2.o(.ARM.Collect$$libinit$$0000000E)
    .ARM.Collect$$libinit$$00000011          0x080001b0   Section        0  libinit2.o(.ARM.Collect$$libinit$$00000011)
    .ARM.Collect$$libinit$$00000013          0x080001b0   Section        0  libinit2.o(.ARM.Collect$$libinit$$00000013)
    .ARM.Collect$$libinit$$00000015          0x080001b0   Section        0  libinit2.o(.ARM.Collect$$libinit$$00000015)
    .ARM.Collect$$libinit$$00000017          0x080001b0   Section        0  libinit2.o(.ARM.Collect$$libinit$$00000017)
    .ARM.Collect$$libinit$$00000019          0x080001b0   Section        0  libinit2.o(.ARM.Collect$$libinit$$00000019)
    .ARM.Collect$$libinit$$0000001B          0x080001b0   Section        0  libinit2.o(.ARM.Collect$$libinit$$0000001B)
    .ARM.Collect$$libinit$$0000001D          0x080001b0   Section        0  libinit2.o(.ARM.Collect$$libinit$$0000001D)
    .ARM.Collect$$libinit$$0000001F          0x080001b0   Section        0  libinit2.o(.ARM.Collect$$libinit$$0000001F)
    .ARM.Collect$$libinit$$00000021          0x080001b0   Section        0  libinit2.o(.ARM.Collect$$libinit$$00000021)
    .ARM.Collect$$libinit$$00000023          0x080001b0   Section        0  libinit2.o(.ARM.Collect$$libinit$$00000023)
    .ARM.Collect$$libinit$$00000025          0x080001b0   Section        0  libinit2.o(.ARM.Collect$$libinit$$00000025)
    .ARM.Collect$$libinit$$0000002C          0x080001b0   Section        0  libinit2.o(.ARM.Collect$$libinit$$0000002C)
    .ARM.Collect$$libinit$$0000002E          0x080001b0   Section        0  libinit2.o(.ARM.Collect$$libinit$$0000002E)
    .ARM.Collect$$libinit$$00000030          0x080001b0   Section        0  libinit2.o(.ARM.Collect$$libinit$$00000030)
    .ARM.Collect$$libinit$$00000032          0x080001b0   Section        0  libinit2.o(.ARM.Collect$$libinit$$00000032)
    .ARM.Collect$$libinit$$00000033          0x080001b0   Section        2  libinit2.o(.ARM.Collect$$libinit$$00000033)
    .ARM.Collect$$libshutdown$$00000000      0x080001b2   Section        2  libshutdown.o(.ARM.Collect$$libshutdown$$00000000)
    .ARM.Collect$$libshutdown$$00000002      0x080001b4   Section        0  libshutdown2.o(.ARM.Collect$$libshutdown$$00000002)
    .ARM.Collect$$libshutdown$$00000004      0x080001b4   Section        0  libshutdown2.o(.ARM.Collect$$libshutdown$$00000004)
    .ARM.Collect$$libshutdown$$00000007      0x080001b4   Section        0  libshutdown2.o(.ARM.Collect$$libshutdown$$00000007)
    .ARM.Collect$$libshutdown$$0000000A      0x080001b4   Section        0  libshutdown2.o(.ARM.Collect$$libshutdown$$0000000A)
    .ARM.Collect$$libshutdown$$0000000C      0x080001b4   Section        0  libshutdown2.o(.ARM.Collect$$libshutdown$$0000000C)
    .ARM.Collect$$libshutdown$$0000000F      0x080001b4   Section        0  libshutdown2.o(.ARM.Collect$$libshutdown$$0000000F)
    .ARM.Collect$$libshutdown$$00000010      0x080001b4   Section        2  libshutdown2.o(.ARM.Collect$$libshutdown$$00000010)
    .ARM.Collect$$rtentry$$00000000          0x080001b6   Section        0  __rtentry.o(.ARM.Collect$$rtentry$$00000000)
    .ARM.Collect$$rtentry$$00000002          0x080001b6   Section        0  __rtentry2.o(.ARM.Collect$$rtentry$$00000002)
    .ARM.Collect$$rtentry$$00000004          0x080001b6   Section        6  __rtentry4.o(.ARM.Collect$$rtentry$$00000004)
    .ARM.Collect$$rtentry$$00000009          0x080001bc   Section        0  __rtentry2.o(.ARM.Collect$$rtentry$$00000009)
    .ARM.Collect$$rtentry$$0000000A          0x080001bc   Section        4  __rtentry2.o(.ARM.Collect$$rtentry$$0000000A)
    .ARM.Collect$$rtentry$$0000000C          0x080001c0   Section        0  __rtentry2.o(.ARM.Collect$$rtentry$$0000000C)
    .ARM.Collect$$rtentry$$0000000D          0x080001c0   Section        8  __rtentry2.o(.ARM.Collect$$rtentry$$0000000D)
    .ARM.Collect$$rtexit$$00000000           0x080001c8   Section        2  rtexit.o(.ARM.Collect$$rtexit$$00000000)
    .ARM.Collect$$rtexit$$00000002           0x080001ca   Section        0  rtexit2.o(.ARM.Collect$$rtexit$$00000002)
    .ARM.Collect$$rtexit$$00000003           0x080001ca   Section        4  rtexit2.o(.ARM.Collect$$rtexit$$00000003)
    .ARM.Collect$$rtexit$$00000004           0x080001ce   Section        6  rtexit2.o(.ARM.Collect$$rtexit$$00000004)
    .text                                    0x080001d4   Section       64  startup_stm32f10x_hd.o(.text)
    .text                                    0x08000214   Section        2  use_no_semi_2.o(.text)
    .text                                    0x08000216   Section       72  llsdiv.o(.text)
    .text                                    0x08000260   Section        0  noretval__2printf.o(.text)
    .text                                    0x08000278   Section        0  _printf_dec.o(.text)
    .text                                    0x080002f0   Section        0  __printf_flags_wp.o(.text)
    .text                                    0x08000428   Section        0  memcmp.o(.text)
    .text                                    0x08000480   Section       16  aeabi_memset.o(.text)
    .text                                    0x08000490   Section        0  heapauxi.o(.text)
    .text                                    0x08000496   Section        2  use_no_semi.o(.text)
    .text                                    0x08000498   Section      238  lludivv7m.o(.text)
    .text                                    0x08000586   Section        0  _rserrno.o(.text)
    .text                                    0x0800059c   Section        0  _printf_intcommon.o(.text)
    .text                                    0x08000650   Section        0  _printf_char_file.o(.text)
    .text                                    0x08000674   Section       68  rt_memclr.o(.text)
    .text                                    0x080006b8   Section        8  rt_errno_addr_intlibspace.o(.text)
    .text                                    0x080006c0   Section        0  _printf_char_common.o(.text)
    _printf_input_char                       0x080006c1   Thumb Code    10  _printf_char_common.o(.text)
    .text                                    0x080006f0   Section        0  ferror.o(.text)
    .text                                    0x080006f8   Section       78  rt_memclr_w.o(.text)
    .text                                    0x08000748   Section        8  libspace.o(.text)
    .text                                    0x08000750   Section       74  sys_stackheap_outer.o(.text)
    .text                                    0x0800079a   Section        0  exit.o(.text)
    i.BusFault_Handler                       0x080007ac   Section        0  stm32f10x_it.o(i.BusFault_Handler)
    i.DATA_Report                            0x080007b0   Section        0  main.o(i.DATA_Report)
    i.DebugMon_Handler                       0x0800082c   Section        0  stm32f10x_it.o(i.DebugMon_Handler)
    i.GPIO_Init                              0x0800082e   Section        0  stm32f10x_gpio.o(i.GPIO_Init)
    i.GPIO_SetBits                           0x08000944   Section        0  stm32f10x_gpio.o(i.GPIO_SetBits)
    i.HardFault_Handler                      0x08000948   Section        0  stm32f10x_it.o(i.HardFault_Handler)
    i.LED_Init                               0x0800094c   Section        0  led.o(i.LED_Init)
    i.MPU_Get_Accelerometer                  0x0800099c   Section        0  mpu6050.o(i.MPU_Get_Accelerometer)
    i.MPU_Get_Gyroscope                      0x080009ec   Section        0  mpu6050.o(i.MPU_Get_Gyroscope)
    i.MPU_Get_Temperature                    0x08000a3c   Section        0  mpu6050.o(i.MPU_Get_Temperature)
    i.MPU_IIC_Ack                            0x08000aa4   Section        0  mpuiic.o(i.MPU_IIC_Ack)
    i.MPU_IIC_Delay                          0x08000af0   Section        0  mpuiic.o(i.MPU_IIC_Delay)
    i.MPU_IIC_Init                           0x08000afc   Section        0  mpuiic.o(i.MPU_IIC_Init)
    i.MPU_IIC_NAck                           0x08000b34   Section        0  mpuiic.o(i.MPU_IIC_NAck)
    i.MPU_IIC_Read_Byte                      0x08000b80   Section        0  mpuiic.o(i.MPU_IIC_Read_Byte)
    i.MPU_IIC_Send_Byte                      0x08000bec   Section        0  mpuiic.o(i.MPU_IIC_Send_Byte)
    i.MPU_IIC_Start                          0x08000c48   Section        0  mpuiic.o(i.MPU_IIC_Start)
    i.MPU_IIC_Stop                           0x08000c90   Section        0  mpuiic.o(i.MPU_IIC_Stop)
    i.MPU_IIC_Wait_Ack                       0x08000cd8   Section        0  mpuiic.o(i.MPU_IIC_Wait_Ack)
    i.MPU_Init                               0x08000d3c   Section        0  mpu6050.o(i.MPU_Init)
    i.MPU_Read                               0x08000db8   Section        0  main.o(i.MPU_Read)
    i.MPU_Read_Byte                          0x08000e30   Section        0  mpu6050.o(i.MPU_Read_Byte)
    i.MPU_Read_Len                           0x08000e6a   Section        0  mpu6050.o(i.MPU_Read_Len)
    i.MPU_Set_Accel_Fsr                      0x08000ede   Section        0  mpu6050.o(i.MPU_Set_Accel_Fsr)
    i.MPU_Set_Gyro_Fsr                       0x08000eee   Section        0  mpu6050.o(i.MPU_Set_Gyro_Fsr)
    i.MPU_Set_LPF                            0x08000efe   Section        0  mpu6050.o(i.MPU_Set_LPF)
    i.MPU_Set_Rate                           0x08000f38   Section        0  mpu6050.o(i.MPU_Set_Rate)
    i.MPU_Write_Byte                         0x08000f72   Section        0  mpu6050.o(i.MPU_Write_Byte)
    i.MPU_Write_Len                          0x08000fb6   Section        0  mpu6050.o(i.MPU_Write_Len)
    i.MemManage_Handler                      0x08001016   Section        0  stm32f10x_it.o(i.MemManage_Handler)
    i.NMI_Handler                            0x0800101a   Section        0  stm32f10x_it.o(i.NMI_Handler)
    i.NVIC_Init                              0x0800101c   Section        0  misc.o(i.NVIC_Init)
    i.NVIC_PriorityGroupConfig               0x0800108c   Section        0  misc.o(i.NVIC_PriorityGroupConfig)
    i.PendSV_Handler                         0x080010a0   Section        0  stm32f10x_it.o(i.PendSV_Handler)
    i.RCC_APB2PeriphClockCmd                 0x080010a4   Section        0  stm32f10x_rcc.o(i.RCC_APB2PeriphClockCmd)
    i.RCC_GetClocksFreq                      0x080010c4   Section        0  stm32f10x_rcc.o(i.RCC_GetClocksFreq)
    i.SVC_Handler                            0x08001198   Section        0  stm32f10x_it.o(i.SVC_Handler)
    i.SYS_Init                               0x0800119c   Section        0  main.o(i.SYS_Init)
    i.SetSysClock                            0x08001280   Section        0  system_stm32f10x.o(i.SetSysClock)
    SetSysClock                              0x08001281   Thumb Code     8  system_stm32f10x.o(i.SetSysClock)
    i.SetSysClockTo72                        0x08001288   Section        0  system_stm32f10x.o(i.SetSysClockTo72)
    SetSysClockTo72                          0x08001289   Thumb Code   214  system_stm32f10x.o(i.SetSysClockTo72)
    i.SysTick_CLKSourceConfig                0x08001368   Section        0  misc.o(i.SysTick_CLKSourceConfig)
    i.SysTick_Handler                        0x08001390   Section        0  stm32f10x_it.o(i.SysTick_Handler)
    i.SystemInit                             0x08001394   Section        0  system_stm32f10x.o(i.SystemInit)
    i.USART1_IRQHandler                      0x080013f4   Section        0  usart.o(i.USART1_IRQHandler)
    i.USART_Cmd                              0x0800147c   Section        0  stm32f10x_usart.o(i.USART_Cmd)
    i.USART_GetITStatus                      0x08001494   Section        0  stm32f10x_usart.o(i.USART_GetITStatus)
    i.USART_ITConfig                         0x080014e8   Section        0  stm32f10x_usart.o(i.USART_ITConfig)
    i.USART_Init                             0x08001534   Section        0  stm32f10x_usart.o(i.USART_Init)
    i.USART_ReceiveData                      0x0800160c   Section        0  stm32f10x_usart.o(i.USART_ReceiveData)
    i.UsageFault_Handler                     0x08001616   Section        0  stm32f10x_it.o(i.UsageFault_Handler)
    i.__ARM_fpclassify                       0x0800161a   Section        0  fpclassify.o(i.__ARM_fpclassify)
    i.__kernel_poly                          0x08001642   Section        0  poly.o(i.__kernel_poly)
    i.__mathlib_dbl_infnan                   0x080016ec   Section        0  dunder.o(i.__mathlib_dbl_infnan)
    i.__mathlib_dbl_infnan2                  0x080016f2   Section        0  dunder.o(i.__mathlib_dbl_infnan2)
    i.__mathlib_dbl_invalid                  0x080016f6   Section        0  dunder.o(i.__mathlib_dbl_invalid)
    i.__mathlib_dbl_underflow                0x08001704   Section        0  dunder.o(i.__mathlib_dbl_underflow)
    i._is_digit                              0x08001714   Section        0  __printf_wp.o(i._is_digit)
    i._sys_exit                              0x08001722   Section        0  usart.o(i._sys_exit)
    i.accel_self_test                        0x08001728   Section        0  inv_mpu.o(i.accel_self_test)
    accel_self_test                          0x08001729   Thumb Code   164  inv_mpu.o(i.accel_self_test)
    i.asin                                   0x080017d0   Section        0  asin.o(i.asin)
    i.atan                                   0x08001a40   Section        0  atan.o(i.atan)
    i.atan2                                  0x08001c60   Section        0  atan2.o(i.atan2)
    i.decode_gesture                         0x08001de0   Section        0  inv_mpu_dmp_motion_driver.o(i.decode_gesture)
    decode_gesture                           0x08001de1   Thumb Code    94  inv_mpu_dmp_motion_driver.o(i.decode_gesture)
    i.delay_init                             0x08001e44   Section        0  delay.o(i.delay_init)
    i.delay_ms                               0x08001e88   Section        0  delay.o(i.delay_ms)
    i.delay_us                               0x08001ed4   Section        0  delay.o(i.delay_us)
    i.dmp_enable_6x_lp_quat                  0x08001f20   Section        0  inv_mpu_dmp_motion_driver.o(i.dmp_enable_6x_lp_quat)
    i.dmp_enable_feature                     0x08001f5c   Section        0  inv_mpu_dmp_motion_driver.o(i.dmp_enable_feature)
    i.dmp_enable_gyro_cal                    0x08002178   Section        0  inv_mpu_dmp_motion_driver.o(i.dmp_enable_gyro_cal)
    i.dmp_enable_lp_quat                     0x080021d0   Section        0  inv_mpu_dmp_motion_driver.o(i.dmp_enable_lp_quat)
    i.dmp_load_motion_driver_firmware        0x0800220c   Section        0  inv_mpu_dmp_motion_driver.o(i.dmp_load_motion_driver_firmware)
    i.dmp_read_fifo                          0x08002224   Section        0  inv_mpu_dmp_motion_driver.o(i.dmp_read_fifo)
    i.dmp_set_accel_bias                     0x080023f0   Section        0  inv_mpu_dmp_motion_driver.o(i.dmp_set_accel_bias)
    i.dmp_set_fifo_rate                      0x08002520   Section        0  inv_mpu_dmp_motion_driver.o(i.dmp_set_fifo_rate)
    i.dmp_set_gyro_bias                      0x08002590   Section        0  inv_mpu_dmp_motion_driver.o(i.dmp_set_gyro_bias)
    i.dmp_set_orientation                    0x080026c0   Section        0  inv_mpu_dmp_motion_driver.o(i.dmp_set_orientation)
    i.dmp_set_shake_reject_thresh            0x080027f8   Section        0  inv_mpu_dmp_motion_driver.o(i.dmp_set_shake_reject_thresh)
    i.dmp_set_shake_reject_time              0x08002830   Section        0  inv_mpu_dmp_motion_driver.o(i.dmp_set_shake_reject_time)
    i.dmp_set_shake_reject_timeout           0x08002856   Section        0  inv_mpu_dmp_motion_driver.o(i.dmp_set_shake_reject_timeout)
    i.dmp_set_tap_axes                       0x0800287c   Section        0  inv_mpu_dmp_motion_driver.o(i.dmp_set_tap_axes)
    i.dmp_set_tap_count                      0x080028c2   Section        0  inv_mpu_dmp_motion_driver.o(i.dmp_set_tap_count)
    i.dmp_set_tap_thresh                     0x080028e8   Section        0  inv_mpu_dmp_motion_driver.o(i.dmp_set_tap_thresh)
    i.dmp_set_tap_time                       0x08002a88   Section        0  inv_mpu_dmp_motion_driver.o(i.dmp_set_tap_time)
    i.dmp_set_tap_time_multi                 0x08002aae   Section        0  inv_mpu_dmp_motion_driver.o(i.dmp_set_tap_time_multi)
    i.fputc                                  0x08002ad4   Section        0  usart.o(i.fputc)
    i.get_accel_prod_shift                   0x08002af0   Section        0  inv_mpu.o(i.get_accel_prod_shift)
    get_accel_prod_shift                     0x08002af1   Thumb Code   168  inv_mpu.o(i.get_accel_prod_shift)
    i.get_st_biases                          0x08002ba4   Section        0  inv_mpu.o(i.get_st_biases)
    get_st_biases                            0x08002ba5   Thumb Code  1132  inv_mpu.o(i.get_st_biases)
    i.gyro_self_test                         0x08003014   Section        0  inv_mpu.o(i.gyro_self_test)
    gyro_self_test                           0x08003015   Thumb Code   256  inv_mpu.o(i.gyro_self_test)
    i.inv_orientation_matrix_to_scalar       0x08003124   Section        0  inv_mpu.o(i.inv_orientation_matrix_to_scalar)
    i.inv_row_2_scale                        0x0800314c   Section        0  inv_mpu.o(i.inv_row_2_scale)
    i.main                                   0x0800319a   Section        0  main.o(i.main)
    i.mget_ms                                0x080031aa   Section        0  inv_mpu.o(i.mget_ms)
    i.mpu_configure_fifo                     0x080031ac   Section        0  inv_mpu.o(i.mpu_configure_fifo)
    i.mpu_dmp_get_data                       0x0800321c   Section        0  inv_mpu.o(i.mpu_dmp_get_data)
    i.mpu_dmp_init                           0x08003440   Section        0  inv_mpu.o(i.mpu_dmp_init)
    i.mpu_get_accel_fsr                      0x080034e0   Section        0  inv_mpu.o(i.mpu_get_accel_fsr)
    i.mpu_get_accel_sens                     0x0800352c   Section        0  inv_mpu.o(i.mpu_get_accel_sens)
    i.mpu_get_fifo_config                    0x08003580   Section        0  inv_mpu.o(i.mpu_get_fifo_config)
    i.mpu_get_gyro_fsr                       0x08003590   Section        0  inv_mpu.o(i.mpu_get_gyro_fsr)
    i.mpu_get_gyro_sens                      0x080035d4   Section        0  inv_mpu.o(i.mpu_get_gyro_sens)
    i.mpu_get_lpf                            0x08003624   Section        0  inv_mpu.o(i.mpu_get_lpf)
    i.mpu_get_sample_rate                    0x08003674   Section        0  inv_mpu.o(i.mpu_get_sample_rate)
    i.mpu_init                               0x08003694   Section        0  inv_mpu.o(i.mpu_init)
    i.mpu_load_firmware                      0x08003884   Section        0  inv_mpu.o(i.mpu_load_firmware)
    i.mpu_lp_accel_mode                      0x0800393c   Section        0  inv_mpu.o(i.mpu_lp_accel_mode)
    i.mpu_read_fifo_stream                   0x08003a1c   Section        0  inv_mpu.o(i.mpu_read_fifo_stream)
    i.mpu_read_mem                           0x08003adc   Section        0  inv_mpu.o(i.mpu_read_mem)
    i.mpu_reset_fifo                         0x08003b5c   Section        0  inv_mpu.o(i.mpu_reset_fifo)
    i.mpu_run_self_test                      0x08003d24   Section        0  inv_mpu.o(i.mpu_run_self_test)
    i.mpu_set_accel_fsr                      0x08003e40   Section        0  inv_mpu.o(i.mpu_set_accel_fsr)
    i.mpu_set_bypass                         0x08003ec4   Section        0  inv_mpu.o(i.mpu_set_bypass)
    i.mpu_set_dmp_state                      0x08004010   Section        0  inv_mpu.o(i.mpu_set_dmp_state)
    i.mpu_set_gyro_fsr                       0x080040a0   Section        0  inv_mpu.o(i.mpu_set_gyro_fsr)
    i.mpu_set_int_latched                    0x08004128   Section        0  inv_mpu.o(i.mpu_set_int_latched)
    i.mpu_set_lpf                            0x08004194   Section        0  inv_mpu.o(i.mpu_set_lpf)
    i.mpu_set_sample_rate                    0x08004218   Section        0  inv_mpu.o(i.mpu_set_sample_rate)
    i.mpu_set_sensors                        0x080042b4   Section        0  inv_mpu.o(i.mpu_set_sensors)
    i.mpu_write_mem                          0x08004384   Section        0  inv_mpu.o(i.mpu_write_mem)
    i.run_self_test                          0x08004404   Section        0  inv_mpu.o(i.run_self_test)
    i.set_int_enable                         0x08004498   Section        0  inv_mpu.o(i.set_int_enable)
    set_int_enable                           0x08004499   Thumb Code   138  inv_mpu.o(i.set_int_enable)
    i.sqrt                                   0x08004528   Section        0  sqrt.o(i.sqrt)
    i.uart_init                              0x08004574   Section        0  usart.o(i.uart_init)
    x$fpl$d2f                                0x08004614   Section       98  d2f.o(x$fpl$d2f)
    x$fpl$dadd                               0x08004678   Section      336  daddsub_clz.o(x$fpl$dadd)
    _dadd1                                   0x08004689   Thumb Code     0  daddsub_clz.o(x$fpl$dadd)
    x$fpl$dcheck1                            0x080047c8   Section       16  dcheck1.o(x$fpl$dcheck1)
    x$fpl$ddiv                               0x080047d8   Section      688  ddiv.o(x$fpl$ddiv)
    ddiv_entry                               0x080047df   Thumb Code     0  ddiv.o(x$fpl$ddiv)
    x$fpl$dflt                               0x08004a88   Section       46  dflt_clz.o(x$fpl$dflt)
    x$fpl$dmul                               0x08004ab8   Section      340  dmul.o(x$fpl$dmul)
    x$fpl$dnaninf                            0x08004c0c   Section      156  dnaninf.o(x$fpl$dnaninf)
    x$fpl$dretinf                            0x08004ca8   Section       12  dretinf.o(x$fpl$dretinf)
    x$fpl$drsb                               0x08004cb4   Section       22  daddsub_clz.o(x$fpl$drsb)
    x$fpl$dsqrt                              0x08004ccc   Section      460  dsqrt_noumaal.o(x$fpl$dsqrt)
    x$fpl$dsub                               0x08004e98   Section      468  daddsub_clz.o(x$fpl$dsub)
    _dsub1                                   0x08004ea9   Thumb Code     0  daddsub_clz.o(x$fpl$dsub)
    x$fpl$f2d                                0x0800506c   Section       86  f2d.o(x$fpl$f2d)
    x$fpl$fadd                               0x080050c4   Section      196  faddsub_clz.o(x$fpl$fadd)
    _fadd1                                   0x080050d3   Thumb Code     0  faddsub_clz.o(x$fpl$fadd)
    x$fpl$fcmpinf                            0x08005188   Section       24  fcmpi.o(x$fpl$fcmpinf)
    x$fpl$fdiv                               0x080051a0   Section      388  fdiv.o(x$fpl$fdiv)
    _fdiv1                                   0x080051a1   Thumb Code     0  fdiv.o(x$fpl$fdiv)
    x$fpl$feqf                               0x08005324   Section      104  feqf.o(x$fpl$feqf)
    x$fpl$ffix                               0x0800538c   Section       54  ffix.o(x$fpl$ffix)
    x$fpl$ffixu                              0x080053c4   Section       62  ffixu.o(x$fpl$ffixu)
    x$fpl$fflt                               0x08005404   Section       48  fflt_clz.o(x$fpl$fflt)
    x$fpl$ffltu                              0x08005434   Section       38  fflt_clz.o(x$fpl$ffltu)
    x$fpl$fleqf                              0x0800545c   Section      104  fleqf.o(x$fpl$fleqf)
    x$fpl$fmul                               0x080054c4   Section      258  fmul.o(x$fpl$fmul)
    x$fpl$fnaninf                            0x080055c6   Section      140  fnaninf.o(x$fpl$fnaninf)
    x$fpl$fretinf                            0x08005652   Section       10  fretinf.o(x$fpl$fretinf)
    x$fpl$frleqf                             0x0800565c   Section       98  frleqf.o(x$fpl$frleqf)
    x$fpl$fsub                               0x080056c0   Section      234  faddsub_clz.o(x$fpl$fsub)
    _fsub1                                   0x080056cf   Thumb Code     0  faddsub_clz.o(x$fpl$fsub)
    x$fpl$retnan                             0x080057aa   Section      100  retnan.o(x$fpl$retnan)
    x$fpl$scalbn                             0x0800580e   Section       92  scalbn.o(x$fpl$scalbn)
    x$fpl$trapveneer                         0x0800586a   Section       48  trapv.o(x$fpl$trapveneer)
    x$fpl$usenofp                            0x0800589a   Section        0  usenofp.o(x$fpl$usenofp)
    .constdata                               0x0800589c   Section       80  inv_mpu.o(.constdata)
    .constdata                               0x080058ec   Section     3062  inv_mpu_dmp_motion_driver.o(.constdata)
    dmp_memory                               0x080058ec   Data        3062  inv_mpu_dmp_motion_driver.o(.constdata)
    .constdata                               0x080064e2   Section       17  __printf_flags_wp.o(.constdata)
    maptable                                 0x080064e2   Data          17  __printf_flags_wp.o(.constdata)
    .constdata                               0x080064f8   Section       80  asin.o(.constdata)
    pS                                       0x080064f8   Data          48  asin.o(.constdata)
    qS                                       0x08006528   Data          32  asin.o(.constdata)
    .constdata                               0x08006548   Section      152  atan.o(.constdata)
    atanhi                                   0x08006548   Data          32  atan.o(.constdata)
    atanlo                                   0x08006568   Data          32  atan.o(.constdata)
    aTodd                                    0x08006588   Data          40  atan.o(.constdata)
    aTeven                                   0x080065b0   Data          48  atan.o(.constdata)
    .constdata                               0x080065e0   Section        8  qnan.o(.constdata)
    .conststring                             0x080065e8   Section       77  inv_mpu.o(.conststring)
    .data                                    0x20000000   Section       28  main.o(.data)
    .data                                    0x2000001c   Section       20  system_stm32f10x.o(.data)
    .data                                    0x20000030   Section       53  inv_mpu.o(.data)
    st                                       0x20000030   Data          44  inv_mpu.o(.data)
    gyro_orientation                         0x2000005c   Data           9  inv_mpu.o(.data)
    .data                                    0x20000066   Section        4  delay.o(.data)
    fac_us                                   0x20000066   Data           1  delay.o(.data)
    fac_ms                                   0x20000068   Data           2  delay.o(.data)
    .data                                    0x2000006c   Section        6  usart.o(.data)
    .data                                    0x20000072   Section       20  stm32f10x_rcc.o(.data)
    APBAHBPrescTable                         0x20000072   Data          16  stm32f10x_rcc.o(.data)
    ADCPrescTable                            0x20000082   Data           4  stm32f10x_rcc.o(.data)
    .bss                                     0x20000088   Section       16  inv_mpu_dmp_motion_driver.o(.bss)
    dmp                                      0x20000088   Data          16  inv_mpu_dmp_motion_driver.o(.bss)
    .bss                                     0x20000098   Section      200  usart.o(.bss)
    .bss                                     0x20000160   Section       96  libspace.o(.bss)
    HEAP                                     0x200001c0   Section      512  startup_stm32f10x_hd.o(HEAP)
    Heap_Mem                                 0x200001c0   Data         512  startup_stm32f10x_hd.o(HEAP)
    STACK                                    0x200003c0   Section     1024  startup_stm32f10x_hd.o(STACK)
    Stack_Mem                                0x200003c0   Data        1024  startup_stm32f10x_hd.o(STACK)
    __initial_sp                             0x200007c0   Data           0  startup_stm32f10x_hd.o(STACK)

    Global Symbols

    Symbol Name                              Value     Ov Type        Size  Object(Section)

    BuildAttributes$$THM_ISAv4$P$D$K$B$S$PE$A:L22UL41UL21$X:L11$S22US41US21$IEEE1$IW$USESV6$~STKCKD$USESV7$~SHL$OTIME$ROPI$IEEEX$EBA8$UX$STANDARDLIB$REQ8$PRES8$EABIv2 0x00000000   Number         0  anon$$obj.o ABSOLUTE
    __ARM_use_no_argv                        0x00000000   Number         0  main.o ABSOLUTE
    _printf_flags                            0x00000000   Number         0  printf_stubs.o ABSOLUTE
    _printf_return_value                     0x00000000   Number         0  printf_stubs.o ABSOLUTE
    _printf_sizespec                         0x00000000   Number         0  printf_stubs.o ABSOLUTE
    _printf_widthprec                        0x00000000   Number         0  printf_stubs.o ABSOLUTE
    __ARM_exceptions_init                     - Undefined Weak Reference
    __alloca_initialize                       - Undefined Weak Reference
    __arm_preinit_                            - Undefined Weak Reference
    __cpp_initialize__aeabi_                  - Undefined Weak Reference
    __cxa_finalize                            - Undefined Weak Reference
    __rt_locale                               - Undefined Weak Reference
    __sigvec_lookup                           - Undefined Weak Reference
    _atexit_init                              - Undefined Weak Reference
    _call_atexit_fns                          - Undefined Weak Reference
    _clock_init                               - Undefined Weak Reference
    _fp_trap_init                             - Undefined Weak Reference
    _fp_trap_shutdown                         - Undefined Weak Reference
    _get_lc_collate                           - Undefined Weak Reference
    _get_lc_ctype                             - Undefined Weak Reference
    _get_lc_monetary                          - Undefined Weak Reference
    _get_lc_numeric                           - Undefined Weak Reference
    _get_lc_time                              - Undefined Weak Reference
    _getenv_init                              - Undefined Weak Reference
    _handle_redirection                       - Undefined Weak Reference
    _init_alloc                               - Undefined Weak Reference
    _init_user_alloc                          - Undefined Weak Reference
    _initio                                   - Undefined Weak Reference
    _mutex_acquire                            - Undefined Weak Reference
    _mutex_release                            - Undefined Weak Reference
    _printf_truncate_signed                   - Undefined Weak Reference
    _printf_truncate_unsigned                 - Undefined Weak Reference
    _rand_init                                - Undefined Weak Reference
    _signal_finish                            - Undefined Weak Reference
    _signal_init                              - Undefined Weak Reference
    _terminate_alloc                          - Undefined Weak Reference
    _terminate_user_alloc                     - Undefined Weak Reference
    _terminateio                              - Undefined Weak Reference
    __Vectors_Size                           0x00000130   Number         0  startup_stm32f10x_hd.o ABSOLUTE
    __Vectors                                0x08000000   Data           4  startup_stm32f10x_hd.o(RESET)
    __Vectors_End                            0x08000130   Data           0  startup_stm32f10x_hd.o(RESET)
    __main                                   0x08000131   Thumb Code     8  __main.o(!!!main)
    __scatterload                            0x08000139   Thumb Code     0  __scatter.o(!!!scatter)
    __scatterload_rt2                        0x08000139   Thumb Code    44  __scatter.o(!!!scatter)
    __scatterload_rt2_thumb_only             0x08000139   Thumb Code     0  __scatter.o(!!!scatter)
    __scatterload_null                       0x08000147   Thumb Code     0  __scatter.o(!!!scatter)
    __scatterload_copy                       0x0800016d   Thumb Code    26  __scatter_copy.o(!!handler_copy)
    __scatterload_zeroinit                   0x08000189   Thumb Code    28  __scatter_zi.o(!!handler_zi)
    _printf_d                                0x080001a5   Thumb Code     0  _printf_d.o(.ARM.Collect$$_printf_percent$$00000009)
    _printf_percent                          0x080001a5   Thumb Code     0  _printf_percent.o(.ARM.Collect$$_printf_percent$$00000000)
    _printf_percent_end                      0x080001ab   Thumb Code     0  _printf_percent_end.o(.ARM.Collect$$_printf_percent$$00000017)
    __rt_lib_init                            0x080001af   Thumb Code     0  libinit.o(.ARM.Collect$$libinit$$00000000)
    __rt_lib_init_alloca_1                   0x080001b1   Thumb Code     0  libinit2.o(.ARM.Collect$$libinit$$0000002E)
    __rt_lib_init_argv_1                     0x080001b1   Thumb Code     0  libinit2.o(.ARM.Collect$$libinit$$0000002C)
    __rt_lib_init_atexit_1                   0x080001b1   Thumb Code     0  libinit2.o(.ARM.Collect$$libinit$$0000001B)
    __rt_lib_init_clock_1                    0x080001b1   Thumb Code     0  libinit2.o(.ARM.Collect$$libinit$$00000021)
    __rt_lib_init_cpp_1                      0x080001b1   Thumb Code     0  libinit2.o(.ARM.Collect$$libinit$$00000032)
    __rt_lib_init_exceptions_1               0x080001b1   Thumb Code     0  libinit2.o(.ARM.Collect$$libinit$$00000030)
    __rt_lib_init_fp_1                       0x080001b1   Thumb Code     0  libinit2.o(.ARM.Collect$$libinit$$00000002)
    __rt_lib_init_fp_trap_1                  0x080001b1   Thumb Code     0  libinit2.o(.ARM.Collect$$libinit$$0000001F)
    __rt_lib_init_getenv_1                   0x080001b1   Thumb Code     0  libinit2.o(.ARM.Collect$$libinit$$00000023)
    __rt_lib_init_heap_1                     0x080001b1   Thumb Code     0  libinit2.o(.ARM.Collect$$libinit$$0000000A)
    __rt_lib_init_lc_collate_1               0x080001b1   Thumb Code     0  libinit2.o(.ARM.Collect$$libinit$$00000011)
    __rt_lib_init_lc_ctype_1                 0x080001b1   Thumb Code     0  libinit2.o(.ARM.Collect$$libinit$$00000013)
    __rt_lib_init_lc_monetary_1              0x080001b1   Thumb Code     0  libinit2.o(.ARM.Collect$$libinit$$00000015)
    __rt_lib_init_lc_numeric_1               0x080001b1   Thumb Code     0  libinit2.o(.ARM.Collect$$libinit$$00000017)
    __rt_lib_init_lc_time_1                  0x080001b1   Thumb Code     0  libinit2.o(.ARM.Collect$$libinit$$00000019)
    __rt_lib_init_preinit_1                  0x080001b1   Thumb Code     0  libinit2.o(.ARM.Collect$$libinit$$00000004)
    __rt_lib_init_rand_1                     0x080001b1   Thumb Code     0  libinit2.o(.ARM.Collect$$libinit$$0000000E)
    __rt_lib_init_return                     0x080001b1   Thumb Code     0  libinit2.o(.ARM.Collect$$libinit$$00000033)
    __rt_lib_init_signal_1                   0x080001b1   Thumb Code     0  libinit2.o(.ARM.Collect$$libinit$$0000001D)
    __rt_lib_init_stdio_1                    0x080001b1   Thumb Code     0  libinit2.o(.ARM.Collect$$libinit$$00000025)
    __rt_lib_init_user_alloc_1               0x080001b1   Thumb Code     0  libinit2.o(.ARM.Collect$$libinit$$0000000C)
    __rt_lib_shutdown                        0x080001b3   Thumb Code     0  libshutdown.o(.ARM.Collect$$libshutdown$$00000000)
    __rt_lib_shutdown_cpp_1                  0x080001b5   Thumb Code     0  libshutdown2.o(.ARM.Collect$$libshutdown$$00000002)
    __rt_lib_shutdown_fp_trap_1              0x080001b5   Thumb Code     0  libshutdown2.o(.ARM.Collect$$libshutdown$$00000007)
    __rt_lib_shutdown_heap_1                 0x080001b5   Thumb Code     0  libshutdown2.o(.ARM.Collect$$libshutdown$$0000000F)
    __rt_lib_shutdown_return                 0x080001b5   Thumb Code     0  libshutdown2.o(.ARM.Collect$$libshutdown$$00000010)
    __rt_lib_shutdown_signal_1               0x080001b5   Thumb Code     0  libshutdown2.o(.ARM.Collect$$libshutdown$$0000000A)
    __rt_lib_shutdown_stdio_1                0x080001b5   Thumb Code     0  libshutdown2.o(.ARM.Collect$$libshutdown$$00000004)
    __rt_lib_shutdown_user_alloc_1           0x080001b5   Thumb Code     0  libshutdown2.o(.ARM.Collect$$libshutdown$$0000000C)
    __rt_entry                               0x080001b7   Thumb Code     0  __rtentry.o(.ARM.Collect$$rtentry$$00000000)
    __rt_entry_presh_1                       0x080001b7   Thumb Code     0  __rtentry2.o(.ARM.Collect$$rtentry$$00000002)
    __rt_entry_sh                            0x080001b7   Thumb Code     0  __rtentry4.o(.ARM.Collect$$rtentry$$00000004)
    __rt_entry_li                            0x080001bd   Thumb Code     0  __rtentry2.o(.ARM.Collect$$rtentry$$0000000A)
    __rt_entry_postsh_1                      0x080001bd   Thumb Code     0  __rtentry2.o(.ARM.Collect$$rtentry$$00000009)
    __rt_entry_main                          0x080001c1   Thumb Code     0  __rtentry2.o(.ARM.Collect$$rtentry$$0000000D)
    __rt_entry_postli_1                      0x080001c1   Thumb Code     0  __rtentry2.o(.ARM.Collect$$rtentry$$0000000C)
    __rt_exit                                0x080001c9   Thumb Code     0  rtexit.o(.ARM.Collect$$rtexit$$00000000)
    __rt_exit_ls                             0x080001cb   Thumb Code     0  rtexit2.o(.ARM.Collect$$rtexit$$00000003)
    __rt_exit_prels_1                        0x080001cb   Thumb Code     0  rtexit2.o(.ARM.Collect$$rtexit$$00000002)
    __rt_exit_exit                           0x080001cf   Thumb Code     0  rtexit2.o(.ARM.Collect$$rtexit$$00000004)
    Reset_Handler                            0x080001d5   Thumb Code     8  startup_stm32f10x_hd.o(.text)
    ADC1_2_IRQHandler                        0x080001ef   Thumb Code     0  startup_stm32f10x_hd.o(.text)
    ADC3_IRQHandler                          0x080001ef   Thumb Code     0  startup_stm32f10x_hd.o(.text)
    CAN1_RX1_IRQHandler                      0x080001ef   Thumb Code     0  startup_stm32f10x_hd.o(.text)
    CAN1_SCE_IRQHandler                      0x080001ef   Thumb Code     0  startup_stm32f10x_hd.o(.text)
    DMA1_Channel1_IRQHandler                 0x080001ef   Thumb Code     0  startup_stm32f10x_hd.o(.text)
    DMA1_Channel2_IRQHandler                 0x080001ef   Thumb Code     0  startup_stm32f10x_hd.o(.text)
    DMA1_Channel3_IRQHandler                 0x080001ef   Thumb Code     0  startup_stm32f10x_hd.o(.text)
    DMA1_Channel4_IRQHandler                 0x080001ef   Thumb Code     0  startup_stm32f10x_hd.o(.text)
    DMA1_Channel5_IRQHandler                 0x080001ef   Thumb Code     0  startup_stm32f10x_hd.o(.text)
    DMA1_Channel6_IRQHandler                 0x080001ef   Thumb Code     0  startup_stm32f10x_hd.o(.text)
    DMA1_Channel7_IRQHandler                 0x080001ef   Thumb Code     0  startup_stm32f10x_hd.o(.text)
    DMA2_Channel1_IRQHandler                 0x080001ef   Thumb Code     0  startup_stm32f10x_hd.o(.text)
    DMA2_Channel2_IRQHandler                 0x080001ef   Thumb Code     0  startup_stm32f10x_hd.o(.text)
    DMA2_Channel3_IRQHandler                 0x080001ef   Thumb Code     0  startup_stm32f10x_hd.o(.text)
    DMA2_Channel4_5_IRQHandler               0x080001ef   Thumb Code     0  startup_stm32f10x_hd.o(.text)
    EXTI0_IRQHandler                         0x080001ef   Thumb Code     0  startup_stm32f10x_hd.o(.text)
    EXTI15_10_IRQHandler                     0x080001ef   Thumb Code     0  startup_stm32f10x_hd.o(.text)
    EXTI1_IRQHandler                         0x080001ef   Thumb Code     0  startup_stm32f10x_hd.o(.text)
    EXTI2_IRQHandler                         0x080001ef   Thumb Code     0  startup_stm32f10x_hd.o(.text)
    EXTI3_IRQHandler                         0x080001ef   Thumb Code     0  startup_stm32f10x_hd.o(.text)
    EXTI4_IRQHandler                         0x080001ef   Thumb Code     0  startup_stm32f10x_hd.o(.text)
    EXTI9_5_IRQHandler                       0x080001ef   Thumb Code     0  startup_stm32f10x_hd.o(.text)
    FLASH_IRQHandler                         0x080001ef   Thumb Code     0  startup_stm32f10x_hd.o(.text)
    FSMC_IRQHandler                          0x080001ef   Thumb Code     0  startup_stm32f10x_hd.o(.text)
    I2C1_ER_IRQHandler                       0x080001ef   Thumb Code     0  startup_stm32f10x_hd.o(.text)
    I2C1_EV_IRQHandler                       0x080001ef   Thumb Code     0  startup_stm32f10x_hd.o(.text)
    I2C2_ER_IRQHandler                       0x080001ef   Thumb Code     0  startup_stm32f10x_hd.o(.text)
    I2C2_EV_IRQHandler                       0x080001ef   Thumb Code     0  startup_stm32f10x_hd.o(.text)
    PVD_IRQHandler                           0x080001ef   Thumb Code     0  startup_stm32f10x_hd.o(.text)
    RCC_IRQHandler                           0x080001ef   Thumb Code     0  startup_stm32f10x_hd.o(.text)
    RTCAlarm_IRQHandler                      0x080001ef   Thumb Code     0  startup_stm32f10x_hd.o(.text)
    RTC_IRQHandler                           0x080001ef   Thumb Code     0  startup_stm32f10x_hd.o(.text)
    SDIO_IRQHandler                          0x080001ef   Thumb Code     0  startup_stm32f10x_hd.o(.text)
    SPI1_IRQHandler                          0x080001ef   Thumb Code     0  startup_stm32f10x_hd.o(.text)
    SPI2_IRQHandler                          0x080001ef   Thumb Code     0  startup_stm32f10x_hd.o(.text)
    SPI3_IRQHandler                          0x080001ef   Thumb Code     0  startup_stm32f10x_hd.o(.text)
    TAMPER_IRQHandler                        0x080001ef   Thumb Code     0  startup_stm32f10x_hd.o(.text)
    TIM1_BRK_IRQHandler                      0x080001ef   Thumb Code     0  startup_stm32f10x_hd.o(.text)
    TIM1_CC_IRQHandler                       0x080001ef   Thumb Code     0  startup_stm32f10x_hd.o(.text)
    TIM1_TRG_COM_IRQHandler                  0x080001ef   Thumb Code     0  startup_stm32f10x_hd.o(.text)
    TIM1_UP_IRQHandler                       0x080001ef   Thumb Code     0  startup_stm32f10x_hd.o(.text)
    TIM2_IRQHandler                          0x080001ef   Thumb Code     0  startup_stm32f10x_hd.o(.text)
    TIM3_IRQHandler                          0x080001ef   Thumb Code     0  startup_stm32f10x_hd.o(.text)
    TIM4_IRQHandler                          0x080001ef   Thumb Code     0  startup_stm32f10x_hd.o(.text)
    TIM5_IRQHandler                          0x080001ef   Thumb Code     0  startup_stm32f10x_hd.o(.text)
    TIM6_IRQHandler                          0x080001ef   Thumb Code     0  startup_stm32f10x_hd.o(.text)
    TIM7_IRQHandler                          0x080001ef   Thumb Code     0  startup_stm32f10x_hd.o(.text)
    TIM8_BRK_IRQHandler                      0x080001ef   Thumb Code     0  startup_stm32f10x_hd.o(.text)
    TIM8_CC_IRQHandler                       0x080001ef   Thumb Code     0  startup_stm32f10x_hd.o(.text)
    TIM8_TRG_COM_IRQHandler                  0x080001ef   Thumb Code     0  startup_stm32f10x_hd.o(.text)
    TIM8_UP_IRQHandler                       0x080001ef   Thumb Code     0  startup_stm32f10x_hd.o(.text)
    UART4_IRQHandler                         0x080001ef   Thumb Code     0  startup_stm32f10x_hd.o(.text)
    UART5_IRQHandler                         0x080001ef   Thumb Code     0  startup_stm32f10x_hd.o(.text)
    USART2_IRQHandler                        0x080001ef   Thumb Code     0  startup_stm32f10x_hd.o(.text)
    USART3_IRQHandler                        0x080001ef   Thumb Code     0  startup_stm32f10x_hd.o(.text)
    USBWakeUp_IRQHandler                     0x080001ef   Thumb Code     0  startup_stm32f10x_hd.o(.text)
    USB_HP_CAN1_TX_IRQHandler                0x080001ef   Thumb Code     0  startup_stm32f10x_hd.o(.text)
    USB_LP_CAN1_RX0_IRQHandler               0x080001ef   Thumb Code     0  startup_stm32f10x_hd.o(.text)
    WWDG_IRQHandler                          0x080001ef   Thumb Code     0  startup_stm32f10x_hd.o(.text)
    __user_initial_stackheap                 0x080001f1   Thumb Code     0  startup_stm32f10x_hd.o(.text)
    __use_no_semihosting                     0x08000215   Thumb Code     2  use_no_semi_2.o(.text)
    __aeabi_ldivmod                          0x08000217   Thumb Code     0  llsdiv.o(.text)
    _ll_sdiv                                 0x08000217   Thumb Code    72  llsdiv.o(.text)
    __2printf                                0x08000261   Thumb Code    20  noretval__2printf.o(.text)
    _printf_int_dec                          0x08000279   Thumb Code   104  _printf_dec.o(.text)
    __printf                                 0x080002f1   Thumb Code   308  __printf_flags_wp.o(.text)
    memcmp                                   0x08000429   Thumb Code    88  memcmp.o(.text)
    __aeabi_memset                           0x08000481   Thumb Code    16  aeabi_memset.o(.text)
    __use_two_region_memory                  0x08000491   Thumb Code     2  heapauxi.o(.text)
    __rt_heap_escrow$2region                 0x08000493   Thumb Code     2  heapauxi.o(.text)
    __rt_heap_expand$2region                 0x08000495   Thumb Code     2  heapauxi.o(.text)
    __I$use$semihosting                      0x08000497   Thumb Code     0  use_no_semi.o(.text)
    __use_no_semihosting_swi                 0x08000497   Thumb Code     2  use_no_semi.o(.text)
    __aeabi_uldivmod                         0x08000499   Thumb Code     0  lludivv7m.o(.text)
    _ll_udiv                                 0x08000499   Thumb Code   238  lludivv7m.o(.text)
    __read_errno                             0x08000587   Thumb Code    10  _rserrno.o(.text)
    __set_errno                              0x08000591   Thumb Code    12  _rserrno.o(.text)
    _printf_int_common                       0x0800059d   Thumb Code   178  _printf_intcommon.o(.text)
    _printf_char_file                        0x08000651   Thumb Code    32  _printf_char_file.o(.text)
    __aeabi_memclr                           0x08000675   Thumb Code     0  rt_memclr.o(.text)
    __rt_memclr                              0x08000675   Thumb Code    68  rt_memclr.o(.text)
    _memset                                  0x08000679   Thumb Code     0  rt_memclr.o(.text)
    __aeabi_errno_addr                       0x080006b9   Thumb Code     8  rt_errno_addr_intlibspace.o(.text)
    __errno$intlibspace                      0x080006b9   Thumb Code     0  rt_errno_addr_intlibspace.o(.text)
    __rt_errno_addr$intlibspace              0x080006b9   Thumb Code     0  rt_errno_addr_intlibspace.o(.text)
    _printf_char_common                      0x080006cb   Thumb Code    32  _printf_char_common.o(.text)
    ferror                                   0x080006f1   Thumb Code     8  ferror.o(.text)
    __aeabi_memclr4                          0x080006f9   Thumb Code     0  rt_memclr_w.o(.text)
    __aeabi_memclr8                          0x080006f9   Thumb Code     0  rt_memclr_w.o(.text)
    __rt_memclr_w                            0x080006f9   Thumb Code    78  rt_memclr_w.o(.text)
    _memset_w                                0x080006fd   Thumb Code     0  rt_memclr_w.o(.text)
    __user_libspace                          0x08000749   Thumb Code     8  libspace.o(.text)
    __user_perproc_libspace                  0x08000749   Thumb Code     0  libspace.o(.text)
    __user_perthread_libspace                0x08000749   Thumb Code     0  libspace.o(.text)
    __user_setup_stackheap                   0x08000751   Thumb Code    74  sys_stackheap_outer.o(.text)
    exit                                     0x0800079b   Thumb Code    18  exit.o(.text)
    BusFault_Handler                         0x080007ad   Thumb Code     4  stm32f10x_it.o(i.BusFault_Handler)
    DATA_Report                              0x080007b1   Thumb Code   100  main.o(i.DATA_Report)
    DebugMon_Handler                         0x0800082d   Thumb Code     2  stm32f10x_it.o(i.DebugMon_Handler)
    GPIO_Init                                0x0800082f   Thumb Code   278  stm32f10x_gpio.o(i.GPIO_Init)
    GPIO_SetBits                             0x08000945   Thumb Code     4  stm32f10x_gpio.o(i.GPIO_SetBits)
    HardFault_Handler                        0x08000949   Thumb Code     4  stm32f10x_it.o(i.HardFault_Handler)
    LED_Init                                 0x0800094d   Thumb Code    72  led.o(i.LED_Init)
    MPU_Get_Accelerometer                    0x0800099d   Thumb Code    80  mpu6050.o(i.MPU_Get_Accelerometer)
    MPU_Get_Gyroscope                        0x080009ed   Thumb Code    80  mpu6050.o(i.MPU_Get_Gyroscope)
    MPU_Get_Temperature                      0x08000a3d   Thumb Code    86  mpu6050.o(i.MPU_Get_Temperature)
    MPU_IIC_Ack                              0x08000aa5   Thumb Code    62  mpuiic.o(i.MPU_IIC_Ack)
    MPU_IIC_Delay                            0x08000af1   Thumb Code    10  mpuiic.o(i.MPU_IIC_Delay)
    MPU_IIC_Init                             0x08000afd   Thumb Code    50  mpuiic.o(i.MPU_IIC_Init)
    MPU_IIC_NAck                             0x08000b35   Thumb Code    62  mpuiic.o(i.MPU_IIC_NAck)
    MPU_IIC_Read_Byte                        0x08000b81   Thumb Code    94  mpuiic.o(i.MPU_IIC_Read_Byte)
    MPU_IIC_Send_Byte                        0x08000bed   Thumb Code    80  mpuiic.o(i.MPU_IIC_Send_Byte)
    MPU_IIC_Start                            0x08000c49   Thumb Code    60  mpuiic.o(i.MPU_IIC_Start)
    MPU_IIC_Stop                             0x08000c91   Thumb Code    58  mpuiic.o(i.MPU_IIC_Stop)
    MPU_IIC_Wait_Ack                         0x08000cd9   Thumb Code    86  mpuiic.o(i.MPU_IIC_Wait_Ack)
    MPU_Init                                 0x08000d3d   Thumb Code   122  mpu6050.o(i.MPU_Init)
    MPU_Read                                 0x08000db9   Thumb Code    76  main.o(i.MPU_Read)
    MPU_Read_Byte                            0x08000e31   Thumb Code    58  mpu6050.o(i.MPU_Read_Byte)
    MPU_Read_Len                             0x08000e6b   Thumb Code   116  mpu6050.o(i.MPU_Read_Len)
    MPU_Set_Accel_Fsr                        0x08000edf   Thumb Code    16  mpu6050.o(i.MPU_Set_Accel_Fsr)
    MPU_Set_Gyro_Fsr                         0x08000eef   Thumb Code    16  mpu6050.o(i.MPU_Set_Gyro_Fsr)
    MPU_Set_LPF                              0x08000eff   Thumb Code    58  mpu6050.o(i.MPU_Set_LPF)
    MPU_Set_Rate                             0x08000f39   Thumb Code    58  mpu6050.o(i.MPU_Set_Rate)
    MPU_Write_Byte                           0x08000f73   Thumb Code    68  mpu6050.o(i.MPU_Write_Byte)
    MPU_Write_Len                            0x08000fb7   Thumb Code    96  mpu6050.o(i.MPU_Write_Len)
    MemManage_Handler                        0x08001017   Thumb Code     4  stm32f10x_it.o(i.MemManage_Handler)
    NMI_Handler                              0x0800101b   Thumb Code     2  stm32f10x_it.o(i.NMI_Handler)
    NVIC_Init                                0x0800101d   Thumb Code   100  misc.o(i.NVIC_Init)
    NVIC_PriorityGroupConfig                 0x0800108d   Thumb Code    10  misc.o(i.NVIC_PriorityGroupConfig)
    PendSV_Handler                           0x080010a1   Thumb Code     2  stm32f10x_it.o(i.PendSV_Handler)
    RCC_APB2PeriphClockCmd                   0x080010a5   Thumb Code    26  stm32f10x_rcc.o(i.RCC_APB2PeriphClockCmd)
    RCC_GetClocksFreq                        0x080010c5   Thumb Code   192  stm32f10x_rcc.o(i.RCC_GetClocksFreq)
    SVC_Handler                              0x08001199   Thumb Code     2  stm32f10x_it.o(i.SVC_Handler)
    SYS_Init                                 0x0800119d   Thumb Code   150  main.o(i.SYS_Init)
    SysTick_CLKSourceConfig                  0x08001369   Thumb Code    40  misc.o(i.SysTick_CLKSourceConfig)
    SysTick_Handler                          0x08001391   Thumb Code     2  stm32f10x_it.o(i.SysTick_Handler)
    SystemInit                               0x08001395   Thumb Code    78  system_stm32f10x.o(i.SystemInit)
    USART1_IRQHandler                        0x080013f5   Thumb Code   122  usart.o(i.USART1_IRQHandler)
    USART_Cmd                                0x0800147d   Thumb Code    24  stm32f10x_usart.o(i.USART_Cmd)
    USART_GetITStatus                        0x08001495   Thumb Code    84  stm32f10x_usart.o(i.USART_GetITStatus)
    USART_ITConfig                           0x080014e9   Thumb Code    74  stm32f10x_usart.o(i.USART_ITConfig)
    USART_Init                               0x08001535   Thumb Code   210  stm32f10x_usart.o(i.USART_Init)
    USART_ReceiveData                        0x0800160d   Thumb Code    10  stm32f10x_usart.o(i.USART_ReceiveData)
    UsageFault_Handler                       0x08001617   Thumb Code     4  stm32f10x_it.o(i.UsageFault_Handler)
    __ARM_fpclassify                         0x0800161b   Thumb Code    40  fpclassify.o(i.__ARM_fpclassify)
    __kernel_poly                            0x08001643   Thumb Code   170  poly.o(i.__kernel_poly)
    __mathlib_dbl_infnan                     0x080016ed   Thumb Code     6  dunder.o(i.__mathlib_dbl_infnan)
    __mathlib_dbl_infnan2                    0x080016f3   Thumb Code     4  dunder.o(i.__mathlib_dbl_infnan2)
    __mathlib_dbl_invalid                    0x080016f7   Thumb Code    12  dunder.o(i.__mathlib_dbl_invalid)
    __mathlib_dbl_underflow                  0x08001705   Thumb Code    10  dunder.o(i.__mathlib_dbl_underflow)
    _is_digit                                0x08001715   Thumb Code    14  __printf_wp.o(i._is_digit)
    _sys_exit                                0x08001723   Thumb Code     4  usart.o(i._sys_exit)
    asin                                     0x080017d1   Thumb Code   572  asin.o(i.asin)
    atan                                     0x08001a41   Thumb Code   474  atan.o(i.atan)
    atan2                                    0x08001c61   Thumb Code   346  atan2.o(i.atan2)
    delay_init                               0x08001e45   Thumb Code    50  delay.o(i.delay_init)
    delay_ms                                 0x08001e89   Thumb Code    72  delay.o(i.delay_ms)
    delay_us                                 0x08001ed5   Thumb Code    72  delay.o(i.delay_us)
    dmp_enable_6x_lp_quat                    0x08001f21   Thumb Code    60  inv_mpu_dmp_motion_driver.o(i.dmp_enable_6x_lp_quat)
    dmp_enable_feature                       0x08001f5d   Thumb Code   530  inv_mpu_dmp_motion_driver.o(i.dmp_enable_feature)
    dmp_enable_gyro_cal                      0x08002179   Thumb Code    62  inv_mpu_dmp_motion_driver.o(i.dmp_enable_gyro_cal)
    dmp_enable_lp_quat                       0x080021d1   Thumb Code    60  inv_mpu_dmp_motion_driver.o(i.dmp_enable_lp_quat)
    dmp_load_motion_driver_firmware          0x0800220d   Thumb Code    20  inv_mpu_dmp_motion_driver.o(i.dmp_load_motion_driver_firmware)
    dmp_read_fifo                            0x08002225   Thumb Code   456  inv_mpu_dmp_motion_driver.o(i.dmp_read_fifo)
    dmp_set_accel_bias                       0x080023f1   Thumb Code   300  inv_mpu_dmp_motion_driver.o(i.dmp_set_accel_bias)
    dmp_set_fifo_rate                        0x08002521   Thumb Code    96  inv_mpu_dmp_motion_driver.o(i.dmp_set_fifo_rate)
    dmp_set_gyro_bias                        0x08002591   Thumb Code   294  inv_mpu_dmp_motion_driver.o(i.dmp_set_gyro_bias)
    dmp_set_orientation                      0x080026c1   Thumb Code   290  inv_mpu_dmp_motion_driver.o(i.dmp_set_orientation)
    dmp_set_shake_reject_thresh              0x080027f9   Thumb Code    56  inv_mpu_dmp_motion_driver.o(i.dmp_set_shake_reject_thresh)
    dmp_set_shake_reject_time                0x08002831   Thumb Code    38  inv_mpu_dmp_motion_driver.o(i.dmp_set_shake_reject_time)
    dmp_set_shake_reject_timeout             0x08002857   Thumb Code    38  inv_mpu_dmp_motion_driver.o(i.dmp_set_shake_reject_timeout)
    dmp_set_tap_axes                         0x0800287d   Thumb Code    70  inv_mpu_dmp_motion_driver.o(i.dmp_set_tap_axes)
    dmp_set_tap_count                        0x080028c3   Thumb Code    38  inv_mpu_dmp_motion_driver.o(i.dmp_set_tap_count)
    dmp_set_tap_thresh                       0x080028e9   Thumb Code   396  inv_mpu_dmp_motion_driver.o(i.dmp_set_tap_thresh)
    dmp_set_tap_time                         0x08002a89   Thumb Code    38  inv_mpu_dmp_motion_driver.o(i.dmp_set_tap_time)
    dmp_set_tap_time_multi                   0x08002aaf   Thumb Code    38  inv_mpu_dmp_motion_driver.o(i.dmp_set_tap_time_multi)
    fputc                                    0x08002ad5   Thumb Code    24  usart.o(i.fputc)
    inv_orientation_matrix_to_scalar         0x08003125   Thumb Code    40  inv_mpu.o(i.inv_orientation_matrix_to_scalar)
    inv_row_2_scale                          0x0800314d   Thumb Code    78  inv_mpu.o(i.inv_row_2_scale)
    main                                     0x0800319b   Thumb Code    16  main.o(i.main)
    mget_ms                                  0x080031ab   Thumb Code     2  inv_mpu.o(i.mget_ms)
    mpu_configure_fifo                       0x080031ad   Thumb Code   106  inv_mpu.o(i.mpu_configure_fifo)
    mpu_dmp_get_data                         0x0800321d   Thumb Code   544  inv_mpu.o(i.mpu_dmp_get_data)
    mpu_dmp_init                             0x08003441   Thumb Code   154  inv_mpu.o(i.mpu_dmp_init)
    mpu_get_accel_fsr                        0x080034e1   Thumb Code    72  inv_mpu.o(i.mpu_get_accel_fsr)
    mpu_get_accel_sens                       0x0800352d   Thumb Code    78  inv_mpu.o(i.mpu_get_accel_sens)
    mpu_get_fifo_config                      0x08003581   Thumb Code    12  inv_mpu.o(i.mpu_get_fifo_config)
    mpu_get_gyro_fsr                         0x08003591   Thumb Code    64  inv_mpu.o(i.mpu_get_gyro_fsr)
    mpu_get_gyro_sens                        0x080035d5   Thumb Code    58  inv_mpu.o(i.mpu_get_gyro_sens)
    mpu_get_lpf                              0x08003625   Thumb Code    74  inv_mpu.o(i.mpu_get_lpf)
    mpu_get_sample_rate                      0x08003675   Thumb Code    26  inv_mpu.o(i.mpu_get_sample_rate)
    mpu_init                                 0x08003695   Thumb Code   416  inv_mpu.o(i.mpu_init)
    mpu_load_firmware                        0x08003885   Thumb Code   180  inv_mpu.o(i.mpu_load_firmware)
    mpu_lp_accel_mode                        0x0800393d   Thumb Code   218  inv_mpu.o(i.mpu_lp_accel_mode)
    mpu_read_fifo_stream                     0x08003a1d   Thumb Code   186  inv_mpu.o(i.mpu_read_fifo_stream)
    mpu_read_mem                             0x08003add   Thumb Code   122  inv_mpu.o(i.mpu_read_mem)
    mpu_reset_fifo                           0x08003b5d   Thumb Code   450  inv_mpu.o(i.mpu_reset_fifo)
    mpu_run_self_test                        0x08003d25   Thumb Code   278  inv_mpu.o(i.mpu_run_self_test)
    mpu_set_accel_fsr                        0x08003e41   Thumb Code   126  inv_mpu.o(i.mpu_set_accel_fsr)
    mpu_set_bypass                           0x08003ec5   Thumb Code   328  inv_mpu.o(i.mpu_set_bypass)
    mpu_set_dmp_state                        0x08004011   Thumb Code   138  inv_mpu.o(i.mpu_set_dmp_state)
    mpu_set_gyro_fsr                         0x080040a1   Thumb Code   132  inv_mpu.o(i.mpu_set_gyro_fsr)
    mpu_set_int_latched                      0x08004129   Thumb Code   102  inv_mpu.o(i.mpu_set_int_latched)
    mpu_set_lpf                              0x08004195   Thumb Code   126  inv_mpu.o(i.mpu_set_lpf)
    mpu_set_sample_rate                      0x08004219   Thumb Code   152  inv_mpu.o(i.mpu_set_sample_rate)
    mpu_set_sensors                          0x080042b5   Thumb Code   202  inv_mpu.o(i.mpu_set_sensors)
    mpu_write_mem                            0x08004385   Thumb Code   122  inv_mpu.o(i.mpu_write_mem)
    run_self_test                            0x08004405   Thumb Code   148  inv_mpu.o(i.run_self_test)
    sqrt                                     0x08004529   Thumb Code    76  sqrt.o(i.sqrt)
    uart_init                                0x08004575   Thumb Code   152  usart.o(i.uart_init)
    __aeabi_d2f                              0x08004615   Thumb Code     0  d2f.o(x$fpl$d2f)
    _d2f                                     0x08004615   Thumb Code    98  d2f.o(x$fpl$d2f)
    __aeabi_dadd                             0x08004679   Thumb Code     0  daddsub_clz.o(x$fpl$dadd)
    _dadd                                    0x08004679   Thumb Code   332  daddsub_clz.o(x$fpl$dadd)
    __fpl_dcheck_NaN1                        0x080047c9   Thumb Code    10  dcheck1.o(x$fpl$dcheck1)
    __aeabi_ddiv                             0x080047d9   Thumb Code     0  ddiv.o(x$fpl$ddiv)
    _ddiv                                    0x080047d9   Thumb Code   552  ddiv.o(x$fpl$ddiv)
    __aeabi_i2d                              0x08004a89   Thumb Code     0  dflt_clz.o(x$fpl$dflt)
    _dflt                                    0x08004a89   Thumb Code    46  dflt_clz.o(x$fpl$dflt)
    __aeabi_dmul                             0x08004ab9   Thumb Code     0  dmul.o(x$fpl$dmul)
    _dmul                                    0x08004ab9   Thumb Code   332  dmul.o(x$fpl$dmul)
    __fpl_dnaninf                            0x08004c0d   Thumb Code   156  dnaninf.o(x$fpl$dnaninf)
    __fpl_dretinf                            0x08004ca9   Thumb Code    12  dretinf.o(x$fpl$dretinf)
    __aeabi_drsub                            0x08004cb5   Thumb Code     0  daddsub_clz.o(x$fpl$drsb)
    _drsb                                    0x08004cb5   Thumb Code    22  daddsub_clz.o(x$fpl$drsb)
    _dsqrt                                   0x08004ccd   Thumb Code   456  dsqrt_noumaal.o(x$fpl$dsqrt)
    __aeabi_dsub                             0x08004e99   Thumb Code     0  daddsub_clz.o(x$fpl$dsub)
    _dsub                                    0x08004e99   Thumb Code   464  daddsub_clz.o(x$fpl$dsub)
    __aeabi_f2d                              0x0800506d   Thumb Code     0  f2d.o(x$fpl$f2d)
    _f2d                                     0x0800506d   Thumb Code    86  f2d.o(x$fpl$f2d)
    __aeabi_fadd                             0x080050c5   Thumb Code     0  faddsub_clz.o(x$fpl$fadd)
    _fadd                                    0x080050c5   Thumb Code   196  faddsub_clz.o(x$fpl$fadd)
    __fpl_fcmp_Inf                           0x08005189   Thumb Code    24  fcmpi.o(x$fpl$fcmpinf)
    __aeabi_fdiv                             0x080051a1   Thumb Code     0  fdiv.o(x$fpl$fdiv)
    _fdiv                                    0x080051a1   Thumb Code   384  fdiv.o(x$fpl$fdiv)
    __aeabi_cfcmpeq                          0x08005325   Thumb Code     0  feqf.o(x$fpl$feqf)
    _fcmpeq                                  0x08005325   Thumb Code   104  feqf.o(x$fpl$feqf)
    __aeabi_f2iz                             0x0800538d   Thumb Code     0  ffix.o(x$fpl$ffix)
    _ffix                                    0x0800538d   Thumb Code    54  ffix.o(x$fpl$ffix)
    __aeabi_f2uiz                            0x080053c5   Thumb Code     0  ffixu.o(x$fpl$ffixu)
    _ffixu                                   0x080053c5   Thumb Code    62  ffixu.o(x$fpl$ffixu)
    __aeabi_i2f                              0x08005405   Thumb Code     0  fflt_clz.o(x$fpl$fflt)
    _fflt                                    0x08005405   Thumb Code    48  fflt_clz.o(x$fpl$fflt)
    __aeabi_ui2f                             0x08005435   Thumb Code     0  fflt_clz.o(x$fpl$ffltu)
    _ffltu                                   0x08005435   Thumb Code    38  fflt_clz.o(x$fpl$ffltu)
    __aeabi_cfcmple                          0x0800545d   Thumb Code     0  fleqf.o(x$fpl$fleqf)
    _fcmple                                  0x0800545d   Thumb Code   104  fleqf.o(x$fpl$fleqf)
    __fpl_fcmple_InfNaN                      0x080054af   Thumb Code     0  fleqf.o(x$fpl$fleqf)
    __aeabi_fmul                             0x080054c5   Thumb Code     0  fmul.o(x$fpl$fmul)
    _fmul                                    0x080054c5   Thumb Code   258  fmul.o(x$fpl$fmul)
    __fpl_fnaninf                            0x080055c7   Thumb Code   140  fnaninf.o(x$fpl$fnaninf)
    __fpl_fretinf                            0x08005653   Thumb Code    10  fretinf.o(x$fpl$fretinf)
    __aeabi_cfrcmple                         0x0800565d   Thumb Code     0  frleqf.o(x$fpl$frleqf)
    _frcmple                                 0x0800565d   Thumb Code    98  frleqf.o(x$fpl$frleqf)
    __aeabi_fsub                             0x080056c1   Thumb Code     0  faddsub_clz.o(x$fpl$fsub)
    _fsub                                    0x080056c1   Thumb Code   234  faddsub_clz.o(x$fpl$fsub)
    __fpl_return_NaN                         0x080057ab   Thumb Code   100  retnan.o(x$fpl$retnan)
    __ARM_scalbn                             0x0800580f   Thumb Code    92  scalbn.o(x$fpl$scalbn)
    __fpl_cmpreturn                          0x0800586b   Thumb Code    48  trapv.o(x$fpl$trapveneer)
    __I$use$fp                               0x0800589a   Number         0  usenofp.o(x$fpl$usenofp)
    reg                                      0x0800589c   Data          27  inv_mpu.o(.constdata)
    hw                                       0x080058b8   Data          12  inv_mpu.o(.constdata)
    test                                     0x080058c4   Data          40  inv_mpu.o(.constdata)
    __mathlib_zero                           0x080065e0   Data           8  qnan.o(.constdata)
    Region$$Table$$Base                      0x08006638   Number         0  anon$$obj.o(Region$$Table)
    Region$$Table$$Limit                     0x08006658   Number         0  anon$$obj.o(Region$$Table)
    pitch                                    0x20000000   Data           4  main.o(.data)
    roll                                     0x20000004   Data           4  main.o(.data)
    yaw                                      0x20000008   Data           4  main.o(.data)
    aacx                                     0x2000000c   Data           2  main.o(.data)
    aacy                                     0x2000000e   Data           2  main.o(.data)
    aacz                                     0x20000010   Data           2  main.o(.data)
    gyrox                                    0x20000012   Data           2  main.o(.data)
    gyroy                                    0x20000014   Data           2  main.o(.data)
    gyroz                                    0x20000016   Data           2  main.o(.data)
    temp                                     0x20000018   Data           2  main.o(.data)
    mpu6050                                  0x2000001a   Data           2  main.o(.data)
    SystemCoreClock                          0x2000001c   Data           4  system_stm32f10x.o(.data)
    AHBPrescTable                            0x20000020   Data          16  system_stm32f10x.o(.data)
    __stdout                                 0x2000006c   Data           4  usart.o(.data)
    USART_RX_STA                             0x20000070   Data           2  usart.o(.data)
    USART_RX_BUF                             0x20000098   Data         200  usart.o(.bss)
    __libspace_start                         0x20000160   Data          96  libspace.o(.bss)
    __temporary_stack_top$libspace           0x200001c0   Data           0  libspace.o(.bss)



==============================================================================

Memory Map of the image

  Image Entry point : 0x080001d5

  Load Region LR_1 (Base: 0x08000000, Size: 0x000066e0, Max: 0xffffffff, ABSOLUTE)

    Execution Region ER_RO (Exec base: 0x08000000, Load base: 0x08000000, Size: 0x00006658, Max: 0xffffffff, ABSOLUTE)

    Exec Addr    Load Addr    Size         Type   Attr      Idx    E Section Name        Object

    0x08000000   0x08000000   0x00000130   Data   RO         1053    RESET               startup_stm32f10x_hd.o
    0x08000130   0x08000130   0x00000008   Code   RO         1678  * !!!main             c_w.l(__main.o)
    0x08000138   0x08000138   0x00000034   Code   RO         2003    !!!scatter          c_w.l(__scatter.o)
    0x0800016c   0x0800016c   0x0000001a   Code   RO         2005    !!handler_copy      c_w.l(__scatter_copy.o)
    0x08000186   0x08000186   0x00000002   PAD
    0x08000188   0x08000188   0x0000001c   Code   RO         2007    !!handler_zi        c_w.l(__scatter_zi.o)
    0x080001a4   0x080001a4   0x00000000   Code   RO         1671    .ARM.Collect$$_printf_percent$$00000000  c_w.l(_printf_percent.o)
    0x080001a4   0x080001a4   0x00000006   Code   RO         1670    .ARM.Collect$$_printf_percent$$00000009  c_w.l(_printf_d.o)
    0x080001aa   0x080001aa   0x00000004   Code   RO         1763    .ARM.Collect$$_printf_percent$$00000017  c_w.l(_printf_percent_end.o)
    0x080001ae   0x080001ae   0x00000002   Code   RO         1870    .ARM.Collect$$libinit$$00000000  c_w.l(libinit.o)
    0x080001b0   0x080001b0   0x00000000   Code   RO         1882    .ARM.Collect$$libinit$$00000002  c_w.l(libinit2.o)
    0x080001b0   0x080001b0   0x00000000   Code   RO         1884    .ARM.Collect$$libinit$$00000004  c_w.l(libinit2.o)
    0x080001b0   0x080001b0   0x00000000   Code   RO         1887    .ARM.Collect$$libinit$$0000000A  c_w.l(libinit2.o)
    0x080001b0   0x080001b0   0x00000000   Code   RO         1889    .ARM.Collect$$libinit$$0000000C  c_w.l(libinit2.o)
    0x080001b0   0x080001b0   0x00000000   Code   RO         1891    .ARM.Collect$$libinit$$0000000E  c_w.l(libinit2.o)
    0x080001b0   0x080001b0   0x00000000   Code   RO         1894    .ARM.Collect$$libinit$$00000011  c_w.l(libinit2.o)
    0x080001b0   0x080001b0   0x00000000   Code   RO         1896    .ARM.Collect$$libinit$$00000013  c_w.l(libinit2.o)
    0x080001b0   0x080001b0   0x00000000   Code   RO         1898    .ARM.Collect$$libinit$$00000015  c_w.l(libinit2.o)
    0x080001b0   0x080001b0   0x00000000   Code   RO         1900    .ARM.Collect$$libinit$$00000017  c_w.l(libinit2.o)
    0x080001b0   0x080001b0   0x00000000   Code   RO         1902    .ARM.Collect$$libinit$$00000019  c_w.l(libinit2.o)
    0x080001b0   0x080001b0   0x00000000   Code   RO         1904    .ARM.Collect$$libinit$$0000001B  c_w.l(libinit2.o)
    0x080001b0   0x080001b0   0x00000000   Code   RO         1906    .ARM.Collect$$libinit$$0000001D  c_w.l(libinit2.o)
    0x080001b0   0x080001b0   0x00000000   Code   RO         1908    .ARM.Collect$$libinit$$0000001F  c_w.l(libinit2.o)
    0x080001b0   0x080001b0   0x00000000   Code   RO         1910    .ARM.Collect$$libinit$$00000021  c_w.l(libinit2.o)
    0x080001b0   0x080001b0   0x00000000   Code   RO         1912    .ARM.Collect$$libinit$$00000023  c_w.l(libinit2.o)
    0x080001b0   0x080001b0   0x00000000   Code   RO         1914    .ARM.Collect$$libinit$$00000025  c_w.l(libinit2.o)
    0x080001b0   0x080001b0   0x00000000   Code   RO         1918    .ARM.Collect$$libinit$$0000002C  c_w.l(libinit2.o)
    0x080001b0   0x080001b0   0x00000000   Code   RO         1920    .ARM.Collect$$libinit$$0000002E  c_w.l(libinit2.o)
    0x080001b0   0x080001b0   0x00000000   Code   RO         1922    .ARM.Collect$$libinit$$00000030  c_w.l(libinit2.o)
    0x080001b0   0x080001b0   0x00000000   Code   RO         1924    .ARM.Collect$$libinit$$00000032  c_w.l(libinit2.o)
    0x080001b0   0x080001b0   0x00000002   Code   RO         1925    .ARM.Collect$$libinit$$00000033  c_w.l(libinit2.o)
    0x080001b2   0x080001b2   0x00000002   Code   RO         1955    .ARM.Collect$$libshutdown$$00000000  c_w.l(libshutdown.o)
    0x080001b4   0x080001b4   0x00000000   Code   RO         1969    .ARM.Collect$$libshutdown$$00000002  c_w.l(libshutdown2.o)
    0x080001b4   0x080001b4   0x00000000   Code   RO         1971    .ARM.Collect$$libshutdown$$00000004  c_w.l(libshutdown2.o)
    0x080001b4   0x080001b4   0x00000000   Code   RO         1974    .ARM.Collect$$libshutdown$$00000007  c_w.l(libshutdown2.o)
    0x080001b4   0x080001b4   0x00000000   Code   RO         1977    .ARM.Collect$$libshutdown$$0000000A  c_w.l(libshutdown2.o)
    0x080001b4   0x080001b4   0x00000000   Code   RO         1979    .ARM.Collect$$libshutdown$$0000000C  c_w.l(libshutdown2.o)
    0x080001b4   0x080001b4   0x00000000   Code   RO         1982    .ARM.Collect$$libshutdown$$0000000F  c_w.l(libshutdown2.o)
    0x080001b4   0x080001b4   0x00000002   Code   RO         1983    .ARM.Collect$$libshutdown$$00000010  c_w.l(libshutdown2.o)
    0x080001b6   0x080001b6   0x00000000   Code   RO         1754    .ARM.Collect$$rtentry$$00000000  c_w.l(__rtentry.o)
    0x080001b6   0x080001b6   0x00000000   Code   RO         1817    .ARM.Collect$$rtentry$$00000002  c_w.l(__rtentry2.o)
    0x080001b6   0x080001b6   0x00000006   Code   RO         1829    .ARM.Collect$$rtentry$$00000004  c_w.l(__rtentry4.o)
    0x080001bc   0x080001bc   0x00000000   Code   RO         1819    .ARM.Collect$$rtentry$$00000009  c_w.l(__rtentry2.o)
    0x080001bc   0x080001bc   0x00000004   Code   RO         1820    .ARM.Collect$$rtentry$$0000000A  c_w.l(__rtentry2.o)
    0x080001c0   0x080001c0   0x00000000   Code   RO         1822    .ARM.Collect$$rtentry$$0000000C  c_w.l(__rtentry2.o)
    0x080001c0   0x080001c0   0x00000008   Code   RO         1823    .ARM.Collect$$rtentry$$0000000D  c_w.l(__rtentry2.o)
    0x080001c8   0x080001c8   0x00000002   Code   RO         1875    .ARM.Collect$$rtexit$$00000000  c_w.l(rtexit.o)
    0x080001ca   0x080001ca   0x00000000   Code   RO         1929    .ARM.Collect$$rtexit$$00000002  c_w.l(rtexit2.o)
    0x080001ca   0x080001ca   0x00000004   Code   RO         1930    .ARM.Collect$$rtexit$$00000003  c_w.l(rtexit2.o)
    0x080001ce   0x080001ce   0x00000006   Code   RO         1931    .ARM.Collect$$rtexit$$00000004  c_w.l(rtexit2.o)
    0x080001d4   0x080001d4   0x00000040   Code   RO         1054  * .text               startup_stm32f10x_hd.o
    0x08000214   0x08000214   0x00000002   Code   RO         1614    .text               c_w.l(use_no_semi_2.o)
    0x08000216   0x08000216   0x00000048   Code   RO         1616    .text               c_w.l(llsdiv.o)
    0x0800025e   0x0800025e   0x00000002   PAD
    0x08000260   0x08000260   0x00000018   Code   RO         1620    .text               c_w.l(noretval__2printf.o)
    0x08000278   0x08000278   0x00000078   Code   RO         1626    .text               c_w.l(_printf_dec.o)
    0x080002f0   0x080002f0   0x00000138   Code   RO         1661    .text               c_w.l(__printf_flags_wp.o)
    0x08000428   0x08000428   0x00000058   Code   RO         1672    .text               c_w.l(memcmp.o)
    0x08000480   0x08000480   0x00000010   Code   RO         1674    .text               c_w.l(aeabi_memset.o)
    0x08000490   0x08000490   0x00000006   Code   RO         1676    .text               c_w.l(heapauxi.o)
    0x08000496   0x08000496   0x00000002   Code   RO         1752    .text               c_w.l(use_no_semi.o)
    0x08000498   0x08000498   0x000000ee   Code   RO         1755    .text               c_w.l(lludivv7m.o)
    0x08000586   0x08000586   0x00000016   Code   RO         1757    .text               c_w.l(_rserrno.o)
    0x0800059c   0x0800059c   0x000000b2   Code   RO         1759    .text               c_w.l(_printf_intcommon.o)
    0x0800064e   0x0800064e   0x00000002   PAD
    0x08000650   0x08000650   0x00000024   Code   RO         1761    .text               c_w.l(_printf_char_file.o)
    0x08000674   0x08000674   0x00000044   Code   RO         1764    .text               c_w.l(rt_memclr.o)
    0x080006b8   0x080006b8   0x00000008   Code   RO         1838    .text               c_w.l(rt_errno_addr_intlibspace.o)
    0x080006c0   0x080006c0   0x00000030   Code   RO         1840    .text               c_w.l(_printf_char_common.o)
    0x080006f0   0x080006f0   0x00000008   Code   RO         1842    .text               c_w.l(ferror.o)
    0x080006f8   0x080006f8   0x0000004e   Code   RO         1846    .text               c_w.l(rt_memclr_w.o)
    0x08000746   0x08000746   0x00000002   PAD
    0x08000748   0x08000748   0x00000008   Code   RO         1854    .text               c_w.l(libspace.o)
    0x08000750   0x08000750   0x0000004a   Code   RO         1857    .text               c_w.l(sys_stackheap_outer.o)
    0x0800079a   0x0800079a   0x00000012   Code   RO         1863    .text               c_w.l(exit.o)
    0x080007ac   0x080007ac   0x00000004   Code   RO          161    i.BusFault_Handler  stm32f10x_it.o
    0x080007b0   0x080007b0   0x0000007c   Code   RO            1    i.DATA_Report       main.o
    0x0800082c   0x0800082c   0x00000002   Code   RO          162    i.DebugMon_Handler  stm32f10x_it.o
    0x0800082e   0x0800082e   0x00000116   Code   RO         1100    i.GPIO_Init         stm32f10x_gpio.o
    0x08000944   0x08000944   0x00000004   Code   RO         1108    i.GPIO_SetBits      stm32f10x_gpio.o
    0x08000948   0x08000948   0x00000004   Code   RO          163    i.HardFault_Handler  stm32f10x_it.o
    0x0800094c   0x0800094c   0x00000050   Code   RO          284    i.LED_Init          led.o
    0x0800099c   0x0800099c   0x00000050   Code   RO          296    i.MPU_Get_Accelerometer  mpu6050.o
    0x080009ec   0x080009ec   0x00000050   Code   RO          297    i.MPU_Get_Gyroscope  mpu6050.o
    0x08000a3c   0x08000a3c   0x00000068   Code   RO          298    i.MPU_Get_Temperature  mpu6050.o
    0x08000aa4   0x08000aa4   0x0000004c   Code   RO          374    i.MPU_IIC_Ack       mpuiic.o
    0x08000af0   0x08000af0   0x0000000a   Code   RO          375    i.MPU_IIC_Delay     mpuiic.o
    0x08000afa   0x08000afa   0x00000002   PAD
    0x08000afc   0x08000afc   0x00000038   Code   RO          376    i.MPU_IIC_Init      mpuiic.o
    0x08000b34   0x08000b34   0x0000004c   Code   RO          377    i.MPU_IIC_NAck      mpuiic.o
    0x08000b80   0x08000b80   0x0000006c   Code   RO          378    i.MPU_IIC_Read_Byte  mpuiic.o
    0x08000bec   0x08000bec   0x0000005c   Code   RO          379    i.MPU_IIC_Send_Byte  mpuiic.o
    0x08000c48   0x08000c48   0x00000048   Code   RO          380    i.MPU_IIC_Start     mpuiic.o
    0x08000c90   0x08000c90   0x00000048   Code   RO          381    i.MPU_IIC_Stop      mpuiic.o
    0x08000cd8   0x08000cd8   0x00000064   Code   RO          382    i.MPU_IIC_Wait_Ack  mpuiic.o
    0x08000d3c   0x08000d3c   0x0000007a   Code   RO          299    i.MPU_Init          mpu6050.o
    0x08000db6   0x08000db6   0x00000002   PAD
    0x08000db8   0x08000db8   0x00000078   Code   RO            2    i.MPU_Read          main.o
    0x08000e30   0x08000e30   0x0000003a   Code   RO          300    i.MPU_Read_Byte     mpu6050.o
    0x08000e6a   0x08000e6a   0x00000074   Code   RO          301    i.MPU_Read_Len      mpu6050.o
    0x08000ede   0x08000ede   0x00000010   Code   RO          302    i.MPU_Set_Accel_Fsr  mpu6050.o
    0x08000eee   0x08000eee   0x00000010   Code   RO          303    i.MPU_Set_Gyro_Fsr  mpu6050.o
    0x08000efe   0x08000efe   0x0000003a   Code   RO          304    i.MPU_Set_LPF       mpu6050.o
    0x08000f38   0x08000f38   0x0000003a   Code   RO          305    i.MPU_Set_Rate      mpu6050.o
    0x08000f72   0x08000f72   0x00000044   Code   RO          306    i.MPU_Write_Byte    mpu6050.o
    0x08000fb6   0x08000fb6   0x00000060   Code   RO          307    i.MPU_Write_Len     mpu6050.o
    0x08001016   0x08001016   0x00000004   Code   RO          164    i.MemManage_Handler  stm32f10x_it.o
    0x0800101a   0x0800101a   0x00000002   Code   RO          165    i.NMI_Handler       stm32f10x_it.o
    0x0800101c   0x0800101c   0x00000070   Code   RO         1058    i.NVIC_Init         misc.o
    0x0800108c   0x0800108c   0x00000014   Code   RO         1059    i.NVIC_PriorityGroupConfig  misc.o
    0x080010a0   0x080010a0   0x00000002   Code   RO          166    i.PendSV_Handler    stm32f10x_it.o
    0x080010a2   0x080010a2   0x00000002   PAD
    0x080010a4   0x080010a4   0x00000020   Code   RO         1236    i.RCC_APB2PeriphClockCmd  stm32f10x_rcc.o
    0x080010c4   0x080010c4   0x000000d4   Code   RO         1244    i.RCC_GetClocksFreq  stm32f10x_rcc.o
    0x08001198   0x08001198   0x00000002   Code   RO          167    i.SVC_Handler       stm32f10x_it.o
    0x0800119a   0x0800119a   0x00000002   PAD
    0x0800119c   0x0800119c   0x000000e4   Code   RO            3    i.SYS_Init          main.o
    0x08001280   0x08001280   0x00000008   Code   RO          250    i.SetSysClock       system_stm32f10x.o
    0x08001288   0x08001288   0x000000e0   Code   RO          251    i.SetSysClockTo72   system_stm32f10x.o
    0x08001368   0x08001368   0x00000028   Code   RO         1062    i.SysTick_CLKSourceConfig  misc.o
    0x08001390   0x08001390   0x00000002   Code   RO          168    i.SysTick_Handler   stm32f10x_it.o
    0x08001392   0x08001392   0x00000002   PAD
    0x08001394   0x08001394   0x00000060   Code   RO          253    i.SystemInit        system_stm32f10x.o
    0x080013f4   0x080013f4   0x00000088   Code   RO         1000    i.USART1_IRQHandler  usart.o
    0x0800147c   0x0800147c   0x00000018   Code   RO         1436    i.USART_Cmd         stm32f10x_usart.o
    0x08001494   0x08001494   0x00000054   Code   RO         1440    i.USART_GetITStatus  stm32f10x_usart.o
    0x080014e8   0x080014e8   0x0000004a   Code   RO         1442    i.USART_ITConfig    stm32f10x_usart.o
    0x08001532   0x08001532   0x00000002   PAD
    0x08001534   0x08001534   0x000000d8   Code   RO         1443    i.USART_Init        stm32f10x_usart.o
    0x0800160c   0x0800160c   0x0000000a   Code   RO         1450    i.USART_ReceiveData  stm32f10x_usart.o
    0x08001616   0x08001616   0x00000004   Code   RO          169    i.UsageFault_Handler  stm32f10x_it.o
    0x0800161a   0x0800161a   0x00000028   Code   RO         1803    i.__ARM_fpclassify  m_ws.l(fpclassify.o)
    0x08001642   0x08001642   0x000000aa   Code   RO         1805    i.__kernel_poly     m_ws.l(poly.o)
    0x080016ec   0x080016ec   0x00000006   Code   RO         1790    i.__mathlib_dbl_infnan  m_ws.l(dunder.o)
    0x080016f2   0x080016f2   0x00000004   Code   RO         1791    i.__mathlib_dbl_infnan2  m_ws.l(dunder.o)
    0x080016f6   0x080016f6   0x0000000c   Code   RO         1792    i.__mathlib_dbl_invalid  m_ws.l(dunder.o)
    0x08001702   0x08001702   0x00000002   PAD
    0x08001704   0x08001704   0x00000010   Code   RO         1795    i.__mathlib_dbl_underflow  m_ws.l(dunder.o)
    0x08001714   0x08001714   0x0000000e   Code   RO         1659    i._is_digit         c_w.l(__printf_wp.o)
    0x08001722   0x08001722   0x00000004   Code   RO         1001    i._sys_exit         usart.o
    0x08001726   0x08001726   0x00000002   PAD
    0x08001728   0x08001728   0x000000a8   Code   RO          434    i.accel_self_test   inv_mpu.o
    0x080017d0   0x080017d0   0x00000270   Code   RO         1735    i.asin              m_ws.l(asin.o)
    0x08001a40   0x08001a40   0x00000220   Code   RO         1780    i.atan              m_ws.l(atan.o)
    0x08001c60   0x08001c60   0x00000180   Code   RO         1745    i.atan2             m_ws.l(atan2.o)
    0x08001de0   0x08001de0   0x00000064   Code   RO          759    i.decode_gesture    inv_mpu_dmp_motion_driver.o
    0x08001e44   0x08001e44   0x00000044   Code   RO          945    i.delay_init        delay.o
    0x08001e88   0x08001e88   0x0000004c   Code   RO          946    i.delay_ms          delay.o
    0x08001ed4   0x08001ed4   0x0000004c   Code   RO          947    i.delay_us          delay.o
    0x08001f20   0x08001f20   0x0000003c   Code   RO          760    i.dmp_enable_6x_lp_quat  inv_mpu_dmp_motion_driver.o
    0x08001f5c   0x08001f5c   0x0000021c   Code   RO          761    i.dmp_enable_feature  inv_mpu_dmp_motion_driver.o
    0x08002178   0x08002178   0x00000058   Code   RO          762    i.dmp_enable_gyro_cal  inv_mpu_dmp_motion_driver.o
    0x080021d0   0x080021d0   0x0000003c   Code   RO          763    i.dmp_enable_lp_quat  inv_mpu_dmp_motion_driver.o
    0x0800220c   0x0800220c   0x00000018   Code   RO          768    i.dmp_load_motion_driver_firmware  inv_mpu_dmp_motion_driver.o
    0x08002224   0x08002224   0x000001cc   Code   RO          769    i.dmp_read_fifo     inv_mpu_dmp_motion_driver.o
    0x080023f0   0x080023f0   0x00000130   Code   RO          772    i.dmp_set_accel_bias  inv_mpu_dmp_motion_driver.o
    0x08002520   0x08002520   0x00000070   Code   RO          773    i.dmp_set_fifo_rate  inv_mpu_dmp_motion_driver.o
    0x08002590   0x08002590   0x00000130   Code   RO          774    i.dmp_set_gyro_bias  inv_mpu_dmp_motion_driver.o
    0x080026c0   0x080026c0   0x00000138   Code   RO          776    i.dmp_set_orientation  inv_mpu_dmp_motion_driver.o
    0x080027f8   0x080027f8   0x00000038   Code   RO          779    i.dmp_set_shake_reject_thresh  inv_mpu_dmp_motion_driver.o
    0x08002830   0x08002830   0x00000026   Code   RO          780    i.dmp_set_shake_reject_time  inv_mpu_dmp_motion_driver.o
    0x08002856   0x08002856   0x00000026   Code   RO          781    i.dmp_set_shake_reject_timeout  inv_mpu_dmp_motion_driver.o
    0x0800287c   0x0800287c   0x00000046   Code   RO          782    i.dmp_set_tap_axes  inv_mpu_dmp_motion_driver.o
    0x080028c2   0x080028c2   0x00000026   Code   RO          783    i.dmp_set_tap_count  inv_mpu_dmp_motion_driver.o
    0x080028e8   0x080028e8   0x000001a0   Code   RO          784    i.dmp_set_tap_thresh  inv_mpu_dmp_motion_driver.o
    0x08002a88   0x08002a88   0x00000026   Code   RO          785    i.dmp_set_tap_time  inv_mpu_dmp_motion_driver.o
    0x08002aae   0x08002aae   0x00000026   Code   RO          786    i.dmp_set_tap_time_multi  inv_mpu_dmp_motion_driver.o
    0x08002ad4   0x08002ad4   0x0000001c   Code   RO         1002    i.fputc             usart.o
    0x08002af0   0x08002af0   0x000000b4   Code   RO          435    i.get_accel_prod_shift  inv_mpu.o
    0x08002ba4   0x08002ba4   0x00000470   Code   RO          436    i.get_st_biases     inv_mpu.o
    0x08003014   0x08003014   0x00000110   Code   RO          437    i.gyro_self_test    inv_mpu.o
    0x08003124   0x08003124   0x00000028   Code   RO          438    i.inv_orientation_matrix_to_scalar  inv_mpu.o
    0x0800314c   0x0800314c   0x0000004e   Code   RO          439    i.inv_row_2_scale   inv_mpu.o
    0x0800319a   0x0800319a   0x00000010   Code   RO            4    i.main              main.o
    0x080031aa   0x080031aa   0x00000002   Code   RO          440    i.mget_ms           inv_mpu.o
    0x080031ac   0x080031ac   0x00000070   Code   RO          441    i.mpu_configure_fifo  inv_mpu.o
    0x0800321c   0x0800321c   0x00000224   Code   RO          442    i.mpu_dmp_get_data  inv_mpu.o
    0x08003440   0x08003440   0x000000a0   Code   RO          443    i.mpu_dmp_init      inv_mpu.o
    0x080034e0   0x080034e0   0x0000004c   Code   RO          444    i.mpu_get_accel_fsr  inv_mpu.o
    0x0800352c   0x0800352c   0x00000054   Code   RO          446    i.mpu_get_accel_sens  inv_mpu.o
    0x08003580   0x08003580   0x00000010   Code   RO          451    i.mpu_get_fifo_config  inv_mpu.o
    0x08003590   0x08003590   0x00000044   Code   RO          452    i.mpu_get_gyro_fsr  inv_mpu.o
    0x080035d4   0x080035d4   0x00000050   Code   RO          454    i.mpu_get_gyro_sens  inv_mpu.o
    0x08003624   0x08003624   0x00000050   Code   RO          456    i.mpu_get_lpf       inv_mpu.o
    0x08003674   0x08003674   0x00000020   Code   RO          458    i.mpu_get_sample_rate  inv_mpu.o
    0x08003694   0x08003694   0x000001f0   Code   RO          460    i.mpu_init          inv_mpu.o
    0x08003884   0x08003884   0x000000b8   Code   RO          461    i.mpu_load_firmware  inv_mpu.o
    0x0800393c   0x0800393c   0x000000e0   Code   RO          462    i.mpu_lp_accel_mode  inv_mpu.o
    0x08003a1c   0x08003a1c   0x000000c0   Code   RO          465    i.mpu_read_fifo_stream  inv_mpu.o
    0x08003adc   0x08003adc   0x00000080   Code   RO          466    i.mpu_read_mem      inv_mpu.o
    0x08003b5c   0x08003b5c   0x000001c8   Code   RO          469    i.mpu_reset_fifo    inv_mpu.o
    0x08003d24   0x08003d24   0x0000011c   Code   RO          470    i.mpu_run_self_test  inv_mpu.o
    0x08003e40   0x08003e40   0x00000084   Code   RO          472    i.mpu_set_accel_fsr  inv_mpu.o
    0x08003ec4   0x08003ec4   0x0000014c   Code   RO          473    i.mpu_set_bypass    inv_mpu.o
    0x08004010   0x08004010   0x00000090   Code   RO          475    i.mpu_set_dmp_state  inv_mpu.o
    0x080040a0   0x080040a0   0x00000088   Code   RO          476    i.mpu_set_gyro_fsr  inv_mpu.o
    0x08004128   0x08004128   0x0000006c   Code   RO          477    i.mpu_set_int_latched  inv_mpu.o
    0x08004194   0x08004194   0x00000084   Code   RO          479    i.mpu_set_lpf       inv_mpu.o
    0x08004218   0x08004218   0x0000009c   Code   RO          480    i.mpu_set_sample_rate  inv_mpu.o
    0x080042b4   0x080042b4   0x000000d0   Code   RO          481    i.mpu_set_sensors   inv_mpu.o
    0x08004384   0x08004384   0x00000080   Code   RO          482    i.mpu_write_mem     inv_mpu.o
    0x08004404   0x08004404   0x00000094   Code   RO          483    i.run_self_test     inv_mpu.o
    0x08004498   0x08004498   0x00000090   Code   RO          484    i.set_int_enable    inv_mpu.o
    0x08004528   0x08004528   0x0000004c   Code   RO         1809    i.sqrt              m_ws.l(sqrt.o)
    0x08004574   0x08004574   0x000000a0   Code   RO         1003    i.uart_init         usart.o
    0x08004614   0x08004614   0x00000062   Code   RO         1680    x$fpl$d2f           fz_ws.l(d2f.o)
    0x08004676   0x08004676   0x00000002   PAD
    0x08004678   0x08004678   0x00000150   Code   RO         1682    x$fpl$dadd          fz_ws.l(daddsub_clz.o)
    0x080047c8   0x080047c8   0x00000010   Code   RO         1848    x$fpl$dcheck1       fz_ws.l(dcheck1.o)
    0x080047d8   0x080047d8   0x000002b0   Code   RO         1689    x$fpl$ddiv          fz_ws.l(ddiv.o)
    0x08004a88   0x08004a88   0x0000002e   Code   RO         1693    x$fpl$dflt          fz_ws.l(dflt_clz.o)
    0x08004ab6   0x08004ab6   0x00000002   PAD
    0x08004ab8   0x08004ab8   0x00000154   Code   RO         1698    x$fpl$dmul          fz_ws.l(dmul.o)
    0x08004c0c   0x08004c0c   0x0000009c   Code   RO         1766    x$fpl$dnaninf       fz_ws.l(dnaninf.o)
    0x08004ca8   0x08004ca8   0x0000000c   Code   RO         1768    x$fpl$dretinf       fz_ws.l(dretinf.o)
    0x08004cb4   0x08004cb4   0x00000016   Code   RO         1683    x$fpl$drsb          fz_ws.l(daddsub_clz.o)
    0x08004cca   0x08004cca   0x00000002   PAD
    0x08004ccc   0x08004ccc   0x000001cc   Code   RO         1852    x$fpl$dsqrt         fz_ws.l(dsqrt_noumaal.o)
    0x08004e98   0x08004e98   0x000001d4   Code   RO         1684    x$fpl$dsub          fz_ws.l(daddsub_clz.o)
    0x0800506c   0x0800506c   0x00000056   Code   RO         1700    x$fpl$f2d           fz_ws.l(f2d.o)
    0x080050c2   0x080050c2   0x00000002   PAD
    0x080050c4   0x080050c4   0x000000c4   Code   RO         1702    x$fpl$fadd          fz_ws.l(faddsub_clz.o)
    0x08005188   0x08005188   0x00000018   Code   RO         1770    x$fpl$fcmpinf       fz_ws.l(fcmpi.o)
    0x080051a0   0x080051a0   0x00000184   Code   RO         1709    x$fpl$fdiv          fz_ws.l(fdiv.o)
    0x08005324   0x08005324   0x00000068   Code   RO         1712    x$fpl$feqf          fz_ws.l(feqf.o)
    0x0800538c   0x0800538c   0x00000036   Code   RO         1714    x$fpl$ffix          fz_ws.l(ffix.o)
    0x080053c2   0x080053c2   0x00000002   PAD
    0x080053c4   0x080053c4   0x0000003e   Code   RO         1718    x$fpl$ffixu         fz_ws.l(ffixu.o)
    0x08005402   0x08005402   0x00000002   PAD
    0x08005404   0x08005404   0x00000030   Code   RO         1723    x$fpl$fflt          fz_ws.l(fflt_clz.o)
    0x08005434   0x08005434   0x00000026   Code   RO         1722    x$fpl$ffltu         fz_ws.l(fflt_clz.o)
    0x0800545a   0x0800545a   0x00000002   PAD
    0x0800545c   0x0800545c   0x00000068   Code   RO         1728    x$fpl$fleqf         fz_ws.l(fleqf.o)
    0x080054c4   0x080054c4   0x00000102   Code   RO         1730    x$fpl$fmul          fz_ws.l(fmul.o)
    0x080055c6   0x080055c6   0x0000008c   Code   RO         1772    x$fpl$fnaninf       fz_ws.l(fnaninf.o)
    0x08005652   0x08005652   0x0000000a   Code   RO         1774    x$fpl$fretinf       fz_ws.l(fretinf.o)
    0x0800565c   0x0800565c   0x00000062   Code   RO         1732    x$fpl$frleqf        fz_ws.l(frleqf.o)
    0x080056be   0x080056be   0x00000002   PAD
    0x080056c0   0x080056c0   0x000000ea   Code   RO         1704    x$fpl$fsub          fz_ws.l(faddsub_clz.o)
    0x080057aa   0x080057aa   0x00000064   Code   RO         1873    x$fpl$retnan        fz_ws.l(retnan.o)
    0x0800580e   0x0800580e   0x0000005c   Code   RO         1776    x$fpl$scalbn        fz_ws.l(scalbn.o)
    0x0800586a   0x0800586a   0x00000030   Code   RO         1926    x$fpl$trapveneer    fz_ws.l(trapv.o)
    0x0800589a   0x0800589a   0x00000000   Code   RO         1778    x$fpl$usenofp       fz_ws.l(usenofp.o)
    0x0800589a   0x0800589a   0x00000002   PAD
    0x0800589c   0x0800589c   0x00000050   Data   RO          486    .constdata          inv_mpu.o
    0x080058ec   0x080058ec   0x00000bf6   Data   RO          788    .constdata          inv_mpu_dmp_motion_driver.o
    0x080064e2   0x080064e2   0x00000011   Data   RO         1662    .constdata          c_w.l(__printf_flags_wp.o)
    0x080064f3   0x080064f3   0x00000005   PAD
    0x080064f8   0x080064f8   0x00000050   Data   RO         1736    .constdata          m_ws.l(asin.o)
    0x08006548   0x08006548   0x00000098   Data   RO         1781    .constdata          m_ws.l(atan.o)
    0x080065e0   0x080065e0   0x00000008   Data   RO         1807    .constdata          m_ws.l(qnan.o)
    0x080065e8   0x080065e8   0x0000004d   Data   RO          487    .conststring        inv_mpu.o
    0x08006635   0x08006635   0x00000003   PAD
    0x08006638   0x08006638   0x00000020   Data   RO         2001    Region$$Table       anon$$obj.o


    Execution Region ER_RW (Exec base: 0x20000000, Load base: 0x08006658, Size: 0x00000088, Max: 0xffffffff, ABSOLUTE)

    Exec Addr    Load Addr    Size         Type   Attr      Idx    E Section Name        Object

    0x20000000   0x08006658   0x0000001c   Data   RW            6    .data               main.o
    0x2000001c   0x08006674   0x00000014   Data   RW          254    .data               system_stm32f10x.o
    0x20000030   0x08006688   0x00000035   Data   RW          488    .data               inv_mpu.o
    0x20000065   0x080066bd   0x00000001   PAD
    0x20000066   0x080066be   0x00000004   Data   RW          948    .data               delay.o
    0x2000006a   0x080066c2   0x00000002   PAD
    0x2000006c   0x080066c4   0x00000006   Data   RW         1005    .data               usart.o
    0x20000072   0x080066ca   0x00000014   Data   RW         1264    .data               stm32f10x_rcc.o


    Execution Region ER_ZI (Exec base: 0x20000088, Load base: 0x080066e0, Size: 0x00000738, Max: 0xffffffff, ABSOLUTE)

    Exec Addr    Load Addr    Size         Type   Attr      Idx    E Section Name        Object

    0x20000088        -       0x00000010   Zero   RW          787    .bss                inv_mpu_dmp_motion_driver.o
    0x20000098        -       0x000000c8   Zero   RW         1004    .bss                usart.o
    0x20000160        -       0x00000060   Zero   RW         1855    .bss                c_w.l(libspace.o)
    0x200001c0        -       0x00000200   Zero   RW         1052    HEAP                startup_stm32f10x_hd.o
    0x200003c0        -       0x00000400   Zero   RW         1051    STACK               startup_stm32f10x_hd.o


==============================================================================

Image component sizes


      Code (inc. data)   RO Data    RW Data    ZI Data      Debug   Object Name

       220         26          0          4          0       1835   delay.o
      6864        290        157         53          0      32320   inv_mpu.o
      3096        122       3062          0         16      21406   inv_mpu_dmp_motion_driver.o
        80          8          0          0          0        531   led.o
       488        146          0         28          0     235758   main.o
       172         22          0          0          0       2173   misc.o
       872         18          0          0          0       8605   mpu6050.o
       662        100          0          0          0       5106   mpuiic.o
        64         26        304          0       1536        824   startup_stm32f10x_hd.o
       282          0          0          0          0       2583   stm32f10x_gpio.o
        26          0          0          0          0       3966   stm32f10x_it.o
       244         26          0         20          0       3985   stm32f10x_rcc.o
       408          6          0          0          0       5174   stm32f10x_usart.o
         0          0          0          0          0         32   sys.o
       328         28          0         20          0       2237   system_stm32f10x.o
       328         26          0          6        200       4284   usart.o

    ----------------------------------------------------------------------
     14148        844       3558        136       1752     330819   Object Totals
         0          0         32          0          0          0   (incl. Generated)
        14          0          3          5          0          0   (incl. Padding)

    ----------------------------------------------------------------------

      Code (inc. data)   RO Data    RW Data    ZI Data      Debug   Library Member Name

         8          0          0          0          0         68   __main.o
       312          4         17          0          0         92   __printf_flags_wp.o
        14          0          0          0          0         68   __printf_wp.o
         0          0          0          0          0          0   __rtentry.o
        12          0          0          0          0          0   __rtentry2.o
         6          0          0          0          0          0   __rtentry4.o
        52          8          0          0          0          0   __scatter.o
        26          0          0          0          0          0   __scatter_copy.o
        28          0          0          0          0          0   __scatter_zi.o
        48          6          0          0          0         96   _printf_char_common.o
        36          4          0          0          0         80   _printf_char_file.o
         6          0          0          0          0          0   _printf_d.o
       120         16          0          0          0         92   _printf_dec.o
       178          0          0          0          0         88   _printf_intcommon.o
         0          0          0          0          0          0   _printf_percent.o
         4          0          0          0          0          0   _printf_percent_end.o
        22          0          0          0          0        100   _rserrno.o
        16          0          0          0          0         68   aeabi_memset.o
        18          0          0          0          0         80   exit.o
         8          0          0          0          0         68   ferror.o
         6          0          0          0          0        152   heapauxi.o
         2          0          0          0          0          0   libinit.o
         2          0          0          0          0          0   libinit2.o
         2          0          0          0          0          0   libshutdown.o
         2          0          0          0          0          0   libshutdown2.o
         8          4          0          0         96         68   libspace.o
        72          0          0          0          0         76   llsdiv.o
       238          0          0          0          0        100   lludivv7m.o
        88          0          0          0          0         76   memcmp.o
        24          4          0          0          0         84   noretval__2printf.o
         8          4          0          0          0         68   rt_errno_addr_intlibspace.o
        68          0          0          0          0         68   rt_memclr.o
        78          0          0          0          0         80   rt_memclr_w.o
         2          0          0          0          0          0   rtexit.o
        10          0          0          0          0          0   rtexit2.o
        74          0          0          0          0         80   sys_stackheap_outer.o
         2          0          0          0          0         68   use_no_semi.o
         2          0          0          0          0         68   use_no_semi_2.o
        98          4          0          0          0         92   d2f.o
       826         16          0          0          0        348   daddsub_clz.o
        16          4          0          0          0         68   dcheck1.o
       688        140          0          0          0        208   ddiv.o
        46          0          0          0          0         68   dflt_clz.o
       340         12          0          0          0        104   dmul.o
       156          4          0          0          0         92   dnaninf.o
        12          0          0          0          0         68   dretinf.o
       460         56          0          0          0        120   dsqrt_noumaal.o
        86          4          0          0          0         84   f2d.o
       430          8          0          0          0        168   faddsub_clz.o
        24          0          0          0          0         68   fcmpi.o
       388         76          0          0          0         96   fdiv.o
       104          4          0          0          0         84   feqf.o
        54          4          0          0          0         84   ffix.o
        62          4          0          0          0         84   ffixu.o
        86          0          0          0          0        136   fflt_clz.o
       104          4          0          0          0         84   fleqf.o
       258          4          0          0          0         84   fmul.o
       140          4          0          0          0         84   fnaninf.o
        10          0          0          0          0         68   fretinf.o
        98          0          0          0          0         68   frleqf.o
       100          0          0          0          0         68   retnan.o
        92          0          0          0          0         68   scalbn.o
        48          0          0          0          0         68   trapv.o
         0          0          0          0          0          0   usenofp.o
       624         52         80          0          0        168   asin.o
       544         70        152          0          0        124   atan.o
       384         38          0          0          0        144   atan2.o
        38          6          0          0          0        272   dunder.o
        40          0          0          0          0         68   fpclassify.o
       170          0          0          0          0         96   poly.o
         0          0          8          0          0          0   qnan.o
        76          0          0          0          0         84   sqrt.o

    ----------------------------------------------------------------------
      8232        564        262          0         96       5408   Library Totals
        28          0          5          0          0          0   (incl. Padding)

    ----------------------------------------------------------------------

      Code (inc. data)   RO Data    RW Data    ZI Data      Debug   Library Name

      1602         50         17          0         96       1888   c_w.l
      4726        348          0          0          0       2564   fz_ws.l
      1876        166        240          0          0        956   m_ws.l

    ----------------------------------------------------------------------
      8232        564        262          0         96       5408   Library Totals

    ----------------------------------------------------------------------

==============================================================================


      Code (inc. data)   RO Data    RW Data    ZI Data      Debug   

     22380       1408       3820        136       1848     327695   Grand Totals
     22380       1408       3820        136       1848     327695   ELF Image Totals
     22380       1408       3820        136          0          0   ROM Totals

==============================================================================

    Total RO  Size (Code + RO Data)                26200 (  25.59kB)
    Total RW  Size (RW Data + ZI Data)              1984 (   1.94kB)
    Total ROM Size (Code + RO Data + RW Data)      26336 (  25.72kB)

==============================================================================

