Component: ARM Compiler 5.06 update 6 (build 750) Tool: armlink [4d35ed]

==============================================================================

Section Cross References

    startup_stm32f103xe.o(RESET) refers to startup_stm32f103xe.o(STACK) for __initial_sp
    startup_stm32f103xe.o(RESET) refers to startup_stm32f103xe.o(.text) for Reset_Handler
    startup_stm32f103xe.o(RESET) refers to stm32f1xx_it.o(i.NMI_Handler) for NMI_Handler
    startup_stm32f103xe.o(RESET) refers to stm32f1xx_it.o(i.HardFault_Handler) for HardFault_Handler
    startup_stm32f103xe.o(RESET) refers to stm32f1xx_it.o(i.MemManage_Handler) for MemManage_Handler
    startup_stm32f103xe.o(RESET) refers to stm32f1xx_it.o(i.BusFault_Handler) for BusFault_Handler
    startup_stm32f103xe.o(RESET) refers to stm32f1xx_it.o(i.UsageFault_Handler) for UsageFault_Handler
    startup_stm32f103xe.o(RESET) refers to stm32f1xx_it.o(i.SVC_Handler) for SVC_Handler
    startup_stm32f103xe.o(RESET) refers to stm32f1xx_it.o(i.DebugMon_Handler) for DebugMon_Handler
    startup_stm32f103xe.o(RESET) refers to stm32f1xx_it.o(i.PendSV_Handler) for PendSV_Handler
    startup_stm32f103xe.o(RESET) refers to stm32f1xx_it.o(i.SysTick_Handler) for SysTick_Handler
    startup_stm32f103xe.o(RESET) refers to stm32f1xx_it.o(i.DMA1_Channel6_IRQHandler) for DMA1_Channel6_IRQHandler
    startup_stm32f103xe.o(RESET) refers to stm32f1xx_it.o(i.DMA1_Channel7_IRQHandler) for DMA1_Channel7_IRQHandler
    startup_stm32f103xe.o(RESET) refers to stm32f1xx_it.o(i.TIM2_IRQHandler) for TIM2_IRQHandler
    startup_stm32f103xe.o(RESET) refers to stm32f1xx_it.o(i.TIM3_IRQHandler) for TIM3_IRQHandler
    startup_stm32f103xe.o(RESET) refers to stm32f1xx_it.o(i.TIM4_IRQHandler) for TIM4_IRQHandler
    startup_stm32f103xe.o(RESET) refers to stm32f1xx_it.o(i.I2C1_EV_IRQHandler) for I2C1_EV_IRQHandler
    startup_stm32f103xe.o(RESET) refers to stm32f1xx_it.o(i.I2C1_ER_IRQHandler) for I2C1_ER_IRQHandler
==============================================================================

Removing Unused input sections from the image.

    Removing startup_stm32f103xe.o(HEAP), (10000 bytes).
    Removing main.o(.rev16_text), (4 bytes).
    Removing main.o(.revsh_text), (4 bytes).
    Removing main.o(.rrx_text), (6 bytes).
    Removing main.o(i._Error_Handler), (2 bytes).
    Removing stm32f1xx_hal_msp.o(.rev16_text), (4 bytes).
    Removing stm32f1xx_hal_msp.o(.revsh_text), (4 bytes).
    Removing stm32f1xx_hal_msp.o(.rrx_text), (6 bytes).
    Removing stm32f1xx_hal_msp.o(i.HAL_ADC_MspDeInit), (56 bytes).
    Removing stm32f1xx_hal_msp.o(i.HAL_I2C_MspDeInit), (80 bytes).
    Removing stm32f1xx_hal_msp.o(i.HAL_TIM_Encoder_MspDeInit), (192 bytes).
    Removing stm32f1xx_hal_msp.o(i.HAL_TIM_PWM_MspDeInit), (72 bytes).
    Removing stm32f1xx_hal_msp.o(i.HAL_UART_MspDeInit), (96 bytes).
    Removing stm32f1xx_it.o(.rev16_text), (4 bytes).
    Removing stm32f1xx_it.o(.revsh_text), (4 bytes).
    Removing stm32f1xx_it.o(.rrx_text), (6 bytes).
    Removing delayus.o(.rev16_text), (4 bytes).
    Removing delayus.o(.revsh_text), (4 bytes).
==============================================================================

Image Symbol Table

    Local Symbols

    Symbol Name                              Value     Ov Type        Size  Object(Section)

    ..//Src/system_stm32f1xx.c               0x00000000   Number         0  system_stm32f1xx.o ABSOLUTE
    ../Drivers/STM32F1xx_HAL_Driver/Src/stm32f1xx_hal.c 0x00000000   Number         0  stm32f1xx_hal.o ABSOLUTE
    ../Drivers/STM32F1xx_HAL_Driver/Src/stm32f1xx_hal_adc.c 0x00000000   Number         0  stm32f1xx_hal_adc.o ABSOLUTE
    ../Drivers/STM32F1xx_HAL_Driver/Src/stm32f1xx_hal_adc_ex.c 0x00000000   Number         0  stm32f1xx_hal_adc_ex.o ABSOLUTE
    ../Drivers/STM32F1xx_HAL_Driver/Src/stm32f1xx_hal_cortex.c 0x00000000   Number         0  stm32f1xx_hal_cortex.o ABSOLUTE
    ../Drivers/STM32F1xx_HAL_Driver/Src/stm32f1xx_hal_dma.c 0x00000000   Number         0  stm32f1xx_hal_dma.o ABSOLUTE
    ../Drivers/STM32F1xx_HAL_Driver/Src/stm32f1xx_hal_flash.c 0x00000000   Number         0  stm32f1xx_hal_flash.o ABSOLUTE
    ../Drivers/STM32F1xx_HAL_Driver/Src/stm32f1xx_hal_flash_ex.c 0x00000000   Number         0  stm32f1xx_hal_flash_ex.o ABSOLUTE
    ../Drivers/STM32F1xx_HAL_Driver/Src/stm32f1xx_hal_gpio.c 0x00000000   Number         0  stm32f1xx_hal_gpio.o ABSOLUTE
    ../Drivers/STM32F1xx_HAL_Driver/Src/stm32f1xx_hal_gpio_ex.c 0x00000000   Number         0  stm32f1xx_hal_gpio_ex.o ABSOLUTE
    ../Drivers/STM32F1xx_HAL_Driver/Src/stm32f1xx_hal_pwr.c 0x00000000   Number         0  stm32f1xx_hal_pwr.o ABSOLUTE
    ../Drivers/STM32F1xx_HAL_Driver/Src/stm32f1xx_hal_rcc.c 0x00000000   Number         0  stm32f1xx_hal_rcc.o ABSOLUTE
    ../Drivers/STM32F1xx_HAL_Driver/Src/stm32f1xx_hal_rcc_ex.c 0x00000000   Number         0  stm32f1xx_hal_rcc_ex.o ABSOLUTE
    ../Drivers/STM32F1xx_HAL_Driver/Src/stm32f1xx_hal_tim.c 0x00000000   Number         0  stm32f1xx_hal_tim.o ABSOLUTE
    ../Drivers/STM32F1xx_HAL_Driver/Src/stm32f1xx_hal_tim_ex.c 0x00000000   Number         0  stm32f1xx_hal_tim_ex.o ABSOLUTE
    ../Drivers/STM32F1xx_HAL_Driver/Src/stm32f1xx_hal_uart.c 0x00000000   Number         0  stm32f1xx_hal_uart.o ABSOLUTE
    ../Src/main.c                            0x00000000   Number         0  main.o ABSOLUTE
    ../Src/stm32f1xx_hal_msp.c               0x00000000   Number         0  stm32f1xx_hal_msp.o ABSOLUTE
    ../Src/stm32f1xx_it.c                    0x00000000   Number         0  stm32f1xx_it.o ABSOLUTE
    ../clib/microlib/division.c              0x00000000   Number         0  uidiv.o ABSOLUTE
    ../clib/microlib/division.c              0x00000000   Number         0  uldiv.o ABSOLUTE
    ../clib/microlib/init/entry.s            0x00000000   Number         0  entry8b.o ABSOLUTE
    ../clib/microlib/init/entry.s            0x00000000   Number         0  entry9a.o ABSOLUTE
    ../clib/microlib/init/entry.s            0x00000000   Number         0  entry9b.o ABSOLUTE
    ../clib/microlib/init/entry.s            0x00000000   Number         0  entry.o ABSOLUTE
    ../clib/microlib/init/entry.s            0x00000000   Number         0  entry10a.o ABSOLUTE
    ../clib/microlib/init/entry.s            0x00000000   Number         0  entry10b.o ABSOLUTE
    ../clib/microlib/init/entry.s            0x00000000   Number         0  entry11a.o ABSOLUTE
    ../clib/microlib/init/entry.s            0x00000000   Number         0  entry11b.o ABSOLUTE
    ../clib/microlib/init/entry.s            0x00000000   Number         0  entry2.o ABSOLUTE
    ../clib/microlib/init/entry.s            0x00000000   Number         0  entry5.o ABSOLUTE
    ../clib/microlib/init/entry.s            0x00000000   Number         0  entry7a.o ABSOLUTE
    ../clib/microlib/init/entry.s            0x00000000   Number         0  entry7b.o ABSOLUTE
    ../clib/microlib/init/entry.s            0x00000000   Number         0  entry8a.o ABSOLUTE
    ../clib/microlib/longlong.c              0x00000000   Number         0  llsshr.o ABSOLUTE
    ../clib/microlib/longlong.c              0x00000000   Number         0  llushr.o ABSOLUTE
    ../clib/microlib/longlong.c              0x00000000   Number         0  llshl.o ABSOLUTE
    ../clib/microlib/printf/printf.c         0x00000000   Number         0  printfa.o ABSOLUTE
    ../clib/microlib/stdio/fputc.c           0x00000000   Number         0  fputc.o ABSOLUTE
    ../clib/microlib/stdio/semi.s            0x00000000   Number         0  semi.o ABSOLUTE
    ../clib/microlib/stdio/streams.c         0x00000000   Number         0  stdout.o ABSOLUTE
    ../clib/microlib/stubs.s                 0x00000000   Number         0  iusefp.o ABSOLUTE
    ../clib/microlib/stubs.s                 0x00000000   Number         0  iusesemip.o ABSOLUTE
    ../fplib/microlib/d2f.c                  0x00000000   Number         0  d2f.o ABSOLUTE
    ../fplib/microlib/f2d.c                  0x00000000   Number         0  f2d.o ABSOLUTE
    ../fplib/microlib/fpadd.c                0x00000000   Number         0  dadd.o ABSOLUTE
    ../fplib/microlib/fpadd.c                0x00000000   Number         0  fadd.o ABSOLUTE
    ../fplib/microlib/fpdiv.c                0x00000000   Number         0  fdiv.o ABSOLUTE
    ../fplib/microlib/fpdiv.c                0x00000000   Number         0  ddiv.o ABSOLUTE
    ../fplib/microlib/fpepilogue.c           0x00000000   Number         0  depilogue.o ABSOLUTE
    ../fplib/microlib/fpepilogue.c           0x00000000   Number         0  fepilogue.o ABSOLUTE
    ../fplib/microlib/fpfix.c                0x00000000   Number         0  ffixui.o ABSOLUTE
    ../fplib/microlib/fpfix.c                0x00000000   Number         0  dfixul.o ABSOLUTE
    ../fplib/microlib/fpflt.c                0x00000000   Number         0  fflti.o ABSOLUTE
    ../fplib/microlib/fpflt.c                0x00000000   Number         0  ffltui.o ABSOLUTE
    ../fplib/microlib/fpmul.c                0x00000000   Number         0  fmul.o ABSOLUTE
    ../fplib/microlib/fpmul.c                0x00000000   Number         0  dmul.o ABSOLUTE
    ../fplib/microlib/fpscalb.c              0x00000000   Number         0  fscalb.o ABSOLUTE
    ..\Drivers\STM32F1xx_HAL_Driver\Src\stm32f1xx_hal.c 0x00000000   Number         0  stm32f1xx_hal.o ABSOLUTE
    ..\Drivers\STM32F1xx_HAL_Driver\Src\stm32f1xx_hal_adc.c 0x00000000   Number         0  stm32f1xx_hal_adc.o ABSOLUTE
    ..\Drivers\STM32F1xx_HAL_Driver\Src\stm32f1xx_hal_adc_ex.c 0x00000000   Number         0  stm32f1xx_hal_adc_ex.o ABSOLUTE
    ..\Drivers\STM32F1xx_HAL_Driver\Src\stm32f1xx_hal_can.c 0x00000000   Number         0  stm32f1xx_hal_can.o ABSOLUTE
    ..\Drivers\STM32F1xx_HAL_Driver\Src\stm32f1xx_hal_cortex.c 0x00000000   Number         0  stm32f1xx_hal_cortex.o ABSOLUTE
    ..\Drivers\STM32F1xx_HAL_Driver\Src\stm32f1xx_hal_dac.c 0x00000000   Number         0  stm32f1xx_hal_dac.o ABSOLUTE
    ..\Drivers\STM32F1xx_HAL_Driver\Src\stm32f1xx_hal_dac_ex.c 0x00000000   Number         0  stm32f1xx_hal_dac_ex.o ABSOLUTE
    ..\Drivers\STM32F1xx_HAL_Driver\Src\stm32f1xx_hal_dma.c 0x00000000   Number         0  stm32f1xx_hal_dma.o ABSOLUTE
    ..\Drivers\STM32F1xx_HAL_Driver\Src\stm32f1xx_hal_flash.c 0x00000000   Number         0  stm32f1xx_hal_flash.o ABSOLUTE
    ..\Drivers\STM32F1xx_HAL_Driver\Src\stm32f1xx_hal_flash_ex.c 0x00000000   Number         0  stm32f1xx_hal_flash_ex.o ABSOLUTE
    ..\Drivers\STM32F1xx_HAL_Driver\Src\stm32f1xx_hal_gpio.c 0x00000000   Number         0  stm32f1xx_hal_gpio.o ABSOLUTE
    ..\Drivers\STM32F1xx_HAL_Driver\Src\stm32f1xx_hal_gpio_ex.c 0x00000000   Number         0  stm32f1xx_hal_gpio_ex.o ABSOLUTE
    ..\Drivers\STM32F1xx_HAL_Driver\Src\stm32f1xx_hal_i2c.c 0x00000000   Number         0  stm32f1xx_hal_i2c.o ABSOLUTE
    ..\Drivers\STM32F1xx_HAL_Driver\Src\stm32f1xx_hal_iwdg.c 0x00000000   Number         0  stm32f1xx_hal_iwdg.o ABSOLUTE
    ..\Drivers\STM32F1xx_HAL_Driver\Src\stm32f1xx_hal_pwr.c 0x00000000   Number         0  stm32f1xx_hal_pwr.o ABSOLUTE
    ..\Drivers\STM32F1xx_HAL_Driver\Src\stm32f1xx_hal_rcc.c 0x00000000   Number         0  stm32f1xx_hal_rcc.o ABSOLUTE
    ..\Drivers\STM32F1xx_HAL_Driver\Src\stm32f1xx_hal_rcc_ex.c 0x00000000   Number         0  stm32f1xx_hal_rcc_ex.o ABSOLUTE
    ..\Drivers\STM32F1xx_HAL_Driver\Src\stm32f1xx_hal_spi.c 0x00000000   Number         0  stm32f1xx_hal_spi.o ABSOLUTE
    ..\Drivers\STM32F1xx_HAL_Driver\Src\stm32f1xx_hal_tim.c 0x00000000   Number         0  stm32f1xx_hal_tim.o ABSOLUTE
    ..\Drivers\STM32F1xx_HAL_Driver\Src\stm32f1xx_hal_tim_ex.c 0x00000000   Number         0  stm32f1xx_hal_tim_ex.o ABSOLUTE
    ..\Drivers\STM32F1xx_HAL_Driver\Src\stm32f1xx_hal_uart.c 0x00000000   Number         0  stm32f1xx_hal_uart.o ABSOLUTE
    ..\Drivers\STM32F1xx_HAL_Driver\Src\stm32f1xx_hal_usart.c 0x00000000   Number         0  stm32f1xx_hal_usart.o ABSOLUTE
    ..\Drivers\STM32F1xx_HAL_Driver\Src\stm32f1xx_hal_wwdg.c 0x00000000   Number         0  stm32f1xx_hal_wwdg.o ABSOLUTE
    ..\Src\BatteryInfor.c                    0x00000000   Number         0  batteryinfor.o ABSOLUTE
    ..\Src\Encoder.c                         0x00000000   Number         0  encoder.o ABSOLUTE
    ..\Src\IndicatorDevice.c                 0x00000000   Number         0  indicatordevice.o ABSOLUTE
    ..\Src\Kinematics_Mecanum.c              0x00000000   Number         0  kinematics_mecanum.o ABSOLUTE
    ..\Src\Loop.c                            0x00000000   Number         0  loop.o ABSOLUTE
    ..\Src\LowPassFilter.c                   0x00000000   Number         0  lowpassfilter.o ABSOLUTE
    ..\Src\MotorControl.c                    0x00000000   Number         0  motorcontrol.o ABSOLUTE
    ..\Src\RC.c                              0x00000000   Number         0  rc.o ABSOLUTE
    ..\Src\Servo.c                           0x00000000   Number         0  servo.o ABSOLUTE
    ..\Src\ShareWare.c                       0x00000000   Number         0  shareware.o ABSOLUTE
    ..\Src\VelocityControl.c                 0x00000000   Number         0  velocitycontrol.o ABSOLUTE
    ..\Src\adc1.c                            0x00000000   Number         0  adc1.o ABSOLUTE
    ..\Src\delayus.c                         0x00000000   Number         0  delayus.o ABSOLUTE
    ..\Src\i2c.c                             0x00000000   Number         0  i2c.o ABSOLUTE
    ..\Src\main.c                            0x00000000   Number         0  main.o ABSOLUTE
    ..\Src\pid.c                             0x00000000   Number         0  pid.o ABSOLUTE
    ..\Src\stm32f1xx_hal_msp.c               0x00000000   Number         0  stm32f1xx_hal_msp.o ABSOLUTE
    ..\Src\stm32f1xx_it.c                    0x00000000   Number         0  stm32f1xx_it.o ABSOLUTE
    ..\Src\tim1.c                            0x00000000   Number         0  tim1.o ABSOLUTE
    ..\Src\tim2.c                            0x00000000   Number         0  tim2.o ABSOLUTE
    ..\Src\tim3.c                            0x00000000   Number         0  tim3.o ABSOLUTE
    ..\Src\tim4.c                            0x00000000   Number         0  tim4.o ABSOLUTE
    ..\Src\tim5.c                            0x00000000   Number         0  tim5.o ABSOLUTE
    ..\Src\tim8.c                            0x00000000   Number         0  tim8.o ABSOLUTE
    ..\Src\uart.c                            0x00000000   Number         0  uart.o ABSOLUTE
    ..\\Drivers\\STM32F1xx_HAL_Driver\\Src\\stm32f1xx_hal_can.c 0x00000000   Number         0  stm32f1xx_hal_can.o ABSOLUTE
    ..\\Drivers\\STM32F1xx_HAL_Driver\\Src\\stm32f1xx_hal_dac.c 0x00000000   Number         0  stm32f1xx_hal_dac.o ABSOLUTE
    ..\\Drivers\\STM32F1xx_HAL_Driver\\Src\\stm32f1xx_hal_dac_ex.c 0x00000000   Number         0  stm32f1xx_hal_dac_ex.o ABSOLUTE
    ..\\Drivers\\STM32F1xx_HAL_Driver\\Src\\stm32f1xx_hal_i2c.c 0x00000000   Number         0  stm32f1xx_hal_i2c.o ABSOLUTE
    ..\\Drivers\\STM32F1xx_HAL_Driver\\Src\\stm32f1xx_hal_iwdg.c 0x00000000   Number         0  stm32f1xx_hal_iwdg.o ABSOLUTE
    ..\\Drivers\\STM32F1xx_HAL_Driver\\Src\\stm32f1xx_hal_spi.c 0x00000000   Number         0  stm32f1xx_hal_spi.o ABSOLUTE
    ..\\Drivers\\STM32F1xx_HAL_Driver\\Src\\stm32f1xx_hal_usart.c 0x00000000   Number         0  stm32f1xx_hal_usart.o ABSOLUTE
    ..\\Drivers\\STM32F1xx_HAL_Driver\\Src\\stm32f1xx_hal_wwdg.c 0x00000000   Number         0  stm32f1xx_hal_wwdg.o ABSOLUTE
    ..\\Src\\BatteryInfor.c                  0x00000000   Number         0  batteryinfor.o ABSOLUTE
    ..\\Src\\Encoder.c                       0x00000000   Number         0  encoder.o ABSOLUTE
    ..\\Src\\IndicatorDevice.c               0x00000000   Number         0  indicatordevice.o ABSOLUTE
    ..\\Src\\Kinematics_Mecanum.c            0x00000000   Number         0  kinematics_mecanum.o ABSOLUTE
    ..\\Src\\Loop.c                          0x00000000   Number         0  loop.o ABSOLUTE
    ..\\Src\\LowPassFilter.c                 0x00000000   Number         0  lowpassfilter.o ABSOLUTE
    ..\\Src\\MotorControl.c                  0x00000000   Number         0  motorcontrol.o ABSOLUTE
    ..\\Src\\RC.c                            0x00000000   Number         0  rc.o ABSOLUTE
    ..\\Src\\Servo.c                         0x00000000   Number         0  servo.o ABSOLUTE
    ..\\Src\\ShareWare.c                     0x00000000   Number         0  shareware.o ABSOLUTE
    ..\\Src\\VelocityControl.c               0x00000000   Number         0  velocitycontrol.o ABSOLUTE
    ..\\Src\\adc1.c                          0x00000000   Number         0  adc1.o ABSOLUTE
    ..\\Src\\delayus.c                       0x00000000   Number         0  delayus.o ABSOLUTE
    ..\\Src\\i2c.c                           0x00000000   Number         0  i2c.o ABSOLUTE
    ..\\Src\\pid.c                           0x00000000   Number         0  pid.o ABSOLUTE
    ..\\Src\\tim1.c                          0x00000000   Number         0  tim1.o ABSOLUTE
    ..\\Src\\tim2.c                          0x00000000   Number         0  tim2.o ABSOLUTE
    ..\\Src\\tim3.c                          0x00000000   Number         0  tim3.o ABSOLUTE
    ..\\Src\\tim4.c                          0x00000000   Number         0  tim4.o ABSOLUTE
    ..\\Src\\tim5.c                          0x00000000   Number         0  tim5.o ABSOLUTE
    ..\\Src\\tim8.c                          0x00000000   Number         0  tim8.o ABSOLUTE
    ..\\Src\\uart.c                          0x00000000   Number         0  uart.o ABSOLUTE
    ..\\Src\system_stm32f1xx.c               0x00000000   Number         0  system_stm32f1xx.o ABSOLUTE
    cdrcmple.s                               0x00000000   Number         0  cdrcmple.o ABSOLUTE
    cfcmple.s                                0x00000000   Number         0  cfcmple.o ABSOLUTE
    cfrcmple.s                               0x00000000   Number         0  cfrcmple.o ABSOLUTE
    dc.s                                     0x00000000   Number         0  dc.o ABSOLUTE
    handlers.s                               0x00000000   Number         0  handlers.o ABSOLUTE
    init.s                                   0x00000000   Number         0  init.o ABSOLUTE
    startup_stm32f103xe.s                    0x00000000   Number         0  startup_stm32f103xe.o ABSOLUTE
    RESET                                    0x08000000   Section      304  startup_stm32f103xe.o(RESET)
    .ARM.Collect$$$$00000000                 0x08000130   Section        0  entry.o(.ARM.Collect$$$$00000000)
    .ARM.Collect$$$$00000001                 0x08000130   Section        4  entry2.o(.ARM.Collect$$$$00000001)
    .ARM.Collect$$$$00000004                 0x08000134   Section        4  entry5.o(.ARM.Collect$$$$00000004)
    .ARM.Collect$$$$00000008                 0x08000138   Section        0  entry7b.o(.ARM.Collect$$$$00000008)
    .ARM.Collect$$$$0000000A                 0x08000138   Section        0  entry8b.o(.ARM.Collect$$$$0000000A)
    .ARM.Collect$$$$0000000B                 0x08000138   Section        8  entry9a.o(.ARM.Collect$$$$0000000B)
    .ARM.Collect$$$$0000000D                 0x08000140   Section        0  entry10a.o(.ARM.Collect$$$$0000000D)
    .ARM.Collect$$$$0000000F                 0x08000140   Section        0  entry11a.o(.ARM.Collect$$$$0000000F)
    .ARM.Collect$$$$00002712                 0x08000140   Section        4  entry2.o(.ARM.Collect$$$$00002712)
    __lit__00000000                          0x08000140   Data           4  entry2.o(.ARM.Collect$$$$00002712)
    .text                                    0x08000144   Section       36  startup_stm32f103xe.o(.text)
    .text                                    0x08000168   Section        0  llushr.o(.text)
    .text                                    0x08000188   Section        0  fadd.o(.text)
    .text                                    0x08000238   Section        0  fmul.o(.text)
    .text                                    0x0800029c   Section        0  fdiv.o(.text)
    .text                                    0x08000318   Section        0  fscalb.o(.text)
    .text                                    0x08000330   Section        0  dadd.o(.text)
    .text                                    0x0800047e   Section        0  fflti.o(.text)
    .text                                    0x08000490   Section        0  ffltui.o(.text)
    .text                                    0x0800049a   Section        0  ffixui.o(.text)
    .text                                    0x080004c2   Section        0  f2d.o(.text)
    .text                                    0x080004e8   Section        0  d2f.o(.text)
    .text                                    0x08000520   Section       20  cfcmple.o(.text)
    .text                                    0x08000534   Section        0  llshl.o(.text)
    .text                                    0x08000552   Section        0  llsshr.o(.text)
    .text                                    0x08000576   Section        0  fepilogue.o(.text)
    .text                                    0x08000576   Section        0  iusefp.o(.text)
    .text                                    0x080005e4   Section        0  depilogue.o(.text)
    .text                                    0x080006a0   Section       36  init.o(.text)
    i.ADC_ConversionStop_Disable             0x080006c4   Section        0  stm32f1xx_hal_adc.o(i.ADC_ConversionStop_Disable)
    i.ADC_DMAConvCplt                        0x0800070e   Section        0  stm32f1xx_hal_adc.o(i.ADC_DMAConvCplt)
    i.ADC_DMAError                           0x0800075c   Section        0  stm32f1xx_hal_adc.o(i.ADC_DMAError)
    i.ADC_DMAHalfConvCplt                    0x08000776   Section        0  stm32f1xx_hal_adc.o(i.ADC_DMAHalfConvCplt)
    i.ADC_Enable                             0x08000780   Section        0  stm32f1xx_hal_adc.o(i.ADC_Enable)
    i.BusFault_Handler                       0x080007f0   Section        0  stm32f1xx_it.o(i.BusFault_Handler)
    i.BuzzerControl                          0x080007f4   Section        0  indicatordevice.o(i.BuzzerControl)
    i.Buzzer_GPIO_Init                       0x08000870   Section        0  indicatordevice.o(i.Buzzer_GPIO_Init)
    i.DMA1_Channel6_IRQHandler               0x080008b8   Section        0  stm32f1xx_it.o(i.DMA1_Channel6_IRQHandler)
    i.DMA1_Channel7_IRQHandler               0x080008c4   Section        0  stm32f1xx_it.o(i.DMA1_Channel7_IRQHandler)
    i.DMA2_Channel3_IRQHandler               0x080008d0   Section        0  stm32f1xx_it.o(i.DMA2_Channel3_IRQHandler)
    i.DMA2_Channel4_5_IRQHandler             0x080008dc   Section        0  stm32f1xx_it.o(i.DMA2_Channel4_5_IRQHandler)
    i.DMA_SetConfig                          0x080008e8   Section        0  stm32f1xx_hal_dma.o(i.DMA_SetConfig)
    DMA_SetConfig                            0x080008e9   Thumb Code    42  stm32f1xx_hal_dma.o(i.DMA_SetConfig)
    i.DebugMon_Handler                       0x08000912   Section        0  stm32f1xx_it.o(i.DebugMon_Handler)
    i.Encoder_Struct_Init                    0x08000914   Section        0  encoder.o(i.Encoder_Struct_Init)
    i.Encoder_UpdataValue                    0x08000948   Section        0  encoder.o(i.Encoder_UpdataValue)
    i.GetdBatteryCapacity                    0x080009d0   Section        0  batteryinfor.o(i.GetdBatteryCapacity)
    i.HAL_ADC_ConfigChannel                  0x08000c54   Section        0  stm32f1xx_hal_adc.o(i.HAL_ADC_ConfigChannel)
    i.HAL_ADC_ConvCpltCallback               0x08000d50   Section        0  stm32f1xx_hal_adc.o(i.HAL_ADC_ConvCpltCallback)
    i.HAL_ADC_ConvHalfCpltCallback           0x08000d52   Section        0  stm32f1xx_hal_adc.o(i.HAL_ADC_ConvHalfCpltCallback)
    i.HAL_ADC_ErrorCallback                  0x08000d54   Section        0  stm32f1xx_hal_adc.o(i.HAL_ADC_ErrorCallback)
    i.HAL_ADC_Init                           0x08000d58   Section        0  stm32f1xx_hal_adc.o(i.HAL_ADC_Init)
    i.HAL_ADC_MspInit                        0x08000e78   Section        0  stm32f1xx_hal_msp.o(i.HAL_ADC_MspInit)
    i.HAL_ADC_Start                          0x08000f0c   Section        0  stm32f1xx_hal_adc.o(i.HAL_ADC_Start)
    i.HAL_ADC_Start_DMA                      0x08000fcc   Section        0  stm32f1xx_hal_adc.o(i.HAL_ADC_Start_DMA)
    i.HAL_DMA_Abort                          0x080010d8   Section        0  stm32f1xx_hal_dma.o(i.HAL_DMA_Abort)
    i.HAL_DMA_Abort_IT                       0x08001108   Section        0  stm32f1xx_hal_dma.o(i.HAL_DMA_Abort_IT)
    i.HAL_DMA_IRQHandler                     0x08001238   Section        0  stm32f1xx_hal_dma.o(i.HAL_DMA_IRQHandler)
    i.HAL_DMA_Init                           0x08001480   Section        0  stm32f1xx_hal_dma.o(i.HAL_DMA_Init)
    i.HAL_DMA_Start_IT                       0x08001504   Section        0  stm32f1xx_hal_dma.o(i.HAL_DMA_Start_IT)
    i.HAL_Delay                              0x08001574   Section        0  stm32f1xx_hal.o(i.HAL_Delay)
    i.HAL_GPIO_Init                          0x08001598   Section        0  stm32f1xx_hal_gpio.o(i.HAL_GPIO_Init)
    i.HAL_GPIO_TogglePin                     0x08001784   Section        0  stm32f1xx_hal_gpio.o(i.HAL_GPIO_TogglePin)
    i.HAL_GPIO_WritePin                      0x0800178c   Section        0  stm32f1xx_hal_gpio.o(i.HAL_GPIO_WritePin)
    i.HAL_GetTick                            0x08001798   Section        0  stm32f1xx_hal.o(i.HAL_GetTick)
    i.HAL_I2C_AbortCpltCallback              0x080017a4   Section        0  stm32f1xx_hal_i2c.o(i.HAL_I2C_AbortCpltCallback)
    i.HAL_I2C_AddrCallback                   0x080017a6   Section        0  stm32f1xx_hal_i2c.o(i.HAL_I2C_AddrCallback)
    i.HAL_I2C_ER_IRQHandler                  0x080017a8   Section        0  stm32f1xx_hal_i2c.o(i.HAL_I2C_ER_IRQHandler)
    i.HAL_I2C_EV_IRQHandler                  0x08001878   Section        0  stm32f1xx_hal_i2c.o(i.HAL_I2C_EV_IRQHandler)
    i.HAL_I2C_ErrorCallback                  0x08001a68   Section        0  i2c.o(i.HAL_I2C_ErrorCallback)
    i.HAL_I2C_Init                           0x08001a6c   Section        0  stm32f1xx_hal_i2c.o(i.HAL_I2C_Init)
    i.HAL_I2C_ListenCpltCallback             0x08001bac   Section        0  stm32f1xx_hal_i2c.o(i.HAL_I2C_ListenCpltCallback)
    i.HAL_I2C_MasterRxCpltCallback           0x08001bae   Section        0  stm32f1xx_hal_i2c.o(i.HAL_I2C_MasterRxCpltCallback)
    i.HAL_I2C_MasterTxCpltCallback           0x08001bb0   Section        0  stm32f1xx_hal_i2c.o(i.HAL_I2C_MasterTxCpltCallback)
    i.HAL_I2C_MemRxCpltCallback              0x08001bb4   Section        0  i2c.o(i.HAL_I2C_MemRxCpltCallback)
    i.HAL_I2C_MemTxCpltCallback              0x08001bcc   Section        0  i2c.o(i.HAL_I2C_MemTxCpltCallback)
    i.HAL_I2C_MspInit                        0x08001be4   Section        0  stm32f1xx_hal_msp.o(i.HAL_I2C_MspInit)
    i.HAL_I2C_SlaveRxCpltCallback            0x08001c70   Section        0  stm32f1xx_hal_i2c.o(i.HAL_I2C_SlaveRxCpltCallback)
    i.HAL_I2C_SlaveTxCpltCallback            0x08001c72   Section        0  stm32f1xx_hal_i2c.o(i.HAL_I2C_SlaveTxCpltCallback)
    i.HAL_IncTick                            0x08001c74   Section        0  stm32f1xx_hal.o(i.HAL_IncTick)
    i.HAL_Init                               0x08001c84   Section        0  stm32f1xx_hal.o(i.HAL_Init)
    i.HAL_InitTick                           0x08001ca8   Section        0  stm32f1xx_hal.o(i.HAL_InitTick)
    i.HAL_MspInit                            0x08001ce8   Section        0  stm32f1xx_hal_msp.o(i.HAL_MspInit)
    i.HAL_NVIC_EnableIRQ                     0x08001d68   Section        0  stm32f1xx_hal_cortex.o(i.HAL_NVIC_EnableIRQ)
    i.HAL_NVIC_SetPriority                   0x08001d80   Section        0  stm32f1xx_hal_cortex.o(i.HAL_NVIC_SetPriority)
    i.HAL_NVIC_SetPriorityGrouping           0x08001dc0   Section        0  stm32f1xx_hal_cortex.o(i.HAL_NVIC_SetPriorityGrouping)
    i.HAL_RCCEx_PeriphCLKConfig              0x08001de4   Section        0  stm32f1xx_hal_rcc_ex.o(i.HAL_RCCEx_PeriphCLKConfig)
    i.HAL_RCC_ClockConfig                    0x08001ecc   Section        0  stm32f1xx_hal_rcc.o(i.HAL_RCC_ClockConfig)
    i.HAL_RCC_GetHCLKFreq                    0x08002018   Section        0  stm32f1xx_hal_rcc.o(i.HAL_RCC_GetHCLKFreq)
    i.HAL_RCC_GetPCLK1Freq                   0x08002024   Section        0  stm32f1xx_hal_rcc.o(i.HAL_RCC_GetPCLK1Freq)
    i.HAL_RCC_GetPCLK2Freq                   0x08002044   Section        0  stm32f1xx_hal_rcc.o(i.HAL_RCC_GetPCLK2Freq)
    i.HAL_RCC_GetSysClockFreq                0x08002064   Section        0  stm32f1xx_hal_rcc.o(i.HAL_RCC_GetSysClockFreq)
    i.HAL_RCC_OscConfig                      0x080020d0   Section        0  stm32f1xx_hal_rcc.o(i.HAL_RCC_OscConfig)
    i.HAL_SYSTICK_CLKSourceConfig            0x080023c8   Section        0  stm32f1xx_hal_cortex.o(i.HAL_SYSTICK_CLKSourceConfig)
    i.HAL_SYSTICK_Callback                   0x080023e0   Section        0  loop.o(i.HAL_SYSTICK_Callback)
    i.HAL_SYSTICK_Config                     0x08002424   Section        0  stm32f1xx_hal_cortex.o(i.HAL_SYSTICK_Config)
    i.HAL_SYSTICK_IRQHandler                 0x0800244c   Section        0  stm32f1xx_hal_cortex.o(i.HAL_SYSTICK_IRQHandler)
    i.HAL_TIMEx_BreakCallback                0x08002454   Section        0  stm32f1xx_hal_tim_ex.o(i.HAL_TIMEx_BreakCallback)
    i.HAL_TIMEx_CommutationCallback          0x08002456   Section        0  stm32f1xx_hal_tim_ex.o(i.HAL_TIMEx_CommutationCallback)
    i.HAL_TIMEx_ConfigBreakDeadTime          0x08002458   Section        0  stm32f1xx_hal_tim_ex.o(i.HAL_TIMEx_ConfigBreakDeadTime)
    i.HAL_TIMEx_MasterConfigSynchronization  0x080024b2   Section        0  stm32f1xx_hal_tim_ex.o(i.HAL_TIMEx_MasterConfigSynchronization)
    i.HAL_TIM_Encoder_Init                   0x08002502   Section        0  stm32f1xx_hal_tim.o(i.HAL_TIM_Encoder_Init)
    i.HAL_TIM_Encoder_MspInit                0x08002598   Section        0  stm32f1xx_hal_msp.o(i.HAL_TIM_Encoder_MspInit)
    i.HAL_TIM_Encoder_Start                  0x0800272c   Section        0  stm32f1xx_hal_tim.o(i.HAL_TIM_Encoder_Start)
    i.HAL_TIM_IC_CaptureCallback             0x0800275e   Section        0  stm32f1xx_hal_tim.o(i.HAL_TIM_IC_CaptureCallback)
    i.HAL_TIM_IRQHandler                     0x08002760   Section        0  stm32f1xx_hal_tim.o(i.HAL_TIM_IRQHandler)
    i.HAL_TIM_OC_DelayElapsedCallback        0x080028c6   Section        0  stm32f1xx_hal_tim.o(i.HAL_TIM_OC_DelayElapsedCallback)
    i.HAL_TIM_PWM_ConfigChannel              0x080028c8   Section        0  stm32f1xx_hal_tim.o(i.HAL_TIM_PWM_ConfigChannel)
    i.HAL_TIM_PWM_Init                       0x08002998   Section        0  stm32f1xx_hal_tim.o(i.HAL_TIM_PWM_Init)
    i.HAL_TIM_PWM_MspInit                    0x080029d0   Section        0  stm32f1xx_hal_msp.o(i.HAL_TIM_PWM_MspInit)
    i.HAL_TIM_PWM_PulseFinishedCallback      0x08002a60   Section        0  stm32f1xx_hal_tim.o(i.HAL_TIM_PWM_PulseFinishedCallback)
    i.HAL_TIM_PWM_Start                      0x08002a64   Section        0  stm32f1xx_hal_tim.o(i.HAL_TIM_PWM_Start)
    i.HAL_TIM_PeriodElapsedCallback          0x08002a9c   Section        0  encoder.o(i.HAL_TIM_PeriodElapsedCallback)
    i.HAL_TIM_TriggerCallback                0x08002b2c   Section        0  stm32f1xx_hal_tim.o(i.HAL_TIM_TriggerCallback)
    i.HAL_UART_DMAStop                       0x08002b2e   Section        0  stm32f1xx_hal_uart.o(i.HAL_UART_DMAStop)
    i.HAL_UART_ErrorCallback                 0x08002b86   Section        0  uart.o(i.HAL_UART_ErrorCallback)
    i.HAL_UART_IRQHandler                    0x08002bd4   Section        0  stm32f1xx_hal_uart.o(i.HAL_UART_IRQHandler)
    i.HAL_UART_Init                          0x08002ce4   Section        0  stm32f1xx_hal_uart.o(i.HAL_UART_Init)
    i.HAL_UART_MspInit                       0x08002d48   Section        0  stm32f1xx_hal_msp.o(i.HAL_UART_MspInit)
    i.HAL_UART_Receive_DMA                   0x08002f34   Section        0  stm32f1xx_hal_uart.o(i.HAL_UART_Receive_DMA)
    i.HAL_UART_RxCpltCallback                0x08002fcc   Section        0  uart.o(i.HAL_UART_RxCpltCallback)
    i.HAL_UART_RxHalfCpltCallback            0x08002fce   Section        0  stm32f1xx_hal_uart.o(i.HAL_UART_RxHalfCpltCallback)
    i.HAL_UART_TxCpltCallback                0x08002fd0   Section        0  uart.o(i.HAL_UART_TxCpltCallback)
    i.HardFault_Handler                      0x08002fd2   Section        0  stm32f1xx_it.o(i.HardFault_Handler)
    i.I2C1_ER_IRQHandler                     0x08002fd4   Section        0  stm32f1xx_it.o(i.I2C1_ER_IRQHandler)
    i.I2C1_EV_IRQHandler                     0x08002fe0   Section        0  stm32f1xx_it.o(i.I2C1_EV_IRQHandler)
    i.I2C_DMAAbort                           0x08002fec   Section        0  stm32f1xx_hal_i2c.o(i.I2C_DMAAbort)
    I2C_DMAAbort                             0x08002fed   Thumb Code    78  stm32f1xx_hal_i2c.o(i.I2C_DMAAbort)
    i.I2C_ITError                            0x0800303c   Section        0  stm32f1xx_hal_i2c.o(i.I2C_ITError)
    I2C_ITError                              0x0800303d   Thumb Code   284  stm32f1xx_hal_i2c.o(i.I2C_ITError)
    i.I2C_MasterReceive_BTF                  0x08003160   Section        0  stm32f1xx_hal_i2c.o(i.I2C_MasterReceive_BTF)
    I2C_MasterReceive_BTF                    0x08003161   Thumb Code   194  stm32f1xx_hal_i2c.o(i.I2C_MasterReceive_BTF)
    i.I2C_MasterReceive_RXNE                 0x08003228   Section        0  stm32f1xx_hal_i2c.o(i.I2C_MasterReceive_RXNE)
    I2C_MasterReceive_RXNE                   0x08003229   Thumb Code   174  stm32f1xx_hal_i2c.o(i.I2C_MasterReceive_RXNE)
    i.I2C_MasterTransmit_BTF                 0x080032d6   Section        0  stm32f1xx_hal_i2c.o(i.I2C_MasterTransmit_BTF)
    I2C_MasterTransmit_BTF                   0x080032d7   Thumb Code   128  stm32f1xx_hal_i2c.o(i.I2C_MasterTransmit_BTF)
    i.I2C_MasterTransmit_TXE                 0x08003356   Section        0  stm32f1xx_hal_i2c.o(i.I2C_MasterTransmit_TXE)
    I2C_MasterTransmit_TXE                   0x08003357   Thumb Code   262  stm32f1xx_hal_i2c.o(i.I2C_MasterTransmit_TXE)
    i.I2C_Master_ADDR                        0x0800345c   Section        0  stm32f1xx_hal_i2c.o(i.I2C_Master_ADDR)
    I2C_Master_ADDR                          0x0800345d   Thumb Code   282  stm32f1xx_hal_i2c.o(i.I2C_Master_ADDR)
    i.I2C_Master_SB                          0x08003576   Section        0  stm32f1xx_hal_i2c.o(i.I2C_Master_SB)
    I2C_Master_SB                            0x08003577   Thumb Code    90  stm32f1xx_hal_i2c.o(i.I2C_Master_SB)
    i.I2C_Slave_AF                           0x080035d0   Section        0  stm32f1xx_hal_i2c.o(i.I2C_Slave_AF)
    I2C_Slave_AF                             0x080035d1   Thumb Code   128  stm32f1xx_hal_i2c.o(i.I2C_Slave_AF)
    i.I2C_Slave_STOPF                        0x08003654   Section        0  stm32f1xx_hal_i2c.o(i.I2C_Slave_STOPF)
    I2C_Slave_STOPF                          0x08003655   Thumb Code   214  stm32f1xx_hal_i2c.o(i.I2C_Slave_STOPF)
    i.IncPID_Init                            0x08003730   Section        0  pid.o(i.IncPID_Init)
    i.Incremental_PID                        0x08003740   Section        0  pid.o(i.Incremental_PID)
    i.IndicatorDeviceControl                 0x08003798   Section        0  indicatordevice.o(i.IndicatorDeviceControl)
    i.Kinematics_Mecanum_CalculateRPM        0x08003840   Section        0  kinematics_mecanum.o(i.Kinematics_Mecanum_CalculateRPM)
    i.Kinematics_Mecanum_GetVelocities       0x080038d4   Section        0  kinematics_mecanum.o(i.Kinematics_Mecanum_GetVelocities)
    i.LED_Green_Control                      0x08003970   Section        0  indicatordevice.o(i.LED_Green_Control)
    i.LED_Green_GPIO_Init                    0x080039ec   Section        0  indicatordevice.o(i.LED_Green_GPIO_Init)
    i.LED_Red_Control                        0x08003a30   Section        0  indicatordevice.o(i.LED_Red_Control)
    i.LED_Red_GPIO_Init                      0x08003aac   Section        0  indicatordevice.o(i.LED_Red_GPIO_Init)
    i.LPF_Struct_Init                        0x08003af0   Section        0  lowpassfilter.o(i.LPF_Struct_Init)
    i.LowPassFilter                          0x08003afa   Section        0  lowpassfilter.o(i.LowPassFilter)
    i.MX_ADC1_Init                           0x08003b24   Section        0  adc1.o(i.MX_ADC1_Init)
    i.MX_I2C1_Init                           0x08003b88   Section        0  i2c.o(i.MX_I2C1_Init)
    i.MX_TIM1_Init                           0x08003bd0   Section        0  tim1.o(i.MX_TIM1_Init)
    i.MX_TIM2_Init                           0x08003c80   Section        0  tim2.o(i.MX_TIM2_Init)
    i.MX_TIM3_Init                           0x08003cf4   Section        0  tim3.o(i.MX_TIM3_Init)
    i.MX_TIM4_Init                           0x08003d54   Section        0  tim4.o(i.MX_TIM4_Init)
    i.MX_TIM5_Init                           0x08003db4   Section        0  tim5.o(i.MX_TIM5_Init)
    i.MX_TIM8_Init                           0x08003e14   Section        0  tim8.o(i.MX_TIM8_Init)
    i.MX_UART4_Init                          0x08003ec4   Section        0  uart.o(i.MX_UART4_Init)
    i.MX_USART2_Init                         0x08003f14   Section        0  uart.o(i.MX_USART2_Init)
    i.MemManage_Handler                      0x08003f58   Section        0  stm32f1xx_it.o(i.MemManage_Handler)
    i.Motor1_Forward                         0x08003f5c   Section        0  motorcontrol.o(i.Motor1_Forward)
    i.Motor1_GPIO_Init                       0x08003f6c   Section        0  motorcontrol.o(i.Motor1_GPIO_Init)
    i.Motor1_Reverse                         0x08003fb0   Section        0  motorcontrol.o(i.Motor1_Reverse)
    i.Motor2_Forward                         0x08003fc0   Section        0  motorcontrol.o(i.Motor2_Forward)
    i.Motor2_GPIO_Init                       0x08003fd0   Section        0  motorcontrol.o(i.Motor2_GPIO_Init)
    i.Motor2_Reverse                         0x08004014   Section        0  motorcontrol.o(i.Motor2_Reverse)
    i.Motor3_Forward                         0x08004024   Section        0  motorcontrol.o(i.Motor3_Forward)
    i.Motor3_GPIO_Init                       0x08004034   Section        0  motorcontrol.o(i.Motor3_GPIO_Init)
    i.Motor3_Reverse                         0x08004078   Section        0  motorcontrol.o(i.Motor3_Reverse)
    i.Motor4_Forward                         0x08004088   Section        0  motorcontrol.o(i.Motor4_Forward)
    i.Motor4_GPIO_Init                       0x08004098   Section        0  motorcontrol.o(i.Motor4_GPIO_Init)
    i.Motor4_Reverse                         0x080040dc   Section        0  motorcontrol.o(i.Motor4_Reverse)
    i.NMI_Handler                            0x080040ec   Section        0  stm32f1xx_it.o(i.NMI_Handler)
    i.NVIC_SetPriority                       0x080040ee   Section        0  stm32f1xx_hal_cortex.o(i.NVIC_SetPriority)
    NVIC_SetPriority                         0x080040ef   Thumb Code    32  stm32f1xx_hal_cortex.o(i.NVIC_SetPriority)
    i.PendSV_Handler                         0x0800410e   Section        0  stm32f1xx_it.o(i.PendSV_Handler)
    i.RC_Update                              0x08004110   Section        0  rc.o(i.RC_Update)
    i.RC_UpdateStruct                        0x080041e0   Section        0  rc.o(i.RC_UpdateStruct)
    i.SVC_Handler                            0x08004384   Section        0  stm32f1xx_it.o(i.SVC_Handler)
    i.Servo_PositionControl                  0x08004388   Section        0  servo.o(i.Servo_PositionControl)
    i.Servo_ServoControl                     0x08004438   Section        0  servo.o(i.Servo_ServoControl)
    i.SysTick_Handler                        0x08004490   Section        0  stm32f1xx_it.o(i.SysTick_Handler)
    i.SystemClock_Config                     0x0800449e   Section        0  main.o(i.SystemClock_Config)
    i.SystemInit                             0x08004518   Section        0  system_stm32f1xx.o(i.SystemInit)
    i.TIM2_IRQHandler                        0x08004560   Section        0  stm32f1xx_it.o(i.TIM2_IRQHandler)
    i.TIM3_IRQHandler                        0x0800456c   Section        0  stm32f1xx_it.o(i.TIM3_IRQHandler)
    i.TIM4_IRQHandler                        0x08004578   Section        0  stm32f1xx_it.o(i.TIM4_IRQHandler)
    i.TIM5_IRQHandler                        0x08004584   Section        0  stm32f1xx_it.o(i.TIM5_IRQHandler)
    i.TIM_Base_SetConfig                     0x08004590   Section        0  stm32f1xx_hal_tim.o(i.TIM_Base_SetConfig)
    i.TIM_CCxChannelCmd                      0x0800461c   Section        0  stm32f1xx_hal_tim.o(i.TIM_CCxChannelCmd)
    i.TIM_OC1_SetConfig                      0x08004634   Section        0  stm32f1xx_hal_tim.o(i.TIM_OC1_SetConfig)
    TIM_OC1_SetConfig                        0x08004635   Thumb Code    88  stm32f1xx_hal_tim.o(i.TIM_OC1_SetConfig)
    i.TIM_OC2_SetConfig                      0x08004694   Section        0  stm32f1xx_hal_tim.o(i.TIM_OC2_SetConfig)
    i.TIM_OC3_SetConfig                      0x08004700   Section        0  stm32f1xx_hal_tim.o(i.TIM_OC3_SetConfig)
    TIM_OC3_SetConfig                        0x08004701   Thumb Code    96  stm32f1xx_hal_tim.o(i.TIM_OC3_SetConfig)
    i.TIM_OC4_SetConfig                      0x08004768   Section        0  stm32f1xx_hal_tim.o(i.TIM_OC4_SetConfig)
    TIM_OC4_SetConfig                        0x08004769   Thumb Code    70  stm32f1xx_hal_tim.o(i.TIM_OC4_SetConfig)
    i.UART4_IRQHandler                       0x080047b8   Section        0  stm32f1xx_it.o(i.UART4_IRQHandler)
    i.UART_DMAAbortOnError                   0x080047d8   Section        0  stm32f1xx_hal_uart.o(i.UART_DMAAbortOnError)
    UART_DMAAbortOnError                     0x080047d9   Thumb Code    16  stm32f1xx_hal_uart.o(i.UART_DMAAbortOnError)
    i.UART_DMAError                          0x080047e8   Section        0  stm32f1xx_hal_uart.o(i.UART_DMAError)
    UART_DMAError                            0x080047e9   Thumb Code    74  stm32f1xx_hal_uart.o(i.UART_DMAError)
    i.UART_DMAReceiveCplt                    0x08004832   Section        0  stm32f1xx_hal_uart.o(i.UART_DMAReceiveCplt)
    UART_DMAReceiveCplt                      0x08004833   Thumb Code    60  stm32f1xx_hal_uart.o(i.UART_DMAReceiveCplt)
    i.UART_DMARxHalfCplt                     0x0800486e   Section        0  stm32f1xx_hal_uart.o(i.UART_DMARxHalfCplt)
    UART_DMARxHalfCplt                       0x0800486f   Thumb Code    10  stm32f1xx_hal_uart.o(i.UART_DMARxHalfCplt)
    i.UART_EndRxTransfer                     0x08004878   Section        0  stm32f1xx_hal_uart.o(i.UART_EndRxTransfer)
    UART_EndRxTransfer                       0x08004879   Thumb Code    28  stm32f1xx_hal_uart.o(i.UART_EndRxTransfer)
    i.UART_EndTxTransfer                     0x08004894   Section        0  stm32f1xx_hal_uart.o(i.UART_EndTxTransfer)
    UART_EndTxTransfer                       0x08004895   Thumb Code    18  stm32f1xx_hal_uart.o(i.UART_EndTxTransfer)
    i.UART_Receive_IT                        0x080048a6   Section        0  stm32f1xx_hal_uart.o(i.UART_Receive_IT)
    UART_Receive_IT                          0x080048a7   Thumb Code   150  stm32f1xx_hal_uart.o(i.UART_Receive_IT)
    i.UART_SetConfig                         0x0800493c   Section        0  stm32f1xx_hal_uart.o(i.UART_SetConfig)
    UART_SetConfig                           0x0800493d   Thumb Code   364  stm32f1xx_hal_uart.o(i.UART_SetConfig)
    i.UART_Transmit_IT                       0x08004aac   Section        0  stm32f1xx_hal_uart.o(i.UART_Transmit_IT)
    UART_Transmit_IT                         0x08004aad   Thumb Code    98  stm32f1xx_hal_uart.o(i.UART_Transmit_IT)
    i.USART2_IRQHandler                      0x08004b10   Section        0  stm32f1xx_it.o(i.USART2_IRQHandler)
    i.UpdateBatteryInfor                     0x08004b30   Section        0  batteryinfor.o(i.UpdateBatteryInfor)
    i.UsageFault_Handler                     0x08004b84   Section        0  stm32f1xx_it.o(i.UsageFault_Handler)
    i.UsartReceive_IDLE                      0x08004b88   Section        0  uart.o(i.UsartReceive_IDLE)
    i.VelocityControl_4WD                    0x08004c04   Section        0  velocitycontrol.o(i.VelocityControl_4WD)
    i.__scatterload_copy                     0x08004f58   Section       14  handlers.o(i.__scatterload_copy)
    i.__scatterload_null                     0x08004f66   Section        2  handlers.o(i.__scatterload_null)
    i.__scatterload_zeroinit                 0x08004f68   Section       14  handlers.o(i.__scatterload_zeroinit)
    i.main                                   0x08004f78   Section        0  main.o(i.main)
    .constdata                               0x080051d0   Section       16  system_stm32f1xx.o(.constdata)
    .constdata                               0x080051e0   Section        8  system_stm32f1xx.o(.constdata)
    .data                                    0x20000000   Section        6  main.o(.data)
    .data                                    0x20000006   Section        2  main.o(.data)
    .data                                    0x20000008   Section        8  adc1.o(.data)
    .data                                    0x20000010   Section        2  i2c.o(.data)
    .data                                    0x20000012   Section       34  indicatordevice.o(.data)
    LastTimes                                0x20000022   Data           2  indicatordevice.o(.data)
    LastPeriodTime                           0x20000024   Data           2  indicatordevice.o(.data)
    LastTimes                                0x20000026   Data           2  indicatordevice.o(.data)
    LastPeriodTime                           0x20000028   Data           2  indicatordevice.o(.data)
    LastTimes                                0x2000002a   Data           2  indicatordevice.o(.data)
    LastPeriodTime                           0x2000002c   Data           2  indicatordevice.o(.data)
    .data                                    0x20000034   Section       10  encoder.o(.data)
    .data                                    0x20000040   Section        4  batteryinfor.o(.data)
    VREFINT                                  0x20000040   Data           4  batteryinfor.o(.data)
    .data                                    0x20000044   Section       16  velocitycontrol.o(.data)
    PWM_M1                                   0x20000044   Data           4  velocitycontrol.o(.data)
    PWM_M2                                   0x20000048   Data           4  velocitycontrol.o(.data)
    PWM_M3                                   0x2000004c   Data           4  velocitycontrol.o(.data)
    PWM_M4                                   0x20000050   Data           4  velocitycontrol.o(.data)
    .data                                    0x20000054   Section       12  stm32f1xx_hal.o(.data)
    .data                                    0x20000060   Section        4  system_stm32f1xx.o(.data)
    .data                                    0x20000064   Section       14  rc.o(.data)
    DisconnectCount                          0x20000064   Data           1  rc.o(.data)
    CH1                                      0x20000066   Data           2  rc.o(.data)
    CH2                                      0x20000068   Data           2  rc.o(.data)
    CH3                                      0x2000006a   Data           2  rc.o(.data)
    CH4                                      0x2000006c   Data           2  rc.o(.data)
    CH5                                      0x2000006e   Data           2  rc.o(.data)
    CH6                                      0x20000070   Data           2  rc.o(.data)
    .bss                                     0x20000074   Section       12  shareware.o(.bss)
    .bss                                     0x20000080   Section       12  shareware.o(.bss)
    .bss                                     0x2000008c   Section       12  shareware.o(.bss)
    .bss                                     0x20000098   Section       12  shareware.o(.bss)
    .bss                                     0x200000a4   Section       12  shareware.o(.bss)
    .bss                                     0x200000b0   Section       40  shareware.o(.bss)
    .bss                                     0x200000d8   Section       24  shareware.o(.bss)
    .bss                                     0x200000f0   Section       24  shareware.o(.bss)
    .bss                                     0x20000108   Section       24  shareware.o(.bss)
    .bss                                     0x20000120   Section       24  shareware.o(.bss)
    .bss                                     0x20000138   Section       12  shareware.o(.bss)
    .bss                                     0x20000144   Section       12  shareware.o(.bss)
    .bss                                     0x20000150   Section       12  shareware.o(.bss)
    .bss                                     0x2000015c   Section       12  shareware.o(.bss)
    .bss                                     0x20000168   Section       32  shareware.o(.bss)
    .bss                                     0x20000188   Section       28  shareware.o(.bss)
    .bss                                     0x200001a4   Section       28  shareware.o(.bss)
    .bss                                     0x200001c0   Section       64  tim8.o(.bss)
    .bss                                     0x20000200   Section      456  uart.o(.bss)
    .bss                                     0x200003c8   Section       68  uart.o(.bss)
    .bss                                     0x2000040c   Section       68  uart.o(.bss)
    .bss                                     0x20000450   Section       64  tim4.o(.bss)
    .bss                                     0x20000490   Section       64  tim2.o(.bss)
    .bss                                     0x200004d0   Section       64  tim3.o(.bss)
    .bss                                     0x20000510   Section       64  tim5.o(.bss)
    .bss                                     0x20000550   Section       48  adc1.o(.bss)
    .bss                                     0x20000580   Section       68  adc1.o(.bss)
    .bss                                     0x200005c4   Section       84  i2c.o(.bss)
    .bss                                     0x20000618   Section       64  tim1.o(.bss)
    STACK                                    0x20000658   Section     1024  startup_stm32f103xe.o(STACK)

    Global Symbols

    Symbol Name                              Value     Ov Type        Size  Object(Section)

    BuildAttributes$$THM_ISAv4$P$D$K$B$S$PE$A:L22UL41UL21$X:L11$S22US41US21$IEEE1$IW$USESV6$~STKCKD$USESV7$~SHL$OTIME$ROPI$EBA8$MICROLIB$REQ8$PRES8$EABIv2 0x00000000   Number         0  anon$$obj.o ABSOLUTE
    __ARM_use_no_argv                        0x00000000   Number         0  main.o ABSOLUTE
    __cpp_initialize__aeabi_                  - Undefined Weak Reference
    __cxa_finalize                            - Undefined Weak Reference
    __decompress                              - Undefined Weak Reference
    _clock_init                               - Undefined Weak Reference
    _microlib_exit                            - Undefined Weak Reference
    __Vectors_Size                           0x00000130   Number         0  startup_stm32f103xe.o ABSOLUTE
    __Vectors                                0x08000000   Data           4  startup_stm32f103xe.o(RESET)
    __Vectors_End                            0x08000130   Data           0  startup_stm32f103xe.o(RESET)
    __main                                   0x08000131   Thumb Code     0  entry.o(.ARM.Collect$$$$00000000)
    _main_stk                                0x08000131   Thumb Code     0  entry2.o(.ARM.Collect$$$$00000001)
    _main_scatterload                        0x08000135   Thumb Code     0  entry5.o(.ARM.Collect$$$$00000004)
    __main_after_scatterload                 0x08000139   Thumb Code     0  entry5.o(.ARM.Collect$$$$00000004)
    _main_clock                              0x08000139   Thumb Code     0  entry7b.o(.ARM.Collect$$$$00000008)
    _main_cpp_init                           0x08000139   Thumb Code     0  entry8b.o(.ARM.Collect$$$$0000000A)
    _main_init                               0x08000139   Thumb Code     0  entry9a.o(.ARM.Collect$$$$0000000B)
    __rt_final_cpp                           0x08000141   Thumb Code     0  entry10a.o(.ARM.Collect$$$$0000000D)
    __rt_final_exit                          0x08000141   Thumb Code     0  entry11a.o(.ARM.Collect$$$$0000000F)
    Reset_Handler                            0x08000145   Thumb Code     8  startup_stm32f103xe.o(.text)
    ADC1_2_IRQHandler                        0x0800015f   Thumb Code     0  startup_stm32f103xe.o(.text)
    ADC3_IRQHandler                          0x0800015f   Thumb Code     0  startup_stm32f103xe.o(.text)
    CAN1_RX1_IRQHandler                      0x0800015f   Thumb Code     0  startup_stm32f103xe.o(.text)
    CAN1_SCE_IRQHandler                      0x0800015f   Thumb Code     0  startup_stm32f103xe.o(.text)
    DMA1_Channel1_IRQHandler                 0x0800015f   Thumb Code     0  startup_stm32f103xe.o(.text)
    DMA1_Channel2_IRQHandler                 0x0800015f   Thumb Code     0  startup_stm32f103xe.o(.text)
    DMA1_Channel3_IRQHandler                 0x0800015f   Thumb Code     0  startup_stm32f103xe.o(.text)
    DMA1_Channel4_IRQHandler                 0x0800015f   Thumb Code     0  startup_stm32f103xe.o(.text)
    DMA1_Channel5_IRQHandler                 0x0800015f   Thumb Code     0  startup_stm32f103xe.o(.text)
    DMA2_Channel1_IRQHandler                 0x0800015f   Thumb Code     0  startup_stm32f103xe.o(.text)
    DMA2_Channel2_IRQHandler                 0x0800015f   Thumb Code     0  startup_stm32f103xe.o(.text)
    EXTI0_IRQHandler                         0x0800015f   Thumb Code     0  startup_stm32f103xe.o(.text)
    EXTI15_10_IRQHandler                     0x0800015f   Thumb Code     0  startup_stm32f103xe.o(.text)
    EXTI1_IRQHandler                         0x0800015f   Thumb Code     0  startup_stm32f103xe.o(.text)
    EXTI2_IRQHandler                         0x0800015f   Thumb Code     0  startup_stm32f103xe.o(.text)
    EXTI3_IRQHandler                         0x0800015f   Thumb Code     0  startup_stm32f103xe.o(.text)
    EXTI4_IRQHandler                         0x0800015f   Thumb Code     0  startup_stm32f103xe.o(.text)
    EXTI9_5_IRQHandler                       0x0800015f   Thumb Code     0  startup_stm32f103xe.o(.text)
    FLASH_IRQHandler                         0x0800015f   Thumb Code     0  startup_stm32f103xe.o(.text)
    FSMC_IRQHandler                          0x0800015f   Thumb Code     0  startup_stm32f103xe.o(.text)
    I2C2_ER_IRQHandler                       0x0800015f   Thumb Code     0  startup_stm32f103xe.o(.text)
    I2C2_EV_IRQHandler                       0x0800015f   Thumb Code     0  startup_stm32f103xe.o(.text)
    PVD_IRQHandler                           0x0800015f   Thumb Code     0  startup_stm32f103xe.o(.text)
    RCC_IRQHandler                           0x0800015f   Thumb Code     0  startup_stm32f103xe.o(.text)
    RTC_Alarm_IRQHandler                     0x0800015f   Thumb Code     0  startup_stm32f103xe.o(.text)
    RTC_IRQHandler                           0x0800015f   Thumb Code     0  startup_stm32f103xe.o(.text)
    SDIO_IRQHandler                          0x0800015f   Thumb Code     0  startup_stm32f103xe.o(.text)
    SPI1_IRQHandler                          0x0800015f   Thumb Code     0  startup_stm32f103xe.o(.text)
    SPI2_IRQHandler                          0x0800015f   Thumb Code     0  startup_stm32f103xe.o(.text)
    SPI3_IRQHandler                          0x0800015f   Thumb Code     0  startup_stm32f103xe.o(.text)
    TAMPER_IRQHandler                        0x0800015f   Thumb Code     0  startup_stm32f103xe.o(.text)
    TIM1_BRK_IRQHandler                      0x0800015f   Thumb Code     0  startup_stm32f103xe.o(.text)
    TIM1_CC_IRQHandler                       0x0800015f   Thumb Code     0  startup_stm32f103xe.o(.text)
    TIM1_TRG_COM_IRQHandler                  0x0800015f   Thumb Code     0  startup_stm32f103xe.o(.text)
    TIM1_UP_IRQHandler                       0x0800015f   Thumb Code     0  startup_stm32f103xe.o(.text)
    TIM6_IRQHandler                          0x0800015f   Thumb Code     0  startup_stm32f103xe.o(.text)
    TIM7_IRQHandler                          0x0800015f   Thumb Code     0  startup_stm32f103xe.o(.text)
    TIM8_BRK_IRQHandler                      0x0800015f   Thumb Code     0  startup_stm32f103xe.o(.text)
    TIM8_CC_IRQHandler                       0x0800015f   Thumb Code     0  startup_stm32f103xe.o(.text)
    TIM8_TRG_COM_IRQHandler                  0x0800015f   Thumb Code     0  startup_stm32f103xe.o(.text)
    TIM8_UP_IRQHandler                       0x0800015f   Thumb Code     0  startup_stm32f103xe.o(.text)
    UART5_IRQHandler                         0x0800015f   Thumb Code     0  startup_stm32f103xe.o(.text)
    USART1_IRQHandler                        0x0800015f   Thumb Code     0  startup_stm32f103xe.o(.text)
    USART3_IRQHandler                        0x0800015f   Thumb Code     0  startup_stm32f103xe.o(.text)
    USBWakeUp_IRQHandler                     0x0800015f   Thumb Code     0  startup_stm32f103xe.o(.text)
    USB_HP_CAN1_TX_IRQHandler                0x0800015f   Thumb Code     0  startup_stm32f103xe.o(.text)
    USB_LP_CAN1_RX0_IRQHandler               0x0800015f   Thumb Code     0  startup_stm32f103xe.o(.text)
    WWDG_IRQHandler                          0x0800015f   Thumb Code     0  startup_stm32f103xe.o(.text)
    __aeabi_llsr                             0x08000169   Thumb Code    32  llushr.o(.text)
    _ll_ushift_r                             0x08000169   Thumb Code     0  llushr.o(.text)
    __aeabi_fadd                             0x08000189   Thumb Code   164  fadd.o(.text)
    __aeabi_fsub                             0x0800022d   Thumb Code     6  fadd.o(.text)
    __aeabi_frsub                            0x08000233   Thumb Code     6  fadd.o(.text)
    __aeabi_fmul                             0x08000239   Thumb Code   100  fmul.o(.text)
    __aeabi_fdiv                             0x0800029d   Thumb Code   124  fdiv.o(.text)
    __ARM_scalbnf                            0x08000319   Thumb Code    24  fscalb.o(.text)
    scalbnf                                  0x08000319   Thumb Code     0  fscalb.o(.text)
    __aeabi_dadd                             0x08000331   Thumb Code   322  dadd.o(.text)
    __aeabi_dsub                             0x08000473   Thumb Code     6  dadd.o(.text)
    __aeabi_drsub                            0x08000479   Thumb Code     6  dadd.o(.text)
    __aeabi_i2f                              0x0800047f   Thumb Code    18  fflti.o(.text)
    __aeabi_ui2f                             0x08000491   Thumb Code    10  ffltui.o(.text)
    __aeabi_f2uiz                            0x0800049b   Thumb Code    40  ffixui.o(.text)
    __aeabi_f2d                              0x080004c3   Thumb Code    38  f2d.o(.text)
    __aeabi_d2f                              0x080004e9   Thumb Code    56  d2f.o(.text)
    __aeabi_cfcmpeq                          0x08000521   Thumb Code     0  cfcmple.o(.text)
    __aeabi_cfcmple                          0x08000521   Thumb Code    20  cfcmple.o(.text)
    __aeabi_llsl                             0x08000535   Thumb Code    30  llshl.o(.text)
    _ll_shift_l                              0x08000535   Thumb Code     0  llshl.o(.text)
    __aeabi_lasr                             0x08000553   Thumb Code    36  llsshr.o(.text)
    _ll_sshift_r                             0x08000553   Thumb Code     0  llsshr.o(.text)
    __I$use$fp                               0x08000577   Thumb Code     0  iusefp.o(.text)
    _float_round                             0x08000577   Thumb Code    18  fepilogue.o(.text)
    _float_epilogue                          0x08000589   Thumb Code    92  fepilogue.o(.text)
    _double_round                            0x080005e5   Thumb Code    30  depilogue.o(.text)
    _double_epilogue                         0x08000603   Thumb Code   156  depilogue.o(.text)
    __scatterload                            0x080006a1   Thumb Code    28  init.o(.text)
    __scatterload_rt2                        0x080006a1   Thumb Code     0  init.o(.text)
    ADC_ConversionStop_Disable               0x080006c5   Thumb Code    74  stm32f1xx_hal_adc.o(i.ADC_ConversionStop_Disable)
    ADC_DMAConvCplt                          0x0800070f   Thumb Code    78  stm32f1xx_hal_adc.o(i.ADC_DMAConvCplt)
    ADC_DMAError                             0x0800075d   Thumb Code    26  stm32f1xx_hal_adc.o(i.ADC_DMAError)
    ADC_DMAHalfConvCplt                      0x08000777   Thumb Code    10  stm32f1xx_hal_adc.o(i.ADC_DMAHalfConvCplt)
    ADC_Enable                               0x08000781   Thumb Code   102  stm32f1xx_hal_adc.o(i.ADC_Enable)
    BusFault_Handler                         0x080007f1   Thumb Code     2  stm32f1xx_it.o(i.BusFault_Handler)
    BuzzerControl                            0x080007f5   Thumb Code   114  indicatordevice.o(i.BuzzerControl)
    Buzzer_GPIO_Init                         0x08000871   Thumb Code    62  indicatordevice.o(i.Buzzer_GPIO_Init)
    DMA1_Channel6_IRQHandler                 0x080008b9   Thumb Code     6  stm32f1xx_it.o(i.DMA1_Channel6_IRQHandler)
    DMA1_Channel7_IRQHandler                 0x080008c5   Thumb Code     6  stm32f1xx_it.o(i.DMA1_Channel7_IRQHandler)
    DMA2_Channel3_IRQHandler                 0x080008d1   Thumb Code     6  stm32f1xx_it.o(i.DMA2_Channel3_IRQHandler)
    DMA2_Channel4_5_IRQHandler               0x080008dd   Thumb Code     6  stm32f1xx_it.o(i.DMA2_Channel4_5_IRQHandler)
    DebugMon_Handler                         0x08000913   Thumb Code     2  stm32f1xx_it.o(i.DebugMon_Handler)
    Encoder_Struct_Init                      0x08000915   Thumb Code    48  encoder.o(i.Encoder_Struct_Init)
    Encoder_UpdataValue                      0x08000949   Thumb Code   114  encoder.o(i.Encoder_UpdataValue)
    GetdBatteryCapacity                      0x080009d1   Thumb Code   454  batteryinfor.o(i.GetdBatteryCapacity)
    HAL_ADC_ConfigChannel                    0x08000c55   Thumb Code   240  stm32f1xx_hal_adc.o(i.HAL_ADC_ConfigChannel)
    HAL_ADC_ConvCpltCallback                 0x08000d51   Thumb Code     2  stm32f1xx_hal_adc.o(i.HAL_ADC_ConvCpltCallback)
    HAL_ADC_ConvHalfCpltCallback             0x08000d53   Thumb Code     2  stm32f1xx_hal_adc.o(i.HAL_ADC_ConvHalfCpltCallback)
    HAL_ADC_ErrorCallback                    0x08000d55   Thumb Code     2  stm32f1xx_hal_adc.o(i.HAL_ADC_ErrorCallback)
    HAL_ADC_Init                             0x08000d59   Thumb Code   272  stm32f1xx_hal_adc.o(i.HAL_ADC_Init)
    HAL_ADC_MspInit                          0x08000e79   Thumb Code   128  stm32f1xx_hal_msp.o(i.HAL_ADC_MspInit)
    HAL_ADC_Start                            0x08000f0d   Thumb Code   184  stm32f1xx_hal_adc.o(i.HAL_ADC_Start)
    HAL_ADC_Start_DMA                        0x08000fcd   Thumb Code   246  stm32f1xx_hal_adc.o(i.HAL_ADC_Start_DMA)
    HAL_DMA_Abort                            0x080010d9   Thumb Code    48  stm32f1xx_hal_dma.o(i.HAL_DMA_Abort)
    HAL_DMA_Abort_IT                         0x08001109   Thumb Code   296  stm32f1xx_hal_dma.o(i.HAL_DMA_Abort_IT)
    HAL_DMA_IRQHandler                       0x08001239   Thumb Code   552  stm32f1xx_hal_dma.o(i.HAL_DMA_IRQHandler)
    HAL_DMA_Init                             0x08001481   Thumb Code   120  stm32f1xx_hal_dma.o(i.HAL_DMA_Init)
    HAL_DMA_Start_IT                         0x08001505   Thumb Code   112  stm32f1xx_hal_dma.o(i.HAL_DMA_Start_IT)
    HAL_Delay                                0x08001575   Thumb Code    32  stm32f1xx_hal.o(i.HAL_Delay)
    HAL_GPIO_Init                            0x08001599   Thumb Code   450  stm32f1xx_hal_gpio.o(i.HAL_GPIO_Init)
    HAL_GPIO_TogglePin                       0x08001785   Thumb Code     8  stm32f1xx_hal_gpio.o(i.HAL_GPIO_TogglePin)
    HAL_GPIO_WritePin                        0x0800178d   Thumb Code    10  stm32f1xx_hal_gpio.o(i.HAL_GPIO_WritePin)
    HAL_GetTick                              0x08001799   Thumb Code     6  stm32f1xx_hal.o(i.HAL_GetTick)
    HAL_I2C_AbortCpltCallback                0x080017a5   Thumb Code     2  stm32f1xx_hal_i2c.o(i.HAL_I2C_AbortCpltCallback)
    HAL_I2C_AddrCallback                     0x080017a7   Thumb Code     2  stm32f1xx_hal_i2c.o(i.HAL_I2C_AddrCallback)
    HAL_I2C_ER_IRQHandler                    0x080017a9   Thumb Code   202  stm32f1xx_hal_i2c.o(i.HAL_I2C_ER_IRQHandler)
    HAL_I2C_EV_IRQHandler                    0x08001879   Thumb Code   486  stm32f1xx_hal_i2c.o(i.HAL_I2C_EV_IRQHandler)
    HAL_I2C_ErrorCallback                    0x08001a69   Thumb Code     2  i2c.o(i.HAL_I2C_ErrorCallback)
    HAL_I2C_Init                             0x08001a6d   Thumb Code   302  stm32f1xx_hal_i2c.o(i.HAL_I2C_Init)
    HAL_I2C_ListenCpltCallback               0x08001bad   Thumb Code     2  stm32f1xx_hal_i2c.o(i.HAL_I2C_ListenCpltCallback)
    HAL_I2C_MasterRxCpltCallback             0x08001baf   Thumb Code     2  stm32f1xx_hal_i2c.o(i.HAL_I2C_MasterRxCpltCallback)
    HAL_I2C_MasterTxCpltCallback             0x08001bb1   Thumb Code     2  stm32f1xx_hal_i2c.o(i.HAL_I2C_MasterTxCpltCallback)
    HAL_I2C_MemRxCpltCallback                0x08001bb5   Thumb Code    16  i2c.o(i.HAL_I2C_MemRxCpltCallback)
    HAL_I2C_MemTxCpltCallback                0x08001bcd   Thumb Code    16  i2c.o(i.HAL_I2C_MemTxCpltCallback)
    HAL_I2C_MspInit                          0x08001be5   Thumb Code   122  stm32f1xx_hal_msp.o(i.HAL_I2C_MspInit)
    HAL_I2C_SlaveRxCpltCallback              0x08001c71   Thumb Code     2  stm32f1xx_hal_i2c.o(i.HAL_I2C_SlaveRxCpltCallback)
    HAL_I2C_SlaveTxCpltCallback              0x08001c73   Thumb Code     2  stm32f1xx_hal_i2c.o(i.HAL_I2C_SlaveTxCpltCallback)
    HAL_IncTick                              0x08001c75   Thumb Code    12  stm32f1xx_hal.o(i.HAL_IncTick)
    HAL_Init                                 0x08001c85   Thumb Code    32  stm32f1xx_hal.o(i.HAL_Init)
    HAL_InitTick                             0x08001ca9   Thumb Code    54  stm32f1xx_hal.o(i.HAL_InitTick)
    HAL_MspInit                              0x08001ce9   Thumb Code   118  stm32f1xx_hal_msp.o(i.HAL_MspInit)
    HAL_NVIC_EnableIRQ                       0x08001d69   Thumb Code    22  stm32f1xx_hal_cortex.o(i.HAL_NVIC_EnableIRQ)
    HAL_NVIC_SetPriority                     0x08001d81   Thumb Code    60  stm32f1xx_hal_cortex.o(i.HAL_NVIC_SetPriority)
    HAL_NVIC_SetPriorityGrouping             0x08001dc1   Thumb Code    26  stm32f1xx_hal_cortex.o(i.HAL_NVIC_SetPriorityGrouping)
    HAL_RCCEx_PeriphCLKConfig                0x08001de5   Thumb Code   220  stm32f1xx_hal_rcc_ex.o(i.HAL_RCCEx_PeriphCLKConfig)
    HAL_RCC_ClockConfig                      0x08001ecd   Thumb Code   316  stm32f1xx_hal_rcc.o(i.HAL_RCC_ClockConfig)
    HAL_RCC_GetHCLKFreq                      0x08002019   Thumb Code     6  stm32f1xx_hal_rcc.o(i.HAL_RCC_GetHCLKFreq)
    HAL_RCC_GetPCLK1Freq                     0x08002025   Thumb Code    20  stm32f1xx_hal_rcc.o(i.HAL_RCC_GetPCLK1Freq)
    HAL_RCC_GetPCLK2Freq                     0x08002045   Thumb Code    20  stm32f1xx_hal_rcc.o(i.HAL_RCC_GetPCLK2Freq)
    HAL_RCC_GetSysClockFreq                  0x08002065   Thumb Code    74  stm32f1xx_hal_rcc.o(i.HAL_RCC_GetSysClockFreq)
    HAL_RCC_OscConfig                        0x080020d1   Thumb Code   740  stm32f1xx_hal_rcc.o(i.HAL_RCC_OscConfig)
    HAL_SYSTICK_CLKSourceConfig              0x080023c9   Thumb Code    24  stm32f1xx_hal_cortex.o(i.HAL_SYSTICK_CLKSourceConfig)
    HAL_SYSTICK_Callback                     0x080023e1   Thumb Code    52  loop.o(i.HAL_SYSTICK_Callback)
    HAL_SYSTICK_Config                       0x08002425   Thumb Code    40  stm32f1xx_hal_cortex.o(i.HAL_SYSTICK_Config)
    HAL_SYSTICK_IRQHandler                   0x0800244d   Thumb Code     8  stm32f1xx_hal_cortex.o(i.HAL_SYSTICK_IRQHandler)
    HAL_TIMEx_BreakCallback                  0x08002455   Thumb Code     2  stm32f1xx_hal_tim_ex.o(i.HAL_TIMEx_BreakCallback)
    HAL_TIMEx_CommutationCallback            0x08002457   Thumb Code     2  stm32f1xx_hal_tim_ex.o(i.HAL_TIMEx_CommutationCallback)
    HAL_TIMEx_ConfigBreakDeadTime            0x08002459   Thumb Code    90  stm32f1xx_hal_tim_ex.o(i.HAL_TIMEx_ConfigBreakDeadTime)
    HAL_TIMEx_MasterConfigSynchronization    0x080024b3   Thumb Code    80  stm32f1xx_hal_tim_ex.o(i.HAL_TIMEx_MasterConfigSynchronization)
    HAL_TIM_Encoder_Init                     0x08002503   Thumb Code   150  stm32f1xx_hal_tim.o(i.HAL_TIM_Encoder_Init)
    HAL_TIM_Encoder_MspInit                  0x08002599   Thumb Code   376  stm32f1xx_hal_msp.o(i.HAL_TIM_Encoder_MspInit)
    HAL_TIM_Encoder_Start                    0x0800272d   Thumb Code    50  stm32f1xx_hal_tim.o(i.HAL_TIM_Encoder_Start)
    HAL_TIM_IC_CaptureCallback               0x0800275f   Thumb Code     2  stm32f1xx_hal_tim.o(i.HAL_TIM_IC_CaptureCallback)
    HAL_TIM_IRQHandler                       0x08002761   Thumb Code   358  stm32f1xx_hal_tim.o(i.HAL_TIM_IRQHandler)
    HAL_TIM_OC_DelayElapsedCallback          0x080028c7   Thumb Code     2  stm32f1xx_hal_tim.o(i.HAL_TIM_OC_DelayElapsedCallback)
    HAL_TIM_PWM_ConfigChannel                0x080028c9   Thumb Code   208  stm32f1xx_hal_tim.o(i.HAL_TIM_PWM_ConfigChannel)
    HAL_TIM_PWM_Init                         0x08002999   Thumb Code    54  stm32f1xx_hal_tim.o(i.HAL_TIM_PWM_Init)
    HAL_TIM_PWM_MspInit                      0x080029d1   Thumb Code   124  stm32f1xx_hal_msp.o(i.HAL_TIM_PWM_MspInit)
    HAL_TIM_PWM_PulseFinishedCallback        0x08002a61   Thumb Code     2  stm32f1xx_hal_tim.o(i.HAL_TIM_PWM_PulseFinishedCallback)
    HAL_TIM_PWM_Start                        0x08002a65   Thumb Code    48  stm32f1xx_hal_tim.o(i.HAL_TIM_PWM_Start)
    HAL_TIM_PeriodElapsedCallback            0x08002a9d   Thumb Code   124  encoder.o(i.HAL_TIM_PeriodElapsedCallback)
    HAL_TIM_TriggerCallback                  0x08002b2d   Thumb Code     2  stm32f1xx_hal_tim.o(i.HAL_TIM_TriggerCallback)
    HAL_UART_DMAStop                         0x08002b2f   Thumb Code    88  stm32f1xx_hal_uart.o(i.HAL_UART_DMAStop)
    HAL_UART_ErrorCallback                   0x08002b87   Thumb Code    76  uart.o(i.HAL_UART_ErrorCallback)
    HAL_UART_IRQHandler                      0x08002bd5   Thumb Code   266  stm32f1xx_hal_uart.o(i.HAL_UART_IRQHandler)
    HAL_UART_Init                            0x08002ce5   Thumb Code    98  stm32f1xx_hal_uart.o(i.HAL_UART_Init)
    HAL_UART_MspInit                         0x08002d49   Thumb Code   444  stm32f1xx_hal_msp.o(i.HAL_UART_MspInit)
    HAL_UART_Receive_DMA                     0x08002f35   Thumb Code   138  stm32f1xx_hal_uart.o(i.HAL_UART_Receive_DMA)
    HAL_UART_RxCpltCallback                  0x08002fcd   Thumb Code     2  uart.o(i.HAL_UART_RxCpltCallback)
    HAL_UART_RxHalfCpltCallback              0x08002fcf   Thumb Code     2  stm32f1xx_hal_uart.o(i.HAL_UART_RxHalfCpltCallback)
    HAL_UART_TxCpltCallback                  0x08002fd1   Thumb Code     2  uart.o(i.HAL_UART_TxCpltCallback)
    HardFault_Handler                        0x08002fd3   Thumb Code     2  stm32f1xx_it.o(i.HardFault_Handler)
    I2C1_ER_IRQHandler                       0x08002fd5   Thumb Code     6  stm32f1xx_it.o(i.I2C1_ER_IRQHandler)
    I2C1_EV_IRQHandler                       0x08002fe1   Thumb Code     6  stm32f1xx_it.o(i.I2C1_EV_IRQHandler)
    IncPID_Init                              0x08003731   Thumb Code    16  pid.o(i.IncPID_Init)
    Incremental_PID                          0x08003741   Thumb Code    86  pid.o(i.Incremental_PID)
    IndicatorDeviceControl                   0x08003799   Thumb Code   156  indicatordevice.o(i.IndicatorDeviceControl)
    Kinematics_Mecanum_CalculateRPM          0x08003841   Thumb Code   136  kinematics_mecanum.o(i.Kinematics_Mecanum_CalculateRPM)
    Kinematics_Mecanum_GetVelocities         0x080038d5   Thumb Code   144  kinematics_mecanum.o(i.Kinematics_Mecanum_GetVelocities)
    LED_Green_Control                        0x08003971   Thumb Code   114  indicatordevice.o(i.LED_Green_Control)
    LED_Green_GPIO_Init                      0x080039ed   Thumb Code    60  indicatordevice.o(i.LED_Green_GPIO_Init)
    LED_Red_Control                          0x08003a31   Thumb Code   114  indicatordevice.o(i.LED_Red_Control)
    LED_Red_GPIO_Init                        0x08003aad   Thumb Code    60  indicatordevice.o(i.LED_Red_GPIO_Init)
    LPF_Struct_Init                          0x08003af1   Thumb Code    10  lowpassfilter.o(i.LPF_Struct_Init)
    LowPassFilter                            0x08003afb   Thumb Code    42  lowpassfilter.o(i.LowPassFilter)
    MX_ADC1_Init                             0x08003b25   Thumb Code    86  adc1.o(i.MX_ADC1_Init)
    MX_I2C1_Init                             0x08003b89   Thumb Code    56  i2c.o(i.MX_I2C1_Init)
    MX_TIM1_Init                             0x08003bd1   Thumb Code   168  tim1.o(i.MX_TIM1_Init)
    MX_TIM2_Init                             0x08003c81   Thumb Code   108  tim2.o(i.MX_TIM2_Init)
    MX_TIM3_Init                             0x08003cf5   Thumb Code    88  tim3.o(i.MX_TIM3_Init)
    MX_TIM4_Init                             0x08003d55   Thumb Code    88  tim4.o(i.MX_TIM4_Init)
    MX_TIM5_Init                             0x08003db5   Thumb Code    88  tim5.o(i.MX_TIM5_Init)
    MX_TIM8_Init                             0x08003e15   Thumb Code   168  tim8.o(i.MX_TIM8_Init)
    MX_UART4_Init                            0x08003ec5   Thumb Code    66  uart.o(i.MX_UART4_Init)
    MX_USART2_Init                           0x08003f15   Thumb Code    60  uart.o(i.MX_USART2_Init)
    MemManage_Handler                        0x08003f59   Thumb Code     2  stm32f1xx_it.o(i.MemManage_Handler)
    Motor1_Forward                           0x08003f5d   Thumb Code    10  motorcontrol.o(i.Motor1_Forward)
    Motor1_GPIO_Init                         0x08003f6d   Thumb Code    58  motorcontrol.o(i.Motor1_GPIO_Init)
    Motor1_Reverse                           0x08003fb1   Thumb Code    10  motorcontrol.o(i.Motor1_Reverse)
    Motor2_Forward                           0x08003fc1   Thumb Code    10  motorcontrol.o(i.Motor2_Forward)
    Motor2_GPIO_Init                         0x08003fd1   Thumb Code    58  motorcontrol.o(i.Motor2_GPIO_Init)
    Motor2_Reverse                           0x08004015   Thumb Code    12  motorcontrol.o(i.Motor2_Reverse)
    Motor3_Forward                           0x08004025   Thumb Code    12  motorcontrol.o(i.Motor3_Forward)
    Motor3_GPIO_Init                         0x08004035   Thumb Code    58  motorcontrol.o(i.Motor3_GPIO_Init)
    Motor3_Reverse                           0x08004079   Thumb Code    10  motorcontrol.o(i.Motor3_Reverse)
    Motor4_Forward                           0x08004089   Thumb Code    10  motorcontrol.o(i.Motor4_Forward)
    Motor4_GPIO_Init                         0x08004099   Thumb Code    58  motorcontrol.o(i.Motor4_GPIO_Init)
    Motor4_Reverse                           0x080040dd   Thumb Code    12  motorcontrol.o(i.Motor4_Reverse)
    NMI_Handler                              0x080040ed   Thumb Code     2  stm32f1xx_it.o(i.NMI_Handler)
    PendSV_Handler                           0x0800410f   Thumb Code     2  stm32f1xx_it.o(i.PendSV_Handler)
    RC_Update                                0x08004111   Thumb Code   202  rc.o(i.RC_Update)
    RC_UpdateStruct                          0x080041e1   Thumb Code   404  rc.o(i.RC_UpdateStruct)
    SVC_Handler                              0x08004385   Thumb Code     2  stm32f1xx_it.o(i.SVC_Handler)
    Servo_PositionControl                    0x08004389   Thumb Code   156  servo.o(i.Servo_PositionControl)
    Servo_ServoControl                       0x08004439   Thumb Code    66  servo.o(i.Servo_ServoControl)
    SysTick_Handler                          0x08004491   Thumb Code    14  stm32f1xx_it.o(i.SysTick_Handler)
    SystemClock_Config                       0x0800449f   Thumb Code   122  main.o(i.SystemClock_Config)
    SystemInit                               0x08004519   Thumb Code    56  system_stm32f1xx.o(i.SystemInit)
    TIM2_IRQHandler                          0x08004561   Thumb Code     6  stm32f1xx_it.o(i.TIM2_IRQHandler)
    TIM3_IRQHandler                          0x0800456d   Thumb Code     6  stm32f1xx_it.o(i.TIM3_IRQHandler)
    TIM4_IRQHandler                          0x08004579   Thumb Code     6  stm32f1xx_it.o(i.TIM4_IRQHandler)
    TIM5_IRQHandler                          0x08004585   Thumb Code     6  stm32f1xx_it.o(i.TIM5_IRQHandler)
    TIM_Base_SetConfig                       0x08004591   Thumb Code   120  stm32f1xx_hal_tim.o(i.TIM_Base_SetConfig)
    TIM_CCxChannelCmd                        0x0800461d   Thumb Code    22  stm32f1xx_hal_tim.o(i.TIM_CCxChannelCmd)
    TIM_OC2_SetConfig                        0x08004695   Thumb Code    98  stm32f1xx_hal_tim.o(i.TIM_OC2_SetConfig)
    UART4_IRQHandler                         0x080047b9   Thumb Code    28  stm32f1xx_it.o(i.UART4_IRQHandler)
    USART2_IRQHandler                        0x08004b11   Thumb Code    28  stm32f1xx_it.o(i.USART2_IRQHandler)
    UpdateBatteryInfor                       0x08004b31   Thumb Code    70  batteryinfor.o(i.UpdateBatteryInfor)
    UsageFault_Handler                       0x08004b85   Thumb Code     2  stm32f1xx_it.o(i.UsageFault_Handler)
    UsartReceive_IDLE                        0x08004b89   Thumb Code   108  uart.o(i.UsartReceive_IDLE)
    VelocityControl_4WD                      0x08004c05   Thumb Code   780  velocitycontrol.o(i.VelocityControl_4WD)
    __scatterload_copy                       0x08004f59   Thumb Code    14  handlers.o(i.__scatterload_copy)
    __scatterload_null                       0x08004f67   Thumb Code     2  handlers.o(i.__scatterload_null)
    __scatterload_zeroinit                   0x08004f69   Thumb Code    14  handlers.o(i.__scatterload_zeroinit)
    main                                     0x08004f79   Thumb Code   496  main.o(i.main)
    AHBPrescTable                            0x080051d0   Data          16  system_stm32f1xx.o(.constdata)
    APBPrescTable                            0x080051e0   Data           8  system_stm32f1xx.o(.constdata)
    Region$$Table$$Base                      0x080051e8   Number         0  anon$$obj.o(Region$$Table)
    Region$$Table$$Limit                     0x08005208   Number         0  anon$$obj.o(Region$$Table)
    Loop_5msTime                             0x20000000   Data           2  main.o(.data)
    Loop_10msTime                            0x20000002   Data           2  main.o(.data)
    Loop_500msTime                           0x20000004   Data           2  main.o(.data)
    HeartbeatTime                            0x20000006   Data           2  main.o(.data)
    ADC1_DMA_Buff                            0x20000008   Data           8  adc1.o(.data)
    I2C1_Tx_Flag                             0x20000010   Data           1  i2c.o(.data)
    I2C1_Rx_Flag                             0x20000011   Data           1  i2c.o(.data)
    Buzzer_LockedStatus                      0x20000012   Data           1  indicatordevice.o(.data)
    LED_Green_LockedStatus                   0x20000013   Data           1  indicatordevice.o(.data)
    LED_Red_LockedStatus                     0x20000014   Data           1  indicatordevice.o(.data)
    Buzzer_Times                             0x20000016   Data           2  indicatordevice.o(.data)
    Buzzer_PeriodTime                        0x20000018   Data           2  indicatordevice.o(.data)
    LED_Green_Times                          0x2000001a   Data           2  indicatordevice.o(.data)
    LED_Green_PeriodTime                     0x2000001c   Data           2  indicatordevice.o(.data)
    LED_Red_Times                            0x2000001e   Data           2  indicatordevice.o(.data)
    LED_Red_PeriodTime                       0x20000020   Data           2  indicatordevice.o(.data)
    Buzzer_PeriodTimeBuffer                  0x2000002e   Data           2  indicatordevice.o(.data)
    LED_Green_PeriodTimeBuffer               0x20000030   Data           2  indicatordevice.o(.data)
    LED_Red_PeriodTimeBuffer                 0x20000032   Data           2  indicatordevice.o(.data)
    TIM1_OverflowCount                       0x20000034   Data           2  encoder.o(.data)
    TIM2_OverflowCount                       0x20000036   Data           2  encoder.o(.data)
    TIM3_OverflowCount                       0x20000038   Data           2  encoder.o(.data)
    TIM4_OverflowCount                       0x2000003a   Data           2  encoder.o(.data)
    TIM5_OverflowCount                       0x2000003c   Data           2  encoder.o(.data)
    uwTickFreq                               0x20000054   Data           1  stm32f1xx_hal.o(.data)
    uwTickPrio                               0x20000058   Data           4  stm32f1xx_hal.o(.data)
    uwTick                                   0x2000005c   Data           4  stm32f1xx_hal.o(.data)
    SystemCoreClock                          0x20000060   Data           4  system_stm32f1xx.o(.data)
    LPF_Linear_X                             0x20000074   Data          12  shareware.o(.bss)
    LPF_Linear_Y                             0x20000080   Data          12  shareware.o(.bss)
    LPF_Angular_Z                            0x2000008c   Data          12  shareware.o(.bss)
    Battery                                  0x20000098   Data          12  shareware.o(.bss)
    LPF_SupplyVoltage                        0x200000a4   Data          12  shareware.o(.bss)
    RC                                       0x200000b0   Data          40  shareware.o(.bss)
    PID_M1                                   0x200000d8   Data          24  shareware.o(.bss)
    PID_M2                                   0x200000f0   Data          24  shareware.o(.bss)
    PID_M3                                   0x20000108   Data          24  shareware.o(.bss)
    PID_M4                                   0x20000120   Data          24  shareware.o(.bss)
    Encoder_M1                               0x20000138   Data          12  shareware.o(.bss)
    Encoder_M2                               0x20000144   Data          12  shareware.o(.bss)
    Encoder_M3                               0x20000150   Data          12  shareware.o(.bss)
    Encoder_M4                               0x2000015c   Data          12  shareware.o(.bss)
    VelControl                               0x20000168   Data          32  shareware.o(.bss)
    Kinematics_Inverse                       0x20000188   Data          28  shareware.o(.bss)
    Kinematics_Forward                       0x200001a4   Data          28  shareware.o(.bss)
    htim8                                    0x200001c0   Data          64  tim8.o(.bss)
    huart2                                   0x20000200   Data          64  uart.o(.bss)
    Usart2_TX_Buf                            0x20000240   Data         100  uart.o(.bss)
    Usart2_RX_Buf                            0x200002a4   Data          60  uart.o(.bss)
    hdma_usart2_rx                           0x200002e0   Data          68  uart.o(.bss)
    huart4                                   0x20000324   Data          64  uart.o(.bss)
    Uart4_RX_Buf                             0x20000364   Data          30  uart.o(.bss)
    hdma_uart4_rx                            0x20000384   Data          68  uart.o(.bss)
    hdma_usart2_tx                           0x200003c8   Data          68  uart.o(.bss)
    hdma_uart4_tx                            0x2000040c   Data          68  uart.o(.bss)
    htim4                                    0x20000450   Data          64  tim4.o(.bss)
    htim2                                    0x20000490   Data          64  tim2.o(.bss)
    htim3                                    0x200004d0   Data          64  tim3.o(.bss)
    htim5                                    0x20000510   Data          64  tim5.o(.bss)
    hadc1                                    0x20000550   Data          48  adc1.o(.bss)
    hdma1                                    0x20000580   Data          68  adc1.o(.bss)
    hi2c1                                    0x200005c4   Data          84  i2c.o(.bss)
    htim1                                    0x20000618   Data          64  tim1.o(.bss)
    __initial_sp                             0x20000a58   Data           0  startup_stm32f103xe.o(STACK)



==============================================================================

Memory Map of the image

  Image Entry point : 0x08000131

  Load Region LR_IROM1 (Base: 0x08000000, Size: 0x0000527c, Max: 0x00040000, ABSOLUTE)

    Execution Region ER_IROM1 (Exec base: 0x08000000, Load base: 0x08000000, Size: 0x00005208, Max: 0x00040000, ABSOLUTE)

    Exec Addr    Load Addr    Size         Type   Attr      Idx    E Section Name        Object

    0x08000000   0x08000000   0x00000130   Data   RO            3    RESET               startup_stm32f103xe.o
    0x08000130   0x08000130   0x00000000   Code   RO         5385  * .ARM.Collect$$$$00000000  mc_w.l(entry.o)
    0x08000130   0x08000130   0x00000004   Code   RO         5442    .ARM.Collect$$$$00000001  mc_w.l(entry2.o)
    0x08000134   0x08000134   0x00000004   Code   RO         5445    .ARM.Collect$$$$00000004  mc_w.l(entry5.o)
    0x08000138   0x08000138   0x00000000   Code   RO         5447    .ARM.Collect$$$$00000008  mc_w.l(entry7b.o)
    0x08000138   0x08000138   0x00000000   Code   RO         5449    .ARM.Collect$$$$0000000A  mc_w.l(entry8b.o)
    0x08000138   0x08000138   0x00000008   Code   RO         5450    .ARM.Collect$$$$0000000B  mc_w.l(entry9a.o)
    0x08000140   0x08000140   0x00000000   Code   RO         5452    .ARM.Collect$$$$0000000D  mc_w.l(entry10a.o)
    0x08000140   0x08000140   0x00000000   Code   RO         5454    .ARM.Collect$$$$0000000F  mc_w.l(entry11a.o)
    0x08000140   0x08000140   0x00000004   Code   RO         5443    .ARM.Collect$$$$00002712  mc_w.l(entry2.o)
    0x08000144   0x08000144   0x00000024   Code   RO            4    .text               startup_stm32f103xe.o
    0x08000168   0x08000168   0x00000020   Code   RO         5388    .text               mc_w.l(llushr.o)
    0x08000188   0x08000188   0x000000b0   Code   RO         5418    .text               mf_w.l(fadd.o)
    0x08000238   0x08000238   0x00000064   Code   RO         5420    .text               mf_w.l(fmul.o)
    0x0800029c   0x0800029c   0x0000007c   Code   RO         5422    .text               mf_w.l(fdiv.o)
    0x08000318   0x08000318   0x00000018   Code   RO         5424    .text               mf_w.l(fscalb.o)
    0x08000330   0x08000330   0x0000014e   Code   RO         5426    .text               mf_w.l(dadd.o)
    0x0800047e   0x0800047e   0x00000012   Code   RO         5428    .text               mf_w.l(fflti.o)
    0x08000490   0x08000490   0x0000000a   Code   RO         5430    .text               mf_w.l(ffltui.o)
    0x0800049a   0x0800049a   0x00000028   Code   RO         5432    .text               mf_w.l(ffixui.o)
    0x080004c2   0x080004c2   0x00000026   Code   RO         5434    .text               mf_w.l(f2d.o)
    0x080004e8   0x080004e8   0x00000038   Code   RO         5436    .text               mf_w.l(d2f.o)
    0x08000520   0x08000520   0x00000014   Code   RO         5438    .text               mf_w.l(cfcmple.o)
    0x08000534   0x08000534   0x0000001e   Code   RO         5463    .text               mc_w.l(llshl.o)
    0x08000552   0x08000552   0x00000024   Code   RO         5465    .text               mc_w.l(llsshr.o)
    0x08000576   0x08000576   0x00000000   Code   RO         5467    .text               mc_w.l(iusefp.o)
    0x08000576   0x08000576   0x0000006e   Code   RO         5468    .text               mf_w.l(fepilogue.o)
    0x080005e4   0x080005e4   0x000000ba   Code   RO         5470    .text               mf_w.l(depilogue.o)
    0x0800069e   0x0800069e   0x00000002   PAD
    0x080006a0   0x080006a0   0x00000024   Code   RO         5480    .text               mc_w.l(init.o)
    0x080006c4   0x080006c4   0x0000004a   Code   RO         2472    i.ADC_ConversionStop_Disable  stm32f1xx_hal_adc.o
    0x0800070e   0x0800070e   0x0000004e   Code   RO         2473    i.ADC_DMAConvCplt   stm32f1xx_hal_adc.o
    0x0800075c   0x0800075c   0x0000001a   Code   RO         2474    i.ADC_DMAError      stm32f1xx_hal_adc.o
    0x08000776   0x08000776   0x0000000a   Code   RO         2475    i.ADC_DMAHalfConvCplt  stm32f1xx_hal_adc.o
    0x08000780   0x08000780   0x00000070   Code   RO         2476    i.ADC_Enable        stm32f1xx_hal_adc.o
    0x080007f0   0x080007f0   0x00000002   Code   RO          337    i.BusFault_Handler  stm32f1xx_it.o
    0x080007f2   0x080007f2   0x00000002   PAD
    0x080007f4   0x080007f4   0x0000007c   Code   RO          910    i.BuzzerControl     indicatordevice.o
    0x08000870   0x08000870   0x00000048   Code   RO          911    i.Buzzer_GPIO_Init  indicatordevice.o
    0x080008b8   0x080008b8   0x0000000c   Code   RO          338    i.DMA1_Channel6_IRQHandler  stm32f1xx_it.o
    0x080008c4   0x080008c4   0x0000000c   Code   RO          339    i.DMA1_Channel7_IRQHandler  stm32f1xx_it.o
    0x080008d0   0x080008d0   0x0000000c   Code   RO          340    i.DMA2_Channel3_IRQHandler  stm32f1xx_it.o
    0x080008dc   0x080008dc   0x0000000c   Code   RO          341    i.DMA2_Channel4_5_IRQHandler  stm32f1xx_it.o
    0x080008e8   0x080008e8   0x0000002a   Code   RO         1263    i.DMA_SetConfig     stm32f1xx_hal_dma.o
    0x08000912   0x08000912   0x00000002   Code   RO          342    i.DebugMon_Handler  stm32f1xx_it.o
    0x08000914   0x08000914   0x00000034   Code   RO          973    i.Encoder_Struct_Init  encoder.o
    0x08000948   0x08000948   0x00000088   Code   RO          974    i.Encoder_UpdataValue  encoder.o
    0x080009d0   0x080009d0   0x00000284   Code   RO         1015    i.GetdBatteryCapacity  batteryinfor.o
    0x08000c54   0x08000c54   0x000000fc   Code   RO         2478    i.HAL_ADC_ConfigChannel  stm32f1xx_hal_adc.o
    0x08000d50   0x08000d50   0x00000002   Code   RO         2479    i.HAL_ADC_ConvCpltCallback  stm32f1xx_hal_adc.o
    0x08000d52   0x08000d52   0x00000002   Code   RO         2480    i.HAL_ADC_ConvHalfCpltCallback  stm32f1xx_hal_adc.o
    0x08000d54   0x08000d54   0x00000002   Code   RO         2482    i.HAL_ADC_ErrorCallback  stm32f1xx_hal_adc.o
    0x08000d56   0x08000d56   0x00000002   PAD
    0x08000d58   0x08000d58   0x00000120   Code   RO         2487    i.HAL_ADC_Init      stm32f1xx_hal_adc.o
    0x08000e78   0x08000e78   0x00000094   Code   RO          254    i.HAL_ADC_MspInit   stm32f1xx_hal_msp.o
    0x08000f0c   0x08000f0c   0x000000c0   Code   RO         2493    i.HAL_ADC_Start     stm32f1xx_hal_adc.o
    0x08000fcc   0x08000fcc   0x0000010c   Code   RO         2494    i.HAL_ADC_Start_DMA  stm32f1xx_hal_adc.o
    0x080010d8   0x080010d8   0x00000030   Code   RO         1264    i.HAL_DMA_Abort     stm32f1xx_hal_dma.o
    0x08001108   0x08001108   0x00000130   Code   RO         1265    i.HAL_DMA_Abort_IT  stm32f1xx_hal_dma.o
    0x08001238   0x08001238   0x00000248   Code   RO         1269    i.HAL_DMA_IRQHandler  stm32f1xx_hal_dma.o
    0x08001480   0x08001480   0x00000084   Code   RO         1270    i.HAL_DMA_Init      stm32f1xx_hal_dma.o
    0x08001504   0x08001504   0x00000070   Code   RO         1274    i.HAL_DMA_Start_IT  stm32f1xx_hal_dma.o
    0x08001574   0x08001574   0x00000024   Code   RO         3296    i.HAL_Delay         stm32f1xx_hal.o
    0x08001598   0x08001598   0x000001ec   Code   RO         3101    i.HAL_GPIO_Init     stm32f1xx_hal_gpio.o
    0x08001784   0x08001784   0x00000008   Code   RO         3104    i.HAL_GPIO_TogglePin  stm32f1xx_hal_gpio.o
    0x0800178c   0x0800178c   0x0000000a   Code   RO         3105    i.HAL_GPIO_WritePin  stm32f1xx_hal_gpio.o
    0x08001796   0x08001796   0x00000002   PAD
    0x08001798   0x08001798   0x0000000c   Code   RO         3300    i.HAL_GetTick       stm32f1xx_hal.o
    0x080017a4   0x080017a4   0x00000002   Code   RO         3653    i.HAL_I2C_AbortCpltCallback  stm32f1xx_hal_i2c.o
    0x080017a6   0x080017a6   0x00000002   Code   RO         3654    i.HAL_I2C_AddrCallback  stm32f1xx_hal_i2c.o
    0x080017a8   0x080017a8   0x000000d0   Code   RO         3657    i.HAL_I2C_ER_IRQHandler  stm32f1xx_hal_i2c.o
    0x08001878   0x08001878   0x000001f0   Code   RO         3658    i.HAL_I2C_EV_IRQHandler  stm32f1xx_hal_i2c.o
    0x08001a68   0x08001a68   0x00000002   Code   RO          832    i.HAL_I2C_ErrorCallback  i2c.o
    0x08001a6a   0x08001a6a   0x00000002   PAD
    0x08001a6c   0x08001a6c   0x00000140   Code   RO         3664    i.HAL_I2C_Init      stm32f1xx_hal_i2c.o
    0x08001bac   0x08001bac   0x00000002   Code   RO         3666    i.HAL_I2C_ListenCpltCallback  stm32f1xx_hal_i2c.o
    0x08001bae   0x08001bae   0x00000002   Code   RO         3667    i.HAL_I2C_MasterRxCpltCallback  stm32f1xx_hal_i2c.o
    0x08001bb0   0x08001bb0   0x00000002   Code   RO         3668    i.HAL_I2C_MasterTxCpltCallback  stm32f1xx_hal_i2c.o
    0x08001bb2   0x08001bb2   0x00000002   PAD
    0x08001bb4   0x08001bb4   0x00000018   Code   RO          833    i.HAL_I2C_MemRxCpltCallback  i2c.o
    0x08001bcc   0x08001bcc   0x00000018   Code   RO          834    i.HAL_I2C_MemTxCpltCallback  i2c.o
    0x08001be4   0x08001be4   0x0000008c   Code   RO          256    i.HAL_I2C_MspInit   stm32f1xx_hal_msp.o
    0x08001c70   0x08001c70   0x00000002   Code   RO         3688    i.HAL_I2C_SlaveRxCpltCallback  stm32f1xx_hal_i2c.o
    0x08001c72   0x08001c72   0x00000002   Code   RO         3689    i.HAL_I2C_SlaveTxCpltCallback  stm32f1xx_hal_i2c.o
    0x08001c74   0x08001c74   0x00000010   Code   RO         3304    i.HAL_IncTick       stm32f1xx_hal.o
    0x08001c84   0x08001c84   0x00000024   Code   RO         3305    i.HAL_Init          stm32f1xx_hal.o
    0x08001ca8   0x08001ca8   0x00000040   Code   RO         3306    i.HAL_InitTick      stm32f1xx_hal.o
    0x08001ce8   0x08001ce8   0x00000080   Code   RO          257    i.HAL_MspInit       stm32f1xx_hal_msp.o
    0x08001d68   0x08001d68   0x00000016   Code   RO         2887    i.HAL_NVIC_EnableIRQ  stm32f1xx_hal_cortex.o
    0x08001d7e   0x08001d7e   0x00000002   PAD
    0x08001d80   0x08001d80   0x00000040   Code   RO         2893    i.HAL_NVIC_SetPriority  stm32f1xx_hal_cortex.o
    0x08001dc0   0x08001dc0   0x00000024   Code   RO         2894    i.HAL_NVIC_SetPriorityGrouping  stm32f1xx_hal_cortex.o
    0x08001de4   0x08001de4   0x000000e8   Code   RO         2438    i.HAL_RCCEx_PeriphCLKConfig  stm32f1xx_hal_rcc_ex.o
    0x08001ecc   0x08001ecc   0x0000014c   Code   RO         3552    i.HAL_RCC_ClockConfig  stm32f1xx_hal_rcc.o
    0x08002018   0x08002018   0x0000000c   Code   RO         3557    i.HAL_RCC_GetHCLKFreq  stm32f1xx_hal_rcc.o
    0x08002024   0x08002024   0x00000020   Code   RO         3559    i.HAL_RCC_GetPCLK1Freq  stm32f1xx_hal_rcc.o
    0x08002044   0x08002044   0x00000020   Code   RO         3560    i.HAL_RCC_GetPCLK2Freq  stm32f1xx_hal_rcc.o
    0x08002064   0x08002064   0x0000006c   Code   RO         3561    i.HAL_RCC_GetSysClockFreq  stm32f1xx_hal_rcc.o
    0x080020d0   0x080020d0   0x000002f8   Code   RO         3564    i.HAL_RCC_OscConfig  stm32f1xx_hal_rcc.o
    0x080023c8   0x080023c8   0x00000018   Code   RO         2896    i.HAL_SYSTICK_CLKSourceConfig  stm32f1xx_hal_cortex.o
    0x080023e0   0x080023e0   0x00000044   Code   RO          576    i.HAL_SYSTICK_Callback  loop.o
    0x08002424   0x08002424   0x00000028   Code   RO         2898    i.HAL_SYSTICK_Config  stm32f1xx_hal_cortex.o
    0x0800244c   0x0800244c   0x00000008   Code   RO         2899    i.HAL_SYSTICK_IRQHandler  stm32f1xx_hal_cortex.o
    0x08002454   0x08002454   0x00000002   Code   RO         2652    i.HAL_TIMEx_BreakCallback  stm32f1xx_hal_tim_ex.o
    0x08002456   0x08002456   0x00000002   Code   RO         2653    i.HAL_TIMEx_CommutationCallback  stm32f1xx_hal_tim_ex.o
    0x08002458   0x08002458   0x0000005a   Code   RO         2654    i.HAL_TIMEx_ConfigBreakDeadTime  stm32f1xx_hal_tim_ex.o
    0x080024b2   0x080024b2   0x00000050   Code   RO         2669    i.HAL_TIMEx_MasterConfigSynchronization  stm32f1xx_hal_tim_ex.o
    0x08002502   0x08002502   0x00000096   Code   RO         1378    i.HAL_TIM_Encoder_Init  stm32f1xx_hal_tim.o
    0x08002598   0x08002598   0x00000194   Code   RO          259    i.HAL_TIM_Encoder_MspInit  stm32f1xx_hal_msp.o
    0x0800272c   0x0800272c   0x00000032   Code   RO         1381    i.HAL_TIM_Encoder_Start  stm32f1xx_hal_tim.o
    0x0800275e   0x0800275e   0x00000002   Code   RO         1389    i.HAL_TIM_IC_CaptureCallback  stm32f1xx_hal_tim.o
    0x08002760   0x08002760   0x00000166   Code   RO         1402    i.HAL_TIM_IRQHandler  stm32f1xx_hal_tim.o
    0x080028c6   0x080028c6   0x00000002   Code   RO         1405    i.HAL_TIM_OC_DelayElapsedCallback  stm32f1xx_hal_tim.o
    0x080028c8   0x080028c8   0x000000d0   Code   RO         1426    i.HAL_TIM_PWM_ConfigChannel  stm32f1xx_hal_tim.o
    0x08002998   0x08002998   0x00000036   Code   RO         1429    i.HAL_TIM_PWM_Init  stm32f1xx_hal_tim.o
    0x080029ce   0x080029ce   0x00000002   PAD
    0x080029d0   0x080029d0   0x00000090   Code   RO          261    i.HAL_TIM_PWM_MspInit  stm32f1xx_hal_msp.o
    0x08002a60   0x08002a60   0x00000002   Code   RO         1432    i.HAL_TIM_PWM_PulseFinishedCallback  stm32f1xx_hal_tim.o
    0x08002a62   0x08002a62   0x00000002   PAD
    0x08002a64   0x08002a64   0x00000038   Code   RO         1433    i.HAL_TIM_PWM_Start  stm32f1xx_hal_tim.o
    0x08002a9c   0x08002a9c   0x00000090   Code   RO          975    i.HAL_TIM_PeriodElapsedCallback  encoder.o
    0x08002b2c   0x08002b2c   0x00000002   Code   RO         1443    i.HAL_TIM_TriggerCallback  stm32f1xx_hal_tim.o
    0x08002b2e   0x08002b2e   0x00000058   Code   RO         2008    i.HAL_UART_DMAStop  stm32f1xx_hal_uart.o
    0x08002b86   0x08002b86   0x0000004c   Code   RO          604    i.HAL_UART_ErrorCallback  uart.o
    0x08002bd2   0x08002bd2   0x00000002   PAD
    0x08002bd4   0x08002bd4   0x00000110   Code   RO         2013    i.HAL_UART_IRQHandler  stm32f1xx_hal_uart.o
    0x08002ce4   0x08002ce4   0x00000062   Code   RO         2014    i.HAL_UART_Init     stm32f1xx_hal_uart.o
    0x08002d46   0x08002d46   0x00000002   PAD
    0x08002d48   0x08002d48   0x000001ec   Code   RO          263    i.HAL_UART_MspInit  stm32f1xx_hal_msp.o
    0x08002f34   0x08002f34   0x00000098   Code   RO         2018    i.HAL_UART_Receive_DMA  stm32f1xx_hal_uart.o
    0x08002fcc   0x08002fcc   0x00000002   Code   RO          605    i.HAL_UART_RxCpltCallback  uart.o
    0x08002fce   0x08002fce   0x00000002   Code   RO         2021    i.HAL_UART_RxHalfCpltCallback  stm32f1xx_hal_uart.o
    0x08002fd0   0x08002fd0   0x00000002   Code   RO          606    i.HAL_UART_TxCpltCallback  uart.o
    0x08002fd2   0x08002fd2   0x00000002   Code   RO          343    i.HardFault_Handler  stm32f1xx_it.o
    0x08002fd4   0x08002fd4   0x0000000c   Code   RO          344    i.I2C1_ER_IRQHandler  stm32f1xx_it.o
    0x08002fe0   0x08002fe0   0x0000000c   Code   RO          345    i.I2C1_EV_IRQHandler  stm32f1xx_it.o
    0x08002fec   0x08002fec   0x0000004e   Code   RO         3698    i.I2C_DMAAbort      stm32f1xx_hal_i2c.o
    0x0800303a   0x0800303a   0x00000002   PAD
    0x0800303c   0x0800303c   0x00000124   Code   RO         3701    i.I2C_ITError       stm32f1xx_hal_i2c.o
    0x08003160   0x08003160   0x000000c8   Code   RO         3703    i.I2C_MasterReceive_BTF  stm32f1xx_hal_i2c.o
    0x08003228   0x08003228   0x000000ae   Code   RO         3704    i.I2C_MasterReceive_RXNE  stm32f1xx_hal_i2c.o
    0x080032d6   0x080032d6   0x00000080   Code   RO         3707    i.I2C_MasterTransmit_BTF  stm32f1xx_hal_i2c.o
    0x08003356   0x08003356   0x00000106   Code   RO         3708    i.I2C_MasterTransmit_TXE  stm32f1xx_hal_i2c.o
    0x0800345c   0x0800345c   0x0000011a   Code   RO         3709    i.I2C_Master_ADDR   stm32f1xx_hal_i2c.o
    0x08003576   0x08003576   0x0000005a   Code   RO         3710    i.I2C_Master_SB     stm32f1xx_hal_i2c.o
    0x080035d0   0x080035d0   0x00000084   Code   RO         3713    i.I2C_Slave_AF      stm32f1xx_hal_i2c.o
    0x08003654   0x08003654   0x000000dc   Code   RO         3714    i.I2C_Slave_STOPF   stm32f1xx_hal_i2c.o
    0x08003730   0x08003730   0x00000010   Code   RO         1191    i.IncPID_Init       pid.o
    0x08003740   0x08003740   0x00000056   Code   RO         1192    i.Incremental_PID   pid.o
    0x08003796   0x08003796   0x00000002   PAD
    0x08003798   0x08003798   0x000000a8   Code   RO          912    i.IndicatorDeviceControl  indicatordevice.o
    0x08003840   0x08003840   0x00000094   Code   RO         1233    i.Kinematics_Mecanum_CalculateRPM  kinematics_mecanum.o
    0x080038d4   0x080038d4   0x0000009c   Code   RO         1234    i.Kinematics_Mecanum_GetVelocities  kinematics_mecanum.o
    0x08003970   0x08003970   0x0000007c   Code   RO          913    i.LED_Green_Control  indicatordevice.o
    0x080039ec   0x080039ec   0x00000044   Code   RO          914    i.LED_Green_GPIO_Init  indicatordevice.o
    0x08003a30   0x08003a30   0x0000007c   Code   RO          915    i.LED_Red_Control   indicatordevice.o
    0x08003aac   0x08003aac   0x00000044   Code   RO          916    i.LED_Red_GPIO_Init  indicatordevice.o
    0x08003af0   0x08003af0   0x0000000a   Code   RO         5248    i.LPF_Struct_Init   LowPassFilter.lib(lowpassfilter.o)
    0x08003afa   0x08003afa   0x0000002a   Code   RO         5249    i.LowPassFilter     LowPassFilter.lib(lowpassfilter.o)
    0x08003b24   0x08003b24   0x00000064   Code   RO          800    i.MX_ADC1_Init      adc1.o
    0x08003b88   0x08003b88   0x00000048   Code   RO          835    i.MX_I2C1_Init      i2c.o
    0x08003bd0   0x08003bd0   0x000000b0   Code   RO          883    i.MX_TIM1_Init      tim1.o
    0x08003c80   0x08003c80   0x00000074   Code   RO          710    i.MX_TIM2_Init      tim2.o
    0x08003cf4   0x08003cf4   0x00000060   Code   RO          740    i.MX_TIM3_Init      tim3.o
    0x08003d54   0x08003d54   0x00000060   Code   RO          680    i.MX_TIM4_Init      tim4.o
    0x08003db4   0x08003db4   0x00000060   Code   RO          770    i.MX_TIM5_Init      tim5.o
    0x08003e14   0x08003e14   0x000000b0   Code   RO          549    i.MX_TIM8_Init      tim8.o
    0x08003ec4   0x08003ec4   0x00000050   Code   RO          607    i.MX_UART4_Init     uart.o
    0x08003f14   0x08003f14   0x00000044   Code   RO          608    i.MX_USART2_Init    uart.o
    0x08003f58   0x08003f58   0x00000002   Code   RO          346    i.MemManage_Handler  stm32f1xx_it.o
    0x08003f5a   0x08003f5a   0x00000002   PAD
    0x08003f5c   0x08003f5c   0x00000010   Code   RO         1076    i.Motor1_Forward    motorcontrol.o
    0x08003f6c   0x08003f6c   0x00000044   Code   RO         1077    i.Motor1_GPIO_Init  motorcontrol.o
    0x08003fb0   0x08003fb0   0x00000010   Code   RO         1078    i.Motor1_Reverse    motorcontrol.o
    0x08003fc0   0x08003fc0   0x00000010   Code   RO         1079    i.Motor2_Forward    motorcontrol.o
    0x08003fd0   0x08003fd0   0x00000044   Code   RO         1080    i.Motor2_GPIO_Init  motorcontrol.o
    0x08004014   0x08004014   0x00000010   Code   RO         1081    i.Motor2_Reverse    motorcontrol.o
    0x08004024   0x08004024   0x00000010   Code   RO         1082    i.Motor3_Forward    motorcontrol.o
    0x08004034   0x08004034   0x00000044   Code   RO         1083    i.Motor3_GPIO_Init  motorcontrol.o
    0x08004078   0x08004078   0x00000010   Code   RO         1084    i.Motor3_Reverse    motorcontrol.o
    0x08004088   0x08004088   0x00000010   Code   RO         1085    i.Motor4_Forward    motorcontrol.o
    0x08004098   0x08004098   0x00000044   Code   RO         1086    i.Motor4_GPIO_Init  motorcontrol.o
    0x080040dc   0x080040dc   0x00000010   Code   RO         1087    i.Motor4_Reverse    motorcontrol.o
    0x080040ec   0x080040ec   0x00000002   Code   RO          347    i.NMI_Handler       stm32f1xx_it.o
    0x080040ee   0x080040ee   0x00000020   Code   RO         2900    i.NVIC_SetPriority  stm32f1xx_hal_cortex.o
    0x0800410e   0x0800410e   0x00000002   Code   RO          348    i.PendSV_Handler    stm32f1xx_it.o
    0x08004110   0x08004110   0x000000d0   Code   RO         5086    i.RC_Update         RC.lib(rc.o)
    0x080041e0   0x080041e0   0x000001a4   Code   RO         5087    i.RC_UpdateStruct   RC.lib(rc.o)
    0x08004384   0x08004384   0x00000002   Code   RO          349    i.SVC_Handler       stm32f1xx_it.o
    0x08004386   0x08004386   0x00000002   PAD
    0x08004388   0x08004388   0x000000b0   Code   RO         1046    i.Servo_PositionControl  servo.o
    0x08004438   0x08004438   0x00000058   Code   RO         1047    i.Servo_ServoControl  servo.o
    0x08004490   0x08004490   0x0000000e   Code   RO          350    i.SysTick_Handler   stm32f1xx_it.o
    0x0800449e   0x0800449e   0x0000007a   Code   RO           13    i.SystemClock_Config  main.o
    0x08004518   0x08004518   0x00000048   Code   RO         5049    i.SystemInit        system_stm32f1xx.o
    0x08004560   0x08004560   0x0000000c   Code   RO          351    i.TIM2_IRQHandler   stm32f1xx_it.o
    0x0800456c   0x0800456c   0x0000000c   Code   RO          352    i.TIM3_IRQHandler   stm32f1xx_it.o
    0x08004578   0x08004578   0x0000000c   Code   RO          353    i.TIM4_IRQHandler   stm32f1xx_it.o
    0x08004584   0x08004584   0x0000000c   Code   RO          354    i.TIM5_IRQHandler   stm32f1xx_it.o
    0x08004590   0x08004590   0x0000008c   Code   RO         1444    i.TIM_Base_SetConfig  stm32f1xx_hal_tim.o
    0x0800461c   0x0800461c   0x00000016   Code   RO         1445    i.TIM_CCxChannelCmd  stm32f1xx_hal_tim.o
    0x08004632   0x08004632   0x00000002   PAD
    0x08004634   0x08004634   0x00000060   Code   RO         1453    i.TIM_OC1_SetConfig  stm32f1xx_hal_tim.o
    0x08004694   0x08004694   0x0000006c   Code   RO         1454    i.TIM_OC2_SetConfig  stm32f1xx_hal_tim.o
    0x08004700   0x08004700   0x00000068   Code   RO         1455    i.TIM_OC3_SetConfig  stm32f1xx_hal_tim.o
    0x08004768   0x08004768   0x00000050   Code   RO         1456    i.TIM_OC4_SetConfig  stm32f1xx_hal_tim.o
    0x080047b8   0x080047b8   0x00000020   Code   RO          355    i.UART4_IRQHandler  stm32f1xx_it.o
    0x080047d8   0x080047d8   0x00000010   Code   RO         2027    i.UART_DMAAbortOnError  stm32f1xx_hal_uart.o
    0x080047e8   0x080047e8   0x0000004a   Code   RO         2028    i.UART_DMAError     stm32f1xx_hal_uart.o
    0x08004832   0x08004832   0x0000003c   Code   RO         2029    i.UART_DMAReceiveCplt  stm32f1xx_hal_uart.o
    0x0800486e   0x0800486e   0x0000000a   Code   RO         2031    i.UART_DMARxHalfCplt  stm32f1xx_hal_uart.o
    0x08004878   0x08004878   0x0000001c   Code   RO         2037    i.UART_EndRxTransfer  stm32f1xx_hal_uart.o
    0x08004894   0x08004894   0x00000012   Code   RO         2038    i.UART_EndTxTransfer  stm32f1xx_hal_uart.o
    0x080048a6   0x080048a6   0x00000096   Code   RO         2039    i.UART_Receive_IT   stm32f1xx_hal_uart.o
    0x0800493c   0x0800493c   0x00000170   Code   RO         2040    i.UART_SetConfig    stm32f1xx_hal_uart.o
    0x08004aac   0x08004aac   0x00000062   Code   RO         2041    i.UART_Transmit_IT  stm32f1xx_hal_uart.o
    0x08004b0e   0x08004b0e   0x00000002   PAD
    0x08004b10   0x08004b10   0x00000020   Code   RO          356    i.USART2_IRQHandler  stm32f1xx_it.o
    0x08004b30   0x08004b30   0x00000054   Code   RO         1016    i.UpdateBatteryInfor  batteryinfor.o
    0x08004b84   0x08004b84   0x00000002   Code   RO          357    i.UsageFault_Handler  stm32f1xx_it.o
    0x08004b86   0x08004b86   0x00000002   PAD
    0x08004b88   0x08004b88   0x0000007c   Code   RO          609    i.UsartReceive_IDLE  uart.o
    0x08004c04   0x08004c04   0x00000354   Code   RO         1166    i.VelocityControl_4WD  velocitycontrol.o
    0x08004f58   0x08004f58   0x0000000e   Code   RO         5486    i.__scatterload_copy  mc_w.l(handlers.o)
    0x08004f66   0x08004f66   0x00000002   Code   RO         5487    i.__scatterload_null  mc_w.l(handlers.o)
    0x08004f68   0x08004f68   0x0000000e   Code   RO         5488    i.__scatterload_zeroinit  mc_w.l(handlers.o)
    0x08004f76   0x08004f76   0x00000002   PAD
    0x08004f78   0x08004f78   0x00000258   Code   RO           15    i.main              main.o
    0x080051d0   0x080051d0   0x00000010   Data   RO         5050    .constdata          system_stm32f1xx.o
    0x080051e0   0x080051e0   0x00000008   Data   RO         5051    .constdata          system_stm32f1xx.o
    0x080051e8   0x080051e8   0x00000020   Data   RO         5484    Region$$Table       anon$$obj.o


    Execution Region RW_IRAM1 (Exec base: 0x20000000, Load base: 0x08005208, Size: 0x00000a58, Max: 0x0000c000, ABSOLUTE)

    Exec Addr    Load Addr    Size         Type   Attr      Idx    E Section Name        Object

    0x20000000   0x08005208   0x00000006   Data   RW           16    .data               main.o
    0x20000006   0x0800520e   0x00000002   Data   RW           17    .data               main.o
    0x20000008   0x08005210   0x00000008   Data   RW          803    .data               adc1.o
    0x20000010   0x08005218   0x00000002   Data   RW          839    .data               i2c.o
    0x20000012   0x0800521a   0x00000022   Data   RW          917    .data               indicatordevice.o
    0x20000034   0x0800523c   0x0000000a   Data   RW          976    .data               encoder.o
    0x2000003e   0x08005246   0x00000002   PAD
    0x20000040   0x08005248   0x00000004   Data   RW         1017    .data               batteryinfor.o
    0x20000044   0x0800524c   0x00000010   Data   RW         1167    .data               velocitycontrol.o
    0x20000054   0x0800525c   0x0000000c   Data   RW         3312    .data               stm32f1xx_hal.o
    0x20000060   0x08005268   0x00000004   Data   RW         5052    .data               system_stm32f1xx.o
    0x20000064   0x0800526c   0x0000000e   Data   RW         5088    .data               RC.lib(rc.o)
    0x20000072   0x0800527a   0x00000002   PAD
    0x20000074        -       0x0000000c   Zero   RW          508    .bss                shareware.o
    0x20000080        -       0x0000000c   Zero   RW          509    .bss                shareware.o
    0x2000008c        -       0x0000000c   Zero   RW          510    .bss                shareware.o
    0x20000098        -       0x0000000c   Zero   RW          511    .bss                shareware.o
    0x200000a4        -       0x0000000c   Zero   RW          512    .bss                shareware.o
    0x200000b0        -       0x00000028   Zero   RW          513    .bss                shareware.o
    0x200000d8        -       0x00000018   Zero   RW          514    .bss                shareware.o
    0x200000f0        -       0x00000018   Zero   RW          515    .bss                shareware.o
    0x20000108        -       0x00000018   Zero   RW          516    .bss                shareware.o
    0x20000120        -       0x00000018   Zero   RW          517    .bss                shareware.o
    0x20000138        -       0x0000000c   Zero   RW          518    .bss                shareware.o
    0x20000144        -       0x0000000c   Zero   RW          519    .bss                shareware.o
    0x20000150        -       0x0000000c   Zero   RW          520    .bss                shareware.o
    0x2000015c        -       0x0000000c   Zero   RW          521    .bss                shareware.o
    0x20000168        -       0x00000020   Zero   RW          522    .bss                shareware.o
    0x20000188        -       0x0000001c   Zero   RW          523    .bss                shareware.o
    0x200001a4        -       0x0000001c   Zero   RW          524    .bss                shareware.o
    0x200001c0        -       0x00000040   Zero   RW          550    .bss                tim8.o
    0x20000200        -       0x000001c8   Zero   RW          611    .bss                uart.o
    0x200003c8        -       0x00000044   Zero   RW          612    .bss                uart.o
    0x2000040c        -       0x00000044   Zero   RW          614    .bss                uart.o
    0x20000450        -       0x00000040   Zero   RW          681    .bss                tim4.o
    0x20000490        -       0x00000040   Zero   RW          711    .bss                tim2.o
    0x200004d0        -       0x00000040   Zero   RW          741    .bss                tim3.o
    0x20000510        -       0x00000040   Zero   RW          771    .bss                tim5.o
    0x20000550        -       0x00000030   Zero   RW          801    .bss                adc1.o
    0x20000580        -       0x00000044   Zero   RW          802    .bss                adc1.o
    0x200005c4        -       0x00000054   Zero   RW          836    .bss                i2c.o
    0x20000618        -       0x00000040   Zero   RW          884    .bss                tim1.o
    0x20000658        -       0x00000400   Zero   RW            1    STACK               startup_stm32f103xe.o


==============================================================================

Image component sizes


      Code (inc. data)   RO Data    RW Data    ZI Data      Debug   Object Name

       100         14          0          8        116       1059   adc1.o
       728        204          0          4          0       1919   batteryinfor.o
       332         58          0         10          0       3081   encoder.o
       122         32          0          2         84       2539   i2c.o
       748         68          0         34          0       6415   indicatordevice.o
       304         24          0          0          0       1889   kinematics_mecanum.o
        68         16          0          0          0        463   loop.o
       722        104          0          8          0     505724   main.o
       400         82          0          0          0       6416   motorcontrol.o
       102          0          0          0          0       1400   pid.o
       264         42          0          0          0       1097   servo.o
         0          0          0          0        332       1701   shareware.o
        36          8        304          0       1024        784   startup_stm32f103xe.o
       164         28          0         12          0       3813   stm32f1xx_hal.o
      1306         68          0          0          0       9362   stm32f1xx_hal_adc.o
       226         14          0          0          0      26818   stm32f1xx_hal_cortex.o
      1222         52          0          0          0       5010   stm32f1xx_hal_dma.o
       510         42          0          0          0       3445   stm32f1xx_hal_gpio.o
      2896         58          0          0          0      17909   stm32f1xx_hal_i2c.o
      1456        144          0          0          0       5361   stm32f1xx_hal_msp.o
      1276        100          0          0          0       5744   stm32f1xx_hal_rcc.o
       232         12          0          0          0       1432   stm32f1xx_hal_rcc_ex.o
      1434         64          0          0          0      12649   stm32f1xx_hal_tim.o
       174          0          0          0          0       3150   stm32f1xx_hal_tim_ex.o
      1434         24          0          0          0       9854   stm32f1xx_hal_uart.o
       214         68          0          0          0       9021   stm32f1xx_it.o
        72         16         24          4          0       1143   system_stm32f1xx.o
       176          8          0          0         64        827   tim1.o
       116          8          0          0         64       1039   tim2.o
        96          8          0          0         64        735   tim3.o
        96          8          0          0         64        735   tim4.o
        96          8          0          0         64        735   tim5.o
       176          8          0          0         64        827   tim8.o
       352         38          0          0        592       3990   uart.o
       852         72          0         16          0       1434   velocitycontrol.o

    ----------------------------------------------------------------------
     18536       1500        360        100       2532     659520   Object Totals
         0          0         32          0          0          0   (incl. Generated)
        34          0          0          2          0          0   (incl. Padding)

    ----------------------------------------------------------------------

      Code (inc. data)   RO Data    RW Data    ZI Data      Debug   Library Member Name

        52          0          0          0          0       1794   lowpassfilter.o
       628         22          0         14          0       6114   rc.o
         0          0          0          0          0          0   entry.o
         0          0          0          0          0          0   entry10a.o
         0          0          0          0          0          0   entry11a.o
         8          4          0          0          0          0   entry2.o
         4          0          0          0          0          0   entry5.o
         0          0          0          0          0          0   entry7b.o
         0          0          0          0          0          0   entry8b.o
         8          4          0          0          0          0   entry9a.o
        30          0          0          0          0          0   handlers.o
        36          8          0          0          0         68   init.o
         0          0          0          0          0          0   iusefp.o
        30          0          0          0          0         68   llshl.o
        36          0          0          0          0         68   llsshr.o
        32          0          0          0          0         68   llushr.o
        20          0          0          0          0         68   cfcmple.o
        56          0          0          0          0         88   d2f.o
       334          0          0          0          0        148   dadd.o
       186          0          0          0          0        176   depilogue.o
        38          0          0          0          0         68   f2d.o
       176          0          0          0          0        140   fadd.o
       124          0          0          0          0         88   fdiv.o
       110          0          0          0          0        168   fepilogue.o
        40          0          0          0          0         68   ffixui.o
        18          0          0          0          0         68   fflti.o
        10          0          0          0          0         68   ffltui.o
       100          0          0          0          0         76   fmul.o
        24          0          0          0          0         68   fscalb.o

    ----------------------------------------------------------------------
      2104         38          0         16          0       9472   Library Totals
         4          0          0          2          0          0   (incl. Padding)

    ----------------------------------------------------------------------

      Code (inc. data)   RO Data    RW Data    ZI Data      Debug   Library Name

        52          0          0          0          0       1794   LowPassFilter.lib
       628         22          0         14          0       6114   RC.lib
       184         16          0          0          0        272   mc_w.l
      1236          0          0          0          0       1292   mf_w.l

    ----------------------------------------------------------------------
      2104         38          0         16          0       9472   Library Totals

    ----------------------------------------------------------------------

==============================================================================


      Code (inc. data)   RO Data    RW Data    ZI Data      Debug   

     20640       1538        360        116       2532     659316   Grand Totals
     20640       1538        360        116       2532     659316   ELF Image Totals
     20640       1538        360        116          0          0   ROM Totals

==============================================================================

    Total RO  Size (Code + RO Data)                21000 (  20.51kB)
    Total RW  Size (RW Data + ZI Data)              2648 (   2.59kB)
    Total ROM Size (Code + RO Data + RW Data)      21116 (  20.62kB)

==============================================================================

