:020000040800F2
:1000000020B30020495600084105000843050008B8
:10001000470500084B0500084F05000800000000D8
:100020000000000000000000000000005305000870
:100030005505000800000000570500085905000894
:1000400063560008635600086356000863560008AC
:10005000635600086356000863560008635600089C
:10006000635600086356000863560008635600088C
:10007000635600086356000863560008635600087C
:10008000635600086356000863560008635600086C
:10009000635600086356000863560008635600085C
:1000A000635600086356000863560008635600084C
:1000B0006356000863560008357F00086356000841
:1000C000635600086356000863560008635600082C
:1000D00063560008BF5500086356000863560008C1
:1000E000635600086356000863560008635600080C
:1000F00063560008635600086356000863560008FC
:1001000063560008635600086356000863560008EB
:1001100063560008635600086356000863560008DB
:1001200063560008635600086356000863560008CB
:1001300000F002F800F06BF80AA090E8000C82448E
:100140008344AAF10107DA4501D100F060F8AFF26B
:10015000090EBAE80F0013F0010F18BFFB1A43F0A5
:1001600001031847FCAA00001CAB00000A444FF032
:10017000000C10F8013B13F0070408BF10F8014B06
:100180001D1108BF10F8015B641E05D010F8016B4B
:10019000641E01F8016BF9D113F0080F1EBF10F8AF
:1001A000014BAD1C0C1B09D16D1E58BF01F801CBD2
:1001B000FAD505E014F8016B01F8016B6D1EF9D555
:1001C0009142D6D37047000000230024002500266A
:1001D000103A28BF78C1FBD8520728BF30C148BFAA
:1001E0000B607047642908F08D84752908F08A84B3
:1001F000782908F0C384632908F03586732908F04C
:100200003A86002070471FB51FBD10B510BD08F01D
:100210004DFE1146FFF7F7FF00F008F808F06BFEFF
:1002200003B4FFF7F2FF03BC05F06EF988B00026B7
:1002300000240027A04605F0FDF84FF4A06005F06B
:1002400023FA4FF4E13005F06EF900F077FA00F090
:100250009BFA01F0E1F905F061F8002007F031FAAE
:10026000012007F02EFA4FF478408149088081A0E0
:1002700010210B46C822CDE9001032211E2005F0C6
:1002800019F880A010210B46C822CDE900104621A4
:100290001E2005F00FF87EA010210B46C822CDE9E4
:1002A00000105A211E2005F005F87DA010210B46F4
:1002B000C822CDE900106E211E2004F0FBFF7BA0B8
:1002C00010210B46C822CDE9001082211E2004F027
:1002D000F1FF7CA010210B46C822CDE90010962129
:1002E0001E2004F0E7FF1F20614908807BA0102139
:1002F0000B46C822CDE90010AA211E2004F0DAFF27
:1003000078A010210B46C822CDE90010BE211E2086
:1003100004F0D0FF78A010210B46C822CDE90010D0
:10032000D2211E2004F0C6FFA1E0002000F046FA12
:100330000546052D48D2DFE805F00304112127000A
:1003400042E04FF40061404607F07DFA044624B1D4
:1003500032466EA1204608F071FB35E06CB13246A2
:100360006AA1204608F06AFB10200346C822FA2141
:10037000CDE900041E2004F09DFF25E02146404603
:1003800007F051FA00241FE0B8F1000F01D101205D
:1003900000E000208046B8F1000F0AD061A01021D3
:1003A0000B46C822CDE90010AA211E2004F082FFCE
:1003B00009E04AA010210B46C822CDE90010AA216D
:1003C0001E2004F077FF00BF00BFA74224D02746BD
:1003D0003A4656A103A808F031FB03A810210B46AA
:1003E000C822CDE90010E6211E2004F063FF4CB1C5
:1003F00010200346C822FA21CDE900041E2004F093
:1004000059FF09E04FF6FF704FF48573EF22FA2190
:1004100000901E2004F0B4FC0A2005F048F8701C7F
:10042000C6B2142096FBF0F100FB1160F8B9002071
:1004300007F062F98146102003234A46BE2100904E
:100440007E2004F07FFE012007F056F9814610203F
:1004500003234A46D22100907E2004F073FE3748E1
:10046000006808B9012000E00020344908605CE71A
:1004700016000020576172536869702053544D3341
:10048000320000004D414C4C4F4320544553540022
:1004900041544F4D40414C49454E54454B0000009E
:1004A000323031352F312F32300000004B4559307A
:1004B0003A4D616C6C6F6320204B4559323A46725D
:1004C000656500004B45595F55503A5352414D7890
:1004D000204B4559313A5772697465005352414D6A
:1004E000494E00005352414D494E20555345443A20
:1004F00020202025000000005352414D4558205532
:100500005345443A20202025000000004D656D6FC2
:100510007279204D616C6C6F632054657374253063
:10052000336400005352414D45580000502041644F
:1005300064723A30582530385800000094812142C6
:10054000704700BFFEE700BFFEE700BFFEE700BF49
:10055000FEE7704770477047704700000CB50020F9
:10056000019000906C48006840F480306A4908604F
:1005700000BF6948006800F4003000900198401CFA
:100580000190009818B90198B0F5A06FF1D16248B8
:10059000006800F4003010B10120009001E000205C
:1005A00000900098012843D15C48006840F010009A
:1005B0005A4908600846006820F0030008600846B1
:1005C000006840F0020008605348406852494860A3
:1005D0000846406848600846406840F480604860CB
:1005E0000846406820F47C1048600846406840F4A3
:1005F000E81048600846006840F08070086000BF5E
:100600004548006800F000700028F9D04248406872
:1006100020F00300404948600846406840F002006E
:10062000486000BF3C48406800F00C000828F9D141
:100630000CBD10B5FFF792FF10BD10B5364800682D
:1006400040F00100344908600846406834490840D9
:100650003149486008460068324908402E49086020
:100660000846006820F4802008600846406820F4AE
:10067000FE0048604FF41F008860FFF7DAFF4FF07C
:1006800000602949086010BD10B50021002000223B
:10069000214B5B6803F00C0121B1042906D0082925
:1006A00028D107E0214B224C236027E01F4B204C30
:1006B000236023E0184B5B6803F47010164B5B68F3
:1006C00003F48032022303EB904022B9194B4343D9
:1006D000174C23600DE0104B5B6803F4003323B12B
:1006E000144B4343124C236003E0104B4343104C24
:1006F000236003E00D4B0E4C236000BF00BF064B90
:100700005B68C3F303130C4CE15C094B1B68CB40E3
:10071000074C236010BD0000001002400020024082
:100720000000FFF8FFFFF6FE08ED00E000127A007F
:100730000000002000093D000400002008B5012150
:10074000482005F031FE2020ADF8000010208DF883
:10075000030003208DF802006946094805F068FB94
:100760002021074805F011FC2020ADF80000694663
:10077000044805F05DFB2021024805F006FC08BD99
:10078000000C01400018014008B50121442005F08B
:100790000BFE1C20ADF8000048208DF803006946D0
:1007A000354805F045FB0120ADF8000028208DF804
:1007B00003006946314805F03BFB08BD10B504460F
:1007C00014B101202E4908702D480078002837D038
:1007D0001021294805F0BFFB78B10821264805F013
:1007E000BAFB50B10421244805F0B5FB28B1012122
:1007F000224805F0B0FB012822D10A2004F057FE60
:1008000000201F49087010211B4805F0A4FB08B9FF
:10081000012010BD0821184805F09DFB08B90220F1
:10082000F7E70421144805F096FB08B90320F0E728
:100830000121124805F08FFB01281BD10420E8E7B5
:1008400010210D4805F087FB012813D108210A4823
:1008500005F081FB01280DD10421074805F07BFB41
:10086000012807D10121054805F075FB10B90120C9
:10087000034908700020CCE700180140000801403F
:100880001400002001B5BDF800000090BDF8000084
:10089000FB49088008BD01B5BDF800000090BDF817
:1008A0000000F749891C088008BD08B5F448801C81
:1008B00000880090BDF8000008BD03B5BDF8000039
:1008C000EF490880BDF80400891C08800CBD01B503
:1008D000BDF80000FFF7D6FF052004F0C4FDFFF7C8
:1008E000E4FF08BDE7480089E54908807047E4490E
:1008F000891C0880704730B5014601F01F04C1F320
:100900004513CA0AE50205EB43151544A8B230BDEC
:1009100000BF0100A0F10102D0B2FAD1704730B59A
:1009200004460D46D748808849F24131884205D0B7
:10093000D448808845F21031884214D1D149488981
:10094000FFF7A0FF2012FFF7A6FFE0B2FFF7A3FF1B
:10095000CC498889FFF796FF2812FFF79CFFE8B281
:10096000FFF799FFABE0C748808846F6040188424C
:100970001DD1C4488079012804D1C2480088401E96
:10098000001B84B2BF494889FFF77CFF2012FFF7A4
:1009900082FFE0B2FFF77FFFBA498889FFF772FF55
:1009A0002812FFF778FFE8B2FFF775FF87E0B54838
:1009B000808841F66311884247D1B2488079A8B94E
:1009C000B0480088401E001B84B2AE494889FFF73A
:1009D00059FF0020FFF75FFF0020FFF75CFF2012A8
:1009E000FFF759FFE0B2FFF756FF16E0A549488927
:1009F000FFF748FF2012FFF74EFFE0B2FFF74BFF73
:100A0000A0490988491EC1F30F20FFF744FF9D4903
:100A10000978491EC8B2FFF73EFF9A498889FFF757
:100A200031FF2812FFF737FFE8B2FFF734FF95498F
:100A30004988491EC1F30F20FFF72DFF914989789E
:100A4000491EC8B2FFF727FF39E08E48808845F27B
:100A50001051884220D18B494889FFF713FF20129B
:100A6000FFF719FF87494989491C88B2FFF70AFF38
:100A7000E0B2FFF710FF83498889FFF703FF2812D0
:100A8000FFF709FF7F498989491C88B2FFF7FAFE01
:100A9000E8B2FFF700FF12E07A488079012804D11C
:100AA00078480088401E001B84B276494889214658
:100AB000FFF703FF734988892946FFF7FEFE30BD23
:100AC0003EB504460D4600200290019000906D480E
:100AD0000088A04203DD6B484088A84201DC00206A
:100AE0003EBD29462046FFF71AFF6648808849F236
:100AF0004131884211D06348808846F6040188421B
:100B00000BD06048808845F21031884205D05D489E
:100B1000808841F66311884203D12E20FFF7B2FE90
:100B20000DE05848808845F21051884204D14FF4B6
:100B30003850FFF7A7FE02E02220FFF7A3FE51483E
:100B4000808849F22031884202D10220FFF7E0FE7E
:100B5000FFF7ABFE02904B48808841F66311884254
:100B600002D1BDF80800BBE70220FFF7D1FEFFF776
:100B70009CFE02904348808849F2413188420BD064
:100B80004048808845F21031884205D03D48808831
:100B900045F21051884210D10220FFF7B9FEFFF74D
:100BA00084FE0090BDF80800C0B20190BDF80400BA
:100BB0004FF6FF7101EA002001903248808849F227
:100BC0002531884216D02F48808844F2355188421A
:100BD00010D02C488088091F88420BD02948808873
:100BE0004BF20551884205D0264880884CF20551C9
:100BF000884202D1BDF8080072E72248808849F295
:100C0000413188420BD01F48808845F2103188421C
:100C100005D01C48808845F2105188420DD1BDF89E
:100C20000800C012C002BDF80410891240EA411049
:100C3000BDF8001040EAE12052E7BDF80800FFF7D8
:100C40005AFE4DE700B50F48808849F2413188428D
:100C500011D00C48808846F6040188420BD0094820
:100C6000808845F21031884205D00648808841F6D8
:100C70006311884208D12920FFF704FE14E0000028
:100C8000FE07006CE8010020FE48808845F2105104
:100C9000884204D14FF42450FFF7F4FD04E040F201
:100CA00073110720FFF709FE00BD00B5F5488088E5
:100CB00049F24131884211D0F248808846F6040159
:100CC00088420BD0EF48808845F21031884205D029
:100CD000EC48808841F66311884203D12820FFF751
:100CE000D1FD0EE0E748808845F21051884204D1DA
:100CF0004FF42050FFF7C6FD03E000210720FFF767
:100D0000DCFD00BDF0B5054600240027DD488079F4
:100D100001280BD1DB48808846F60401884205D0C3
:100D2000D848808841F66311884208D1D548807937
:100D3000F0B9D448808841F66311884218D1082D53
:100D400015D2DFE805F00406080A0C0E101206257D
:100D50000DE007250BE0042509E0052507E0012546
:100D600005E0002503E0032501E0022500BF00BFE8
:100D7000C448808849F24131884217D0C1488088F0
:100D800046F60401884211D0BE48808845F21031F1
:100D900088420BD0BB48808845F21051884205D06C
:100DA000B848808841F6631188427DD1082D1CD255
:100DB000DFE805F00406090C0F12151800BF14E057
:100DC00044F0800411E044F040040EE044F0C0041C
:100DD0000BE044F0200408E044F0600405E044F037
:100DE000A00402E044F0E00400BF00BFA5488088F2
:100DF00045F21051884202D14FF4585700E036278F
:100E0000A048808845F2103188420DD09D488088E6
:100E100045F21051884207D09A48808841F6631104
:100E2000884201D044F008049648808846F60401C0
:100E3000884201D144F0020421463846FFF73DFDC7
:100E40009048808841F6631188421DD004F020004C
:100E500068B18C4800888B494988884214DA8948EF
:100E60000688408887490880084646800CE0854807
:100E7000008884494988884206DD8248068840887F
:100E800080490880084646807E48808845F2105197
:100E9000884254D17B494889FFF7F4FC0020FFF7D2
:100EA000FAFC7849498900E078E0491C88B2FFF7EC
:100EB000E9FC0020FFF7EFFC72494989891C88B2E0
:100EC000FFF7E0FC6F490988491EC1F30F20FFF7C7
:100ED000E2FC6C494989C91C88B2FFF7D3FC694917
:100EE0000978491EC8B2FFF7D6FC66498889FFF722
:100EF000C9FC0020FFF7CFFC62498989491C88B2F0
:100F0000FFF7C0FC0020FFF7C6FC5E498989891CF9
:100F100088B2FFF7B7FC5B494988491EC1F30F202F
:100F2000FFF7B9FC57498989C91C88B2FFF7AAFCA9
:100F300054498978491EC8B2FFF7ADFC55E05149C4
:100F40004889FFF79FFC0020FFF7A5FC0020FFF772
:100F5000A2FC4C490988491EC1F30F20FFF79BFCF6
:100F600048490978491EC8B2FFF795FC4549888968
:100F7000FFF788FC0020FFF78EFC0020FFF78BFCBA
:100F800040494988491EC1F30F20FFF784FC3D49C1
:100F90008978491EC8B2FFF77EFC26E0082D1CD2D6
:100FA000DFE805F004070A0D0F12151844F03004AD
:100FB00013E044F0100410E044F020040DE000BF02
:100FC0000BE044F0380408E044F0280405E044F065
:100FD000180402E044F0080400BF00BF032744F4F3
:100FE000805421463846FFF768FCF0BD30B5044612
:100FF0000D4629462046FFF792FCFFF773FC224876
:1010000000882249088030BD70B504460D4616465A
:101010001C48808849F24131884205D019488088AF
:1010200045F21031884214D116494889FFF72AFC4D
:101030002012FFF730FCE0B2FFF72DFC1149888940
:10104000FFF720FC2812FFF726FCE8B2FFF723FC8D
:1010500093E00C48808845F21051884227D1094915
:101060004889FFF70FFC2012FFF715FC0549498955
:10107000491C88B2FFF706FCE0B2FFF70CFC0149FF
:10108000888905E0E8010020160000200008006CB7
:10109000FFF7F8FB2812FFF7FEFBFE498989491C80
:1010A00088B2FFF7EFFBE8B2FFF7F5FB65E0F94820
:1010B000808841F66311884228D1F648807920B9AA
:1010C000F4480088401E001B84B2F2494889FFF7AB
:1010D000D9FB2012FFF7DFFBE0B2FFF7DCFB2012A9
:1010E000FFF7D9FBE0B2FFF7D6FBEA498889FFF7A3
:1010F000C9FB2812FFF7CFFBE8B2FFF7CCFB2812A1
:10110000FFF7C9FBE8B2FFF7C6FB36E0E14880888D
:1011100046F6040188421DD1DE488079012804D1B9
:10112000DC480088401E001B84B2DA494889FFF77A
:10113000A9FB2012FFF7AFFBE0B2FFF7ACFBD549EC
:101140008889FFF79FFB2812FFF7A5FBE8B2FFF79E
:10115000A2FB12E0CF488079012804D1CD48008855
:10116000401E001B84B2CB4948892146FFF7A5FBEE
:10117000C84988892946FFF7A0FBC6480089C649A7
:101180000880881C068070BD2DE9F0470446BE200B
:10119000FFF778FB0520FFF77EFB204607F0EBFE0C
:1011A00007464FF06632BD4B07F0F8FE054607F0E4
:1011B000B5FE1FFA80F94846FFF76DFB0120FFF7E7
:1011C0006AFBFF20FFF767FB0020FFF764FB0020AE
:1011D000FFF761FBBDE8F08710B50446002C66D12F
:1011E000AC498871F02008804FF4A0704880084610
:1011F000808849F2413188420BD0A648808846F663
:101200000401884205D0A348808845F21031884205
:101210001AD12C209F4908812A2048812B208881BF
:101220000846808846F60401884205D0994880889F
:1012300045F21031884206D14FF4A07095490880DC
:101240004FF4F0704880A1E09248808845F2105138
:10125000884210D14FF430508E4908814FF4285005
:1012600048814FF42C5088814FF4F07008804FF47F
:10127000487048808AE08748808841F66311884238
:101280000DD12C20834908812B2048812A20888178
:101290004FF4F07008804FF44870488076E02220C8
:1012A0007C49088120204881212088816EE001202E
:1012B000784988714FF4A0700880F0204880084673
:1012C000808849F24131884205D07248808845F2D1
:1012D0001031884207D12C206E4908812A2048818C
:1012E0002B2088813FE06B48808846F604018842C5
:1012F00007D12C20674908812B2048812A2088812A
:1013000031E06448808845F21051884210D14FF492
:101310003050604908814FF4285048814FF42C50D8
:1013200088814FF4487008804FF4F07048801AE0CC
:101330005848808841F6631188420DD12C205549C8
:1013400008812A2048812B2088814FF4487008802A
:101350004FF4F070488006E022204E490881212099
:101360004881202088814B48808846F604018842C5
:1013700005D04848808845F21031884206D14FF4A4
:10138000F070444908804FF4A07048800020FFF7B7
:10139000B9FC10BD2DE9F04F86B004460D469046CD
:1013A000994604EB0800401E86B205EB0900401E7A
:1013B00087B23848808849F24131884215D0354893
:1013C000808845F2103188420FD03248808846F636
:1013D0000401884209D02F488079012826D12D4860
:1013E000808841F66311884220D12A494889FFF755
:1013F00049FA2012FFF74FFAE0B2FFF74CFA301229
:10140000FFF749FAF0B2FFF746FA22498889FFF759
:1014100039FA2812FFF73FFAE8B2FFF73CFA381220
:10142000FFF739FAF8B2FFF736FAC0E019488088BA
:1014300041F6631188423CD116480088A0EB0800B1
:10144000001B84B205EB0900401E1FFA80F9114908
:101450004889FFF717FA2012FFF71DFAE0B2FFF7ED
:101460001AFA04EB0801491EC1F30F20FFF713FA23
:1014700004EB0801491EC8B2FFF70DFA0549888937
:10148000FFF700FA2812FFF706FAE8B2FFF703FAAF
:1014900006E00000E8010020FE07006C66660440DC
:1014A0004FEA2920FFF7F7F909F0FF00FFF7F3F9FA
:1014B0007DE0FE48808845F21051884244D1FB49C6
:1014C0004889FFF7DFF92012FFF7E5F9F749498965
:1014D000491C88B2FFF7D6F9E0B2FFF7DCF9F3490F
:1014E0004989891C88B2FFF7CDF93012FFF7D3F98B
:1014F000EE494989C91C88B2FFF7C4F9F0B2FFF779
:10150000CAF9EA498889FFF7BDF92812FFF7C3F93C
:10151000E6498989491C88B2FFF7B4F9E8B2FFF7B8
:10152000BAF9E2498989891C88B2FFF7ABF9381208
:10153000FFF7B1F9DD498989C91C88B2FFF7A2F923
:10154000F8B2FFF7A8F932E0D848807901280ED127
:10155000AA46BB46D5480088801B401E80B2019039
:10156000D2480088001B401E80B2009003E0A246D3
:10157000B3460195009750200590512004905220C9
:1015800003905320029051460598FFF796F959466B
:101590000498FFF792F901990398FFF78EF90099E3
:1015A0000298FFF78AF929462046FFF7B8F906B0F6
:1015B000BDE8F08F70B504460026BC480588408819
:1015C0004543BA48808846F60401884216D1B74898
:1015D0008079012812D10020B44988712A204881DD
:1015E0002B20888100210846FFF799F90120AF4997
:1015F00088712B2048812A20888103E00021084639
:10160000FFF78DF9FFF76EF9002602E0A848048085
:10161000761CAE42FAD370BD00B59FB0012108021E
:1016200004F0B5FE01214FF4B47004F0BDFE0120BA
:10163000ADF8780010208DF87B0003208DF87A003B
:101640001EA99C4804F0F4FB4CF23370ADF878000E
:1016500018208DF87B0003208DF87A001EA996488B
:1016600004F0E6FB4FF68070ADF8780018208DF896
:101670007B0003208DF87A001EA9904804F0D8FB67
:1016800041F20100ADF8780018208DF87B000320AE
:101690008DF87A001EA98A4804F0CAFB0120089040
:1016A000002009900F200A9000200B900C900D90C4
:1016B0000E9001900290032003900020049005906A
:1016C0000690079006200F90002010901190102097
:1016D00012900020139015901490169017904FF4CC
:1016E00080501890002019904FF480401A900020EC
:1016F0001B9008A81C9001A81D900FA804F07EF86C
:101700000121062004F0E2F9322003F0D0FE00208F
:10171000FFF7DDF86549888008468088FF280ADBE6
:10172000084680884FF6FF71884204D05F48808861
:10173000B0F5134F7ED1D320FFF7A4F8FFF7B5F82B
:101740005A498880FFF7B1F858498880FFF7ADF80B
:1017500056498880084680884FF6FF7101EA0020CC
:1017600052498880FFF7A1F85049898808434F49BA
:1017700088800846808849F2413188425AD0BF208B
:10178000FFF780F8FFF791F848498880FFF78DF858
:1017900046498880FFF789F844498880FFF785F833
:1017A00042498880084680884FF6FF7101EA002090
:1017B0003E498880FFF779F83C49898808433B49CE
:1017C00088800846808846F60401884232D0D420BA
:1017D000FFF758F8FFF769F834498880FFF765F894
:1017E00032498880FFF761F8304988800846808850
:1017F0004FF6FF7101EA00202C498880FFF755F869
:101800002A4989880843294988800846808845F202
:101810001031884263D04FF45A40FFF733F8FFF796
:1018200044F8224988804FF45B40FFF72BF8FFF71C
:101830003CF800E053E01D498880084680884FF658
:10184000FF7101EA0020194988804FF45C40FFF7DE
:1018500019F8FFF72AF81549898808431349888041
:1018600008468088B0F5004F02D145F210508880BC
:101870000E48808845F21051884230D0A120FFF7F1
:1018800001F8FFF712F809498880FFF70EF80749B9
:101890008880084680884FF6FF7101EA00200349DE
:1018A0008880FFF702F8014989880BE0E8010020F1
:1018B0000008006C000C01400014014000180140B9
:1018C000002001400843FE4988800846808845F290
:1018D0006171884203D141F66310F9498880F84864
:1018E0008188F8A007F09EF8F548808849F24131D8
:1018F00088427CD1CF20FEF7C5FF0020FEF7CBFF4A
:10190000C120FEF7C8FF3020FEF7C5FFED20FEF72F
:10191000B9FF6420FEF7BFFF0320FEF7BCFF1220D3
:10192000FEF7B9FF8120FEF7B6FFE820FEF7AAFF19
:101930008520FEF7B0FF1020FEF7ADFF7A20FEF7FE
:10194000AAFFCB20FEF79EFF3920FEF7A4FF2C2034
:10195000FEF7A1FF0020FEF79EFF3420FEF79BFF5D
:101960000220FEF798FFF720FEF78CFF2020FEF7FD
:1019700092FFEA20FEF786FF0020FEF78CFF002092
:10198000FEF789FFC020FEF77DFF1B20FEF783FFD7
:10199000C120FEF777FF0120FEF77DFFC520FEF78F
:1019A00071FF3020FEF777FF3020FEF774FFC7206D
:1019B000FEF768FFB720FEF76EFF3620FEF762FFE6
:1019C0004820FEF768FF3A20FEF75CFF5520FEF73F
:1019D00062FFB120FEF756FF0020FEF75CFF1A20E1
:1019E000FEF759FFB620FEF74DFF0A2000E099E010
:1019F000FEF751FFA220FEF74EFFF220FEF742FF56
:101A00000020FEF748FF2620FEF73CFF0120FEF7EE
:101A100042FFE020FEF736FF0F20FEF73CFF2A20B2
:101A2000FEF739FF2820FEF736FF0820FEF733FFC8
:101A30000E20FEF730FF0820FEF72DFF5420FEF7A2
:101A40002AFFA920FEF727FF4320FEF724FF0A20E4
:101A5000FEF721FF0F20FEF71EFF0020FEF71BFF01
:101A60000020FEF718FF0020FEF715FF0020FEF70C
:101A700012FFE120FEF706FF0020FEF70CFF152005
:101A8000FEF709FF1720FEF706FF0720FEF703FF0A
:101A90001120FEF700FF0620FEF7FDFE2B20FEF7CB
:101AA000FAFE5620FEF7F7FE3C20FEF7F4FE052076
:101AB000FEF7F1FE1020FEF7EEFE0F20FEF7EBFE24
:101AC0003F20FEF7E8FE3F20FEF7E5FE0F20FEF781
:101AD000E2FE2B20FEF7D6FE0020FEF7DCFE002003
:101AE000FEF7D9FE0120FEF7D6FE3F20FEF7D3FE1B
:101AF0002A20FEF7C7FE0020FEF7CDFE0020FEF7ED
:101B0000CAFE0020FEF7C7FEEF20FEF7C4FE11203C
:101B1000FEF7B8FE782003F0CAFC2920FEF7B2FEDB
:101B200003F022B96648808846F6040188427CD1D9
:101B30001120FEF7A7FE142003F0B9FCD020FEF719
:101B4000A1FE0720FEF7A7FE4220FEF7A4FE1D20FF
:101B5000FEF7A1FED120FEF795FE0020FEF79BFECA
:101B60001A20FEF798FE0920FEF795FED220FEF718
:101B700089FE0120FEF78FFE2220FEF78CFEC0209A
:101B8000FEF780FE1020FEF786FE3B20FEF783FE68
:101B90000020FEF780FE0220FEF77DFE1120FEF7FA
:101BA0007AFEC520FEF76EFE0320FEF774FEC82005
:101BB000FEF768FE0020FEF76EFE2520FEF76BFEA6
:101BC0002120FEF768FE0520FEF765FE0020FEF7E7
:101BD00062FE0A20FEF75FFE6520FEF75CFE252010
:101BE000FEF759FE7720FEF756FE5020FEF753FE13
:101BF0000F20FEF750FE0020FEF74DFEF820FEF706
:101C000041FE0120FEF747FEFE20FEF73BFE0020CE
:101C1000FEF741FE0220FEF73EFE2020FEF732FED8
:101C20003620FEF72FFE082000E02CE0FEF733FE02
:101C30003A20FEF727FE5520FEF72DFE2B20FEF75B
:101C400021FE0020FEF727FE0020FEF724FE0120E3
:101C5000FEF721FE3F20FEF71EFE2A20FEF712FEB1
:101C60000020FEF718FE0020FEF715FE0120FEF70B
:101C700012FEDF20FEF70FFE782003F018FC29206B
:101C8000FEF700FE4CE70E48808845F2103188428E
:101C900040F08487ED20FEF7F5FD0120FEF7FBFD07
:101CA000FE20FEF7F8FDEE20FEF7ECFDDE20FEF74D
:101CB000F2FD2120FEF7EFFDF120FEF7E3FD09E044
:101CC000E8010020204C43442049443A25780D0A7D
:101CD000000000000120FEF7DEFDDF20FEF7D2FD50
:101CE0001020FEF7D8FDC420FEF7CCFD8F20FEF7B4
:101CF000D2FDC620FEF7C6FD0020FEF7CCFDE22097
:101D0000FEF7C9FDE220FEF7C6FDE220FEF7C3FDA7
:101D1000BF20FEF7B7FDAA20FEF7BDFDB020FEF7FD
:101D2000B1FD0D20FEF7B7FD0020FEF7B4FD0D203C
:101D3000FEF7B1FD0020FEF7AEFD1120FEF7ABFD72
:101D40000020FEF7A8FD1920FEF7A5FD0020FEF7F4
:101D5000A2FD2120FEF79FFD0020FEF79CFD2D2017
:101D6000FEF799FD0020FEF796FD3D20FEF793FD5E
:101D70000020FEF790FD5D20FEF78DFD0020FEF7B0
:101D80008AFD5D20FEF787FD0020FEF784FDB1206F
:101D9000FEF778FD8020FEF77EFD0020FEF77BFD3C
:101DA0008B20FEF778FD0020FEF775FD9620FEF7EC
:101DB00072FD0020FEF76FFDB220FEF763FD0020EC
:101DC000FEF769FD0020FEF766FD0220FEF763FDC9
:101DD0000020FEF760FD0320FEF75DFD0020FEF70A
:101DE0005AFDB320FEF74EFD0020FEF754FD002003
:101DF000FEF751FD0020FEF74EFD0020FEF74BFDE3
:101E00000020FEF748FD0020FEF745FD0020FEF70C
:101E100042FD0020FEF73FFD0020FEF73CFD0020C4
:101E2000FEF739FD0020FEF736FD0020FEF733FDFA
:101E30000020FEF730FD0020FEF72DFD0020FEF70C
:101E40002AFD0020FEF727FD0020FEF724FD0020DC
:101E5000FEF721FD0020FEF71EFD0020FEF71BFD12
:101E60000020FEF718FD0020FEF715FD0020FEF70C
:101E700012FD0020FEF70FFDB420FEF703FD8B20BE
:101E8000FEF709FD0020FEF706FD9620FEF703FD94
:101E90000020FEF700FDA120FEF7FDFC0020FEF76C
:101EA000FAFCB520FEF7EEFC0220FEF7F4FC002061
:101EB000FEF7F1FC0320FEF7EEFC0020FEF7EBFC42
:101EC0000420FEF7E8FC0020FEF7E5FCB620FEF754
:101ED000D9FC0020FEF7DFFC0020FEF7DCFCB72079
:101EE000FEF7D0FC0020FEF7D6FC0020FEF7D3FC66
:101EF0003F20FEF7D0FC0020FEF7CDFC5E20FEF771
:101F0000CAFC0020FEF7C7FC6420FEF7C4FC0020DA
:101F1000FEF7C1FC8C20FEF7BEFC0020FEF7BBFCE8
:101F2000AC20FEF7B8FC0020FEF7B5FCDC20FEF785
:101F3000B2FC0020FEF7AFFC7020FEF7ACFC0020E6
:101F4000FEF7A9FC9020FEF7A6FC0020FEF7A3FCFC
:101F5000EB20FEF7A0FC0020FEF79DFCDC20FEF746
:101F60009AFC0020FEF797FCB820FEF78BFC0020BF
:101F7000FEF791FC0020FEF78EFC0020FEF78BFCA4
:101F80000020FEF788FC0020FEF785FC0020FEF70D
:101F900082FC0020FEF77FFC0020FEF77CFCBA20CC
:101FA000FEF770FC2420FEF776FC0020FEF773FCA1
:101FB0000020FEF770FC0020FEF76DFCC120FEF74C
:101FC00061FC2020FEF767FC0020FEF764FC542033
:101FD000FEF761FC0020FEF75EFCFF20FEF75BFCD5
:101FE0000020FEF758FCC220FEF74CFC0A20FEF74A
:101FF00052FC0020FEF74FFC0420FEF74CFC0020B2
:10200000FEF749FCC320FEF73DFC3C20FEF743FCF5
:102010000020FEF740FC3A20FEF73DFC0020FEF7D2
:102020003AFC3920FEF737FC0020FEF734FC37205D
:10203000FEF731FC0020FEF72EFC3C20FEF72BFCC7
:102040000020FEF728FC3620FEF725FC0020FEF7D6
:1020500022FC3220FEF71FFC0020FEF71CFC2F2084
:10206000FEF719FC0020FEF716FC2C20FEF713FCEF
:102070000020FEF710FC2920FEF70DFC0020FEF7E3
:102080000AFC2620FEF707FC0020FEF704FC2420B3
:10209000FEF701FC0020FEF7FEFB2420FEF7FBFB11
:1020A0000020FEF7F8FB2320FEF7F5FB0020FEF7EB
:1020B000F2FB3C20FEF7EFFB0020FEF7ECFB3620A6
:1020C000FEF7E9FB0020FEF7E6FB3220FEF7E3FB1C
:1020D0000020FEF7E0FB2F20FEF7DDFB0020FEF7DF
:1020E000DAFB2C20FEF7D7FB0020FEF7D4FB2920DB
:1020F000FEF7D1FB0020FEF7CEFB2620FEF7CBFB40
:102100000020FEF7C8FB2420FEF7C5FB0020FEF7E9
:10211000C2FB2420FEF7BFFB0020FEF7BCFB232000
:10212000FEF7B9FB0020FEF7B6FBC420FEF7AAFBC2
:102130006220FEF7B0FB0020FEF7ADFB0520FEF7A6
:10214000AAFB0020FEF7A7FB8420FEF7A4FB0020DB
:10215000FEF7A1FBF020FEF79EFB0020FEF79BFBA5
:102160001820FEF798FB0020FEF795FBA420FEF751
:1021700092FB0020FEF78FFB1820FEF78CFB00205F
:10218000FEF789FB5020FEF786FB0020FEF783FB5D
:102190000C20FEF780FB0020FEF77DFB1720FEF7EA
:1021A0007AFB0020FEF777FB9520FEF774FB0020FA
:1021B000FEF771FBF320FEF76EFB0020FEF76BFBD2
:1021C000E620FEF768FB0020FEF765FBC520FEF762
:1021D00059FB3220FEF75FFB0020FEF75CFB44203A
:1021E000FEF759FB0020FEF756FB6520FEF753FB78
:1021F0000020FEF750FB7620FEF74DFB0020FEF797
:102200004AFB8820FEF747FB0020FEF744FBC62070
:10221000FEF738FB2020FEF73EFB0020FEF73BFBDD
:102220001720FEF738FB0020FEF735FB0120FEF7F4
:1022300032FB0020FEF72FFBC720FEF723FB002018
:10224000FEF729FB0020FEF726FB0020FEF723FB0C
:102250000020FEF720FBC820FEF714FB0020FEF74D
:102260001AFB0020FEF717FB0020FEF714FB0020EE
:10227000FEF711FBC920FEF705FB0020FEF70BFB64
:102280000020FEF708FB0020FEF705FB0020FEF70C
:1022900002FB0020FEF7FFFA0020FEF7FCFA002008
:1022A000FEF7F9FA0020FEF7F6FA0020FEF7F3FA3F
:1022B0000020FEF7F0FA0020FEF7EDFA0020FEF70E
:1022C000EAFA0020FEF7E7FA0020FEF7E4FA002021
:1022D000FEF7E1FA0020FEF7DEFAE020FEF7D2FA80
:1022E0001620FEF7D8FA0020FEF7D5FA1C20FEF7DC
:1022F000D2FA0020FEF7CFFA2120FEF7CCFA002018
:10230000FEF7C9FA3620FEF7C6FA0020FEF7C3FA38
:102310004620FEF7C0FA0020FEF7BDFA5220FEF775
:10232000BAFA0020FEF7B7FA6420FEF7B4FA0020EC
:10233000FEF7B1FA7A20FEF7AEFA0020FEF7ABFA0C
:102340008B20FEF7A8FA0020FEF7A5FA9920FEF7E9
:10235000A2FA0020FEF79FFAA820FEF79CFA0020C0
:10236000FEF799FAB920FEF796FA0020FEF793FAE5
:10237000C420FEF790FA0020FEF78DFACA20FEF77F
:102380008AFA0020FEF787FAD220FEF784FA0020AE
:10239000FEF781FAD920FEF77EFA0020FEF77BFADD
:1023A000E020FEF778FA0020FEF775FAF320FEF73A
:1023B00072FA0020FEF76FFAE120FEF763FA1620AA
:1023C000FEF769FA0020FEF766FA1C20FEF763FAB2
:1023D0000020FEF760FA2220FEF75DFA0020FEF7EB
:1023E0005AFA3620FEF757FA0020FEF754FA452035
:1023F000FEF751FA0020FEF74EFA5220FEF74BFA94
:102400000020FEF748FA6420FEF745FA0020FEF7A8
:1024100042FA7A20FEF73FFA0020FEF73CFA8B20C2
:10242000FEF739FA0020FEF736FA9920FEF733FA64
:102430000020FEF730FAA820FEF72DFA0020FEF764
:102440002AFAB920FEF727FA0020FEF724FAC42062
:10245000FEF721FA0020FEF71EFACA20FEF71BFA4B
:102460000020FEF718FAD220FEF715FA0020FEF73A
:1024700012FAD820FEF70FFA0020FEF70CFAE0203F
:10248000FEF709FA0020FEF706FAF320FEF703FA3A
:102490000020FEF700FAE220FEF7F4F90520FEF72F
:1024A000FAF90020FEF7F7F90B20FEF7F4F9002007
:1024B000FEF7F1F91B20FEF7EEF90020FEF7EBF92D
:1024C0003420FEF7E8F90020FEF7E5F94420FEF796
:1024D000E2F90020FEF7DFF94F20FEF7DCF90020DB
:1024E000FEF7D9F96120FEF7D6F90020FEF7D3F9FF
:1024F0007920FEF7D0F90020FEF7CDF98820FEF70D
:10250000CAF90020FEF7C7F99720FEF7C4F90020AA
:10251000FEF7C1F9A620FEF7BEF90020FEF7BBF9D1
:10252000B720FEF7B8F90020FEF7B5F9C220FEF794
:10253000B2F90020FEF7AFF9C720FEF7ACF9002092
:10254000FEF7A9F9D120FEF7A6F90020FEF7A3F9BE
:10255000D620FEF7A0F90020FEF79DF9DD20FEF75A
:102560009AF90020FEF797F9F320FEF794F900207E
:10257000FEF791F9E320FEF785F90520FEF78BF9C8
:102580000020FEF788F90A20FEF785F90020FEF703
:1025900082F91C20FEF77FF90020FEF77CF933203A
:1025A000FEF779F90020FEF776F94420FEF773F97B
:1025B0000020FEF770F95020FEF76DF90020FEF7BD
:1025C0006AF96220FEF767F90020FEF764F97820C7
:1025D000FEF761F90020FEF75EF98820FEF75BF94F
:1025E0000020FEF758F99720FEF755F90020FEF776
:1025F00052F9A620FEF74FF90020FEF74CF9B7205C
:10260000FEF749F90020FEF746F9C220FEF743F92C
:102610000020FEF740F9C720FEF73DF90020FEF745
:102620003AF9D120FEF737F90020FEF734F9D5202A
:10263000FEF731F90020FEF72EF9DD20FEF72BF929
:102640000020FEF728F9F320FEF725F90020FEF719
:1026500022F9E420FEF716F90120FEF71CF900200C
:10266000FEF719F90120FEF716F90020FEF713F91D
:102670000220FEF710F90020FEF70DF92A20FEF7E0
:102680000AF90020FEF707F93C20FEF704F90020C4
:10269000FEF701F94B20FEF7FEF80020FEF7FBF8ED
:1026A0005D20FEF7F8F80020FEF7F5F87420FEF73D
:1026B000F2F80020FEF7EFF88420FEF7ECF8002097
:1026C000FEF7E9F89320FEF7E6F80020FEF7E3F8BE
:1026D000A220FEF7E0F80020FEF7DDF8B320FEF7B9
:1026E000DAF80020FEF7D7F8BE20FEF7D4F8002075
:1026F000FEF7D1F8C420FEF7CEF80020FEF7CBF8A5
:10270000CD20FEF7C8F80020FEF7C5F8D320FEF76D
:10271000C2F80020FEF7BFF8DD20FEF7BCF800206D
:10272000FEF7B9F8F320FEF7B6F80020FEF7B3F88D
:10273000E520FEF7A7F80020FEF7ADF80020FEF731
:10274000AAF80020FEF7A7F80020FEF7A4F8022060
:10275000FEF7A1F80020FEF79EF82920FEF79BF86F
:102760000020FEF798F83C20FEF795F80020FEF7D1
:1027700092F84B20FEF78FF80020FEF78CF85D20D2
:10278000FEF789F80020FEF786F87420FEF783F83C
:102790000020FEF780F88420FEF77DF80020FEF789
:1027A0007AF89320FEF777F80020FEF774F8A2205D
:1027B000FEF771F80020FEF76EF8B320FEF76BF815
:1027C0000020FEF768F8BE20FEF765F80020FEF74F
:1027D00062F8C420FEF75FF80020FEF75CF8CD2019
:1027E000FEF759F80020FEF756F8D320FEF753F80D
:1027F0000020FEF750F8DC20FEF74DF80020FEF731
:102800004AF8F320FEF747F80020FEF744F8E620E8
:10281000FEF738F81120FEF73EF80020FEF73BF8EF
:102820003420FEF738F80020FEF735F85620FEF782
:1028300032F80020FEF72FF87620FEF72CF8002063
:10284000FEF729F87720FEF726F80020FEF723F898
:102850006620FEF720F80020FEF71DF88820FEF71E
:102860001AF80020FEF717F89920FEF714F8002058
:10287000FEF711F8BB20FEF70EF80020FEF70BF86C
:102880009920FEF708F80020FEF705F86620FEF70D
:1028900002F80020FDF7FFFF5520FDF7FCFF0020A8
:1028A000FDF7F9FF5520FDF7F6FF0020FDF7F3FFD8
:1028B0004520FDF7F0FF0020FDF7EDFF4320FDF779
:1028C000EAFF0020FDF7E7FF4420FDF7E4FF0020CA
:1028D000FDF7E1FFE720FDF7D5FF3220FDF7DBFF35
:1028E0000020FDF7D8FF5520FDF7D5FF0020FDF7AC
:1028F000D2FF7620FDF7CFFF0020FDF7CCFF66204A
:10290000FDF7C9FF0020FDF7C6FF6720FDF7C3FFF5
:102910000020FDF7C0FF6720FDF7BDFF0020FDF799
:10292000BAFF8720FDF7B7FF0020FDF7B4FF99201D
:10293000FDF7B1FF0020FDF7AEFFBB20FDF7ABFFB9
:102940000020FDF7A8FF9920FDF7A5FF0020FDF767
:10295000A2FF7720FDF79FFF0020FDF79CFF44209A
:10296000FDF799FF0020FDF796FF5620FDF793FF36
:102970000020FDF790FF2320FDF78DFF0020FDF7DD
:102980008AFF3320FDF787FF0020FDF784FF4520F5
:10299000FDF781FF0020FDF77EFFE820FDF772FFC5
:1029A0000020FDF778FF0020FDF775FF9920FDF767
:1029B00072FF0020FDF76FFF8720FDF76CFF0020FE
:1029C000FDF769FF8820FDF766FF0020FDF763FF34
:1029D0007720FDF760FF0020FDF75DFF6620FDF723
:1029E0005AFF0020FDF757FF8820FDF754FF002015
:1029F000FDF751FFAA20FDF74EFF0020FDF74BFF2A
:102A0000BB20FDF748FF0020FDF745FF9920FDF7AB
:102A100042FF0020FDF73FFF6620FDF73CFF00204E
:102A2000FDF739FF5520FDF736FF0020FDF733FF96
:102A30005520FDF730FF0020FDF72DFF4420FDF766
:102A40002AFF0020FDF727FF4420FDF724FF002088
:102A5000FDF721FF5520FDF71EFF0020FDF71BFFAE
:102A6000E920FDF70FFFAA20FDF715FF0020FDF775
:102A700012FF0020FDF70FFF0020FDF70CFF0020E4
:102A8000FDF700FFAA20FDF706FFCF20FDF7FAFEB5
:102A90000020FDF700FF0020FDF7FDFE0020FDF700
:102AA000FAFE0020FDF7F7FE0020FDF7F4FE0020FF
:102AB000FDF7F1FE0020FDF7EEFE0020FDF7EBFE36
:102AC0000020FDF7E8FE0020FDF7E5FE0020FDF701
:102AD000E2FE0020FDF7DFFE0020FDF7DCFE002017
:102AE000FDF7D9FE0020FDF7D6FE0020FDF7D3FE4E
:102AF0000020FDF7D0FEF020FDF7C4FE0020FDF71A
:102B0000CAFE5020FDF7C7FE0020FDF7C4FE0020DE
:102B1000FDF7C1FE0020FDF7BEFEF320FDF7B2FE7B
:102B20000020FDF7B8FEF920FDF7ACFE0620FDF70A
:102B3000B2FE1020FDF7AFFE2920FDF7ACFE00200D
:102B4000FDF7A9FE3A20FDF79DFE5520FDF7A3FEF7
:102B50001120FDF797FE642002F0A9FC2920FDF763
:102B600091FE3520FDF78EFE0020FDF794FE5120EA
:102B7000FDF788FEFF20FDF78EFE5320FDF782FE55
:102B80002C20FDF788FE5520FDF77CFE8220FDF706
:102B900082FE2C20FDF776FE02F0E6B8FE48808823
:102BA00045F2105188427DD155214FF47040FDF718
:102BB00084FEAA214FF20100FDF77FFE52214FF261
:102BC0000200FDF77AFE08214FF20300FDF775FEC3
:102BD00001214FF20400FDF770FE0D214FF430404B
:102BE000FDF76BFE0D214BF20100FDF766FE0D2196
:102BF0004BF20200FDF761FE34214FF43640FDF741
:102C00005CFE34214BF20160FDF757FE34214BF29C
:102C10000260FDF752FE0D214FF43140FDF74DFEED
:102C20000D214BF20110FDF748FE0D214BF2021071
:102C3000FDF743FE34214FF43740FDF73EFE3421CB
:102C40004BF20170FDF739FE34214BF20270FDF7B3
:102C500034FE00214FF43240FDF72FFE00214BF2ED
:102C60000120FDF72AFE00214BF20220FDF725FE90
:102C700024214FF43840FDF720FE24214BF60100BB
:102C8000FDF71BFE24214BF60200FDF716FE012185
:102C90004FF43F40FDF711FE0F214FF43340FDF795
:102CA0000CFE00E0FDE30F214BF20130FDF705FEC5
:102CB0000F214BF20230FDF700FE34214FF4394072
:102CC000FDF7FBFD34214BF60110FDF7F6FD342135
:102CD0004BF60210FDF7F1FD08214FF43540FDF7EA
:102CE000ECFD08214BF20150FDF7E7FD08214BF206
:102CF0000250FDF7E2FD03214FF44240FDF7DDFDF8
:102D000024214FF43A40FDF7D8FD24214BF6012051
:102D1000FDF7D3FD24214BF60220FDF7CEFD002167
:102D20004FF43C40FDF7C9FD78214BF60140FDF71B
:102D3000C4FD00214BF60240FDF7BFFD00214FF41A
:102D40003D40FDF7BAFD78214BF60150FDF7B5FD8A
:102D500000214BF60250FDF7B0FD00214FF43E403C
:102D6000FDF7ABFD64214BF60160FDF7A6FD0021E8
:102D70004FF45140FDF7A1FD33214DF20110FDF755
:102D80009CFD00214DF20210FDF797FD34214DF21C
:102D90000310FDF792FD00214DF20410FDF78DFDAB
:102DA0003A214DF20510FDF788FD00214DF2061085
:102DB000FDF783FD4A214DF20710FDF77EFD00214E
:102DC0004DF20810FDF779FD5C214DF20910FDF779
:102DD00074FD00214DF20A10FDF76FFD81214DF2C7
:102DE0000B10FDF76AFD00214DF20C10FDF765FD9B
:102DF000A6214DF20D10FDF760FD00214DF20E10E1
:102E0000FDF75BFDE5214DF20F10FDF756FD0121A9
:102E10004DF21010FDF751FD13214DF21110FDF789
:102E20004CFD01214DF21210FDF747FD54214DF2EA
:102E30001310FDF742FD01214DF21410FDF73DFD89
:102E400082214DF21510FDF738FD01214DF21610CB
:102E5000FDF733FDCA214DF21710FDF72EFD0221BB
:102E60004DF21810FDF729FD00214DF21910FDF764
:102E700024FD02214DF21A10FDF71FFD01214DF234
:102E80001B10FDF71AFD02214DF21C10FDF715FD78
:102E900034214DF21D10FDF710FD02214DF21E10E0
:102EA000FDF70BFD67214DF21F10FDF706FD022116
:102EB0004DF22010FDF701FD84214DF22110FDF7A8
:102EC000FCFC02214DF22210FDF7F7FCA4214DF28B
:102ED0002310FDF7F2FC02214DF22410FDF7EDFC6A
:102EE000B7214DF22510FDF7E8FC02214DF2261026
:102EF000FDF7E3FCCF214DF22710FDF7DEFC0221A8
:102F00004DF22810FDF7D9FCDE214DF22910FDF716
:102F1000D4FC02214DF22A10FDF7CFFCF2214DF234
:102F20002B10FDF7CAFC02214DF22C10FDF7C5FC59
:102F3000FE214DF22D10FDF7C0FC03214DF22E10A5
:102F4000FDF7BBFC10214DF22F10FDF7B6FC03215D
:102F50004DF23010FDF7B1FC33214DF23110FDF789
:102F6000ACFC03214DF23210FDF7A7FC6D214DF2B0
:102F70003310FDF7A2FC00214FF45240FDF79DFCF9
:102F800033214DF20120FDF798FC00214DF2022083
:102F9000FDF793FC342101E0E80100204DF203200D
:102FA000FDF78BFC00214DF20420FDF786FC3A2151
:102FB0004DF20520FDF781FC00214DF20620FDF7C2
:102FC0007CFC4A214DF20720FDF777FC00214DF2F1
:102FD0000820FDF772FC5C214DF20920FDF76DFC25
:102FE00000214DF20A20FDF768FC81214DF20B20F3
:102FF000FDF763FC00214DF20C20FDF75EFCA621DD
:103000004DF20D20FDF759FC00214DF20E20FDF789
:1030100054FCE5214DF20F20FDF74FFC01214DF24C
:103020001020FDF74AFC13214DF21120FDF745FC5D
:1030300001214DF21220FDF740FC54214DF21320E6
:10304000FDF73BFC01214DF21420FDF736FC8221F7
:103050004DF21520FDF731FC01214DF21620FDF750
:103060002CFCCA214DF21720FDF727FC02214DF25E
:103070001820FDF722FC00214DF21920FDF71DFC60
:1030800002214DF21A20FDF718FC01214DF21B2000
:10309000FDF713FC02214DF21C20FDF70EFC34213C
:1030A0004DF21D20FDF709FC02214DF21E20FDF717
:1030B00004FC67214DF21F20FDF7FFFB02214DF2BA
:1030C0002020FDF7FAFB84214DF22120FDF7F5FBCE
:1030D00002214DF22220FDF7F0FBA4214DF2232026
:1030E000FDF7EBFB02214DF22420FDF7E6FBB721B3
:1030F0004DF22520FDF7E1FB02214DF22620FDF7E0
:10310000DCFBCF214DF22720FDF7D7FB02214DF24A
:103110002820FDF7D2FBDE214DF22920FDF7CDFB63
:1031200002214DF22A20FDF7C8FBF2214DF22B209F
:10313000FDF7C3FB02214DF22C20FDF7BEFBFE2163
:103140004DF22D20FDF7B9FB03214DF22E20FDF7A6
:10315000B4FB10214DF22F20FDF7AFFB03214DF200
:103160003020FDF7AAFB33214DF23120FDF7A5FBFE
:1031700003214DF23220FDF7A0FB6D214DF23320EB
:10318000FDF79BFB00214FF45340FDF796FB3321E5
:103190004DF20130FDF791FB00214DF20230FDF7B9
:1031A0008CFB34214DF20330FDF787FB00214DF2FB
:1031B0000430FDF782FB3A214DF20530FDF77DFB2F
:1031C00000214DF20630FDF778FB4A214DF2073021
:1031D000FDF773FB00214DF20830FDF76EFB5C211B
:1031E0004DF20930FDF769FB00214DF20A30FDF781
:1031F00064FB81214DF20B30FDF75FFB00214DF2A6
:103200000C30FDF75AFBA6214DF20D30FDF755FBB2
:1032100000214DF20E30FDF750FBE5214DF20F304D
:10322000FDF74BFB01214DF21030FDF746FB13215A
:103230004DF21130FDF741FB01214DF21230FDF747
:103240003CFB54214DF21330FDF737FB01214DF2C9
:103250001430FDF732FB82214DF21530FDF72DFBC6
:1032600001214DF21630FDF728FBCA214DF217302F
:10327000FDF723FB02214DF21830FDF71EFB002164
:103280004DF21930FDF719FB02214DF21A30FDF70E
:1032900014FB01214DF21B30FDF70FFB02214DF213
:1032A0001C30FDF70AFB34214DF21D30FDF705FB04
:1032B00002214DF21E30FDF700FB67214DF21F3059
:1032C000FDF7FBFA02214DF22030FDF7F6FA8421DA
:1032D0004DF22130FDF7F1FA02214DF22230FDF7D7
:1032E000ECFAA4214DF22330FDF7E7FA02214DF26A
:1032F0002430FDF7E2FAB7214DF22530FDF7DDFA73
:1033000002214DF22630FDF7D8FACF214DF22730B9
:10331000FDF7D3FA02214DF22830FDF7CEFADE2177
:103320004DF22930FDF7C9FA02214DF22A30FDF79E
:10333000C4FAF2214DF22B30FDF7BFFA02214DF213
:103340002C30FDF7BAFAFE214DF22D30FDF7B5FA1B
:1033500003214DF22E30FDF7B0FA10214DF22F303F
:10336000FDF7ABFA03214DF23030FDF7A6FA332119
:103370004DF23130FDF7A1FA03214DF23230FDF765
:103380009CFA6D214DF23330FDF797FA00214FF48E
:103390005440FDF792FA33214DF20140FDF78DFACA
:1033A00000214DF20240FDF788FA34214DF203402E
:1033B000FDF783FA00214DF20440FDF77EFA3A2131
:1033C0004DF20540FDF779FA00214DF20640FDF778
:1033D00074FA4A214DF20740FDF76FFA00214DF2D1
:1033E0000840FDF76AFA5C214DF20940FDF765FAE5
:1033F00000214DF20A40FDF760FA81214DF20B40A9
:10340000FDF75BFA00214DF20C40FDF756FAA621BC
:103410004DF20D40FDF751FA00214DF20E40FDF73F
:103420004CFAE5214DF20F40FDF747FA01214DF22C
:103430001040FDF742FA13214DF21140FDF73DFA1D
:1034400001214DF21240FDF738FA54214DF213409C
:10345000FDF733FA01214DF21440FDF72EFA8221D7
:103460004DF21540FDF729FA01214DF21640FDF706
:1034700024FACA214DF21740FDF71FFA02214DF23E
:103480001840FDF71AFA00214DF21940FDF715FA20
:1034900002214DF21A40FDF710FA01214DF21B40B6
:1034A00000E006E3FDF709FA02214DF21C40FDF7AA
:1034B00004FA34214DF21D40FDF7FFF902214DF2CF
:1034C0001E40FDF7FAF967214DF21F40FDF7F5F9AF
:1034D00002214DF22040FDF7F0F984214DF2214008
:1034E000FDF7EBF902214DF22240FDF7E6F9A421A8
:1034F0004DF22340FDF7E1F902214DF22440FDF7A2
:10350000DCF9B7214DF22540FDF7D7F902214DF244
:103510002640FDF7D2F9CF214DF22740FDF7CDF936
:1035200002214DF22840FDF7C8F9DE214DF2294075
:10353000FDF7C3F902214DF22A40FDF7BEF9F22151
:103540004DF22B40FDF7B9F902214DF22C40FDF769
:10355000B4F9FE214DF22D40FDF7AFF903214DF2F4
:103560002E40FDF7AAF910214DF22F40FDF7A5F9E5
:1035700003214DF23040FDF7A0F933214DF23140E7
:10358000FDF79BF903214DF23240FDF796F96D21CD
:103590004DF23340FDF791F900214FF45540FDF70E
:1035A0008CF933214DF20150FDF787F900214DF2DE
:1035B0000250FDF782F934214DF20350FDF77DF9F9
:1035C00000214DF20450FDF778F93A214DF20550F3
:1035D000FDF773F900214DF20650FDF76EF94A210F
:1035E0004DF20750FDF769F900214DF20850FDF743
:1035F00064F95C214DF20950FDF75FF900214DF2AD
:103600000A50FDF75AF981214DF20B50FDF755F99B
:1036100000214DF20C50FDF750F9A6214DF20D504E
:10362000FDF74BF900214DF20E50FDF746F9E5216B
:103630004DF20F50FDF741F901214DF21050FDF709
:103640003CF913214DF21150FDF737F901214DF2EC
:103650001250FDF732F954214DF21350FDF72DF9B8
:1036600001214DF21450FDF728F982214DF2155039
:10367000FDF723F901214DF21650FDF71EF9CA217D
:103680004DF21750FDF719F902214DF21850FDF7D0
:1036900014F900214DF21950FDF70FF902214DF2F6
:1036A0001A50FDF70AF901214DF21B50FDF705F9FB
:1036B00002214DF21C50FDF700F934214DF21D504E
:1036C000FDF7FBF802214DF21E50FDF7F6F86721D9
:1036D0004DF21F50FDF7F1F802214DF22050FDF799
:1036E000ECF884214DF22150FDF7E7F802214DF26C
:1036F0002250FDF7E2F8A4214DF22350FDF7DDF84A
:1037000002214DF22450FDF7D8F8B7214DF2255093
:10371000FDF7D3F802214DF22650FDF7CEF8CF2168
:103720004DF22750FDF7C9F802214DF22850FDF760
:10373000C4F8DE214DF22950FDF7BFF802214DF209
:103740002A50FDF7BAF8F2214DF22B50FDF7B5F8EB
:1037500002214DF22C50FDF7B0F8FE214DF22D5014
:10376000FDF7ABF803214DF22E50FDF7A6F810211E
:103770004DF22F50FDF7A1F803214DF23050FDF727
:103780009CF833214DF23150FDF797F803214DF2AB
:103790003250FDF792F86D214DF23350FDF78DF860
:1037A00000214FF45640FDF788F833214DF20160B7
:1037B000FDF783F800214DF20260FDF77EF8342119
:1037C0004DF20360FDF779F800214DF20460FDF73A
:1037D00074F83A214DF20560FDF76FF800214DF2C3
:1037E0000660FDF76AF84A214DF20760FDF765F8BB
:1037F00000214DF20860FDF760F85C214DF2096090
:10380000FDF75BF800214DF20A60FDF756F88121C3
:103810004DF20B60FDF751F800214DF20C60FDF701
:103820004CF8A6214DF20D60FDF747F800214DF24E
:103830000E60FDF742F8E5214DF20F60FDF73DF80F
:1038400001214DF21060FDF738F813214DF211609F
:10385000FDF733F801214DF21260FDF72EF85421E7
:103860004DF21360FDF729F801214DF21460FDF7C8
:1038700024F882214DF21560FDF71FF801214DF269
:103880001660FDF71AF8CA214DF21760FDF715F81A
:1038900002214DF21860FDF710F800214DF2196079
:1038A000FDF70BF802214DF21A60FDF706F8012131
:1038B0004DF21B60FDF701F802214DF21C60FCF790
:1038C000FCFF34214DF21D60FCF7F7FF02214DF2A1
:1038D0001E60FCF7F2FF67214DF21F60FCF7EDFF61
:1038E00002214DF22060FCF7E8FF84214DF22160B7
:1038F000FCF7E3FF02214DF22260FCF7DEFFA4217A
:103900004DF22360FCF7D9FF02214DF22460FCF751
:10391000D4FFB7214DF22560FCF7CFFF02214DF215
:103920002660FCF7CAFFCF214DF22760FCF7C5FFE8
:1039300002214DF22860FCF7C0FFDE214DF2296024
:10394000FCF7BBFF02214DF22A60FCF7B6FFF22123
:103950004DF22B60FCF7B1FF02214DF22C60FCF719
:10396000ACFFFE214DF22D60FCF7A7FF03214DF2C5
:103970002E60FCF7A2FF10214DF22F60FCF79DFF97
:1039800003214DF23060FCF798FF33214DF2316096
:10399000FCF793FF03214DF23260FCF78EFF6D219F
:1039A0004DF23360FCF789FF55214FF47040FCF76E
:1039B00084FFAA214FF20100FCF77FFF52214FF252
:1039C0000200FCF77AFF08214FF20300FCF775FFB5
:1039D00000214FF20400FCF770FFCC214FF431407E
:1039E000FCF76BFF00214BF20110FCF766FF05218D
:1039F0004FF43640FCF761FF70214FF43740FCF77D
:103A00005CFF70214BF20170FCF757FF01214FF46E
:103A10003840FCF752FF03214BF60100FCF74DFF45
:103A200003214BF60200FCF748FF03214BF603008D
:103A3000FCF743FF02214FF43C40FCF73EFF00211E
:103A40004BF60140FCF739FF00214BF60240FCF732
:103A500034FFD0214FF44940FCF72FFF02214CF6F0
:103A60000110FCF72AFF50214CF60210FCF725FF4D
:103A700050214CF60310FCF720FF50214CF60410A7
:103A8000FCF71BFF00214FF45450FCF716FF5521A3
:103A90004FF46850FCF711FF4FF48850FCF7F2FE2A
:103AA000782001F0E0FC4FF42450FCF7EBFE01F02D
:103AB0005BB9FE48808849F2253188427ED147F6BD
:103AC000F001E520FCF7F9FE4FF480710120FCF7CE
:103AD000F4FE4FF4E0610220FCF7EFFE41F230010A
:103AE0000320FCF7EAFE00210420FCF7E6FE40F28A
:103AF00002210820FCF7E1FE00210920FCF7DDFE91
:103B000000210A20FCF7D9FE00210C20FCF7D5FE8D
:103B100000210D20FCF7D1FE00210F20FCF7CDFE87
:103B200000211020FCF7C9FE07211120FCF7C5FE7B
:103B300000211220FCF7C1FE00211320FCF7BDFE7E
:103B400000210720FCF7B9FE41F290611020FCF73C
:103B5000B4FE40F227211120FCF7AFFE9D21122078
:103B6000FCF7ABFE4FF4C8511320FCF7A6FE25214D
:103B70002920FCF7A2FE0D212B20FCF79EFE072139
:103B80003020FCF79AFE40F203313120FCF795FE1D
:103B900003213220FCF791FE40F206213520FCF78C
:103BA0008CFE08213620FCF788FE40F206413720C3
:103BB000FCF783FE4FF44171382000E057E0FCF73A
:103BC0007CFE07213920FCF778FE40F202613C20A0
:103BD000FCF773FE08213D20FCF76FFE002150200A
:103BE000FCF76BFEEF215120FCF767FE002152200D
:103BF000FCF763FE40F23F115320FCF75EFE4FF4EA
:103C000027416020FCF759FE01216120FCF755FE99
:103C100000216A20FCF751FE00218020FCF74DFEB8
:103C200000218120FCF749FE00218220FCF745FE9F
:103C300000218320FCF741FE00218420FCF73DFE9B
:103C400000218520FCF739FE10219020FCF735FE7D
:103C50004FF4C0619220FCF730FE40F23311072090
:103C6000FCF72BFE22210020FCF727FE1FE78F48E0
:103C7000808849F2283188427ED141F28F01EC20C0
:103C8000FCF71BFE41F23421EF20FCF716FE4FF447
:103C900080710120FCF711FE4FF4E0610220FCF777
:103CA0000CFE41F230010320FCF707FE0021042046
:103CB000FCF703FE40F202210820FCF7FEFD002184
:103CC0000920FCF7FAFD00210A20FCF7F6FD01218E
:103CD0000C20FCF7F2FD00210D20FCF7EEFD002189
:103CE0000F20FCF7EAFD00211020FCF7E6FD07217C
:103CF0001120FCF7E2FD00211220FCF7DEFD00217F
:103D00001320FCF7DAFD01210720FCF7D6FD322055
:103D100001F0CDFB41F290411020FCF7CEFD40F2C6
:103D200027211120FCF7C9FD322001F0C0FB8A21B8
:103D30001220FCF7C2FD322001F0B9FB4FF4D05144
:103D40001320FCF7BAFD06212920FCF7B6FD0D2152
:103D50002B20FCF7B2FD322001F0A9FB002120202E
:103D6000FCF7ABFD00212120FCF7A7FD322001F07C
:103D70009EFB0021302000E074E0FCF79EFD40F245
:103D800004613120FCF799FD40F205313220FCF747
:103D900094FD00213520FCF790FD40F609413620C6
:103DA000FCF78BFD4FF401713720FCF786FD40F2E4
:103DB00001313820FCF781FD40F207713920FCF712
:103DC0007CFD00213C20FCF778FD40F60A213D20D7
:103DD000FCF773FD322001F06AFB00215020FCF754
:103DE0006CFDEF215120FCF768FD00215220FCF70B
:103DF00064FD40F23F115320FCF75FFD4FF4274173
:103E00006020FCF75AFD01216120FCF756FD0021DE
:103E10006A20FCF752FD00218020FCF74EFD0021B6
:103E20008120FCF74AFD00218220FCF746FD00219D
:103E30008320FCF742FD00218420FCF73EFD002199
:103E40008520FCF73AFD10219020FCF736FD4FF459
:103E5000C0619220FCF731FD40F233110720FCF7DE
:103E60002CFD24E61148808849F2203188427DD11A
:103E700000210846FCF721FD4FF480710120FCF77A
:103E80001CFD4FF4E0610220FCF717FD41F2300108
:103E90000320FCF712FD00210420FCF70EFD40F288
:103EA00002210820FCF709FD002101E0E8010020C3
:103EB0000920FCF702FD00210A20FCF7FEFC01218D
:103EC0000C20FCF7FAFC00210D20FCF7F6FC002189
:103ED0000F20FCF7F2FC322001F0E9FA40F2011168
:103EE0000720FCF7EAFC322001F0E1FA4FF486519A
:103EF0001020FCF7E2FC07211120FCF7DEFC4FF458
:103F000088711220FCF7D9FC4FF430611320FCF7C4
:103F1000D4FC00212920FCF7D0FC44F210012B2016
:103F2000FCF7CBFC00215020FCF7C7FCEF2151200F
:103F3000FCF7C3FC00215220FCF7BFFC40F23F110C
:103F40005320FCF7BAFC4FF41C516020FCF7B5FC81
:103F500001216120FCF7B1FC00216A20FCF7ADFCD7
:103F600000218020FCF7A9FC002100E031E0812045
:103F7000FCF7A3FC00218220FCF79FFC002183209A
:103F8000FCF79BFC00218420FCF797FC0021852096
:103F9000FCF793FC10219020FCF78FFC002192206D
:103FA000FCF78BFC01219320FCF787FC4FF4887110
:103FB0009520FCF782FC00219720FCF77EFC002175
:103FC0009820FCF77AFC40F273110720FCF775FC8F
:103FD0006DE5FE48808849F2313188427DD141F259
:103FE0001401E720FCF769FC4FF480710120FCF715
:103FF00064FC4FF400710220FCF75FFC41F23801D1
:104000000320FCF75AFC40F202210820FCF755FC83
:1040100000210920FCF751FC00210A20FCF74DFC8F
:1040200000210C20FCF749FC00210D20FCF745FC89
:1040300000210F20FCF741FC00211020FCF73DFC83
:1040400007211120FCF739FC00211220FCF735FC78
:1040500000211320FCF731FCC82001F028FA41F2BE
:1040600090611020FCF729FC40F227211120FCF779
:1040700024FC322001F01BFA0C211220FCF71DFC5D
:10408000322001F014FA4FF400611320FCF715FC04
:1040900011212920FCF711FC0B212B20FCF70DFC32
:1040A000322001F004FA00212020FCF706FC40F247
:1040B0003F112120FCF701FC00213020FCF7FDFB23
:1040C0004FF483713120FCF7F8FB00213220FCF71C
:1040D000F4FB4FF40171352000E064E0FCF7EDFBE8
:1040E00041F20A613620FCF7E8FB40F20771372005
:1040F000FCF7E3FB4FF483713820FCF7DEFB40F262
:1041000007713920FCF7D9FB40F202413C20FCF753
:10411000D4FB40F60F413D20FCF7CFFB002150209F
:10412000FCF7CBFBEF215120FCF7C7FB002152200D
:10413000FCF7C3FB40F23F115320FCF7BEFB4FF4EA
:104140001C516020FCF7B9FB01216120FCF7B5FB95
:1041500000216A20FCF7B1FB00218020FCF7ADFBB9
:1041600000218120FCF7A9FB00218220FCF7A5FBA0
:1041700000218320FCF7A1FB00218420FCF79DFB9C
:1041800000218520FCF799FB10219020FCF795FB7E
:104190004FF4C0619220FCF790FB40F233110720EE
:1041A000FCF78BFB83E48948808845F2084188420C
:1041B0007ED14FF480710120FCF77FFB4FF4E0616A
:1041C0000220FCF77AFB41F230010320FCF775FB7B
:1041D00000210420FCF771FB40F207210820FCF7C6
:1041E0006CFB00210920FCF768FB00210A20FCF78A
:1041F00064FB00210C20FCF760FB00210D20FCF784
:104200005CFB00210F20FCF758FB142001F04FF954
:1042100041F2B0611020FCF750FB01211120FCF7A6
:104220004CFB01211720FCF748FB4FF49C71122036
:10423000FCF743FB4FF400611320FCF73EFB092120
:104240002920FCF73AFB09212A20FCF736FB002144
:10425000A420FCF732FB00215020FCF72EFBEF21BD
:104260005120FCF72AFB00215220FCF726FB40F2EC
:104270003F115320FCF721FB4FF41C516020FCF749
:104280001CFB01216120FCF718FB00216A20FCF7D0
:1042900014FB00218020FCF710FB00218120FCF79B
:1042A0000CFB00218220FCF708FB0021832000E0AA
:1042B00023E0FCF702FB00218420FCF7FEFA00213A
:1042C0008520FCF7FAFA13219020FCF7F6FA00217A
:1042D0009220FCF7F2FA03219320FCF7EEFA4FF458
:1042E00088719520FCF7E9FA40F273110720FCF77A
:1042F000E4FA322001F0DBF8B8E43448808841F277
:10430000055188427ED100210720FCF7D6FA3220E1
:1043100001F0CDF84FF48E711220FCF7CEFA012196
:10432000A420FCF7CAFA0F210820FCF7C6FA0821DE
:104330000A20FCF7C2FA08210D20FCF7BEFA40F271
:1043400007713020FCF7B9FA07213120FCF7B5FAE4
:1043500040F203613220FCF7B0FA4FF4E061332001
:10436000FCF7ABFA40F202213420FCF7A6FA022156
:104370003520FCF7A2FA41F60F713620FCF79DFAC2
:1043800040F207713720FCF798FA00213820FCF73B
:1043900094FA00213920FCF790FA40F207713A2094
:1043A000FCF78BFA00213B20FCF787FA07213C2021
:1043B000FCF783FA00213D20FCF77FFA322001F060
:1043C00076F801210720FCF778FA01E0E8010020E7
:1043D00001211720FCF771FA322001F068F84FF440
:1043E000BD511020FCF769FA40F217211120FCF7AB
:1043F00064FA4FF48F711220FCF75FFA4FF470618A
:10440000132000E097E0FCF758FA00212A20FCF77F
:1044100054FA0A212920FCF750FA4FF49F71122018
:10442000FCF74BFA00215020FCF747FAEF2151200E
:10443000FCF743FA00215220FCF73FFA40F23F110B
:104440005320FCF73AFA4FF41C516020FCF735FA80
:1044500001216120FCF731FA00216A20FCF72DFAD6
:1044600000218020FCF729FA00218120FCF725FAA1
:1044700000218220FCF721FA00218320FCF71DFA9D
:1044800000218420FCF719FA00218520FCF715FA99
:1044900013219020FCF711FA4FF440719220FCF7A1
:1044A0000CFA05219320FCF708FA00219520FCF76F
:1044B00004FA00219720FCF700FA00219820FCF76D
:1044C000FCF94FF480710120FCF7F7F94FF4E0613B
:1044D0000220FCF7F2F941F238010320FCF7EDF974
:1044E00000210420FCF7E9F900210C20FCF7E5F994
:1044F00000210F20FCF7E1F900212020FCF7DDF975
:1045000000212120FCF7D9F921210720FCF7D5F95A
:10451000142000F0CCFF61210720FCF7CEF9142015
:1045200000F0C5FF40F273110720FCF7C6F9142014
:1045300000F0BDFF95E4FE4880884BF205518842AB
:104540007ED100210846FCF7B8F900210846FCF7A7
:10455000B4F900210846FCF7B0F900210846FCF741
:10456000ACF90121A420FCF7A8F9142000F09FFF6A
:104570004FF41C516020FCF7A0F940F20221082002
:10458000FCF79BF94FF405713020FCF796F943F2E4
:1045900015713120FCF791F940F204613220FCF7EB
:1045A0008CF940F616613320FCF787F942F21121AD
:1045B0003420FCF782F94FF4A8513520FCF77DF93F
:1045C00048F207513620FCF778F941F207413720CD
:1045D000FCF773F941F203413820FCF76EF9202112
:1045E0003920FCF76AF91A219020FCF766F90021BE
:1045F0001020FCF762F907211120FCF75EF9002179
:104600001220FCF75AF900211320FCF756F9142068
:1046100000F04DFF4FF4E6611020FCF74EF940F238
:1046200037111120FCF749F9142000F040FF4FF436
:10463000DC711220FCF741F9142000F038FF00E093
:1046400083E04FF470611320FCF737F980212A20B2
:10465000FCF733F948212920FCF72FF9142000F04A
:1046600026FF4FF480710120FCF727F94FF4E06139
:104670000220FCF722F941F238010320FCF71DF972
:1046800040F202210820FCF718F900210A20FCF76B
:1046900014F900210C20FCF710F900210D20FCF783
:1046A0000CF930210E20FCF708F900215020FCF70E
:1046B00004F9EF215120FCF700F900215220FCF70A
:1046C000FCF840F23F115320FCF7F7F84FF41C516F
:1046D0006020FCF7F2F801216120FCF7EEF80021E0
:1046E0006A20FCF7EAF811219020FCF7E6F84FF475
:1046F000C0619220FCF7E1F840F202419320FCF700
:10470000DCF802219420FCF7D8F8142000F0CFFE4A
:1047100001210720FCF7D1F8142000F0C8FE612128
:104720000720FCF7CAF840F273110720FCF7C5F820
:1047300000212020FCF7C1F800212120FCF7BDF862
:1047400022210020FCF7B9F80EE3794880884CF26A
:10475000055188427ED100210846FCF7AEF80021C1
:104760000846FCF7AAF8142000F0A1FE0021084634
:10477000FCF7A3F800210846FCF79FF80021084643
:10478000FCF79BF800210846FCF797F80121A420CC
:10479000FCF793F8142000F08AFE4FF41C516020BF
:1047A000FCF78BF840F606010820FCF786F840F28B
:1047B00003713020FCF781F801213120FCF77DF8EE
:1047C00004213220FCF779F84FF481713320FCF793
:1047D00074F84FF440713420FCF76FF840F2031185
:1047E0003520FCF76AF81F213620FCF766F840F206
:1047F00003713720FCF761F801213820FCF75DF8E0
:1048000004213920FCF759F815219020FCF755F8C0
:104810004FF482611020FCF750F840F2472111203C
:10482000FCF74BF84FF4DE711220FCF746F84FF41A
:1048300060611320FCF741F8782000F038FE4FF457
:1048400080710120FCF739F84FF400710220FCF769
:1048500034F800E050E041F230010320FCF72DF87D
:1048600008210A20FCF729F800210C20FCF725F884
:1048700020210E20FCF721F800210F20FCF71DF865
:1048800000212020FCF719F800212120FCF715F861
:104890003D212A20FCF711F8142000F008FE2D21FC
:1048A0002920FCF70AF800215020FCF706F84DF209
:1048B000EF015120FCF701F800215220FBF7FDFF2A
:1048C00040F23F115320FBF7F8FF00216120FBF776
:1048D000F4FF00216A20FBF7F0FF4FF440719220B3
:1048E000FBF7EBFF05219320FBF7E7FF4FF4807107
:1048F0000720FBF7E2FF37E20D48808844F2315190
:1049000088427CD101210020FBF7D7FF0A2000F06C
:10491000CEFD41F228611020FBF7CFFF0E211220BF
:10492000FBF7CBFF40F639211320FBF7C6FF01E070
:10493000E80100200A2000F0BAFD40211120FBF719
:10494000BCFF50211520FBF7B8FF0A2000F0AFFD97
:104950001E211220FBF7B1FF0A2000F0A8FD4FF442
:10496000B1511020FBF7A9FF42F639211320FBF7C4
:10497000A4FF0A2000F09BFD4FF480710120FBF79B
:104980009CFF4FF440710220FBF797FF41F2380182
:104990000320FBF792FF40F202210820FBF78DFF76
:1049A00008210A20FBF789FF00213020FBF785FF53
:1049B00040F202413120FBF780FF4FF48371322037
:1049C000FBF77BFF40F203513320FBF776FF4FF4F8
:1049D00082713420FBF771FF40F201313520FBF783
:1049E0006CFF40F207713620FBF767FF40F205319C
:1049F0003720FBF762FF4FF40271382000E040E0FF
:104A0000FBF75BFF40F60B713920FBF756FF0221E5
:104A10004120FBF752FF4FF41C516020FBF74DFF84
:104A200001216120FBF749FF4FF404719020FBF74F
:104A300044FF4FF485719220FBF73FFF0421932040
:104A4000FBF73BFF4FF48071A020FBF736FF0121FD
:104A50000720FBF732FF21210720FBF72EFF232140
:104A60000720FBF72AFF33210720FBF726FF40F240
:104A700033110720FBF721FF0021A020FBF71DFFCA
:104A800072E1FA48808844F2355188427ED1302163
:104A90001520FBF712FF10219A20FBF70EFF2021B3
:104AA0001120FBF70AFF43F228411020FBF705FF16
:104AB00002211220FBF701FF41F238011320FBF71E
:104AC000FCFE282000F0F3FC12210846FBF7F5FE5F
:104AD000282000F0ECFC43F220411020FBF7EDFE13
:104AE00043F238011320FBF7E8FE462000F0DFFC1C
:104AF00000213020FBF7E1FE40F202413120FBF7BC
:104B0000DCFE40F207313220FBF7D7FE4FF4417153
:104B10003320FBF7D2FE04213420FBF7CEFE40F217
:104B200001413520FBF7C9FE40F207713620FBF743
:104B3000C4FE40F205313720FBF7BFFE4FF4C261DF
:104B40003820FBF7BAFE4FF4C2613920FBF7B5FEFF
:104B50004FF480710120FBF7B0FE4FF4407102204A
:104B6000FBF7ABFE41F230010320FBF7A6FE40F657
:104B700008010820FBF7A1FE08210A20FBF79DFE93
:104B80004FF41C516020FBF798FE00E031E001215A
:104B90006120FBF792FE4FF49F719020FBF78DFE92
:104BA0004FF480719220FBF788FE4FF480719320C0
:104BB000FBF783FE4FF44051A020FBF77EFE10214F
:104BC000A320FBF77AFE01210720FBF776FE2121C7
:104BD0000720FBF772FE23210720FBF76EFE33212F
:104BE0000720FBF76AFE40F233110720FBF765FE52
:104BF000BAE09E48808841F663118842F8D1E220ED
:104C0000FBF740FE2320FBF746FE0220FBF743FEA6
:104C10000420FBF740FE642000F025FCE020FBF7B9
:104C200031FE0120FBF737FE0A2000F040FCE020B7
:104C3000FBF728FE0320FBF72EFE0C2000F037FCCC
:104C40000120FBF71FFE0A2000F031FCE620FBF7F5
:104C500019FE0320FBF71FFEFF20FBF71CFEFF20C1
:104C6000FBF719FEB020FBF70DFE2020FBF713FE2B
:104C70000020FBF710FE0320FBF70DFE40F21F3073
:104C8000FBF709FE0120FBF706FE40F2DF10FBF701
:104C900002FE0020FBF7FFFDB420FBF7F3FD04202C
:104CA000FBF7F9FD40F21F40FBF7F5FD0020FBF795
:104CB000F2FDD220FBF7EFFD0020FBF7ECFD00201A
:104CC000FBF7E9FD0020FBF7E6FD0020FBF7E3FD25
:104CD000B620FBF7D7FD0220FBF7DDFD4FF4037094
:104CE000FBF7D9FD0020FBF7D6FD2220FBF7D3FD13
:104CF0000920FBF7D0FD0020FBF7CDFD0020FBF7DE
:104D0000CAFDF020FBF7BEFD0320FBF7C4FD292000
:104D1000FBF7B8FDD020FBF7B5FD0020FBF7BBFD8E
:104D2000BE20FBF7AFFD0520FBF7B5FDFE20FBF72E
:104D3000B2FD0120FBF7AFFDFF20FBF7ACFD00202B
:104D4000FBF7A9FDB820FBF79DFD0F20FBF7A3FDA6
:104D50000120FBF7A0FDBA20FBF794FD0120FBF733
:104D60009AFD6420FCF710FA0020FCF735FA0120C8
:104D70003F4908604FF6FF70FCF71CFC1FB000BDF8
:104D80002DE9FC4F05460E4617469846DDF82C9057
:104D9000002001903548808846F60401884229D1D8
:104DA00032488079012825D1AB4635462F48008806
:104DB000C01B401E86B247462C480088A0EB0B0063
:104DC000401E1FFA80F80020284988712A20488157
:104DD0002B20888143463A4631462846CDF800903C
:104DE000FFF7CEFF0120214988712B2048812A201E
:104DF00088811CE0781B401C80B20190344614E08E
:104E000021462846FBF78BFDFBF76CFD4FF0000AAF
:104E100006E01848A0F800900AF101001FFA80FA95
:104E200001988245F5DB601C84B24445E8DDBDE8AD
:104E3000FC8F2DE9F84F07460D4690469946DDF860
:104E400028B0A8EB0700401C1FFA80FAA9EB050068
:104E5000401C80B2009000241AE0281981B2384624
:104E6000FBF75DFDFBF73EFD00260DE0E8010020AD
:104E7000808121420008006C04FB0A603BF81000AE
:104E8000F7490880701C86B25645F5DB601C84B279
:104E900000988442E1DBBDE8F88F2DE9FF4F84B034
:104EA00081468A460020039002900698A0EB0905EF
:104EB0000798A0EB0A06CDF80490CDF800A0002DCD
:104EC00001DD012705E00DB9002702E04FF0FF37B3
:104ED0006D42002E02DD4FF0010806E016B94FF0DA
:104EE000000802E04FF0FF387642B54201DD2C4663
:104EF00000E034464FF0000B21E0009A91B2019A95
:104F000090B2FCF773F80398284403900298304459
:104F100002900398A04205DD0398001B03900198BE
:104F2000384401900298A04205DD0298001B0290CF
:104F30000098404400900BF101001FFA80FB601CB8
:104F40008345DADD08B0BDE8F08FF0B504460D46C4
:104F500016461F462B46324629462046FFF79DFF40
:104F60003B46224629462046FFF797FF3B463246FE
:104F700039462046FFF791FF3B46324629463046E8
:104F8000FFF78BFFF0BD2DE9F04306460F46904634
:104F9000002445460320A0EB48093CE07A1B91B26F
:104FA000321990B2FCF722F83A1B91B2721990B202
:104FB000FCF71CF83A1991B2721990B2FCF716F886
:104FC0007A1991B2321990B2FCF710F87A1991B2AD
:104FD000321B90B2FCF70AF83A1991B2721B90B2E8
:104FE000FCF704F87A1B91B2321B90B2FBF7FEFF7C
:104FF0003A1B91B2721B90B2FBF7F8FF641CB9F137
:10500000000F03DAA000801D814404E0601B8000D3
:105010000A3081446D1EAC42C0DDBDE8F0832DE94D
:10502000F84F80460E4617461C46B3462046E31707
:1050300004EB5373DB1021464FEAE47C04EB5C7C09
:105040004FEAEC0CA4EBCC0CBCF1000F02D04FF0FB
:10505000010C01E04FF0000C6344224604EBD27CCB
:105060004FEA6C0C03FB0CF3DBB20093A7F12000BA
:10507000C7B2002556E00C2C07D107EB4700794951
:1050800001EB800010F8059013E0102C05D1764854
:1050900000EB071010F805900BE0182C07D107EB78
:1050A000C700724901EB800010F8059001E0BDE8EF
:1050B000F88F4FF0000A2FE009F0800030B16C4803
:1050C000028831464046FBF79FFF07E00A9828B95F
:1050D0006848028831464046FBF796FF4FEA496030
:1050E0004FEA1069701C86B263484088B04200DC09
:1050F000DDE7A6EB0B00A0420AD15E4608F10100F5
:105100001FFA80F85C480088404500DCCFE706E0E5
:105110000AF1010000F0FF0ABAF1080FCCDB00BF72
:10512000681CC5B200988542A5DB00BFBFE710B57B
:105130000246012000E050430B00A1F10104E1B25E
:10514000F9D110BD2DE9FF4F81B0074691461E46AB
:105150000E9D4FF0000A002439E0301B401EC1B202
:105160000A20FFF7E4FFB9FBF0F00A21B0FBF1F2EF
:1051700001FB1208BAF1000F16D1701EA04213DD18
:10518000B8F1000F0ED10020AB4605EBDB714910E2
:1051900001FB0471009088B22B4620220299FFF790
:1051A0003EFF12E04FF0010A0020AB4605EBDB7139
:1051B000491001FB0471009088B208F13001CAB2B5
:1051C0002B460299FFF72BFF00BF601CC4B2B4420C
:1051D000C3DB05B0BDE8F08F2DE9FF4F82B0064676
:1051E00092461F46DDE90F480020019000255CE053
:1051F000781B401EC1B20A20FFF799FFBAFBF0F0FE
:105200000A21B0FBF1F201FB12090198B0BB781E34
:10521000A84236DDB9F1000F31D108F0800078B135
:1052200008F00100A34604EBDB71491001FB0561A6
:10523000009088B2234630220399FFF7F0FE0EE07B
:1052400008F00100A34604EBDB71491001FB056186
:10525000009088B2234620220399FFF7E0FE22E067
:105260000008006C989100080C960008FC9B000850
:105270001600002018000020E801002001E00120B5
:10528000019008F00100A34604EBDB71491001FB1B
:105290000561009088B209F13001CAB22346039932
:1052A000FFF7BDFE00BF681CC5B2BD42A0DB06B063
:1052B000BDE8F08F2DE9F84704460D469046994623
:1052C000DDE9096704F0FF0A08EB04001FFA80F823
:1052D00009EB05001FFA80F916E0444502DB54464D
:1052E000A81985B24D4500DB14E0002000903A7803
:1052F000334629462046FFF792FE304606EBD07132
:1053000004EB61018CB27F1C38787E2802DC38788F
:105310002028E2DA00BFBDE8F887000000B597B0AA
:10532000012140F2E11001F03FF80121080201F0F3
:105330002EF84FF63370ADF8000018208DF80300FA
:1053400003208DF802006946364800F071FD4FF6E3
:105350008370ADF800006946334800F069FD4FF2F4
:105360003F00ADF800006946304800F061FD40F2B2
:105370003F40ADF8000069462D4800F059FD00207F
:105380000190029003200390002004900590069065
:10539000079004200890002009900A9010200B909C
:1053A00000200C900E900D900F9010904FF48050B4
:1053B0001190002012901390149001A8159016904F
:1053C00008A800F01BFA0121042000F07FFB17B0B1
:1053D00000BD10B506E004784FF0D0435C54891C42
:1053E000401C521E002AF6D110BD06E04FF0D043FB
:1053F0005B5C00F8013B891C521E002AF6D1704705
:1054000013B50C46012221466846FFF7E2FF1CBD9A
:1054100018B50446012221466846FFF7E6FF9DF8CD
:10542000000018BD0014014000180140001C01409C
:105430000020014010B56FF0040000F074F92E4810
:1054400000682E49B0FBF1F02D490870084600783D
:1054500000EB4001C1EBC0104FF6FF7101EAC00044
:105460002849088010BD0146254A12784A434FF06A
:10547000E0235A6100229A611A46126942F0010241
:105480001A6100BF4FF0E022106900F001021AB16A
:1054900000F48032002AF5D04FF0E022126922F0A9
:1054A00001024FF0E0231A6100229A617047014621
:1054B000144A12884A434FF0E0235A6100229A614D
:1054C0001A46126942F001021A6100BF4FF0E02251
:1054D000106900F001021AB100F48032002AF5D000
:1054E0004FF0E022126922F001024FF0E0231A612E
:1054F00000229A61704700000000002000127A002C
:105500001A0000201C000020014600BF704700BFA9
:10551000494A128802F04002002AF9D0C2B2464B32
:105520001B1D1A80704710B586B00446012144F255
:10553000040000F039FF4FF40070ADF814000320B0
:105540008DF8160018208DF8170005A93B4800F0CB
:105550006FFC4FF48060ADF8140004208DF8170044
:1055600005A9364800F064FC25208DF800000320D2
:105570008DF801008DF8020001208DF803006846C7
:1055800000F087F801940020ADF80800ADF80A009B
:10559000ADF80C00ADF810000C20ADF80E0001A91C
:1055A000254800F0A8FF012240F22551224801F0D1
:1055B0003AF80121204801F02AF806B010BD10B5D4
:1055C00040F225511C4801F013F910B31A4801F0BC
:1055D0008FF8C4B21A48008800F40040C8B91848CF
:1055E000008800F4804060B10A2C03D000201449E8
:1055F000088020E01248008840F4004010490880EC
:1056000019E00D2C06D10E48008840F480400C496A
:10561000088010E00A480088C0F30D0009490C54C6
:1056200007480088401C0649088008460088C728AB
:1056300001DD0020088010BD003801400008014055
:1056400024000020F601002009488047094800474F
:10565000FEE7FEE7FEE7FEE7FEE7FEE7FEE7FEE722
:10566000FEE7FEE704480549054A064B704700007F
:105670003B0600083101000820AD002020B30020C7
:1056800020AF002020AF002031490143314A116092
:10569000704770B5002100230F22C47804B32D4C4D
:1056A000246804F4E064C4F5E064210AC1F1040351
:1056B000CA40447804FA03F1847814402143090174
:1056C000254C0678A155047804F01F050124AC4050
:1056D00005786D11AD0005F1E025C5F8004109E040
:1056E000047804F01F050124AC401C4D06787611A7
:1056F00045F8264070BD1A4A0A400243154B1B1F4D
:105700001A60704739B1134A121D12680243114BD7
:105710001B1D1A6006E00F4A121D126882430D4BD2
:105720001B1D1A607047042808D14FF0E021096959
:1057300041F004014FF0E022116107E04FF0E02159
:10574000096921F004014FF0E02211617047000067
:105750000000FA050CED00E000E400E080E100E06C
:1057600080FFFF1F30B943F2DB028100A1F1C0418D
:105770000A6005E043F2D2028100A1F1C0410A6053
:105780006FF07042411C8900A1F1C0410A608100A4
:10579000A1F1C041C1F80421704710280AD1182195
:1057A0004FF020421166402151664FF0FC31916666
:1057B000D16610E01821F74A116040214FF02042D5
:1057C000C2F884104FF0FC31F24A083211604FF0F9
:1057D0002042C2F88C1070471820EE492031086032
:1057E00000200906C1F8A4004FF0FC30E949283137
:1057F0000860091D0860091D08607047D0E90112A2
:105800001143C2681143026911434269114382691D
:105810001143C2691143026A1143426A1143826A09
:105820001143C26A1143026B114302689200A2F154
:10583000C0421160816808290BD101688900A1F17B
:10584000C041096841F0400201688900A1F1C041EE
:105850000A60416B0968426B526841EA0211426B6F
:10586000926841EA0221426B928941EA0241426B0D
:10587000128A41EA0251426B127D41EA0261426B97
:10588000926911430268521C9200A2F1C042116059
:10589000C16AB1F5804F1BD1816B0968826B526878
:1058A00041EA0211826B926841EA0221826B128AFC
:1058B00041EA0251826B127D41EA0261826B926978
:1058C000114302689200A2F1C042C2F8041107E03D
:1058D0006FF0704201688900A1F1C041C1F8042154
:1058E000704730B5002100220023446844F00804CA
:1058F00085682C43C5682C4305692C43456944EAF7
:105900004524856944EA4531C4692468C5696D68E0
:1059100044EA0524C5692D8944EA0544C5692D7BFF
:1059200044EA0562046A2468056A6D6844EA05244D
:10593000056A2D8944EA0544056A2D7B44EA05631E
:105940000468102C05D14FF020442166A266E3665E
:1059500008E0904C21604FF02044C4F888208D4C22
:105960000C34236030BD016841F01001426841EA07
:105970004221826841EA4231864A20321160C16880
:105980000968C268526841EA0221C268128941EA84
:105990000241C268127B41EA02617E4A28321160EC
:1059A000016909680269526841EA022102691289A3
:1059B00041EA02410269127B41EA0261754A2C32D6
:1059C0001160416909684269526841EA02214269ED
:1059D000128941EA02414269127B41EA02614FF0B9
:1059E0002042C2F8B01070470021016002214160DE
:1059F00000218160C160016141618161C161016219
:105A00004FF480514162490081620021C16201630B
:105A10000F21426B1160426B5160FF21426B91601C
:105A20000F21426BD160426B1161426B51610021C9
:105A3000426B91610F21826B1160826B5160FF217B
:105A4000826B91600F21826BD160826B1161826BDE
:105A500051610021826B916170471021016000212A
:105A600041608160C160016141618161FC21C26965
:105A70001160C2695160C2699160C269D160026AF5
:105A80001160026A5160026A9160026AD1607047D7
:105A90000021016041608160FC21C2681160C26820
:105AA0005160C2689160C268D16002691160026988
:105AB0005160026991600269D16042691160426976
:105AC0005160426991604269D160704751B1820072
:105AD000A2F1C042126842F001038200A2F1C0426A
:105AE000136009E08200A2F1C04212682A4B1A40FA
:105AF0008300A3F1C0431A60704799B1102808D100
:105B00004FF02042126E42F004024FF020431A661A
:105B10001DE0204A126842F004024FF02043C3F80F
:105B2000802014E0102809D14FF02042126E1A4B49
:105B3000DB1E1A404FF020431A6608E0154A12682F
:105B4000154BDB1E1A404FF02043C3F880207047EE
:105B500048B110492031096841F004014FF020425A
:105B6000C2F8A01009E00B49203109680A4AD21E88
:105B700011404FF02042C2F8A0107047B9B1102870
:105B80000CD14FF02042126E42F040024FF0204301
:105B90001A661FE0800000A0FEFF0F00724A126824
:105BA00042F040024FF02043C3F8802012E010285A
:105BB00008D14FF02042126E6C4B1A404FF0204338
:105BC0001A6607E0684A1268684B1A404FF0204393
:105BD000C3F88020704701460020102903D14FF000
:105BE0002042506F02E0604A14321068704710B5CE
:105BF000F2B1102807D14FF020435B6E0B434FF0FA
:105C00002044636632E0B0F5807F08D1564B1B1DFF
:105C10001B680B434FF02044C4F8843026E0524BFD
:105C200024331B680B434FF02044C4F8A4301DE01C
:105C3000102807D14FF020435B6E8B434FF0204478
:105C4000636613E0B0F5807F08D1474B1B1D1B68CE
:105C50008B434FF02044C4F8843007E0424B243398
:105C60001B688B434FF02044C4F8A43010BD10B51E
:105C7000024600200023102A03D14FF02044636E17
:105C800009E0B2F5807F03D1374C241D236802E080
:105C9000354C2434236803EA01040CB1012000E0F0
:105CA000002010BD102807D14FF02042526E8A43C9
:105CB0004FF020435A6613E0B0F5807F08D12A4A9E
:105CC000121D12688A434FF02043C3F8842007E076
:105CD000254A243212688A434FF02043C3F8A42097
:105CE000704770B502460020002300240025102ACA
:105CF00003D14FF02046736E09E0B2F5807F03D1E7
:105D0000194E361D336802E0174E2436336803EA15
:105D1000010403EAD10514B10DB1012000E0002017
:105D200070BD102808D14FF02042526E22EAD102F5
:105D30004FF020435A6615E0B0F5807F09D10A4A3A
:105D4000121D126822EAD1024FF02043C3F88420CA
:105D500008E0054A2432126822EAD1024FF02043BB
:105D6000C3F8A42070470000800000A0BFFF0F0010
:105D700010B50446CC48844208D10121042000F02B
:105D80002DFB0021042000F029FB46E0C748844297
:105D900008D10121082000F021FB0021082000F09B
:105DA0001DFB3AE0C248844208D10121102000F0D6
:105DB00015FB0021102000F011FB2EE0BD488442AD
:105DC00008D10121202000F009FB0021202000F053
:105DD00005FB22E0B848844208D10121402000F0B0
:105DE000FDFA0021402000F0F9FA16E0B3488442A1
:105DF00008D10121802000F0F1FA0021802000F07C
:105E0000EDFA0AE0AE48844207D10121801500F086
:105E1000E5FA0021A01500F0E1FA10BD10B501214E
:105E2000084600F0DBFA0021012000F0D7FA10BD8F
:105E30002DE9F04102460025002600200023002421
:105E4000002791F803C00CF00F0591F803C00CF087
:105E5000100CBCF1000F03D091F802C04CEA05050C
:105E600091F800C0BCF1000F31D0146800202BE085
:105E70004FF0010C0CFA00F3B1F800C00CEA030675
:105E80009E4220D183004FF00F0C0CFA03F7BC4365
:105E900005FA03FC4CEA040491F803C0BCF1280F96
:105EA00006D14FF0010C0CFA00FCC2F814C00AE055
:105EB00091F803C0BCF1480F05D14FF0010C0CFA6A
:105EC00000FCC2F810C0401C0828D1D31460B1F8FF
:105ED00000C0BCF1FF0F34DD546800202EE000F15B
:105EE000080C4FF0010808FA0CF3B1F800C00CEAF6
:105EF00003069E4221D183004FF00F0C0CFA03F7EA
:105F0000BC4305FA03FC4CEA040491F803C0BCF15D
:105F1000280F05D100F1080C08FA0CF8C2F814801B
:105F200091F803C0BCF1480F07D100F1080C4FF005
:105F3000010808FA0CF8C2F81080401C0828CED3DB
:105F40005460BDE8F0814FF6FF710180022181703D
:105F50000421C17070470246002093680B400BB1CA
:105F6000012000E0002070470146886880B2704739
:105F700002460020D3680B400BB1012000E0002056
:105F800070470146C86880B270470161704741613F
:105F900070470AB1016100E041617047C16070471C
:105FA0004FF480320A438261816182618269826931
:105FB000704702460020434B18684FF68073184024
:105FC00040EA021008433F4B186070473E49C861E1
:105FD0007047F0B50A46002300240021002500F098
:105FE0000046B6F1004F02D1364EF16901E0354E60
:105FF0007168C0F3034583B200F44016B6F5401F44
:1060000008D121F070612F4E766826F070662D4F12
:106010007E6012E000F48016B6F5801F06D10326DC
:1060200006FA05F4A14341F0706106E0460D360121
:1060300003FA06F6B14341F0706122B1460D360114
:1060400003FA06F6314300F00046B6F1004F02D1E4
:106050001C4EF16101E01B4E7160F0BD30B50022B5
:106060008B071C0F0F2303FA04F2164B08338C1016
:1060700053F824309343134C08348D1044F82530E2
:1060800023468C1053F824308C07240F00FA04F4B4
:1060900023430C4C08348D1044F8253030BD0A4998
:1060A000DC3108607047000000080140000C01402E
:1060B000001001400014014000180140001C014084
:1060C000002001400000014000002042DF4800683D
:1060D00040F00100DD49086008464068DC4908409E
:1060E000DA49486008460068DA490840D74908603C
:1060F0000846006820F4802008600846406820F4C4
:10610000FE0048604FF41F0088607047CF4909685F
:1061100021F48031CD4A11601146096821F48021B3
:106120001160B0F5803F03D0B0F5802F0ED106E0AE
:10613000C649096841F48031C44A116007E0C34987
:10614000096841F4A021C14A116000E000BF00BF0E
:10615000704710B501460022002300204A11012A91
:1061600002D1BA4C236806E0022A02D1B74C236A56
:1061700001E0B64C636A01F01F02012494401C4008
:106180000CB1012000E0002010BD38B500200090C7
:106190000024002500BF3120FFF7DBFF05460098F3
:1061A000401C00900098B0F5A06F01D0002DF2D0F7
:1061B0003120FFF7CEFF08B1012400E00024204683
:1061C00038BD01460020A14A106820F0F80040EADE
:1061D000C10010607047A049086070470246002067
:1061E0009A4B586820F47C1042EA01031843974BFD
:1061F0005860704798490866704701460020934AE6
:10620000506820F003000843506070478F48406892
:1062100000F00C007047014600208C4A506820F0C6
:10622000F00008435060704701460020874A5068DC
:1062300020F4E06008435060704701460020834A24
:10624000506820F4605040EAC1005060704729B1A6
:106250007E4A527A02437D4B5A7204E07B4A527A5C
:1062600082437A4B5A7270477B49D8310860704735
:1062700001460020754A506820F4404008435060B1
:1062800070470021714A20321170704A82F8201044
:10629000012802D004280AD104E001216B4A2032EF
:1062A000117005E00521694A2032117000E000BF3D
:1062B00000BF70476949086070476449096A014333
:1062C000624A11627047654944390860704730B5C9
:1062D00000210022002400235C4D6D6805F00C01B4
:1062E00021B1042905D0082923D105E05C4D0560C2
:1062F00022E05B4D05601FE0544D6D6805F470129F
:10630000524D6D6805F48034022505EB92421CB9AC
:10631000544D554305600BE04C4D6D6805F4003558
:106320001DB1504D5543056002E04D4D554305608C
:1063300002E04B4D056000BF00BF444D6D6805F0A5
:10634000F0010909484D6B5C0568DD4045603F4D33
:106350006D6805F4E061090A434D6B5C4568DD40FA
:1063600085603A4D6D6805F46051C90A3E4D6B5C1D
:106370004568DD40C560354D6D6805F44041890BC9
:106380003A4D6B5CC568B5FBF3F5056130BD29B1CD
:106390002E4A526902432D4B5A6104E02B4A52693E
:1063A00082432A4B5A61704729B1284A92690243B5
:1063B000264B9A6104E0254A92698243234B9A61F5
:1063C000704729B1214AD2690243204BDA6104E0C7
:1063D0001E4AD26982431D4BDA61704729B11B4ABC
:1063E000D2680243194BDA6004E0184AD26882434B
:1063F000164BDA60704729B1144A12690243134BF5
:106400001A6104E0114A12698243104B1A61704705
:1064100012494039086070470F49C86470470B49FA
:10642000C87170470948406A40F080700749486267
:10643000704701460020054A92680A400AB10120CF
:1064400000E0002070470149887270470010024048
:106450000000FFF8FFFFF6FE0000424280044242C7
:1064600000127A0000093D002600002036000020BE
:1064700010B50446FB48844209D101218803FFF787
:10648000ADFF00214FF48040FFF7A8FF32E0F6484F
:10649000844209D101214804FFF7ADFF00214FF4E8
:1064A0000030FFF7A8FF25E0F048844209D1012120
:1064B0008804FFF7A0FF00214FF48020FFF79BFF27
:1064C00018E0EB48844209D10121C804FFF793FF8B
:1064D00000214FF40020FFF78EFF0BE0E5488442D7
:1064E00008D101210805FFF786FF00214FF4801035
:1064F000FFF781FF10BD2DE9F04786B005460E4637
:106500000024A24600BFA1460027B08900B100BF09
:106510002F462C8A4CF6FF700440F08804432C82EE
:10652000AC894EF6F3100440B08831890843718974
:1065300008430443AC81AC8A4FF6FF400440B08965
:106540000443AC8201A8FFF7C2FEC648874202D1CD
:10655000DDF810A001E0DDF80CA0A88900F40040EF
:1065600040B10AEBCA0000EB0A1031684900B0FBE9
:10657000F1F807E00AEBCA0000EB0A103168890065
:10658000B0FBF1F86420B8FBF0F0040120096421AD
:1065900001FB1089A88900F4004040B1322000EBD3
:1065A000C900B0FBF1F000F00700044308E032201E
:1065B00000EB09106421B0FBF1F000F00F00044380
:1065C0002C8106B0BDE8F0874FF416510160002120
:1065D0008180C18001810C2141810021818170472E
:1065E00010B502460020108A4FF2FF0318400B88B6
:1065F0004C8823438C882343CC8823431843108240
:1066000010BD0021018041808180C180704721B18F
:10661000828942F40052828104E082894DF6FF7340
:106620001A4082817047F0B50346002400260025F9
:10663000002040F66A17B94200D100BF1846C1F3E6
:10664000421401F01F06012707FA06F5012C01D1BB
:106650000C3004E0022C01D1103000E014301AB1EB
:1066600007682F43076002E00768AF430760F0BD8B
:106670001AB1838A0B43838202E0838A8B4383822D
:106680007047028A4FF6F0731A400282028A0A4368
:106690000282704782894FF2FF731A408281828999
:1066A0000A438281704721B1828942F002028281CD
:1066B00004E082894FF6FD731A4082817047028A96
:1066C0004FF6DF731A400282028A0A430282704741
:1066D00021B1028A42F48042028204E0028A4BF62F
:1066E000FF731A4002827047C1F30802828070472C
:1066F00001468888C0F308007047818941F0010194
:1067000081817047028BD2B20283028B42EA01225E
:1067100002837047028B02F47F420283028B0A439A
:106720000283704721B1828A42F02002828204E013
:10673000828A4FF6DF731A408282704721B1828AC3
:1067400042F01002828204E0828A4FF6EF731A4010
:106750008282704721B1828A42F00802828204E07C
:10676000828A4FF6F7731A408282704721B182897C
:1067700042F40042828103E08289C2F30E028281E8
:10678000704721B1828A42F40062828204E0828AE8
:106790004FF2FF731A4082827047828A4FF6FB7372
:1067A0001A408282828A0A438282704721B1828A99
:1067B00042F00202828204E0828A4FF6FD731A40A0
:1067C0008282704702460020B1F5007F00D100BFF1
:1067D00013880B400BB1012000E00020704701F44A
:1067E0000072B2F5007F00D100BFCA43028070473B
:1067F00070B50246002400230025002040F66A16EA
:10680000B14200D100BFC1F3421501F01F030126C0
:1068100006FA03F3012D02D19689334006E0022DDA
:1068200002D1168A334001E0968A33400C120126C9
:1068300006FA04F41688344013B10CB1012000E0CC
:10684000002070BD10B50022002340F66A14A1425A
:1068500000D100BF0A1201249440A3B2DC4304809B
:1068600010BD0000003801400044004000480040D6
:10687000004C00400050004010B50446FE488442E1
:1068800008D10121C014FFF7A9FD0021E014FFF792
:10689000A5FDC4E0B4F1804F08D101210846FFF7FF
:1068A000AAFD00210120FFF7A6FDB8E0F3488442CD
:1068B00008D101210220FFF79EFD00210220FFF7F1
:1068C0009AFDACE0EE48844208D101210420FFF794
:1068D00092FD00210420FFF78EFDA0E0E9488442EC
:1068E00008D101210820FFF786FD00210820FFF7CD
:1068F00082FD94E0E448844208D101211020FFF792
:106900007AFD00211020FFF776FD88E0DF48844201
:1069100008D101212020FFF76EFD00212020FFF784
:106920006AFD7CE0DA48844208D101214014FFF777
:1069300055FD00216014FFF751FD70E0D5488442F9
:1069400009D10121C804FFF749FD00214FF40020BF
:10695000FFF744FD63E0D048844209D101210805D6
:10696000FFF73CFD00214FF48010FFF737FD56E0A4
:10697000CA48844209D101214805FFF72FFD0021B3
:106980004FF40010FFF72AFD49E0C548844208D1C2
:1069900001214020FFF72FFD00214020FFF72BFDB4
:1069A0003DE0C048844208D101218020FFF723FD4B
:1069B00000218020FFF71FFD31E0BB48844208D151
:1069C00001218015FFF717FD0021A015FFF713FD2A
:1069D00025E0B648844209D101210804FFF7FEFCF6
:1069E00000214FF48030FFF7F9FC18E0B0488442F2
:1069F00009D101214804FFF7F1FC00214FF40030D8
:106A0000FFF7ECFC0BE0AB48844208D1012188047D
:106A1000FFF7E4FC00214FF48020FFF7DFFC10BDFE
:106A200000220288944B98420ED0994B98420BD08A
:106A3000B0F1804F08D0914B984205D0904B9842CE
:106A400002D0904B984204D14FF68F731A404B8876
:106A50001A438D4B984207D08C4B984204D04FF686
:106A6000FF431A40CB881A4302808B8883850B88AA
:106A70000385814B98420BD0854B984208D08B4BB5
:106A8000984205D08A4B984202D08A4B984201D155
:106A90000B7A038601238382704770B5002400229D
:106AA0000023058C4FF6FE7635400584028C8388E2
:106AB000048B4FF68F752C40B51E2C400D882C434F
:106AC000751E2A400D892A434D882A436A4DA842E3
:106AD0000BD06F4DA84208D0744DA84205D0744D1C
:106AE000A84202D0734DA84213D14FF6F7752A4041
:106AF0004D892A434FF6FB752A408D882A434FF66D
:106B0000FF652B404FF6FF552B408D892B43CD89D8
:106B10002B4383800483CD888586028470BD70B545
:106B2000002400220023058C4FF6EF7635400584C3
:106B3000028C8388048B48F6FF752C404FF6FF4586
:106B40002C400D884FF6FF7606EA05252C434FF6BC
:106B5000DF752A400D8906EA05152A434D8806EAA5
:106B600005152A43444DA84202D0494DA8421DD1E3
:106B70004FF67F752A404D894FF6FF7606EA0515D8
:106B80002A434FF6BF752A408D8806EA05152A4329
:106B90004FF6FF352B404FF2FF752B408D8906EAEB
:106BA00085052B43CD8906EA85052B438380048325
:106BB000CD880587028470BD70B5002400220023B3
:106BC000058C4FF6FF6635400584028C8388848BE4
:106BD0004FF68F752C404FF6FC752C400D882C43DA
:106BE0004FF6FF552A400D894FF6FF7606EA052538
:106BF0002A434D8806EA05252A431F4DA84202D0A4
:106C0000234DA8421DD14FF2FF752A404D894FF602
:106C1000FF7606EA05252A434FF6FF352A408D8880
:106C200006EA05252A434EF6FF752B404DF6FF7503
:106C30002B408D8906EA05152B43CD8906EA0515FB
:106C40002B4383808483CD888587028470BD70B593
:106C5000002200230024058C4EF6FF763540058483
:106C6000038C8488828B48F6FF752A404FF6FF45D7
:106C70002A400D8820E00000002C01400004004064
:106C800000080040000C00400010004000140040CC
:106C900000340140004C01400050014000540140CC
:106CA00000180040001C004000200040004001404F
:106CB00000440140004801404FF6FF7606EA0525F2
:106CC0002A434DF6FF752B400D8906EA05352B4307
:106CD0004D8806EA05352B43FA4DA84202D0FA4DFD
:106CE000A84208D14BF6FF752C408D894FF6FF76F0
:106CF00006EA85152C4384808283CD88A0F8405015
:106D0000038470BD828B4FF2FF331A408283828BE3
:106D10004FF6FF7303EA01231A4382837047F0B5ED
:106D20000C461546002200210026078C4EF6FF7CFB
:106D300007EA0C070784828B018C4FF6FF7707EA7E
:106D4000043640F6FF473A404FF6FF7707EA05273B
:106D50003A434FF6FF7707EA03373A43D94FB84231
:106D60000ED0D94FB8420BD0B0F1804F08D0D74FDA
:106D7000B84205D0D64FB84202D0D64FB84206D15D
:106D80004DF6FF77394046F48057394305E047F622
:106D9000FF57394044F48057394382830184F0BD62
:106DA000828B4FF6F3731A408283828B0A4382836D
:106DB0007047F0B50C461546002200210026078CCE
:106DC0004FF6FF6C07EA0C070784828B018C4FF6A5
:106DD000FF7707EA04264FF60C773A404FF6FF7725
:106DE00007EA03172F433A43B64FB8420ED0B64FC7
:106DF000B8420BD0B0F1804F08D0B44FB84205D0A4
:106E0000B34FB84202D0B34FB84206D14FF6FF5746
:106E1000394046F48077394305E04FF2FF57394057
:106E200044F48077394382830184F0BD028B4FF2B2
:106E3000FF331A400283028B4FF6FF7303EA0123EC
:106E40001A4302837047F0B50C4615460022002114
:106E50000026078C4FF6EF7C07EA0C070784028BAD
:106E6000018C4FF6FF7707EA041640F6FF473A40D9
:106E70004FF6FF7707EA03373A434FF6FF7707EA03
:106E800005273A438F4FB8420ED08F4FB8420BD0F0
:106E9000B0F1804F08D08D4FB84205D08C4FB8422A
:106EA00002D08C4FB84206D14FF6DF77394046F01A
:106EB0001007394305E04FF65F77394044F010077B
:106EC000394302830184F0BD028B4FF6F3731A40FD
:106ED0000283028B0A4302837047F0B50C461546C5
:106EE00000220021068C4FF6FE773E400684028B7E
:106EF000018C4FF60C7632407E1C06EA03162E43B8
:106F00003243704EB0420ED06F4EB0420BD0B0F153
:106F1000804F08D06D4EB04205D06D4EB04202D0C9
:106F20006C4EB04206D14FF6FD76314044F001067A
:106F3000314305E04FF6F576314044F00106314328
:106F400002830184F0BD70B505460C465D4885425C
:106F50000ED05D4885420BD0B5F1804F08D05B481C
:106F6000854205D05A48854202D05A48854200D110
:106F700000E000BF208850B92389A2886188284694
:106F8000FFF7ABFFE1882846FFF79EFF25E020884A
:106F900004280AD12389A28861882846FFF753FF75
:106FA000E1882846FFF742FF17E0208808280AD129
:106FB0002389A28861882846FFF7FBFEE1882846DE
:106FC000FFF7EEFE09E02389A28861882846FFF7D3
:106FD000A6FEE1882846FFF795FE70BD2DE9F04139
:106FE00005460C4600260127608808B9022600E005
:106FF0000026A088012801D1022700E0012720886F
:10700000A0B92389A28861882846FFF766FFE18836
:107010002846FFF759FF23893A4631462846FFF7AD
:1070200012FFE1882846FFF701FF13E02389A288B9
:1070300061882846FFF707FFE1882846FFF7F6FE3C
:1070400023893A4631462846FFF747FFE18828461C
:10705000FFF73AFFBDE8F0810A884B881A438B8816
:107060001A43CB881A430B891A434B891A438B89DD
:107070001A43A0F8442070474FF6FF718180002129
:107080000180C180418001727047002101804180F0
:107090008180C180018141818181C181704700214E
:1070A00001804180012181800021C18001817047E0
:1070B0000021018041808180C180018141818181E5
:1070C00070470000002C01400034014000040040E3
:1070D00000080040000C004021B1028842F001028B
:1070E000028004E002884FF6FE731A400280704767
:1070F00031B1B0F8442042F40042A0F8442005E049
:10710000B0F84420C2F30E02A0F8442070471AB130
:1071100083890B43838102E083898B43838170479A
:107120008182704741EA0203A0F8483070471AB1E3
:1071300083890B43838102E083898B43838170477A
:1071400001894FF6F8721140018170470A4600210B
:1071500001894FF68F73194011430181704730B593
:1071600004460D4629462046FFF7F0FF208940F0EF
:107170000700208130BD2DE9F04104460D4616463A
:107180001F46602D06D13B46012231462046FFF7BF
:107190005AFE05E03B46012231462046FFF79DFEA0
:1071A00029462046FFF7D2FF208940F007002081C2
:1071B000BDE8F08130B50C4600210189C9B24FF617
:1071C000FF7505EA0325154325432943018130BD99
:1071D0002DE9F04105460E461746984600244346E1
:1071E0003A4631462846FFF7E5FF2C894FF6F870FE
:1071F000044044F007044FF68F70044044F07004DC
:107200002C81BDE8F081F0B504460D4616461F46B8
:107210003B46324629462046FFF7CCFF208940F402
:1072200080402081F0BD0185828270470A4600219E
:1072300001884FF68F731940114301807047F0B5F4
:107240000C4615461E460021002200230189028BB0
:10725000038C4FF6F877394021434FF6FC473A400C
:1072600040F201173A434FF6DD773B404FF6FF7788
:1072700007EA06172F433B43018102830384F0BDD5
:107280000A460021018B4FF68F7319401143018389
:1072900070470A460021018B48F6FF7319404FF6EC
:1072A000FF7303EA02231943018370470A46002152
:1072B000818B4FF68F7319401143818370470A46C3
:1072C0000021818B48F6FF7319404FF6FF7303EAE4
:1072D000022319438183704721B1028842F0800262
:1072E000028004E002884FF67F731A4002807047E4
:1072F00021B1828842F00402828004E082884FF645
:10730000FB731A408280704721B1828842F00802E4
:10731000828004E082884FF6F7731A4082807047BB
:1073200021B1828842F00102828004E082884FF617
:10733000FE731A40828070470A460021018B4FF687
:10734000F77319401143018370470A460021018BEE
:107350004FF2FF7319404FF6FF7303EA02231943FC
:10736000018370470A460021818B4FF6F77319405D
:107370001143818370470A460021818B4FF2FF73CE
:1073800019404FF6FF7303EA0223194381837047C4
:107390000A460021018B4FF6FB731940114301830C
:1073A00070470A460021018B4FF6FF3319404FF614
:1073B000FF7303EA02231943018370470A46002141
:1073C000818B4FF6FB7319401143818370470A4646
:1073D0000021818B4FF6FF3319404FF6FF7303EA0C
:1073E00002231943818370470A460021018B4FF61F
:1073F0007F7319401143018370470A460021018BB6
:10740000C1F30E014FF6FF7303EA02231943018310
:1074100070470A460021818B4FF67F731940114354
:10742000818370470A460021818BC1F30E014FF61C
:10743000FF7303EA02231943818370470A46002140
:10744000018C4FF6FD7319401143018470470A46C1
:107450000021018C4FF6F7731940114301847047E6
:107460000A460021018C4FF6DF7319404FF6FF7377
:1074700003EA02131943018470470A460021018C74
:107480004FF67F7319404FF6FF7303EA0213194357
:10749000018470470A460021018C4FF6FF531940C2
:1074A0004FF6FF7303EA02231943018470470A462B
:1074B0000021018C4FF2FF7319404FF6FF7303EA6E
:1074C00002231943018470470A460021018C4DF6BE
:1074D000FF7319404FF6FF7303EA02331943018427
:1074E000704730B5002301248C40A3B2048C9C4328
:1074F0000484048C02FA01F5ADB22C43048430BD3F
:1075000030B5002304248C40A3B2048C9C43048433
:10751000048C02FA01F5ADB22C43048430BD70B581
:107520000346002000241846183001258D40ACB2D7
:107530001D8CA5431D8409B1082909D100EB610008
:10754000056825F0700505600568154305600EE0C7
:107550000D1FC5F34E052844056825F4E045056078
:1075600005684FF6FF7606EA02263543056070BDD2
:1075700021B1028842F00202028004E002884FF644
:10758000FD731A400280704721B1028842F0040264
:10759000028004E002884FF6FB731A4002807047B5
:1075A00021B1828842F08002828004E082884FF616
:1075B0007F731A408280704702884FF6F7731A4033
:1075C000028002880A430280704782884FF68F73D8
:1075D0001A40828082880A438280704702894FF66F
:1075E000F8731A40028102890A43028170470289B6
:1075F0004FF67F731A40028102890A430281704765
:107600008184704781857047818670470187704704
:1076100081877047A0F84010704702884FF6FF43FB
:107620001A40028002880A43028070470146888E11
:1076300070470146088F70470146888F70470146A2
:10764000B1F8400070470146888C70470146088DAC
:10765000704702460020138A0B400BB1012000E066
:1076600000207047CA430282704730B502460020AE
:1076700000230024158A05EA0103958905EA01041F
:1076800013B10CB1012000E0002030BDCA430282DA
:107690007047000070B503460C4603E014F8015B28
:1076A00003F8015B1500A2F10102F7D170BD30B5FE
:1076B000034601E003F8011B1400A2F10102F9D115
:1076C00030BD10B504467A4951F824104A00794972
:1076D00051F824000021FFF7EAFF774951F82420F0
:1076E0007449083951F824000021FFF7E0FF012117
:1076F00070480830015510BD10B501460023002226
:1077000007E06C4850F8210030F8120000B15B1C13
:10771000521C674850F821009042F2D86420584328
:10772000634C54F82140B0FBF4F0C0B210BD2DE919
:10773000F04704460F460025A9465E480830005D24
:1077400020B95C4810380168204688471FB94FF0BF
:10775000FF30BDE8F087594850F82400B7FBF0F639
:10776000564850F82400B7FBF0F100FB117000B14F
:10777000761C4F4850F82400451E20E04D4850F834
:10778000240030F8150010B909F1010901E04FF0AB
:107790000009B14512D14FF0000808E0454850F803
:1077A000240005EB080220F8126008F10108B0453A
:1077B000F4D3424850F824006843CAE76D1E002DF8
:1077C000DCDA4FF0FF30C4E72DE9F04104460E4605
:1077D00038480830005D38B936481038016820460E
:1077E00088470120BDE8F081334850F82400B042BA
:1077F00017D9324850F82400B6FBF0F12D4850F864
:10780000240030F81120002507E00023294850F813
:1078100024004F1920F817306D1C9542F5DB00202D
:10782000E0E70220DEE770B505460C4604B970BDFE
:107830002048083850F82500261A31462846FFF718
:10784000C3FF00BFF3E770B504460E46314620463D
:10785000FFF76DFF0546681C08B9002070BD15488C
:10786000083850F824002844F8E72DE9F041044690
:107870000F46164631462046FFF759FF0546681C5D
:1078800010B90020BDE8F0810A49083951F82410E8
:10789000481932463946FFF7FDFE39462046FFF7C4
:1078A000C2FF0448083850F824002844EAE70000E2
:1078B00058A900084C00002068A9000860A9000829
:1078C00010B58CB004461E230BAA03A9204600F075
:1078D000ABFE0090009810B101200CB010BD9DF8D7
:1078E0002C00044400200B900EE040489DF82C2012
:1078F00050F8221003A800F0FFFD00B908E09DF841
:107900002C00401CC0B20B909DF82C000728ECD333
:1079100000BF9DF82C00072863D2DFE800F00405C3
:107920003C5E6564630000BF31A001F07BF831A0CC
:1079300001F078F83FA001F075F84EA001F072F860
:107940005CA001F06FF86BA001F06CF879A001F079
:1079500069F886A001F066F88BA001F063F890A0AA
:1079600001F060F894A001F05DF899A001F05AF8D8
:107970009EA001F057F8A4A001F054F8B0A001F0C7
:1079800051F8BDA001F04EF8C8A001F04BF8D4A00A
:1079900001F048F89AE216A001F044F8E0A001F0E6
:1079A00041F800200B900EE0ED4800689DF82C2077
:1079B00000EBC2004168EBA001F034F89DF82C0008
:1079C000401CC0B20B90E648007D9DF82C10884208
:1079D000EADC07A001F026F878E205A001F022F821
:1079E000C4E171E245E219E2ECE100005800002038
:1079F0000D0A00002D2D2D2D2D2D2D2D2D2D2D2D54
:107A00002D2D2D2D2D2D2D2D2D2D2D2D55534D4124
:107A100052542056332E312D2D2D2D2D2D2D2D2D23
:107A20002D2D2D2D2D2D2D2D2D2D2D2D2D2D2D2093
:107A30000D0A00002020202055534D415254CAC742
:107A4000D3C9414C49454E54454BBFAAB7A2B5C412
:107A5000D2BBB8F6C1E9C7C9B5C4B4AEBFDAB5F791
:107A6000CAD4BBA5BDBBD7E9BCFE2CCDA8B9FD20AF
:107A70000D0A0000CBFC2CC4E3BFC9D2D4CDA8B9F9
:107A8000FDB4AEBFDAD6FACAD6B5F7D3C3B3CCD0FD
:107A9000F2C0EFC3E6B5C4C8CEBACEBAAFCAFD2CA9
:107AA000B2A2D6B4D0D02ED2F2B4CB2CC4E3BFC98C
:107AB0000D0A0000D2D4CBE6D2E2B8FCB8C4BAAF0B
:107AC000CAFDB5C4CAE4C8EBB2CECAFD28D6A7B376
:107AD000D6CAFDD7D62831302F3136BDF8D6C629C3
:107AE000A1A2D7D6B7FBB4AEA1A2BAAFCAFDC8EB6C
:107AF0000D0A0000BFDAB5D8D6B7B5C8D7F7CEAAF9
:107B0000B2CECAFD292CB5A5B8F6BAAFCAFDD7EEDC
:107B1000B6E0D6A7B3D63130B8F6CAE4C8EBB2CED9
:107B2000CAFD2CB2A2D6A7B3D6BAAFCAFDB7B5204C
:107B30000D0A0000BBD8D6B5CFD4CABE2ED0C2D451
:107B4000F6B2CECAFDCFD4CABEBDF8D6C6C9E8D6F5
:107B5000C3B9A6C4DC2CD0C2D4F6BDF8D6C6D7AA09
:107B6000BBBBB9A6C4DC2E0D0A000000BCBCCAF524
:107B7000D6A7B3D63A7777772E6F70656E65647641
:107B80002E636F6D0D0A000055534D415254D3D0F2
:107B900037B8F6CFB5CDB3C3FCC1EE3A0D0A00003D
:107BA0003F3A202020202020BBF1C8A1B0EFD6FA18
:107BB000D0C5CFA20D0A000068656C703A20202065
:107BC000BBF1C8A1B0EFD6FAD0C5CFA20D0A000014
:107BD0006C6973743A202020BFC9D3C3B5C4BAAF4F
:107BE000CAFDC1D0B1ED0D0A0A00000069643A2057
:107BF00020202020BFC9D3C3BAAFCAFDB5C44944B1
:107C0000C1D0B1ED0D0A0A006865783A2020202025
:107C1000B2CECAFD3136BDF8D6C6CFD4CABE2CBA54
:107C2000F3B8FABFD5B8F12BCAFDD7D6BCB4D6B4D9
:107C3000D0D0BDF8D6C6D7AABBBB0D0A0A0000003B
:107C40006465633A20202020B2CECAFD3130BDF8F1
:107C5000D6C6CFD4CABE2CBAF3B8FABFD5B8F12B6A
:107C6000CAFDD7D6BCB4D6B4D0D0BDF8D6C6D7AA34
:107C7000BBBB0D0A0A00000072756E74696D653A2F
:107C8000312CBFAAC6F4BAAFCAFDD4CBD0D0BCC683
:107C9000CAB13B302CB9D8B1D5BAAFCAFDD4CBD01C
:107CA000D0BCC6CAB13B0D0A0A000000C7EBB0B495
:107CB000D5D5B3CCD0F2B1E0D0B4B8F1CABDCAE4E6
:107CC000C8EBBAAFCAFDC3FBBCB0B2CECAFDB2A20C
:107CD000D2D4BBD8B3B5BCFCBDE1CAF82E0D0A00A6
:107CE0002D2D2D2D2D2D2D2D2D2D2D2D2D2D2D2DC4
:107CF0002D2D2D2D2D2D2D2D2D2D414C49454E5405
:107D0000454B2D2D2D2D2D2D2D2D2D2D2D2D2D2D6D
:107D10002D2D2D2D2D2D2D2D2D2D2D200D0A00003D
:107D20002D2D2D2D2D2D2D2D2D2D2D2D2D2D2D2D83
:107D30002D2D2D2D2D2D2D2D2DBAAFCAFDC7E5B51D
:107D4000A52D2D2D2D2D2D2D2D2D2D2D2D2D2D2DEB
:107D50002D2D2D2D2D2D2D2D2D2D2D2D200D0A00D0
:107D6000F400002025730D0A00000000EFA000F0D1
:107D700059FE00200B901AE0FC4909689DF82C2060
:107D800001EBC20101AB02AA486803A900F072FC32
:107D9000F64800689DF82C1050F8312003A9F4A093
:107DA00000F040FE9DF82C00401CC0B20B90EF4844
:107DB000007D9DF82C108842DEDCAFF2CC3000F064
:107DC00031FE83E0AFF2D83000F02CFE0BAA03A9FD
:107DD000204600F02BFD9DF82C00C8B9694603A889
:107DE00000F0BDFB0B909DF82C0020B9E5A0009998
:107DF00000F018FE0EE09DF82C00042801D00220AF
:107E00006BE5E3A000F00EFE0120D849C87501E043
:107E1000022062E5DDA000F005FE57E0DBA000F0E7
:107E200001FE0BAA03A9204600F000FD9DF82C00DE
:107E3000C8B9694603A800F092FB0B909DF82C008E
:107E400020B9D8A0009900F0EDFD0EE09DF82C00BF
:107E5000042801D0022040E5D5A000F0E3FD002079
:107E6000C249C87501E0022037E5C8A000F0DAFD7C
:107E70002CE0C6A000F0D6FD0BAA03A9204600F016
:107E8000D5FC9DF82C00C8B9694603A800F067FB33
:107E90000B909DF82C0078B9B449009881F8EC005B
:107EA000084690F8EC0018B1C6A000F0BBFD07E052
:107EB000CBA000F0B7FD03E002200EE502200CE5A8
:107EC000B2A000F0AFFD01E0012006E500BF0020F8
:107ED00003E510B50121C948FFF7C4FB4FF6FF7158
:107EE000C648FFF78FFB0021C448FFF789FB00203D
:107EF0009E49C1F8F00010BD10B50121BF48FFF741
:107F0000A8FB012808D19948D0F8F0004FF6FF717E
:107F100008449649C1F8F000B848FFF794FB93492C
:107F2000D1F8F01008449149C1F8F0000846D0F8A3
:107F3000F00010BD10B50121B048FFF796FB0128F5
:107F40000AD18A49086980470021AC48FFF758FBED
:107F50006421AA48FFF756FB0121A848FFF796FBCA
:107F600010BD7FB505460C4601210420FEF729FA15
:107F7000ADF80850ADF804400020ADF80A00ADF8A7
:107F8000060001A99D48FEF74BFD012241219B48B7
:107F9000FFF7BDF81E208DF8000003208DF80100CA
:107FA0008DF8020001208DF803006846FDF771FB93
:107FB00001219248FFF790F87FBD10B5044604EB0D
:107FC000C40000EB04100122C2EB800081B24FF428
:107FD0007A70FFF7C6FF01206449C87510BD30B53F
:107FE00095B0054613AB12AA09A9284600F042FB3A
:107FF000044614B1204615B030BD0020149026E090
:108000005A4909689DF8502001EBC20113AB11AA2F
:10801000486801A900F02EFB04460CB12046EAE7AF
:1080200009A901A800F068FA60B99DF844009DF81C
:108030004810884201DD0220DDE79DF850004B49E1
:1080400088750AE09DF85000401CC0B21490474863
:10805000007D9DF850108842D2DC00BF4348007D6F
:108060009DF85010884201D10420C4E714A9284685
:1080700000F04DFC04460CB12046BCE79DF85000D2
:108080003A4948750020B6E72DE9F0419AB03748E3
:10809000847D007DA04202DC1AB0BDE8F081334946
:1080A000096801EBC40106AB07AA486808A900F0FB
:1080B000E1FA08A952A000F0B5FC0026BAE02B486E
:1080C000008B0121B1400840D8B122214EA000F020
:1080D000A9FC304600F00EFC2449243147183946EB
:1080E0004AA000F09FFC222147A000F09BFC3046F4
:1080F00000F000FC1D492431084410A941F8260075
:108100008EE0304600F0F6FB18492431085810A9DB
:1081100041F826001548C07D30B910A850F8261047
:108120003BA000F07FFC7BE074E000002D2D2D2DA6
:108130002D2D2D2D2D2D2D2D2D2D2D2D2D2D2D2D6F
:108140002D2D2D2D2DBAAFCAFD204944202D2D2DCA
:108150002D2D2D2D2D2D2D2D2D2D2D2D2D2D2D2D4F
:108160002D2D2D2D2D2D2D2D200D0A00F40000205C
:1081700025732069642069733A0D0A305825303818
:10818000580D0A004845583A305825580D0A000045
:108190003136BDF8D6C6B2CECAFDCFD4CABE210D87
:1081A0000A0000004445433A256C750D0A000000A2
:1081B0003130BDF8D6C6B2CECAFDCFD4CABE210D6D
:1081C0000A00000052756E2054696D652043616C91
:1081D00063756C6174696F6E204F4E0D0A0000006C
:1081E00052756E2054696D652043616C63756C61D6
:1081F00074696F6E204F46460D0A0000000800406B
:108200000D0A257328000000256300002573000077
:10821000256C750010A850F8261095A000F002FCFF
:108220009DF81C00401EB04202D093A000F0FAFB63
:10823000701CC6B29DF81C008642FFF640AF8FA0AE
:1082400000F0F0FBFFF745FE8D48407D0B280DD276
:10825000DFE800F0060D151E27323F4E5F728700E3
:108260008749096851F834008047054690E0844A00
:10827000126852F8341010988847054688E0804B01
:108280001B6853F83420DDE91001904705467FE074
:108290007B4F3F6857F8343010A807C89847054609
:1082A00076E0DFF8DCC1DCF800C05CF8347010A8C0
:1082B0000FC8B84705466BE01498DFF8C4C10090BA
:1082C000DCF800C05CF8347010A80FC8B847054649
:1082D0005EE0DDE91401DFF8A8C1CDE90001DCF8BA
:1082E00000C05CF8347010A80FC8B84705464FE0CE
:1082F000DDE914121698DFF888C1CDE9001202906A
:10830000DCF800C05CF8347010A80FC8B847054608
:108310003EE0DDE91423DDE91610DFF864C1CDE9A4
:108320000023CDE90210DCF800C05CF8347010A81E
:108330000FC8B84705462BE0DDE91523DDE9171026
:10834000CDE90123CDE903101498DFF834C1009082
:10835000DCF800C05CF8347010A80FC8B8470546B8
:1083600016E0DDE91623DDE91810CDE90223CDE999
:108370000410DDE91401DFF808C1CDE90001DCF8E3
:1083800000C05CF8347010A80FC8B847054600BF9D
:1083900000BFFFF7B1FD9DF8180001280CD1384847
:1083A000C07D20B9294637A000F03CFB07E02946F4
:1083B00036A000F037FB02E033A000F033FB30487A
:1083C00090F8EC0088B12E48D0F8F0000A21B0FBFC
:1083D000F1F201FB12072A48D0F8F000B0FBF1F8E7
:1083E0003A4641462CA000F01DFB00BF54E670B594
:1083F0003148008800F40040002833D02E4805782A
:1084000000202E4948551E4881682C48884704465C
:108410001CB91B49C868804721E02848FFF750FA7B
:108420000546012D00D02C46CCB1012C06D0022CE3
:1084300008D0032C0AD0042C10D10BE020A000F0AF
:10844000F1FA0BE021A000F0EDFA07E022A000F025
:10845000E9FA03E023A000F0E5FA00BF00BF002026
:108460001549088070BD0146086870470160704773
:1084700030582558000000002C00000029000000A2
:10848000F40000203D256C753B0D0A003D30582559
:10849000583B0D0A0000000046756E6374696F6EEC
:1084A0002052756E2054696D653A25642E2531641D
:1084B0006D730D0A0000000024000020F60100206A
:1084C000BAAFCAFDB4EDCEF3210D0A00B2CECAFD9B
:1084D000B4EDCEF3210D0A00B2CECAFDCCABB6E0AE
:1084E000210D0A00CEB4D5D2B5BDC6A5C5E4B5C42C
:1084F000BAAFCAFD210D0A0002460AE010780B78D7
:10850000984201D001207047107800B902E0521C57
:10851000491CF3E700BF0020F5E706E002780A7087
:10852000027802B902E0401C491CF7E700BF70471F
:108530000146002005E00A7802B903E0421CD0B2EF
:10854000491CF8E700BF704710B50246012000E063
:1085500050430B00A1F10104E1B2F9D110BD2DE9A6
:10856000F04307460E4600254FF00A083C4600201F
:1085700030601FE02078392802DC207830280ADAC1
:108580002078462802DC2078412804DA2078582810
:1085900009D1012D07D12078412801DB4FF01008C7
:1085A000681CC5B205E0207800B904E00120BDE8F0
:1085B000F083641CDEE700BF3C46B8F1100F0FD11A
:1085C000032D01DA0220F2E72078302806D1607806
:1085D000582803D1A41CA81EC5B204E00320E6E776
:1085E0000DB90420E3E71BE00DB1681EC5B2207889
:1085F000392806DC2078302803DB2078A0F1300908
:1086000002E02078A0F1370929464046FFF79CFF99
:10861000316809FB00103060641C207800B900E06C
:10862000E2E700BF0020C2E710B50446002010704A
:108630000BE020780870641C491C1078401C1070F6
:108640001078984201DB012010BD2078202802D04C
:1086500020780028EDD10020087000BFF4E7014623
:10866000491C00E0491C0878202801D10029F9D1D3
:10867000087870472DE9FF4F85B08046894600276E
:10868000002004900390012002904FF0000B002581
:1086900044461DE02078202816D005F07F000528EC
:1086A00012DA0DB945F0800505F07F00042803D1EA
:1086B00020782A2800D00EE0207805F07F010DF800
:1086C0000100681CC5B202E0852D00D103E0641CE6
:1086D00020780028DED100BF8DB1002005F07F0199
:1086E0000DF80100CBA16846FFF706FF18B900217D
:1086F0000898017002E001210898017000254FF0F0
:10870000000A444614E0641C0AF1010000F0FF0A6C
:108710002078202802D020782A2809D12046FFF787
:108720009EFF0646282E03D02A2E01D0CDF810A099
:108730002078282802D020780028E4D144460498E4
:1087400010B10498401C04444FF0000A002654E085
:10875000207810B94FF0010A50E02078282803D182
:1087600016B9781CC7B213E02078292808D13EB981
:1087700017B1781EC7B201E04FF0010A47B93DE0DA
:108780002078222804D10EB9012000E000200646FE
:1087900047B9207820282FD0207889F8000009F1E7
:1087A000010929E020782C2804D101200290681CBE
:1087B000C5B214E02078202811D0207828280ED0C7
:1087C0004DB9BBF1050F06DA20780DF80B000BF15F
:1087D000010000F0FF0B0298401CC0B20290012F74
:1087E0000AD10298022807D10298401CC0B2029018
:1087F0000398401CC0B20390641CA9E700BF039813
:10880000012809D100200DF80B0082A16846FFF76E
:1088100073FE08B9002003900799039808700020A0
:1088200089F80000504609B0BDE8F08FF0B5034666
:108830001546002000220026002455E01F782C2F2A
:1088400001D104B901221F78292F01D01F780FB957
:1088500004B94AE0002E34D11F78302F02DB1F7894
:10886000392F11DD1F78612F02DB1F78662F0BDD9A
:108870001F78412F02DB1F78462F05DD1F78582F08
:1088800002D01F78782F0CD102B12EE01F78612F13
:1088900003DB1F78203F0F7001E01F780F70491C29
:1088A0001FE01F78222F04D102B11EE0012601240F
:1088B00017E01F78202F14D01F782C2F11D0FF26FF
:1088C00013E01F78222F00D1002402B10DE044B143
:1088D0001F785C2F02D15B1C471CF8B21F780F7009
:1088E000491C471CF8B25B1CA8E700BF00270F70AB
:1088F0002E70F0BD02460020002105E0474B5B5C76
:108900000344D8B24B1CD9B29142F7DB70472DE932
:10891000F043B5B005460F460024002604E00021D0
:108920003E488155701CC6B20A2EF8DB06E06D1C6D
:10893000287818B9012035B0BDE8F08328782828B8
:10894000F5D16D1C61E034AA69462846FFF76EFF39
:10895000064635449DF8D00020B1012827D0FF28D5
:108960004CD149E09DF8000000B333A96846FFF7F9
:10897000F6FD06460EB10220DDE72046FFF7BAFFFE
:1089800026490A31339A0A50A1F12400008B0121B3
:10899000A140884321491A39088304211F48015501
:1089A000601CC4B20A2C01DD0320C4E726E068463F
:1089B000FFF7BEFD401C00F0FF082046FFF79AFFBE
:1089C00016490A3100EB010949466846FFF7A5FD43
:1089D00012481A38018B0120A040014388B20F4988
:1089E0001A3908830D4800F80480601CC4B20A2CB0
:1089F00001DD03209FE701E002209CE700BF28780B
:108A0000292801D0287800B900E09CE700BF3C701D
:108A1000002090E7766F6964000000000E010020DE
:108A2000704700000FB4044910B503AA029800F083
:108A300027FA10BC5DF814FB200000200FB41CB511
:108A4000074B06AA7B4469460090059800F0E9F9B7
:108A50000020694600F0F8F91CBC5DF814FB00002A
:108A60000104000070B5044685690068C10601D59F
:108A7000302600E02026C00707D070BDD4E90121D0
:108A800030469047206A401C20626D1EF6D570BDAE
:108A900070B5044685690078C00707D170BDD4E978
:108AA000012120209047206A401C20626D1EF6D5CF
:108AB00070BD70B50C460546012A05D028788006A1
:108AC00000D5EA69002302E0012305E05B1C934224
:108AD00002D2E05C0028F9D1A869E618C01AA861A2
:108AE000286A184428622846FFF7BCFF04E0D5E94D
:108AF000012114F8010B9047B442F8D32846FFF740
:108B0000C7FF70BD2DE9F0410646002410687529A5
:108B1000314616A510D0AFF30080002802DA40429B
:108B200013A507E031688A0701D512A502E04907BD
:108B300004D511A5012401E0AFF3008000210A2231
:108B400006F1240709E0B0FBF2FCB0FBF2F302FBF4
:108B50001C00303078541846491C0028F3D12346B5
:108B60002A463046BDE8F04100F0FCB800000000A5
:108B70002D0000002B0000002000000070B504460E
:108B80000D4621461068AFF300802188090502D503
:108B90000F4A7A4402E00E4A7A440E32002104F170
:108BA000240305E000F00F060009965D5E54491CA1
:108BB0000028F7D120780023000704D5702D02D0BB
:108BC00009B1022311322046BDE8704000F0CAB856
:108BD000DA1D00002DE9F05F894604464FF0000AD7
:108BE000DFF874B1FB44C0F820A02046E168884754
:108BF000002874D0252806D0D4E901219047206AA6
:108C0000401C2062F1E700265F462046E168884765
:108C10002028054607DB312D05D2781910F8200CE5
:108C200008B10643F1E7B00701D526F00406C4F801
:108C30001CA00027C4F818A02A2D09D0284600F04F
:108C400065F938B304EB8708303DC8F8185019E0CF
:108C500059F8041B204604EB87029161E1688847BC
:108C6000012F054618D1E069002820DA26F02006F9
:108C70001DE0D8F8180000EB800005EB400030380C
:108C8000C8F818002046E1688847054600F03EF91C
:108C90000028EED1012F0AD02E2D08D12046E16800
:108CA00088477F1C0546022F46F02006C4DBA069DA
:108CB000002803DA404246F00106A061F00701D027
:108CC00026F010066C2D0BD0682D09D04C2D39D014
:108CD0006A2D35D0742D35D07A2D33D016E038E09A
:108CE000E1682F4620468847B842054609D16C2FD7
:108CF00026D04FF48060E168064320468847054649
:108D000004E06C2F1AD04FF4807006430DB3A5F128
:108D10004100192802D8203546F400664A46294603
:108D2000204626604E46F7F75DFA80B101280BD049
:108D3000F61D26F0070000F1080956E74020E4E799
:108D40008020D8E70020D6E706F104094DE7284641
:108D500052E7206ABDE8F09FB01D000070477047E1
:108D6000704770472DE9F0470D46994692460446F4
:108D700000F124080168880604D5E06921F010019B
:108D8000216000E00120A84201DD471B00E0002730
:108D9000A1697A1902EB0900081AA0612078C006BF
:108DA00002D42046FFF75EFE002608E0D4E9012148
:108DB0001AF806009047206A401C761C20624E4537
:108DC000F4DB2078C0060AD52046FFF74BFE06E00C
:108DD000D4E9012130209047206A401C2062381ECF
:108DE000A7F10107F4DC07E0D4E9012118F8050038
:108DF0009047206A401C2062281EA5F10105F3DC83
:108E00002046FFF745FE2078000602D50220BDE887
:108E1000F0870120FBE7000001694A1C0261087825
:108E2000704700B58FB0CDE90131002105910549AA
:108E30007944CDE9031011466846FFF7CBFE0FB029
:108E400000BD0000E5FFFFFF0A6802F8010B0A60A1
:108E5000704710B5436913B1AFF3008001E0FFF72D
:108E600028FE012010BD127800F124010A700022B2
:108E70004A700122EDE711684FF0FF32E9E7000088
:108E8000074B70B50D467B44FFF7CBFF04462846E1
:108E900000F008F810B14FF0FF3070BD204670BDF3
:108EA00085C6FFFF007B00F080007047754600F02C
:108EB00029F8AE4605006946534620F0070085466E
:108EC00018B020B5FCF7CEFBBDE820404FF00006FF
:108ED0004FF000074FF000084FF0000B21F00701A2
:108EE000AC46ACE8C009ACE8C009ACE8C009ACE8E5
:108EF000C0098D4670470446AFF300802046F7F75F
:108F00008FF9000000487047C0AC002030380A28B4
:108F100001D2012070470020704700004FEA115332
:108F2000A3F58063D3F11E03A8BFD3F1200C08DBA7
:108F30004FF0004242EAC12252EA505232FA03F0A4
:108F4000704709420BD4102BC4BF0020704703F5B3
:108F5000787CBCF1FF3F05D04FF0FF3070474FF0F9
:108F60000000704770B500F0C3F800BF499224803C
:108F700000207047F0E7B0FA80F310FA03F10AD04E
:108F8000C3F11D0303F580634FEA41504FEA0352DA
:108F900002EBD12170474FF000007047DFF848C165
:108FA00070B51CEA111E1EBF1CEA13159EEA0C0FB9
:108FB00095EA0C0F00F06F8081EA030423EA4C135A
:108FC0004EEAD47E21EA4C1141F4801143F480131F
:108FD000AE44A1FB024CA0FB0365AEF17F7E3619C7
:108FE00055EB0C05A1FB034C4CF10003A0FB021C4C
:108FF00016EB0C06654153F10003094218BF46F019
:10900000010613F4007F0BD14FEA03314FEA05301C
:10901000340341EA155140EA16506FF003020AE0AA
:109020004FEAC3214FEAC520F40241EA555140EA14
:1090300056506FF0020202EB2E4201EB025585EA18
:10904000CE710AD05FEA440C18BF24F0004450F1FE
:10905000000041F1000120EAD47040F2FE7C62453C
:1090600000D270BDA84214BF4FF080444FF040447E
:10907000002E08BF0024BEF1806FA8BFA1F1C0413F
:10908000BDE8704080F282804FF0000001F1C041E5
:1090900001F0004170479EEA0C0F0CEA131518BF4F
:1090A00095EA0C0F06D04FF0000081EA030E0EF097
:1090B000004170BD00F01CF88900013E00F007B8C7
:1090C00000F009B84FEA430C5FEA5C5C08D081EA23
:1090D000030100F05BB84FEA410C5FEA5C5CF6D13B
:1090E0004FF00000014970470000FF070000F87FC3
:1090F0000EF1020E2EF0030E5EF8046B364205D41C
:10910000012A43EB030515F5001F12D8012841EB96
:10911000010C1CF5001F0CD80ED14FEAD17C15F5BF
:10912000001F0CEB4C0C0CF1020C08BF4CEBD37C79
:1091300004E04FF0080C01E04FEAD37C0CEB4C0547
:1091400026FA05F606F00706B6F1040C06D20EEB79
:10915000860CBDE870404CF0010C6047DFE80CF075
:10916000090B02024FF000414FF00000A1F5002171
:1091700070BD19461046012851EB010418BFD4F503
:10918000001484BF002001F0004170BD0808A0F564
:1091900000114FEA3101704700000000000000009C
:1091A00000000000000000003F4000000000000040
:1091B00000003000400030004000000009000BC0FB
:1091C0003D000BC03D00090018C024407FE0224054
:1091D00031800000180024C01B000D803240018047
:1091E00003801C4027401C800740004010006000A6
:1091F00000000000000000000000000000001F80D0
:10920000204040200000402020401F80000000003F
:10921000090006001F800600090000000400040089
:109220003F80040004000000001000600000000007
:10923000000000000400040004000400040000001A
:10924000000000400000000000000000002001C0FD
:1092500006003800400000001F80204020402040D1
:109260001F800000000010403FC0004000000000D0
:1092700018C02140224024401840000010802040A7
:10928000244024401B80000002000D0011003FC05C
:10929000014000003C802440244024402380000002
:1092A0001F80244024403440038000003000200010
:1092B00027C03800200000001B80244024402440A8
:1092C0001B8000001C0022C0224022401F800000A2
:1092D0000000000008400000000000000000000046
:1092E0000460000000000000000004000A001100FB
:1092F0002080404009000900090009000900000021
:1093000000004040208011000A00040018002000E6
:1093100023402400180000001F80204027402940DF
:109320001F400000004007C039000F0001C000408E
:1093300020403FC0244024401B8000001F8020406C
:10934000204020403080000020403FC0204020408E
:109350001F80000020403FC024402E4030C000004D
:1093600020403FC024402E00300000000F0010803D
:10937000204022403380020020403FC0040004000F
:109380003FC02040204020403FC0204020400000FF
:109390000060202020203FC02000200020403FC04F
:1093A00024400B0030C0204020403FC020400040FF
:1093B000004000C03FC03C0003C03C003FC0000074
:1093C00020403FC00C4023003FC020001F802040B1
:1093D000204020401F80000020403FC02440240047
:1093E000180000001F802140214020E01FA0000045
:1093F00020403FC02440260019C0004018C024402F
:109400002440224031800000300020403FC02040F6
:109410003000000020003F80004000403F802000DE
:1094200020003E0001C0070038002000380007C0BF
:109430003C0007C038000000204039C0060039C099
:10944000204000002000384007C0384020000000C5
:10945000304021C02640384020C0000000000000FD
:109460007FE0402040200000000070000C000380DE
:10947000004000000000402040207FE0000000008D
:10948000000020004000200000000000001000103C
:10949000001000100010001000000000400000004C
:1094A00000000000000002800540054003C00040AD
:1094B00020003FC0044004400380000000000380FF
:1094C00004400440064000000000038004402440A3
:1094D0003FC00040000003800540054003400000FD
:1094E000000004401FC0244024402000000002E08F
:1094F000055005500650042020403FC004400400A1
:1095000003C000400000044027C0004000000000ED
:1095100000100010041027E00000000020403FC0B1
:109520000140070004C00440204020403FC00040EC
:109530000040000007C0040007C0040003C0000092
:10954000044007C00440040003C000400000038042
:109550000440044003800000041007F0045004405D
:1095600003800000000003800440045007F0001056
:10957000044007C002400400040000000000064050
:109580000540054004C00000000004001F800440A6
:1095900000400000040007800040044007C0004075
:1095A0000400070004C0018006000400060001C09A
:1095B000070001C006000000044006C0010006C00C
:1095C000044000000410071004E0018006000400BD
:1095D0000000044005C006400440000000000000F8
:1095E00004007BE040200000000000000000FFF0CD
:1095F00000000000000040207BE0040000000000AC
:1096000040008000400020002000400000000000DA
:10961000000000000000000000000000000000004A
:1096200000001FCC000C000000000000000008003B
:10963000300060000800300060000000022003FCE1
:109640001E20022003FC1E200220000000000E1835
:1096500011043FFF10840C78000000000F001084FC
:109660000F3800C0077818840078000000780F8455
:1096700010C411240E9800E400840008080068005B
:10968000700000000000000000000000000000006A
:10969000000007E01818200440020000000040020B
:1096A0002004181807E000000000000002400240FB
:1096B00001800FF001800240024000000080008025
:1096C00000800FF800800080008000000001000D85
:1096D000000E0000000000000000000000000080FC
:1096E0000080008000800080008000800000000C6E
:1096F000000C000000000000000000000000000658
:10970000001800600180060018002000000007F02B
:10971000080810041004080807F0000000000804FE
:1097200008041FFC000400040000000000000E0CF0
:1097300010141024104411840E0C000000000C18AA
:1097400010041104110412880C700000000000E0E5
:109750000320042408241FFC0024000000001F989C
:10976000108411041104108810700000000007F02C
:1097700008881104110418880070000000001C0003
:10978000100010FC13001C001000000000000E3838
:1097900011441084108411440E38000000000700AA
:1097A000088C10441044088807F0000000000000F6
:1097B0000000030C030C000000000000000000008B
:1097C0000001010600000000000000000000008011
:1097D00001400220041008081004000002200220AA
:1097E00002200220022002200220000000001004BB
:1097F00008080410022001400080000000000E0054
:109800001200100C106C10800F00000003E00C1808
:1098100013E4142417C4082807D000000004003CF7
:1098200003C41C40074000E4001C000410041FFC9B
:109830001104110411040E880070000003E00C18DC
:1098400010041004100410081C10000010041FFC69
:10985000100410041004080807F0000010041FFC96
:109860001104110417C410040818000010041FFC90
:109870001104110017C010000800000003E00C18CC
:109880001004100410441C780040000010041FFC59
:1098900010840080008010841FFC1004000010045D
:1098A00010041FFC1004100400000000000300015D
:1098B000100110011FFE10001000000010041FFC1A
:1098C000110403801464181C1004000010041FFC11
:1098D0001004000400040004000C000010041FFC2D
:1098E0001F0000FC1F001FFC1004000010041FFCE0
:1098F0000C04030000E010181FFC100007F008081B
:10990000100410041004080807F0000010041FFCE5
:1099100010841080108010800F00000007F00818DD
:1099200010241024101C080A07F2000010041FFC69
:109930001104110011C011300E0C000400000E1CA7
:1099400011041084108410441C380000180010000A
:1099500010041FFC100410001800000010001FF875
:1099600010040004000410041FF8100010001E0072
:1099700011E0001C007013801C0010001FC0103C80
:1099800000E01F0000E0103C1FC000001004180C95
:10999000163401C001C01634180C100410001C004D
:1099A000130400FC13041C00100000000804101C29
:1099B0001064108413041C04101800000000000040
:1099C00000007FFE40024002400200000000300024
:1099D0000C0003800060001C000300000000400237
:1099E000400240027FFE0000000000000000000076
:1099F0002000400040004000200000000001000165
:109A00000001000100010001000100010000400010
:109A1000400020000000000000000000000000984E
:109A2000012401440144014400FC000410001FFC17
:109A3000008801040104008800700000000000702C
:109A40000088010401040104008800000000007087
:109A500000880104010411081FFC0004000000F844
:109A6000014401440144014400C800000000010415
:109A700001040FFC1104110411001800000000D6AD
:109A800001290129012901C90106000010041FFC58
:109A9000008401000100010400FC00040000010436
:109AA000190419FC00040004000000000000000379
:109AB00000010101190119FE0000000010041FFC43
:109AC0000024004001B4010C010400000000100457
:109AD00010041FFC0004000400000000010401FC4D
:109AE0000104010001FC0104010000FC010401FC6F
:109AF000008401000100010400FC0004000000F8E3
:109B0000010401040104010400F80000010101FF47
:109B1000008501040104008800700000000000704E
:109B2000008801040104010501FF00010104010492
:109B300001FC00840104010001800000000000CC51
:109B400001240124012401240198000000000100E7
:109B5000010007F80104010400000000010001F801
:109B6000000400040004010801FC0004010001805D
:109B70000170000C001001600180010001F0010C77
:109B8000003001C00030010C01F0010000000104B0
:109B9000018C00740170018C01040000010101813D
:109BA0000171000E001801600180010000000184B5
:109BB000010C013401440184010C0000000000008C
:109BC0000000000001003EFC4002400200000000D6
:109BD00000000000FFFF0000000000000000400245
:109BE00040023EFC01000000000000000000600098
:109BF00080008000400040002000200000000000A5
:109C00000000000000000000000000000000000054
:109C10000000000000000000000000000000000044
:109C20000000000000000000000000000000000F25
:109C300080380FFE380F8038000000000000000060
:109C4000000000000000000000000100000600000D
:109C50000C00003800003100000600000C00003845
:109C6000000030000000000000000000618000677C
:109C7000F807F980006180006180006180006180E8
:109C80000067F807F9800061800000000000000014
:109C9000000001C0E003E0F00630080418081FFFD0
:109CA000FE040E080787F00381E0000000000000BA
:109CB00001F000060C00040408060C7001F9C00055
:109CC0000E00003BE000EC18070808040C18000325
:109CD000E00000000001E00007F003F818041C0891
:109CE00004170807E1D003C0E00023B0003C0800DF
:109CF00020080000100000000000000100003100FA
:109D0000003200001C000000000000000000000005
:109D10000000000000000000000000000000000043
:109D20000000000000000000000000007F0001FFB4
:109D3000C00780F00C001810000420000200000092
:109D40000000002000021000040C00180780F00141
:109D5000FFC0007F000000000000000000000000C5
:109D600000000000000000004200006600006600E5
:109D7000003C0000180003FFC0001800003C000079
:109D800066000066000042000000000008000008B5
:109D90000000080000080000080001FFC0000800E3
:109DA0000008000008000008000008000000000093
:109DB000000100003100003200001C000000000023
:109DC0000000000000000000000000000000000093
:109DD0000000000008000008000008000008000063
:109DE0000800000800000800000800000800000843
:109DF00000000000000000000000000038000038F3
:109E0000000038000000000000000000000000001A
:109E1000000000000000000000000000000600003C
:109E20001C000070000180000E0000380000C0001F
:109E30000700001C000030000000000000000000CF
:109E40007F8001FFE0038070060018040008040012
:109E50000806001803807001FFE0007F800000000A
:109E600000000000000001000801000801000803D4
:109E7000FFF807FFF80000080000080000080000D5
:109E80000000000000000001C03802C05804009823
:109E9000040118040218040418061C1803F8180119
:109EA000E0F800000000000000000001C0E003C076
:109EB000F004000804080804080806180803F41849
:109EC00001E7F00001E000000000000000000000D9
:109ED0000300000D00001100006100008108030173
:109EE0000807FFF80FFFF800010800010800000054
:109EF0000000000000E007FCD00608080610080675
:109F00001008061008061838060FF00607C00000F3
:109F100000000000000000003F8001FFE0038430EB
:109F20000208180410080410080410080718100389
:109F30000FF00007C000000000000000000003C098
:109F4000000700000600000600F80607F8061800E3
:109F500006E000070000060000000000000000010D
:109F6000E1E003F7F0063410041808041808040CA4
:109F700008040C0806161803F3F001C1E000000005
:109F800000000000F80003FC300306380402080457
:109F900002080402080404100308F001FFC0007F57
:109FA00000000000000000000000000000000000B1
:109FB00000000000703800703800703800000000A9
:109FC0000000000000000000000000000000000091
:109FD0000000000000000000301A00301C000000EB
:109FE0000000000000000000000000000000000071
:109FF0000000000800001400002200004100008062
:10A000008001004002002004001008000800000049
:10A0100000000000210000210000210000210000BC
:10A02000210000210000210000210000210000216A
:10A0300000000000000000000000080008040010FC
:10A04000020020010040008080004100002200004A
:10A05000140000080000000000000003C00004C05D
:10A0600000040000080038080F38080838081000FD
:10A070000C300007E00003C00000000000000000FA
:10A080003F8000FFE0038070020F1006708804C05C
:10A0900088048308047F8802C09003012000FE40EA
:10A0A0000000080000180001F8003E0801C2000787
:10A0B000020007E20000FE00001FC80001F80000D7
:10A0C0003800000804000807FFF807FFF804080834
:10A0D00004080804080804080806180803F418010E
:10A0E000E7F00001E0000000000000003F8001FFF9
:10A0F000E00380700200180400080400080400084F
:10A100000400100600200780C000000004000807BB
:10A11000FFF807FFF8040008040008040008040022
:10A120001802001003807001FFE0007F8000000033
:10A1300004000807FFF807FFF804080804080804EB
:10A140000808040808043E08040008060018010076
:10A150006000000004000807FFF807FFF804080883
:10A16000040800040800040800043E00060000067D
:10A170000000018000000000000000003F8001FF9F
:10A18000E0038070060018040008040208040208B6
:10A190000203F00783F00002000002000400080739
:10A1A000FFF807FFF804080800080000080000088E
:10A1B0000000080004080807FFF807FFF80400087B
:10A1C0000000000000000400080400080400080764
:10A1D000FFF807FFF8040008040008040008000066
:10A1E0000000000000000000000600000700000161
:10A1F00004000104000104000307FFFE07FFFC0444
:10A20000000004000004000004000807FFF807FF36
:10A21000F8040C08001800003E0004C7800503C8BD
:10A220000600F804003804001800000804000807BD
:10A23000FFF807FFF804000800000800000800000D
:10A24000080000080000080000180000600000007E
:10A2500004000807FFF807800807FC00007FC00023
:10A2600003F80007C000780007800807FFF807FF21
:10A27000F804000804000807FFF807000803C000FE
:10A2800000E000003800001E000007000001C004CC
:10A2900000F007FFF8040000000000007F8001FFCD
:10A2A000E003807006001804000804000806001887
:10A2B00003003001FFE0007F800000000400080779
:10A2C000FFF807FFF8040408040400040400040471
:10A2D00000040400060C0003F80001F00000000078
:10A2E000000000007F8001FFE0038070060088040A
:10A2F00000880400C806003C03003E01FFE6007F22
:10A300008400000004000807FFF807FFF8040808AD
:10A31000040800040C00040F00040BC00610F00336
:10A32000F03801E00800000800000001E0F803F048
:10A3300030063010041808041808040C08040C082F
:10A340000206180207F00781E00000000180000605
:10A35000000004000004000004000807FFF807FFE5
:10A36000F80400080400000400000600000180005A
:10A3700004000007FFE007FFF004001800000800D9
:10A38000000800000800000800000804001007FF93
:10A39000E004000004000006000007E00007FE00E3
:10A3A000041FE00001F80000380001E0043E00074F
:10A3B000C00006000004000004000007E00007FFE2
:10A3C000C0041FF80007C007F80007FF80043FF82B
:10A3D0000007C004F80007000004000000000004AB
:10A3E000000806001807C07805F1C8003E00001FED
:10A3F000800463E80780F8060018040008000000E5
:10A4000004000006000007800007E008047C080044
:10A410001FF80007F800180804E00807000006000D
:10A42000000400000000000100080600380400F8E5
:10A430000403E8040F08047C0805F00807C00807B7
:10A440000018040060000000000000000000000090
:10A45000000000000000003FFFFE2000022000027C
:10A460002000022000022000020000000000000086
:10A47000000008000007000000C0000038000006CF
:10A48000000001C000003000000E000001000000CC
:10A490000000000000002000022000022000022036
:10A4A00000022000023FFFFE00000000000000004C
:10A4B0000000000000000000000000000008000094
:10A4C00010000030000020000030000010000008E4
:10A4D000000000000000000000000100000100007A
:10A4E0000100000100000100000100000100000166
:10A4F0000000010000010000010000010000000058
:10A5000000000000002000002000001000001000EB
:10A51000000000000000000000000000000000003B
:10A520000000000000F00019F8001B1800220800CD
:10A530002608002408002410003FF8001FF800003F
:10A540000800001800000004000007FFF80FFFF0EB
:10A55000001818001008002008002008003018001B
:10A560001FF0000FC00000000000000007C0001F27
:10A57000F0001830002008002008002008003C08E7
:10A58000001C10000060000000000000000000003F
:10A5900007C0001FF0003818002008002008002025
:10A5A0000804101007FFF80FFFF000001000000073
:10A5B0000000000000000007C0001FF00012300083
:10A5C0002218002208002208003208001E10000E87
:10A5D00020000000000000002000002008002008EB
:10A5E00001FFF803FFF806200804200804200807EC
:10A5F000200003000000000000000000000E000E1C
:10A600006E001FF30031B10020B10020B100319184
:10A61000001F13002E1E00200E003000000000045A
:10A62000000807FFF80FFFF80010080020000020C6
:10A6300000002008003FF8001FF80000080000009C
:10A64000000000000000002008002008002008068C
:10A650003FF8063FF800000800000800000800006E
:10A6600000000000000000000000000003000003E4
:10A67000002001002001002003063FFE063FFC00F1
:10A68000000000000000000000000004000807FFB8
:10A69000F80FFFF8000188000300002FC00038F811
:10A6A0000020380020080000080000000000000022
:10A6B000000004000804000804000807FFF80FFF6A
:10A6C000F80000080000080000080000000000007A
:10A6D000002008003FF8003FF800100800200000AC
:10A6E0003FF8003FF8001008002000003FF8003F4E
:10A6F000F8000008000000002008003FF8003FF8C4
:10A70000001008001000002000002008003FF800A2
:10A710001FF80000080000000000000007C0000F44
:10A72000F000183000300800200800200800300831
:10A73000001830000FF00007C0000000000000000B
:10A740002001003FFF003FFF001011002009002002
:10A7500008002008003038001FF0000FC000000083
:10A760000000000007C0001FF0003818002008009B
:10A770002008002009001011001FFF003FFF00000B
:10A7800001000000002008002008002008003FF819
:10A79000003FF80008080010080020080020000012
:10A7A0003000003000000000000000000000000C3D
:10A7B00078001E18003308002308002108002188B3
:10A7C0000021980030F00038600000000000000018
:10A7D000200000200000200000FFF003FFF8002010
:10A7E00008002008002008000030000000000000E1
:10A7F000000000002000003FF0007FF8000018007B
:10A800000008000008002010003FF8007FF0000062
:10A8100010000000000000002000003000003C009C
:10A82000003F800023F000007800007000238000CB
:10A830003C00003000002000002000003C00003FF1
:10A84000E00023F80000E0002700003E00003FE0A9
:10A850000021F80001E0003E0000200000000000A0
:10A860002008002008003838003E680027800003D8
:10A87000C8002CF80038380020180020080000001C
:10A88000000000002000003003003C01003F830076
:10A8900023EC000070002380003C0000200000201A
:10A8A0000000000000000000000000380800203810
:10A8B0000020F80023E8002F88003E080038080038
:10A8C00020180000700000000000000000000000E0
:10A8D000000000000000000008000014001FF7FC4A
:10A8E0003000062000020000000000000000000010
:10A8F0000000000000000000000000000000FFFF5A
:10A90000FF00000000000000000000000000000048
:10A910000000000000002000023000061FF7FC00CD
:10A92000140000080000000000000000000000000B
:10A93000000000000000001800006000004000005F
:10A940004000002000001000000800000400000487
:10A9500000000C000010000000050000007800005E
:10A96000200000002000000000A0000000000F00F8
:10A970003031323334353637383941424344454635
:10A98000403058003031323334353637383961622F
:10A990006364656640307800040000080000000031
:10A9A0000000000200010000100000003F00000055
:10A9B000646563006964000072756E74696D65009A
:10A9C00068656C70000000006C6973740000000022
:10A9D00068657800766F6964204C43445F44726117
:10A9E0007752656374616E676C65287531362078BF
:10A9F000312C207531362079312C20753136207874
:10AA0000322C20753136207932290000766F696446
:10AA1000204C43445F447261774C696E6528753100
:10AA2000362078312C207531362079312C20753143
:10AA3000362078322C2075313620793229000000FA
:10AA4000766F69642066736D635F7372616D5F74A6
:10AA50006573745F77726974652875333220616439
:10AA600064722C753820646174612900766F6964A2
:10AA7000202A6D796D616C6C6F63287538206D6567
:10AA80006D782C7533322073697A652900000000D7
:10AA9000766F6964204C43445F53686F774E756DE1
:10AAA0002875313620782C75313620792C75333263
:10AAB000206E756D2C7538206C656E2C7538207382
:10AAC000697A652900000000766F696420777269F1
:10AAD00074655F61646472287533322061646472E6
:10AAE0002C7533322076616C29000000766F696422
:10AAF000204C43445F53686F77537472696E6728C4
:10AB000075313620782C75313620792C7531362008
:10AB100077696474682C7531362068656967687474
:10AB20002C75382073697A652C7538202A702900B5
:10AB3000766F696420447261775F436972636C6504
:10AB4000287531362078302C7531362079302C75C7
:10AB5000382072290000000075382066736D635F2D
:10AB60007372616D5F746573745F7265616428757B
:10AB70003332206164647229000000007533322092
:10AB8000726561645F616464722875333220616448
:10AB900064722900766F6964204C43445F436C659E
:10ABA00061722875313620436F6C6F722900000086
:10ABB000766F6964204C43445F46696C6C2875313C
:10ABC0003620787374612C75313620797374612C5A
:10ABD0007531362078656E642C7531362079656E56
:10ABE000642C75313620636F6C6F72290000000091
:10ABF000766F6964206D7966726565287538206D99
:10AC0000656D782C766F6964202A70747229000053
:10AC1000766F69642064656C61795F6D7328753146
:10AC200036206E6D73290000766F69642064656C50
:10AC300061795F757328753332206E757329000052
:10AC4000753136204C43445F52656164506F696EC4
:10AC5000742875313620782C75313620792900001A
:10AC600080AC000800000020E80100006C01000832
:10AC700048AD0008E801002038B10000C801000814
:10AC80001184A24A04300A010203040607080901DC
:10AC90000310FFFF291E6922250204060813C3764C
:10ACA0001B08F90413C00232202C68C0A208430F0D
:10ACB000681BACA91819041AC8041AB4041AD004E1
:10ACC0001AB0041AB80413678414087CAB1B086D0F
:10ACD0000813C8AA1408AF541C0810AC1819081A95
:10ACE000280813B5151B0894201B814D341908132F
:10ACF0009B4E1B080C28134B4F1B08D4401A870887
:10AD00001A30181345511B08901813B5521B08EC44
:10AD10000813C10A1B0840401A01481A40101A11B2
:10AD2000081A58281347781B086C101A27081AF0BD
:10AD30001022741420BB7F1B08DF041389801C08B9
:08AD4000EF838019E101DC0042
:0400000508000131BD
:00000001FF
