:020000040800F2
:1000000058060020450100084D0100084F01000876
:1000100051010008530100085501000800000000CC
:100020000000000000000000000000005701000870
:1000300059010008000000005B010008412400088D
:100040005F0100085F0100085F0100085F01000810
:100050005F0100085F0100085F0100085F01000800
:100060005F0100085F0100085F0100085F010008F0
:100070005F0100085F0100085F0100085F010008E0
:100080005F0100085F0100085F0100085F010008D0
:100090005F0100085F0100085F0100085F010008C0
:1000A0005F010008D13400085F0100085F0100080B
:1000B0005F0100080B300008E92F00085F0100080D
:1000C0005F0100085F0100085F0100085F01000890
:1000D0005F010008553300085F0100085F01000858
:1000E0005F0100085F0100085F0100085F01000870
:1000F0005F0100085F0100085F0100085F01000860
:100100005F0100085F0100083D3400085F0100083E
:100110005F0100085F0100085F0100085F0100083F
:100120005F0100085F0100085F0100085F0100082F
:10013000DFF80CD003F0D8FB004800476531000819
:10014000580600200648804706480047FEE7FEE7BD
:10015000FEE7FEE7FEE7FEE7FEE7FEE7FEE7FEE777
:1001600047020008310100080CB500200190009002
:100170006C48006840F480306A49086000BF6948F4
:10018000006800F4003000900198401C0190009835
:1001900018B90198B0F5A06FF1D16248006800F479
:1001A000003010B10120009001E000200090009884
:1001B000012843D15C48006840F010005A490860AB
:1001C0000846006820F0030008600846006840F018
:1001D0000200086053484068524948600846406839
:1001E00048600846406840F48060486008464068BF
:1001F00020F47C1048600846406840F4E8104860ED
:100200000846006840F08070086000BF45480068FC
:1002100000F000700028F9D04248406820F0030048
:10022000404948600846406840F00200486000BF0E
:100230003C48406800F00C000828F9D10CBD10B50E
:10024000FFF792FF10BD10B53648006840F001007E
:1002500034490860084640683449084031494860DC
:1002600008460068324908402E4908600846006880
:1002700020F4802008600846406820F4FE004860B2
:100280004FF41F008860FFF7DAFF4FF00060294944
:10029000086010BD10B5002100200022214B5B68D2
:1002A00003F00C0121B1042906D0082928D107E068
:1002B000214B224C236027E01F4B204C236023E07E
:1002C000184B5B6803F47010164B5B6803F48032C4
:1002D000022303EB904022B9194B4343174C236090
:1002E0000DE0104B5B6803F4003323B1144B434320
:1002F000124C236003E0104B4343104C236003E097
:100300000D4B0E4C236000BF00BF064B5B68C3F370
:1003100003130C4CE15C094B1B68CB40074C23607A
:1003200010BD000000100240002002400000FFF855
:10033000FFFFF6FE08ED00E000127A00000000204A
:1003400000093D000400002031490143314A116099
:10035000704770B5002100230F22C47804B32D4CE0
:10036000246804F4E064C4F5E064210AC1F10403E4
:10037000CA40447804FA03F1847814402143090107
:10038000254C0678A155047804F01F050124AC40E3
:1003900005786D11AD0005F1E025C5F8004109E0D3
:1003A000047804F01F050124AC401C4D067876113A
:1003B00045F8264070BD1A4A0A400243154B1B1FE0
:1003C0001A60704739B1134A121D12680243114B6B
:1003D0001B1D1A6006E00F4A121D126882430D4B66
:1003E0001B1D1A607047042808D14FF0E0210969ED
:1003F00041F004014FF0E022116107E04FF0E021ED
:10040000096921F004014FF0E022116170470000FA
:100410000000FA050CED00E000E400E080E100E0FF
:1004200080FFFF1F01460020FE4A106800F03800E0
:10043000084310607047FB49096821F00801F94A38
:10044000116011460968014311607047F549096858
:1004500021F01001F34A116011460968014311604F
:100460007047F148EF494860F04848607047EE48EF
:10047000EC494860ED4848607047EA48006940F040
:100480008000E84908617047E648006940F0800054
:10049000E449086170470420E249C96801F001019C
:1004A00009B101200EE0DF49C96801F0040109B17A
:1004B000022007E0DB49C96801F0100109B10320FF
:1004C00000E00420704700B502460423FFF7E3FF75
:1004D000034603E0FFF7DFFF0346521E012B01D165
:1004E000002AF7D102B90523184600BD30B50446ED
:1004F00004254FF43020FFF7E6FF0546042D17D101
:10050000C848006940F00200C649086108464461D5
:10051000006940F0400008614FF43020FFF7D3FF3E
:100520000546C048006941F6FD710840BD490861B3
:10053000284630BD10B504244FF43020FFF7C3FF28
:100540000446042C16D1B748006940F00400B549B0
:1005500008610846006940F0400008614FF430200F
:10056000FFF7B1FF0446AF48006941F6FB71084050
:10057000AC490861204610BD00B502460423FFF7D0
:100580008AFF034603E0FFF786FF0346521E012B56
:1005900001D1002AF7D102B90523184600BD10B5D4
:1005A00004244FF43020FFF7E7FF0446042C16D153
:1005B0009C48006940F004009A49086108460069B7
:1005C00040F0400008614FF43020FFF7D5FF0446AB
:1005D0009448006941F6FB71084092490861204641
:1005E00010BD00208F49C96901F0020109B1012045
:1005F00000E00020704730B5A5250424FFF7F1FF87
:1006000000B100254FF43020FFF75DFF0446042CB5
:100610003AD18548834988608448886008460069E3
:1006200040F0200008610846006940F04000086181
:100630004FF43020FFF747FF0446042C1BD17948C4
:10064000006941F6DF710840764908610846006993
:1006500040F01000086176480580E002FFF733FFA4
:100660000446052C10D06F48006941F6EF71084030
:100670006C49086108E0052C06D06A48006941F61B
:10068000EF71084067490861204630BD78B50646DD
:100690000C46042500200090E802FFF714FF0546F1
:1006A000042D24D15F48006940F001005D490861D4
:1006B0003480E802FFF707FF0546042D10D1B01C77
:1006C0000090200C00990880E802FFF7FCFE054628
:1006D0005448006941F6FE7108405249086106E03D
:1006E0005048006941F6FE7108404E4908612846AD
:1006F00078BD70B504460D460426F002FFF7E3FE10
:100700000646042E11D14748006940F001004549D2
:1007100008612580F002FFF7D6FE064641480069D1
:1007200041F6FE7108403F490861304670BD70B522
:1007300005460E460424E002FFF7C5FE0446042CDD
:1007400017D13948374988603848886008460069B9
:1007500040F0100008612E80E002FFF7B4FE04466E
:10076000052C06D02F48006941F6EF7108402D494D
:100770000861204670BD2DE9F04304464FF6FF7630
:100780003746B046B1460425E443E6B2C4F3072732
:10079000C4F307484FEA1469E802FFF794FE0546E0
:1007A000042D49D120481F498860204888600846A8
:1007B000006940F010000861FF2E06D01C48083088
:1007C0000680E802FFF77FFE0546042D08D1FF2FC3
:1007D00006D017480A300780E802FFF774FE054686
:1007E000042D0AD1B8F1FF0F07D011480C30A0F842
:1007F0000080E802FFF767FE0546042D0AD1B9F133
:10080000FF0F07D00A480E30A0F80090E802FFF76B
:100810005AFE0546052D0FD00248006941F6EF71DA
:10082000084007E00020024023016745AB89EFCD77
:1008300000F8FF1F664908612846BDE8F08330B51F
:10084000054604244FF43020FFF73DFE0446042CF7
:1008500041D160485E4988605F4888600846006909
:1008600040F0200008610846006940F0400008613F
:100870004FF43020FFF727FE0446042C22D15448C1
:10088000006941F6DF710840514908610846006976
:1008900040F0100008611DB100205049088002E0BE
:1008A000A5204E4908804FF43020FFF70CFE044687
:1008B000052C10D04648006941F6EF7108404449C4
:1008C000086108E0052C06D04148006941F6DF7157
:1008D00008403F490861204630BDF0B505460E4648
:1008E000174604243B483A4988603B488860E00248
:1008F000FFF7E9FD0446042C19D13548006940F0A2
:1009000010003349086147F0F80030432843334969
:10091000891C0880E002FFF7D6FD0446052C06D0AE
:100920002B48006941F6EF710840294908612046CB
:10093000F0BD2748C069800870472548006A7047A5
:1009400000202349096801F0200109B1012000E0DD
:100950000020704729B11E4A126902431C4B1A61DC
:1009600004E01B4A12698243194B1A617047014621
:100970000020012908D1164AD26902F001020AB109
:10098000012008E0002006E0114AD2680A400AB1BE
:10099000012000E0002070470D49C8607047042026
:1009A0000B49C96801F0010109B101200EE00849B5
:1009B000C96801F0040109B1022007E00449C968CF
:1009C00001F0100109B1032000E00420704700008D
:1009D0000020024023016745AB89EFCD00F8FF1FDF
:1009E00010B50446CC48844208D10121042000F00F
:1009F0004DFB0021042000F049FB46E0C74884423B
:100A000008D10121082000F041FB0021082000F05E
:100A10003DFB3AE0C248844208D10121102000F099
:100A200035FB0021102000F031FB2EE0BD48844250
:100A300008D10121202000F029FB0021202000F016
:100A400025FB22E0B848844208D10121402000F073
:100A50001DFB0021402000F019FB16E0B348844242
:100A600008D10121802000F011FB0021802000F03E
:100A70000DFB0AE0AE48844207D10121801500F049
:100A800005FB0021A01500F001FB10BD10B50121F0
:100A9000084600F0FBFA0021012000F0F7FA10BD33
:100AA0002DE9F04102460025002600200023002405
:100AB000002791F803C00CF00F0591F803C00CF06B
:100AC000100CBCF1000F03D091F802C04CEA0505F0
:100AD00091F800C0BCF1000F31D0146800202BE069
:100AE0004FF0010C0CFA00F3B1F800C00CEA030659
:100AF0009E4220D183004FF00F0C0CFA03F7BC4349
:100B000005FA03FC4CEA040491F803C0BCF1280F79
:100B100006D14FF0010C0CFA00FCC2F814C00AE038
:100B200091F803C0BCF1480F05D14FF0010C0CFA4D
:100B300000FCC2F810C0401C0828D1D31460B1F8E2
:100B400000C0BCF1FF0F34DD546800202EE000F13E
:100B5000080C4FF0010808FA0CF3B1F800C00CEAD9
:100B600003069E4221D183004FF00F0C0CFA03F7CD
:100B7000BC4305FA03FC4CEA040491F803C0BCF141
:100B8000280F05D100F1080C08FA0CF8C2F81480FF
:100B900091F803C0BCF1480F07D100F1080C4FF0E9
:100BA000010808FA0CF8C2F81080401C0828CED3BF
:100BB0005460BDE8F0814FF6FF7101800221817021
:100BC0000421C17070470246002093680B400BB1AE
:100BD000012000E0002070470146886880B270471D
:100BE00002460020D3680B400BB1012000E000203A
:100BF00070470146C86880B2704701617047416123
:100C000070470AB1016100E041617047C1607047FF
:100C10004FF480320A438261816182618269826914
:100C2000704702460020434B18684FF68073184007
:100C300040EA021008433F4B186070473E49C861C4
:100C40007047F0B50A46002300240021002500F07B
:100C50000046B6F1004F02D1364EF16901E0354E43
:100C60007168C0F3034583B200F44016B6F5401F27
:100C700008D121F070612F4E766826F070662D4FF6
:100C80007E6012E000F48016B6F5801F06D10326C0
:100C900006FA05F4A14341F0706106E0460D360105
:100CA00003FA06F6B14341F0706122B1460D3601F8
:100CB00003FA06F6314300F00046B6F1004F02D1C8
:100CC0001C4EF16101E01B4E7160F0BD30B5002299
:100CD0008B071C0F0F2303FA04F2164B08338C10FA
:100CE00053F824309343134C08348D1044F82530C6
:100CF00023468C1053F824308C07240F00FA04F498
:100D000023430C4C08348D1044F8253030BD0A497B
:100D1000DC3108607047000000080140000C014011
:100D2000001001400014014000180140001C014067
:100D30000020014000000140000020420E490860F0
:100D400070470D49486070470B49886070474AF604
:100D5000AA200949086070474CF6CC400649086053
:100D6000704701460020044AD2680A400AB10120B7
:100D700000E000207047000000300040DF480068BD
:100D800040F00100DD49086008464068DC49084041
:100D9000DA49486008460068DA490840D7490860DF
:100DA0000846006820F4802008600846406820F467
:100DB000FE0048604FF41F0088607047CF49096803
:100DC00021F48031CD4A11601146096821F4802157
:100DD0001160B0F5803F03D0B0F5802F0ED106E052
:100DE000C649096841F48031C44A116007E0C3492B
:100DF000096841F4A021C14A116000E000BF00BFB2
:100E0000704710B501460022002300204A11012A34
:100E100002D1BA4C236806E0022A02D1B74C236AF9
:100E200001E0B64C636A01F01F02012494401C40AB
:100E30000CB1012000E0002010BD38B5002000906A
:100E40000024002500BF3120FFF7DBFF0546009896
:100E5000401C00900098B0F5A06F01D0002DF2D09A
:100E60003120FFF7CEFF08B1012400E00024204626
:100E700038BD01460020A14A106820F0F80040EA81
:100E8000C10010607047A04908607047024600200A
:100E90009A4B586820F47C1042EA01031843974BA0
:100EA0005860704798490866704701460020934A89
:100EB000506820F003000843506070478F48406836
:100EC00000F00C007047014600208C4A506820F06A
:100ED000F00008435060704701460020874A506880
:100EE00020F4E06008435060704701460020834AC8
:100EF000506820F4605040EAC1005060704729B14A
:100F00007E4A527A02437D4B5A7204E07B4A527AFF
:100F100082437A4B5A7270477B49D83108607047D8
:100F200001460020754A506820F440400843506054
:100F300070470021714A20321170704A82F82010E7
:100F4000012802D004280AD104E001216B4A203292
:100F5000117005E00521694A2032117000E000BFE0
:100F600000BF70476949086070476449096A0143D6
:100F7000624A11627047654944390860704730B56C
:100F800000210022002400235C4D6D6805F00C0157
:100F900021B1042905D0082923D105E05C4D056065
:100FA00022E05B4D05601FE0544D6D6805F4701242
:100FB000524D6D6805F48034022505EB92421CB950
:100FC000544D554305600BE04C4D6D6805F40035FC
:100FD0001DB1504D5543056002E04D4D5543056030
:100FE00002E04B4D056000BF00BF444D6D6805F049
:100FF000F0010909484D6B5C0568DD4045603F4DD7
:101000006D6805F4E061090A434D6B5C4568DD409D
:1010100085603A4D6D6805F46051C90A3E4D6B5CC0
:101020004568DD40C560354D6D6805F44041890B6C
:101030003A4D6B5CC568B5FBF3F5056130BD29B170
:101040002E4A526902432D4B5A6104E02B4A5269E1
:1010500082432A4B5A61704729B1284A9269024358
:10106000264B9A6104E0254A92698243234B9A6198
:10107000704729B1214AD2690243204BDA6104E06A
:101080001E4AD26982431D4BDA61704729B11B4A5F
:10109000D2680243194BDA6004E0184AD2688243EE
:1010A000164BDA60704729B1144A12690243134B98
:1010B0001A6104E0114A12698243104B1A617047A9
:1010C00012494039086070470F49C86470470B499E
:1010D000C87170470948406A40F08070074948620B
:1010E000704701460020054A92680A400AB1012073
:1010F00000E00020704701498872704700100240EC
:101100000000FFF8FFFFF6FE00004242800442426A
:1011100000127A0000093D00140000202400002085
:1011200010B50446FE48844208D10121C014FFF7DF
:10113000ADFF0021E014FFF7A9FFC4E0B4F1804F38
:1011400008D101210846FFF7AEFF00210120FFF77B
:10115000AAFFB8E0F348844208D101210220FFF73A
:10116000A2FF00210220FFF79EFFACE0EE48844280
:1011700008D101210420FFF796FF00210420FFF78A
:1011800092FFA0E0E948844208D101210820FFF73E
:101190008AFF00210820FFF786FF94E0E44884429C
:1011A00008D101211020FFF77EFF00211020FFF75A
:1011B0007AFF88E0DF48844208D101212020FFF730
:1011C00072FF00212020FFF76EFF7CE0DA488442A6
:1011D00008D101214014FFF759FF00216014FFF7E7
:1011E00055FF70E0D548844209D10121C804FFF7BA
:1011F0004DFF00214FF40020FFF748FF63E0D04887
:10120000844209D101210805FFF740FF00214FF476
:101210008010FFF73BFF56E0CA48844209D1012104
:101220004805FFF733FF00214FF40010FFF72EFFB2
:1012300049E0C548844208D101214020FFF733FF2F
:1012400000214020FFF72FFF3DE0C048844208D135
:1012500001218020FFF727FF00218020FFF723FFD7
:1012600031E0BB48844208D101218015FFF71BFF04
:101270000021A015FFF717FF25E0B648844209D1E9
:1012800001210804FFF702FF00214FF48030FFF72F
:10129000FDFE18E0B048844209D101214804FFF75F
:1012A000F5FE00214FF40030FFF7F0FE0BE0AB48F5
:1012B000844208D101218804FFF7E8FE00214FF4A1
:1012C0008020FFF7E3FE10BD00220288944B984275
:1012D0000ED0994B98420BD0B0F1804F08D0914B73
:1012E000984205D0904B984202D0904B984204D13E
:1012F0004FF68F731A404B881A438D4B984207D094
:101300008C4B984204D04FF6FF431A40CB881A43C7
:1013100002808B8883850B880385814B98420BD094
:10132000854B984208D08B4B984205D08A4B984207
:1013300002D08A4B984201D10B7A03860123838223
:10134000704770B5002400220023058C4FF6FE760E
:1013500035400584028C8388048B4FF68F752C40B2
:10136000B51E2C400D882C43751E2A400D892A433A
:101370004D882A436A4DA8420BD06F4DA84208D031
:10138000744DA84205D0744DA84202D0734DA842B6
:1013900013D14FF6F7752A404D892A434FF6FB7556
:1013A0002A408D882A434FF6FF652B404FF6FF55A4
:1013B0002B408D892B43CD892B4383800483CD889B
:1013C0008586028470BD70B5002400220023058C40
:1013D0004FF6EF7635400584028C8388048B48F6FF
:1013E000FF752C404FF6FF452C400D884FF6FF76D9
:1013F00006EA05252C434FF6DF752A400D8906EADB
:1014000005152A434D8806EA05152A43444DA8428E
:1014100002D0494DA8421DD14FF67F752A404D8913
:101420004FF6FF7606EA05152A434FF6BF752A40A8
:101430008D8806EA05152A434FF6FF352B404FF2FB
:10144000FF752B408D8906EA85052B43CD8906EA79
:1014500085052B4383800483CD880587028470BD76
:1014600070B5002400220023058C4FF6FF6635403E
:101470000584028C8388848B4FF68F752C404FF641
:10148000FC752C400D882C434FF6FF552A400D89E2
:101490004FF6FF7606EA05252A434D8806EA05251C
:1014A0002A431F4DA84202D0234DA8421DD14FF21E
:1014B000FF752A404D894FF6FF7606EA05252A4337
:1014C0004FF6FF352A408D8806EA05252A434EF659
:1014D000FF752B404DF6FF752B408D8906EA0515EB
:1014E0002B43CD8906EA05152B4383808483CD8861
:1014F0008587028470BD70B5002200230024058C0E
:101500004EF6FF7635400584038C8488828B48F63E
:10151000FF752A404FF6FF452A400D8820E0000065
:10152000002C01400004004000080040000C004076
:10153000001000400014004000340140004C014005
:10154000005001400054014000180040001C0040C1
:10155000002000400040014000440140004801409C
:101560004FF6FF7606EA05252A434DF6FF752B4018
:101570000D8906EA05352B434D8806EA05352B43D0
:10158000FA4DA84202D0FA4DA84208D14BF6FF7599
:101590002C408D894FF6FF7606EA85152C43848012
:1015A0008283CD88A0F84050038470BD828B4FF2B7
:1015B000FF331A408283828B4FF6FF7303EA0123C5
:1015C0001A4382837047F0B50C461546002200216D
:1015D0000026078C4EF6FF7C07EA0C070784828BF7
:1015E000018C4FF6FF7707EA043640F6FF473A4092
:1015F0004FF6FF7707EA05273A434FF6FF7707EAEA
:1016000003373A43D94FB8420ED0D94FB8420BD026
:10161000B0F1804F08D0D74FB84205D0D64FB8426E
:1016200002D0D64FB84206D14DF6FF77394046F486
:101630008057394305E047F6FF57394044F4805757
:10164000394382830184F0BD828B4FF6F3731A40D5
:101650008283828B0A4382837047F0B50C4615461D
:10166000002200210026078C4FF6FF6C07EA0C07CA
:101670000784828B018C4FF6FF7707EA04264FF62A
:101680000C773A404FF6FF7707EA03172F433A43A8
:10169000B64FB8420ED0B64FB8420BD0B0F1804F23
:1016A00008D0B44FB84205D0B34FB84202D0B34FC0
:1016B000B84206D14FF6FF57394046F48077394398
:1016C00005E04FF2FF57394044F480773943828375
:1016D0000184F0BD028B4FF2FF331A400283028B6C
:1016E0004FF6FF7303EA01231A4302837047F0B5F4
:1016F0000C461546002200210026078C4FF6EF7C91
:1017000007EA0C070784028B018C4FF6FF7707EA84
:10171000041640F6FF473A404FF6FF7707EA0337D3
:101720003A434FF6FF7707EA05273A438F4FB8420F
:101730000ED08F4FB8420BD0B0F1804F08D08D4FF4
:10174000B84205D08C4FB84202D08C4FB84206D177
:101750004FF6DF77394046F01007394305E04FF682
:101760005F77394044F01007394302830184F0BDAC
:10177000028B4FF6F3731A400283028B0A430283F3
:101780007047F0B50C46154600220021068C4FF636
:10179000FE773E400684028B018C4FF60C76324079
:1017A0007E1C06EA03162E433243704EB0420ED022
:1017B0006F4EB0420BD0B0F1804F08D06D4EB042AA
:1017C00005D06D4EB04202D06C4EB04206D14FF6FD
:1017D000FD76314044F00106314305E04FF6F576E1
:1017E000314044F00106314302830184F0BD70B5FD
:1017F00005460C465D4885420ED05D4885420BD0BB
:10180000B5F1804F08D05B48854205D05A488542E3
:1018100002D05A48854200D100E000BF208850B96C
:101820002389A28861882846FFF7ABFFE188284614
:10183000FFF79EFF25E0208804280AD12389A2888B
:1018400061882846FFF753FFE1882846FFF742FFEB
:1018500017E0208808280AD12389A28861882846B1
:10186000FFF7FBFEE1882846FFF7EEFE09E023893B
:10187000A28861882846FFF7A6FEE1882846FFF780
:1018800095FE70BD2DE9F04105460C460026012766
:10189000608808B9022600E00026A088012801D14E
:1018A000022700E001272088A0B92389A288618847
:1018B0002846FFF766FFE1882846FFF759FF23898E
:1018C0003A4631462846FFF712FFE1882846FFF7DF
:1018D00001FF13E02389A28861882846FFF707FFEC
:1018E000E1882846FFF7F6FE23893A463146284626
:1018F000FFF747FFE1882846FFF73AFFBDE8F08190
:101900000A884B881A438B881A43CB881A430B8961
:101910001A434B891A438B891A43A0F84420704715
:101920004FF6FF71818000210180C18041800172EA
:1019300070470021018041808180C1800181418107
:101940008181C18170470021018041800121818016
:101950000021C18001817047002101804180818088
:10196000C18001814181818170470000002C0140CC
:10197000003401400004004000080040000C00401A
:1019800021B1028842F00102028004E002884FF691
:10199000FE731A400280704731B1B0F8442042F41F
:1019A0000042A0F8442005E0B0F84420C2F30E0243
:1019B000A0F8442070471AB183890B43838102E069
:1019C00083898B43838170478182704741EA020398
:1019D000A0F8483070471AB183890B43838102E035
:1019E00083898B438381704701894FF6F8721140D8
:1019F000018170470A46002101894FF68F73194013
:101A000011430181704730B504460D4629462046F2
:101A1000FFF7F0FF208940F00700208130BD2DE95D
:101A2000F04104460D4616461F46602D06D13B4642
:101A3000012231462046FFF75AFE05E03B460122CF
:101A400031462046FFF79DFE29462046FFF7D2FF8C
:101A5000208940F007002081BDE8F08130B50C46B8
:101A600000210189C9B24FF6FF7505EA0325154328
:101A700025432943018130BD2DE9F04105460E463D
:101A800017469846002443463A4631462846FFF713
:101A9000E5FF2C894FF6F870044044F007044FF638
:101AA0008F70044044F070042C81BDE8F081F0B5E3
:101AB00004460D4616461F463B46324629462046FA
:101AC000FFF7CCFF208940F480402081F0BD0185E4
:101AD000828270470A46002101884FF68F731940B1
:101AE000114301807047F0B50C4615461E46002193
:101AF000002200230189028B038C4FF6F8773940CE
:101B000021434FF6FC473A4040F201173A434FF663
:101B1000DD773B404FF6FF7707EA06172F433B433D
:101B2000018102830384F0BD0A460021018B4FF638
:101B30008F7319401143018370470A460021018BBE
:101B400048F6FF7319404FF6FF7303EA0223194367
:101B5000018370470A460021818B4FF68F7319402D
:101B60001143818370470A460021818B48F6FF7339
:101B700019404FF6FF7303EA02231943818370472C
:101B800021B1028842F08002028004E002884FF610
:101B90007F731A400280704721B1828842F00402AC
:101BA000828004E082884FF6FB731A40828070477F
:101BB00021B1828842F00802828004E082884FF6D8
:101BC000F7731A408280704721B1828842F0010287
:101BD000828004E082884FF6FE731A40828070474C
:101BE0000A460021018B4FF6F77319401143018318
:101BF00070470A460021018B4FF2FF7319404FF6E0
:101C0000FF7303EA02231943018370470A46002148
:101C1000818B4FF6F77319401143818370470A4651
:101C20000021818B4FF2FF7319404FF6FF7303EAD7
:101C300002231943818370470A460021018B4FF626
:101C4000FB7319401143018370470A460021018B41
:101C50004FF6FF3319404FF6FF7303EA022319438F
:101C6000018370470A460021818B4FF6FB731940B0
:101C70001143818370470A460021818B4FF6FF3361
:101C800019404FF6FF7303EA02231943818370471B
:101C90000A460021018B4FF67F73194011430183DF
:101CA00070470A460021018BC1F30E014FF6FF7306
:101CB00003EA02231943018370470A460021818BFE
:101CC0004FF67F7319401143818370470A46002104
:101CD000818BC1F30E014FF6FF7303EA0223194310
:101CE000818370470A460021018C4FF6FD7319402D
:101CF0001143018470470A460021018C4FF6F773A7
:101D000019401143018470470A460021018C4FF6A7
:101D1000DF7319404FF6FF7303EA0213194301847E
:101D200070470A460021018C4FF67F7319404FF629
:101D3000FF7303EA02131943018470470A46002126
:101D4000018C4FF6FF5319404FF6FF7303EA02234D
:101D50001943018470470A460021018C4FF2FF733A
:101D600019404FF6FF7303EA0223194301847047B9
:101D70000A460021018C4DF6FF7319404FF6FF73A0
:101D800003EA023319430184704730B5002301246C
:101D90008C40A3B2048C9C430484048C02FA01F5A9
:101DA000ADB22C43048430BD30B5002304248C40F4
:101DB000A3B2048C9C430484048C02FA01F5ADB2F6
:101DC0002C43048430BD70B503460020002418461F
:101DD000183001258D40ACB21D8CA5431D8409B17E
:101DE000082909D100EB6100056825F07005056040
:101DF0000568154305600EE00D1FC5F34E05284428
:101E0000056825F4E045056005684FF6FF7606EAAB
:101E100002263543056070BD21B1028842F00202FE
:101E2000028004E002884FF6FD731A40028070477A
:101E300021B1028842F00402028004E002884FF6D9
:101E4000FB731A400280704721B1828842F0800201
:101E5000828004E082884FF67F731A408280704748
:101E600002884FF6F7731A40028002880A43028004
:101E7000704782884FF68F731A40828082880A43A7
:101E80008280704702894FF6F8731A4002810289F6
:101E90000A430281704702894FF67F731A4002811C
:101EA00002890A43028170478184704781857047A7
:101EB000818670470187704781877047A0F840107E
:101EC000704702884FF6FF431A40028002880A4397
:101ED000028070470146888E70470146088F704720
:101EE0000146888F70470146B1F8400070470146AF
:101EF000888C70470146088D704702460020138A7F
:101F00000B400BB1012000E000207047CA43028261
:101F1000704730B50246002000230024158A05EAE8
:101F20000103958905EA010413B10CB1012000E019
:101F3000002030BDCA4302827047000010B504463D
:101F4000FB48844209D101218803FFF79FF8002153
:101F50004FF48040FFF79AF832E0F648844209D106
:101F600001214804FFF79FF800214FF40030FFF7EC
:101F70009AF825E0F048844209D101218804FFF74E
:101F800092F800214FF48020FFF78DF818E0EB481D
:101F9000844209D10121C804FFF785F800214FF4DC
:101FA0000020FFF780F80BE0E548844208D10121CA
:101FB0000805FFF778F800214FF48010FFF773F859
:101FC00010BD2DE9F04786B005460E460024A24616
:101FD00000BFA1460027B08900B100BF2F462C8A60
:101FE0004CF6FF700440F08804432C82AC894EF616
:101FF000F3100440B08831890843718908430443D1
:10200000AC81AC8A4FF6FF400440B0890443AC82F7
:1020100001A8FEF7B4FFC648874202D1DDF810A040
:1020200001E0DDF80CA0A88900F4004040B10AEB03
:10203000CA0000EB0A1031684900B0FBF1F807E074
:102040000AEBCA0000EB0A1031688900B0FBF1F816
:102050006420B8FBF0F004012009642101FB108921
:10206000A88900F4004040B1322000EBC900B0FB69
:10207000F1F000F00700044308E0322000EB091003
:102080006421B0FBF1F000F00F0004432C8106B096
:10209000BDE8F0874FF41651016000218180C180B6
:1020A00001810C21418100218181704710B50246D8
:1020B0000020108A4FF2FF0318400B884C882343FE
:1020C0008C882343CC8823431843108210BD002101
:1020D000018041808180C180704721B1828942F4B2
:1020E0000052828104E082894DF6FF731A4082819A
:1020F0007047F0B50346002400260025002040F676
:102100006A17B94200D100BF1846C1F3421401F06A
:102110001F06012707FA06F5012C01D10C3004E057
:10212000022C01D1103000E014301AB107682F439F
:10213000076002E00768AF430760F0BD1AB1838A09
:102140000B43838202E0838A8B4383827047028A37
:102150004FF6F0731A400282028A0A4302827047E5
:1021600082894FF2FF731A40828182890A438281F9
:10217000704721B1828942F00202828104E08289A3
:102180004FF6FD731A4082817047028A4FF6DF7363
:102190001A400282028A0A430282704721B1028AEF
:1021A00042F48042028204E0028A4BF6FF731A4036
:1021B00002827047C1F30802828070470146888816
:1021C000C0F308007047818941F0010181817047A7
:1021D000028BD2B20283028B42EA01220283704751
:1021E000028B02F47F420283028B0A430283704710
:1021F00021B1828A42F02002828204E0828A4FF674
:10220000DF731A408282704721B1828A42F0100245
:10221000828204E0828A4FF6EF731A40828270470E
:1022200021B1828A42F00802828204E0828A4FF65B
:10223000F7731A408282704721B1828942F40042CA
:10224000828103E08289C2F30E028281704721B14C
:10225000828A42F40062828204E0828A4FF2FF7333
:102260001A4082827047828A4FF6FB731A4082823C
:10227000828A0A438282704721B1828A42F0020236
:10228000828204E0828A4FF6FD731A408282704790
:1022900002460020B1F5007F00D100BF13880B403B
:1022A0000BB1012000E00020704701F40072B2F58C
:1022B000007F00D100BFCA430280704770B502465C
:1022C000002400230025002040F66A16B14200D108
:1022D00000BFC1F3421501F01F03012606FA03F304
:1022E000012D02D19689334006E0022D02D1168AD3
:1022F000334001E0968A33400C12012606FA04F4BA
:102300001688344013B10CB1012000E0002070BDEC
:1023100010B50022002340F66A14A14200D100BF8C
:102320000A1201249440A3B2DC43048010BD0000D3
:10233000003801400044004000480040004C00408C
:10234000005000404FF0E021096921F004014FF0F6
:10235000E0221161C21700EB5272C2F3C702404B78
:102360001A701946097801EB4102C2EBC1114FF610
:10237000FF7202EAC1013B4A118070470146394AA7
:1023800012884A434FF0E0235A6100229A610122E9
:102390001A6100BF4FF0E022106900F001021AB18B
:1023A00000F48032002AF5D000224FF0E0231A61B9
:1023B0009A61704701462A4A12784A434FF0E02357
:1023C0005A6100229A6101221A6100BF4FF0E02297
:1023D000106900F001021AB100F48032002AF5D031
:1023E00000224FF0E0231A619A61704730B51E4811
:1023F000006842F21072B0FBF2F1B1F1807F00D3BD
:102400001DE021F07F40401E4FF0E0225061501748
:102410000F22002807DA13071D0E144B00F00F04DB
:10242000241F1D5503E013071C0E114B1C5400BF45
:1024300000204FF0E02290610720106100BF30BD06
:1024400010B50C480068401C0A490860084600683E
:10245000592803DD00200860FEF779FC10BD00005C
:10246000280000202A0000200000002018ED00E0D5
:1024700000E400E02C00002008B500214FF00060CF
:10248000FDF799FF4FF4C060FDF75EFF25208DF842
:10249000000001208DF8010003208DF802000120CA
:1024A0008DF803006846FDF754FF1D208DF80000ED
:1024B00000208DF8010001208DF802008DF8030046
:1024C0006846FDF746FF1E208DF8000000208DF8BD
:1024D00001008DF8020001208DF803006846FDF729
:1024E00038FF32208DF8000000208DF80100022016
:1024F0008DF8020001208DF803006846FDF729FFE2
:1025000019208DF8000001208DF8010004208DF8BD
:10251000020001208DF803006846FDF71AFF08BD90
:1025200010B5FEF72BFC4FF48030FEF747FCFEF7AA
:1025300084FC0446012C24D11020FDF787FF0220E3
:10254000FDF770FF0020FEF7BEFC0020FEF7CDFC7B
:10255000A002FEF7C1FC4FF4E0112004FEF796FC48
:102560000120FEF79FFC00BF3920FEF74AFC00283F
:10257000FAD00220FEF799FC00BFFEF79FFC082866
:10258000FBD110BD08B501215C20FEF765FD4FF4BD
:102590004C60ADF8000010208DF8030003208DF88A
:1025A000020069460148FEF77BFA08BD00100140B1
:1025B00000B585B001210520FEF74EFD01218803FD
:1025C000FEF74AFD2D48FFF7B9FC4FF40070ADF857
:1025D000100018208DF8130003208DF8120004A9B4
:1025E0002748FEF75DFA4FF48060ADF810004820F0
:1025F0008DF8130004A92248FEF752FA4FF4E13097
:1026000000900020ADF80400ADF80600ADF8080019
:10261000ADF80C000C20ADF80A0069461748FFF72A
:10262000D0FC012240F225511448FFF762FD012140
:102630001248FFF752FD40211048FFF736FE05B063
:1026400000BD70B504460D46E1B20C48FFF7B2FD7F
:1026500000BF80210948FFF71BFE0028F9D0204663
:1026600070BD10B5044600BF20210448FFF710FEDE
:102670000028F9D00148FFF7A1FD10BD0038014046
:10268000000801402DE9F047044689469B48007840
:1026900018B39B4801689B48006800F0CEFF0746CE
:1026A00099480168384600F0C8FF05469748016818
:1026B0009748006800F0C1FF0646294600F0EFFF8A
:1026C00094490860944801689248006800F0E7FF68
:1026D000924908600020894908704946204600F068
:1026E00054FF05464FF07C5100F0A7FF8C4908606D
:1026F0004946204600F09BFF8A49086000218A482D
:10270000006801F07FF80ED200218848006801F0CF
:1027100079F808D2824800688549086081480068D5
:102720008449086051E000217F48006801F060F8AA
:1027300012D200217D48006801F05AF80CD2784886
:10274000006880F000407A4908607648006880F0B0
:1027500000407849086038E000217348006801F0C3
:1027600047F814D200217148006801F04BF80ED2EE
:102770006C48006880F000406D4908606848016856
:102780004FF0404000F059FF6A4908601DE0002109
:102790006548006801F036F812D2002163480068ED
:1027A00001F026F80CD25F480068614908605C4877
:1027B00001684FF0804000F040FF5E49086004E08F
:1027C00000205B4908605B4908605448016859482B
:1027D000006800F032FF5849086008460168574811
:1027E000006800F0D2FE55490860534801684FF078
:1027F0007C5000F022FF054650480168284600F052
:10280000C4FE4F4908600846006800F0C1FF074653
:1028100001F0AAFE054600F0CEFF4A49086048488C
:10282000006800F0B5FF074601F050FE054600F0D5
:10283000C2FF45490860084601683D48006800F04D
:10284000FCFE064633480168304600F0F6FE0546B9
:102850003E480168284600F098FE3C490860394827
:1028600001683348006800F0E8FE06462948016820
:10287000304600F0E2FE054635480168284600F083
:1028800084FE33490860234801682948006800F045
:10289000D4FE05462F480168284600F000FF2E4967
:1028A00008602C4801682448006800F0F8FE2B49B5
:1028B0000860164801682148006800F0A3FF08D2AC
:1028C000274801681D48006800F0B1FE1B490860F8
:1028D00011E00E48006880F000451848016828465D
:1028E00000F090FF07D21E4801681448006800F00D
:1028F0004CFE12490860BDE8F087000094000020FB
:1029000048000020680000204C00002058000020F3
:10291000500000208000002044000020840000209F
:10292000880000208C0000202401002028010020C5
:10293000780000207C0000206C000020380000207F
:102940009000002070000020740000203000002063
:1029500034000020640000203C00002040000020E3
:102960006000002000B589B001210846FEF781FB18
:1029700001210420FEF770FB0620ADF8200018208E
:102980008DF8230003208DF8220008A94748FEF7A0
:1029900087F840F60F60ADF818000020ADF814007D
:1029A000ADF81A00ADF8160005A94FF08040FEF70B
:1029B0008BFC6020ADF804000020ADF80C00012075
:1029C000ADF806006420ADF80A0001A90007FEF783
:1029D00047FD0821C806FFF719F96020ADF804008B
:1029E0000020ADF80C000120ADF806006420ADF821
:1029F0000A0001A90007FEF7E6FC0821C806FFF758
:102A0000F8F801218807FFF7BBF801218807FEF7D6
:102A1000B7FF09B000BD0EB501210820FEF729FB64
:102A20004FF47A60ADF804000820ADF800000020F3
:102A3000ADF80600ADF8020069461D48FEF744FCFB
:102A400001211B48FFF762FA012211461848FEF7E0
:102A5000B2FF01211648FEF793FF0EBD0EB501210E
:102A6000C802FEF7F9FA1348FEF75AFB4FF4FA7062
:102A7000ADF8040041F61F40ADF800000020ADF8AD
:102A80000600ADF8020069460A48FEF71DFC012168
:102A90000848FFF73BFA012211460648FEF78BFF74
:102AA00001210448FEF76CFF0EBD00000008014044
:102AB000000C0040002C014010B5044642F210709A
:102AC00084420FD940214C48FEF797F880214A48AC
:102AD000FEF795F8A4F51C50103800F027FE474982
:102AE00008621EE042F2107084420FD280214248F8
:102AF000FEF783F840214048FEF781F842F210715A
:102B0000081B00F013FE3D4908620AE040213A48E4
:102B1000FEF773F880213848FEF76FF80020374938
:102B2000086210BD10B5044642F21070844211D9FB
:102B30004FF480613048FEF760F84FF400612E4892
:102B4000FEF75DF8A4F51C50103800F0EFFD2C499D
:102B5000086222E042F21070844211D24FF4006108
:102B60002548FEF74AF84FF480612348FEF747F8FE
:102B700042F21071081B00F0D9FD214908620CE0F7
:102B80004FF480611C48FEF738F84FF400611A4892
:102B9000FEF733F800201A49086210BD2DE9F05FF6
:102BA00004460D46174E304600F0C5FD834600F042
:102BB000B4FD8246214600F040FD814600F0BBFD99
:102BC0000746304600F0B7FD834600F0A6FD82467A
:102BD000294600F032FD814600F0ADFD804642F20C
:102BE00010703844FFF79EFF42F210704044FFF728
:102BF00063FFBDE8F09F000000100140BC00002012
:102C0000E0000020986E894100B587B001210420C2
:102C1000FEF72FFA01210820FEF71EFA6846FDF79D
:102C2000CAFFC020ADF8000004208DF80300032087
:102C30008DF802006946FD48FDF732FFFC48FEF7BB
:102C40006FFA04A8FEF76CFE0020ADF8100043F602
:102C5000FF70ADF814000020ADF81600ADF81200BA
:102C600004A9F348FEF730FB00231A460321F0487D
:102C7000FEF739FF01A8FEF766FE0620ADF80C004E
:102C800001A9EB48FEF7B3FD0121E948FFF73EF942
:102C900001221146E648FEF78EFE0121E448FEF7C8
:102CA0006FFE07B000BD00B587B001210220FEF71E
:102CB000E0F901210420FEF7CFF96846FDF77BFF1C
:102CC000C020ADF8000004208DF8030003208DF82B
:102CD00002006946D748FDF7E3FED748FEF720FA21
:102CE00004A8FEF71DFE0020ADF8100043F6FF70AB
:102CF000ADF814000020ADF81600ADF8120004A9DC
:102D0000CD48FEF7E1FA00231A460321CA48FEF730
:102D1000EAFE01A8FEF717FE0620ADF80C0001A997
:102D2000C548FEF764FD0121C348FFF7EFF8012213
:102D30001146C148FEF73FFE0121BF48FEF720FEC5
:102D400007B000BD70B5BD480078F0B9BC48018837
:102D5000B748243003880020B94E3080B44824306E
:102D6000008805B2B248008800F01000102805D194
:102D7000B4480068181AC0EB813204E0B14800681A
:102D8000181A00EB8132144609E00020AB4E307077
:102D90000024AB4E3080A6482430008805B2A948F4
:102DA000056020B270BD70B5A7480078F0B9A7489B
:102DB0000188A148243003880020A44E30809E481A
:102DC0002430008805B29C48008800F010001028CC
:102DD00005D19F480068181AC0EB813204E09C4876
:102DE0000068181A00EB8132144609E00020964E64
:102DF00030700024954E30808F482430008805B212
:102E00009348056020B270BD002007E00021914A80
:102E100042F82010904A42F82010401C0328F5D3B5
:102E20000121864A1170884A117070472DE9F05FC0
:102E300000210C460D460E460F468A460DE0854899
:102E400050F82A00861947EBE077834850F82A109B
:102E50000C1945EBE1750AF1010ABAF1030FEED343
:102E6000032200232046294600F05EFB04460D465F
:102E7000032200233046394600F056FB06460F4633
:102E8000C8224FF0000C2346A3FB023B05FB02B116
:102E900004FB0C103C220021A3FB028B00FB02B0C0
:102EA00003FB01094FF480420B464046494600F0BF
:102EB0003BFB0446C82300213046A0FB03CB07FBA5
:102EC00003B206FB01203C22ACFB028B00FB02B0EC
:102ED0000CFB01094FF480420B464046494600F086
:102EE00023FB064630B25D49086020B25C490860A9
:102EF0005A4800685B490860594800685A490860A8
:102F0000BDE8F09F70B55848006856490968401AF6
:102F1000564908605148006800F008FC05462946FB
:102F2000534800F0B1F8044652480168204600F0CA
:102F30002CFB5049086050494E48006800F062FC84
:102F400002D24D484B49086000214A48006800F011
:102F50004FFC02D2002047490860464800684749B4
:102F6000086070BD70B53F4800683F490968401A65
:102F70003E4908603A48006800F0D8FB05462946FB
:102F80003F4800F081F804463E480168204600F0C2
:102F9000FCFA3C49086038493A48006800F032FCC5
:102FA00002D235483749086000213648006800F0F1
:102FB0001FFC02D20020334908603248006800F04C
:102FC000D3FB4FF0804108872C48006800F0CCFB11
:102FD0004FF08041888770BD10B5FFF715FEFFF7F1
:102FE00062FEFFF711FF10BD10B501211048FEF77A
:102FF0008DFF134800884FF6FF71884204D01048B7
:103000000088401C0E49088010BD10B501210A48F7
:10301000FEF77CFF0D4800884FF6FF71884204D010
:103020000A480088401C0949088010BD000C014076
:10303000000800400008014000040040B8000020E3
:10304000AE00002004010020B9000020AC000020E8
:1030500008010020600100206C0100209C0000207D
:10306000A0000020A4000020A8000020B400002040
:10307000E00000200C01002000006145B0000020AD
:10308000BC000020100100202DE9F04704460F4647
:10309000002000F042FB80463946206A00F0C7FA63
:1030A0008246414600F071FAE060E168206800F075
:1030B000C4FA8146A06900F030FB8246E16800F066
:1030C00064FA804600F037FBA0612149E06908609E
:1030D00020491F48006800F095FB05D31E491C4895
:1030E000006800F085FB01D200206060A06900F05C
:1030F00014FB8046616800F0A0FA0546D4E903019C
:1031000000F095FA8046A16800F097FA0646E0685C
:1031100020612946484600F038FA8046314600F0E2
:1031200034FAE0610D49E069096800F06BFB02D2F6
:103130000A480068E0610A49E069096800F058FB44
:1031400002D207480068E061E069BDE8F08700004E
:103150001C0100200000A0400000A0C014010020BD
:10316000180100200025002600240027FFF7D8F9C9
:10317000FFF782F9FFF706FAFFF71AFAFFF7F2FBFB
:10318000FFF72AFFFFF747FCFFF768FCB7E05C4852
:10319000007800F00100002850D05A4800685A49D1
:1031A00008605A4800685A4908605A4800685A49F5
:1031B00008605A4800685A4908605A4800685A49E5
:1031C0000860002419E05048005D584908555048EF
:1031D000015D564A201D11544F48015D04F108005D
:1031E00011544F48015D04F10C0011544E48015D2B
:1031F00004F110001154601CC4B2042CE3DB0A205B
:103200004A490875002611E040214948FFF74DF86A
:103210004648815D4648FEF7CDFF00BF4021444847
:10322000FFF736F80028F9D0701CC6B2152EEBDB7C
:103230003348007800F0FE003149087030480078CB
:1032400000F0020058B13B4801683B480068FFF7B6
:1032500019FA2B48007800F0FD0029490870284829
:10326000007800F0080028B340213148FFF71DF82E
:1032700000270CE000212E48FEF79CFF00BF4021F4
:103280002B48FFF705F80028F9D0781CC7B2032FA8
:10329000F0DB0A212648FEF78DFF00BF40212448BD
:1032A000FEF7F6FF0028F9D01548007800F0F70087
:1032B000134908702148008800F40040C8B1002577
:1032C0000AE01F48405D1F4948551D49281D085CFC
:1032D0001D494855681CC5B2042DF2DB1948006829
:1032E0001A49086018480068194908600020134905
:1032F0000880154A1168134A1068FFF74FFC46E72B
:103300002C01002030000020380100203400002073
:103310003C01002038000020400100203C0000203B
:1033200044010020400000204801002078010020D6
:1033300000380140500100205401002058010020B5
:103340008D010020340100203001002024010020E4
:103350002801002010B540F225516648FEF7AEFF67
:1033600000286AD06348FEF729FF63490870634864
:10337000008800F4004000285FD16048008800F415
:103380008040A0B3084600780A2826D15B48007820
:1033900000F03F00082811D15848008840F4004050
:1033A000564908805648007840F004005449087097
:1033B0000846007800F0F70008703EE050480078BA
:1033C00040F008004E4908700846007800F0FB0005
:1033D00008700020494908802FE04948007840F0F3
:1033E00008004749087000204449088025E0FFE7AD
:1033F000414800780D2806D14048008840F48040BC
:103400003E49088019E03C4800783C490988C1F3EE
:103410000D013C4A505439480088401C3749088007
:1034200008460088C72808DD3548007840F00800C5
:103430003349087000203149088010BD70B5012162
:103440003148FEF766FD002841D03048008828B199
:103450002E480088401E2D49088034E009202B4961
:103460000880FFF76FFC0446FFF79DFC05462846E1
:1034700000F053F926490860204600F04EF925492E
:1034800008601F48007840F002001D49087022487B
:103490002249097840F8214021482049097840F81C
:1034A00021501E480078401C1C49087008460078CE
:1034B000032801DB00200870FFF7B8FCFFF722FDAE
:1034C000FFF750FD00BF01210F48FEF733FD70BD2F
:1034D00010B501211348FEF71CFD48B108480078DB
:1034E00040F001000649087001210E48FEF722FD58
:1034F00010BD0000003801405A0100205801002092
:103500002C0100208D010020000C00404C01002007
:103510005001002054010020600100204E010020D5
:103520006C010020002C01402DE9F0410024061B15
:10353000254671F1000605DA01240027D0EB0700CB
:1035400067EB0101161E73F1000605DA0027D2EBC6
:103550000702012567EB030300F05EF986460E467D
:1035600017469C46AC4204D00025D0EB050E65EB17
:10357000010624B10020D2EB000760EB030C70467B
:1035800031463A466346BDE8F081F0B480EA010274
:10359000D40F4200B2EB410F02D202460846114658
:1035A0004A0042D0C30DDDB2C1F3C752AD1A202D7F
:1035B00035DAC1F3160141F4000204B15242C5F1FB
:1035C000200602FA06F12A411044B3EBD05F23D063
:1035D000C4B1012DA0EBC35009DCF0BC4FF0004298
:1035E00002EAC352DBB200F5000000F04FB9400020
:1035F00000F1807000EBC350A0F1807040EAD17000
:10360000490009E0490841EAC071A0EBC35000F548
:103610000000400800EBC350F0BC00F02EB961423E
:10362000012202EB4101001BF6E7F0BC704781F07C
:103630000041AAE780F00040A7E780EA010210B548
:1036400002F00043400022D04A001FD0010E01EBDF
:103650001261C0F35600C2F3560240F4000042F477
:103660000002A0FB022000047F39140400D0401C9B
:1036700050EA124001D44000491EC2B20C0604EBCD
:10368000D010401C4008802A02D003E0002010BD6A
:1036900020F00100002900DA0020184310BD30B4EA
:1036A00080EA010202F0004530F0004221F00040C3
:1036B00013D090B1C30DD40DC2F31601C0F31600A0
:1036C000E41A41F4000140F400027D34914201D338
:1036D000641C00E04900002C02DA30BC0020704776
:1036E0004FF400000023914201D3891A034340089C
:1036F0004FEA4101F7D151B1914202D14FF000415F
:1037000005E002D24FF0010101E06FF0010103EB8F
:10371000C450284430BC00F0B0B8C10F80EAE0705B
:103720000844CA079623002100F0B0B8962300226F
:10373000114600F0ABB800F0004220F00040C10D8F
:10374000C0F3160040F400007F2901DA0020704722
:10375000962903DCC1F19601C84001E09639884002
:10376000002AF4D04042704720F00040C10DC0F361
:10377000160040F400007F2901DA002070479629E6
:1037800003DCC1F19601C840704796398840704704
:1037900000F0004230F000400AD0C10D01F5607128
:1037A000C0F3160042EA0151C208400711437047B6
:1037B00000200146704701F0004330B421F0004181
:1037C00050EA010206D00A0DA2F56072C1F313019E
:1037D000002A02DC30BC00207047440F44EAC104D8
:1037E000C100E01830BC00EBC25000F046B8000049
:1037F000002801DBC0F10040002901DBC1F10041DC
:1038000081427047002801DBC0F10040002901DB44
:10381000C1F10041884270472DE9F05F0546002064
:1038200092469B4688460646814640241BE0284631
:1038300041464746224600F078F853465A46C01A99
:10384000914110D311461846224600F05FF82D1A18
:1038500067EB01084F4622460120002100F056F890
:1038600017EB00094E41201EA4F10104DFDC48469D
:1038700031462A464346BDE8F09F0029A8BF70475D
:10388000401C490008BF20F00100704710B4B0FA96
:1038900080FC00FA0CF050EA010404BF10BC704731
:1038A00049B1CCF1200421FA04F411FA0CF118BF4B
:1038B000012121430843A3EB0C01CB1D4FEA00611A
:1038C0004FEA102042BF002010BC704700EBC350ED
:1038D00010440029A4BF10BC7047401C490008BF19
:1038E00020F0010010BC7047064C074D06E0E06870
:1038F00040F0010394E8070098471034AC42F6D337
:10390000FCF71AFC2847000848470008202A04DB77
:10391000203A00FA02F1002070479140C2F12003E2
:1039200020FA03F3194390407047202A04DB203A21
:1039300021FA02F00021704721FA02F3D040C2F1CF
:10394000200291400843194670472DE9FE4F8046FA
:1039500081EA0300C00F0C46009021F0004123F0E3
:103960000045B8EB0200A94105D2404621469046E9
:103970001C460B46024623F00040104347D0270D5B
:10398000C7F30A00C3F30A510290401A019040287D
:103990006BDAC3F3130040F4801B0098924620B109
:1039A0000023D2EB030A63EB0B0B01985946C0F1DD
:1039B00040025046FFF7AAFF06460D4650465946BC
:1039C000019A00F09EF910EB08006141002487EA9B
:1039D000115284EAE7731A4340D0009A62B3019A05
:1039E000012A4FEA075215DC001B61EB02014FF080
:1039F000004202EA0752CDE90042001C41F5801165
:103A000032462B4600F09EF903B0BDE8F08F4046E9
:103A10002146F9E7001B61EB0201001C41F5801310
:103A200000185B412018A2F5001747EB030140EA9C
:103A3000D570B6196D4111E06D084FEA360645EABA
:103A4000C0754FEA0752001B61EB0201001C41F5F3
:103A5000801149084FEA30000019514132462B4687
:103A600003B0BDE8F04F00F05EB9009801224000BD
:103A70000023D0EB020263EBE073009821464FEA8B
:103A8000E074B8EB000061EB0401E9E783F0004368
:103A90005BE781F0004158E72DE9FE4F81EA03041E
:103AA00004F0004421F0004100944FF0000B23F09B
:103AB000004350EA01045ED052EA03045BD0C3F332
:103AC0000A54C1F30A552C44A4F2F3340194A0FB28
:103AD0000254C1F3130141F48011C3F3130343F4FF
:103AE000801301FB024400FB034E840A970A44EA58
:103AF000815447EA8357A4FB076802958D0A05FBAA
:103B000007854FEA932C04FB0C542705029D4FEACE
:103B1000065847EA1637B5EB08056EEB070C870E1B
:103B2000920E47EA811742EA8312A7FB0201B6EB25
:103B30000B0164EB00042B0D43EA0C335E1844EBDD
:103B40001C50DA465146E7FB0201C5F313044FEA65
:103B50000B3343EA14534FEA0432019C43EA060351
:103B6000A4F10C040294009CCDE900B400F0EAF842
:103B700003B0BDE8F08F00200146F9E72DE9F04DD4
:103B800081EA030404F0004B21F0004514464FF095
:103B9000000A23F0004150EA050220D054EA010255
:103BA0001DD0C5F30A570246C5F31303C1F3130032
:103BB000C1F30A5640F4801543F48013A7EB0608BE
:103BC000101BD64608F2FD3873EB050002D308F14E
:103BD000010801E092185B41B8F1000F03DA002000
:103BE0000146BDE8F08D00204FF480110646844662
:103BF0000EE0171B73EB050705D3121B63EB0503E0
:103C000006434CEA010C49084FEA300092185B4128
:103C100050EA0107EDD152EA030012D082EA040013
:103C200083EA0501084305D0101BAB4106D20122EF
:103C3000002306E000224FF0004302E06FF0010293
:103C400053101AEB06004CEB085110EB0A0041EB45
:103C50000B01BDE8F04D00F066B870B521F00043EF
:103C600003430CD0C1F30A550024D5EB040564EBE3
:103C70000403D617AD1AB34102DB0020014670BD24
:103C8000201841EB025170BD0EB5C10F80EAE07003
:103C90000844CA07002140F233438DE80E000A466B
:103CA0000B4600F04FF803B000BD0EB540F23341B3
:103CB00002910021CDE900110A460B4600F042F8BE
:103CC00003B000BD70B5C1F30A5201F000450024F5
:103CD000C1F3130140F2FF3341F480119A4201DA3B
:103CE000002070BD40F233439A42A2F2334203DC1B
:103CF0005242FFF71AFE00E090402C43F1D04042C0
:103D000070BD202A06DBCB17203A41FA02F043EAC5
:103D1000E07306E041FA02F3D040C2F12002914084
:103D200008431946704710B5141E73F1000408DAF1
:103D3000401C41F1000192185B411A4301D120F06F
:103D4000010010BD2DE9F04D92469B4611B1B1FA2C
:103D500081F202E0B0FA80F220329046FFF7D6FD01
:103D600004460F4640EA0A0041EA0B0153465A4610
:103D7000084313D0114653EA010019D0C8F140029C
:103D80005046FFF7D2FD05460E465046594642467C
:103D9000FFF7BCFD084305D0012004E0204639466A
:103DA000BDE8F08D0020054346EAE0762C4337431A
:103DB0000A986305E40AA0EB08000022FD0A44EA21
:103DC00047540A3002D500200146E9E701051019E1
:103DD0006941DDE9084500196941BDE8F04DA2E7F8
:103DE00070B58C1810F8015B15F0070301D110F8BD
:103DF000013B2A1106D110F8012B03E010F8016BEA
:103E000001F8016B5B1EF9D12B0705D40023521E6C
:103E10000DD401F8013BFAE710F8013BCB1A921CD4
:103E200003E013F8015B01F8015B521EF9D5A142D2
:103E3000D8D3002070BD490050EAC12018BF04202B
:103E40004A0D18BF40F0010040F2FF72B2EB515F23
:103E500008BF40F00200012808BF0520704700009D
:103E60002DE9F74F144694B00021C4E902111599C9
:103E7000079121F00045C9498D4206DC1599C4E936
:103E8000000117B00020BDE8F08FC549DFF814A38A
:103E9000A9423CDD0799C44E0029C44FC44A159974
:103EA000534619DDFFF7F2FD554506D0C14AC24B16
:103EB000FFF7ECFDC4E900010AE04FF0D352BE4B1E
:103EC000FFF7E4FD32463B46FFF7E0FDC4E90001A1
:103ED00017B00120BDE8F08FFFF737FD554506D03C
:103EE000B44AB54BFFF731FDC4E900010AE04FF0D9
:103EF000D352B14BFFF729FD32463B46FFF725FD74
:103F0000C4E9000117B04FF0FF30BDE8F08FAB49B6
:103F1000A942159978DB21F0004183468846A84ADA
:103F2000A84BFFF7B9FD0022A74BFFF70EFDFFF7E7
:103F3000C9FE0990FFF7A8FE06460F469C4A534665
:103F4000FFF7AAFD43465A46FFF7A3FD80468A467F
:103F5000984A994B30463946FFF79EFD2A0D0125B8
:103F60000B9242465346FFF794FD032DC4E900012E
:103F700039D00B98C1F30A51401A05EB451111399C
:103F8000814230DA9148C346784400EB0510CDF801
:103F90000CA00C90D0E9002330463946FFF77CFD99
:103FA00002460B460491069058460399FFF76EFDB2
:103FB00080468A4602460B4658460399FFF766FD3F
:103FC000049B069AFFF762FD83460C9803913946DD
:103FD000D0E902233046FFF75FFD5A46039BFFF707
:103FE00055FD6D1CBDE707980028A2BF099817B0C2
:103FF000BDE8F08F616881F000416160099817B0F9
:104000004042BDE8F08FFFE784461598C1F31301E5
:10401000C0F30A50A0F2F5304FEA601800F01F0616
:10402000C6F12000139000200690079041F4801EF6
:1040300005206D4676B1664A08EB00017A4452F8D5
:10404000213002EB8101B3404A68139922FA01F151
:10405000194305E05F4908EB0002794451F822104A
:10406000A1FB0E27A1FB0C131A449A4234BF012373
:10407000002303EB070A05EB8003D3E901B70F44E4
:104080008F4234BF0121002193448B4411B19345E9
:1040900002D903E0934501D2012100E00021C3E9E8
:1040A00001B7514445F82010011EA0F10100C1DC08
:1040B0000298059F00F10050800F12900298DDE9F0
:1040C00003568000FFF7E0FD834628460D91FFF779
:1040D000ECFD6FF01D02FFF7C0FDCDE90E0130468B
:1040E000FFF7E3FD6FF03D02FFF7B7FD80468A461C
:1040F0003846FFF7DAFD6FF05D02FFF7AEFD0746C9
:10410000424653461191FFF720FCDDE90E23FFF7ED
:104110001CFC5A460D9BFFF718FC00250E465A461C
:1041200028460D9BFFF7B2FCDDE90E23FFF7AEFC3E
:1041300042465346FFF7AAFC3A46119BFFF7A9FCFB
:10414000DFF898A0244A5346FFF7A6FC07468846A6
:10415000234A244B31462846FFF79EFC3A46434605
:10416000FFF7F3FB074688464FF0A8425346314617
:104170002846FFF791FC3A464346FFF7E6FB159ABF
:1041800012F0004F04D0129A81F000415242129274
:10419000C4E90001129817B0BDE8F08FFB21E93F98
:1041A0007CD90240FB21F93F7370032E8A19A33B8F
:1041B000000040543163621A61B4D03DFB213941A3
:1041C00083C8C96D305FE43F0000E03FAC060000EB
:1041D000280600000A060000182D4454FB21F93D72
:1041E0003326A611460B113C2DE9FF4D21F0004866
:1041F00007460C46B8F1795F08DAFFF763FD00283F
:1042000001BF0020324904B0BDE8F08D3A46234694
:1042100010461946FFF740FC054602462D480E465B
:104220000B460621784400F05DF82A463346FFF736
:1042300033FCDDE9022382468B4638462146FFF7F0
:104240002BFC04460F4652465B4628463146FFF794
:1042500023FC22463B46FFF719FC07468A464FF0EF
:10426000FF3228463146FFF7F8FC1B4A90450ADA30
:104270003A465346FFF70AFC04B00022BDE8F04D71
:10428000134BFFF706BC154A4245A8BFA8F5001519
:104290004FF00004B8BF124D22462B46FFF7F6FB45
:1042A0000646884622462B4600200949FFF7EEFBCA
:1042B00004460D463A46534630464146FFF7E6FB74
:1042C00004B022462B46BDE8F04DFFF7E2BB0000EC
:1042D0000000F03FE00300003333D33F0000E93F2C
:1042E0000000D23F2DE9F0414F1E00EBC70104460C
:1042F000D1E9000115461E4637F006020DD02A46C8
:104300003346FFF7C9FB7F1E04EBC703D3E9002345
:10431000FFF71BFB37F00602F1D1022F25D0042F47
:1043200013D0062F18BFBDE8F0812A463346FFF7A9
:10433000B3FBD4E90A23FFF708FB2A463346FFF70D
:10434000ABFBD4E90823FFF700FB2A463346FFF70F
:10435000A3FBD4E90623FFF7F8FA2A463346FFF712
:104360009BFBD4E90423FFF7F0FA2A463346FFF714
:1043700093FBD4E90223FFF7E8FA2A463346FFF716
:104380008BFBD4E90023BDE8F041FFF7DEBA000063
:104390002DE9FF4D054621F0004084B00C46B0F1F8
:1043A000795F0BDA2846FFF746FD042808BF00F0C6
:1043B0006FF8284608B02146BDE8F08D2A460B4626
:1043C0001046FFF769FB06460F462A462346FFF7CD
:1043D00063FB804626488A4632463B4605217844A0
:1043E000FFF780FF83461098029160B3214A224B69
:1043F00040465146FFF750FBCDE900015A46404682
:104400005146029BFFF748FB82468846DDE90601DC
:104410004FF0FF32FFF721FC52464346FFF736FBD1
:1044200032463B46FFF738FBDDE90623FFF72EFB5C
:10443000DDE90023FFF72AFB08B02A462346BDE842
:10444000F04DFFF726BB0B465A4630463946FFF77C
:1044500023FB084A084BFFF778FA42465346FFF71A
:104460001BFB08B02A462346BDE8F04DFFF76DBAA6
:104470001E030000495555555555C5BF0122FFF78C
:10448000ECBB0022134610461146FFF777BB000035
:10449000024A00201107FFF7E0BB000001FDFFFF0B
:1044A00002E008C8121F08C1002AFAD170477047FD
:1044B000002001E001C1121F002AFBD1704700005B
:1044C00001490860704700005C01002000B5244BE2
:1044D00021F0004287B09A42DCBF0022134629DD5A
:1044E000204B9A4208D140B94FF00100FFF7E8FF96
:1044F000FFF7C7FF07B000BD03DBFFF7BFFF07B043
:1045000000BD02AAFFF7ACFC10F0030104BF0DF1DF
:10451000080C9CE80F000DD0012001290ED00229C3
:1045200014D00DF1080C00909CE80F00FFF730FF4D
:1045300007B000BDFFF758FE07B000BD0DF1080C35
:1045400000909CE80F00FFF723FF05E00DF1080C39
:104550009CE80F00FFF748FE07B081F0004100BD66
:10456000FB21E93F0000F07F00B5254B21F0004220
:1045700087B09A4203DC0022134600922BE0214BC5
:104580009A4208D140B94FF00100FFF799FFFFF7B9
:1045900078FF07B000BD03DBFFF770FF07B000BD79
:1045A00002AAFFF75DFC10F003014FF001000DD0EF
:1045B000012914D002291AD00DF1080C9CE80F0033
:1045C000FFF712FE07B081F0004100BD0DF1080CAD
:1045D00000909CE80F00FFF7DBFE07B000BD0DF177
:1045E000080C9CE80F00FFF7FFFD07B000BD0DF1C0
:1045F000080C00909CE80F00FFF7CAFEE2E70000FD
:10460000FB21E93F0000F07F4C5555555555A53F1E
:104610007751C1166CC156BF9015CB19A001FA3E57
:10462000AD529C804F7E92BEC4B1B4BD9EEE213E81
:10463000D43888BEE9FAA8BD00004054FB21F93FF8
:104640003163621A61B4D03D0000601A61B4D03D9C
:104650007370032E8A19A33B0000002E8A19A33B16
:10466000C14920259A837B3900000000000000002A
:104670006E83F9A22915444ED15727FCC0DD34F5CD
:10468000999562DB4190433CAB6351FE61C5BBDE53
:104690003A6E24B7E0D24D42EA2E49061C92D10967
:1046A0001CEB1DFE3EA729B1F53582E88444BB2EE4
:1046B00026709CE9417E5FB439D69139F439538331
:1046C0008B5F849C3B28F9BDFF97F81F0F9805DE90
:1046D0008B112FEF1F6D0A5ACF7E366DB709CB278E
:1046E000663F464F2DEA5F9EC7BA27757BF1E5EB23
:1046F000F739073DEA92528AB15FFB6B085D8D1F67
:10470000A6F810111111813FD561C119A0012ABF6E
:104710007DFEB157E31DC73EEB9C2B8AE6E55ABEF2
:104720007CD5CF5A3AD9E53D484700080000002023
:1047300060010000E03D0008B4470008600100206F
:10474000F8040000B04400081184A24A046809017A
:10475000020304060708090C6910051C0204060878
:1047600025FF0A864323804023B4421817C842D845
:104770000FC93FDC0F4940E4CB9640DC0FC9400A2B
:10478000D7A33B2002284532013985091A2419256F
:1047900020090AD7233CCDCCCC3D0318403F092249
:1047A0002401121B10410442C1091E88C1C92C52A8
:0447B00031000000D4
:0400000508000131BD
:00000001FF
