:020000040800F2
:10000000B006002045010008492500084B250008DE
:100010004F25000853250008572500080000000060
:100020000000000000000000000000005B25000848
:100030005D250008000000005F250008ED2C000889
:100040005F0100085F0100085F0100085F01000810
:100050005F0100085F0100085F0100085F01000800
:100060005F0100085F0100085F0100085F010008F0
:100070005F0100085F0100085F0100085F010008E0
:100080005F0100085F0100085F0100085F010008D0
:100090005F0100085F0100085F0100085F010008C0
:1000A0005F010008252700085F0100085F010008C4
:1000B0005F01000847300008253000085F01000894
:1000C0005F0100085F0100085F0100085F01000890
:1000D0005F01000861250008492600085F0100084B
:1000E0005F0100085F0100085F0100085F01000870
:1000F0005F0100085F0100085F0100085F01000860
:100100005F0100085F0100084B2600085F0100083E
:100110005F0100085F0100085F0100085F0100083F
:100120005F0100085F0100085F0100085F0100082F
:10013000DFF80CD004F06EF90048004745230008B2
:10014000B00600200648804706480047FEE7FEE765
:10015000FEE7FEE7FEE7FEE7FEE7FEE7FEE7FEE777
:1001600047020008310100080CB500200190009002
:100170006C48006840F480306A49086000BF6948F4
:10018000006800F4003000900198401C0190009835
:1001900018B90198B0F5A06FF1D16248006800F479
:1001A000003010B10120009001E000200090009884
:1001B000012843D15C48006840F010005A490860AB
:1001C0000846006820F0030008600846006840F018
:1001D0000200086053484068524948600846406839
:1001E00048600846406840F48060486008464068BF
:1001F00020F47C1048600846406840F4E8104860ED
:100200000846006840F08070086000BF45480068FC
:1002100000F000700028F9D04248406820F0030048
:10022000404948600846406840F00200486000BF0E
:100230003C48406800F00C000828F9D10CBD10B50E
:10024000FFF792FF10BD10B53648006840F001007E
:1002500034490860084640683449084031494860DC
:1002600008460068324908402E4908600846006880
:1002700020F4802008600846406820F4FE004860B2
:100280004FF41F008860FFF7DAFF4FF00060294944
:10029000086010BD10B5002100200022214B5B68D2
:1002A00003F00C0121B1042906D0082928D107E068
:1002B000214B224C236027E01F4B204C236023E07E
:1002C000184B5B6803F47010164B5B6803F48032C4
:1002D000022303EB904022B9194B4343174C236090
:1002E0000DE0104B5B6803F4003323B1144B434320
:1002F000124C236003E0104B4343104C236003E097
:100300000D4B0E4C236000BF00BF064B5B68C3F370
:1003100003130C4CE15C094B1B68CB40074C23607A
:1003200010BD000000100240002002400000FFF855
:10033000FFFFF6FE08ED00E000127A00000000204A
:1003400000093D000400002031490143314A116099
:10035000704770B5002100230F22C47804B32D4CE0
:10036000246804F4E064C4F5E064210AC1F10403E4
:10037000CA40447804FA03F1847814402143090107
:10038000254C0678A155047804F01F050124AC40E3
:1003900005786D11AD0005F1E025C5F8004109E0D3
:1003A000047804F01F050124AC401C4D067876113A
:1003B00045F8264070BD1A4A0A400243154B1B1FE0
:1003C0001A60704739B1134A121D12680243114B6B
:1003D0001B1D1A6006E00F4A121D126882430D4B66
:1003E0001B1D1A607047042808D14FF0E0210969ED
:1003F00041F004014FF0E022116107E04FF0E021ED
:10040000096921F004014FF0E022116170470000FA
:100410000000FA050CED00E000E400E080E100E0FF
:1004200080FFFF1F01460020FE4A106800F03800E0
:10043000084310607047FB49096821F00801F94A38
:10044000116011460968014311607047F549096858
:1004500021F01001F34A116011460968014311604F
:100460007047F148EF494860F04848607047EE48EF
:10047000EC494860ED4848607047EA48006940F040
:100480008000E84908617047E648006940F0800054
:10049000E449086170470420E249C96801F001019C
:1004A00009B101200EE0DF49C96801F0040109B17A
:1004B000022007E0DB49C96801F0100109B10320FF
:1004C00000E00420704700B502460423FFF7E3FF75
:1004D000034603E0FFF7DFFF0346521E012B01D165
:1004E000002AF7D102B90523184600BD30B50446ED
:1004F00004254FF43020FFF7E6FF0546042D17D101
:10050000C848006940F00200C649086108464461D5
:10051000006940F0400008614FF43020FFF7D3FF3E
:100520000546C048006941F6FD710840BD490861B3
:10053000284630BD10B504244FF43020FFF7C3FF28
:100540000446042C16D1B748006940F00400B549B0
:1005500008610846006940F0400008614FF430200F
:10056000FFF7B1FF0446AF48006941F6FB71084050
:10057000AC490861204610BD00B502460423FFF7D0
:100580008AFF034603E0FFF786FF0346521E012B56
:1005900001D1002AF7D102B90523184600BD10B5D4
:1005A00004244FF43020FFF7E7FF0446042C16D153
:1005B0009C48006940F004009A49086108460069B7
:1005C00040F0400008614FF43020FFF7D5FF0446AB
:1005D0009448006941F6FB71084092490861204641
:1005E00010BD00208F49C96901F0020109B1012045
:1005F00000E00020704730B5A5250424FFF7F1FF87
:1006000000B100254FF43020FFF75DFF0446042CB5
:100610003AD18548834988608448886008460069E3
:1006200040F0200008610846006940F04000086181
:100630004FF43020FFF747FF0446042C1BD17948C4
:10064000006941F6DF710840764908610846006993
:1006500040F01000086176480580E002FFF733FFA4
:100660000446052C10D06F48006941F6EF71084030
:100670006C49086108E0052C06D06A48006941F61B
:10068000EF71084067490861204630BD78B50646DD
:100690000C46042500200090E802FFF714FF0546F1
:1006A000042D24D15F48006940F001005D490861D4
:1006B0003480E802FFF707FF0546042D10D1B01C77
:1006C0000090200C00990880E802FFF7FCFE054628
:1006D0005448006941F6FE7108405249086106E03D
:1006E0005048006941F6FE7108404E4908612846AD
:1006F00078BD70B504460D460426F002FFF7E3FE10
:100700000646042E11D14748006940F001004549D2
:1007100008612580F002FFF7D6FE064641480069D1
:1007200041F6FE7108403F490861304670BD70B522
:1007300005460E460424E002FFF7C5FE0446042CDD
:1007400017D13948374988603848886008460069B9
:1007500040F0100008612E80E002FFF7B4FE04466E
:10076000052C06D02F48006941F6EF7108402D494D
:100770000861204670BD2DE9F04304464FF6FF7630
:100780003746B046B1460425E443E6B2C4F3072732
:10079000C4F307484FEA1469E802FFF794FE0546E0
:1007A000042D49D120481F498860204888600846A8
:1007B000006940F010000861FF2E06D01C48083088
:1007C0000680E802FFF77FFE0546042D08D1FF2FC3
:1007D00006D017480A300780E802FFF774FE054686
:1007E000042D0AD1B8F1FF0F07D011480C30A0F842
:1007F0000080E802FFF767FE0546042D0AD1B9F133
:10080000FF0F07D00A480E30A0F80090E802FFF76B
:100810005AFE0546052D0FD00248006941F6EF71DA
:10082000084007E00020024023016745AB89EFCD77
:1008300000F8FF1F664908612846BDE8F08330B51F
:10084000054604244FF43020FFF73DFE0446042CF7
:1008500041D160485E4988605F4888600846006909
:1008600040F0200008610846006940F0400008613F
:100870004FF43020FFF727FE0446042C22D15448C1
:10088000006941F6DF710840514908610846006976
:1008900040F0100008611DB100205049088002E0BE
:1008A000A5204E4908804FF43020FFF70CFE044687
:1008B000052C10D04648006941F6EF7108404449C4
:1008C000086108E0052C06D04148006941F6DF7157
:1008D00008403F490861204630BDF0B505460E4648
:1008E000174604243B483A4988603B488860E00248
:1008F000FFF7E9FD0446042C19D13548006940F0A2
:1009000010003349086147F0F80030432843334969
:10091000891C0880E002FFF7D6FD0446052C06D0AE
:100920002B48006941F6EF710840294908612046CB
:10093000F0BD2748C069800870472548006A7047A5
:1009400000202349096801F0200109B1012000E0DD
:100950000020704729B11E4A126902431C4B1A61DC
:1009600004E01B4A12698243194B1A617047014621
:100970000020012908D1164AD26902F001020AB109
:10098000012008E0002006E0114AD2680A400AB1BE
:10099000012000E0002070470D49C8607047042026
:1009A0000B49C96801F0010109B101200EE00849B5
:1009B000C96801F0040109B1022007E00449C968CF
:1009C00001F0100109B1032000E00420704700008D
:1009D0000020024023016745AB89EFCD00F8FF1FDF
:1009E00010B50446CC48844208D10121042000F00F
:1009F0004DFB0021042000F049FB46E0C74884423B
:100A000008D10121082000F041FB0021082000F05E
:100A10003DFB3AE0C248844208D10121102000F099
:100A200035FB0021102000F031FB2EE0BD48844250
:100A300008D10121202000F029FB0021202000F016
:100A400025FB22E0B848844208D10121402000F073
:100A50001DFB0021402000F019FB16E0B348844242
:100A600008D10121802000F011FB0021802000F03E
:100A70000DFB0AE0AE48844207D10121801500F049
:100A800005FB0021A01500F001FB10BD10B50121F0
:100A9000084600F0FBFA0021012000F0F7FA10BD33
:100AA0002DE9F04102460025002600200023002405
:100AB000002791F803C00CF00F0591F803C00CF06B
:100AC000100CBCF1000F03D091F802C04CEA0505F0
:100AD00091F800C0BCF1000F31D0146800202BE069
:100AE0004FF0010C0CFA00F3B1F800C00CEA030659
:100AF0009E4220D183004FF00F0C0CFA03F7BC4349
:100B000005FA03FC4CEA040491F803C0BCF1280F79
:100B100006D14FF0010C0CFA00FCC2F814C00AE038
:100B200091F803C0BCF1480F05D14FF0010C0CFA4D
:100B300000FCC2F810C0401C0828D1D31460B1F8E2
:100B400000C0BCF1FF0F34DD546800202EE000F13E
:100B5000080C4FF0010808FA0CF3B1F800C00CEAD9
:100B600003069E4221D183004FF00F0C0CFA03F7CD
:100B7000BC4305FA03FC4CEA040491F803C0BCF141
:100B8000280F05D100F1080C08FA0CF8C2F81480FF
:100B900091F803C0BCF1480F07D100F1080C4FF0E9
:100BA000010808FA0CF8C2F81080401C0828CED3BF
:100BB0005460BDE8F0814FF6FF7101800221817021
:100BC0000421C17070470246002093680B400BB1AE
:100BD000012000E0002070470146886880B270471D
:100BE00002460020D3680B400BB1012000E000203A
:100BF00070470146C86880B2704701617047416123
:100C000070470AB1016100E041617047C1607047FF
:100C10004FF480320A438261816182618269826914
:100C2000704702460020434B18684FF68073184007
:100C300040EA021008433F4B186070473E49C861C4
:100C40007047F0B50A46002300240021002500F07B
:100C50000046B6F1004F02D1364EF16901E0354E43
:100C60007168C0F3034583B200F44016B6F5401F27
:100C700008D121F070612F4E766826F070662D4FF6
:100C80007E6012E000F48016B6F5801F06D10326C0
:100C900006FA05F4A14341F0706106E0460D360105
:100CA00003FA06F6B14341F0706122B1460D3601F8
:100CB00003FA06F6314300F00046B6F1004F02D1C8
:100CC0001C4EF16101E01B4E7160F0BD30B5002299
:100CD0008B071C0F0F2303FA04F2164B08338C10FA
:100CE00053F824309343134C08348D1044F82530C6
:100CF00023468C1053F824308C07240F00FA04F498
:100D000023430C4C08348D1044F8253030BD0A497B
:100D1000DC3108607047000000080140000C014011
:100D2000001001400014014000180140001C014067
:100D30000020014000000140000020420E490860F0
:100D400070470D49486070470B49886070474AF604
:100D5000AA200949086070474CF6CC400649086053
:100D6000704701460020044AD2680A400AB10120B7
:100D700000E000207047000000300040DF480068BD
:100D800040F00100DD49086008464068DC49084041
:100D9000DA49486008460068DA490840D7490860DF
:100DA0000846006820F4802008600846406820F467
:100DB000FE0048604FF41F0088607047CF49096803
:100DC00021F48031CD4A11601146096821F4802157
:100DD0001160B0F5803F03D0B0F5802F0ED106E052
:100DE000C649096841F48031C44A116007E0C3492B
:100DF000096841F4A021C14A116000E000BF00BFB2
:100E0000704710B501460022002300204A11012A34
:100E100002D1BA4C236806E0022A02D1B74C236AF9
:100E200001E0B64C636A01F01F02012494401C40AB
:100E30000CB1012000E0002010BD38B5002000906A
:100E40000024002500BF3120FFF7DBFF0546009896
:100E5000401C00900098B0F5A06F01D0002DF2D09A
:100E60003120FFF7CEFF08B1012400E00024204626
:100E700038BD01460020A14A106820F0F80040EA81
:100E8000C10010607047A04908607047024600200A
:100E90009A4B586820F47C1042EA01031843974BA0
:100EA0005860704798490866704701460020934A89
:100EB000506820F003000843506070478F48406836
:100EC00000F00C007047014600208C4A506820F06A
:100ED000F00008435060704701460020874A506880
:100EE00020F4E06008435060704701460020834AC8
:100EF000506820F4605040EAC1005060704729B14A
:100F00007E4A527A02437D4B5A7204E07B4A527AFF
:100F100082437A4B5A7270477B49D83108607047D8
:100F200001460020754A506820F440400843506054
:100F300070470021714A20321170704A82F82010E7
:100F4000012802D004280AD104E001216B4A203292
:100F5000117005E00521694A2032117000E000BFE0
:100F600000BF70476949086070476449096A0143D6
:100F7000624A11627047654944390860704730B56C
:100F800000210022002400235C4D6D6805F00C0157
:100F900021B1042905D0082923D105E05C4D056065
:100FA00022E05B4D05601FE0544D6D6805F4701242
:100FB000524D6D6805F48034022505EB92421CB950
:100FC000544D554305600BE04C4D6D6805F40035FC
:100FD0001DB1504D5543056002E04D4D5543056030
:100FE00002E04B4D056000BF00BF444D6D6805F049
:100FF000F0010909484D6B5C0568DD4045603F4DD7
:101000006D6805F4E061090A434D6B5C4568DD409D
:1010100085603A4D6D6805F46051C90A3E4D6B5CC0
:101020004568DD40C560354D6D6805F44041890B6C
:101030003A4D6B5CC568B5FBF3F5056130BD29B170
:101040002E4A526902432D4B5A6104E02B4A5269E1
:1010500082432A4B5A61704729B1284A9269024358
:10106000264B9A6104E0254A92698243234B9A6198
:10107000704729B1214AD2690243204BDA6104E06A
:101080001E4AD26982431D4BDA61704729B11B4A5F
:10109000D2680243194BDA6004E0184AD2688243EE
:1010A000164BDA60704729B1144A12690243134B98
:1010B0001A6104E0114A12698243104B1A617047A9
:1010C00012494039086070470F49C86470470B499E
:1010D000C87170470948406A40F08070074948620B
:1010E000704701460020054A92680A400AB1012073
:1010F00000E00020704701498872704700100240EC
:101100000000FFF8FFFFF6FE00004242800442426A
:1011100000127A0000093D00140000202400002085
:1011200010B50446FE48844208D10121C014FFF7DF
:10113000ADFF0021E014FFF7A9FFC4E0B4F1804F38
:1011400008D101210846FFF7AEFF00210120FFF77B
:10115000AAFFB8E0F348844208D101210220FFF73A
:10116000A2FF00210220FFF79EFFACE0EE48844280
:1011700008D101210420FFF796FF00210420FFF78A
:1011800092FFA0E0E948844208D101210820FFF73E
:101190008AFF00210820FFF786FF94E0E44884429C
:1011A00008D101211020FFF77EFF00211020FFF75A
:1011B0007AFF88E0DF48844208D101212020FFF730
:1011C00072FF00212020FFF76EFF7CE0DA488442A6
:1011D00008D101214014FFF759FF00216014FFF7E7
:1011E00055FF70E0D548844209D10121C804FFF7BA
:1011F0004DFF00214FF40020FFF748FF63E0D04887
:10120000844209D101210805FFF740FF00214FF476
:101210008010FFF73BFF56E0CA48844209D1012104
:101220004805FFF733FF00214FF40010FFF72EFFB2
:1012300049E0C548844208D101214020FFF733FF2F
:1012400000214020FFF72FFF3DE0C048844208D135
:1012500001218020FFF727FF00218020FFF723FFD7
:1012600031E0BB48844208D101218015FFF71BFF04
:101270000021A015FFF717FF25E0B648844209D1E9
:1012800001210804FFF702FF00214FF48030FFF72F
:10129000FDFE18E0B048844209D101214804FFF75F
:1012A000F5FE00214FF40030FFF7F0FE0BE0AB48F5
:1012B000844208D101218804FFF7E8FE00214FF4A1
:1012C0008020FFF7E3FE10BD00220288944B984275
:1012D0000ED0994B98420BD0B0F1804F08D0914B73
:1012E000984205D0904B984202D0904B984204D13E
:1012F0004FF68F731A404B881A438D4B984207D094
:101300008C4B984204D04FF6FF431A40CB881A43C7
:1013100002808B8883850B880385814B98420BD094
:10132000854B984208D08B4B984205D08A4B984207
:1013300002D08A4B984201D10B7A03860123838223
:10134000704770B5002400220023058C4FF6FE760E
:1013500035400584028C8388048B4FF68F752C40B2
:10136000B51E2C400D882C43751E2A400D892A433A
:101370004D882A436A4DA8420BD06F4DA84208D031
:10138000744DA84205D0744DA84202D0734DA842B6
:1013900013D14FF6F7752A404D892A434FF6FB7556
:1013A0002A408D882A434FF6FF652B404FF6FF55A4
:1013B0002B408D892B43CD892B4383800483CD889B
:1013C0008586028470BD70B5002400220023058C40
:1013D0004FF6EF7635400584028C8388048B48F6FF
:1013E000FF752C404FF6FF452C400D884FF6FF76D9
:1013F00006EA05252C434FF6DF752A400D8906EADB
:1014000005152A434D8806EA05152A43444DA8428E
:1014100002D0494DA8421DD14FF67F752A404D8913
:101420004FF6FF7606EA05152A434FF6BF752A40A8
:101430008D8806EA05152A434FF6FF352B404FF2FB
:10144000FF752B408D8906EA85052B43CD8906EA79
:1014500085052B4383800483CD880587028470BD76
:1014600070B5002400220023058C4FF6FF6635403E
:101470000584028C8388848B4FF68F752C404FF641
:10148000FC752C400D882C434FF6FF552A400D89E2
:101490004FF6FF7606EA05252A434D8806EA05251C
:1014A0002A431F4DA84202D0234DA8421DD14FF21E
:1014B000FF752A404D894FF6FF7606EA05252A4337
:1014C0004FF6FF352A408D8806EA05252A434EF659
:1014D000FF752B404DF6FF752B408D8906EA0515EB
:1014E0002B43CD8906EA05152B4383808483CD8861
:1014F0008587028470BD70B5002200230024058C0E
:101500004EF6FF7635400584038C8488828B48F63E
:10151000FF752A404FF6FF452A400D8820E0000065
:10152000002C01400004004000080040000C004076
:10153000001000400014004000340140004C014005
:10154000005001400054014000180040001C0040C1
:10155000002000400040014000440140004801409C
:101560004FF6FF7606EA05252A434DF6FF752B4018
:101570000D8906EA05352B434D8806EA05352B43D0
:10158000FA4DA84202D0FA4DA84208D14BF6FF7599
:101590002C408D894FF6FF7606EA85152C43848012
:1015A0008283CD88A0F84050038470BD828B4FF2B7
:1015B000FF331A408283828B4FF6FF7303EA0123C5
:1015C0001A4382837047F0B50C461546002200216D
:1015D0000026078C4EF6FF7C07EA0C070784828BF7
:1015E000018C4FF6FF7707EA043640F6FF473A4092
:1015F0004FF6FF7707EA05273A434FF6FF7707EAEA
:1016000003373A43D94FB8420ED0D94FB8420BD026
:10161000B0F1804F08D0D74FB84205D0D64FB8426E
:1016200002D0D64FB84206D14DF6FF77394046F486
:101630008057394305E047F6FF57394044F4805757
:10164000394382830184F0BD828B4FF6F3731A40D5
:101650008283828B0A4382837047F0B50C4615461D
:10166000002200210026078C4FF6FF6C07EA0C07CA
:101670000784828B018C4FF6FF7707EA04264FF62A
:101680000C773A404FF6FF7707EA03172F433A43A8
:10169000B64FB8420ED0B64FB8420BD0B0F1804F23
:1016A00008D0B44FB84205D0B34FB84202D0B34FC0
:1016B000B84206D14FF6FF57394046F48077394398
:1016C00005E04FF2FF57394044F480773943828375
:1016D0000184F0BD028B4FF2FF331A400283028B6C
:1016E0004FF6FF7303EA01231A4302837047F0B5F4
:1016F0000C461546002200210026078C4FF6EF7C91
:1017000007EA0C070784028B018C4FF6FF7707EA84
:10171000041640F6FF473A404FF6FF7707EA0337D3
:101720003A434FF6FF7707EA05273A438F4FB8420F
:101730000ED08F4FB8420BD0B0F1804F08D08D4FF4
:10174000B84205D08C4FB84202D08C4FB84206D177
:101750004FF6DF77394046F01007394305E04FF682
:101760005F77394044F01007394302830184F0BDAC
:10177000028B4FF6F3731A400283028B0A430283F3
:101780007047F0B50C46154600220021068C4FF636
:10179000FE773E400684028B018C4FF60C76324079
:1017A0007E1C06EA03162E433243704EB0420ED022
:1017B0006F4EB0420BD0B0F1804F08D06D4EB042AA
:1017C00005D06D4EB04202D06C4EB04206D14FF6FD
:1017D000FD76314044F00106314305E04FF6F576E1
:1017E000314044F00106314302830184F0BD70B5FD
:1017F00005460C465D4885420ED05D4885420BD0BB
:10180000B5F1804F08D05B48854205D05A488542E3
:1018100002D05A48854200D100E000BF208850B96C
:101820002389A28861882846FFF7ABFFE188284614
:10183000FFF79EFF25E0208804280AD12389A2888B
:1018400061882846FFF753FFE1882846FFF742FFEB
:1018500017E0208808280AD12389A28861882846B1
:10186000FFF7FBFEE1882846FFF7EEFE09E023893B
:10187000A28861882846FFF7A6FEE1882846FFF780
:1018800095FE70BD2DE9F04105460C460026012766
:10189000608808B9022600E00026A088012801D14E
:1018A000022700E001272088A0B92389A288618847
:1018B0002846FFF766FFE1882846FFF759FF23898E
:1018C0003A4631462846FFF712FFE1882846FFF7DF
:1018D00001FF13E02389A28861882846FFF707FFEC
:1018E000E1882846FFF7F6FE23893A463146284626
:1018F000FFF747FFE1882846FFF73AFFBDE8F08190
:101900000A884B881A438B881A43CB881A430B8961
:101910001A434B891A438B891A43A0F84420704715
:101920004FF6FF71818000210180C18041800172EA
:1019300070470021018041808180C1800181418107
:101940008181C18170470021018041800121818016
:101950000021C18001817047002101804180818088
:10196000C18001814181818170470000002C0140CC
:10197000003401400004004000080040000C00401A
:1019800021B1028842F00102028004E002884FF691
:10199000FE731A400280704731B1B0F8442042F41F
:1019A0000042A0F8442005E0B0F84420C2F30E0243
:1019B000A0F8442070471AB183890B43838102E069
:1019C00083898B43838170478182704741EA020398
:1019D000A0F8483070471AB183890B43838102E035
:1019E00083898B438381704701894FF6F8721140D8
:1019F000018170470A46002101894FF68F73194013
:101A000011430181704730B504460D4629462046F2
:101A1000FFF7F0FF208940F00700208130BD2DE95D
:101A2000F04104460D4616461F46602D06D13B4642
:101A3000012231462046FFF75AFE05E03B460122CF
:101A400031462046FFF79DFE29462046FFF7D2FF8C
:101A5000208940F007002081BDE8F08130B50C46B8
:101A600000210189C9B24FF6FF7505EA0325154328
:101A700025432943018130BD2DE9F04105460E463D
:101A800017469846002443463A4631462846FFF713
:101A9000E5FF2C894FF6F870044044F007044FF638
:101AA0008F70044044F070042C81BDE8F081F0B5E3
:101AB00004460D4616461F463B46324629462046FA
:101AC000FFF7CCFF208940F480402081F0BD0185E4
:101AD000828270470A46002101884FF68F731940B1
:101AE000114301807047F0B50C4615461E46002193
:101AF000002200230189028B038C4FF6F8773940CE
:101B000021434FF6FC473A4040F201173A434FF663
:101B1000DD773B404FF6FF7707EA06172F433B433D
:101B2000018102830384F0BD0A460021018B4FF638
:101B30008F7319401143018370470A460021018BBE
:101B400048F6FF7319404FF6FF7303EA0223194367
:101B5000018370470A460021818B4FF68F7319402D
:101B60001143818370470A460021818B48F6FF7339
:101B700019404FF6FF7303EA02231943818370472C
:101B800021B1028842F08002028004E002884FF610
:101B90007F731A400280704721B1828842F00402AC
:101BA000828004E082884FF6FB731A40828070477F
:101BB00021B1828842F00802828004E082884FF6D8
:101BC000F7731A408280704721B1828842F0010287
:101BD000828004E082884FF6FE731A40828070474C
:101BE0000A460021018B4FF6F77319401143018318
:101BF00070470A460021018B4FF2FF7319404FF6E0
:101C0000FF7303EA02231943018370470A46002148
:101C1000818B4FF6F77319401143818370470A4651
:101C20000021818B4FF2FF7319404FF6FF7303EAD7
:101C300002231943818370470A460021018B4FF626
:101C4000FB7319401143018370470A460021018B41
:101C50004FF6FF3319404FF6FF7303EA022319438F
:101C6000018370470A460021818B4FF6FB731940B0
:101C70001143818370470A460021818B4FF6FF3361
:101C800019404FF6FF7303EA02231943818370471B
:101C90000A460021018B4FF67F73194011430183DF
:101CA00070470A460021018BC1F30E014FF6FF7306
:101CB00003EA02231943018370470A460021818BFE
:101CC0004FF67F7319401143818370470A46002104
:101CD000818BC1F30E014FF6FF7303EA0223194310
:101CE000818370470A460021018C4FF6FD7319402D
:101CF0001143018470470A460021018C4FF6F773A7
:101D000019401143018470470A460021018C4FF6A7
:101D1000DF7319404FF6FF7303EA0213194301847E
:101D200070470A460021018C4FF67F7319404FF629
:101D3000FF7303EA02131943018470470A46002126
:101D4000018C4FF6FF5319404FF6FF7303EA02234D
:101D50001943018470470A460021018C4FF2FF733A
:101D600019404FF6FF7303EA0223194301847047B9
:101D70000A460021018C4DF6FF7319404FF6FF73A0
:101D800003EA023319430184704730B5002301246C
:101D90008C40A3B2048C9C430484048C02FA01F5A9
:101DA000ADB22C43048430BD30B5002304248C40F4
:101DB000A3B2048C9C430484048C02FA01F5ADB2F6
:101DC0002C43048430BD70B503460020002418461F
:101DD000183001258D40ACB21D8CA5431D8409B17E
:101DE000082909D100EB6100056825F07005056040
:101DF0000568154305600EE00D1FC5F34E05284428
:101E0000056825F4E045056005684FF6FF7606EAAB
:101E100002263543056070BD21B1028842F00202FE
:101E2000028004E002884FF6FD731A40028070477A
:101E300021B1028842F00402028004E002884FF6D9
:101E4000FB731A400280704721B1828842F0800201
:101E5000828004E082884FF67F731A408280704748
:101E600002884FF6F7731A40028002880A43028004
:101E7000704782884FF68F731A40828082880A43A7
:101E80008280704702894FF6F8731A4002810289F6
:101E90000A430281704702894FF67F731A4002811C
:101EA00002890A43028170478184704781857047A7
:101EB000818670470187704781877047A0F840107E
:101EC000704702884FF6FF431A40028002880A4397
:101ED000028070470146888E70470146088F704720
:101EE0000146888F70470146B1F8400070470146AF
:101EF000888C70470146088D704702460020138A7F
:101F00000B400BB1012000E000207047CA43028261
:101F1000704730B50246002000230024158A05EAE8
:101F20000103958905EA010413B10CB1012000E019
:101F3000002030BDCA4302827047000010B504463D
:101F4000FB48844209D101218803FFF79FF8002153
:101F50004FF48040FFF79AF832E0F648844209D106
:101F600001214804FFF79FF800214FF40030FFF7EC
:101F70009AF825E0F048844209D101218804FFF74E
:101F800092F800214FF48020FFF78DF818E0EB481D
:101F9000844209D10121C804FFF785F800214FF4DC
:101FA0000020FFF780F80BE0E548844208D10121CA
:101FB0000805FFF778F800214FF48010FFF773F859
:101FC00010BD2DE9F04786B005460E460024A24616
:101FD00000BFA1460027B08900B100BF2F462C8A60
:101FE0004CF6FF700440F08804432C82AC894EF616
:101FF000F3100440B08831890843718908430443D1
:10200000AC81AC8A4FF6FF400440B0890443AC82F7
:1020100001A8FEF7B4FFC648874202D1DDF810A040
:1020200001E0DDF80CA0A88900F4004040B10AEB03
:10203000CA0000EB0A1031684900B0FBF1F807E074
:102040000AEBCA0000EB0A1031688900B0FBF1F816
:102050006420B8FBF0F004012009642101FB108921
:10206000A88900F4004040B1322000EBC900B0FB69
:10207000F1F000F00700044308E0322000EB091003
:102080006421B0FBF1F000F00F0004432C8106B096
:10209000BDE8F0874FF41651016000218180C180B6
:1020A00001810C21418100218181704710B50246D8
:1020B0000020108A4FF2FF0318400B884C882343FE
:1020C0008C882343CC8823431843108210BD002101
:1020D000018041808180C180704721B1828942F4B2
:1020E0000052828104E082894DF6FF731A4082819A
:1020F0007047F0B50346002400260025002040F676
:102100006A17B94200D100BF1846C1F3421401F06A
:102110001F06012707FA06F5012C01D10C3004E057
:10212000022C01D1103000E014301AB107682F439F
:10213000076002E00768AF430760F0BD1AB1838A09
:102140000B43838202E0838A8B4383827047028A37
:102150004FF6F0731A400282028A0A4302827047E5
:1021600082894FF2FF731A40828182890A438281F9
:10217000704721B1828942F00202828104E08289A3
:102180004FF6FD731A4082817047028A4FF6DF7363
:102190001A400282028A0A430282704721B1028AEF
:1021A00042F48042028204E0028A4BF6FF731A4036
:1021B00002827047C1F30802828070470146888816
:1021C000C0F308007047818941F0010181817047A7
:1021D000028BD2B20283028B42EA01220283704751
:1021E000028B02F47F420283028B0A430283704710
:1021F00021B1828A42F02002828204E0828A4FF674
:10220000DF731A408282704721B1828A42F0100245
:10221000828204E0828A4FF6EF731A40828270470E
:1022200021B1828A42F00802828204E0828A4FF65B
:10223000F7731A408282704721B1828942F40042CA
:10224000828103E08289C2F30E028281704721B14C
:10225000828A42F40062828204E0828A4FF2FF7333
:102260001A4082827047828A4FF6FB731A4082823C
:10227000828A0A438282704721B1828A42F0020236
:10228000828204E0828A4FF6FD731A408282704790
:1022900002460020B1F5007F00D100BF13880B403B
:1022A0000BB1012000E00020704701F40072B2F58C
:1022B000007F00D100BFCA430280704770B502465C
:1022C000002400230025002040F66A16B14200D108
:1022D00000BFC1F3421501F01F03012606FA03F304
:1022E000012D02D19689334006E0022D02D1168AD3
:1022F000334001E0968A33400C12012606FA04F4BA
:102300001688344013B10CB1012000E0002070BDEC
:1023100010B50022002340F66A14A14200D100BF8C
:102320000A1201249440A3B2DC43048010BD0000D3
:10233000003801400044004000480040004C00408C
:1023400000500040002500260024002700F0F8FF80
:1023500000F0FAFC00F049FD01F04BF801F08AF8BA
:1023600001F06AF800F0BAFF00F064FF00F018FF17
:1023700001F0BBF801F0B2FB01F0F9FB00F08CFCBE
:10238000B7E05C48007800F00100002850D05A48BF
:1023900000685A4908605A4800685A4908605A4813
:1023A00000685A4908605A4800685A4908605A4803
:1023B00000685A490860002419E05048005D5849F7
:1023C00008555048015D564A201D11544F48015D83
:1023D00004F1080011544F48015D04F10C00115440
:1023E0004E48015D04F110001154601CC4B2042C6D
:1023F000E3DB0A204A490875002611E040214948DC
:10240000FFF753FF4648815D4648FFF7D3FE00BF04
:1024100040214448FFF73CFF0028F9D0701CC6B2A9
:10242000152EEBDB3348007800F0FE0031490870D0
:102430003048007800F0020058B13B4801683B4842
:10244000006801F001FC2B48007800F0FD002949EC
:1024500008702848007800F0080028B3402131486F
:10246000FFF723FF00270CE000212E48FFF7A2FE14
:1024700000BF40212B48FFF70BFF0028F9D0781C44
:10248000C7B2032FF0DB0A212648FFF793FE00BFF7
:1024900040212448FFF7FCFE0028F9D015480078B9
:1024A00000F0F700134908702148008800F400404C
:1024B000C8B100250AE01F48405D1F4948551D4925
:1024C000281D085C1D494855681CC5B2042DF2DB67
:1024D000194800681A4908601848006819490860D6
:1024E000002013490880154A1168134A106800F04B
:1024F000C2FA46E75D0000204C01002040000020A9
:102500005001002044000020540100204800002019
:10251000880100204C0000208C0100205000002089
:10252000B801002000380140980000209C000020E5
:102530007C000020CD01002034000020300000206D
:10254000380000203C000020704700BFFEE700BFBD
:10255000FEE700BFFEE700BFFEE770477047704729
:1025600010B540F225517848FFF7A8FE00286AD040
:102570007548FFF723FE754908707548008800F418
:10258000004000285FD17248008800F48040A0B36A
:10259000084600780A2826D16D48007800F03F00F0
:1025A000082811D16A48008840F400406849088032
:1025B0006848007840F004006649087008460078D2
:1025C00000F0F70008703EE06248007840F0080034
:1025D000604908700846007800F0FB000870002091
:1025E0005B4908802FE05B48007840F008005949BB
:1025F000087000205649088025E0FFE7534800781E
:102600000D2806D15248008840F480405049088087
:1026100019E04E4800784E490988C1F30D014E4A31
:1026200050544B480088401C49490880084600889F
:10263000C72808DD4748007840F008004549087081
:1026400000204349088010BD704770B50121434800
:10265000FFF75FFC002864D04148008828B140485B
:102660000088401E3E49088006E040F22B103C499D
:10267000088001203B4908703B48008828B13A484F
:102680000088401E3849088006E040F22B10364989
:1026900008800120354908603548008828B1344851
:1026A0000088401E3249088037E009203049088000
:1026B00000F0EAFB044600F018FC054601202D4915
:1026C00008602448007840F002002249087028463B
:1026D00001F01FFD28490860204601F01AFD274936
:1026E000086027482749097840F8214026482549AD
:1026F000097840F8215023480078401C214908708F
:1027000008460078032801DB0020087000F01EFC5A
:1027100000F0AAFC00F0D8FC00BF01210F48FFF731
:1027200009FC70BD10B501211848FFF7F2FB48B154
:102730000848007840F0010006490870012113485C
:10274000FFF7F8FB10BD0000003801407E000020BC
:102750007C0000205D000020CD010020000C004026
:102760006200002074000020640000206800002047
:102770006000002070000020980000209C000020D5
:102780009802002028010020A4020020002C014013
:102790002DE9F04704460F46002001F0BAFC8046C0
:1027A0003946206A01F03FFC8246414601F0E9FBD0
:1027B000E060E168206801F03CFC8146A06901F01E
:1027C000A8FC8246E16801F0DCFB804601F0AFFC2A
:1027D000A0612149E069086020491F48006801F0B4
:1027E00021FD05D31E491C48006801F011FD01D2EE
:1027F00000206060A06901F08CFC8046616801F0F7
:1028000018FC0546D4E9030101F00DFC8046A168DF
:1028100001F00FFC0646E06820612946484601F0B9
:10282000B0FB8046314601F0ACFBE0610D49E06948
:10283000096801F0F7FC02D20A480068E0610A4921
:10284000E069096801F0E4FC02D207480068E06131
:10285000E069BDE8F0870000940000200000A0407F
:102860000000A0C0840000208800002010B50446AD
:1028700042F2107084420ED94021CD48FEF7BDF9D6
:102880008021CB48FEF7BBF9A4F51C50103801F0AD
:1028900049FCC849086242F2107084420ED280217D
:1028A000C348FEF7AAF94021C148FEF7A8F942F251
:1028B0001071081B01F036FCBE49086242F210702C
:1028C00084420AD14021BA48FEF797F98021B848DE
:1028D000FEF793F90020B749086210BD10B5044611
:1028E00042F21070844210D94FF48061B048FEF774
:1028F00084F94FF40061AE48FEF781F9A4F51C504D
:10290000103801F00FFCAC49086242F210708442AA
:1029100010D24FF40061A648FEF76FF94FF48061C2
:10292000A348FEF76CF942F21071081B01F0FAFBA4
:10293000A149086242F2107084420CD14FF48061C8
:102940009B48FEF75AF94FF400619948FEF755F994
:1029500000209949086210BD2DE9FE4F0446042568
:102960005A266427DFF854824FF48059384601F024
:10297000D0FB4146009001F05CFB834605FB06F16D
:1029800001FB09F101FB04F001F0C3FB5946019082
:1029900001F081FB029001F0CAFB82465046BDE87F
:1029A000FE8F2DE9F84F0446854D844E204601F0F8
:1029B000B0FB3146009001F03CFB8346294601F014
:1029C00038FB82467F4901F066FB814601F0AFFB90
:1029D0008046FFF7C1FF07463846BDE8F88F10B5BF
:1029E00042F6E060FFF742FF42F6E060FFF776FF55
:1029F00010BD10B542F21070FFF738FF42F21070B0
:102A0000FFF76CFF642001070887888710BD10B5A9
:102A1000044642F210716018FFF728FF42F210716D
:102A20006018FFF75BFF10BD10B5044642F210714D
:102A3000081BFFF71BFF42F210716018FFF74EFFF3
:102A400010BD10B5044642F210716018FFF70EFF7A
:102A500042F21071081BFFF741FF10BD10B504468C
:102A600042F21071081BFFF701FF42F21071081BC0
:102A7000FFF734FF10BD2DE9F05F04460D46524EBE
:102A8000304601F054FB834601F043FB8246214669
:102A900001F0CFFA814601F04AFB0746304601F0CB
:102AA00046FB834601F035FB8246294601F0C1FA18
:102AB000814601F03CFB804642F210703844FFF73B
:102AC0000DFF42F210704044FFF7D0FEBDE8F09FCA
:102AD0002DE9F05F04460D4642F21070FFF797FFB4
:102AE00042F210716018FFF7C1FE42F210716018D7
:102AF000FFF7F4FE284601F01AFB0646FFF72CFF0D
:102B00003249086032480068012812D1002030495B
:102B10000860304801683048006801F032FA2E49F8
:102B200008602E4801682E48006801F02AFA2C49F6
:102B300008602B4801682848006801F022FA8346A3
:102B40004FF0804101F0A7FA81462048006801F06B
:102B5000E0FA8246494601F066FA064601F014FBA7
:102B600021F00041074600221E4B01F021FB14D941
:102B70001B4801681848006801F003FA80464FF0CE
:102B8000804101F088FA06461048006801F0C1FA59
:102B90000746314601F03CFB08D800200E4908608A
:102BA0000F4908601049086010490860BDE8F09FAF
:102BB00000100140D8000020FC000020C3F5484070
:102BC000004088430000B443986E8941AC00002067
:102BD0007000002098000020A00000209C00002031
:102BE000A400002000407F40A800002079000020C1
:102BF0004FF0E021096921F004014FF0E02211615A
:102C0000C21700EB5272C2F3C702404B1A7019464A
:102C1000097801EB4102C2EBC1114FF6FF7202EAE3
:102C2000C1013B4A118070470146394A12884A4324
:102C30004FF0E0235A6100229A6101221A6100BF1D
:102C40004FF0E022106900F001021AB100F4803266
:102C5000002AF5D000224FF0E0231A619A617047F4
:102C600001462A4A12784A434FF0E0235A61002273
:102C70009A6101221A6100BF4FF0E022106900F052
:102C800001021AB100F48032002AF5D000224FF080
:102C9000E0231A619A61704730B51E48006842F21D
:102CA0001072B0FBF2F1B1F1807F00D31DE021F092
:102CB0007F40401E4FF0E022506150170F22002845
:102CC00007DA13071D0E144B00F00F04241F1D55C7
:102CD00003E013071C0E114B1C5400BF00204FF0E3
:102CE000E02290610720106100BF30BD10B50C4894
:102CF0000068401C0A49086008460068592803DD3E
:102D000000200860FEF723F810BD0000B00000208E
:102D1000B20000200000002018ED00E000E400E018
:102D2000B4000020002007E00021FE4A42F82010F5
:102D3000FD4A42F82010401C0328F5D30121FB4A2C
:102D40001170FB4A1170704700B587B00121042053
:102D5000FEF78FF901210820FEF77EF96846FDF79E
:102D60002AFFC020ADF8000004208DF803000320E6
:102D70008DF802006946EF48FDF792FEEE48FEF737
:102D8000CFF904A8FEF7CCFD0020ADF8100043F603
:102D9000FF70ADF814000020ADF81600ADF8120079
:102DA00004A9E548FEF790FA00231A460321E248F9
:102DB000FEF799FE01A8FEF7C6FD0620ADF80C004F
:102DC00001A9DD48FEF713FD0121DB48FFF79EF85E
:102DD00001221146D848FEF7EEFDFFF7A3FF0121BF
:102DE000D548FEF7CDFD07B000BD00B587B0012185
:102DF0000220FEF73EF901210420FEF72DF9684676
:102E0000FDF7D9FEC020ADF8000004208DF80300C6
:102E100003208DF802006946C848FDF741FEC84806
:102E2000FEF77EF904A8FEF77BFD0020ADF8100048
:102E300043F6FF70ADF814000020ADF81600ADF8B1
:102E4000120004A9BE48FEF73FFA00231A460321E8
:102E5000BB48FEF748FE01A8FEF775FD0620ADF859
:102E60000C0001A9B648FEF7C2FC0121B448FFF7E7
:102E70004DF801221146B248FEF79DFD0121B048F0
:102E8000FEF77EFD07B000BD70B5A8480078F0B928
:102E9000AC480188A848243003880020A94E30801F
:102EA000A5482430008805B2A348008800F010002F
:102EB000102805D1A4480068181AC0EB813204E03C
:102EC000A1480068181A00EB8132144609E000207E
:102ED000964E307000249B4E3080974824300088F6
:102EE00005B29948056020B270BD70B59048007871
:102EF000F0B9964801889248243003880020934E08
:102F000030808F482430008805B28D48008800F05A
:102F10001000102805D18E480068181AC0EB8132C5
:102F200004E08B480068181A00EB8132144609E06F
:102F300000207F4E30700024844E30808048243042
:102F4000008805B28248056020B270BD2DE9F05FAF
:102F500000210C460D460E460F468A460DE071488C
:102F600050F82A00861947EBE0776F4850F82A108E
:102F70000C1945EBE1750AF1010ABAF1030FEED322
:102F8000032200232046294600F0CEFF04460D46CA
:102F9000032200233046394600F0C6FF06460F469E
:102FA000C8224FF0000C2346A3FB023B05FB02B1F5
:102FB00004FB0C103C220021A3FB028B00FB02B09F
:102FC00003FB01094FF480420B464046494600F09E
:102FD000ABFF0446C82300213046A0FB03CB07FB10
:102FE00003B206FB01203C22ACFB028B00FB02B0CB
:102FF0000CFB01094FF480420B464046494600F065
:1030000093FF064630B25349086020B25249086027
:1030100050480068514908604F48006850490860AE
:10302000BDE8F09F10B501214348FEF76FFF45480A
:1030300000884FF6FF71884204D042480088401C47
:103040004049088010BD10B501213D48FEF75EFFE4
:103050003E4800884FF6FF71884204D03B48008804
:10306000401C3A49088010BD70B53D4800683B4996
:103070000968401A3B4908603648006801F052F878
:10308000054629463848FFF783FB04463748016860
:10309000204600F076FF354908603549334800681E
:1030A00001F0C0F802D232483049086000212F48B0
:1030B000006801F0ADF802D200202C4908602B48CE
:1030C00000682C49086070BD70B524480068244928
:1030D0000968401A234908601F48006801F022F877
:1030E000054629462448FFF753FB04462348016858
:1030F000204600F046FF214908601D491F4800682E
:1031000001F090F802D21A481C49086000211B48BF
:10311000006801F07DF802D20020184908601748C5
:1031200000682DE098020020A40200202E0100205B
:103130002F010020000C0140000800400008014061
:10314000000400402C010020200100202A01002062
:1031500024010020C0000020C4000020C80000207E
:10316000CC000020D4000020FC000020340100200E
:1031700000006145D0000020D80000203801002068
:1031800000F0EEFF4FF0804108870448006800F02F
:10319000E7FF4FF08041888770BD0000D00000201D
:1031A00008B501215C20FDF757FF4FF44C60ADF8E6
:1031B000000010208DF8030003208DF802006946FE
:1031C0001848FDF76DFC4FF4C850ADF800004820DA
:1031D0008DF8030003208DF8020069461248FDF7C0
:1031E0005FFC4FF47840ADF8000048208DF80300F4
:1031F00003208DF8020069460C48FDF751FC2020A1
:10320000ADF8000010208DF8030003208DF80200B7
:1032100069460748FDF744FC20210548FDF7EDFC11
:1032200008BD0000001001400008014000180140E6
:10323000000C014008B500214FF00060FDF7BBF81D
:103240004FF4C060FDF780F825208DF800000120C4
:103250008DF8010003208DF8020001208DF8030095
:103260006846FDF776F81D208DF8000000208DF8E7
:10327000010001208DF802008DF803006846FDF77B
:1032800068F81E208DF8000000208DF801008DF8F0
:10329000020001208DF803006846FDF75AF832203D
:1032A0008DF8000000208DF8010002208DF802004A
:1032B00001208DF803006846FDF74BF819208DF8C2
:1032C000000001208DF8010004208DF8020001208B
:1032D0008DF803006846FDF73CF808BD10B5FDF712
:1032E0004DFD4FF48030FDF769FDFDF7A6FD044666
:1032F000012C24D11020FDF7A9F80220FDF792F847
:103300000020FDF7E0FD0020FDF7EFFDA002FDF736
:10331000E3FD4FF4E0112004FDF7B8FD0120FDF7B7
:10332000C1FD00BF3920FDF76CFD0028FAD0022056
:10333000FDF7BBFD00BFFDF7C1FD0828FBD110BDA7
:1033400000B589B001210846FDF793FE0121042054
:10335000FDF782FE0620ADF8200018208DF823002E
:1033600003208DF8220008A95648FDF799FB40F686
:103370000F60ADF818000020ADF81400ADF81A0089
:10338000ADF8160005A94FF08040FDF79DFF6020C5
:10339000ADF804000020ADF80C000120ADF80600E7
:1033A0006420ADF80A0001A90007FEF759F80821CA
:1033B000C806FEF72BFC6020ADF804000020ADF835
:1033C0000C000120ADF806006420ADF80A0001A948
:1033D0000007FDF7F8FF0821C806FEF70AFC0121E7
:1033E0008807FEF7CDFB01218807FEF7C9FA09B06F
:1033F00000BD0EB501210820FDF73BFE4FF47A60B9
:10340000ADF804000820ADF800000020ADF806007B
:10341000ADF8020069462C48FDF756FF01212A4805
:10342000FEF774FD012211462748FEF7C4FA012178
:103430002548FEF7A5FA0EBD0EB501211020FDF7B7
:1034400018FE2248FDF76CFE4FF6FF70ADF8040041
:1034500040F26710ADF800000020ADF80600ADF8AE
:10346000020069461948FDF72FFF01211748FEF7B2
:103470004DFD0EBD0EB50121C802FDF7EDFD14484E
:10348000FDF74EFE4FF4FA70ADF8040041F61F4010
:10349000ADF800000020ADF80600ADF80200694666
:1034A0000B48FDF711FF01210948FEF72FFD01220E
:1034B00011460748FEF77FFA01210548FEF760FA3A
:1034C0000EBD000000080140000C0040001000404C
:1034D000002C014006E0002101E04A1CD1B248293D
:1034E000FBDB401E0028F6DC704708B501212020D8
:1034F000FDF7B2FD0120ADF8000010208DF80300AB
:1035000003208DF802006946FE48FDF7C9FA022043
:10351000ADF8000004208DF803006946F948FDF776
:10352000BFFA0420ADF8000010208DF8030003203E
:103530008DF802006946F348FDF7B2FA0820ADF8AD
:10354000000004208DF803006946EE48FDF7A8FA54
:103550004FF48070ADF8000010208DF803000320B8
:103560008DF802006946E748FDF79AFA4FF40070BB
:10357000ADF8000004208DF803006946E148FDF72E
:103580008FFA4FF48060ADF8000010208DF8030032
:1035900003208DF802006946DA48FDF781FA4FF4FE
:1035A0000060ADF8000004208DF803006946D5489E
:1035B000FDF776FA4FF48050ADF8000010208DF83A
:1035C000030003208DF802006946CE48FDF768FA33
:1035D0004FF40050ADF8000004208DF80300694658
:1035E000C848FDF75DFA4FF48040ADF800001020A8
:1035F0008DF8030003208DF802006946C148FDF7ED
:103600004FFA4FF40040ADF8000004208DF803009D
:103610006946BC48FDF744FA1020ADF800008DF86B
:10362000030003208DF802006946B648FDF738FA1A
:103630008020ADF8000004208DF803006946B148F1
:10364000FDF72EFA08BD10B5AF48FEF750FC00EBB1
:10365000800000EB001040004FF4FA6190FBF1F0A5
:10366000AA4908800846008810BD70B504460025A8
:10367000062C4BD2DFE804F0034B97E3FCFB04215C
:10368000A048FDF7BAFA0A20FFF724FF04219D485D
:10369000FDF7B5FA00BF08219A48FDF794FA002813
:1036A000F9D001219848FEF76BF928E09648FEF71B
:1036B0001EFC9749098888420EDD00219248FEF7DA
:1036C0005FF9FFF7C0FF054600218F48FEF7ECFBCE
:1036D00001209049087012E008218A48FDF773FA2A
:1036E00068B900218848FEF74BF9FFF7ACFF0546A3
:1036F00000218548FEF7D8FB0120864908708548DF
:1037000000780028D2D00020824908708BE14FF465
:1037100080717C48FDF771FA0A20FFF7DBFE4FF459
:1037200080717848FDF76BFA00BF4FF4007175485F
:10373000FDF749FA0028F8D001217348FEF720F977
:1037400029E07148FEF7D3FB7149098888420EDDF4
:1037500000216D48FEF714F9FFF775FF05460021BB
:103760006948FEF7A1FB01206B49087013E04FF494
:1037700000716448FDF727FA68B900216248FEF736
:10378000FFF8FFF760FF054600215F48FEF78CFB5E
:10379000012061490870604800780028D1D00020DD
:1037A0005D4908703FE14FF480615648FDF725FA06
:1037B0000A20FFF78FFE4FF480615248FDF71FFA91
:1037C00000BF4FF400614F48FDF7FDF90028F8D025
:1037D00001214D48FEF7D4F829E04B48FEF787FB5E
:1037E0004B49098888420EDD00214748FEF7C8F89A
:1037F000FFF729FF054600214348FEF755FB01204E
:103800004649087013E04FF400613E48FDF7DBF9CC
:1038100068B900213C48FEF7B3F8FFF714FF0546EE
:1038200000213948FEF740FB01203C4908703B4825
:1038300000780028D1D0002038490870F3E04FF418
:1038400080513048FDF7D9F90A20FFF743FE4FF4C5
:1038500080512C48FDF7D3F900BF4FF4005129489F
:10386000FDF7B1F90028F8D00121274801E092E0E6
:1038700034E0FEF785F829E02348FEF738FB2449B9
:10388000098888420EDD00211F48FEF779F8FFF70E
:10389000DAFE054600211C48FEF706FB0120204900
:1038A000087013E04FF400511648FDF78CF968B921
:1038B00000211548FEF764F8FFF7C5FE0546002114
:1038C0001148FEF7F1FA01201549087014480078F4
:1038D0000028D1D0002012490870A4E04FF48041A4
:1038E0000848FDF78AF90A20FFF7F4FD4FF48041FC
:1038F0000448FDF784F900BF4FF400410148FDF78B
:1039000062F90FE00014014000100040480100205F
:103910003E01002040010020410100204201002022
:10392000430100200028E7D001216648FEF728F86F
:1039300029E06448FEF7DBFA6349098888420EDD16
:1039400000216048FEF71CF8FFF77DFE05460021C8
:103950005C48FEF7A9FA01205C49087013E04FF4B7
:1039600000415B48FDF72FF968B900215548FEF783
:1039700007F8FFF768FE054600215248FEF794FA63
:10398000012052490870514800780028D1D0002009
:103990004E49087047E010214D48FDF72EF90A20E6
:1039A000FFF798FD10214A48FDF729F900BF802153
:1039B0004748FDF708F90028F9D001214148FDF7F3
:1039C000DFFF28E03F48FEF792FA3F490988884226
:1039D0000EDD00213B48FDF7D3FFFFF734FE05461F
:1039E00000213848FEF760FA01203A49087012E0D9
:1039F00080213748FDF7E7F868B900213148FDF725
:103A0000BFFFFFF720FE054600212E48FEF74CFAC7
:103A10000120304908702F4800780028D2D00020BB
:103A20002C49087000BF00BF284670BD10B50024A7
:103A300001212748FDF7E1F80F20FFF74BFD012199
:103A40002348FDF7DCF800BF02212148FDF7BBF851
:103A50000028F9D001211B48FDF792FF28E0194802
:103A6000FEF745FA1849098888420EDD00211548FD
:103A7000FDF786FFFFF7E7FD044600211148FEF73A
:103A800013FA01201449087012E002211048FDF7D2
:103A90009AF868B900210B48FDF772FFFFF7D3FDD4
:103AA000044600210748FEF7FFF901200A49087083
:103AB000094800780028D2D0002007490870204625
:103AC00010BD0000001000403E0100204401002015
:103AD00000140140450100204601002000B585B0DA
:103AE00001210520FDF7B8FA01218803FDF7B4FA9A
:103AF0005148FEF723FA4FF40070ADF8100018207B
:103B00008DF8130003208DF8120004A94B48FCF730
:103B1000C7FF4FF48060ADF8100048208DF8130007
:103B200004A94648FCF7BCFF4FF4E13000900020A8
:103B3000ADF80400ADF80600ADF80800ADF80C00D3
:103B40000C20ADF80A0069463B48FEF73AFA01221C
:103B500040F225513848FEF7CCFA01213648FEF7ED
:103B6000BCFA40213448FEF7A0FB05B000BD00B50B
:103B700085B001214804FDF77CFA01212120FDF7E1
:103B80006BFA01210820FDF75CF82020ADF8100049
:103B900018208DF8130003208DF8120004A928487E
:103BA000FCF77EFF4020ADF8100048208DF8130090
:103BB00004A92348FCF774FF4FF4E1300090002083
:103BC000ADF80400ADF80600ADF80800ADF80C0043
:103BD0000C20ADF80A0069461A48FEF7F2F90122F6
:103BE00040F225511748FEF784FA01211548FEF7E7
:103BF00074FA40211348FEF758FB05B000BD70B5BC
:103C000004460D46E1B20C48FEF7D4FA00BF80210D
:103C10000948FEF73DFB0028F9D0204670BD10B5DD
:103C2000044600BF20210448FEF732FB0028F9D0EB
:103C30000148FEF7C3FA10BD0038014000080140FA
:103C400000140140004400402DE9F0470446894635
:103C50009B48007818B39B4801689B48006800F0B7
:103C6000E8F9074699480168384600F0E2F9054648
:103C7000974801689748006800F0DBF90646294636
:103C800000F009FA94490860944801689248006875
:103C900000F001FA924908600020894908704946FD
:103CA000204600F06EF905464FF07C5100F0C1F956
:103CB0008C4908604946204600F0B5F98A490860F9
:103CC00000218A48006800F0ADFA0ED20021884831
:103CD000006800F0A7FA08D28248006885490860A9
:103CE000814800688449086051E000217F480068ED
:103CF00000F08EFA12D200217D48006800F088FAA8
:103D00000CD27848006880F000407A490860764814
:103D1000006880F000407849086038E0002173486E
:103D2000006800F075FA14D200217148006800F0B4
:103D300079FA0ED26C48006880F000406D49086046
:103D4000684801684FF0404000F073F96A49086024
:103D50001DE000216548006800F064FA12D20021DD
:103D60006348006800F054FA0CD25F48006861496B
:103D700008605C4801684FF0804000F05AF95E49E5
:103D8000086004E000205B4908605B4908605B480C
:103D9000006800F0F9F9074601F0F2F8054600F076
:103DA0001BFA574908605548006800F0EDF90746CE
:103DB00001F090F8054600F00FFA524908604848B3
:103DC00001684D48006800F034F94F4908604D48DB
:103DD00001684848006800F02CF906463E48016832
:103DE000304600F026F9054648480168284600F0AC
:103DF000C8F846490860424801683E48006800F03B
:103E000018F9064634480168304600F012F90546B4
:103E10003F480168284600F0B4F83D4908603A4838
:103E200001683C48006800F0ACF83A490860364840
:103E300001684FF07C5000F0FCF8054635480168F9
:103E4000284600F09EF82D4908602348016829485B
:103E5000006800F0EEF805462F480168284600F09B
:103E60001AF92E4908602C4801682748006800F0BC
:103E700012F92B490860164801682648006800F0CE
:103E8000D1F908D2274801682248006800F0CBF831
:103E90002049086011E00E48006880F000451D4888
:103EA0000168284600F0BEF907D21E48016819488B
:103EB000006800F066F817490860BDE8F087000068
:103EC000B00100206001002080010020640100207A
:103ED0007001002068010020A00100205C0100208A
:103EE000A4010020A8010020AC010020380000201F
:103EF0003C000020980100209C0100205801002077
:103F00009001002094010020840100204C01002039
:103F100050010020540100207C0100208801002075
:103F20008C010020780100202DE9F0410024254675
:103F3000002905DA01240027D0EB070067EB010117
:103F4000002B05DA0027D2EB0702012567EB0303FC
:103F500000F072F986460E4617469C46AC4204D0E5
:103F60000025D0EB050E65EB010624B10020D2EB55
:103F7000000760EB030C704631463A466346BDE8E5
:103F8000F081F0B480EA0102D40F4200B2EB410F9D
:103F900002D20246084611464A0042D0C30DDDB2A5
:103FA000C1F3C752AD1A202D35DAC1F3160141F421
:103FB000000204B15242C5F1200602FA06F12A417C
:103FC0001044B3EBD05F23D0C4B1012DA0EBC3509C
:103FD00009DCF0BC4FF0004202EAC352DBB200F54C
:103FE000000000F063B9400000F1807000EBC350A6
:103FF000A0F1807040EAD170490009E0490841EA27
:10400000C071A0EBC35000F50000400800EBC350A6
:10401000F0BC00F042B96142012202EB4101001BF9
:10402000F6E7F0BC704781F00041AAE780F000405D
:10403000A7E780EA010210B502F00043400022D059
:104040004A001FD0010E01EB1261C0F35600C2F30B
:10405000560240F4000042F40002A0FB02200004DB
:104060007F39140400D0401C50EA124001D44000B3
:10407000491EC2B20C0604EBD010401C4008802A36
:1040800002D003E0002010BD20F00100002900DA7A
:104090000020184310BD30B480EA010202F0004550
:1040A00030F0004221F0004013D090B1C30DD40D88
:1040B000C2F31601C0F31600E41A41F4000140F403
:1040C00000027D34914201D3641C00E04900002CC1
:1040D00002DA30BC002070474FF400000023914208
:1040E00001D3891A034340084FEA4101F7D151B186
:1040F000914202D14FF0004105E002D24FF00101A0
:1041000001E06FF0010103EBC450284430BC00F023
:10411000C4B8C10F80EAE0700844CA0796230021A2
:1041200000F0C4B896230022114600F0BFB800F09A
:10413000004220F00040C10DC0F3160040F4000022
:104140007F2901DA00207047962903DCC1F196012E
:10415000C84001E096398840002AF4D040427047B8
:1041600020F00040C10DC0F3160040F400007F298C
:1041700001DA00207047962903DCC1F19601C8409E
:10418000704796398840704700F0004230F0004098
:104190000AD0C10D01F56071C0F3160042EA015169
:1041A000C2084007114370470020014670470000D5
:1041B00030B5002904DB4FF00044404264EB0101BC
:1041C000002B04DB4FF00044524264EB03038B42AC
:1041D00008BF824230BD000001F0004330B421F03E
:1041E000004150EA010206D00A0DA2F56072C1F347
:1041F0001301002A02DC30BC00207047440F44EA5F
:10420000C104C100E01830BC00EBC25000F045B85A
:10421000002801DBC0F10040002901DBC1F10041B1
:1042200081427047002801DBC0F10040002901DB1A
:10423000C1F10041884270472DE9F05F054600203A
:1042400092469B4688460646814640241BE0284607
:1042500041464746224600F0FEF853465A46C01AE9
:10426000914110D311461846224600F0E5F82D1A68
:1042700067EB01084F4622460120002100F0DCF8E0
:1042800017EB00094E41201EA4F10104DFDC484673
:1042900031462A464346BDE8F09F0029A8BF704733
:1042A000401C490008BF20F00100704710B4B0FA6C
:1042B00080FC00FA0CF050EA010404BF10BC704707
:1042C00049B1CCF1200421FA04F411FA0CF118BF21
:1042D000012121430843A3EB0C01CB1D4FEA0061F0
:1042E0004FEA102042BF002010BC704700EBC350C3
:1042F00010440029A4BF10BC7047401C490008BFEF
:1043000020F0010010BC70472DE9F04D81EA030454
:1043100004F0004B21F0004514464FF0000A23F052
:10432000004150EA050220D054EA01021DD0C5F335
:104330000A570246C5F31303C1F31300C1F30A562B
:1043400040F4801543F48013A7EB0608101BD646F3
:1043500008F2FD3873EB050002D308F1010801E013
:1043600092185B41B8F1000F03DA00200146BDE866
:10437000F08D00204FF48011064684460EE0171B96
:1043800073EB050705D3121B63EB050306434CEAE9
:10439000010C49084FEA300092185B4150EA0107CE
:1043A000EDD152EA030012D082EA040083EA05014B
:1043B000084305D0101BAB4106D20122002306E0C2
:1043C00000224FF0004302E06FF0010253101AEB9D
:1043D00006004CEB085110EB0A0041EB0B01BDE865
:1043E000F04D00F048B870B521F0004303430CD005
:1043F000C1F30A550024D5EB040564EB0403D6177A
:10440000AD1AB34102DB0020014670BD201841EB1C
:10441000025170BD064C074D06E0E06840F0010314
:1044200094E8070098471034AC42F6D3FBF784FEBB
:104430005051000870510008202A04DB203A00FA8D
:1044400002F1002070479140C2F1200320FA03F3EB
:10445000194390407047202A04DB203A21FA02F0E9
:104460000021704721FA02F3D040C2F120029140AE
:1044700008431946704710B5002B08DA401C41F17B
:10448000000192185B411A4301D120F0010010BDD8
:104490002DE9F04D92469B4611B1B1FA81F202E04E
:1044A000B0FA80F220329046FFF7C6FF04460F466E
:1044B00040EA0A0041EA0B0153465A46084313D02A
:1044C000114653EA010019D0C8F140025046FFF7E7
:1044D000C2FF05460E46504659464246FFF7ACFF1E
:1044E000084305D0012004E020463946BDE8F08DA0
:1044F0000020054346EAE0762C4337430A986305DB
:10450000E40AA0EB08000022FD0A44EA47540A30FE
:1045100002D500200146E9E7010510196941DDE9EE
:10452000084500196941BDE8F04DA4E72DE9FE4FAB
:10453000804681EA0300C00F0C46009021F0004144
:1045400023F00045B8EB0200A94105D240462146C0
:1045500090461C460B46024623F00040104347D0CD
:10456000270DC7F30A00C3F30A510290401A0190C5
:1045700040286BDAC3F3130040F4801B0098924686
:1045800020B10023D2EB030A63EB0B0B01985946D1
:10459000C0F140025046FFF74FFF06460D46504619
:1045A0005946019A00F018F910EB08006141002407
:1045B00087EA115284EAE7731A4340D0009A62B343
:1045C000019A012A4FEA075215DC001B61EB020138
:1045D0004FF0004202EA0752CDE90042001C41F5CB
:1045E000801132462B46FFF753FF03B0BDE8F08F32
:1045F00040462146F9E7001B61EB0201001C41F532
:10460000801300185B412018A2F5001747EB030147
:1046100040EAD570B6196D4111E06D084FEA3606D3
:1046200045EAC0754FEA0752001B61EB0201001C0E
:1046300041F5801149084FEA3000001951413246D6
:104640002B4603B0BDE8F04FFFF715BF00980122DD
:1046500040000023D0EB020263EBE0730098214698
:104660004FEAE074B8EB000061EB0401E9E783F086
:1046700000435BE781F0004158E72DE9FE4F81EAF6
:10468000030404F0004421F0004100944FF0000BBB
:1046900023F0004350EA01045ED052EA03045BD0E9
:1046A000C3F30A54C1F30A552C44A4F2F334019421
:1046B000A0FB0254C1F3130141F48011C3F31303AF
:1046C00043F4801301FB024400FB034E840A970A63
:1046D00044EA815447EA8357A4FB076802958D0A90
:1046E00005FB07854FEA932C04FB0C542705029D1C
:1046F0004FEA065847EA1637B5EB08056EEB070C8C
:10470000870E920E47EA811742EA8312A7FB020145
:10471000B6EB0B0164EB00042B0D43EA0C335E187F
:1047200044EB1C50DA465146E7FB0201C5F3130483
:104730004FEA0B3343EA14534FEA0432019C43EA35
:104740000603A4F10C040294009CCDE900B4FFF729
:104750009FFE03B0BDE8F08F00200146F9E70EB5DB
:10476000C10F80EAE0700844CA07002140F23343D9
:104770008DE80E000A460B46FFF78AFE03B000BD27
:104780000EB540F2334102910021CDE900110A46F5
:104790000B46FFF77DFE03B000BD70B5C1F30A52B2
:1047A00001F000450024C1F3130140F2FF3341F44E
:1047B00080119A4201DA002070BD40F233439A42E0
:1047C000A2F2334203DC5242FFF745FE00E0904084
:1047D0002C43F1D0404270BD202A06DBCB17203A93
:1047E00041FA02F043EAE07306E041FA02F3D040F6
:1047F000C2F12002914008431946704770B58C18E9
:1048000010F8015B15F0070301D110F8013B2A11E4
:1048100006D110F8012B03E010F8016B01F8016BD1
:104820005B1EF9D12B0705D40023521E0DD401F8CD
:10483000013BFAE710F8013BCB1A921C03E013F896
:10484000015B01F8015B521EF9D5A142D8D30020CB
:1048500070BD490050EAC12018BF04204A0D18BF9E
:1048600040F0010040F2FF72B2EB515F08BF40F030
:104870000200012808BF0520704700002DE9F74F0E
:10488000144696B00021C4E902111799089121F04D
:104890000045CA498D4206DC1799C4E9000119B0E8
:1048A0000020BDE8F08FC649DFF818A3A9423CDD1F
:1048B0000899C54E0029C54FC54A1799534619DDB9
:1048C000FFF7D5FE554506D0C24AC34BFFF7CFFED2
:1048D000C4E900010AE04FF0D352BF4BFFF7C7FE17
:1048E00032463B46FFF7C3FEC4E9000119B0012080
:1048F000BDE8F08FFFF71AFE554506D0B54AB64B16
:10490000FFF714FEC4E900010AE04FF0D352B24BA6
:10491000FFF70CFE32463B46FFF708FEC4E90001F4
:1049200019B04FF0FF30BDE8F08FAC49A94217999C
:1049300078DB21F000488346A94AAA4B4146FFF79D
:104940009CFE0022A84BFFF7F1FDFFF726FF099020
:10495000FFF705FF06460F469D4A5346FFF78DFEBB
:104960005A464346FFF786FE80468A46994A9A4B46
:1049700030463946FFF781FE2A0D01250B9242464B
:104980005346FFF777FE032DC4E9000139D00B9899
:10499000C1F30A51401A05EB45111139814230DA51
:1049A0009248C346784400EB0510CDF81CA00C904B
:1049B000D0E9002330463946FFF75FFECDE902011A
:1049C00002460B4658460799FFF751FE80468A4635
:1049D00002460B4658460799FFF749FEDDE90223D8
:1049E000FFF745FE83460C9803913946D0E9022330
:1049F0003046FFF742FE5A46039BFFF738FE6D1C18
:104A0000BDE708980028A2BF099819B0BDE8F08F4B
:104A1000616881F000416160099819B04042BDE8C9
:104A2000F08FFFE7C1F3130141F480110E91179944
:104A3000C1F30A51A1F2F532511102F01F08C8F179
:104A40002002129200220C920D92694A7A4402EBE3
:104A5000810101F1140C0DA95FF00607DCF80020BC
:104A6000DCF8045002FA08F3129AD1F800A025FAF3
:104A700002F21A430E9BA2FB0356A2FB00329A4499
:104A800015449A4534BF4FF0010B4FF0000B51F81D
:104A9000043C05EB0B0E7344954234BF0122002207
:104AA0001644BBF1000F02D0AB4202D903E0AB4287
:104AB00001D2012200E0002241F808A93244E1E8D5
:104AC00001237F1EACF1040CC8D10898DDE90A650A
:104AD00000F10050800F11900898099F8000FFF7A7
:104AE0003EFE80468A463846FFF74AFE6FF01D02BA
:104AF000FFF779FC074630460591FFF741FE6FF05E
:104B00003D02FFF770FCCDE903102846FFF738FEA1
:104B10006FF05D02FFF767FC064602460B46019107
:104B2000DDE90310FFF702FD3A46059BFFF7FEFCA7
:104B300042465346FFF7FAFC00200D4683464246A4
:104B40005346FFF794FD3A46059BFFF790FDDDE9DC
:104B50000332FFF78CFD3246019BFFF78BFDDFF838
:104B60009880244A4346FFF788FD06460F46234AAD
:104B7000234B58462946FFF780FD32463B46FFF758
:104B8000D5FC0F4606464FF0A842434658462946F4
:104B9000FFF773FD32463B46FFF7C8FC179A12F049
:104BA000004F04D0119A81F0004152421192C4E9A1
:104BB0000001119819B0BDE8F08F0000FB21E93F1A
:104BC0007CD90240FB21F93F7370032E8A19A33B65
:104BD000000040543163621A61B4D03DFB21394179
:104BE00083C8C96D305FE43F0000E03FB8060000B5
:104BF00040060000182D4454FB21F93D3326A61130
:104C0000460B113C2DE9FF4D21F0004807460C46AC
:104C1000B8F1795F08DAFFF7C0FD002801BF002076
:104C2000324904B0BDE8F08D3A4623461046194695
:104C3000FFF723FD054602462D480E460B4606218A
:104C4000784400F05DF82A463346FFF716FDDDE9AB
:104C5000022382468B4638462146FFF70EFD044666
:104C60000F4652465B4628463146FFF706FD224670
:104C70003B46FFF7FCFC07468A464FF0FF322846CA
:104C80003146FFF7B0FB1B4A90450ADA3A465346D5
:104C9000FFF7EDFC04B00022BDE8F04D134BFFF729
:104CA000E9BC154A4245A8BFA8F500154FF000041D
:104CB000B8BF124D22462B46FFF7D9FC0646884660
:104CC00022462B4600200949FFF7D1FC04460D4639
:104CD0003A46534630464146FFF7C9FC04B02246E7
:104CE0002B46BDE8F04DFFF7C5BC00000000F03FCB
:104CF000EC0300003333D33F0000E93F0000D23F14
:104D00002DE9F0414F1E00EBC7010446D1E9000137
:104D100015461E4637F006020DD02A463346FFF7E9
:104D2000ACFC7F1E04EBC703D3E90023FFF7FEFBB7
:104D300037F00602F1D1022F25D0042F13D0062F11
:104D400018BFBDE8F0812A463346FFF796FCD4E948
:104D50000A23FFF7EBFB2A463346FFF78EFCD4E924
:104D60000823FFF7E3FB2A463346FFF786FCD4E926
:104D70000623FFF7DBFB2A463346FFF77EFCD4E928
:104D80000423FFF7D3FB2A463346FFF776FCD4E92A
:104D90000223FFF7CBFB2A463346FFF76EFCD4E92C
:104DA0000023BDE8F041FFF7C1BB00002DE9FF4D36
:104DB000054621F0004084B00C46B0F1795F0BDA73
:104DC0002846FFF746FD042808BF00F065F828468E
:104DD00008B02146BDE8F08D2A460B461046FFF785
:104DE0004CFC06460F462A462346FFF746FC804603
:104DF00026488A4632463B4605217844FFF780FF25
:104E000083461098029160B3214A224B4046514696
:104E1000FFF733FCCDE900015A4640465146029B5C
:104E2000FFF72BFC82468846DDE906014FF0FF3292
:104E3000FFF7D9FA52464346FFF719FC32463B4684
:104E4000FFF71BFCDDE90623FFF711FCDDE900237A
:104E5000FFF70DFC08B02A462346BDE8F04DFFF7EA
:104E600009BC0B465A4630463946FFF706FC084A4D
:104E7000084BFFF75BFB42465346FFF7FEFB08B0CB
:104E80002A462346BDE8F04DFFF750BB2A03000039
:104E9000495555555555C5BF024A00201107FFF722
:104EA000A2BA000001FDFFFF02E008C8121F08C1FE
:104EB000002AFAD170477047002001E001C1121F9B
:104EC000002AFBD1704700000149086070470000CC
:104ED000B401002000B5284B21F0004287B09A426F
:104EE000DCBF0022134631DD244B9A420DD168B954
:104EF0004FF00100FFF7E8FF002207B0134610460D
:104F000011465DF804EBFFF7FFB906DB07B04FF081
:104F100001025DF804EBFFF766BA02AAFFF7AEFCE8
:104F200010F0030104BF0DF1080C9CE80F000DD038
:104F3000012001290ED0022914D00DF1080C009097
:104F40009CE80F00FFF732FF07B000BDFFF75AFEE5
:104F500007B000BD0DF1080C00909CE80F00FFF7B2
:104F600025FF05E00DF1080C9CE80F00FFF74AFE55
:104F700007B081F0004100BDFB21E93F0000F07F58
:104F800000B5294B21F0004287B09A4203DC002291
:104F90001346009233E0254B9A420DD168B94FF089
:104FA0000100FFF791FF002207B01346104611469B
:104FB0005DF804EBFFF7A8B906DB07B04FF001027C
:104FC0005DF804EBFFF70FBA02AAFFF757FC10F0E9
:104FD00003014FF001000DD0012914D002291AD08D
:104FE0000DF1080C9CE80F00FFF70CFE07B081F0F4
:104FF000004100BD0DF1080C00909CE80F00FFF788
:10500000D5FE07B000BD0DF1080C9CE80F00FFF7BE
:10501000F9FD07B000BD0DF1080C00909CE80F00F1
:10502000FFF7C4FEE2E70000FB21E93F0000F07F4C
:105030004C5555555555A53F7751C1166CC156BFB6
:105040009015CB19A001FA3EAD529C804F7E92BEC6
:10505000C4B1B4BD9EEE213ED43888BEE9FAA8BDE5
:1050600000004054FB21F93F3163621A61B4D03D26
:105070000000601A61B4D03D7370032E8A19A33BFF
:105080000000002E8A19A33BC14920259A837B3951
:1050900000000000000000006E83F9A22915444EB4
:1050A000D15727FCC0DD34F5999562DB4190433C34
:1050B000AB6351FE61C5BBDE3A6E24B7E0D24D4210
:1050C000EA2E49061C92D1091CEB1DFE3EA729B110
:1050D000F53582E88444BB2E26709CE9417E5FB49E
:1050E00039D69139F43953838B5F849C3B28F9BDC1
:1050F000FF97F81F0F9805DE8B112FEF1F6D0A5ACF
:10510000CF7E366DB709CB27663F464F2DEA5F9EAF
:10511000C7BA27757BF1E5EBF739073DEA92528A6A
:10512000B15FFB6B085D8D1FA6F810111111813F57
:10513000D561C119A0012ABF7DFEB157E31DC73E4D
:10514000EB9C2B8AE6E55ABE7CD5CF5A3AD9E53D91
:105150007051000800000020B8010000FC47000862
:10516000E0510008B8010020F8040000B84E000823
:105170001184A24A04680901020304060708090C05
:1051800069101C0204061505322B012B01091C387D
:1051900072311B104104021CC1E943091E90200911
:1051A0000AD7233CCDCCCC3D0B3A403F24D986D9FD
:1051B00072031C140525FF0A864323804023B44252
:1051C0001817C842D80FC93FDC0F4940E4CB9640BE
:1051D000DC0FC9400AD7A33B20022C45698100009F
:0400000508000131BD
:00000001FF
