Component: ARM Compiler 5.06 update 6 (build 750) Tool: armlink [4d35ed]

==============================================================================

Section Cross References

    main.o(.text) refers to _printf_percent.o(.ARM.Collect$$_printf_percent$$00000000) for _printf_percent
    main.o(.text) refers to _printf_f.o(.ARM.Collect$$_printf_percent$$00000003) for _printf_f
    main.o(.text) refers to printf1.o(x$fpl$printf1) for _printf_fp_dec
    main.o(.text) refers to _printf_pad.o(.text) for _printf_pre_padding
    main.o(.text) refers to _printf_d.o(.ARM.Collect$$_printf_percent$$00000009) for _printf_d
    main.o(.text) refers to _printf_dec.o(.text) for _printf_int_dec
    main.o(.text) refers to f2d.o(x$fpl$f2d) for __aeabi_f2d
    main.o(.text) refers to noretval__2sprintf.o(.text) for __2sprintf
    main.o(.text) refers to oled.o(.text) for OLED_ShowString
    main.o(.text) refers to fflt_clz.o(x$fpl$fflt) for __aeabi_i2f
    main.o(.text) refers to ddiv.o(x$fpl$ddiv) for __aeabi_ddiv
    main.o(.text) refers to noretval__2printf.o(.text) for __2printf
    main.o(.text) refers to delay.o(.text) for delay_init
    main.o(.text) refers to misc.o(.text) for NVIC_PriorityGroupConfig
    main.o(.text) refers to usart.o(.text) for uart_init
    main.o(.text) refers to led.o(.text) for LED_Init
    main.o(.text) refers to mpu6050.o(.text) for MPU_Init
    main.o(.text) refers to timer.o(.text) for TIM4_Int_Init
==============================================================================

Removing Unused input sections from the image.

    Removing core_cm3.o(.emb_text), (32 bytes).
    Removing stm32f10x_adc.o(.text), (1102 bytes).
    Removing stm32f10x_bkp.o(.text), (196 bytes).
    Removing stm32f10x_can.o(.text), (2544 bytes).
    Removing stm32f10x_cec.o(.text), (288 bytes).
    Removing stm32f10x_crc.o(.text), (72 bytes).
    Removing stm32f10x_dac.o(.text), (396 bytes).
    Removing stm32f10x_dbgmcu.o(.text), (48 bytes).
    Removing stm32f10x_dma.o(.text), (596 bytes).
    Removing stm32f10x_exti.o(.text), (284 bytes).
    Removing stm32f10x_flash.o(.text), (1468 bytes).
    Removing stm32f10x_fsmc.o(.text), (1548 bytes).
    Removing stm32f10x_i2c.o(.text), (1028 bytes).
    Removing stm32f10x_iwdg.o(.text), (64 bytes).
    Removing stm32f10x_pwr.o(.text), (204 bytes).
    Removing stm32f10x_rtc.o(.text), (328 bytes).
    Removing stm32f10x_sdio.o(.text), (468 bytes).
    Removing stm32f10x_spi.o(.text), (780 bytes).
==============================================================================

Image Symbol Table

    Local Symbols

    Symbol Name                              Value     Ov Type        Size  Object(Section)

    ../clib/angel/boardlib.s                 0x00000000   Number         0  boardinit1.o ABSOLUTE
    ../clib/angel/boardlib.s                 0x00000000   Number         0  boardshut.o ABSOLUTE
    ../clib/angel/boardlib.s                 0x00000000   Number         0  boardinit2.o ABSOLUTE
    ../clib/angel/boardlib.s                 0x00000000   Number         0  boardinit3.o ABSOLUTE
    ../clib/angel/dczerorl2.s                0x00000000   Number         0  __dczerorl2.o ABSOLUTE
    ../clib/angel/handlers.s                 0x00000000   Number         0  __scatter_zi.o ABSOLUTE
    ../clib/angel/kernel.s                   0x00000000   Number         0  __rtentry4.o ABSOLUTE
    ../clib/angel/kernel.s                   0x00000000   Number         0  __rtentry.o ABSOLUTE
    ../clib/angel/kernel.s                   0x00000000   Number         0  __rtentry2.o ABSOLUTE
    ../clib/angel/kernel.s                   0x00000000   Number         0  rtexit2.o ABSOLUTE
    ../clib/angel/kernel.s                   0x00000000   Number         0  rtexit.o ABSOLUTE
    ../clib/angel/rt.s                       0x00000000   Number         0  rt_locale.o ABSOLUTE
    ../clib/angel/rt.s                       0x00000000   Number         0  rt_locale_intlibspace.o ABSOLUTE
    ../clib/angel/rt.s                       0x00000000   Number         0  rt_raise.o ABSOLUTE
    ../clib/angel/scatter.s                  0x00000000   Number         0  __scatter.o ABSOLUTE
    ../clib/angel/startup.s                  0x00000000   Number         0  __main.o ABSOLUTE
    ../clib/angel/sys.s                      0x00000000   Number         0  indicate_semi.o ABSOLUTE
    ../clib/angel/sys.s                      0x00000000   Number         0  libspace.o ABSOLUTE
    ../clib/angel/sys.s                      0x00000000   Number         0  sys_stackheap_outer.o ABSOLUTE
    ../clib/angel/sys.s                      0x00000000   Number         0  use_no_semi.o ABSOLUTE
    ../clib/angel/sys.s                      0x00000000   Number         0  use_no_semi_2.o ABSOLUTE
    ../clib/angel/sysapp.c                   0x00000000   Number         0  sys_wrch.o ABSOLUTE
    ../clib/angel/sysapp.c                   0x00000000   Number         0  sys_command.o ABSOLUTE
    ../clib/armsys.c                         0x00000000   Number         0  _get_argv_nomalloc.o ABSOLUTE
    ../clib/armsys.c                         0x00000000   Number         0  argv_veneer.o ABSOLUTE
    ../clib/armsys.c                         0x00000000   Number         0  argv_veneer.o ABSOLUTE
    ../clib/armsys.c                         0x00000000   Number         0  no_argv.o ABSOLUTE
    ../clib/bigflt.c                         0x00000000   Number         0  bigflt0.o ABSOLUTE
    ../clib/btod.s                           0x00000000   Number         0  btod.o ABSOLUTE
    ../clib/heapalloc.c                      0x00000000   Number         0  hrguard.o ABSOLUTE
    ../clib/heapaux.c                        0x00000000   Number         0  heapauxi.o ABSOLUTE
    ../clib/libinit.s                        0x00000000   Number         0  libinit2.o ABSOLUTE
    ../clib/libinit.s                        0x00000000   Number         0  libinit.o ABSOLUTE
    ../clib/libinit.s                        0x00000000   Number         0  libshutdown2.o ABSOLUTE
    ../clib/libinit.s                        0x00000000   Number         0  libshutdown.o ABSOLUTE
    ../clib/locale.s                         0x00000000   Number         0  lc_numeric_c.o ABSOLUTE
    ../clib/longlong.s                       0x00000000   Number         0  lludiv10.o ABSOLUTE
    ../clib/memcpset.s                       0x00000000   Number         0  strcmpv7m.o ABSOLUTE
    ../clib/misc.s                           0x00000000   Number         0  printf_stubs.o ABSOLUTE
    ../clib/printf.c                         0x00000000   Number         0  __printf_flags.o ABSOLUTE
    ../clib/printf.c                         0x00000000   Number         0  _printf_fp_dec.o ABSOLUTE
    ../clib/printf.c                         0x00000000   Number         0  _printf_dec.o ABSOLUTE
    ../clib/printf.c                         0x00000000   Number         0  _printf_pad.o ABSOLUTE
    ../clib/printf.c                         0x00000000   Number         0  _printf_intcommon.o ABSOLUTE
    ../clib/printf.c                         0x00000000   Number         0  noretval__2sprintf.o ABSOLUTE
    ../clib/printf.c                         0x00000000   Number         0  noretval__2printf.o ABSOLUTE
    ../clib/printf.c                         0x00000000   Number         0  __2sprintf.o ABSOLUTE
    ../clib/printf.c                         0x00000000   Number         0  __2printf.o ABSOLUTE
    ../clib/printf.c                         0x00000000   Number         0  _printf_char_file.o ABSOLUTE
    ../clib/printf.c                         0x00000000   Number         0  _sputc.o ABSOLUTE
    ../clib/printf.c                         0x00000000   Number         0  __printf.o ABSOLUTE
    ../clib/printf.c                         0x00000000   Number         0  __printf_ss.o ABSOLUTE
    ../clib/printf.c                         0x00000000   Number         0  _printf_char_common.o ABSOLUTE
    ../clib/printf.c                         0x00000000   Number         0  __printf_flags_ss_wp.o ABSOLUTE
    ../clib/printf.c                         0x00000000   Number         0  __printf_nopercent.o ABSOLUTE
    ../clib/printf.c                         0x00000000   Number         0  _printf_fp_infnan.o ABSOLUTE
    ../clib/printf.c                         0x00000000   Number         0  __printf_ss_wp.o ABSOLUTE
    ../clib/printf.c                         0x00000000   Number         0  __printf_flags_wp.o ABSOLUTE
    ../clib/printf.c                         0x00000000   Number         0  __printf_wp.o ABSOLUTE
    ../clib/printf.c                         0x00000000   Number         0  __printf_flags_ss.o ABSOLUTE
    ../clib/printf_percent.s                 0x00000000   Number         0  _printf_percent.o ABSOLUTE
    ../clib/printf_percent.s                 0x00000000   Number         0  _printf_percent_end.o ABSOLUTE
    ../clib/printf_percent.s                 0x00000000   Number         0  _printf_d.o ABSOLUTE
    ../clib/printf_percent.s                 0x00000000   Number         0  _printf_f.o ABSOLUTE
    ../clib/signal.c                         0x00000000   Number         0  defsig_general.o ABSOLUTE
    ../clib/signal.c                         0x00000000   Number         0  __raise.o ABSOLUTE
    ../clib/signal.c                         0x00000000   Number         0  defsig_rtmem_inner.o ABSOLUTE
    ../clib/signal.c                         0x00000000   Number         0  defsig_rtmem_outer.o ABSOLUTE
    ../clib/signal.c                         0x00000000   Number         0  defsig_exit.o ABSOLUTE
    ../clib/signal.c                         0x00000000   Number         0  defsig_other.o ABSOLUTE
    ../clib/signal.c                         0x00000000   Number         0  defsig_segv_inner.o ABSOLUTE
    ../clib/signal.c                         0x00000000   Number         0  defsig_cppl_inner.o ABSOLUTE
    ../clib/signal.c                         0x00000000   Number         0  defsig_rtmem_formal.o ABSOLUTE
    ../clib/signal.c                         0x00000000   Number         0  defsig_pvfn_inner.o ABSOLUTE
    ../clib/signal.c                         0x00000000   Number         0  defsig_stak_inner.o ABSOLUTE
    ../clib/signal.c                         0x00000000   Number         0  defsig_fpe_inner.o ABSOLUTE
    ../clib/signal.c                         0x00000000   Number         0  defsig_rtred_inner.o ABSOLUTE
    ../clib/signal.c                         0x00000000   Number         0  defsig_abrt_inner.o ABSOLUTE
    ../clib/signal.s                         0x00000000   Number         0  defsig.o ABSOLUTE
    ../clib/stdio.c                          0x00000000   Number         0  ferror_locked.o ABSOLUTE
    ../clib/stdio.c                          0x00000000   Number         0  ferror.o ABSOLUTE
    ../clib/stdlib.c                         0x00000000   Number         0  exit.o ABSOLUTE
    ../fplib/d2f.s                           0x00000000   Number         0  d2f.o ABSOLUTE
    ../fplib/daddsub.s                       0x00000000   Number         0  daddsub_clz.o ABSOLUTE
    ../fplib/dcheck1.s                       0x00000000   Number         0  dcheck1.o ABSOLUTE
    ../fplib/ddiv.s                          0x00000000   Number         0  ddiv.o ABSOLUTE
    ../fplib/dflt.s                          0x00000000   Number         0  dflt_clz.o ABSOLUTE
    ../fplib/dmul.s                          0x00000000   Number         0  dmul.o ABSOLUTE
    ../fplib/dnaninf.s                       0x00000000   Number         0  dnaninf.o ABSOLUTE
    ../fplib/dretinf.s                       0x00000000   Number         0  dretinf.o ABSOLUTE
    ../fplib/f2d.s                           0x00000000   Number         0  f2d.o ABSOLUTE
    ../fplib/faddsub.s                       0x00000000   Number         0  faddsub_clz.o ABSOLUTE
    ../fplib/fcmpi.s                         0x00000000   Number         0  fcmpi.o ABSOLUTE
    ../fplib/fdiv.s                          0x00000000   Number         0  fdiv.o ABSOLUTE
    ../fplib/ffix.s                          0x00000000   Number         0  ffix.o ABSOLUTE
    ../fplib/fflt.s                          0x00000000   Number         0  fflt_clz.o ABSOLUTE
    ../fplib/fleqf.s                         0x00000000   Number         0  fleqf.o ABSOLUTE
    ../fplib/fmul.s                          0x00000000   Number         0  fmul.o ABSOLUTE
    ../fplib/fnaninf.s                       0x00000000   Number         0  fnaninf.o ABSOLUTE
    ../fplib/fpinit.s                        0x00000000   Number         0  fpinit.o ABSOLUTE
    ../fplib/fretinf.s                       0x00000000   Number         0  fretinf.o ABSOLUTE
    ../fplib/frleqf.s                        0x00000000   Number         0  frleqf.o ABSOLUTE
    ../fplib/istatus.s                       0x00000000   Number         0  istatus.o ABSOLUTE
    ../fplib/printf1.s                       0x00000000   Number         0  printf1.o ABSOLUTE
    ../fplib/retnan.s                        0x00000000   Number         0  retnan.o ABSOLUTE
    ../fplib/scalbn.s                        0x00000000   Number         0  scalbn.o ABSOLUTE
    ../fplib/trapv.s                         0x00000000   Number         0  trapv.o ABSOLUTE
    ../fplib/usenofp.s                       0x00000000   Number         0  usenofp.o ABSOLUTE
    ../mathlib/atan.c                        0x00000000   Number         0  atan_x.o ABSOLUTE
    ../mathlib/atan.c                        0x00000000   Number         0  atan.o ABSOLUTE
    ../mathlib/dunder.c                      0x00000000   Number         0  dunder.o ABSOLUTE
    ../mathlib/fpclassify.c                  0x00000000   Number         0  fpclassify.o ABSOLUTE
    ../mathlib/poly.c                        0x00000000   Number         0  poly.o ABSOLUTE
    ..\CORE\core_cm3.c                       0x00000000   Number         0  core_cm3.o ABSOLUTE
    ..\CORE\startup_stm32f10x_md.s           0x00000000   Number         0  startup_stm32f10x_md.o ABSOLUTE
    ..\HARDWARE\KALMAN\kalman.c              0x00000000   Number         0  kalman.o ABSOLUTE
    ..\HARDWARE\LED\led.c                    0x00000000   Number         0  led.o ABSOLUTE
    ..\HARDWARE\MPU6050\mpu6050.c            0x00000000   Number         0  mpu6050.o ABSOLUTE
    ..\HARDWARE\MPU6050\mpuiic.c             0x00000000   Number         0  mpuiic.o ABSOLUTE
    ..\HARDWARE\OLED\oled.c                  0x00000000   Number         0  oled.o ABSOLUTE
    ..\HARDWARE\TIMER\timer.c                0x00000000   Number         0  timer.o ABSOLUTE
    ..\STM32F10x_FWLib\src\misc.c            0x00000000   Number         0  misc.o ABSOLUTE
    ..\STM32F10x_FWLib\src\stm32f10x_adc.c   0x00000000   Number         0  stm32f10x_adc.o ABSOLUTE
    ..\STM32F10x_FWLib\src\stm32f10x_bkp.c   0x00000000   Number         0  stm32f10x_bkp.o ABSOLUTE
    ..\STM32F10x_FWLib\src\stm32f10x_can.c   0x00000000   Number         0  stm32f10x_can.o ABSOLUTE
    ..\STM32F10x_FWLib\src\stm32f10x_cec.c   0x00000000   Number         0  stm32f10x_cec.o ABSOLUTE
    ..\STM32F10x_FWLib\src\stm32f10x_crc.c   0x00000000   Number         0  stm32f10x_crc.o ABSOLUTE
    ..\STM32F10x_FWLib\src\stm32f10x_dac.c   0x00000000   Number         0  stm32f10x_dac.o ABSOLUTE
    ..\STM32F10x_FWLib\src\stm32f10x_dbgmcu.c 0x00000000   Number         0  stm32f10x_dbgmcu.o ABSOLUTE
    ..\STM32F10x_FWLib\src\stm32f10x_dma.c   0x00000000   Number         0  stm32f10x_dma.o ABSOLUTE
    ..\STM32F10x_FWLib\src\stm32f10x_exti.c  0x00000000   Number         0  stm32f10x_exti.o ABSOLUTE
    ..\STM32F10x_FWLib\src\stm32f10x_flash.c 0x00000000   Number         0  stm32f10x_flash.o ABSOLUTE
    ..\STM32F10x_FWLib\src\stm32f10x_fsmc.c  0x00000000   Number         0  stm32f10x_fsmc.o ABSOLUTE
    ..\STM32F10x_FWLib\src\stm32f10x_gpio.c  0x00000000   Number         0  stm32f10x_gpio.o ABSOLUTE
    ..\STM32F10x_FWLib\src\stm32f10x_i2c.c   0x00000000   Number         0  stm32f10x_i2c.o ABSOLUTE
    ..\STM32F10x_FWLib\src\stm32f10x_iwdg.c  0x00000000   Number         0  stm32f10x_iwdg.o ABSOLUTE
    ..\STM32F10x_FWLib\src\stm32f10x_pwr.c   0x00000000   Number         0  stm32f10x_pwr.o ABSOLUTE
    ..\STM32F10x_FWLib\src\stm32f10x_rcc.c   0x00000000   Number         0  stm32f10x_rcc.o ABSOLUTE
    ..\STM32F10x_FWLib\src\stm32f10x_rtc.c   0x00000000   Number         0  stm32f10x_rtc.o ABSOLUTE
    ..\STM32F10x_FWLib\src\stm32f10x_sdio.c  0x00000000   Number         0  stm32f10x_sdio.o ABSOLUTE
    ..\STM32F10x_FWLib\src\stm32f10x_spi.c   0x00000000   Number         0  stm32f10x_spi.o ABSOLUTE
    ..\STM32F10x_FWLib\src\stm32f10x_tim.c   0x00000000   Number         0  stm32f10x_tim.o ABSOLUTE
    ..\STM32F10x_FWLib\src\stm32f10x_usart.c 0x00000000   Number         0  stm32f10x_usart.o ABSOLUTE
    ..\STM32F10x_FWLib\src\stm32f10x_wwdg.c  0x00000000   Number         0  stm32f10x_wwdg.o ABSOLUTE
    ..\SYSTEM\delay\delay.c                  0x00000000   Number         0  delay.o ABSOLUTE
    ..\SYSTEM\sys\sys.c                      0x00000000   Number         0  sys.o ABSOLUTE
    ..\SYSTEM\usart\usart.c                  0x00000000   Number         0  usart.o ABSOLUTE
    ..\\CORE\\core_cm3.c                     0x00000000   Number         0  core_cm3.o ABSOLUTE
    ..\\SYSTEM\\sys\\sys.c                   0x00000000   Number         0  sys.o ABSOLUTE
    dc.s                                     0x00000000   Number         0  dc.o ABSOLUTE
    main.c                                   0x00000000   Number         0  main.o ABSOLUTE
    stm32f10x_it.c                           0x00000000   Number         0  stm32f10x_it.o ABSOLUTE
    system_stm32f10x.c                       0x00000000   Number         0  system_stm32f10x.o ABSOLUTE
    RESET                                    0x08000000   Section      236  startup_stm32f10x_md.o(RESET)
    !!!main                                  0x080000ec   Section        8  __main.o(!!!main)
    !!!scatter                               0x080000f4   Section       52  __scatter.o(!!!scatter)
    !!dczerorl2                              0x08000128   Section       90  __dczerorl2.o(!!dczerorl2)
    !!handler_zi                             0x08000184   Section       28  __scatter_zi.o(!!handler_zi)
    .ARM.Collect$$_printf_percent$$00000000  0x080001a0   Section        0  _printf_percent.o(.ARM.Collect$$_printf_percent$$00000000)
    .ARM.Collect$$_printf_percent$$00000003  0x080001a0   Section        6  _printf_f.o(.ARM.Collect$$_printf_percent$$00000003)
    .ARM.Collect$$_printf_percent$$00000009  0x080001a6   Section        6  _printf_d.o(.ARM.Collect$$_printf_percent$$00000009)
    .ARM.Collect$$_printf_percent$$00000017  0x080001ac   Section        4  _printf_percent_end.o(.ARM.Collect$$_printf_percent$$00000017)
    .ARM.Collect$$libinit$$00000000          0x080001b0   Section        2  libinit.o(.ARM.Collect$$libinit$$00000000)
    .ARM.Collect$$libinit$$00000002          0x080001b2   Section        0  libinit2.o(.ARM.Collect$$libinit$$00000002)
    .ARM.Collect$$libinit$$00000004          0x080001b2   Section        0  libinit2.o(.ARM.Collect$$libinit$$00000004)
    .ARM.Collect$$libinit$$0000000A          0x080001b2   Section        0  libinit2.o(.ARM.Collect$$libinit$$0000000A)
    .ARM.Collect$$libinit$$0000000C          0x080001b2   Section        0  libinit2.o(.ARM.Collect$$libinit$$0000000C)
    .ARM.Collect$$libinit$$0000000E          0x080001b2   Section        0  libinit2.o(.ARM.Collect$$libinit$$0000000E)
    .ARM.Collect$$libinit$$0000000F          0x080001b2   Section        6  libinit2.o(.ARM.Collect$$libinit$$0000000F)
    .ARM.Collect$$libinit$$00000011          0x080001b8   Section        0  libinit2.o(.ARM.Collect$$libinit$$00000011)
    .ARM.Collect$$libinit$$00000013          0x080001b8   Section        0  libinit2.o(.ARM.Collect$$libinit$$00000013)
    .ARM.Collect$$libinit$$00000015          0x080001b8   Section        0  libinit2.o(.ARM.Collect$$libinit$$00000015)
    .ARM.Collect$$libinit$$00000016          0x080001b8   Section       10  libinit2.o(.ARM.Collect$$libinit$$00000016)
    .ARM.Collect$$libinit$$00000017          0x080001c2   Section        0  libinit2.o(.ARM.Collect$$libinit$$00000017)
    .ARM.Collect$$libinit$$00000019          0x080001c2   Section        0  libinit2.o(.ARM.Collect$$libinit$$00000019)
    .ARM.Collect$$libinit$$0000001B          0x080001c2   Section        0  libinit2.o(.ARM.Collect$$libinit$$0000001B)
    .ARM.Collect$$libinit$$0000001D          0x080001c2   Section        0  libinit2.o(.ARM.Collect$$libinit$$0000001D)
    .ARM.Collect$$libinit$$0000001F          0x080001c2   Section        0  libinit2.o(.ARM.Collect$$libinit$$0000001F)
    .ARM.Collect$$libinit$$00000021          0x080001c2   Section        0  libinit2.o(.ARM.Collect$$libinit$$00000021)
    .ARM.Collect$$libinit$$00000023          0x080001c2   Section        0  libinit2.o(.ARM.Collect$$libinit$$00000023)
    .ARM.Collect$$libinit$$00000025          0x080001c2   Section        0  libinit2.o(.ARM.Collect$$libinit$$00000025)
    .ARM.Collect$$libinit$$0000002C          0x080001c2   Section        0  libinit2.o(.ARM.Collect$$libinit$$0000002C)
    .ARM.Collect$$libinit$$0000002E          0x080001c2   Section        0  libinit2.o(.ARM.Collect$$libinit$$0000002E)
    .ARM.Collect$$libinit$$00000030          0x080001c2   Section        0  libinit2.o(.ARM.Collect$$libinit$$00000030)
    .ARM.Collect$$libinit$$00000032          0x080001c2   Section        0  libinit2.o(.ARM.Collect$$libinit$$00000032)
    .ARM.Collect$$libinit$$00000033          0x080001c2   Section        2  libinit2.o(.ARM.Collect$$libinit$$00000033)
    .ARM.Collect$$libshutdown$$00000000      0x080001c4   Section        2  libshutdown.o(.ARM.Collect$$libshutdown$$00000000)
    .ARM.Collect$$libshutdown$$00000002      0x080001c6   Section        0  libshutdown2.o(.ARM.Collect$$libshutdown$$00000002)
    .ARM.Collect$$libshutdown$$00000004      0x080001c6   Section        0  libshutdown2.o(.ARM.Collect$$libshutdown$$00000004)
    .ARM.Collect$$libshutdown$$00000007      0x080001c6   Section        0  libshutdown2.o(.ARM.Collect$$libshutdown$$00000007)
    .ARM.Collect$$libshutdown$$0000000A      0x080001c6   Section        0  libshutdown2.o(.ARM.Collect$$libshutdown$$0000000A)
    .ARM.Collect$$libshutdown$$0000000C      0x080001c6   Section        0  libshutdown2.o(.ARM.Collect$$libshutdown$$0000000C)
    .ARM.Collect$$libshutdown$$0000000F      0x080001c6   Section        0  libshutdown2.o(.ARM.Collect$$libshutdown$$0000000F)
    .ARM.Collect$$libshutdown$$00000010      0x080001c6   Section        2  libshutdown2.o(.ARM.Collect$$libshutdown$$00000010)
    .ARM.Collect$$rtentry$$00000000          0x080001c8   Section        0  __rtentry.o(.ARM.Collect$$rtentry$$00000000)
    .ARM.Collect$$rtentry$$00000002          0x080001c8   Section        0  __rtentry2.o(.ARM.Collect$$rtentry$$00000002)
    .ARM.Collect$$rtentry$$00000004          0x080001c8   Section        6  __rtentry4.o(.ARM.Collect$$rtentry$$00000004)
    .ARM.Collect$$rtentry$$00000009          0x080001ce   Section        0  __rtentry2.o(.ARM.Collect$$rtentry$$00000009)
    .ARM.Collect$$rtentry$$0000000A          0x080001ce   Section        4  __rtentry2.o(.ARM.Collect$$rtentry$$0000000A)
    .ARM.Collect$$rtentry$$0000000C          0x080001d2   Section        0  __rtentry2.o(.ARM.Collect$$rtentry$$0000000C)
    .ARM.Collect$$rtentry$$0000000D          0x080001d2   Section        8  __rtentry2.o(.ARM.Collect$$rtentry$$0000000D)
    .ARM.Collect$$rtexit$$00000000           0x080001da   Section        2  rtexit.o(.ARM.Collect$$rtexit$$00000000)
    .ARM.Collect$$rtexit$$00000002           0x080001dc   Section        0  rtexit2.o(.ARM.Collect$$rtexit$$00000002)
    .ARM.Collect$$rtexit$$00000003           0x080001dc   Section        4  rtexit2.o(.ARM.Collect$$rtexit$$00000003)
    .ARM.Collect$$rtexit$$00000004           0x080001e0   Section        6  rtexit2.o(.ARM.Collect$$rtexit$$00000004)
    .text                                    0x080001e8   Section        0  main.o(.text)
    .text                                    0x0800042c   Section        0  stm32f10x_it.o(.text)
    .text                                    0x08000448   Section        0  system_stm32f10x.o(.text)
    SetSysClockTo72                          0x08000449   Thumb Code   214  system_stm32f10x.o(.text)
    SetSysClock                              0x0800051f   Thumb Code     8  system_stm32f10x.o(.text)
    .text                                    0x08000628   Section       64  startup_stm32f10x_md.o(.text)
    .text                                    0x08000668   Section        0  misc.o(.text)
    .text                                    0x08000744   Section        0  stm32f10x_gpio.o(.text)
    .text                                    0x08000aa0   Section        0  stm32f10x_rcc.o(.text)
    .text                                    0x08000e44   Section        0  stm32f10x_tim.o(.text)
    TI4_Config                               0x080012eb   Thumb Code   130  stm32f10x_tim.o(.text)
    TI3_Config                               0x0800137f   Thumb Code   122  stm32f10x_tim.o(.text)
    TI2_Config                               0x08001413   Thumb Code   130  stm32f10x_tim.o(.text)
    TI1_Config                               0x080014a7   Thumb Code   108  stm32f10x_tim.o(.text)
    .text                                    0x08001c60   Section        0  stm32f10x_usart.o(.text)
    .text                                    0x08002068   Section        0  delay.o(.text)
    .text                                    0x0800213c   Section        0  usart.o(.text)
    .text                                    0x0800227c   Section        0  led.o(.text)
    .text                                    0x080022b4   Section        0  oled.o(.text)
    .text                                    0x08002acc   Section        0  kalman.o(.text)
    .text                                    0x0800330c   Section        0  timer.o(.text)
    .text                                    0x08003398   Section        0  mpuiic.o(.text)
    .text                                    0x080035e4   Section        0  mpu6050.o(.text)
    .text                                    0x0800386c   Section        2  use_no_semi_2.o(.text)
    .text                                    0x08003870   Section        0  noretval__2printf.o(.text)
    .text                                    0x08003888   Section        0  noretval__2sprintf.o(.text)
    .text                                    0x080038b0   Section        0  _printf_pad.o(.text)
    .text                                    0x08003900   Section        0  _printf_dec.o(.text)
    .text                                    0x08003978   Section        0  __printf_wp.o(.text)
    .text                                    0x08003a86   Section        0  heapauxi.o(.text)
    .text                                    0x08003a8c   Section        2  use_no_semi.o(.text)
    .text                                    0x08003a8e   Section        0  _printf_intcommon.o(.text)
    .text                                    0x08003b40   Section        0  _printf_fp_dec.o(.text)
    _fp_digits                               0x08003b43   Thumb Code   432  _printf_fp_dec.o(.text)
    .text                                    0x08003f60   Section        0  _printf_char_common.o(.text)
    _printf_input_char                       0x08003f61   Thumb Code    10  _printf_char_common.o(.text)
    .text                                    0x08003f90   Section        0  _sputc.o(.text)
    .text                                    0x08003f9c   Section        0  _printf_char_file.o(.text)
    .text                                    0x08003fc0   Section        8  rt_locale_intlibspace.o(.text)
    .text                                    0x08003fc8   Section      138  lludiv10.o(.text)
    .text                                    0x08004054   Section        0  _printf_fp_infnan.o(.text)
    .text                                    0x080040d4   Section        0  bigflt0.o(.text)
    .text                                    0x080041b8   Section        0  ferror.o(.text)
    .text                                    0x080041c0   Section        8  libspace.o(.text)
    .text                                    0x080041c8   Section       74  sys_stackheap_outer.o(.text)
    .text                                    0x08004212   Section        0  exit.o(.text)
    .text                                    0x08004224   Section      128  strcmpv7m.o(.text)
    CL$$btod_d2e                             0x080042a4   Section       62  btod.o(CL$$btod_d2e)
    CL$$btod_d2e_denorm_low                  0x080042e2   Section       70  btod.o(CL$$btod_d2e_denorm_low)
    CL$$btod_d2e_norm_op1                    0x08004328   Section       96  btod.o(CL$$btod_d2e_norm_op1)
    CL$$btod_div_common                      0x08004388   Section      824  btod.o(CL$$btod_div_common)
    CL$$btod_e2e                             0x080046c0   Section      220  btod.o(CL$$btod_e2e)
    CL$$btod_ediv                            0x0800479c   Section       42  btod.o(CL$$btod_ediv)
    CL$$btod_emul                            0x080047c6   Section       42  btod.o(CL$$btod_emul)
    CL$$btod_mult_common                     0x080047f0   Section      580  btod.o(CL$$btod_mult_common)
    i.__ARM_fpclassify                       0x08004a34   Section        0  fpclassify.o(i.__ARM_fpclassify)
    i.__kernel_poly                          0x08004a5c   Section        0  poly.o(i.__kernel_poly)
    i.__mathlib_dbl_infnan                   0x08004b06   Section        0  dunder.o(i.__mathlib_dbl_infnan)
    i.__mathlib_dbl_underflow                0x08004b0c   Section        0  dunder.o(i.__mathlib_dbl_underflow)
    i._is_digit                              0x08004b1c   Section        0  __printf_wp.o(i._is_digit)
    i.atan                                   0x08004b2c   Section        0  atan.o(i.atan)
    locale$$code                             0x08004d4c   Section       44  lc_numeric_c.o(locale$$code)
    x$fpl$d2f                                0x08004d78   Section       98  d2f.o(x$fpl$d2f)
    x$fpl$dadd                               0x08004ddc   Section      336  daddsub_clz.o(x$fpl$dadd)
    _dadd1                                   0x08004ded   Thumb Code     0  daddsub_clz.o(x$fpl$dadd)
    x$fpl$dcheck1                            0x08004f2c   Section       16  dcheck1.o(x$fpl$dcheck1)
    x$fpl$ddiv                               0x08004f3c   Section      688  ddiv.o(x$fpl$ddiv)
    ddiv_entry                               0x08004f43   Thumb Code     0  ddiv.o(x$fpl$ddiv)
    x$fpl$dflt                               0x080051ec   Section       46  dflt_clz.o(x$fpl$dflt)
    x$fpl$dmul                               0x0800521c   Section      340  dmul.o(x$fpl$dmul)
    x$fpl$dnaninf                            0x08005370   Section      156  dnaninf.o(x$fpl$dnaninf)
    x$fpl$dretinf                            0x0800540c   Section       12  dretinf.o(x$fpl$dretinf)
    x$fpl$drsb                               0x08005418   Section       22  daddsub_clz.o(x$fpl$drsb)
    x$fpl$dsub                               0x08005430   Section      468  daddsub_clz.o(x$fpl$dsub)
    _dsub1                                   0x08005441   Thumb Code     0  daddsub_clz.o(x$fpl$dsub)
    x$fpl$f2d                                0x08005604   Section       86  f2d.o(x$fpl$f2d)
    x$fpl$fadd                               0x0800565c   Section      196  faddsub_clz.o(x$fpl$fadd)
    _fadd1                                   0x0800566b   Thumb Code     0  faddsub_clz.o(x$fpl$fadd)
    x$fpl$fcmpinf                            0x08005720   Section       24  fcmpi.o(x$fpl$fcmpinf)
    x$fpl$fdiv                               0x08005738   Section      388  fdiv.o(x$fpl$fdiv)
    _fdiv1                                   0x08005739   Thumb Code     0  fdiv.o(x$fpl$fdiv)
    x$fpl$ffix                               0x080058bc   Section       54  ffix.o(x$fpl$ffix)
    x$fpl$fflt                               0x080058f4   Section       48  fflt_clz.o(x$fpl$fflt)
    x$fpl$ffltu                              0x08005924   Section       38  fflt_clz.o(x$fpl$ffltu)
    x$fpl$fleqf                              0x0800594c   Section      104  fleqf.o(x$fpl$fleqf)
    x$fpl$fmul                               0x080059b4   Section      258  fmul.o(x$fpl$fmul)
    x$fpl$fnaninf                            0x08005ab6   Section      140  fnaninf.o(x$fpl$fnaninf)
    x$fpl$fretinf                            0x08005b42   Section       10  fretinf.o(x$fpl$fretinf)
    x$fpl$frleqf                             0x08005b4c   Section       98  frleqf.o(x$fpl$frleqf)
    x$fpl$frsb                               0x08005bae   Section       20  faddsub_clz.o(x$fpl$frsb)
    x$fpl$fsub                               0x08005bc4   Section      234  faddsub_clz.o(x$fpl$fsub)
    _fsub1                                   0x08005bd3   Thumb Code     0  faddsub_clz.o(x$fpl$fsub)
    x$fpl$printf1                            0x08005cae   Section        4  printf1.o(x$fpl$printf1)
    x$fpl$retnan                             0x08005cb2   Section      100  retnan.o(x$fpl$retnan)
    x$fpl$scalbn                             0x08005d16   Section       92  scalbn.o(x$fpl$scalbn)
    x$fpl$trapveneer                         0x08005d72   Section       48  trapv.o(x$fpl$trapveneer)
    .constdata                               0x08005da2   Section     6784  oled.o(.constdata)
    x$fpl$usenofp                            0x08005da2   Section        0  usenofp.o(x$fpl$usenofp)
    .constdata                               0x08007828   Section      152  atan.o(.constdata)
    atanhi                                   0x08007828   Data          32  atan.o(.constdata)
    atanlo                                   0x08007848   Data          32  atan.o(.constdata)
    aTodd                                    0x08007868   Data          40  atan.o(.constdata)
    aTeven                                   0x08007890   Data          48  atan.o(.constdata)
    .constdata                               0x080078c0   Section      148  bigflt0.o(.constdata)
    tenpwrs_x                                0x080078c0   Data          60  bigflt0.o(.constdata)
    tenpwrs_i                                0x080078fc   Data          64  bigflt0.o(.constdata)
    .conststring                             0x08007954   Section       88  main.o(.conststring)
    locale$$data                             0x080079cc   Section       28  lc_numeric_c.o(locale$$data)
    __lcnum_c_name                           0x080079d0   Data           2  lc_numeric_c.o(locale$$data)
    __lcnum_c_start                          0x080079d8   Data           0  lc_numeric_c.o(locale$$data)
    __lcnum_c_point                          0x080079e4   Data           0  lc_numeric_c.o(locale$$data)
    __lcnum_c_thousands                      0x080079e6   Data           0  lc_numeric_c.o(locale$$data)
    __lcnum_c_grouping                       0x080079e7   Data           0  lc_numeric_c.o(locale$$data)
    __lcnum_c_end                            0x080079e8   Data           0  lc_numeric_c.o(locale$$data)
    .data                                    0x20000000   Section       20  system_stm32f10x.o(.data)
    .data                                    0x20000014   Section       20  stm32f10x_rcc.o(.data)
    APBAHBPrescTable                         0x20000014   Data          16  stm32f10x_rcc.o(.data)
    ADCPrescTable                            0x20000024   Data           4  stm32f10x_rcc.o(.data)
    .data                                    0x20000028   Section        4  delay.o(.data)
    fac_us                                   0x20000028   Data           1  delay.o(.data)
    fac_ms                                   0x2000002a   Data           2  delay.o(.data)
    .data                                    0x2000002c   Section        6  usart.o(.data)
    .data                                    0x20000032   Section     4824  oled.o(.data)
    .data                                    0x2000130c   Section      128  kalman.o(.data)
    .bss                                     0x2000138c   Section       20  main.o(.bss)
    .bss                                     0x200013a0   Section      200  usart.o(.bss)
    .bss                                     0x20001468   Section     1152  oled.o(.bss)
    .bss                                     0x200018e8   Section       16  kalman.o(.bss)
    .bss                                     0x200018f8   Section       96  libspace.o(.bss)
    HEAP                                     0x20001958   Section      512  startup_stm32f10x_md.o(HEAP)
    Heap_Mem                                 0x20001958   Data         512  startup_stm32f10x_md.o(HEAP)
    STACK                                    0x20001b58   Section     1024  startup_stm32f10x_md.o(STACK)
    Stack_Mem                                0x20001b58   Data        1024  startup_stm32f10x_md.o(STACK)
    __initial_sp                             0x20001f58   Data           0  startup_stm32f10x_md.o(STACK)

    Global Symbols

    Symbol Name                              Value     Ov Type        Size  Object(Section)

    BuildAttributes$$THM_ISAv4$P$D$K$B$S$PE$A:L22UL41UL21$X:L11$S22US41US21$IEEE1$IW$USESV6$~STKCKD$USESV7$~SHL$OTIME$ROPI$IEEEX$EBA8$UX$STANDARDLIB$REQ8$PRES8$EABIv2 0x00000000   Number         0  anon$$obj.o ABSOLUTE
    __ARM_use_no_argv                        0x00000000   Number         0  main.o ABSOLUTE
    _printf_flags                            0x00000000   Number         0  printf_stubs.o ABSOLUTE
    _printf_return_value                     0x00000000   Number         0  printf_stubs.o ABSOLUTE
    _printf_sizespec                         0x00000000   Number         0  printf_stubs.o ABSOLUTE
    _printf_widthprec                        0x00000000   Number         0  printf_stubs.o ABSOLUTE
    __ARM_exceptions_init                     - Undefined Weak Reference
    __alloca_initialize                       - Undefined Weak Reference
    __arm_preinit_                            - Undefined Weak Reference
    __cpp_initialize__aeabi_                  - Undefined Weak Reference
    __cxa_finalize                            - Undefined Weak Reference
    __sigvec_lookup                           - Undefined Weak Reference
    _atexit_init                              - Undefined Weak Reference
    _call_atexit_fns                          - Undefined Weak Reference
    _clock_init                               - Undefined Weak Reference
    _fp_trap_init                             - Undefined Weak Reference
    _fp_trap_shutdown                         - Undefined Weak Reference
    _get_lc_collate                           - Undefined Weak Reference
    _get_lc_ctype                             - Undefined Weak Reference
    _get_lc_monetary                          - Undefined Weak Reference
    _get_lc_time                              - Undefined Weak Reference
    _getenv_init                              - Undefined Weak Reference
    _handle_redirection                       - Undefined Weak Reference
    _init_alloc                               - Undefined Weak Reference
    _init_user_alloc                          - Undefined Weak Reference
    _initio                                   - Undefined Weak Reference
    _mutex_acquire                            - Undefined Weak Reference
    _mutex_release                            - Undefined Weak Reference
    _printf_truncate_signed                   - Undefined Weak Reference
    _printf_truncate_unsigned                 - Undefined Weak Reference
    _rand_init                                - Undefined Weak Reference
    _signal_finish                            - Undefined Weak Reference
    _signal_init                              - Undefined Weak Reference
    _terminate_alloc                          - Undefined Weak Reference
    _terminate_user_alloc                     - Undefined Weak Reference
    _terminateio                              - Undefined Weak Reference
    __Vectors_Size                           0x000000ec   Number         0  startup_stm32f10x_md.o ABSOLUTE
    __Vectors                                0x08000000   Data           4  startup_stm32f10x_md.o(RESET)
    __Vectors_End                            0x080000ec   Data           0  startup_stm32f10x_md.o(RESET)
    __main                                   0x080000ed   Thumb Code     8  __main.o(!!!main)
    __scatterload                            0x080000f5   Thumb Code     0  __scatter.o(!!!scatter)
    __scatterload_rt2                        0x080000f5   Thumb Code    44  __scatter.o(!!!scatter)
    __scatterload_rt2_thumb_only             0x080000f5   Thumb Code     0  __scatter.o(!!!scatter)
    __scatterload_null                       0x08000103   Thumb Code     0  __scatter.o(!!!scatter)
    __decompress                             0x08000129   Thumb Code    90  __dczerorl2.o(!!dczerorl2)
    __decompress1                            0x08000129   Thumb Code     0  __dczerorl2.o(!!dczerorl2)
    __scatterload_zeroinit                   0x08000185   Thumb Code    28  __scatter_zi.o(!!handler_zi)
    _printf_f                                0x080001a1   Thumb Code     0  _printf_f.o(.ARM.Collect$$_printf_percent$$00000003)
    _printf_percent                          0x080001a1   Thumb Code     0  _printf_percent.o(.ARM.Collect$$_printf_percent$$00000000)
    _printf_d                                0x080001a7   Thumb Code     0  _printf_d.o(.ARM.Collect$$_printf_percent$$00000009)
    _printf_percent_end                      0x080001ad   Thumb Code     0  _printf_percent_end.o(.ARM.Collect$$_printf_percent$$00000017)
    __rt_lib_init                            0x080001b1   Thumb Code     0  libinit.o(.ARM.Collect$$libinit$$00000000)
    __rt_lib_init_fp_1                       0x080001b3   Thumb Code     0  libinit2.o(.ARM.Collect$$libinit$$00000002)
    __rt_lib_init_heap_1                     0x080001b3   Thumb Code     0  libinit2.o(.ARM.Collect$$libinit$$0000000A)
    __rt_lib_init_lc_common                  0x080001b3   Thumb Code     0  libinit2.o(.ARM.Collect$$libinit$$0000000F)
    __rt_lib_init_preinit_1                  0x080001b3   Thumb Code     0  libinit2.o(.ARM.Collect$$libinit$$00000004)
    __rt_lib_init_rand_1                     0x080001b3   Thumb Code     0  libinit2.o(.ARM.Collect$$libinit$$0000000E)
    __rt_lib_init_user_alloc_1               0x080001b3   Thumb Code     0  libinit2.o(.ARM.Collect$$libinit$$0000000C)
    __rt_lib_init_lc_collate_1               0x080001b9   Thumb Code     0  libinit2.o(.ARM.Collect$$libinit$$00000011)
    __rt_lib_init_lc_ctype_1                 0x080001b9   Thumb Code     0  libinit2.o(.ARM.Collect$$libinit$$00000013)
    __rt_lib_init_lc_monetary_1              0x080001b9   Thumb Code     0  libinit2.o(.ARM.Collect$$libinit$$00000015)
    __rt_lib_init_lc_numeric_2               0x080001b9   Thumb Code     0  libinit2.o(.ARM.Collect$$libinit$$00000016)
    __rt_lib_init_alloca_1                   0x080001c3   Thumb Code     0  libinit2.o(.ARM.Collect$$libinit$$0000002E)
    __rt_lib_init_argv_1                     0x080001c3   Thumb Code     0  libinit2.o(.ARM.Collect$$libinit$$0000002C)
    __rt_lib_init_atexit_1                   0x080001c3   Thumb Code     0  libinit2.o(.ARM.Collect$$libinit$$0000001B)
    __rt_lib_init_clock_1                    0x080001c3   Thumb Code     0  libinit2.o(.ARM.Collect$$libinit$$00000021)
    __rt_lib_init_cpp_1                      0x080001c3   Thumb Code     0  libinit2.o(.ARM.Collect$$libinit$$00000032)
    __rt_lib_init_exceptions_1               0x080001c3   Thumb Code     0  libinit2.o(.ARM.Collect$$libinit$$00000030)
    __rt_lib_init_fp_trap_1                  0x080001c3   Thumb Code     0  libinit2.o(.ARM.Collect$$libinit$$0000001F)
    __rt_lib_init_getenv_1                   0x080001c3   Thumb Code     0  libinit2.o(.ARM.Collect$$libinit$$00000023)
    __rt_lib_init_lc_numeric_1               0x080001c3   Thumb Code     0  libinit2.o(.ARM.Collect$$libinit$$00000017)
    __rt_lib_init_lc_time_1                  0x080001c3   Thumb Code     0  libinit2.o(.ARM.Collect$$libinit$$00000019)
    __rt_lib_init_return                     0x080001c3   Thumb Code     0  libinit2.o(.ARM.Collect$$libinit$$00000033)
    __rt_lib_init_signal_1                   0x080001c3   Thumb Code     0  libinit2.o(.ARM.Collect$$libinit$$0000001D)
    __rt_lib_init_stdio_1                    0x080001c3   Thumb Code     0  libinit2.o(.ARM.Collect$$libinit$$00000025)
    __rt_lib_shutdown                        0x080001c5   Thumb Code     0  libshutdown.o(.ARM.Collect$$libshutdown$$00000000)
    __rt_lib_shutdown_cpp_1                  0x080001c7   Thumb Code     0  libshutdown2.o(.ARM.Collect$$libshutdown$$00000002)
    __rt_lib_shutdown_fp_trap_1              0x080001c7   Thumb Code     0  libshutdown2.o(.ARM.Collect$$libshutdown$$00000007)
    __rt_lib_shutdown_heap_1                 0x080001c7   Thumb Code     0  libshutdown2.o(.ARM.Collect$$libshutdown$$0000000F)
    __rt_lib_shutdown_return                 0x080001c7   Thumb Code     0  libshutdown2.o(.ARM.Collect$$libshutdown$$00000010)
    __rt_lib_shutdown_signal_1               0x080001c7   Thumb Code     0  libshutdown2.o(.ARM.Collect$$libshutdown$$0000000A)
    __rt_lib_shutdown_stdio_1                0x080001c7   Thumb Code     0  libshutdown2.o(.ARM.Collect$$libshutdown$$00000004)
    __rt_lib_shutdown_user_alloc_1           0x080001c7   Thumb Code     0  libshutdown2.o(.ARM.Collect$$libshutdown$$0000000C)
    __rt_entry                               0x080001c9   Thumb Code     0  __rtentry.o(.ARM.Collect$$rtentry$$00000000)
    __rt_entry_presh_1                       0x080001c9   Thumb Code     0  __rtentry2.o(.ARM.Collect$$rtentry$$00000002)
    __rt_entry_sh                            0x080001c9   Thumb Code     0  __rtentry4.o(.ARM.Collect$$rtentry$$00000004)
    __rt_entry_li                            0x080001cf   Thumb Code     0  __rtentry2.o(.ARM.Collect$$rtentry$$0000000A)
    __rt_entry_postsh_1                      0x080001cf   Thumb Code     0  __rtentry2.o(.ARM.Collect$$rtentry$$00000009)
    __rt_entry_main                          0x080001d3   Thumb Code     0  __rtentry2.o(.ARM.Collect$$rtentry$$0000000D)
    __rt_entry_postli_1                      0x080001d3   Thumb Code     0  __rtentry2.o(.ARM.Collect$$rtentry$$0000000C)
    __rt_exit                                0x080001db   Thumb Code     0  rtexit.o(.ARM.Collect$$rtexit$$00000000)
    __rt_exit_ls                             0x080001dd   Thumb Code     0  rtexit2.o(.ARM.Collect$$rtexit$$00000003)
    __rt_exit_prels_1                        0x080001dd   Thumb Code     0  rtexit2.o(.ARM.Collect$$rtexit$$00000002)
    __rt_exit_exit                           0x080001e1   Thumb Code     0  rtexit2.o(.ARM.Collect$$rtexit$$00000004)
    DATA_Report                              0x080001e9   Thumb Code   222  main.o(.text)
    SYS_Init                                 0x080002c7   Thumb Code   272  main.o(.text)
    main                                     0x080003d7   Thumb Code    12  main.o(.text)
    NMI_Handler                              0x0800042d   Thumb Code     2  stm32f10x_it.o(.text)
    HardFault_Handler                        0x0800042f   Thumb Code     4  stm32f10x_it.o(.text)
    MemManage_Handler                        0x08000433   Thumb Code     4  stm32f10x_it.o(.text)
    BusFault_Handler                         0x08000437   Thumb Code     4  stm32f10x_it.o(.text)
    UsageFault_Handler                       0x0800043b   Thumb Code     4  stm32f10x_it.o(.text)
    SVC_Handler                              0x0800043f   Thumb Code     2  stm32f10x_it.o(.text)
    DebugMon_Handler                         0x08000441   Thumb Code     2  stm32f10x_it.o(.text)
    PendSV_Handler                           0x08000443   Thumb Code     2  stm32f10x_it.o(.text)
    SysTick_Handler                          0x08000445   Thumb Code     2  stm32f10x_it.o(.text)
    SystemInit                               0x08000527   Thumb Code    78  system_stm32f10x.o(.text)
    SystemCoreClockUpdate                    0x08000575   Thumb Code   142  system_stm32f10x.o(.text)
    Reset_Handler                            0x08000629   Thumb Code     8  startup_stm32f10x_md.o(.text)
    ADC1_2_IRQHandler                        0x08000643   Thumb Code     0  startup_stm32f10x_md.o(.text)
    CAN1_RX1_IRQHandler                      0x08000643   Thumb Code     0  startup_stm32f10x_md.o(.text)
    CAN1_SCE_IRQHandler                      0x08000643   Thumb Code     0  startup_stm32f10x_md.o(.text)
    DMA1_Channel1_IRQHandler                 0x08000643   Thumb Code     0  startup_stm32f10x_md.o(.text)
    DMA1_Channel2_IRQHandler                 0x08000643   Thumb Code     0  startup_stm32f10x_md.o(.text)
    DMA1_Channel3_IRQHandler                 0x08000643   Thumb Code     0  startup_stm32f10x_md.o(.text)
    DMA1_Channel4_IRQHandler                 0x08000643   Thumb Code     0  startup_stm32f10x_md.o(.text)
    DMA1_Channel5_IRQHandler                 0x08000643   Thumb Code     0  startup_stm32f10x_md.o(.text)
    DMA1_Channel6_IRQHandler                 0x08000643   Thumb Code     0  startup_stm32f10x_md.o(.text)
    DMA1_Channel7_IRQHandler                 0x08000643   Thumb Code     0  startup_stm32f10x_md.o(.text)
    EXTI0_IRQHandler                         0x08000643   Thumb Code     0  startup_stm32f10x_md.o(.text)
    EXTI15_10_IRQHandler                     0x08000643   Thumb Code     0  startup_stm32f10x_md.o(.text)
    EXTI1_IRQHandler                         0x08000643   Thumb Code     0  startup_stm32f10x_md.o(.text)
    EXTI2_IRQHandler                         0x08000643   Thumb Code     0  startup_stm32f10x_md.o(.text)
    EXTI3_IRQHandler                         0x08000643   Thumb Code     0  startup_stm32f10x_md.o(.text)
    EXTI4_IRQHandler                         0x08000643   Thumb Code     0  startup_stm32f10x_md.o(.text)
    EXTI9_5_IRQHandler                       0x08000643   Thumb Code     0  startup_stm32f10x_md.o(.text)
    FLASH_IRQHandler                         0x08000643   Thumb Code     0  startup_stm32f10x_md.o(.text)
    I2C1_ER_IRQHandler                       0x08000643   Thumb Code     0  startup_stm32f10x_md.o(.text)
    I2C1_EV_IRQHandler                       0x08000643   Thumb Code     0  startup_stm32f10x_md.o(.text)
    I2C2_ER_IRQHandler                       0x08000643   Thumb Code     0  startup_stm32f10x_md.o(.text)
    I2C2_EV_IRQHandler                       0x08000643   Thumb Code     0  startup_stm32f10x_md.o(.text)
    PVD_IRQHandler                           0x08000643   Thumb Code     0  startup_stm32f10x_md.o(.text)
    RCC_IRQHandler                           0x08000643   Thumb Code     0  startup_stm32f10x_md.o(.text)
    RTCAlarm_IRQHandler                      0x08000643   Thumb Code     0  startup_stm32f10x_md.o(.text)
    RTC_IRQHandler                           0x08000643   Thumb Code     0  startup_stm32f10x_md.o(.text)
    SPI1_IRQHandler                          0x08000643   Thumb Code     0  startup_stm32f10x_md.o(.text)
    SPI2_IRQHandler                          0x08000643   Thumb Code     0  startup_stm32f10x_md.o(.text)
    TAMPER_IRQHandler                        0x08000643   Thumb Code     0  startup_stm32f10x_md.o(.text)
    TIM1_BRK_IRQHandler                      0x08000643   Thumb Code     0  startup_stm32f10x_md.o(.text)
    TIM1_CC_IRQHandler                       0x08000643   Thumb Code     0  startup_stm32f10x_md.o(.text)
    TIM1_TRG_COM_IRQHandler                  0x08000643   Thumb Code     0  startup_stm32f10x_md.o(.text)
    TIM1_UP_IRQHandler                       0x08000643   Thumb Code     0  startup_stm32f10x_md.o(.text)
    TIM2_IRQHandler                          0x08000643   Thumb Code     0  startup_stm32f10x_md.o(.text)
    TIM3_IRQHandler                          0x08000643   Thumb Code     0  startup_stm32f10x_md.o(.text)
    USART2_IRQHandler                        0x08000643   Thumb Code     0  startup_stm32f10x_md.o(.text)
    USART3_IRQHandler                        0x08000643   Thumb Code     0  startup_stm32f10x_md.o(.text)
    USBWakeUp_IRQHandler                     0x08000643   Thumb Code     0  startup_stm32f10x_md.o(.text)
    USB_HP_CAN1_TX_IRQHandler                0x08000643   Thumb Code     0  startup_stm32f10x_md.o(.text)
    USB_LP_CAN1_RX0_IRQHandler               0x08000643   Thumb Code     0  startup_stm32f10x_md.o(.text)
    WWDG_IRQHandler                          0x08000643   Thumb Code     0  startup_stm32f10x_md.o(.text)
    __user_initial_stackheap                 0x08000645   Thumb Code     0  startup_stm32f10x_md.o(.text)
    NVIC_PriorityGroupConfig                 0x08000669   Thumb Code    10  misc.o(.text)
    NVIC_Init                                0x08000673   Thumb Code   100  misc.o(.text)
    NVIC_SetVectorTable                      0x080006d7   Thumb Code    14  misc.o(.text)
    NVIC_SystemLPConfig                      0x080006e5   Thumb Code    34  misc.o(.text)
    SysTick_CLKSourceConfig                  0x08000707   Thumb Code    40  misc.o(.text)
    GPIO_DeInit                              0x08000745   Thumb Code   172  stm32f10x_gpio.o(.text)
    GPIO_AFIODeInit                          0x080007f1   Thumb Code    20  stm32f10x_gpio.o(.text)
    GPIO_Init                                0x08000805   Thumb Code   278  stm32f10x_gpio.o(.text)
    GPIO_StructInit                          0x0800091b   Thumb Code    16  stm32f10x_gpio.o(.text)
    GPIO_ReadInputDataBit                    0x0800092b   Thumb Code    18  stm32f10x_gpio.o(.text)
    GPIO_ReadInputData                       0x0800093d   Thumb Code     8  stm32f10x_gpio.o(.text)
    GPIO_ReadOutputDataBit                   0x08000945   Thumb Code    18  stm32f10x_gpio.o(.text)
    GPIO_ReadOutputData                      0x08000957   Thumb Code     8  stm32f10x_gpio.o(.text)
    GPIO_SetBits                             0x0800095f   Thumb Code     4  stm32f10x_gpio.o(.text)
    GPIO_ResetBits                           0x08000963   Thumb Code     4  stm32f10x_gpio.o(.text)
    GPIO_WriteBit                            0x08000967   Thumb Code    10  stm32f10x_gpio.o(.text)
    GPIO_Write                               0x08000971   Thumb Code     4  stm32f10x_gpio.o(.text)
    GPIO_PinLockConfig                       0x08000975   Thumb Code    18  stm32f10x_gpio.o(.text)
    GPIO_EventOutputConfig                   0x08000987   Thumb Code    26  stm32f10x_gpio.o(.text)
    GPIO_EventOutputCmd                      0x080009a1   Thumb Code     6  stm32f10x_gpio.o(.text)
    GPIO_PinRemapConfig                      0x080009a7   Thumb Code   138  stm32f10x_gpio.o(.text)
    GPIO_EXTILineConfig                      0x08000a31   Thumb Code    66  stm32f10x_gpio.o(.text)
    GPIO_ETH_MediaInterfaceConfig            0x08000a73   Thumb Code     8  stm32f10x_gpio.o(.text)
    RCC_DeInit                               0x08000aa1   Thumb Code    64  stm32f10x_rcc.o(.text)
    RCC_HSEConfig                            0x08000ae1   Thumb Code    70  stm32f10x_rcc.o(.text)
    RCC_GetFlagStatus                        0x08000b27   Thumb Code    56  stm32f10x_rcc.o(.text)
    RCC_WaitForHSEStartUp                    0x08000b5f   Thumb Code    56  stm32f10x_rcc.o(.text)
    RCC_AdjustHSICalibrationValue            0x08000b97   Thumb Code    20  stm32f10x_rcc.o(.text)
    RCC_HSICmd                               0x08000bab   Thumb Code     6  stm32f10x_rcc.o(.text)
    RCC_PLLConfig                            0x08000bb1   Thumb Code    24  stm32f10x_rcc.o(.text)
    RCC_PLLCmd                               0x08000bc9   Thumb Code     6  stm32f10x_rcc.o(.text)
    RCC_SYSCLKConfig                         0x08000bcf   Thumb Code    18  stm32f10x_rcc.o(.text)
    RCC_GetSYSCLKSource                      0x08000be1   Thumb Code    10  stm32f10x_rcc.o(.text)
    RCC_HCLKConfig                           0x08000beb   Thumb Code    18  stm32f10x_rcc.o(.text)
    RCC_PCLK1Config                          0x08000bfd   Thumb Code    18  stm32f10x_rcc.o(.text)
    RCC_PCLK2Config                          0x08000c0f   Thumb Code    20  stm32f10x_rcc.o(.text)
    RCC_ITConfig                             0x08000c23   Thumb Code    26  stm32f10x_rcc.o(.text)
    RCC_USBCLKConfig                         0x08000c3d   Thumb Code     8  stm32f10x_rcc.o(.text)
    RCC_ADCCLKConfig                         0x08000c45   Thumb Code    18  stm32f10x_rcc.o(.text)
    RCC_LSEConfig                            0x08000c57   Thumb Code    50  stm32f10x_rcc.o(.text)
    RCC_LSICmd                               0x08000c89   Thumb Code     6  stm32f10x_rcc.o(.text)
    RCC_RTCCLKConfig                         0x08000c8f   Thumb Code    12  stm32f10x_rcc.o(.text)
    RCC_RTCCLKCmd                            0x08000c9b   Thumb Code     8  stm32f10x_rcc.o(.text)
    RCC_GetClocksFreq                        0x08000ca3   Thumb Code   192  stm32f10x_rcc.o(.text)
    RCC_AHBPeriphClockCmd                    0x08000d63   Thumb Code    26  stm32f10x_rcc.o(.text)
    RCC_APB2PeriphClockCmd                   0x08000d7d   Thumb Code    26  stm32f10x_rcc.o(.text)
    RCC_APB1PeriphClockCmd                   0x08000d97   Thumb Code    26  stm32f10x_rcc.o(.text)
    RCC_APB2PeriphResetCmd                   0x08000db1   Thumb Code    26  stm32f10x_rcc.o(.text)
    RCC_APB1PeriphResetCmd                   0x08000dcb   Thumb Code    26  stm32f10x_rcc.o(.text)
    RCC_BackupResetCmd                       0x08000de5   Thumb Code     8  stm32f10x_rcc.o(.text)
    RCC_ClockSecuritySystemCmd               0x08000ded   Thumb Code     6  stm32f10x_rcc.o(.text)
    RCC_MCOConfig                            0x08000df3   Thumb Code     6  stm32f10x_rcc.o(.text)
    RCC_ClearFlag                            0x08000df9   Thumb Code    14  stm32f10x_rcc.o(.text)
    RCC_GetITStatus                          0x08000e07   Thumb Code    20  stm32f10x_rcc.o(.text)
    RCC_ClearITPendingBit                    0x08000e1b   Thumb Code     6  stm32f10x_rcc.o(.text)
    TIM_DeInit                               0x08000e45   Thumb Code   424  stm32f10x_tim.o(.text)
    TIM_TimeBaseInit                         0x08000fed   Thumb Code   122  stm32f10x_tim.o(.text)
    TIM_OC1Init                              0x08001067   Thumb Code   132  stm32f10x_tim.o(.text)
    TIM_OC2Init                              0x080010eb   Thumb Code   154  stm32f10x_tim.o(.text)
    TIM_OC3Init                              0x08001185   Thumb Code   150  stm32f10x_tim.o(.text)
    TIM_OC4Init                              0x0800121b   Thumb Code   182  stm32f10x_tim.o(.text)
    TIM_SetIC4Prescaler                      0x080012d1   Thumb Code    26  stm32f10x_tim.o(.text)
    TIM_SetIC3Prescaler                      0x0800136d   Thumb Code    18  stm32f10x_tim.o(.text)
    TIM_SetIC2Prescaler                      0x080013f9   Thumb Code    26  stm32f10x_tim.o(.text)
    TIM_SetIC1Prescaler                      0x08001495   Thumb Code    18  stm32f10x_tim.o(.text)
    TIM_ICInit                               0x08001513   Thumb Code   150  stm32f10x_tim.o(.text)
    TIM_PWMIConfig                           0x080015a9   Thumb Code   124  stm32f10x_tim.o(.text)
    TIM_BDTRConfig                           0x08001625   Thumb Code    32  stm32f10x_tim.o(.text)
    TIM_TimeBaseStructInit                   0x08001645   Thumb Code    18  stm32f10x_tim.o(.text)
    TIM_OCStructInit                         0x08001657   Thumb Code    20  stm32f10x_tim.o(.text)
    TIM_ICStructInit                         0x0800166b   Thumb Code    18  stm32f10x_tim.o(.text)
    TIM_BDTRStructInit                       0x0800167d   Thumb Code    40  stm32f10x_tim.o(.text)
    TIM_Cmd                                  0x080016a5   Thumb Code    24  stm32f10x_tim.o(.text)
    TIM_CtrlPWMOutputs                       0x080016bd   Thumb Code    30  stm32f10x_tim.o(.text)
    TIM_ITConfig                             0x080016db   Thumb Code    18  stm32f10x_tim.o(.text)
    TIM_GenerateEvent                        0x080016ed   Thumb Code     4  stm32f10x_tim.o(.text)
    TIM_DMAConfig                            0x080016f1   Thumb Code    10  stm32f10x_tim.o(.text)
    TIM_DMACmd                               0x080016fb   Thumb Code    18  stm32f10x_tim.o(.text)
    TIM_InternalClockConfig                  0x0800170d   Thumb Code    12  stm32f10x_tim.o(.text)
    TIM_SelectInputTrigger                   0x08001719   Thumb Code    18  stm32f10x_tim.o(.text)
    TIM_ITRxExternalClockConfig              0x0800172b   Thumb Code    24  stm32f10x_tim.o(.text)
    TIM_TIxExternalClockConfig               0x08001743   Thumb Code    62  stm32f10x_tim.o(.text)
    TIM_ETRConfig                            0x08001781   Thumb Code    28  stm32f10x_tim.o(.text)
    TIM_ETRClockMode1Config                  0x0800179d   Thumb Code    54  stm32f10x_tim.o(.text)
    TIM_ETRClockMode2Config                  0x080017d3   Thumb Code    32  stm32f10x_tim.o(.text)
    TIM_PrescalerConfig                      0x080017f3   Thumb Code     6  stm32f10x_tim.o(.text)
    TIM_CounterModeConfig                    0x080017f9   Thumb Code    18  stm32f10x_tim.o(.text)
    TIM_EncoderInterfaceConfig               0x0800180b   Thumb Code    66  stm32f10x_tim.o(.text)
    TIM_ForcedOC1Config                      0x0800184d   Thumb Code    18  stm32f10x_tim.o(.text)
    TIM_ForcedOC2Config                      0x0800185f   Thumb Code    26  stm32f10x_tim.o(.text)
    TIM_ForcedOC3Config                      0x08001879   Thumb Code    18  stm32f10x_tim.o(.text)
    TIM_ForcedOC4Config                      0x0800188b   Thumb Code    26  stm32f10x_tim.o(.text)
    TIM_ARRPreloadConfig                     0x080018a5   Thumb Code    24  stm32f10x_tim.o(.text)
    TIM_SelectCOM                            0x080018bd   Thumb Code    24  stm32f10x_tim.o(.text)
    TIM_SelectCCDMA                          0x080018d5   Thumb Code    24  stm32f10x_tim.o(.text)
    TIM_CCPreloadControl                     0x080018ed   Thumb Code    24  stm32f10x_tim.o(.text)
    TIM_OC1PreloadConfig                     0x08001905   Thumb Code    18  stm32f10x_tim.o(.text)
    TIM_OC2PreloadConfig                     0x08001917   Thumb Code    26  stm32f10x_tim.o(.text)
    TIM_OC3PreloadConfig                     0x08001931   Thumb Code    18  stm32f10x_tim.o(.text)
    TIM_OC4PreloadConfig                     0x08001943   Thumb Code    26  stm32f10x_tim.o(.text)
    TIM_OC1FastConfig                        0x0800195d   Thumb Code    18  stm32f10x_tim.o(.text)
    TIM_OC2FastConfig                        0x0800196f   Thumb Code    26  stm32f10x_tim.o(.text)
    TIM_OC3FastConfig                        0x08001989   Thumb Code    18  stm32f10x_tim.o(.text)
    TIM_OC4FastConfig                        0x0800199b   Thumb Code    26  stm32f10x_tim.o(.text)
    TIM_ClearOC1Ref                          0x080019b5   Thumb Code    18  stm32f10x_tim.o(.text)
    TIM_ClearOC2Ref                          0x080019c7   Thumb Code    24  stm32f10x_tim.o(.text)
    TIM_ClearOC3Ref                          0x080019df   Thumb Code    18  stm32f10x_tim.o(.text)
    TIM_ClearOC4Ref                          0x080019f1   Thumb Code    24  stm32f10x_tim.o(.text)
    TIM_OC1PolarityConfig                    0x08001a09   Thumb Code    18  stm32f10x_tim.o(.text)
    TIM_OC1NPolarityConfig                   0x08001a1b   Thumb Code    18  stm32f10x_tim.o(.text)
    TIM_OC2PolarityConfig                    0x08001a2d   Thumb Code    26  stm32f10x_tim.o(.text)
    TIM_OC2NPolarityConfig                   0x08001a47   Thumb Code    26  stm32f10x_tim.o(.text)
    TIM_OC3PolarityConfig                    0x08001a61   Thumb Code    26  stm32f10x_tim.o(.text)
    TIM_OC3NPolarityConfig                   0x08001a7b   Thumb Code    26  stm32f10x_tim.o(.text)
    TIM_OC4PolarityConfig                    0x08001a95   Thumb Code    26  stm32f10x_tim.o(.text)
    TIM_CCxCmd                               0x08001aaf   Thumb Code    30  stm32f10x_tim.o(.text)
    TIM_CCxNCmd                              0x08001acd   Thumb Code    30  stm32f10x_tim.o(.text)
    TIM_SelectOCxM                           0x08001aeb   Thumb Code    82  stm32f10x_tim.o(.text)
    TIM_UpdateDisableConfig                  0x08001b3d   Thumb Code    24  stm32f10x_tim.o(.text)
    TIM_UpdateRequestConfig                  0x08001b55   Thumb Code    24  stm32f10x_tim.o(.text)
    TIM_SelectHallSensor                     0x08001b6d   Thumb Code    24  stm32f10x_tim.o(.text)
    TIM_SelectOnePulseMode                   0x08001b85   Thumb Code    18  stm32f10x_tim.o(.text)
    TIM_SelectOutputTrigger                  0x08001b97   Thumb Code    18  stm32f10x_tim.o(.text)
    TIM_SelectSlaveMode                      0x08001ba9   Thumb Code    18  stm32f10x_tim.o(.text)
    TIM_SelectMasterSlaveMode                0x08001bbb   Thumb Code    18  stm32f10x_tim.o(.text)
    TIM_SetCounter                           0x08001bcd   Thumb Code     4  stm32f10x_tim.o(.text)
    TIM_SetAutoreload                        0x08001bd1   Thumb Code     4  stm32f10x_tim.o(.text)
    TIM_SetCompare1                          0x08001bd5   Thumb Code     4  stm32f10x_tim.o(.text)
    TIM_SetCompare2                          0x08001bd9   Thumb Code     4  stm32f10x_tim.o(.text)
    TIM_SetCompare3                          0x08001bdd   Thumb Code     4  stm32f10x_tim.o(.text)
    TIM_SetCompare4                          0x08001be1   Thumb Code     6  stm32f10x_tim.o(.text)
    TIM_SetClockDivision                     0x08001be7   Thumb Code    18  stm32f10x_tim.o(.text)
    TIM_GetCapture1                          0x08001bf9   Thumb Code     6  stm32f10x_tim.o(.text)
    TIM_GetCapture2                          0x08001bff   Thumb Code     6  stm32f10x_tim.o(.text)
    TIM_GetCapture3                          0x08001c05   Thumb Code     6  stm32f10x_tim.o(.text)
    TIM_GetCapture4                          0x08001c0b   Thumb Code     8  stm32f10x_tim.o(.text)
    TIM_GetCounter                           0x08001c13   Thumb Code     6  stm32f10x_tim.o(.text)
    TIM_GetPrescaler                         0x08001c19   Thumb Code     6  stm32f10x_tim.o(.text)
    TIM_GetFlagStatus                        0x08001c1f   Thumb Code    18  stm32f10x_tim.o(.text)
    TIM_ClearFlag                            0x08001c31   Thumb Code     6  stm32f10x_tim.o(.text)
    TIM_GetITStatus                          0x08001c37   Thumb Code    34  stm32f10x_tim.o(.text)
    TIM_ClearITPendingBit                    0x08001c59   Thumb Code     6  stm32f10x_tim.o(.text)
    USART_DeInit                             0x08001c61   Thumb Code   134  stm32f10x_usart.o(.text)
    USART_Init                               0x08001ce7   Thumb Code   210  stm32f10x_usart.o(.text)
    USART_StructInit                         0x08001db9   Thumb Code    24  stm32f10x_usart.o(.text)
    USART_ClockInit                          0x08001dd1   Thumb Code    34  stm32f10x_usart.o(.text)
    USART_ClockStructInit                    0x08001df3   Thumb Code    12  stm32f10x_usart.o(.text)
    USART_Cmd                                0x08001dff   Thumb Code    24  stm32f10x_usart.o(.text)
    USART_ITConfig                           0x08001e17   Thumb Code    74  stm32f10x_usart.o(.text)
    USART_DMACmd                             0x08001e61   Thumb Code    18  stm32f10x_usart.o(.text)
    USART_SetAddress                         0x08001e73   Thumb Code    18  stm32f10x_usart.o(.text)
    USART_WakeUpConfig                       0x08001e85   Thumb Code    18  stm32f10x_usart.o(.text)
    USART_ReceiverWakeUpCmd                  0x08001e97   Thumb Code    24  stm32f10x_usart.o(.text)
    USART_LINBreakDetectLengthConfig         0x08001eaf   Thumb Code    18  stm32f10x_usart.o(.text)
    USART_LINCmd                             0x08001ec1   Thumb Code    24  stm32f10x_usart.o(.text)
    USART_SendData                           0x08001ed9   Thumb Code     8  stm32f10x_usart.o(.text)
    USART_ReceiveData                        0x08001ee1   Thumb Code    10  stm32f10x_usart.o(.text)
    USART_SendBreak                          0x08001eeb   Thumb Code    10  stm32f10x_usart.o(.text)
    USART_SetGuardTime                       0x08001ef5   Thumb Code    16  stm32f10x_usart.o(.text)
    USART_SetPrescaler                       0x08001f05   Thumb Code    16  stm32f10x_usart.o(.text)
    USART_SmartCardCmd                       0x08001f15   Thumb Code    24  stm32f10x_usart.o(.text)
    USART_SmartCardNACKCmd                   0x08001f2d   Thumb Code    24  stm32f10x_usart.o(.text)
    USART_HalfDuplexCmd                      0x08001f45   Thumb Code    24  stm32f10x_usart.o(.text)
    USART_OverSampling8Cmd                   0x08001f5d   Thumb Code    22  stm32f10x_usart.o(.text)
    USART_OneBitMethodCmd                    0x08001f73   Thumb Code    24  stm32f10x_usart.o(.text)
    USART_IrDAConfig                         0x08001f8b   Thumb Code    18  stm32f10x_usart.o(.text)
    USART_IrDACmd                            0x08001f9d   Thumb Code    24  stm32f10x_usart.o(.text)
    USART_GetFlagStatus                      0x08001fb5   Thumb Code    26  stm32f10x_usart.o(.text)
    USART_ClearFlag                          0x08001fcf   Thumb Code    18  stm32f10x_usart.o(.text)
    USART_GetITStatus                        0x08001fe1   Thumb Code    84  stm32f10x_usart.o(.text)
    USART_ClearITPendingBit                  0x08002035   Thumb Code    52  stm32f10x_usart.o(.text)
    delay_init                               0x08002069   Thumb Code    50  delay.o(.text)
    delay_us                                 0x0800209b   Thumb Code    72  delay.o(.text)
    delay_ms                                 0x080020e3   Thumb Code    72  delay.o(.text)
    _sys_exit                                0x0800213d   Thumb Code     6  usart.o(.text)
    fputc                                    0x08002143   Thumb Code    24  usart.o(.text)
    uart_init                                0x0800215b   Thumb Code   152  usart.o(.text)
    USART1_IRQHandler                        0x080021f3   Thumb Code   122  usart.o(.text)
    LED_Init                                 0x0800227d   Thumb Code    50  led.o(.text)
    I2C_Stop                                 0x080022b5   Thumb Code    28  oled.o(.text)
    I2C_WaitAck                              0x080022d1   Thumb Code    20  oled.o(.text)
    Send_Byte                                0x080022e5   Thumb Code    70  oled.o(.text)
    I2C_Start                                0x0800232b   Thumb Code    36  oled.o(.text)
    OLED_WR_Byte                             0x0800234f   Thumb Code    56  oled.o(.text)
    OLED_ColorTurn                           0x08002387   Thumb Code    28  oled.o(.text)
    OLED_DisplayTurn                         0x080023a3   Thumb Code    44  oled.o(.text)
    OLED_DisPlay_On                          0x080023cf   Thumb Code    28  oled.o(.text)
    OLED_DisPlay_Off                         0x080023eb   Thumb Code    28  oled.o(.text)
    OLED_Refresh                             0x08002407   Thumb Code    70  oled.o(.text)
    OLED_Clear                               0x0800244d   Thumb Code    42  oled.o(.text)
    OLED_DrawPoint                           0x08002477   Thumb Code    54  oled.o(.text)
    OLED_ClearPoint                          0x080024ad   Thumb Code    90  oled.o(.text)
    OLED_DrawLine                            0x08002507   Thumb Code     4  oled.o(.text)
    OLED_DrawCircle                          0x0800250b   Thumb Code   152  oled.o(.text)
    OLED_ShowChar                            0x080025a3   Thumb Code   240  oled.o(.text)
    OLED_ShowString                          0x08002693   Thumb Code    88  oled.o(.text)
    OLED_Pow                                 0x080026eb   Thumb Code    22  oled.o(.text)
    OLED_ShowNum                             0x08002701   Thumb Code   116  oled.o(.text)
    OLED_ShowChinese                         0x08002775   Thumb Code   248  oled.o(.text)
    OLED_ScrollDisplay                       0x0800286d   Thumb Code   160  oled.o(.text)
    OLED_WR_BP                               0x0800290d   Thumb Code    46  oled.o(.text)
    OLED_ShowPicture                         0x0800293b   Thumb Code    98  oled.o(.text)
    OLED_Init                                0x0800299d   Thumb Code   280  oled.o(.text)
    Kalman_Filter_Y                          0x08002acd   Thumb Code   558  kalman.o(.text)
    Kalman_Filter_X                          0x08002cfb   Thumb Code   636  kalman.o(.text)
    Angle_Calcu                              0x08002f77   Thumb Code   810  kalman.o(.text)
    TIM4_Int_Init                            0x0800330d   Thumb Code    90  timer.o(.text)
    TIM4_IRQHandler                          0x08003367   Thumb Code    42  timer.o(.text)
    MPU_IIC_Delay                            0x08003399   Thumb Code    10  mpuiic.o(.text)
    MPU_IIC_Init                             0x080033a3   Thumb Code    46  mpuiic.o(.text)
    MPU_IIC_Start                            0x080033d1   Thumb Code    60  mpuiic.o(.text)
    MPU_IIC_Stop                             0x0800340d   Thumb Code    62  mpuiic.o(.text)
    MPU_IIC_Wait_Ack                         0x0800344b   Thumb Code    86  mpuiic.o(.text)
    MPU_IIC_Ack                              0x080034a1   Thumb Code    66  mpuiic.o(.text)
    MPU_IIC_NAck                             0x080034e3   Thumb Code    66  mpuiic.o(.text)
    MPU_IIC_Send_Byte                        0x08003525   Thumb Code    82  mpuiic.o(.text)
    MPU_IIC_Read_Byte                        0x08003577   Thumb Code    96  mpuiic.o(.text)
    MPU_Write_Byte                           0x080035e5   Thumb Code    68  mpu6050.o(.text)
    MPU_Init                                 0x08003629   Thumb Code    48  mpu6050.o(.text)
    MPU_Read_Len                             0x08003659   Thumb Code   116  mpu6050.o(.text)
    MPU_Get_Temperature                      0x080036cd   Thumb Code    86  mpu6050.o(.text)
    MPU_Get_Gyroscope                        0x08003723   Thumb Code    80  mpu6050.o(.text)
    MPU_Get_Accelerometer                    0x08003773   Thumb Code    80  mpu6050.o(.text)
    MPU_Write_Len                            0x080037c3   Thumb Code    96  mpu6050.o(.text)
    MPU_Read_Byte                            0x08003823   Thumb Code    58  mpu6050.o(.text)
    __use_no_semihosting                     0x0800386d   Thumb Code     2  use_no_semi_2.o(.text)
    __2printf                                0x08003871   Thumb Code    20  noretval__2printf.o(.text)
    __2sprintf                               0x08003889   Thumb Code    34  noretval__2sprintf.o(.text)
    _printf_pre_padding                      0x080038b1   Thumb Code    44  _printf_pad.o(.text)
    _printf_post_padding                     0x080038dd   Thumb Code    34  _printf_pad.o(.text)
    _printf_int_dec                          0x08003901   Thumb Code   104  _printf_dec.o(.text)
    __printf                                 0x08003979   Thumb Code   270  __printf_wp.o(.text)
    __use_two_region_memory                  0x08003a87   Thumb Code     2  heapauxi.o(.text)
    __rt_heap_escrow$2region                 0x08003a89   Thumb Code     2  heapauxi.o(.text)
    __rt_heap_expand$2region                 0x08003a8b   Thumb Code     2  heapauxi.o(.text)
    __I$use$semihosting                      0x08003a8d   Thumb Code     0  use_no_semi.o(.text)
    __use_no_semihosting_swi                 0x08003a8d   Thumb Code     2  use_no_semi.o(.text)
    _printf_int_common                       0x08003a8f   Thumb Code   178  _printf_intcommon.o(.text)
    __lib_sel_fp_printf                      0x08003b41   Thumb Code     2  _printf_fp_dec.o(.text)
    _printf_fp_dec_real                      0x08003cf3   Thumb Code   620  _printf_fp_dec.o(.text)
    _printf_char_common                      0x08003f6b   Thumb Code    32  _printf_char_common.o(.text)
    _sputc                                   0x08003f91   Thumb Code    10  _sputc.o(.text)
    _printf_char_file                        0x08003f9d   Thumb Code    32  _printf_char_file.o(.text)
    __rt_locale                              0x08003fc1   Thumb Code     8  rt_locale_intlibspace.o(.text)
    _ll_udiv10                               0x08003fc9   Thumb Code   138  lludiv10.o(.text)
    _printf_fp_infnan                        0x08004055   Thumb Code   112  _printf_fp_infnan.o(.text)
    _btod_etento                             0x080040d5   Thumb Code   224  bigflt0.o(.text)
    ferror                                   0x080041b9   Thumb Code     8  ferror.o(.text)
    __user_libspace                          0x080041c1   Thumb Code     8  libspace.o(.text)
    __user_perproc_libspace                  0x080041c1   Thumb Code     0  libspace.o(.text)
    __user_perthread_libspace                0x080041c1   Thumb Code     0  libspace.o(.text)
    __user_setup_stackheap                   0x080041c9   Thumb Code    74  sys_stackheap_outer.o(.text)
    exit                                     0x08004213   Thumb Code    18  exit.o(.text)
    strcmp                                   0x08004225   Thumb Code   128  strcmpv7m.o(.text)
    _btod_d2e                                0x080042a5   Thumb Code    62  btod.o(CL$$btod_d2e)
    _d2e_denorm_low                          0x080042e3   Thumb Code    70  btod.o(CL$$btod_d2e_denorm_low)
    _d2e_norm_op1                            0x08004329   Thumb Code    96  btod.o(CL$$btod_d2e_norm_op1)
    __btod_div_common                        0x08004389   Thumb Code   696  btod.o(CL$$btod_div_common)
    _e2e                                     0x080046c1   Thumb Code   220  btod.o(CL$$btod_e2e)
    _btod_ediv                               0x0800479d   Thumb Code    42  btod.o(CL$$btod_ediv)
    _btod_emul                               0x080047c7   Thumb Code    42  btod.o(CL$$btod_emul)
    __btod_mult_common                       0x080047f1   Thumb Code   580  btod.o(CL$$btod_mult_common)
    __ARM_fpclassify                         0x08004a35   Thumb Code    40  fpclassify.o(i.__ARM_fpclassify)
    __kernel_poly                            0x08004a5d   Thumb Code   170  poly.o(i.__kernel_poly)
    __mathlib_dbl_infnan                     0x08004b07   Thumb Code     6  dunder.o(i.__mathlib_dbl_infnan)
    __mathlib_dbl_underflow                  0x08004b0d   Thumb Code    10  dunder.o(i.__mathlib_dbl_underflow)
    _is_digit                                0x08004b1d   Thumb Code    14  __printf_wp.o(i._is_digit)
    atan                                     0x08004b2d   Thumb Code   474  atan.o(i.atan)
    _get_lc_numeric                          0x08004d4d   Thumb Code    44  lc_numeric_c.o(locale$$code)
    __aeabi_d2f                              0x08004d79   Thumb Code     0  d2f.o(x$fpl$d2f)
    _d2f                                     0x08004d79   Thumb Code    98  d2f.o(x$fpl$d2f)
    __aeabi_dadd                             0x08004ddd   Thumb Code     0  daddsub_clz.o(x$fpl$dadd)
    _dadd                                    0x08004ddd   Thumb Code   332  daddsub_clz.o(x$fpl$dadd)
    __fpl_dcheck_NaN1                        0x08004f2d   Thumb Code    10  dcheck1.o(x$fpl$dcheck1)
    __aeabi_ddiv                             0x08004f3d   Thumb Code     0  ddiv.o(x$fpl$ddiv)
    _ddiv                                    0x08004f3d   Thumb Code   552  ddiv.o(x$fpl$ddiv)
    __aeabi_i2d                              0x080051ed   Thumb Code     0  dflt_clz.o(x$fpl$dflt)
    _dflt                                    0x080051ed   Thumb Code    46  dflt_clz.o(x$fpl$dflt)
    __aeabi_dmul                             0x0800521d   Thumb Code     0  dmul.o(x$fpl$dmul)
    _dmul                                    0x0800521d   Thumb Code   332  dmul.o(x$fpl$dmul)
    __fpl_dnaninf                            0x08005371   Thumb Code   156  dnaninf.o(x$fpl$dnaninf)
    __fpl_dretinf                            0x0800540d   Thumb Code    12  dretinf.o(x$fpl$dretinf)
    __aeabi_drsub                            0x08005419   Thumb Code     0  daddsub_clz.o(x$fpl$drsb)
    _drsb                                    0x08005419   Thumb Code    22  daddsub_clz.o(x$fpl$drsb)
    __aeabi_dsub                             0x08005431   Thumb Code     0  daddsub_clz.o(x$fpl$dsub)
    _dsub                                    0x08005431   Thumb Code   464  daddsub_clz.o(x$fpl$dsub)
    __aeabi_f2d                              0x08005605   Thumb Code     0  f2d.o(x$fpl$f2d)
    _f2d                                     0x08005605   Thumb Code    86  f2d.o(x$fpl$f2d)
    __aeabi_fadd                             0x0800565d   Thumb Code     0  faddsub_clz.o(x$fpl$fadd)
    _fadd                                    0x0800565d   Thumb Code   196  faddsub_clz.o(x$fpl$fadd)
    __fpl_fcmp_Inf                           0x08005721   Thumb Code    24  fcmpi.o(x$fpl$fcmpinf)
    __aeabi_fdiv                             0x08005739   Thumb Code     0  fdiv.o(x$fpl$fdiv)
    _fdiv                                    0x08005739   Thumb Code   384  fdiv.o(x$fpl$fdiv)
    __aeabi_f2iz                             0x080058bd   Thumb Code     0  ffix.o(x$fpl$ffix)
    _ffix                                    0x080058bd   Thumb Code    54  ffix.o(x$fpl$ffix)
    __aeabi_i2f                              0x080058f5   Thumb Code     0  fflt_clz.o(x$fpl$fflt)
    _fflt                                    0x080058f5   Thumb Code    48  fflt_clz.o(x$fpl$fflt)
    __aeabi_ui2f                             0x08005925   Thumb Code     0  fflt_clz.o(x$fpl$ffltu)
    _ffltu                                   0x08005925   Thumb Code    38  fflt_clz.o(x$fpl$ffltu)
    __aeabi_cfcmple                          0x0800594d   Thumb Code     0  fleqf.o(x$fpl$fleqf)
    _fcmple                                  0x0800594d   Thumb Code   104  fleqf.o(x$fpl$fleqf)
    __fpl_fcmple_InfNaN                      0x0800599f   Thumb Code     0  fleqf.o(x$fpl$fleqf)
    __aeabi_fmul                             0x080059b5   Thumb Code     0  fmul.o(x$fpl$fmul)
    _fmul                                    0x080059b5   Thumb Code   258  fmul.o(x$fpl$fmul)
    __fpl_fnaninf                            0x08005ab7   Thumb Code   140  fnaninf.o(x$fpl$fnaninf)
    __fpl_fretinf                            0x08005b43   Thumb Code    10  fretinf.o(x$fpl$fretinf)
    __aeabi_cfrcmple                         0x08005b4d   Thumb Code     0  frleqf.o(x$fpl$frleqf)
    _frcmple                                 0x08005b4d   Thumb Code    98  frleqf.o(x$fpl$frleqf)
    __aeabi_frsub                            0x08005baf   Thumb Code     0  faddsub_clz.o(x$fpl$frsb)
    _frsb                                    0x08005baf   Thumb Code    20  faddsub_clz.o(x$fpl$frsb)
    __aeabi_fsub                             0x08005bc5   Thumb Code     0  faddsub_clz.o(x$fpl$fsub)
    _fsub                                    0x08005bc5   Thumb Code   234  faddsub_clz.o(x$fpl$fsub)
    _printf_fp_dec                           0x08005caf   Thumb Code     4  printf1.o(x$fpl$printf1)
    __fpl_return_NaN                         0x08005cb3   Thumb Code   100  retnan.o(x$fpl$retnan)
    __ARM_scalbn                             0x08005d17   Thumb Code    92  scalbn.o(x$fpl$scalbn)
    __fpl_cmpreturn                          0x08005d73   Thumb Code    48  trapv.o(x$fpl$trapveneer)
    __I$use$fp                               0x08005da2   Number         0  usenofp.o(x$fpl$usenofp)
    asc2_1206                                0x08005da2   Data        1140  oled.o(.constdata)
    asc2_1608                                0x08006216   Data        1520  oled.o(.constdata)
    asc2_2412                                0x08006806   Data        3420  oled.o(.constdata)
    Hzk1                                     0x08007562   Data         704  oled.o(.constdata)
    Region$$Table$$Base                      0x080079ac   Number         0  anon$$obj.o(Region$$Table)
    Region$$Table$$Limit                     0x080079cc   Number         0  anon$$obj.o(Region$$Table)
    SystemCoreClock                          0x20000000   Data           4  system_stm32f10x.o(.data)
    AHBPrescTable                            0x20000004   Data          16  system_stm32f10x.o(.data)
    __stdout                                 0x2000002c   Data           4  usart.o(.data)
    USART_RX_STA                             0x20000030   Data           2  usart.o(.data)
    Hzk2                                     0x20000032   Data         216  oled.o(.data)
    Hzk3                                     0x2000010a   Data         512  oled.o(.data)
    Hzk4                                     0x2000030a   Data        4096  oled.o(.data)
    aacx                                     0x2000130c   Data           2  kalman.o(.data)
    aacy                                     0x2000130e   Data           2  kalman.o(.data)
    aacz                                     0x20001310   Data           2  kalman.o(.data)
    gyrox                                    0x20001312   Data           2  kalman.o(.data)
    gyroy                                    0x20001314   Data           2  kalman.o(.data)
    gyroz                                    0x20001316   Data           2  kalman.o(.data)
    temperature                              0x20001318   Data           2  kalman.o(.data)
    Accel_x                                  0x2000131c   Data           4  kalman.o(.data)
    Accel_y                                  0x20001320   Data           4  kalman.o(.data)
    Accel_z                                  0x20001324   Data           4  kalman.o(.data)
    Gyro_x                                   0x20001328   Data           4  kalman.o(.data)
    Gyro_y                                   0x2000132c   Data           4  kalman.o(.data)
    Gyro_z                                   0x20001330   Data           4  kalman.o(.data)
    Angle_x_temp                             0x20001334   Data           4  kalman.o(.data)
    Angle_y_temp                             0x20001338   Data           4  kalman.o(.data)
    Angle_X_Final                            0x2000133c   Data           4  kalman.o(.data)
    Angle_Y_Final                            0x20001340   Data           4  kalman.o(.data)
    Q_angle                                  0x20001344   Data           4  kalman.o(.data)
    Q_gyro                                   0x20001348   Data           4  kalman.o(.data)
    R_angle                                  0x2000134c   Data           4  kalman.o(.data)
    dt                                       0x20001350   Data           4  kalman.o(.data)
    C_0                                      0x20001354   Data           1  kalman.o(.data)
    Q_bias                                   0x20001358   Data           4  kalman.o(.data)
    Angle_err                                0x2000135c   Data           4  kalman.o(.data)
    PCt_0                                    0x20001360   Data           4  kalman.o(.data)
    PCt_1                                    0x20001364   Data           4  kalman.o(.data)
    E                                        0x20001368   Data           4  kalman.o(.data)
    K_0                                      0x2000136c   Data           4  kalman.o(.data)
    K_1                                      0x20001370   Data           4  kalman.o(.data)
    t_0                                      0x20001374   Data           4  kalman.o(.data)
    t_1                                      0x20001378   Data           4  kalman.o(.data)
    PP                                       0x2000137c   Data          16  kalman.o(.data)
    tmp_buf                                  0x2000138c   Data          20  main.o(.bss)
    USART_RX_BUF                             0x200013a0   Data         200  usart.o(.bss)
    OLED_GRAM                                0x20001468   Data        1152  oled.o(.bss)
    P                                        0x200018e8   Data          16  kalman.o(.bss)
    __libspace_start                         0x200018f8   Data          96  libspace.o(.bss)
    __temporary_stack_top$libspace           0x20001958   Data           0  libspace.o(.bss)



==============================================================================

Memory Map of the image

  Image Entry point : 0x080000ed

  Load Region LR_IROM1 (Base: 0x08000000, Size: 0x00008d74, Max: 0x00010000, ABSOLUTE, COMPRESSED[0x00007ac4])

    Execution Region ER_IROM1 (Exec base: 0x08000000, Load base: 0x08000000, Size: 0x000079e8, Max: 0x00010000, ABSOLUTE)

    Exec Addr    Load Addr    Size         Type   Attr      Idx    E Section Name        Object

    0x08000000   0x08000000   0x000000ec   Data   RO          219    RESET               startup_stm32f10x_md.o
    0x080000ec   0x080000ec   0x00000008   Code   RO          698  * !!!main             c_w.l(__main.o)
    0x080000f4   0x080000f4   0x00000034   Code   RO         1010    !!!scatter          c_w.l(__scatter.o)
    0x08000128   0x08000128   0x0000005a   Code   RO         1008    !!dczerorl2         c_w.l(__dczerorl2.o)
    0x08000182   0x08000182   0x00000002   PAD
    0x08000184   0x08000184   0x0000001c   Code   RO         1012    !!handler_zi        c_w.l(__scatter_zi.o)
    0x080001a0   0x080001a0   0x00000000   Code   RO          695    .ARM.Collect$$_printf_percent$$00000000  c_w.l(_printf_percent.o)
    0x080001a0   0x080001a0   0x00000006   Code   RO          694    .ARM.Collect$$_printf_percent$$00000003  c_w.l(_printf_f.o)
    0x080001a6   0x080001a6   0x00000006   Code   RO          693    .ARM.Collect$$_printf_percent$$00000009  c_w.l(_printf_d.o)
    0x080001ac   0x080001ac   0x00000004   Code   RO          773    .ARM.Collect$$_printf_percent$$00000017  c_w.l(_printf_percent_end.o)
    0x080001b0   0x080001b0   0x00000002   Code   RO          881    .ARM.Collect$$libinit$$00000000  c_w.l(libinit.o)
    0x080001b2   0x080001b2   0x00000000   Code   RO          883    .ARM.Collect$$libinit$$00000002  c_w.l(libinit2.o)
    0x080001b2   0x080001b2   0x00000000   Code   RO          885    .ARM.Collect$$libinit$$00000004  c_w.l(libinit2.o)
    0x080001b2   0x080001b2   0x00000000   Code   RO          888    .ARM.Collect$$libinit$$0000000A  c_w.l(libinit2.o)
    0x080001b2   0x080001b2   0x00000000   Code   RO          890    .ARM.Collect$$libinit$$0000000C  c_w.l(libinit2.o)
    0x080001b2   0x080001b2   0x00000000   Code   RO          892    .ARM.Collect$$libinit$$0000000E  c_w.l(libinit2.o)
    0x080001b2   0x080001b2   0x00000006   Code   RO          893    .ARM.Collect$$libinit$$0000000F  c_w.l(libinit2.o)
    0x080001b8   0x080001b8   0x00000000   Code   RO          895    .ARM.Collect$$libinit$$00000011  c_w.l(libinit2.o)
    0x080001b8   0x080001b8   0x00000000   Code   RO          897    .ARM.Collect$$libinit$$00000013  c_w.l(libinit2.o)
    0x080001b8   0x080001b8   0x00000000   Code   RO          899    .ARM.Collect$$libinit$$00000015  c_w.l(libinit2.o)
    0x080001b8   0x080001b8   0x0000000a   Code   RO          900    .ARM.Collect$$libinit$$00000016  c_w.l(libinit2.o)
    0x080001c2   0x080001c2   0x00000000   Code   RO          901    .ARM.Collect$$libinit$$00000017  c_w.l(libinit2.o)
    0x080001c2   0x080001c2   0x00000000   Code   RO          903    .ARM.Collect$$libinit$$00000019  c_w.l(libinit2.o)
    0x080001c2   0x080001c2   0x00000000   Code   RO          905    .ARM.Collect$$libinit$$0000001B  c_w.l(libinit2.o)
    0x080001c2   0x080001c2   0x00000000   Code   RO          907    .ARM.Collect$$libinit$$0000001D  c_w.l(libinit2.o)
    0x080001c2   0x080001c2   0x00000000   Code   RO          909    .ARM.Collect$$libinit$$0000001F  c_w.l(libinit2.o)
    0x080001c2   0x080001c2   0x00000000   Code   RO          911    .ARM.Collect$$libinit$$00000021  c_w.l(libinit2.o)
    0x080001c2   0x080001c2   0x00000000   Code   RO          913    .ARM.Collect$$libinit$$00000023  c_w.l(libinit2.o)
    0x080001c2   0x080001c2   0x00000000   Code   RO          915    .ARM.Collect$$libinit$$00000025  c_w.l(libinit2.o)
    0x080001c2   0x080001c2   0x00000000   Code   RO          919    .ARM.Collect$$libinit$$0000002C  c_w.l(libinit2.o)
    0x080001c2   0x080001c2   0x00000000   Code   RO          921    .ARM.Collect$$libinit$$0000002E  c_w.l(libinit2.o)
    0x080001c2   0x080001c2   0x00000000   Code   RO          923    .ARM.Collect$$libinit$$00000030  c_w.l(libinit2.o)
    0x080001c2   0x080001c2   0x00000000   Code   RO          925    .ARM.Collect$$libinit$$00000032  c_w.l(libinit2.o)
    0x080001c2   0x080001c2   0x00000002   Code   RO          926    .ARM.Collect$$libinit$$00000033  c_w.l(libinit2.o)
    0x080001c4   0x080001c4   0x00000002   Code   RO          958    .ARM.Collect$$libshutdown$$00000000  c_w.l(libshutdown.o)
    0x080001c6   0x080001c6   0x00000000   Code   RO          967    .ARM.Collect$$libshutdown$$00000002  c_w.l(libshutdown2.o)
    0x080001c6   0x080001c6   0x00000000   Code   RO          969    .ARM.Collect$$libshutdown$$00000004  c_w.l(libshutdown2.o)
    0x080001c6   0x080001c6   0x00000000   Code   RO          972    .ARM.Collect$$libshutdown$$00000007  c_w.l(libshutdown2.o)
    0x080001c6   0x080001c6   0x00000000   Code   RO          975    .ARM.Collect$$libshutdown$$0000000A  c_w.l(libshutdown2.o)
    0x080001c6   0x080001c6   0x00000000   Code   RO          977    .ARM.Collect$$libshutdown$$0000000C  c_w.l(libshutdown2.o)
    0x080001c6   0x080001c6   0x00000000   Code   RO          980    .ARM.Collect$$libshutdown$$0000000F  c_w.l(libshutdown2.o)
    0x080001c6   0x080001c6   0x00000002   Code   RO          981    .ARM.Collect$$libshutdown$$00000010  c_w.l(libshutdown2.o)
    0x080001c8   0x080001c8   0x00000000   Code   RO          762    .ARM.Collect$$rtentry$$00000000  c_w.l(__rtentry.o)
    0x080001c8   0x080001c8   0x00000000   Code   RO          806    .ARM.Collect$$rtentry$$00000002  c_w.l(__rtentry2.o)
    0x080001c8   0x080001c8   0x00000006   Code   RO          818    .ARM.Collect$$rtentry$$00000004  c_w.l(__rtentry4.o)
    0x080001ce   0x080001ce   0x00000000   Code   RO          808    .ARM.Collect$$rtentry$$00000009  c_w.l(__rtentry2.o)
    0x080001ce   0x080001ce   0x00000004   Code   RO          809    .ARM.Collect$$rtentry$$0000000A  c_w.l(__rtentry2.o)
    0x080001d2   0x080001d2   0x00000000   Code   RO          811    .ARM.Collect$$rtentry$$0000000C  c_w.l(__rtentry2.o)
    0x080001d2   0x080001d2   0x00000008   Code   RO          812    .ARM.Collect$$rtentry$$0000000D  c_w.l(__rtentry2.o)
    0x080001da   0x080001da   0x00000002   Code   RO          929    .ARM.Collect$$rtexit$$00000000  c_w.l(rtexit.o)
    0x080001dc   0x080001dc   0x00000000   Code   RO          938    .ARM.Collect$$rtexit$$00000002  c_w.l(rtexit2.o)
    0x080001dc   0x080001dc   0x00000004   Code   RO          939    .ARM.Collect$$rtexit$$00000003  c_w.l(rtexit2.o)
    0x080001e0   0x080001e0   0x00000006   Code   RO          940    .ARM.Collect$$rtexit$$00000004  c_w.l(rtexit2.o)
    0x080001e6   0x080001e6   0x00000002   PAD
    0x080001e8   0x080001e8   0x00000244   Code   RO            1    .text               main.o
    0x0800042c   0x0800042c   0x0000001a   Code   RO          147    .text               stm32f10x_it.o
    0x08000446   0x08000446   0x00000002   PAD
    0x08000448   0x08000448   0x000001e0   Code   RO          188    .text               system_stm32f10x.o
    0x08000628   0x08000628   0x00000040   Code   RO          220    .text               startup_stm32f10x_md.o
    0x08000668   0x08000668   0x000000dc   Code   RO          224    .text               misc.o
    0x08000744   0x08000744   0x0000035c   Code   RO          368    .text               stm32f10x_gpio.o
    0x08000aa0   0x08000aa0   0x000003a4   Code   RO          416    .text               stm32f10x_rcc.o
    0x08000e44   0x08000e44   0x00000e1a   Code   RO          466    .text               stm32f10x_tim.o
    0x08001c5e   0x08001c5e   0x00000002   PAD
    0x08001c60   0x08001c60   0x00000408   Code   RO          478    .text               stm32f10x_usart.o
    0x08002068   0x08002068   0x000000d4   Code   RO          502    .text               delay.o
    0x0800213c   0x0800213c   0x00000140   Code   RO          532    .text               usart.o
    0x0800227c   0x0800227c   0x00000038   Code   RO          555    .text               led.o
    0x080022b4   0x080022b4   0x00000818   Code   RO          570    .text               oled.o
    0x08002acc   0x08002acc   0x00000840   Code   RO          593    .text               kalman.o
    0x0800330c   0x0800330c   0x0000008c   Code   RO          616    .text               timer.o
    0x08003398   0x08003398   0x0000024c   Code   RO          631    .text               mpuiic.o
    0x080035e4   0x080035e4   0x00000288   Code   RO          643    .text               mpu6050.o
    0x0800386c   0x0800386c   0x00000002   Code   RO          657    .text               c_w.l(use_no_semi_2.o)
    0x0800386e   0x0800386e   0x00000002   PAD
    0x08003870   0x08003870   0x00000018   Code   RO          663    .text               c_w.l(noretval__2printf.o)
    0x08003888   0x08003888   0x00000028   Code   RO          665    .text               c_w.l(noretval__2sprintf.o)
    0x080038b0   0x080038b0   0x0000004e   Code   RO          669    .text               c_w.l(_printf_pad.o)
    0x080038fe   0x080038fe   0x00000002   PAD
    0x08003900   0x08003900   0x00000078   Code   RO          671    .text               c_w.l(_printf_dec.o)
    0x08003978   0x08003978   0x0000010e   Code   RO          681    .text               c_w.l(__printf_wp.o)
    0x08003a86   0x08003a86   0x00000006   Code   RO          696    .text               c_w.l(heapauxi.o)
    0x08003a8c   0x08003a8c   0x00000002   Code   RO          760    .text               c_w.l(use_no_semi.o)
    0x08003a8e   0x08003a8e   0x000000b2   Code   RO          763    .text               c_w.l(_printf_intcommon.o)
    0x08003b40   0x08003b40   0x0000041e   Code   RO          765    .text               c_w.l(_printf_fp_dec.o)
    0x08003f5e   0x08003f5e   0x00000002   PAD
    0x08003f60   0x08003f60   0x00000030   Code   RO          767    .text               c_w.l(_printf_char_common.o)
    0x08003f90   0x08003f90   0x0000000a   Code   RO          769    .text               c_w.l(_sputc.o)
    0x08003f9a   0x08003f9a   0x00000002   PAD
    0x08003f9c   0x08003f9c   0x00000024   Code   RO          771    .text               c_w.l(_printf_char_file.o)
    0x08003fc0   0x08003fc0   0x00000008   Code   RO          823    .text               c_w.l(rt_locale_intlibspace.o)
    0x08003fc8   0x08003fc8   0x0000008a   Code   RO          825    .text               c_w.l(lludiv10.o)
    0x08004052   0x08004052   0x00000002   PAD
    0x08004054   0x08004054   0x00000080   Code   RO          827    .text               c_w.l(_printf_fp_infnan.o)
    0x080040d4   0x080040d4   0x000000e4   Code   RO          831    .text               c_w.l(bigflt0.o)
    0x080041b8   0x080041b8   0x00000008   Code   RO          856    .text               c_w.l(ferror.o)
    0x080041c0   0x080041c0   0x00000008   Code   RO          867    .text               c_w.l(libspace.o)
    0x080041c8   0x080041c8   0x0000004a   Code   RO          870    .text               c_w.l(sys_stackheap_outer.o)
    0x08004212   0x08004212   0x00000012   Code   RO          872    .text               c_w.l(exit.o)
    0x08004224   0x08004224   0x00000080   Code   RO          874    .text               c_w.l(strcmpv7m.o)
    0x080042a4   0x080042a4   0x0000003e   Code   RO          834    CL$$btod_d2e        c_w.l(btod.o)
    0x080042e2   0x080042e2   0x00000046   Code   RO          836    CL$$btod_d2e_denorm_low  c_w.l(btod.o)
    0x08004328   0x08004328   0x00000060   Code   RO          835    CL$$btod_d2e_norm_op1  c_w.l(btod.o)
    0x08004388   0x08004388   0x00000338   Code   RO          844    CL$$btod_div_common  c_w.l(btod.o)
    0x080046c0   0x080046c0   0x000000dc   Code   RO          841    CL$$btod_e2e        c_w.l(btod.o)
    0x0800479c   0x0800479c   0x0000002a   Code   RO          838    CL$$btod_ediv       c_w.l(btod.o)
    0x080047c6   0x080047c6   0x0000002a   Code   RO          837    CL$$btod_emul       c_w.l(btod.o)
    0x080047f0   0x080047f0   0x00000244   Code   RO          843    CL$$btod_mult_common  c_w.l(btod.o)
    0x08004a34   0x08004a34   0x00000028   Code   RO          801    i.__ARM_fpclassify  m_ws.l(fpclassify.o)
    0x08004a5c   0x08004a5c   0x000000aa   Code   RO          803    i.__kernel_poly     m_ws.l(poly.o)
    0x08004b06   0x08004b06   0x00000006   Code   RO          788    i.__mathlib_dbl_infnan  m_ws.l(dunder.o)
    0x08004b0c   0x08004b0c   0x00000010   Code   RO          793    i.__mathlib_dbl_underflow  m_ws.l(dunder.o)
    0x08004b1c   0x08004b1c   0x0000000e   Code   RO          683    i._is_digit         c_w.l(__printf_wp.o)
    0x08004b2a   0x08004b2a   0x00000002   PAD
    0x08004b2c   0x08004b2c   0x00000220   Code   RO          751    i.atan              m_ws.l(atan.o)
    0x08004d4c   0x08004d4c   0x0000002c   Code   RO          861    locale$$code        c_w.l(lc_numeric_c.o)
    0x08004d78   0x08004d78   0x00000062   Code   RO          700    x$fpl$d2f           fz_ws.l(d2f.o)
    0x08004dda   0x08004dda   0x00000002   PAD
    0x08004ddc   0x08004ddc   0x00000150   Code   RO          702    x$fpl$dadd          fz_ws.l(daddsub_clz.o)
    0x08004f2c   0x08004f2c   0x00000010   Code   RO          863    x$fpl$dcheck1       fz_ws.l(dcheck1.o)
    0x08004f3c   0x08004f3c   0x000002b0   Code   RO          709    x$fpl$ddiv          fz_ws.l(ddiv.o)
    0x080051ec   0x080051ec   0x0000002e   Code   RO          713    x$fpl$dflt          fz_ws.l(dflt_clz.o)
    0x0800521a   0x0800521a   0x00000002   PAD
    0x0800521c   0x0800521c   0x00000154   Code   RO          718    x$fpl$dmul          fz_ws.l(dmul.o)
    0x08005370   0x08005370   0x0000009c   Code   RO          774    x$fpl$dnaninf       fz_ws.l(dnaninf.o)
    0x0800540c   0x0800540c   0x0000000c   Code   RO          776    x$fpl$dretinf       fz_ws.l(dretinf.o)
    0x08005418   0x08005418   0x00000016   Code   RO          703    x$fpl$drsb          fz_ws.l(daddsub_clz.o)
    0x0800542e   0x0800542e   0x00000002   PAD
    0x08005430   0x08005430   0x000001d4   Code   RO          704    x$fpl$dsub          fz_ws.l(daddsub_clz.o)
    0x08005604   0x08005604   0x00000056   Code   RO          720    x$fpl$f2d           fz_ws.l(f2d.o)
    0x0800565a   0x0800565a   0x00000002   PAD
    0x0800565c   0x0800565c   0x000000c4   Code   RO          722    x$fpl$fadd          fz_ws.l(faddsub_clz.o)
    0x08005720   0x08005720   0x00000018   Code   RO          778    x$fpl$fcmpinf       fz_ws.l(fcmpi.o)
    0x08005738   0x08005738   0x00000184   Code   RO          729    x$fpl$fdiv          fz_ws.l(fdiv.o)
    0x080058bc   0x080058bc   0x00000036   Code   RO          732    x$fpl$ffix          fz_ws.l(ffix.o)
    0x080058f2   0x080058f2   0x00000002   PAD
    0x080058f4   0x080058f4   0x00000030   Code   RO          737    x$fpl$fflt          fz_ws.l(fflt_clz.o)
    0x08005924   0x08005924   0x00000026   Code   RO          736    x$fpl$ffltu         fz_ws.l(fflt_clz.o)
    0x0800594a   0x0800594a   0x00000002   PAD
    0x0800594c   0x0800594c   0x00000068   Code   RO          742    x$fpl$fleqf         fz_ws.l(fleqf.o)
    0x080059b4   0x080059b4   0x00000102   Code   RO          744    x$fpl$fmul          fz_ws.l(fmul.o)
    0x08005ab6   0x08005ab6   0x0000008c   Code   RO          780    x$fpl$fnaninf       fz_ws.l(fnaninf.o)
    0x08005b42   0x08005b42   0x0000000a   Code   RO          782    x$fpl$fretinf       fz_ws.l(fretinf.o)
    0x08005b4c   0x08005b4c   0x00000062   Code   RO          746    x$fpl$frleqf        fz_ws.l(frleqf.o)
    0x08005bae   0x08005bae   0x00000014   Code   RO          723    x$fpl$frsb          fz_ws.l(faddsub_clz.o)
    0x08005bc2   0x08005bc2   0x00000002   PAD
    0x08005bc4   0x08005bc4   0x000000ea   Code   RO          724    x$fpl$fsub          fz_ws.l(faddsub_clz.o)
    0x08005cae   0x08005cae   0x00000004   Code   RO          748    x$fpl$printf1       fz_ws.l(printf1.o)
    0x08005cb2   0x08005cb2   0x00000064   Code   RO          927    x$fpl$retnan        fz_ws.l(retnan.o)
    0x08005d16   0x08005d16   0x0000005c   Code   RO          784    x$fpl$scalbn        fz_ws.l(scalbn.o)
    0x08005d72   0x08005d72   0x00000030   Code   RO          935    x$fpl$trapveneer    fz_ws.l(trapv.o)
    0x08005da2   0x08005da2   0x00000000   Code   RO          786    x$fpl$usenofp       fz_ws.l(usenofp.o)
    0x08005da2   0x08005da2   0x00001a80   Data   RO          572    .constdata          oled.o
    0x08007822   0x08007822   0x00000006   PAD
    0x08007828   0x08007828   0x00000098   Data   RO          752    .constdata          m_ws.l(atan.o)
    0x080078c0   0x080078c0   0x00000094   Data   RO          832    .constdata          c_w.l(bigflt0.o)
    0x08007954   0x08007954   0x00000058   Data   RO            3    .conststring        main.o
    0x080079ac   0x080079ac   0x00000020   Data   RO         1006    Region$$Table       anon$$obj.o
    0x080079cc   0x080079cc   0x0000001c   Data   RO          860    locale$$data        c_w.l(lc_numeric_c.o)


    Execution Region RW_IRAM1 (Exec base: 0x20000000, Load base: 0x080079e8, Size: 0x00001f58, Max: 0x00005000, ABSOLUTE, COMPRESSED[0x000000dc])

    Exec Addr    Load Addr    Size         Type   Attr      Idx    E Section Name        Object

    0x20000000   COMPRESSED   0x00000014   Data   RW          189    .data               system_stm32f10x.o
    0x20000014   COMPRESSED   0x00000014   Data   RW          417    .data               stm32f10x_rcc.o
    0x20000028   COMPRESSED   0x00000004   Data   RW          503    .data               delay.o
    0x2000002c   COMPRESSED   0x00000006   Data   RW          534    .data               usart.o
    0x20000032   COMPRESSED   0x000012d8   Data   RW          573    .data               oled.o
    0x2000130a   COMPRESSED   0x00000002   PAD
    0x2000130c   COMPRESSED   0x00000080   Data   RW          595    .data               kalman.o
    0x2000138c        -       0x00000014   Zero   RW            2    .bss                main.o
    0x200013a0        -       0x000000c8   Zero   RW          533    .bss                usart.o
    0x20001468        -       0x00000480   Zero   RW          571    .bss                oled.o
    0x200018e8        -       0x00000010   Zero   RW          594    .bss                kalman.o
    0x200018f8        -       0x00000060   Zero   RW          868    .bss                c_w.l(libspace.o)
    0x20001958        -       0x00000200   Zero   RW          218    HEAP                startup_stm32f10x_md.o
    0x20001b58        -       0x00000400   Zero   RW          217    STACK               startup_stm32f10x_md.o


==============================================================================

Image component sizes


      Code (inc. data)   RO Data    RW Data    ZI Data      Debug   Object Name

         0          0          0          0          0         32   core_cm3.o
       212         18          0          4          0       1287   delay.o
      2112        184          0        128         16       3366   kalman.o
        56          6          0          0          0        603   led.o
       580         74         88          0         20     254182   main.o
       220         22          0          0          0       2041   misc.o
       648         16          0          0          0       3587   mpu6050.o
       588         14          0          0          0       2182   mpuiic.o
      2072         46       6784       4824       1152       8926   oled.o
        64         26        236          0       1536        880   startup_stm32f10x_md.o
       860         38          0          0          0       5977   stm32f10x_gpio.o
        26          0          0          0          0       1302   stm32f10x_it.o
       932         36          0         20          0       9280   stm32f10x_rcc.o
      3610         88          0          0          0      23084   stm32f10x_tim.o
      1032         22          0          0          0       8700   stm32f10x_usart.o
       480         38          0         20          0       2103   system_stm32f10x.o
       140          8          0          0          0        912   timer.o
       320         16          0          6        200       3534   usart.o

    ----------------------------------------------------------------------
     13956        652       7146       5004       2924     331978   Object Totals
         0          0         32          0          0          0   (incl. Generated)
         4          0          6          2          0          0   (incl. Padding)

    ----------------------------------------------------------------------

      Code (inc. data)   RO Data    RW Data    ZI Data      Debug   Library Member Name

        90          0          0          0          0          0   __dczerorl2.o
         8          0          0          0          0         68   __main.o
       284          0          0          0          0        156   __printf_wp.o
         0          0          0          0          0          0   __rtentry.o
        12          0          0          0          0          0   __rtentry2.o
         6          0          0          0          0          0   __rtentry4.o
        52          8          0          0          0          0   __scatter.o
        28          0          0          0          0          0   __scatter_zi.o
        48          6          0          0          0         96   _printf_char_common.o
        36          4          0          0          0         80   _printf_char_file.o
         6          0          0          0          0          0   _printf_d.o
       120         16          0          0          0         92   _printf_dec.o
         6          0          0          0          0          0   _printf_f.o
      1054          0          0          0          0        216   _printf_fp_dec.o
       128         16          0          0          0         84   _printf_fp_infnan.o
       178          0          0          0          0         88   _printf_intcommon.o
        78          0          0          0          0        108   _printf_pad.o
         0          0          0          0          0          0   _printf_percent.o
         4          0          0          0          0          0   _printf_percent_end.o
        10          0          0          0          0         68   _sputc.o
       228          4        148          0          0         96   bigflt0.o
      1936        128          0          0          0        672   btod.o
        18          0          0          0          0         80   exit.o
         8          0          0          0          0         68   ferror.o
         6          0          0          0          0        152   heapauxi.o
        44         10         28          0          0         76   lc_numeric_c.o
         2          0          0          0          0          0   libinit.o
        18          0          0          0          0          0   libinit2.o
         2          0          0          0          0          0   libshutdown.o
         2          0          0          0          0          0   libshutdown2.o
         8          4          0          0         96         68   libspace.o
       138          0          0          0          0         80   lludiv10.o
        24          4          0          0          0         84   noretval__2printf.o
        40          6          0          0          0         84   noretval__2sprintf.o
         8          4          0          0          0         68   rt_locale_intlibspace.o
         2          0          0          0          0          0   rtexit.o
        10          0          0          0          0          0   rtexit2.o
       128          0          0          0          0         68   strcmpv7m.o
        74          0          0          0          0         80   sys_stackheap_outer.o
         2          0          0          0          0         68   use_no_semi.o
         2          0          0          0          0         68   use_no_semi_2.o
        98          4          0          0          0         92   d2f.o
       826         16          0          0          0        348   daddsub_clz.o
        16          4          0          0          0         68   dcheck1.o
       688        140          0          0          0        208   ddiv.o
        46          0          0          0          0         68   dflt_clz.o
       340         12          0          0          0        104   dmul.o
       156          4          0          0          0         92   dnaninf.o
        12          0          0          0          0         68   dretinf.o
        86          4          0          0          0         84   f2d.o
       450          8          0          0          0        236   faddsub_clz.o
        24          0          0          0          0         68   fcmpi.o
       388         76          0          0          0         96   fdiv.o
        54          4          0          0          0         84   ffix.o
        86          0          0          0          0        136   fflt_clz.o
       104          4          0          0          0         84   fleqf.o
       258          4          0          0          0         84   fmul.o
       140          4          0          0          0         84   fnaninf.o
        10          0          0          0          0         68   fretinf.o
        98          0          0          0          0         68   frleqf.o
         4          0          0          0          0         68   printf1.o
       100          0          0          0          0         68   retnan.o
        92          0          0          0          0         68   scalbn.o
        48          0          0          0          0         68   trapv.o
         0          0          0          0          0          0   usenofp.o
       544         70        152          0          0        124   atan.o
        22          6          0          0          0        136   dunder.o
        40          0          0          0          0         68   fpclassify.o
       170          0          0          0          0         96   poly.o

    ----------------------------------------------------------------------
      9778        570        328          0         96       5704   Library Totals
        30          0          0          0          0          0   (incl. Padding)

    ----------------------------------------------------------------------

      Code (inc. data)   RO Data    RW Data    ZI Data      Debug   Library Name

      4848        210        176          0         96       2868   c_w.l
      4124        284          0          0          0       2412   fz_ws.l
       776         76        152          0          0        424   m_ws.l

    ----------------------------------------------------------------------
      9778        570        328          0         96       5704   Library Totals

    ----------------------------------------------------------------------

==============================================================================


      Code (inc. data)   RO Data    RW Data    ZI Data      Debug   

     23734       1222       7474       5004       3020     333258   Grand Totals
     23734       1222       7474        220       3020     333258   ELF Image Totals (compressed)
     23734       1222       7474        220          0          0   ROM Totals

==============================================================================

    Total RO  Size (Code + RO Data)                31208 (  30.48kB)
    Total RW  Size (RW Data + ZI Data)              8024 (   7.84kB)
    Total ROM Size (Code + RO Data + RW Data)      31428 (  30.69kB)

==============================================================================

